{
  "transactions": [
    {
      "hash": "0xe946b4cf8e9ca7c8c6763893b986a19a04b31ef4d8710a5c7f768dadbbe9d396",
      "transactionType": "CALL",
      "contractName": null,
      "contractAddress": "0x47036d78bb3169b4f5560dd77bf93f4412a59852",
      "function": "propose(address[],uint256[],bytes[],string)",
      "arguments": [
        "[0x22d9db95E6Ae61c104A7B6F6C78D7993B94ec901]",
        "[0]",
        "[0xbb913f41000000000000000000000000c016174b60519bdc24433d4ed2cff6c1efac7881]",
        "{\\\"description\\\":\\\"## TL;DR\\\\n\\\\nWe propose upgrading the BiPoolManager implementation to a new version that adds a `setSpread` function. The currently deployed implementation requires destroying and recreating a pool to change its fee, making fee adjustments operationally expensive. This upgrade enables the contract owner to adjust spread fees directly, starting with a reduction from 5bps to 2bps on select USDm pairs.\\\\n\\\\n---\\\\n\\\\n## Overview\\\\n\\\\nThe currently deployed BiPoolManager implementation does not have a `setSpread` function, meaning every fee change requires destroying and recreating the pool with the new fee parameters. This proposal upgrades the BiPoolManager proxy to a new implementation that adds a `setSpread` function, allowing the contract owner to adjust spread fees directly without the overhead of pool destruction and recreation.\\\\n\\\\nThe motivation behind this change is to enable fee structure experimentation on Mento collateral pools. The previous 5bps spread fee, introduced via MGP-13, was set to protect reserves from arbitrage losses and generate protocol revenue. However, Mento Labs aims to optimize the fee structure by balancing reserve protection and protocol revenue with keeping Mento competitive in on-chain stablecoin swaps.\\\\n\\\\n### Initial Fee Adjustment\\\\n\\\\nFollowing this upgrade, Mento Labs plans to reduce spread fees from 5bps to 2bps on:\\\\n\\\\n- USDm to USDC\\\\n- USDm to axlUSDC\\\\n- USDm to USDT\\\\n\\\\nOngoing monitoring of swap volume, reserve impact, and protocol revenue will inform further adjustments, communicated via the forum.\\\\n\\\\nFor full details, see the forum discussion: [Fee Structure Experimentation on Mento Collateral Pools](https://forum.mento.org/t/fee-structure-experimentation-on-mento-collateral-pools/115)\\\\n\\\\n---\\\\n\\\\n### Security Considerations\\\\n\\\\n**Risk Assessment**\\\\n\\\\n- The upgrade only changes the BiPoolManager implementation; no ownership transfers are involved.\\\\n- The governance timelock retains proxy admin ownership of the BiPoolManager.\\\\n\\\\n**Safety Measures**\\\\n\\\\nThe new implementation is the same one that was used in [MGP-13: Increase Circuit Breaker to 15bps and Enable 5bps Spread Fee](https://governance.mento.org/proposals/33774473826582746102247872468112299588808192529529153992548885265611575112929), which has already been reviewed and executed successfully. The proxy upgrade mechanism is the same Celo legacy proxy pattern used across all existing Mento V2 contracts.\\\\n\\\\n### Transaction Details\\\\n\\\\nThis proposal consists of **1 transaction**.\\\\n\\\\n**Step 1: Upgrade BiPoolManager Implementation (1 transaction)**\\\\n\\\\nUpgrade the BiPoolManager proxy to the new implementation that adds the `setSpread` function.\\\\n\\\\n- Call `_setImplementation(address)` on the BiPoolManager proxy\\\\n\\\\n| Contract      | Address                                    |\\\\n| ------------- | ------------------------------------------ |\\\\n| BiPoolManager (proxy) | 0x22d9db95E6Ae61c104A7B6F6C78D7993B94ec901 |\\\\n| New Implementation    | 0xC016174B60519Bdc24433d4ed2cFf6c1efaC7881 |\\\\n\\\",\\\"title\\\":\\\"MGP-17: Upgrade BiPoolManager with FeeSetter\\\"}"
      ],
      "transaction": {
        "from": "0x2738f38fde510743e0c589415e0598c4cee6eaa7",
        "to": "0x47036d78bb3169b4f5560dd77bf93f4412a59852",
        "gas": "0x9b477",
        "value": "0x0",
        "input": "0x7d5e81e2000000000000000000000000000000000000000000000000000000000000008000000000000000000000000000000000000000000000000000000000000000c0000000000000000000000000000000000000000000000000000000000000010000000000000000000000000000000000000000000000000000000000000001a0000000000000000000000000000000000000000000000000000000000000000100000000000000000000000022d9db95e6ae61c104a7b6f6c78d7993b94ec90100000000000000000000000000000000000000000000000000000000000000010000000000000000000000000000000000000000000000000000000000000000000000000000000000000000000000000000000000000000000000000000000100000000000000000000000000000000000000000000000000000000000000200000000000000000000000000000000000000000000000000000000000000024bb913f41000000000000000000000000c016174b60519bdc24433d4ed2cff6c1efac7881000000000000000000000000000000000000000000000000000000000000000000000000000000000000000000000000000000000000000000000c0b7b226465736372697074696f6e223a22232320544c3b44525c6e5c6e57652070726f706f736520757067726164696e6720746865204269506f6f6c4d616e6167657220696d706c656d656e746174696f6e20746f2061206e65772076657273696f6e2074686174206164647320612060736574537072656164602066756e6374696f6e2e205468652063757272656e746c79206465706c6f79656420696d706c656d656e746174696f6e2072657175697265732064657374726f79696e6720616e642072656372656174696e67206120706f6f6c20746f206368616e676520697473206665652c206d616b696e67206665652061646a7573746d656e7473206f7065726174696f6e616c6c7920657870656e736976652e2054686973207570677261646520656e61626c65732074686520636f6e7472616374206f776e657220746f2061646a757374207370726561642066656573206469726563746c792c207374617274696e672077697468206120726564756374696f6e2066726f6d203562707320746f2032627073206f6e2073656c656374205553446d2070616972732e5c6e5c6e2d2d2d5c6e5c6e2323204f766572766965775c6e5c6e5468652063757272656e746c79206465706c6f796564204269506f6f6c4d616e6167657220696d706c656d656e746174696f6e20646f6573206e6f74206861766520612060736574537072656164602066756e6374696f6e2c206d65616e696e6720657665727920666565206368616e67652072657175697265732064657374726f79696e6720616e642072656372656174696e672074686520706f6f6c207769746820746865206e65772066656520706172616d65746572732e20546869732070726f706f73616c20757067726164657320746865204269506f6f6c4d616e616765722070726f787920746f2061206e657720696d706c656d656e746174696f6e2074686174206164647320612060736574537072656164602066756e6374696f6e2c20616c6c6f77696e672074686520636f6e7472616374206f776e657220746f2061646a757374207370726561642066656573206469726563746c7920776974686f757420746865206f76657268656164206f6620706f6f6c206465737472756374696f6e20616e642072656372656174696f6e2e5c6e5c6e546865206d6f7469766174696f6e20626568696e642074686973206368616e676520697320746f20656e61626c652066656520737472756374757265206578706572696d656e746174696f6e206f6e204d656e746f20636f6c6c61746572616c20706f6f6c732e205468652070726576696f7573203562707320737072656164206665652c20696e74726f647563656420766961204d47502d31332c207761732073657420746f2070726f746563742072657365727665732066726f6d20617262697472616765206c6f7373657320616e642067656e65726174652070726f746f636f6c20726576656e75652e20486f77657665722c204d656e746f204c6162732061696d7320746f206f7074696d697a652074686520666565207374727563747572652062792062616c616e63696e6720726573657276652070726f74656374696f6e20616e642070726f746f636f6c20726576656e75652077697468206b656570696e67204d656e746f20636f6d706574697469766520696e206f6e2d636861696e20737461626c65636f696e2073776170732e5c6e5c6e23232320496e697469616c204665652041646a7573746d656e745c6e5c6e466f6c6c6f77696e67207468697320757067726164652c204d656e746f204c61627320706c616e7320746f207265647563652073707265616420666565732066726f6d203562707320746f2032627073206f6e3a5c6e5c6e2d205553446d20746f20555344435c6e2d205553446d20746f2061786c555344435c6e2d205553446d20746f20555344545c6e5c6e4f6e676f696e67206d6f6e69746f72696e67206f66207377617020766f6c756d652c207265736572766520696d706163742c20616e642070726f746f636f6c20726576656e75652077696c6c20696e666f726d20667572746865722061646a7573746d656e74732c20636f6d6d756e696361746564207669612074686520666f72756d2e5c6e5c6e466f722066756c6c2064657461696c732c207365652074686520666f72756d2064697363757373696f6e3a205b46656520537472756374757265204578706572696d656e746174696f6e206f6e204d656e746f20436f6c6c61746572616c20506f6f6c735d2868747470733a2f2f666f72756d2e6d656e746f2e6f72672f742f6665652d7374727563747572652d6578706572696d656e746174696f6e2d6f6e2d6d656e746f2d636f6c6c61746572616c2d706f6f6c732f313135295c6e5c6e2d2d2d5c6e5c6e23232320536563757269747920436f6e73696465726174696f6e735c6e5c6e2a2a5269736b204173736573736d656e742a2a5c6e5c6e2d205468652075706772616465206f6e6c79206368616e67657320746865204269506f6f6c4d616e6167657220696d706c656d656e746174696f6e3b206e6f206f776e657273686970207472616e73666572732061726520696e766f6c7665642e5c6e2d2054686520676f7665726e616e63652074696d656c6f636b2072657461696e732070726f78792061646d696e206f776e657273686970206f6620746865204269506f6f6c4d616e616765722e5c6e5c6e2a2a536166657479204d656173757265732a2a5c6e5c6e546865206e657720696d706c656d656e746174696f6e206973207468652073616d65206f6e65207468617420776173207573656420696e205b4d47502d31333a20496e637265617365204369726375697420427265616b657220746f20313562707320616e6420456e61626c65203562707320537072656164204665655d2868747470733a2f2f676f7665726e616e63652e6d656e746f2e6f72672f70726f706f73616c732f3333373734343733383236353832373436313032323437383732343638313132323939353838383038313932353239353239313533393932353438383835323635363131353735313132393239292c2077686963682068617320616c7265616479206265656e20726576696577656420616e64206578656375746564207375636365737366756c6c792e205468652070726f78792075706772616465206d656368616e69736d206973207468652073616d652043656c6f206c65676163792070726f7879207061747465726e2075736564206163726f737320616c6c206578697374696e67204d656e746f20563220636f6e7472616374732e5c6e5c6e232323205472616e73616374696f6e2044657461696c735c6e5c6e546869732070726f706f73616c20636f6e7369737473206f66202a2a31207472616e73616374696f6e2a2a2e5c6e5c6e2a2a5374657020313a2055706772616465204269506f6f6c4d616e6167657220496d706c656d656e746174696f6e202831207472616e73616374696f6e292a2a5c6e5c6e5570677261646520746865204269506f6f6c4d616e616765722070726f787920746f20746865206e657720696d706c656d656e746174696f6e20746861742061646473207468652060736574537072656164602066756e6374696f6e2e5c6e5c6e2d2043616c6c20605f736574496d706c656d656e746174696f6e28616464726573732960206f6e20746865204269506f6f6c4d616e616765722070726f78795c6e5c6e7c20436f6e74726163742020202020207c20416464726573732020202020202020202020202020202020202020202020202020202020202020202020207c5c6e7c202d2d2d2d2d2d2d2d2d2d2d2d2d207c202d2d2d2d2d2d2d2d2d2d2d2d2d2d2d2d2d2d2d2d2d2d2d2d2d2d2d2d2d2d2d2d2d2d2d2d2d2d2d2d2d2d207c5c6e7c204269506f6f6c4d616e61676572202870726f787929207c20307832326439646239354536416536316331303441374236463643373844373939334239346563393031207c5c6e7c204e657720496d706c656d656e746174696f6e202020207c20307843303136313734423630353139426463323434333364346564326346663663316566614337383831207c5c6e222c227469746c65223a224d47502d31373a2055706772616465204269506f6f6c4d616e61676572207769746820466565536574746572227d000000000000000000000000000000000000000000",
        "nonce": "0x19b",
        "chainId": "0xa4ec"
      },
      "additionalContracts": [],
      "isFixedGasLimit": false
    }
  ],
  "receipts": [
    {
      "type": "0x2",
      "status": "0x1",
      "cumulativeGasUsed": "0xc09a4e",
      "logs": [
        {
          "address": "0x47036d78bb3169b4f5560dd77bf93f4412a59852",
          "topics": [
            "0x7d84a6263ae0d98d3329bd7b46bb4e8d6f98cd35a7adb45c274c8b7fd5ebd5e0"
          ],
          "data": "0x698a8928244867a0a10d98a4fceb37d150c6bb26832dc9929701f7d4db1fca520000000000000000000000002738f38fde510743e0c589415e0598c4cee6eaa70000000000000000000000000000000000000000000000000000000000000120000000000000000000000000000000000000000000000000000000000000016000000000000000000000000000000000000000000000000000000000000001a000000000000000000000000000000000000000000000000000000000000002000000000000000000000000000000000000000000000000000000000003d626df0000000000000000000000000000000000000000000000000000000003e0b2df00000000000000000000000000000000000000000000000000000000000002a0000000000000000000000000000000000000000000000000000000000000000100000000000000000000000022d9db95e6ae61c104a7b6f6c78d7993b94ec90100000000000000000000000000000000000000000000000000000000000000010000000000000000000000000000000000000000000000000000000000000000000000000000000000000000000000000000000000000000000000000000000100000000000000000000000000000000000000000000000000000000000000200000000000000000000000000000000000000000000000000000000000000000000000000000000000000000000000000000000000000000000000000000000100000000000000000000000000000000000000000000000000000000000000200000000000000000000000000000000000000000000000000000000000000024bb913f41000000000000000000000000c016174b60519bdc24433d4ed2cff6c1efac7881000000000000000000000000000000000000000000000000000000000000000000000000000000000000000000000000000000000000000000000c0b7b226465736372697074696f6e223a22232320544c3b44525c6e5c6e57652070726f706f736520757067726164696e6720746865204269506f6f6c4d616e6167657220696d706c656d656e746174696f6e20746f2061206e65772076657273696f6e2074686174206164647320612060736574537072656164602066756e6374696f6e2e205468652063757272656e746c79206465706c6f79656420696d706c656d656e746174696f6e2072657175697265732064657374726f79696e6720616e642072656372656174696e67206120706f6f6c20746f206368616e676520697473206665652c206d616b696e67206665652061646a7573746d656e7473206f7065726174696f6e616c6c7920657870656e736976652e2054686973207570677261646520656e61626c65732074686520636f6e7472616374206f776e657220746f2061646a757374207370726561642066656573206469726563746c792c207374617274696e672077697468206120726564756374696f6e2066726f6d203562707320746f2032627073206f6e2073656c656374205553446d2070616972732e5c6e5c6e2d2d2d5c6e5c6e2323204f766572766965775c6e5c6e5468652063757272656e746c79206465706c6f796564204269506f6f6c4d616e6167657220696d706c656d656e746174696f6e20646f6573206e6f74206861766520612060736574537072656164602066756e6374696f6e2c206d65616e696e6720657665727920666565206368616e67652072657175697265732064657374726f79696e6720616e642072656372656174696e672074686520706f6f6c207769746820746865206e65772066656520706172616d65746572732e20546869732070726f706f73616c20757067726164657320746865204269506f6f6c4d616e616765722070726f787920746f2061206e657720696d706c656d656e746174696f6e2074686174206164647320612060736574537072656164602066756e6374696f6e2c20616c6c6f77696e672074686520636f6e7472616374206f776e657220746f2061646a757374207370726561642066656573206469726563746c7920776974686f757420746865206f76657268656164206f6620706f6f6c206465737472756374696f6e20616e642072656372656174696f6e2e5c6e5c6e546865206d6f7469766174696f6e20626568696e642074686973206368616e676520697320746f20656e61626c652066656520737472756374757265206578706572696d656e746174696f6e206f6e204d656e746f20636f6c6c61746572616c20706f6f6c732e205468652070726576696f7573203562707320737072656164206665652c20696e74726f647563656420766961204d47502d31332c207761732073657420746f2070726f746563742072657365727665732066726f6d20617262697472616765206c6f7373657320616e642067656e65726174652070726f746f636f6c20726576656e75652e20486f77657665722c204d656e746f204c6162732061696d7320746f206f7074696d697a652074686520666565207374727563747572652062792062616c616e63696e6720726573657276652070726f74656374696f6e20616e642070726f746f636f6c20726576656e75652077697468206b656570696e67204d656e746f20636f6d706574697469766520696e206f6e2d636861696e20737461626c65636f696e2073776170732e5c6e5c6e23232320496e697469616c204665652041646a7573746d656e745c6e5c6e466f6c6c6f77696e67207468697320757067726164652c204d656e746f204c61627320706c616e7320746f207265647563652073707265616420666565732066726f6d203562707320746f2032627073206f6e3a5c6e5c6e2d205553446d20746f20555344435c6e2d205553446d20746f2061786c555344435c6e2d205553446d20746f20555344545c6e5c6e4f6e676f696e67206d6f6e69746f72696e67206f66207377617020766f6c756d652c207265736572766520696d706163742c20616e642070726f746f636f6c20726576656e75652077696c6c20696e666f726d20667572746865722061646a7573746d656e74732c20636f6d6d756e696361746564207669612074686520666f72756d2e5c6e5c6e466f722066756c6c2064657461696c732c207365652074686520666f72756d2064697363757373696f6e3a205b46656520537472756374757265204578706572696d656e746174696f6e206f6e204d656e746f20436f6c6c61746572616c20506f6f6c735d2868747470733a2f2f666f72756d2e6d656e746f2e6f72672f742f6665652d7374727563747572652d6578706572696d656e746174696f6e2d6f6e2d6d656e746f2d636f6c6c61746572616c2d706f6f6c732f313135295c6e5c6e2d2d2d5c6e5c6e23232320536563757269747920436f6e73696465726174696f6e735c6e5c6e2a2a5269736b204173736573736d656e742a2a5c6e5c6e2d205468652075706772616465206f6e6c79206368616e67657320746865204269506f6f6c4d616e6167657220696d706c656d656e746174696f6e3b206e6f206f776e657273686970207472616e73666572732061726520696e766f6c7665642e5c6e2d2054686520676f7665726e616e63652074696d656c6f636b2072657461696e732070726f78792061646d696e206f776e657273686970206f6620746865204269506f6f6c4d616e616765722e5c6e5c6e2a2a536166657479204d656173757265732a2a5c6e5c6e546865206e657720696d706c656d656e746174696f6e206973207468652073616d65206f6e65207468617420776173207573656420696e205b4d47502d31333a20496e637265617365204369726375697420427265616b657220746f20313562707320616e6420456e61626c65203562707320537072656164204665655d2868747470733a2f2f676f7665726e616e63652e6d656e746f2e6f72672f70726f706f73616c732f3333373734343733383236353832373436313032323437383732343638313132323939353838383038313932353239353239313533393932353438383835323635363131353735313132393239292c2077686963682068617320616c7265616479206265656e20726576696577656420616e64206578656375746564207375636365737366756c6c792e205468652070726f78792075706772616465206d656368616e69736d206973207468652073616d652043656c6f206c65676163792070726f7879207061747465726e2075736564206163726f737320616c6c206578697374696e67204d656e746f20563220636f6e7472616374732e5c6e5c6e232323205472616e73616374696f6e2044657461696c735c6e5c6e546869732070726f706f73616c20636f6e7369737473206f66202a2a31207472616e73616374696f6e2a2a2e5c6e5c6e2a2a5374657020313a2055706772616465204269506f6f6c4d616e6167657220496d706c656d656e746174696f6e202831207472616e73616374696f6e292a2a5c6e5c6e5570677261646520746865204269506f6f6c4d616e616765722070726f787920746f20746865206e657720696d706c656d656e746174696f6e20746861742061646473207468652060736574537072656164602066756e6374696f6e2e5c6e5c6e2d2043616c6c20605f736574496d706c656d656e746174696f6e28616464726573732960206f6e20746865204269506f6f6c4d616e616765722070726f78795c6e5c6e7c20436f6e74726163742020202020207c20416464726573732020202020202020202020202020202020202020202020202020202020202020202020207c5c6e7c202d2d2d2d2d2d2d2d2d2d2d2d2d207c202d2d2d2d2d2d2d2d2d2d2d2d2d2d2d2d2d2d2d2d2d2d2d2d2d2d2d2d2d2d2d2d2d2d2d2d2d2d2d2d2d2d207c5c6e7c204269506f6f6c4d616e61676572202870726f787929207c20307832326439646239354536416536316331303441374236463643373844373939334239346563393031207c5c6e7c204e657720496d706c656d656e746174696f6e202020207c20307843303136313734423630353139426463323434333364346564326346663663316566614337383831207c5c6e222c227469746c65223a224d47502d31373a2055706772616465204269506f6f6c4d616e61676572207769746820466565536574746572227d000000000000000000000000000000000000000000",
          "blockHash": "0x74adb2ce4b0cdfef4b3f04745d816478b52089c8bf09943348fe40099d640f97",
          "blockNumber": "0x3d626df",
          "blockTimestamp": "0x69dfaf35",
          "transactionHash": "0xe946b4cf8e9ca7c8c6763893b986a19a04b31ef4d8710a5c7f768dadbbe9d396",
          "transactionIndex": "0x29",
          "logIndex": "0x168",
          "removed": false
        }
      ],
      "logsBloom": "0x00000000000000000000000000000000000000000000000000040000000000000000000000000000000000000000000000000000000000000000000000000000000000000002000000000000000000000000000000000000000000000000000000000000000000000040000000000000000000000000000000000000000000000000000000000000000000000000000000000000000000000000000000000000080000000000000000000000000000000000000000000000000000000000000200000000000000000000000000000000000000000000000000000040000000000000000000000000000000000000000000000000000000000000000000000000",
      "transactionHash": "0xe946b4cf8e9ca7c8c6763893b986a19a04b31ef4d8710a5c7f768dadbbe9d396",
      "transactionIndex": "0x29",
      "blockHash": "0x74adb2ce4b0cdfef4b3f04745d816478b52089c8bf09943348fe40099d640f97",
      "blockNumber": "0x3d626df",
      "gasUsed": "0x706b6",
      "effectiveGasPrice": "0x5d2b099a9",
      "blobGasUsed": "0x6fa",
      "from": "0x2738f38fde510743e0c589415e0598c4cee6eaa7",
      "to": "0x47036d78bb3169b4f5560dd77bf93f4412a59852",
      "contractAddress": null
    }
  ],
  "libraries": [
    "lib/mento-stabletoken-ntt/evm/src/libraries/TransceiverStructs.sol:TransceiverStructs:0x7C2420401eB6bEB50501Fd5bc8b60DBfC2b0dEF0"
  ],
  "pending": [],
  "returns": {},
  "timestamp": 1776267061591,
  "chain": 42220,
  "commit": "a489521"
}