{
  "transactions": [
    {
      "hash": "0xa9ab4c900746f1c93a28a089b767e397af0c73b364dbbceafd4ee6744c7e95ad",
      "transactionType": "CALL",
      "contractName": null,
      "contractAddress": "0x578bd46003b9d3fd4c3c3f47c98b329562a6a1de",
      "function": "addBreaker(address,uint8)",
      "arguments": [
        "0x99C968Bf5972C11442654b989B7eAD0237cA654B",
        "3"
      ],
      "transaction": {
        "from": "0x2738f38fde510743e0c589415e0598c4cee6eaa7",
        "to": "0x578bd46003b9d3fd4c3c3f47c98b329562a6a1de",
        "gas": "0x1c82d",
        "value": "0x0",
        "input": "0x2eeae99600000000000000000000000099c968bf5972c11442654b989b7ead0237ca654b0000000000000000000000000000000000000000000000000000000000000003",
        "nonce": "0x4f",
        "chainId": "0xaa044c"
      },
      "additionalContracts": [],
      "isFixedGasLimit": false
    },
    {
      "hash": "0x09e73c3bcc637f177811a4d853dac675a82478ac65f90cb74340b8379cb4543d",
      "transactionType": "CALL",
      "contractName": null,
      "contractAddress": "0x578bd46003b9d3fd4c3c3f47c98b329562a6a1de",
      "function": "toggleBreaker(address,address,bool)",
      "arguments": [
        "0x99C968Bf5972C11442654b989B7eAD0237cA654B",
        "0x5D5a22116233BDb2a9C2977279cC348B8b8Ce917",
        "true"
      ],
      "transaction": {
        "from": "0x2738f38fde510743e0c589415e0598c4cee6eaa7",
        "to": "0x578bd46003b9d3fd4c3c3f47c98b329562a6a1de",
        "gas": "0x2af3b",
        "value": "0x0",
        "input": "0x0c60714600000000000000000000000099c968bf5972c11442654b989b7ead0237ca654b0000000000000000000000005d5a22116233bdb2a9c2977279cc348b8b8ce9170000000000000000000000000000000000000000000000000000000000000001",
        "nonce": "0x50",
        "chainId": "0xaa044c"
      },
      "additionalContracts": [],
      "isFixedGasLimit": false
    },
    {
      "hash": "0xc0813bdc37aac3141e144a363c491c874b83c4d16ffc2890a8365584f98f5681",
      "transactionType": "CALL",
      "contractName": null,
      "contractAddress": "0x578bd46003b9d3fd4c3c3f47c98b329562a6a1de",
      "function": "toggleBreaker(address,address,bool)",
      "arguments": [
        "0x99C968Bf5972C11442654b989B7eAD0237cA654B",
        "0xCE1213507c81576759181A2b795f3c9aE5ede6bd",
        "true"
      ],
      "transaction": {
        "from": "0x2738f38fde510743e0c589415e0598c4cee6eaa7",
        "to": "0x578bd46003b9d3fd4c3c3f47c98b329562a6a1de",
        "gas": "0x2ae38",
        "value": "0x0",
        "input": "0x0c60714600000000000000000000000099c968bf5972c11442654b989b7ead0237ca654b000000000000000000000000ce1213507c81576759181a2b795f3c9ae5ede6bd0000000000000000000000000000000000000000000000000000000000000001",
        "nonce": "0x51",
        "chainId": "0xaa044c"
      },
      "additionalContracts": [],
      "isFixedGasLimit": false
    },
    {
      "hash": "0x4d2d7a1e34e1e5bdc4073f82c1e90153434077421ed01c972f05ab957d72219b",
      "transactionType": "CALL",
      "contractName": null,
      "contractAddress": "0x578bd46003b9d3fd4c3c3f47c98b329562a6a1de",
      "function": "toggleBreaker(address,address,bool)",
      "arguments": [
        "0x99C968Bf5972C11442654b989B7eAD0237cA654B",
        "0xBBc9c6E41E2A402b12992875eDaa0162Ed990212",
        "true"
      ],
      "transaction": {
        "from": "0x2738f38fde510743e0c589415e0598c4cee6eaa7",
        "to": "0x578bd46003b9d3fd4c3c3f47c98b329562a6a1de",
        "gas": "0x2ae38",
        "value": "0x0",
        "input": "0x0c60714600000000000000000000000099c968bf5972c11442654b989b7ead0237ca654b000000000000000000000000bbc9c6e41e2a402b12992875edaa0162ed9902120000000000000000000000000000000000000000000000000000000000000001",
        "nonce": "0x52",
        "chainId": "0xaa044c"
      },
      "additionalContracts": [],
      "isFixedGasLimit": false
    },
    {
      "hash": "0x102abd5cfc75a178f07a39689d257c01e7bdb9113a2d9f8071bc3a9a3ad279a0",
      "transactionType": "CALL",
      "contractName": null,
      "contractAddress": "0x578bd46003b9d3fd4c3c3f47c98b329562a6a1de",
      "function": "toggleBreaker(address,address,bool)",
      "arguments": [
        "0x99C968Bf5972C11442654b989B7eAD0237cA654B",
        "0xbAcEE37d31b9f022Ef5d232B9fD53F05a531c169",
        "true"
      ],
      "transaction": {
        "from": "0x2738f38fde510743e0c589415e0598c4cee6eaa7",
        "to": "0x578bd46003b9d3fd4c3c3f47c98b329562a6a1de",
        "gas": "0x2ae38",
        "value": "0x0",
        "input": "0x0c60714600000000000000000000000099c968bf5972c11442654b989b7ead0237ca654b000000000000000000000000bacee37d31b9f022ef5d232b9fd53f05a531c1690000000000000000000000000000000000000000000000000000000000000001",
        "nonce": "0x53",
        "chainId": "0xaa044c"
      },
      "additionalContracts": [],
      "isFixedGasLimit": false
    },
    {
      "hash": "0x7be50c34620979d8ac531f597c626ee4737bba967e60bef5a45a33141d3cee93",
      "transactionType": "CALL",
      "contractName": null,
      "contractAddress": "0x578bd46003b9d3fd4c3c3f47c98b329562a6a1de",
      "function": "toggleBreaker(address,address,bool)",
      "arguments": [
        "0x99C968Bf5972C11442654b989B7eAD0237cA654B",
        "0x341E2A8b5b52B54F1794DDbdD54e433746C65d60",
        "true"
      ],
      "transaction": {
        "from": "0x2738f38fde510743e0c589415e0598c4cee6eaa7",
        "to": "0x578bd46003b9d3fd4c3c3f47c98b329562a6a1de",
        "gas": "0x2ae38",
        "value": "0x0",
        "input": "0x0c60714600000000000000000000000099c968bf5972c11442654b989b7ead0237ca654b000000000000000000000000341e2a8b5b52b54f1794ddbdd54e433746c65d600000000000000000000000000000000000000000000000000000000000000001",
        "nonce": "0x54",
        "chainId": "0xaa044c"
      },
      "additionalContracts": [],
      "isFixedGasLimit": false
    },
    {
      "hash": "0x55835d71df5867f8658fe10854e40070cc52d3d37cff9e4631d1b323aca6c69b",
      "transactionType": "CALL",
      "contractName": null,
      "contractAddress": "0x578bd46003b9d3fd4c3c3f47c98b329562a6a1de",
      "function": "toggleBreaker(address,address,bool)",
      "arguments": [
        "0x99C968Bf5972C11442654b989B7eAD0237cA654B",
        "0x7149632514c5BAA315520Ab9d12556D9C67F15E0",
        "true"
      ],
      "transaction": {
        "from": "0x2738f38fde510743e0c589415e0598c4cee6eaa7",
        "to": "0x578bd46003b9d3fd4c3c3f47c98b329562a6a1de",
        "gas": "0x2ae38",
        "value": "0x0",
        "input": "0x0c60714600000000000000000000000099c968bf5972c11442654b989b7ead0237ca654b0000000000000000000000007149632514c5baa315520ab9d12556d9c67f15e00000000000000000000000000000000000000000000000000000000000000001",
        "nonce": "0x55",
        "chainId": "0xaa044c"
      },
      "additionalContracts": [],
      "isFixedGasLimit": false
    },
    {
      "hash": "0x4deac949c9bb9084f55bd812579a34e92ac97ef866f8c737335a9b78933a9d9c",
      "transactionType": "CALL",
      "contractName": null,
      "contractAddress": "0x578bd46003b9d3fd4c3c3f47c98b329562a6a1de",
      "function": "toggleBreaker(address,address,bool)",
      "arguments": [
        "0x99C968Bf5972C11442654b989B7eAD0237cA654B",
        "0xbB776CD80Bab1E658A6a8685580751166145121F",
        "true"
      ],
      "transaction": {
        "from": "0x2738f38fde510743e0c589415e0598c4cee6eaa7",
        "to": "0x578bd46003b9d3fd4c3c3f47c98b329562a6a1de",
        "gas": "0x2ae38",
        "value": "0x0",
        "input": "0x0c60714600000000000000000000000099c968bf5972c11442654b989b7ead0237ca654b000000000000000000000000bb776cd80bab1e658a6a8685580751166145121f0000000000000000000000000000000000000000000000000000000000000001",
        "nonce": "0x56",
        "chainId": "0xaa044c"
      },
      "additionalContracts": [],
      "isFixedGasLimit": false
    },
    {
      "hash": "0xf8a84c845e3726f807c39d206af5b76e11352997b359ef193364ddfbf4eb78f4",
      "transactionType": "CALL",
      "contractName": null,
      "contractAddress": "0x578bd46003b9d3fd4c3c3f47c98b329562a6a1de",
      "function": "toggleBreaker(address,address,bool)",
      "arguments": [
        "0x99C968Bf5972C11442654b989B7eAD0237cA654B",
        "0xAe5eEe6815b8529847955d19522858806Bca8217",
        "true"
      ],
      "transaction": {
        "from": "0x2738f38fde510743e0c589415e0598c4cee6eaa7",
        "to": "0x578bd46003b9d3fd4c3c3f47c98b329562a6a1de",
        "gas": "0x2af3b",
        "value": "0x0",
        "input": "0x0c60714600000000000000000000000099c968bf5972c11442654b989b7ead0237ca654b000000000000000000000000ae5eee6815b8529847955d19522858806bca82170000000000000000000000000000000000000000000000000000000000000001",
        "nonce": "0x57",
        "chainId": "0xaa044c"
      },
      "additionalContracts": [],
      "isFixedGasLimit": false
    },
    {
      "hash": "0x8d23a9fd9fa9e18d7d206d87f668699de43de34331407afd4376f0725e21ea11",
      "transactionType": "CALL",
      "contractName": null,
      "contractAddress": "0x578bd46003b9d3fd4c3c3f47c98b329562a6a1de",
      "function": "toggleBreaker(address,address,bool)",
      "arguments": [
        "0x99C968Bf5972C11442654b989B7eAD0237cA654B",
        "0x53F7dC47aB9273C2d83c2Df557F3FcF1e6A9Ee10",
        "true"
      ],
      "transaction": {
        "from": "0x2738f38fde510743e0c589415e0598c4cee6eaa7",
        "to": "0x578bd46003b9d3fd4c3c3f47c98b329562a6a1de",
        "gas": "0x2ae38",
        "value": "0x0",
        "input": "0x0c60714600000000000000000000000099c968bf5972c11442654b989b7ead0237ca654b00000000000000000000000053f7dc47ab9273c2d83c2df557f3fcf1e6a9ee100000000000000000000000000000000000000000000000000000000000000001",
        "nonce": "0x58",
        "chainId": "0xaa044c"
      },
      "additionalContracts": [],
      "isFixedGasLimit": false
    },
    {
      "hash": "0xcab03b02c9859b7a2573d36553caf759cebfa584335fb1174b93d3f2cc226627",
      "transactionType": "CALL",
      "contractName": null,
      "contractAddress": "0x578bd46003b9d3fd4c3c3f47c98b329562a6a1de",
      "function": "toggleBreaker(address,address,bool)",
      "arguments": [
        "0x99C968Bf5972C11442654b989B7eAD0237cA654B",
        "0xc9dbD89FCe5710C91c35Ed9af1dc93fA090A28B0",
        "true"
      ],
      "transaction": {
        "from": "0x2738f38fde510743e0c589415e0598c4cee6eaa7",
        "to": "0x578bd46003b9d3fd4c3c3f47c98b329562a6a1de",
        "gas": "0x2ae38",
        "value": "0x0",
        "input": "0x0c60714600000000000000000000000099c968bf5972c11442654b989b7ead0237ca654b000000000000000000000000c9dbd89fce5710c91c35ed9af1dc93fa090a28b00000000000000000000000000000000000000000000000000000000000000001",
        "nonce": "0x59",
        "chainId": "0xaa044c"
      },
      "additionalContracts": [],
      "isFixedGasLimit": false
    },
    {
      "hash": "0xb4a9a55291118d34e5152838b3bd4bf8722c4e03c775a743d094d9a739705a68",
      "transactionType": "CALL",
      "contractName": null,
      "contractAddress": "0x578bd46003b9d3fd4c3c3f47c98b329562a6a1de",
      "function": "toggleBreaker(address,address,bool)",
      "arguments": [
        "0x99C968Bf5972C11442654b989B7eAD0237cA654B",
        "0x864Ea534d6992F3721000cdB6585b11E7046D5ec",
        "true"
      ],
      "transaction": {
        "from": "0x2738f38fde510743e0c589415e0598c4cee6eaa7",
        "to": "0x578bd46003b9d3fd4c3c3f47c98b329562a6a1de",
        "gas": "0x2ae28",
        "value": "0x0",
        "input": "0x0c60714600000000000000000000000099c968bf5972c11442654b989b7ead0237ca654b000000000000000000000000864ea534d6992f3721000cdb6585b11e7046d5ec0000000000000000000000000000000000000000000000000000000000000001",
        "nonce": "0x5a",
        "chainId": "0xaa044c"
      },
      "additionalContracts": [],
      "isFixedGasLimit": false
    },
    {
      "hash": "0xcc0833f3c0e7d6f6b76bb044e003ce2949643107260a16e19cb221c48c5e90f9",
      "transactionType": "CALL",
      "contractName": null,
      "contractAddress": "0x578bd46003b9d3fd4c3c3f47c98b329562a6a1de",
      "function": "toggleBreaker(address,address,bool)",
      "arguments": [
        "0x99C968Bf5972C11442654b989B7eAD0237cA654B",
        "0x4F2746E21A13Ea9A8A832D929CDBf32ffC113A2C",
        "true"
      ],
      "transaction": {
        "from": "0x2738f38fde510743e0c589415e0598c4cee6eaa7",
        "to": "0x578bd46003b9d3fd4c3c3f47c98b329562a6a1de",
        "gas": "0x2af3b",
        "value": "0x0",
        "input": "0x0c60714600000000000000000000000099c968bf5972c11442654b989b7ead0237ca654b0000000000000000000000004f2746e21a13ea9a8a832d929cdbf32ffc113a2c0000000000000000000000000000000000000000000000000000000000000001",
        "nonce": "0x5b",
        "chainId": "0xaa044c"
      },
      "additionalContracts": [],
      "isFixedGasLimit": false
    },
    {
      "hash": "0xe13b8dbb929d825f126339d1d2f5403cc8f8e8f078254257f95e29dc0612d25c",
      "transactionType": "CALL",
      "contractName": null,
      "contractAddress": "0x578bd46003b9d3fd4c3c3f47c98b329562a6a1de",
      "function": "toggleBreaker(address,address,bool)",
      "arguments": [
        "0x99C968Bf5972C11442654b989B7eAD0237cA654B",
        "0x403EA4186ce479fF162636c37fDf4086bD286F8c",
        "true"
      ],
      "transaction": {
        "from": "0x2738f38fde510743e0c589415e0598c4cee6eaa7",
        "to": "0x578bd46003b9d3fd4c3c3f47c98b329562a6a1de",
        "gas": "0x2ae38",
        "value": "0x0",
        "input": "0x0c60714600000000000000000000000099c968bf5972c11442654b989b7ead0237ca654b000000000000000000000000403ea4186ce479ff162636c37fdf4086bd286f8c0000000000000000000000000000000000000000000000000000000000000001",
        "nonce": "0x5c",
        "chainId": "0xaa044c"
      },
      "additionalContracts": [],
      "isFixedGasLimit": false
    },
    {
      "hash": "0x2355736f612c03d825a90d41a8d6a578a3fbf28a2e293f8e5b2385ffe4772342",
      "transactionType": "CALL",
      "contractName": null,
      "contractAddress": "0x578bd46003b9d3fd4c3c3f47c98b329562a6a1de",
      "function": "toggleBreaker(address,address,bool)",
      "arguments": [
        "0x99C968Bf5972C11442654b989B7eAD0237cA654B",
        "0xe7cDDEDC3dCA1674b70c347c814c8A9fCf8F68C9",
        "true"
      ],
      "transaction": {
        "from": "0x2738f38fde510743e0c589415e0598c4cee6eaa7",
        "to": "0x578bd46003b9d3fd4c3c3f47c98b329562a6a1de",
        "gas": "0x2ae38",
        "value": "0x0",
        "input": "0x0c60714600000000000000000000000099c968bf5972c11442654b989b7ead0237ca654b000000000000000000000000e7cddedc3dca1674b70c347c814c8a9fcf8f68c90000000000000000000000000000000000000000000000000000000000000001",
        "nonce": "0x5d",
        "chainId": "0xaa044c"
      },
      "additionalContracts": [],
      "isFixedGasLimit": false
    },
    {
      "hash": "0x0289209092a5b2de6df0ec844277bcff52e3239784fd4d7e7fa7792309ef2d0f",
      "transactionType": "CALL",
      "contractName": null,
      "contractAddress": "0xbcdc1d0b92dfceeaa0fcd0a0d53355f4bf1db8a7",
      "function": "registerOtherReserveAddress(address)",
      "arguments": [
        "0x2738F38Fde510743e0c589415E0598C4ceE6eAa7"
      ],
      "transaction": {
        "from": "0x2738f38fde510743e0c589415e0598c4cee6eaa7",
        "to": "0xbcdc1d0b92dfceeaa0fcd0a0d53355f4bf1db8a7",
        "gas": "0x20b2f",
        "value": "0x0",
        "input": "0xfdb348ef0000000000000000000000002738f38fde510743e0c589415e0598c4cee6eaa7",
        "nonce": "0x5e",
        "chainId": "0xaa044c"
      },
      "additionalContracts": [],
      "isFixedGasLimit": false
    },
    {
      "hash": "0x8c35886066bb6707404bc2e4dfdeeb991ea5a351b6d304762900db1d7099d6f3",
      "transactionType": "CALL",
      "contractName": null,
      "contractAddress": "0xbcdc1d0b92dfceeaa0fcd0a0d53355f4bf1db8a7",
      "function": "registerReserveManagerSpender(address)",
      "arguments": [
        "0x2738F38Fde510743e0c589415E0598C4ceE6eAa7"
      ],
      "transaction": {
        "from": "0x2738f38fde510743e0c589415e0598c4cee6eaa7",
        "to": "0xbcdc1d0b92dfceeaa0fcd0a0d53355f4bf1db8a7",
        "gas": "0x229d7",
        "value": "0x0",
        "input": "0xdd0e49040000000000000000000000002738f38fde510743e0c589415e0598c4cee6eaa7",
        "nonce": "0x5f",
        "chainId": "0xaa044c"
      },
      "additionalContracts": [],
      "isFixedGasLimit": false
    },
    {
      "hash": "0xf3b76e5f42b2b25b58394ee8e747c8c92d6acf7c93a3cb86ec1a87d56282c36b",
      "transactionType": "CALL",
      "contractName": null,
      "contractAddress": "0xbcdc1d0b92dfceeaa0fcd0a0d53355f4bf1db8a7",
      "function": "registerLiquidityStrategySpender(address)",
      "arguments": [
        "0x734bb3251Ec3f1A83f8f2A8609bcEF649D54EbF8"
      ],
      "transaction": {
        "from": "0x2738f38fde510743e0c589415e0598c4cee6eaa7",
        "to": "0xbcdc1d0b92dfceeaa0fcd0a0d53355f4bf1db8a7",
        "gas": "0x20b30",
        "value": "0x0",
        "input": "0x871dd0a8000000000000000000000000734bb3251ec3f1a83f8f2a8609bcef649d54ebf8",
        "nonce": "0x60",
        "chainId": "0xaa044c"
      },
      "additionalContracts": [],
      "isFixedGasLimit": false
    }
  ],
  "receipts": [
    {
      "status": "0x1",
      "cumulativeGasUsed": "0x137eb",
      "logs": [
        {
          "address": "0x578bd46003b9d3fd4c3c3f47c98b329562a6a1de",
          "topics": [
            "0xb41d9a8e03d4798a0a905017e377ecae53ebc5ca694c8fccaeabb5a08c0d333f",
            "0x00000000000000000000000099c968bf5972c11442654b989b7ead0237ca654b"
          ],
          "data": "0x",
          "blockHash": "0xf0482bcb1ef8675eb42b8fb2440407b8bf8cd2dbac62bc808a5da4af493d8ea3",
          "blockNumber": "0x120698a",
          "blockTimestamp": "0x69a1678e",
          "transactionHash": "0xa9ab4c900746f1c93a28a089b767e397af0c73b364dbbceafd4ee6744c7e95ad",
          "transactionIndex": "0x0",
          "logIndex": "0x0",
          "removed": false
        }
      ],
      "logsBloom": "0x00000000000000000000010000004000000000000000000000000000000000000000000000000000000000000000000000000000000000000000000000000000000000000000000000000000000000000000000000000000000000080000000000000000000000000000000000000000000200000000000000000080000000000000000000000000000000000000000000000000000100000000000000000000002000000000000000000000000000000000000000000000000000000000000000000000000080000000000000000000000000000000000000000000000000000000000000000000000000000000000000000000000000000000000010000000",
      "type": "0x2",
      "transactionHash": "0xa9ab4c900746f1c93a28a089b767e397af0c73b364dbbceafd4ee6744c7e95ad",
      "transactionIndex": "0x0",
      "blockHash": "0xf0482bcb1ef8675eb42b8fb2440407b8bf8cd2dbac62bc808a5da4af493d8ea3",
      "blockNumber": "0x120698a",
      "gasUsed": "0x137eb",
      "effectiveGasPrice": "0x33e804b7c",
      "blobGasPrice": "0x1",
      "from": "0x2738f38fde510743e0c589415e0598c4cee6eaa7",
      "to": "0x578bd46003b9d3fd4c3c3f47c98b329562a6a1de",
      "contractAddress": null
    },
    {
      "status": "0x1",
      "cumulativeGasUsed": "0x1f18c",
      "logs": [
        {
          "address": "0x578bd46003b9d3fd4c3c3f47c98b329562a6a1de",
          "topics": [
            "0x292d7648986a4abc017bc2a39852a675c1e325e24afd18fad659810792d5e405"
          ],
          "data": "0x00000000000000000000000099c968bf5972c11442654b989b7ead0237ca654b0000000000000000000000005d5a22116233bdb2a9c2977279cc348b8b8ce9170000000000000000000000000000000000000000000000000000000000000001",
          "blockHash": "0x922d1889ba5e874064511409ba85832734244a6882703d9084a4f30625e0c3b6",
          "blockNumber": "0x120698b",
          "blockTimestamp": "0x69a1678e",
          "transactionHash": "0x09e73c3bcc637f177811a4d853dac675a82478ac65f90cb74340b8379cb4543d",
          "transactionIndex": "0x0",
          "logIndex": "0x0",
          "removed": false
        }
      ],
      "logsBloom": "0x00000000000000000000010000000000000000000000000000000000000000000000000000000000000000000000000000000008000000000000000000000000000000000000000000000000000000000000000000000000000000000000000000000000000000000000000000008000000200000000000000000000000000000000000000000000000000000000000000000000000000000000000000000000000000000000000000000000000000000000000000000000000000000000000000000000000000000000000000000000001000000000000000000000000000000000000000000000000000000000000000000000000000000000000010000000",
      "type": "0x2",
      "transactionHash": "0x09e73c3bcc637f177811a4d853dac675a82478ac65f90cb74340b8379cb4543d",
      "transactionIndex": "0x0",
      "blockHash": "0x922d1889ba5e874064511409ba85832734244a6882703d9084a4f30625e0c3b6",
      "blockNumber": "0x120698b",
      "gasUsed": "0x1f18c",
      "effectiveGasPrice": "0x2d73dbb9f",
      "blobGasPrice": "0x1",
      "from": "0x2738f38fde510743e0c589415e0598c4cee6eaa7",
      "to": "0x578bd46003b9d3fd4c3c3f47c98b329562a6a1de",
      "contractAddress": null
    },
    {
      "status": "0x1",
      "cumulativeGasUsed": "0x1f0d0",
      "logs": [
        {
          "address": "0x578bd46003b9d3fd4c3c3f47c98b329562a6a1de",
          "topics": [
            "0x292d7648986a4abc017bc2a39852a675c1e325e24afd18fad659810792d5e405"
          ],
          "data": "0x00000000000000000000000099c968bf5972c11442654b989b7ead0237ca654b000000000000000000000000ce1213507c81576759181a2b795f3c9ae5ede6bd0000000000000000000000000000000000000000000000000000000000000001",
          "blockHash": "0xcc0e6dc1744bd936323e0cdce04033a2860e1fa2de48b71a187f8d1f1c54d5a2",
          "blockNumber": "0x120698c",
          "blockTimestamp": "0x69a1678e",
          "transactionHash": "0xc0813bdc37aac3141e144a363c491c874b83c4d16ffc2890a8365584f98f5681",
          "transactionIndex": "0x0",
          "logIndex": "0x0",
          "removed": false
        }
      ],
      "logsBloom": "0x00000000000000000000010000000000000000000000000000000000000000000000000000000000000000000000000000000008000000000000000000000000000000000000000000000000000000000000000000000000000000000000000000000000000000000000000000008000000200000000000000000000000000000000000000000000000000000000000000000000000000000000000000000000000000000000000000000000000000000000000000000000000000000000000000000000000000000000000000000000001000000000000000000000000000000000000000000000000000000000000000000000000000000000000010000000",
      "type": "0x2",
      "transactionHash": "0xc0813bdc37aac3141e144a363c491c874b83c4d16ffc2890a8365584f98f5681",
      "transactionIndex": "0x0",
      "blockHash": "0xcc0e6dc1744bd936323e0cdce04033a2860e1fa2de48b71a187f8d1f1c54d5a2",
      "blockNumber": "0x120698c",
      "gasUsed": "0x1f0d0",
      "effectiveGasPrice": "0x27d1ba097",
      "blobGasPrice": "0x1",
      "from": "0x2738f38fde510743e0c589415e0598c4cee6eaa7",
      "to": "0x578bd46003b9d3fd4c3c3f47c98b329562a6a1de",
      "contractAddress": null
    },
    {
      "status": "0x1",
      "cumulativeGasUsed": "0x3e1a0",
      "logs": [
        {
          "address": "0x578bd46003b9d3fd4c3c3f47c98b329562a6a1de",
          "topics": [
            "0x292d7648986a4abc017bc2a39852a675c1e325e24afd18fad659810792d5e405"
          ],
          "data": "0x00000000000000000000000099c968bf5972c11442654b989b7ead0237ca654b000000000000000000000000bbc9c6e41e2a402b12992875edaa0162ed9902120000000000000000000000000000000000000000000000000000000000000001",
          "blockHash": "0xcc0e6dc1744bd936323e0cdce04033a2860e1fa2de48b71a187f8d1f1c54d5a2",
          "blockNumber": "0x120698c",
          "blockTimestamp": "0x69a1678e",
          "transactionHash": "0x4d2d7a1e34e1e5bdc4073f82c1e90153434077421ed01c972f05ab957d72219b",
          "transactionIndex": "0x1",
          "logIndex": "0x1",
          "removed": false
        }
      ],
      "logsBloom": "0x00000000000000000000010000000000000000000000000000000000000000000000000000000000000000000000000000000008000000000000000000000000000000000000000000000000000000000000000000000000000000000000000000000000000000000000000000008000000200000000000000000000000000000000000000000000000000000000000000000000000000000000000000000000000000000000000000000000000000000000000000000000000000000000000000000000000000000000000000000000001000000000000000000000000000000000000000000000000000000000000000000000000000000000000010000000",
      "type": "0x2",
      "transactionHash": "0x4d2d7a1e34e1e5bdc4073f82c1e90153434077421ed01c972f05ab957d72219b",
      "transactionIndex": "0x1",
      "blockHash": "0xcc0e6dc1744bd936323e0cdce04033a2860e1fa2de48b71a187f8d1f1c54d5a2",
      "blockNumber": "0x120698c",
      "gasUsed": "0x1f0d0",
      "effectiveGasPrice": "0x27d1ba097",
      "blobGasPrice": "0x1",
      "from": "0x2738f38fde510743e0c589415e0598c4cee6eaa7",
      "to": "0x578bd46003b9d3fd4c3c3f47c98b329562a6a1de",
      "contractAddress": null
    },
    {
      "status": "0x1",
      "cumulativeGasUsed": "0x1f0d0",
      "logs": [
        {
          "address": "0x578bd46003b9d3fd4c3c3f47c98b329562a6a1de",
          "topics": [
            "0x292d7648986a4abc017bc2a39852a675c1e325e24afd18fad659810792d5e405"
          ],
          "data": "0x00000000000000000000000099c968bf5972c11442654b989b7ead0237ca654b000000000000000000000000bacee37d31b9f022ef5d232b9fd53f05a531c1690000000000000000000000000000000000000000000000000000000000000001",
          "blockHash": "0x43de296a63cb024bcf9dc568a448fa93f5db3963a07e764b02ee6ee34f855730",
          "blockNumber": "0x120698d",
          "blockTimestamp": "0x69a1678e",
          "transactionHash": "0x55835d71df5867f8658fe10854e40070cc52d3d37cff9e4631d1b323aca6c69b",
          "transactionIndex": "0x0",
          "logIndex": "0x0",
          "removed": false
        }
      ],
      "logsBloom": "0x00000000000000000000010000000000000000000000000000000000000000000000000000000000000000000000000000000008000000000000000000000000000000000000000000000000000000000000000000000000000000000000000000000000000000000000000000008000000200000000000000000000000000000000000000000000000000000000000000000000000000000000000000000000000000000000000000000000000000000000000000000000000000000000000000000000000000000000000000000000001000000000000000000000000000000000000000000000000000000000000000000000000000000000000010000000",
      "type": "0x2",
      "transactionHash": "0x55835d71df5867f8658fe10854e40070cc52d3d37cff9e4631d1b323aca6c69b",
      "transactionIndex": "0x0",
      "blockHash": "0x43de296a63cb024bcf9dc568a448fa93f5db3963a07e764b02ee6ee34f855730",
      "blockNumber": "0x120698d",
      "gasUsed": "0x1f0d0",
      "effectiveGasPrice": "0x22ed1e6d0",
      "blobGasPrice": "0x1",
      "from": "0x2738f38fde510743e0c589415e0598c4cee6eaa7",
      "to": "0x578bd46003b9d3fd4c3c3f47c98b329562a6a1de",
      "contractAddress": null
    },
    {
      "status": "0x1",
      "cumulativeGasUsed": "0x3e1a0",
      "logs": [
        {
          "address": "0x578bd46003b9d3fd4c3c3f47c98b329562a6a1de",
          "topics": [
            "0x292d7648986a4abc017bc2a39852a675c1e325e24afd18fad659810792d5e405"
          ],
          "data": "0x00000000000000000000000099c968bf5972c11442654b989b7ead0237ca654b000000000000000000000000341e2a8b5b52b54f1794ddbdd54e433746c65d600000000000000000000000000000000000000000000000000000000000000001",
          "blockHash": "0x43de296a63cb024bcf9dc568a448fa93f5db3963a07e764b02ee6ee34f855730",
          "blockNumber": "0x120698d",
          "blockTimestamp": "0x69a1678e",
          "transactionHash": "0x102abd5cfc75a178f07a39689d257c01e7bdb9113a2d9f8071bc3a9a3ad279a0",
          "transactionIndex": "0x1",
          "logIndex": "0x1",
          "removed": false
        }
      ],
      "logsBloom": "0x00000000000000000000010000000000000000000000000000000000000000000000000000000000000000000000000000000008000000000000000000000000000000000000000000000000000000000000000000000000000000000000000000000000000000000000000000008000000200000000000000000000000000000000000000000000000000000000000000000000000000000000000000000000000000000000000000000000000000000000000000000000000000000000000000000000000000000000000000000000001000000000000000000000000000000000000000000000000000000000000000000000000000000000000010000000",
      "type": "0x2",
      "transactionHash": "0x102abd5cfc75a178f07a39689d257c01e7bdb9113a2d9f8071bc3a9a3ad279a0",
      "transactionIndex": "0x1",
      "blockHash": "0x43de296a63cb024bcf9dc568a448fa93f5db3963a07e764b02ee6ee34f855730",
      "blockNumber": "0x120698d",
      "gasUsed": "0x1f0d0",
      "effectiveGasPrice": "0x22ed1e6d0",
      "blobGasPrice": "0x1",
      "from": "0x2738f38fde510743e0c589415e0598c4cee6eaa7",
      "to": "0x578bd46003b9d3fd4c3c3f47c98b329562a6a1de",
      "contractAddress": null
    },
    {
      "status": "0x1",
      "cumulativeGasUsed": "0x5d270",
      "logs": [
        {
          "address": "0x578bd46003b9d3fd4c3c3f47c98b329562a6a1de",
          "topics": [
            "0x292d7648986a4abc017bc2a39852a675c1e325e24afd18fad659810792d5e405"
          ],
          "data": "0x00000000000000000000000099c968bf5972c11442654b989b7ead0237ca654b0000000000000000000000007149632514c5baa315520ab9d12556d9c67f15e00000000000000000000000000000000000000000000000000000000000000001",
          "blockHash": "0x43de296a63cb024bcf9dc568a448fa93f5db3963a07e764b02ee6ee34f855730",
          "blockNumber": "0x120698d",
          "blockTimestamp": "0x69a1678e",
          "transactionHash": "0x7be50c34620979d8ac531f597c626ee4737bba967e60bef5a45a33141d3cee93",
          "transactionIndex": "0x2",
          "logIndex": "0x2",
          "removed": false
        }
      ],
      "logsBloom": "0x00000000000000000000010000000000000000000000000000000000000000000000000000000000000000000000000000000008000000000000000000000000000000000000000000000000000000000000000000000000000000000000000000000000000000000000000000008000000200000000000000000000000000000000000000000000000000000000000000000000000000000000000000000000000000000000000000000000000000000000000000000000000000000000000000000000000000000000000000000000001000000000000000000000000000000000000000000000000000000000000000000000000000000000000010000000",
      "type": "0x2",
      "transactionHash": "0x7be50c34620979d8ac531f597c626ee4737bba967e60bef5a45a33141d3cee93",
      "transactionIndex": "0x2",
      "blockHash": "0x43de296a63cb024bcf9dc568a448fa93f5db3963a07e764b02ee6ee34f855730",
      "blockNumber": "0x120698d",
      "gasUsed": "0x1f0d0",
      "effectiveGasPrice": "0x22ed1e6d0",
      "blobGasPrice": "0x1",
      "from": "0x2738f38fde510743e0c589415e0598c4cee6eaa7",
      "to": "0x578bd46003b9d3fd4c3c3f47c98b329562a6a1de",
      "contractAddress": null
    },
    {
      "status": "0x1",
      "cumulativeGasUsed": "0x7c340",
      "logs": [
        {
          "address": "0x578bd46003b9d3fd4c3c3f47c98b329562a6a1de",
          "topics": [
            "0x292d7648986a4abc017bc2a39852a675c1e325e24afd18fad659810792d5e405"
          ],
          "data": "0x00000000000000000000000099c968bf5972c11442654b989b7ead0237ca654b000000000000000000000000bb776cd80bab1e658a6a8685580751166145121f0000000000000000000000000000000000000000000000000000000000000001",
          "blockHash": "0x43de296a63cb024bcf9dc568a448fa93f5db3963a07e764b02ee6ee34f855730",
          "blockNumber": "0x120698d",
          "blockTimestamp": "0x69a1678e",
          "transactionHash": "0xcc0833f3c0e7d6f6b76bb044e003ce2949643107260a16e19cb221c48c5e90f9",
          "transactionIndex": "0x3",
          "logIndex": "0x3",
          "removed": false
        }
      ],
      "logsBloom": "0x00000000000000000000010000000000000000000000000000000000000000000000000000000000000000000000000000000008000000000000000000000000000000000000000000000000000000000000000000000000000000000000000000000000000000000000000000008000000200000000000000000000000000000000000000000000000000000000000000000000000000000000000000000000000000000000000000000000000000000000000000000000000000000000000000000000000000000000000000000000001000000000000000000000000000000000000000000000000000000000000000000000000000000000000010000000",
      "type": "0x2",
      "transactionHash": "0xcc0833f3c0e7d6f6b76bb044e003ce2949643107260a16e19cb221c48c5e90f9",
      "transactionIndex": "0x3",
      "blockHash": "0x43de296a63cb024bcf9dc568a448fa93f5db3963a07e764b02ee6ee34f855730",
      "blockNumber": "0x120698d",
      "gasUsed": "0x1f0d0",
      "effectiveGasPrice": "0x22ed1e6d0",
      "blobGasPrice": "0x1",
      "from": "0x2738f38fde510743e0c589415e0598c4cee6eaa7",
      "to": "0x578bd46003b9d3fd4c3c3f47c98b329562a6a1de",
      "contractAddress": null
    },
    {
      "status": "0x1",
      "cumulativeGasUsed": "0x9b4cc",
      "logs": [
        {
          "address": "0x578bd46003b9d3fd4c3c3f47c98b329562a6a1de",
          "topics": [
            "0x292d7648986a4abc017bc2a39852a675c1e325e24afd18fad659810792d5e405"
          ],
          "data": "0x00000000000000000000000099c968bf5972c11442654b989b7ead0237ca654b000000000000000000000000ae5eee6815b8529847955d19522858806bca82170000000000000000000000000000000000000000000000000000000000000001",
          "blockHash": "0x43de296a63cb024bcf9dc568a448fa93f5db3963a07e764b02ee6ee34f855730",
          "blockNumber": "0x120698d",
          "blockTimestamp": "0x69a1678e",
          "transactionHash": "0xcab03b02c9859b7a2573d36553caf759cebfa584335fb1174b93d3f2cc226627",
          "transactionIndex": "0x4",
          "logIndex": "0x4",
          "removed": false
        }
      ],
      "logsBloom": "0x00000000000000000000010000000000000000000000000000000000000000000000000000000000000000000000000000000008000000000000000000000000000000000000000000000000000000000000000000000000000000000000000000000000000000000000000000008000000200000000000000000000000000000000000000000000000000000000000000000000000000000000000000000000000000000000000000000000000000000000000000000000000000000000000000000000000000000000000000000000001000000000000000000000000000000000000000000000000000000000000000000000000000000000000010000000",
      "type": "0x2",
      "transactionHash": "0xcab03b02c9859b7a2573d36553caf759cebfa584335fb1174b93d3f2cc226627",
      "transactionIndex": "0x4",
      "blockHash": "0x43de296a63cb024bcf9dc568a448fa93f5db3963a07e764b02ee6ee34f855730",
      "blockNumber": "0x120698d",
      "gasUsed": "0x1f18c",
      "effectiveGasPrice": "0x22ed1e6d0",
      "blobGasPrice": "0x1",
      "from": "0x2738f38fde510743e0c589415e0598c4cee6eaa7",
      "to": "0x578bd46003b9d3fd4c3c3f47c98b329562a6a1de",
      "contractAddress": null
    },
    {
      "status": "0x1",
      "cumulativeGasUsed": "0xba59c",
      "logs": [
        {
          "address": "0x578bd46003b9d3fd4c3c3f47c98b329562a6a1de",
          "topics": [
            "0x292d7648986a4abc017bc2a39852a675c1e325e24afd18fad659810792d5e405"
          ],
          "data": "0x00000000000000000000000099c968bf5972c11442654b989b7ead0237ca654b00000000000000000000000053f7dc47ab9273c2d83c2df557f3fcf1e6a9ee100000000000000000000000000000000000000000000000000000000000000001",
          "blockHash": "0x43de296a63cb024bcf9dc568a448fa93f5db3963a07e764b02ee6ee34f855730",
          "blockNumber": "0x120698d",
          "blockTimestamp": "0x69a1678e",
          "transactionHash": "0x4deac949c9bb9084f55bd812579a34e92ac97ef866f8c737335a9b78933a9d9c",
          "transactionIndex": "0x5",
          "logIndex": "0x5",
          "removed": false
        }
      ],
      "logsBloom": "0x00000000000000000000010000000000000000000000000000000000000000000000000000000000000000000000000000000008000000000000000000000000000000000000000000000000000000000000000000000000000000000000000000000000000000000000000000008000000200000000000000000000000000000000000000000000000000000000000000000000000000000000000000000000000000000000000000000000000000000000000000000000000000000000000000000000000000000000000000000000001000000000000000000000000000000000000000000000000000000000000000000000000000000000000010000000",
      "type": "0x2",
      "transactionHash": "0x4deac949c9bb9084f55bd812579a34e92ac97ef866f8c737335a9b78933a9d9c",
      "transactionIndex": "0x5",
      "blockHash": "0x43de296a63cb024bcf9dc568a448fa93f5db3963a07e764b02ee6ee34f855730",
      "blockNumber": "0x120698d",
      "gasUsed": "0x1f0d0",
      "effectiveGasPrice": "0x22ed1e6d0",
      "blobGasPrice": "0x1",
      "from": "0x2738f38fde510743e0c589415e0598c4cee6eaa7",
      "to": "0x578bd46003b9d3fd4c3c3f47c98b329562a6a1de",
      "contractAddress": null
    },
    {
      "status": "0x1",
      "cumulativeGasUsed": "0xd966c",
      "logs": [
        {
          "address": "0x578bd46003b9d3fd4c3c3f47c98b329562a6a1de",
          "topics": [
            "0x292d7648986a4abc017bc2a39852a675c1e325e24afd18fad659810792d5e405"
          ],
          "data": "0x00000000000000000000000099c968bf5972c11442654b989b7ead0237ca654b000000000000000000000000c9dbd89fce5710c91c35ed9af1dc93fa090a28b00000000000000000000000000000000000000000000000000000000000000001",
          "blockHash": "0x43de296a63cb024bcf9dc568a448fa93f5db3963a07e764b02ee6ee34f855730",
          "blockNumber": "0x120698d",
          "blockTimestamp": "0x69a1678e",
          "transactionHash": "0xf8a84c845e3726f807c39d206af5b76e11352997b359ef193364ddfbf4eb78f4",
          "transactionIndex": "0x6",
          "logIndex": "0x6",
          "removed": false
        }
      ],
      "logsBloom": "0x00000000000000000000010000000000000000000000000000000000000000000000000000000000000000000000000000000008000000000000000000000000000000000000000000000000000000000000000000000000000000000000000000000000000000000000000000008000000200000000000000000000000000000000000000000000000000000000000000000000000000000000000000000000000000000000000000000000000000000000000000000000000000000000000000000000000000000000000000000000001000000000000000000000000000000000000000000000000000000000000000000000000000000000000010000000",
      "type": "0x2",
      "transactionHash": "0xf8a84c845e3726f807c39d206af5b76e11352997b359ef193364ddfbf4eb78f4",
      "transactionIndex": "0x6",
      "blockHash": "0x43de296a63cb024bcf9dc568a448fa93f5db3963a07e764b02ee6ee34f855730",
      "blockNumber": "0x120698d",
      "gasUsed": "0x1f0d0",
      "effectiveGasPrice": "0x22ed1e6d0",
      "blobGasPrice": "0x1",
      "from": "0x2738f38fde510743e0c589415e0598c4cee6eaa7",
      "to": "0x578bd46003b9d3fd4c3c3f47c98b329562a6a1de",
      "contractAddress": null
    },
    {
      "status": "0x1",
      "cumulativeGasUsed": "0xf8730",
      "logs": [
        {
          "address": "0x578bd46003b9d3fd4c3c3f47c98b329562a6a1de",
          "topics": [
            "0x292d7648986a4abc017bc2a39852a675c1e325e24afd18fad659810792d5e405"
          ],
          "data": "0x00000000000000000000000099c968bf5972c11442654b989b7ead0237ca654b000000000000000000000000864ea534d6992f3721000cdb6585b11e7046d5ec0000000000000000000000000000000000000000000000000000000000000001",
          "blockHash": "0x43de296a63cb024bcf9dc568a448fa93f5db3963a07e764b02ee6ee34f855730",
          "blockNumber": "0x120698d",
          "blockTimestamp": "0x69a1678e",
          "transactionHash": "0x8d23a9fd9fa9e18d7d206d87f668699de43de34331407afd4376f0725e21ea11",
          "transactionIndex": "0x7",
          "logIndex": "0x7",
          "removed": false
        }
      ],
      "logsBloom": "0x00000000000000000000010000000000000000000000000000000000000000000000000000000000000000000000000000000008000000000000000000000000000000000000000000000000000000000000000000000000000000000000000000000000000000000000000000008000000200000000000000000000000000000000000000000000000000000000000000000000000000000000000000000000000000000000000000000000000000000000000000000000000000000000000000000000000000000000000000000000001000000000000000000000000000000000000000000000000000000000000000000000000000000000000010000000",
      "type": "0x2",
      "transactionHash": "0x8d23a9fd9fa9e18d7d206d87f668699de43de34331407afd4376f0725e21ea11",
      "transactionIndex": "0x7",
      "blockHash": "0x43de296a63cb024bcf9dc568a448fa93f5db3963a07e764b02ee6ee34f855730",
      "blockNumber": "0x120698d",
      "gasUsed": "0x1f0c4",
      "effectiveGasPrice": "0x22ed1e6d0",
      "blobGasPrice": "0x1",
      "from": "0x2738f38fde510743e0c589415e0598c4cee6eaa7",
      "to": "0x578bd46003b9d3fd4c3c3f47c98b329562a6a1de",
      "contractAddress": null
    },
    {
      "status": "0x1",
      "cumulativeGasUsed": "0x1f18c",
      "logs": [
        {
          "address": "0x578bd46003b9d3fd4c3c3f47c98b329562a6a1de",
          "topics": [
            "0x292d7648986a4abc017bc2a39852a675c1e325e24afd18fad659810792d5e405"
          ],
          "data": "0x00000000000000000000000099c968bf5972c11442654b989b7ead0237ca654b0000000000000000000000004f2746e21a13ea9a8a832d929cdbf32ffc113a2c0000000000000000000000000000000000000000000000000000000000000001",
          "blockHash": "0xdd8f348b55e34e49e0dad633659df0241de55e68acde8da93cba922c65b0254d",
          "blockNumber": "0x120698e",
          "blockTimestamp": "0x69a1678e",
          "transactionHash": "0x0289209092a5b2de6df0ec844277bcff52e3239784fd4d7e7fa7792309ef2d0f",
          "transactionIndex": "0x0",
          "logIndex": "0x0",
          "removed": false
        }
      ],
      "logsBloom": "0x00000000000000000000010000000000000000000000000000000000000000000000000000000000000000000000000000000008000000000000000000000000000000000000000000000000000000000000000000000000000000000000000000000000000000000000000000008000000200000000000000000000000000000000000000000000000000000000000000000000000000000000000000000000000000000000000000000000000000000000000000000000000000000000000000000000000000000000000000000000001000000000000000000000000000000000000000000000000000000000000000000000000000000000000010000000",
      "type": "0x2",
      "transactionHash": "0x0289209092a5b2de6df0ec844277bcff52e3239784fd4d7e7fa7792309ef2d0f",
      "transactionIndex": "0x0",
      "blockHash": "0xdd8f348b55e34e49e0dad633659df0241de55e68acde8da93cba922c65b0254d",
      "blockNumber": "0x120698e",
      "gasUsed": "0x1f18c",
      "effectiveGasPrice": "0x1edb4da26",
      "blobGasPrice": "0x1",
      "from": "0x2738f38fde510743e0c589415e0598c4cee6eaa7",
      "to": "0x578bd46003b9d3fd4c3c3f47c98b329562a6a1de",
      "contractAddress": null
    },
    {
      "status": "0x1",
      "cumulativeGasUsed": "0x3e25c",
      "logs": [
        {
          "address": "0x578bd46003b9d3fd4c3c3f47c98b329562a6a1de",
          "topics": [
            "0x292d7648986a4abc017bc2a39852a675c1e325e24afd18fad659810792d5e405"
          ],
          "data": "0x00000000000000000000000099c968bf5972c11442654b989b7ead0237ca654b000000000000000000000000403ea4186ce479ff162636c37fdf4086bd286f8c0000000000000000000000000000000000000000000000000000000000000001",
          "blockHash": "0xdd8f348b55e34e49e0dad633659df0241de55e68acde8da93cba922c65b0254d",
          "blockNumber": "0x120698e",
          "blockTimestamp": "0x69a1678e",
          "transactionHash": "0xe13b8dbb929d825f126339d1d2f5403cc8f8e8f078254257f95e29dc0612d25c",
          "transactionIndex": "0x1",
          "logIndex": "0x1",
          "removed": false
        }
      ],
      "logsBloom": "0x00000000000000000000010000000000000000000000000000000000000000000000000000000000000000000000000000000008000000000000000000000000000000000000000000000000000000000000000000000000000000000000000000000000000000000000000000008000000200000000000000000000000000000000000000000000000000000000000000000000000000000000000000000000000000000000000000000000000000000000000000000000000000000000000000000000000000000000000000000000001000000000000000000000000000000000000000000000000000000000000000000000000000000000000010000000",
      "type": "0x2",
      "transactionHash": "0xe13b8dbb929d825f126339d1d2f5403cc8f8e8f078254257f95e29dc0612d25c",
      "transactionIndex": "0x1",
      "blockHash": "0xdd8f348b55e34e49e0dad633659df0241de55e68acde8da93cba922c65b0254d",
      "blockNumber": "0x120698e",
      "gasUsed": "0x1f0d0",
      "effectiveGasPrice": "0x1edb4da26",
      "blobGasPrice": "0x1",
      "from": "0x2738f38fde510743e0c589415e0598c4cee6eaa7",
      "to": "0x578bd46003b9d3fd4c3c3f47c98b329562a6a1de",
      "contractAddress": null
    },
    {
      "status": "0x1",
      "cumulativeGasUsed": "0x5d32c",
      "logs": [
        {
          "address": "0x578bd46003b9d3fd4c3c3f47c98b329562a6a1de",
          "topics": [
            "0x292d7648986a4abc017bc2a39852a675c1e325e24afd18fad659810792d5e405"
          ],
          "data": "0x00000000000000000000000099c968bf5972c11442654b989b7ead0237ca654b000000000000000000000000e7cddedc3dca1674b70c347c814c8a9fcf8f68c90000000000000000000000000000000000000000000000000000000000000001",
          "blockHash": "0xdd8f348b55e34e49e0dad633659df0241de55e68acde8da93cba922c65b0254d",
          "blockNumber": "0x120698e",
          "blockTimestamp": "0x69a1678e",
          "transactionHash": "0x2355736f612c03d825a90d41a8d6a578a3fbf28a2e293f8e5b2385ffe4772342",
          "transactionIndex": "0x2",
          "logIndex": "0x2",
          "removed": false
        }
      ],
      "logsBloom": "0x00000000000000000000010000000000000000000000000000000000000000000000000000000000000000000000000000000008000000000000000000000000000000000000000000000000000000000000000000000000000000000000000000000000000000000000000000008000000200000000000000000000000000000000000000000000000000000000000000000000000000000000000000000000000000000000000000000000000000000000000000000000000000000000000000000000000000000000000000000000001000000000000000000000000000000000000000000000000000000000000000000000000000000000000010000000",
      "type": "0x2",
      "transactionHash": "0x2355736f612c03d825a90d41a8d6a578a3fbf28a2e293f8e5b2385ffe4772342",
      "transactionIndex": "0x2",
      "blockHash": "0xdd8f348b55e34e49e0dad633659df0241de55e68acde8da93cba922c65b0254d",
      "blockNumber": "0x120698e",
      "gasUsed": "0x1f0d0",
      "effectiveGasPrice": "0x1edb4da26",
      "blobGasPrice": "0x1",
      "from": "0x2738f38fde510743e0c589415e0598c4cee6eaa7",
      "to": "0x578bd46003b9d3fd4c3c3f47c98b329562a6a1de",
      "contractAddress": null
    },
    {
      "status": "0x1",
      "cumulativeGasUsed": "0x74df3",
      "logs": [
        {
          "address": "0xbcdc1d0b92dfceeaa0fcd0a0d53355f4bf1db8a7",
          "topics": [
            "0xcb10bd75f0aed49db393f8fe226bc596b5a305b1ac7aceedfacae0506766b259",
            "0x0000000000000000000000002738f38fde510743e0c589415e0598c4cee6eaa7"
          ],
          "data": "0x",
          "blockHash": "0xdd8f348b55e34e49e0dad633659df0241de55e68acde8da93cba922c65b0254d",
          "blockNumber": "0x120698e",
          "blockTimestamp": "0x69a1678e",
          "transactionHash": "0xb4a9a55291118d34e5152838b3bd4bf8722c4e03c775a743d094d9a739705a68",
          "transactionIndex": "0x3",
          "logIndex": "0x3",
          "removed": false
        }
      ],
      "logsBloom": "0x00000000000000000000000000000000000000000000000000000000000000000000000000000000000000000000000000000000000000000000000000000000002000000000000000000000000000000000000008000000000000000000000000000000000000000000000000000000000000000000000000000200000000000000000100000000800000000000000000000000000010000000000000000010000000000000000000000000000000000000000000000000000000000000000000000800000000000000000040000000000000000000000000000000000000000000000000000000000000000000000000000000000000000000000000000000",
      "type": "0x2",
      "transactionHash": "0xb4a9a55291118d34e5152838b3bd4bf8722c4e03c775a743d094d9a739705a68",
      "transactionIndex": "0x3",
      "blockHash": "0xdd8f348b55e34e49e0dad633659df0241de55e68acde8da93cba922c65b0254d",
      "blockNumber": "0x120698e",
      "gasUsed": "0x17ac7",
      "effectiveGasPrice": "0x1edb4da26",
      "blobGasPrice": "0x1",
      "from": "0x2738f38fde510743e0c589415e0598c4cee6eaa7",
      "to": "0xbcdc1d0b92dfceeaa0fcd0a0d53355f4bf1db8a7",
      "contractAddress": null
    },
    {
      "status": "0x1",
      "cumulativeGasUsed": "0x8c8a5",
      "logs": [
        {
          "address": "0xbcdc1d0b92dfceeaa0fcd0a0d53355f4bf1db8a7",
          "topics": [
            "0x357712fedbe19fb3f93413598711d92f1540b12f1a3b37041de91a433b8f127a",
            "0x0000000000000000000000002738f38fde510743e0c589415e0598c4cee6eaa7"
          ],
          "data": "0x",
          "blockHash": "0xdd8f348b55e34e49e0dad633659df0241de55e68acde8da93cba922c65b0254d",
          "blockNumber": "0x120698e",
          "blockTimestamp": "0x69a1678e",
          "transactionHash": "0xf3b76e5f42b2b25b58394ee8e747c8c92d6acf7c93a3cb86ec1a87d56282c36b",
          "transactionIndex": "0x4",
          "logIndex": "0x4",
          "removed": false
        }
      ],
      "logsBloom": "0x00000000000000000000000000000000000000000000000000000000000000000400000000000000000000000000000000000000000000000000000000000000002000000000000000000000000000000000000000000000000400000000000000000000000000000000000000000000000000000000000000000200000000000000000100000000000000000000000000000000000000000000000000000010000000000000000000000000000000000000000000000000000000000000000000000900000000000000000040000000000000000000000000000000000000000000000000000000000000000000000000000000000000000000000000000000",
      "type": "0x2",
      "transactionHash": "0xf3b76e5f42b2b25b58394ee8e747c8c92d6acf7c93a3cb86ec1a87d56282c36b",
      "transactionIndex": "0x4",
      "blockHash": "0xdd8f348b55e34e49e0dad633659df0241de55e68acde8da93cba922c65b0254d",
      "blockNumber": "0x120698e",
      "gasUsed": "0x17ab2",
      "effectiveGasPrice": "0x1edb4da26",
      "blobGasPrice": "0x1",
      "from": "0x2738f38fde510743e0c589415e0598c4cee6eaa7",
      "to": "0xbcdc1d0b92dfceeaa0fcd0a0d53355f4bf1db8a7",
      "contractAddress": null
    },
    {
      "status": "0x1",
      "cumulativeGasUsed": "0x17ac8",
      "logs": [
        {
          "address": "0xbcdc1d0b92dfceeaa0fcd0a0d53355f4bf1db8a7",
          "topics": [
            "0x9e7d4acbadbfd04616769397fcc4adee4425cf04da0e151419e325f6c1668a27",
            "0x000000000000000000000000734bb3251ec3f1a83f8f2a8609bcef649d54ebf8"
          ],
          "data": "0x",
          "blockHash": "0x3c44662f503b2ffd6b424567765f2a7780e5abbe97de2df4a21b97e673818916",
          "blockNumber": "0x1206990",
          "blockTimestamp": "0x69a1678e",
          "transactionHash": "0x8c35886066bb6707404bc2e4dfdeeb991ea5a351b6d304762900db1d7099d6f3",
          "transactionIndex": "0x0",
          "logIndex": "0x0",
          "removed": false
        }
      ],
      "logsBloom": "0x00000000000000000000000000000000000000000000000000000000000200200000000000000020000000000000040000000000000000000000000000000000000000000000000000000000000000000000000000008000000000000000000000000000000000000000000000000000000000000000000000000200000000000000000100000000000000000000000000000000000000000000000000000000000000000000000000000000000000000000000000000000000000010000000000000000000000000000000040000000000000000000000000000000000000000000000000000000000000000000000000000000000000000000000000000000",
      "type": "0x2",
      "transactionHash": "0x8c35886066bb6707404bc2e4dfdeeb991ea5a351b6d304762900db1d7099d6f3",
      "transactionIndex": "0x0",
      "blockHash": "0x3c44662f503b2ffd6b424567765f2a7780e5abbe97de2df4a21b97e673818916",
      "blockNumber": "0x1206990",
      "gasUsed": "0x17ac8",
      "effectiveGasPrice": "0x17c10fa73",
      "blobGasPrice": "0x1",
      "from": "0x2738f38fde510743e0c589415e0598c4cee6eaa7",
      "to": "0xbcdc1d0b92dfceeaa0fcd0a0d53355f4bf1db8a7",
      "contractAddress": null
    }
  ],
  "libraries": [
    "node_modules/@celo/contracts/common/linkedlists/AddressSortedLinkedListWithMedian.sol:AddressSortedLinkedListWithMedian:0xf90B816Ea07eC3c6384656cd5B3249DA8fc3df6F"
  ],
  "pending": [],
  "returns": {},
  "timestamp": 1772186681091,
  "chain": 11142220,
  "commit": "d70877a"
}