{
  "transactions": [
    {
      "hash": "0xf88f1314397bb22dafb073eeab4eac53a50f742441a534246bffd1ed48f88749",
      "transactionType": "CALL",
      "contractName": null,
      "contractAddress": "0xde9e4c3ce781b4ba68120d6261cbad65ce0ab00b",
      "function": "_transferOwnership(address)",
      "arguments": [
        "0x74c44Be99937815173A3C56274331e0A05611e0D"
      ],
      "transaction": {
        "from": "0x56fd3f2bee130e9867942d0f463a16fbe49b8d81",
        "to": "0xde9e4c3ce781b4ba68120d6261cbad65ce0ab00b",
        "gas": "0x9824",
        "value": "0x0",
        "input": "0xd29d44ee00000000000000000000000074c44be99937815173a3c56274331e0a05611e0d",
        "nonce": "0x9fb",
        "chainId": "0xaa044c"
      },
      "additionalContracts": [],
      "isFixedGasLimit": false
    },
    {
      "hash": "0xf6a0311ad215c6acbe7c4a427288c90aa052937c298fcd26e7d9867163d56272",
      "transactionType": "CALL",
      "contractName": null,
      "contractAddress": "0xa99dc247d6b7b2e3ab48a1fee101b83cd6acd82a",
      "function": "_transferOwnership(address)",
      "arguments": [
        "0x74c44Be99937815173A3C56274331e0A05611e0D"
      ],
      "transaction": {
        "from": "0x56fd3f2bee130e9867942d0f463a16fbe49b8d81",
        "to": "0xa99dc247d6b7b2e3ab48a1fee101b83cd6acd82a",
        "gas": "0x9824",
        "value": "0x0",
        "input": "0xd29d44ee00000000000000000000000074c44be99937815173a3c56274331e0a05611e0d",
        "nonce": "0x9fc",
        "chainId": "0xaa044c"
      },
      "additionalContracts": [],
      "isFixedGasLimit": false
    },
    {
      "hash": "0x9447baf33d1fb5092cd0e7fa839b83b87992966d81a612b24fddfe6d1b7dae14",
      "transactionType": "CALL",
      "contractName": null,
      "contractAddress": "0x2294298942fdc79417de9e0d740a4957e0e7783a",
      "function": "_transferOwnership(address)",
      "arguments": [
        "0x74c44Be99937815173A3C56274331e0A05611e0D"
      ],
      "transaction": {
        "from": "0x56fd3f2bee130e9867942d0f463a16fbe49b8d81",
        "to": "0x2294298942fdc79417de9e0d740a4957e0e7783a",
        "gas": "0x9824",
        "value": "0x0",
        "input": "0xd29d44ee00000000000000000000000074c44be99937815173a3c56274331e0a05611e0d",
        "nonce": "0x9fd",
        "chainId": "0xaa044c"
      },
      "additionalContracts": [],
      "isFixedGasLimit": false
    },
    {
      "hash": "0x8aa81855639009ecd74038463a2bee85939dc6b26ca0651c78e5d2d1cf116792",
      "transactionType": "CALL",
      "contractName": null,
      "contractAddress": "0x5505b70207ae3b826c1a7607f19f3bf73444a082",
      "function": "_transferOwnership(address)",
      "arguments": [
        "0x74c44Be99937815173A3C56274331e0A05611e0D"
      ],
      "transaction": {
        "from": "0x56fd3f2bee130e9867942d0f463a16fbe49b8d81",
        "to": "0x5505b70207ae3b826c1a7607f19f3bf73444a082",
        "gas": "0x9824",
        "value": "0x0",
        "input": "0xd29d44ee00000000000000000000000074c44be99937815173a3c56274331e0a05611e0d",
        "nonce": "0x9fe",
        "chainId": "0xaa044c"
      },
      "additionalContracts": [],
      "isFixedGasLimit": false
    },
    {
      "hash": "0x618f5a2fa387ac4bece3f901fb9dd16a81e207deaac278ddbefd5e7cad666e5b",
      "transactionType": "CALL",
      "contractName": null,
      "contractAddress": "0xc7e4635651e3e3af82b61d3e23c159438dae3bbf",
      "function": "_transferOwnership(address)",
      "arguments": [
        "0x74c44Be99937815173A3C56274331e0A05611e0D"
      ],
      "transaction": {
        "from": "0x56fd3f2bee130e9867942d0f463a16fbe49b8d81",
        "to": "0xc7e4635651e3e3af82b61d3e23c159438dae3bbf",
        "gas": "0x9824",
        "value": "0x0",
        "input": "0xd29d44ee00000000000000000000000074c44be99937815173a3c56274331e0a05611e0d",
        "nonce": "0x9ff",
        "chainId": "0xaa044c"
      },
      "additionalContracts": [],
      "isFixedGasLimit": false
    },
    {
      "hash": "0xa337e1a7875d13e970ce10b3861ab33796d1c17bbef23fde73fcf6cc83b78cae",
      "transactionType": "CALL",
      "contractName": null,
      "contractAddress": "0x0352976d940a2c3fba0c3623198947ee1d17869e",
      "function": "_transferOwnership(address)",
      "arguments": [
        "0x74c44Be99937815173A3C56274331e0A05611e0D"
      ],
      "transaction": {
        "from": "0x56fd3f2bee130e9867942d0f463a16fbe49b8d81",
        "to": "0x0352976d940a2c3fba0c3623198947ee1d17869e",
        "gas": "0x9824",
        "value": "0x0",
        "input": "0xd29d44ee00000000000000000000000074c44be99937815173a3c56274331e0a05611e0d",
        "nonce": "0xa00",
        "chainId": "0xaa044c"
      },
      "additionalContracts": [],
      "isFixedGasLimit": false
    },
    {
      "hash": "0x7cf4ac6ec1e94abf7b23fb970306d59b157763893968b6b1dbcaf08bbeee24a0",
      "transactionType": "CALL",
      "contractName": null,
      "contractAddress": "0x5f8d55c3627d2dc0a2b4afa798f877242f382f67",
      "function": "_transferOwnership(address)",
      "arguments": [
        "0x74c44Be99937815173A3C56274331e0A05611e0D"
      ],
      "transaction": {
        "from": "0x56fd3f2bee130e9867942d0f463a16fbe49b8d81",
        "to": "0x5f8d55c3627d2dc0a2b4afa798f877242f382f67",
        "gas": "0x9824",
        "value": "0x0",
        "input": "0xd29d44ee00000000000000000000000074c44be99937815173a3c56274331e0a05611e0d",
        "nonce": "0xa01",
        "chainId": "0xaa044c"
      },
      "additionalContracts": [],
      "isFixedGasLimit": false
    },
    {
      "hash": "0xe992bc74d9fdcff5adde70248ffe1cf1df5cc54c438f3f35c1ccf63d14074863",
      "transactionType": "CALL",
      "contractName": null,
      "contractAddress": "0x5e94b8c872bd47bc4255e60ecbf44d5e66e7401c",
      "function": "_transferOwnership(address)",
      "arguments": [
        "0x74c44Be99937815173A3C56274331e0A05611e0D"
      ],
      "transaction": {
        "from": "0x56fd3f2bee130e9867942d0f463a16fbe49b8d81",
        "to": "0x5e94b8c872bd47bc4255e60ecbf44d5e66e7401c",
        "gas": "0x9824",
        "value": "0x0",
        "input": "0xd29d44ee00000000000000000000000074c44be99937815173a3c56274331e0a05611e0d",
        "nonce": "0xa02",
        "chainId": "0xaa044c"
      },
      "additionalContracts": [],
      "isFixedGasLimit": false
    },
    {
      "hash": "0xaf5740d1d124eaa739ba5ec68e8944e6bc30b685b06ffc7fbadc0f510fe6491b",
      "transactionType": "CALL",
      "contractName": null,
      "contractAddress": "0x85f5181abdbf0e1814fc4358582ae07b8eba3af3",
      "function": "_transferOwnership(address)",
      "arguments": [
        "0x74c44Be99937815173A3C56274331e0A05611e0D"
      ],
      "transaction": {
        "from": "0x56fd3f2bee130e9867942d0f463a16fbe49b8d81",
        "to": "0x85f5181abdbf0e1814fc4358582ae07b8eba3af3",
        "gas": "0x9824",
        "value": "0x0",
        "input": "0xd29d44ee00000000000000000000000074c44be99937815173a3c56274331e0a05611e0d",
        "nonce": "0xa03",
        "chainId": "0xaa044c"
      },
      "additionalContracts": [],
      "isFixedGasLimit": false
    },
    {
      "hash": "0x626c6fcb3b6317a87514d31a6fe2a6d94e11052549462e084aaba515518a4f2f",
      "transactionType": "CALL",
      "contractName": null,
      "contractAddress": "0x10ccfb235b0e1ed394bace4560c3ed016697687e",
      "function": "_transferOwnership(address)",
      "arguments": [
        "0x74c44Be99937815173A3C56274331e0A05611e0D"
      ],
      "transaction": {
        "from": "0x56fd3f2bee130e9867942d0f463a16fbe49b8d81",
        "to": "0x10ccfb235b0e1ed394bace4560c3ed016697687e",
        "gas": "0x9824",
        "value": "0x0",
        "input": "0xd29d44ee00000000000000000000000074c44be99937815173a3c56274331e0a05611e0d",
        "nonce": "0xa04",
        "chainId": "0xaa044c"
      },
      "additionalContracts": [],
      "isFixedGasLimit": false
    },
    {
      "hash": "0xbdc89217c650ed2dc739caaffd099b96218aae7f4a98352075e17f0765c43e99",
      "transactionType": "CALL",
      "contractName": null,
      "contractAddress": "0xf151c9a13b78c84f93f50b8b3bc689fedc134f60",
      "function": "_transferOwnership(address)",
      "arguments": [
        "0x74c44Be99937815173A3C56274331e0A05611e0D"
      ],
      "transaction": {
        "from": "0x56fd3f2bee130e9867942d0f463a16fbe49b8d81",
        "to": "0xf151c9a13b78c84f93f50b8b3bc689fedc134f60",
        "gas": "0x9824",
        "value": "0x0",
        "input": "0xd29d44ee00000000000000000000000074c44be99937815173a3c56274331e0a05611e0d",
        "nonce": "0xa05",
        "chainId": "0xaa044c"
      },
      "additionalContracts": [],
      "isFixedGasLimit": false
    },
    {
      "hash": "0xd5da4caa794045aa0c337434f1de466b7f1151ffbaf85990a86935cdc97fb820",
      "transactionType": "CALL",
      "contractName": null,
      "contractAddress": "0x5873faeb42f3563dcd77f0fbbda818e6d6da3139",
      "function": "_transferOwnership(address)",
      "arguments": [
        "0x74c44Be99937815173A3C56274331e0A05611e0D"
      ],
      "transaction": {
        "from": "0x56fd3f2bee130e9867942d0f463a16fbe49b8d81",
        "to": "0x5873faeb42f3563dcd77f0fbbda818e6d6da3139",
        "gas": "0x9824",
        "value": "0x0",
        "input": "0xd29d44ee00000000000000000000000074c44be99937815173a3c56274331e0a05611e0d",
        "nonce": "0xa06",
        "chainId": "0xaa044c"
      },
      "additionalContracts": [],
      "isFixedGasLimit": false
    },
    {
      "hash": "0x33acd0801706f0e331b965e69732e01329a9c6f2d307c5ce72ad0cd71289f9f8",
      "transactionType": "CALL",
      "contractName": null,
      "contractAddress": "0x284e9b7b623eae866914b7fa0eb720c2bb3c2980",
      "function": "_transferOwnership(address)",
      "arguments": [
        "0x74c44Be99937815173A3C56274331e0A05611e0D"
      ],
      "transaction": {
        "from": "0x56fd3f2bee130e9867942d0f463a16fbe49b8d81",
        "to": "0x284e9b7b623eae866914b7fa0eb720c2bb3c2980",
        "gas": "0x9824",
        "value": "0x0",
        "input": "0xd29d44ee00000000000000000000000074c44be99937815173a3c56274331e0a05611e0d",
        "nonce": "0xa07",
        "chainId": "0xaa044c"
      },
      "additionalContracts": [],
      "isFixedGasLimit": false
    },
    {
      "hash": "0x64d2cc528ebb3e39c0d731f44e1130511dd35a61ef00f96cd06bdcdbbc64a74e",
      "transactionType": "CALL",
      "contractName": null,
      "contractAddress": "0x85bee67d435a39f7467a8a9de34a5b73d25df426",
      "function": "_transferOwnership(address)",
      "arguments": [
        "0x74c44Be99937815173A3C56274331e0A05611e0D"
      ],
      "transaction": {
        "from": "0x56fd3f2bee130e9867942d0f463a16fbe49b8d81",
        "to": "0x85bee67d435a39f7467a8a9de34a5b73d25df426",
        "gas": "0x9824",
        "value": "0x0",
        "input": "0xd29d44ee00000000000000000000000074c44be99937815173a3c56274331e0a05611e0d",
        "nonce": "0xa08",
        "chainId": "0xaa044c"
      },
      "additionalContracts": [],
      "isFixedGasLimit": false
    },
    {
      "hash": "0x5024bd7dc2e3cf1ec85676abf8ce677a6b9980d5dcc418f0941e86829d6a9a47",
      "transactionType": "CALL",
      "contractName": null,
      "contractAddress": "0x3d5ae86f34e2a82771496d140dafaef3789df888",
      "function": "_transferOwnership(address)",
      "arguments": [
        "0x74c44Be99937815173A3C56274331e0A05611e0D"
      ],
      "transaction": {
        "from": "0x56fd3f2bee130e9867942d0f463a16fbe49b8d81",
        "to": "0x3d5ae86f34e2a82771496d140dafaef3789df888",
        "gas": "0x9824",
        "value": "0x0",
        "input": "0xd29d44ee00000000000000000000000074c44be99937815173a3c56274331e0a05611e0d",
        "nonce": "0xa09",
        "chainId": "0xaa044c"
      },
      "additionalContracts": [],
      "isFixedGasLimit": false
    }
  ],
  "receipts": [
    {
      "status": "0x1",
      "cumulativeGasUsed": "0x12212",
      "logs": [
        {
          "address": "0xde9e4c3ce781b4ba68120d6261cbad65ce0ab00b",
          "topics": [
            "0x50146d0e3c60aa1d17a70635b05494f864e86144a2201275021014fbf08bafe2",
            "0x00000000000000000000000074c44be99937815173a3c56274331e0a05611e0d"
          ],
          "data": "0x",
          "blockHash": "0x1ec49e6ce2761860d910ffc8fe2989edda9037f8682ce3f5866e0d7587076bea",
          "blockNumber": "0xaf4144",
          "transactionHash": "0xf88f1314397bb22dafb073eeab4eac53a50f742441a534246bffd1ed48f88749",
          "transactionIndex": "0x1",
          "logIndex": "0x0",
          "removed": false
        }
      ],
      "logsBloom": "0x00000000000000000000000000000000000000000000000000000000000000000000000000000000000000000000400000000042000000000000000000000000000000000000000000000000000000000000000000000008000000001000000000000000000000000000000000000000000000000000100000000000000000000000000000000000000000000000000000000000000000000000000000000000000000000000000000000000000000000000000000000004000000000000000000000000000000000000000000000000000000000000000000000000800000000000000000000000000000000000000001000000000000000000000000000000",
      "type": "0x2",
      "transactionHash": "0xf88f1314397bb22dafb073eeab4eac53a50f742441a534246bffd1ed48f88749",
      "transactionIndex": "0x1",
      "blockHash": "0x1ec49e6ce2761860d910ffc8fe2989edda9037f8682ce3f5866e0d7587076bea",
      "blockNumber": "0xaf4144",
      "gasUsed": "0x6e26",
      "effectiveGasPrice": "0x5d21dba01",
      "from": "0x56fd3f2bee130e9867942d0f463a16fbe49b8d81",
      "to": "0xde9e4c3ce781b4ba68120d6261cbad65ce0ab00b",
      "contractAddress": null,
      "l1BaseFeeScalar": "0x0",
      "l1BlobBaseFee": "0x1",
      "l1BlobBaseFeeScalar": "0x0",
      "l1Fee": "0x0",
      "l1GasPrice": "0x9",
      "l1GasUsed": "0x640"
    },
    {
      "status": "0x1",
      "cumulativeGasUsed": "0x19038",
      "logs": [
        {
          "address": "0xa99dc247d6b7b2e3ab48a1fee101b83cd6acd82a",
          "topics": [
            "0x50146d0e3c60aa1d17a70635b05494f864e86144a2201275021014fbf08bafe2",
            "0x00000000000000000000000074c44be99937815173a3c56274331e0a05611e0d"
          ],
          "data": "0x",
          "blockHash": "0x1ec49e6ce2761860d910ffc8fe2989edda9037f8682ce3f5866e0d7587076bea",
          "blockNumber": "0xaf4144",
          "transactionHash": "0xf6a0311ad215c6acbe7c4a427288c90aa052937c298fcd26e7d9867163d56272",
          "transactionIndex": "0x2",
          "logIndex": "0x1",
          "removed": false
        }
      ],
      "logsBloom": "0x00000000000000000000000000000000000000000000000000000000000000000000000000000000000000001000400000000002000000000000000000000000000000000000000000000000000000000000000000000000000000001000000001000000000000000000000000000000000000000000100000000000000000000000000000000000000000000000000000000000000000000000000000000000000000000000000000000000000000000000000000000004000000000000000000000000000000000000000000000000000000000000000000000000000000000000000000000000000000000000000001000000000000020000000000000000",
      "type": "0x2",
      "transactionHash": "0xf6a0311ad215c6acbe7c4a427288c90aa052937c298fcd26e7d9867163d56272",
      "transactionIndex": "0x2",
      "blockHash": "0x1ec49e6ce2761860d910ffc8fe2989edda9037f8682ce3f5866e0d7587076bea",
      "blockNumber": "0xaf4144",
      "gasUsed": "0x6e26",
      "effectiveGasPrice": "0x5d21dba01",
      "from": "0x56fd3f2bee130e9867942d0f463a16fbe49b8d81",
      "to": "0xa99dc247d6b7b2e3ab48a1fee101b83cd6acd82a",
      "contractAddress": null,
      "l1BaseFeeScalar": "0x0",
      "l1BlobBaseFee": "0x1",
      "l1BlobBaseFeeScalar": "0x0",
      "l1Fee": "0x0",
      "l1GasPrice": "0x9",
      "l1GasUsed": "0x640"
    },
    {
      "status": "0x1",
      "cumulativeGasUsed": "0x1fe5e",
      "logs": [
        {
          "address": "0x2294298942fdc79417de9e0d740a4957e0e7783a",
          "topics": [
            "0x50146d0e3c60aa1d17a70635b05494f864e86144a2201275021014fbf08bafe2",
            "0x00000000000000000000000074c44be99937815173a3c56274331e0a05611e0d"
          ],
          "data": "0x",
          "blockHash": "0x1ec49e6ce2761860d910ffc8fe2989edda9037f8682ce3f5866e0d7587076bea",
          "blockNumber": "0xaf4144",
          "transactionHash": "0x9447baf33d1fb5092cd0e7fa839b83b87992966d81a612b24fddfe6d1b7dae14",
          "transactionIndex": "0x3",
          "logIndex": "0x2",
          "removed": false
        }
      ],
      "logsBloom": "0x00000000000000000000000000000000000000000000000000000000000000000000000000000000000000000000400000000002000000000000000000000000000000000000000000000000000000000000000000000000000000001000000000000000000000000000000000000000000000000000100000000000000000000000000000000000000000000000000000000000000000000000000000000000000000000000000000000000000000000000000020000004000000000000000000000000000000000000000000000000000000000000000000000000000000000000000000000000000000000000004001000000400000000000000000000000",
      "type": "0x2",
      "transactionHash": "0x9447baf33d1fb5092cd0e7fa839b83b87992966d81a612b24fddfe6d1b7dae14",
      "transactionIndex": "0x3",
      "blockHash": "0x1ec49e6ce2761860d910ffc8fe2989edda9037f8682ce3f5866e0d7587076bea",
      "blockNumber": "0xaf4144",
      "gasUsed": "0x6e26",
      "effectiveGasPrice": "0x5d21dba01",
      "from": "0x56fd3f2bee130e9867942d0f463a16fbe49b8d81",
      "to": "0x2294298942fdc79417de9e0d740a4957e0e7783a",
      "contractAddress": null,
      "l1BaseFeeScalar": "0x0",
      "l1BlobBaseFee": "0x1",
      "l1BlobBaseFeeScalar": "0x0",
      "l1Fee": "0x0",
      "l1GasPrice": "0x9",
      "l1GasUsed": "0x640"
    },
    {
      "status": "0x1",
      "cumulativeGasUsed": "0x26c84",
      "logs": [
        {
          "address": "0x5505b70207ae3b826c1a7607f19f3bf73444a082",
          "topics": [
            "0x50146d0e3c60aa1d17a70635b05494f864e86144a2201275021014fbf08bafe2",
            "0x00000000000000000000000074c44be99937815173a3c56274331e0a05611e0d"
          ],
          "data": "0x",
          "blockHash": "0x1ec49e6ce2761860d910ffc8fe2989edda9037f8682ce3f5866e0d7587076bea",
          "blockNumber": "0xaf4144",
          "transactionHash": "0x8aa81855639009ecd74038463a2bee85939dc6b26ca0651c78e5d2d1cf116792",
          "transactionIndex": "0x4",
          "logIndex": "0x3",
          "removed": false
        }
      ],
      "logsBloom": "0x00000000000000000000000000000000000000000000000000000000000000000000000000000000000000000000400000000002000000000000000000000000000000000000000000000000000000000000000000000000000000001000000000000000000000000000000000000000000000000000100000000000000000000000000000000000000000000000000000000000040000001000000000000000000000000000000000000000000000000000000000000004000000000000000000000000000000000000000000000000000800000000000000000000000000000000000000000000000000000000000001000000000000000000000000000000",
      "type": "0x2",
      "transactionHash": "0x8aa81855639009ecd74038463a2bee85939dc6b26ca0651c78e5d2d1cf116792",
      "transactionIndex": "0x4",
      "blockHash": "0x1ec49e6ce2761860d910ffc8fe2989edda9037f8682ce3f5866e0d7587076bea",
      "blockNumber": "0xaf4144",
      "gasUsed": "0x6e26",
      "effectiveGasPrice": "0x5d21dba01",
      "from": "0x56fd3f2bee130e9867942d0f463a16fbe49b8d81",
      "to": "0x5505b70207ae3b826c1a7607f19f3bf73444a082",
      "contractAddress": null,
      "l1BaseFeeScalar": "0x0",
      "l1BlobBaseFee": "0x1",
      "l1BlobBaseFeeScalar": "0x0",
      "l1Fee": "0x0",
      "l1GasPrice": "0x9",
      "l1GasUsed": "0x640"
    },
    {
      "status": "0x1",
      "cumulativeGasUsed": "0x2daaa",
      "logs": [
        {
          "address": "0xc7e4635651e3e3af82b61d3e23c159438dae3bbf",
          "topics": [
            "0x50146d0e3c60aa1d17a70635b05494f864e86144a2201275021014fbf08bafe2",
            "0x00000000000000000000000074c44be99937815173a3c56274331e0a05611e0d"
          ],
          "data": "0x",
          "blockHash": "0x1ec49e6ce2761860d910ffc8fe2989edda9037f8682ce3f5866e0d7587076bea",
          "blockNumber": "0xaf4144",
          "transactionHash": "0x618f5a2fa387ac4bece3f901fb9dd16a81e207deaac278ddbefd5e7cad666e5b",
          "transactionIndex": "0x5",
          "logIndex": "0x4",
          "removed": false
        }
      ],
      "logsBloom": "0x00000000000000000000000000000000000000000000000000000800000400000000000000000000000000000000400000000002000000000000000000000000000000000000000000000000200000000000000000000000000000001000000000000000000000000000000000000000000000000000100000000000000000000000000000000000000000000000000000000000000000000000000000000000000000000000000000000000000000000000000000000004000000000000000000000000000000000000000000000000000000000000000000000000000000000000000000000000000000000000000001000000000000000000000000000000",
      "type": "0x2",
      "transactionHash": "0x618f5a2fa387ac4bece3f901fb9dd16a81e207deaac278ddbefd5e7cad666e5b",
      "transactionIndex": "0x5",
      "blockHash": "0x1ec49e6ce2761860d910ffc8fe2989edda9037f8682ce3f5866e0d7587076bea",
      "blockNumber": "0xaf4144",
      "gasUsed": "0x6e26",
      "effectiveGasPrice": "0x5d21dba01",
      "from": "0x56fd3f2bee130e9867942d0f463a16fbe49b8d81",
      "to": "0xc7e4635651e3e3af82b61d3e23c159438dae3bbf",
      "contractAddress": null,
      "l1BaseFeeScalar": "0x0",
      "l1BlobBaseFee": "0x1",
      "l1BlobBaseFeeScalar": "0x0",
      "l1Fee": "0x0",
      "l1GasPrice": "0x9",
      "l1GasUsed": "0x640"
    },
    {
      "status": "0x1",
      "cumulativeGasUsed": "0x348d0",
      "logs": [
        {
          "address": "0x0352976d940a2c3fba0c3623198947ee1d17869e",
          "topics": [
            "0x50146d0e3c60aa1d17a70635b05494f864e86144a2201275021014fbf08bafe2",
            "0x00000000000000000000000074c44be99937815173a3c56274331e0a05611e0d"
          ],
          "data": "0x",
          "blockHash": "0x1ec49e6ce2761860d910ffc8fe2989edda9037f8682ce3f5866e0d7587076bea",
          "blockNumber": "0xaf4144",
          "transactionHash": "0xa337e1a7875d13e970ce10b3861ab33796d1c17bbef23fde73fcf6cc83b78cae",
          "transactionIndex": "0x6",
          "logIndex": "0x5",
          "removed": false
        }
      ],
      "logsBloom": "0x00000000000000000000000000000000000000000000000000000000000000000000000000000000000000000000400000000002000000000000000000000000000000000000000000000000000000000000000000000000000000001000000000000000000000000000000000000000000000000000100000000000000000000000000000000000000000000000000000000000000000000000000000000000000000000000000000000100000000000000000001000004000000000000000000000000000000000000000000000000000000000000000000000000000000000000000000000000000000000000000001000000000100000000000000000000",
      "type": "0x2",
      "transactionHash": "0xa337e1a7875d13e970ce10b3861ab33796d1c17bbef23fde73fcf6cc83b78cae",
      "transactionIndex": "0x6",
      "blockHash": "0x1ec49e6ce2761860d910ffc8fe2989edda9037f8682ce3f5866e0d7587076bea",
      "blockNumber": "0xaf4144",
      "gasUsed": "0x6e26",
      "effectiveGasPrice": "0x5d21dba01",
      "from": "0x56fd3f2bee130e9867942d0f463a16fbe49b8d81",
      "to": "0x0352976d940a2c3fba0c3623198947ee1d17869e",
      "contractAddress": null,
      "l1BaseFeeScalar": "0x0",
      "l1BlobBaseFee": "0x1",
      "l1BlobBaseFeeScalar": "0x0",
      "l1Fee": "0x0",
      "l1GasPrice": "0x9",
      "l1GasUsed": "0x640"
    },
    {
      "status": "0x1",
      "cumulativeGasUsed": "0x3b6f6",
      "logs": [
        {
          "address": "0x5f8d55c3627d2dc0a2b4afa798f877242f382f67",
          "topics": [
            "0x50146d0e3c60aa1d17a70635b05494f864e86144a2201275021014fbf08bafe2",
            "0x00000000000000000000000074c44be99937815173a3c56274331e0a05611e0d"
          ],
          "data": "0x",
          "blockHash": "0x1ec49e6ce2761860d910ffc8fe2989edda9037f8682ce3f5866e0d7587076bea",
          "blockNumber": "0xaf4144",
          "transactionHash": "0x7cf4ac6ec1e94abf7b23fb970306d59b157763893968b6b1dbcaf08bbeee24a0",
          "transactionIndex": "0x7",
          "logIndex": "0x6",
          "removed": false
        }
      ],
      "logsBloom": "0x00000000000000000000000000000000000000000000000000080000000000000000000000000000000000000000400000000002000000000000000000000000000000000000000000000000000000000000000000000000000000001000000000000000000000000002000000000000000000000000100000000000000000000000000000000000000000000000000000000000000000000000000000000000000000000000008000000000000000000000000000000004000000000000000000000000000000000000000000000000000000000000000000000000000000000000000000000000000000000000000001000000000000000000000000000000",
      "type": "0x2",
      "transactionHash": "0x7cf4ac6ec1e94abf7b23fb970306d59b157763893968b6b1dbcaf08bbeee24a0",
      "transactionIndex": "0x7",
      "blockHash": "0x1ec49e6ce2761860d910ffc8fe2989edda9037f8682ce3f5866e0d7587076bea",
      "blockNumber": "0xaf4144",
      "gasUsed": "0x6e26",
      "effectiveGasPrice": "0x5d21dba01",
      "from": "0x56fd3f2bee130e9867942d0f463a16fbe49b8d81",
      "to": "0x5f8d55c3627d2dc0a2b4afa798f877242f382f67",
      "contractAddress": null,
      "l1BaseFeeScalar": "0x0",
      "l1BlobBaseFee": "0x1",
      "l1BlobBaseFeeScalar": "0x0",
      "l1Fee": "0x0",
      "l1GasPrice": "0x9",
      "l1GasUsed": "0x640"
    },
    {
      "status": "0x1",
      "cumulativeGasUsed": "0x4251c",
      "logs": [
        {
          "address": "0x5e94b8c872bd47bc4255e60ecbf44d5e66e7401c",
          "topics": [
            "0x50146d0e3c60aa1d17a70635b05494f864e86144a2201275021014fbf08bafe2",
            "0x00000000000000000000000074c44be99937815173a3c56274331e0a05611e0d"
          ],
          "data": "0x",
          "blockHash": "0x1ec49e6ce2761860d910ffc8fe2989edda9037f8682ce3f5866e0d7587076bea",
          "blockNumber": "0xaf4144",
          "transactionHash": "0xe992bc74d9fdcff5adde70248ffe1cf1df5cc54c438f3f35c1ccf63d14074863",
          "transactionIndex": "0x8",
          "logIndex": "0x7",
          "removed": false
        }
      ],
      "logsBloom": "0x00000100000000000000000000000000000000000000000000000000000000000000008000000000000000000000400000000002000000000000000000000000000000000000000000000000000000000000000000000000000000001000000000000000000000000000000000000000000000000000100000000000000000000000100000000000000000000000000000000000000000000000000000000000000000000000000000000000000000000000000000000004000000000000000000000000000000000000000000000000000000000000000000000000000000000000000000000000000000000000000001000000000000000000000000000000",
      "type": "0x2",
      "transactionHash": "0xe992bc74d9fdcff5adde70248ffe1cf1df5cc54c438f3f35c1ccf63d14074863",
      "transactionIndex": "0x8",
      "blockHash": "0x1ec49e6ce2761860d910ffc8fe2989edda9037f8682ce3f5866e0d7587076bea",
      "blockNumber": "0xaf4144",
      "gasUsed": "0x6e26",
      "effectiveGasPrice": "0x5d21dba01",
      "from": "0x56fd3f2bee130e9867942d0f463a16fbe49b8d81",
      "to": "0x5e94b8c872bd47bc4255e60ecbf44d5e66e7401c",
      "contractAddress": null,
      "l1BaseFeeScalar": "0x0",
      "l1BlobBaseFee": "0x1",
      "l1BlobBaseFeeScalar": "0x0",
      "l1Fee": "0x0",
      "l1GasPrice": "0x9",
      "l1GasUsed": "0x640"
    },
    {
      "status": "0x1",
      "cumulativeGasUsed": "0x49342",
      "logs": [
        {
          "address": "0x85f5181abdbf0e1814fc4358582ae07b8eba3af3",
          "topics": [
            "0x50146d0e3c60aa1d17a70635b05494f864e86144a2201275021014fbf08bafe2",
            "0x00000000000000000000000074c44be99937815173a3c56274331e0a05611e0d"
          ],
          "data": "0x",
          "blockHash": "0x1ec49e6ce2761860d910ffc8fe2989edda9037f8682ce3f5866e0d7587076bea",
          "blockNumber": "0xaf4144",
          "transactionHash": "0xaf5740d1d124eaa739ba5ec68e8944e6bc30b685b06ffc7fbadc0f510fe6491b",
          "transactionIndex": "0x9",
          "logIndex": "0x8",
          "removed": false
        }
      ],
      "logsBloom": "0x00000000000000000000000000000000000000000000000000000000000000000000000000000000000000000000400000000002000000000000000000000000000000800000000000000000000000000000000000000000000000001000000000000000000000000000000000000000000000000000100000000000000000000000010000000000800000000000000000000000000000000000000000000000000000000000000000000000000000000000000000000004000000000000000000000000000000000000000000000000000000000000000000000000000000000000000000000000000000000000000001000000000000000000000000000000",
      "type": "0x2",
      "transactionHash": "0xaf5740d1d124eaa739ba5ec68e8944e6bc30b685b06ffc7fbadc0f510fe6491b",
      "transactionIndex": "0x9",
      "blockHash": "0x1ec49e6ce2761860d910ffc8fe2989edda9037f8682ce3f5866e0d7587076bea",
      "blockNumber": "0xaf4144",
      "gasUsed": "0x6e26",
      "effectiveGasPrice": "0x5d21dba01",
      "from": "0x56fd3f2bee130e9867942d0f463a16fbe49b8d81",
      "to": "0x85f5181abdbf0e1814fc4358582ae07b8eba3af3",
      "contractAddress": null,
      "l1BaseFeeScalar": "0x0",
      "l1BlobBaseFee": "0x1",
      "l1BlobBaseFeeScalar": "0x0",
      "l1Fee": "0x0",
      "l1GasPrice": "0x9",
      "l1GasUsed": "0x640"
    },
    {
      "status": "0x1",
      "cumulativeGasUsed": "0x50168",
      "logs": [
        {
          "address": "0x10ccfb235b0e1ed394bace4560c3ed016697687e",
          "topics": [
            "0x50146d0e3c60aa1d17a70635b05494f864e86144a2201275021014fbf08bafe2",
            "0x00000000000000000000000074c44be99937815173a3c56274331e0a05611e0d"
          ],
          "data": "0x",
          "blockHash": "0x1ec49e6ce2761860d910ffc8fe2989edda9037f8682ce3f5866e0d7587076bea",
          "blockNumber": "0xaf4144",
          "transactionHash": "0x626c6fcb3b6317a87514d31a6fe2a6d94e11052549462e084aaba515518a4f2f",
          "transactionIndex": "0xa",
          "logIndex": "0x9",
          "removed": false
        }
      ],
      "logsBloom": "0x00000000000000000000000000000000000000000000000000000000000000000000000000000000000000000000400000000002000000000000000000000000000000000000000000000000000001000000000000000000000000001000000000000000000000000000000000000000000000000000100000000000002000000000000000000000000000000000000000000000000000000000000000000000000000000000000000000000000000000000000000000004000000000000000000000000000000000001000000000000000000000000000000000000000000000000000000000000000000000000000001000000000000000000000000000000",
      "type": "0x2",
      "transactionHash": "0x626c6fcb3b6317a87514d31a6fe2a6d94e11052549462e084aaba515518a4f2f",
      "transactionIndex": "0xa",
      "blockHash": "0x1ec49e6ce2761860d910ffc8fe2989edda9037f8682ce3f5866e0d7587076bea",
      "blockNumber": "0xaf4144",
      "gasUsed": "0x6e26",
      "effectiveGasPrice": "0x5d21dba01",
      "from": "0x56fd3f2bee130e9867942d0f463a16fbe49b8d81",
      "to": "0x10ccfb235b0e1ed394bace4560c3ed016697687e",
      "contractAddress": null,
      "l1BaseFeeScalar": "0x0",
      "l1BlobBaseFee": "0x1",
      "l1BlobBaseFeeScalar": "0x0",
      "l1Fee": "0x0",
      "l1GasPrice": "0x9",
      "l1GasUsed": "0x640"
    },
    {
      "status": "0x1",
      "cumulativeGasUsed": "0x56f8e",
      "logs": [
        {
          "address": "0xf151c9a13b78c84f93f50b8b3bc689fedc134f60",
          "topics": [
            "0x50146d0e3c60aa1d17a70635b05494f864e86144a2201275021014fbf08bafe2",
            "0x00000000000000000000000074c44be99937815173a3c56274331e0a05611e0d"
          ],
          "data": "0x",
          "blockHash": "0x1ec49e6ce2761860d910ffc8fe2989edda9037f8682ce3f5866e0d7587076bea",
          "blockNumber": "0xaf4144",
          "transactionHash": "0xbdc89217c650ed2dc739caaffd099b96218aae7f4a98352075e17f0765c43e99",
          "transactionIndex": "0xb",
          "logIndex": "0xa",
          "removed": false
        }
      ],
      "logsBloom": "0x00000000000000000000000000000000000000000000000000000000000000002000000000000000000000000000400000000002000000000000000000000000000000000000000000000000000000000000000000000000000000001000000000000000000000000000000000000000000000000000100000000000000000000000000000000000000000000000000000000000000000000000000000000000000000000000000000000000000008000000000000000004000000000000000000000000000000000100000000000000000000000000000000000000000000000000000000000000000000000000000001000000000000000000000000000000",
      "type": "0x2",
      "transactionHash": "0xbdc89217c650ed2dc739caaffd099b96218aae7f4a98352075e17f0765c43e99",
      "transactionIndex": "0xb",
      "blockHash": "0x1ec49e6ce2761860d910ffc8fe2989edda9037f8682ce3f5866e0d7587076bea",
      "blockNumber": "0xaf4144",
      "gasUsed": "0x6e26",
      "effectiveGasPrice": "0x5d21dba01",
      "from": "0x56fd3f2bee130e9867942d0f463a16fbe49b8d81",
      "to": "0xf151c9a13b78c84f93f50b8b3bc689fedc134f60",
      "contractAddress": null,
      "l1BaseFeeScalar": "0x0",
      "l1BlobBaseFee": "0x1",
      "l1BlobBaseFeeScalar": "0x0",
      "l1Fee": "0x0",
      "l1GasPrice": "0x9",
      "l1GasUsed": "0x640"
    },
    {
      "status": "0x1",
      "cumulativeGasUsed": "0x5ddb4",
      "logs": [
        {
          "address": "0x5873faeb42f3563dcd77f0fbbda818e6d6da3139",
          "topics": [
            "0x50146d0e3c60aa1d17a70635b05494f864e86144a2201275021014fbf08bafe2",
            "0x00000000000000000000000074c44be99937815173a3c56274331e0a05611e0d"
          ],
          "data": "0x",
          "blockHash": "0x1ec49e6ce2761860d910ffc8fe2989edda9037f8682ce3f5866e0d7587076bea",
          "blockNumber": "0xaf4144",
          "transactionHash": "0xd5da4caa794045aa0c337434f1de466b7f1151ffbaf85990a86935cdc97fb820",
          "transactionIndex": "0xc",
          "logIndex": "0xb",
          "removed": false
        }
      ],
      "logsBloom": "0x00000000000000000000000000000000010000000000000000000000000000000000000000000000000000000000400000000002000000000000000000000000000000000000000000000000000000000000000000000000000000001000000000000000000000000000000000000000000000000000100000000000000000000000000000000000000000000000000000000000000000000000000000000000000000000000000000000000001000000000000000000004000000000000000000000000000000000000000000000000000000000000000000000000000000000000000000000000000000000008000001000000000000000000000000000000",
      "type": "0x2",
      "transactionHash": "0xd5da4caa794045aa0c337434f1de466b7f1151ffbaf85990a86935cdc97fb820",
      "transactionIndex": "0xc",
      "blockHash": "0x1ec49e6ce2761860d910ffc8fe2989edda9037f8682ce3f5866e0d7587076bea",
      "blockNumber": "0xaf4144",
      "gasUsed": "0x6e26",
      "effectiveGasPrice": "0x5d21dba01",
      "from": "0x56fd3f2bee130e9867942d0f463a16fbe49b8d81",
      "to": "0x5873faeb42f3563dcd77f0fbbda818e6d6da3139",
      "contractAddress": null,
      "l1BaseFeeScalar": "0x0",
      "l1BlobBaseFee": "0x1",
      "l1BlobBaseFeeScalar": "0x0",
      "l1Fee": "0x0",
      "l1GasPrice": "0x9",
      "l1GasUsed": "0x640"
    },
    {
      "status": "0x1",
      "cumulativeGasUsed": "0x64bda",
      "logs": [
        {
          "address": "0x284e9b7b623eae866914b7fa0eb720c2bb3c2980",
          "topics": [
            "0x50146d0e3c60aa1d17a70635b05494f864e86144a2201275021014fbf08bafe2",
            "0x00000000000000000000000074c44be99937815173a3c56274331e0a05611e0d"
          ],
          "data": "0x",
          "blockHash": "0x1ec49e6ce2761860d910ffc8fe2989edda9037f8682ce3f5866e0d7587076bea",
          "blockNumber": "0xaf4144",
          "transactionHash": "0x33acd0801706f0e331b965e69732e01329a9c6f2d307c5ce72ad0cd71289f9f8",
          "transactionIndex": "0xd",
          "logIndex": "0xc",
          "removed": false
        }
      ],
      "logsBloom": "0x00000000000000000000000000000000000000000000000000000000000000000020000000000000000000000000400000000002000000000000000000000000000000000000000000000000000000000000000000000000000000001000000000000000000000000000000000000000000000000000100000000000000000000000000000000000000000000000000000000000800000000000000000000000000000000000000000000000000000000000000000000004000000000000000000000000000000000000000000000000000000000000000000000000000000000000000020000000000000000000000001000000000000000000000000000000",
      "type": "0x2",
      "transactionHash": "0x33acd0801706f0e331b965e69732e01329a9c6f2d307c5ce72ad0cd71289f9f8",
      "transactionIndex": "0xd",
      "blockHash": "0x1ec49e6ce2761860d910ffc8fe2989edda9037f8682ce3f5866e0d7587076bea",
      "blockNumber": "0xaf4144",
      "gasUsed": "0x6e26",
      "effectiveGasPrice": "0x5d21dba01",
      "from": "0x56fd3f2bee130e9867942d0f463a16fbe49b8d81",
      "to": "0x284e9b7b623eae866914b7fa0eb720c2bb3c2980",
      "contractAddress": null,
      "l1BaseFeeScalar": "0x0",
      "l1BlobBaseFee": "0x1",
      "l1BlobBaseFeeScalar": "0x0",
      "l1Fee": "0x0",
      "l1GasPrice": "0x9",
      "l1GasUsed": "0x640"
    },
    {
      "status": "0x1",
      "cumulativeGasUsed": "0x6ba00",
      "logs": [
        {
          "address": "0x85bee67d435a39f7467a8a9de34a5b73d25df426",
          "topics": [
            "0x50146d0e3c60aa1d17a70635b05494f864e86144a2201275021014fbf08bafe2",
            "0x00000000000000000000000074c44be99937815173a3c56274331e0a05611e0d"
          ],
          "data": "0x",
          "blockHash": "0x1ec49e6ce2761860d910ffc8fe2989edda9037f8682ce3f5866e0d7587076bea",
          "blockNumber": "0xaf4144",
          "transactionHash": "0x64d2cc528ebb3e39c0d731f44e1130511dd35a61ef00f96cd06bdcdbbc64a74e",
          "transactionIndex": "0xe",
          "logIndex": "0xd",
          "removed": false
        }
      ],
      "logsBloom": "0x00000000000000000000000000000000000000000000000000000000000000000000000000000000000000000000400000000002000000000000000000000000000000080000000000000000000000000000000000000000000000001000000000000000000000000000000000000000000000000000140000000000000000000000000000000000000000000000000000000000000000000000000000000000000000000000000000000000000000000000000000000004000000000000000000000080000000000000000000000000000000000000000000000000000000000000000000000000000000000000000001000000000000000000000000000000",
      "type": "0x2",
      "transactionHash": "0x64d2cc528ebb3e39c0d731f44e1130511dd35a61ef00f96cd06bdcdbbc64a74e",
      "transactionIndex": "0xe",
      "blockHash": "0x1ec49e6ce2761860d910ffc8fe2989edda9037f8682ce3f5866e0d7587076bea",
      "blockNumber": "0xaf4144",
      "gasUsed": "0x6e26",
      "effectiveGasPrice": "0x5d21dba01",
      "from": "0x56fd3f2bee130e9867942d0f463a16fbe49b8d81",
      "to": "0x85bee67d435a39f7467a8a9de34a5b73d25df426",
      "contractAddress": null,
      "l1BaseFeeScalar": "0x0",
      "l1BlobBaseFee": "0x1",
      "l1BlobBaseFeeScalar": "0x0",
      "l1Fee": "0x0",
      "l1GasPrice": "0x9",
      "l1GasUsed": "0x640"
    },
    {
      "status": "0x1",
      "cumulativeGasUsed": "0x72826",
      "logs": [
        {
          "address": "0x3d5ae86f34e2a82771496d140dafaef3789df888",
          "topics": [
            "0x50146d0e3c60aa1d17a70635b05494f864e86144a2201275021014fbf08bafe2",
            "0x00000000000000000000000074c44be99937815173a3c56274331e0a05611e0d"
          ],
          "data": "0x",
          "blockHash": "0x1ec49e6ce2761860d910ffc8fe2989edda9037f8682ce3f5866e0d7587076bea",
          "blockNumber": "0xaf4144",
          "transactionHash": "0x5024bd7dc2e3cf1ec85676abf8ce677a6b9980d5dcc418f0941e86829d6a9a47",
          "transactionIndex": "0xf",
          "logIndex": "0xe",
          "removed": false
        }
      ],
      "logsBloom": "0x00000000000000000000000000000000000000000000000000000000000000000000000004000000000000000000400000000002000000000000000000000000000000000000000000000000000000000000000000000000000000001000000000000000000000000000000000000000000000000000100000000000000000000000000000000000000000000000000000000000000000000000000000000000000000000000000000000000000000040000000000000004000000000000000000000000000000000000000000000000200000000000000000000000000000000000000000000000000000000000000001000000000000000000000000000000",
      "type": "0x2",
      "transactionHash": "0x5024bd7dc2e3cf1ec85676abf8ce677a6b9980d5dcc418f0941e86829d6a9a47",
      "transactionIndex": "0xf",
      "blockHash": "0x1ec49e6ce2761860d910ffc8fe2989edda9037f8682ce3f5866e0d7587076bea",
      "blockNumber": "0xaf4144",
      "gasUsed": "0x6e26",
      "effectiveGasPrice": "0x5d21dba01",
      "from": "0x56fd3f2bee130e9867942d0f463a16fbe49b8d81",
      "to": "0x3d5ae86f34e2a82771496d140dafaef3789df888",
      "contractAddress": null,
      "l1BaseFeeScalar": "0x0",
      "l1BlobBaseFee": "0x1",
      "l1BlobBaseFeeScalar": "0x0",
      "l1Fee": "0x0",
      "l1GasPrice": "0x9",
      "l1GasUsed": "0x640"
    }
  ],
  "libraries": [
    "node_modules/@celo/contracts/common/linkedlists/AddressSortedLinkedListWithMedian.sol:AddressSortedLinkedListWithMedian:0xf90B816Ea07eC3c6384656cd5B3249DA8fc3df6F"
  ],
  "pending": [],
  "returns": {},
  "timestamp": 1764769497129,
  "chain": 11142220,
  "commit": "6ebee2f"
}