{
  "transactions": [
    {
      "hash": "0x7efe39494571892c8b150d2806c5de2cae85db34871035569d1eaf1d2777ab63",
      "transactionType": "CALL",
      "contractName": null,
      "contractAddress": "0xde9e4c3ce781b4ba68120d6261cbad65ce0ab00b",
      "function": "transferOwnership(address)",
      "arguments": [
        "0x74c44Be99937815173A3C56274331e0A05611e0D"
      ],
      "transaction": {
        "from": "0x56fd3f2bee130e9867942d0f463a16fbe49b8d81",
        "to": "0xde9e4c3ce781b4ba68120d6261cbad65ce0ab00b",
        "gas": "0xc23e",
        "value": "0x0",
        "input": "0xf2fde38b00000000000000000000000074c44be99937815173a3c56274331e0a05611e0d",
        "nonce": "0x9eb",
        "chainId": "0xaa044c"
      },
      "additionalContracts": [],
      "isFixedGasLimit": false
    },
    {
      "hash": "0xec9f570c4eb464a2c2cb5e2a92b6781ab7c5746e8fe892c8f02a7cfaae55d82b",
      "transactionType": "CALL",
      "contractName": null,
      "contractAddress": "0xa99dc247d6b7b2e3ab48a1fee101b83cd6acd82a",
      "function": "transferOwnership(address)",
      "arguments": [
        "0x74c44Be99937815173A3C56274331e0A05611e0D"
      ],
      "transaction": {
        "from": "0x56fd3f2bee130e9867942d0f463a16fbe49b8d81",
        "to": "0xa99dc247d6b7b2e3ab48a1fee101b83cd6acd82a",
        "gas": "0xc23e",
        "value": "0x0",
        "input": "0xf2fde38b00000000000000000000000074c44be99937815173a3c56274331e0a05611e0d",
        "nonce": "0x9ec",
        "chainId": "0xaa044c"
      },
      "additionalContracts": [],
      "isFixedGasLimit": false
    },
    {
      "hash": "0xbf8803f12342f3efaf892f00848dcdc5a5c987be511182f96c734f5288733f39",
      "transactionType": "CALL",
      "contractName": null,
      "contractAddress": "0x2294298942fdc79417de9e0d740a4957e0e7783a",
      "function": "transferOwnership(address)",
      "arguments": [
        "0x74c44Be99937815173A3C56274331e0A05611e0D"
      ],
      "transaction": {
        "from": "0x56fd3f2bee130e9867942d0f463a16fbe49b8d81",
        "to": "0x2294298942fdc79417de9e0d740a4957e0e7783a",
        "gas": "0xc23e",
        "value": "0x0",
        "input": "0xf2fde38b00000000000000000000000074c44be99937815173a3c56274331e0a05611e0d",
        "nonce": "0x9ed",
        "chainId": "0xaa044c"
      },
      "additionalContracts": [],
      "isFixedGasLimit": false
    },
    {
      "hash": "0xb83a30ac561a24c668e03829562230f7088d0f03828bc9e095a28deae48e33df",
      "transactionType": "CALL",
      "contractName": null,
      "contractAddress": "0x5505b70207ae3b826c1a7607f19f3bf73444a082",
      "function": "transferOwnership(address)",
      "arguments": [
        "0x74c44Be99937815173A3C56274331e0A05611e0D"
      ],
      "transaction": {
        "from": "0x56fd3f2bee130e9867942d0f463a16fbe49b8d81",
        "to": "0x5505b70207ae3b826c1a7607f19f3bf73444a082",
        "gas": "0xc23e",
        "value": "0x0",
        "input": "0xf2fde38b00000000000000000000000074c44be99937815173a3c56274331e0a05611e0d",
        "nonce": "0x9ee",
        "chainId": "0xaa044c"
      },
      "additionalContracts": [],
      "isFixedGasLimit": false
    },
    {
      "hash": "0xe24283229ce16af7679126b810d9d460db885733eb3f69abca1283f2b243a24f",
      "transactionType": "CALL",
      "contractName": null,
      "contractAddress": "0xc7e4635651e3e3af82b61d3e23c159438dae3bbf",
      "function": "transferOwnership(address)",
      "arguments": [
        "0x74c44Be99937815173A3C56274331e0A05611e0D"
      ],
      "transaction": {
        "from": "0x56fd3f2bee130e9867942d0f463a16fbe49b8d81",
        "to": "0xc7e4635651e3e3af82b61d3e23c159438dae3bbf",
        "gas": "0xc23e",
        "value": "0x0",
        "input": "0xf2fde38b00000000000000000000000074c44be99937815173a3c56274331e0a05611e0d",
        "nonce": "0x9ef",
        "chainId": "0xaa044c"
      },
      "additionalContracts": [],
      "isFixedGasLimit": false
    },
    {
      "hash": "0x9fe3400d31f1de50fd5df5a677a8237ca78f10d946e0c9657611f3b430a08257",
      "transactionType": "CALL",
      "contractName": null,
      "contractAddress": "0x0352976d940a2c3fba0c3623198947ee1d17869e",
      "function": "transferOwnership(address)",
      "arguments": [
        "0x74c44Be99937815173A3C56274331e0A05611e0D"
      ],
      "transaction": {
        "from": "0x56fd3f2bee130e9867942d0f463a16fbe49b8d81",
        "to": "0x0352976d940a2c3fba0c3623198947ee1d17869e",
        "gas": "0xc23e",
        "value": "0x0",
        "input": "0xf2fde38b00000000000000000000000074c44be99937815173a3c56274331e0a05611e0d",
        "nonce": "0x9f0",
        "chainId": "0xaa044c"
      },
      "additionalContracts": [],
      "isFixedGasLimit": false
    },
    {
      "hash": "0x0de27bbf6036410537735ed57607be105865069b0bdca90e195f85c41fff6dda",
      "transactionType": "CALL",
      "contractName": null,
      "contractAddress": "0x5f8d55c3627d2dc0a2b4afa798f877242f382f67",
      "function": "transferOwnership(address)",
      "arguments": [
        "0x74c44Be99937815173A3C56274331e0A05611e0D"
      ],
      "transaction": {
        "from": "0x56fd3f2bee130e9867942d0f463a16fbe49b8d81",
        "to": "0x5f8d55c3627d2dc0a2b4afa798f877242f382f67",
        "gas": "0xc23e",
        "value": "0x0",
        "input": "0xf2fde38b00000000000000000000000074c44be99937815173a3c56274331e0a05611e0d",
        "nonce": "0x9f1",
        "chainId": "0xaa044c"
      },
      "additionalContracts": [],
      "isFixedGasLimit": false
    },
    {
      "hash": "0xadb5864e0bd1359b00ebc30499df49a24ea0745191c772d95669c17072325c2d",
      "transactionType": "CALL",
      "contractName": null,
      "contractAddress": "0x5e94b8c872bd47bc4255e60ecbf44d5e66e7401c",
      "function": "transferOwnership(address)",
      "arguments": [
        "0x74c44Be99937815173A3C56274331e0A05611e0D"
      ],
      "transaction": {
        "from": "0x56fd3f2bee130e9867942d0f463a16fbe49b8d81",
        "to": "0x5e94b8c872bd47bc4255e60ecbf44d5e66e7401c",
        "gas": "0xc23e",
        "value": "0x0",
        "input": "0xf2fde38b00000000000000000000000074c44be99937815173a3c56274331e0a05611e0d",
        "nonce": "0x9f2",
        "chainId": "0xaa044c"
      },
      "additionalContracts": [],
      "isFixedGasLimit": false
    },
    {
      "hash": "0xb81d2d27b38b383da1421d5c2fb0e80056e5c85335067c9c5d85f6a5c8fb1a0e",
      "transactionType": "CALL",
      "contractName": null,
      "contractAddress": "0x85f5181abdbf0e1814fc4358582ae07b8eba3af3",
      "function": "transferOwnership(address)",
      "arguments": [
        "0x74c44Be99937815173A3C56274331e0A05611e0D"
      ],
      "transaction": {
        "from": "0x56fd3f2bee130e9867942d0f463a16fbe49b8d81",
        "to": "0x85f5181abdbf0e1814fc4358582ae07b8eba3af3",
        "gas": "0xc23e",
        "value": "0x0",
        "input": "0xf2fde38b00000000000000000000000074c44be99937815173a3c56274331e0a05611e0d",
        "nonce": "0x9f3",
        "chainId": "0xaa044c"
      },
      "additionalContracts": [],
      "isFixedGasLimit": false
    },
    {
      "hash": "0x680a0fdc9f38908e16f18fb30579229184db58395ecaa47d68f3472f14251797",
      "transactionType": "CALL",
      "contractName": null,
      "contractAddress": "0x10ccfb235b0e1ed394bace4560c3ed016697687e",
      "function": "transferOwnership(address)",
      "arguments": [
        "0x74c44Be99937815173A3C56274331e0A05611e0D"
      ],
      "transaction": {
        "from": "0x56fd3f2bee130e9867942d0f463a16fbe49b8d81",
        "to": "0x10ccfb235b0e1ed394bace4560c3ed016697687e",
        "gas": "0xc23e",
        "value": "0x0",
        "input": "0xf2fde38b00000000000000000000000074c44be99937815173a3c56274331e0a05611e0d",
        "nonce": "0x9f4",
        "chainId": "0xaa044c"
      },
      "additionalContracts": [],
      "isFixedGasLimit": false
    },
    {
      "hash": "0xb88997bd9e368dc07c79dfef62fc44b06435c5ccb55e1367cbe769083d357ddc",
      "transactionType": "CALL",
      "contractName": null,
      "contractAddress": "0xf151c9a13b78c84f93f50b8b3bc689fedc134f60",
      "function": "transferOwnership(address)",
      "arguments": [
        "0x74c44Be99937815173A3C56274331e0A05611e0D"
      ],
      "transaction": {
        "from": "0x56fd3f2bee130e9867942d0f463a16fbe49b8d81",
        "to": "0xf151c9a13b78c84f93f50b8b3bc689fedc134f60",
        "gas": "0xc23e",
        "value": "0x0",
        "input": "0xf2fde38b00000000000000000000000074c44be99937815173a3c56274331e0a05611e0d",
        "nonce": "0x9f5",
        "chainId": "0xaa044c"
      },
      "additionalContracts": [],
      "isFixedGasLimit": false
    },
    {
      "hash": "0xdf7530c177d15e623d8f4b2f97be38d5345f46dcf866b7ede0e14a9363d0ffb2",
      "transactionType": "CALL",
      "contractName": null,
      "contractAddress": "0x5873faeb42f3563dcd77f0fbbda818e6d6da3139",
      "function": "transferOwnership(address)",
      "arguments": [
        "0x74c44Be99937815173A3C56274331e0A05611e0D"
      ],
      "transaction": {
        "from": "0x56fd3f2bee130e9867942d0f463a16fbe49b8d81",
        "to": "0x5873faeb42f3563dcd77f0fbbda818e6d6da3139",
        "gas": "0xc23e",
        "value": "0x0",
        "input": "0xf2fde38b00000000000000000000000074c44be99937815173a3c56274331e0a05611e0d",
        "nonce": "0x9f6",
        "chainId": "0xaa044c"
      },
      "additionalContracts": [],
      "isFixedGasLimit": false
    },
    {
      "hash": "0x0b48ef6c8f550875a804bce699e18f20479043b09d67c28fe40bf703b189ae6e",
      "transactionType": "CALL",
      "contractName": null,
      "contractAddress": "0x284e9b7b623eae866914b7fa0eb720c2bb3c2980",
      "function": "transferOwnership(address)",
      "arguments": [
        "0x74c44Be99937815173A3C56274331e0A05611e0D"
      ],
      "transaction": {
        "from": "0x56fd3f2bee130e9867942d0f463a16fbe49b8d81",
        "to": "0x284e9b7b623eae866914b7fa0eb720c2bb3c2980",
        "gas": "0xc23e",
        "value": "0x0",
        "input": "0xf2fde38b00000000000000000000000074c44be99937815173a3c56274331e0a05611e0d",
        "nonce": "0x9f7",
        "chainId": "0xaa044c"
      },
      "additionalContracts": [],
      "isFixedGasLimit": false
    },
    {
      "hash": "0xa914025f798d9a8cd2a07a3123af8a141e88eb5a77f95825e31ad3e0f06bd05d",
      "transactionType": "CALL",
      "contractName": null,
      "contractAddress": "0x85bee67d435a39f7467a8a9de34a5b73d25df426",
      "function": "transferOwnership(address)",
      "arguments": [
        "0x74c44Be99937815173A3C56274331e0A05611e0D"
      ],
      "transaction": {
        "from": "0x56fd3f2bee130e9867942d0f463a16fbe49b8d81",
        "to": "0x85bee67d435a39f7467a8a9de34a5b73d25df426",
        "gas": "0xc23e",
        "value": "0x0",
        "input": "0xf2fde38b00000000000000000000000074c44be99937815173a3c56274331e0a05611e0d",
        "nonce": "0x9f8",
        "chainId": "0xaa044c"
      },
      "additionalContracts": [],
      "isFixedGasLimit": false
    },
    {
      "hash": "0x7edc154641be43e2ad4788402c4924c65d1172d7e928efa85724a82e3ca80372",
      "transactionType": "CALL",
      "contractName": null,
      "contractAddress": "0x3d5ae86f34e2a82771496d140dafaef3789df888",
      "function": "transferOwnership(address)",
      "arguments": [
        "0x74c44Be99937815173A3C56274331e0A05611e0D"
      ],
      "transaction": {
        "from": "0x56fd3f2bee130e9867942d0f463a16fbe49b8d81",
        "to": "0x3d5ae86f34e2a82771496d140dafaef3789df888",
        "gas": "0xc23e",
        "value": "0x0",
        "input": "0xf2fde38b00000000000000000000000074c44be99937815173a3c56274331e0a05611e0d",
        "nonce": "0x9f9",
        "chainId": "0xaa044c"
      },
      "additionalContracts": [],
      "isFixedGasLimit": false
    }
  ],
  "receipts": [
    {
      "status": "0x1",
      "cumulativeGasUsed": "0x138bd",
      "logs": [
        {
          "address": "0xde9e4c3ce781b4ba68120d6261cbad65ce0ab00b",
          "topics": [
            "0x8be0079c531659141344cd1fd0a4f28419497f9722a3daafe3b4186f6b6457e0",
            "0x00000000000000000000000056fd3f2bee130e9867942d0f463a16fbe49b8d81",
            "0x00000000000000000000000074c44be99937815173a3c56274331e0a05611e0d"
          ],
          "data": "0x",
          "blockHash": "0x75213dd69db59b63ab5f1ed26c31af379b909f316930bea495b68bac957dbb27",
          "blockNumber": "0xaf2c16",
          "transactionHash": "0x7efe39494571892c8b150d2806c5de2cae85db34871035569d1eaf1d2777ab63",
          "transactionIndex": "0x1",
          "logIndex": "0x0",
          "removed": false
        }
      ],
      "logsBloom": "0x00000000000000000000000000000000000000000000000020800000000000000000000000000000000000000000010000000042000000000000000000000000000000000000000000000000000000000001000000000008000000000000000000000000000000000000000000000000000000000000000000000000000000400000000000000000000000000000000000000000000000000000000000000000000000000000000000000000000000000000000000000004000000000000000000000000000000000000000000000000000000000000000000000000800000000004000000000000000000000000000001000000000000000000000000000000",
      "type": "0x2",
      "transactionHash": "0x7efe39494571892c8b150d2806c5de2cae85db34871035569d1eaf1d2777ab63",
      "transactionIndex": "0x1",
      "blockHash": "0x75213dd69db59b63ab5f1ed26c31af379b909f316930bea495b68bac957dbb27",
      "blockNumber": "0xaf2c16",
      "gasUsed": "0x84d1",
      "effectiveGasPrice": "0x5d21dba01",
      "from": "0x56fd3f2bee130e9867942d0f463a16fbe49b8d81",
      "to": "0xde9e4c3ce781b4ba68120d6261cbad65ce0ab00b",
      "contractAddress": null,
      "l1BaseFeeScalar": "0x0",
      "l1BlobBaseFee": "0x1",
      "l1BlobBaseFeeScalar": "0x0",
      "l1Fee": "0x0",
      "l1GasPrice": "0xa",
      "l1GasUsed": "0x640"
    },
    {
      "status": "0x1",
      "cumulativeGasUsed": "0x1bd8e",
      "logs": [
        {
          "address": "0xa99dc247d6b7b2e3ab48a1fee101b83cd6acd82a",
          "topics": [
            "0x8be0079c531659141344cd1fd0a4f28419497f9722a3daafe3b4186f6b6457e0",
            "0x00000000000000000000000056fd3f2bee130e9867942d0f463a16fbe49b8d81",
            "0x00000000000000000000000074c44be99937815173a3c56274331e0a05611e0d"
          ],
          "data": "0x",
          "blockHash": "0x75213dd69db59b63ab5f1ed26c31af379b909f316930bea495b68bac957dbb27",
          "blockNumber": "0xaf2c16",
          "transactionHash": "0xec9f570c4eb464a2c2cb5e2a92b6781ab7c5746e8fe892c8f02a7cfaae55d82b",
          "transactionIndex": "0x2",
          "logIndex": "0x1",
          "removed": false
        }
      ],
      "logsBloom": "0x00000000000000000000000000000000000000000000000020800000000000000000000000000000000000001000010000000002000000000000000000000000000000000000000000000000000000000001000000000000000000000000000001000000000000000000000000000000000000000000000000000000000000400000000000000000000000000000000000000000000000000000000000000000000000000000000000000000000000000000000000000004000000000000000000000000000000000000000000000000000000000000000000000000000000000004000000000000000000000000000001000000000000020000000000000000",
      "type": "0x2",
      "transactionHash": "0xec9f570c4eb464a2c2cb5e2a92b6781ab7c5746e8fe892c8f02a7cfaae55d82b",
      "transactionIndex": "0x2",
      "blockHash": "0x75213dd69db59b63ab5f1ed26c31af379b909f316930bea495b68bac957dbb27",
      "blockNumber": "0xaf2c16",
      "gasUsed": "0x84d1",
      "effectiveGasPrice": "0x5d21dba01",
      "from": "0x56fd3f2bee130e9867942d0f463a16fbe49b8d81",
      "to": "0xa99dc247d6b7b2e3ab48a1fee101b83cd6acd82a",
      "contractAddress": null,
      "l1BaseFeeScalar": "0x0",
      "l1BlobBaseFee": "0x1",
      "l1BlobBaseFeeScalar": "0x0",
      "l1Fee": "0x0",
      "l1GasPrice": "0xa",
      "l1GasUsed": "0x640"
    },
    {
      "status": "0x1",
      "cumulativeGasUsed": "0x2425f",
      "logs": [
        {
          "address": "0x2294298942fdc79417de9e0d740a4957e0e7783a",
          "topics": [
            "0x8be0079c531659141344cd1fd0a4f28419497f9722a3daafe3b4186f6b6457e0",
            "0x00000000000000000000000056fd3f2bee130e9867942d0f463a16fbe49b8d81",
            "0x00000000000000000000000074c44be99937815173a3c56274331e0a05611e0d"
          ],
          "data": "0x",
          "blockHash": "0x75213dd69db59b63ab5f1ed26c31af379b909f316930bea495b68bac957dbb27",
          "blockNumber": "0xaf2c16",
          "transactionHash": "0xbf8803f12342f3efaf892f00848dcdc5a5c987be511182f96c734f5288733f39",
          "transactionIndex": "0x3",
          "logIndex": "0x2",
          "removed": false
        }
      ],
      "logsBloom": "0x00000000000000000000000000000000000000000000000020800000000000000000000000000000000000000000010000000002000000000000000000000000000000000000000000000000000000000001000000000000000000000000000000000000000000000000000000000000000000000000000000000000000000400000000000000000000000000000000000000000000000000000000000000000000000000000000000000000000000000000000020000004000000000000000000000000000000000000000000000000000000000000000000000000000000000004000000000000000000000000004001000000400000000000000000000000",
      "type": "0x2",
      "transactionHash": "0xbf8803f12342f3efaf892f00848dcdc5a5c987be511182f96c734f5288733f39",
      "transactionIndex": "0x3",
      "blockHash": "0x75213dd69db59b63ab5f1ed26c31af379b909f316930bea495b68bac957dbb27",
      "blockNumber": "0xaf2c16",
      "gasUsed": "0x84d1",
      "effectiveGasPrice": "0x5d21dba01",
      "from": "0x56fd3f2bee130e9867942d0f463a16fbe49b8d81",
      "to": "0x2294298942fdc79417de9e0d740a4957e0e7783a",
      "contractAddress": null,
      "l1BaseFeeScalar": "0x0",
      "l1BlobBaseFee": "0x1",
      "l1BlobBaseFeeScalar": "0x0",
      "l1Fee": "0x0",
      "l1GasPrice": "0xa",
      "l1GasUsed": "0x640"
    },
    {
      "status": "0x1",
      "cumulativeGasUsed": "0x2c730",
      "logs": [
        {
          "address": "0x5505b70207ae3b826c1a7607f19f3bf73444a082",
          "topics": [
            "0x8be0079c531659141344cd1fd0a4f28419497f9722a3daafe3b4186f6b6457e0",
            "0x00000000000000000000000056fd3f2bee130e9867942d0f463a16fbe49b8d81",
            "0x00000000000000000000000074c44be99937815173a3c56274331e0a05611e0d"
          ],
          "data": "0x",
          "blockHash": "0x75213dd69db59b63ab5f1ed26c31af379b909f316930bea495b68bac957dbb27",
          "blockNumber": "0xaf2c16",
          "transactionHash": "0xb83a30ac561a24c668e03829562230f7088d0f03828bc9e095a28deae48e33df",
          "transactionIndex": "0x4",
          "logIndex": "0x3",
          "removed": false
        }
      ],
      "logsBloom": "0x00000000000000000000000000000000000000000000000020800000000000000000000000000000000000000000010000000002000000000000000000000000000000000000000000000000000000000001000000000000000000000000000000000000000000000000000000000000000000000000000000000000000000400000000000000000000000000000000000000000040000001000000000000000000000000000000000000000000000000000000000000004000000000000000000000000000000000000000000000000000800000000000000000000000000000004000000000000000000000000000001000000000000000000000000000000",
      "type": "0x2",
      "transactionHash": "0xb83a30ac561a24c668e03829562230f7088d0f03828bc9e095a28deae48e33df",
      "transactionIndex": "0x4",
      "blockHash": "0x75213dd69db59b63ab5f1ed26c31af379b909f316930bea495b68bac957dbb27",
      "blockNumber": "0xaf2c16",
      "gasUsed": "0x84d1",
      "effectiveGasPrice": "0x5d21dba01",
      "from": "0x56fd3f2bee130e9867942d0f463a16fbe49b8d81",
      "to": "0x5505b70207ae3b826c1a7607f19f3bf73444a082",
      "contractAddress": null,
      "l1BaseFeeScalar": "0x0",
      "l1BlobBaseFee": "0x1",
      "l1BlobBaseFeeScalar": "0x0",
      "l1Fee": "0x0",
      "l1GasPrice": "0xa",
      "l1GasUsed": "0x640"
    },
    {
      "status": "0x1",
      "cumulativeGasUsed": "0x34c01",
      "logs": [
        {
          "address": "0xc7e4635651e3e3af82b61d3e23c159438dae3bbf",
          "topics": [
            "0x8be0079c531659141344cd1fd0a4f28419497f9722a3daafe3b4186f6b6457e0",
            "0x00000000000000000000000056fd3f2bee130e9867942d0f463a16fbe49b8d81",
            "0x00000000000000000000000074c44be99937815173a3c56274331e0a05611e0d"
          ],
          "data": "0x",
          "blockHash": "0x75213dd69db59b63ab5f1ed26c31af379b909f316930bea495b68bac957dbb27",
          "blockNumber": "0xaf2c16",
          "transactionHash": "0xe24283229ce16af7679126b810d9d460db885733eb3f69abca1283f2b243a24f",
          "transactionIndex": "0x5",
          "logIndex": "0x4",
          "removed": false
        }
      ],
      "logsBloom": "0x00000000000000000000000000000000000000000000000020800800000400000000000000000000000000000000010000000002000000000000000000000000000000000000000000000000200000000001000000000000000000000000000000000000000000000000000000000000000000000000000000000000000000400000000000000000000000000000000000000000000000000000000000000000000000000000000000000000000000000000000000000004000000000000000000000000000000000000000000000000000000000000000000000000000000000004000000000000000000000000000001000000000000000000000000000000",
      "type": "0x2",
      "transactionHash": "0xe24283229ce16af7679126b810d9d460db885733eb3f69abca1283f2b243a24f",
      "transactionIndex": "0x5",
      "blockHash": "0x75213dd69db59b63ab5f1ed26c31af379b909f316930bea495b68bac957dbb27",
      "blockNumber": "0xaf2c16",
      "gasUsed": "0x84d1",
      "effectiveGasPrice": "0x5d21dba01",
      "from": "0x56fd3f2bee130e9867942d0f463a16fbe49b8d81",
      "to": "0xc7e4635651e3e3af82b61d3e23c159438dae3bbf",
      "contractAddress": null,
      "l1BaseFeeScalar": "0x0",
      "l1BlobBaseFee": "0x1",
      "l1BlobBaseFeeScalar": "0x0",
      "l1Fee": "0x0",
      "l1GasPrice": "0xa",
      "l1GasUsed": "0x640"
    },
    {
      "status": "0x1",
      "cumulativeGasUsed": "0x3d0d2",
      "logs": [
        {
          "address": "0x0352976d940a2c3fba0c3623198947ee1d17869e",
          "topics": [
            "0x8be0079c531659141344cd1fd0a4f28419497f9722a3daafe3b4186f6b6457e0",
            "0x00000000000000000000000056fd3f2bee130e9867942d0f463a16fbe49b8d81",
            "0x00000000000000000000000074c44be99937815173a3c56274331e0a05611e0d"
          ],
          "data": "0x",
          "blockHash": "0x75213dd69db59b63ab5f1ed26c31af379b909f316930bea495b68bac957dbb27",
          "blockNumber": "0xaf2c16",
          "transactionHash": "0x9fe3400d31f1de50fd5df5a677a8237ca78f10d946e0c9657611f3b430a08257",
          "transactionIndex": "0x6",
          "logIndex": "0x5",
          "removed": false
        }
      ],
      "logsBloom": "0x00000000000000000000000000000000000000000000000020800000000000000000000000000000000000000000010000000002000000000000000000000000000000000000000000000000000000000001000000000000000000000000000000000000000000000000000000000000000000000000000000000000000000400000000000000000000000000000000000000000000000000000000000000000000000000000000000000100000000000000000001000004000000000000000000000000000000000000000000000000000000000000000000000000000000000004000000000000000000000000000001000000000100000000000000000000",
      "type": "0x2",
      "transactionHash": "0x9fe3400d31f1de50fd5df5a677a8237ca78f10d946e0c9657611f3b430a08257",
      "transactionIndex": "0x6",
      "blockHash": "0x75213dd69db59b63ab5f1ed26c31af379b909f316930bea495b68bac957dbb27",
      "blockNumber": "0xaf2c16",
      "gasUsed": "0x84d1",
      "effectiveGasPrice": "0x5d21dba01",
      "from": "0x56fd3f2bee130e9867942d0f463a16fbe49b8d81",
      "to": "0x0352976d940a2c3fba0c3623198947ee1d17869e",
      "contractAddress": null,
      "l1BaseFeeScalar": "0x0",
      "l1BlobBaseFee": "0x1",
      "l1BlobBaseFeeScalar": "0x0",
      "l1Fee": "0x0",
      "l1GasPrice": "0xa",
      "l1GasUsed": "0x640"
    },
    {
      "status": "0x1",
      "cumulativeGasUsed": "0x455a3",
      "logs": [
        {
          "address": "0x5f8d55c3627d2dc0a2b4afa798f877242f382f67",
          "topics": [
            "0x8be0079c531659141344cd1fd0a4f28419497f9722a3daafe3b4186f6b6457e0",
            "0x00000000000000000000000056fd3f2bee130e9867942d0f463a16fbe49b8d81",
            "0x00000000000000000000000074c44be99937815173a3c56274331e0a05611e0d"
          ],
          "data": "0x",
          "blockHash": "0x75213dd69db59b63ab5f1ed26c31af379b909f316930bea495b68bac957dbb27",
          "blockNumber": "0xaf2c16",
          "transactionHash": "0x0de27bbf6036410537735ed57607be105865069b0bdca90e195f85c41fff6dda",
          "transactionIndex": "0x7",
          "logIndex": "0x6",
          "removed": false
        }
      ],
      "logsBloom": "0x00000000000000000000000000000000000000000000000020880000000000000000000000000000000000000000010000000002000000000000000000000000000000000000000000000000000000000001000000000000000000000000000000000000000000000002000000000000000000000000000000000000000000400000000000000000000000000000000000000000000000000000000000000000000000000000008000000000000000000000000000000004000000000000000000000000000000000000000000000000000000000000000000000000000000000004000000000000000000000000000001000000000000000000000000000000",
      "type": "0x2",
      "transactionHash": "0x0de27bbf6036410537735ed57607be105865069b0bdca90e195f85c41fff6dda",
      "transactionIndex": "0x7",
      "blockHash": "0x75213dd69db59b63ab5f1ed26c31af379b909f316930bea495b68bac957dbb27",
      "blockNumber": "0xaf2c16",
      "gasUsed": "0x84d1",
      "effectiveGasPrice": "0x5d21dba01",
      "from": "0x56fd3f2bee130e9867942d0f463a16fbe49b8d81",
      "to": "0x5f8d55c3627d2dc0a2b4afa798f877242f382f67",
      "contractAddress": null,
      "l1BaseFeeScalar": "0x0",
      "l1BlobBaseFee": "0x1",
      "l1BlobBaseFeeScalar": "0x0",
      "l1Fee": "0x0",
      "l1GasPrice": "0xa",
      "l1GasUsed": "0x640"
    },
    {
      "status": "0x1",
      "cumulativeGasUsed": "0x4da74",
      "logs": [
        {
          "address": "0x5e94b8c872bd47bc4255e60ecbf44d5e66e7401c",
          "topics": [
            "0x8be0079c531659141344cd1fd0a4f28419497f9722a3daafe3b4186f6b6457e0",
            "0x00000000000000000000000056fd3f2bee130e9867942d0f463a16fbe49b8d81",
            "0x00000000000000000000000074c44be99937815173a3c56274331e0a05611e0d"
          ],
          "data": "0x",
          "blockHash": "0x75213dd69db59b63ab5f1ed26c31af379b909f316930bea495b68bac957dbb27",
          "blockNumber": "0xaf2c16",
          "transactionHash": "0xadb5864e0bd1359b00ebc30499df49a24ea0745191c772d95669c17072325c2d",
          "transactionIndex": "0x8",
          "logIndex": "0x7",
          "removed": false
        }
      ],
      "logsBloom": "0x00000100000000000000000000000000000000000000000020800000000000000000008000000000000000000000010000000002000000000000000000000000000000000000000000000000000000000001000000000000000000000000000000000000000000000000000000000000000000000000000000000000000000400000100000000000000000000000000000000000000000000000000000000000000000000000000000000000000000000000000000000004000000000000000000000000000000000000000000000000000000000000000000000000000000000004000000000000000000000000000001000000000000000000000000000000",
      "type": "0x2",
      "transactionHash": "0xadb5864e0bd1359b00ebc30499df49a24ea0745191c772d95669c17072325c2d",
      "transactionIndex": "0x8",
      "blockHash": "0x75213dd69db59b63ab5f1ed26c31af379b909f316930bea495b68bac957dbb27",
      "blockNumber": "0xaf2c16",
      "gasUsed": "0x84d1",
      "effectiveGasPrice": "0x5d21dba01",
      "from": "0x56fd3f2bee130e9867942d0f463a16fbe49b8d81",
      "to": "0x5e94b8c872bd47bc4255e60ecbf44d5e66e7401c",
      "contractAddress": null,
      "l1BaseFeeScalar": "0x0",
      "l1BlobBaseFee": "0x1",
      "l1BlobBaseFeeScalar": "0x0",
      "l1Fee": "0x0",
      "l1GasPrice": "0xa",
      "l1GasUsed": "0x640"
    },
    {
      "status": "0x1",
      "cumulativeGasUsed": "0x55f45",
      "logs": [
        {
          "address": "0x85f5181abdbf0e1814fc4358582ae07b8eba3af3",
          "topics": [
            "0x8be0079c531659141344cd1fd0a4f28419497f9722a3daafe3b4186f6b6457e0",
            "0x00000000000000000000000056fd3f2bee130e9867942d0f463a16fbe49b8d81",
            "0x00000000000000000000000074c44be99937815173a3c56274331e0a05611e0d"
          ],
          "data": "0x",
          "blockHash": "0x75213dd69db59b63ab5f1ed26c31af379b909f316930bea495b68bac957dbb27",
          "blockNumber": "0xaf2c16",
          "transactionHash": "0xb81d2d27b38b383da1421d5c2fb0e80056e5c85335067c9c5d85f6a5c8fb1a0e",
          "transactionIndex": "0x9",
          "logIndex": "0x8",
          "removed": false
        }
      ],
      "logsBloom": "0x00000000000000000000000000000000000000000000000020800000000000000000000000000000000000000000010000000002000000000000000000000000000000800000000000000000000000000001000000000000000000000000000000000000000000000000000000000000000000000000000000000000000000400000010000000000800000000000000000000000000000000000000000000000000000000000000000000000000000000000000000000004000000000000000000000000000000000000000000000000000000000000000000000000000000000004000000000000000000000000000001000000000000000000000000000000",
      "type": "0x2",
      "transactionHash": "0xb81d2d27b38b383da1421d5c2fb0e80056e5c85335067c9c5d85f6a5c8fb1a0e",
      "transactionIndex": "0x9",
      "blockHash": "0x75213dd69db59b63ab5f1ed26c31af379b909f316930bea495b68bac957dbb27",
      "blockNumber": "0xaf2c16",
      "gasUsed": "0x84d1",
      "effectiveGasPrice": "0x5d21dba01",
      "from": "0x56fd3f2bee130e9867942d0f463a16fbe49b8d81",
      "to": "0x85f5181abdbf0e1814fc4358582ae07b8eba3af3",
      "contractAddress": null,
      "l1BaseFeeScalar": "0x0",
      "l1BlobBaseFee": "0x1",
      "l1BlobBaseFeeScalar": "0x0",
      "l1Fee": "0x0",
      "l1GasPrice": "0xa",
      "l1GasUsed": "0x640"
    },
    {
      "status": "0x1",
      "cumulativeGasUsed": "0x5e416",
      "logs": [
        {
          "address": "0x10ccfb235b0e1ed394bace4560c3ed016697687e",
          "topics": [
            "0x8be0079c531659141344cd1fd0a4f28419497f9722a3daafe3b4186f6b6457e0",
            "0x00000000000000000000000056fd3f2bee130e9867942d0f463a16fbe49b8d81",
            "0x00000000000000000000000074c44be99937815173a3c56274331e0a05611e0d"
          ],
          "data": "0x",
          "blockHash": "0x75213dd69db59b63ab5f1ed26c31af379b909f316930bea495b68bac957dbb27",
          "blockNumber": "0xaf2c16",
          "transactionHash": "0x680a0fdc9f38908e16f18fb30579229184db58395ecaa47d68f3472f14251797",
          "transactionIndex": "0xa",
          "logIndex": "0x9",
          "removed": false
        }
      ],
      "logsBloom": "0x00000000000000000000000000000000000000000000000020800000000000000000000000000000000000000000010000000002000000000000000000000000000000000000000000000000000001000001000000000000000000000000000000000000000000000000000000000000000000000000000000000000002000400000000000000000000000000000000000000000000000000000000000000000000000000000000000000000000000000000000000000004000000000000000000000000000000000001000000000000000000000000000000000000000000000004000000000000000000000000000001000000000000000000000000000000",
      "type": "0x2",
      "transactionHash": "0x680a0fdc9f38908e16f18fb30579229184db58395ecaa47d68f3472f14251797",
      "transactionIndex": "0xa",
      "blockHash": "0x75213dd69db59b63ab5f1ed26c31af379b909f316930bea495b68bac957dbb27",
      "blockNumber": "0xaf2c16",
      "gasUsed": "0x84d1",
      "effectiveGasPrice": "0x5d21dba01",
      "from": "0x56fd3f2bee130e9867942d0f463a16fbe49b8d81",
      "to": "0x10ccfb235b0e1ed394bace4560c3ed016697687e",
      "contractAddress": null,
      "l1BaseFeeScalar": "0x0",
      "l1BlobBaseFee": "0x1",
      "l1BlobBaseFeeScalar": "0x0",
      "l1Fee": "0x0",
      "l1GasPrice": "0xa",
      "l1GasUsed": "0x640"
    },
    {
      "status": "0x1",
      "cumulativeGasUsed": "0x668e7",
      "logs": [
        {
          "address": "0xf151c9a13b78c84f93f50b8b3bc689fedc134f60",
          "topics": [
            "0x8be0079c531659141344cd1fd0a4f28419497f9722a3daafe3b4186f6b6457e0",
            "0x00000000000000000000000056fd3f2bee130e9867942d0f463a16fbe49b8d81",
            "0x00000000000000000000000074c44be99937815173a3c56274331e0a05611e0d"
          ],
          "data": "0x",
          "blockHash": "0x75213dd69db59b63ab5f1ed26c31af379b909f316930bea495b68bac957dbb27",
          "blockNumber": "0xaf2c16",
          "transactionHash": "0xb88997bd9e368dc07c79dfef62fc44b06435c5ccb55e1367cbe769083d357ddc",
          "transactionIndex": "0xb",
          "logIndex": "0xa",
          "removed": false
        }
      ],
      "logsBloom": "0x00000000000000000000000000000000000000000000000020800000000000002000000000000000000000000000010000000002000000000000000000000000000000000000000000000000000000000001000000000000000000000000000000000000000000000000000000000000000000000000000000000000000000400000000000000000000000000000000000000000000000000000000000000000000000000000000000000000000008000000000000000004000000000000000000000000000000000100000000000000000000000000000000000000000000000004000000000000000000000000000001000000000000000000000000000000",
      "type": "0x2",
      "transactionHash": "0xb88997bd9e368dc07c79dfef62fc44b06435c5ccb55e1367cbe769083d357ddc",
      "transactionIndex": "0xb",
      "blockHash": "0x75213dd69db59b63ab5f1ed26c31af379b909f316930bea495b68bac957dbb27",
      "blockNumber": "0xaf2c16",
      "gasUsed": "0x84d1",
      "effectiveGasPrice": "0x5d21dba01",
      "from": "0x56fd3f2bee130e9867942d0f463a16fbe49b8d81",
      "to": "0xf151c9a13b78c84f93f50b8b3bc689fedc134f60",
      "contractAddress": null,
      "l1BaseFeeScalar": "0x0",
      "l1BlobBaseFee": "0x1",
      "l1BlobBaseFeeScalar": "0x0",
      "l1Fee": "0x0",
      "l1GasPrice": "0xa",
      "l1GasUsed": "0x640"
    },
    {
      "status": "0x1",
      "cumulativeGasUsed": "0x6edb8",
      "logs": [
        {
          "address": "0x5873faeb42f3563dcd77f0fbbda818e6d6da3139",
          "topics": [
            "0x8be0079c531659141344cd1fd0a4f28419497f9722a3daafe3b4186f6b6457e0",
            "0x00000000000000000000000056fd3f2bee130e9867942d0f463a16fbe49b8d81",
            "0x00000000000000000000000074c44be99937815173a3c56274331e0a05611e0d"
          ],
          "data": "0x",
          "blockHash": "0x75213dd69db59b63ab5f1ed26c31af379b909f316930bea495b68bac957dbb27",
          "blockNumber": "0xaf2c16",
          "transactionHash": "0xdf7530c177d15e623d8f4b2f97be38d5345f46dcf866b7ede0e14a9363d0ffb2",
          "transactionIndex": "0xc",
          "logIndex": "0xb",
          "removed": false
        }
      ],
      "logsBloom": "0x00000000000000000000000000000000010000000000000020800000000000000000000000000000000000000000010000000002000000000000000000000000000000000000000000000000000000000001000000000000000000000000000000000000000000000000000000000000000000000000000000000000000000400000000000000000000000000000000000000000000000000000000000000000000000000000000000000000001000000000000000000004000000000000000000000000000000000000000000000000000000000000000000000000000000000004000000000000000000000008000001000000000000000000000000000000",
      "type": "0x2",
      "transactionHash": "0xdf7530c177d15e623d8f4b2f97be38d5345f46dcf866b7ede0e14a9363d0ffb2",
      "transactionIndex": "0xc",
      "blockHash": "0x75213dd69db59b63ab5f1ed26c31af379b909f316930bea495b68bac957dbb27",
      "blockNumber": "0xaf2c16",
      "gasUsed": "0x84d1",
      "effectiveGasPrice": "0x5d21dba01",
      "from": "0x56fd3f2bee130e9867942d0f463a16fbe49b8d81",
      "to": "0x5873faeb42f3563dcd77f0fbbda818e6d6da3139",
      "contractAddress": null,
      "l1BaseFeeScalar": "0x0",
      "l1BlobBaseFee": "0x1",
      "l1BlobBaseFeeScalar": "0x0",
      "l1Fee": "0x0",
      "l1GasPrice": "0xa",
      "l1GasUsed": "0x640"
    },
    {
      "status": "0x1",
      "cumulativeGasUsed": "0x77289",
      "logs": [
        {
          "address": "0x284e9b7b623eae866914b7fa0eb720c2bb3c2980",
          "topics": [
            "0x8be0079c531659141344cd1fd0a4f28419497f9722a3daafe3b4186f6b6457e0",
            "0x00000000000000000000000056fd3f2bee130e9867942d0f463a16fbe49b8d81",
            "0x00000000000000000000000074c44be99937815173a3c56274331e0a05611e0d"
          ],
          "data": "0x",
          "blockHash": "0x75213dd69db59b63ab5f1ed26c31af379b909f316930bea495b68bac957dbb27",
          "blockNumber": "0xaf2c16",
          "transactionHash": "0x0b48ef6c8f550875a804bce699e18f20479043b09d67c28fe40bf703b189ae6e",
          "transactionIndex": "0xd",
          "logIndex": "0xc",
          "removed": false
        }
      ],
      "logsBloom": "0x00000000000000000000000000000000000000000000000020800000000000000020000000000000000000000000010000000002000000000000000000000000000000000000000000000000000000000001000000000000000000000000000000000000000000000000000000000000000000000000000000000000000000400000000000000000000000000000000000000000800000000000000000000000000000000000000000000000000000000000000000000004000000000000000000000000000000000000000000000000000000000000000000000000000000000004000020000000000000000000000001000000000000000000000000000000",
      "type": "0x2",
      "transactionHash": "0x0b48ef6c8f550875a804bce699e18f20479043b09d67c28fe40bf703b189ae6e",
      "transactionIndex": "0xd",
      "blockHash": "0x75213dd69db59b63ab5f1ed26c31af379b909f316930bea495b68bac957dbb27",
      "blockNumber": "0xaf2c16",
      "gasUsed": "0x84d1",
      "effectiveGasPrice": "0x5d21dba01",
      "from": "0x56fd3f2bee130e9867942d0f463a16fbe49b8d81",
      "to": "0x284e9b7b623eae866914b7fa0eb720c2bb3c2980",
      "contractAddress": null,
      "l1BaseFeeScalar": "0x0",
      "l1BlobBaseFee": "0x1",
      "l1BlobBaseFeeScalar": "0x0",
      "l1Fee": "0x0",
      "l1GasPrice": "0xa",
      "l1GasUsed": "0x640"
    },
    {
      "status": "0x1",
      "cumulativeGasUsed": "0x7f75a",
      "logs": [
        {
          "address": "0x85bee67d435a39f7467a8a9de34a5b73d25df426",
          "topics": [
            "0x8be0079c531659141344cd1fd0a4f28419497f9722a3daafe3b4186f6b6457e0",
            "0x00000000000000000000000056fd3f2bee130e9867942d0f463a16fbe49b8d81",
            "0x00000000000000000000000074c44be99937815173a3c56274331e0a05611e0d"
          ],
          "data": "0x",
          "blockHash": "0x75213dd69db59b63ab5f1ed26c31af379b909f316930bea495b68bac957dbb27",
          "blockNumber": "0xaf2c16",
          "transactionHash": "0xa914025f798d9a8cd2a07a3123af8a141e88eb5a77f95825e31ad3e0f06bd05d",
          "transactionIndex": "0xe",
          "logIndex": "0xd",
          "removed": false
        }
      ],
      "logsBloom": "0x00000000000000000000000000000000000000000000000020800000000000000000000000000000000000000000010000000002000000000000000000000000000000080000000000000000000000000001000000000000000000000000000000000000000000000000000000000000000000000000040000000000000000400000000000000000000000000000000000000000000000000000000000000000000000000000000000000000000000000000000000000004000000000000000000000080000000000000000000000000000000000000000000000000000000000004000000000000000000000000000001000000000000000000000000000000",
      "type": "0x2",
      "transactionHash": "0xa914025f798d9a8cd2a07a3123af8a141e88eb5a77f95825e31ad3e0f06bd05d",
      "transactionIndex": "0xe",
      "blockHash": "0x75213dd69db59b63ab5f1ed26c31af379b909f316930bea495b68bac957dbb27",
      "blockNumber": "0xaf2c16",
      "gasUsed": "0x84d1",
      "effectiveGasPrice": "0x5d21dba01",
      "from": "0x56fd3f2bee130e9867942d0f463a16fbe49b8d81",
      "to": "0x85bee67d435a39f7467a8a9de34a5b73d25df426",
      "contractAddress": null,
      "l1BaseFeeScalar": "0x0",
      "l1BlobBaseFee": "0x1",
      "l1BlobBaseFeeScalar": "0x0",
      "l1Fee": "0x0",
      "l1GasPrice": "0xa",
      "l1GasUsed": "0x640"
    },
    {
      "status": "0x1",
      "cumulativeGasUsed": "0x87c2b",
      "logs": [
        {
          "address": "0x3d5ae86f34e2a82771496d140dafaef3789df888",
          "topics": [
            "0x8be0079c531659141344cd1fd0a4f28419497f9722a3daafe3b4186f6b6457e0",
            "0x00000000000000000000000056fd3f2bee130e9867942d0f463a16fbe49b8d81",
            "0x00000000000000000000000074c44be99937815173a3c56274331e0a05611e0d"
          ],
          "data": "0x",
          "blockHash": "0x75213dd69db59b63ab5f1ed26c31af379b909f316930bea495b68bac957dbb27",
          "blockNumber": "0xaf2c16",
          "transactionHash": "0x7edc154641be43e2ad4788402c4924c65d1172d7e928efa85724a82e3ca80372",
          "transactionIndex": "0xf",
          "logIndex": "0xe",
          "removed": false
        }
      ],
      "logsBloom": "0x00000000000000000000000000000000000000000000000020800000000000000000000004000000000000000000010000000002000000000000000000000000000000000000000000000000000000000001000000000000000000000000000000000000000000000000000000000000000000000000000000000000000000400000000000000000000000000000000000000000000000000000000000000000000000000000000000000000000000040000000000000004000000000000000000000000000000000000000000000000200000000000000000000000000000000004000000000000000000000000000001000000000000000000000000000000",
      "type": "0x2",
      "transactionHash": "0x7edc154641be43e2ad4788402c4924c65d1172d7e928efa85724a82e3ca80372",
      "transactionIndex": "0xf",
      "blockHash": "0x75213dd69db59b63ab5f1ed26c31af379b909f316930bea495b68bac957dbb27",
      "blockNumber": "0xaf2c16",
      "gasUsed": "0x84d1",
      "effectiveGasPrice": "0x5d21dba01",
      "from": "0x56fd3f2bee130e9867942d0f463a16fbe49b8d81",
      "to": "0x3d5ae86f34e2a82771496d140dafaef3789df888",
      "contractAddress": null,
      "l1BaseFeeScalar": "0x0",
      "l1BlobBaseFee": "0x1",
      "l1BlobBaseFeeScalar": "0x0",
      "l1Fee": "0x0",
      "l1GasPrice": "0xa",
      "l1GasUsed": "0x640"
    }
  ],
  "libraries": [
    "node_modules/@celo/contracts/common/linkedlists/AddressSortedLinkedListWithMedian.sol:AddressSortedLinkedListWithMedian:0xf90B816Ea07eC3c6384656cd5B3249DA8fc3df6F"
  ],
  "pending": [],
  "returns": {},
  "timestamp": 1764764075485,
  "chain": 11142220,
  "commit": "6ebee2f"
}