{
  "transactions": [
    {
      "hash": "0xf18a913cfed6649b29679c5e6bab1a0cc498e0bfbcab746404cecaa9c533ea48",
      "transactionType": "CALL",
      "contractName": null,
      "contractAddress": "0x85bee67d435a39f7467a8a9de34a5b73d25df426",
      "function": "_setAndInitializeImplementation(address,bytes)",
      "arguments": [
        "0xeA3A7FCb6706dB3DdeBF8859307059d2601452E6",
        "0x69cfb411000000000000000000000000000000000000000000000000000000000000006000000000000000000000000000000000000000000000000000000000000000a000000000000000000000000000000000000000000000000000000000000000e00000000000000000000000000000000000000000000000000000000000000001000000000000000000000000b9ae2065142eb79b6c5eb1e8778f883fad6b07ba0000000000000000000000000000000000000000000000000000000000000001000000000000000000000000b9ae2065142eb79b6c5eb1e8778f883fad6b07ba0000000000000000000000000000000000000000000000000000000000000000"
      ],
      "transaction": {
        "from": "0x2738f38fde510743e0c589415e0598c4cee6eaa7",
        "to": "0x85bee67d435a39f7467a8a9de34a5b73d25df426",
        "gas": "0x25b3d",
        "value": "0x0",
        "input": "0x03386ba3000000000000000000000000ea3a7fcb6706db3ddebf8859307059d2601452e60000000000000000000000000000000000000000000000000000000000000040000000000000000000000000000000000000000000000000000000000000010469cfb411000000000000000000000000000000000000000000000000000000000000006000000000000000000000000000000000000000000000000000000000000000a000000000000000000000000000000000000000000000000000000000000000e00000000000000000000000000000000000000000000000000000000000000001000000000000000000000000b9ae2065142eb79b6c5eb1e8778f883fad6b07ba0000000000000000000000000000000000000000000000000000000000000001000000000000000000000000b9ae2065142eb79b6c5eb1e8778f883fad6b07ba000000000000000000000000000000000000000000000000000000000000000000000000000000000000000000000000000000000000000000000000",
        "nonce": "0x26f",
        "chainId": "0xaa044c"
      },
      "additionalContracts": [],
      "isFixedGasLimit": false
    }
  ],
  "receipts": [
    {
      "type": "0x2",
      "status": "0x1",
      "cumulativeGasUsed": "0x250af",
      "logs": [
        {
          "address": "0x85bee67d435a39f7467a8a9de34a5b73d25df426",
          "topics": [
            "0xab64f92ab780ecbf4f3866f57cee465ff36c89450dcce20237ca7a8d81fb7d13",
            "0x000000000000000000000000ea3a7fcb6706db3ddebf8859307059d2601452e6"
          ],
          "data": "0x",
          "blockHash": "0xba71a411e9f3f9f6520b6fa2d2789e1b7bf46c033fa08a05885265c0a69da85c",
          "blockNumber": "0x16930bd",
          "blockTimestamp": "0x69ea2e51",
          "transactionHash": "0xf18a913cfed6649b29679c5e6bab1a0cc498e0bfbcab746404cecaa9c533ea48",
          "transactionIndex": "0x1",
          "logIndex": "0x0",
          "removed": false
        },
        {
          "address": "0x85bee67d435a39f7467a8a9de34a5b73d25df426",
          "topics": [
            "0xb21afb9ce9be0a676f8f317ff0ca072fb89a4f8ce2d1b6fe80f8755c14f1cb19",
            "0x000000000000000000000000b9ae2065142eb79b6c5eb1e8778f883fad6b07ba"
          ],
          "data": "0x0000000000000000000000000000000000000000000000000000000000000001",
          "blockHash": "0xba71a411e9f3f9f6520b6fa2d2789e1b7bf46c033fa08a05885265c0a69da85c",
          "blockNumber": "0x16930bd",
          "blockTimestamp": "0x69ea2e51",
          "transactionHash": "0xf18a913cfed6649b29679c5e6bab1a0cc498e0bfbcab746404cecaa9c533ea48",
          "transactionIndex": "0x1",
          "logIndex": "0x1",
          "removed": false
        },
        {
          "address": "0x85bee67d435a39f7467a8a9de34a5b73d25df426",
          "topics": [
            "0xf0e5abe4ab32ea692e3889b4c146fd4ddae5f17bb40ab4feba97fb67a2d4de0f",
            "0x000000000000000000000000b9ae2065142eb79b6c5eb1e8778f883fad6b07ba"
          ],
          "data": "0x0000000000000000000000000000000000000000000000000000000000000001",
          "blockHash": "0xba71a411e9f3f9f6520b6fa2d2789e1b7bf46c033fa08a05885265c0a69da85c",
          "blockNumber": "0x16930bd",
          "blockTimestamp": "0x69ea2e51",
          "transactionHash": "0xf18a913cfed6649b29679c5e6bab1a0cc498e0bfbcab746404cecaa9c533ea48",
          "transactionIndex": "0x1",
          "logIndex": "0x2",
          "removed": false
        },
        {
          "address": "0x85bee67d435a39f7467a8a9de34a5b73d25df426",
          "topics": [
            "0x7f26b83ff96e1f2b6a682f133852f6798a09c465da95921460cefb3847402498"
          ],
          "data": "0x0000000000000000000000000000000000000000000000000000000000000003",
          "blockHash": "0xba71a411e9f3f9f6520b6fa2d2789e1b7bf46c033fa08a05885265c0a69da85c",
          "blockNumber": "0x16930bd",
          "blockTimestamp": "0x69ea2e51",
          "transactionHash": "0xf18a913cfed6649b29679c5e6bab1a0cc498e0bfbcab746404cecaa9c533ea48",
          "transactionIndex": "0x1",
          "logIndex": "0x3",
          "removed": false
        }
      ],
      "logsBloom": "0x000200000000000000000000000000000000000000000000000000000000000000000000000000080000000000000000000000000400000400000200000000801000000800000000000000000000000000000000200000000000000000000000080000000000000000000000000000000000000000000400000000000000000000000000000000000000000000000000000000000000800000002000000000000000000000000000000000000004000000000000000000002000000000100000000000a0000000000000000000040000000000000000000000000000000000000000000000000000000004000000000004000000000000000000000000000000",
      "transactionHash": "0xf18a913cfed6649b29679c5e6bab1a0cc498e0bfbcab746404cecaa9c533ea48",
      "transactionIndex": "0x1",
      "blockHash": "0xba71a411e9f3f9f6520b6fa2d2789e1b7bf46c033fa08a05885265c0a69da85c",
      "blockNumber": "0x16930bd",
      "gasUsed": "0x19c79",
      "effectiveGasPrice": "0xba43b7401",
      "blobGasUsed": "0x9d",
      "from": "0x2738f38fde510743e0c589415e0598c4cee6eaa7",
      "to": "0x85bee67d435a39f7467a8a9de34a5b73d25df426",
      "contractAddress": null
    }
  ],
  "libraries": [
    "node_modules/@celo/contracts/common/linkedlists/AddressSortedLinkedListWithMedian.sol:AddressSortedLinkedListWithMedian:0xf90B816Ea07eC3c6384656cd5B3249DA8fc3df6F"
  ],
  "pending": [],
  "returns": {},
  "timestamp": 1776954961983,
  "chain": 11142220,
  "commit": "273ee36"
}