{
  "transactions": [
    {
      "hash": "0x3dd03309f67404c8793c6cb725a5b14aa06deb61289f46eaceed6d41073b597b",
      "transactionType": "CALL",
      "contractName": null,
      "contractAddress": "0x353ed52bf8482027c0e0b9e3c0e5d96a9f680980",
      "function": "deployFPMM(address,address,address,address,address,address,address,bool,(uint256,uint256,address,address,uint256,uint256,uint256))",
      "arguments": [
        "0x43cB9D6AcF1462356303079EA4FDd8bc30042a6A",
        "0xAb84C994b364Be03018c6528F0F68118f107578A",
        "0xaad8b67551086609D132178dfF1dBE31b3c1C9C2",
        "0x2738F38Fde510743e0c589415E0598C4ceE6eAa7",
        "0x5eCc03111ad2A78F981A108759bc73BAE2AB31bc",
        "0xC304EE1876c32d1A194558B1000bE4842F960dF9",
        "0xAc414205651F4a62B614b6BE9e5318a182C33EB0",
        "true",
        "(3, 2, 0x2738F38Fde510743e0c589415E0598C4ceE6eAa7, 0x2738F38Fde510743e0c589415E0598C4ceE6eAa7, 1, 5000, 3333)"
      ],
      "transaction": {
        "from": "0x2738f38fde510743e0c589415e0598c4cee6eaa7",
        "to": "0x353ed52bf8482027c0e0b9e3c0e5d96a9f680980",
        "gas": "0x1cd227",
        "value": "0x0",
        "input": "0x098a676e00000000000000000000000043cb9d6acf1462356303079ea4fdd8bc30042a6a000000000000000000000000ab84c994b364be03018c6528f0f68118f107578a000000000000000000000000aad8b67551086609d132178dff1dbe31b3c1c9c20000000000000000000000002738f38fde510743e0c589415e0598c4cee6eaa70000000000000000000000005ecc03111ad2a78f981a108759bc73bae2ab31bc000000000000000000000000c304ee1876c32d1a194558b1000be4842f960df9000000000000000000000000ac414205651f4a62b614b6be9e5318a182c33eb00000000000000000000000000000000000000000000000000000000000000001000000000000000000000000000000000000000000000000000000000000000300000000000000000000000000000000000000000000000000000000000000020000000000000000000000002738f38fde510743e0c589415e0598c4cee6eaa70000000000000000000000002738f38fde510743e0c589415e0598c4cee6eaa7000000000000000000000000000000000000000000000000000000000000000100000000000000000000000000000000000000000000000000000000000013880000000000000000000000000000000000000000000000000000000000000d05",
        "nonce": "0x13d",
        "chainId": "0x279f"
      },
      "additionalContracts": [
        {
          "transactionType": "CREATE2",
          "contractName": null,
          "address": "0xd0789560a038eb5d438cc42f86e52d9ece1e69a5",
          "initCode": "0x67363d3d37363d34f03d5260086018f3"
        },
        {
          "transactionType": "CREATE",
          "contractName": "FPMMProxy",
          "address": "0xa51a83f0260a83a7f9adfecc1bc93c58def2c9a2",
          "initCode": "0x608060405260405162000dfa38038062000dfa83398101604081905262000026916200041b565b82828282816200003882825f62000052565b506200004690508262000083565b50505050505062000546565b6200005d83620000f4565b5f825111806200006a5750805b156200007e576200007c838362000135565b505b505050565b7f7e644d79422f17c01e4894b5f4f588d331ebfa28653d42ae832dc59e38c9798f620000c45f8051602062000db3833981519152546001600160a01b031690565b604080516001600160a01b03928316815291841660208301520160405180910390a1620000f18162000164565b50565b620000ff8162000201565b6040516001600160a01b038216907fbc7cd75a20ee27fd9adebab32041f755214dbc6bffa90cc0225b39da2e5c2d3b905f90a250565b60606200015d838360405180606001604052806027815260200162000dd36027913962000298565b9392505050565b6001600160a01b038116620001cf5760405162461bcd60e51b815260206004820152602660248201527f455243313936373a206e65772061646d696e20697320746865207a65726f206160448201526564647265737360d01b60648201526084015b60405180910390fd5b805f8051602062000db38339815191525b80546001600160a01b0319166001600160a01b039290921691909117905550565b6001600160a01b0381163b620002705760405162461bcd60e51b815260206004820152602d60248201527f455243313936373a206e657720696d706c656d656e746174696f6e206973206e60448201526c1bdd08184818dbdb9d1c9858dd609a1b6064820152608401620001c6565b807f360894a13ba1a3210667c828492db98dca3e2076cc3735a920a3ca505d382bbc620001e0565b60605f80856001600160a01b031685604051620002b69190620004f5565b5f60405180830381855af49150503d805f8114620002f0576040519150601f19603f3d011682016040523d82523d5f602084013e620002f5565b606091505b509092509050620003098683838762000313565b9695505050505050565b60608315620003865782515f036200037e576001600160a01b0385163b6200037e5760405162461bcd60e51b815260206004820152601d60248201527f416464726573733a2063616c6c20746f206e6f6e2d636f6e74726163740000006044820152606401620001c6565b508162000392565b6200039283836200039a565b949350505050565b815115620003ab5781518083602001fd5b8060405162461bcd60e51b8152600401620001c6919062000512565b80516001600160a01b0381168114620003de575f80fd5b919050565b634e487b7160e01b5f52604160045260245ffd5b5f5b8381101562000413578181015183820152602001620003f9565b50505f910152565b5f805f606084860312156200042e575f80fd5b6200043984620003c7565b92506200044960208501620003c7565b60408501519092506001600160401b038082111562000466575f80fd5b818601915086601f8301126200047a575f80fd5b8151818111156200048f576200048f620003e3565b604051601f8201601f19908116603f01168101908382118183101715620004ba57620004ba620003e3565b81604052828152896020848701011115620004d3575f80fd5b620004e6836020830160208801620003f7565b80955050505050509250925092565b5f825162000508818460208701620003f7565b9190910192915050565b602081525f825180602084015262000532816040850160208701620003f7565b601f01601f19169190910160400192915050565b61085f80620005545f395ff3fe60806040523661001357610011610017565b005b6100115b61001f610168565b6001600160a01b0316330361015e5760606001600160e01b03195f35166364d3180d60e11b81016100595761005261019a565b9150610156565b63587086bd60e11b6001600160e01b0319821601610079576100526101ed565b63070d7c6960e41b6001600160e01b031982160161009957610052610231565b621eb96f60e61b6001600160e01b03198216016100b857610052610261565b63a39f25e560e01b6001600160e01b03198216016100d8576100526102a0565b60405162461bcd60e51b815260206004820152604260248201527f5472616e73706172656e745570677261646561626c6550726f78793a2061646d60448201527f696e2063616e6e6f742066616c6c6261636b20746f2070726f78792074617267606482015261195d60f21b608482015260a4015b60405180910390fd5b815160208301f35b6101666102b3565b565b5f7fb53127684a568b3173ae13b9f8a6016e243e63b6e8ee1178d6a717850b5d61035b546001600160a01b0316919050565b60606101a46102c3565b5f6101b23660048184610668565b8101906101bf91906106aa565b90506101da8160405180602001604052805f8152505f6102cd565b505060408051602081019091525f815290565b60605f806101fe3660048184610668565b81019061020b91906106d7565b9150915061021b828260016102cd565b60405180602001604052805f8152509250505090565b606061023b6102c3565b5f6102493660048184610668565b81019061025691906106aa565b90506101da816102f8565b606061026b6102c3565b5f610274610168565b604080516001600160a01b03831660208201529192500160405160208183030381529060405291505090565b60606102aa6102c3565b5f61027461034f565b6101666102be61034f565b61035d565b3415610166575f80fd5b6102d68361037b565b5f825111806102e25750805b156102f3576102f183836103ba565b505b505050565b7f7e644d79422f17c01e4894b5f4f588d331ebfa28653d42ae832dc59e38c9798f610321610168565b604080516001600160a01b03928316815291841660208301520160405180910390a161034c816103e6565b50565b5f61035861048f565b905090565b365f80375f80365f845af43d5f803e808015610377573d5ff35b3d5ffd5b610384816104b6565b6040516001600160a01b038216907fbc7cd75a20ee27fd9adebab32041f755214dbc6bffa90cc0225b39da2e5c2d3b905f90a250565b60606103df83836040518060600160405280602781526020016108036027913961054a565b9392505050565b6001600160a01b03811661044b5760405162461bcd60e51b815260206004820152602660248201527f455243313936373a206e65772061646d696e20697320746865207a65726f206160448201526564647265737360d01b606482015260840161014d565b807fb53127684a568b3173ae13b9f8a6016e243e63b6e8ee1178d6a717850b5d61035b80546001600160a01b0319166001600160a01b039290921691909117905550565b5f7f360894a13ba1a3210667c828492db98dca3e2076cc3735a920a3ca505d382bbc61018b565b6001600160a01b0381163b6105235760405162461bcd60e51b815260206004820152602d60248201527f455243313936373a206e657720696d706c656d656e746174696f6e206973206e60448201526c1bdd08184818dbdb9d1c9858dd609a1b606482015260840161014d565b807f360894a13ba1a3210667c828492db98dca3e2076cc3735a920a3ca505d382bbc61046e565b60605f80856001600160a01b03168560405161056691906107b5565b5f60405180830381855af49150503d805f811461059e576040519150601f19603f3d011682016040523d82523d5f602084013e6105a3565b606091505b50915091506105b4868383876105be565b9695505050505050565b6060831561062c5782515f03610625576001600160a01b0385163b6106255760405162461bcd60e51b815260206004820152601d60248201527f416464726573733a2063616c6c20746f206e6f6e2d636f6e7472616374000000604482015260640161014d565b5081610636565b610636838361063e565b949350505050565b81511561064e5781518083602001fd5b8060405162461bcd60e51b815260040161014d91906107d0565b5f8085851115610676575f80fd5b83861115610682575f80fd5b5050820193919092039150565b80356001600160a01b03811681146106a5575f80fd5b919050565b5f602082840312156106ba575f80fd5b6103df8261068f565b634e487b7160e01b5f52604160045260245ffd5b5f80604083850312156106e8575f80fd5b6106f18361068f565b9150602083013567ffffffffffffffff8082111561070d575f80fd5b818501915085601f830112610720575f80fd5b813581811115610732576107326106c3565b604051601f8201601f19908116603f0116810190838211818310171561075a5761075a6106c3565b81604052828152886020848701011115610772575f80fd5b826020860160208301375f6020848301015280955050505050509250929050565b5f5b838110156107ad578181015183820152602001610795565b50505f910152565b5f82516107c6818460208701610793565b9190910192915050565b602081525f82518060208401526107ee816040850160208701610793565b601f01601f1916919091016040019291505056fe416464726573733a206c6f772d6c6576656c2064656c65676174652063616c6c206661696c6564a2646970667358221220aa20ce4dcf96a82424f9529b6c241425d2e02b65a5499bdb8a4cd0e1a346515264736f6c63430008180033b53127684a568b3173ae13b9f8a6016e243e63b6e8ee1178d6a717850b5d6103416464726573733a206c6f772d6c6576656c2064656c65676174652063616c6c206661696c656400000000000000000000000043cb9d6acf1462356303079ea4fdd8bc30042a6a000000000000000000000000aad8b67551086609d132178dff1dbe31b3c1c9c2000000000000000000000000000000000000000000000000000000000000006000000000000000000000000000000000000000000000000000000000000001a4c20a9ca50000000000000000000000005ecc03111ad2a78f981a108759bc73bae2ab31bc000000000000000000000000c304ee1876c32d1a194558b1000be4842f960df9000000000000000000000000ab84c994b364be03018c6528f0f68118f107578a000000000000000000000000ac414205651f4a62b614b6be9e5318a182c33eb000000000000000000000000000000000000000000000000000000000000000010000000000000000000000002738f38fde510743e0c589415e0598c4cee6eaa7000000000000000000000000000000000000000000000000000000000000000300000000000000000000000000000000000000000000000000000000000000020000000000000000000000002738f38fde510743e0c589415e0598c4cee6eaa70000000000000000000000002738f38fde510743e0c589415e0598c4cee6eaa7000000000000000000000000000000000000000000000000000000000000000100000000000000000000000000000000000000000000000000000000000013880000000000000000000000000000000000000000000000000000000000000d0500000000000000000000000000000000000000000000000000000000"
        }
      ],
      "isFixedGasLimit": false
    },
    {
      "hash": "0x47ce0b225d8856f20841c0773f95795eea016798d294eb1e86f9a98f9c7a0ff6",
      "transactionType": "CALL",
      "contractName": null,
      "contractAddress": "0x5ecc03111ad2a78f981a108759bc73bae2ab31bc",
      "function": "transfer(address,uint256)",
      "arguments": [
        "0xa51a83F0260a83A7F9AdFecC1Bc93C58DEf2c9A2",
        "999611920000000000"
      ],
      "transaction": {
        "from": "0x2738f38fde510743e0c589415e0598c4cee6eaa7",
        "to": "0x5ecc03111ad2a78f981a108759bc73bae2ab31bc",
        "gas": "0x1a439",
        "value": "0x0",
        "input": "0xa9059cbb000000000000000000000000a51a83f0260a83a7f9adfecc1bc93c58def2c9a20000000000000000000000000000000000000000000000000ddf55bebcd8a000",
        "nonce": "0x13e",
        "chainId": "0x279f"
      },
      "additionalContracts": [],
      "isFixedGasLimit": false
    },
    {
      "hash": "0x370fbeab4445474e0e0185db64bdb3637442e027c01e36ae108ce7bf0949bc19",
      "transactionType": "CALL",
      "contractName": null,
      "contractAddress": "0xc304ee1876c32d1a194558b1000be4842f960df9",
      "function": "transfer(address,uint256)",
      "arguments": [
        "0xa51a83F0260a83A7F9AdFecC1Bc93C58DEf2c9A2",
        "1000000"
      ],
      "transaction": {
        "from": "0x2738f38fde510743e0c589415e0598c4cee6eaa7",
        "to": "0xc304ee1876c32d1a194558b1000be4842f960df9",
        "gas": "0x146ea",
        "value": "0x0",
        "input": "0xa9059cbb000000000000000000000000a51a83f0260a83a7f9adfecc1bc93c58def2c9a200000000000000000000000000000000000000000000000000000000000f4240",
        "nonce": "0x13f",
        "chainId": "0x279f"
      },
      "additionalContracts": [],
      "isFixedGasLimit": false
    },
    {
      "hash": "0x0e722a2368e006b54bab541eab2457905672597f532b0a7a541ed671779c3a4e",
      "transactionType": "CALL",
      "contractName": "FPMMProxy",
      "contractAddress": "0xa51a83f0260a83a7f9adfecc1bc93c58def2c9a2",
      "function": null,
      "arguments": null,
      "transaction": {
        "from": "0x2738f38fde510743e0c589415e0598c4cee6eaa7",
        "to": "0xa51a83f0260a83a7f9adfecc1bc93c58def2c9a2",
        "gas": "0x703a",
        "value": "0x0",
        "input": "0x6a6278420000000000000000000000002738f38fde510743e0c589415e0598c4cee6eaa7",
        "nonce": "0x140",
        "chainId": "0x279f"
      },
      "additionalContracts": [],
      "isFixedGasLimit": false
    },
    {
      "hash": "0xf679d9aaee4a16874481ad0f48245e4c3c31b22567816acdc5dc09a337040f56",
      "transactionType": "CALL",
      "contractName": "FPMMProxy",
      "contractAddress": "0xa51a83f0260a83a7f9adfecc1bc93c58def2c9a2",
      "function": null,
      "arguments": null,
      "transaction": {
        "from": "0x2738f38fde510743e0c589415e0598c4cee6eaa7",
        "to": "0xa51a83f0260a83a7f9adfecc1bc93c58def2c9a2",
        "gas": "0x75db",
        "value": "0x0",
        "input": "0xda7ddb8f0000000000000000000000005ecc03111ad2a78f981a108759bc73bae2ab31bc00000000000000000000000000000000000000000002116545850052128000000000000000000000000000000000000000000000000422ca8b0a00a425000000",
        "nonce": "0x141",
        "chainId": "0x279f"
      },
      "additionalContracts": [],
      "isFixedGasLimit": false
    },
    {
      "hash": "0xe4ffe3682caf1ef3e1dba1f9e1948305c5ef04a786046fded13468978a168f1c",
      "transactionType": "CALL",
      "contractName": "FPMMProxy",
      "contractAddress": "0xa51a83f0260a83a7f9adfecc1bc93c58def2c9a2",
      "function": null,
      "arguments": null,
      "transaction": {
        "from": "0x2738f38fde510743e0c589415e0598c4cee6eaa7",
        "to": "0xa51a83f0260a83a7f9adfecc1bc93c58def2c9a2",
        "gas": "0x757c",
        "value": "0x0",
        "input": "0xda7ddb8f000000000000000000000000c304ee1876c32d1a194558b1000be4842f960df900000000000000000000000000000000000000000000000000000246139ca8000000000000000000000000000000000000000000000000000000048c27395000",
        "nonce": "0x142",
        "chainId": "0x279f"
      },
      "additionalContracts": [],
      "isFixedGasLimit": false
    },
    {
      "hash": "0x9ee3672d68fccded75746833dd628059904ed8aeab4b4f7be2986b0619b981ed",
      "transactionType": "CALL",
      "contractName": null,
      "contractAddress": "0xbcdc1d0b92dfceeaa0fcd0a0d53355f4bf1db8a7",
      "function": "registerCollateralAsset(address)",
      "arguments": [
        "0xC304EE1876c32d1A194558B1000bE4842F960dF9"
      ],
      "transaction": {
        "from": "0x2738f38fde510743e0c589415e0598c4cee6eaa7",
        "to": "0xbcdc1d0b92dfceeaa0fcd0a0d53355f4bf1db8a7",
        "gas": "0x25ea4",
        "value": "0x0",
        "input": "0x40a24037000000000000000000000000c304ee1876c32d1a194558b1000be4842f960df9",
        "nonce": "0x143",
        "chainId": "0x279f"
      },
      "additionalContracts": [],
      "isFixedGasLimit": false
    },
    {
      "hash": "0x29984903fece5146517f0acbdb8093ad584af9f6102d756538681ac3e40f1217",
      "transactionType": "CALL",
      "contractName": "FPMMProxy",
      "contractAddress": "0xa51a83f0260a83a7f9adfecc1bc93c58def2c9a2",
      "function": null,
      "arguments": null,
      "transaction": {
        "from": "0x2738f38fde510743e0c589415e0598c4cee6eaa7",
        "to": "0xa51a83f0260a83a7f9adfecc1bc93c58def2c9a2",
        "gas": "0x72a3",
        "value": "0x0",
        "input": "0xcce441a3000000000000000000000000734bb3251ec3f1a83f8f2a8609bcef649d54ebf80000000000000000000000000000000000000000000000000000000000000001",
        "nonce": "0x144",
        "chainId": "0x279f"
      },
      "additionalContracts": [],
      "isFixedGasLimit": false
    },
    {
      "hash": "0x65ed135ef459d731b73ecb630889d33ccdf5ac8c0b059cbcfb80660d3ea0cbe0",
      "transactionType": "CALL",
      "contractName": null,
      "contractAddress": "0x734bb3251ec3f1a83f8f2a8609bcef649d54ebf8",
      "function": "addPool((address,address,uint32,address,uint64,uint64,uint64,uint64))",
      "arguments": [
        "(0xa51a83F0260a83A7F9AdFecC1Bc93C58DEf2c9A2, 0x5eCc03111ad2A78F981A108759bc73BAE2AB31bc, 300, 0x2738F38Fde510743e0c589415E0598C4ceE6eAa7, 0, 0, 0, 0)"
      ],
      "transaction": {
        "from": "0x2738f38fde510743e0c589415e0598c4cee6eaa7",
        "to": "0x734bb3251ec3f1a83f8f2a8609bcef649d54ebf8",
        "gas": "0x2a466",
        "value": "0x0",
        "input": "0x2d3d3638000000000000000000000000a51a83f0260a83a7f9adfecc1bc93c58def2c9a20000000000000000000000005ecc03111ad2a78f981a108759bc73bae2ab31bc000000000000000000000000000000000000000000000000000000000000012c0000000000000000000000002738f38fde510743e0c589415e0598c4cee6eaa70000000000000000000000000000000000000000000000000000000000000000000000000000000000000000000000000000000000000000000000000000000000000000000000000000000000000000000000000000000000000000000000000000000000000000000000000000000000000000000000000000000000000000",
        "nonce": "0x145",
        "chainId": "0x279f"
      },
      "additionalContracts": [],
      "isFixedGasLimit": false
    },
    {
      "hash": "0x3f7f0a0d7d52a7bfa5fcb562b6da88a3c3e7bfc5b3bdda6a90f95af9ac5ec557",
      "transactionType": "CALL",
      "contractName": null,
      "contractAddress": "0x353ed52bf8482027c0e0b9e3c0e5d96a9f680980",
      "function": "deployFPMM(address,address,address,address,address,address,address,bool,(uint256,uint256,address,address,uint256,uint256,uint256))",
      "arguments": [
        "0x43cB9D6AcF1462356303079EA4FDd8bc30042a6A",
        "0x26eFF54e2f0E8825996b83119b7Df5ef2C882dD7",
        "0xaad8b67551086609D132178dfF1dBE31b3c1C9C2",
        "0x2738F38Fde510743e0c589415E0598C4ceE6eAa7",
        "0x5eCc03111ad2A78F981A108759bc73BAE2AB31bc",
        "0x666D0a83cDbf3eC62bDb624d9bFcD8F6345Ba7D0",
        "0xEc57482AA55e3ad026C315A0e4A692B776C318cA",
        "true",
        "(10, 5, 0x2738F38Fde510743e0c589415E0598C4ceE6eAa7, 0x2738F38Fde510743e0c589415E0598C4ceE6eAa7, 6, 5000, 3333)"
      ],
      "transaction": {
        "from": "0x2738f38fde510743e0c589415e0598c4cee6eaa7",
        "to": "0x353ed52bf8482027c0e0b9e3c0e5d96a9f680980",
        "gas": "0x1c72b2",
        "value": "0x0",
        "input": "0x098a676e00000000000000000000000043cb9d6acf1462356303079ea4fdd8bc30042a6a00000000000000000000000026eff54e2f0e8825996b83119b7df5ef2c882dd7000000000000000000000000aad8b67551086609d132178dff1dbe31b3c1c9c20000000000000000000000002738f38fde510743e0c589415e0598c4cee6eaa70000000000000000000000005ecc03111ad2a78f981a108759bc73bae2ab31bc000000000000000000000000666d0a83cdbf3ec62bdb624d9bfcd8f6345ba7d0000000000000000000000000ec57482aa55e3ad026c315a0e4a692b776c318ca0000000000000000000000000000000000000000000000000000000000000001000000000000000000000000000000000000000000000000000000000000000a00000000000000000000000000000000000000000000000000000000000000050000000000000000000000002738f38fde510743e0c589415e0598c4cee6eaa70000000000000000000000002738f38fde510743e0c589415e0598c4cee6eaa7000000000000000000000000000000000000000000000000000000000000000600000000000000000000000000000000000000000000000000000000000013880000000000000000000000000000000000000000000000000000000000000d05",
        "nonce": "0x146",
        "chainId": "0x279f"
      },
      "additionalContracts": [
        {
          "transactionType": "CREATE2",
          "contractName": null,
          "address": "0x295987dc0b6368c37f377aa715e2390ff2fd3c58",
          "initCode": "0x67363d3d37363d34f03d5260086018f3"
        },
        {
          "transactionType": "CREATE",
          "contractName": "FPMMProxy",
          "address": "0xd74728994135734968b03efc03448394bacb1e5f",
          "initCode": "0x608060405260405162000dfa38038062000dfa83398101604081905262000026916200041b565b82828282816200003882825f62000052565b506200004690508262000083565b50505050505062000546565b6200005d83620000f4565b5f825111806200006a5750805b156200007e576200007c838362000135565b505b505050565b7f7e644d79422f17c01e4894b5f4f588d331ebfa28653d42ae832dc59e38c9798f620000c45f8051602062000db3833981519152546001600160a01b031690565b604080516001600160a01b03928316815291841660208301520160405180910390a1620000f18162000164565b50565b620000ff8162000201565b6040516001600160a01b038216907fbc7cd75a20ee27fd9adebab32041f755214dbc6bffa90cc0225b39da2e5c2d3b905f90a250565b60606200015d838360405180606001604052806027815260200162000dd36027913962000298565b9392505050565b6001600160a01b038116620001cf5760405162461bcd60e51b815260206004820152602660248201527f455243313936373a206e65772061646d696e20697320746865207a65726f206160448201526564647265737360d01b60648201526084015b60405180910390fd5b805f8051602062000db38339815191525b80546001600160a01b0319166001600160a01b039290921691909117905550565b6001600160a01b0381163b620002705760405162461bcd60e51b815260206004820152602d60248201527f455243313936373a206e657720696d706c656d656e746174696f6e206973206e60448201526c1bdd08184818dbdb9d1c9858dd609a1b6064820152608401620001c6565b807f360894a13ba1a3210667c828492db98dca3e2076cc3735a920a3ca505d382bbc620001e0565b60605f80856001600160a01b031685604051620002b69190620004f5565b5f60405180830381855af49150503d805f8114620002f0576040519150601f19603f3d011682016040523d82523d5f602084013e620002f5565b606091505b509092509050620003098683838762000313565b9695505050505050565b60608315620003865782515f036200037e576001600160a01b0385163b6200037e5760405162461bcd60e51b815260206004820152601d60248201527f416464726573733a2063616c6c20746f206e6f6e2d636f6e74726163740000006044820152606401620001c6565b508162000392565b6200039283836200039a565b949350505050565b815115620003ab5781518083602001fd5b8060405162461bcd60e51b8152600401620001c6919062000512565b80516001600160a01b0381168114620003de575f80fd5b919050565b634e487b7160e01b5f52604160045260245ffd5b5f5b8381101562000413578181015183820152602001620003f9565b50505f910152565b5f805f606084860312156200042e575f80fd5b6200043984620003c7565b92506200044960208501620003c7565b60408501519092506001600160401b038082111562000466575f80fd5b818601915086601f8301126200047a575f80fd5b8151818111156200048f576200048f620003e3565b604051601f8201601f19908116603f01168101908382118183101715620004ba57620004ba620003e3565b81604052828152896020848701011115620004d3575f80fd5b620004e6836020830160208801620003f7565b80955050505050509250925092565b5f825162000508818460208701620003f7565b9190910192915050565b602081525f825180602084015262000532816040850160208701620003f7565b601f01601f19169190910160400192915050565b61085f80620005545f395ff3fe60806040523661001357610011610017565b005b6100115b61001f610168565b6001600160a01b0316330361015e5760606001600160e01b03195f35166364d3180d60e11b81016100595761005261019a565b9150610156565b63587086bd60e11b6001600160e01b0319821601610079576100526101ed565b63070d7c6960e41b6001600160e01b031982160161009957610052610231565b621eb96f60e61b6001600160e01b03198216016100b857610052610261565b63a39f25e560e01b6001600160e01b03198216016100d8576100526102a0565b60405162461bcd60e51b815260206004820152604260248201527f5472616e73706172656e745570677261646561626c6550726f78793a2061646d60448201527f696e2063616e6e6f742066616c6c6261636b20746f2070726f78792074617267606482015261195d60f21b608482015260a4015b60405180910390fd5b815160208301f35b6101666102b3565b565b5f7fb53127684a568b3173ae13b9f8a6016e243e63b6e8ee1178d6a717850b5d61035b546001600160a01b0316919050565b60606101a46102c3565b5f6101b23660048184610668565b8101906101bf91906106aa565b90506101da8160405180602001604052805f8152505f6102cd565b505060408051602081019091525f815290565b60605f806101fe3660048184610668565b81019061020b91906106d7565b9150915061021b828260016102cd565b60405180602001604052805f8152509250505090565b606061023b6102c3565b5f6102493660048184610668565b81019061025691906106aa565b90506101da816102f8565b606061026b6102c3565b5f610274610168565b604080516001600160a01b03831660208201529192500160405160208183030381529060405291505090565b60606102aa6102c3565b5f61027461034f565b6101666102be61034f565b61035d565b3415610166575f80fd5b6102d68361037b565b5f825111806102e25750805b156102f3576102f183836103ba565b505b505050565b7f7e644d79422f17c01e4894b5f4f588d331ebfa28653d42ae832dc59e38c9798f610321610168565b604080516001600160a01b03928316815291841660208301520160405180910390a161034c816103e6565b50565b5f61035861048f565b905090565b365f80375f80365f845af43d5f803e808015610377573d5ff35b3d5ffd5b610384816104b6565b6040516001600160a01b038216907fbc7cd75a20ee27fd9adebab32041f755214dbc6bffa90cc0225b39da2e5c2d3b905f90a250565b60606103df83836040518060600160405280602781526020016108036027913961054a565b9392505050565b6001600160a01b03811661044b5760405162461bcd60e51b815260206004820152602660248201527f455243313936373a206e65772061646d696e20697320746865207a65726f206160448201526564647265737360d01b606482015260840161014d565b807fb53127684a568b3173ae13b9f8a6016e243e63b6e8ee1178d6a717850b5d61035b80546001600160a01b0319166001600160a01b039290921691909117905550565b5f7f360894a13ba1a3210667c828492db98dca3e2076cc3735a920a3ca505d382bbc61018b565b6001600160a01b0381163b6105235760405162461bcd60e51b815260206004820152602d60248201527f455243313936373a206e657720696d706c656d656e746174696f6e206973206e60448201526c1bdd08184818dbdb9d1c9858dd609a1b606482015260840161014d565b807f360894a13ba1a3210667c828492db98dca3e2076cc3735a920a3ca505d382bbc61046e565b60605f80856001600160a01b03168560405161056691906107b5565b5f60405180830381855af49150503d805f811461059e576040519150601f19603f3d011682016040523d82523d5f602084013e6105a3565b606091505b50915091506105b4868383876105be565b9695505050505050565b6060831561062c5782515f03610625576001600160a01b0385163b6106255760405162461bcd60e51b815260206004820152601d60248201527f416464726573733a2063616c6c20746f206e6f6e2d636f6e7472616374000000604482015260640161014d565b5081610636565b610636838361063e565b949350505050565b81511561064e5781518083602001fd5b8060405162461bcd60e51b815260040161014d91906107d0565b5f8085851115610676575f80fd5b83861115610682575f80fd5b5050820193919092039150565b80356001600160a01b03811681146106a5575f80fd5b919050565b5f602082840312156106ba575f80fd5b6103df8261068f565b634e487b7160e01b5f52604160045260245ffd5b5f80604083850312156106e8575f80fd5b6106f18361068f565b9150602083013567ffffffffffffffff8082111561070d575f80fd5b818501915085601f830112610720575f80fd5b813581811115610732576107326106c3565b604051601f8201601f19908116603f0116810190838211818310171561075a5761075a6106c3565b81604052828152886020848701011115610772575f80fd5b826020860160208301375f6020848301015280955050505050509250929050565b5f5b838110156107ad578181015183820152602001610795565b50505f910152565b5f82516107c6818460208701610793565b9190910192915050565b602081525f82518060208401526107ee816040850160208701610793565b601f01601f1916919091016040019291505056fe416464726573733a206c6f772d6c6576656c2064656c65676174652063616c6c206661696c6564a2646970667358221220aa20ce4dcf96a82424f9529b6c241425d2e02b65a5499bdb8a4cd0e1a346515264736f6c63430008180033b53127684a568b3173ae13b9f8a6016e243e63b6e8ee1178d6a717850b5d6103416464726573733a206c6f772d6c6576656c2064656c65676174652063616c6c206661696c656400000000000000000000000043cb9d6acf1462356303079ea4fdd8bc30042a6a000000000000000000000000aad8b67551086609d132178dff1dbe31b3c1c9c2000000000000000000000000000000000000000000000000000000000000006000000000000000000000000000000000000000000000000000000000000001a4c20a9ca50000000000000000000000005ecc03111ad2a78f981a108759bc73bae2ab31bc000000000000000000000000666d0a83cdbf3ec62bdb624d9bfcd8f6345ba7d000000000000000000000000026eff54e2f0e8825996b83119b7df5ef2c882dd7000000000000000000000000ec57482aa55e3ad026c315a0e4a692b776c318ca00000000000000000000000000000000000000000000000000000000000000010000000000000000000000002738f38fde510743e0c589415e0598c4cee6eaa7000000000000000000000000000000000000000000000000000000000000000a00000000000000000000000000000000000000000000000000000000000000050000000000000000000000002738f38fde510743e0c589415e0598c4cee6eaa70000000000000000000000002738f38fde510743e0c589415e0598c4cee6eaa7000000000000000000000000000000000000000000000000000000000000000600000000000000000000000000000000000000000000000000000000000013880000000000000000000000000000000000000000000000000000000000000d0500000000000000000000000000000000000000000000000000000000"
        }
      ],
      "isFixedGasLimit": false
    },
    {
      "hash": "0xd074f760cceb7bb465fbeaf5ef4b9c01c75179d7a693169170d25bbc2929e2ef",
      "transactionType": "CALL",
      "contractName": null,
      "contractAddress": "0x5ecc03111ad2a78f981a108759bc73bae2ab31bc",
      "function": "transfer(address,uint256)",
      "arguments": [
        "0xD74728994135734968b03EFc03448394BaCb1e5f",
        "1159365000000000000"
      ],
      "transaction": {
        "from": "0x2738f38fde510743e0c589415e0598c4cee6eaa7",
        "to": "0x5ecc03111ad2a78f981a108759bc73bae2ab31bc",
        "gas": "0x1a439",
        "value": "0x0",
        "input": "0xa9059cbb000000000000000000000000d74728994135734968b03efc03448394bacb1e5f0000000000000000000000000000000000000000000000001016e4532e055000",
        "nonce": "0x147",
        "chainId": "0x279f"
      },
      "additionalContracts": [],
      "isFixedGasLimit": false
    },
    {
      "hash": "0xf51ab1e64f4681115fdadfe4f0a133ec45fd6e2f1260ea080c3f7d5885a18cbb",
      "transactionType": "CALL",
      "contractName": null,
      "contractAddress": "0x666d0a83cdbf3ec62bdb624d9bfcd8f6345ba7d0",
      "function": "transfer(address,uint256)",
      "arguments": [
        "0xD74728994135734968b03EFc03448394BaCb1e5f",
        "1000000000000000000"
      ],
      "transaction": {
        "from": "0x2738f38fde510743e0c589415e0598c4cee6eaa7",
        "to": "0x666d0a83cdbf3ec62bdb624d9bfcd8f6345ba7d0",
        "gas": "0x1a42a",
        "value": "0x0",
        "input": "0xa9059cbb000000000000000000000000d74728994135734968b03efc03448394bacb1e5f0000000000000000000000000000000000000000000000000de0b6b3a7640000",
        "nonce": "0x148",
        "chainId": "0x279f"
      },
      "additionalContracts": [],
      "isFixedGasLimit": false
    },
    {
      "hash": "0xc5e6df9922180f18c03db4a013189e410b75c14dfafbfcb56ba0c82e08633784",
      "transactionType": "CALL",
      "contractName": "FPMMProxy",
      "contractAddress": "0xd74728994135734968b03efc03448394bacb1e5f",
      "function": null,
      "arguments": null,
      "transaction": {
        "from": "0x2738f38fde510743e0c589415e0598c4cee6eaa7",
        "to": "0xd74728994135734968b03efc03448394bacb1e5f",
        "gas": "0x703a",
        "value": "0x0",
        "input": "0x6a6278420000000000000000000000002738f38fde510743e0c589415e0598c4cee6eaa7",
        "nonce": "0x149",
        "chainId": "0x279f"
      },
      "additionalContracts": [],
      "isFixedGasLimit": false
    },
    {
      "hash": "0x41097d61e1f426ce503d9e1c0c5d39a3da00bace41ccb7b0fe5ba92bde64add3",
      "transactionType": "CALL",
      "contractName": "FPMMProxy",
      "contractAddress": "0xd74728994135734968b03efc03448394bacb1e5f",
      "function": null,
      "arguments": null,
      "transaction": {
        "from": "0x2738f38fde510743e0c589415e0598c4cee6eaa7",
        "to": "0xd74728994135734968b03efc03448394bacb1e5f",
        "gas": "0x75db",
        "value": "0x0",
        "input": "0xda7ddb8f0000000000000000000000005ecc03111ad2a78f981a108759bc73bae2ab31bc0000000000000000000000000000000000000000000034f086f3b33b6840000000000000000000000000000000000000000000000000d3c21bcecceda1000000",
        "nonce": "0x14a",
        "chainId": "0x279f"
      },
      "additionalContracts": [],
      "isFixedGasLimit": false
    },
    {
      "hash": "0xc6c63812e53066f8dcc6594e98071ce0f9350791688e90db80560cff7f7e8073",
      "transactionType": "CALL",
      "contractName": "FPMMProxy",
      "contractAddress": "0xd74728994135734968b03efc03448394bacb1e5f",
      "function": null,
      "arguments": null,
      "transaction": {
        "from": "0x2738f38fde510743e0c589415e0598c4cee6eaa7",
        "to": "0xd74728994135734968b03efc03448394bacb1e5f",
        "gas": "0x75eb",
        "value": "0x0",
        "input": "0xda7ddb8f000000000000000000000000666d0a83cdbf3ec62bdb624d9bfcd8f6345ba7d0000000000000000000000000000000000000000000002d872c60f12df860000000000000000000000000000000000000000000000000b61cb183c4b7e1800000",
        "nonce": "0x14b",
        "chainId": "0x279f"
      },
      "additionalContracts": [],
      "isFixedGasLimit": false
    },
    {
      "hash": "0xcbdae5a53f7f7ce97b347e090f3dce342ba5a848a4a0d837f7fa43e9fc2c2850",
      "transactionType": "CALL",
      "contractName": "FPMMProxy",
      "contractAddress": "0xd74728994135734968b03efc03448394bacb1e5f",
      "function": null,
      "arguments": null,
      "transaction": {
        "from": "0x2738f38fde510743e0c589415e0598c4cee6eaa7",
        "to": "0xd74728994135734968b03efc03448394bacb1e5f",
        "gas": "0x72a3",
        "value": "0x0",
        "input": "0xcce441a3000000000000000000000000ccd2ad0603a08ebc14d223a983171ef18192e8c90000000000000000000000000000000000000000000000000000000000000001",
        "nonce": "0x14c",
        "chainId": "0x279f"
      },
      "additionalContracts": [],
      "isFixedGasLimit": false
    },
    {
      "hash": "0x336afc1bb6afef0b6170d910f1ba73037f990a55587ffc0f8c691974334cb103",
      "transactionType": "CALL",
      "contractName": null,
      "contractAddress": "0xccd2ad0603a08ebc14d223a983171ef18192e8c9",
      "function": "addPool((address,address,uint32,address,uint64,uint64,uint64,uint64))",
      "arguments": [
        "(0xD74728994135734968b03EFc03448394BaCb1e5f, 0x5eCc03111ad2A78F981A108759bc73BAE2AB31bc, 300, 0x2738F38Fde510743e0c589415E0598C4ceE6eAa7, 500000000000000, 0, 500000000000000, 0)"
      ],
      "transaction": {
        "from": "0x2738f38fde510743e0c589415e0598c4cee6eaa7",
        "to": "0xccd2ad0603a08ebc14d223a983171ef18192e8c9",
        "gas": "0x33e91",
        "value": "0x0",
        "input": "0x2d3d3638000000000000000000000000d74728994135734968b03efc03448394bacb1e5f0000000000000000000000005ecc03111ad2a78f981a108759bc73bae2ab31bc000000000000000000000000000000000000000000000000000000000000012c0000000000000000000000002738f38fde510743e0c589415e0598c4cee6eaa70000000000000000000000000000000000000000000000000001c6bf5263400000000000000000000000000000000000000000000000000000000000000000000000000000000000000000000000000000000000000000000001c6bf526340000000000000000000000000000000000000000000000000000000000000000000",
        "nonce": "0x14d",
        "chainId": "0x279f"
      },
      "additionalContracts": [],
      "isFixedGasLimit": false
    }
  ],
  "receipts": [
    {
      "type": "0x2",
      "status": "0x1",
      "cumulativeGasUsed": "0x1cd227",
      "logs": [
        {
          "address": "0xba5ed099633d3b313e4d5f7bdc1305d3c28ba5ed",
          "topics": [
            "0x2feea65dd4e9f9cbd86b74b7734210c59a1b2981b5b137bd0ee3e208200c9067",
            "0x000000000000000000000000d0789560a038eb5d438cc42f86e52d9ece1e69a5",
            "0xb2306ecfb931d0a37e4062bbe41199ec380aa049a7f105c9414302137c033e77"
          ],
          "data": "0x",
          "blockHash": "0x43e1f1376ded3ff4439701a5ab4fab6146a4bd5e1a340a2c69998cf3630e00db",
          "blockNumber": "0x1421aee",
          "blockTimestamp": "0x69c3d00d",
          "transactionHash": "0x3dd03309f67404c8793c6cb725a5b14aa06deb61289f46eaceed6d41073b597b",
          "transactionIndex": "0x1",
          "logIndex": "0x1",
          "removed": false
        },
        {
          "address": "0xa51a83f0260a83a7f9adfecc1bc93c58def2c9a2",
          "topics": [
            "0xbc7cd75a20ee27fd9adebab32041f755214dbc6bffa90cc0225b39da2e5c2d3b",
            "0x00000000000000000000000043cb9d6acf1462356303079ea4fdd8bc30042a6a"
          ],
          "data": "0x",
          "blockHash": "0x43e1f1376ded3ff4439701a5ab4fab6146a4bd5e1a340a2c69998cf3630e00db",
          "blockNumber": "0x1421aee",
          "blockTimestamp": "0x69c3d00d",
          "transactionHash": "0x3dd03309f67404c8793c6cb725a5b14aa06deb61289f46eaceed6d41073b597b",
          "transactionIndex": "0x1",
          "logIndex": "0x2",
          "removed": false
        },
        {
          "address": "0xa51a83f0260a83a7f9adfecc1bc93c58def2c9a2",
          "topics": [
            "0x8be0079c531659141344cd1fd0a4f28419497f9722a3daafe3b4186f6b6457e0",
            "0x0000000000000000000000000000000000000000000000000000000000000000",
            "0x000000000000000000000000d0789560a038eb5d438cc42f86e52d9ece1e69a5"
          ],
          "data": "0x",
          "blockHash": "0x43e1f1376ded3ff4439701a5ab4fab6146a4bd5e1a340a2c69998cf3630e00db",
          "blockNumber": "0x1421aee",
          "blockTimestamp": "0x69c3d00d",
          "transactionHash": "0x3dd03309f67404c8793c6cb725a5b14aa06deb61289f46eaceed6d41073b597b",
          "transactionIndex": "0x1",
          "logIndex": "0x3",
          "removed": false
        },
        {
          "address": "0xa51a83f0260a83a7f9adfecc1bc93c58def2c9a2",
          "topics": [
            "0xb5d5dda8af4f1e40a5cc4aa66c39ca5aac7f90947261313b07527eb3bdd98bc7"
          ],
          "data": "0x00000000000000000000000000000000000000000000000000000000000000000000000000000000000000000000000000000000000000000000000000000003",
          "blockHash": "0x43e1f1376ded3ff4439701a5ab4fab6146a4bd5e1a340a2c69998cf3630e00db",
          "blockNumber": "0x1421aee",
          "blockTimestamp": "0x69c3d00d",
          "transactionHash": "0x3dd03309f67404c8793c6cb725a5b14aa06deb61289f46eaceed6d41073b597b",
          "transactionIndex": "0x1",
          "logIndex": "0x4",
          "removed": false
        },
        {
          "address": "0xa51a83f0260a83a7f9adfecc1bc93c58def2c9a2",
          "topics": [
            "0xd3890fc76afcfc31cba1dcf2c27b50e2541e4d75039c981855b5b5e03682aea0",
            "0x0000000000000000000000000000000000000000000000000000000000000000",
            "0x0000000000000000000000002738f38fde510743e0c589415e0598c4cee6eaa7"
          ],
          "data": "0x",
          "blockHash": "0x43e1f1376ded3ff4439701a5ab4fab6146a4bd5e1a340a2c69998cf3630e00db",
          "blockNumber": "0x1421aee",
          "blockTimestamp": "0x69c3d00d",
          "transactionHash": "0x3dd03309f67404c8793c6cb725a5b14aa06deb61289f46eaceed6d41073b597b",
          "transactionIndex": "0x1",
          "logIndex": "0x5",
          "removed": false
        },
        {
          "address": "0xa51a83f0260a83a7f9adfecc1bc93c58def2c9a2",
          "topics": [
            "0xb404cac19fb1cbeff98d325795b08886e3cd8fe8cb1a2f193aac66f13fb239c3"
          ],
          "data": "0x00000000000000000000000000000000000000000000000000000000000000000000000000000000000000000000000000000000000000000000000000000002",
          "blockHash": "0x43e1f1376ded3ff4439701a5ab4fab6146a4bd5e1a340a2c69998cf3630e00db",
          "blockNumber": "0x1421aee",
          "blockTimestamp": "0x69c3d00d",
          "transactionHash": "0x3dd03309f67404c8793c6cb725a5b14aa06deb61289f46eaceed6d41073b597b",
          "transactionIndex": "0x1",
          "logIndex": "0x6",
          "removed": false
        },
        {
          "address": "0xa51a83f0260a83a7f9adfecc1bc93c58def2c9a2",
          "topics": [
            "0xb273226859e3e49fd86c9ac8f721eaa74e677de0877db704918e0f43ec8d23bc"
          ],
          "data": "0x00000000000000000000000000000000000000000000000000000000000000000000000000000000000000000000000000000000000000000000000000000001",
          "blockHash": "0x43e1f1376ded3ff4439701a5ab4fab6146a4bd5e1a340a2c69998cf3630e00db",
          "blockNumber": "0x1421aee",
          "blockTimestamp": "0x69c3d00d",
          "transactionHash": "0x3dd03309f67404c8793c6cb725a5b14aa06deb61289f46eaceed6d41073b597b",
          "transactionIndex": "0x1",
          "logIndex": "0x7",
          "removed": false
        },
        {
          "address": "0xa51a83f0260a83a7f9adfecc1bc93c58def2c9a2",
          "topics": [
            "0x77c5ddba87b3d3f970242eda9bb1263ade9e4aed3eca233d5fa1af00a574b025"
          ],
          "data": "0x0000000000000000000000000000000000000000000000000000000000000000000000000000000000000000000000000000000000000000000000000000000000000000000000000000000000000000000000000000000000000000000013880000000000000000000000000000000000000000000000000000000000000d05",
          "blockHash": "0x43e1f1376ded3ff4439701a5ab4fab6146a4bd5e1a340a2c69998cf3630e00db",
          "blockNumber": "0x1421aee",
          "blockTimestamp": "0x69c3d00d",
          "transactionHash": "0x3dd03309f67404c8793c6cb725a5b14aa06deb61289f46eaceed6d41073b597b",
          "transactionIndex": "0x1",
          "logIndex": "0x8",
          "removed": false
        },
        {
          "address": "0xa51a83f0260a83a7f9adfecc1bc93c58def2c9a2",
          "topics": [
            "0xe4630e6e66d263636ccf946c97182b0edb7bbea539a79dfa121bab7444e83b79",
            "0x0000000000000000000000000000000000000000000000000000000000000000",
            "0x000000000000000000000000ab84c994b364be03018c6528f0f68118f107578a"
          ],
          "data": "0x",
          "blockHash": "0x43e1f1376ded3ff4439701a5ab4fab6146a4bd5e1a340a2c69998cf3630e00db",
          "blockNumber": "0x1421aee",
          "blockTimestamp": "0x69c3d00d",
          "transactionHash": "0x3dd03309f67404c8793c6cb725a5b14aa06deb61289f46eaceed6d41073b597b",
          "transactionIndex": "0x1",
          "logIndex": "0x9",
          "removed": false
        },
        {
          "address": "0xa51a83f0260a83a7f9adfecc1bc93c58def2c9a2",
          "topics": [
            "0xc1ba25a60afffd747fd25304e169131b7ae93932f7f3e508a8cec0e18fa12842",
            "0x0000000000000000000000000000000000000000000000000000000000000000",
            "0x000000000000000000000000ac414205651f4a62b614b6be9e5318a182c33eb0"
          ],
          "data": "0x",
          "blockHash": "0x43e1f1376ded3ff4439701a5ab4fab6146a4bd5e1a340a2c69998cf3630e00db",
          "blockNumber": "0x1421aee",
          "blockTimestamp": "0x69c3d00d",
          "transactionHash": "0x3dd03309f67404c8793c6cb725a5b14aa06deb61289f46eaceed6d41073b597b",
          "transactionIndex": "0x1",
          "logIndex": "0xa",
          "removed": false
        },
        {
          "address": "0xa51a83f0260a83a7f9adfecc1bc93c58def2c9a2",
          "topics": [
            "0x00af8726a3679feb41b28b0996e403259aceb28ec6f3c6c3dc7a4c4fe6c8fce1"
          ],
          "data": "0x00000000000000000000000000000000000000000000000000000000000000000000000000000000000000000000000000000000000000000000000000000001",
          "blockHash": "0x43e1f1376ded3ff4439701a5ab4fab6146a4bd5e1a340a2c69998cf3630e00db",
          "blockNumber": "0x1421aee",
          "blockTimestamp": "0x69c3d00d",
          "transactionHash": "0x3dd03309f67404c8793c6cb725a5b14aa06deb61289f46eaceed6d41073b597b",
          "transactionIndex": "0x1",
          "logIndex": "0xb",
          "removed": false
        },
        {
          "address": "0xa51a83f0260a83a7f9adfecc1bc93c58def2c9a2",
          "topics": [
            "0x8be0079c531659141344cd1fd0a4f28419497f9722a3daafe3b4186f6b6457e0",
            "0x000000000000000000000000d0789560a038eb5d438cc42f86e52d9ece1e69a5",
            "0x0000000000000000000000002738f38fde510743e0c589415e0598c4cee6eaa7"
          ],
          "data": "0x",
          "blockHash": "0x43e1f1376ded3ff4439701a5ab4fab6146a4bd5e1a340a2c69998cf3630e00db",
          "blockNumber": "0x1421aee",
          "blockTimestamp": "0x69c3d00d",
          "transactionHash": "0x3dd03309f67404c8793c6cb725a5b14aa06deb61289f46eaceed6d41073b597b",
          "transactionIndex": "0x1",
          "logIndex": "0xc",
          "removed": false
        },
        {
          "address": "0xa51a83f0260a83a7f9adfecc1bc93c58def2c9a2",
          "topics": [
            "0x7f26b83ff96e1f2b6a682f133852f6798a09c465da95921460cefb3847402498"
          ],
          "data": "0x0000000000000000000000000000000000000000000000000000000000000001",
          "blockHash": "0x43e1f1376ded3ff4439701a5ab4fab6146a4bd5e1a340a2c69998cf3630e00db",
          "blockNumber": "0x1421aee",
          "blockTimestamp": "0x69c3d00d",
          "transactionHash": "0x3dd03309f67404c8793c6cb725a5b14aa06deb61289f46eaceed6d41073b597b",
          "transactionIndex": "0x1",
          "logIndex": "0xd",
          "removed": false
        },
        {
          "address": "0xa51a83f0260a83a7f9adfecc1bc93c58def2c9a2",
          "topics": [
            "0x7e644d79422f17c01e4894b5f4f588d331ebfa28653d42ae832dc59e38c9798f"
          ],
          "data": "0x0000000000000000000000000000000000000000000000000000000000000000000000000000000000000000aad8b67551086609d132178dff1dbe31b3c1c9c2",
          "blockHash": "0x43e1f1376ded3ff4439701a5ab4fab6146a4bd5e1a340a2c69998cf3630e00db",
          "blockNumber": "0x1421aee",
          "blockTimestamp": "0x69c3d00d",
          "transactionHash": "0x3dd03309f67404c8793c6cb725a5b14aa06deb61289f46eaceed6d41073b597b",
          "transactionIndex": "0x1",
          "logIndex": "0xe",
          "removed": false
        },
        {
          "address": "0xba5ed099633d3b313e4d5f7bdc1305d3c28ba5ed",
          "topics": [
            "0x4db17dd5e4732fb6da34a148104a592783ca119a1e7bb8829eba6cbadef0b511",
            "0x000000000000000000000000a51a83f0260a83a7f9adfecc1bc93c58def2c9a2"
          ],
          "data": "0x",
          "blockHash": "0x43e1f1376ded3ff4439701a5ab4fab6146a4bd5e1a340a2c69998cf3630e00db",
          "blockNumber": "0x1421aee",
          "blockTimestamp": "0x69c3d00d",
          "transactionHash": "0x3dd03309f67404c8793c6cb725a5b14aa06deb61289f46eaceed6d41073b597b",
          "transactionIndex": "0x1",
          "logIndex": "0xf",
          "removed": false
        },
        {
          "address": "0x353ed52bf8482027c0e0b9e3c0e5d96a9f680980",
          "topics": [
            "0xcf8e77154e470bf74e2e443ad6193730ed2a7c72279dc06aa8c12daf20c7768e",
            "0x0000000000000000000000005ecc03111ad2a78f981a108759bc73bae2ab31bc",
            "0x000000000000000000000000c304ee1876c32d1a194558b1000be4842f960df9"
          ],
          "data": "0x000000000000000000000000a51a83f0260a83a7f9adfecc1bc93c58def2c9a200000000000000000000000043cb9d6acf1462356303079ea4fdd8bc30042a6a",
          "blockHash": "0x43e1f1376ded3ff4439701a5ab4fab6146a4bd5e1a340a2c69998cf3630e00db",
          "blockNumber": "0x1421aee",
          "blockTimestamp": "0x69c3d00d",
          "transactionHash": "0x3dd03309f67404c8793c6cb725a5b14aa06deb61289f46eaceed6d41073b597b",
          "transactionIndex": "0x1",
          "logIndex": "0x10",
          "removed": false
        }
      ],
      "logsBloom": "0x000200000000020000000080000004204800000000000000008000032000500000000000000200008004000000000010000020000008040000000020080000000020080080000000000000000200020000210400040000000060000000000000000040100200000000a0400000100800000000800122000000000000000400400000080000000000000400000000000008000000020880000004004000800010000002820044000000000000004400000000800000000000000000000010000004000820020000000200080000040010000000002400100020000000000020000000000000000200000000000000000000080080008000000000000000000000",
      "transactionHash": "0x3dd03309f67404c8793c6cb725a5b14aa06deb61289f46eaceed6d41073b597b",
      "transactionIndex": "0x1",
      "blockHash": "0x43e1f1376ded3ff4439701a5ab4fab6146a4bd5e1a340a2c69998cf3630e00db",
      "blockNumber": "0x1421aee",
      "gasUsed": "0x1cd227",
      "effectiveGasPrice": "0x1c7f9bc7ff",
      "from": "0x2738f38fde510743e0c589415e0598c4cee6eaa7",
      "to": "0x353ed52bf8482027c0e0b9e3c0e5d96a9f680980",
      "contractAddress": null
    },
    {
      "type": "0x2",
      "status": "0x1",
      "cumulativeGasUsed": "0x3c01b2",
      "logs": [
        {
          "address": "0x5ecc03111ad2a78f981a108759bc73bae2ab31bc",
          "topics": [
            "0xddf252ad1be2c89b69c2b068fc378daa952ba7f163c4a11628f55a4df523b3ef",
            "0x0000000000000000000000002738f38fde510743e0c589415e0598c4cee6eaa7",
            "0x000000000000000000000000a51a83f0260a83a7f9adfecc1bc93c58def2c9a2"
          ],
          "data": "0x0000000000000000000000000000000000000000000000000ddf55bebcd8a000",
          "blockHash": "0xbccd3e7cd7e127dd233a8ea35d30a3aee05d5fdc6b1b1f6f7d0605b20376667a",
          "blockNumber": "0x1421af3",
          "blockTimestamp": "0x69c3d00f",
          "transactionHash": "0x47ce0b225d8856f20841c0773f95795eea016798d294eb1e86f9a98f9c7a0ff6",
          "transactionIndex": "0x5",
          "logIndex": "0x26",
          "removed": false
        }
      ],
      "logsBloom": "0x00000000000000000000000000000000080000000000000000000000000000000000000000000000800000000000000000000000000000000000002000000000002000000000000004000008000000000000000000000000000000000000000000000000000000000000000000000000000000000000000000000010000000000000000000000000000000000000000000000000000000000000000000000010000000000000000000000000000000001000000000000000000000000200000000000802000000000000000000000000000000000000000000000000000000000000000000000000000000000000000000000000000000000000000000000000",
      "transactionHash": "0x47ce0b225d8856f20841c0773f95795eea016798d294eb1e86f9a98f9c7a0ff6",
      "transactionIndex": "0x5",
      "blockHash": "0xbccd3e7cd7e127dd233a8ea35d30a3aee05d5fdc6b1b1f6f7d0605b20376667a",
      "blockNumber": "0x1421af3",
      "gasUsed": "0x1a439",
      "effectiveGasPrice": "0x1c7f9bc7ff",
      "from": "0x2738f38fde510743e0c589415e0598c4cee6eaa7",
      "to": "0x5ecc03111ad2a78f981a108759bc73bae2ab31bc",
      "contractAddress": null
    },
    {
      "type": "0x2",
      "status": "0x1",
      "cumulativeGasUsed": "0x17056e",
      "logs": [
        {
          "address": "0xc304ee1876c32d1a194558b1000be4842f960df9",
          "topics": [
            "0xddf252ad1be2c89b69c2b068fc378daa952ba7f163c4a11628f55a4df523b3ef",
            "0x0000000000000000000000002738f38fde510743e0c589415e0598c4cee6eaa7",
            "0x000000000000000000000000a51a83f0260a83a7f9adfecc1bc93c58def2c9a2"
          ],
          "data": "0x00000000000000000000000000000000000000000000000000000000000f4240",
          "blockHash": "0x7054df87f6c9dcaa685c2012d157d7b57308a76a53775314d4606d01f8cef808",
          "blockNumber": "0x1421af8",
          "blockTimestamp": "0x69c3d011",
          "transactionHash": "0x370fbeab4445474e0e0185db64bdb3637442e027c01e36ae108ce7bf0949bc19",
          "transactionIndex": "0x3",
          "logIndex": "0x10",
          "removed": false
        }
      ],
      "logsBloom": "0x00000000000000000000000000000000080000100000000000000000000000000000000000000000800000000000000000000000000000000000002000000000002000000000000000000008000000000000000000000000000000000000000000000000000000000000000000000000000000000000000000000010000000000000000000000000000000000000000000000000000000000000000000000010000000000000000000000000000000000000000000000000000040000000000000000802000000000000000000000000000000000000000000000000000000000000000000000000000000000000000000000000000400000000000000000000",
      "transactionHash": "0x370fbeab4445474e0e0185db64bdb3637442e027c01e36ae108ce7bf0949bc19",
      "transactionIndex": "0x3",
      "blockHash": "0x7054df87f6c9dcaa685c2012d157d7b57308a76a53775314d4606d01f8cef808",
      "blockNumber": "0x1421af8",
      "gasUsed": "0x146ea",
      "effectiveGasPrice": "0x1c7f9bc7ff",
      "from": "0x2738f38fde510743e0c589415e0598c4cee6eaa7",
      "to": "0xc304ee1876c32d1a194558b1000be4842f960df9",
      "contractAddress": null
    },
    {
      "type": "0x2",
      "status": "0x1",
      "cumulativeGasUsed": "0x2b5323",
      "logs": [
        {
          "address": "0xa51a83f0260a83a7f9adfecc1bc93c58def2c9a2",
          "topics": [
            "0xddf252ad1be2c89b69c2b068fc378daa952ba7f163c4a11628f55a4df523b3ef",
            "0x0000000000000000000000000000000000000000000000000000000000000000",
            "0x0000000000000000000000000000000000000000000000000000000000000001"
          ],
          "data": "0x00000000000000000000000000000000000000000000000000000000000003e8",
          "blockHash": "0xa870d814de55d4d5efdbb3a53af9c0e534fc29ee22a73a6905d4693f812a4fe1",
          "blockNumber": "0x1421afd",
          "blockTimestamp": "0x69c3d013",
          "transactionHash": "0x0e722a2368e006b54bab541eab2457905672597f532b0a7a541ed671779c3a4e",
          "transactionIndex": "0x3",
          "logIndex": "0x17",
          "removed": false
        },
        {
          "address": "0xa51a83f0260a83a7f9adfecc1bc93c58def2c9a2",
          "topics": [
            "0xddf252ad1be2c89b69c2b068fc378daa952ba7f163c4a11628f55a4df523b3ef",
            "0x0000000000000000000000000000000000000000000000000000000000000000",
            "0x0000000000000000000000002738f38fde510743e0c589415e0598c4cee6eaa7"
          ],
          "data": "0x000000000000000000000000000000000000000000000000000000e8c913f1ca",
          "blockHash": "0xa870d814de55d4d5efdbb3a53af9c0e534fc29ee22a73a6905d4693f812a4fe1",
          "blockNumber": "0x1421afd",
          "blockTimestamp": "0x69c3d013",
          "transactionHash": "0x0e722a2368e006b54bab541eab2457905672597f532b0a7a541ed671779c3a4e",
          "transactionIndex": "0x3",
          "logIndex": "0x18",
          "removed": false
        },
        {
          "address": "0xa51a83f0260a83a7f9adfecc1bc93c58def2c9a2",
          "topics": [
            "0xf71a0e183fe1c86e734de92237976be5699cb46fd28373d6ace2f8eafea2857c"
          ],
          "data": "0x0000000000000000000000000000000000000000000000000ddf55bebcd8a00000000000000000000000000000000000000000000000000000000000000f42400000000000000000000000000000000000000000000000000000000069c3d013",
          "blockHash": "0xa870d814de55d4d5efdbb3a53af9c0e534fc29ee22a73a6905d4693f812a4fe1",
          "blockNumber": "0x1421afd",
          "blockTimestamp": "0x69c3d013",
          "transactionHash": "0x0e722a2368e006b54bab541eab2457905672597f532b0a7a541ed671779c3a4e",
          "transactionIndex": "0x3",
          "logIndex": "0x19",
          "removed": false
        },
        {
          "address": "0xa51a83f0260a83a7f9adfecc1bc93c58def2c9a2",
          "topics": [
            "0xa8137fff86647d8a402117b9c5dbda627f721d3773338fb9678c83e54ed39080",
            "0x0000000000000000000000002738f38fde510743e0c589415e0598c4cee6eaa7",
            "0x0000000000000000000000002738f38fde510743e0c589415e0598c4cee6eaa7"
          ],
          "data": "0x0000000000000000000000000000000000000000000000000ddf55bebcd8a00000000000000000000000000000000000000000000000000000000000000f4240000000000000000000000000000000000000000000000000000000e8c913f1ca",
          "blockHash": "0xa870d814de55d4d5efdbb3a53af9c0e534fc29ee22a73a6905d4693f812a4fe1",
          "blockNumber": "0x1421afd",
          "blockTimestamp": "0x69c3d013",
          "transactionHash": "0x0e722a2368e006b54bab541eab2457905672597f532b0a7a541ed671779c3a4e",
          "transactionIndex": "0x3",
          "logIndex": "0x1a",
          "removed": false
        }
      ],
      "logsBloom": "0x00000000200000000000000000000000000000000000000000000002000000000000000000000000000000000000000000000000080000000000000000040000002000008100000000000008000000000000000000040000000000000000000000000000020000000000000000000800000000000000000000000010000000000000080000000000000000000000000000000000000000000000000000000010000000000000000000000000000000400000000000000000000000000000400000000802000000000000000000000000000000000000000000000000000060000000000000000000000000000000000000000000000000000000000000000000",
      "transactionHash": "0x0e722a2368e006b54bab541eab2457905672597f532b0a7a541ed671779c3a4e",
      "transactionIndex": "0x3",
      "blockHash": "0xa870d814de55d4d5efdbb3a53af9c0e534fc29ee22a73a6905d4693f812a4fe1",
      "blockNumber": "0x1421afd",
      "gasUsed": "0x6b423",
      "effectiveGasPrice": "0x1c7f9bc7ff",
      "from": "0x2738f38fde510743e0c589415e0598c4cee6eaa7",
      "to": "0xa51a83f0260a83a7f9adfecc1bc93c58def2c9a2",
      "contractAddress": null
    },
    {
      "type": "0x2",
      "status": "0x1",
      "cumulativeGasUsed": "0x2ac896",
      "logs": [
        {
          "address": "0xa51a83f0260a83a7f9adfecc1bc93c58def2c9a2",
          "topics": [
            "0x0a59d45890c37e353ebb4ff4a00b4e5002b27b21e3a308daea7646097c12533f",
            "0x0000000000000000000000005ecc03111ad2a78f981a108759bc73bae2ab31bc"
          ],
          "data": "0x0000000000000000000000000000000000000000000000878678326eac90000000000000000000000000000000000000000000000000010f0cf064dd592000000000000000000000000000000000000000000000000000000000000000000012",
          "blockHash": "0x2e60f56bb2c24ef968b7b284695d4aa60c2489d685433854295f6291d4162df5",
          "blockNumber": "0x1421b01",
          "blockTimestamp": "0x69c3d015",
          "transactionHash": "0xf679d9aaee4a16874481ad0f48245e4c3c31b22567816acdc5dc09a337040f56",
          "transactionIndex": "0x4",
          "logIndex": "0x1b",
          "removed": false
        }
      ],
      "logsBloom": "0x00000000000000000000000000000000000000000000000004000002000000000000000000000000000000000000000000002000000000000000000100000000000000008000000000000000000000000000000000000000000000000000000000000000000000000000000000000000000000000002000000000000000000000000080000000000000000000000000000000000000000000000000000000000000000800000000000000000000000000000000000000000000000000000000000000000000000000000000000000000000000000000000000000000010000000000000000000000000000000000000000000000000000000000000000000000",
      "transactionHash": "0xf679d9aaee4a16874481ad0f48245e4c3c31b22567816acdc5dc09a337040f56",
      "transactionIndex": "0x4",
      "blockHash": "0x2e60f56bb2c24ef968b7b284695d4aa60c2489d685433854295f6291d4162df5",
      "blockNumber": "0x1421b01",
      "gasUsed": "0x2baa7",
      "effectiveGasPrice": "0x1c7f9bc7ff",
      "from": "0x2738f38fde510743e0c589415e0598c4cee6eaa7",
      "to": "0xa51a83f0260a83a7f9adfecc1bc93c58def2c9a2",
      "contractAddress": null
    },
    {
      "type": "0x2",
      "status": "0x1",
      "cumulativeGasUsed": "0x88762",
      "logs": [
        {
          "address": "0xa51a83f0260a83a7f9adfecc1bc93c58def2c9a2",
          "topics": [
            "0x0a59d45890c37e353ebb4ff4a00b4e5002b27b21e3a308daea7646097c12533f",
            "0x000000000000000000000000c304ee1876c32d1a194558b1000be4842f960df9"
          ],
          "data": "0x0000000000000000000000000000000000000000000000878678326eac90000000000000000000000000000000000000000000000000010f0cf064dd592000000000000000000000000000000000000000000000000000000000000000000006",
          "blockHash": "0xe264c66b630ba75c147dccbd76c092f06cf6633760d8d55f81bcc33e7f86f1ab",
          "blockNumber": "0x1421b06",
          "blockTimestamp": "0x69c3d017",
          "transactionHash": "0xe4ffe3682caf1ef3e1dba1f9e1948305c5ef04a786046fded13468978a168f1c",
          "transactionIndex": "0x3",
          "logIndex": "0x9",
          "removed": false
        }
      ],
      "logsBloom": "0x00000000000000000000000000000000000000000000000004000002000000000000000000020000000000000000000000000000000000000000000100000000000008008000000000000000000000000000000000000000000000000000000000000000000000000000000000000000000000000000000000000000000000000000080000000000000000000000000000000000000000000000000000000000000000000000000000000000000000000000800000000000000000000000000000000000000000000000000000000000000000000000000000000000010000000000000000000000000000000000000000000000000000000000000000000000",
      "transactionHash": "0xe4ffe3682caf1ef3e1dba1f9e1948305c5ef04a786046fded13468978a168f1c",
      "transactionIndex": "0x3",
      "blockHash": "0xe264c66b630ba75c147dccbd76c092f06cf6633760d8d55f81bcc33e7f86f1ab",
      "blockNumber": "0x1421b06",
      "gasUsed": "0x285ca",
      "effectiveGasPrice": "0x1c7f9bc7ff",
      "from": "0x2738f38fde510743e0c589415e0598c4cee6eaa7",
      "to": "0xa51a83f0260a83a7f9adfecc1bc93c58def2c9a2",
      "contractAddress": null
    },
    {
      "type": "0x2",
      "status": "0x1",
      "cumulativeGasUsed": "0x281538",
      "logs": [
        {
          "address": "0xbcdc1d0b92dfceeaa0fcd0a0d53355f4bf1db8a7",
          "topics": [
            "0x52cceb71b4b81514c72f2311183885dd3a70cca83e7811fa08e9b9937047109d",
            "0x000000000000000000000000c304ee1876c32d1a194558b1000be4842f960df9"
          ],
          "data": "0x",
          "blockHash": "0x2cfcb0f660401f05bff196e9c9ed785710ee509a88e969a84e55e84d19a9e139",
          "blockNumber": "0x1421b0a",
          "blockTimestamp": "0x69c3d018",
          "transactionHash": "0x9ee3672d68fccded75746833dd628059904ed8aeab4b4f7be2986b0619b981ed",
          "transactionIndex": "0x5",
          "logIndex": "0x12",
          "removed": false
        }
      ],
      "logsBloom": "0x00000000004000000000000000000000000000000000000000000000000000000000000000020000000000000000000000000000000000000000000000000000000008000000000000000000000000000000000000000000000000000000000000000000000000000000000000000000000000000000000000000200000000000000000100000000000000000000000000000000000000000000000000000000000000000000080000000000000000000000800000000000000000000000000000000000000000000000000040000800000000000000000000000000000000000000000000000000000000000000000000000000000000000000000000000000",
      "transactionHash": "0x9ee3672d68fccded75746833dd628059904ed8aeab4b4f7be2986b0619b981ed",
      "transactionIndex": "0x5",
      "blockHash": "0x2cfcb0f660401f05bff196e9c9ed785710ee509a88e969a84e55e84d19a9e139",
      "blockNumber": "0x1421b0a",
      "gasUsed": "0x25ea4",
      "effectiveGasPrice": "0x1c7f9bc7ff",
      "from": "0x2738f38fde510743e0c589415e0598c4cee6eaa7",
      "to": "0xbcdc1d0b92dfceeaa0fcd0a0d53355f4bf1db8a7",
      "contractAddress": null
    },
    {
      "type": "0x2",
      "status": "0x1",
      "cumulativeGasUsed": "0x6b305d",
      "logs": [
        {
          "address": "0xa51a83f0260a83a7f9adfecc1bc93c58def2c9a2",
          "topics": [
            "0x133037347700fe9a7e5fffb139c832853fc52536035550fc6bc3b3f6207fd875",
            "0x000000000000000000000000734bb3251ec3f1a83f8f2a8609bcef649d54ebf8"
          ],
          "data": "0x0000000000000000000000000000000000000000000000000000000000000001",
          "blockHash": "0x5d58cbabdfe392c9eff1fffdc2f4748298b47ee9e86494720b72bd935dd6e5d8",
          "blockNumber": "0x1421b0f",
          "blockTimestamp": "0x69c3d01a",
          "transactionHash": "0x29984903fece5146517f0acbdb8093ad584af9f6102d756538681ac3e40f1217",
          "transactionIndex": "0x6",
          "logIndex": "0x1b",
          "removed": false
        }
      ],
      "logsBloom": "0x00000000000000000000000000000000000000000000000000000002000200000000000000000000000000000000000000000000000008000000000000000000000000008000000000000000000000000000000000008000000000000000000000000000000000000000000000000000000000000000000000000000000000000000080000000000000000000000000000000000000000000000000000000000000000000000000000000000000000000000000000000000000000010000000000000000000000000000000000000000000000000000000000000000000000800001000000000000000000000000000000000000000000000000000000000000",
      "transactionHash": "0x29984903fece5146517f0acbdb8093ad584af9f6102d756538681ac3e40f1217",
      "transactionIndex": "0x6",
      "blockHash": "0x5d58cbabdfe392c9eff1fffdc2f4748298b47ee9e86494720b72bd935dd6e5d8",
      "blockNumber": "0x1421b0f",
      "gasUsed": "0x1bc73",
      "effectiveGasPrice": "0x1c7f9bc7ff",
      "from": "0x2738f38fde510743e0c589415e0598c4cee6eaa7",
      "to": "0xa51a83f0260a83a7f9adfecc1bc93c58def2c9a2",
      "contractAddress": null
    },
    {
      "type": "0x2",
      "status": "0x1",
      "cumulativeGasUsed": "0x167cdd",
      "logs": [
        {
          "address": "0x734bb3251ec3f1a83f8f2a8609bcef649d54ebf8",
          "topics": [
            "0x5865b763d2fcaa2023d34f5622fec93cfc34b82e8625c1e622b9a6cb47a69239",
            "0x000000000000000000000000a51a83f0260a83a7f9adfecc1bc93c58def2c9a2"
          ],
          "data": "0x000000000000000000000000a51a83f0260a83a7f9adfecc1bc93c58def2c9a20000000000000000000000005ecc03111ad2a78f981a108759bc73bae2ab31bc000000000000000000000000000000000000000000000000000000000000012c0000000000000000000000002738f38fde510743e0c589415e0598c4cee6eaa70000000000000000000000000000000000000000000000000000000000000000000000000000000000000000000000000000000000000000000000000000000000000000000000000000000000000000000000000000000000000000000000000000000000000000000000000000000000000000000000000000000000000000",
          "blockHash": "0xbd4895a455fed9c1c2e15834b084f76bebb63ec6927f1874ae67883a0591c577",
          "blockNumber": "0x1421b13",
          "blockTimestamp": "0x69c3d01c",
          "transactionHash": "0x65ed135ef459d731b73ecb630889d33ccdf5ac8c0b059cbcfb80660d3ea0cbe0",
          "transactionIndex": "0x2",
          "logIndex": "0xc",
          "removed": false
        }
      ],
      "logsBloom": "0x00000000000000000000000000000000080400000000000000000000000000000000000000200000800000000000000000000000000000000000002000000000000000000000000000000000001000000000000000000000000080000000000000000000000000000000000000000000000000000000000000000000000000000000000000000000000000000000000000000000000000000000000000000000000000000000000000000000000000000000000000000000000000000000000000000000000000000000000000000000000000000000002000000000000000000100000000000000000000000000000000000000000000000000000000000000",
      "transactionHash": "0x65ed135ef459d731b73ecb630889d33ccdf5ac8c0b059cbcfb80660d3ea0cbe0",
      "transactionIndex": "0x2",
      "blockHash": "0xbd4895a455fed9c1c2e15834b084f76bebb63ec6927f1874ae67883a0591c577",
      "blockNumber": "0x1421b13",
      "gasUsed": "0x42d5d",
      "effectiveGasPrice": "0x1c7f9bc7ff",
      "from": "0x2738f38fde510743e0c589415e0598c4cee6eaa7",
      "to": "0x734bb3251ec3f1a83f8f2a8609bcef649d54ebf8",
      "contractAddress": null
    },
    {
      "type": "0x2",
      "status": "0x1",
      "cumulativeGasUsed": "0x1c72b2",
      "logs": [
        {
          "address": "0xba5ed099633d3b313e4d5f7bdc1305d3c28ba5ed",
          "topics": [
            "0x2feea65dd4e9f9cbd86b74b7734210c59a1b2981b5b137bd0ee3e208200c9067",
            "0x000000000000000000000000295987dc0b6368c37f377aa715e2390ff2fd3c58",
            "0xc8fceb34896715f4b58a615b4cb91bac3e0cf746e4bcb8be59a2b64070b12805"
          ],
          "data": "0x",
          "blockHash": "0xf967e3198de6b0979dca5ec363114baf9e5fa0c5a3bfd0ac12a6074b893eaf63",
          "blockNumber": "0x1421b18",
          "blockTimestamp": "0x69c3d01e",
          "transactionHash": "0x3f7f0a0d7d52a7bfa5fcb562b6da88a3c3e7bfc5b3bdda6a90f95af9ac5ec557",
          "transactionIndex": "0x1",
          "logIndex": "0x1",
          "removed": false
        },
        {
          "address": "0xd74728994135734968b03efc03448394bacb1e5f",
          "topics": [
            "0xbc7cd75a20ee27fd9adebab32041f755214dbc6bffa90cc0225b39da2e5c2d3b",
            "0x00000000000000000000000043cb9d6acf1462356303079ea4fdd8bc30042a6a"
          ],
          "data": "0x",
          "blockHash": "0xf967e3198de6b0979dca5ec363114baf9e5fa0c5a3bfd0ac12a6074b893eaf63",
          "blockNumber": "0x1421b18",
          "blockTimestamp": "0x69c3d01e",
          "transactionHash": "0x3f7f0a0d7d52a7bfa5fcb562b6da88a3c3e7bfc5b3bdda6a90f95af9ac5ec557",
          "transactionIndex": "0x1",
          "logIndex": "0x2",
          "removed": false
        },
        {
          "address": "0xd74728994135734968b03efc03448394bacb1e5f",
          "topics": [
            "0x8be0079c531659141344cd1fd0a4f28419497f9722a3daafe3b4186f6b6457e0",
            "0x0000000000000000000000000000000000000000000000000000000000000000",
            "0x000000000000000000000000295987dc0b6368c37f377aa715e2390ff2fd3c58"
          ],
          "data": "0x",
          "blockHash": "0xf967e3198de6b0979dca5ec363114baf9e5fa0c5a3bfd0ac12a6074b893eaf63",
          "blockNumber": "0x1421b18",
          "blockTimestamp": "0x69c3d01e",
          "transactionHash": "0x3f7f0a0d7d52a7bfa5fcb562b6da88a3c3e7bfc5b3bdda6a90f95af9ac5ec557",
          "transactionIndex": "0x1",
          "logIndex": "0x3",
          "removed": false
        },
        {
          "address": "0xd74728994135734968b03efc03448394bacb1e5f",
          "topics": [
            "0xb5d5dda8af4f1e40a5cc4aa66c39ca5aac7f90947261313b07527eb3bdd98bc7"
          ],
          "data": "0x0000000000000000000000000000000000000000000000000000000000000000000000000000000000000000000000000000000000000000000000000000000a",
          "blockHash": "0xf967e3198de6b0979dca5ec363114baf9e5fa0c5a3bfd0ac12a6074b893eaf63",
          "blockNumber": "0x1421b18",
          "blockTimestamp": "0x69c3d01e",
          "transactionHash": "0x3f7f0a0d7d52a7bfa5fcb562b6da88a3c3e7bfc5b3bdda6a90f95af9ac5ec557",
          "transactionIndex": "0x1",
          "logIndex": "0x4",
          "removed": false
        },
        {
          "address": "0xd74728994135734968b03efc03448394bacb1e5f",
          "topics": [
            "0xd3890fc76afcfc31cba1dcf2c27b50e2541e4d75039c981855b5b5e03682aea0",
            "0x0000000000000000000000000000000000000000000000000000000000000000",
            "0x0000000000000000000000002738f38fde510743e0c589415e0598c4cee6eaa7"
          ],
          "data": "0x",
          "blockHash": "0xf967e3198de6b0979dca5ec363114baf9e5fa0c5a3bfd0ac12a6074b893eaf63",
          "blockNumber": "0x1421b18",
          "blockTimestamp": "0x69c3d01e",
          "transactionHash": "0x3f7f0a0d7d52a7bfa5fcb562b6da88a3c3e7bfc5b3bdda6a90f95af9ac5ec557",
          "transactionIndex": "0x1",
          "logIndex": "0x5",
          "removed": false
        },
        {
          "address": "0xd74728994135734968b03efc03448394bacb1e5f",
          "topics": [
            "0xb404cac19fb1cbeff98d325795b08886e3cd8fe8cb1a2f193aac66f13fb239c3"
          ],
          "data": "0x00000000000000000000000000000000000000000000000000000000000000000000000000000000000000000000000000000000000000000000000000000005",
          "blockHash": "0xf967e3198de6b0979dca5ec363114baf9e5fa0c5a3bfd0ac12a6074b893eaf63",
          "blockNumber": "0x1421b18",
          "blockTimestamp": "0x69c3d01e",
          "transactionHash": "0x3f7f0a0d7d52a7bfa5fcb562b6da88a3c3e7bfc5b3bdda6a90f95af9ac5ec557",
          "transactionIndex": "0x1",
          "logIndex": "0x6",
          "removed": false
        },
        {
          "address": "0xd74728994135734968b03efc03448394bacb1e5f",
          "topics": [
            "0xb273226859e3e49fd86c9ac8f721eaa74e677de0877db704918e0f43ec8d23bc"
          ],
          "data": "0x00000000000000000000000000000000000000000000000000000000000000000000000000000000000000000000000000000000000000000000000000000006",
          "blockHash": "0xf967e3198de6b0979dca5ec363114baf9e5fa0c5a3bfd0ac12a6074b893eaf63",
          "blockNumber": "0x1421b18",
          "blockTimestamp": "0x69c3d01e",
          "transactionHash": "0x3f7f0a0d7d52a7bfa5fcb562b6da88a3c3e7bfc5b3bdda6a90f95af9ac5ec557",
          "transactionIndex": "0x1",
          "logIndex": "0x7",
          "removed": false
        },
        {
          "address": "0xd74728994135734968b03efc03448394bacb1e5f",
          "topics": [
            "0x77c5ddba87b3d3f970242eda9bb1263ade9e4aed3eca233d5fa1af00a574b025"
          ],
          "data": "0x0000000000000000000000000000000000000000000000000000000000000000000000000000000000000000000000000000000000000000000000000000000000000000000000000000000000000000000000000000000000000000000013880000000000000000000000000000000000000000000000000000000000000d05",
          "blockHash": "0xf967e3198de6b0979dca5ec363114baf9e5fa0c5a3bfd0ac12a6074b893eaf63",
          "blockNumber": "0x1421b18",
          "blockTimestamp": "0x69c3d01e",
          "transactionHash": "0x3f7f0a0d7d52a7bfa5fcb562b6da88a3c3e7bfc5b3bdda6a90f95af9ac5ec557",
          "transactionIndex": "0x1",
          "logIndex": "0x8",
          "removed": false
        },
        {
          "address": "0xd74728994135734968b03efc03448394bacb1e5f",
          "topics": [
            "0xe4630e6e66d263636ccf946c97182b0edb7bbea539a79dfa121bab7444e83b79",
            "0x0000000000000000000000000000000000000000000000000000000000000000",
            "0x00000000000000000000000026eff54e2f0e8825996b83119b7df5ef2c882dd7"
          ],
          "data": "0x",
          "blockHash": "0xf967e3198de6b0979dca5ec363114baf9e5fa0c5a3bfd0ac12a6074b893eaf63",
          "blockNumber": "0x1421b18",
          "blockTimestamp": "0x69c3d01e",
          "transactionHash": "0x3f7f0a0d7d52a7bfa5fcb562b6da88a3c3e7bfc5b3bdda6a90f95af9ac5ec557",
          "transactionIndex": "0x1",
          "logIndex": "0x9",
          "removed": false
        },
        {
          "address": "0xd74728994135734968b03efc03448394bacb1e5f",
          "topics": [
            "0xc1ba25a60afffd747fd25304e169131b7ae93932f7f3e508a8cec0e18fa12842",
            "0x0000000000000000000000000000000000000000000000000000000000000000",
            "0x000000000000000000000000ec57482aa55e3ad026c315a0e4a692b776c318ca"
          ],
          "data": "0x",
          "blockHash": "0xf967e3198de6b0979dca5ec363114baf9e5fa0c5a3bfd0ac12a6074b893eaf63",
          "blockNumber": "0x1421b18",
          "blockTimestamp": "0x69c3d01e",
          "transactionHash": "0x3f7f0a0d7d52a7bfa5fcb562b6da88a3c3e7bfc5b3bdda6a90f95af9ac5ec557",
          "transactionIndex": "0x1",
          "logIndex": "0xa",
          "removed": false
        },
        {
          "address": "0xd74728994135734968b03efc03448394bacb1e5f",
          "topics": [
            "0x00af8726a3679feb41b28b0996e403259aceb28ec6f3c6c3dc7a4c4fe6c8fce1"
          ],
          "data": "0x00000000000000000000000000000000000000000000000000000000000000000000000000000000000000000000000000000000000000000000000000000001",
          "blockHash": "0xf967e3198de6b0979dca5ec363114baf9e5fa0c5a3bfd0ac12a6074b893eaf63",
          "blockNumber": "0x1421b18",
          "blockTimestamp": "0x69c3d01e",
          "transactionHash": "0x3f7f0a0d7d52a7bfa5fcb562b6da88a3c3e7bfc5b3bdda6a90f95af9ac5ec557",
          "transactionIndex": "0x1",
          "logIndex": "0xb",
          "removed": false
        },
        {
          "address": "0xd74728994135734968b03efc03448394bacb1e5f",
          "topics": [
            "0x8be0079c531659141344cd1fd0a4f28419497f9722a3daafe3b4186f6b6457e0",
            "0x000000000000000000000000295987dc0b6368c37f377aa715e2390ff2fd3c58",
            "0x0000000000000000000000002738f38fde510743e0c589415e0598c4cee6eaa7"
          ],
          "data": "0x",
          "blockHash": "0xf967e3198de6b0979dca5ec363114baf9e5fa0c5a3bfd0ac12a6074b893eaf63",
          "blockNumber": "0x1421b18",
          "blockTimestamp": "0x69c3d01e",
          "transactionHash": "0x3f7f0a0d7d52a7bfa5fcb562b6da88a3c3e7bfc5b3bdda6a90f95af9ac5ec557",
          "transactionIndex": "0x1",
          "logIndex": "0xc",
          "removed": false
        },
        {
          "address": "0xd74728994135734968b03efc03448394bacb1e5f",
          "topics": [
            "0x7f26b83ff96e1f2b6a682f133852f6798a09c465da95921460cefb3847402498"
          ],
          "data": "0x0000000000000000000000000000000000000000000000000000000000000001",
          "blockHash": "0xf967e3198de6b0979dca5ec363114baf9e5fa0c5a3bfd0ac12a6074b893eaf63",
          "blockNumber": "0x1421b18",
          "blockTimestamp": "0x69c3d01e",
          "transactionHash": "0x3f7f0a0d7d52a7bfa5fcb562b6da88a3c3e7bfc5b3bdda6a90f95af9ac5ec557",
          "transactionIndex": "0x1",
          "logIndex": "0xd",
          "removed": false
        },
        {
          "address": "0xd74728994135734968b03efc03448394bacb1e5f",
          "topics": [
            "0x7e644d79422f17c01e4894b5f4f588d331ebfa28653d42ae832dc59e38c9798f"
          ],
          "data": "0x0000000000000000000000000000000000000000000000000000000000000000000000000000000000000000aad8b67551086609d132178dff1dbe31b3c1c9c2",
          "blockHash": "0xf967e3198de6b0979dca5ec363114baf9e5fa0c5a3bfd0ac12a6074b893eaf63",
          "blockNumber": "0x1421b18",
          "blockTimestamp": "0x69c3d01e",
          "transactionHash": "0x3f7f0a0d7d52a7bfa5fcb562b6da88a3c3e7bfc5b3bdda6a90f95af9ac5ec557",
          "transactionIndex": "0x1",
          "logIndex": "0xe",
          "removed": false
        },
        {
          "address": "0xba5ed099633d3b313e4d5f7bdc1305d3c28ba5ed",
          "topics": [
            "0x4db17dd5e4732fb6da34a148104a592783ca119a1e7bb8829eba6cbadef0b511",
            "0x000000000000000000000000d74728994135734968b03efc03448394bacb1e5f"
          ],
          "data": "0x",
          "blockHash": "0xf967e3198de6b0979dca5ec363114baf9e5fa0c5a3bfd0ac12a6074b893eaf63",
          "blockNumber": "0x1421b18",
          "blockTimestamp": "0x69c3d01e",
          "transactionHash": "0x3f7f0a0d7d52a7bfa5fcb562b6da88a3c3e7bfc5b3bdda6a90f95af9ac5ec557",
          "transactionIndex": "0x1",
          "logIndex": "0xf",
          "removed": false
        },
        {
          "address": "0x353ed52bf8482027c0e0b9e3c0e5d96a9f680980",
          "topics": [
            "0xcf8e77154e470bf74e2e443ad6193730ed2a7c72279dc06aa8c12daf20c7768e",
            "0x0000000000000000000000005ecc03111ad2a78f981a108759bc73bae2ab31bc",
            "0x000000000000000000000000666d0a83cdbf3ec62bdb624d9bfcd8f6345ba7d0"
          ],
          "data": "0x000000000000000000000000d74728994135734968b03efc03448394bacb1e5f00000000000000000000000043cb9d6acf1462356303079ea4fdd8bc30042a6a",
          "blockHash": "0xf967e3198de6b0979dca5ec363114baf9e5fa0c5a3bfd0ac12a6074b893eaf63",
          "blockNumber": "0x1421b18",
          "blockTimestamp": "0x69c3d01e",
          "transactionHash": "0x3f7f0a0d7d52a7bfa5fcb562b6da88a3c3e7bfc5b3bdda6a90f95af9ac5ec557",
          "transactionIndex": "0x1",
          "logIndex": "0x10",
          "removed": false
        }
      ],
      "logsBloom": "0x00020000000002000000008000000420400000000000000000800001200010000000000200000000000400000001001000002000000804001000800000000000003010001000000000000000020042000001040000000000006800000000040000004018020008800000000000100800000000800122000000000000000000400200000000000000000400000000000008000000020880000004004000800010000002820044000000000000000400000000000000000000000000000010800000000820020000000200080000040010000000002400000020000000000024020000000000000200000000000000004400080080000000000010008000000000",
      "transactionHash": "0x3f7f0a0d7d52a7bfa5fcb562b6da88a3c3e7bfc5b3bdda6a90f95af9ac5ec557",
      "transactionIndex": "0x1",
      "blockHash": "0xf967e3198de6b0979dca5ec363114baf9e5fa0c5a3bfd0ac12a6074b893eaf63",
      "blockNumber": "0x1421b18",
      "gasUsed": "0x1c72b2",
      "effectiveGasPrice": "0x1c7f9bc7ff",
      "from": "0x2738f38fde510743e0c589415e0598c4cee6eaa7",
      "to": "0x353ed52bf8482027c0e0b9e3c0e5d96a9f680980",
      "contractAddress": null
    },
    {
      "type": "0x2",
      "status": "0x1",
      "cumulativeGasUsed": "0x17622a",
      "logs": [
        {
          "address": "0x5ecc03111ad2a78f981a108759bc73bae2ab31bc",
          "topics": [
            "0xddf252ad1be2c89b69c2b068fc378daa952ba7f163c4a11628f55a4df523b3ef",
            "0x0000000000000000000000002738f38fde510743e0c589415e0598c4cee6eaa7",
            "0x000000000000000000000000d74728994135734968b03efc03448394bacb1e5f"
          ],
          "data": "0x0000000000000000000000000000000000000000000000001016e4532e055000",
          "blockHash": "0x485c0945e7f6210922595f5ad10c4f59dc81c82a1cfca6fbb9b48a740ad2adc7",
          "blockNumber": "0x1421b1b",
          "blockTimestamp": "0x69c3d020",
          "transactionHash": "0xd074f760cceb7bb465fbeaf5ef4b9c01c75179d7a693169170d25bbc2929e2ef",
          "transactionIndex": "0x3",
          "logIndex": "0x10",
          "removed": false
        }
      ],
      "logsBloom": "0x00000000000000000000000000000000000000000000000000000000000000000000000000000000000000000000000000000000000000000000000000000000003010000000000004000008000000000000000000000000000000000000000000000000000000000000000000000000000000000000000000000010000000000000000000000000000000000000000000000000000000000000000000000010000000000000000000000000000000001000000000000000000000000200000000000802000000000000000000000000000000000000000000000000000000020000000000000000000000000000000000000000000000000000000000000000",
      "transactionHash": "0xd074f760cceb7bb465fbeaf5ef4b9c01c75179d7a693169170d25bbc2929e2ef",
      "transactionIndex": "0x3",
      "blockHash": "0x485c0945e7f6210922595f5ad10c4f59dc81c82a1cfca6fbb9b48a740ad2adc7",
      "blockNumber": "0x1421b1b",
      "gasUsed": "0x1a439",
      "effectiveGasPrice": "0x1c7f9bc7ff",
      "from": "0x2738f38fde510743e0c589415e0598c4cee6eaa7",
      "to": "0x5ecc03111ad2a78f981a108759bc73bae2ab31bc",
      "contractAddress": null
    },
    {
      "type": "0x2",
      "status": "0x1",
      "cumulativeGasUsed": "0x51323",
      "logs": [
        {
          "address": "0x666d0a83cdbf3ec62bdb624d9bfcd8f6345ba7d0",
          "topics": [
            "0xddf252ad1be2c89b69c2b068fc378daa952ba7f163c4a11628f55a4df523b3ef",
            "0x0000000000000000000000002738f38fde510743e0c589415e0598c4cee6eaa7",
            "0x000000000000000000000000d74728994135734968b03efc03448394bacb1e5f"
          ],
          "data": "0x0000000000000000000000000000000000000000000000000de0b6b3a7640000",
          "blockHash": "0xe0a3fb2cc378e181a5474095dedf869424a2b036845d09446cf924548922e502",
          "blockNumber": "0x1421b1f",
          "blockTimestamp": "0x69c3d021",
          "transactionHash": "0xf51ab1e64f4681115fdadfe4f0a133ec45fd6e2f1260ea080c3f7d5885a18cbb",
          "transactionIndex": "0x2",
          "logIndex": "0x5",
          "removed": false
        }
      ],
      "logsBloom": "0x00000000000000000000000000000000000000000000000000000000000000000000000000000000000000000000000000000000000000000000000000000000003010000000000000000008000000000000000000000000000000000000000000000000000000000000000000000000000000000000000000000010000000000000000000008000000000000000000000000000010000000000000000000010000000000000000000000000000000000000000000000400000000000000000000000802000000000000000000000000000000000000000000000000000000020000000000000000000000000000000000000000000000000000000000000000",
      "transactionHash": "0xf51ab1e64f4681115fdadfe4f0a133ec45fd6e2f1260ea080c3f7d5885a18cbb",
      "transactionIndex": "0x2",
      "blockHash": "0xe0a3fb2cc378e181a5474095dedf869424a2b036845d09446cf924548922e502",
      "blockNumber": "0x1421b1f",
      "gasUsed": "0x1a42a",
      "effectiveGasPrice": "0x1c7f9bc7ff",
      "from": "0x2738f38fde510743e0c589415e0598c4cee6eaa7",
      "to": "0x666d0a83cdbf3ec62bdb624d9bfcd8f6345ba7d0",
      "contractAddress": null
    },
    {
      "type": "0x2",
      "status": "0x1",
      "cumulativeGasUsed": "0x6e203",
      "logs": [
        {
          "address": "0xd74728994135734968b03efc03448394bacb1e5f",
          "topics": [
            "0xddf252ad1be2c89b69c2b068fc378daa952ba7f163c4a11628f55a4df523b3ef",
            "0x0000000000000000000000000000000000000000000000000000000000000000",
            "0x0000000000000000000000000000000000000000000000000000000000000001"
          ],
          "data": "0x00000000000000000000000000000000000000000000000000000000000003e8",
          "blockHash": "0x185fb8725b61f4bc7ac2817b68a8f1182ca52fb7a9971ed3d873600af9a8d1de",
          "blockNumber": "0x1421b20",
          "blockTimestamp": "0x69c3d022",
          "transactionHash": "0xc5e6df9922180f18c03db4a013189e410b75c14dfafbfcb56ba0c82e08633784",
          "transactionIndex": "0x1",
          "logIndex": "0x1",
          "removed": false
        },
        {
          "address": "0xd74728994135734968b03efc03448394bacb1e5f",
          "topics": [
            "0xddf252ad1be2c89b69c2b068fc378daa952ba7f163c4a11628f55a4df523b3ef",
            "0x0000000000000000000000000000000000000000000000000000000000000000",
            "0x0000000000000000000000002738f38fde510743e0c589415e0598c4cee6eaa7"
          ],
          "data": "0x0000000000000000000000000000000000000000000000000ef1579fca465e44",
          "blockHash": "0x185fb8725b61f4bc7ac2817b68a8f1182ca52fb7a9971ed3d873600af9a8d1de",
          "blockNumber": "0x1421b20",
          "blockTimestamp": "0x69c3d022",
          "transactionHash": "0xc5e6df9922180f18c03db4a013189e410b75c14dfafbfcb56ba0c82e08633784",
          "transactionIndex": "0x1",
          "logIndex": "0x2",
          "removed": false
        },
        {
          "address": "0xd74728994135734968b03efc03448394bacb1e5f",
          "topics": [
            "0xf71a0e183fe1c86e734de92237976be5699cb46fd28373d6ace2f8eafea2857c"
          ],
          "data": "0x0000000000000000000000000000000000000000000000001016e4532e0550000000000000000000000000000000000000000000000000000de0b6b3a76400000000000000000000000000000000000000000000000000000000000069c3d022",
          "blockHash": "0x185fb8725b61f4bc7ac2817b68a8f1182ca52fb7a9971ed3d873600af9a8d1de",
          "blockNumber": "0x1421b20",
          "blockTimestamp": "0x69c3d022",
          "transactionHash": "0xc5e6df9922180f18c03db4a013189e410b75c14dfafbfcb56ba0c82e08633784",
          "transactionIndex": "0x1",
          "logIndex": "0x3",
          "removed": false
        },
        {
          "address": "0xd74728994135734968b03efc03448394bacb1e5f",
          "topics": [
            "0xa8137fff86647d8a402117b9c5dbda627f721d3773338fb9678c83e54ed39080",
            "0x0000000000000000000000002738f38fde510743e0c589415e0598c4cee6eaa7",
            "0x0000000000000000000000002738f38fde510743e0c589415e0598c4cee6eaa7"
          ],
          "data": "0x0000000000000000000000000000000000000000000000001016e4532e0550000000000000000000000000000000000000000000000000000de0b6b3a76400000000000000000000000000000000000000000000000000000ef1579fca465e44",
          "blockHash": "0x185fb8725b61f4bc7ac2817b68a8f1182ca52fb7a9971ed3d873600af9a8d1de",
          "blockNumber": "0x1421b20",
          "blockTimestamp": "0x69c3d022",
          "transactionHash": "0xc5e6df9922180f18c03db4a013189e410b75c14dfafbfcb56ba0c82e08633784",
          "transactionIndex": "0x1",
          "logIndex": "0x4",
          "removed": false
        }
      ],
      "logsBloom": "0x00000000200000000000000000000000000000000000000000000000000000000000000000000000000000000000000000000000080000000000000000040000002000000100000000000008000000000000000000040000000000000000040000000000020000800000000000000800000000000000000000000010000000000000000000000000000000000000000000000000000000000000000000000010000000000000000000000000000000400000000000000000000000000000c00000000802000000000000000000000000000000000000000000000000000060000000000000000000000000000000000000000000000000000000000000000000",
      "transactionHash": "0xc5e6df9922180f18c03db4a013189e410b75c14dfafbfcb56ba0c82e08633784",
      "transactionIndex": "0x1",
      "blockHash": "0x185fb8725b61f4bc7ac2817b68a8f1182ca52fb7a9971ed3d873600af9a8d1de",
      "blockNumber": "0x1421b20",
      "gasUsed": "0x6e203",
      "effectiveGasPrice": "0x1c7f9bc7ff",
      "from": "0x2738f38fde510743e0c589415e0598c4cee6eaa7",
      "to": "0xd74728994135734968b03efc03448394bacb1e5f",
      "contractAddress": null
    },
    {
      "type": "0x2",
      "status": "0x1",
      "cumulativeGasUsed": "0x18798d",
      "logs": [
        {
          "address": "0xd74728994135734968b03efc03448394bacb1e5f",
          "topics": [
            "0x0a59d45890c37e353ebb4ff4a00b4e5002b27b21e3a308daea7646097c12533f",
            "0x0000000000000000000000005ecc03111ad2a78f981a108759bc73bae2ab31bc"
          ],
          "data": "0x00000000000000000000000000000000000000000000000d8d726b7177a8000000000000000000000000000000000000000000000000003635c9adc5dea000000000000000000000000000000000000000000000000000000000000000000012",
          "blockHash": "0x5d055473fa2519dd15ed0a43f02ba0b8d5e09150e446f594510422385b5f5997",
          "blockNumber": "0x1421b24",
          "blockTimestamp": "0x69c3d023",
          "transactionHash": "0x41097d61e1f426ce503d9e1c0c5d39a3da00bace41ccb7b0fe5ba92bde64add3",
          "transactionIndex": "0x3",
          "logIndex": "0x10",
          "removed": false
        }
      ],
      "logsBloom": "0x00000000000000000000000000000000000000000000000004000000000000000000000000000000000000000000000000002000000000000000000100000000000000000000000000000000000000000000000000000000000000000000040000000000000000800000000000000000000000000002000000000000000000000000000000000000000000000000000000000000000000000000000000000000000000800000000000000000000000000000000000000000000000000000800000000000000000000000000000000000000000000000000000000000010000000000000000000000000000000000000000000000000000000000000000000000",
      "transactionHash": "0x41097d61e1f426ce503d9e1c0c5d39a3da00bace41ccb7b0fe5ba92bde64add3",
      "transactionIndex": "0x3",
      "blockHash": "0x5d055473fa2519dd15ed0a43f02ba0b8d5e09150e446f594510422385b5f5997",
      "blockNumber": "0x1421b24",
      "gasUsed": "0x2baa7",
      "effectiveGasPrice": "0x1c7f9bc7ff",
      "from": "0x2738f38fde510743e0c589415e0598c4cee6eaa7",
      "to": "0xd74728994135734968b03efc03448394bacb1e5f",
      "contractAddress": null
    },
    {
      "type": "0x2",
      "status": "0x1",
      "cumulativeGasUsed": "0x6534b",
      "logs": [
        {
          "address": "0xd74728994135734968b03efc03448394bacb1e5f",
          "topics": [
            "0x0a59d45890c37e353ebb4ff4a00b4e5002b27b21e3a308daea7646097c12533f",
            "0x000000000000000000000000666d0a83cdbf3ec62bdb624d9bfcd8f6345ba7d0"
          ],
          "data": "0x00000000000000000000000000000000000000000000000ba7b970e194fc000000000000000000000000000000000000000000000000002e9ee5c38653f000000000000000000000000000000000000000000000000000000000000000000012",
          "blockHash": "0xd93cb047df8700bb4cce6ee8144878911bd0c6354977d70944d8b2d776c225cb",
          "blockNumber": "0x1421b28",
          "blockTimestamp": "0x69c3d025",
          "transactionHash": "0xc6c63812e53066f8dcc6594e98071ce0f9350791688e90db80560cff7f7e8073",
          "transactionIndex": "0x2",
          "logIndex": "0x5",
          "removed": false
        }
      ],
      "logsBloom": "0x00000000000000000000000000000000000000000000000004000000000000000000000000000000000000000000000000000000000000000000000100000000000000000000000000000000000000000000000000000000000000000000040000000000000008800000000000000000000000000000000000000000000000000000000000000000000000000000000000000000000000000000000000000000000000000000000000000000000000000000000000000000000000000000800000000000000000000000000000000000000000000000000000000000010000000000000000000000000000000000000400000000000000000010000000000000",
      "transactionHash": "0xc6c63812e53066f8dcc6594e98071ce0f9350791688e90db80560cff7f7e8073",
      "transactionIndex": "0x2",
      "blockHash": "0xd93cb047df8700bb4cce6ee8144878911bd0c6354977d70944d8b2d776c225cb",
      "blockNumber": "0x1421b28",
      "gasUsed": "0x2e46a",
      "effectiveGasPrice": "0x1c7f9bc7ff",
      "from": "0x2738f38fde510743e0c589415e0598c4cee6eaa7",
      "to": "0xd74728994135734968b03efc03448394bacb1e5f",
      "contractAddress": null
    },
    {
      "type": "0x2",
      "status": "0x1",
      "cumulativeGasUsed": "0x177b8b",
      "logs": [
        {
          "address": "0xd74728994135734968b03efc03448394bacb1e5f",
          "topics": [
            "0x133037347700fe9a7e5fffb139c832853fc52536035550fc6bc3b3f6207fd875",
            "0x000000000000000000000000ccd2ad0603a08ebc14d223a983171ef18192e8c9"
          ],
          "data": "0x0000000000000000000000000000000000000000000000000000000000000001",
          "blockHash": "0x532d4256149bc5e5ff0ec116a664b47de77fe3114afd1c6afe549cdf05cf8201",
          "blockNumber": "0x1421b29",
          "blockTimestamp": "0x69c3d025",
          "transactionHash": "0xcbdae5a53f7f7ce97b347e090f3dce342ba5a848a4a0d837f7fa43e9fc2c2850",
          "transactionIndex": "0x3",
          "logIndex": "0x10",
          "removed": false
        }
      ],
      "logsBloom": "0x00000000000000000000000000000000000000000000000000000000000000000000000000000000000000000000000000000000000008000000000000000000000000000000000000000000000000000000000000000020000000000000040000000000000000800000000008000000000000000000000000000000000000000000000000000000000000000000000000000000000000000000000000000000000000000000000000000000000000000000000000000000000000000000800000000000000000000000000000000000000000000000000400000000000000800001000000000000000000000000000000000000000000000000000000000000",
      "transactionHash": "0xcbdae5a53f7f7ce97b347e090f3dce342ba5a848a4a0d837f7fa43e9fc2c2850",
      "transactionIndex": "0x3",
      "blockHash": "0x532d4256149bc5e5ff0ec116a664b47de77fe3114afd1c6afe549cdf05cf8201",
      "blockNumber": "0x1421b29",
      "gasUsed": "0x1bc73",
      "effectiveGasPrice": "0x1c7f9bc7ff",
      "from": "0x2738f38fde510743e0c589415e0598c4cee6eaa7",
      "to": "0xd74728994135734968b03efc03448394bacb1e5f",
      "contractAddress": null
    },
    {
      "type": "0x2",
      "status": "0x1",
      "cumulativeGasUsed": "0x493d7",
      "logs": [
        {
          "address": "0xccd2ad0603a08ebc14d223a983171ef18192e8c9",
          "topics": [
            "0x5865b763d2fcaa2023d34f5622fec93cfc34b82e8625c1e622b9a6cb47a69239",
            "0x000000000000000000000000d74728994135734968b03efc03448394bacb1e5f"
          ],
          "data": "0x000000000000000000000000d74728994135734968b03efc03448394bacb1e5f0000000000000000000000005ecc03111ad2a78f981a108759bc73bae2ab31bc000000000000000000000000000000000000000000000000000000000000012c0000000000000000000000002738f38fde510743e0c589415e0598c4cee6eaa70000000000000000000000000000000000000000000000000001c6bf5263400000000000000000000000000000000000000000000000000000000000000000000000000000000000000000000000000000000000000000000001c6bf526340000000000000000000000000000000000000000000000000000000000000000000",
          "blockHash": "0xe4c8fccc0636b5e209677155033a5e06bb71a66395b93004bc9b2ebe53988a88",
          "blockNumber": "0x1421b2d",
          "blockTimestamp": "0x69c3d027",
          "transactionHash": "0x336afc1bb6afef0b6170d910f1ba73037f990a55587ffc0f8c691974334cb103",
          "transactionIndex": "0x1",
          "logIndex": "0x1",
          "removed": false
        }
      ],
      "logsBloom": "0x00000000000000000000000000000000000400000040000000000000000000000000000000000000000000000000000000000000400000000000000000000000001010000000000000000000000000000000000000000000000080000000000000000000000000000000000000000000000000000000000000000000000000000000000000000000000000000000000000000000000000000000000000000000000000000000000000000000000000000000000000004000000000000000000000000000000000000000000000000000000000000000002000000000000000020000000000000000000000000000000000000000000000000000000000000000",
      "transactionHash": "0x336afc1bb6afef0b6170d910f1ba73037f990a55587ffc0f8c691974334cb103",
      "transactionIndex": "0x1",
      "blockHash": "0xe4c8fccc0636b5e209677155033a5e06bb71a66395b93004bc9b2ebe53988a88",
      "blockNumber": "0x1421b2d",
      "gasUsed": "0x493d7",
      "effectiveGasPrice": "0x1c7f9bc7ff",
      "from": "0x2738f38fde510743e0c589415e0598c4cee6eaa7",
      "to": "0xccd2ad0603a08ebc14d223a983171ef18192e8c9",
      "contractAddress": null
    }
  ],
  "libraries": [
    "lib/mento-core/node_modules/@celo/contracts/common/linkedlists/AddressSortedLinkedListWithMedian.sol:AddressSortedLinkedListWithMedian:0x8E1B1312EC92C9f8073296c4Cf1E60D31d228269"
  ],
  "pending": [],
  "returns": {},
  "timestamp": 1774440489003,
  "chain": 10143,
  "commit": "7041277"
}