{
  "transactions": [
    {
      "hash": "0xfecec5dc8ac033721d1ca81e984a9b9f4676e87626aef08226b8f05ade9a9c59",
      "transactionType": "CALL",
      "contractName": null,
      "contractAddress": "0x353ed52bf8482027c0e0b9e3c0e5d96a9f680980",
      "function": "deployFPMM(address,address,address,address,address,address,address,bool,(uint256,uint256,address,address,uint256,uint256,uint256))",
      "arguments": [
        "0x43cB9D6AcF1462356303079EA4FDd8bc30042a6A",
        "0x26eFF54e2f0E8825996b83119b7Df5ef2C882dD7",
        "0xaad8b67551086609D132178dfF1dBE31b3c1C9C2",
        "0x2738F38Fde510743e0c589415E0598C4ceE6eAa7",
        "0x04de554E875c9797dC4ceBd834A9e99fa8fD5Df9",
        "0x5eCc03111ad2A78F981A108759bc73BAE2AB31bc",
        "0xEA4103A6A122fbe2cDb07A80d4d293be07bb29Fa",
        "false",
        "(10, 5, 0x2738F38Fde510743e0c589415E0598C4ceE6eAa7, 0x2738F38Fde510743e0c589415E0598C4ceE6eAa7, 6, 5000, 3333)"
      ],
      "transaction": {
        "from": "0x2738f38fde510743e0c589415e0598c4cee6eaa7",
        "to": "0x353ed52bf8482027c0e0b9e3c0e5d96a9f680980",
        "gas": "0x1ccad9",
        "value": "0x0",
        "input": "0x098a676e00000000000000000000000043cb9d6acf1462356303079ea4fdd8bc30042a6a00000000000000000000000026eff54e2f0e8825996b83119b7df5ef2c882dd7000000000000000000000000aad8b67551086609d132178dff1dbe31b3c1c9c20000000000000000000000002738f38fde510743e0c589415e0598c4cee6eaa700000000000000000000000004de554e875c9797dc4cebd834a9e99fa8fd5df90000000000000000000000005ecc03111ad2a78f981a108759bc73bae2ab31bc000000000000000000000000ea4103a6a122fbe2cdb07a80d4d293be07bb29fa0000000000000000000000000000000000000000000000000000000000000000000000000000000000000000000000000000000000000000000000000000000a00000000000000000000000000000000000000000000000000000000000000050000000000000000000000002738f38fde510743e0c589415e0598c4cee6eaa70000000000000000000000002738f38fde510743e0c589415e0598c4cee6eaa7000000000000000000000000000000000000000000000000000000000000000600000000000000000000000000000000000000000000000000000000000013880000000000000000000000000000000000000000000000000000000000000d05",
        "nonce": "0x6f",
        "chainId": "0x279f"
      },
      "additionalContracts": [
        {
          "transactionType": "CREATE2",
          "contractName": null,
          "address": "0xd9e9e6f6b5298e8bad390f7748035c49d6eeb055",
          "initCode": "0x67363d3d37363d34f03d5260086018f3"
        },
        {
          "transactionType": "CREATE",
          "contractName": "FPMMProxy",
          "address": "0x550d9ecb4c373510b8a41f5fb7d98e9e1c51a07e",
          "initCode": "0x608060405260405162000dfa38038062000dfa83398101604081905262000026916200041b565b82828282816200003882825f62000052565b506200004690508262000083565b50505050505062000546565b6200005d83620000f4565b5f825111806200006a5750805b156200007e576200007c838362000135565b505b505050565b7f7e644d79422f17c01e4894b5f4f588d331ebfa28653d42ae832dc59e38c9798f620000c45f8051602062000db3833981519152546001600160a01b031690565b604080516001600160a01b03928316815291841660208301520160405180910390a1620000f18162000164565b50565b620000ff8162000201565b6040516001600160a01b038216907fbc7cd75a20ee27fd9adebab32041f755214dbc6bffa90cc0225b39da2e5c2d3b905f90a250565b60606200015d838360405180606001604052806027815260200162000dd36027913962000298565b9392505050565b6001600160a01b038116620001cf5760405162461bcd60e51b815260206004820152602660248201527f455243313936373a206e65772061646d696e20697320746865207a65726f206160448201526564647265737360d01b60648201526084015b60405180910390fd5b805f8051602062000db38339815191525b80546001600160a01b0319166001600160a01b039290921691909117905550565b6001600160a01b0381163b620002705760405162461bcd60e51b815260206004820152602d60248201527f455243313936373a206e657720696d706c656d656e746174696f6e206973206e60448201526c1bdd08184818dbdb9d1c9858dd609a1b6064820152608401620001c6565b807f360894a13ba1a3210667c828492db98dca3e2076cc3735a920a3ca505d382bbc620001e0565b60605f80856001600160a01b031685604051620002b69190620004f5565b5f60405180830381855af49150503d805f8114620002f0576040519150601f19603f3d011682016040523d82523d5f602084013e620002f5565b606091505b509092509050620003098683838762000313565b9695505050505050565b60608315620003865782515f036200037e576001600160a01b0385163b6200037e5760405162461bcd60e51b815260206004820152601d60248201527f416464726573733a2063616c6c20746f206e6f6e2d636f6e74726163740000006044820152606401620001c6565b508162000392565b6200039283836200039a565b949350505050565b815115620003ab5781518083602001fd5b8060405162461bcd60e51b8152600401620001c6919062000512565b80516001600160a01b0381168114620003de575f80fd5b919050565b634e487b7160e01b5f52604160045260245ffd5b5f5b8381101562000413578181015183820152602001620003f9565b50505f910152565b5f805f606084860312156200042e575f80fd5b6200043984620003c7565b92506200044960208501620003c7565b60408501519092506001600160401b038082111562000466575f80fd5b818601915086601f8301126200047a575f80fd5b8151818111156200048f576200048f620003e3565b604051601f8201601f19908116603f01168101908382118183101715620004ba57620004ba620003e3565b81604052828152896020848701011115620004d3575f80fd5b620004e6836020830160208801620003f7565b80955050505050509250925092565b5f825162000508818460208701620003f7565b9190910192915050565b602081525f825180602084015262000532816040850160208701620003f7565b601f01601f19169190910160400192915050565b61085f80620005545f395ff3fe60806040523661001357610011610017565b005b6100115b61001f610168565b6001600160a01b0316330361015e5760606001600160e01b03195f35166364d3180d60e11b81016100595761005261019a565b9150610156565b63587086bd60e11b6001600160e01b0319821601610079576100526101ed565b63070d7c6960e41b6001600160e01b031982160161009957610052610231565b621eb96f60e61b6001600160e01b03198216016100b857610052610261565b63a39f25e560e01b6001600160e01b03198216016100d8576100526102a0565b60405162461bcd60e51b815260206004820152604260248201527f5472616e73706172656e745570677261646561626c6550726f78793a2061646d60448201527f696e2063616e6e6f742066616c6c6261636b20746f2070726f78792074617267606482015261195d60f21b608482015260a4015b60405180910390fd5b815160208301f35b6101666102b3565b565b5f7fb53127684a568b3173ae13b9f8a6016e243e63b6e8ee1178d6a717850b5d61035b546001600160a01b0316919050565b60606101a46102c3565b5f6101b23660048184610668565b8101906101bf91906106aa565b90506101da8160405180602001604052805f8152505f6102cd565b505060408051602081019091525f815290565b60605f806101fe3660048184610668565b81019061020b91906106d7565b9150915061021b828260016102cd565b60405180602001604052805f8152509250505090565b606061023b6102c3565b5f6102493660048184610668565b81019061025691906106aa565b90506101da816102f8565b606061026b6102c3565b5f610274610168565b604080516001600160a01b03831660208201529192500160405160208183030381529060405291505090565b60606102aa6102c3565b5f61027461034f565b6101666102be61034f565b61035d565b3415610166575f80fd5b6102d68361037b565b5f825111806102e25750805b156102f3576102f183836103ba565b505b505050565b7f7e644d79422f17c01e4894b5f4f588d331ebfa28653d42ae832dc59e38c9798f610321610168565b604080516001600160a01b03928316815291841660208301520160405180910390a161034c816103e6565b50565b5f61035861048f565b905090565b365f80375f80365f845af43d5f803e808015610377573d5ff35b3d5ffd5b610384816104b6565b6040516001600160a01b038216907fbc7cd75a20ee27fd9adebab32041f755214dbc6bffa90cc0225b39da2e5c2d3b905f90a250565b60606103df83836040518060600160405280602781526020016108036027913961054a565b9392505050565b6001600160a01b03811661044b5760405162461bcd60e51b815260206004820152602660248201527f455243313936373a206e65772061646d696e20697320746865207a65726f206160448201526564647265737360d01b606482015260840161014d565b807fb53127684a568b3173ae13b9f8a6016e243e63b6e8ee1178d6a717850b5d61035b80546001600160a01b0319166001600160a01b039290921691909117905550565b5f7f360894a13ba1a3210667c828492db98dca3e2076cc3735a920a3ca505d382bbc61018b565b6001600160a01b0381163b6105235760405162461bcd60e51b815260206004820152602d60248201527f455243313936373a206e657720696d706c656d656e746174696f6e206973206e60448201526c1bdd08184818dbdb9d1c9858dd609a1b606482015260840161014d565b807f360894a13ba1a3210667c828492db98dca3e2076cc3735a920a3ca505d382bbc61046e565b60605f80856001600160a01b03168560405161056691906107b5565b5f60405180830381855af49150503d805f811461059e576040519150601f19603f3d011682016040523d82523d5f602084013e6105a3565b606091505b50915091506105b4868383876105be565b9695505050505050565b6060831561062c5782515f03610625576001600160a01b0385163b6106255760405162461bcd60e51b815260206004820152601d60248201527f416464726573733a2063616c6c20746f206e6f6e2d636f6e7472616374000000604482015260640161014d565b5081610636565b610636838361063e565b949350505050565b81511561064e5781518083602001fd5b8060405162461bcd60e51b815260040161014d91906107d0565b5f8085851115610676575f80fd5b83861115610682575f80fd5b5050820193919092039150565b80356001600160a01b03811681146106a5575f80fd5b919050565b5f602082840312156106ba575f80fd5b6103df8261068f565b634e487b7160e01b5f52604160045260245ffd5b5f80604083850312156106e8575f80fd5b6106f18361068f565b9150602083013567ffffffffffffffff8082111561070d575f80fd5b818501915085601f830112610720575f80fd5b813581811115610732576107326106c3565b604051601f8201601f19908116603f0116810190838211818310171561075a5761075a6106c3565b81604052828152886020848701011115610772575f80fd5b826020860160208301375f6020848301015280955050505050509250929050565b5f5b838110156107ad578181015183820152602001610795565b50505f910152565b5f82516107c6818460208701610793565b9190910192915050565b602081525f82518060208401526107ee816040850160208701610793565b601f01601f1916919091016040019291505056fe416464726573733a206c6f772d6c6576656c2064656c65676174652063616c6c206661696c6564a2646970667358221220aa20ce4dcf96a82424f9529b6c241425d2e02b65a5499bdb8a4cd0e1a346515264736f6c63430008180033b53127684a568b3173ae13b9f8a6016e243e63b6e8ee1178d6a717850b5d6103416464726573733a206c6f772d6c6576656c2064656c65676174652063616c6c206661696c656400000000000000000000000043cb9d6acf1462356303079ea4fdd8bc30042a6a000000000000000000000000aad8b67551086609d132178dff1dbe31b3c1c9c2000000000000000000000000000000000000000000000000000000000000006000000000000000000000000000000000000000000000000000000000000001a4c20a9ca500000000000000000000000004de554e875c9797dc4cebd834a9e99fa8fd5df90000000000000000000000005ecc03111ad2a78f981a108759bc73bae2ab31bc00000000000000000000000026eff54e2f0e8825996b83119b7df5ef2c882dd7000000000000000000000000ea4103a6a122fbe2cdb07a80d4d293be07bb29fa00000000000000000000000000000000000000000000000000000000000000000000000000000000000000002738f38fde510743e0c589415e0598c4cee6eaa7000000000000000000000000000000000000000000000000000000000000000a00000000000000000000000000000000000000000000000000000000000000050000000000000000000000002738f38fde510743e0c589415e0598c4cee6eaa70000000000000000000000002738f38fde510743e0c589415e0598c4cee6eaa7000000000000000000000000000000000000000000000000000000000000000600000000000000000000000000000000000000000000000000000000000013880000000000000000000000000000000000000000000000000000000000000d0500000000000000000000000000000000000000000000000000000000"
        }
      ],
      "isFixedGasLimit": false
    },
    {
      "hash": "0x6bfb21a4f7c1abba129948188150abca1e45f1c2c87d046ab949ef68d135d3f1",
      "transactionType": "CALL",
      "contractName": null,
      "contractAddress": "0x04de554e875c9797dc4cebd834a9e99fa8fd5df9",
      "function": "transfer(address,uint256)",
      "arguments": [
        "0x550D9EcB4C373510b8A41f5fB7D98E9E1c51A07e",
        "743080066877206018"
      ],
      "transaction": {
        "from": "0x2738f38fde510743e0c589415e0598c4cee6eaa7",
        "to": "0x04de554e875c9797dc4cebd834a9e99fa8fd5df9",
        "gas": "0x1a449",
        "value": "0x0",
        "input": "0xa9059cbb000000000000000000000000550d9ecb4c373510b8a41f5fb7d98e9e1c51a07e0000000000000000000000000000000000000000000000000a4ff36241e3ae02",
        "nonce": "0x70",
        "chainId": "0x279f"
      },
      "additionalContracts": [],
      "isFixedGasLimit": false
    },
    {
      "hash": "0x800519fb1c59d375682bc53726aaa85c833249ae132ad998c64871b240a611d5",
      "transactionType": "CALL",
      "contractName": null,
      "contractAddress": "0x5ecc03111ad2a78f981a108759bc73bae2ab31bc",
      "function": "transfer(address,uint256)",
      "arguments": [
        "0x550D9EcB4C373510b8A41f5fB7D98E9E1c51A07e",
        "1000000000000000000"
      ],
      "transaction": {
        "from": "0x2738f38fde510743e0c589415e0598c4cee6eaa7",
        "to": "0x5ecc03111ad2a78f981a108759bc73bae2ab31bc",
        "gas": "0x1a42a",
        "value": "0x0",
        "input": "0xa9059cbb000000000000000000000000550d9ecb4c373510b8a41f5fb7d98e9e1c51a07e0000000000000000000000000000000000000000000000000de0b6b3a7640000",
        "nonce": "0x71",
        "chainId": "0x279f"
      },
      "additionalContracts": [],
      "isFixedGasLimit": false
    },
    {
      "hash": "0xc380fb80d29df87c14f333c621b0d318a8520e3ff7d2d06db8b6051b961c3188",
      "transactionType": "CALL",
      "contractName": "FPMMProxy",
      "contractAddress": "0x550d9ecb4c373510b8a41f5fb7d98e9e1c51a07e",
      "function": null,
      "arguments": null,
      "transaction": {
        "from": "0x2738f38fde510743e0c589415e0598c4cee6eaa7",
        "to": "0x550d9ecb4c373510b8a41f5fb7d98e9e1c51a07e",
        "gas": "0x703a",
        "value": "0x0",
        "input": "0x6a6278420000000000000000000000002738f38fde510743e0c589415e0598c4cee6eaa7",
        "nonce": "0x72",
        "chainId": "0x279f"
      },
      "additionalContracts": [],
      "isFixedGasLimit": false
    },
    {
      "hash": "0x89387f145a6cca7fedf158fc144c0ca26b9cda197b32c9f6ba70191a6f69c2b7",
      "transactionType": "CALL",
      "contractName": "FPMMProxy",
      "contractAddress": "0x550d9ecb4c373510b8a41f5fb7d98e9e1c51a07e",
      "function": null,
      "arguments": null,
      "transaction": {
        "from": "0x2738f38fde510743e0c589415e0598c4cee6eaa7",
        "to": "0x550d9ecb4c373510b8a41f5fb7d98e9e1c51a07e",
        "gas": "0x75eb",
        "value": "0x0",
        "input": "0xda7ddb8f00000000000000000000000004de554e875c9797dc4cebd834a9e99fa8fd5df900000000000000000000000000000000000000000000104e2da94483f6200000000000000000000000000000000000000000000000005186e44e5693cea00000",
        "nonce": "0x73",
        "chainId": "0x279f"
      },
      "additionalContracts": [],
      "isFixedGasLimit": false
    },
    {
      "hash": "0x934e77a0c34465e0966e6bdd02ed3fe2207574e669f6c98b3d242f4a630bac79",
      "transactionType": "CALL",
      "contractName": "FPMMProxy",
      "contractAddress": "0x550d9ecb4c373510b8a41f5fb7d98e9e1c51a07e",
      "function": null,
      "arguments": null,
      "transaction": {
        "from": "0x2738f38fde510743e0c589415e0598c4cee6eaa7",
        "to": "0x550d9ecb4c373510b8a41f5fb7d98e9e1c51a07e",
        "gas": "0x75eb",
        "value": "0x0",
        "input": "0xda7ddb8f0000000000000000000000005ecc03111ad2a78f981a108759bc73bae2ab31bc00000000000000000000000000000000000000000000152d02c7e14af68000000000000000000000000000000000000000000000000069e10de76676d0800000",
        "nonce": "0x74",
        "chainId": "0x279f"
      },
      "additionalContracts": [],
      "isFixedGasLimit": false
    },
    {
      "hash": "0x1faeaf03e4f599b6f767da916e8584fef6e574cf51d9d46f28476d8d3e7614a1",
      "transactionType": "CALL",
      "contractName": "FPMMProxy",
      "contractAddress": "0x550d9ecb4c373510b8a41f5fb7d98e9e1c51a07e",
      "function": null,
      "arguments": null,
      "transaction": {
        "from": "0x2738f38fde510743e0c589415e0598c4cee6eaa7",
        "to": "0x550d9ecb4c373510b8a41f5fb7d98e9e1c51a07e",
        "gas": "0x72a3",
        "value": "0x0",
        "input": "0xcce441a3000000000000000000000000ccd2ad0603a08ebc14d223a983171ef18192e8c90000000000000000000000000000000000000000000000000000000000000001",
        "nonce": "0x75",
        "chainId": "0x279f"
      },
      "additionalContracts": [],
      "isFixedGasLimit": false
    },
    {
      "hash": "0x5beda87da4567c172d8b00f9bc62d1b0cf8d1e67f75ac5a6116d51faaf763933",
      "transactionType": "CALL",
      "contractName": null,
      "contractAddress": "0xccd2ad0603a08ebc14d223a983171ef18192e8c9",
      "function": "addPool((address,address,uint32,address,uint64,uint64,uint64,uint64))",
      "arguments": [
        "(0x550D9EcB4C373510b8A41f5fB7D98E9E1c51A07e, 0x04de554E875c9797dC4ceBd834A9e99fa8fD5Df9, 300, 0x2738F38Fde510743e0c589415E0598C4ceE6eAa7, 500000000000000, 0, 500000000000000, 0)"
      ],
      "transaction": {
        "from": "0x2738f38fde510743e0c589415e0598c4cee6eaa7",
        "to": "0xccd2ad0603a08ebc14d223a983171ef18192e8c9",
        "gas": "0x36cb0",
        "value": "0x0",
        "input": "0x2d3d3638000000000000000000000000550d9ecb4c373510b8a41f5fb7d98e9e1c51a07e00000000000000000000000004de554e875c9797dc4cebd834a9e99fa8fd5df9000000000000000000000000000000000000000000000000000000000000012c0000000000000000000000002738f38fde510743e0c589415e0598c4cee6eaa70000000000000000000000000000000000000000000000000001c6bf5263400000000000000000000000000000000000000000000000000000000000000000000000000000000000000000000000000000000000000000000001c6bf526340000000000000000000000000000000000000000000000000000000000000000000",
        "nonce": "0x76",
        "chainId": "0x279f"
      },
      "additionalContracts": [],
      "isFixedGasLimit": false
    },
    {
      "hash": "0x557a452e6dc146463786cbdb2b722a26ea519dd1c9eaf2a8fac6a9ca5c392e37",
      "transactionType": "CALL",
      "contractName": null,
      "contractAddress": "0x353ed52bf8482027c0e0b9e3c0e5d96a9f680980",
      "function": "deployFPMM(address,address,address,address,address,address,address,bool,(uint256,uint256,address,address,uint256,uint256,uint256))",
      "arguments": [
        "0x43cB9D6AcF1462356303079EA4FDd8bc30042a6A",
        "0x26eFF54e2f0E8825996b83119b7Df5ef2C882dD7",
        "0xaad8b67551086609D132178dfF1dBE31b3c1C9C2",
        "0x2738F38Fde510743e0c589415E0598C4ceE6eAa7",
        "0x534b2f3A21130d7a60830c2Df862319e593943A3",
        "0x5eCc03111ad2A78F981A108759bc73BAE2AB31bc",
        "0x81a313Ff894BFC6093d33b5514E34D7FAA41B7eF",
        "false",
        "(3, 2, 0x2738F38Fde510743e0c589415E0598C4ceE6eAa7, 0x2738F38Fde510743e0c589415E0598C4ceE6eAa7, 1, 5000, 3333)"
      ],
      "transaction": {
        "from": "0x2738f38fde510743e0c589415e0598c4cee6eaa7",
        "to": "0x353ed52bf8482027c0e0b9e3c0e5d96a9f680980",
        "gas": "0x1d539f",
        "value": "0x0",
        "input": "0x098a676e00000000000000000000000043cb9d6acf1462356303079ea4fdd8bc30042a6a00000000000000000000000026eff54e2f0e8825996b83119b7df5ef2c882dd7000000000000000000000000aad8b67551086609d132178dff1dbe31b3c1c9c20000000000000000000000002738f38fde510743e0c589415e0598c4cee6eaa7000000000000000000000000534b2f3a21130d7a60830c2df862319e593943a30000000000000000000000005ecc03111ad2a78f981a108759bc73bae2ab31bc00000000000000000000000081a313ff894bfc6093d33b5514e34d7faa41b7ef0000000000000000000000000000000000000000000000000000000000000000000000000000000000000000000000000000000000000000000000000000000300000000000000000000000000000000000000000000000000000000000000020000000000000000000000002738f38fde510743e0c589415e0598c4cee6eaa70000000000000000000000002738f38fde510743e0c589415e0598c4cee6eaa7000000000000000000000000000000000000000000000000000000000000000100000000000000000000000000000000000000000000000000000000000013880000000000000000000000000000000000000000000000000000000000000d05",
        "nonce": "0x77",
        "chainId": "0x279f"
      },
      "additionalContracts": [
        {
          "transactionType": "CREATE2",
          "contractName": null,
          "address": "0x1229e8a7b266c6db52712ba5c6899a6c4c3025cd",
          "initCode": "0x67363d3d37363d34f03d5260086018f3"
        },
        {
          "transactionType": "CREATE",
          "contractName": "FPMMProxy",
          "address": "0x7109e0a9b4623e90755b7e5c4e10f089e5bf8bdb",
          "initCode": "0x608060405260405162000dfa38038062000dfa83398101604081905262000026916200041b565b82828282816200003882825f62000052565b506200004690508262000083565b50505050505062000546565b6200005d83620000f4565b5f825111806200006a5750805b156200007e576200007c838362000135565b505b505050565b7f7e644d79422f17c01e4894b5f4f588d331ebfa28653d42ae832dc59e38c9798f620000c45f8051602062000db3833981519152546001600160a01b031690565b604080516001600160a01b03928316815291841660208301520160405180910390a1620000f18162000164565b50565b620000ff8162000201565b6040516001600160a01b038216907fbc7cd75a20ee27fd9adebab32041f755214dbc6bffa90cc0225b39da2e5c2d3b905f90a250565b60606200015d838360405180606001604052806027815260200162000dd36027913962000298565b9392505050565b6001600160a01b038116620001cf5760405162461bcd60e51b815260206004820152602660248201527f455243313936373a206e65772061646d696e20697320746865207a65726f206160448201526564647265737360d01b60648201526084015b60405180910390fd5b805f8051602062000db38339815191525b80546001600160a01b0319166001600160a01b039290921691909117905550565b6001600160a01b0381163b620002705760405162461bcd60e51b815260206004820152602d60248201527f455243313936373a206e657720696d706c656d656e746174696f6e206973206e60448201526c1bdd08184818dbdb9d1c9858dd609a1b6064820152608401620001c6565b807f360894a13ba1a3210667c828492db98dca3e2076cc3735a920a3ca505d382bbc620001e0565b60605f80856001600160a01b031685604051620002b69190620004f5565b5f60405180830381855af49150503d805f8114620002f0576040519150601f19603f3d011682016040523d82523d5f602084013e620002f5565b606091505b509092509050620003098683838762000313565b9695505050505050565b60608315620003865782515f036200037e576001600160a01b0385163b6200037e5760405162461bcd60e51b815260206004820152601d60248201527f416464726573733a2063616c6c20746f206e6f6e2d636f6e74726163740000006044820152606401620001c6565b508162000392565b6200039283836200039a565b949350505050565b815115620003ab5781518083602001fd5b8060405162461bcd60e51b8152600401620001c6919062000512565b80516001600160a01b0381168114620003de575f80fd5b919050565b634e487b7160e01b5f52604160045260245ffd5b5f5b8381101562000413578181015183820152602001620003f9565b50505f910152565b5f805f606084860312156200042e575f80fd5b6200043984620003c7565b92506200044960208501620003c7565b60408501519092506001600160401b038082111562000466575f80fd5b818601915086601f8301126200047a575f80fd5b8151818111156200048f576200048f620003e3565b604051601f8201601f19908116603f01168101908382118183101715620004ba57620004ba620003e3565b81604052828152896020848701011115620004d3575f80fd5b620004e6836020830160208801620003f7565b80955050505050509250925092565b5f825162000508818460208701620003f7565b9190910192915050565b602081525f825180602084015262000532816040850160208701620003f7565b601f01601f19169190910160400192915050565b61085f80620005545f395ff3fe60806040523661001357610011610017565b005b6100115b61001f610168565b6001600160a01b0316330361015e5760606001600160e01b03195f35166364d3180d60e11b81016100595761005261019a565b9150610156565b63587086bd60e11b6001600160e01b0319821601610079576100526101ed565b63070d7c6960e41b6001600160e01b031982160161009957610052610231565b621eb96f60e61b6001600160e01b03198216016100b857610052610261565b63a39f25e560e01b6001600160e01b03198216016100d8576100526102a0565b60405162461bcd60e51b815260206004820152604260248201527f5472616e73706172656e745570677261646561626c6550726f78793a2061646d60448201527f696e2063616e6e6f742066616c6c6261636b20746f2070726f78792074617267606482015261195d60f21b608482015260a4015b60405180910390fd5b815160208301f35b6101666102b3565b565b5f7fb53127684a568b3173ae13b9f8a6016e243e63b6e8ee1178d6a717850b5d61035b546001600160a01b0316919050565b60606101a46102c3565b5f6101b23660048184610668565b8101906101bf91906106aa565b90506101da8160405180602001604052805f8152505f6102cd565b505060408051602081019091525f815290565b60605f806101fe3660048184610668565b81019061020b91906106d7565b9150915061021b828260016102cd565b60405180602001604052805f8152509250505090565b606061023b6102c3565b5f6102493660048184610668565b81019061025691906106aa565b90506101da816102f8565b606061026b6102c3565b5f610274610168565b604080516001600160a01b03831660208201529192500160405160208183030381529060405291505090565b60606102aa6102c3565b5f61027461034f565b6101666102be61034f565b61035d565b3415610166575f80fd5b6102d68361037b565b5f825111806102e25750805b156102f3576102f183836103ba565b505b505050565b7f7e644d79422f17c01e4894b5f4f588d331ebfa28653d42ae832dc59e38c9798f610321610168565b604080516001600160a01b03928316815291841660208301520160405180910390a161034c816103e6565b50565b5f61035861048f565b905090565b365f80375f80365f845af43d5f803e808015610377573d5ff35b3d5ffd5b610384816104b6565b6040516001600160a01b038216907fbc7cd75a20ee27fd9adebab32041f755214dbc6bffa90cc0225b39da2e5c2d3b905f90a250565b60606103df83836040518060600160405280602781526020016108036027913961054a565b9392505050565b6001600160a01b03811661044b5760405162461bcd60e51b815260206004820152602660248201527f455243313936373a206e65772061646d696e20697320746865207a65726f206160448201526564647265737360d01b606482015260840161014d565b807fb53127684a568b3173ae13b9f8a6016e243e63b6e8ee1178d6a717850b5d61035b80546001600160a01b0319166001600160a01b039290921691909117905550565b5f7f360894a13ba1a3210667c828492db98dca3e2076cc3735a920a3ca505d382bbc61018b565b6001600160a01b0381163b6105235760405162461bcd60e51b815260206004820152602d60248201527f455243313936373a206e657720696d706c656d656e746174696f6e206973206e60448201526c1bdd08184818dbdb9d1c9858dd609a1b606482015260840161014d565b807f360894a13ba1a3210667c828492db98dca3e2076cc3735a920a3ca505d382bbc61046e565b60605f80856001600160a01b03168560405161056691906107b5565b5f60405180830381855af49150503d805f811461059e576040519150601f19603f3d011682016040523d82523d5f602084013e6105a3565b606091505b50915091506105b4868383876105be565b9695505050505050565b6060831561062c5782515f03610625576001600160a01b0385163b6106255760405162461bcd60e51b815260206004820152601d60248201527f416464726573733a2063616c6c20746f206e6f6e2d636f6e7472616374000000604482015260640161014d565b5081610636565b610636838361063e565b949350505050565b81511561064e5781518083602001fd5b8060405162461bcd60e51b815260040161014d91906107d0565b5f8085851115610676575f80fd5b83861115610682575f80fd5b5050820193919092039150565b80356001600160a01b03811681146106a5575f80fd5b919050565b5f602082840312156106ba575f80fd5b6103df8261068f565b634e487b7160e01b5f52604160045260245ffd5b5f80604083850312156106e8575f80fd5b6106f18361068f565b9150602083013567ffffffffffffffff8082111561070d575f80fd5b818501915085601f830112610720575f80fd5b813581811115610732576107326106c3565b604051601f8201601f19908116603f0116810190838211818310171561075a5761075a6106c3565b81604052828152886020848701011115610772575f80fd5b826020860160208301375f6020848301015280955050505050509250929050565b5f5b838110156107ad578181015183820152602001610795565b50505f910152565b5f82516107c6818460208701610793565b9190910192915050565b602081525f82518060208401526107ee816040850160208701610793565b601f01601f1916919091016040019291505056fe416464726573733a206c6f772d6c6576656c2064656c65676174652063616c6c206661696c6564a2646970667358221220aa20ce4dcf96a82424f9529b6c241425d2e02b65a5499bdb8a4cd0e1a346515264736f6c63430008180033b53127684a568b3173ae13b9f8a6016e243e63b6e8ee1178d6a717850b5d6103416464726573733a206c6f772d6c6576656c2064656c65676174652063616c6c206661696c656400000000000000000000000043cb9d6acf1462356303079ea4fdd8bc30042a6a000000000000000000000000aad8b67551086609d132178dff1dbe31b3c1c9c2000000000000000000000000000000000000000000000000000000000000006000000000000000000000000000000000000000000000000000000000000001a4c20a9ca5000000000000000000000000534b2f3a21130d7a60830c2df862319e593943a30000000000000000000000005ecc03111ad2a78f981a108759bc73bae2ab31bc00000000000000000000000026eff54e2f0e8825996b83119b7df5ef2c882dd700000000000000000000000081a313ff894bfc6093d33b5514e34d7faa41b7ef00000000000000000000000000000000000000000000000000000000000000000000000000000000000000002738f38fde510743e0c589415e0598c4cee6eaa7000000000000000000000000000000000000000000000000000000000000000300000000000000000000000000000000000000000000000000000000000000020000000000000000000000002738f38fde510743e0c589415e0598c4cee6eaa70000000000000000000000002738f38fde510743e0c589415e0598c4cee6eaa7000000000000000000000000000000000000000000000000000000000000000100000000000000000000000000000000000000000000000000000000000013880000000000000000000000000000000000000000000000000000000000000d0500000000000000000000000000000000000000000000000000000000"
        }
      ],
      "isFixedGasLimit": false
    },
    {
      "hash": "0xfe10a7ddc2345bfc5888f716f92659027ce612ff1971d0bcb9fe122f495b8ba3",
      "transactionType": "CALL",
      "contractName": null,
      "contractAddress": "0x534b2f3a21130d7a60830c2df862319e593943a3",
      "function": "transfer(address,uint256)",
      "arguments": [
        "0x7109E0A9B4623e90755b7e5c4e10F089E5Bf8bDb",
        "1000000"
      ],
      "transaction": {
        "from": "0x2738f38fde510743e0c589415e0598c4cee6eaa7",
        "to": "0x534b2f3a21130d7a60830c2df862319e593943a3",
        "gas": "0x1fef0",
        "value": "0x0",
        "input": "0xa9059cbb0000000000000000000000007109e0a9b4623e90755b7e5c4e10f089e5bf8bdb00000000000000000000000000000000000000000000000000000000000f4240",
        "nonce": "0x78",
        "chainId": "0x279f"
      },
      "additionalContracts": [],
      "isFixedGasLimit": false
    },
    {
      "hash": "0x7b1bce8c920cf765c96408ac53fc4c0058b722d741b7ace2e29af7fa94a681bd",
      "transactionType": "CALL",
      "contractName": null,
      "contractAddress": "0x5ecc03111ad2a78f981a108759bc73bae2ab31bc",
      "function": "transfer(address,uint256)",
      "arguments": [
        "0x7109E0A9B4623e90755b7e5c4e10F089E5Bf8bDb",
        "1000000000000000000"
      ],
      "transaction": {
        "from": "0x2738f38fde510743e0c589415e0598c4cee6eaa7",
        "to": "0x5ecc03111ad2a78f981a108759bc73bae2ab31bc",
        "gas": "0x1a42a",
        "value": "0x0",
        "input": "0xa9059cbb0000000000000000000000007109e0a9b4623e90755b7e5c4e10f089e5bf8bdb0000000000000000000000000000000000000000000000000de0b6b3a7640000",
        "nonce": "0x79",
        "chainId": "0x279f"
      },
      "additionalContracts": [],
      "isFixedGasLimit": false
    },
    {
      "hash": "0xcf76175162d917a04dd337b9a8aaa1fe3337507dae3de785d3dba8cdeb0d1f01",
      "transactionType": "CALL",
      "contractName": "FPMMProxy",
      "contractAddress": "0x7109e0a9b4623e90755b7e5c4e10f089e5bf8bdb",
      "function": null,
      "arguments": null,
      "transaction": {
        "from": "0x2738f38fde510743e0c589415e0598c4cee6eaa7",
        "to": "0x7109e0a9b4623e90755b7e5c4e10f089e5bf8bdb",
        "gas": "0x703a",
        "value": "0x0",
        "input": "0x6a6278420000000000000000000000002738f38fde510743e0c589415e0598c4cee6eaa7",
        "nonce": "0x7a",
        "chainId": "0x279f"
      },
      "additionalContracts": [],
      "isFixedGasLimit": false
    },
    {
      "hash": "0x03e8a245c3893a8f554feaa0fbd4668400bb5b54a921cadff7fd7b782bc63e17",
      "transactionType": "CALL",
      "contractName": "FPMMProxy",
      "contractAddress": "0x7109e0a9b4623e90755b7e5c4e10f089e5bf8bdb",
      "function": null,
      "arguments": null,
      "transaction": {
        "from": "0x2738f38fde510743e0c589415e0598c4cee6eaa7",
        "to": "0x7109e0a9b4623e90755b7e5c4e10f089e5bf8bdb",
        "gas": "0x758c",
        "value": "0x0",
        "input": "0xda7ddb8f000000000000000000000000534b2f3a21130d7a60830c2df862319e593943a300000000000000000000000000000000000000000000000000000246139ca8000000000000000000000000000000000000000000000000000000048c27395000",
        "nonce": "0x7b",
        "chainId": "0x279f"
      },
      "additionalContracts": [],
      "isFixedGasLimit": false
    },
    {
      "hash": "0xea8c7272adf9e11f5f3638ec8139faab529ae038906dec6515b374f2a7f6d5be",
      "transactionType": "CALL",
      "contractName": "FPMMProxy",
      "contractAddress": "0x7109e0a9b4623e90755b7e5c4e10f089e5bf8bdb",
      "function": null,
      "arguments": null,
      "transaction": {
        "from": "0x2738f38fde510743e0c589415e0598c4cee6eaa7",
        "to": "0x7109e0a9b4623e90755b7e5c4e10f089e5bf8bdb",
        "gas": "0x75db",
        "value": "0x0",
        "input": "0xda7ddb8f0000000000000000000000005ecc03111ad2a78f981a108759bc73bae2ab31bc00000000000000000000000000000000000000000002116545850052128000000000000000000000000000000000000000000000000422ca8b0a00a425000000",
        "nonce": "0x7c",
        "chainId": "0x279f"
      },
      "additionalContracts": [],
      "isFixedGasLimit": false
    },
    {
      "hash": "0x673b740bfe393e395067493413f08ae86e307e762b4af4cdc2e46d51db4c3ea0",
      "transactionType": "CALL",
      "contractName": null,
      "contractAddress": "0xbcdc1d0b92dfceeaa0fcd0a0d53355f4bf1db8a7",
      "function": "registerStableAsset(address)",
      "arguments": [
        "0x5eCc03111ad2A78F981A108759bc73BAE2AB31bc"
      ],
      "transaction": {
        "from": "0x2738f38fde510743e0c589415e0598c4cee6eaa7",
        "to": "0xbcdc1d0b92dfceeaa0fcd0a0d53355f4bf1db8a7",
        "gas": "0x2b5e1",
        "value": "0x0",
        "input": "0xee71f7d50000000000000000000000005ecc03111ad2a78f981a108759bc73bae2ab31bc",
        "nonce": "0x7d",
        "chainId": "0x279f"
      },
      "additionalContracts": [],
      "isFixedGasLimit": false
    },
    {
      "hash": "0xc4fb08dd5407cac70c07be9b94f5599b61f670e146e970f82135bca86e77e948",
      "transactionType": "CALL",
      "contractName": null,
      "contractAddress": "0xbcdc1d0b92dfceeaa0fcd0a0d53355f4bf1db8a7",
      "function": "registerCollateralAsset(address)",
      "arguments": [
        "0x534b2f3A21130d7a60830c2Df862319e593943A3"
      ],
      "transaction": {
        "from": "0x2738f38fde510743e0c589415e0598c4cee6eaa7",
        "to": "0xbcdc1d0b92dfceeaa0fcd0a0d53355f4bf1db8a7",
        "gas": "0x2b63b",
        "value": "0x0",
        "input": "0x40a24037000000000000000000000000534b2f3a21130d7a60830c2df862319e593943a3",
        "nonce": "0x7e",
        "chainId": "0x279f"
      },
      "additionalContracts": [],
      "isFixedGasLimit": false
    },
    {
      "hash": "0x65a55d6541d4765c6c035948b11a382f46e39dca6490afe15e1e70f4b2778959",
      "transactionType": "CALL",
      "contractName": "FPMMProxy",
      "contractAddress": "0x7109e0a9b4623e90755b7e5c4e10f089e5bf8bdb",
      "function": null,
      "arguments": null,
      "transaction": {
        "from": "0x2738f38fde510743e0c589415e0598c4cee6eaa7",
        "to": "0x7109e0a9b4623e90755b7e5c4e10f089e5bf8bdb",
        "gas": "0x72a3",
        "value": "0x0",
        "input": "0xcce441a3000000000000000000000000734bb3251ec3f1a83f8f2a8609bcef649d54ebf80000000000000000000000000000000000000000000000000000000000000001",
        "nonce": "0x7f",
        "chainId": "0x279f"
      },
      "additionalContracts": [],
      "isFixedGasLimit": false
    },
    {
      "hash": "0x4dd8cc7a22c0daf22418ecf969ef180ee0389d0f20e66ef6ea74791b21a9d1c0",
      "transactionType": "CALL",
      "contractName": null,
      "contractAddress": "0x734bb3251ec3f1a83f8f2a8609bcef649d54ebf8",
      "function": "addPool((address,address,uint32,address,uint64,uint64,uint64,uint64))",
      "arguments": [
        "(0x7109E0A9B4623e90755b7e5c4e10F089E5Bf8bDb, 0x5eCc03111ad2A78F981A108759bc73BAE2AB31bc, 300, 0x2738F38Fde510743e0c589415E0598C4ceE6eAa7, 0, 0, 0, 0)"
      ],
      "transaction": {
        "from": "0x2738f38fde510743e0c589415e0598c4cee6eaa7",
        "to": "0x734bb3251ec3f1a83f8f2a8609bcef649d54ebf8",
        "gas": "0x3441b",
        "value": "0x0",
        "input": "0x2d3d36380000000000000000000000007109e0a9b4623e90755b7e5c4e10f089e5bf8bdb0000000000000000000000005ecc03111ad2a78f981a108759bc73bae2ab31bc000000000000000000000000000000000000000000000000000000000000012c0000000000000000000000002738f38fde510743e0c589415e0598c4cee6eaa70000000000000000000000000000000000000000000000000000000000000000000000000000000000000000000000000000000000000000000000000000000000000000000000000000000000000000000000000000000000000000000000000000000000000000000000000000000000000000000000000000000000000000",
        "nonce": "0x80",
        "chainId": "0x279f"
      },
      "additionalContracts": [],
      "isFixedGasLimit": false
    },
    {
      "hash": "0xfc178b9bf00086258b7a6ef39039873d179ff0c58b500faa6647b0c8155715ef",
      "transactionType": "CALL",
      "contractName": null,
      "contractAddress": "0x5ecc03111ad2a78f981a108759bc73bae2ab31bc",
      "function": "setMinter(address,bool)",
      "arguments": [
        "0x734bb3251Ec3f1A83f8f2A8609bcEF649D54EbF8",
        "true"
      ],
      "transaction": {
        "from": "0x2738f38fde510743e0c589415e0598c4cee6eaa7",
        "to": "0x5ecc03111ad2a78f981a108759bc73bae2ab31bc",
        "gas": "0x19218",
        "value": "0x0",
        "input": "0xcf456ae7000000000000000000000000734bb3251ec3f1a83f8f2a8609bcef649d54ebf80000000000000000000000000000000000000000000000000000000000000001",
        "nonce": "0x81",
        "chainId": "0x279f"
      },
      "additionalContracts": [],
      "isFixedGasLimit": false
    },
    {
      "hash": "0xef8efba1d0421610972db84ef2c4cfb1cf6c292bab9b97bd05a2a544e016d603",
      "transactionType": "CALL",
      "contractName": null,
      "contractAddress": "0x5ecc03111ad2a78f981a108759bc73bae2ab31bc",
      "function": "setBurner(address,bool)",
      "arguments": [
        "0x734bb3251Ec3f1A83f8f2A8609bcEF649D54EbF8",
        "true"
      ],
      "transaction": {
        "from": "0x2738f38fde510743e0c589415e0598c4cee6eaa7",
        "to": "0x5ecc03111ad2a78f981a108759bc73bae2ab31bc",
        "gas": "0x19246",
        "value": "0x0",
        "input": "0x0d895ee1000000000000000000000000734bb3251ec3f1a83f8f2a8609bcef649d54ebf80000000000000000000000000000000000000000000000000000000000000001",
        "nonce": "0x82",
        "chainId": "0x279f"
      },
      "additionalContracts": [],
      "isFixedGasLimit": false
    },
    {
      "hash": "0xf22983c7fef347b825a13b6dd3df687b0b56d8324e64cc32617e53f9f724aad5",
      "transactionType": "CALL",
      "contractName": null,
      "contractAddress": "0x353ed52bf8482027c0e0b9e3c0e5d96a9f680980",
      "function": "deployFPMM(address,address,address,address,address,address,address,bool,(uint256,uint256,address,address,uint256,uint256,uint256))",
      "arguments": [
        "0x43cB9D6AcF1462356303079EA4FDd8bc30042a6A",
        "0x26eFF54e2f0E8825996b83119b7Df5ef2C882dD7",
        "0xaad8b67551086609D132178dfF1dBE31b3c1C9C2",
        "0x2738F38Fde510743e0c589415E0598C4ceE6eAa7",
        "0x502E67D3fE9302A5e4Ec1CFCDdbD6F34F9B9484B",
        "0x5eCc03111ad2A78F981A108759bc73BAE2AB31bc",
        "0xf47172cE00522Cc7dB02109634A92CE866a15FCC",
        "true",
        "(3, 2, 0x2738F38Fde510743e0c589415E0598C4ceE6eAa7, 0x2738F38Fde510743e0c589415E0598C4ceE6eAa7, 1, 5000, 3333)"
      ],
      "transaction": {
        "from": "0x2738f38fde510743e0c589415e0598c4cee6eaa7",
        "to": "0x353ed52bf8482027c0e0b9e3c0e5d96a9f680980",
        "gas": "0x1c9929",
        "value": "0x0",
        "input": "0x098a676e00000000000000000000000043cb9d6acf1462356303079ea4fdd8bc30042a6a00000000000000000000000026eff54e2f0e8825996b83119b7df5ef2c882dd7000000000000000000000000aad8b67551086609d132178dff1dbe31b3c1c9c20000000000000000000000002738f38fde510743e0c589415e0598c4cee6eaa7000000000000000000000000502e67d3fe9302a5e4ec1cfcddbd6f34f9b9484b0000000000000000000000005ecc03111ad2a78f981a108759bc73bae2ab31bc000000000000000000000000f47172ce00522cc7db02109634a92ce866a15fcc0000000000000000000000000000000000000000000000000000000000000001000000000000000000000000000000000000000000000000000000000000000300000000000000000000000000000000000000000000000000000000000000020000000000000000000000002738f38fde510743e0c589415e0598c4cee6eaa70000000000000000000000002738f38fde510743e0c589415e0598c4cee6eaa7000000000000000000000000000000000000000000000000000000000000000100000000000000000000000000000000000000000000000000000000000013880000000000000000000000000000000000000000000000000000000000000d05",
        "nonce": "0x83",
        "chainId": "0x279f"
      },
      "additionalContracts": [
        {
          "transactionType": "CREATE2",
          "contractName": null,
          "address": "0x6d4c4b663541bf21015afb22669b0e1bbb3e2b1c",
          "initCode": "0x67363d3d37363d34f03d5260086018f3"
        },
        {
          "transactionType": "CREATE",
          "contractName": "FPMMProxy",
          "address": "0x52716e8f44e417be8f573f8a85ca8ed3dae1eae1",
          "initCode": "0x608060405260405162000dfa38038062000dfa83398101604081905262000026916200041b565b82828282816200003882825f62000052565b506200004690508262000083565b50505050505062000546565b6200005d83620000f4565b5f825111806200006a5750805b156200007e576200007c838362000135565b505b505050565b7f7e644d79422f17c01e4894b5f4f588d331ebfa28653d42ae832dc59e38c9798f620000c45f8051602062000db3833981519152546001600160a01b031690565b604080516001600160a01b03928316815291841660208301520160405180910390a1620000f18162000164565b50565b620000ff8162000201565b6040516001600160a01b038216907fbc7cd75a20ee27fd9adebab32041f755214dbc6bffa90cc0225b39da2e5c2d3b905f90a250565b60606200015d838360405180606001604052806027815260200162000dd36027913962000298565b9392505050565b6001600160a01b038116620001cf5760405162461bcd60e51b815260206004820152602660248201527f455243313936373a206e65772061646d696e20697320746865207a65726f206160448201526564647265737360d01b60648201526084015b60405180910390fd5b805f8051602062000db38339815191525b80546001600160a01b0319166001600160a01b039290921691909117905550565b6001600160a01b0381163b620002705760405162461bcd60e51b815260206004820152602d60248201527f455243313936373a206e657720696d706c656d656e746174696f6e206973206e60448201526c1bdd08184818dbdb9d1c9858dd609a1b6064820152608401620001c6565b807f360894a13ba1a3210667c828492db98dca3e2076cc3735a920a3ca505d382bbc620001e0565b60605f80856001600160a01b031685604051620002b69190620004f5565b5f60405180830381855af49150503d805f8114620002f0576040519150601f19603f3d011682016040523d82523d5f602084013e620002f5565b606091505b509092509050620003098683838762000313565b9695505050505050565b60608315620003865782515f036200037e576001600160a01b0385163b6200037e5760405162461bcd60e51b815260206004820152601d60248201527f416464726573733a2063616c6c20746f206e6f6e2d636f6e74726163740000006044820152606401620001c6565b508162000392565b6200039283836200039a565b949350505050565b815115620003ab5781518083602001fd5b8060405162461bcd60e51b8152600401620001c6919062000512565b80516001600160a01b0381168114620003de575f80fd5b919050565b634e487b7160e01b5f52604160045260245ffd5b5f5b8381101562000413578181015183820152602001620003f9565b50505f910152565b5f805f606084860312156200042e575f80fd5b6200043984620003c7565b92506200044960208501620003c7565b60408501519092506001600160401b038082111562000466575f80fd5b818601915086601f8301126200047a575f80fd5b8151818111156200048f576200048f620003e3565b604051601f8201601f19908116603f01168101908382118183101715620004ba57620004ba620003e3565b81604052828152896020848701011115620004d3575f80fd5b620004e6836020830160208801620003f7565b80955050505050509250925092565b5f825162000508818460208701620003f7565b9190910192915050565b602081525f825180602084015262000532816040850160208701620003f7565b601f01601f19169190910160400192915050565b61085f80620005545f395ff3fe60806040523661001357610011610017565b005b6100115b61001f610168565b6001600160a01b0316330361015e5760606001600160e01b03195f35166364d3180d60e11b81016100595761005261019a565b9150610156565b63587086bd60e11b6001600160e01b0319821601610079576100526101ed565b63070d7c6960e41b6001600160e01b031982160161009957610052610231565b621eb96f60e61b6001600160e01b03198216016100b857610052610261565b63a39f25e560e01b6001600160e01b03198216016100d8576100526102a0565b60405162461bcd60e51b815260206004820152604260248201527f5472616e73706172656e745570677261646561626c6550726f78793a2061646d60448201527f696e2063616e6e6f742066616c6c6261636b20746f2070726f78792074617267606482015261195d60f21b608482015260a4015b60405180910390fd5b815160208301f35b6101666102b3565b565b5f7fb53127684a568b3173ae13b9f8a6016e243e63b6e8ee1178d6a717850b5d61035b546001600160a01b0316919050565b60606101a46102c3565b5f6101b23660048184610668565b8101906101bf91906106aa565b90506101da8160405180602001604052805f8152505f6102cd565b505060408051602081019091525f815290565b60605f806101fe3660048184610668565b81019061020b91906106d7565b9150915061021b828260016102cd565b60405180602001604052805f8152509250505090565b606061023b6102c3565b5f6102493660048184610668565b81019061025691906106aa565b90506101da816102f8565b606061026b6102c3565b5f610274610168565b604080516001600160a01b03831660208201529192500160405160208183030381529060405291505090565b60606102aa6102c3565b5f61027461034f565b6101666102be61034f565b61035d565b3415610166575f80fd5b6102d68361037b565b5f825111806102e25750805b156102f3576102f183836103ba565b505b505050565b7f7e644d79422f17c01e4894b5f4f588d331ebfa28653d42ae832dc59e38c9798f610321610168565b604080516001600160a01b03928316815291841660208301520160405180910390a161034c816103e6565b50565b5f61035861048f565b905090565b365f80375f80365f845af43d5f803e808015610377573d5ff35b3d5ffd5b610384816104b6565b6040516001600160a01b038216907fbc7cd75a20ee27fd9adebab32041f755214dbc6bffa90cc0225b39da2e5c2d3b905f90a250565b60606103df83836040518060600160405280602781526020016108036027913961054a565b9392505050565b6001600160a01b03811661044b5760405162461bcd60e51b815260206004820152602660248201527f455243313936373a206e65772061646d696e20697320746865207a65726f206160448201526564647265737360d01b606482015260840161014d565b807fb53127684a568b3173ae13b9f8a6016e243e63b6e8ee1178d6a717850b5d61035b80546001600160a01b0319166001600160a01b039290921691909117905550565b5f7f360894a13ba1a3210667c828492db98dca3e2076cc3735a920a3ca505d382bbc61018b565b6001600160a01b0381163b6105235760405162461bcd60e51b815260206004820152602d60248201527f455243313936373a206e657720696d706c656d656e746174696f6e206973206e60448201526c1bdd08184818dbdb9d1c9858dd609a1b606482015260840161014d565b807f360894a13ba1a3210667c828492db98dca3e2076cc3735a920a3ca505d382bbc61046e565b60605f80856001600160a01b03168560405161056691906107b5565b5f60405180830381855af49150503d805f811461059e576040519150601f19603f3d011682016040523d82523d5f602084013e6105a3565b606091505b50915091506105b4868383876105be565b9695505050505050565b6060831561062c5782515f03610625576001600160a01b0385163b6106255760405162461bcd60e51b815260206004820152601d60248201527f416464726573733a2063616c6c20746f206e6f6e2d636f6e7472616374000000604482015260640161014d565b5081610636565b610636838361063e565b949350505050565b81511561064e5781518083602001fd5b8060405162461bcd60e51b815260040161014d91906107d0565b5f8085851115610676575f80fd5b83861115610682575f80fd5b5050820193919092039150565b80356001600160a01b03811681146106a5575f80fd5b919050565b5f602082840312156106ba575f80fd5b6103df8261068f565b634e487b7160e01b5f52604160045260245ffd5b5f80604083850312156106e8575f80fd5b6106f18361068f565b9150602083013567ffffffffffffffff8082111561070d575f80fd5b818501915085601f830112610720575f80fd5b813581811115610732576107326106c3565b604051601f8201601f19908116603f0116810190838211818310171561075a5761075a6106c3565b81604052828152886020848701011115610772575f80fd5b826020860160208301375f6020848301015280955050505050509250929050565b5f5b838110156107ad578181015183820152602001610795565b50505f910152565b5f82516107c6818460208701610793565b9190910192915050565b602081525f82518060208401526107ee816040850160208701610793565b601f01601f1916919091016040019291505056fe416464726573733a206c6f772d6c6576656c2064656c65676174652063616c6c206661696c6564a2646970667358221220aa20ce4dcf96a82424f9529b6c241425d2e02b65a5499bdb8a4cd0e1a346515264736f6c63430008180033b53127684a568b3173ae13b9f8a6016e243e63b6e8ee1178d6a717850b5d6103416464726573733a206c6f772d6c6576656c2064656c65676174652063616c6c206661696c656400000000000000000000000043cb9d6acf1462356303079ea4fdd8bc30042a6a000000000000000000000000aad8b67551086609d132178dff1dbe31b3c1c9c2000000000000000000000000000000000000000000000000000000000000006000000000000000000000000000000000000000000000000000000000000001a4c20a9ca5000000000000000000000000502e67d3fe9302a5e4ec1cfcddbd6f34f9b9484b0000000000000000000000005ecc03111ad2a78f981a108759bc73bae2ab31bc00000000000000000000000026eff54e2f0e8825996b83119b7df5ef2c882dd7000000000000000000000000f47172ce00522cc7db02109634a92ce866a15fcc00000000000000000000000000000000000000000000000000000000000000010000000000000000000000002738f38fde510743e0c589415e0598c4cee6eaa7000000000000000000000000000000000000000000000000000000000000000300000000000000000000000000000000000000000000000000000000000000020000000000000000000000002738f38fde510743e0c589415e0598c4cee6eaa70000000000000000000000002738f38fde510743e0c589415e0598c4cee6eaa7000000000000000000000000000000000000000000000000000000000000000100000000000000000000000000000000000000000000000000000000000013880000000000000000000000000000000000000000000000000000000000000d0500000000000000000000000000000000000000000000000000000000"
        }
      ],
      "isFixedGasLimit": false
    },
    {
      "hash": "0xdb3482aa1011dbe51e33446f04a393e1b71e793ca40d189cf5fe8f353397890a",
      "transactionType": "CALL",
      "contractName": null,
      "contractAddress": "0x502e67d3fe9302a5e4ec1cfcddbd6f34f9b9484b",
      "function": "transfer(address,uint256)",
      "arguments": [
        "0x52716E8F44E417bE8F573F8A85cA8eD3DAe1eAE1",
        "1000048"
      ],
      "transaction": {
        "from": "0x2738f38fde510743e0c589415e0598c4cee6eaa7",
        "to": "0x502e67d3fe9302a5e4ec1cfcddbd6f34f9b9484b",
        "gas": "0x146ea",
        "value": "0x0",
        "input": "0xa9059cbb00000000000000000000000052716e8f44e417be8f573f8a85ca8ed3dae1eae100000000000000000000000000000000000000000000000000000000000f4270",
        "nonce": "0x84",
        "chainId": "0x279f"
      },
      "additionalContracts": [],
      "isFixedGasLimit": false
    },
    {
      "hash": "0x1916f2d1b3f2e09b086712632a82aa41e46fb95e5b51bd75306dbfe3b2793c39",
      "transactionType": "CALL",
      "contractName": null,
      "contractAddress": "0x5ecc03111ad2a78f981a108759bc73bae2ab31bc",
      "function": "transfer(address,uint256)",
      "arguments": [
        "0x52716E8F44E417bE8F573F8A85cA8eD3DAe1eAE1",
        "1000000000000000000"
      ],
      "transaction": {
        "from": "0x2738f38fde510743e0c589415e0598c4cee6eaa7",
        "to": "0x5ecc03111ad2a78f981a108759bc73bae2ab31bc",
        "gas": "0x1a42a",
        "value": "0x0",
        "input": "0xa9059cbb00000000000000000000000052716e8f44e417be8f573f8a85ca8ed3dae1eae10000000000000000000000000000000000000000000000000de0b6b3a7640000",
        "nonce": "0x85",
        "chainId": "0x279f"
      },
      "additionalContracts": [],
      "isFixedGasLimit": false
    },
    {
      "hash": "0x28290de6c10b541c99f0a962a0ce2dafbb6da6d97cbb8c2012fbc76f0c467f4e",
      "transactionType": "CALL",
      "contractName": "FPMMProxy",
      "contractAddress": "0x52716e8f44e417be8f573f8a85ca8ed3dae1eae1",
      "function": null,
      "arguments": null,
      "transaction": {
        "from": "0x2738f38fde510743e0c589415e0598c4cee6eaa7",
        "to": "0x52716e8f44e417be8f573f8a85ca8ed3dae1eae1",
        "gas": "0x703a",
        "value": "0x0",
        "input": "0x6a6278420000000000000000000000002738f38fde510743e0c589415e0598c4cee6eaa7",
        "nonce": "0x86",
        "chainId": "0x279f"
      },
      "additionalContracts": [],
      "isFixedGasLimit": false
    },
    {
      "hash": "0xd94aa2f7670049046efb7b8ac6eecab10f83f382a6d306268b04cd8326068550",
      "transactionType": "CALL",
      "contractName": "FPMMProxy",
      "contractAddress": "0x52716e8f44e417be8f573f8a85ca8ed3dae1eae1",
      "function": null,
      "arguments": null,
      "transaction": {
        "from": "0x2738f38fde510743e0c589415e0598c4cee6eaa7",
        "to": "0x52716e8f44e417be8f573f8a85ca8ed3dae1eae1",
        "gas": "0x758c",
        "value": "0x0",
        "input": "0xda7ddb8f000000000000000000000000502e67d3fe9302a5e4ec1cfcddbd6f34f9b9484b00000000000000000000000000000000000000000000000000000246139ca8000000000000000000000000000000000000000000000000000000048c27395000",
        "nonce": "0x87",
        "chainId": "0x279f"
      },
      "additionalContracts": [],
      "isFixedGasLimit": false
    },
    {
      "hash": "0x9c9a607a8bf3465681b823ef7d4f07e662caf6de199f173a0ee08eea752254a3",
      "transactionType": "CALL",
      "contractName": "FPMMProxy",
      "contractAddress": "0x52716e8f44e417be8f573f8a85ca8ed3dae1eae1",
      "function": null,
      "arguments": null,
      "transaction": {
        "from": "0x2738f38fde510743e0c589415e0598c4cee6eaa7",
        "to": "0x52716e8f44e417be8f573f8a85ca8ed3dae1eae1",
        "gas": "0x75db",
        "value": "0x0",
        "input": "0xda7ddb8f0000000000000000000000005ecc03111ad2a78f981a108759bc73bae2ab31bc00000000000000000000000000000000000000000002116545850052128000000000000000000000000000000000000000000000000422ca8b0a00a425000000",
        "nonce": "0x88",
        "chainId": "0x279f"
      },
      "additionalContracts": [],
      "isFixedGasLimit": false
    },
    {
      "hash": "0x6a9af6b2ac6dca8bc88eebcd6dd6081143fe5a3cd66a96a37c71d8d53779b8d5",
      "transactionType": "CALL",
      "contractName": null,
      "contractAddress": "0xbcdc1d0b92dfceeaa0fcd0a0d53355f4bf1db8a7",
      "function": "registerCollateralAsset(address)",
      "arguments": [
        "0x502E67D3fE9302A5e4Ec1CFCDdbD6F34F9B9484B"
      ],
      "transaction": {
        "from": "0x2738f38fde510743e0c589415e0598c4cee6eaa7",
        "to": "0xbcdc1d0b92dfceeaa0fcd0a0d53355f4bf1db8a7",
        "gas": "0x2b63b",
        "value": "0x0",
        "input": "0x40a24037000000000000000000000000502e67d3fe9302a5e4ec1cfcddbd6f34f9b9484b",
        "nonce": "0x89",
        "chainId": "0x279f"
      },
      "additionalContracts": [],
      "isFixedGasLimit": false
    },
    {
      "hash": "0x98e71bee918d2cefc773dc1b18240719501afd50141d617767fd13eb19d9bd43",
      "transactionType": "CALL",
      "contractName": "FPMMProxy",
      "contractAddress": "0x52716e8f44e417be8f573f8a85ca8ed3dae1eae1",
      "function": null,
      "arguments": null,
      "transaction": {
        "from": "0x2738f38fde510743e0c589415e0598c4cee6eaa7",
        "to": "0x52716e8f44e417be8f573f8a85ca8ed3dae1eae1",
        "gas": "0x72a3",
        "value": "0x0",
        "input": "0xcce441a3000000000000000000000000734bb3251ec3f1a83f8f2a8609bcef649d54ebf80000000000000000000000000000000000000000000000000000000000000001",
        "nonce": "0x8a",
        "chainId": "0x279f"
      },
      "additionalContracts": [],
      "isFixedGasLimit": false
    },
    {
      "hash": "0xcc3d13210ebb801606c698681140398eeb524034a686ea6a626d4a2280f9170a",
      "transactionType": "CALL",
      "contractName": null,
      "contractAddress": "0x734bb3251ec3f1a83f8f2a8609bcef649d54ebf8",
      "function": "addPool((address,address,uint32,address,uint64,uint64,uint64,uint64))",
      "arguments": [
        "(0x52716E8F44E417bE8F573F8A85cA8eD3DAe1eAE1, 0x5eCc03111ad2A78F981A108759bc73BAE2AB31bc, 300, 0x2738F38Fde510743e0c589415E0598C4ceE6eAa7, 0, 0, 0, 0)"
      ],
      "transaction": {
        "from": "0x2738f38fde510743e0c589415e0598c4cee6eaa7",
        "to": "0x734bb3251ec3f1a83f8f2a8609bcef649d54ebf8",
        "gas": "0x2b964",
        "value": "0x0",
        "input": "0x2d3d363800000000000000000000000052716e8f44e417be8f573f8a85ca8ed3dae1eae10000000000000000000000005ecc03111ad2a78f981a108759bc73bae2ab31bc000000000000000000000000000000000000000000000000000000000000012c0000000000000000000000002738f38fde510743e0c589415e0598c4cee6eaa70000000000000000000000000000000000000000000000000000000000000000000000000000000000000000000000000000000000000000000000000000000000000000000000000000000000000000000000000000000000000000000000000000000000000000000000000000000000000000000000000000000000000000",
        "nonce": "0x8b",
        "chainId": "0x279f"
      },
      "additionalContracts": [],
      "isFixedGasLimit": false
    }
  ],
  "receipts": [
    {
      "status": "0x1",
      "cumulativeGasUsed": "0x1ccad9",
      "logs": [
        {
          "address": "0xba5ed099633d3b313e4d5f7bdc1305d3c28ba5ed",
          "topics": [
            "0x2feea65dd4e9f9cbd86b74b7734210c59a1b2981b5b137bd0ee3e208200c9067",
            "0x000000000000000000000000d9e9e6f6b5298e8bad390f7748035c49d6eeb055",
            "0x8a1ee54d054a1d1ec047f2ae643d579b62cc4fef8189ef62d6e64e5188df9f6c"
          ],
          "data": "0x",
          "blockHash": "0x53ce04e039ac817a78348a2e5e2117bd5fa8d144d3818a276b2a647480b44784",
          "blockNumber": "0x111a1af",
          "blockTimestamp": "0x69b04814",
          "transactionHash": "0xfecec5dc8ac033721d1ca81e984a9b9f4676e87626aef08226b8f05ade9a9c59",
          "transactionIndex": "0x1",
          "logIndex": "0x1",
          "removed": false
        },
        {
          "address": "0x550d9ecb4c373510b8a41f5fb7d98e9e1c51a07e",
          "topics": [
            "0xbc7cd75a20ee27fd9adebab32041f755214dbc6bffa90cc0225b39da2e5c2d3b",
            "0x00000000000000000000000043cb9d6acf1462356303079ea4fdd8bc30042a6a"
          ],
          "data": "0x",
          "blockHash": "0x53ce04e039ac817a78348a2e5e2117bd5fa8d144d3818a276b2a647480b44784",
          "blockNumber": "0x111a1af",
          "blockTimestamp": "0x69b04814",
          "transactionHash": "0xfecec5dc8ac033721d1ca81e984a9b9f4676e87626aef08226b8f05ade9a9c59",
          "transactionIndex": "0x1",
          "logIndex": "0x2",
          "removed": false
        },
        {
          "address": "0x550d9ecb4c373510b8a41f5fb7d98e9e1c51a07e",
          "topics": [
            "0x8be0079c531659141344cd1fd0a4f28419497f9722a3daafe3b4186f6b6457e0",
            "0x0000000000000000000000000000000000000000000000000000000000000000",
            "0x000000000000000000000000d9e9e6f6b5298e8bad390f7748035c49d6eeb055"
          ],
          "data": "0x",
          "blockHash": "0x53ce04e039ac817a78348a2e5e2117bd5fa8d144d3818a276b2a647480b44784",
          "blockNumber": "0x111a1af",
          "blockTimestamp": "0x69b04814",
          "transactionHash": "0xfecec5dc8ac033721d1ca81e984a9b9f4676e87626aef08226b8f05ade9a9c59",
          "transactionIndex": "0x1",
          "logIndex": "0x3",
          "removed": false
        },
        {
          "address": "0x550d9ecb4c373510b8a41f5fb7d98e9e1c51a07e",
          "topics": [
            "0xb5d5dda8af4f1e40a5cc4aa66c39ca5aac7f90947261313b07527eb3bdd98bc7"
          ],
          "data": "0x0000000000000000000000000000000000000000000000000000000000000000000000000000000000000000000000000000000000000000000000000000000a",
          "blockHash": "0x53ce04e039ac817a78348a2e5e2117bd5fa8d144d3818a276b2a647480b44784",
          "blockNumber": "0x111a1af",
          "blockTimestamp": "0x69b04814",
          "transactionHash": "0xfecec5dc8ac033721d1ca81e984a9b9f4676e87626aef08226b8f05ade9a9c59",
          "transactionIndex": "0x1",
          "logIndex": "0x4",
          "removed": false
        },
        {
          "address": "0x550d9ecb4c373510b8a41f5fb7d98e9e1c51a07e",
          "topics": [
            "0xd3890fc76afcfc31cba1dcf2c27b50e2541e4d75039c981855b5b5e03682aea0",
            "0x0000000000000000000000000000000000000000000000000000000000000000",
            "0x0000000000000000000000002738f38fde510743e0c589415e0598c4cee6eaa7"
          ],
          "data": "0x",
          "blockHash": "0x53ce04e039ac817a78348a2e5e2117bd5fa8d144d3818a276b2a647480b44784",
          "blockNumber": "0x111a1af",
          "blockTimestamp": "0x69b04814",
          "transactionHash": "0xfecec5dc8ac033721d1ca81e984a9b9f4676e87626aef08226b8f05ade9a9c59",
          "transactionIndex": "0x1",
          "logIndex": "0x5",
          "removed": false
        },
        {
          "address": "0x550d9ecb4c373510b8a41f5fb7d98e9e1c51a07e",
          "topics": [
            "0xb404cac19fb1cbeff98d325795b08886e3cd8fe8cb1a2f193aac66f13fb239c3"
          ],
          "data": "0x00000000000000000000000000000000000000000000000000000000000000000000000000000000000000000000000000000000000000000000000000000005",
          "blockHash": "0x53ce04e039ac817a78348a2e5e2117bd5fa8d144d3818a276b2a647480b44784",
          "blockNumber": "0x111a1af",
          "blockTimestamp": "0x69b04814",
          "transactionHash": "0xfecec5dc8ac033721d1ca81e984a9b9f4676e87626aef08226b8f05ade9a9c59",
          "transactionIndex": "0x1",
          "logIndex": "0x6",
          "removed": false
        },
        {
          "address": "0x550d9ecb4c373510b8a41f5fb7d98e9e1c51a07e",
          "topics": [
            "0xb273226859e3e49fd86c9ac8f721eaa74e677de0877db704918e0f43ec8d23bc"
          ],
          "data": "0x00000000000000000000000000000000000000000000000000000000000000000000000000000000000000000000000000000000000000000000000000000006",
          "blockHash": "0x53ce04e039ac817a78348a2e5e2117bd5fa8d144d3818a276b2a647480b44784",
          "blockNumber": "0x111a1af",
          "blockTimestamp": "0x69b04814",
          "transactionHash": "0xfecec5dc8ac033721d1ca81e984a9b9f4676e87626aef08226b8f05ade9a9c59",
          "transactionIndex": "0x1",
          "logIndex": "0x7",
          "removed": false
        },
        {
          "address": "0x550d9ecb4c373510b8a41f5fb7d98e9e1c51a07e",
          "topics": [
            "0x77c5ddba87b3d3f970242eda9bb1263ade9e4aed3eca233d5fa1af00a574b025"
          ],
          "data": "0x0000000000000000000000000000000000000000000000000000000000000000000000000000000000000000000000000000000000000000000000000000000000000000000000000000000000000000000000000000000000000000000013880000000000000000000000000000000000000000000000000000000000000d05",
          "blockHash": "0x53ce04e039ac817a78348a2e5e2117bd5fa8d144d3818a276b2a647480b44784",
          "blockNumber": "0x111a1af",
          "blockTimestamp": "0x69b04814",
          "transactionHash": "0xfecec5dc8ac033721d1ca81e984a9b9f4676e87626aef08226b8f05ade9a9c59",
          "transactionIndex": "0x1",
          "logIndex": "0x8",
          "removed": false
        },
        {
          "address": "0x550d9ecb4c373510b8a41f5fb7d98e9e1c51a07e",
          "topics": [
            "0xe4630e6e66d263636ccf946c97182b0edb7bbea539a79dfa121bab7444e83b79",
            "0x0000000000000000000000000000000000000000000000000000000000000000",
            "0x00000000000000000000000026eff54e2f0e8825996b83119b7df5ef2c882dd7"
          ],
          "data": "0x",
          "blockHash": "0x53ce04e039ac817a78348a2e5e2117bd5fa8d144d3818a276b2a647480b44784",
          "blockNumber": "0x111a1af",
          "blockTimestamp": "0x69b04814",
          "transactionHash": "0xfecec5dc8ac033721d1ca81e984a9b9f4676e87626aef08226b8f05ade9a9c59",
          "transactionIndex": "0x1",
          "logIndex": "0x9",
          "removed": false
        },
        {
          "address": "0x550d9ecb4c373510b8a41f5fb7d98e9e1c51a07e",
          "topics": [
            "0xc1ba25a60afffd747fd25304e169131b7ae93932f7f3e508a8cec0e18fa12842",
            "0x0000000000000000000000000000000000000000000000000000000000000000",
            "0x000000000000000000000000ea4103a6a122fbe2cdb07a80d4d293be07bb29fa"
          ],
          "data": "0x",
          "blockHash": "0x53ce04e039ac817a78348a2e5e2117bd5fa8d144d3818a276b2a647480b44784",
          "blockNumber": "0x111a1af",
          "blockTimestamp": "0x69b04814",
          "transactionHash": "0xfecec5dc8ac033721d1ca81e984a9b9f4676e87626aef08226b8f05ade9a9c59",
          "transactionIndex": "0x1",
          "logIndex": "0xa",
          "removed": false
        },
        {
          "address": "0x550d9ecb4c373510b8a41f5fb7d98e9e1c51a07e",
          "topics": [
            "0x00af8726a3679feb41b28b0996e403259aceb28ec6f3c6c3dc7a4c4fe6c8fce1"
          ],
          "data": "0x00000000000000000000000000000000000000000000000000000000000000000000000000000000000000000000000000000000000000000000000000000000",
          "blockHash": "0x53ce04e039ac817a78348a2e5e2117bd5fa8d144d3818a276b2a647480b44784",
          "blockNumber": "0x111a1af",
          "blockTimestamp": "0x69b04814",
          "transactionHash": "0xfecec5dc8ac033721d1ca81e984a9b9f4676e87626aef08226b8f05ade9a9c59",
          "transactionIndex": "0x1",
          "logIndex": "0xb",
          "removed": false
        },
        {
          "address": "0x550d9ecb4c373510b8a41f5fb7d98e9e1c51a07e",
          "topics": [
            "0x8be0079c531659141344cd1fd0a4f28419497f9722a3daafe3b4186f6b6457e0",
            "0x000000000000000000000000d9e9e6f6b5298e8bad390f7748035c49d6eeb055",
            "0x0000000000000000000000002738f38fde510743e0c589415e0598c4cee6eaa7"
          ],
          "data": "0x",
          "blockHash": "0x53ce04e039ac817a78348a2e5e2117bd5fa8d144d3818a276b2a647480b44784",
          "blockNumber": "0x111a1af",
          "blockTimestamp": "0x69b04814",
          "transactionHash": "0xfecec5dc8ac033721d1ca81e984a9b9f4676e87626aef08226b8f05ade9a9c59",
          "transactionIndex": "0x1",
          "logIndex": "0xc",
          "removed": false
        },
        {
          "address": "0x550d9ecb4c373510b8a41f5fb7d98e9e1c51a07e",
          "topics": [
            "0x7f26b83ff96e1f2b6a682f133852f6798a09c465da95921460cefb3847402498"
          ],
          "data": "0x0000000000000000000000000000000000000000000000000000000000000001",
          "blockHash": "0x53ce04e039ac817a78348a2e5e2117bd5fa8d144d3818a276b2a647480b44784",
          "blockNumber": "0x111a1af",
          "blockTimestamp": "0x69b04814",
          "transactionHash": "0xfecec5dc8ac033721d1ca81e984a9b9f4676e87626aef08226b8f05ade9a9c59",
          "transactionIndex": "0x1",
          "logIndex": "0xd",
          "removed": false
        },
        {
          "address": "0x550d9ecb4c373510b8a41f5fb7d98e9e1c51a07e",
          "topics": [
            "0x7e644d79422f17c01e4894b5f4f588d331ebfa28653d42ae832dc59e38c9798f"
          ],
          "data": "0x0000000000000000000000000000000000000000000000000000000000000000000000000000000000000000aad8b67551086609d132178dff1dbe31b3c1c9c2",
          "blockHash": "0x53ce04e039ac817a78348a2e5e2117bd5fa8d144d3818a276b2a647480b44784",
          "blockNumber": "0x111a1af",
          "blockTimestamp": "0x69b04814",
          "transactionHash": "0xfecec5dc8ac033721d1ca81e984a9b9f4676e87626aef08226b8f05ade9a9c59",
          "transactionIndex": "0x1",
          "logIndex": "0xe",
          "removed": false
        },
        {
          "address": "0xba5ed099633d3b313e4d5f7bdc1305d3c28ba5ed",
          "topics": [
            "0x4db17dd5e4732fb6da34a148104a592783ca119a1e7bb8829eba6cbadef0b511",
            "0x000000000000000000000000550d9ecb4c373510b8a41f5fb7d98e9e1c51a07e"
          ],
          "data": "0x",
          "blockHash": "0x53ce04e039ac817a78348a2e5e2117bd5fa8d144d3818a276b2a647480b44784",
          "blockNumber": "0x111a1af",
          "blockTimestamp": "0x69b04814",
          "transactionHash": "0xfecec5dc8ac033721d1ca81e984a9b9f4676e87626aef08226b8f05ade9a9c59",
          "transactionIndex": "0x1",
          "logIndex": "0xf",
          "removed": false
        },
        {
          "address": "0x353ed52bf8482027c0e0b9e3c0e5d96a9f680980",
          "topics": [
            "0xcf8e77154e470bf74e2e443ad6193730ed2a7c72279dc06aa8c12daf20c7768e",
            "0x00000000000000000000000004de554e875c9797dc4cebd834a9e99fa8fd5df9",
            "0x0000000000000000000000005ecc03111ad2a78f981a108759bc73bae2ab31bc"
          ],
          "data": "0x000000000000000000000000550d9ecb4c373510b8a41f5fb7d98e9e1c51a07e00000000000000000000000043cb9d6acf1462356303079ea4fdd8bc30042a6a",
          "blockHash": "0x53ce04e039ac817a78348a2e5e2117bd5fa8d144d3818a276b2a647480b44784",
          "blockNumber": "0x111a1af",
          "blockTimestamp": "0x69b04814",
          "transactionHash": "0xfecec5dc8ac033721d1ca81e984a9b9f4676e87626aef08226b8f05ade9a9c59",
          "transactionIndex": "0x1",
          "logIndex": "0x10",
          "removed": false
        }
      ],
      "logsBloom": "0x00020000000002000000008000000420400000000000400000810001200010000000000200000000000400000000001000942000000804000000000000000000002000000000008000000008020042000001040000000000006000000000000014004010020000000040000000100800000000800122000000000001000000400000000000010000000400000000000008000004020880000004004000800010000002820044000000000000000400000000000000000080000000000010000000000820020000000200080000040012000000002400002020000000000024000000000000000200000000000000000000080080000000000000800000000000",
      "type": "0x2",
      "transactionHash": "0xfecec5dc8ac033721d1ca81e984a9b9f4676e87626aef08226b8f05ade9a9c59",
      "transactionIndex": "0x1",
      "blockHash": "0x53ce04e039ac817a78348a2e5e2117bd5fa8d144d3818a276b2a647480b44784",
      "blockNumber": "0x111a1af",
      "gasUsed": "0x1ccad9",
      "effectiveGasPrice": "0x18727cda00",
      "from": "0x2738f38fde510743e0c589415e0598c4cee6eaa7",
      "to": "0x353ed52bf8482027c0e0b9e3c0e5d96a9f680980",
      "contractAddress": null
    },
    {
      "status": "0x1",
      "cumulativeGasUsed": "0x513ed",
      "logs": [
        {
          "address": "0x04de554e875c9797dc4cebd834a9e99fa8fd5df9",
          "topics": [
            "0xddf252ad1be2c89b69c2b068fc378daa952ba7f163c4a11628f55a4df523b3ef",
            "0x0000000000000000000000002738f38fde510743e0c589415e0598c4cee6eaa7",
            "0x000000000000000000000000550d9ecb4c373510b8a41f5fb7d98e9e1c51a07e"
          ],
          "data": "0x0000000000000000000000000000000000000000000000000a4ff36241e3ae02",
          "blockHash": "0x1092b62ade2d0937740c8818cfaae077d0887b03dc04d17eb2ea86650778a10b",
          "blockNumber": "0x111a1b4",
          "blockTimestamp": "0x69b04816",
          "transactionHash": "0x6bfb21a4f7c1abba129948188150abca1e45f1c2c87d046ab949ef68d135d3f1",
          "transactionIndex": "0x2",
          "logIndex": "0x5",
          "removed": false
        }
      ],
      "logsBloom": "0x00000000000000000000000000000000000000008000000000000000000000000000000000000000000000000000000000800000000000000000000000000000002000000000000000001008000000000000000000000000000000000000000000000000000000000000000000000000000000000100000000000010000000000000000000010000000000000000000000000000000000000000000000000010000000000000000000000000000000000000000000000000000000000000000000000802000000000000000000000000000000000000000000000000000000000000000000000080000000000000000000000000000000000000000000000000",
      "type": "0x2",
      "transactionHash": "0x6bfb21a4f7c1abba129948188150abca1e45f1c2c87d046ab949ef68d135d3f1",
      "transactionIndex": "0x2",
      "blockHash": "0x1092b62ade2d0937740c8818cfaae077d0887b03dc04d17eb2ea86650778a10b",
      "blockNumber": "0x111a1b4",
      "gasUsed": "0x1a449",
      "effectiveGasPrice": "0x18727cda00",
      "from": "0x2738f38fde510743e0c589415e0598c4cee6eaa7",
      "to": "0x04de554e875c9797dc4cebd834a9e99fa8fd5df9",
      "contractAddress": null
    },
    {
      "status": "0x1",
      "cumulativeGasUsed": "0x513c1",
      "logs": [
        {
          "address": "0x5ecc03111ad2a78f981a108759bc73bae2ab31bc",
          "topics": [
            "0xddf252ad1be2c89b69c2b068fc378daa952ba7f163c4a11628f55a4df523b3ef",
            "0x0000000000000000000000002738f38fde510743e0c589415e0598c4cee6eaa7",
            "0x000000000000000000000000550d9ecb4c373510b8a41f5fb7d98e9e1c51a07e"
          ],
          "data": "0x0000000000000000000000000000000000000000000000000de0b6b3a7640000",
          "blockHash": "0xda853667f95b9136293c7e4eaeb029af70e35e68580cc37edc854e459a8a29b6",
          "blockNumber": "0x111a1b8",
          "blockTimestamp": "0x69b04818",
          "transactionHash": "0x800519fb1c59d375682bc53726aaa85c833249ae132ad998c64871b240a611d5",
          "transactionIndex": "0x2",
          "logIndex": "0x5",
          "removed": false
        }
      ],
      "logsBloom": "0x00000000000000000000000000000000000000000000000000000000000000000000000000000000000000000000000000800000000000000000000000000000002000000000000004000008000000000000000000000000000000000000000000000000000000000000000000000000000000000100000000000010000000000000000000010000000000000000000000000000000000000000000000000010000000000000000000000000000000001000000000000000000000000200000000000802000000000000000000000000000000000000000000000000000000000000000000000000000000000000000000000000000000000000000000000000",
      "type": "0x2",
      "transactionHash": "0x800519fb1c59d375682bc53726aaa85c833249ae132ad998c64871b240a611d5",
      "transactionIndex": "0x2",
      "blockHash": "0xda853667f95b9136293c7e4eaeb029af70e35e68580cc37edc854e459a8a29b6",
      "blockNumber": "0x111a1b8",
      "gasUsed": "0x1a42a",
      "effectiveGasPrice": "0x18727cda00",
      "from": "0x2738f38fde510743e0c589415e0598c4cee6eaa7",
      "to": "0x5ecc03111ad2a78f981a108759bc73bae2ab31bc",
      "contractAddress": null
    },
    {
      "status": "0x1",
      "cumulativeGasUsed": "0x6e1f2",
      "logs": [
        {
          "address": "0x550d9ecb4c373510b8a41f5fb7d98e9e1c51a07e",
          "topics": [
            "0xddf252ad1be2c89b69c2b068fc378daa952ba7f163c4a11628f55a4df523b3ef",
            "0x0000000000000000000000000000000000000000000000000000000000000000",
            "0x0000000000000000000000000000000000000000000000000000000000000001"
          ],
          "data": "0x00000000000000000000000000000000000000000000000000000000000003e8",
          "blockHash": "0x877cfa7a5d60c843692771e4d2243cbcc0ec43be78791fe601cec38516cafea5",
          "blockNumber": "0x111a1bd",
          "blockTimestamp": "0x69b0481a",
          "transactionHash": "0xc380fb80d29df87c14f333c621b0d318a8520e3ff7d2d06db8b6051b961c3188",
          "transactionIndex": "0x1",
          "logIndex": "0x1",
          "removed": false
        },
        {
          "address": "0x550d9ecb4c373510b8a41f5fb7d98e9e1c51a07e",
          "topics": [
            "0xddf252ad1be2c89b69c2b068fc378daa952ba7f163c4a11628f55a4df523b3ef",
            "0x0000000000000000000000000000000000000000000000000000000000000000",
            "0x0000000000000000000000002738f38fde510743e0c589415e0598c4cee6eaa7"
          ],
          "data": "0x0000000000000000000000000000000000000000000000000bf68375b1fc7cc1",
          "blockHash": "0x877cfa7a5d60c843692771e4d2243cbcc0ec43be78791fe601cec38516cafea5",
          "blockNumber": "0x111a1bd",
          "blockTimestamp": "0x69b0481a",
          "transactionHash": "0xc380fb80d29df87c14f333c621b0d318a8520e3ff7d2d06db8b6051b961c3188",
          "transactionIndex": "0x1",
          "logIndex": "0x2",
          "removed": false
        },
        {
          "address": "0x550d9ecb4c373510b8a41f5fb7d98e9e1c51a07e",
          "topics": [
            "0xf71a0e183fe1c86e734de92237976be5699cb46fd28373d6ace2f8eafea2857c"
          ],
          "data": "0x0000000000000000000000000000000000000000000000000a4ff36241e3ae020000000000000000000000000000000000000000000000000de0b6b3a76400000000000000000000000000000000000000000000000000000000000069b0481a",
          "blockHash": "0x877cfa7a5d60c843692771e4d2243cbcc0ec43be78791fe601cec38516cafea5",
          "blockNumber": "0x111a1bd",
          "blockTimestamp": "0x69b0481a",
          "transactionHash": "0xc380fb80d29df87c14f333c621b0d318a8520e3ff7d2d06db8b6051b961c3188",
          "transactionIndex": "0x1",
          "logIndex": "0x3",
          "removed": false
        },
        {
          "address": "0x550d9ecb4c373510b8a41f5fb7d98e9e1c51a07e",
          "topics": [
            "0xa8137fff86647d8a402117b9c5dbda627f721d3773338fb9678c83e54ed39080",
            "0x0000000000000000000000002738f38fde510743e0c589415e0598c4cee6eaa7",
            "0x0000000000000000000000002738f38fde510743e0c589415e0598c4cee6eaa7"
          ],
          "data": "0x0000000000000000000000000000000000000000000000000a4ff36241e3ae020000000000000000000000000000000000000000000000000de0b6b3a76400000000000000000000000000000000000000000000000000000bf68375b1fc7cc1",
          "blockHash": "0x877cfa7a5d60c843692771e4d2243cbcc0ec43be78791fe601cec38516cafea5",
          "blockNumber": "0x111a1bd",
          "blockTimestamp": "0x69b0481a",
          "transactionHash": "0xc380fb80d29df87c14f333c621b0d318a8520e3ff7d2d06db8b6051b961c3188",
          "transactionIndex": "0x1",
          "logIndex": "0x4",
          "removed": false
        }
      ],
      "logsBloom": "0x00000000200000000000000000000000000000000000000000000000000000000000000000000000000000000000000000040000080000000000000000040000002000000100000000000008000000000000000000040000000000000000000000000000020000000000000000000800000000000000000000000010000000000000000000000000000000000000000000000000000000000000000000000010000000000000000000000000000000400000000000000080000000000000400000000802000000000000000000000000000000000000002000000000000060000000000000000000000000000000000000000000000000000000000000000000",
      "type": "0x2",
      "transactionHash": "0xc380fb80d29df87c14f333c621b0d318a8520e3ff7d2d06db8b6051b961c3188",
      "transactionIndex": "0x1",
      "blockHash": "0x877cfa7a5d60c843692771e4d2243cbcc0ec43be78791fe601cec38516cafea5",
      "blockNumber": "0x111a1bd",
      "gasUsed": "0x6e1f2",
      "effectiveGasPrice": "0x18727cda00",
      "from": "0x2738f38fde510743e0c589415e0598c4cee6eaa7",
      "to": "0x550d9ecb4c373510b8a41f5fb7d98e9e1c51a07e",
      "contractAddress": null
    },
    {
      "status": "0x1",
      "cumulativeGasUsed": "0x62a28",
      "logs": [
        {
          "address": "0x550d9ecb4c373510b8a41f5fb7d98e9e1c51a07e",
          "topics": [
            "0x0a59d45890c37e353ebb4ff4a00b4e5002b27b21e3a308daea7646097c12533f",
            "0x00000000000000000000000004de554e875c9797dc4cebd834a9e99fa8fd5df9"
          ],
          "data": "0x0000000000000000000000000000000000000000000000042c96f40959140000000000000000000000000000000000000000000000000014def2c42ebd6400000000000000000000000000000000000000000000000000000000000000000012",
          "blockHash": "0xf949119da83af34d2578045c27eed3d356437af73dedc1f2243efdd3dc053301",
          "blockNumber": "0x111a1c1",
          "blockTimestamp": "0x69b0481b",
          "transactionHash": "0x89387f145a6cca7fedf158fc144c0ca26b9cda197b32c9f6ba70191a6f69c2b7",
          "transactionIndex": "0x2",
          "logIndex": "0x5",
          "removed": false
        }
      ],
      "logsBloom": "0x00000000000000000000000000000000000000000000000004010000000000000000000000000000000000000000000000140000000000000000000100000000000000000000000000000000000000000000000000000000000000000000000010000000000000000000000000000000000000000000000000000000000000000000000000000000000000000000000000000000000000000000000000000000000000000000000000000000000000000000000000000080000000000000000000000000000000000000000000000000000000000000002000000000010000000000000000000000000000000000000000000000000000000000000000000000",
      "type": "0x2",
      "transactionHash": "0x89387f145a6cca7fedf158fc144c0ca26b9cda197b32c9f6ba70191a6f69c2b7",
      "transactionIndex": "0x2",
      "blockHash": "0xf949119da83af34d2578045c27eed3d356437af73dedc1f2243efdd3dc053301",
      "blockNumber": "0x111a1c1",
      "gasUsed": "0x2bab6",
      "effectiveGasPrice": "0x18727cda00",
      "from": "0x2738f38fde510743e0c589415e0598c4cee6eaa7",
      "to": "0x550d9ecb4c373510b8a41f5fb7d98e9e1c51a07e",
      "contractAddress": null
    },
    {
      "status": "0x1",
      "cumulativeGasUsed": "0x65446",
      "logs": [
        {
          "address": "0x550d9ecb4c373510b8a41f5fb7d98e9e1c51a07e",
          "topics": [
            "0x0a59d45890c37e353ebb4ff4a00b4e5002b27b21e3a308daea7646097c12533f",
            "0x0000000000000000000000005ecc03111ad2a78f981a108759bc73bae2ab31bc"
          ],
          "data": "0x0000000000000000000000000000000000000000000000056bc75e2d6310000000000000000000000000000000000000000000000000001b1ae4d6e2ef5000000000000000000000000000000000000000000000000000000000000000000012",
          "blockHash": "0x551c7c0e88b28453d14d7c8143c4234207ecf23ef02beb5de2e417717ae3aee5",
          "blockNumber": "0x111a1c6",
          "blockTimestamp": "0x69b0481d",
          "transactionHash": "0x934e77a0c34465e0966e6bdd02ed3fe2207574e669f6c98b3d242f4a630bac79",
          "transactionIndex": "0x2",
          "logIndex": "0x5",
          "removed": false
        }
      ],
      "logsBloom": "0x00000000000000000000000000000000000000000000000004000000000000000000000000000000000000000000000000042000000000000000000100000000000000000000000000000000000000000000000000000000000000000000000000000000000000000000000000000000000000000002000000000000000000000000000000000000000000000000000000000000000000000000000000000000000000800000000000000000000000000000000000000080000000000000000000000000000000000000000000000000000000000000002000000000010000000000000000000000000000000000000000000000000000000000000000000000",
      "type": "0x2",
      "transactionHash": "0x934e77a0c34465e0966e6bdd02ed3fe2207574e669f6c98b3d242f4a630bac79",
      "transactionIndex": "0x2",
      "blockHash": "0x551c7c0e88b28453d14d7c8143c4234207ecf23ef02beb5de2e417717ae3aee5",
      "blockNumber": "0x111a1c6",
      "gasUsed": "0x2e46a",
      "effectiveGasPrice": "0x18727cda00",
      "from": "0x2738f38fde510743e0c589415e0598c4cee6eaa7",
      "to": "0x550d9ecb4c373510b8a41f5fb7d98e9e1c51a07e",
      "contractAddress": null
    },
    {
      "status": "0x1",
      "cumulativeGasUsed": "0x52c7f",
      "logs": [
        {
          "address": "0x550d9ecb4c373510b8a41f5fb7d98e9e1c51a07e",
          "topics": [
            "0x133037347700fe9a7e5fffb139c832853fc52536035550fc6bc3b3f6207fd875",
            "0x000000000000000000000000ccd2ad0603a08ebc14d223a983171ef18192e8c9"
          ],
          "data": "0x0000000000000000000000000000000000000000000000000000000000000001",
          "blockHash": "0xc71a6592e532030ad64d83a185ba966d7be38008b5ddf359b55e846fe5839c94",
          "blockNumber": "0x111a1ca",
          "blockTimestamp": "0x69b0481f",
          "transactionHash": "0x1faeaf03e4f599b6f767da916e8584fef6e574cf51d9d46f28476d8d3e7614a1",
          "transactionIndex": "0x2",
          "logIndex": "0x5",
          "removed": false
        }
      ],
      "logsBloom": "0x00000000000000000000000000000000000000000000000000000000000000000000000000000000000000000000000000040000000008000000000000000000000000000000000000000000000000000000000000000020000000000000000000000000000000000000000008000000000000000000000000000000000000000000000000000000000000000000000000000000000000000000000000000000000000000000000000000000000000000000000000000080000000000000000000000000000000000000000000000000000000000000002400000000000000800001000000000000000000000000000000000000000000000000000000000000",
      "type": "0x2",
      "transactionHash": "0x1faeaf03e4f599b6f767da916e8584fef6e574cf51d9d46f28476d8d3e7614a1",
      "transactionIndex": "0x2",
      "blockHash": "0xc71a6592e532030ad64d83a185ba966d7be38008b5ddf359b55e846fe5839c94",
      "blockNumber": "0x111a1ca",
      "gasUsed": "0x1bc73",
      "effectiveGasPrice": "0x18727cda00",
      "from": "0x2738f38fde510743e0c589415e0598c4cee6eaa7",
      "to": "0x550d9ecb4c373510b8a41f5fb7d98e9e1c51a07e",
      "contractAddress": null
    },
    {
      "status": "0x1",
      "cumulativeGasUsed": "0x4fb2c",
      "logs": [
        {
          "address": "0xccd2ad0603a08ebc14d223a983171ef18192e8c9",
          "topics": [
            "0x5865b763d2fcaa2023d34f5622fec93cfc34b82e8625c1e622b9a6cb47a69239",
            "0x000000000000000000000000550d9ecb4c373510b8a41f5fb7d98e9e1c51a07e"
          ],
          "data": "0x000000000000000000000000550d9ecb4c373510b8a41f5fb7d98e9e1c51a07e00000000000000000000000004de554e875c9797dc4cebd834a9e99fa8fd5df9000000000000000000000000000000000000000000000000000000000000012c0000000000000000000000002738f38fde510743e0c589415e0598c4cee6eaa70000000000000000000000000000000000000000000000000001c6bf5263400000000000000000000000000000000000000000000000000000000000000000000000000000000000000000000000000000000000000000000001c6bf526340000000000000000000000000000000000000000000000000000000000000000000",
          "blockHash": "0x633907b9466d58d1164d7199206770f3ded2272ef6da7e242ed5aa0470783ba7",
          "blockNumber": "0x111a1cf",
          "blockTimestamp": "0x69b04821",
          "transactionHash": "0x5beda87da4567c172d8b00f9bc62d1b0cf8d1e67f75ac5a6116d51faaf763933",
          "transactionIndex": "0x1",
          "logIndex": "0x1",
          "removed": false
        }
      ],
      "logsBloom": "0x00000000000000000000000000000000000400000040000000000000000000000000000000000000000000000000000000800000400000000000000000000000000000000000000000000000000000000000000000000000000080000000000000000000000000000000000000000000000000000100000000000000000000000000000000010000000000000000000000000000000000000000000000000000000000000000000000000000000000000000000000004000000000000000000000000000000000000000000000000000000000000000002000000000000000000000000000000000000000000000000000000000000000000000000000000000",
      "type": "0x2",
      "transactionHash": "0x5beda87da4567c172d8b00f9bc62d1b0cf8d1e67f75ac5a6116d51faaf763933",
      "transactionIndex": "0x1",
      "blockHash": "0x633907b9466d58d1164d7199206770f3ded2272ef6da7e242ed5aa0470783ba7",
      "blockNumber": "0x111a1cf",
      "gasUsed": "0x4fb2c",
      "effectiveGasPrice": "0x18727cda00",
      "from": "0x2738f38fde510743e0c589415e0598c4cee6eaa7",
      "to": "0xccd2ad0603a08ebc14d223a983171ef18192e8c9",
      "contractAddress": null
    },
    {
      "status": "0x1",
      "cumulativeGasUsed": "0x1cfb67",
      "logs": [
        {
          "address": "0xba5ed099633d3b313e4d5f7bdc1305d3c28ba5ed",
          "topics": [
            "0x2feea65dd4e9f9cbd86b74b7734210c59a1b2981b5b137bd0ee3e208200c9067",
            "0x0000000000000000000000001229e8a7b266c6db52712ba5c6899a6c4c3025cd",
            "0x20593f2b2e906d85ed801e5f33ed01362be3e96aa555aba054ecc779e6ec4d6a"
          ],
          "data": "0x",
          "blockHash": "0x4974df53d716519db58a7b9e94beefd9f85aa055b4d7d03b8eefdf28dbbc6519",
          "blockNumber": "0x111a1d3",
          "blockTimestamp": "0x69b04823",
          "transactionHash": "0x557a452e6dc146463786cbdb2b722a26ea519dd1c9eaf2a8fac6a9ca5c392e37",
          "transactionIndex": "0x1",
          "logIndex": "0x1",
          "removed": false
        },
        {
          "address": "0x7109e0a9b4623e90755b7e5c4e10f089e5bf8bdb",
          "topics": [
            "0xbc7cd75a20ee27fd9adebab32041f755214dbc6bffa90cc0225b39da2e5c2d3b",
            "0x00000000000000000000000043cb9d6acf1462356303079ea4fdd8bc30042a6a"
          ],
          "data": "0x",
          "blockHash": "0x4974df53d716519db58a7b9e94beefd9f85aa055b4d7d03b8eefdf28dbbc6519",
          "blockNumber": "0x111a1d3",
          "blockTimestamp": "0x69b04823",
          "transactionHash": "0x557a452e6dc146463786cbdb2b722a26ea519dd1c9eaf2a8fac6a9ca5c392e37",
          "transactionIndex": "0x1",
          "logIndex": "0x2",
          "removed": false
        },
        {
          "address": "0x7109e0a9b4623e90755b7e5c4e10f089e5bf8bdb",
          "topics": [
            "0x8be0079c531659141344cd1fd0a4f28419497f9722a3daafe3b4186f6b6457e0",
            "0x0000000000000000000000000000000000000000000000000000000000000000",
            "0x0000000000000000000000001229e8a7b266c6db52712ba5c6899a6c4c3025cd"
          ],
          "data": "0x",
          "blockHash": "0x4974df53d716519db58a7b9e94beefd9f85aa055b4d7d03b8eefdf28dbbc6519",
          "blockNumber": "0x111a1d3",
          "blockTimestamp": "0x69b04823",
          "transactionHash": "0x557a452e6dc146463786cbdb2b722a26ea519dd1c9eaf2a8fac6a9ca5c392e37",
          "transactionIndex": "0x1",
          "logIndex": "0x3",
          "removed": false
        },
        {
          "address": "0x7109e0a9b4623e90755b7e5c4e10f089e5bf8bdb",
          "topics": [
            "0xb5d5dda8af4f1e40a5cc4aa66c39ca5aac7f90947261313b07527eb3bdd98bc7"
          ],
          "data": "0x00000000000000000000000000000000000000000000000000000000000000000000000000000000000000000000000000000000000000000000000000000003",
          "blockHash": "0x4974df53d716519db58a7b9e94beefd9f85aa055b4d7d03b8eefdf28dbbc6519",
          "blockNumber": "0x111a1d3",
          "blockTimestamp": "0x69b04823",
          "transactionHash": "0x557a452e6dc146463786cbdb2b722a26ea519dd1c9eaf2a8fac6a9ca5c392e37",
          "transactionIndex": "0x1",
          "logIndex": "0x4",
          "removed": false
        },
        {
          "address": "0x7109e0a9b4623e90755b7e5c4e10f089e5bf8bdb",
          "topics": [
            "0xd3890fc76afcfc31cba1dcf2c27b50e2541e4d75039c981855b5b5e03682aea0",
            "0x0000000000000000000000000000000000000000000000000000000000000000",
            "0x0000000000000000000000002738f38fde510743e0c589415e0598c4cee6eaa7"
          ],
          "data": "0x",
          "blockHash": "0x4974df53d716519db58a7b9e94beefd9f85aa055b4d7d03b8eefdf28dbbc6519",
          "blockNumber": "0x111a1d3",
          "blockTimestamp": "0x69b04823",
          "transactionHash": "0x557a452e6dc146463786cbdb2b722a26ea519dd1c9eaf2a8fac6a9ca5c392e37",
          "transactionIndex": "0x1",
          "logIndex": "0x5",
          "removed": false
        },
        {
          "address": "0x7109e0a9b4623e90755b7e5c4e10f089e5bf8bdb",
          "topics": [
            "0xb404cac19fb1cbeff98d325795b08886e3cd8fe8cb1a2f193aac66f13fb239c3"
          ],
          "data": "0x00000000000000000000000000000000000000000000000000000000000000000000000000000000000000000000000000000000000000000000000000000002",
          "blockHash": "0x4974df53d716519db58a7b9e94beefd9f85aa055b4d7d03b8eefdf28dbbc6519",
          "blockNumber": "0x111a1d3",
          "blockTimestamp": "0x69b04823",
          "transactionHash": "0x557a452e6dc146463786cbdb2b722a26ea519dd1c9eaf2a8fac6a9ca5c392e37",
          "transactionIndex": "0x1",
          "logIndex": "0x6",
          "removed": false
        },
        {
          "address": "0x7109e0a9b4623e90755b7e5c4e10f089e5bf8bdb",
          "topics": [
            "0xb273226859e3e49fd86c9ac8f721eaa74e677de0877db704918e0f43ec8d23bc"
          ],
          "data": "0x00000000000000000000000000000000000000000000000000000000000000000000000000000000000000000000000000000000000000000000000000000001",
          "blockHash": "0x4974df53d716519db58a7b9e94beefd9f85aa055b4d7d03b8eefdf28dbbc6519",
          "blockNumber": "0x111a1d3",
          "blockTimestamp": "0x69b04823",
          "transactionHash": "0x557a452e6dc146463786cbdb2b722a26ea519dd1c9eaf2a8fac6a9ca5c392e37",
          "transactionIndex": "0x1",
          "logIndex": "0x7",
          "removed": false
        },
        {
          "address": "0x7109e0a9b4623e90755b7e5c4e10f089e5bf8bdb",
          "topics": [
            "0x77c5ddba87b3d3f970242eda9bb1263ade9e4aed3eca233d5fa1af00a574b025"
          ],
          "data": "0x0000000000000000000000000000000000000000000000000000000000000000000000000000000000000000000000000000000000000000000000000000000000000000000000000000000000000000000000000000000000000000000013880000000000000000000000000000000000000000000000000000000000000d05",
          "blockHash": "0x4974df53d716519db58a7b9e94beefd9f85aa055b4d7d03b8eefdf28dbbc6519",
          "blockNumber": "0x111a1d3",
          "blockTimestamp": "0x69b04823",
          "transactionHash": "0x557a452e6dc146463786cbdb2b722a26ea519dd1c9eaf2a8fac6a9ca5c392e37",
          "transactionIndex": "0x1",
          "logIndex": "0x8",
          "removed": false
        },
        {
          "address": "0x7109e0a9b4623e90755b7e5c4e10f089e5bf8bdb",
          "topics": [
            "0xe4630e6e66d263636ccf946c97182b0edb7bbea539a79dfa121bab7444e83b79",
            "0x0000000000000000000000000000000000000000000000000000000000000000",
            "0x00000000000000000000000026eff54e2f0e8825996b83119b7df5ef2c882dd7"
          ],
          "data": "0x",
          "blockHash": "0x4974df53d716519db58a7b9e94beefd9f85aa055b4d7d03b8eefdf28dbbc6519",
          "blockNumber": "0x111a1d3",
          "blockTimestamp": "0x69b04823",
          "transactionHash": "0x557a452e6dc146463786cbdb2b722a26ea519dd1c9eaf2a8fac6a9ca5c392e37",
          "transactionIndex": "0x1",
          "logIndex": "0x9",
          "removed": false
        },
        {
          "address": "0x7109e0a9b4623e90755b7e5c4e10f089e5bf8bdb",
          "topics": [
            "0xc1ba25a60afffd747fd25304e169131b7ae93932f7f3e508a8cec0e18fa12842",
            "0x0000000000000000000000000000000000000000000000000000000000000000",
            "0x00000000000000000000000081a313ff894bfc6093d33b5514e34d7faa41b7ef"
          ],
          "data": "0x",
          "blockHash": "0x4974df53d716519db58a7b9e94beefd9f85aa055b4d7d03b8eefdf28dbbc6519",
          "blockNumber": "0x111a1d3",
          "blockTimestamp": "0x69b04823",
          "transactionHash": "0x557a452e6dc146463786cbdb2b722a26ea519dd1c9eaf2a8fac6a9ca5c392e37",
          "transactionIndex": "0x1",
          "logIndex": "0xa",
          "removed": false
        },
        {
          "address": "0x7109e0a9b4623e90755b7e5c4e10f089e5bf8bdb",
          "topics": [
            "0x00af8726a3679feb41b28b0996e403259aceb28ec6f3c6c3dc7a4c4fe6c8fce1"
          ],
          "data": "0x00000000000000000000000000000000000000000000000000000000000000000000000000000000000000000000000000000000000000000000000000000000",
          "blockHash": "0x4974df53d716519db58a7b9e94beefd9f85aa055b4d7d03b8eefdf28dbbc6519",
          "blockNumber": "0x111a1d3",
          "blockTimestamp": "0x69b04823",
          "transactionHash": "0x557a452e6dc146463786cbdb2b722a26ea519dd1c9eaf2a8fac6a9ca5c392e37",
          "transactionIndex": "0x1",
          "logIndex": "0xb",
          "removed": false
        },
        {
          "address": "0x7109e0a9b4623e90755b7e5c4e10f089e5bf8bdb",
          "topics": [
            "0x8be0079c531659141344cd1fd0a4f28419497f9722a3daafe3b4186f6b6457e0",
            "0x0000000000000000000000001229e8a7b266c6db52712ba5c6899a6c4c3025cd",
            "0x0000000000000000000000002738f38fde510743e0c589415e0598c4cee6eaa7"
          ],
          "data": "0x",
          "blockHash": "0x4974df53d716519db58a7b9e94beefd9f85aa055b4d7d03b8eefdf28dbbc6519",
          "blockNumber": "0x111a1d3",
          "blockTimestamp": "0x69b04823",
          "transactionHash": "0x557a452e6dc146463786cbdb2b722a26ea519dd1c9eaf2a8fac6a9ca5c392e37",
          "transactionIndex": "0x1",
          "logIndex": "0xc",
          "removed": false
        },
        {
          "address": "0x7109e0a9b4623e90755b7e5c4e10f089e5bf8bdb",
          "topics": [
            "0x7f26b83ff96e1f2b6a682f133852f6798a09c465da95921460cefb3847402498"
          ],
          "data": "0x0000000000000000000000000000000000000000000000000000000000000001",
          "blockHash": "0x4974df53d716519db58a7b9e94beefd9f85aa055b4d7d03b8eefdf28dbbc6519",
          "blockNumber": "0x111a1d3",
          "blockTimestamp": "0x69b04823",
          "transactionHash": "0x557a452e6dc146463786cbdb2b722a26ea519dd1c9eaf2a8fac6a9ca5c392e37",
          "transactionIndex": "0x1",
          "logIndex": "0xd",
          "removed": false
        },
        {
          "address": "0x7109e0a9b4623e90755b7e5c4e10f089e5bf8bdb",
          "topics": [
            "0x7e644d79422f17c01e4894b5f4f588d331ebfa28653d42ae832dc59e38c9798f"
          ],
          "data": "0x0000000000000000000000000000000000000000000000000000000000000000000000000000000000000000aad8b67551086609d132178dff1dbe31b3c1c9c2",
          "blockHash": "0x4974df53d716519db58a7b9e94beefd9f85aa055b4d7d03b8eefdf28dbbc6519",
          "blockNumber": "0x111a1d3",
          "blockTimestamp": "0x69b04823",
          "transactionHash": "0x557a452e6dc146463786cbdb2b722a26ea519dd1c9eaf2a8fac6a9ca5c392e37",
          "transactionIndex": "0x1",
          "logIndex": "0xe",
          "removed": false
        },
        {
          "address": "0xba5ed099633d3b313e4d5f7bdc1305d3c28ba5ed",
          "topics": [
            "0x4db17dd5e4732fb6da34a148104a592783ca119a1e7bb8829eba6cbadef0b511",
            "0x0000000000000000000000007109e0a9b4623e90755b7e5c4e10f089e5bf8bdb"
          ],
          "data": "0x",
          "blockHash": "0x4974df53d716519db58a7b9e94beefd9f85aa055b4d7d03b8eefdf28dbbc6519",
          "blockNumber": "0x111a1d3",
          "blockTimestamp": "0x69b04823",
          "transactionHash": "0x557a452e6dc146463786cbdb2b722a26ea519dd1c9eaf2a8fac6a9ca5c392e37",
          "transactionIndex": "0x1",
          "logIndex": "0xf",
          "removed": false
        },
        {
          "address": "0x353ed52bf8482027c0e0b9e3c0e5d96a9f680980",
          "topics": [
            "0xcf8e77154e470bf74e2e443ad6193730ed2a7c72279dc06aa8c12daf20c7768e",
            "0x000000000000000000000000534b2f3a21130d7a60830c2df862319e593943a3",
            "0x0000000000000000000000005ecc03111ad2a78f981a108759bc73bae2ab31bc"
          ],
          "data": "0x0000000000000000000000007109e0a9b4623e90755b7e5c4e10f089e5bf8bdb00000000000000000000000043cb9d6acf1462356303079ea4fdd8bc30042a6a",
          "blockHash": "0x4974df53d716519db58a7b9e94beefd9f85aa055b4d7d03b8eefdf28dbbc6519",
          "blockNumber": "0x111a1d3",
          "blockTimestamp": "0x69b04823",
          "transactionHash": "0x557a452e6dc146463786cbdb2b722a26ea519dd1c9eaf2a8fac6a9ca5c392e37",
          "transactionIndex": "0x1",
          "logIndex": "0x10",
          "removed": false
        }
      ],
      "logsBloom": "0x000200000000820000000080000004a0400800000000800000800001200010000000000200000000000c00000000001000002000000804000000000000008004002000200000000000000000020042000001040000000000006000000040000000004010020000000000004000100800000000801122000000000000000000400000000000000000000400000000000008000000020880000004004000800010000002820144000020000000000400000000008000000000000001000010200000000820020000000200080000040010000000002400000020000000000024000000000000000200000000000000000004080080000000000000000000000000",
      "type": "0x2",
      "transactionHash": "0x557a452e6dc146463786cbdb2b722a26ea519dd1c9eaf2a8fac6a9ca5c392e37",
      "transactionIndex": "0x1",
      "blockHash": "0x4974df53d716519db58a7b9e94beefd9f85aa055b4d7d03b8eefdf28dbbc6519",
      "blockNumber": "0x111a1d3",
      "gasUsed": "0x1cfb67",
      "effectiveGasPrice": "0x18727cda00",
      "from": "0x2738f38fde510743e0c589415e0598c4cee6eaa7",
      "to": "0x353ed52bf8482027c0e0b9e3c0e5d96a9f680980",
      "contractAddress": null
    },
    {
      "status": "0x1",
      "cumulativeGasUsed": "0x1b50af",
      "logs": [
        {
          "address": "0x534b2f3a21130d7a60830c2df862319e593943a3",
          "topics": [
            "0xddf252ad1be2c89b69c2b068fc378daa952ba7f163c4a11628f55a4df523b3ef",
            "0x0000000000000000000000002738f38fde510743e0c589415e0598c4cee6eaa7",
            "0x0000000000000000000000007109e0a9b4623e90755b7e5c4e10f089e5bf8bdb"
          ],
          "data": "0x00000000000000000000000000000000000000000000000000000000000f4240",
          "blockHash": "0x2ca325e63d0ae66380e0402bbee46370f09fd4adf8ad61c6032841da1318828d",
          "blockNumber": "0x111a1d8",
          "blockTimestamp": "0x69b04825",
          "transactionHash": "0xfe10a7ddc2345bfc5888f716f92659027ce612ff1971d0bcb9fe122f495b8ba3",
          "transactionIndex": "0x6",
          "logIndex": "0x12",
          "removed": false
        }
      ],
      "logsBloom": "0x00000000000080000000000000000000000000000000000000000000000000000000000000000000000000000000000000000000000000000000000000000000002000000000000000000008000000000000000000000000000000000000000000000000000000000000000000000000000000000100000000000010000000000000000000000000000000000000000000000000000000000000000000000010000000000000000000000000000000000000000000000000000001000000000000000802000000001000000000000000000000000000000000000000000000000000000000000200000000000000000000000000000000000000000000002000",
      "type": "0x2",
      "transactionHash": "0xfe10a7ddc2345bfc5888f716f92659027ce612ff1971d0bcb9fe122f495b8ba3",
      "transactionIndex": "0x6",
      "blockHash": "0x2ca325e63d0ae66380e0402bbee46370f09fd4adf8ad61c6032841da1318828d",
      "blockNumber": "0x111a1d8",
      "gasUsed": "0x1fef0",
      "effectiveGasPrice": "0x18727cda00",
      "from": "0x2738f38fde510743e0c589415e0598c4cee6eaa7",
      "to": "0x534b2f3a21130d7a60830c2df862319e593943a3",
      "contractAddress": null
    },
    {
      "status": "0x1",
      "cumulativeGasUsed": "0x51395",
      "logs": [
        {
          "address": "0x5ecc03111ad2a78f981a108759bc73bae2ab31bc",
          "topics": [
            "0xddf252ad1be2c89b69c2b068fc378daa952ba7f163c4a11628f55a4df523b3ef",
            "0x0000000000000000000000002738f38fde510743e0c589415e0598c4cee6eaa7",
            "0x0000000000000000000000007109e0a9b4623e90755b7e5c4e10f089e5bf8bdb"
          ],
          "data": "0x0000000000000000000000000000000000000000000000000de0b6b3a7640000",
          "blockHash": "0x874c4b684b84fbd3839fc8ae13139f5d01f9923252a840509398199145036758",
          "blockNumber": "0x111a1da",
          "blockTimestamp": "0x69b04826",
          "transactionHash": "0x7b1bce8c920cf765c96408ac53fc4c0058b722d741b7ace2e29af7fa94a681bd",
          "transactionIndex": "0x2",
          "logIndex": "0x5",
          "removed": false
        }
      ],
      "logsBloom": "0x00000000000080000000000000000000000000000000000000000000000000000000000000000000000000000000000000000000000000000000000000000000002000000000000004000008000000000000000000000000000000000000000000000000000000000000000000000000000000000100000000000010000000000000000000000000000000000000000000000000000000000000000000000010000000000000000000000000000000001000000000000000000001000200000000000802000000000000000000000000000000000000000000000000000000000000000000000000000000000000000000000000000000000000000000000000",
      "type": "0x2",
      "transactionHash": "0x7b1bce8c920cf765c96408ac53fc4c0058b722d741b7ace2e29af7fa94a681bd",
      "transactionIndex": "0x2",
      "blockHash": "0x874c4b684b84fbd3839fc8ae13139f5d01f9923252a840509398199145036758",
      "blockNumber": "0x111a1da",
      "gasUsed": "0x1a42a",
      "effectiveGasPrice": "0x18727cda00",
      "from": "0x2738f38fde510743e0c589415e0598c4cee6eaa7",
      "to": "0x5ecc03111ad2a78f981a108759bc73bae2ab31bc",
      "contractAddress": null
    },
    {
      "status": "0x1",
      "cumulativeGasUsed": "0x7415d",
      "logs": [
        {
          "address": "0x7109e0a9b4623e90755b7e5c4e10f089e5bf8bdb",
          "topics": [
            "0xddf252ad1be2c89b69c2b068fc378daa952ba7f163c4a11628f55a4df523b3ef",
            "0x0000000000000000000000000000000000000000000000000000000000000000",
            "0x0000000000000000000000000000000000000000000000000000000000000001"
          ],
          "data": "0x00000000000000000000000000000000000000000000000000000000000003e8",
          "blockHash": "0xefe294355ab36c8a939ae62917629e7b305450b5487c45cb060659864cb7060f",
          "blockNumber": "0x111a1df",
          "blockTimestamp": "0x69b04828",
          "transactionHash": "0xcf76175162d917a04dd337b9a8aaa1fe3337507dae3de785d3dba8cdeb0d1f01",
          "transactionIndex": "0x1",
          "logIndex": "0x1",
          "removed": false
        },
        {
          "address": "0x7109e0a9b4623e90755b7e5c4e10f089e5bf8bdb",
          "topics": [
            "0xddf252ad1be2c89b69c2b068fc378daa952ba7f163c4a11628f55a4df523b3ef",
            "0x0000000000000000000000000000000000000000000000000000000000000000",
            "0x0000000000000000000000002738f38fde510743e0c589415e0598c4cee6eaa7"
          ],
          "data": "0x000000000000000000000000000000000000000000000000000000e8d4a50c18",
          "blockHash": "0xefe294355ab36c8a939ae62917629e7b305450b5487c45cb060659864cb7060f",
          "blockNumber": "0x111a1df",
          "blockTimestamp": "0x69b04828",
          "transactionHash": "0xcf76175162d917a04dd337b9a8aaa1fe3337507dae3de785d3dba8cdeb0d1f01",
          "transactionIndex": "0x1",
          "logIndex": "0x2",
          "removed": false
        },
        {
          "address": "0x7109e0a9b4623e90755b7e5c4e10f089e5bf8bdb",
          "topics": [
            "0xf71a0e183fe1c86e734de92237976be5699cb46fd28373d6ace2f8eafea2857c"
          ],
          "data": "0x00000000000000000000000000000000000000000000000000000000000f42400000000000000000000000000000000000000000000000000de0b6b3a76400000000000000000000000000000000000000000000000000000000000069b04828",
          "blockHash": "0xefe294355ab36c8a939ae62917629e7b305450b5487c45cb060659864cb7060f",
          "blockNumber": "0x111a1df",
          "blockTimestamp": "0x69b04828",
          "transactionHash": "0xcf76175162d917a04dd337b9a8aaa1fe3337507dae3de785d3dba8cdeb0d1f01",
          "transactionIndex": "0x1",
          "logIndex": "0x3",
          "removed": false
        },
        {
          "address": "0x7109e0a9b4623e90755b7e5c4e10f089e5bf8bdb",
          "topics": [
            "0xa8137fff86647d8a402117b9c5dbda627f721d3773338fb9678c83e54ed39080",
            "0x0000000000000000000000002738f38fde510743e0c589415e0598c4cee6eaa7",
            "0x0000000000000000000000002738f38fde510743e0c589415e0598c4cee6eaa7"
          ],
          "data": "0x00000000000000000000000000000000000000000000000000000000000f42400000000000000000000000000000000000000000000000000de0b6b3a7640000000000000000000000000000000000000000000000000000000000e8d4a50c18",
          "blockHash": "0xefe294355ab36c8a939ae62917629e7b305450b5487c45cb060659864cb7060f",
          "blockNumber": "0x111a1df",
          "blockTimestamp": "0x69b04828",
          "transactionHash": "0xcf76175162d917a04dd337b9a8aaa1fe3337507dae3de785d3dba8cdeb0d1f01",
          "transactionIndex": "0x1",
          "logIndex": "0x4",
          "removed": false
        }
      ],
      "logsBloom": "0x00000000200000000000000000000000000000000000000000000000000000000000000000000000000000000000000000000000080000000000000000048004002000000100000000000008000000000000000000040000000000000040000000000000020000000000000000000800000000000000000000000010000000000000000000000000000000000000000000000000000000000000000000000010000000000000000000000000000000400000000000000000000000000000400000000802000000000000000000000000000000000000000000000000000060000000000000000000000000000000000000000000000000000000000000000000",
      "type": "0x2",
      "transactionHash": "0xcf76175162d917a04dd337b9a8aaa1fe3337507dae3de785d3dba8cdeb0d1f01",
      "transactionIndex": "0x1",
      "blockHash": "0xefe294355ab36c8a939ae62917629e7b305450b5487c45cb060659864cb7060f",
      "blockNumber": "0x111a1df",
      "gasUsed": "0x7415d",
      "effectiveGasPrice": "0x18727cda00",
      "from": "0x2738f38fde510743e0c589415e0598c4cee6eaa7",
      "to": "0x7109e0a9b4623e90755b7e5c4e10f089e5bf8bdb",
      "contractAddress": null
    },
    {
      "status": "0x1",
      "cumulativeGasUsed": "0x67d49",
      "logs": [
        {
          "address": "0x7109e0a9b4623e90755b7e5c4e10f089e5bf8bdb",
          "topics": [
            "0x0a59d45890c37e353ebb4ff4a00b4e5002b27b21e3a308daea7646097c12533f",
            "0x000000000000000000000000534b2f3a21130d7a60830c2df862319e593943a3"
          ],
          "data": "0x0000000000000000000000000000000000000000000000878678326eac90000000000000000000000000000000000000000000000000010f0cf064dd592000000000000000000000000000000000000000000000000000000000000000000006",
          "blockHash": "0xb3b8c9a575c1fd730ae673f1712691690cde68e6e58674006da871cf5c2f8935",
          "blockNumber": "0x111a1e3",
          "blockTimestamp": "0x69b0482a",
          "transactionHash": "0x03e8a245c3893a8f554feaa0fbd4668400bb5b54a921cadff7fd7b782bc63e17",
          "transactionIndex": "0x2",
          "logIndex": "0x5",
          "removed": false
        }
      ],
      "logsBloom": "0x00000000000000000000000000000000000800000000800004000000000000000000000000000000000000000000000000000000000000000000000100008004000000000000000000000000000000000000000000000000000000000040000000000000000000000000000000000000000000000000000000000000000000000000000000000000000000000000000000000000000000000000000000000000000000000100000000000000000000000000000000000000000000000000000000000000000000000000000000000000000000000000000000000000010000000000000000000000000000000000000000000000000000000000000000000000",
      "type": "0x2",
      "transactionHash": "0x03e8a245c3893a8f554feaa0fbd4668400bb5b54a921cadff7fd7b782bc63e17",
      "transactionIndex": "0x2",
      "blockHash": "0xb3b8c9a575c1fd730ae673f1712691690cde68e6e58674006da871cf5c2f8935",
      "blockNumber": "0x111a1e3",
      "gasUsed": "0x30e50",
      "effectiveGasPrice": "0x18727cda00",
      "from": "0x2738f38fde510743e0c589415e0598c4cee6eaa7",
      "to": "0x7109e0a9b4623e90755b7e5c4e10f089e5bf8bdb",
      "contractAddress": null
    },
    {
      "status": "0x1",
      "cumulativeGasUsed": "0x65377",
      "logs": [
        {
          "address": "0x7109e0a9b4623e90755b7e5c4e10f089e5bf8bdb",
          "topics": [
            "0x0a59d45890c37e353ebb4ff4a00b4e5002b27b21e3a308daea7646097c12533f",
            "0x0000000000000000000000005ecc03111ad2a78f981a108759bc73bae2ab31bc"
          ],
          "data": "0x0000000000000000000000000000000000000000000000878678326eac90000000000000000000000000000000000000000000000000010f0cf064dd592000000000000000000000000000000000000000000000000000000000000000000012",
          "blockHash": "0x7ae76fbf348cf1741a9f0dae4baa2f596776e842905565ac18ca98b1699bf180",
          "blockNumber": "0x111a1e8",
          "blockTimestamp": "0x69b0482c",
          "transactionHash": "0xea8c7272adf9e11f5f3638ec8139faab529ae038906dec6515b374f2a7f6d5be",
          "transactionIndex": "0x2",
          "logIndex": "0x5",
          "removed": false
        }
      ],
      "logsBloom": "0x00000000000000000000000000000000000000000000000004000000000000000000000000000000000000000000000000002000000000000000000100008004000000000000000000000000000000000000000000000000000000000040000000000000000000000000000000000000000000000002000000000000000000000000000000000000000000000000000000000000000000000000000000000000000000800000000000000000000000000000000000000000000000000000000000000000000000000000000000000000000000000000000000000000010000000000000000000000000000000000000000000000000000000000000000000000",
      "type": "0x2",
      "transactionHash": "0xea8c7272adf9e11f5f3638ec8139faab529ae038906dec6515b374f2a7f6d5be",
      "transactionIndex": "0x2",
      "blockHash": "0x7ae76fbf348cf1741a9f0dae4baa2f596776e842905565ac18ca98b1699bf180",
      "blockNumber": "0x111a1e8",
      "gasUsed": "0x2e45a",
      "effectiveGasPrice": "0x18727cda00",
      "from": "0x2738f38fde510743e0c589415e0598c4cee6eaa7",
      "to": "0x7109e0a9b4623e90755b7e5c4e10f089e5bf8bdb",
      "contractAddress": null
    },
    {
      "status": "0x1",
      "cumulativeGasUsed": "0x24d99b",
      "logs": [
        {
          "address": "0xbcdc1d0b92dfceeaa0fcd0a0d53355f4bf1db8a7",
          "topics": [
            "0x177acde39223f473628b69da4bf70587e58c441e053c73d5c52a5741815e51a4",
            "0x0000000000000000000000005ecc03111ad2a78f981a108759bc73bae2ab31bc"
          ],
          "data": "0x",
          "blockHash": "0x2df8525d7d201015a7d68a6271ece5c4ee83999cc812b9d9b25a74fa5b425e65",
          "blockNumber": "0x111a1eb",
          "blockTimestamp": "0x69b0482e",
          "transactionHash": "0x673b740bfe393e395067493413f08ae86e307e762b4af4cdc2e46d51db4c3ea0",
          "transactionIndex": "0x4",
          "logIndex": "0xf",
          "removed": false
        }
      ],
      "logsBloom": "0x00000000000000000000000000000000000000000000000000000000000000000000000000000000000000000000000000002000200000000000000000000000000000000000000000000000000000000000000000000000000000000000000000020000000000000000000000000000000000000002000000000200000000000000000100000000000000000000000000000000000000000000000000200000000000800000000000000000000000000000000000000000000000000000000000000000000000000000000040000000000000000000000000000000000000000000000000000000000000000000000000000000000000000000000000000000",
      "type": "0x2",
      "transactionHash": "0x673b740bfe393e395067493413f08ae86e307e762b4af4cdc2e46d51db4c3ea0",
      "transactionIndex": "0x4",
      "blockHash": "0x2df8525d7d201015a7d68a6271ece5c4ee83999cc812b9d9b25a74fa5b425e65",
      "blockNumber": "0x111a1eb",
      "gasUsed": "0x2b5e1",
      "effectiveGasPrice": "0x18727cda00",
      "from": "0x2738f38fde510743e0c589415e0598c4cee6eaa7",
      "to": "0xbcdc1d0b92dfceeaa0fcd0a0d53355f4bf1db8a7",
      "contractAddress": null
    },
    {
      "status": "0x1",
      "cumulativeGasUsed": "0xd04a7",
      "logs": [
        {
          "address": "0xbcdc1d0b92dfceeaa0fcd0a0d53355f4bf1db8a7",
          "topics": [
            "0x52cceb71b4b81514c72f2311183885dd3a70cca83e7811fa08e9b9937047109d",
            "0x000000000000000000000000534b2f3a21130d7a60830c2df862319e593943a3"
          ],
          "data": "0x",
          "blockHash": "0xc656181368336763573e3ea62e0bdf0b0459819480011088be1d0e10a09d6976",
          "blockNumber": "0x111a1ed",
          "blockTimestamp": "0x69b0482f",
          "transactionHash": "0xc4fb08dd5407cac70c07be9b94f5599b61f670e146e970f82135bca86e77e948",
          "transactionIndex": "0x4",
          "logIndex": "0xd",
          "removed": false
        }
      ],
      "logsBloom": "0x00000000004000000000000000000000000800000000800000000000000000000000000000000000000000000000000000000000000000000000000000000000000000000000000000000000000000000000000000000000000000000000000000000000000000000000000000000000000000000000000000000200000000000000000100000000000000000000000000000000000000000000000000000000000000000100080000000000000000000000000000000000000000000000000000000000000000000000000040000800000000000000000000000000000000000000000000000000000000000000000000000000000000000000000000000000",
      "type": "0x2",
      "transactionHash": "0xc4fb08dd5407cac70c07be9b94f5599b61f670e146e970f82135bca86e77e948",
      "transactionIndex": "0x4",
      "blockHash": "0xc656181368336763573e3ea62e0bdf0b0459819480011088be1d0e10a09d6976",
      "blockNumber": "0x111a1ed",
      "gasUsed": "0x2b63b",
      "effectiveGasPrice": "0x18727cda00",
      "from": "0x2738f38fde510743e0c589415e0598c4cee6eaa7",
      "to": "0xbcdc1d0b92dfceeaa0fcd0a0d53355f4bf1db8a7",
      "contractAddress": null
    },
    {
      "status": "0x1",
      "cumulativeGasUsed": "0x7bef3",
      "logs": [
        {
          "address": "0x7109e0a9b4623e90755b7e5c4e10f089e5bf8bdb",
          "topics": [
            "0x133037347700fe9a7e5fffb139c832853fc52536035550fc6bc3b3f6207fd875",
            "0x000000000000000000000000734bb3251ec3f1a83f8f2a8609bcef649d54ebf8"
          ],
          "data": "0x0000000000000000000000000000000000000000000000000000000000000001",
          "blockHash": "0xb30d285b2e319e5341766a5baaf6d8522c27b906366453991b85393e3bda0ce1",
          "blockNumber": "0x111a1f2",
          "blockTimestamp": "0x69b04831",
          "transactionHash": "0x65a55d6541d4765c6c035948b11a382f46e39dca6490afe15e1e70f4b2778959",
          "transactionIndex": "0x3",
          "logIndex": "0x9",
          "removed": false
        }
      ],
      "logsBloom": "0x00000000000000000000000000000000000000000000000000000000000200000000000000000000000000000000000000000000000008000000000000008004000000000000000000000000000000000000000000008000000000000040000000000000000000000000000000000000000000000000000000000000000000000000000000000000000000000000000000000000000000000000000000000000000000000000000000000000000000000000000000000000000000010000000000000000000000000000000000000000000000000000000000000000000000800001000000000000000000000000000000000000000000000000000000000000",
      "type": "0x2",
      "transactionHash": "0x65a55d6541d4765c6c035948b11a382f46e39dca6490afe15e1e70f4b2778959",
      "transactionIndex": "0x3",
      "blockHash": "0xb30d285b2e319e5341766a5baaf6d8522c27b906366453991b85393e3bda0ce1",
      "blockNumber": "0x111a1f2",
      "gasUsed": "0x1bc73",
      "effectiveGasPrice": "0x18727cda00",
      "from": "0x2738f38fde510743e0c589415e0598c4cee6eaa7",
      "to": "0x7109e0a9b4623e90755b7e5c4e10f089e5bf8bdb",
      "contractAddress": null
    },
    {
      "status": "0x1",
      "cumulativeGasUsed": "0x4c6cc",
      "logs": [
        {
          "address": "0x734bb3251ec3f1a83f8f2a8609bcef649d54ebf8",
          "topics": [
            "0x5865b763d2fcaa2023d34f5622fec93cfc34b82e8625c1e622b9a6cb47a69239",
            "0x0000000000000000000000007109e0a9b4623e90755b7e5c4e10f089e5bf8bdb"
          ],
          "data": "0x0000000000000000000000007109e0a9b4623e90755b7e5c4e10f089e5bf8bdb0000000000000000000000005ecc03111ad2a78f981a108759bc73bae2ab31bc000000000000000000000000000000000000000000000000000000000000012c0000000000000000000000002738f38fde510743e0c589415e0598c4cee6eaa70000000000000000000000000000000000000000000000000000000000000000000000000000000000000000000000000000000000000000000000000000000000000000000000000000000000000000000000000000000000000000000000000000000000000000000000000000000000000000000000000000000000000000",
          "blockHash": "0x36c496eb4775eedf217d7c993ada00a376f4e2e82e5d408becfe06f739766b12",
          "blockNumber": "0x111a1f6",
          "blockTimestamp": "0x69b04833",
          "transactionHash": "0x4dd8cc7a22c0daf22418ecf969ef180ee0389d0f20e66ef6ea74791b21a9d1c0",
          "transactionIndex": "0x1",
          "logIndex": "0x1",
          "removed": false
        }
      ],
      "logsBloom": "0x00000000000080000000000000000000000400000000000000000000000000000000000000200000000000000000000000000000000000000000000000000000000000000000000000000000001000000000000000000000000080000000000000000000000000000000000000000000000000000100000000000000000000000000000000000000000000000000000000000000000000000000000000000000000000000000000000000000000000000000000000000000000001000000000000000000000000000000000000000000000000000000002000000000000000000100000000000000000000000000000000000000000000000000000000000000",
      "type": "0x2",
      "transactionHash": "0x4dd8cc7a22c0daf22418ecf969ef180ee0389d0f20e66ef6ea74791b21a9d1c0",
      "transactionIndex": "0x1",
      "blockHash": "0x36c496eb4775eedf217d7c993ada00a376f4e2e82e5d408becfe06f739766b12",
      "blockNumber": "0x111a1f6",
      "gasUsed": "0x4c6cc",
      "effectiveGasPrice": "0x18727cda00",
      "from": "0x2738f38fde510743e0c589415e0598c4cee6eaa7",
      "to": "0x734bb3251ec3f1a83f8f2a8609bcef649d54ebf8",
      "contractAddress": null
    },
    {
      "status": "0x1",
      "cumulativeGasUsed": "0x27333b",
      "logs": [
        {
          "address": "0x5ecc03111ad2a78f981a108759bc73bae2ab31bc",
          "topics": [
            "0xb21afb9ce9be0a676f8f317ff0ca072fb89a4f8ce2d1b6fe80f8755c14f1cb19",
            "0x000000000000000000000000734bb3251ec3f1a83f8f2a8609bcef649d54ebf8"
          ],
          "data": "0x0000000000000000000000000000000000000000000000000000000000000001",
          "blockHash": "0x6252e2967e5b1ac6636f101b145e8fa4975c799f27cf20d175894b3d9478a13a",
          "blockNumber": "0x111a1fb",
          "blockTimestamp": "0x69b04835",
          "transactionHash": "0xfc178b9bf00086258b7a6ef39039873d179ff0c58b500faa6647b0c8155715ef",
          "transactionIndex": "0x4",
          "logIndex": "0x13",
          "removed": false
        }
      ],
      "logsBloom": "0x00000000000000000000000000000000000000000000000000000000000200000000000000000000000000000000000000000000000000040000000000000080000000000000000004000000000000000000000000008000000000000000000000000000000000000000000000000000000000000000000000000000000000000000000000000000000000000000000000000000000000000000200000000000000000000000000000000000000000001000000000000000000000010200000000000000000000000000000000000000000000000000000000000000000000000000000000000000000000000000000000000000000000000000000000000000",
      "type": "0x2",
      "transactionHash": "0xfc178b9bf00086258b7a6ef39039873d179ff0c58b500faa6647b0c8155715ef",
      "transactionIndex": "0x4",
      "blockHash": "0x6252e2967e5b1ac6636f101b145e8fa4975c799f27cf20d175894b3d9478a13a",
      "blockNumber": "0x111a1fb",
      "gasUsed": "0x19218",
      "effectiveGasPrice": "0x18727cda00",
      "from": "0x2738f38fde510743e0c589415e0598c4cee6eaa7",
      "to": "0x5ecc03111ad2a78f981a108759bc73bae2ab31bc",
      "contractAddress": null
    },
    {
      "status": "0x1",
      "cumulativeGasUsed": "0x462b6",
      "logs": [
        {
          "address": "0x5ecc03111ad2a78f981a108759bc73bae2ab31bc",
          "topics": [
            "0xf0e5abe4ab32ea692e3889b4c146fd4ddae5f17bb40ab4feba97fb67a2d4de0f",
            "0x000000000000000000000000734bb3251ec3f1a83f8f2a8609bcef649d54ebf8"
          ],
          "data": "0x0000000000000000000000000000000000000000000000000000000000000001",
          "blockHash": "0x9bc7497386bf11cc7b5654ebee56570ee0759a84c78f2b5524017185141bb942",
          "blockNumber": "0x111a1ff",
          "blockTimestamp": "0x69b04836",
          "transactionHash": "0xef8efba1d0421610972db84ef2c4cfb1cf6c292bab9b97bd05a2a544e016d603",
          "transactionIndex": "0x2",
          "logIndex": "0x4",
          "removed": false
        }
      ],
      "logsBloom": "0x00000000000000000000000000000000000000000000000000000000000200000000000000000000000000000000000000000000040000000000000000000000100000000000000004000000000000000000000020008000000000000000000000000000000000000000000000000000000000000000000000000000000000000000000000000000000000000000000000000000000000000000000000000000000000000000000000000000000000001000000000000000000000010200000000000000000000000000000000000000000000000000000000000000000000000000000000000000000000000000000000000000000000000000000000000000",
      "type": "0x2",
      "transactionHash": "0xef8efba1d0421610972db84ef2c4cfb1cf6c292bab9b97bd05a2a544e016d603",
      "transactionIndex": "0x2",
      "blockHash": "0x9bc7497386bf11cc7b5654ebee56570ee0759a84c78f2b5524017185141bb942",
      "blockNumber": "0x111a1ff",
      "gasUsed": "0x19246",
      "effectiveGasPrice": "0x18727cda00",
      "from": "0x2738f38fde510743e0c589415e0598c4cee6eaa7",
      "to": "0x5ecc03111ad2a78f981a108759bc73bae2ab31bc",
      "contractAddress": null
    },
    {
      "status": "0x1",
      "cumulativeGasUsed": "0x1c40f3",
      "logs": [
        {
          "address": "0xba5ed099633d3b313e4d5f7bdc1305d3c28ba5ed",
          "topics": [
            "0x2feea65dd4e9f9cbd86b74b7734210c59a1b2981b5b137bd0ee3e208200c9067",
            "0x0000000000000000000000006d4c4b663541bf21015afb22669b0e1bbb3e2b1c",
            "0xa42cdf7e58f4fb280822ede61620fb567126df03ae30de1acee7107d27686787"
          ],
          "data": "0x",
          "blockHash": "0x4a318930f3523f2be1a4e225bd199f458ec0f858a9ab3de14362f219c0c7bb3c",
          "blockNumber": "0x111a200",
          "blockTimestamp": "0x69b04837",
          "transactionHash": "0xf22983c7fef347b825a13b6dd3df687b0b56d8324e64cc32617e53f9f724aad5",
          "transactionIndex": "0x1",
          "logIndex": "0x1",
          "removed": false
        },
        {
          "address": "0x52716e8f44e417be8f573f8a85ca8ed3dae1eae1",
          "topics": [
            "0xbc7cd75a20ee27fd9adebab32041f755214dbc6bffa90cc0225b39da2e5c2d3b",
            "0x00000000000000000000000043cb9d6acf1462356303079ea4fdd8bc30042a6a"
          ],
          "data": "0x",
          "blockHash": "0x4a318930f3523f2be1a4e225bd199f458ec0f858a9ab3de14362f219c0c7bb3c",
          "blockNumber": "0x111a200",
          "blockTimestamp": "0x69b04837",
          "transactionHash": "0xf22983c7fef347b825a13b6dd3df687b0b56d8324e64cc32617e53f9f724aad5",
          "transactionIndex": "0x1",
          "logIndex": "0x2",
          "removed": false
        },
        {
          "address": "0x52716e8f44e417be8f573f8a85ca8ed3dae1eae1",
          "topics": [
            "0x8be0079c531659141344cd1fd0a4f28419497f9722a3daafe3b4186f6b6457e0",
            "0x0000000000000000000000000000000000000000000000000000000000000000",
            "0x0000000000000000000000006d4c4b663541bf21015afb22669b0e1bbb3e2b1c"
          ],
          "data": "0x",
          "blockHash": "0x4a318930f3523f2be1a4e225bd199f458ec0f858a9ab3de14362f219c0c7bb3c",
          "blockNumber": "0x111a200",
          "blockTimestamp": "0x69b04837",
          "transactionHash": "0xf22983c7fef347b825a13b6dd3df687b0b56d8324e64cc32617e53f9f724aad5",
          "transactionIndex": "0x1",
          "logIndex": "0x3",
          "removed": false
        },
        {
          "address": "0x52716e8f44e417be8f573f8a85ca8ed3dae1eae1",
          "topics": [
            "0xb5d5dda8af4f1e40a5cc4aa66c39ca5aac7f90947261313b07527eb3bdd98bc7"
          ],
          "data": "0x00000000000000000000000000000000000000000000000000000000000000000000000000000000000000000000000000000000000000000000000000000003",
          "blockHash": "0x4a318930f3523f2be1a4e225bd199f458ec0f858a9ab3de14362f219c0c7bb3c",
          "blockNumber": "0x111a200",
          "blockTimestamp": "0x69b04837",
          "transactionHash": "0xf22983c7fef347b825a13b6dd3df687b0b56d8324e64cc32617e53f9f724aad5",
          "transactionIndex": "0x1",
          "logIndex": "0x4",
          "removed": false
        },
        {
          "address": "0x52716e8f44e417be8f573f8a85ca8ed3dae1eae1",
          "topics": [
            "0xd3890fc76afcfc31cba1dcf2c27b50e2541e4d75039c981855b5b5e03682aea0",
            "0x0000000000000000000000000000000000000000000000000000000000000000",
            "0x0000000000000000000000002738f38fde510743e0c589415e0598c4cee6eaa7"
          ],
          "data": "0x",
          "blockHash": "0x4a318930f3523f2be1a4e225bd199f458ec0f858a9ab3de14362f219c0c7bb3c",
          "blockNumber": "0x111a200",
          "blockTimestamp": "0x69b04837",
          "transactionHash": "0xf22983c7fef347b825a13b6dd3df687b0b56d8324e64cc32617e53f9f724aad5",
          "transactionIndex": "0x1",
          "logIndex": "0x5",
          "removed": false
        },
        {
          "address": "0x52716e8f44e417be8f573f8a85ca8ed3dae1eae1",
          "topics": [
            "0xb404cac19fb1cbeff98d325795b08886e3cd8fe8cb1a2f193aac66f13fb239c3"
          ],
          "data": "0x00000000000000000000000000000000000000000000000000000000000000000000000000000000000000000000000000000000000000000000000000000002",
          "blockHash": "0x4a318930f3523f2be1a4e225bd199f458ec0f858a9ab3de14362f219c0c7bb3c",
          "blockNumber": "0x111a200",
          "blockTimestamp": "0x69b04837",
          "transactionHash": "0xf22983c7fef347b825a13b6dd3df687b0b56d8324e64cc32617e53f9f724aad5",
          "transactionIndex": "0x1",
          "logIndex": "0x6",
          "removed": false
        },
        {
          "address": "0x52716e8f44e417be8f573f8a85ca8ed3dae1eae1",
          "topics": [
            "0xb273226859e3e49fd86c9ac8f721eaa74e677de0877db704918e0f43ec8d23bc"
          ],
          "data": "0x00000000000000000000000000000000000000000000000000000000000000000000000000000000000000000000000000000000000000000000000000000001",
          "blockHash": "0x4a318930f3523f2be1a4e225bd199f458ec0f858a9ab3de14362f219c0c7bb3c",
          "blockNumber": "0x111a200",
          "blockTimestamp": "0x69b04837",
          "transactionHash": "0xf22983c7fef347b825a13b6dd3df687b0b56d8324e64cc32617e53f9f724aad5",
          "transactionIndex": "0x1",
          "logIndex": "0x7",
          "removed": false
        },
        {
          "address": "0x52716e8f44e417be8f573f8a85ca8ed3dae1eae1",
          "topics": [
            "0x77c5ddba87b3d3f970242eda9bb1263ade9e4aed3eca233d5fa1af00a574b025"
          ],
          "data": "0x0000000000000000000000000000000000000000000000000000000000000000000000000000000000000000000000000000000000000000000000000000000000000000000000000000000000000000000000000000000000000000000013880000000000000000000000000000000000000000000000000000000000000d05",
          "blockHash": "0x4a318930f3523f2be1a4e225bd199f458ec0f858a9ab3de14362f219c0c7bb3c",
          "blockNumber": "0x111a200",
          "blockTimestamp": "0x69b04837",
          "transactionHash": "0xf22983c7fef347b825a13b6dd3df687b0b56d8324e64cc32617e53f9f724aad5",
          "transactionIndex": "0x1",
          "logIndex": "0x8",
          "removed": false
        },
        {
          "address": "0x52716e8f44e417be8f573f8a85ca8ed3dae1eae1",
          "topics": [
            "0xe4630e6e66d263636ccf946c97182b0edb7bbea539a79dfa121bab7444e83b79",
            "0x0000000000000000000000000000000000000000000000000000000000000000",
            "0x00000000000000000000000026eff54e2f0e8825996b83119b7df5ef2c882dd7"
          ],
          "data": "0x",
          "blockHash": "0x4a318930f3523f2be1a4e225bd199f458ec0f858a9ab3de14362f219c0c7bb3c",
          "blockNumber": "0x111a200",
          "blockTimestamp": "0x69b04837",
          "transactionHash": "0xf22983c7fef347b825a13b6dd3df687b0b56d8324e64cc32617e53f9f724aad5",
          "transactionIndex": "0x1",
          "logIndex": "0x9",
          "removed": false
        },
        {
          "address": "0x52716e8f44e417be8f573f8a85ca8ed3dae1eae1",
          "topics": [
            "0xc1ba25a60afffd747fd25304e169131b7ae93932f7f3e508a8cec0e18fa12842",
            "0x0000000000000000000000000000000000000000000000000000000000000000",
            "0x000000000000000000000000f47172ce00522cc7db02109634a92ce866a15fcc"
          ],
          "data": "0x",
          "blockHash": "0x4a318930f3523f2be1a4e225bd199f458ec0f858a9ab3de14362f219c0c7bb3c",
          "blockNumber": "0x111a200",
          "blockTimestamp": "0x69b04837",
          "transactionHash": "0xf22983c7fef347b825a13b6dd3df687b0b56d8324e64cc32617e53f9f724aad5",
          "transactionIndex": "0x1",
          "logIndex": "0xa",
          "removed": false
        },
        {
          "address": "0x52716e8f44e417be8f573f8a85ca8ed3dae1eae1",
          "topics": [
            "0x00af8726a3679feb41b28b0996e403259aceb28ec6f3c6c3dc7a4c4fe6c8fce1"
          ],
          "data": "0x00000000000000000000000000000000000000000000000000000000000000000000000000000000000000000000000000000000000000000000000000000001",
          "blockHash": "0x4a318930f3523f2be1a4e225bd199f458ec0f858a9ab3de14362f219c0c7bb3c",
          "blockNumber": "0x111a200",
          "blockTimestamp": "0x69b04837",
          "transactionHash": "0xf22983c7fef347b825a13b6dd3df687b0b56d8324e64cc32617e53f9f724aad5",
          "transactionIndex": "0x1",
          "logIndex": "0xb",
          "removed": false
        },
        {
          "address": "0x52716e8f44e417be8f573f8a85ca8ed3dae1eae1",
          "topics": [
            "0x8be0079c531659141344cd1fd0a4f28419497f9722a3daafe3b4186f6b6457e0",
            "0x0000000000000000000000006d4c4b663541bf21015afb22669b0e1bbb3e2b1c",
            "0x0000000000000000000000002738f38fde510743e0c589415e0598c4cee6eaa7"
          ],
          "data": "0x",
          "blockHash": "0x4a318930f3523f2be1a4e225bd199f458ec0f858a9ab3de14362f219c0c7bb3c",
          "blockNumber": "0x111a200",
          "blockTimestamp": "0x69b04837",
          "transactionHash": "0xf22983c7fef347b825a13b6dd3df687b0b56d8324e64cc32617e53f9f724aad5",
          "transactionIndex": "0x1",
          "logIndex": "0xc",
          "removed": false
        },
        {
          "address": "0x52716e8f44e417be8f573f8a85ca8ed3dae1eae1",
          "topics": [
            "0x7f26b83ff96e1f2b6a682f133852f6798a09c465da95921460cefb3847402498"
          ],
          "data": "0x0000000000000000000000000000000000000000000000000000000000000001",
          "blockHash": "0x4a318930f3523f2be1a4e225bd199f458ec0f858a9ab3de14362f219c0c7bb3c",
          "blockNumber": "0x111a200",
          "blockTimestamp": "0x69b04837",
          "transactionHash": "0xf22983c7fef347b825a13b6dd3df687b0b56d8324e64cc32617e53f9f724aad5",
          "transactionIndex": "0x1",
          "logIndex": "0xd",
          "removed": false
        },
        {
          "address": "0x52716e8f44e417be8f573f8a85ca8ed3dae1eae1",
          "topics": [
            "0x7e644d79422f17c01e4894b5f4f588d331ebfa28653d42ae832dc59e38c9798f"
          ],
          "data": "0x0000000000000000000000000000000000000000000000000000000000000000000000000000000000000000aad8b67551086609d132178dff1dbe31b3c1c9c2",
          "blockHash": "0x4a318930f3523f2be1a4e225bd199f458ec0f858a9ab3de14362f219c0c7bb3c",
          "blockNumber": "0x111a200",
          "blockTimestamp": "0x69b04837",
          "transactionHash": "0xf22983c7fef347b825a13b6dd3df687b0b56d8324e64cc32617e53f9f724aad5",
          "transactionIndex": "0x1",
          "logIndex": "0xe",
          "removed": false
        },
        {
          "address": "0xba5ed099633d3b313e4d5f7bdc1305d3c28ba5ed",
          "topics": [
            "0x4db17dd5e4732fb6da34a148104a592783ca119a1e7bb8829eba6cbadef0b511",
            "0x00000000000000000000000052716e8f44e417be8f573f8a85ca8ed3dae1eae1"
          ],
          "data": "0x",
          "blockHash": "0x4a318930f3523f2be1a4e225bd199f458ec0f858a9ab3de14362f219c0c7bb3c",
          "blockNumber": "0x111a200",
          "blockTimestamp": "0x69b04837",
          "transactionHash": "0xf22983c7fef347b825a13b6dd3df687b0b56d8324e64cc32617e53f9f724aad5",
          "transactionIndex": "0x1",
          "logIndex": "0xf",
          "removed": false
        },
        {
          "address": "0x353ed52bf8482027c0e0b9e3c0e5d96a9f680980",
          "topics": [
            "0xcf8e77154e470bf74e2e443ad6193730ed2a7c72279dc06aa8c12daf20c7768e",
            "0x000000000000000000000000502e67d3fe9302a5e4ec1cfcddbd6f34f9b9484b",
            "0x0000000000000000000000005ecc03111ad2a78f981a108759bc73bae2ab31bc"
          ],
          "data": "0x00000000000000000000000052716e8f44e417be8f573f8a85ca8ed3dae1eae100000000000000000000000043cb9d6acf1462356303079ea4fdd8bc30042a6a",
          "blockHash": "0x4a318930f3523f2be1a4e225bd199f458ec0f858a9ab3de14362f219c0c7bb3c",
          "blockNumber": "0x111a200",
          "blockTimestamp": "0x69b04837",
          "transactionHash": "0xf22983c7fef347b825a13b6dd3df687b0b56d8324e64cc32617e53f9f724aad5",
          "transactionIndex": "0x1",
          "logIndex": "0x10",
          "removed": false
        }
      ],
      "logsBloom": "0x88020000000002000000008000000420400000000800008000800001200010000000000240000000000400000000009000002000000804000000000000000000002000000000000000000000020042000001040000000000006000000000000000004010020000000000000000100800000040800122000000080100000000400000000004000000000400000000000008000000020880000204004000800010000002820044000000000000000400000000000000000000000000000010000000800820020000000200080000040010000000002400000020100000000024000000000000000200000000000000000000180080000000400000001000000001",
      "type": "0x2",
      "transactionHash": "0xf22983c7fef347b825a13b6dd3df687b0b56d8324e64cc32617e53f9f724aad5",
      "transactionIndex": "0x1",
      "blockHash": "0x4a318930f3523f2be1a4e225bd199f458ec0f858a9ab3de14362f219c0c7bb3c",
      "blockNumber": "0x111a200",
      "gasUsed": "0x1c40f3",
      "effectiveGasPrice": "0x18727cda00",
      "from": "0x2738f38fde510743e0c589415e0598c4cee6eaa7",
      "to": "0x353ed52bf8482027c0e0b9e3c0e5d96a9f680980",
      "contractAddress": null
    },
    {
      "status": "0x1",
      "cumulativeGasUsed": "0x1e0868",
      "logs": [
        {
          "address": "0x502e67d3fe9302a5e4ec1cfcddbd6f34f9b9484b",
          "topics": [
            "0xddf252ad1be2c89b69c2b068fc378daa952ba7f163c4a11628f55a4df523b3ef",
            "0x0000000000000000000000002738f38fde510743e0c589415e0598c4cee6eaa7",
            "0x00000000000000000000000052716e8f44e417be8f573f8a85ca8ed3dae1eae1"
          ],
          "data": "0x00000000000000000000000000000000000000000000000000000000000f4270",
          "blockHash": "0x6e70b20a2a0d61f806244fbacc8d3b66e014ddc2349648a824e42ee6da780cf8",
          "blockNumber": "0x111a203",
          "blockTimestamp": "0x69b04839",
          "transactionHash": "0xdb3482aa1011dbe51e33446f04a393e1b71e793ca40d189cf5fe8f353397890a",
          "transactionIndex": "0x7",
          "logIndex": "0x16",
          "removed": false
        }
      ],
      "logsBloom": "0x08000000200000000000000000000000000000000000000000000000000000000000000040000000000000000000000000000000000000000000200000000000002000000000000000000008000000000000000000000000000000000000000000000000000000000000000000000000000040000000000000000010000000000000000000000000000000000000000000000000000000000000000000000010000000000000000000000000000000000000000000000000000000000000000000000802000000000000000000000000000000000000000000100000000000000000000000000000000000000000000000000000000000000000000000000000",
      "type": "0x2",
      "transactionHash": "0xdb3482aa1011dbe51e33446f04a393e1b71e793ca40d189cf5fe8f353397890a",
      "transactionIndex": "0x7",
      "blockHash": "0x6e70b20a2a0d61f806244fbacc8d3b66e014ddc2349648a824e42ee6da780cf8",
      "blockNumber": "0x111a203",
      "gasUsed": "0x146ea",
      "effectiveGasPrice": "0x18727cda00",
      "from": "0x2738f38fde510743e0c589415e0598c4cee6eaa7",
      "to": "0x502e67d3fe9302a5e4ec1cfcddbd6f34f9b9484b",
      "contractAddress": null
    },
    {
      "status": "0x1",
      "cumulativeGasUsed": "0x513bf",
      "logs": [
        {
          "address": "0x5ecc03111ad2a78f981a108759bc73bae2ab31bc",
          "topics": [
            "0xddf252ad1be2c89b69c2b068fc378daa952ba7f163c4a11628f55a4df523b3ef",
            "0x0000000000000000000000002738f38fde510743e0c589415e0598c4cee6eaa7",
            "0x00000000000000000000000052716e8f44e417be8f573f8a85ca8ed3dae1eae1"
          ],
          "data": "0x0000000000000000000000000000000000000000000000000de0b6b3a7640000",
          "blockHash": "0xa525348a48ab1eea325f805aaee98013ca7203cf1cadfd8f913f57e08e47510a",
          "blockNumber": "0x111a206",
          "blockTimestamp": "0x69b0483a",
          "transactionHash": "0x1916f2d1b3f2e09b086712632a82aa41e46fb95e5b51bd75306dbfe3b2793c39",
          "transactionIndex": "0x2",
          "logIndex": "0x5",
          "removed": false
        }
      ],
      "logsBloom": "0x08000000000000000000000000000000000000000000000000000000000000000000000000000000000000000000000000000000000000000000000000000000002000000000000004000008000000000000000000000000000000000000000000000000000000000000000000000000000040000000000000000010000000000000000000000000000000000000000000000000000000000000000000000010000000000000000000000000000000001000000000000000000000000200000000000802000000000000000000000000000000000000000000100000000000000000000000000000000000000000000000000000000000000000000000000000",
      "type": "0x2",
      "transactionHash": "0x1916f2d1b3f2e09b086712632a82aa41e46fb95e5b51bd75306dbfe3b2793c39",
      "transactionIndex": "0x2",
      "blockHash": "0xa525348a48ab1eea325f805aaee98013ca7203cf1cadfd8f913f57e08e47510a",
      "blockNumber": "0x111a206",
      "gasUsed": "0x1a42a",
      "effectiveGasPrice": "0x18727cda00",
      "from": "0x2738f38fde510743e0c589415e0598c4cee6eaa7",
      "to": "0x5ecc03111ad2a78f981a108759bc73bae2ab31bc",
      "contractAddress": null
    },
    {
      "status": "0x1",
      "cumulativeGasUsed": "0x6b434",
      "logs": [
        {
          "address": "0x52716e8f44e417be8f573f8a85ca8ed3dae1eae1",
          "topics": [
            "0xddf252ad1be2c89b69c2b068fc378daa952ba7f163c4a11628f55a4df523b3ef",
            "0x0000000000000000000000000000000000000000000000000000000000000000",
            "0x0000000000000000000000000000000000000000000000000000000000000001"
          ],
          "data": "0x00000000000000000000000000000000000000000000000000000000000003e8",
          "blockHash": "0x42379c5241b5de8eaea99bce4de7b51786fc102f8b1851b5c6ab94c9223e5cd5",
          "blockNumber": "0x111a207",
          "blockTimestamp": "0x69b0483a",
          "transactionHash": "0x28290de6c10b541c99f0a962a0ce2dafbb6da6d97cbb8c2012fbc76f0c467f4e",
          "transactionIndex": "0x1",
          "logIndex": "0x1",
          "removed": false
        },
        {
          "address": "0x52716e8f44e417be8f573f8a85ca8ed3dae1eae1",
          "topics": [
            "0xddf252ad1be2c89b69c2b068fc378daa952ba7f163c4a11628f55a4df523b3ef",
            "0x0000000000000000000000000000000000000000000000000000000000000000",
            "0x0000000000000000000000002738f38fde510743e0c589415e0598c4cee6eaa7"
          ],
          "data": "0x000000000000000000000000000000000000000000000000000000e8d61340f8",
          "blockHash": "0x42379c5241b5de8eaea99bce4de7b51786fc102f8b1851b5c6ab94c9223e5cd5",
          "blockNumber": "0x111a207",
          "blockTimestamp": "0x69b0483a",
          "transactionHash": "0x28290de6c10b541c99f0a962a0ce2dafbb6da6d97cbb8c2012fbc76f0c467f4e",
          "transactionIndex": "0x1",
          "logIndex": "0x2",
          "removed": false
        },
        {
          "address": "0x52716e8f44e417be8f573f8a85ca8ed3dae1eae1",
          "topics": [
            "0xf71a0e183fe1c86e734de92237976be5699cb46fd28373d6ace2f8eafea2857c"
          ],
          "data": "0x00000000000000000000000000000000000000000000000000000000000f42700000000000000000000000000000000000000000000000000de0b6b3a76400000000000000000000000000000000000000000000000000000000000069b0483a",
          "blockHash": "0x42379c5241b5de8eaea99bce4de7b51786fc102f8b1851b5c6ab94c9223e5cd5",
          "blockNumber": "0x111a207",
          "blockTimestamp": "0x69b0483a",
          "transactionHash": "0x28290de6c10b541c99f0a962a0ce2dafbb6da6d97cbb8c2012fbc76f0c467f4e",
          "transactionIndex": "0x1",
          "logIndex": "0x3",
          "removed": false
        },
        {
          "address": "0x52716e8f44e417be8f573f8a85ca8ed3dae1eae1",
          "topics": [
            "0xa8137fff86647d8a402117b9c5dbda627f721d3773338fb9678c83e54ed39080",
            "0x0000000000000000000000002738f38fde510743e0c589415e0598c4cee6eaa7",
            "0x0000000000000000000000002738f38fde510743e0c589415e0598c4cee6eaa7"
          ],
          "data": "0x00000000000000000000000000000000000000000000000000000000000f42700000000000000000000000000000000000000000000000000de0b6b3a7640000000000000000000000000000000000000000000000000000000000e8d61340f8",
          "blockHash": "0x42379c5241b5de8eaea99bce4de7b51786fc102f8b1851b5c6ab94c9223e5cd5",
          "blockNumber": "0x111a207",
          "blockTimestamp": "0x69b0483a",
          "transactionHash": "0x28290de6c10b541c99f0a962a0ce2dafbb6da6d97cbb8c2012fbc76f0c467f4e",
          "transactionIndex": "0x1",
          "logIndex": "0x4",
          "removed": false
        }
      ],
      "logsBloom": "0x00000000200000000000000000000000000000000000008000000000000000000000000000000000000000000000000000000000080000000000000000040000002000000100000000000008000000000000000000040000000000000000000000000000020000000000000000000800000000000000000000000110000000000000000000000000000000000000000000000000000000000000000000000010000000000000000000000000000000400000000000000000000000000000400000000802000000000000000000000000000000000000000000000000000060000000000000000000000000000000000000000000000000000000000000000001",
      "type": "0x2",
      "transactionHash": "0x28290de6c10b541c99f0a962a0ce2dafbb6da6d97cbb8c2012fbc76f0c467f4e",
      "transactionIndex": "0x1",
      "blockHash": "0x42379c5241b5de8eaea99bce4de7b51786fc102f8b1851b5c6ab94c9223e5cd5",
      "blockNumber": "0x111a207",
      "gasUsed": "0x6b434",
      "effectiveGasPrice": "0x18727cda00",
      "from": "0x2738f38fde510743e0c589415e0598c4cee6eaa7",
      "to": "0x52716e8f44e417be8f573f8a85ca8ed3dae1eae1",
      "contractAddress": null
    },
    {
      "status": "0x1",
      "cumulativeGasUsed": "0x5cc33",
      "logs": [
        {
          "address": "0x52716e8f44e417be8f573f8a85ca8ed3dae1eae1",
          "topics": [
            "0x0a59d45890c37e353ebb4ff4a00b4e5002b27b21e3a308daea7646097c12533f",
            "0x000000000000000000000000502e67d3fe9302a5e4ec1cfcddbd6f34f9b9484b"
          ],
          "data": "0x0000000000000000000000000000000000000000000000878678326eac90000000000000000000000000000000000000000000000000010f0cf064dd592000000000000000000000000000000000000000000000000000000000000000000006",
          "blockHash": "0x1afee6f5470ed3b1f51590ead827649eb0072404b60cbf86dfb2748ac83db5a0",
          "blockNumber": "0x111a20b",
          "blockTimestamp": "0x69b0483c",
          "transactionHash": "0xd94aa2f7670049046efb7b8ac6eecab10f83f382a6d306268b04cd8326068550",
          "transactionIndex": "0x2",
          "logIndex": "0x5",
          "removed": false
        }
      ],
      "logsBloom": "0x00000000000000000000000000000000000000000000008004000000000000000000000040000000000000000000000000000000000000000000000100000000000000000000000000000000000000000000000000000000000000000000000000000000000000000000000000000000000000000000000000000100000000000000000000000000000000000000000000000000000000000200000000000000000000000000000000000000000000000000000000000000000000000000000000000000000000000000000000000000000000000000000000000000010000000000000000000000000000000000000000000000000000400000000000000001",
      "type": "0x2",
      "transactionHash": "0xd94aa2f7670049046efb7b8ac6eecab10f83f382a6d306268b04cd8326068550",
      "transactionIndex": "0x2",
      "blockHash": "0x1afee6f5470ed3b1f51590ead827649eb0072404b60cbf86dfb2748ac83db5a0",
      "blockNumber": "0x111a20b",
      "gasUsed": "0x25c27",
      "effectiveGasPrice": "0x18727cda00",
      "from": "0x2738f38fde510743e0c589415e0598c4cee6eaa7",
      "to": "0x52716e8f44e417be8f573f8a85ca8ed3dae1eae1",
      "contractAddress": null
    },
    {
      "status": "0x1",
      "cumulativeGasUsed": "0x9c37c",
      "logs": [
        {
          "address": "0x52716e8f44e417be8f573f8a85ca8ed3dae1eae1",
          "topics": [
            "0x0a59d45890c37e353ebb4ff4a00b4e5002b27b21e3a308daea7646097c12533f",
            "0x0000000000000000000000005ecc03111ad2a78f981a108759bc73bae2ab31bc"
          ],
          "data": "0x0000000000000000000000000000000000000000000000878678326eac90000000000000000000000000000000000000000000000000010f0cf064dd592000000000000000000000000000000000000000000000000000000000000000000012",
          "blockHash": "0x6928ee1b7f4fecb754036bdcc02981fb8d561b42fbe606e59636c78bb4c619b2",
          "blockNumber": "0x111a20f",
          "blockTimestamp": "0x69b0483e",
          "transactionHash": "0x9c9a607a8bf3465681b823ef7d4f07e662caf6de199f173a0ee08eea752254a3",
          "transactionIndex": "0x3",
          "logIndex": "0x9",
          "removed": false
        }
      ],
      "logsBloom": "0x00000000000000000000000000000000000000000000008004000000000000000000000000000000000000000000000000002000000000000000000100000000000000000000000000000000000000000000000000000000000000000000000000000000000000000000000000000000000000000002000000000100000000000000000000000000000000000000000000000000000000000000000000000000000000800000000000000000000000000000000000000000000000000000000000000000000000000000000000000000000000000000000000000000010000000000000000000000000000000000000000000000000000000000000000000001",
      "type": "0x2",
      "transactionHash": "0x9c9a607a8bf3465681b823ef7d4f07e662caf6de199f173a0ee08eea752254a3",
      "transactionIndex": "0x3",
      "blockHash": "0x6928ee1b7f4fecb754036bdcc02981fb8d561b42fbe606e59636c78bb4c619b2",
      "blockNumber": "0x111a20f",
      "gasUsed": "0x2e45a",
      "effectiveGasPrice": "0x18727cda00",
      "from": "0x2738f38fde510743e0c589415e0598c4cee6eaa7",
      "to": "0x52716e8f44e417be8f573f8a85ca8ed3dae1eae1",
      "contractAddress": null
    },
    {
      "status": "0x1",
      "cumulativeGasUsed": "0x5ce9d",
      "logs": [
        {
          "address": "0xbcdc1d0b92dfceeaa0fcd0a0d53355f4bf1db8a7",
          "topics": [
            "0x52cceb71b4b81514c72f2311183885dd3a70cca83e7811fa08e9b9937047109d",
            "0x000000000000000000000000502e67d3fe9302a5e4ec1cfcddbd6f34f9b9484b"
          ],
          "data": "0x",
          "blockHash": "0x69c4551b0dc70157332f1102cdb869758348fdef3dd0633c12786fa4b9075841",
          "blockNumber": "0x111a210",
          "blockTimestamp": "0x69b0483e",
          "transactionHash": "0x6a9af6b2ac6dca8bc88eebcd6dd6081143fe5a3cd66a96a37c71d8d53779b8d5",
          "transactionIndex": "0x2",
          "logIndex": "0x5",
          "removed": false
        }
      ],
      "logsBloom": "0x00000000004000000000000000000000000000000000000000000000000000000000000040000000000000000000000000000000000000000000000000000000000000000000000000000000000000000000000000000000000000000000000000000000000000000000000000000000000000000000000000000200000000000000000100000000000000000000000000000000000000000200000000000000000000000000080000000000000000000000000000000000000000000000000000000000000000000000000040000800000000000000000000000000000000000000000000000000000000000000000000000000000000400000000000000000",
      "type": "0x2",
      "transactionHash": "0x6a9af6b2ac6dca8bc88eebcd6dd6081143fe5a3cd66a96a37c71d8d53779b8d5",
      "transactionIndex": "0x2",
      "blockHash": "0x69c4551b0dc70157332f1102cdb869758348fdef3dd0633c12786fa4b9075841",
      "blockNumber": "0x111a210",
      "gasUsed": "0x25eb4",
      "effectiveGasPrice": "0x18727cda00",
      "from": "0x2738f38fde510743e0c589415e0598c4cee6eaa7",
      "to": "0xbcdc1d0b92dfceeaa0fcd0a0d53355f4bf1db8a7",
      "contractAddress": null
    },
    {
      "status": "0x1",
      "cumulativeGasUsed": "0x52c37",
      "logs": [
        {
          "address": "0x52716e8f44e417be8f573f8a85ca8ed3dae1eae1",
          "topics": [
            "0x133037347700fe9a7e5fffb139c832853fc52536035550fc6bc3b3f6207fd875",
            "0x000000000000000000000000734bb3251ec3f1a83f8f2a8609bcef649d54ebf8"
          ],
          "data": "0x0000000000000000000000000000000000000000000000000000000000000001",
          "blockHash": "0x75a0fc49b1d5c3c8d3fe4996f91042ac33e7256284d5b84e385a6d40549bec4a",
          "blockNumber": "0x111a214",
          "blockTimestamp": "0x69b04840",
          "transactionHash": "0x98e71bee918d2cefc773dc1b18240719501afd50141d617767fd13eb19d9bd43",
          "transactionIndex": "0x2",
          "logIndex": "0x5",
          "removed": false
        }
      ],
      "logsBloom": "0x00000000000000000000000000000000000000000000008000000000000200000000000000000000000000000000000000000000000008000000000000000000000000000000000000000000000000000000000000008000000000000000000000000000000000000000000000000000000000000000000000000100000000000000000000000000000000000000000000000000000000000000000000000000000000000000000000000000000000000000000000000000000000010000000000000000000000000000000000000000000000000000000000000000000000800001000000000000000000000000000000000000000000000000000000000001",
      "type": "0x2",
      "transactionHash": "0x98e71bee918d2cefc773dc1b18240719501afd50141d617767fd13eb19d9bd43",
      "transactionIndex": "0x2",
      "blockHash": "0x75a0fc49b1d5c3c8d3fe4996f91042ac33e7256284d5b84e385a6d40549bec4a",
      "blockNumber": "0x111a214",
      "gasUsed": "0x1bc73",
      "effectiveGasPrice": "0x18727cda00",
      "from": "0x2738f38fde510743e0c589415e0598c4cee6eaa7",
      "to": "0x52716e8f44e417be8f573f8a85ca8ed3dae1eae1",
      "contractAddress": null
    },
    {
      "status": "0x1",
      "cumulativeGasUsed": "0x45fe1",
      "logs": [
        {
          "address": "0x734bb3251ec3f1a83f8f2a8609bcef649d54ebf8",
          "topics": [
            "0x5865b763d2fcaa2023d34f5622fec93cfc34b82e8625c1e622b9a6cb47a69239",
            "0x00000000000000000000000052716e8f44e417be8f573f8a85ca8ed3dae1eae1"
          ],
          "data": "0x00000000000000000000000052716e8f44e417be8f573f8a85ca8ed3dae1eae10000000000000000000000005ecc03111ad2a78f981a108759bc73bae2ab31bc000000000000000000000000000000000000000000000000000000000000012c0000000000000000000000002738f38fde510743e0c589415e0598c4cee6eaa70000000000000000000000000000000000000000000000000000000000000000000000000000000000000000000000000000000000000000000000000000000000000000000000000000000000000000000000000000000000000000000000000000000000000000000000000000000000000000000000000000000000000000",
          "blockHash": "0x4a5432bad3949914a48641514a75f9d5fc716795f1cee61299afd5f024424eaf",
          "blockNumber": "0x111a218",
          "blockTimestamp": "0x69b04841",
          "transactionHash": "0xcc3d13210ebb801606c698681140398eeb524034a686ea6a626d4a2280f9170a",
          "transactionIndex": "0x1",
          "logIndex": "0x1",
          "removed": false
        }
      ],
      "logsBloom": "0x08000000000000000000000000000000000400000000000000000000000000000000000000200000000000000000000000000000000000000000000000000000000000000000000000000000001000000000000000000000000080000000000000000000000000000000000000000000000040000000000000000000000000000000000000000000000000000000000000000000000000000000000000000000000000000000000000000000000000000000000000000000000000000000000000000000000000000000000000000000000000000000002000100000000000000100000000000000000000000000000000000000000000000000000000000000",
      "type": "0x2",
      "transactionHash": "0xcc3d13210ebb801606c698681140398eeb524034a686ea6a626d4a2280f9170a",
      "transactionIndex": "0x1",
      "blockHash": "0x4a5432bad3949914a48641514a75f9d5fc716795f1cee61299afd5f024424eaf",
      "blockNumber": "0x111a218",
      "gasUsed": "0x45fe1",
      "effectiveGasPrice": "0x18727cda00",
      "from": "0x2738f38fde510743e0c589415e0598c4cee6eaa7",
      "to": "0x734bb3251ec3f1a83f8f2a8609bcef649d54ebf8",
      "contractAddress": null
    }
  ],
  "libraries": [
    "lib/mento-core/node_modules/@celo/contracts/common/linkedlists/AddressSortedLinkedListWithMedian.sol:AddressSortedLinkedListWithMedian:0x8E1B1312EC92C9f8073296c4Cf1E60D31d228269"
  ],
  "pending": [],
  "returns": {},
  "timestamp": 1773160513768,
  "chain": 10143,
  "commit": "ed817e1"
}