{
  "transactions": [
    {
      "hash": "0x05ab1643d2f9faf3c818600d6d4a54f0893289e8c335877874c12f6b04fa36f6",
      "transactionType": "CALL",
      "contractName": null,
      "contractAddress": "0x353ed52bf8482027c0e0b9e3c0e5d96a9f680980",
      "function": "deployFPMM(address,address,address,address,address,address,address,bool,(uint256,uint256,address,address,uint256,uint256,uint256))",
      "arguments": [
        "0x43cB9D6AcF1462356303079EA4FDd8bc30042a6A",
        "0x26eFF54e2f0E8825996b83119b7Df5ef2C882dD7",
        "0xaad8b67551086609D132178dfF1dBE31b3c1C9C2",
        "0x2738F38Fde510743e0c589415E0598C4ceE6eAa7",
        "0x377755da4994c2cfE21b39bbCE7211eab6f5FCC1",
        "0x5eCc03111ad2A78F981A108759bc73BAE2AB31bc",
        "0xb9aDdcD1d1CE7d49DBB540E2677F1C572Bc8D195",
        "false",
        "(10, 5, 0x2738F38Fde510743e0c589415E0598C4ceE6eAa7, 0x2738F38Fde510743e0c589415E0598C4ceE6eAa7, 6, 5000, 3333)"
      ],
      "transaction": {
        "from": "0x2738f38fde510743e0c589415e0598c4cee6eaa7",
        "to": "0x353ed52bf8482027c0e0b9e3c0e5d96a9f680980",
        "gas": "0x1c72a2",
        "value": "0x0",
        "input": "0x098a676e00000000000000000000000043cb9d6acf1462356303079ea4fdd8bc30042a6a00000000000000000000000026eff54e2f0e8825996b83119b7df5ef2c882dd7000000000000000000000000aad8b67551086609d132178dff1dbe31b3c1c9c20000000000000000000000002738f38fde510743e0c589415e0598c4cee6eaa7000000000000000000000000377755da4994c2cfe21b39bbce7211eab6f5fcc10000000000000000000000005ecc03111ad2a78f981a108759bc73bae2ab31bc000000000000000000000000b9addcd1d1ce7d49dbb540e2677f1c572bc8d1950000000000000000000000000000000000000000000000000000000000000000000000000000000000000000000000000000000000000000000000000000000a00000000000000000000000000000000000000000000000000000000000000050000000000000000000000002738f38fde510743e0c589415e0598c4cee6eaa70000000000000000000000002738f38fde510743e0c589415e0598c4cee6eaa7000000000000000000000000000000000000000000000000000000000000000600000000000000000000000000000000000000000000000000000000000013880000000000000000000000000000000000000000000000000000000000000d05",
        "nonce": "0x199",
        "chainId": "0x279f"
      },
      "additionalContracts": [
        {
          "transactionType": "CREATE2",
          "contractName": null,
          "address": "0x8e40ca2cef706205ba8dcd9150ee7b84ef3beebe",
          "initCode": "0x67363d3d37363d34f03d5260086018f3"
        },
        {
          "transactionType": "CREATE",
          "contractName": "FPMMProxy",
          "address": "0xfd5295e75ffea02780b0e2638d9fabb0316fd4e0",
          "initCode": "0x608060405260405162000dfa38038062000dfa83398101604081905262000026916200041b565b82828282816200003882825f62000052565b506200004690508262000083565b50505050505062000546565b6200005d83620000f4565b5f825111806200006a5750805b156200007e576200007c838362000135565b505b505050565b7f7e644d79422f17c01e4894b5f4f588d331ebfa28653d42ae832dc59e38c9798f620000c45f8051602062000db3833981519152546001600160a01b031690565b604080516001600160a01b03928316815291841660208301520160405180910390a1620000f18162000164565b50565b620000ff8162000201565b6040516001600160a01b038216907fbc7cd75a20ee27fd9adebab32041f755214dbc6bffa90cc0225b39da2e5c2d3b905f90a250565b60606200015d838360405180606001604052806027815260200162000dd36027913962000298565b9392505050565b6001600160a01b038116620001cf5760405162461bcd60e51b815260206004820152602660248201527f455243313936373a206e65772061646d696e20697320746865207a65726f206160448201526564647265737360d01b60648201526084015b60405180910390fd5b805f8051602062000db38339815191525b80546001600160a01b0319166001600160a01b039290921691909117905550565b6001600160a01b0381163b620002705760405162461bcd60e51b815260206004820152602d60248201527f455243313936373a206e657720696d706c656d656e746174696f6e206973206e60448201526c1bdd08184818dbdb9d1c9858dd609a1b6064820152608401620001c6565b807f360894a13ba1a3210667c828492db98dca3e2076cc3735a920a3ca505d382bbc620001e0565b60605f80856001600160a01b031685604051620002b69190620004f5565b5f60405180830381855af49150503d805f8114620002f0576040519150601f19603f3d011682016040523d82523d5f602084013e620002f5565b606091505b509092509050620003098683838762000313565b9695505050505050565b60608315620003865782515f036200037e576001600160a01b0385163b6200037e5760405162461bcd60e51b815260206004820152601d60248201527f416464726573733a2063616c6c20746f206e6f6e2d636f6e74726163740000006044820152606401620001c6565b508162000392565b6200039283836200039a565b949350505050565b815115620003ab5781518083602001fd5b8060405162461bcd60e51b8152600401620001c6919062000512565b80516001600160a01b0381168114620003de575f80fd5b919050565b634e487b7160e01b5f52604160045260245ffd5b5f5b8381101562000413578181015183820152602001620003f9565b50505f910152565b5f805f606084860312156200042e575f80fd5b6200043984620003c7565b92506200044960208501620003c7565b60408501519092506001600160401b038082111562000466575f80fd5b818601915086601f8301126200047a575f80fd5b8151818111156200048f576200048f620003e3565b604051601f8201601f19908116603f01168101908382118183101715620004ba57620004ba620003e3565b81604052828152896020848701011115620004d3575f80fd5b620004e6836020830160208801620003f7565b80955050505050509250925092565b5f825162000508818460208701620003f7565b9190910192915050565b602081525f825180602084015262000532816040850160208701620003f7565b601f01601f19169190910160400192915050565b61085f80620005545f395ff3fe60806040523661001357610011610017565b005b6100115b61001f610168565b6001600160a01b0316330361015e5760606001600160e01b03195f35166364d3180d60e11b81016100595761005261019a565b9150610156565b63587086bd60e11b6001600160e01b0319821601610079576100526101ed565b63070d7c6960e41b6001600160e01b031982160161009957610052610231565b621eb96f60e61b6001600160e01b03198216016100b857610052610261565b63a39f25e560e01b6001600160e01b03198216016100d8576100526102a0565b60405162461bcd60e51b815260206004820152604260248201527f5472616e73706172656e745570677261646561626c6550726f78793a2061646d60448201527f696e2063616e6e6f742066616c6c6261636b20746f2070726f78792074617267606482015261195d60f21b608482015260a4015b60405180910390fd5b815160208301f35b6101666102b3565b565b5f7fb53127684a568b3173ae13b9f8a6016e243e63b6e8ee1178d6a717850b5d61035b546001600160a01b0316919050565b60606101a46102c3565b5f6101b23660048184610668565b8101906101bf91906106aa565b90506101da8160405180602001604052805f8152505f6102cd565b505060408051602081019091525f815290565b60605f806101fe3660048184610668565b81019061020b91906106d7565b9150915061021b828260016102cd565b60405180602001604052805f8152509250505090565b606061023b6102c3565b5f6102493660048184610668565b81019061025691906106aa565b90506101da816102f8565b606061026b6102c3565b5f610274610168565b604080516001600160a01b03831660208201529192500160405160208183030381529060405291505090565b60606102aa6102c3565b5f61027461034f565b6101666102be61034f565b61035d565b3415610166575f80fd5b6102d68361037b565b5f825111806102e25750805b156102f3576102f183836103ba565b505b505050565b7f7e644d79422f17c01e4894b5f4f588d331ebfa28653d42ae832dc59e38c9798f610321610168565b604080516001600160a01b03928316815291841660208301520160405180910390a161034c816103e6565b50565b5f61035861048f565b905090565b365f80375f80365f845af43d5f803e808015610377573d5ff35b3d5ffd5b610384816104b6565b6040516001600160a01b038216907fbc7cd75a20ee27fd9adebab32041f755214dbc6bffa90cc0225b39da2e5c2d3b905f90a250565b60606103df83836040518060600160405280602781526020016108036027913961054a565b9392505050565b6001600160a01b03811661044b5760405162461bcd60e51b815260206004820152602660248201527f455243313936373a206e65772061646d696e20697320746865207a65726f206160448201526564647265737360d01b606482015260840161014d565b807fb53127684a568b3173ae13b9f8a6016e243e63b6e8ee1178d6a717850b5d61035b80546001600160a01b0319166001600160a01b039290921691909117905550565b5f7f360894a13ba1a3210667c828492db98dca3e2076cc3735a920a3ca505d382bbc61018b565b6001600160a01b0381163b6105235760405162461bcd60e51b815260206004820152602d60248201527f455243313936373a206e657720696d706c656d656e746174696f6e206973206e60448201526c1bdd08184818dbdb9d1c9858dd609a1b606482015260840161014d565b807f360894a13ba1a3210667c828492db98dca3e2076cc3735a920a3ca505d382bbc61046e565b60605f80856001600160a01b03168560405161056691906107b5565b5f60405180830381855af49150503d805f811461059e576040519150601f19603f3d011682016040523d82523d5f602084013e6105a3565b606091505b50915091506105b4868383876105be565b9695505050505050565b6060831561062c5782515f03610625576001600160a01b0385163b6106255760405162461bcd60e51b815260206004820152601d60248201527f416464726573733a2063616c6c20746f206e6f6e2d636f6e7472616374000000604482015260640161014d565b5081610636565b610636838361063e565b949350505050565b81511561064e5781518083602001fd5b8060405162461bcd60e51b815260040161014d91906107d0565b5f8085851115610676575f80fd5b83861115610682575f80fd5b5050820193919092039150565b80356001600160a01b03811681146106a5575f80fd5b919050565b5f602082840312156106ba575f80fd5b6103df8261068f565b634e487b7160e01b5f52604160045260245ffd5b5f80604083850312156106e8575f80fd5b6106f18361068f565b9150602083013567ffffffffffffffff8082111561070d575f80fd5b818501915085601f830112610720575f80fd5b813581811115610732576107326106c3565b604051601f8201601f19908116603f0116810190838211818310171561075a5761075a6106c3565b81604052828152886020848701011115610772575f80fd5b826020860160208301375f6020848301015280955050505050509250929050565b5f5b838110156107ad578181015183820152602001610795565b50505f910152565b5f82516107c6818460208701610793565b9190910192915050565b602081525f82518060208401526107ee816040850160208701610793565b601f01601f1916919091016040019291505056fe416464726573733a206c6f772d6c6576656c2064656c65676174652063616c6c206661696c6564a2646970667358221220aa20ce4dcf96a82424f9529b6c241425d2e02b65a5499bdb8a4cd0e1a346515264736f6c63430008180033b53127684a568b3173ae13b9f8a6016e243e63b6e8ee1178d6a717850b5d6103416464726573733a206c6f772d6c6576656c2064656c65676174652063616c6c206661696c656400000000000000000000000043cb9d6acf1462356303079ea4fdd8bc30042a6a000000000000000000000000aad8b67551086609d132178dff1dbe31b3c1c9c2000000000000000000000000000000000000000000000000000000000000006000000000000000000000000000000000000000000000000000000000000001a4c20a9ca5000000000000000000000000377755da4994c2cfe21b39bbce7211eab6f5fcc10000000000000000000000005ecc03111ad2a78f981a108759bc73bae2ab31bc00000000000000000000000026eff54e2f0e8825996b83119b7df5ef2c882dd7000000000000000000000000b9addcd1d1ce7d49dbb540e2677f1c572bc8d19500000000000000000000000000000000000000000000000000000000000000000000000000000000000000002738f38fde510743e0c589415e0598c4cee6eaa7000000000000000000000000000000000000000000000000000000000000000a00000000000000000000000000000000000000000000000000000000000000050000000000000000000000002738f38fde510743e0c589415e0598c4cee6eaa70000000000000000000000002738f38fde510743e0c589415e0598c4cee6eaa7000000000000000000000000000000000000000000000000000000000000000600000000000000000000000000000000000000000000000000000000000013880000000000000000000000000000000000000000000000000000000000000d0500000000000000000000000000000000000000000000000000000000"
        }
      ],
      "isFixedGasLimit": false
    },
    {
      "hash": "0x235e1a13a603f46b6e98fd56c74485a372714966e8b60a423bbaa8b9de2620a0",
      "transactionType": "CALL",
      "contractName": "TransparentUpgradeableProxy",
      "contractAddress": "0x377755da4994c2cfe21b39bbce7211eab6f5fcc1",
      "function": null,
      "arguments": null,
      "transaction": {
        "from": "0x2738f38fde510743e0c589415e0598c4cee6eaa7",
        "to": "0x377755da4994c2cfe21b39bbce7211eab6f5fcc1",
        "gas": "0x1a458",
        "value": "0x0",
        "input": "0xa9059cbb000000000000000000000000fd5295e75ffea02780b0e2638d9fabb0316fd4e0000000000000000000000000000000000000000000000008a046756e227b273f",
        "nonce": "0x19a",
        "chainId": "0x279f"
      },
      "additionalContracts": [],
      "isFixedGasLimit": false
    },
    {
      "hash": "0x5c7dcd87ee9a9b64bcc176f61f49e12e78ddcfde15362081bb6321607c1a79ba",
      "transactionType": "CALL",
      "contractName": "TransparentUpgradeableProxy",
      "contractAddress": "0x5ecc03111ad2a78f981a108759bc73bae2ab31bc",
      "function": null,
      "arguments": null,
      "transaction": {
        "from": "0x2738f38fde510743e0c589415e0598c4cee6eaa7",
        "to": "0x5ecc03111ad2a78f981a108759bc73bae2ab31bc",
        "gas": "0x1a42a",
        "value": "0x0",
        "input": "0xa9059cbb000000000000000000000000fd5295e75ffea02780b0e2638d9fabb0316fd4e00000000000000000000000000000000000000000000000000de0b6b3a7640000",
        "nonce": "0x19b",
        "chainId": "0x279f"
      },
      "additionalContracts": [],
      "isFixedGasLimit": false
    },
    {
      "hash": "0xeb885c402b7b65b25e4fbdc7b1c6805da15a0cf1d5e0985eb7634bb0922c1ef6",
      "transactionType": "CALL",
      "contractName": "FPMMProxy",
      "contractAddress": "0xfd5295e75ffea02780b0e2638d9fabb0316fd4e0",
      "function": null,
      "arguments": null,
      "transaction": {
        "from": "0x2738f38fde510743e0c589415e0598c4cee6eaa7",
        "to": "0xfd5295e75ffea02780b0e2638d9fabb0316fd4e0",
        "gas": "0x703a",
        "value": "0x0",
        "input": "0x6a6278420000000000000000000000002738f38fde510743e0c589415e0598c4cee6eaa7",
        "nonce": "0x19c",
        "chainId": "0x279f"
      },
      "additionalContracts": [],
      "isFixedGasLimit": false
    },
    {
      "hash": "0x25b6017854a4fdd9a85041a2707001da8a300a967cfcd15440a4f5d83d1bcd6d",
      "transactionType": "CALL",
      "contractName": "FPMMProxy",
      "contractAddress": "0xfd5295e75ffea02780b0e2638d9fabb0316fd4e0",
      "function": null,
      "arguments": null,
      "transaction": {
        "from": "0x2738f38fde510743e0c589415e0598c4cee6eaa7",
        "to": "0xfd5295e75ffea02780b0e2638d9fabb0316fd4e0",
        "gas": "0x75eb",
        "value": "0x0",
        "input": "0xda7ddb8f000000000000000000000000377755da4994c2cfe21b39bbce7211eab6f5fcc10000000000000000000000000000000000000000000cbd13ac3d8718490000000000000000000000000000000000000000000000003fb1625d33a3796d000000",
        "nonce": "0x19d",
        "chainId": "0x279f"
      },
      "additionalContracts": [],
      "isFixedGasLimit": false
    },
    {
      "hash": "0x1dc820ec49c83df37a9505d788c31f6d14cfa3595ac7827529162c0e83785145",
      "transactionType": "CALL",
      "contractName": "FPMMProxy",
      "contractAddress": "0xfd5295e75ffea02780b0e2638d9fabb0316fd4e0",
      "function": null,
      "arguments": null,
      "transaction": {
        "from": "0x2738f38fde510743e0c589415e0598c4cee6eaa7",
        "to": "0xfd5295e75ffea02780b0e2638d9fabb0316fd4e0",
        "gas": "0x75eb",
        "value": "0x0",
        "input": "0xda7ddb8f0000000000000000000000005ecc03111ad2a78f981a108759bc73bae2ab31bc00000000000000000000000000000000000000000000152d02c7e14af68000000000000000000000000000000000000000000000000069e10de76676d0800000",
        "nonce": "0x19e",
        "chainId": "0x279f"
      },
      "additionalContracts": [],
      "isFixedGasLimit": false
    },
    {
      "hash": "0x7f0d3e1ccc8fda9fa680f8c7143e3f3e24b03b08820ddca7fc82b1f00234e889",
      "transactionType": "CALL",
      "contractName": "FPMMProxy",
      "contractAddress": "0xfd5295e75ffea02780b0e2638d9fabb0316fd4e0",
      "function": null,
      "arguments": null,
      "transaction": {
        "from": "0x2738f38fde510743e0c589415e0598c4cee6eaa7",
        "to": "0xfd5295e75ffea02780b0e2638d9fabb0316fd4e0",
        "gas": "0x72a3",
        "value": "0x0",
        "input": "0xcce441a3000000000000000000000000ccd2ad0603a08ebc14d223a983171ef18192e8c90000000000000000000000000000000000000000000000000000000000000001",
        "nonce": "0x19f",
        "chainId": "0x279f"
      },
      "additionalContracts": [],
      "isFixedGasLimit": false
    },
    {
      "hash": "0x6709fc9a3390def3dc45778b6e0a0641ae584e5927c9ca84a35581e6b0f5df20",
      "transactionType": "CALL",
      "contractName": null,
      "contractAddress": "0xccd2ad0603a08ebc14d223a983171ef18192e8c9",
      "function": "addPool((address,address,uint32,address,uint64,uint64,uint64,uint64))",
      "arguments": [
        "(0xfD5295e75Ffea02780B0e2638D9faBb0316fD4e0, 0x377755da4994c2cfE21b39bbCE7211eab6f5FCC1, 300, 0x2738F38Fde510743e0c589415E0598C4ceE6eAa7, 500000000000000, 0, 500000000000000, 0)"
      ],
      "transaction": {
        "from": "0x2738f38fde510743e0c589415e0598c4cee6eaa7",
        "to": "0xccd2ad0603a08ebc14d223a983171ef18192e8c9",
        "gas": "0x33e91",
        "value": "0x0",
        "input": "0x2d3d3638000000000000000000000000fd5295e75ffea02780b0e2638d9fabb0316fd4e0000000000000000000000000377755da4994c2cfe21b39bbce7211eab6f5fcc1000000000000000000000000000000000000000000000000000000000000012c0000000000000000000000002738f38fde510743e0c589415e0598c4cee6eaa70000000000000000000000000000000000000000000000000001c6bf5263400000000000000000000000000000000000000000000000000000000000000000000000000000000000000000000000000000000000000000000001c6bf526340000000000000000000000000000000000000000000000000000000000000000000",
        "nonce": "0x1a0",
        "chainId": "0x279f"
      },
      "additionalContracts": [],
      "isFixedGasLimit": false
    },
    {
      "hash": "0x170da272871a2a715c23ca1c877314ed0b35e2308596a42b4a2fddc98a9398b1",
      "transactionType": "CALL",
      "contractName": null,
      "contractAddress": "0x353ed52bf8482027c0e0b9e3c0e5d96a9f680980",
      "function": "deployFPMM(address,address,address,address,address,address,address,bool,(uint256,uint256,address,address,uint256,uint256,uint256))",
      "arguments": [
        "0x43cB9D6AcF1462356303079EA4FDd8bc30042a6A",
        "0x26eFF54e2f0E8825996b83119b7Df5ef2C882dD7",
        "0xaad8b67551086609D132178dfF1dBE31b3c1C9C2",
        "0x2738F38Fde510743e0c589415E0598C4ceE6eAa7",
        "0x5eCc03111ad2A78F981A108759bc73BAE2AB31bc",
        "0xCD8f6950359795eb4688AC18d1e9BB88fa111eEe",
        "0x2EE56bE22D6af8c1b0ac97149b6F42D3B0BFb8C2",
        "true",
        "(10, 5, 0x2738F38Fde510743e0c589415E0598C4ceE6eAa7, 0x2738F38Fde510743e0c589415E0598C4ceE6eAa7, 6, 5000, 3333)"
      ],
      "transaction": {
        "from": "0x2738f38fde510743e0c589415e0598c4cee6eaa7",
        "to": "0x353ed52bf8482027c0e0b9e3c0e5d96a9f680980",
        "gas": "0x1c72b2",
        "value": "0x0",
        "input": "0x098a676e00000000000000000000000043cb9d6acf1462356303079ea4fdd8bc30042a6a00000000000000000000000026eff54e2f0e8825996b83119b7df5ef2c882dd7000000000000000000000000aad8b67551086609d132178dff1dbe31b3c1c9c20000000000000000000000002738f38fde510743e0c589415e0598c4cee6eaa70000000000000000000000005ecc03111ad2a78f981a108759bc73bae2ab31bc000000000000000000000000cd8f6950359795eb4688ac18d1e9bb88fa111eee0000000000000000000000002ee56be22d6af8c1b0ac97149b6f42d3b0bfb8c20000000000000000000000000000000000000000000000000000000000000001000000000000000000000000000000000000000000000000000000000000000a00000000000000000000000000000000000000000000000000000000000000050000000000000000000000002738f38fde510743e0c589415e0598c4cee6eaa70000000000000000000000002738f38fde510743e0c589415e0598c4cee6eaa7000000000000000000000000000000000000000000000000000000000000000600000000000000000000000000000000000000000000000000000000000013880000000000000000000000000000000000000000000000000000000000000d05",
        "nonce": "0x1a1",
        "chainId": "0x279f"
      },
      "additionalContracts": [
        {
          "transactionType": "CREATE2",
          "contractName": null,
          "address": "0xff9f3d41f0c791777389d3df12a82d6f5f54b883",
          "initCode": "0x67363d3d37363d34f03d5260086018f3"
        },
        {
          "transactionType": "CREATE",
          "contractName": "FPMMProxy",
          "address": "0x49e220db6255061e0a49e679a115a4e6948971ce",
          "initCode": "0x608060405260405162000dfa38038062000dfa83398101604081905262000026916200041b565b82828282816200003882825f62000052565b506200004690508262000083565b50505050505062000546565b6200005d83620000f4565b5f825111806200006a5750805b156200007e576200007c838362000135565b505b505050565b7f7e644d79422f17c01e4894b5f4f588d331ebfa28653d42ae832dc59e38c9798f620000c45f8051602062000db3833981519152546001600160a01b031690565b604080516001600160a01b03928316815291841660208301520160405180910390a1620000f18162000164565b50565b620000ff8162000201565b6040516001600160a01b038216907fbc7cd75a20ee27fd9adebab32041f755214dbc6bffa90cc0225b39da2e5c2d3b905f90a250565b60606200015d838360405180606001604052806027815260200162000dd36027913962000298565b9392505050565b6001600160a01b038116620001cf5760405162461bcd60e51b815260206004820152602660248201527f455243313936373a206e65772061646d696e20697320746865207a65726f206160448201526564647265737360d01b60648201526084015b60405180910390fd5b805f8051602062000db38339815191525b80546001600160a01b0319166001600160a01b039290921691909117905550565b6001600160a01b0381163b620002705760405162461bcd60e51b815260206004820152602d60248201527f455243313936373a206e657720696d706c656d656e746174696f6e206973206e60448201526c1bdd08184818dbdb9d1c9858dd609a1b6064820152608401620001c6565b807f360894a13ba1a3210667c828492db98dca3e2076cc3735a920a3ca505d382bbc620001e0565b60605f80856001600160a01b031685604051620002b69190620004f5565b5f60405180830381855af49150503d805f8114620002f0576040519150601f19603f3d011682016040523d82523d5f602084013e620002f5565b606091505b509092509050620003098683838762000313565b9695505050505050565b60608315620003865782515f036200037e576001600160a01b0385163b6200037e5760405162461bcd60e51b815260206004820152601d60248201527f416464726573733a2063616c6c20746f206e6f6e2d636f6e74726163740000006044820152606401620001c6565b508162000392565b6200039283836200039a565b949350505050565b815115620003ab5781518083602001fd5b8060405162461bcd60e51b8152600401620001c6919062000512565b80516001600160a01b0381168114620003de575f80fd5b919050565b634e487b7160e01b5f52604160045260245ffd5b5f5b8381101562000413578181015183820152602001620003f9565b50505f910152565b5f805f606084860312156200042e575f80fd5b6200043984620003c7565b92506200044960208501620003c7565b60408501519092506001600160401b038082111562000466575f80fd5b818601915086601f8301126200047a575f80fd5b8151818111156200048f576200048f620003e3565b604051601f8201601f19908116603f01168101908382118183101715620004ba57620004ba620003e3565b81604052828152896020848701011115620004d3575f80fd5b620004e6836020830160208801620003f7565b80955050505050509250925092565b5f825162000508818460208701620003f7565b9190910192915050565b602081525f825180602084015262000532816040850160208701620003f7565b601f01601f19169190910160400192915050565b61085f80620005545f395ff3fe60806040523661001357610011610017565b005b6100115b61001f610168565b6001600160a01b0316330361015e5760606001600160e01b03195f35166364d3180d60e11b81016100595761005261019a565b9150610156565b63587086bd60e11b6001600160e01b0319821601610079576100526101ed565b63070d7c6960e41b6001600160e01b031982160161009957610052610231565b621eb96f60e61b6001600160e01b03198216016100b857610052610261565b63a39f25e560e01b6001600160e01b03198216016100d8576100526102a0565b60405162461bcd60e51b815260206004820152604260248201527f5472616e73706172656e745570677261646561626c6550726f78793a2061646d60448201527f696e2063616e6e6f742066616c6c6261636b20746f2070726f78792074617267606482015261195d60f21b608482015260a4015b60405180910390fd5b815160208301f35b6101666102b3565b565b5f7fb53127684a568b3173ae13b9f8a6016e243e63b6e8ee1178d6a717850b5d61035b546001600160a01b0316919050565b60606101a46102c3565b5f6101b23660048184610668565b8101906101bf91906106aa565b90506101da8160405180602001604052805f8152505f6102cd565b505060408051602081019091525f815290565b60605f806101fe3660048184610668565b81019061020b91906106d7565b9150915061021b828260016102cd565b60405180602001604052805f8152509250505090565b606061023b6102c3565b5f6102493660048184610668565b81019061025691906106aa565b90506101da816102f8565b606061026b6102c3565b5f610274610168565b604080516001600160a01b03831660208201529192500160405160208183030381529060405291505090565b60606102aa6102c3565b5f61027461034f565b6101666102be61034f565b61035d565b3415610166575f80fd5b6102d68361037b565b5f825111806102e25750805b156102f3576102f183836103ba565b505b505050565b7f7e644d79422f17c01e4894b5f4f588d331ebfa28653d42ae832dc59e38c9798f610321610168565b604080516001600160a01b03928316815291841660208301520160405180910390a161034c816103e6565b50565b5f61035861048f565b905090565b365f80375f80365f845af43d5f803e808015610377573d5ff35b3d5ffd5b610384816104b6565b6040516001600160a01b038216907fbc7cd75a20ee27fd9adebab32041f755214dbc6bffa90cc0225b39da2e5c2d3b905f90a250565b60606103df83836040518060600160405280602781526020016108036027913961054a565b9392505050565b6001600160a01b03811661044b5760405162461bcd60e51b815260206004820152602660248201527f455243313936373a206e65772061646d696e20697320746865207a65726f206160448201526564647265737360d01b606482015260840161014d565b807fb53127684a568b3173ae13b9f8a6016e243e63b6e8ee1178d6a717850b5d61035b80546001600160a01b0319166001600160a01b039290921691909117905550565b5f7f360894a13ba1a3210667c828492db98dca3e2076cc3735a920a3ca505d382bbc61018b565b6001600160a01b0381163b6105235760405162461bcd60e51b815260206004820152602d60248201527f455243313936373a206e657720696d706c656d656e746174696f6e206973206e60448201526c1bdd08184818dbdb9d1c9858dd609a1b606482015260840161014d565b807f360894a13ba1a3210667c828492db98dca3e2076cc3735a920a3ca505d382bbc61046e565b60605f80856001600160a01b03168560405161056691906107b5565b5f60405180830381855af49150503d805f811461059e576040519150601f19603f3d011682016040523d82523d5f602084013e6105a3565b606091505b50915091506105b4868383876105be565b9695505050505050565b6060831561062c5782515f03610625576001600160a01b0385163b6106255760405162461bcd60e51b815260206004820152601d60248201527f416464726573733a2063616c6c20746f206e6f6e2d636f6e7472616374000000604482015260640161014d565b5081610636565b610636838361063e565b949350505050565b81511561064e5781518083602001fd5b8060405162461bcd60e51b815260040161014d91906107d0565b5f8085851115610676575f80fd5b83861115610682575f80fd5b5050820193919092039150565b80356001600160a01b03811681146106a5575f80fd5b919050565b5f602082840312156106ba575f80fd5b6103df8261068f565b634e487b7160e01b5f52604160045260245ffd5b5f80604083850312156106e8575f80fd5b6106f18361068f565b9150602083013567ffffffffffffffff8082111561070d575f80fd5b818501915085601f830112610720575f80fd5b813581811115610732576107326106c3565b604051601f8201601f19908116603f0116810190838211818310171561075a5761075a6106c3565b81604052828152886020848701011115610772575f80fd5b826020860160208301375f6020848301015280955050505050509250929050565b5f5b838110156107ad578181015183820152602001610795565b50505f910152565b5f82516107c6818460208701610793565b9190910192915050565b602081525f82518060208401526107ee816040850160208701610793565b601f01601f1916919091016040019291505056fe416464726573733a206c6f772d6c6576656c2064656c65676174652063616c6c206661696c6564a2646970667358221220aa20ce4dcf96a82424f9529b6c241425d2e02b65a5499bdb8a4cd0e1a346515264736f6c63430008180033b53127684a568b3173ae13b9f8a6016e243e63b6e8ee1178d6a717850b5d6103416464726573733a206c6f772d6c6576656c2064656c65676174652063616c6c206661696c656400000000000000000000000043cb9d6acf1462356303079ea4fdd8bc30042a6a000000000000000000000000aad8b67551086609d132178dff1dbe31b3c1c9c2000000000000000000000000000000000000000000000000000000000000006000000000000000000000000000000000000000000000000000000000000001a4c20a9ca50000000000000000000000005ecc03111ad2a78f981a108759bc73bae2ab31bc000000000000000000000000cd8f6950359795eb4688ac18d1e9bb88fa111eee00000000000000000000000026eff54e2f0e8825996b83119b7df5ef2c882dd70000000000000000000000002ee56be22d6af8c1b0ac97149b6f42d3b0bfb8c200000000000000000000000000000000000000000000000000000000000000010000000000000000000000002738f38fde510743e0c589415e0598c4cee6eaa7000000000000000000000000000000000000000000000000000000000000000a00000000000000000000000000000000000000000000000000000000000000050000000000000000000000002738f38fde510743e0c589415e0598c4cee6eaa70000000000000000000000002738f38fde510743e0c589415e0598c4cee6eaa7000000000000000000000000000000000000000000000000000000000000000600000000000000000000000000000000000000000000000000000000000013880000000000000000000000000000000000000000000000000000000000000d0500000000000000000000000000000000000000000000000000000000"
        }
      ],
      "isFixedGasLimit": false
    },
    {
      "hash": "0x3d8b0d870e7a16b3e1f2248ae45119cd2024b1705cb023e3157d44a01c7077f0",
      "transactionType": "CALL",
      "contractName": "TransparentUpgradeableProxy",
      "contractAddress": "0x5ecc03111ad2a78f981a108759bc73bae2ab31bc",
      "function": null,
      "arguments": null,
      "transaction": {
        "from": "0x2738f38fde510743e0c589415e0598c4cee6eaa7",
        "to": "0x5ecc03111ad2a78f981a108759bc73bae2ab31bc",
        "gas": "0x1a449",
        "value": "0x0",
        "input": "0xa9059cbb00000000000000000000000049e220db6255061e0a49e679a115a4e6948971ce00000000000000000000000000000000000000000000000011b72ab8a6200d94",
        "nonce": "0x1a2",
        "chainId": "0x279f"
      },
      "additionalContracts": [],
      "isFixedGasLimit": false
    },
    {
      "hash": "0x13faef19338fb5882cc3f9cfd36ac42f9b388234bab3e298f931a42a1e1ff6d2",
      "transactionType": "CALL",
      "contractName": null,
      "contractAddress": "0xcd8f6950359795eb4688ac18d1e9bb88fa111eee",
      "function": "transfer(address,uint256)",
      "arguments": [
        "0x49e220DB6255061E0A49e679A115A4e6948971Ce",
        "1000000000000000000"
      ],
      "transaction": {
        "from": "0x2738f38fde510743e0c589415e0598c4cee6eaa7",
        "to": "0xcd8f6950359795eb4688ac18d1e9bb88fa111eee",
        "gas": "0x1a42a",
        "value": "0x0",
        "input": "0xa9059cbb00000000000000000000000049e220db6255061e0a49e679a115a4e6948971ce0000000000000000000000000000000000000000000000000de0b6b3a7640000",
        "nonce": "0x1a3",
        "chainId": "0x279f"
      },
      "additionalContracts": [],
      "isFixedGasLimit": false
    },
    {
      "hash": "0x2227a08fe36d6eb50cdee77cbe20a1fa0d31c4c6fd39a8c9e811791d1287666f",
      "transactionType": "CALL",
      "contractName": "FPMMProxy",
      "contractAddress": "0x49e220db6255061e0a49e679a115a4e6948971ce",
      "function": null,
      "arguments": null,
      "transaction": {
        "from": "0x2738f38fde510743e0c589415e0598c4cee6eaa7",
        "to": "0x49e220db6255061e0a49e679a115a4e6948971ce",
        "gas": "0x703a",
        "value": "0x0",
        "input": "0x6a6278420000000000000000000000002738f38fde510743e0c589415e0598c4cee6eaa7",
        "nonce": "0x1a4",
        "chainId": "0x279f"
      },
      "additionalContracts": [],
      "isFixedGasLimit": false
    },
    {
      "hash": "0xd8bdddf6a82d706b909da4223d0777c12b1faf21caf6929d06e6e6297e8435cc",
      "transactionType": "CALL",
      "contractName": "FPMMProxy",
      "contractAddress": "0x49e220db6255061e0a49e679a115a4e6948971ce",
      "function": null,
      "arguments": null,
      "transaction": {
        "from": "0x2738f38fde510743e0c589415e0598c4cee6eaa7",
        "to": "0x49e220db6255061e0a49e679a115a4e6948971ce",
        "gas": "0x75eb",
        "value": "0x0",
        "input": "0xda7ddb8f0000000000000000000000005ecc03111ad2a78f981a108759bc73bae2ab31bc00000000000000000000000000000000000000000000152d02c7e14af68000000000000000000000000000000000000000000000000069e10de76676d0800000",
        "nonce": "0x1a5",
        "chainId": "0x279f"
      },
      "additionalContracts": [],
      "isFixedGasLimit": false
    },
    {
      "hash": "0xb70881b2a0f0effa53f1630b906e95f7ef8baa08cdd34cc923680f05c0c7ad7e",
      "transactionType": "CALL",
      "contractName": "FPMMProxy",
      "contractAddress": "0x49e220db6255061e0a49e679a115a4e6948971ce",
      "function": null,
      "arguments": null,
      "transaction": {
        "from": "0x2738f38fde510743e0c589415e0598c4cee6eaa7",
        "to": "0x49e220db6255061e0a49e679a115a4e6948971ce",
        "gas": "0x75eb",
        "value": "0x0",
        "input": "0xda7ddb8f000000000000000000000000cd8f6950359795eb4688ac18d1e9bb88fa111eee00000000000000000000000000000000000000000000104e2da94483f6200000000000000000000000000000000000000000000000005186e44e5693cea00000",
        "nonce": "0x1a6",
        "chainId": "0x279f"
      },
      "additionalContracts": [],
      "isFixedGasLimit": false
    },
    {
      "hash": "0x0f1776eebea5932c540daf96d68b1e510cb42847ffafb908a5c824f1d7e5c6f2",
      "transactionType": "CALL",
      "contractName": "FPMMProxy",
      "contractAddress": "0x49e220db6255061e0a49e679a115a4e6948971ce",
      "function": null,
      "arguments": null,
      "transaction": {
        "from": "0x2738f38fde510743e0c589415e0598c4cee6eaa7",
        "to": "0x49e220db6255061e0a49e679a115a4e6948971ce",
        "gas": "0x72a3",
        "value": "0x0",
        "input": "0xcce441a3000000000000000000000000ccd2ad0603a08ebc14d223a983171ef18192e8c90000000000000000000000000000000000000000000000000000000000000001",
        "nonce": "0x1a7",
        "chainId": "0x279f"
      },
      "additionalContracts": [],
      "isFixedGasLimit": false
    },
    {
      "hash": "0x8b002b877f0f717880d53505885278a55c1d7cf55ccfb3478698e357b8e62244",
      "transactionType": "CALL",
      "contractName": null,
      "contractAddress": "0xccd2ad0603a08ebc14d223a983171ef18192e8c9",
      "function": "addPool((address,address,uint32,address,uint64,uint64,uint64,uint64))",
      "arguments": [
        "(0x49e220DB6255061E0A49e679A115A4e6948971Ce, 0xCD8f6950359795eb4688AC18d1e9BB88fa111eEe, 300, 0x2738F38Fde510743e0c589415E0598C4ceE6eAa7, 500000000000000, 0, 500000000000000, 0)"
      ],
      "transaction": {
        "from": "0x2738f38fde510743e0c589415e0598c4cee6eaa7",
        "to": "0xccd2ad0603a08ebc14d223a983171ef18192e8c9",
        "gas": "0x3256a",
        "value": "0x0",
        "input": "0x2d3d363800000000000000000000000049e220db6255061e0a49e679a115a4e6948971ce000000000000000000000000cd8f6950359795eb4688ac18d1e9bb88fa111eee000000000000000000000000000000000000000000000000000000000000012c0000000000000000000000002738f38fde510743e0c589415e0598c4cee6eaa70000000000000000000000000000000000000000000000000001c6bf5263400000000000000000000000000000000000000000000000000000000000000000000000000000000000000000000000000000000000000000000001c6bf526340000000000000000000000000000000000000000000000000000000000000000000",
        "nonce": "0x1a8",
        "chainId": "0x279f"
      },
      "additionalContracts": [],
      "isFixedGasLimit": false
    }
  ],
  "receipts": [
    {
      "type": "0x2",
      "status": "0x1",
      "cumulativeGasUsed": "0x1c72a2",
      "logs": [
        {
          "address": "0xba5ed099633d3b313e4d5f7bdc1305d3c28ba5ed",
          "topics": [
            "0x2feea65dd4e9f9cbd86b74b7734210c59a1b2981b5b137bd0ee3e208200c9067",
            "0x0000000000000000000000008e40ca2cef706205ba8dcd9150ee7b84ef3beebe",
            "0x9a0f5e6afe5f895394775d03b758eac0d78219bcae1aa3e8dd41a6bf19b58938"
          ],
          "data": "0x",
          "blockHash": "0xd7183265c8acb164265e9eee53a5bf931d5f621c37e947f22b23528b2d9438d2",
          "blockNumber": "0x1add085",
          "blockTimestamp": "0x69ef7971",
          "transactionHash": "0x05ab1643d2f9faf3c818600d6d4a54f0893289e8c335877874c12f6b04fa36f6",
          "transactionIndex": "0x1",
          "logIndex": "0x1",
          "removed": false
        },
        {
          "address": "0xfd5295e75ffea02780b0e2638d9fabb0316fd4e0",
          "topics": [
            "0xbc7cd75a20ee27fd9adebab32041f755214dbc6bffa90cc0225b39da2e5c2d3b",
            "0x00000000000000000000000043cb9d6acf1462356303079ea4fdd8bc30042a6a"
          ],
          "data": "0x",
          "blockHash": "0xd7183265c8acb164265e9eee53a5bf931d5f621c37e947f22b23528b2d9438d2",
          "blockNumber": "0x1add085",
          "blockTimestamp": "0x69ef7971",
          "transactionHash": "0x05ab1643d2f9faf3c818600d6d4a54f0893289e8c335877874c12f6b04fa36f6",
          "transactionIndex": "0x1",
          "logIndex": "0x2",
          "removed": false
        },
        {
          "address": "0xfd5295e75ffea02780b0e2638d9fabb0316fd4e0",
          "topics": [
            "0x8be0079c531659141344cd1fd0a4f28419497f9722a3daafe3b4186f6b6457e0",
            "0x0000000000000000000000000000000000000000000000000000000000000000",
            "0x0000000000000000000000008e40ca2cef706205ba8dcd9150ee7b84ef3beebe"
          ],
          "data": "0x",
          "blockHash": "0xd7183265c8acb164265e9eee53a5bf931d5f621c37e947f22b23528b2d9438d2",
          "blockNumber": "0x1add085",
          "blockTimestamp": "0x69ef7971",
          "transactionHash": "0x05ab1643d2f9faf3c818600d6d4a54f0893289e8c335877874c12f6b04fa36f6",
          "transactionIndex": "0x1",
          "logIndex": "0x3",
          "removed": false
        },
        {
          "address": "0xfd5295e75ffea02780b0e2638d9fabb0316fd4e0",
          "topics": [
            "0xb5d5dda8af4f1e40a5cc4aa66c39ca5aac7f90947261313b07527eb3bdd98bc7"
          ],
          "data": "0x0000000000000000000000000000000000000000000000000000000000000000000000000000000000000000000000000000000000000000000000000000000a",
          "blockHash": "0xd7183265c8acb164265e9eee53a5bf931d5f621c37e947f22b23528b2d9438d2",
          "blockNumber": "0x1add085",
          "blockTimestamp": "0x69ef7971",
          "transactionHash": "0x05ab1643d2f9faf3c818600d6d4a54f0893289e8c335877874c12f6b04fa36f6",
          "transactionIndex": "0x1",
          "logIndex": "0x4",
          "removed": false
        },
        {
          "address": "0xfd5295e75ffea02780b0e2638d9fabb0316fd4e0",
          "topics": [
            "0xd3890fc76afcfc31cba1dcf2c27b50e2541e4d75039c981855b5b5e03682aea0",
            "0x0000000000000000000000000000000000000000000000000000000000000000",
            "0x0000000000000000000000002738f38fde510743e0c589415e0598c4cee6eaa7"
          ],
          "data": "0x",
          "blockHash": "0xd7183265c8acb164265e9eee53a5bf931d5f621c37e947f22b23528b2d9438d2",
          "blockNumber": "0x1add085",
          "blockTimestamp": "0x69ef7971",
          "transactionHash": "0x05ab1643d2f9faf3c818600d6d4a54f0893289e8c335877874c12f6b04fa36f6",
          "transactionIndex": "0x1",
          "logIndex": "0x5",
          "removed": false
        },
        {
          "address": "0xfd5295e75ffea02780b0e2638d9fabb0316fd4e0",
          "topics": [
            "0xb404cac19fb1cbeff98d325795b08886e3cd8fe8cb1a2f193aac66f13fb239c3"
          ],
          "data": "0x00000000000000000000000000000000000000000000000000000000000000000000000000000000000000000000000000000000000000000000000000000005",
          "blockHash": "0xd7183265c8acb164265e9eee53a5bf931d5f621c37e947f22b23528b2d9438d2",
          "blockNumber": "0x1add085",
          "blockTimestamp": "0x69ef7971",
          "transactionHash": "0x05ab1643d2f9faf3c818600d6d4a54f0893289e8c335877874c12f6b04fa36f6",
          "transactionIndex": "0x1",
          "logIndex": "0x6",
          "removed": false
        },
        {
          "address": "0xfd5295e75ffea02780b0e2638d9fabb0316fd4e0",
          "topics": [
            "0xb273226859e3e49fd86c9ac8f721eaa74e677de0877db704918e0f43ec8d23bc"
          ],
          "data": "0x00000000000000000000000000000000000000000000000000000000000000000000000000000000000000000000000000000000000000000000000000000006",
          "blockHash": "0xd7183265c8acb164265e9eee53a5bf931d5f621c37e947f22b23528b2d9438d2",
          "blockNumber": "0x1add085",
          "blockTimestamp": "0x69ef7971",
          "transactionHash": "0x05ab1643d2f9faf3c818600d6d4a54f0893289e8c335877874c12f6b04fa36f6",
          "transactionIndex": "0x1",
          "logIndex": "0x7",
          "removed": false
        },
        {
          "address": "0xfd5295e75ffea02780b0e2638d9fabb0316fd4e0",
          "topics": [
            "0x77c5ddba87b3d3f970242eda9bb1263ade9e4aed3eca233d5fa1af00a574b025"
          ],
          "data": "0x0000000000000000000000000000000000000000000000000000000000000000000000000000000000000000000000000000000000000000000000000000000000000000000000000000000000000000000000000000000000000000000013880000000000000000000000000000000000000000000000000000000000000d05",
          "blockHash": "0xd7183265c8acb164265e9eee53a5bf931d5f621c37e947f22b23528b2d9438d2",
          "blockNumber": "0x1add085",
          "blockTimestamp": "0x69ef7971",
          "transactionHash": "0x05ab1643d2f9faf3c818600d6d4a54f0893289e8c335877874c12f6b04fa36f6",
          "transactionIndex": "0x1",
          "logIndex": "0x8",
          "removed": false
        },
        {
          "address": "0xfd5295e75ffea02780b0e2638d9fabb0316fd4e0",
          "topics": [
            "0xe4630e6e66d263636ccf946c97182b0edb7bbea539a79dfa121bab7444e83b79",
            "0x0000000000000000000000000000000000000000000000000000000000000000",
            "0x00000000000000000000000026eff54e2f0e8825996b83119b7df5ef2c882dd7"
          ],
          "data": "0x",
          "blockHash": "0xd7183265c8acb164265e9eee53a5bf931d5f621c37e947f22b23528b2d9438d2",
          "blockNumber": "0x1add085",
          "blockTimestamp": "0x69ef7971",
          "transactionHash": "0x05ab1643d2f9faf3c818600d6d4a54f0893289e8c335877874c12f6b04fa36f6",
          "transactionIndex": "0x1",
          "logIndex": "0x9",
          "removed": false
        },
        {
          "address": "0xfd5295e75ffea02780b0e2638d9fabb0316fd4e0",
          "topics": [
            "0xc1ba25a60afffd747fd25304e169131b7ae93932f7f3e508a8cec0e18fa12842",
            "0x0000000000000000000000000000000000000000000000000000000000000000",
            "0x000000000000000000000000b9addcd1d1ce7d49dbb540e2677f1c572bc8d195"
          ],
          "data": "0x",
          "blockHash": "0xd7183265c8acb164265e9eee53a5bf931d5f621c37e947f22b23528b2d9438d2",
          "blockNumber": "0x1add085",
          "blockTimestamp": "0x69ef7971",
          "transactionHash": "0x05ab1643d2f9faf3c818600d6d4a54f0893289e8c335877874c12f6b04fa36f6",
          "transactionIndex": "0x1",
          "logIndex": "0xa",
          "removed": false
        },
        {
          "address": "0xfd5295e75ffea02780b0e2638d9fabb0316fd4e0",
          "topics": [
            "0x00af8726a3679feb41b28b0996e403259aceb28ec6f3c6c3dc7a4c4fe6c8fce1"
          ],
          "data": "0x00000000000000000000000000000000000000000000000000000000000000000000000000000000000000000000000000000000000000000000000000000000",
          "blockHash": "0xd7183265c8acb164265e9eee53a5bf931d5f621c37e947f22b23528b2d9438d2",
          "blockNumber": "0x1add085",
          "blockTimestamp": "0x69ef7971",
          "transactionHash": "0x05ab1643d2f9faf3c818600d6d4a54f0893289e8c335877874c12f6b04fa36f6",
          "transactionIndex": "0x1",
          "logIndex": "0xb",
          "removed": false
        },
        {
          "address": "0xfd5295e75ffea02780b0e2638d9fabb0316fd4e0",
          "topics": [
            "0x8be0079c531659141344cd1fd0a4f28419497f9722a3daafe3b4186f6b6457e0",
            "0x0000000000000000000000008e40ca2cef706205ba8dcd9150ee7b84ef3beebe",
            "0x0000000000000000000000002738f38fde510743e0c589415e0598c4cee6eaa7"
          ],
          "data": "0x",
          "blockHash": "0xd7183265c8acb164265e9eee53a5bf931d5f621c37e947f22b23528b2d9438d2",
          "blockNumber": "0x1add085",
          "blockTimestamp": "0x69ef7971",
          "transactionHash": "0x05ab1643d2f9faf3c818600d6d4a54f0893289e8c335877874c12f6b04fa36f6",
          "transactionIndex": "0x1",
          "logIndex": "0xc",
          "removed": false
        },
        {
          "address": "0xfd5295e75ffea02780b0e2638d9fabb0316fd4e0",
          "topics": [
            "0x7f26b83ff96e1f2b6a682f133852f6798a09c465da95921460cefb3847402498"
          ],
          "data": "0x0000000000000000000000000000000000000000000000000000000000000001",
          "blockHash": "0xd7183265c8acb164265e9eee53a5bf931d5f621c37e947f22b23528b2d9438d2",
          "blockNumber": "0x1add085",
          "blockTimestamp": "0x69ef7971",
          "transactionHash": "0x05ab1643d2f9faf3c818600d6d4a54f0893289e8c335877874c12f6b04fa36f6",
          "transactionIndex": "0x1",
          "logIndex": "0xd",
          "removed": false
        },
        {
          "address": "0xfd5295e75ffea02780b0e2638d9fabb0316fd4e0",
          "topics": [
            "0x7e644d79422f17c01e4894b5f4f588d331ebfa28653d42ae832dc59e38c9798f"
          ],
          "data": "0x0000000000000000000000000000000000000000000000000000000000000000000000000000000000000000aad8b67551086609d132178dff1dbe31b3c1c9c2",
          "blockHash": "0xd7183265c8acb164265e9eee53a5bf931d5f621c37e947f22b23528b2d9438d2",
          "blockNumber": "0x1add085",
          "blockTimestamp": "0x69ef7971",
          "transactionHash": "0x05ab1643d2f9faf3c818600d6d4a54f0893289e8c335877874c12f6b04fa36f6",
          "transactionIndex": "0x1",
          "logIndex": "0xe",
          "removed": false
        },
        {
          "address": "0xba5ed099633d3b313e4d5f7bdc1305d3c28ba5ed",
          "topics": [
            "0x4db17dd5e4732fb6da34a148104a592783ca119a1e7bb8829eba6cbadef0b511",
            "0x000000000000000000000000fd5295e75ffea02780b0e2638d9fabb0316fd4e0"
          ],
          "data": "0x",
          "blockHash": "0xd7183265c8acb164265e9eee53a5bf931d5f621c37e947f22b23528b2d9438d2",
          "blockNumber": "0x1add085",
          "blockTimestamp": "0x69ef7971",
          "transactionHash": "0x05ab1643d2f9faf3c818600d6d4a54f0893289e8c335877874c12f6b04fa36f6",
          "transactionIndex": "0x1",
          "logIndex": "0xf",
          "removed": false
        },
        {
          "address": "0x353ed52bf8482027c0e0b9e3c0e5d96a9f680980",
          "topics": [
            "0xcf8e77154e470bf74e2e443ad6193730ed2a7c72279dc06aa8c12daf20c7768e",
            "0x000000000000000000000000377755da4994c2cfe21b39bbce7211eab6f5fcc1",
            "0x0000000000000000000000005ecc03111ad2a78f981a108759bc73bae2ab31bc"
          ],
          "data": "0x000000000000000000000000fd5295e75ffea02780b0e2638d9fabb0316fd4e000000000000000000000000043cb9d6acf1462356303079ea4fdd8bc30042a6a",
          "blockHash": "0xd7183265c8acb164265e9eee53a5bf931d5f621c37e947f22b23528b2d9438d2",
          "blockNumber": "0x1add085",
          "blockTimestamp": "0x69ef7971",
          "transactionHash": "0x05ab1643d2f9faf3c818600d6d4a54f0893289e8c335877874c12f6b04fa36f6",
          "transactionIndex": "0x1",
          "logIndex": "0x10",
          "removed": false
        }
      ],
      "logsBloom": "0x00020000000002000000008000000620400000000000000000800001200010000000000200018000000400000000001000002000000804004000000000000000002000000000000000000000020042000001040000000000006001000000000000004010020000000000000010100800000000800122000000000000000000400000000000000000000400000000000008000000020880000004204000800010000002820044000a00000000000500000000000000000000000000000010000002000820020000000200080000040010000000002400000020000010100024000000100000000208040000000000000000082080000000000000000000000000",
      "transactionHash": "0x05ab1643d2f9faf3c818600d6d4a54f0893289e8c335877874c12f6b04fa36f6",
      "transactionIndex": "0x1",
      "blockHash": "0xd7183265c8acb164265e9eee53a5bf931d5f621c37e947f22b23528b2d9438d2",
      "blockNumber": "0x1add085",
      "gasUsed": "0x1c72a2",
      "effectiveGasPrice": "0x1c7f9bc7ff",
      "from": "0x2738f38fde510743e0c589415e0598c4cee6eaa7",
      "to": "0x353ed52bf8482027c0e0b9e3c0e5d96a9f680980",
      "contractAddress": null
    },
    {
      "type": "0x2",
      "status": "0x1",
      "cumulativeGasUsed": "0x7a63d",
      "logs": [
        {
          "address": "0x377755da4994c2cfe21b39bbce7211eab6f5fcc1",
          "topics": [
            "0xddf252ad1be2c89b69c2b068fc378daa952ba7f163c4a11628f55a4df523b3ef",
            "0x0000000000000000000000002738f38fde510743e0c589415e0598c4cee6eaa7",
            "0x000000000000000000000000fd5295e75ffea02780b0e2638d9fabb0316fd4e0"
          ],
          "data": "0x000000000000000000000000000000000000000000000008a046756e227b273f",
          "blockHash": "0xb571879eb8657b462ddc0c8fccedb90fc79e88ca445071e6d5827c666d31d4f3",
          "blockNumber": "0x1add08a",
          "blockTimestamp": "0x69ef7973",
          "transactionHash": "0x235e1a13a603f46b6e98fd56c74485a372714966e8b60a423bbaa8b9de2620a0",
          "transactionIndex": "0x3",
          "logIndex": "0x9",
          "removed": false
        }
      ],
      "logsBloom": "0x00000000000000000000000000000200000000000000000000000000000000000000000000000000000000000000000000000000000000000000000000000000002000000000000000000008000000000000000000000000000000000000000000000000000000000000000000000000000000000000000000000010000000000000000000000000000000000000000000000000000000000000000000000010080000000000000800000080000000000000000000000000000000000000000000000802000000000000000000000000000000000000000000000000000000000000000000000008000000000000000000000000000000400000000000000000",
      "transactionHash": "0x235e1a13a603f46b6e98fd56c74485a372714966e8b60a423bbaa8b9de2620a0",
      "transactionIndex": "0x3",
      "blockHash": "0xb571879eb8657b462ddc0c8fccedb90fc79e88ca445071e6d5827c666d31d4f3",
      "blockNumber": "0x1add08a",
      "gasUsed": "0x1a458",
      "effectiveGasPrice": "0x1c7f9bc7ff",
      "from": "0x2738f38fde510743e0c589415e0598c4cee6eaa7",
      "to": "0x377755da4994c2cfe21b39bbce7211eab6f5fcc1",
      "contractAddress": null
    },
    {
      "type": "0x2",
      "status": "0x1",
      "cumulativeGasUsed": "0x5140c",
      "logs": [
        {
          "address": "0x5ecc03111ad2a78f981a108759bc73bae2ab31bc",
          "topics": [
            "0xddf252ad1be2c89b69c2b068fc378daa952ba7f163c4a11628f55a4df523b3ef",
            "0x0000000000000000000000002738f38fde510743e0c589415e0598c4cee6eaa7",
            "0x000000000000000000000000fd5295e75ffea02780b0e2638d9fabb0316fd4e0"
          ],
          "data": "0x0000000000000000000000000000000000000000000000000de0b6b3a7640000",
          "blockHash": "0x3b33e2c8d6152bf8b52d35a72c3dc1d4b7db51870dd86d108413ebbaab295185",
          "blockNumber": "0x1add08f",
          "blockTimestamp": "0x69ef7975",
          "transactionHash": "0x5c7dcd87ee9a9b64bcc176f61f49e12e78ddcfde15362081bb6321607c1a79ba",
          "transactionIndex": "0x2",
          "logIndex": "0x5",
          "removed": false
        }
      ],
      "logsBloom": "0x00000000000000000000000000000200000000000000000000000000000000000000000000000000000000000000000000000000000000000000000000000000002000000000000004000008000000000000000000000000000000000000000000000000000000000000000000000000000000000000000000000010000000000000000000000000000000000000000000000000000000000000000000000010000000000000000800000000000000001000000000000000000000000200000000000802000000000000000000000000000000000000000000000000000000000000000000000008000000000000000000000000000000000000000000000000",
      "transactionHash": "0x5c7dcd87ee9a9b64bcc176f61f49e12e78ddcfde15362081bb6321607c1a79ba",
      "transactionIndex": "0x2",
      "blockHash": "0x3b33e2c8d6152bf8b52d35a72c3dc1d4b7db51870dd86d108413ebbaab295185",
      "blockNumber": "0x1add08f",
      "gasUsed": "0x1a42a",
      "effectiveGasPrice": "0x1c7f9bc7ff",
      "from": "0x2738f38fde510743e0c589415e0598c4cee6eaa7",
      "to": "0x5ecc03111ad2a78f981a108759bc73bae2ab31bc",
      "contractAddress": null
    },
    {
      "type": "0x2",
      "status": "0x1",
      "cumulativeGasUsed": "0x193183",
      "logs": [
        {
          "address": "0xfd5295e75ffea02780b0e2638d9fabb0316fd4e0",
          "topics": [
            "0xddf252ad1be2c89b69c2b068fc378daa952ba7f163c4a11628f55a4df523b3ef",
            "0x0000000000000000000000000000000000000000000000000000000000000000",
            "0x0000000000000000000000000000000000000000000000000000000000000001"
          ],
          "data": "0x00000000000000000000000000000000000000000000000000000000000003e8",
          "blockHash": "0x77418a62632b3d60813b3f26623675e60675cdb4ab36b4dad72a0a090b62f874",
          "blockNumber": "0x1add094",
          "blockTimestamp": "0x69ef7977",
          "transactionHash": "0xeb885c402b7b65b25e4fbdc7b1c6805da15a0cf1d5e0985eb7634bb0922c1ef6",
          "transactionIndex": "0x2",
          "logIndex": "0xc",
          "removed": false
        },
        {
          "address": "0xfd5295e75ffea02780b0e2638d9fabb0316fd4e0",
          "topics": [
            "0xddf252ad1be2c89b69c2b068fc378daa952ba7f163c4a11628f55a4df523b3ef",
            "0x0000000000000000000000000000000000000000000000000000000000000000",
            "0x0000000000000000000000002738f38fde510743e0c589415e0598c4cee6eaa7"
          ],
          "data": "0x000000000000000000000000000000000000000000000000af0f56d1151a28ff",
          "blockHash": "0x77418a62632b3d60813b3f26623675e60675cdb4ab36b4dad72a0a090b62f874",
          "blockNumber": "0x1add094",
          "blockTimestamp": "0x69ef7977",
          "transactionHash": "0xeb885c402b7b65b25e4fbdc7b1c6805da15a0cf1d5e0985eb7634bb0922c1ef6",
          "transactionIndex": "0x2",
          "logIndex": "0xd",
          "removed": false
        },
        {
          "address": "0xfd5295e75ffea02780b0e2638d9fabb0316fd4e0",
          "topics": [
            "0xf71a0e183fe1c86e734de92237976be5699cb46fd28373d6ace2f8eafea2857c"
          ],
          "data": "0x000000000000000000000000000000000000000000000008a046756e227b273f0000000000000000000000000000000000000000000000000de0b6b3a76400000000000000000000000000000000000000000000000000000000000069ef7977",
          "blockHash": "0x77418a62632b3d60813b3f26623675e60675cdb4ab36b4dad72a0a090b62f874",
          "blockNumber": "0x1add094",
          "blockTimestamp": "0x69ef7977",
          "transactionHash": "0xeb885c402b7b65b25e4fbdc7b1c6805da15a0cf1d5e0985eb7634bb0922c1ef6",
          "transactionIndex": "0x2",
          "logIndex": "0xe",
          "removed": false
        },
        {
          "address": "0xfd5295e75ffea02780b0e2638d9fabb0316fd4e0",
          "topics": [
            "0xa8137fff86647d8a402117b9c5dbda627f721d3773338fb9678c83e54ed39080",
            "0x0000000000000000000000002738f38fde510743e0c589415e0598c4cee6eaa7",
            "0x0000000000000000000000002738f38fde510743e0c589415e0598c4cee6eaa7"
          ],
          "data": "0x000000000000000000000000000000000000000000000008a046756e227b273f0000000000000000000000000000000000000000000000000de0b6b3a7640000000000000000000000000000000000000000000000000000af0f56d1151a28ff",
          "blockHash": "0x77418a62632b3d60813b3f26623675e60675cdb4ab36b4dad72a0a090b62f874",
          "blockNumber": "0x1add094",
          "blockTimestamp": "0x69ef7977",
          "transactionHash": "0xeb885c402b7b65b25e4fbdc7b1c6805da15a0cf1d5e0985eb7634bb0922c1ef6",
          "transactionIndex": "0x2",
          "logIndex": "0xf",
          "removed": false
        }
      ],
      "logsBloom": "0x00000000200000000000000000000000000000000000000000000000000000000000000000010000000000000000000000000000080000000000000000040000002000000100000000000008000000000000000000040000000000000000000000000000020000000000000000000800000000000000000000000010000000000000000000000000000000000000000000000000000000000000000000000010000000000000000000000000000100400000000000000000000000000000400000000802000000000000000000000000000000000000000000000000000060000000000000000000000000000000000000002000000000000000000000000000",
      "transactionHash": "0xeb885c402b7b65b25e4fbdc7b1c6805da15a0cf1d5e0985eb7634bb0922c1ef6",
      "transactionIndex": "0x2",
      "blockHash": "0x77418a62632b3d60813b3f26623675e60675cdb4ab36b4dad72a0a090b62f874",
      "blockNumber": "0x1add094",
      "gasUsed": "0x6e203",
      "effectiveGasPrice": "0x1c7f9bc7ff",
      "from": "0x2738f38fde510743e0c589415e0598c4cee6eaa7",
      "to": "0xfd5295e75ffea02780b0e2638d9fabb0316fd4e0",
      "contractAddress": null
    },
    {
      "type": "0x2",
      "status": "0x1",
      "cumulativeGasUsed": "0x2ac950",
      "logs": [
        {
          "address": "0xfd5295e75ffea02780b0e2638d9fabb0316fd4e0",
          "topics": [
            "0x0a59d45890c37e353ebb4ff4a00b4e5002b27b21e3a308daea7646097c12533f",
            "0x000000000000000000000000377755da4994c2cfe21b39bbce7211eab6f5fcc1"
          ],
          "data": "0x000000000000000000000000000000000000000000000342d5eea74d97a0000000000000000000000000000000000000000000000000104e2da94483f62000000000000000000000000000000000000000000000000000000000000000000012",
          "blockHash": "0xccb93d9ab245adbb7f7e0de24c726e73afd3ff4003866528505770e69f596356",
          "blockNumber": "0x1add098",
          "blockTimestamp": "0x69ef7979",
          "transactionHash": "0x25b6017854a4fdd9a85041a2707001da8a300a967cfcd15440a4f5d83d1bcd6d",
          "transactionIndex": "0x4",
          "logIndex": "0x1b",
          "removed": false
        }
      ],
      "logsBloom": "0x00000000000000000000000000000000000000000000000004000000000000000000000000010000000000000000000000000000000000000000000100000000000000000000000000000000000000000000000000000000000000000000000000000000000000000000000000000000000000000000000000000000000000000000000000000000000000000000000000000000000000000000000000000000000000020000000000000000000100000000000000000000000000000000000002000000000000000000000000000000000000000000000000000010010000000000000000000000000000000000000000002000000000000000000000000000",
      "transactionHash": "0x25b6017854a4fdd9a85041a2707001da8a300a967cfcd15440a4f5d83d1bcd6d",
      "transactionIndex": "0x4",
      "blockHash": "0xccb93d9ab245adbb7f7e0de24c726e73afd3ff4003866528505770e69f596356",
      "blockNumber": "0x1add098",
      "gasUsed": "0x2bab6",
      "effectiveGasPrice": "0x1c7f9bc7ff",
      "from": "0x2738f38fde510743e0c589415e0598c4cee6eaa7",
      "to": "0xfd5295e75ffea02780b0e2638d9fabb0316fd4e0",
      "contractAddress": null
    },
    {
      "type": "0x2",
      "status": "0x1",
      "cumulativeGasUsed": "0x65359",
      "logs": [
        {
          "address": "0xfd5295e75ffea02780b0e2638d9fabb0316fd4e0",
          "topics": [
            "0x0a59d45890c37e353ebb4ff4a00b4e5002b27b21e3a308daea7646097c12533f",
            "0x0000000000000000000000005ecc03111ad2a78f981a108759bc73bae2ab31bc"
          ],
          "data": "0x0000000000000000000000000000000000000000000000056bc75e2d6310000000000000000000000000000000000000000000000000001b1ae4d6e2ef5000000000000000000000000000000000000000000000000000000000000000000012",
          "blockHash": "0xb705423e36efd83f8e8980668277e94a960af317088f4cc6eeee7bef2904de3d",
          "blockNumber": "0x1add09d",
          "blockTimestamp": "0x69ef797b",
          "transactionHash": "0x1dc820ec49c83df37a9505d788c31f6d14cfa3595ac7827529162c0e83785145",
          "transactionIndex": "0x2",
          "logIndex": "0x5",
          "removed": false
        }
      ],
      "logsBloom": "0x00000000000000000000000000000000000000000000000004000000000000000000000000010000000000000000000000002000000000000000000100000000000000000000000000000000000000000000000000000000000000000000000000000000000000000000000000000000000000000002000000000000000000000000000000000000000000000000000000000000000000000000000000000000000000800000000000000000000100000000000000000000000000000000000000000000000000000000000000000000000000000000000000000000010000000000000000000000000000000000000000002000000000000000000000000000",
      "transactionHash": "0x1dc820ec49c83df37a9505d788c31f6d14cfa3595ac7827529162c0e83785145",
      "transactionIndex": "0x2",
      "blockHash": "0xb705423e36efd83f8e8980668277e94a960af317088f4cc6eeee7bef2904de3d",
      "blockNumber": "0x1add09d",
      "gasUsed": "0x2e46a",
      "effectiveGasPrice": "0x1c7f9bc7ff",
      "from": "0x2738f38fde510743e0c589415e0598c4cee6eaa7",
      "to": "0xfd5295e75ffea02780b0e2638d9fabb0316fd4e0",
      "contractAddress": null
    },
    {
      "type": "0x2",
      "status": "0x1",
      "cumulativeGasUsed": "0x7be5c",
      "logs": [
        {
          "address": "0xfd5295e75ffea02780b0e2638d9fabb0316fd4e0",
          "topics": [
            "0x133037347700fe9a7e5fffb139c832853fc52536035550fc6bc3b3f6207fd875",
            "0x000000000000000000000000ccd2ad0603a08ebc14d223a983171ef18192e8c9"
          ],
          "data": "0x0000000000000000000000000000000000000000000000000000000000000001",
          "blockHash": "0xd868581ad8d76c8575f6d235ed88c33e52cb51b9f1a6b01f0a681e5bb44a4c6d",
          "blockNumber": "0x1add0a1",
          "blockTimestamp": "0x69ef797d",
          "transactionHash": "0x7f0d3e1ccc8fda9fa680f8c7143e3f3e24b03b08820ddca7fc82b1f00234e889",
          "transactionIndex": "0x3",
          "logIndex": "0x9",
          "removed": false
        }
      ],
      "logsBloom": "0x00000000000000000000000000000000000000000000000000000000000000000000000000010000000000000000000000000000000008000000000000000000000000000000000000000000000000000000000000000020000000000000000000000000000000000000000008000000000000000000000000000000000000000000000000000000000000000000000000000000000000000000000000000000000000000000000000000000000100000000000000000000000000000000000000000000000000000000000000000000000000000000000400000000000000800001000000000000000000000000000000002000000000000000000000000000",
      "transactionHash": "0x7f0d3e1ccc8fda9fa680f8c7143e3f3e24b03b08820ddca7fc82b1f00234e889",
      "transactionIndex": "0x3",
      "blockHash": "0xd868581ad8d76c8575f6d235ed88c33e52cb51b9f1a6b01f0a681e5bb44a4c6d",
      "blockNumber": "0x1add0a1",
      "gasUsed": "0x1bc73",
      "effectiveGasPrice": "0x1c7f9bc7ff",
      "from": "0x2738f38fde510743e0c589415e0598c4cee6eaa7",
      "to": "0xfd5295e75ffea02780b0e2638d9fabb0316fd4e0",
      "contractAddress": null
    },
    {
      "type": "0x2",
      "status": "0x1",
      "cumulativeGasUsed": "0x493d7",
      "logs": [
        {
          "address": "0xccd2ad0603a08ebc14d223a983171ef18192e8c9",
          "topics": [
            "0x5865b763d2fcaa2023d34f5622fec93cfc34b82e8625c1e622b9a6cb47a69239",
            "0x000000000000000000000000fd5295e75ffea02780b0e2638d9fabb0316fd4e0"
          ],
          "data": "0x000000000000000000000000fd5295e75ffea02780b0e2638d9fabb0316fd4e0000000000000000000000000377755da4994c2cfe21b39bbce7211eab6f5fcc1000000000000000000000000000000000000000000000000000000000000012c0000000000000000000000002738f38fde510743e0c589415e0598c4cee6eaa70000000000000000000000000000000000000000000000000001c6bf5263400000000000000000000000000000000000000000000000000000000000000000000000000000000000000000000000000000000000000000000001c6bf526340000000000000000000000000000000000000000000000000000000000000000000",
          "blockHash": "0x6029623916f9ec6ffeabae0293c016eb0259d3596f132eba77d809a2ca88a001",
          "blockNumber": "0x1add0a6",
          "blockTimestamp": "0x69ef797f",
          "transactionHash": "0x6709fc9a3390def3dc45778b6e0a0641ae584e5927c9ca84a35581e6b0f5df20",
          "transactionIndex": "0x1",
          "logIndex": "0x1",
          "removed": false
        }
      ],
      "logsBloom": "0x00000000000000000000000000000200000400000040000000000000000000000000000000000000000000000000000000000000400000000000000000000000000000000000000000000000000000000000000000000000000080000000000000000000000000000000000000000000000000000000000000000000000000000000000000000000000000000000000000000000000000000000000000000000000000000000000800000000000000000000000000004000000000000000000000000000000000000000000000000000000000000000002000000000000000000000000000000008000000000000000000000000000000000000000000000000",
      "transactionHash": "0x6709fc9a3390def3dc45778b6e0a0641ae584e5927c9ca84a35581e6b0f5df20",
      "transactionIndex": "0x1",
      "blockHash": "0x6029623916f9ec6ffeabae0293c016eb0259d3596f132eba77d809a2ca88a001",
      "blockNumber": "0x1add0a6",
      "gasUsed": "0x493d7",
      "effectiveGasPrice": "0x1c7f9bc7ff",
      "from": "0x2738f38fde510743e0c589415e0598c4cee6eaa7",
      "to": "0xccd2ad0603a08ebc14d223a983171ef18192e8c9",
      "contractAddress": null
    },
    {
      "type": "0x2",
      "status": "0x1",
      "cumulativeGasUsed": "0x1c72b2",
      "logs": [
        {
          "address": "0xba5ed099633d3b313e4d5f7bdc1305d3c28ba5ed",
          "topics": [
            "0x2feea65dd4e9f9cbd86b74b7734210c59a1b2981b5b137bd0ee3e208200c9067",
            "0x000000000000000000000000ff9f3d41f0c791777389d3df12a82d6f5f54b883",
            "0xeb1794719ada4d6f637620be9f2aca9fdf28746c91a4959b5ae4cfed35e828ac"
          ],
          "data": "0x",
          "blockHash": "0xf637b23be061435bf8cfd2b0bb5a0a33c553b9320abcdea46d7ce7316612deb3",
          "blockNumber": "0x1add0ab",
          "blockTimestamp": "0x69ef7981",
          "transactionHash": "0x170da272871a2a715c23ca1c877314ed0b35e2308596a42b4a2fddc98a9398b1",
          "transactionIndex": "0x1",
          "logIndex": "0x1",
          "removed": false
        },
        {
          "address": "0x49e220db6255061e0a49e679a115a4e6948971ce",
          "topics": [
            "0xbc7cd75a20ee27fd9adebab32041f755214dbc6bffa90cc0225b39da2e5c2d3b",
            "0x00000000000000000000000043cb9d6acf1462356303079ea4fdd8bc30042a6a"
          ],
          "data": "0x",
          "blockHash": "0xf637b23be061435bf8cfd2b0bb5a0a33c553b9320abcdea46d7ce7316612deb3",
          "blockNumber": "0x1add0ab",
          "blockTimestamp": "0x69ef7981",
          "transactionHash": "0x170da272871a2a715c23ca1c877314ed0b35e2308596a42b4a2fddc98a9398b1",
          "transactionIndex": "0x1",
          "logIndex": "0x2",
          "removed": false
        },
        {
          "address": "0x49e220db6255061e0a49e679a115a4e6948971ce",
          "topics": [
            "0x8be0079c531659141344cd1fd0a4f28419497f9722a3daafe3b4186f6b6457e0",
            "0x0000000000000000000000000000000000000000000000000000000000000000",
            "0x000000000000000000000000ff9f3d41f0c791777389d3df12a82d6f5f54b883"
          ],
          "data": "0x",
          "blockHash": "0xf637b23be061435bf8cfd2b0bb5a0a33c553b9320abcdea46d7ce7316612deb3",
          "blockNumber": "0x1add0ab",
          "blockTimestamp": "0x69ef7981",
          "transactionHash": "0x170da272871a2a715c23ca1c877314ed0b35e2308596a42b4a2fddc98a9398b1",
          "transactionIndex": "0x1",
          "logIndex": "0x3",
          "removed": false
        },
        {
          "address": "0x49e220db6255061e0a49e679a115a4e6948971ce",
          "topics": [
            "0xb5d5dda8af4f1e40a5cc4aa66c39ca5aac7f90947261313b07527eb3bdd98bc7"
          ],
          "data": "0x0000000000000000000000000000000000000000000000000000000000000000000000000000000000000000000000000000000000000000000000000000000a",
          "blockHash": "0xf637b23be061435bf8cfd2b0bb5a0a33c553b9320abcdea46d7ce7316612deb3",
          "blockNumber": "0x1add0ab",
          "blockTimestamp": "0x69ef7981",
          "transactionHash": "0x170da272871a2a715c23ca1c877314ed0b35e2308596a42b4a2fddc98a9398b1",
          "transactionIndex": "0x1",
          "logIndex": "0x4",
          "removed": false
        },
        {
          "address": "0x49e220db6255061e0a49e679a115a4e6948971ce",
          "topics": [
            "0xd3890fc76afcfc31cba1dcf2c27b50e2541e4d75039c981855b5b5e03682aea0",
            "0x0000000000000000000000000000000000000000000000000000000000000000",
            "0x0000000000000000000000002738f38fde510743e0c589415e0598c4cee6eaa7"
          ],
          "data": "0x",
          "blockHash": "0xf637b23be061435bf8cfd2b0bb5a0a33c553b9320abcdea46d7ce7316612deb3",
          "blockNumber": "0x1add0ab",
          "blockTimestamp": "0x69ef7981",
          "transactionHash": "0x170da272871a2a715c23ca1c877314ed0b35e2308596a42b4a2fddc98a9398b1",
          "transactionIndex": "0x1",
          "logIndex": "0x5",
          "removed": false
        },
        {
          "address": "0x49e220db6255061e0a49e679a115a4e6948971ce",
          "topics": [
            "0xb404cac19fb1cbeff98d325795b08886e3cd8fe8cb1a2f193aac66f13fb239c3"
          ],
          "data": "0x00000000000000000000000000000000000000000000000000000000000000000000000000000000000000000000000000000000000000000000000000000005",
          "blockHash": "0xf637b23be061435bf8cfd2b0bb5a0a33c553b9320abcdea46d7ce7316612deb3",
          "blockNumber": "0x1add0ab",
          "blockTimestamp": "0x69ef7981",
          "transactionHash": "0x170da272871a2a715c23ca1c877314ed0b35e2308596a42b4a2fddc98a9398b1",
          "transactionIndex": "0x1",
          "logIndex": "0x6",
          "removed": false
        },
        {
          "address": "0x49e220db6255061e0a49e679a115a4e6948971ce",
          "topics": [
            "0xb273226859e3e49fd86c9ac8f721eaa74e677de0877db704918e0f43ec8d23bc"
          ],
          "data": "0x00000000000000000000000000000000000000000000000000000000000000000000000000000000000000000000000000000000000000000000000000000006",
          "blockHash": "0xf637b23be061435bf8cfd2b0bb5a0a33c553b9320abcdea46d7ce7316612deb3",
          "blockNumber": "0x1add0ab",
          "blockTimestamp": "0x69ef7981",
          "transactionHash": "0x170da272871a2a715c23ca1c877314ed0b35e2308596a42b4a2fddc98a9398b1",
          "transactionIndex": "0x1",
          "logIndex": "0x7",
          "removed": false
        },
        {
          "address": "0x49e220db6255061e0a49e679a115a4e6948971ce",
          "topics": [
            "0x77c5ddba87b3d3f970242eda9bb1263ade9e4aed3eca233d5fa1af00a574b025"
          ],
          "data": "0x0000000000000000000000000000000000000000000000000000000000000000000000000000000000000000000000000000000000000000000000000000000000000000000000000000000000000000000000000000000000000000000013880000000000000000000000000000000000000000000000000000000000000d05",
          "blockHash": "0xf637b23be061435bf8cfd2b0bb5a0a33c553b9320abcdea46d7ce7316612deb3",
          "blockNumber": "0x1add0ab",
          "blockTimestamp": "0x69ef7981",
          "transactionHash": "0x170da272871a2a715c23ca1c877314ed0b35e2308596a42b4a2fddc98a9398b1",
          "transactionIndex": "0x1",
          "logIndex": "0x8",
          "removed": false
        },
        {
          "address": "0x49e220db6255061e0a49e679a115a4e6948971ce",
          "topics": [
            "0xe4630e6e66d263636ccf946c97182b0edb7bbea539a79dfa121bab7444e83b79",
            "0x0000000000000000000000000000000000000000000000000000000000000000",
            "0x00000000000000000000000026eff54e2f0e8825996b83119b7df5ef2c882dd7"
          ],
          "data": "0x",
          "blockHash": "0xf637b23be061435bf8cfd2b0bb5a0a33c553b9320abcdea46d7ce7316612deb3",
          "blockNumber": "0x1add0ab",
          "blockTimestamp": "0x69ef7981",
          "transactionHash": "0x170da272871a2a715c23ca1c877314ed0b35e2308596a42b4a2fddc98a9398b1",
          "transactionIndex": "0x1",
          "logIndex": "0x9",
          "removed": false
        },
        {
          "address": "0x49e220db6255061e0a49e679a115a4e6948971ce",
          "topics": [
            "0xc1ba25a60afffd747fd25304e169131b7ae93932f7f3e508a8cec0e18fa12842",
            "0x0000000000000000000000000000000000000000000000000000000000000000",
            "0x0000000000000000000000002ee56be22d6af8c1b0ac97149b6f42d3b0bfb8c2"
          ],
          "data": "0x",
          "blockHash": "0xf637b23be061435bf8cfd2b0bb5a0a33c553b9320abcdea46d7ce7316612deb3",
          "blockNumber": "0x1add0ab",
          "blockTimestamp": "0x69ef7981",
          "transactionHash": "0x170da272871a2a715c23ca1c877314ed0b35e2308596a42b4a2fddc98a9398b1",
          "transactionIndex": "0x1",
          "logIndex": "0xa",
          "removed": false
        },
        {
          "address": "0x49e220db6255061e0a49e679a115a4e6948971ce",
          "topics": [
            "0x00af8726a3679feb41b28b0996e403259aceb28ec6f3c6c3dc7a4c4fe6c8fce1"
          ],
          "data": "0x00000000000000000000000000000000000000000000000000000000000000000000000000000000000000000000000000000000000000000000000000000001",
          "blockHash": "0xf637b23be061435bf8cfd2b0bb5a0a33c553b9320abcdea46d7ce7316612deb3",
          "blockNumber": "0x1add0ab",
          "blockTimestamp": "0x69ef7981",
          "transactionHash": "0x170da272871a2a715c23ca1c877314ed0b35e2308596a42b4a2fddc98a9398b1",
          "transactionIndex": "0x1",
          "logIndex": "0xb",
          "removed": false
        },
        {
          "address": "0x49e220db6255061e0a49e679a115a4e6948971ce",
          "topics": [
            "0x8be0079c531659141344cd1fd0a4f28419497f9722a3daafe3b4186f6b6457e0",
            "0x000000000000000000000000ff9f3d41f0c791777389d3df12a82d6f5f54b883",
            "0x0000000000000000000000002738f38fde510743e0c589415e0598c4cee6eaa7"
          ],
          "data": "0x",
          "blockHash": "0xf637b23be061435bf8cfd2b0bb5a0a33c553b9320abcdea46d7ce7316612deb3",
          "blockNumber": "0x1add0ab",
          "blockTimestamp": "0x69ef7981",
          "transactionHash": "0x170da272871a2a715c23ca1c877314ed0b35e2308596a42b4a2fddc98a9398b1",
          "transactionIndex": "0x1",
          "logIndex": "0xc",
          "removed": false
        },
        {
          "address": "0x49e220db6255061e0a49e679a115a4e6948971ce",
          "topics": [
            "0x7f26b83ff96e1f2b6a682f133852f6798a09c465da95921460cefb3847402498"
          ],
          "data": "0x0000000000000000000000000000000000000000000000000000000000000001",
          "blockHash": "0xf637b23be061435bf8cfd2b0bb5a0a33c553b9320abcdea46d7ce7316612deb3",
          "blockNumber": "0x1add0ab",
          "blockTimestamp": "0x69ef7981",
          "transactionHash": "0x170da272871a2a715c23ca1c877314ed0b35e2308596a42b4a2fddc98a9398b1",
          "transactionIndex": "0x1",
          "logIndex": "0xd",
          "removed": false
        },
        {
          "address": "0x49e220db6255061e0a49e679a115a4e6948971ce",
          "topics": [
            "0x7e644d79422f17c01e4894b5f4f588d331ebfa28653d42ae832dc59e38c9798f"
          ],
          "data": "0x0000000000000000000000000000000000000000000000000000000000000000000000000000000000000000aad8b67551086609d132178dff1dbe31b3c1c9c2",
          "blockHash": "0xf637b23be061435bf8cfd2b0bb5a0a33c553b9320abcdea46d7ce7316612deb3",
          "blockNumber": "0x1add0ab",
          "blockTimestamp": "0x69ef7981",
          "transactionHash": "0x170da272871a2a715c23ca1c877314ed0b35e2308596a42b4a2fddc98a9398b1",
          "transactionIndex": "0x1",
          "logIndex": "0xe",
          "removed": false
        },
        {
          "address": "0xba5ed099633d3b313e4d5f7bdc1305d3c28ba5ed",
          "topics": [
            "0x4db17dd5e4732fb6da34a148104a592783ca119a1e7bb8829eba6cbadef0b511",
            "0x00000000000000000000000049e220db6255061e0a49e679a115a4e6948971ce"
          ],
          "data": "0x",
          "blockHash": "0xf637b23be061435bf8cfd2b0bb5a0a33c553b9320abcdea46d7ce7316612deb3",
          "blockNumber": "0x1add0ab",
          "blockTimestamp": "0x69ef7981",
          "transactionHash": "0x170da272871a2a715c23ca1c877314ed0b35e2308596a42b4a2fddc98a9398b1",
          "transactionIndex": "0x1",
          "logIndex": "0xf",
          "removed": false
        },
        {
          "address": "0x353ed52bf8482027c0e0b9e3c0e5d96a9f680980",
          "topics": [
            "0xcf8e77154e470bf74e2e443ad6193730ed2a7c72279dc06aa8c12daf20c7768e",
            "0x0000000000000000000000005ecc03111ad2a78f981a108759bc73bae2ab31bc",
            "0x000000000000000000000000cd8f6950359795eb4688ac18d1e9bb88fa111eee"
          ],
          "data": "0x00000000000000000000000049e220db6255061e0a49e679a115a4e6948971ce00000000000000000000000043cb9d6acf1462356303079ea4fdd8bc30042a6a",
          "blockHash": "0xf637b23be061435bf8cfd2b0bb5a0a33c553b9320abcdea46d7ce7316612deb3",
          "blockNumber": "0x1add0ab",
          "blockTimestamp": "0x69ef7981",
          "transactionHash": "0x170da272871a2a715c23ca1c877314ed0b35e2308596a42b4a2fddc98a9398b1",
          "transactionIndex": "0x1",
          "logIndex": "0x10",
          "removed": false
        }
      ],
      "logsBloom": "0x00020000000002000000008000000420480000000000000000800001200010000000000200000000000400000000001040002000000804000000000000000000002000000000000000000000020042000001140000000000206000004000020000004010020000000800000000100800000000800122000000000200000000400000000000000000000c00000000000008000000020880000004004200800010000002820044800000000000000400000400000000000000000000000010100000000820020000000200880000044090000000002400000420000000000024000000000400000200000000000000000000080080000000000000000000000000",
      "transactionHash": "0x170da272871a2a715c23ca1c877314ed0b35e2308596a42b4a2fddc98a9398b1",
      "transactionIndex": "0x1",
      "blockHash": "0xf637b23be061435bf8cfd2b0bb5a0a33c553b9320abcdea46d7ce7316612deb3",
      "blockNumber": "0x1add0ab",
      "gasUsed": "0x1c72b2",
      "effectiveGasPrice": "0x1c7f9bc7ff",
      "from": "0x2738f38fde510743e0c589415e0598c4cee6eaa7",
      "to": "0x353ed52bf8482027c0e0b9e3c0e5d96a9f680980",
      "contractAddress": null
    },
    {
      "type": "0x2",
      "status": "0x1",
      "cumulativeGasUsed": "0x51426",
      "logs": [
        {
          "address": "0x5ecc03111ad2a78f981a108759bc73bae2ab31bc",
          "topics": [
            "0xddf252ad1be2c89b69c2b068fc378daa952ba7f163c4a11628f55a4df523b3ef",
            "0x0000000000000000000000002738f38fde510743e0c589415e0598c4cee6eaa7",
            "0x00000000000000000000000049e220db6255061e0a49e679a115a4e6948971ce"
          ],
          "data": "0x00000000000000000000000000000000000000000000000011b72ab8a6200d94",
          "blockHash": "0x1a2241ff9f24cad53cb36532c666230a842c684b671325a62281e595e36fbb6d",
          "blockNumber": "0x1add0af",
          "blockTimestamp": "0x69ef7982",
          "transactionHash": "0x3d8b0d870e7a16b3e1f2248ae45119cd2024b1705cb023e3157d44a01c7077f0",
          "transactionIndex": "0x2",
          "logIndex": "0x5",
          "removed": false
        }
      ],
      "logsBloom": "0x00000000000000000000000000000000000000000000000000000000000000000000000000000000000000000000000000000000000000000000000000000000002000000000000004000008000000000000000000000000000000000000000000000000000000000800000000000000000000000000000000000010000000000000000000000000000000000000000000000000000000000000000000000010000000000000800000000000000000001000000000000000000000000200000000000802000000000000000000000080000000000000000000000000000000000000000000000000000000000000000000000000000000000000000000000000",
      "transactionHash": "0x3d8b0d870e7a16b3e1f2248ae45119cd2024b1705cb023e3157d44a01c7077f0",
      "transactionIndex": "0x2",
      "blockHash": "0x1a2241ff9f24cad53cb36532c666230a842c684b671325a62281e595e36fbb6d",
      "blockNumber": "0x1add0af",
      "gasUsed": "0x1a449",
      "effectiveGasPrice": "0x1c7f9bc7ff",
      "from": "0x2738f38fde510743e0c589415e0598c4cee6eaa7",
      "to": "0x5ecc03111ad2a78f981a108759bc73bae2ab31bc",
      "contractAddress": null
    },
    {
      "type": "0x2",
      "status": "0x1",
      "cumulativeGasUsed": "0x512aa",
      "logs": [
        {
          "address": "0xcd8f6950359795eb4688ac18d1e9bb88fa111eee",
          "topics": [
            "0xddf252ad1be2c89b69c2b068fc378daa952ba7f163c4a11628f55a4df523b3ef",
            "0x0000000000000000000000002738f38fde510743e0c589415e0598c4cee6eaa7",
            "0x00000000000000000000000049e220db6255061e0a49e679a115a4e6948971ce"
          ],
          "data": "0x0000000000000000000000000000000000000000000000000de0b6b3a7640000",
          "blockHash": "0xf61c4fb4a58919f4f75ab3505293d79e1c278c6715b3db5a8ea6816994f7f1a7",
          "blockNumber": "0x1add0b4",
          "blockTimestamp": "0x69ef7984",
          "transactionHash": "0x13faef19338fb5882cc3f9cfd36ac42f9b388234bab3e298f931a42a1e1ff6d2",
          "transactionIndex": "0x2",
          "logIndex": "0x5",
          "removed": false
        }
      ],
      "logsBloom": "0x00000000000000000000000000000000000000000000000000000000000000000000000000000000000000000000000000000000000000000000000000000000002000000000000000000008000000000000000000000000000000000000000000000000000000000800000000000000000000000000000000000010000000000000000000000000000000000000000000000100000000000000000000000010000000000000800000000000000000000000000000100000000000000000000000000802000000000000000040000080000000000000000000000000000000000000000000000000000000000000000000000000000000000000000000000000",
      "transactionHash": "0x13faef19338fb5882cc3f9cfd36ac42f9b388234bab3e298f931a42a1e1ff6d2",
      "transactionIndex": "0x2",
      "blockHash": "0xf61c4fb4a58919f4f75ab3505293d79e1c278c6715b3db5a8ea6816994f7f1a7",
      "blockNumber": "0x1add0b4",
      "gasUsed": "0x1a42a",
      "effectiveGasPrice": "0x1c7f9bc7ff",
      "from": "0x2738f38fde510743e0c589415e0598c4cee6eaa7",
      "to": "0xcd8f6950359795eb4688ac18d1e9bb88fa111eee",
      "contractAddress": null
    },
    {
      "type": "0x2",
      "status": "0x1",
      "cumulativeGasUsed": "0x1009b2",
      "logs": [
        {
          "address": "0x49e220db6255061e0a49e679a115a4e6948971ce",
          "topics": [
            "0xddf252ad1be2c89b69c2b068fc378daa952ba7f163c4a11628f55a4df523b3ef",
            "0x0000000000000000000000000000000000000000000000000000000000000000",
            "0x0000000000000000000000000000000000000000000000000000000000000001"
          ],
          "data": "0x00000000000000000000000000000000000000000000000000000000000003e8",
          "blockHash": "0x9b81056cf8cd41294906454e0ec406d025ec9600a1be6dc823ae48f6bb12400c",
          "blockNumber": "0x1add0b8",
          "blockTimestamp": "0x69ef7987",
          "transactionHash": "0x2227a08fe36d6eb50cdee77cbe20a1fa0d31c4c6fd39a8c9e811791d1287666f",
          "transactionIndex": "0x2",
          "logIndex": "0x4",
          "removed": false
        },
        {
          "address": "0x49e220db6255061e0a49e679a115a4e6948971ce",
          "topics": [
            "0xddf252ad1be2c89b69c2b068fc378daa952ba7f163c4a11628f55a4df523b3ef",
            "0x0000000000000000000000000000000000000000000000000000000000000000",
            "0x0000000000000000000000002738f38fde510743e0c589415e0598c4cee6eaa7"
          ],
          "data": "0x0000000000000000000000000000000000000000000000000fadfe83aaff01a4",
          "blockHash": "0x9b81056cf8cd41294906454e0ec406d025ec9600a1be6dc823ae48f6bb12400c",
          "blockNumber": "0x1add0b8",
          "blockTimestamp": "0x69ef7987",
          "transactionHash": "0x2227a08fe36d6eb50cdee77cbe20a1fa0d31c4c6fd39a8c9e811791d1287666f",
          "transactionIndex": "0x2",
          "logIndex": "0x5",
          "removed": false
        },
        {
          "address": "0x49e220db6255061e0a49e679a115a4e6948971ce",
          "topics": [
            "0xf71a0e183fe1c86e734de92237976be5699cb46fd28373d6ace2f8eafea2857c"
          ],
          "data": "0x00000000000000000000000000000000000000000000000011b72ab8a6200d940000000000000000000000000000000000000000000000000de0b6b3a76400000000000000000000000000000000000000000000000000000000000069ef7987",
          "blockHash": "0x9b81056cf8cd41294906454e0ec406d025ec9600a1be6dc823ae48f6bb12400c",
          "blockNumber": "0x1add0b8",
          "blockTimestamp": "0x69ef7987",
          "transactionHash": "0x2227a08fe36d6eb50cdee77cbe20a1fa0d31c4c6fd39a8c9e811791d1287666f",
          "transactionIndex": "0x2",
          "logIndex": "0x6",
          "removed": false
        },
        {
          "address": "0x49e220db6255061e0a49e679a115a4e6948971ce",
          "topics": [
            "0xa8137fff86647d8a402117b9c5dbda627f721d3773338fb9678c83e54ed39080",
            "0x0000000000000000000000002738f38fde510743e0c589415e0598c4cee6eaa7",
            "0x0000000000000000000000002738f38fde510743e0c589415e0598c4cee6eaa7"
          ],
          "data": "0x00000000000000000000000000000000000000000000000011b72ab8a6200d940000000000000000000000000000000000000000000000000de0b6b3a76400000000000000000000000000000000000000000000000000000fadfe83aaff01a4",
          "blockHash": "0x9b81056cf8cd41294906454e0ec406d025ec9600a1be6dc823ae48f6bb12400c",
          "blockNumber": "0x1add0b8",
          "blockTimestamp": "0x69ef7987",
          "transactionHash": "0x2227a08fe36d6eb50cdee77cbe20a1fa0d31c4c6fd39a8c9e811791d1287666f",
          "transactionIndex": "0x2",
          "logIndex": "0x7",
          "removed": false
        }
      ],
      "logsBloom": "0x00000000200000000000000000000000000000000000000000000000000000000000000000000000000000000000000040000000080000000000000000040000002000000100000000000008000000000000000000040000000000000000000000000000020000000000000000000800000000000000000000000210000000000000000000000000000000000000000000000000000000000000000000000010000000000000000000000000000000400400000000000000000000000000400000000802000000000000000000000000000000000000000000000000000060000000000000000000000000000000000000000000000000000000000000000000",
      "transactionHash": "0x2227a08fe36d6eb50cdee77cbe20a1fa0d31c4c6fd39a8c9e811791d1287666f",
      "transactionIndex": "0x2",
      "blockHash": "0x9b81056cf8cd41294906454e0ec406d025ec9600a1be6dc823ae48f6bb12400c",
      "blockNumber": "0x1add0b8",
      "gasUsed": "0x6e1f2",
      "effectiveGasPrice": "0x1c7f9bc7ff",
      "from": "0x2738f38fde510743e0c589415e0598c4cee6eaa7",
      "to": "0x49e220db6255061e0a49e679a115a4e6948971ce",
      "contractAddress": null
    },
    {
      "type": "0x2",
      "status": "0x1",
      "cumulativeGasUsed": "0x2ac968",
      "logs": [
        {
          "address": "0x49e220db6255061e0a49e679a115a4e6948971ce",
          "topics": [
            "0x0a59d45890c37e353ebb4ff4a00b4e5002b27b21e3a308daea7646097c12533f",
            "0x0000000000000000000000005ecc03111ad2a78f981a108759bc73bae2ab31bc"
          ],
          "data": "0x0000000000000000000000000000000000000000000000056bc75e2d6310000000000000000000000000000000000000000000000000001b1ae4d6e2ef5000000000000000000000000000000000000000000000000000000000000000000012",
          "blockHash": "0x3c821c4836da608e4b037d60dc7005993fdaec33f5cbc7439df124563c1162ab",
          "blockNumber": "0x1add0bb",
          "blockTimestamp": "0x69ef7988",
          "transactionHash": "0xd8bdddf6a82d706b909da4223d0777c12b1faf21caf6929d06e6e6297e8435cc",
          "transactionIndex": "0x4",
          "logIndex": "0x1b",
          "removed": false
        }
      ],
      "logsBloom": "0x00000000000000000000000000000000000000000000000004000000000000000000000000000000000000000000000040002000000000000000000100000000000000000000000000000000000000000000000000000000000000000000000000000000000000000000000000000000000000000002000000000200000000000000000000000000000000000000000000000000000000000000000000000000000000800000000000000000000000000400000000000000000000000000000000000000000000000000000000000000000000000000000000000000010000000000000000000000000000000000000000000000000000000000000000000000",
      "transactionHash": "0xd8bdddf6a82d706b909da4223d0777c12b1faf21caf6929d06e6e6297e8435cc",
      "transactionIndex": "0x4",
      "blockHash": "0x3c821c4836da608e4b037d60dc7005993fdaec33f5cbc7439df124563c1162ab",
      "blockNumber": "0x1add0bb",
      "gasUsed": "0x2bab6",
      "effectiveGasPrice": "0x1c7f9bc7ff",
      "from": "0x2738f38fde510743e0c589415e0598c4cee6eaa7",
      "to": "0x49e220db6255061e0a49e679a115a4e6948971ce",
      "contractAddress": null
    },
    {
      "type": "0x2",
      "status": "0x1",
      "cumulativeGasUsed": "0x653c8",
      "logs": [
        {
          "address": "0x49e220db6255061e0a49e679a115a4e6948971ce",
          "topics": [
            "0x0a59d45890c37e353ebb4ff4a00b4e5002b27b21e3a308daea7646097c12533f",
            "0x000000000000000000000000cd8f6950359795eb4688ac18d1e9bb88fa111eee"
          ],
          "data": "0x0000000000000000000000000000000000000000000000042c96f40959140000000000000000000000000000000000000000000000000014def2c42ebd6400000000000000000000000000000000000000000000000000000000000000000012",
          "blockHash": "0x80313c43351e7f52efbd6060886aae13d274dc5162b4d61bb32ce9252b6ad593",
          "blockNumber": "0x1add0c0",
          "blockTimestamp": "0x69ef798a",
          "transactionHash": "0xb70881b2a0f0effa53f1630b906e95f7ef8baa08cdd34cc923680f05c0c7ad7e",
          "transactionIndex": "0x2",
          "logIndex": "0x5",
          "removed": false
        }
      ],
      "logsBloom": "0x00000000000000000000000000000000080000000000000004000000000000000000000000000000000000000000000040000000000000000000000100000000000000000000000000000000000000000000000000000000000000004000000000000000000000000000000000000000000000000000000000000200000000000000000000000000000000000000000000000000000000000000000000000000000000000000000000000000000000000400000000000000000000000000000000000000000000000000000000000000000000000000000400000000010000000000000000000000000000000000000000000000000000000000000000000000",
      "transactionHash": "0xb70881b2a0f0effa53f1630b906e95f7ef8baa08cdd34cc923680f05c0c7ad7e",
      "transactionIndex": "0x2",
      "blockHash": "0x80313c43351e7f52efbd6060886aae13d274dc5162b4d61bb32ce9252b6ad593",
      "blockNumber": "0x1add0c0",
      "gasUsed": "0x2e46a",
      "effectiveGasPrice": "0x1c7f9bc7ff",
      "from": "0x2738f38fde510743e0c589415e0598c4cee6eaa7",
      "to": "0x49e220db6255061e0a49e679a115a4e6948971ce",
      "contractAddress": null
    },
    {
      "type": "0x2",
      "status": "0x1",
      "cumulativeGasUsed": "0x52c71",
      "logs": [
        {
          "address": "0x49e220db6255061e0a49e679a115a4e6948971ce",
          "topics": [
            "0x133037347700fe9a7e5fffb139c832853fc52536035550fc6bc3b3f6207fd875",
            "0x000000000000000000000000ccd2ad0603a08ebc14d223a983171ef18192e8c9"
          ],
          "data": "0x0000000000000000000000000000000000000000000000000000000000000001",
          "blockHash": "0x3cf114bcf63b9913511a36249e0cddca97e9ec1a3128a59e7d9706f53335e5dd",
          "blockNumber": "0x1add0c4",
          "blockTimestamp": "0x69ef798b",
          "transactionHash": "0x0f1776eebea5932c540daf96d68b1e510cb42847ffafb908a5c824f1d7e5c6f2",
          "transactionIndex": "0x2",
          "logIndex": "0x5",
          "removed": false
        }
      ],
      "logsBloom": "0x00000000000000000000000000000000000000000000000000000000000000000000000000000000000000000000000040000000000008000000000000000000000000000000000000000000000000000000000000000020000000000000000000000000000000000000000008000000000000000000000000000200000000000000000000000000000000000000000000000000000000000000000000000000000000000000000000000000000000000400000000000000000000000000000000000000000000000000000000000000000000000000000400000000000000800001000000000000000000000000000000000000000000000000000000000000",
      "transactionHash": "0x0f1776eebea5932c540daf96d68b1e510cb42847ffafb908a5c824f1d7e5c6f2",
      "transactionIndex": "0x2",
      "blockHash": "0x3cf114bcf63b9913511a36249e0cddca97e9ec1a3128a59e7d9706f53335e5dd",
      "blockNumber": "0x1add0c4",
      "gasUsed": "0x1bc73",
      "effectiveGasPrice": "0x1c7f9bc7ff",
      "from": "0x2738f38fde510743e0c589415e0598c4cee6eaa7",
      "to": "0x49e220db6255061e0a49e679a115a4e6948971ce",
      "contractAddress": null
    },
    {
      "type": "0x2",
      "status": "0x1",
      "cumulativeGasUsed": "0x17255d",
      "logs": [
        {
          "address": "0xccd2ad0603a08ebc14d223a983171ef18192e8c9",
          "topics": [
            "0x5865b763d2fcaa2023d34f5622fec93cfc34b82e8625c1e622b9a6cb47a69239",
            "0x00000000000000000000000049e220db6255061e0a49e679a115a4e6948971ce"
          ],
          "data": "0x00000000000000000000000049e220db6255061e0a49e679a115a4e6948971ce000000000000000000000000cd8f6950359795eb4688ac18d1e9bb88fa111eee000000000000000000000000000000000000000000000000000000000000012c0000000000000000000000002738f38fde510743e0c589415e0598c4cee6eaa70000000000000000000000000000000000000000000000000001c6bf5263400000000000000000000000000000000000000000000000000000000000000000000000000000000000000000000000000000000000000000000001c6bf526340000000000000000000000000000000000000000000000000000000000000000000",
          "blockHash": "0xb8f0ca4808c9a82f41b78b31736fefb7b8181b8b780ca75840243ec678ffa0a1",
          "blockNumber": "0x1add0c5",
          "blockTimestamp": "0x69ef798c",
          "transactionHash": "0x8b002b877f0f717880d53505885278a55c1d7cf55ccfb3478698e357b8e62244",
          "transactionIndex": "0x2",
          "logIndex": "0xc",
          "removed": false
        }
      ],
      "logsBloom": "0x00000000000000000000000000000000000400000040000000000000000000000000000000000000000000000000000000000000400000000000000000000000000000000000000000000000000000000000000000000000000080000000000000000000000000000800000000000000000000000000000000000000000000000000000000000000000000000000000000000000000000000000000000000000000000000000800000000000000000000000000000004000000000000000000000000000000000000000000000000080000000000000002000000000000000000000000000000000000000000000000000000000000000000000000000000000",
      "transactionHash": "0x8b002b877f0f717880d53505885278a55c1d7cf55ccfb3478698e357b8e62244",
      "transactionIndex": "0x2",
      "blockHash": "0xb8f0ca4808c9a82f41b78b31736fefb7b8181b8b780ca75840243ec678ffa0a1",
      "blockNumber": "0x1add0c5",
      "gasUsed": "0x4d5dd",
      "effectiveGasPrice": "0x1c7f9bc7ff",
      "from": "0x2738f38fde510743e0c589415e0598c4cee6eaa7",
      "to": "0xccd2ad0603a08ebc14d223a983171ef18192e8c9",
      "contractAddress": null
    }
  ],
  "libraries": [
    "lib/mento-core/node_modules/@celo/contracts/common/linkedlists/AddressSortedLinkedListWithMedian.sol:AddressSortedLinkedListWithMedian:0x8E1B1312EC92C9f8073296c4Cf1E60D31d228269"
  ],
  "pending": [],
  "returns": {},
  "timestamp": 1777301901353,
  "chain": 10143,
  "commit": "41cebbe"
}