{
  "transactions": [
    {
      "hash": "0x68659ed1012122ea2ef606315d8ade67b95b3b199d1e0f6b8c030964815005ce",
      "transactionType": "CALL",
      "contractName": null,
      "contractAddress": "0xecb3c656c131fcd9bb8d1d80898716bd684feb78",
      "function": "createExchange((address,address,address,uint256,uint256,uint256,((uint256),address,uint256,uint256,uint256)))",
      "arguments": [
        "(0xdE9e4C3ce781b4bA68120d6261cbad65ce0aB00b, 0x5505b70207aE3B826c1A7607F19F3Bf73444A082, 0x3b199d9EbEbe509bb711BfFb455c2d79102A9602, 0, 0, 0, ((20000000000000000000000), 0xBBc9c6E41E2A402b12992875eDaa0162Ed990212, 360, 1, 10000000000000000000000000))"
      ],
      "transaction": {
        "from": "0x56fd3f2bee130e9867942d0f463a16fbe49b8d81",
        "to": "0xecb3c656c131fcd9bb8d1d80898716bd684feb78",
        "gas": "0x848f3",
        "value": "0x0",
        "input": "0xb0898691000000000000000000000000de9e4c3ce781b4ba68120d6261cbad65ce0ab00b0000000000000000000000005505b70207ae3b826c1a7607f19f3bf73444a0820000000000000000000000003b199d9ebebe509bb711bffb455c2d79102a960200000000000000000000000000000000000000000000000000000000000000000000000000000000000000000000000000000000000000000000000000000000000000000000000000000000000000000000000000000000000000000000000000000000000000000000000000000000000000000000043c33c1937564800000000000000000000000000000bbc9c6e41e2a402b12992875edaa0162ed99021200000000000000000000000000000000000000000000000000000000000001680000000000000000000000000000000000000000000000000000000000000001000000000000000000000000000000000000000000084595161401484a000000",
        "nonce": "0x84d",
        "chainId": "0xaa044c"
      },
      "additionalContracts": [],
      "isFixedGasLimit": false
    },
    {
      "hash": "0x337380a6d051e963ec42cfc9f50b89285f3d0c1a919a3fd336bde1aa518da2c2",
      "transactionType": "CALL",
      "contractName": null,
      "contractAddress": "0xb9ae2065142eb79b6c5eb1e8778f883fad6b07ba",
      "function": "configureTradingLimit(bytes32,address,(uint32,uint32,int48,int48,int48,uint8))",
      "arguments": [
        "0xc9664df358594c5eaf2f410ab371e2deb8b532ca26162d2bc36d99b8d174567b",
        "0xdE9e4C3ce781b4bA68120d6261cbad65ce0aB00b",
        "(300, 86400, 50000, 250000, 1250000, 7)"
      ],
      "transaction": {
        "from": "0x56fd3f2bee130e9867942d0f463a16fbe49b8d81",
        "to": "0xb9ae2065142eb79b6c5eb1e8778f883fad6b07ba",
        "gas": "0xeb89",
        "value": "0x0",
        "input": "0xa9b5aab3c9664df358594c5eaf2f410ab371e2deb8b532ca26162d2bc36d99b8d174567b000000000000000000000000de9e4c3ce781b4ba68120d6261cbad65ce0ab00b000000000000000000000000000000000000000000000000000000000000012c0000000000000000000000000000000000000000000000000000000000015180000000000000000000000000000000000000000000000000000000000000c350000000000000000000000000000000000000000000000000000000000003d09000000000000000000000000000000000000000000000000000000000001312d00000000000000000000000000000000000000000000000000000000000000007",
        "nonce": "0x84e",
        "chainId": "0xaa044c"
      },
      "additionalContracts": [],
      "isFixedGasLimit": false
    },
    {
      "hash": "0x74e48f3f7c4dba59fabf85554cfbc93488ff520d048acca9ede1a0f615552420",
      "transactionType": "CALL",
      "contractName": null,
      "contractAddress": "0xb9ae2065142eb79b6c5eb1e8778f883fad6b07ba",
      "function": "configureTradingLimit(bytes32,address,(uint32,uint32,int48,int48,int48,uint8))",
      "arguments": [
        "0xc9664df358594c5eaf2f410ab371e2deb8b532ca26162d2bc36d99b8d174567b",
        "0x5505b70207aE3B826c1A7607F19F3Bf73444A082",
        "(300, 86400, 28023000, 140115000, 700575000, 7)"
      ],
      "transaction": {
        "from": "0x56fd3f2bee130e9867942d0f463a16fbe49b8d81",
        "to": "0xb9ae2065142eb79b6c5eb1e8778f883fad6b07ba",
        "gas": "0xebcc",
        "value": "0x0",
        "input": "0xa9b5aab3c9664df358594c5eaf2f410ab371e2deb8b532ca26162d2bc36d99b8d174567b0000000000000000000000005505b70207ae3b826c1a7607f19f3bf73444a082000000000000000000000000000000000000000000000000000000000000012c00000000000000000000000000000000000000000000000000000000000151800000000000000000000000000000000000000000000000000000000001ab98d8000000000000000000000000000000000000000000000000000000000859fc380000000000000000000000000000000000000000000000000000000029c1ed180000000000000000000000000000000000000000000000000000000000000007",
        "nonce": "0x84f",
        "chainId": "0xaa044c"
      },
      "additionalContracts": [],
      "isFixedGasLimit": false
    }
  ],
  "receipts": [
    {
      "status": "0x1",
      "cumulativeGasUsed": "0x65e55",
      "logs": [
        {
          "address": "0xecb3c656c131fcd9bb8d1d80898716bd684feb78",
          "topics": [
            "0xb374789237d43aed0f75b4c50a45793fd70e354bb96eecd573f35f5d509d78a1",
            "0xc9664df358594c5eaf2f410ab371e2deb8b532ca26162d2bc36d99b8d174567b",
            "0x000000000000000000000000de9e4c3ce781b4ba68120d6261cbad65ce0ab00b",
            "0x0000000000000000000000005505b70207ae3b826c1a7607f19f3bf73444a082"
          ],
          "data": "0x0000000000000000000000003b199d9ebebe509bb711bffb455c2d79102a9602",
          "blockHash": "0xe68e72bb0798bd9e6cded6799707c83f1e78da8b82c10eb89f699ee797c903b3",
          "blockNumber": "0x4341c6",
          "transactionHash": "0x68659ed1012122ea2ef606315d8ade67b95b3b199d1e0f6b8c030964815005ce",
          "transactionIndex": "0x1",
          "logIndex": "0x0",
          "removed": false
        }
      ],
      "logsBloom": "0x00000000000008000000000000000000000008000000004000800000000040000100010000000000000000000000000004000000000000000004000000000000000000000000000000000000000000002000000000000000000000000000000000000000000002000000000000000000000000000000000000000000000000000000000000000000000000000000000000000000000000000000000000000040000000000000000000000000000000000000000000000000000000000000000000000000000000000000000000080000000000000000100000000000000000000000000000000000000000000000000000000000000000008000000000000000",
      "type": "0x2",
      "transactionHash": "0x68659ed1012122ea2ef606315d8ade67b95b3b199d1e0f6b8c030964815005ce",
      "transactionIndex": "0x1",
      "blockHash": "0xe68e72bb0798bd9e6cded6799707c83f1e78da8b82c10eb89f699ee797c903b3",
      "blockNumber": "0x4341c6",
      "gasUsed": "0x5aa39",
      "effectiveGasPrice": "0x5d21dba01",
      "from": "0x56fd3f2bee130e9867942d0f463a16fbe49b8d81",
      "to": "0xecb3c656c131fcd9bb8d1d80898716bd684feb78",
      "contractAddress": null,
      "l1BaseFeeScalar": "0x0",
      "l1BlobBaseFee": "0x1f2f5188",
      "l1BlobBaseFeeScalar": "0x0",
      "l1Fee": "0x0",
      "l1GasPrice": "0x342d",
      "l1GasUsed": "0xb8f"
    },
    {
      "status": "0x1",
      "cumulativeGasUsed": "0x708dc",
      "logs": [
        {
          "address": "0xb9ae2065142eb79b6c5eb1e8778f883fad6b07ba",
          "topics": [
            "0x1a082a1efaf1549c18917ddcb1f759680c29371609e24f4b946e93acf4ce5ad2"
          ],
          "data": "0xc9664df358594c5eaf2f410ab371e2deb8b532ca26162d2bc36d99b8d174567b000000000000000000000000de9e4c3ce781b4ba68120d6261cbad65ce0ab00b000000000000000000000000000000000000000000000000000000000000012c0000000000000000000000000000000000000000000000000000000000015180000000000000000000000000000000000000000000000000000000000000c350000000000000000000000000000000000000000000000000000000000003d09000000000000000000000000000000000000000000000000000000000001312d00000000000000000000000000000000000000000000000000000000000000007",
          "blockHash": "0xe68e72bb0798bd9e6cded6799707c83f1e78da8b82c10eb89f699ee797c903b3",
          "blockNumber": "0x4341c6",
          "transactionHash": "0x337380a6d051e963ec42cfc9f50b89285f3d0c1a919a3fd336bde1aa518da2c2",
          "transactionIndex": "0x2",
          "logIndex": "0x1",
          "removed": false
        }
      ],
      "logsBloom": "0x00080000000000000000000000000000000400000000000000000000000000000000000000000000000000000000000000000000000000000000020000000000000000000000000000000000000000000000000000000000000000000000000000000000000000000000000000000000000000000000000000000000000000000000000000000000000000000000000000000000000000000000000000000000000000000000000000000000000000000000000000000000000000000000000000000000000000000000000010000000000000000000000000000000000000000000000000000000000000000000000000000000000010000010000000000000",
      "type": "0x2",
      "transactionHash": "0x337380a6d051e963ec42cfc9f50b89285f3d0c1a919a3fd336bde1aa518da2c2",
      "transactionIndex": "0x2",
      "blockHash": "0xe68e72bb0798bd9e6cded6799707c83f1e78da8b82c10eb89f699ee797c903b3",
      "blockNumber": "0x4341c6",
      "gasUsed": "0xaa87",
      "effectiveGasPrice": "0x5d21dba01",
      "from": "0x56fd3f2bee130e9867942d0f463a16fbe49b8d81",
      "to": "0xb9ae2065142eb79b6c5eb1e8778f883fad6b07ba",
      "contractAddress": null,
      "l1BaseFeeScalar": "0x0",
      "l1BlobBaseFee": "0x1f2f5188",
      "l1BlobBaseFeeScalar": "0x0",
      "l1Fee": "0x0",
      "l1GasPrice": "0x342d",
      "l1GasUsed": "0x9ad"
    },
    {
      "status": "0x1",
      "cumulativeGasUsed": "0x7b393",
      "logs": [
        {
          "address": "0xb9ae2065142eb79b6c5eb1e8778f883fad6b07ba",
          "topics": [
            "0x1a082a1efaf1549c18917ddcb1f759680c29371609e24f4b946e93acf4ce5ad2"
          ],
          "data": "0xc9664df358594c5eaf2f410ab371e2deb8b532ca26162d2bc36d99b8d174567b0000000000000000000000005505b70207ae3b826c1a7607f19f3bf73444a082000000000000000000000000000000000000000000000000000000000000012c00000000000000000000000000000000000000000000000000000000000151800000000000000000000000000000000000000000000000000000000001ab98d8000000000000000000000000000000000000000000000000000000000859fc380000000000000000000000000000000000000000000000000000000029c1ed180000000000000000000000000000000000000000000000000000000000000007",
          "blockHash": "0xe68e72bb0798bd9e6cded6799707c83f1e78da8b82c10eb89f699ee797c903b3",
          "blockNumber": "0x4341c6",
          "transactionHash": "0x74e48f3f7c4dba59fabf85554cfbc93488ff520d048acca9ede1a0f615552420",
          "transactionIndex": "0x3",
          "logIndex": "0x2",
          "removed": false
        }
      ],
      "logsBloom": "0x00080000000000000000000000000000000400000000000000000000000000000000000000000000000000000000000000000000000000000000020000000000000000000000000000000000000000000000000000000000000000000000000000000000000000000000000000000000000000000000000000000000000000000000000000000000000000000000000000000000000000000000000000000000000000000000000000000000000000000000000000000000000000000000000000000000000000000000000010000000000000000000000000000000000000000000000000000000000000000000000000000000000010000010000000000000",
      "type": "0x2",
      "transactionHash": "0x74e48f3f7c4dba59fabf85554cfbc93488ff520d048acca9ede1a0f615552420",
      "transactionIndex": "0x3",
      "blockHash": "0xe68e72bb0798bd9e6cded6799707c83f1e78da8b82c10eb89f699ee797c903b3",
      "blockNumber": "0x4341c6",
      "gasUsed": "0xaab7",
      "effectiveGasPrice": "0x5d21dba01",
      "from": "0x56fd3f2bee130e9867942d0f463a16fbe49b8d81",
      "to": "0xb9ae2065142eb79b6c5eb1e8778f883fad6b07ba",
      "contractAddress": null,
      "l1BaseFeeScalar": "0x0",
      "l1BlobBaseFee": "0x1f2f5188",
      "l1BlobBaseFeeScalar": "0x0",
      "l1Fee": "0x0",
      "l1GasPrice": "0x342d",
      "l1GasUsed": "0x9e2"
    }
  ],
  "libraries": [
    "node_modules/@celo/contracts/common/linkedlists/AddressSortedLinkedListWithMedian.sol:AddressSortedLinkedListWithMedian:0xf90B816Ea07eC3c6384656cd5B3249DA8fc3df6F"
  ],
  "pending": [],
  "returns": {},
  "timestamp": 1757691739071,
  "chain": 11142220,
  "commit": "48ea54d"
}