{
  "transactions": [
    {
      "hash": "0x89cdae034a79bb8a69eb35a44e65c336e2d146a9c8147e0c29f1f93a141d6a1d",
      "transactionType": "CALL",
      "contractName": null,
      "contractAddress": "0xfaa7ca2b056e60f6733ae75aa0709140a6eafd20",
      "function": "setEquivalentToken(address,address)",
      "arguments": [
        "0xdE9e4C3ce781b4bA68120d6261cbad65ce0aB00b",
        "0xC443D8C40D321B34f815eaC76a7620FB06F9E8a4"
      ],
      "transaction": {
        "from": "0x56fd3f2bee130e9867942d0f463a16fbe49b8d81",
        "to": "0xfaa7ca2b056e60f6733ae75aa0709140a6eafd20",
        "gas": "0xc4da",
        "value": "0x0",
        "input": "0x145d8d18000000000000000000000000de9e4c3ce781b4ba68120d6261cbad65ce0ab00b000000000000000000000000c443d8c40d321b34f815eac76a7620fb06f9e8a4",
        "nonce": "0x89b",
        "chainId": "0xaa044c"
      },
      "additionalContracts": [],
      "isFixedGasLimit": false
    },
    {
      "hash": "0x38b9377ccbe266566bfd06e53bbe1953e0f25bb7360616cd1b55d7a85b69c690",
      "transactionType": "CALL",
      "contractName": null,
      "contractAddress": "0xfaa7ca2b056e60f6733ae75aa0709140a6eafd20",
      "function": "setEquivalentToken(address,address)",
      "arguments": [
        "0xA99dC247d6b7B2E3ab48a1fEE101b83cD6aCd82a",
        "0x6bAAd73587935d51B14EBB668AC61e562320cBbc"
      ],
      "transaction": {
        "from": "0x56fd3f2bee130e9867942d0f463a16fbe49b8d81",
        "to": "0xfaa7ca2b056e60f6733ae75aa0709140a6eafd20",
        "gas": "0xc4da",
        "value": "0x0",
        "input": "0x145d8d18000000000000000000000000a99dc247d6b7b2e3ab48a1fee101b83cd6acd82a0000000000000000000000006baad73587935d51b14ebb668ac61e562320cbbc",
        "nonce": "0x89c",
        "chainId": "0xaa044c"
      },
      "additionalContracts": [],
      "isFixedGasLimit": false
    },
    {
      "hash": "0x584af9812646b3c1a9a37fa8cc9d2fcbbbdf2a4bf08fb4fd46c40b4523ccf6d9",
      "transactionType": "CALL",
      "contractName": null,
      "contractAddress": "0xfaa7ca2b056e60f6733ae75aa0709140a6eafd20",
      "function": "setEquivalentToken(address,address)",
      "arguments": [
        "0x2294298942fdc79417DE9E0D740A4957E0e7783a",
        "0x5C1EFDf739883E4B97D879ac149CC0B6FB6978d1"
      ],
      "transaction": {
        "from": "0x56fd3f2bee130e9867942d0f463a16fbe49b8d81",
        "to": "0xfaa7ca2b056e60f6733ae75aa0709140a6eafd20",
        "gas": "0xc4da",
        "value": "0x0",
        "input": "0x145d8d180000000000000000000000002294298942fdc79417de9e0d740a4957e0e7783a0000000000000000000000005c1efdf739883e4b97d879ac149cc0b6fb6978d1",
        "nonce": "0x89d",
        "chainId": "0xaa044c"
      },
      "additionalContracts": [],
      "isFixedGasLimit": false
    },
    {
      "hash": "0x292168d406ffa8754125f49ea4dca212411131d47064317e67f9886c3f717022",
      "transactionType": "CALL",
      "contractName": null,
      "contractAddress": "0xfaa7ca2b056e60f6733ae75aa0709140a6eafd20",
      "function": "setEquivalentToken(address,address)",
      "arguments": [
        "0x5505b70207aE3B826c1A7607F19F3Bf73444A082",
        "0x84DC05912bC603c8810FaE64D4b72d347F057E79"
      ],
      "transaction": {
        "from": "0x56fd3f2bee130e9867942d0f463a16fbe49b8d81",
        "to": "0xfaa7ca2b056e60f6733ae75aa0709140a6eafd20",
        "gas": "0xc4da",
        "value": "0x0",
        "input": "0x145d8d180000000000000000000000005505b70207ae3b826c1a7607f19f3bf73444a08200000000000000000000000084dc05912bc603c8810fae64d4b72d347f057e79",
        "nonce": "0x89e",
        "chainId": "0xaa044c"
      },
      "additionalContracts": [],
      "isFixedGasLimit": false
    },
    {
      "hash": "0xab29ca32f5eeeb3e718a98ac6cd1d4773d0a59b98e7b25b99afa27db2b06cbd6",
      "transactionType": "CALL",
      "contractName": null,
      "contractAddress": "0xfaa7ca2b056e60f6733ae75aa0709140a6eafd20",
      "function": "setEquivalentToken(address,address)",
      "arguments": [
        "0xC7e4635651E3e3Af82b61d3E23c159438daE3BbF",
        "0xABa88cA0f7Ed50aD5f8881706b88749049DDfCB7"
      ],
      "transaction": {
        "from": "0x56fd3f2bee130e9867942d0f463a16fbe49b8d81",
        "to": "0xfaa7ca2b056e60f6733ae75aa0709140a6eafd20",
        "gas": "0xc4da",
        "value": "0x0",
        "input": "0x145d8d18000000000000000000000000c7e4635651e3e3af82b61d3e23c159438dae3bbf000000000000000000000000aba88ca0f7ed50ad5f8881706b88749049ddfcb7",
        "nonce": "0x89f",
        "chainId": "0xaa044c"
      },
      "additionalContracts": [],
      "isFixedGasLimit": false
    },
    {
      "hash": "0x025c6322fe19ca6a9e8f9988ffc2e0ffc514f0ecd9240c7f1288e061ab4eb7ec",
      "transactionType": "CALL",
      "contractName": null,
      "contractAddress": "0xfaa7ca2b056e60f6733ae75aa0709140a6eafd20",
      "function": "setEquivalentToken(address,address)",
      "arguments": [
        "0x0352976d940a2C3FBa0C3623198947Ee1d17869E",
        "0x36f01750932120B53f613E9eAFB7857dB586A583"
      ],
      "transaction": {
        "from": "0x56fd3f2bee130e9867942d0f463a16fbe49b8d81",
        "to": "0xfaa7ca2b056e60f6733ae75aa0709140a6eafd20",
        "gas": "0xc4da",
        "value": "0x0",
        "input": "0x145d8d180000000000000000000000000352976d940a2c3fba0c3623198947ee1d17869e00000000000000000000000036f01750932120b53f613e9eafb7857db586a583",
        "nonce": "0x8a0",
        "chainId": "0xaa044c"
      },
      "additionalContracts": [],
      "isFixedGasLimit": false
    },
    {
      "hash": "0xe99dde9ad5e489258e247afde279c9d46b98a77d89429718958104dbc5241a17",
      "transactionType": "CALL",
      "contractName": null,
      "contractAddress": "0xfaa7ca2b056e60f6733ae75aa0709140a6eafd20",
      "function": "setEquivalentToken(address,address)",
      "arguments": [
        "0x5F8d55c3627d2dc0a2B4afa798f877242F382F67",
        "0xbEa1FEDf828261cC79ea68f22f7A0A60107498DB"
      ],
      "transaction": {
        "from": "0x56fd3f2bee130e9867942d0f463a16fbe49b8d81",
        "to": "0xfaa7ca2b056e60f6733ae75aa0709140a6eafd20",
        "gas": "0xc4da",
        "value": "0x0",
        "input": "0x145d8d180000000000000000000000005f8d55c3627d2dc0a2b4afa798f877242f382f67000000000000000000000000bea1fedf828261cc79ea68f22f7a0a60107498db",
        "nonce": "0x8a1",
        "chainId": "0xaa044c"
      },
      "additionalContracts": [],
      "isFixedGasLimit": false
    },
    {
      "hash": "0x4bbe493e53695b6ba9d8674788ea23a4b00b862e572428f3c2e1fa9623727fb4",
      "transactionType": "CALL",
      "contractName": null,
      "contractAddress": "0xfaa7ca2b056e60f6733ae75aa0709140a6eafd20",
      "function": "setEquivalentToken(address,address)",
      "arguments": [
        "0x5e94B8C872bD47BC4255E60ECBF44D5E66e7401C",
        "0x663F1D38e2c176Ae5A72677E7A36c983321a0595"
      ],
      "transaction": {
        "from": "0x56fd3f2bee130e9867942d0f463a16fbe49b8d81",
        "to": "0xfaa7ca2b056e60f6733ae75aa0709140a6eafd20",
        "gas": "0xc4da",
        "value": "0x0",
        "input": "0x145d8d180000000000000000000000005e94b8c872bd47bc4255e60ecbf44d5e66e7401c000000000000000000000000663f1d38e2c176ae5a72677e7a36c983321a0595",
        "nonce": "0x8a2",
        "chainId": "0xaa044c"
      },
      "additionalContracts": [],
      "isFixedGasLimit": false
    },
    {
      "hash": "0x03b38d77a1ff8ff2c0a28dbd7736d6e31f5a1cc8cd02e4310d9df95ed48c524d",
      "transactionType": "CALL",
      "contractName": null,
      "contractAddress": "0xfaa7ca2b056e60f6733ae75aa0709140a6eafd20",
      "function": "setEquivalentToken(address,address)",
      "arguments": [
        "0x85F5181Abdbf0e1814Fc4358582Ae07b8eBA3aF3",
        "0x57D8B6da3057Ce2a40f9501f9891BB7388048D98"
      ],
      "transaction": {
        "from": "0x56fd3f2bee130e9867942d0f463a16fbe49b8d81",
        "to": "0xfaa7ca2b056e60f6733ae75aa0709140a6eafd20",
        "gas": "0xc4da",
        "value": "0x0",
        "input": "0x145d8d1800000000000000000000000085f5181abdbf0e1814fc4358582ae07b8eba3af300000000000000000000000057d8b6da3057ce2a40f9501f9891bb7388048d98",
        "nonce": "0x8a3",
        "chainId": "0xaa044c"
      },
      "additionalContracts": [],
      "isFixedGasLimit": false
    },
    {
      "hash": "0xc8c033d6ac4ae2e19e3753b6d3468b6b18334be78cab66380d15572e72682360",
      "transactionType": "CALL",
      "contractName": null,
      "contractAddress": "0xfaa7ca2b056e60f6733ae75aa0709140a6eafd20",
      "function": "setEquivalentToken(address,address)",
      "arguments": [
        "0x10CCfB235b0E1Ed394bACE4560C3ed016697687e",
        "0xbCd7aA5683Ac7Fa0Cf2F5F4733aB47a8E7957b99"
      ],
      "transaction": {
        "from": "0x56fd3f2bee130e9867942d0f463a16fbe49b8d81",
        "to": "0xfaa7ca2b056e60f6733ae75aa0709140a6eafd20",
        "gas": "0xc4da",
        "value": "0x0",
        "input": "0x145d8d1800000000000000000000000010ccfb235b0e1ed394bace4560c3ed016697687e000000000000000000000000bcd7aa5683ac7fa0cf2f5f4733ab47a8e7957b99",
        "nonce": "0x8a4",
        "chainId": "0xaa044c"
      },
      "additionalContracts": [],
      "isFixedGasLimit": false
    },
    {
      "hash": "0xd663ab4b84365ec359a0b5dd6b8a19b2d7fafe0b91f73705e074aa0de844fbf0",
      "transactionType": "CALL",
      "contractName": null,
      "contractAddress": "0xfaa7ca2b056e60f6733ae75aa0709140a6eafd20",
      "function": "setEquivalentToken(address,address)",
      "arguments": [
        "0xF151c9a13b78C84f93f50B8b3bC689fedc134F60",
        "0x0e51743ccED754f4e718945E524Faf21bb53902C"
      ],
      "transaction": {
        "from": "0x56fd3f2bee130e9867942d0f463a16fbe49b8d81",
        "to": "0xfaa7ca2b056e60f6733ae75aa0709140a6eafd20",
        "gas": "0xc4da",
        "value": "0x0",
        "input": "0x145d8d18000000000000000000000000f151c9a13b78c84f93f50b8b3bc689fedc134f600000000000000000000000000e51743cced754f4e718945e524faf21bb53902c",
        "nonce": "0x8a5",
        "chainId": "0xaa044c"
      },
      "additionalContracts": [],
      "isFixedGasLimit": false
    },
    {
      "hash": "0x6e8e2058fff6b752f5dd9200a123b0b4b7fd47411be0329bd6f3a37490a69f74",
      "transactionType": "CALL",
      "contractName": null,
      "contractAddress": "0xfaa7ca2b056e60f6733ae75aa0709140a6eafd20",
      "function": "setEquivalentToken(address,address)",
      "arguments": [
        "0x5873Faeb42F3563dcD77F0fbbdA818E6d6DA3139",
        "0x13E0145cE3ec72b50b2F5B3E8FACED719941976d"
      ],
      "transaction": {
        "from": "0x56fd3f2bee130e9867942d0f463a16fbe49b8d81",
        "to": "0xfaa7ca2b056e60f6733ae75aa0709140a6eafd20",
        "gas": "0xc4da",
        "value": "0x0",
        "input": "0x145d8d180000000000000000000000005873faeb42f3563dcd77f0fbbda818e6d6da313900000000000000000000000013e0145ce3ec72b50b2f5b3e8faced719941976d",
        "nonce": "0x8a6",
        "chainId": "0xaa044c"
      },
      "additionalContracts": [],
      "isFixedGasLimit": false
    },
    {
      "hash": "0xd358f74fc30e8400922c4425cb32b7f5881b562d8bc2519db992dd6b9c4e29bd",
      "transactionType": "CALL",
      "contractName": null,
      "contractAddress": "0xfaa7ca2b056e60f6733ae75aa0709140a6eafd20",
      "function": "setEquivalentToken(address,address)",
      "arguments": [
        "0x284E9b7B623eAE866914b7FA0eB720C2Bb3C2980",
        "0xb2c0010688BC18e10Bea9c68d83309AaB686515A"
      ],
      "transaction": {
        "from": "0x56fd3f2bee130e9867942d0f463a16fbe49b8d81",
        "to": "0xfaa7ca2b056e60f6733ae75aa0709140a6eafd20",
        "gas": "0xc4da",
        "value": "0x0",
        "input": "0x145d8d18000000000000000000000000284e9b7b623eae866914b7fa0eb720c2bb3c2980000000000000000000000000b2c0010688bc18e10bea9c68d83309aab686515a",
        "nonce": "0x8a7",
        "chainId": "0xaa044c"
      },
      "additionalContracts": [],
      "isFixedGasLimit": false
    },
    {
      "hash": "0x23459012493fccb7037d0c8faddb8dc93ae04e31e554f045dd565e1c262f30db",
      "transactionType": "CALL",
      "contractName": null,
      "contractAddress": "0xfaa7ca2b056e60f6733ae75aa0709140a6eafd20",
      "function": "setEquivalentToken(address,address)",
      "arguments": [
        "0x85Bee67D435A39f7467a8a9DE34a5B73D25Df426",
        "0xB6478F290a87661189C2716F55b04E7136873A0D"
      ],
      "transaction": {
        "from": "0x56fd3f2bee130e9867942d0f463a16fbe49b8d81",
        "to": "0xfaa7ca2b056e60f6733ae75aa0709140a6eafd20",
        "gas": "0xc4da",
        "value": "0x0",
        "input": "0x145d8d1800000000000000000000000085bee67d435a39f7467a8a9de34a5b73d25df426000000000000000000000000b6478f290a87661189c2716f55b04e7136873a0d",
        "nonce": "0x8a8",
        "chainId": "0xaa044c"
      },
      "additionalContracts": [],
      "isFixedGasLimit": false
    },
    {
      "hash": "0xd815934cc3c64cf485fa1e66ab3a7eda5907d66975b62a6e6333d44bf84e8b47",
      "transactionType": "CALL",
      "contractName": null,
      "contractAddress": "0xfaa7ca2b056e60f6733ae75aa0709140a6eafd20",
      "function": "setEquivalentToken(address,address)",
      "arguments": [
        "0x3d5ae86F34E2a82771496D140daFAEf3789dF888",
        "0xAfD7EFA9660A7776A3DDA30127906cADFE21b0Fb"
      ],
      "transaction": {
        "from": "0x56fd3f2bee130e9867942d0f463a16fbe49b8d81",
        "to": "0xfaa7ca2b056e60f6733ae75aa0709140a6eafd20",
        "gas": "0xc4da",
        "value": "0x0",
        "input": "0x145d8d180000000000000000000000003d5ae86f34e2a82771496d140dafaef3789df888000000000000000000000000afd7efa9660a7776a3dda30127906cadfe21b0fb",
        "nonce": "0x8a9",
        "chainId": "0xaa044c"
      },
      "additionalContracts": [],
      "isFixedGasLimit": false
    }
  ],
  "receipts": [
    {
      "status": "0x1",
      "cumulativeGasUsed": "0x14265",
      "logs": [
        {
          "address": "0xfaa7ca2b056e60f6733ae75aa0709140a6eafd20",
          "topics": [
            "0x50029dfdec1fc4684fff6b60e99fd3972a724662f5b4235e5082c447344ea01f",
            "0x000000000000000000000000de9e4c3ce781b4ba68120d6261cbad65ce0ab00b",
            "0x000000000000000000000000c443d8c40d321b34f815eac76a7620fb06f9e8a4"
          ],
          "data": "0x",
          "blockHash": "0x6d86c299430427e928285ac9e99336199cae14d3f40a73aa68908515099a2cbb",
          "blockNumber": "0x5ad714",
          "transactionHash": "0x89cdae034a79bb8a69eb35a44e65c336e2d146a9c8147e0c29f1f93a141d6a1d",
          "transactionIndex": "0x1",
          "logIndex": "0x0",
          "removed": false
        }
      ],
      "logsBloom": "0x02100000800000000000000000000000000000000020000000000000000000000100010000000000000000000000000000000000000000000000000000000000000000000000000000000000000000000000000000000000000000000000000000000000000002000000000000000000000000000000000000100000000000000000000000200000000000000000000000000000000000000000000000000000000200000000000000000000002000000000000000000000000000000000000000010000000000000000000000000000000000000000000000000000000000000000000000000000000000000000000000000000000000000000000000000000",
      "type": "0x2",
      "transactionHash": "0x89cdae034a79bb8a69eb35a44e65c336e2d146a9c8147e0c29f1f93a141d6a1d",
      "transactionIndex": "0x1",
      "blockHash": "0x6d86c299430427e928285ac9e99336199cae14d3f40a73aa68908515099a2cbb",
      "blockNumber": "0x5ad714",
      "gasUsed": "0x8e85",
      "effectiveGasPrice": "0x5d21dba01",
      "from": "0x56fd3f2bee130e9867942d0f463a16fbe49b8d81",
      "to": "0xfaa7ca2b056e60f6733ae75aa0709140a6eafd20",
      "contractAddress": null,
      "l1BaseFeeScalar": "0x0",
      "l1BlobBaseFee": "0x13",
      "l1BlobBaseFeeScalar": "0x0",
      "l1Fee": "0x0",
      "l1GasPrice": "0xb9",
      "l1GasUsed": "0x640"
    },
    {
      "status": "0x1",
      "cumulativeGasUsed": "0x1d0ea",
      "logs": [
        {
          "address": "0xfaa7ca2b056e60f6733ae75aa0709140a6eafd20",
          "topics": [
            "0x50029dfdec1fc4684fff6b60e99fd3972a724662f5b4235e5082c447344ea01f",
            "0x000000000000000000000000a99dc247d6b7b2e3ab48a1fee101b83cd6acd82a",
            "0x0000000000000000000000006baad73587935d51b14ebb668ac61e562320cbbc"
          ],
          "data": "0x",
          "blockHash": "0x6d86c299430427e928285ac9e99336199cae14d3f40a73aa68908515099a2cbb",
          "blockNumber": "0x5ad714",
          "transactionHash": "0x38b9377ccbe266566bfd06e53bbe1953e0f25bb7360616cd1b55d7a85b69c690",
          "transactionIndex": "0x2",
          "logIndex": "0x1",
          "removed": false
        }
      ],
      "logsBloom": "0x02100000400000000000000000000000000000000020000000000000000000000000000000000000000000000000000000000000000000000000000000000000000000000000000000000000000000180000000000000000000000000000000000000000000000000000000000000000000000000000000020100000000000000000000000000000000000000000000000000000000000000000000000000000000200000000000000000000002000000000000000000000000000000000000000000000000000000000000000000000000000000000000000000000008000000000000000000000000000000000000000200000000000000000000000000000",
      "type": "0x2",
      "transactionHash": "0x38b9377ccbe266566bfd06e53bbe1953e0f25bb7360616cd1b55d7a85b69c690",
      "transactionIndex": "0x2",
      "blockHash": "0x6d86c299430427e928285ac9e99336199cae14d3f40a73aa68908515099a2cbb",
      "blockNumber": "0x5ad714",
      "gasUsed": "0x8e85",
      "effectiveGasPrice": "0x5d21dba01",
      "from": "0x56fd3f2bee130e9867942d0f463a16fbe49b8d81",
      "to": "0xfaa7ca2b056e60f6733ae75aa0709140a6eafd20",
      "contractAddress": null,
      "l1BaseFeeScalar": "0x0",
      "l1BlobBaseFee": "0x13",
      "l1BlobBaseFeeScalar": "0x0",
      "l1Fee": "0x0",
      "l1GasPrice": "0xb9",
      "l1GasUsed": "0x640"
    },
    {
      "status": "0x1",
      "cumulativeGasUsed": "0x25f6f",
      "logs": [
        {
          "address": "0xfaa7ca2b056e60f6733ae75aa0709140a6eafd20",
          "topics": [
            "0x50029dfdec1fc4684fff6b60e99fd3972a724662f5b4235e5082c447344ea01f",
            "0x0000000000000000000000002294298942fdc79417de9e0d740a4957e0e7783a",
            "0x0000000000000000000000005c1efdf739883e4b97d879ac149cc0b6fb6978d1"
          ],
          "data": "0x",
          "blockHash": "0x6d86c299430427e928285ac9e99336199cae14d3f40a73aa68908515099a2cbb",
          "blockNumber": "0x5ad714",
          "transactionHash": "0x584af9812646b3c1a9a37fa8cc9d2fcbbbdf2a4bf08fb4fd46c40b4523ccf6d9",
          "transactionIndex": "0x3",
          "logIndex": "0x2",
          "removed": false
        }
      ],
      "logsBloom": "0x02100000000000000000000000000000000000000020000000000000000000000000000000020000000000000000040000000000000000000000000000000000000000000000000000000000000000000000000000008000000000000000000000000000000000000000000000000000000000000000000000100000000000000000000000000000000000000000000000000000000000000000000000000000000200000000000000000000002000000000000000000000000000000000000000000000000000000000000000000000000000000000020001000000000000000000000000000000000000000800000000000000000000000000000000000000",
      "type": "0x2",
      "transactionHash": "0x584af9812646b3c1a9a37fa8cc9d2fcbbbdf2a4bf08fb4fd46c40b4523ccf6d9",
      "transactionIndex": "0x3",
      "blockHash": "0x6d86c299430427e928285ac9e99336199cae14d3f40a73aa68908515099a2cbb",
      "blockNumber": "0x5ad714",
      "gasUsed": "0x8e85",
      "effectiveGasPrice": "0x5d21dba01",
      "from": "0x56fd3f2bee130e9867942d0f463a16fbe49b8d81",
      "to": "0xfaa7ca2b056e60f6733ae75aa0709140a6eafd20",
      "contractAddress": null,
      "l1BaseFeeScalar": "0x0",
      "l1BlobBaseFee": "0x13",
      "l1BlobBaseFeeScalar": "0x0",
      "l1Fee": "0x0",
      "l1GasPrice": "0xb9",
      "l1GasUsed": "0x640"
    },
    {
      "status": "0x1",
      "cumulativeGasUsed": "0x2edf4",
      "logs": [
        {
          "address": "0xfaa7ca2b056e60f6733ae75aa0709140a6eafd20",
          "topics": [
            "0x50029dfdec1fc4684fff6b60e99fd3972a724662f5b4235e5082c447344ea01f",
            "0x0000000000000000000000005505b70207ae3b826c1a7607f19f3bf73444a082",
            "0x00000000000000000000000084dc05912bc603c8810fae64d4b72d347f057e79"
          ],
          "data": "0x",
          "blockHash": "0x6d86c299430427e928285ac9e99336199cae14d3f40a73aa68908515099a2cbb",
          "blockNumber": "0x5ad714",
          "transactionHash": "0x292168d406ffa8754125f49ea4dca212411131d47064317e67f9886c3f717022",
          "transactionIndex": "0x4",
          "logIndex": "0x3",
          "removed": false
        }
      ],
      "logsBloom": "0x02100000000008000000000000000000000000000020000000000000000000000000000000000000000000000000000004000000000000000004000000000000000000000000000000000000000000000000000000000000000000000000000000000000000000000000000000000004000000000000000000100000000000000000000000000000400000000000000000000000000000000000000000000000000200000000000000000200002000000000000000000000000000000000000000000000000000000000000000000000000000000000000000000000000000000000000000000000000000000000000000000000000000000000000000000000",
      "type": "0x2",
      "transactionHash": "0x292168d406ffa8754125f49ea4dca212411131d47064317e67f9886c3f717022",
      "transactionIndex": "0x4",
      "blockHash": "0x6d86c299430427e928285ac9e99336199cae14d3f40a73aa68908515099a2cbb",
      "blockNumber": "0x5ad714",
      "gasUsed": "0x8e85",
      "effectiveGasPrice": "0x5d21dba01",
      "from": "0x56fd3f2bee130e9867942d0f463a16fbe49b8d81",
      "to": "0xfaa7ca2b056e60f6733ae75aa0709140a6eafd20",
      "contractAddress": null,
      "l1BaseFeeScalar": "0x0",
      "l1BlobBaseFee": "0x13",
      "l1BlobBaseFeeScalar": "0x0",
      "l1Fee": "0x0",
      "l1GasPrice": "0xb9",
      "l1GasUsed": "0x640"
    },
    {
      "status": "0x1",
      "cumulativeGasUsed": "0x37c79",
      "logs": [
        {
          "address": "0xfaa7ca2b056e60f6733ae75aa0709140a6eafd20",
          "topics": [
            "0x50029dfdec1fc4684fff6b60e99fd3972a724662f5b4235e5082c447344ea01f",
            "0x000000000000000000000000c7e4635651e3e3af82b61d3e23c159438dae3bbf",
            "0x000000000000000000000000aba88ca0f7ed50ad5f8881706b88749049ddfcb7"
          ],
          "data": "0x",
          "blockHash": "0x6d86c299430427e928285ac9e99336199cae14d3f40a73aa68908515099a2cbb",
          "blockNumber": "0x5ad714",
          "transactionHash": "0xab29ca32f5eeeb3e718a98ac6cd1d4773d0a59b98e7b25b99afa27db2b06cbd6",
          "transactionIndex": "0x5",
          "logIndex": "0x4",
          "removed": false
        }
      ],
      "logsBloom": "0x02100000000000000000000000000000000000000020000000000000000000000000000000000000000000000000000000000000000000000000000000000000000000000000000000000000000000000000000000000000000000000000000000000000000000000000000000020000000000000000000000100000000000000000100000000000000000000000000000000000000000000000000000040000000200000080000000000000002000000000000000000000000000000000000000000000000000000000000000000000000000000000080000000000000000000000000000000000001000000000000000000000000000000000000000000000",
      "type": "0x2",
      "transactionHash": "0xab29ca32f5eeeb3e718a98ac6cd1d4773d0a59b98e7b25b99afa27db2b06cbd6",
      "transactionIndex": "0x5",
      "blockHash": "0x6d86c299430427e928285ac9e99336199cae14d3f40a73aa68908515099a2cbb",
      "blockNumber": "0x5ad714",
      "gasUsed": "0x8e85",
      "effectiveGasPrice": "0x5d21dba01",
      "from": "0x56fd3f2bee130e9867942d0f463a16fbe49b8d81",
      "to": "0xfaa7ca2b056e60f6733ae75aa0709140a6eafd20",
      "contractAddress": null,
      "l1BaseFeeScalar": "0x0",
      "l1BlobBaseFee": "0x13",
      "l1BlobBaseFeeScalar": "0x0",
      "l1Fee": "0x0",
      "l1GasPrice": "0xb9",
      "l1GasUsed": "0x640"
    },
    {
      "status": "0x1",
      "cumulativeGasUsed": "0x40afe",
      "logs": [
        {
          "address": "0xfaa7ca2b056e60f6733ae75aa0709140a6eafd20",
          "topics": [
            "0x50029dfdec1fc4684fff6b60e99fd3972a724662f5b4235e5082c447344ea01f",
            "0x0000000000000000000000000352976d940a2c3fba0c3623198947ee1d17869e",
            "0x00000000000000000000000036f01750932120b53f613e9eafb7857db586a583"
          ],
          "data": "0x",
          "blockHash": "0x6d86c299430427e928285ac9e99336199cae14d3f40a73aa68908515099a2cbb",
          "blockNumber": "0x5ad714",
          "transactionHash": "0x025c6322fe19ca6a9e8f9988ffc2e0ffc514f0ecd9240c7f1288e061ab4eb7ec",
          "transactionIndex": "0x6",
          "logIndex": "0x5",
          "removed": false
        }
      ],
      "logsBloom": "0x02100000000000000000000000000008000000000020000100000000000000000000000000000000000000000000000000000000000000000000000000000000000000000000000000000000000000000000000000000000000000000000000000000000000000000000000000000000000010000000000000100000000000000000000000000000000000000000000000000000000000000000000000000000000200000000000000000000002000000000000000000000000000000000000000000000000000000000020000000000000000000200000000000000000010000000000000000000000000000000000000000000000000000000000000000000",
      "type": "0x2",
      "transactionHash": "0x025c6322fe19ca6a9e8f9988ffc2e0ffc514f0ecd9240c7f1288e061ab4eb7ec",
      "transactionIndex": "0x6",
      "blockHash": "0x6d86c299430427e928285ac9e99336199cae14d3f40a73aa68908515099a2cbb",
      "blockNumber": "0x5ad714",
      "gasUsed": "0x8e85",
      "effectiveGasPrice": "0x5d21dba01",
      "from": "0x56fd3f2bee130e9867942d0f463a16fbe49b8d81",
      "to": "0xfaa7ca2b056e60f6733ae75aa0709140a6eafd20",
      "contractAddress": null,
      "l1BaseFeeScalar": "0x0",
      "l1BlobBaseFee": "0x13",
      "l1BlobBaseFeeScalar": "0x0",
      "l1Fee": "0x0",
      "l1GasPrice": "0xb9",
      "l1GasUsed": "0x640"
    },
    {
      "status": "0x1",
      "cumulativeGasUsed": "0x49983",
      "logs": [
        {
          "address": "0xfaa7ca2b056e60f6733ae75aa0709140a6eafd20",
          "topics": [
            "0x50029dfdec1fc4684fff6b60e99fd3972a724662f5b4235e5082c447344ea01f",
            "0x0000000000000000000000005f8d55c3627d2dc0a2b4afa798f877242f382f67",
            "0x000000000000000000000000bea1fedf828261cc79ea68f22f7a0a60107498db"
          ],
          "data": "0x",
          "blockHash": "0x6d86c299430427e928285ac9e99336199cae14d3f40a73aa68908515099a2cbb",
          "blockNumber": "0x5ad714",
          "transactionHash": "0xe99dde9ad5e489258e247afde279c9d46b98a77d89429718958104dbc5241a17",
          "transactionIndex": "0x7",
          "logIndex": "0x6",
          "removed": false
        }
      ],
      "logsBloom": "0x02100000000000000000000000000000000000000020000000000000000000000000000000000000000000000000000000000000000000000000000000000000000000000000000000000000000000000000000000000000000000000000000000000000000000400000000000000000000000000000000000100000000000000000000000008000000000000000000000000000000000000000000000000000000200000200000000000000002000000000000000000010000000000000000000000000000000000000000000000000000000000000000000000000000001000000000000000000000020000000000000000000000000000000000000000000",
      "type": "0x2",
      "transactionHash": "0xe99dde9ad5e489258e247afde279c9d46b98a77d89429718958104dbc5241a17",
      "transactionIndex": "0x7",
      "blockHash": "0x6d86c299430427e928285ac9e99336199cae14d3f40a73aa68908515099a2cbb",
      "blockNumber": "0x5ad714",
      "gasUsed": "0x8e85",
      "effectiveGasPrice": "0x5d21dba01",
      "from": "0x56fd3f2bee130e9867942d0f463a16fbe49b8d81",
      "to": "0xfaa7ca2b056e60f6733ae75aa0709140a6eafd20",
      "contractAddress": null,
      "l1BaseFeeScalar": "0x0",
      "l1BlobBaseFee": "0x13",
      "l1BlobBaseFeeScalar": "0x0",
      "l1Fee": "0x0",
      "l1GasPrice": "0xb9",
      "l1GasUsed": "0x640"
    },
    {
      "status": "0x1",
      "cumulativeGasUsed": "0x52808",
      "logs": [
        {
          "address": "0xfaa7ca2b056e60f6733ae75aa0709140a6eafd20",
          "topics": [
            "0x50029dfdec1fc4684fff6b60e99fd3972a724662f5b4235e5082c447344ea01f",
            "0x0000000000000000000000005e94b8c872bd47bc4255e60ecbf44d5e66e7401c",
            "0x000000000000000000000000663f1d38e2c176ae5a72677e7a36c983321a0595"
          ],
          "data": "0x",
          "blockHash": "0x6d86c299430427e928285ac9e99336199cae14d3f40a73aa68908515099a2cbb",
          "blockNumber": "0x5ad714",
          "transactionHash": "0x4bbe493e53695b6ba9d8674788ea23a4b00b862e572428f3c2e1fa9623727fb4",
          "transactionIndex": "0x8",
          "logIndex": "0x7",
          "removed": false
        }
      ],
      "logsBloom": "0x02100000000000000000000000000020000000000020000000000000000000000000000000000000000000000000000000000000000000000000000000000000000000000000000000000000000000000000000000000000000000000000000000000000000000000000100000000010000000000000000000100000000000000000000000000000000000000000000000000000000000000000000000000000000200000000000000000004002000000000000000000000000000000000000000000000000000000000000000000000000000000010000000000000000800000000000000000000000000000000000000000000000000000000000000000000",
      "type": "0x2",
      "transactionHash": "0x4bbe493e53695b6ba9d8674788ea23a4b00b862e572428f3c2e1fa9623727fb4",
      "transactionIndex": "0x8",
      "blockHash": "0x6d86c299430427e928285ac9e99336199cae14d3f40a73aa68908515099a2cbb",
      "blockNumber": "0x5ad714",
      "gasUsed": "0x8e85",
      "effectiveGasPrice": "0x5d21dba01",
      "from": "0x56fd3f2bee130e9867942d0f463a16fbe49b8d81",
      "to": "0xfaa7ca2b056e60f6733ae75aa0709140a6eafd20",
      "contractAddress": null,
      "l1BaseFeeScalar": "0x0",
      "l1BlobBaseFee": "0x13",
      "l1BlobBaseFeeScalar": "0x0",
      "l1Fee": "0x0",
      "l1GasPrice": "0xb9",
      "l1GasUsed": "0x640"
    },
    {
      "status": "0x1",
      "cumulativeGasUsed": "0x5b68d",
      "logs": [
        {
          "address": "0xfaa7ca2b056e60f6733ae75aa0709140a6eafd20",
          "topics": [
            "0x50029dfdec1fc4684fff6b60e99fd3972a724662f5b4235e5082c447344ea01f",
            "0x00000000000000000000000085f5181abdbf0e1814fc4358582ae07b8eba3af3",
            "0x00000000000000000000000057d8b6da3057ce2a40f9501f9891bb7388048d98"
          ],
          "data": "0x",
          "blockHash": "0x6d86c299430427e928285ac9e99336199cae14d3f40a73aa68908515099a2cbb",
          "blockNumber": "0x5ad714",
          "transactionHash": "0x03b38d77a1ff8ff2c0a28dbd7736d6e31f5a1cc8cd02e4310d9df95ed48c524d",
          "transactionIndex": "0x9",
          "logIndex": "0x8",
          "removed": false
        }
      ],
      "logsBloom": "0x02100000000000000000000000400000000000000020000000000000000000000000000000000000008000000000000000000000000000000000000000000000000002000000000000000000000000000000000000200000000000000000000000000000000000000000000000080000000000000000000000100000000020000000000000000000000000000000000000000000000000000000000000000000000200000000000000000000002000000000000000000000000000000000000000000000000000000000000000000000000000000000000000000000000000000000000000000000000000000000000000000000000000000000000000000000",
      "type": "0x2",
      "transactionHash": "0x03b38d77a1ff8ff2c0a28dbd7736d6e31f5a1cc8cd02e4310d9df95ed48c524d",
      "transactionIndex": "0x9",
      "blockHash": "0x6d86c299430427e928285ac9e99336199cae14d3f40a73aa68908515099a2cbb",
      "blockNumber": "0x5ad714",
      "gasUsed": "0x8e85",
      "effectiveGasPrice": "0x5d21dba01",
      "from": "0x56fd3f2bee130e9867942d0f463a16fbe49b8d81",
      "to": "0xfaa7ca2b056e60f6733ae75aa0709140a6eafd20",
      "contractAddress": null,
      "l1BaseFeeScalar": "0x0",
      "l1BlobBaseFee": "0x13",
      "l1BlobBaseFeeScalar": "0x0",
      "l1Fee": "0x0",
      "l1GasPrice": "0xb9",
      "l1GasUsed": "0x640"
    },
    {
      "status": "0x1",
      "cumulativeGasUsed": "0x64512",
      "logs": [
        {
          "address": "0xfaa7ca2b056e60f6733ae75aa0709140a6eafd20",
          "topics": [
            "0x50029dfdec1fc4684fff6b60e99fd3972a724662f5b4235e5082c447344ea01f",
            "0x00000000000000000000000010ccfb235b0e1ed394bace4560c3ed016697687e",
            "0x000000000000000000000000bcd7aa5683ac7fa0cf2f5f4733ab47a8e7957b99"
          ],
          "data": "0x",
          "blockHash": "0x6d86c299430427e928285ac9e99336199cae14d3f40a73aa68908515099a2cbb",
          "blockNumber": "0x5ad714",
          "transactionHash": "0xc8c033d6ac4ae2e19e3753b6d3468b6b18334be78cab66380d15572e72682360",
          "transactionIndex": "0xa",
          "logIndex": "0x9",
          "removed": false
        }
      ],
      "logsBloom": "0x02100000000000000000000000000000000000000020000000000000000000000000000000000000000000000000000000000000000020000000000000000000000000000000000000000000000000000000000000000000000000000000000000000000000000000000000000000000000000000000000000100000000000000000002000000000000000000000080000000000000000000000000000000000000200000000000000000100002000000000000000000000000000000000000000000000000010000000000000000000000000000000000000000000000000000000000000000000000000000000000000000000000000000800000000000000",
      "type": "0x2",
      "transactionHash": "0xc8c033d6ac4ae2e19e3753b6d3468b6b18334be78cab66380d15572e72682360",
      "transactionIndex": "0xa",
      "blockHash": "0x6d86c299430427e928285ac9e99336199cae14d3f40a73aa68908515099a2cbb",
      "blockNumber": "0x5ad714",
      "gasUsed": "0x8e85",
      "effectiveGasPrice": "0x5d21dba01",
      "from": "0x56fd3f2bee130e9867942d0f463a16fbe49b8d81",
      "to": "0xfaa7ca2b056e60f6733ae75aa0709140a6eafd20",
      "contractAddress": null,
      "l1BaseFeeScalar": "0x0",
      "l1BlobBaseFee": "0x13",
      "l1BlobBaseFeeScalar": "0x0",
      "l1Fee": "0x0",
      "l1GasPrice": "0xb9",
      "l1GasUsed": "0x640"
    },
    {
      "status": "0x1",
      "cumulativeGasUsed": "0x6d397",
      "logs": [
        {
          "address": "0xfaa7ca2b056e60f6733ae75aa0709140a6eafd20",
          "topics": [
            "0x50029dfdec1fc4684fff6b60e99fd3972a724662f5b4235e5082c447344ea01f",
            "0x000000000000000000000000f151c9a13b78c84f93f50b8b3bc689fedc134f60",
            "0x0000000000000000000000000e51743cced754f4e718945e524faf21bb53902c"
          ],
          "data": "0x",
          "blockHash": "0x6d86c299430427e928285ac9e99336199cae14d3f40a73aa68908515099a2cbb",
          "blockNumber": "0x5ad714",
          "transactionHash": "0xd663ab4b84365ec359a0b5dd6b8a19b2d7fafe0b91f73705e074aa0de844fbf0",
          "transactionIndex": "0xb",
          "logIndex": "0xa",
          "removed": false
        }
      ],
      "logsBloom": "0x0a100000000000000000000000000000000000000020000000000000000000000000000000000000000000000000000000000000000000000000000000000000000000000000000000000000000000000000000000000000000000000000000000000000200000000000000000000000000000000000000000100000000000000000000000000000000000000000000000000000000000000000000000000000000200000000000000000000002000000000000000000000000000000800040000000000000000000000000000000000000002000000000000000000000000000000000000000020000000000000000000000000000000000000000000000000",
      "type": "0x2",
      "transactionHash": "0xd663ab4b84365ec359a0b5dd6b8a19b2d7fafe0b91f73705e074aa0de844fbf0",
      "transactionIndex": "0xb",
      "blockHash": "0x6d86c299430427e928285ac9e99336199cae14d3f40a73aa68908515099a2cbb",
      "blockNumber": "0x5ad714",
      "gasUsed": "0x8e85",
      "effectiveGasPrice": "0x5d21dba01",
      "from": "0x56fd3f2bee130e9867942d0f463a16fbe49b8d81",
      "to": "0xfaa7ca2b056e60f6733ae75aa0709140a6eafd20",
      "contractAddress": null,
      "l1BaseFeeScalar": "0x0",
      "l1BlobBaseFee": "0x13",
      "l1BlobBaseFeeScalar": "0x0",
      "l1Fee": "0x0",
      "l1GasPrice": "0xb9",
      "l1GasUsed": "0x640"
    },
    {
      "status": "0x1",
      "cumulativeGasUsed": "0x7621c",
      "logs": [
        {
          "address": "0xfaa7ca2b056e60f6733ae75aa0709140a6eafd20",
          "topics": [
            "0x50029dfdec1fc4684fff6b60e99fd3972a724662f5b4235e5082c447344ea01f",
            "0x0000000000000000000000005873faeb42f3563dcd77f0fbbda818e6d6da3139",
            "0x00000000000000000000000013e0145ce3ec72b50b2f5b3e8faced719941976d"
          ],
          "data": "0x",
          "blockHash": "0x6d86c299430427e928285ac9e99336199cae14d3f40a73aa68908515099a2cbb",
          "blockNumber": "0x5ad714",
          "transactionHash": "0x6e8e2058fff6b752f5dd9200a123b0b4b7fd47411be0329bd6f3a37490a69f74",
          "transactionIndex": "0xc",
          "logIndex": "0xb",
          "removed": false
        }
      ],
      "logsBloom": "0x02100000000080000000000000000000000000000028000000000000000000000000000000000000000000000000000000000000000000000000000000000000000000000000000000000000000000000000000000000000000000000000000000000000000000000000200000000000000000000000000000100000000000000000000000000000000000000000000000000000000000000000000000000000000200000000000000000000002000000000000080000000800000000000000000000000000000000000000008000000000000000000000000000000000000000000000000000000000000000000000000000000000000000000000000000000",
      "type": "0x2",
      "transactionHash": "0x6e8e2058fff6b752f5dd9200a123b0b4b7fd47411be0329bd6f3a37490a69f74",
      "transactionIndex": "0xc",
      "blockHash": "0x6d86c299430427e928285ac9e99336199cae14d3f40a73aa68908515099a2cbb",
      "blockNumber": "0x5ad714",
      "gasUsed": "0x8e85",
      "effectiveGasPrice": "0x5d21dba01",
      "from": "0x56fd3f2bee130e9867942d0f463a16fbe49b8d81",
      "to": "0xfaa7ca2b056e60f6733ae75aa0709140a6eafd20",
      "contractAddress": null,
      "l1BaseFeeScalar": "0x0",
      "l1BlobBaseFee": "0x13",
      "l1BlobBaseFeeScalar": "0x0",
      "l1Fee": "0x0",
      "l1GasPrice": "0xb9",
      "l1GasUsed": "0x640"
    },
    {
      "status": "0x1",
      "cumulativeGasUsed": "0x7f0a1",
      "logs": [
        {
          "address": "0xfaa7ca2b056e60f6733ae75aa0709140a6eafd20",
          "topics": [
            "0x50029dfdec1fc4684fff6b60e99fd3972a724662f5b4235e5082c447344ea01f",
            "0x000000000000000000000000284e9b7b623eae866914b7fa0eb720c2bb3c2980",
            "0x000000000000000000000000b2c0010688bc18e10bea9c68d83309aab686515a"
          ],
          "data": "0x",
          "blockHash": "0x6d86c299430427e928285ac9e99336199cae14d3f40a73aa68908515099a2cbb",
          "blockNumber": "0x5ad714",
          "transactionHash": "0xd358f74fc30e8400922c4425cb32b7f5881b562d8bc2519db992dd6b9c4e29bd",
          "transactionIndex": "0xd",
          "logIndex": "0xc",
          "removed": false
        }
      ],
      "logsBloom": "0x02100020000000000000000001000000000000000020000000000000000000000000000000000000000000000000000000000000000000000000000000000000000000000000000000000000000000000000000000000000000000000000000000000000000000000000000000000000000000000000000000100000004000000000080000000000000000040000000000000000000000000000000000000000000200000000000000000000002000000000000000000000000000000000000000004000000000000000000000000000000000000000000000000000000000000000000000000000000000000000000000000000000000000000000000000000",
      "type": "0x2",
      "transactionHash": "0xd358f74fc30e8400922c4425cb32b7f5881b562d8bc2519db992dd6b9c4e29bd",
      "transactionIndex": "0xd",
      "blockHash": "0x6d86c299430427e928285ac9e99336199cae14d3f40a73aa68908515099a2cbb",
      "blockNumber": "0x5ad714",
      "gasUsed": "0x8e85",
      "effectiveGasPrice": "0x5d21dba01",
      "from": "0x56fd3f2bee130e9867942d0f463a16fbe49b8d81",
      "to": "0xfaa7ca2b056e60f6733ae75aa0709140a6eafd20",
      "contractAddress": null,
      "l1BaseFeeScalar": "0x0",
      "l1BlobBaseFee": "0x13",
      "l1BlobBaseFeeScalar": "0x0",
      "l1Fee": "0x0",
      "l1GasPrice": "0xb9",
      "l1GasUsed": "0x640"
    },
    {
      "status": "0x1",
      "cumulativeGasUsed": "0x87f26",
      "logs": [
        {
          "address": "0xfaa7ca2b056e60f6733ae75aa0709140a6eafd20",
          "topics": [
            "0x50029dfdec1fc4684fff6b60e99fd3972a724662f5b4235e5082c447344ea01f",
            "0x00000000000000000000000085bee67d435a39f7467a8a9de34a5b73d25df426",
            "0x000000000000000000000000b6478f290a87661189c2716f55b04e7136873a0d"
          ],
          "data": "0x",
          "blockHash": "0x6d86c299430427e928285ac9e99336199cae14d3f40a73aa68908515099a2cbb",
          "blockNumber": "0x5ad714",
          "transactionHash": "0x23459012493fccb7037d0c8faddb8dc93ae04e31e554f045dd565e1c262f30db",
          "transactionIndex": "0xe",
          "logIndex": "0xd",
          "removed": false
        }
      ],
      "logsBloom": "0x02100000000000000002000000000000000000000020000000000000000000000000000000000000000000000000000000000000000000000000000000000000000000000000000000000000000000000000000000000000000000000000000000000000000000000000000000000000000000000000000004100004000000000000000000000000000000000000000000000000000000000000000000000000000200000000000000000000006000000000000000000000000000000000000000000000000000000000000000000000000000000000000000000000000001000000000000000000000000000000000000000000000000000000200000000000",
      "type": "0x2",
      "transactionHash": "0x23459012493fccb7037d0c8faddb8dc93ae04e31e554f045dd565e1c262f30db",
      "transactionIndex": "0xe",
      "blockHash": "0x6d86c299430427e928285ac9e99336199cae14d3f40a73aa68908515099a2cbb",
      "blockNumber": "0x5ad714",
      "gasUsed": "0x8e85",
      "effectiveGasPrice": "0x5d21dba01",
      "from": "0x56fd3f2bee130e9867942d0f463a16fbe49b8d81",
      "to": "0xfaa7ca2b056e60f6733ae75aa0709140a6eafd20",
      "contractAddress": null,
      "l1BaseFeeScalar": "0x0",
      "l1BlobBaseFee": "0x13",
      "l1BlobBaseFeeScalar": "0x0",
      "l1Fee": "0x0",
      "l1GasPrice": "0xb9",
      "l1GasUsed": "0x640"
    },
    {
      "status": "0x1",
      "cumulativeGasUsed": "0x90dab",
      "logs": [
        {
          "address": "0xfaa7ca2b056e60f6733ae75aa0709140a6eafd20",
          "topics": [
            "0x50029dfdec1fc4684fff6b60e99fd3972a724662f5b4235e5082c447344ea01f",
            "0x0000000000000000000000003d5ae86f34e2a82771496d140dafaef3789df888",
            "0x000000000000000000000000afd7efa9660a7776a3dda30127906cadfe21b0fb"
          ],
          "data": "0x",
          "blockHash": "0x6d86c299430427e928285ac9e99336199cae14d3f40a73aa68908515099a2cbb",
          "blockNumber": "0x5ad714",
          "transactionHash": "0xd815934cc3c64cf485fa1e66ab3a7eda5907d66975b62a6e6333d44bf84e8b47",
          "transactionIndex": "0xf",
          "logIndex": "0xe",
          "removed": false
        }
      ],
      "logsBloom": "0x02100000000000000000000000000000000000000020000000000000000000000000000000000000000000000000000000000000000000000000000000000004000000000000000000000000000000000000000000000000000000000000000000000000000000000000000000000000000008000000000000100000000000000000000000000000000000000000000000200000000000000000000000002000000200000000000000000000002000000000000000000000000000000000000000000000000000000000000000000000000000000000000000000000000000000000000000000000000000000000000080000000000000000000000000200000",
      "type": "0x2",
      "transactionHash": "0xd815934cc3c64cf485fa1e66ab3a7eda5907d66975b62a6e6333d44bf84e8b47",
      "transactionIndex": "0xf",
      "blockHash": "0x6d86c299430427e928285ac9e99336199cae14d3f40a73aa68908515099a2cbb",
      "blockNumber": "0x5ad714",
      "gasUsed": "0x8e85",
      "effectiveGasPrice": "0x5d21dba01",
      "from": "0x56fd3f2bee130e9867942d0f463a16fbe49b8d81",
      "to": "0xfaa7ca2b056e60f6733ae75aa0709140a6eafd20",
      "contractAddress": null,
      "l1BaseFeeScalar": "0x0",
      "l1BlobBaseFee": "0x13",
      "l1BlobBaseFeeScalar": "0x0",
      "l1Fee": "0x0",
      "l1GasPrice": "0xb9",
      "l1GasUsed": "0x640"
    }
  ],
  "libraries": [
    "node_modules/@celo/contracts/common/linkedlists/AddressSortedLinkedListWithMedian.sol:AddressSortedLinkedListWithMedian:0xf90B816Ea07eC3c6384656cd5B3249DA8fc3df6F"
  ],
  "pending": [],
  "returns": {},
  "timestamp": 1759237289498,
  "chain": 11142220,
  "commit": "6256d09"
}