{
  "transactions": [
    {
      "hash": "0x0f2fe1b82783e36d82c888c3c0d1f69162a72dea96060cfe1c21476bf03f4ec0",
      "transactionType": "CALL",
      "contractName": null,
      "contractAddress": "0x712959a392488f3eae92c7d2d66517fc3ec829d0",
      "function": "report(int256,uint256)",
      "arguments": [
        "99989000",
        "1756988990"
      ],
      "transaction": {
        "from": "0x56fd3f2bee130e9867942d0f463a16fbe49b8d81",
        "to": "0x712959a392488f3eae92c7d2d66517fc3ec829d0",
        "gas": "0xb6a5",
        "value": "0x0",
        "input": "0x0f3d249d0000000000000000000000000000000000000000000000000000000005f5b6080000000000000000000000000000000000000000000000000000000068b9863e",
        "nonce": "0x30f",
        "chainId": "0xaa044c"
      },
      "additionalContracts": [],
      "isFixedGasLimit": false
    },
    {
      "hash": "0x8a1a6008fe5bde4e434f5e026af663bb8fe52519c33a2ae935a72c44fa7acce2",
      "transactionType": "CALL",
      "contractName": null,
      "contractAddress": "0xb130563ad59b4367de850eb71b6839eade134b05",
      "function": "report(int256,uint256)",
      "arguments": [
        "100028000",
        "1756989167"
      ],
      "transaction": {
        "from": "0x56fd3f2bee130e9867942d0f463a16fbe49b8d81",
        "to": "0xb130563ad59b4367de850eb71b6839eade134b05",
        "gas": "0xb6a5",
        "value": "0x0",
        "input": "0x0f3d249d0000000000000000000000000000000000000000000000000000000005f64e600000000000000000000000000000000000000000000000000000000068b986ef",
        "nonce": "0x310",
        "chainId": "0xaa044c"
      },
      "additionalContracts": [],
      "isFixedGasLimit": false
    },
    {
      "hash": "0x95632325a28a05e31584d4732ece1fd8e25b04c81d4b6409aa619add2c49b92d",
      "transactionType": "CALL",
      "contractName": null,
      "contractAddress": "0xa0a403b75580072a8e486f82253a407ba9bae0cb",
      "function": "report(int256,uint256)",
      "arguments": [
        "116492539",
        "1756989042"
      ],
      "transaction": {
        "from": "0x56fd3f2bee130e9867942d0f463a16fbe49b8d81",
        "to": "0xa0a403b75580072a8e486f82253a407ba9bae0cb",
        "gas": "0xb6a5",
        "value": "0x0",
        "input": "0x0f3d249d0000000000000000000000000000000000000000000000000000000006f188fb0000000000000000000000000000000000000000000000000000000068b98672",
        "nonce": "0x311",
        "chainId": "0xaa044c"
      },
      "additionalContracts": [],
      "isFixedGasLimit": false
    },
    {
      "hash": "0x6c36ad017a4ec3d160719d6564e341522d129f80a3e459d932c30cd26f702e91",
      "transactionType": "CALL",
      "contractName": null,
      "contractAddress": "0x5995fb71215c9ea02753092aacf47885bfa1a988",
      "function": "report(int256,uint256)",
      "arguments": [
        "29281408",
        "1756989005"
      ],
      "transaction": {
        "from": "0x56fd3f2bee130e9867942d0f463a16fbe49b8d81",
        "to": "0x5995fb71215c9ea02753092aacf47885bfa1a988",
        "gas": "0xb6a5",
        "value": "0x0",
        "input": "0x0f3d249d0000000000000000000000000000000000000000000000000000000001becc800000000000000000000000000000000000000000000000000000000068b9864d",
        "nonce": "0x312",
        "chainId": "0xaa044c"
      },
      "additionalContracts": [],
      "isFixedGasLimit": false
    },
    {
      "hash": "0x016057c5d229db2868f28829000118717e656516180b953857b3bca0604f7522",
      "transactionType": "CALL",
      "contractName": null,
      "contractAddress": "0x44a7e7d4de5a4d6f5db9d174943214b926fd07d1",
      "function": "report(int256,uint256)",
      "arguments": [
        "116492539",
        "1756989042"
      ],
      "transaction": {
        "from": "0x56fd3f2bee130e9867942d0f463a16fbe49b8d81",
        "to": "0x44a7e7d4de5a4d6f5db9d174943214b926fd07d1",
        "gas": "0xb6a5",
        "value": "0x0",
        "input": "0x0f3d249d0000000000000000000000000000000000000000000000000000000006f188fb0000000000000000000000000000000000000000000000000000000068b98672",
        "nonce": "0x313",
        "chainId": "0xaa044c"
      },
      "additionalContracts": [],
      "isFixedGasLimit": false
    },
    {
      "hash": "0x1d440499b10a1b32bb4c4b1df1633c25031b4f65a1b2672220fd987df18f6611",
      "transactionType": "CALL",
      "contractName": null,
      "contractAddress": "0xe30f631aac9762059c67135095c7d520221a0868",
      "function": "report(int256,uint256)",
      "arguments": [
        "18351654",
        "1756989116"
      ],
      "transaction": {
        "from": "0x56fd3f2bee130e9867942d0f463a16fbe49b8d81",
        "to": "0xe30f631aac9762059c67135095c7d520221a0868",
        "gas": "0xb6a5",
        "value": "0x0",
        "input": "0x0f3d249d00000000000000000000000000000000000000000000000000000000011806260000000000000000000000000000000000000000000000000000000068b986bc",
        "nonce": "0x314",
        "chainId": "0xaa044c"
      },
      "additionalContracts": [],
      "isFixedGasLimit": false
    },
    {
      "hash": "0x21473f44599bb81485a955f0569434b644bdf0f6381af29b5e49106670d7d02b",
      "transactionType": "CALL",
      "contractName": null,
      "contractAddress": "0xf364db584bc3b55df019044de85993c47e1b145a",
      "function": "report(int256,uint256)",
      "arguments": [
        "1776154767021779",
        "1756989129"
      ],
      "transaction": {
        "from": "0x56fd3f2bee130e9867942d0f463a16fbe49b8d81",
        "to": "0xf364db584bc3b55df019044de85993c47e1b145a",
        "gas": "0xa7bc",
        "value": "0x0",
        "input": "0x0f3d249d00000000000000000000000000000000000000000000000000064f6741f456d30000000000000000000000000000000000000000000000000000000068b986c9",
        "nonce": "0x315",
        "chainId": "0xaa044c"
      },
      "additionalContracts": [],
      "isFixedGasLimit": false
    },
    {
      "hash": "0xa4db462645ca42016cf79de64bea600ffad107ec82b1011cdd5719910adbe841",
      "transactionType": "CALL",
      "contractName": null,
      "contractAddress": "0x0d1a55b9a06fe8aa48eb87251fbd959d121ea843",
      "function": "report(int256,uint256)",
      "arguments": [
        "7735148514851485",
        "1756989108"
      ],
      "transaction": {
        "from": "0x56fd3f2bee130e9867942d0f463a16fbe49b8d81",
        "to": "0x0d1a55b9a06fe8aa48eb87251fbd959d121ea843",
        "gas": "0xa7bc",
        "value": "0x0",
        "input": "0x0f3d249d000000000000000000000000000000000000000000000000001b7b139b833a9d0000000000000000000000000000000000000000000000000000000068b986b4",
        "nonce": "0x316",
        "chainId": "0xaa044c"
      },
      "additionalContracts": [],
      "isFixedGasLimit": false
    },
    {
      "hash": "0x3521dcb050d662121d6d3a3b1360a497be20479eada3aa28c4fa3e663bcc6c90",
      "transactionType": "CALL",
      "contractName": null,
      "contractAddress": "0x7a2f69a58f0dae429cc6de1e6fcb6260041c7464",
      "function": "report(int256,uint256)",
      "arguments": [
        "1750920",
        "1756989179"
      ],
      "transaction": {
        "from": "0x56fd3f2bee130e9867942d0f463a16fbe49b8d81",
        "to": "0x7a2f69a58f0dae429cc6de1e6fcb6260041c7464",
        "gas": "0xb695",
        "value": "0x0",
        "input": "0x0f3d249d00000000000000000000000000000000000000000000000000000000001ab7880000000000000000000000000000000000000000000000000000000068b986fb",
        "nonce": "0x317",
        "chainId": "0xaa044c"
      },
      "additionalContracts": [],
      "isFixedGasLimit": false
    },
    {
      "hash": "0x7e48cd62d1b3f26211f3e4e2c4b1df90737ce65e52cb3a509bceb251901c40bc",
      "transactionType": "CALL",
      "contractName": null,
      "contractAddress": "0x97fd9624af571a5291d6b5aa0f7db7de8b5e0398",
      "function": "report(int256,uint256)",
      "arguments": [
        "24975",
        "1756989126"
      ],
      "transaction": {
        "from": "0x56fd3f2bee130e9867942d0f463a16fbe49b8d81",
        "to": "0x97fd9624af571a5291d6b5aa0f7db7de8b5e0398",
        "gas": "0xa769",
        "value": "0x0",
        "input": "0x0f3d249d000000000000000000000000000000000000000000000000000000000000618f0000000000000000000000000000000000000000000000000000000068b986c6",
        "nonce": "0x318",
        "chainId": "0xaa044c"
      },
      "additionalContracts": [],
      "isFixedGasLimit": false
    },
    {
      "hash": "0xeeb8d110320cc6845bf10935954700a74188af0061177303e92412df6adb8d63",
      "transactionType": "CALL",
      "contractName": null,
      "contractAddress": "0x04a1e7bbd987a7f86ca10ea36023884e45e46bd7",
      "function": "report(int256,uint256)",
      "arguments": [
        "8295932",
        "1756989228"
      ],
      "transaction": {
        "from": "0x56fd3f2bee130e9867942d0f463a16fbe49b8d81",
        "to": "0x04a1e7bbd987a7f86ca10ea36023884e45e46bd7",
        "gas": "0xa77a",
        "value": "0x0",
        "input": "0x0f3d249d00000000000000000000000000000000000000000000000000000000007e95fc0000000000000000000000000000000000000000000000000000000068b9872c",
        "nonce": "0x319",
        "chainId": "0xaa044c"
      },
      "additionalContracts": [],
      "isFixedGasLimit": false
    },
    {
      "hash": "0xc153e79d1bf469111d1577362d50de3bd75d663f51fb0dc8521e5b65802120c3",
      "transactionType": "CALL",
      "contractName": null,
      "contractAddress": "0x56029056ccc623115d05473cee7d1aacac830185",
      "function": "report(int256,uint256)",
      "arguments": [
        "134306000",
        "1756989132"
      ],
      "transaction": {
        "from": "0x56fd3f2bee130e9867942d0f463a16fbe49b8d81",
        "to": "0x56029056ccc623115d05473cee7d1aacac830185",
        "gas": "0xb6a5",
        "value": "0x0",
        "input": "0x0f3d249d00000000000000000000000000000000000000000000000000000000080158d00000000000000000000000000000000000000000000000000000000068b986cc",
        "nonce": "0x31a",
        "chainId": "0xaa044c"
      },
      "additionalContracts": [],
      "isFixedGasLimit": false
    },
    {
      "hash": "0x37486364c06fda874e29cc91dc555db240f1107c662ac176291fa0d0348e045d",
      "transactionType": "CALL",
      "contractName": null,
      "contractAddress": "0x1d866336d9c2f1c9737aca853347838e0a9e0559",
      "function": "report(int256,uint256)",
      "arguments": [
        "5625806",
        "1756989055"
      ],
      "transaction": {
        "from": "0x56fd3f2bee130e9867942d0f463a16fbe49b8d81",
        "to": "0x1d866336d9c2f1c9737aca853347838e0a9e0559",
        "gas": "0xb695",
        "value": "0x0",
        "input": "0x0f3d249d000000000000000000000000000000000000000000000000000000000055d7ce0000000000000000000000000000000000000000000000000000000068b9867f",
        "nonce": "0x31b",
        "chainId": "0xaa044c"
      },
      "additionalContracts": [],
      "isFixedGasLimit": false
    },
    {
      "hash": "0x3ebc76746535f3f8b261aa5c0a3247f00d1e029caf241fd1affc28875a469b53",
      "transactionType": "CALL",
      "contractName": null,
      "contractAddress": "0x8c947e599bea1f0469d5e2633a6e030910336d11",
      "function": "report(int256,uint256)",
      "arguments": [
        "72332730",
        "1756989205"
      ],
      "transaction": {
        "from": "0x56fd3f2bee130e9867942d0f463a16fbe49b8d81",
        "to": "0x8c947e599bea1f0469d5e2633a6e030910336d11",
        "gas": "0xb6a5",
        "value": "0x0",
        "input": "0x0f3d249d00000000000000000000000000000000000000000000000000000000044fb5ba0000000000000000000000000000000000000000000000000000000068b98715",
        "nonce": "0x31c",
        "chainId": "0xaa044c"
      },
      "additionalContracts": [],
      "isFixedGasLimit": false
    },
    {
      "hash": "0x7ad8597594ce6f24be310c0b467c8a85cde6c7b5ab5933b12d8aa1c92ecf9051",
      "transactionType": "CALL",
      "contractName": null,
      "contractAddress": "0xdee315fc7023de5a99fbc68a1ca6c0266a897b17",
      "function": "report(int256,uint256)",
      "arguments": [
        "65143000",
        "1756989169"
      ],
      "transaction": {
        "from": "0x56fd3f2bee130e9867942d0f463a16fbe49b8d81",
        "to": "0xdee315fc7023de5a99fbc68a1ca6c0266a897b17",
        "gas": "0xb695",
        "value": "0x0",
        "input": "0x0f3d249d0000000000000000000000000000000000000000000000000000000003e200d80000000000000000000000000000000000000000000000000000000068b986f1",
        "nonce": "0x31d",
        "chainId": "0xaa044c"
      },
      "additionalContracts": [],
      "isFixedGasLimit": false
    },
    {
      "hash": "0x8ca1481d1441804a4756a239ff5518fdf26c2b2bf6cf56ca987aaa8ab720fd6c",
      "transactionType": "CALL",
      "contractName": null,
      "contractAddress": "0x703691155cd4006ed14361023ec35599cfb33a19",
      "function": "report(int256,uint256)",
      "arguments": [
        "124138787",
        "1756989081"
      ],
      "transaction": {
        "from": "0x56fd3f2bee130e9867942d0f463a16fbe49b8d81",
        "to": "0x703691155cd4006ed14361023ec35599cfb33a19",
        "gas": "0xb6a5",
        "value": "0x0",
        "input": "0x0f3d249d00000000000000000000000000000000000000000000000000000000076635230000000000000000000000000000000000000000000000000000000068b98699",
        "nonce": "0x31e",
        "chainId": "0xaa044c"
      },
      "additionalContracts": [],
      "isFixedGasLimit": false
    },
    {
      "hash": "0x8707cf063e72746712a0a89e99c31284cb358c9476ad53ad93210d92b67a7fdf",
      "transactionType": "CALL",
      "contractName": null,
      "contractAddress": "0x8003d6ea2954e8fa12c420e189777b2a7d989653",
      "function": "report(int256,uint256)",
      "arguments": [
        "673886",
        "1756989106"
      ],
      "transaction": {
        "from": "0x56fd3f2bee130e9867942d0f463a16fbe49b8d81",
        "to": "0x8003d6ea2954e8fa12c420e189777b2a7d989653",
        "gas": "0xb695",
        "value": "0x0",
        "input": "0x0f3d249d00000000000000000000000000000000000000000000000000000000000a485e0000000000000000000000000000000000000000000000000000000068b986b2",
        "nonce": "0x31f",
        "chainId": "0xaa044c"
      },
      "additionalContracts": [],
      "isFixedGasLimit": false
    },
    {
      "hash": "0xe354b508e8218d9dfafd76e794692e682f6d670a040b4088368d94488a607eec",
      "transactionType": "CALL",
      "contractName": null,
      "contractAddress": "0x5db4a1e964ce93f994ff56aaf96b39de73f073da",
      "function": "report(int256,uint256)",
      "arguments": [
        "656167979002624",
        "1756989213"
      ],
      "transaction": {
        "from": "0x56fd3f2bee130e9867942d0f463a16fbe49b8d81",
        "to": "0x5db4a1e964ce93f994ff56aaf96b39de73f073da",
        "gas": "0xa7ab",
        "value": "0x0",
        "input": "0x0f3d249d000000000000000000000000000000000000000000000000000254c8034d2b000000000000000000000000000000000000000000000000000000000068b9871d",
        "nonce": "0x320",
        "chainId": "0xaa044c"
      },
      "additionalContracts": [],
      "isFixedGasLimit": false
    },
    {
      "hash": "0xead014f3b405918fe4fba64aaafa8d8cd64d18a01435c983bbf4f49a4cf6a413",
      "transactionType": "CALL",
      "contractName": null,
      "contractAddress": "0x2053c6091491a572bcd8baa96f693ca77df25ccf",
      "function": "relay()",
      "arguments": [],
      "transaction": {
        "from": "0x56fd3f2bee130e9867942d0f463a16fbe49b8d81",
        "to": "0x2053c6091491a572bcd8baa96f693ca77df25ccf",
        "gas": "0x34763",
        "value": "0x0",
        "input": "0xb59589d1",
        "nonce": "0x321",
        "chainId": "0xaa044c"
      },
      "additionalContracts": [],
      "isFixedGasLimit": false
    },
    {
      "hash": "0x4d3bf14fb70ccefed51c5dc19c4093f2d18cba2b755ead1379e92cbd83152fe9",
      "transactionType": "CALL",
      "contractName": null,
      "contractAddress": "0x737285328116fcc9edab850d6fa1583fae1152ce",
      "function": "relay()",
      "arguments": [],
      "transaction": {
        "from": "0x56fd3f2bee130e9867942d0f463a16fbe49b8d81",
        "to": "0x737285328116fcc9edab850d6fa1583fae1152ce",
        "gas": "0x34763",
        "value": "0x0",
        "input": "0xb59589d1",
        "nonce": "0x322",
        "chainId": "0xaa044c"
      },
      "additionalContracts": [],
      "isFixedGasLimit": false
    },
    {
      "hash": "0x91e75dd7366e6aec4bedbb76f0891011d9cdb8ad049a21b551516873159855fa",
      "transactionType": "CALL",
      "contractName": null,
      "contractAddress": "0x411fac2c99957651f9cc93d4852d4346f929c61e",
      "function": "relay()",
      "arguments": [],
      "transaction": {
        "from": "0x56fd3f2bee130e9867942d0f463a16fbe49b8d81",
        "to": "0x411fac2c99957651f9cc93d4852d4346f929c61e",
        "gas": "0x38825",
        "value": "0x0",
        "input": "0xb59589d1",
        "nonce": "0x323",
        "chainId": "0xaa044c"
      },
      "additionalContracts": [],
      "isFixedGasLimit": false
    },
    {
      "hash": "0x1b951fab50e01e69fbcd490938786082ced0945ab2f33049f8364950409636a2",
      "transactionType": "CALL",
      "contractName": null,
      "contractAddress": "0xdbbe66b2ec5f1539c0c79ecf5fab12a94c1c7d7b",
      "function": "relay()",
      "arguments": [],
      "transaction": {
        "from": "0x56fd3f2bee130e9867942d0f463a16fbe49b8d81",
        "to": "0xdbbe66b2ec5f1539c0c79ecf5fab12a94c1c7d7b",
        "gas": "0x34763",
        "value": "0x0",
        "input": "0xb59589d1",
        "nonce": "0x324",
        "chainId": "0xaa044c"
      },
      "additionalContracts": [],
      "isFixedGasLimit": false
    },
    {
      "hash": "0xf6a84879b95d7a951ad004ca826705f6515e17b58f6b3675bc04137cf08d2fca",
      "transactionType": "CALL",
      "contractName": null,
      "contractAddress": "0x3bc0add00a414bc1fe0cfb6bde62e03e01a39059",
      "function": "relay()",
      "arguments": [],
      "transaction": {
        "from": "0x56fd3f2bee130e9867942d0f463a16fbe49b8d81",
        "to": "0x3bc0add00a414bc1fe0cfb6bde62e03e01a39059",
        "gas": "0x34763",
        "value": "0x0",
        "input": "0xb59589d1",
        "nonce": "0x325",
        "chainId": "0xaa044c"
      },
      "additionalContracts": [],
      "isFixedGasLimit": false
    },
    {
      "hash": "0xf9e9da6285ea561e0cd46ead72e8a358d7cac2050b3000e6420acfba1aa1ad98",
      "transactionType": "CALL",
      "contractName": null,
      "contractAddress": "0xf4ed3b0f01cf978a56fcaca96e4537c60542edd5",
      "function": "relay()",
      "arguments": [],
      "transaction": {
        "from": "0x56fd3f2bee130e9867942d0f463a16fbe49b8d81",
        "to": "0xf4ed3b0f01cf978a56fcaca96e4537c60542edd5",
        "gas": "0x34763",
        "value": "0x0",
        "input": "0xb59589d1",
        "nonce": "0x326",
        "chainId": "0xaa044c"
      },
      "additionalContracts": [],
      "isFixedGasLimit": false
    },
    {
      "hash": "0x45b274995a68f5e75062bf0135e5a1a394a1ce352cebf4942986551fcca40a59",
      "transactionType": "CALL",
      "contractName": null,
      "contractAddress": "0xf764861a23096bf289232300b51f202dd902e04d",
      "function": "relay()",
      "arguments": [],
      "transaction": {
        "from": "0x56fd3f2bee130e9867942d0f463a16fbe49b8d81",
        "to": "0xf764861a23096bf289232300b51f202dd902e04d",
        "gas": "0x35f4a",
        "value": "0x0",
        "input": "0xb59589d1",
        "nonce": "0x327",
        "chainId": "0xaa044c"
      },
      "additionalContracts": [],
      "isFixedGasLimit": false
    },
    {
      "hash": "0x623848666290e305930af74dd35170b47619cd9c4a1ea503ca3284e86c3660aa",
      "transactionType": "CALL",
      "contractName": null,
      "contractAddress": "0xcc08331daa33ca9a97f3feb2b73d9f393eb921c1",
      "function": "relay()",
      "arguments": [],
      "transaction": {
        "from": "0x56fd3f2bee130e9867942d0f463a16fbe49b8d81",
        "to": "0xcc08331daa33ca9a97f3feb2b73d9f393eb921c1",
        "gas": "0x35f4a",
        "value": "0x0",
        "input": "0xb59589d1",
        "nonce": "0x328",
        "chainId": "0xaa044c"
      },
      "additionalContracts": [],
      "isFixedGasLimit": false
    },
    {
      "hash": "0xb485a0cb1b78a1340c4243099be704d52338860e0614eb13a9324993fb8eeeae",
      "transactionType": "CALL",
      "contractName": null,
      "contractAddress": "0x8b74bca4c87207380292f0844b1c0abe2ef60c54",
      "function": "relay()",
      "arguments": [],
      "transaction": {
        "from": "0x56fd3f2bee130e9867942d0f463a16fbe49b8d81",
        "to": "0x8b74bca4c87207380292f0844b1c0abe2ef60c54",
        "gas": "0x34763",
        "value": "0x0",
        "input": "0xb59589d1",
        "nonce": "0x329",
        "chainId": "0xaa044c"
      },
      "additionalContracts": [],
      "isFixedGasLimit": false
    },
    {
      "hash": "0x788da894bc308d97c81629dbc0e9d0518786b58aa34dc0871d452768b07c175f",
      "transactionType": "CALL",
      "contractName": null,
      "contractAddress": "0xa5f0ce0cd80e203161709a18378f2c850b64cc56",
      "function": "relay()",
      "arguments": [],
      "transaction": {
        "from": "0x56fd3f2bee130e9867942d0f463a16fbe49b8d81",
        "to": "0xa5f0ce0cd80e203161709a18378f2c850b64cc56",
        "gas": "0x3306c",
        "value": "0x0",
        "input": "0xb59589d1",
        "nonce": "0x32a",
        "chainId": "0xaa044c"
      },
      "additionalContracts": [],
      "isFixedGasLimit": false
    },
    {
      "hash": "0x7a4b9dfe767b4e9c9b207ba124a5bc891b498a6f57f95ac0286eae6199f88d2f",
      "transactionType": "CALL",
      "contractName": null,
      "contractAddress": "0x01f9629fb13ec2f902cc27f521e5b29e880173b4",
      "function": "relay()",
      "arguments": [],
      "transaction": {
        "from": "0x56fd3f2bee130e9867942d0f463a16fbe49b8d81",
        "to": "0x01f9629fb13ec2f902cc27f521e5b29e880173b4",
        "gas": "0x3306c",
        "value": "0x0",
        "input": "0xb59589d1",
        "nonce": "0x32b",
        "chainId": "0xaa044c"
      },
      "additionalContracts": [],
      "isFixedGasLimit": false
    },
    {
      "hash": "0x80257b29538edac3dd6020fe7f9374753387c13cfce9f498da48d1d50ac4a22d",
      "transactionType": "CALL",
      "contractName": null,
      "contractAddress": "0xbea02da2fef22ad1b47d204e592a63c77bd44944",
      "function": "relay()",
      "arguments": [],
      "transaction": {
        "from": "0x56fd3f2bee130e9867942d0f463a16fbe49b8d81",
        "to": "0xbea02da2fef22ad1b47d204e592a63c77bd44944",
        "gas": "0x34763",
        "value": "0x0",
        "input": "0xb59589d1",
        "nonce": "0x32c",
        "chainId": "0xaa044c"
      },
      "additionalContracts": [],
      "isFixedGasLimit": false
    },
    {
      "hash": "0x93647342d4946c45dba1fee6618b5a6f3452f53b90c49e5b42b40f74d61db8c6",
      "transactionType": "CALL",
      "contractName": null,
      "contractAddress": "0x5dfa86d3660a63aaf274e70bf89c9087615a65c3",
      "function": "relay()",
      "arguments": [],
      "transaction": {
        "from": "0x56fd3f2bee130e9867942d0f463a16fbe49b8d81",
        "to": "0x5dfa86d3660a63aaf274e70bf89c9087615a65c3",
        "gas": "0x34763",
        "value": "0x0",
        "input": "0xb59589d1",
        "nonce": "0x32d",
        "chainId": "0xaa044c"
      },
      "additionalContracts": [],
      "isFixedGasLimit": false
    },
    {
      "hash": "0x1edca6cde5d2be25319b71760037362c121205b79c2244d874b4a001bf00482a",
      "transactionType": "CALL",
      "contractName": null,
      "contractAddress": "0x41cee890564872045e770ed522e3d2bf5ff1acfd",
      "function": "relay()",
      "arguments": [],
      "transaction": {
        "from": "0x56fd3f2bee130e9867942d0f463a16fbe49b8d81",
        "to": "0x41cee890564872045e770ed522e3d2bf5ff1acfd",
        "gas": "0x34763",
        "value": "0x0",
        "input": "0xb59589d1",
        "nonce": "0x32e",
        "chainId": "0xaa044c"
      },
      "additionalContracts": [],
      "isFixedGasLimit": false
    },
    {
      "hash": "0x8f8f388a996335b7eca5a98e9adc72a84d765936eeea46081b2a7b3442771b55",
      "transactionType": "CALL",
      "contractName": null,
      "contractAddress": "0x39e6ed41f651624c90778c0f785c283a124bb52a",
      "function": "relay()",
      "arguments": [],
      "transaction": {
        "from": "0x56fd3f2bee130e9867942d0f463a16fbe49b8d81",
        "to": "0x39e6ed41f651624c90778c0f785c283a124bb52a",
        "gas": "0x34763",
        "value": "0x0",
        "input": "0xb59589d1",
        "nonce": "0x32f",
        "chainId": "0xaa044c"
      },
      "additionalContracts": [],
      "isFixedGasLimit": false
    },
    {
      "hash": "0xa54527b2f0723c4867e4ad0fb42e14734783781725dfd9997eb330a345f4ae79",
      "transactionType": "CALL",
      "contractName": null,
      "contractAddress": "0x5eb3f5b9d4315cda410c98be788a14e0df320fb8",
      "function": "relay()",
      "arguments": [],
      "transaction": {
        "from": "0x56fd3f2bee130e9867942d0f463a16fbe49b8d81",
        "to": "0x5eb3f5b9d4315cda410c98be788a14e0df320fb8",
        "gas": "0x34763",
        "value": "0x0",
        "input": "0xb59589d1",
        "nonce": "0x330",
        "chainId": "0xaa044c"
      },
      "additionalContracts": [],
      "isFixedGasLimit": false
    },
    {
      "hash": "0x9953130e412b0f75e21d32479a7ce82172efde7b6d0fdac3f5fa822e9f6ad887",
      "transactionType": "CALL",
      "contractName": null,
      "contractAddress": "0x5335bd8ad99c14be976f2c1eac64c3365315d88e",
      "function": "relay()",
      "arguments": [],
      "transaction": {
        "from": "0x56fd3f2bee130e9867942d0f463a16fbe49b8d81",
        "to": "0x5335bd8ad99c14be976f2c1eac64c3365315d88e",
        "gas": "0x34763",
        "value": "0x0",
        "input": "0xb59589d1",
        "nonce": "0x331",
        "chainId": "0xaa044c"
      },
      "additionalContracts": [],
      "isFixedGasLimit": false
    },
    {
      "hash": "0x35e02959be8482a8345d42e69bfd1c1f680943f5a128385c127867f3a3ff6bdd",
      "transactionType": "CALL",
      "contractName": null,
      "contractAddress": "0x8700b6031a3c31edbf9a37426ea6a904303d2230",
      "function": "relay()",
      "arguments": [],
      "transaction": {
        "from": "0x56fd3f2bee130e9867942d0f463a16fbe49b8d81",
        "to": "0x8700b6031a3c31edbf9a37426ea6a904303d2230",
        "gas": "0x35f4a",
        "value": "0x0",
        "input": "0xb59589d1",
        "nonce": "0x332",
        "chainId": "0xaa044c"
      },
      "additionalContracts": [],
      "isFixedGasLimit": false
    }
  ],
  "receipts": [
    {
      "status": "0x1",
      "cumulativeGasUsed": "0x13840",
      "logs": [],
      "logsBloom": "0x00000000000000000000000000000000000000000000000000000000000000000000000000000000000000000000000000000000000000000000000000000000000000000000000000000000000000000000000000000000000000000000000000000000000000000000000000000000000000000000000000000000000000000000000000000000000000000000000000000000000000000000000000000000000000000000000000000000000000000000000000000000000000000000000000000000000000000000000000000000000000000000000000000000000000000000000000000000000000000000000000000000000000000000000000000000",
      "type": "0x2",
      "transactionHash": "0x0f2fe1b82783e36d82c888c3c0d1f69162a72dea96060cfe1c21476bf03f4ec0",
      "transactionIndex": "0x1",
      "blockHash": "0x1330211da89d9d8754fd3b238762af6ea858ee79110d4858f38079fd083b8a48",
      "blockNumber": "0x388a6c",
      "gasUsed": "0x843c",
      "effectiveGasPrice": "0x5d21dba01",
      "from": "0x56fd3f2bee130e9867942d0f463a16fbe49b8d81",
      "to": "0x712959a392488f3eae92c7d2d66517fc3ec829d0",
      "contractAddress": null,
      "l1BaseFeeScalar": "0x0",
      "l1BlobBaseFee": "0x1",
      "l1BlobBaseFeeScalar": "0x0",
      "l1Fee": "0x0",
      "l1GasPrice": "0x8455ee",
      "l1GasUsed": "0x640"
    },
    {
      "status": "0x1",
      "cumulativeGasUsed": "0x1bc7c",
      "logs": [],
      "logsBloom": "0x00000000000000000000000000000000000000000000000000000000000000000000000000000000000000000000000000000000000000000000000000000000000000000000000000000000000000000000000000000000000000000000000000000000000000000000000000000000000000000000000000000000000000000000000000000000000000000000000000000000000000000000000000000000000000000000000000000000000000000000000000000000000000000000000000000000000000000000000000000000000000000000000000000000000000000000000000000000000000000000000000000000000000000000000000000000",
      "type": "0x2",
      "transactionHash": "0x8a1a6008fe5bde4e434f5e026af663bb8fe52519c33a2ae935a72c44fa7acce2",
      "transactionIndex": "0x2",
      "blockHash": "0x1330211da89d9d8754fd3b238762af6ea858ee79110d4858f38079fd083b8a48",
      "blockNumber": "0x388a6c",
      "gasUsed": "0x843c",
      "effectiveGasPrice": "0x5d21dba01",
      "from": "0x56fd3f2bee130e9867942d0f463a16fbe49b8d81",
      "to": "0xb130563ad59b4367de850eb71b6839eade134b05",
      "contractAddress": null,
      "l1BaseFeeScalar": "0x0",
      "l1BlobBaseFee": "0x1",
      "l1BlobBaseFeeScalar": "0x0",
      "l1Fee": "0x0",
      "l1GasPrice": "0x8455ee",
      "l1GasUsed": "0x640"
    },
    {
      "status": "0x1",
      "cumulativeGasUsed": "0x240b8",
      "logs": [],
      "logsBloom": "0x00000000000000000000000000000000000000000000000000000000000000000000000000000000000000000000000000000000000000000000000000000000000000000000000000000000000000000000000000000000000000000000000000000000000000000000000000000000000000000000000000000000000000000000000000000000000000000000000000000000000000000000000000000000000000000000000000000000000000000000000000000000000000000000000000000000000000000000000000000000000000000000000000000000000000000000000000000000000000000000000000000000000000000000000000000000",
      "type": "0x2",
      "transactionHash": "0x95632325a28a05e31584d4732ece1fd8e25b04c81d4b6409aa619add2c49b92d",
      "transactionIndex": "0x3",
      "blockHash": "0x1330211da89d9d8754fd3b238762af6ea858ee79110d4858f38079fd083b8a48",
      "blockNumber": "0x388a6c",
      "gasUsed": "0x843c",
      "effectiveGasPrice": "0x5d21dba01",
      "from": "0x56fd3f2bee130e9867942d0f463a16fbe49b8d81",
      "to": "0xa0a403b75580072a8e486f82253a407ba9bae0cb",
      "contractAddress": null,
      "l1BaseFeeScalar": "0x0",
      "l1BlobBaseFee": "0x1",
      "l1BlobBaseFeeScalar": "0x0",
      "l1Fee": "0x0",
      "l1GasPrice": "0x8455ee",
      "l1GasUsed": "0x640"
    },
    {
      "status": "0x1",
      "cumulativeGasUsed": "0x2c4f4",
      "logs": [],
      "logsBloom": "0x00000000000000000000000000000000000000000000000000000000000000000000000000000000000000000000000000000000000000000000000000000000000000000000000000000000000000000000000000000000000000000000000000000000000000000000000000000000000000000000000000000000000000000000000000000000000000000000000000000000000000000000000000000000000000000000000000000000000000000000000000000000000000000000000000000000000000000000000000000000000000000000000000000000000000000000000000000000000000000000000000000000000000000000000000000000",
      "type": "0x2",
      "transactionHash": "0x6c36ad017a4ec3d160719d6564e341522d129f80a3e459d932c30cd26f702e91",
      "transactionIndex": "0x4",
      "blockHash": "0x1330211da89d9d8754fd3b238762af6ea858ee79110d4858f38079fd083b8a48",
      "blockNumber": "0x388a6c",
      "gasUsed": "0x843c",
      "effectiveGasPrice": "0x5d21dba01",
      "from": "0x56fd3f2bee130e9867942d0f463a16fbe49b8d81",
      "to": "0x5995fb71215c9ea02753092aacf47885bfa1a988",
      "contractAddress": null,
      "l1BaseFeeScalar": "0x0",
      "l1BlobBaseFee": "0x1",
      "l1BlobBaseFeeScalar": "0x0",
      "l1Fee": "0x0",
      "l1GasPrice": "0x8455ee",
      "l1GasUsed": "0x640"
    },
    {
      "status": "0x1",
      "cumulativeGasUsed": "0x34930",
      "logs": [],
      "logsBloom": "0x00000000000000000000000000000000000000000000000000000000000000000000000000000000000000000000000000000000000000000000000000000000000000000000000000000000000000000000000000000000000000000000000000000000000000000000000000000000000000000000000000000000000000000000000000000000000000000000000000000000000000000000000000000000000000000000000000000000000000000000000000000000000000000000000000000000000000000000000000000000000000000000000000000000000000000000000000000000000000000000000000000000000000000000000000000000",
      "type": "0x2",
      "transactionHash": "0x016057c5d229db2868f28829000118717e656516180b953857b3bca0604f7522",
      "transactionIndex": "0x5",
      "blockHash": "0x1330211da89d9d8754fd3b238762af6ea858ee79110d4858f38079fd083b8a48",
      "blockNumber": "0x388a6c",
      "gasUsed": "0x843c",
      "effectiveGasPrice": "0x5d21dba01",
      "from": "0x56fd3f2bee130e9867942d0f463a16fbe49b8d81",
      "to": "0x44a7e7d4de5a4d6f5db9d174943214b926fd07d1",
      "contractAddress": null,
      "l1BaseFeeScalar": "0x0",
      "l1BlobBaseFee": "0x1",
      "l1BlobBaseFeeScalar": "0x0",
      "l1Fee": "0x0",
      "l1GasPrice": "0x8455ee",
      "l1GasUsed": "0x640"
    },
    {
      "status": "0x1",
      "cumulativeGasUsed": "0x3cd6c",
      "logs": [],
      "logsBloom": "0x00000000000000000000000000000000000000000000000000000000000000000000000000000000000000000000000000000000000000000000000000000000000000000000000000000000000000000000000000000000000000000000000000000000000000000000000000000000000000000000000000000000000000000000000000000000000000000000000000000000000000000000000000000000000000000000000000000000000000000000000000000000000000000000000000000000000000000000000000000000000000000000000000000000000000000000000000000000000000000000000000000000000000000000000000000000",
      "type": "0x2",
      "transactionHash": "0x1d440499b10a1b32bb4c4b1df1633c25031b4f65a1b2672220fd987df18f6611",
      "transactionIndex": "0x6",
      "blockHash": "0x1330211da89d9d8754fd3b238762af6ea858ee79110d4858f38079fd083b8a48",
      "blockNumber": "0x388a6c",
      "gasUsed": "0x843c",
      "effectiveGasPrice": "0x5d21dba01",
      "from": "0x56fd3f2bee130e9867942d0f463a16fbe49b8d81",
      "to": "0xe30f631aac9762059c67135095c7d520221a0868",
      "contractAddress": null,
      "l1BaseFeeScalar": "0x0",
      "l1BlobBaseFee": "0x1",
      "l1BlobBaseFeeScalar": "0x0",
      "l1Fee": "0x0",
      "l1GasPrice": "0x8455ee",
      "l1GasUsed": "0x640"
    },
    {
      "status": "0x1",
      "cumulativeGasUsed": "0x446dc",
      "logs": [],
      "logsBloom": "0x00000000000000000000000000000000000000000000000000000000000000000000000000000000000000000000000000000000000000000000000000000000000000000000000000000000000000000000000000000000000000000000000000000000000000000000000000000000000000000000000000000000000000000000000000000000000000000000000000000000000000000000000000000000000000000000000000000000000000000000000000000000000000000000000000000000000000000000000000000000000000000000000000000000000000000000000000000000000000000000000000000000000000000000000000000000",
      "type": "0x2",
      "transactionHash": "0x21473f44599bb81485a955f0569434b644bdf0f6381af29b5e49106670d7d02b",
      "transactionIndex": "0x7",
      "blockHash": "0x1330211da89d9d8754fd3b238762af6ea858ee79110d4858f38079fd083b8a48",
      "blockNumber": "0x388a6c",
      "gasUsed": "0x7970",
      "effectiveGasPrice": "0x5d21dba01",
      "from": "0x56fd3f2bee130e9867942d0f463a16fbe49b8d81",
      "to": "0xf364db584bc3b55df019044de85993c47e1b145a",
      "contractAddress": null,
      "l1BaseFeeScalar": "0x0",
      "l1BlobBaseFee": "0x1",
      "l1BlobBaseFeeScalar": "0x0",
      "l1Fee": "0x0",
      "l1GasPrice": "0x8455ee",
      "l1GasUsed": "0x640"
    },
    {
      "status": "0x1",
      "cumulativeGasUsed": "0x4c04c",
      "logs": [],
      "logsBloom": "0x00000000000000000000000000000000000000000000000000000000000000000000000000000000000000000000000000000000000000000000000000000000000000000000000000000000000000000000000000000000000000000000000000000000000000000000000000000000000000000000000000000000000000000000000000000000000000000000000000000000000000000000000000000000000000000000000000000000000000000000000000000000000000000000000000000000000000000000000000000000000000000000000000000000000000000000000000000000000000000000000000000000000000000000000000000000",
      "type": "0x2",
      "transactionHash": "0xa4db462645ca42016cf79de64bea600ffad107ec82b1011cdd5719910adbe841",
      "transactionIndex": "0x8",
      "blockHash": "0x1330211da89d9d8754fd3b238762af6ea858ee79110d4858f38079fd083b8a48",
      "blockNumber": "0x388a6c",
      "gasUsed": "0x7970",
      "effectiveGasPrice": "0x5d21dba01",
      "from": "0x56fd3f2bee130e9867942d0f463a16fbe49b8d81",
      "to": "0x0d1a55b9a06fe8aa48eb87251fbd959d121ea843",
      "contractAddress": null,
      "l1BaseFeeScalar": "0x0",
      "l1BlobBaseFee": "0x1",
      "l1BlobBaseFeeScalar": "0x0",
      "l1Fee": "0x0",
      "l1GasPrice": "0x8455ee",
      "l1GasUsed": "0x640"
    },
    {
      "status": "0x1",
      "cumulativeGasUsed": "0x5447c",
      "logs": [],
      "logsBloom": "0x00000000000000000000000000000000000000000000000000000000000000000000000000000000000000000000000000000000000000000000000000000000000000000000000000000000000000000000000000000000000000000000000000000000000000000000000000000000000000000000000000000000000000000000000000000000000000000000000000000000000000000000000000000000000000000000000000000000000000000000000000000000000000000000000000000000000000000000000000000000000000000000000000000000000000000000000000000000000000000000000000000000000000000000000000000000",
      "type": "0x2",
      "transactionHash": "0x3521dcb050d662121d6d3a3b1360a497be20479eada3aa28c4fa3e663bcc6c90",
      "transactionIndex": "0x9",
      "blockHash": "0x1330211da89d9d8754fd3b238762af6ea858ee79110d4858f38079fd083b8a48",
      "blockNumber": "0x388a6c",
      "gasUsed": "0x8430",
      "effectiveGasPrice": "0x5d21dba01",
      "from": "0x56fd3f2bee130e9867942d0f463a16fbe49b8d81",
      "to": "0x7a2f69a58f0dae429cc6de1e6fcb6260041c7464",
      "contractAddress": null,
      "l1BaseFeeScalar": "0x0",
      "l1BlobBaseFee": "0x1",
      "l1BlobBaseFeeScalar": "0x0",
      "l1Fee": "0x0",
      "l1GasPrice": "0x8455ee",
      "l1GasUsed": "0x640"
    },
    {
      "status": "0x1",
      "cumulativeGasUsed": "0x5bdb0",
      "logs": [],
      "logsBloom": "0x00000000000000000000000000000000000000000000000000000000000000000000000000000000000000000000000000000000000000000000000000000000000000000000000000000000000000000000000000000000000000000000000000000000000000000000000000000000000000000000000000000000000000000000000000000000000000000000000000000000000000000000000000000000000000000000000000000000000000000000000000000000000000000000000000000000000000000000000000000000000000000000000000000000000000000000000000000000000000000000000000000000000000000000000000000000",
      "type": "0x2",
      "transactionHash": "0x7e48cd62d1b3f26211f3e4e2c4b1df90737ce65e52cb3a509bceb251901c40bc",
      "transactionIndex": "0xa",
      "blockHash": "0x1330211da89d9d8754fd3b238762af6ea858ee79110d4858f38079fd083b8a48",
      "blockNumber": "0x388a6c",
      "gasUsed": "0x7934",
      "effectiveGasPrice": "0x5d21dba01",
      "from": "0x56fd3f2bee130e9867942d0f463a16fbe49b8d81",
      "to": "0x97fd9624af571a5291d6b5aa0f7db7de8b5e0398",
      "contractAddress": null,
      "l1BaseFeeScalar": "0x0",
      "l1BlobBaseFee": "0x1",
      "l1BlobBaseFeeScalar": "0x0",
      "l1Fee": "0x0",
      "l1GasPrice": "0x8455ee",
      "l1GasUsed": "0x640"
    },
    {
      "status": "0x1",
      "cumulativeGasUsed": "0x636f0",
      "logs": [],
      "logsBloom": "0x00000000000000000000000000000000000000000000000000000000000000000000000000000000000000000000000000000000000000000000000000000000000000000000000000000000000000000000000000000000000000000000000000000000000000000000000000000000000000000000000000000000000000000000000000000000000000000000000000000000000000000000000000000000000000000000000000000000000000000000000000000000000000000000000000000000000000000000000000000000000000000000000000000000000000000000000000000000000000000000000000000000000000000000000000000000",
      "type": "0x2",
      "transactionHash": "0xeeb8d110320cc6845bf10935954700a74188af0061177303e92412df6adb8d63",
      "transactionIndex": "0xb",
      "blockHash": "0x1330211da89d9d8754fd3b238762af6ea858ee79110d4858f38079fd083b8a48",
      "blockNumber": "0x388a6c",
      "gasUsed": "0x7940",
      "effectiveGasPrice": "0x5d21dba01",
      "from": "0x56fd3f2bee130e9867942d0f463a16fbe49b8d81",
      "to": "0x04a1e7bbd987a7f86ca10ea36023884e45e46bd7",
      "contractAddress": null,
      "l1BaseFeeScalar": "0x0",
      "l1BlobBaseFee": "0x1",
      "l1BlobBaseFeeScalar": "0x0",
      "l1Fee": "0x0",
      "l1GasPrice": "0x8455ee",
      "l1GasUsed": "0x640"
    },
    {
      "status": "0x1",
      "cumulativeGasUsed": "0x6bb2c",
      "logs": [],
      "logsBloom": "0x00000000000000000000000000000000000000000000000000000000000000000000000000000000000000000000000000000000000000000000000000000000000000000000000000000000000000000000000000000000000000000000000000000000000000000000000000000000000000000000000000000000000000000000000000000000000000000000000000000000000000000000000000000000000000000000000000000000000000000000000000000000000000000000000000000000000000000000000000000000000000000000000000000000000000000000000000000000000000000000000000000000000000000000000000000000",
      "type": "0x2",
      "transactionHash": "0xc153e79d1bf469111d1577362d50de3bd75d663f51fb0dc8521e5b65802120c3",
      "transactionIndex": "0xc",
      "blockHash": "0x1330211da89d9d8754fd3b238762af6ea858ee79110d4858f38079fd083b8a48",
      "blockNumber": "0x388a6c",
      "gasUsed": "0x843c",
      "effectiveGasPrice": "0x5d21dba01",
      "from": "0x56fd3f2bee130e9867942d0f463a16fbe49b8d81",
      "to": "0x56029056ccc623115d05473cee7d1aacac830185",
      "contractAddress": null,
      "l1BaseFeeScalar": "0x0",
      "l1BlobBaseFee": "0x1",
      "l1BlobBaseFeeScalar": "0x0",
      "l1Fee": "0x0",
      "l1GasPrice": "0x8455ee",
      "l1GasUsed": "0x640"
    },
    {
      "status": "0x1",
      "cumulativeGasUsed": "0x73f5c",
      "logs": [],
      "logsBloom": "0x00000000000000000000000000000000000000000000000000000000000000000000000000000000000000000000000000000000000000000000000000000000000000000000000000000000000000000000000000000000000000000000000000000000000000000000000000000000000000000000000000000000000000000000000000000000000000000000000000000000000000000000000000000000000000000000000000000000000000000000000000000000000000000000000000000000000000000000000000000000000000000000000000000000000000000000000000000000000000000000000000000000000000000000000000000000",
      "type": "0x2",
      "transactionHash": "0x37486364c06fda874e29cc91dc555db240f1107c662ac176291fa0d0348e045d",
      "transactionIndex": "0xd",
      "blockHash": "0x1330211da89d9d8754fd3b238762af6ea858ee79110d4858f38079fd083b8a48",
      "blockNumber": "0x388a6c",
      "gasUsed": "0x8430",
      "effectiveGasPrice": "0x5d21dba01",
      "from": "0x56fd3f2bee130e9867942d0f463a16fbe49b8d81",
      "to": "0x1d866336d9c2f1c9737aca853347838e0a9e0559",
      "contractAddress": null,
      "l1BaseFeeScalar": "0x0",
      "l1BlobBaseFee": "0x1",
      "l1BlobBaseFeeScalar": "0x0",
      "l1Fee": "0x0",
      "l1GasPrice": "0x8455ee",
      "l1GasUsed": "0x640"
    },
    {
      "status": "0x1",
      "cumulativeGasUsed": "0x7c398",
      "logs": [],
      "logsBloom": "0x00000000000000000000000000000000000000000000000000000000000000000000000000000000000000000000000000000000000000000000000000000000000000000000000000000000000000000000000000000000000000000000000000000000000000000000000000000000000000000000000000000000000000000000000000000000000000000000000000000000000000000000000000000000000000000000000000000000000000000000000000000000000000000000000000000000000000000000000000000000000000000000000000000000000000000000000000000000000000000000000000000000000000000000000000000000",
      "type": "0x2",
      "transactionHash": "0x3ebc76746535f3f8b261aa5c0a3247f00d1e029caf241fd1affc28875a469b53",
      "transactionIndex": "0xe",
      "blockHash": "0x1330211da89d9d8754fd3b238762af6ea858ee79110d4858f38079fd083b8a48",
      "blockNumber": "0x388a6c",
      "gasUsed": "0x843c",
      "effectiveGasPrice": "0x5d21dba01",
      "from": "0x56fd3f2bee130e9867942d0f463a16fbe49b8d81",
      "to": "0x8c947e599bea1f0469d5e2633a6e030910336d11",
      "contractAddress": null,
      "l1BaseFeeScalar": "0x0",
      "l1BlobBaseFee": "0x1",
      "l1BlobBaseFeeScalar": "0x0",
      "l1Fee": "0x0",
      "l1GasPrice": "0x8455ee",
      "l1GasUsed": "0x640"
    },
    {
      "status": "0x1",
      "cumulativeGasUsed": "0x847c8",
      "logs": [],
      "logsBloom": "0x00000000000000000000000000000000000000000000000000000000000000000000000000000000000000000000000000000000000000000000000000000000000000000000000000000000000000000000000000000000000000000000000000000000000000000000000000000000000000000000000000000000000000000000000000000000000000000000000000000000000000000000000000000000000000000000000000000000000000000000000000000000000000000000000000000000000000000000000000000000000000000000000000000000000000000000000000000000000000000000000000000000000000000000000000000000",
      "type": "0x2",
      "transactionHash": "0x7ad8597594ce6f24be310c0b467c8a85cde6c7b5ab5933b12d8aa1c92ecf9051",
      "transactionIndex": "0xf",
      "blockHash": "0x1330211da89d9d8754fd3b238762af6ea858ee79110d4858f38079fd083b8a48",
      "blockNumber": "0x388a6c",
      "gasUsed": "0x8430",
      "effectiveGasPrice": "0x5d21dba01",
      "from": "0x56fd3f2bee130e9867942d0f463a16fbe49b8d81",
      "to": "0xdee315fc7023de5a99fbc68a1ca6c0266a897b17",
      "contractAddress": null,
      "l1BaseFeeScalar": "0x0",
      "l1BlobBaseFee": "0x1",
      "l1BlobBaseFeeScalar": "0x0",
      "l1Fee": "0x0",
      "l1GasPrice": "0x8455ee",
      "l1GasUsed": "0x640"
    },
    {
      "status": "0x1",
      "cumulativeGasUsed": "0x8cc04",
      "logs": [],
      "logsBloom": "0x00000000000000000000000000000000000000000000000000000000000000000000000000000000000000000000000000000000000000000000000000000000000000000000000000000000000000000000000000000000000000000000000000000000000000000000000000000000000000000000000000000000000000000000000000000000000000000000000000000000000000000000000000000000000000000000000000000000000000000000000000000000000000000000000000000000000000000000000000000000000000000000000000000000000000000000000000000000000000000000000000000000000000000000000000000000",
      "type": "0x2",
      "transactionHash": "0x8ca1481d1441804a4756a239ff5518fdf26c2b2bf6cf56ca987aaa8ab720fd6c",
      "transactionIndex": "0x10",
      "blockHash": "0x1330211da89d9d8754fd3b238762af6ea858ee79110d4858f38079fd083b8a48",
      "blockNumber": "0x388a6c",
      "gasUsed": "0x843c",
      "effectiveGasPrice": "0x5d21dba01",
      "from": "0x56fd3f2bee130e9867942d0f463a16fbe49b8d81",
      "to": "0x703691155cd4006ed14361023ec35599cfb33a19",
      "contractAddress": null,
      "l1BaseFeeScalar": "0x0",
      "l1BlobBaseFee": "0x1",
      "l1BlobBaseFeeScalar": "0x0",
      "l1Fee": "0x0",
      "l1GasPrice": "0x8455ee",
      "l1GasUsed": "0x640"
    },
    {
      "status": "0x1",
      "cumulativeGasUsed": "0x95034",
      "logs": [],
      "logsBloom": "0x00000000000000000000000000000000000000000000000000000000000000000000000000000000000000000000000000000000000000000000000000000000000000000000000000000000000000000000000000000000000000000000000000000000000000000000000000000000000000000000000000000000000000000000000000000000000000000000000000000000000000000000000000000000000000000000000000000000000000000000000000000000000000000000000000000000000000000000000000000000000000000000000000000000000000000000000000000000000000000000000000000000000000000000000000000000",
      "type": "0x2",
      "transactionHash": "0x8707cf063e72746712a0a89e99c31284cb358c9476ad53ad93210d92b67a7fdf",
      "transactionIndex": "0x11",
      "blockHash": "0x1330211da89d9d8754fd3b238762af6ea858ee79110d4858f38079fd083b8a48",
      "blockNumber": "0x388a6c",
      "gasUsed": "0x8430",
      "effectiveGasPrice": "0x5d21dba01",
      "from": "0x56fd3f2bee130e9867942d0f463a16fbe49b8d81",
      "to": "0x8003d6ea2954e8fa12c420e189777b2a7d989653",
      "contractAddress": null,
      "l1BaseFeeScalar": "0x0",
      "l1BlobBaseFee": "0x1",
      "l1BlobBaseFeeScalar": "0x0",
      "l1Fee": "0x0",
      "l1GasPrice": "0x8455ee",
      "l1GasUsed": "0x640"
    },
    {
      "status": "0x1",
      "cumulativeGasUsed": "0x12d68",
      "logs": [],
      "logsBloom": "0x00000000000000000000000000000000000000000000000000000000000000000000000000000000000000000000000000000000000000000000000000000000000000000000000000000000000000000000000000000000000000000000000000000000000000000000000000000000000000000000000000000000000000000000000000000000000000000000000000000000000000000000000000000000000000000000000000000000000000000000000000000000000000000000000000000000000000000000000000000000000000000000000000000000000000000000000000000000000000000000000000000000000000000000000000000000",
      "type": "0x2",
      "transactionHash": "0xe354b508e8218d9dfafd76e794692e682f6d670a040b4088368d94488a607eec",
      "transactionIndex": "0x1",
      "blockHash": "0x4d55e4a3b2761e8719aeb04c9d9b9539631ef7af9ced09149293ccfa92939108",
      "blockNumber": "0x388a6d",
      "gasUsed": "0x7964",
      "effectiveGasPrice": "0x5d21dba01",
      "from": "0x56fd3f2bee130e9867942d0f463a16fbe49b8d81",
      "to": "0x5db4a1e964ce93f994ff56aaf96b39de73f073da",
      "contractAddress": null,
      "l1BaseFeeScalar": "0x0",
      "l1BlobBaseFee": "0x1",
      "l1BlobBaseFeeScalar": "0x0",
      "l1Fee": "0x0",
      "l1GasPrice": "0x8455ee",
      "l1GasUsed": "0x640"
    },
    {
      "status": "0x1",
      "cumulativeGasUsed": "0x38d1c",
      "logs": [
        {
          "address": "0x691ab9aff4a36e1fcb9c2d9a366cc0e176c5e4fc",
          "topics": [
            "0x7cebb17173a9ed273d2b7538f64395c0ebf352ff743f1cf8ce66b437a6144213",
            "0x00000000000000000000000081a313ff894bfc6093d33b5514e34d7faa41b7ef",
            "0x0000000000000000000000002053c6091491a572bcd8baa96f693ca77df25ccf"
          ],
          "data": "0x0000000000000000000000000000000000000000000000000000000068b9880100000000000000000000000000000000000000000000d3bc25404bbbb4080000",
          "blockHash": "0x4d55e4a3b2761e8719aeb04c9d9b9539631ef7af9ced09149293ccfa92939108",
          "blockNumber": "0x388a6d",
          "transactionHash": "0xead014f3b405918fe4fba64aaafa8d8cd64d18a01435c983bbf4f49a4cf6a413",
          "transactionIndex": "0x2",
          "logIndex": "0x0",
          "removed": false
        },
        {
          "address": "0x691ab9aff4a36e1fcb9c2d9a366cc0e176c5e4fc",
          "topics": [
            "0xa9981ebfc3b766a742486e898f54959b050a66006dbce1a4155c1f84a08bcf41",
            "0x00000000000000000000000081a313ff894bfc6093d33b5514e34d7faa41b7ef"
          ],
          "data": "0x00000000000000000000000000000000000000000000d3bc25404bbbb4080000",
          "blockHash": "0x4d55e4a3b2761e8719aeb04c9d9b9539631ef7af9ced09149293ccfa92939108",
          "blockNumber": "0x388a6d",
          "transactionHash": "0xead014f3b405918fe4fba64aaafa8d8cd64d18a01435c983bbf4f49a4cf6a413",
          "transactionIndex": "0x2",
          "logIndex": "0x1",
          "removed": false
        }
      ],
      "logsBloom": "0x00800000000000000000000000000000000000000040000000000000000000000000000000000000000800000000000800000000000000000000000000100000000000200000000000000000000000000000000004000000000000000000000000000000000000008000000000008000000000000000000000000000000000000000000000000000400000000000000000000002000000000000000000000000200000800000000000000008000000000000008000000000000000000000000000000000000000000000000000000000000000000000000000000000000000000000000000000000000000000000000000000000000000000000000000000000",
      "type": "0x2",
      "transactionHash": "0xead014f3b405918fe4fba64aaafa8d8cd64d18a01435c983bbf4f49a4cf6a413",
      "transactionIndex": "0x2",
      "blockHash": "0x4d55e4a3b2761e8719aeb04c9d9b9539631ef7af9ced09149293ccfa92939108",
      "blockNumber": "0x388a6d",
      "gasUsed": "0x25fb4",
      "effectiveGasPrice": "0x5d21dba01",
      "from": "0x56fd3f2bee130e9867942d0f463a16fbe49b8d81",
      "to": "0x2053c6091491a572bcd8baa96f693ca77df25ccf",
      "contractAddress": null,
      "l1BaseFeeScalar": "0x0",
      "l1BlobBaseFee": "0x1",
      "l1BlobBaseFeeScalar": "0x0",
      "l1Fee": "0x0",
      "l1GasPrice": "0x8455ee",
      "l1GasUsed": "0x640"
    },
    {
      "status": "0x1",
      "cumulativeGasUsed": "0x5ecd0",
      "logs": [
        {
          "address": "0x691ab9aff4a36e1fcb9c2d9a366cc0e176c5e4fc",
          "topics": [
            "0x7cebb17173a9ed273d2b7538f64395c0ebf352ff743f1cf8ce66b437a6144213",
            "0x000000000000000000000000ac414205651f4a62b614b6be9e5318a182c33eb0",
            "0x000000000000000000000000737285328116fcc9edab850d6fa1583fae1152ce"
          ],
          "data": "0x0000000000000000000000000000000000000000000000000000000068b9880100000000000000000000000000000000000000000000d3d14996a16cb6600000",
          "blockHash": "0x4d55e4a3b2761e8719aeb04c9d9b9539631ef7af9ced09149293ccfa92939108",
          "blockNumber": "0x388a6d",
          "transactionHash": "0x4d3bf14fb70ccefed51c5dc19c4093f2d18cba2b755ead1379e92cbd83152fe9",
          "transactionIndex": "0x3",
          "logIndex": "0x2",
          "removed": false
        },
        {
          "address": "0x691ab9aff4a36e1fcb9c2d9a366cc0e176c5e4fc",
          "topics": [
            "0xa9981ebfc3b766a742486e898f54959b050a66006dbce1a4155c1f84a08bcf41",
            "0x000000000000000000000000ac414205651f4a62b614b6be9e5318a182c33eb0"
          ],
          "data": "0x00000000000000000000000000000000000000000000d3d14996a16cb6600000",
          "blockHash": "0x4d55e4a3b2761e8719aeb04c9d9b9539631ef7af9ced09149293ccfa92939108",
          "blockNumber": "0x388a6d",
          "transactionHash": "0x4d3bf14fb70ccefed51c5dc19c4093f2d18cba2b755ead1379e92cbd83152fe9",
          "transactionIndex": "0x3",
          "logIndex": "0x3",
          "removed": false
        }
      ],
      "logsBloom": "0x00800000000000000000000000000000000000000000000000000000000000000000000000000000000000000000000800800000000000000000000008100000000000000000000000000000000000000000000004000000000000400000000000000000000000000000400000008000000000000000000000000002000000000000000000000000400000000000000000000000000000000000000000000000200000800000000000000008000000000000000000000000000000000000000000000000000000000000000000000000000000000000000000000000000000000000000000000000000000000000000000000000008000000000000000000000",
      "type": "0x2",
      "transactionHash": "0x4d3bf14fb70ccefed51c5dc19c4093f2d18cba2b755ead1379e92cbd83152fe9",
      "transactionIndex": "0x3",
      "blockHash": "0x4d55e4a3b2761e8719aeb04c9d9b9539631ef7af9ced09149293ccfa92939108",
      "blockNumber": "0x388a6d",
      "gasUsed": "0x25fb4",
      "effectiveGasPrice": "0x5d21dba01",
      "from": "0x56fd3f2bee130e9867942d0f463a16fbe49b8d81",
      "to": "0x737285328116fcc9edab850d6fa1583fae1152ce",
      "contractAddress": null,
      "l1BaseFeeScalar": "0x0",
      "l1BlobBaseFee": "0x1",
      "l1BlobBaseFeeScalar": "0x0",
      "l1Fee": "0x0",
      "l1GasPrice": "0x8455ee",
      "l1GasUsed": "0x640"
    },
    {
      "status": "0x1",
      "cumulativeGasUsed": "0x87b66",
      "logs": [
        {
          "address": "0x691ab9aff4a36e1fcb9c2d9a366cc0e176c5e4fc",
          "topics": [
            "0x7cebb17173a9ed273d2b7538f64395c0ebf352ff743f1cf8ce66b437a6144213",
            "0x000000000000000000000000f549d6558bc78524d4beb33cf83a26b4862b2468",
            "0x000000000000000000000000411fac2c99957651f9cc93d4852d4346f929c61e"
          ],
          "data": "0x0000000000000000000000000000000000000000000000000000000068b9880100000000000000000000000000000000000000000000d3c21bcecceda0e17b80",
          "blockHash": "0x4d55e4a3b2761e8719aeb04c9d9b9539631ef7af9ced09149293ccfa92939108",
          "blockNumber": "0x388a6d",
          "transactionHash": "0x91e75dd7366e6aec4bedbb76f0891011d9cdb8ad049a21b551516873159855fa",
          "transactionIndex": "0x4",
          "logIndex": "0x4",
          "removed": false
        },
        {
          "address": "0x691ab9aff4a36e1fcb9c2d9a366cc0e176c5e4fc",
          "topics": [
            "0xa9981ebfc3b766a742486e898f54959b050a66006dbce1a4155c1f84a08bcf41",
            "0x000000000000000000000000f549d6558bc78524d4beb33cf83a26b4862b2468"
          ],
          "data": "0x00000000000000000000000000000000000000000000d3c21bcecceda0e17b80",
          "blockHash": "0x4d55e4a3b2761e8719aeb04c9d9b9539631ef7af9ced09149293ccfa92939108",
          "blockNumber": "0x388a6d",
          "transactionHash": "0x91e75dd7366e6aec4bedbb76f0891011d9cdb8ad049a21b551516873159855fa",
          "transactionIndex": "0x4",
          "logIndex": "0x5",
          "removed": false
        }
      ],
      "logsBloom": "0x00800000000000000000001000000000000000000000000000000000000000000000000000000000000000000000000800000000000000200000000000100000000000000000000000000000800000000000000004000000000000000000000000000000000000000000000000008000000000000000000000000000000000000000000000000000400000000000001000000000000000000008000000000000200000800000000000000008000000000000000000000000000000000000000000000000000000000000000000000000000000000000000000000000000000000000000000000000000000000000000000000000000000000000000000000020",
      "type": "0x2",
      "transactionHash": "0x91e75dd7366e6aec4bedbb76f0891011d9cdb8ad049a21b551516873159855fa",
      "transactionIndex": "0x4",
      "blockHash": "0x4d55e4a3b2761e8719aeb04c9d9b9539631ef7af9ced09149293ccfa92939108",
      "blockNumber": "0x388a6d",
      "gasUsed": "0x28e96",
      "effectiveGasPrice": "0x5d21dba01",
      "from": "0x56fd3f2bee130e9867942d0f463a16fbe49b8d81",
      "to": "0x411fac2c99957651f9cc93d4852d4346f929c61e",
      "contractAddress": null,
      "l1BaseFeeScalar": "0x0",
      "l1BlobBaseFee": "0x1",
      "l1BlobBaseFeeScalar": "0x0",
      "l1Fee": "0x0",
      "l1GasPrice": "0x8455ee",
      "l1GasUsed": "0x640"
    },
    {
      "status": "0x1",
      "cumulativeGasUsed": "0xadb1a",
      "logs": [
        {
          "address": "0x691ab9aff4a36e1fcb9c2d9a366cc0e176c5e4fc",
          "topics": [
            "0x7cebb17173a9ed273d2b7538f64395c0ebf352ff743f1cf8ce66b437a6144213",
            "0x0000000000000000000000008081ce55dc0f6f1e45ab2828d2f7da2a01113084",
            "0x000000000000000000000000dbbe66b2ec5f1539c0c79ecf5fab12a94c1c7d7b"
          ],
          "data": "0x0000000000000000000000000000000000000000000000000000000068b98801000000000000000000000000000000000000000000003e017bab5c83ac800000",
          "blockHash": "0x4d55e4a3b2761e8719aeb04c9d9b9539631ef7af9ced09149293ccfa92939108",
          "blockNumber": "0x388a6d",
          "transactionHash": "0x1b951fab50e01e69fbcd490938786082ced0945ab2f33049f8364950409636a2",
          "transactionIndex": "0x5",
          "logIndex": "0x6",
          "removed": false
        },
        {
          "address": "0x691ab9aff4a36e1fcb9c2d9a366cc0e176c5e4fc",
          "topics": [
            "0xa9981ebfc3b766a742486e898f54959b050a66006dbce1a4155c1f84a08bcf41",
            "0x0000000000000000000000008081ce55dc0f6f1e45ab2828d2f7da2a01113084"
          ],
          "data": "0x000000000000000000000000000000000000000000003e017bab5c83ac800000",
          "blockHash": "0x4d55e4a3b2761e8719aeb04c9d9b9539631ef7af9ced09149293ccfa92939108",
          "blockNumber": "0x388a6d",
          "transactionHash": "0x1b951fab50e01e69fbcd490938786082ced0945ab2f33049f8364950409636a2",
          "transactionIndex": "0x5",
          "logIndex": "0x7",
          "removed": false
        }
      ],
      "logsBloom": "0x02800000000000000000000000000000000000002000000000000000000000000000000000000000000000000000000800000000000000000000000000100000000000000000000000000000000000000000000004000000000000000000000000000000000000000000000000008000000000000080000000000000000000000000000000000000400000000000000000000000000000080000000000000000200000800000000000000008000000000000000000000000000000000000000000000000000000001000000000200000000000000000000000000000000000000000000000000000000000000000000000000000000000000000000000000000",
      "type": "0x2",
      "transactionHash": "0x1b951fab50e01e69fbcd490938786082ced0945ab2f33049f8364950409636a2",
      "transactionIndex": "0x5",
      "blockHash": "0x4d55e4a3b2761e8719aeb04c9d9b9539631ef7af9ced09149293ccfa92939108",
      "blockNumber": "0x388a6d",
      "gasUsed": "0x25fb4",
      "effectiveGasPrice": "0x5d21dba01",
      "from": "0x56fd3f2bee130e9867942d0f463a16fbe49b8d81",
      "to": "0xdbbe66b2ec5f1539c0c79ecf5fab12a94c1c7d7b",
      "contractAddress": null,
      "l1BaseFeeScalar": "0x0",
      "l1BlobBaseFee": "0x1",
      "l1BlobBaseFeeScalar": "0x0",
      "l1Fee": "0x0",
      "l1GasPrice": "0x8455ee",
      "l1GasUsed": "0x640"
    },
    {
      "status": "0x1",
      "cumulativeGasUsed": "0xd3ace",
      "logs": [
        {
          "address": "0x691ab9aff4a36e1fcb9c2d9a366cc0e176c5e4fc",
          "topics": [
            "0x7cebb17173a9ed273d2b7538f64395c0ebf352ff743f1cf8ce66b437a6144213",
            "0x000000000000000000000000ec57482aa55e3ad026c315a0e4a692b776c318ca",
            "0x0000000000000000000000003bc0add00a414bc1fe0cfb6bde62e03e01a39059"
          ],
          "data": "0x0000000000000000000000000000000000000000000000000000000068b9880100000000000000000000000000000000000000000000f6aebb5fd5c31a3b0000",
          "blockHash": "0x4d55e4a3b2761e8719aeb04c9d9b9539631ef7af9ced09149293ccfa92939108",
          "blockNumber": "0x388a6d",
          "transactionHash": "0xf6a84879b95d7a951ad004ca826705f6515e17b58f6b3675bc04137cf08d2fca",
          "transactionIndex": "0x6",
          "logIndex": "0x8",
          "removed": false
        },
        {
          "address": "0x691ab9aff4a36e1fcb9c2d9a366cc0e176c5e4fc",
          "topics": [
            "0xa9981ebfc3b766a742486e898f54959b050a66006dbce1a4155c1f84a08bcf41",
            "0x000000000000000000000000ec57482aa55e3ad026c315a0e4a692b776c318ca"
          ],
          "data": "0x00000000000000000000000000000000000000000000f6aebb5fd5c31a3b0000",
          "blockHash": "0x4d55e4a3b2761e8719aeb04c9d9b9539631ef7af9ced09149293ccfa92939108",
          "blockNumber": "0x388a6d",
          "transactionHash": "0xf6a84879b95d7a951ad004ca826705f6515e17b58f6b3675bc04137cf08d2fca",
          "transactionIndex": "0x6",
          "logIndex": "0x9",
          "removed": false
        }
      ],
      "logsBloom": "0x00800000000000000000000000000000000000000000000000000000000000000000000000000000000000000000000800000000000000000000800000100000000000001000000000000000000000000000000004000000000000000000000400000000000000000000000000008000000000000000000000000000000000000200000000000000400000000000000000000400000000000000000000000000200000800000000000000008000000000000000000000000000000000000000000000000000000000000000000000000000000000000000020000000000000000000000000000000000000000000000000000000000000000000000000000000",
      "type": "0x2",
      "transactionHash": "0xf6a84879b95d7a951ad004ca826705f6515e17b58f6b3675bc04137cf08d2fca",
      "transactionIndex": "0x6",
      "blockHash": "0x4d55e4a3b2761e8719aeb04c9d9b9539631ef7af9ced09149293ccfa92939108",
      "blockNumber": "0x388a6d",
      "gasUsed": "0x25fb4",
      "effectiveGasPrice": "0x5d21dba01",
      "from": "0x56fd3f2bee130e9867942d0f463a16fbe49b8d81",
      "to": "0x3bc0add00a414bc1fe0cfb6bde62e03e01a39059",
      "contractAddress": null,
      "l1BaseFeeScalar": "0x0",
      "l1BlobBaseFee": "0x1",
      "l1BlobBaseFeeScalar": "0x0",
      "l1Fee": "0x0",
      "l1GasPrice": "0x8455ee",
      "l1GasUsed": "0x640"
    },
    {
      "status": "0x1",
      "cumulativeGasUsed": "0xf9a82",
      "logs": [
        {
          "address": "0x691ab9aff4a36e1fcb9c2d9a366cc0e176c5e4fc",
          "topics": [
            "0x7cebb17173a9ed273d2b7538f64395c0ebf352ff743f1cf8ce66b437a6144213",
            "0x000000000000000000000000669bcf7bdb701e3b15799d2732c0518cf3b65507",
            "0x000000000000000000000000f4ed3b0f01cf978a56fcaca96e4537c60542edd5"
          ],
          "data": "0x0000000000000000000000000000000000000000000000000000000068b988010000000000000000000000000000000000000000000026dc7399f1b31ca60000",
          "blockHash": "0x4d55e4a3b2761e8719aeb04c9d9b9539631ef7af9ced09149293ccfa92939108",
          "blockNumber": "0x388a6d",
          "transactionHash": "0xf9e9da6285ea561e0cd46ead72e8a358d7cac2050b3000e6420acfba1aa1ad98",
          "transactionIndex": "0x7",
          "logIndex": "0xa",
          "removed": false
        },
        {
          "address": "0x691ab9aff4a36e1fcb9c2d9a366cc0e176c5e4fc",
          "topics": [
            "0xa9981ebfc3b766a742486e898f54959b050a66006dbce1a4155c1f84a08bcf41",
            "0x000000000000000000000000669bcf7bdb701e3b15799d2732c0518cf3b65507"
          ],
          "data": "0x0000000000000000000000000000000000000000000026dc7399f1b31ca60000",
          "blockHash": "0x4d55e4a3b2761e8719aeb04c9d9b9539631ef7af9ced09149293ccfa92939108",
          "blockNumber": "0x388a6d",
          "transactionHash": "0xf9e9da6285ea561e0cd46ead72e8a358d7cac2050b3000e6420acfba1aa1ad98",
          "transactionIndex": "0x7",
          "logIndex": "0xb",
          "removed": false
        }
      ],
      "logsBloom": "0x00800000000000000000000000000000000000000000000000000000000000000000000000000000000000000000000800000000000000000000000000100004000000000000000000000000000000000000000004000000000000000000000000000000000000000000000000008000000000000000000800040000000000000000000000000000400000000000000000000000000000000000000000000000200000800000000000000008000000040000000000000000000000000000000000000000000000000400000000000000000000000000000000000000000000000000000000000000000000000000000000000000000000000800000000000000",
      "type": "0x2",
      "transactionHash": "0xf9e9da6285ea561e0cd46ead72e8a358d7cac2050b3000e6420acfba1aa1ad98",
      "transactionIndex": "0x7",
      "blockHash": "0x4d55e4a3b2761e8719aeb04c9d9b9539631ef7af9ced09149293ccfa92939108",
      "blockNumber": "0x388a6d",
      "gasUsed": "0x25fb4",
      "effectiveGasPrice": "0x5d21dba01",
      "from": "0x56fd3f2bee130e9867942d0f463a16fbe49b8d81",
      "to": "0xf4ed3b0f01cf978a56fcaca96e4537c60542edd5",
      "contractAddress": null,
      "l1BaseFeeScalar": "0x0",
      "l1BlobBaseFee": "0x1",
      "l1BlobBaseFeeScalar": "0x0",
      "l1Fee": "0x0",
      "l1GasPrice": "0x8455ee",
      "l1GasUsed": "0x640"
    },
    {
      "status": "0x1",
      "cumulativeGasUsed": "0x11e8cb",
      "logs": [
        {
          "address": "0x691ab9aff4a36e1fcb9c2d9a366cc0e176c5e4fc",
          "topics": [
            "0x7cebb17173a9ed273d2b7538f64395c0ebf352ff743f1cf8ce66b437a6144213",
            "0x000000000000000000000000bb792783141ac5f51eed9c922acf86d21a059ca8",
            "0x000000000000000000000000f764861a23096bf289232300b51f202dd902e04d"
          ],
          "data": "0x0000000000000000000000000000000000000000000000000000000068b988010000000000000000000000000000000000000000000000604919562291d51ac0",
          "blockHash": "0x4d55e4a3b2761e8719aeb04c9d9b9539631ef7af9ced09149293ccfa92939108",
          "blockNumber": "0x388a6d",
          "transactionHash": "0x45b274995a68f5e75062bf0135e5a1a394a1ce352cebf4942986551fcca40a59",
          "transactionIndex": "0x8",
          "logIndex": "0xc",
          "removed": false
        }
      ],
      "logsBloom": "0x00800008000000000000000000000000000000000010000000000000000000000000000000000000000000000000000800000000000000000000000000100000000000000000000000000000000000000000000000800000000000000000000000000000000000000000000000008000000000000000000000000000000000000000000000000000000000000000000000100000000000000000000000000000200000000000000000000008000000000000000000000000000000000000000000000000000000000000000000000000000000000000000000000000000000000000000000000004000000000000000000000000000000000000040000000000",
      "type": "0x2",
      "transactionHash": "0x45b274995a68f5e75062bf0135e5a1a394a1ce352cebf4942986551fcca40a59",
      "transactionIndex": "0x8",
      "blockHash": "0x4d55e4a3b2761e8719aeb04c9d9b9539631ef7af9ced09149293ccfa92939108",
      "blockNumber": "0x388a6d",
      "gasUsed": "0x24e49",
      "effectiveGasPrice": "0x5d21dba01",
      "from": "0x56fd3f2bee130e9867942d0f463a16fbe49b8d81",
      "to": "0xf764861a23096bf289232300b51f202dd902e04d",
      "contractAddress": null,
      "l1BaseFeeScalar": "0x0",
      "l1BlobBaseFee": "0x1",
      "l1BlobBaseFeeScalar": "0x0",
      "l1Fee": "0x0",
      "l1GasPrice": "0x8455ee",
      "l1GasUsed": "0x640"
    },
    {
      "status": "0x1",
      "cumulativeGasUsed": "0x143714",
      "logs": [
        {
          "address": "0x691ab9aff4a36e1fcb9c2d9a366cc0e176c5e4fc",
          "topics": [
            "0x7cebb17173a9ed273d2b7538f64395c0ebf352ff743f1cf8ce66b437a6144213",
            "0x000000000000000000000000ef40371a602409f86f9ac4e37580c59dee61199f",
            "0x000000000000000000000000cc08331daa33ca9a97f3feb2b73d9f393eb921c1"
          ],
          "data": "0x0000000000000000000000000000000000000000000000000000000068b988010000000000000000000000000000000000000000000001a352bfefaf251e2140",
          "blockHash": "0x4d55e4a3b2761e8719aeb04c9d9b9539631ef7af9ced09149293ccfa92939108",
          "blockNumber": "0x388a6d",
          "transactionHash": "0x623848666290e305930af74dd35170b47619cd9c4a1ea503ca3284e86c3660aa",
          "transactionIndex": "0x9",
          "logIndex": "0xd",
          "removed": false
        }
      ],
      "logsBloom": "0x00800000000000000000000000000000000000000000000000000000000000000000000000000000000000000000000800000000000000000000100000100000000000000000000000000000000000000000000000000000000000000000000000000000000000000000000000008000000000000000000000000000000000000000000000000000000000000000000000000000000000000000000000000000200000000000000000000008000000000000000000000000000000000000000000000000000000000020400000000000000000000000000000000000000000000000000000000000000000000000000000000000000000001000010004000000",
      "type": "0x2",
      "transactionHash": "0x623848666290e305930af74dd35170b47619cd9c4a1ea503ca3284e86c3660aa",
      "transactionIndex": "0x9",
      "blockHash": "0x4d55e4a3b2761e8719aeb04c9d9b9539631ef7af9ced09149293ccfa92939108",
      "blockNumber": "0x388a6d",
      "gasUsed": "0x24e49",
      "effectiveGasPrice": "0x5d21dba01",
      "from": "0x56fd3f2bee130e9867942d0f463a16fbe49b8d81",
      "to": "0xcc08331daa33ca9a97f3feb2b73d9f393eb921c1",
      "contractAddress": null,
      "l1BaseFeeScalar": "0x0",
      "l1BlobBaseFee": "0x1",
      "l1BlobBaseFeeScalar": "0x0",
      "l1Fee": "0x0",
      "l1GasPrice": "0x8455ee",
      "l1GasUsed": "0x640"
    },
    {
      "status": "0x1",
      "cumulativeGasUsed": "0x1696c8",
      "logs": [
        {
          "address": "0x691ab9aff4a36e1fcb9c2d9a366cc0e176c5e4fc",
          "topics": [
            "0x7cebb17173a9ed273d2b7538f64395c0ebf352ff743f1cf8ce66b437a6144213",
            "0x000000000000000000000000aa04d30cced09ae17815f88d1bcae69a49fb160f",
            "0x0000000000000000000000008b74bca4c87207380292f0844b1c0abe2ef60c54"
          ],
          "data": "0x0000000000000000000000000000000000000000000000000000000068b988010000000000000000000000000000000000000000000003b52cf6584855880000",
          "blockHash": "0x4d55e4a3b2761e8719aeb04c9d9b9539631ef7af9ced09149293ccfa92939108",
          "blockNumber": "0x388a6d",
          "transactionHash": "0xb485a0cb1b78a1340c4243099be704d52338860e0614eb13a9324993fb8eeeae",
          "transactionIndex": "0xa",
          "logIndex": "0xe",
          "removed": false
        },
        {
          "address": "0x691ab9aff4a36e1fcb9c2d9a366cc0e176c5e4fc",
          "topics": [
            "0xa9981ebfc3b766a742486e898f54959b050a66006dbce1a4155c1f84a08bcf41",
            "0x000000000000000000000000aa04d30cced09ae17815f88d1bcae69a49fb160f"
          ],
          "data": "0x0000000000000000000000000000000000000000000003b52cf6584855880000",
          "blockHash": "0x4d55e4a3b2761e8719aeb04c9d9b9539631ef7af9ced09149293ccfa92939108",
          "blockNumber": "0x388a6d",
          "transactionHash": "0xb485a0cb1b78a1340c4243099be704d52338860e0614eb13a9324993fb8eeeae",
          "transactionIndex": "0xa",
          "logIndex": "0xf",
          "removed": false
        }
      ],
      "logsBloom": "0x00800000000000000000000000000000000000000000000000000000000000000000000001000000800000000000000800000000000000000000000000100000000000000000000000000000000000000000000004000000000000000000000000000000000000000000000000008000000000000000000000000000000000000000000000000000400000000000000000000000000000000000000000000000200000800000000000000008000000000200000000000000000000000000000000000000080008000000000000000000000000000000001000000000000000000000000000000000000000000000000000000000000000000000000000000000",
      "type": "0x2",
      "transactionHash": "0xb485a0cb1b78a1340c4243099be704d52338860e0614eb13a9324993fb8eeeae",
      "transactionIndex": "0xa",
      "blockHash": "0x4d55e4a3b2761e8719aeb04c9d9b9539631ef7af9ced09149293ccfa92939108",
      "blockNumber": "0x388a6d",
      "gasUsed": "0x25fb4",
      "effectiveGasPrice": "0x5d21dba01",
      "from": "0x56fd3f2bee130e9867942d0f463a16fbe49b8d81",
      "to": "0x8b74bca4c87207380292f0844b1c0abe2ef60c54",
      "contractAddress": null,
      "l1BaseFeeScalar": "0x0",
      "l1BlobBaseFee": "0x1",
      "l1BlobBaseFeeScalar": "0x0",
      "l1Fee": "0x0",
      "l1GasPrice": "0x8455ee",
      "l1GasUsed": "0x640"
    },
    {
      "status": "0x1",
      "cumulativeGasUsed": "0x18e5dc",
      "logs": [
        {
          "address": "0x691ab9aff4a36e1fcb9c2d9a366cc0e176c5e4fc",
          "topics": [
            "0x7cebb17173a9ed273d2b7538f64395c0ebf352ff743f1cf8ce66b437a6144213",
            "0x000000000000000000000000f7b436583e011794293a04faa440816f3354501f",
            "0x000000000000000000000000a5f0ce0cd80e203161709a18378f2c850b64cc56"
          ],
          "data": "0x0000000000000000000000000000000000000000000000000000000068b9880100000000000000000000000000000000000000000000000d89fa3dc48dcf0000",
          "blockHash": "0x4d55e4a3b2761e8719aeb04c9d9b9539631ef7af9ced09149293ccfa92939108",
          "blockNumber": "0x388a6d",
          "transactionHash": "0x788da894bc308d97c81629dbc0e9d0518786b58aa34dc0871d452768b07c175f",
          "transactionIndex": "0xb",
          "logIndex": "0x10",
          "removed": false
        }
      ],
      "logsBloom": "0x00800000000000000000000000000000000000000000000000000000000000000000000000400000000000000000000800000000000000000000000000100000000000000000000000001002000000000000000000000000000000000000000000000000000000000000000000008000000000000000000000000000000000000000000000000000000000000000000000000000000000000000000004000000200000000000000000000008000000000000000000000000000000000000000000000000000000000000000000000000000000000000000000000000000000010000000000000000000000000000000001000000000000000000000000000000",
      "type": "0x2",
      "transactionHash": "0x788da894bc308d97c81629dbc0e9d0518786b58aa34dc0871d452768b07c175f",
      "transactionIndex": "0xb",
      "blockHash": "0x4d55e4a3b2761e8719aeb04c9d9b9539631ef7af9ced09149293ccfa92939108",
      "blockNumber": "0x388a6d",
      "gasUsed": "0x24f14",
      "effectiveGasPrice": "0x5d21dba01",
      "from": "0x56fd3f2bee130e9867942d0f463a16fbe49b8d81",
      "to": "0xa5f0ce0cd80e203161709a18378f2c850b64cc56",
      "contractAddress": null,
      "l1BaseFeeScalar": "0x0",
      "l1BlobBaseFee": "0x1",
      "l1BlobBaseFeeScalar": "0x0",
      "l1Fee": "0x0",
      "l1GasPrice": "0x8455ee",
      "l1GasUsed": "0x640"
    },
    {
      "status": "0x1",
      "cumulativeGasUsed": "0x1b34f0",
      "logs": [
        {
          "address": "0x691ab9aff4a36e1fcb9c2d9a366cc0e176c5e4fc",
          "topics": [
            "0x7cebb17173a9ed273d2b7538f64395c0ebf352ff743f1cf8ce66b437a6144213",
            "0x000000000000000000000000812a10b8744a9ad8637e819899d8c33454fe8d20",
            "0x00000000000000000000000001f9629fb13ec2f902cc27f521e5b29e880173b4"
          ],
          "data": "0x0000000000000000000000000000000000000000000000000000000068b988010000000000000000000000000000000000000000000011913bd6f2af56fc0000",
          "blockHash": "0x4d55e4a3b2761e8719aeb04c9d9b9539631ef7af9ced09149293ccfa92939108",
          "blockNumber": "0x388a6d",
          "transactionHash": "0x7a4b9dfe767b4e9c9b207ba124a5bc891b498a6f57f95ac0286eae6199f88d2f",
          "transactionIndex": "0xc",
          "logIndex": "0x11",
          "removed": false
        }
      ],
      "logsBloom": "0x00800000000000000000000000000000100000000000002000000000000100000000000000000000000000000000000800000000002000000000000000100000000000000000000000000000000000000000000000000000000000000000000000000000000000000000000000008000000000000000000000000000000000000000000000000000000000000000000000000000000000000000000000000000200000000000000000000008000000000000080000000000000000000000000000000000000000000000000000000000000000000000000000000000000000000000000000000000000000000000000000000000000001000000000000000000",
      "type": "0x2",
      "transactionHash": "0x7a4b9dfe767b4e9c9b207ba124a5bc891b498a6f57f95ac0286eae6199f88d2f",
      "transactionIndex": "0xc",
      "blockHash": "0x4d55e4a3b2761e8719aeb04c9d9b9539631ef7af9ced09149293ccfa92939108",
      "blockNumber": "0x388a6d",
      "gasUsed": "0x24f14",
      "effectiveGasPrice": "0x5d21dba01",
      "from": "0x56fd3f2bee130e9867942d0f463a16fbe49b8d81",
      "to": "0x01f9629fb13ec2f902cc27f521e5b29e880173b4",
      "contractAddress": null,
      "l1BaseFeeScalar": "0x0",
      "l1BlobBaseFee": "0x1",
      "l1BlobBaseFeeScalar": "0x0",
      "l1Fee": "0x0",
      "l1GasPrice": "0x8455ee",
      "l1GasUsed": "0x640"
    },
    {
      "status": "0x1",
      "cumulativeGasUsed": "0x1d94a4",
      "logs": [
        {
          "address": "0x691ab9aff4a36e1fcb9c2d9a366cc0e176c5e4fc",
          "topics": [
            "0x7cebb17173a9ed273d2b7538f64395c0ebf352ff743f1cf8ce66b437a6144213",
            "0x000000000000000000000000ea4103a6a122fbe2cdb07a80d4d293be07bb29fa",
            "0x000000000000000000000000bea02da2fef22ad1b47d204e592a63c77bd44944"
          ],
          "data": "0x0000000000000000000000000000000000000000000000000000000068b98801000000000000000000000000000000000000000000011c676db1732624d00000",
          "blockHash": "0x4d55e4a3b2761e8719aeb04c9d9b9539631ef7af9ced09149293ccfa92939108",
          "blockNumber": "0x388a6d",
          "transactionHash": "0x80257b29538edac3dd6020fe7f9374753387c13cfce9f498da48d1d50ac4a22d",
          "transactionIndex": "0xd",
          "logIndex": "0x12",
          "removed": false
        },
        {
          "address": "0x691ab9aff4a36e1fcb9c2d9a366cc0e176c5e4fc",
          "topics": [
            "0xa9981ebfc3b766a742486e898f54959b050a66006dbce1a4155c1f84a08bcf41",
            "0x000000000000000000000000ea4103a6a122fbe2cdb07a80d4d293be07bb29fa"
          ],
          "data": "0x000000000000000000000000000000000000000000011c676db1732624d00000",
          "blockHash": "0x4d55e4a3b2761e8719aeb04c9d9b9539631ef7af9ced09149293ccfa92939108",
          "blockNumber": "0x388a6d",
          "transactionHash": "0x80257b29538edac3dd6020fe7f9374753387c13cfce9f498da48d1d50ac4a22d",
          "transactionIndex": "0xd",
          "logIndex": "0x13",
          "removed": false
        }
      ],
      "logsBloom": "0x00800000000000000000000000000000000000000000000000000000000000000000000000000000000000000000000800000000000000000000000000100080000000000000000000000008000000000000000004000000000000000000000800000000000000000040000000008000000000000000000000000000000000000000000010000000400000000000000000000000000000000000000000000000200000800000000000000008000000000000000000000000000000000000000000000000000000000000000000000002000000000000000000000000000000000000000000000000000000000000000000000000000000000000000000000000",
      "type": "0x2",
      "transactionHash": "0x80257b29538edac3dd6020fe7f9374753387c13cfce9f498da48d1d50ac4a22d",
      "transactionIndex": "0xd",
      "blockHash": "0x4d55e4a3b2761e8719aeb04c9d9b9539631ef7af9ced09149293ccfa92939108",
      "blockNumber": "0x388a6d",
      "gasUsed": "0x25fb4",
      "effectiveGasPrice": "0x5d21dba01",
      "from": "0x56fd3f2bee130e9867942d0f463a16fbe49b8d81",
      "to": "0xbea02da2fef22ad1b47d204e592a63c77bd44944",
      "contractAddress": null,
      "l1BaseFeeScalar": "0x0",
      "l1BlobBaseFee": "0x1",
      "l1BlobBaseFeeScalar": "0x0",
      "l1Fee": "0x0",
      "l1GasPrice": "0x8455ee",
      "l1GasUsed": "0x640"
    },
    {
      "status": "0x1",
      "cumulativeGasUsed": "0x1ff458",
      "logs": [
        {
          "address": "0x691ab9aff4a36e1fcb9c2d9a366cc0e176c5e4fc",
          "topics": [
            "0x7cebb17173a9ed273d2b7538f64395c0ebf352ff743f1cf8ce66b437a6144213",
            "0x0000000000000000000000006c4a6765bcfc7e7fc5b01eefe931885a79dde791",
            "0x0000000000000000000000005dfa86d3660a63aaf274e70bf89c9087615a65c3"
          ],
          "data": "0x0000000000000000000000000000000000000000000000000000000068b98801000000000000000000000000000000000000000000000be9c16b4e06044e0000",
          "blockHash": "0x4d55e4a3b2761e8719aeb04c9d9b9539631ef7af9ced09149293ccfa92939108",
          "blockNumber": "0x388a6d",
          "transactionHash": "0x93647342d4946c45dba1fee6618b5a6f3452f53b90c49e5b42b40f74d61db8c6",
          "transactionIndex": "0xe",
          "logIndex": "0x14",
          "removed": false
        },
        {
          "address": "0x691ab9aff4a36e1fcb9c2d9a366cc0e176c5e4fc",
          "topics": [
            "0xa9981ebfc3b766a742486e898f54959b050a66006dbce1a4155c1f84a08bcf41",
            "0x0000000000000000000000006c4a6765bcfc7e7fc5b01eefe931885a79dde791"
          ],
          "data": "0x000000000000000000000000000000000000000000000be9c16b4e06044e0000",
          "blockHash": "0x4d55e4a3b2761e8719aeb04c9d9b9539631ef7af9ced09149293ccfa92939108",
          "blockNumber": "0x388a6d",
          "transactionHash": "0x93647342d4946c45dba1fee6618b5a6f3452f53b90c49e5b42b40f74d61db8c6",
          "transactionIndex": "0xe",
          "logIndex": "0x15",
          "removed": false
        }
      ],
      "logsBloom": "0x00800000000000000000000000000000000000000000000000000000000000000040000000000000000000000000000800000000000000000000000000100000000000000000000000000000000000000000000004000000000000000000000200000000000020000000000000008000000000000000000000000040000000000000000000000000400000000000000000000000000000000000000000000000200000800000000000000008000000000000000000000000000000000000000000000000000000000000000000000000000000000000000000000000000000000000000000000000000000000000000000000000020000000000000000200000",
      "type": "0x2",
      "transactionHash": "0x93647342d4946c45dba1fee6618b5a6f3452f53b90c49e5b42b40f74d61db8c6",
      "transactionIndex": "0xe",
      "blockHash": "0x4d55e4a3b2761e8719aeb04c9d9b9539631ef7af9ced09149293ccfa92939108",
      "blockNumber": "0x388a6d",
      "gasUsed": "0x25fb4",
      "effectiveGasPrice": "0x5d21dba01",
      "from": "0x56fd3f2bee130e9867942d0f463a16fbe49b8d81",
      "to": "0x5dfa86d3660a63aaf274e70bf89c9087615a65c3",
      "contractAddress": null,
      "l1BaseFeeScalar": "0x0",
      "l1BlobBaseFee": "0x1",
      "l1BlobBaseFeeScalar": "0x0",
      "l1Fee": "0x0",
      "l1GasPrice": "0x8455ee",
      "l1GasUsed": "0x640"
    },
    {
      "status": "0x1",
      "cumulativeGasUsed": "0x22540c",
      "logs": [
        {
          "address": "0x691ab9aff4a36e1fcb9c2d9a366cc0e176c5e4fc",
          "topics": [
            "0x7cebb17173a9ed273d2b7538f64395c0ebf352ff743f1cf8ce66b437a6144213",
            "0x00000000000000000000000002996d13041557032ffb3e910966f9ea784dfec4",
            "0x00000000000000000000000041cee890564872045e770ed522e3d2bf5ff1acfd"
          ],
          "data": "0x0000000000000000000000000000000000000000000000000000000068b9880100000000000000000000000000000000000000000000992ba6c8f5b7a73a0000",
          "blockHash": "0x4d55e4a3b2761e8719aeb04c9d9b9539631ef7af9ced09149293ccfa92939108",
          "blockNumber": "0x388a6d",
          "transactionHash": "0x1edca6cde5d2be25319b71760037362c121205b79c2244d874b4a001bf00482a",
          "transactionIndex": "0xf",
          "logIndex": "0x16",
          "removed": false
        },
        {
          "address": "0x691ab9aff4a36e1fcb9c2d9a366cc0e176c5e4fc",
          "topics": [
            "0xa9981ebfc3b766a742486e898f54959b050a66006dbce1a4155c1f84a08bcf41",
            "0x00000000000000000000000002996d13041557032ffb3e910966f9ea784dfec4"
          ],
          "data": "0x00000000000000000000000000000000000000000000992ba6c8f5b7a73a0000",
          "blockHash": "0x4d55e4a3b2761e8719aeb04c9d9b9539631ef7af9ced09149293ccfa92939108",
          "blockNumber": "0x388a6d",
          "transactionHash": "0x1edca6cde5d2be25319b71760037362c121205b79c2244d874b4a001bf00482a",
          "transactionIndex": "0xf",
          "logIndex": "0x17",
          "removed": false
        }
      ],
      "logsBloom": "0x00800000000000000000000000000000000000000000000000000000400000000000000000000000000000000000000800000000000000000000000000100000000000000000000000000000000000000000000004000000000000000000000000000000000001000000000000008000000010000000000000040000000000000000000000000000400000000000000000000000000000000000000000000000200000a00000000000000008000000000000000000000000000000000000000000000000000000000000000000000000000000000000000000000000000000000000000000000000000000000000008000000000000000000000000000000000",
      "type": "0x2",
      "transactionHash": "0x1edca6cde5d2be25319b71760037362c121205b79c2244d874b4a001bf00482a",
      "transactionIndex": "0xf",
      "blockHash": "0x4d55e4a3b2761e8719aeb04c9d9b9539631ef7af9ced09149293ccfa92939108",
      "blockNumber": "0x388a6d",
      "gasUsed": "0x25fb4",
      "effectiveGasPrice": "0x5d21dba01",
      "from": "0x56fd3f2bee130e9867942d0f463a16fbe49b8d81",
      "to": "0x41cee890564872045e770ed522e3d2bf5ff1acfd",
      "contractAddress": null,
      "l1BaseFeeScalar": "0x0",
      "l1BlobBaseFee": "0x1",
      "l1BlobBaseFeeScalar": "0x0",
      "l1Fee": "0x0",
      "l1GasPrice": "0x8455ee",
      "l1GasUsed": "0x640"
    },
    {
      "status": "0x1",
      "cumulativeGasUsed": "0x24b3c0",
      "logs": [
        {
          "address": "0x691ab9aff4a36e1fcb9c2d9a366cc0e176c5e4fc",
          "topics": [
            "0x7cebb17173a9ed273d2b7538f64395c0ebf352ff743f1cf8ce66b437a6144213",
            "0x0000000000000000000000005c0c9efb14a767ce50a687ac4658cce705407380",
            "0x00000000000000000000000039e6ed41f651624c90778c0f785c283a124bb52a"
          ],
          "data": "0x0000000000000000000000000000000000000000000000000000000068b988010000000000000000000000000000000000000000000089f2174fc7f04ad80000",
          "blockHash": "0x4d55e4a3b2761e8719aeb04c9d9b9539631ef7af9ced09149293ccfa92939108",
          "blockNumber": "0x388a6d",
          "transactionHash": "0x8f8f388a996335b7eca5a98e9adc72a84d765936eeea46081b2a7b3442771b55",
          "transactionIndex": "0x10",
          "logIndex": "0x18",
          "removed": false
        },
        {
          "address": "0x691ab9aff4a36e1fcb9c2d9a366cc0e176c5e4fc",
          "topics": [
            "0xa9981ebfc3b766a742486e898f54959b050a66006dbce1a4155c1f84a08bcf41",
            "0x0000000000000000000000005c0c9efb14a767ce50a687ac4658cce705407380"
          ],
          "data": "0x0000000000000000000000000000000000000000000089f2174fc7f04ad80000",
          "blockHash": "0x4d55e4a3b2761e8719aeb04c9d9b9539631ef7af9ced09149293ccfa92939108",
          "blockNumber": "0x388a6d",
          "transactionHash": "0x8f8f388a996335b7eca5a98e9adc72a84d765936eeea46081b2a7b3442771b55",
          "transactionIndex": "0x10",
          "logIndex": "0x19",
          "removed": false
        }
      ],
      "logsBloom": "0x00800000000000000000000000000000000400000000000000000000000000000000000000000000000000020000000800000000000000000000000000100000000000000000000000000000000000000000000004000000000000000000000000000000000000000000000000008000000000000000000000000000000000000000000000000000400000000000000000000000000000000000000000000000200000800000000000000008000000000000000100000000000000000000000000000001000000000000002000000000000000000000000000000000000000000000000000000000000000000000000000000000000000000000001000000000",
      "type": "0x2",
      "transactionHash": "0x8f8f388a996335b7eca5a98e9adc72a84d765936eeea46081b2a7b3442771b55",
      "transactionIndex": "0x10",
      "blockHash": "0x4d55e4a3b2761e8719aeb04c9d9b9539631ef7af9ced09149293ccfa92939108",
      "blockNumber": "0x388a6d",
      "gasUsed": "0x25fb4",
      "effectiveGasPrice": "0x5d21dba01",
      "from": "0x56fd3f2bee130e9867942d0f463a16fbe49b8d81",
      "to": "0x39e6ed41f651624c90778c0f785c283a124bb52a",
      "contractAddress": null,
      "l1BaseFeeScalar": "0x0",
      "l1BlobBaseFee": "0x1",
      "l1BlobBaseFeeScalar": "0x0",
      "l1Fee": "0x0",
      "l1GasPrice": "0x8455ee",
      "l1GasUsed": "0x640"
    },
    {
      "status": "0x1",
      "cumulativeGasUsed": "0x271374",
      "logs": [
        {
          "address": "0x691ab9aff4a36e1fcb9c2d9a366cc0e176c5e4fc",
          "topics": [
            "0x7cebb17173a9ed273d2b7538f64395c0ebf352ff743f1cf8ce66b437a6144213",
            "0x0000000000000000000000002ee56be22d6af8c1b0ac97149b6f42d3b0bfb8c2",
            "0x0000000000000000000000005eb3f5b9d4315cda410c98be788a14e0df320fb8"
          ],
          "data": "0x0000000000000000000000000000000000000000000000000000000068b988010000000000000000000000000000000000000000000106dfc572722e3c630000",
          "blockHash": "0x4d55e4a3b2761e8719aeb04c9d9b9539631ef7af9ced09149293ccfa92939108",
          "blockNumber": "0x388a6d",
          "transactionHash": "0xa54527b2f0723c4867e4ad0fb42e14734783781725dfd9997eb330a345f4ae79",
          "transactionIndex": "0x11",
          "logIndex": "0x1a",
          "removed": false
        },
        {
          "address": "0x691ab9aff4a36e1fcb9c2d9a366cc0e176c5e4fc",
          "topics": [
            "0xa9981ebfc3b766a742486e898f54959b050a66006dbce1a4155c1f84a08bcf41",
            "0x0000000000000000000000002ee56be22d6af8c1b0ac97149b6f42d3b0bfb8c2"
          ],
          "data": "0x0000000000000000000000000000000000000000000106dfc572722e3c630000",
          "blockHash": "0x4d55e4a3b2761e8719aeb04c9d9b9539631ef7af9ced09149293ccfa92939108",
          "blockNumber": "0x388a6d",
          "transactionHash": "0xa54527b2f0723c4867e4ad0fb42e14734783781725dfd9997eb330a345f4ae79",
          "transactionIndex": "0x11",
          "logIndex": "0x1b",
          "removed": false
        }
      ],
      "logsBloom": "0x00800000000000000000000000000000000000000000000000000000000000000000000000000000000000000000000800000000000000000000001000100000000000000000000000000000000000000000100004000000000000000000000000000000000000000000000000008000000000000000000000000000000000000000000000000000400800000000000000000000000000800000000200000000200000800000000000000008000000000000000000000000000000000000000000000000000000000000000000000000000000000000000000000000000000000000000000000000000000000000000000000000000000000000040000000000",
      "type": "0x2",
      "transactionHash": "0xa54527b2f0723c4867e4ad0fb42e14734783781725dfd9997eb330a345f4ae79",
      "transactionIndex": "0x11",
      "blockHash": "0x4d55e4a3b2761e8719aeb04c9d9b9539631ef7af9ced09149293ccfa92939108",
      "blockNumber": "0x388a6d",
      "gasUsed": "0x25fb4",
      "effectiveGasPrice": "0x5d21dba01",
      "from": "0x56fd3f2bee130e9867942d0f463a16fbe49b8d81",
      "to": "0x5eb3f5b9d4315cda410c98be788a14e0df320fb8",
      "contractAddress": null,
      "l1BaseFeeScalar": "0x0",
      "l1BlobBaseFee": "0x1",
      "l1BlobBaseFeeScalar": "0x0",
      "l1Fee": "0x0",
      "l1GasPrice": "0x8455ee",
      "l1GasUsed": "0x640"
    },
    {
      "status": "0x1",
      "cumulativeGasUsed": "0x297328",
      "logs": [
        {
          "address": "0x691ab9aff4a36e1fcb9c2d9a366cc0e176c5e4fc",
          "topics": [
            "0x7cebb17173a9ed273d2b7538f64395c0ebf352ff743f1cf8ce66b437a6144213",
            "0x000000000000000000000000b9addcd1d1ce7d49dbb540e2677f1c572bc8d195",
            "0x0000000000000000000000005335bd8ad99c14be976f2c1eac64c3365315d88e"
          ],
          "data": "0x0000000000000000000000000000000000000000000000000000000068b9880100000000000000000000000000000000000000000000016d507819fd50de0000",
          "blockHash": "0x4d55e4a3b2761e8719aeb04c9d9b9539631ef7af9ced09149293ccfa92939108",
          "blockNumber": "0x388a6d",
          "transactionHash": "0x9953130e412b0f75e21d32479a7ce82172efde7b6d0fdac3f5fa822e9f6ad887",
          "transactionIndex": "0x12",
          "logIndex": "0x1c",
          "removed": false
        },
        {
          "address": "0x691ab9aff4a36e1fcb9c2d9a366cc0e176c5e4fc",
          "topics": [
            "0xa9981ebfc3b766a742486e898f54959b050a66006dbce1a4155c1f84a08bcf41",
            "0x000000000000000000000000b9addcd1d1ce7d49dbb540e2677f1c572bc8d195"
          ],
          "data": "0x00000000000000000000000000000000000000000000016d507819fd50de0000",
          "blockHash": "0x4d55e4a3b2761e8719aeb04c9d9b9539631ef7af9ced09149293ccfa92939108",
          "blockNumber": "0x388a6d",
          "transactionHash": "0x9953130e412b0f75e21d32479a7ce82172efde7b6d0fdac3f5fa822e9f6ad887",
          "transactionIndex": "0x12",
          "logIndex": "0x1d",
          "removed": false
        }
      ],
      "logsBloom": "0x00800000000000000000000000000000000000000000000000000000000000000000000000000000000000000000000800000000000000000000000000100000000000000000000000000000000000000000000004000000000001000000000000000000000000000000000000008000000000000000000000000000000000000000000000000000420000000000000000000000000000000000000000000000200000800000000000000008000000000000000000000000000000000000000000000000000000000000000000000000000000020000000000000000100000000000100000000000000000000000000004000000000000000000000000000000",
      "type": "0x2",
      "transactionHash": "0x9953130e412b0f75e21d32479a7ce82172efde7b6d0fdac3f5fa822e9f6ad887",
      "transactionIndex": "0x12",
      "blockHash": "0x4d55e4a3b2761e8719aeb04c9d9b9539631ef7af9ced09149293ccfa92939108",
      "blockNumber": "0x388a6d",
      "gasUsed": "0x25fb4",
      "effectiveGasPrice": "0x5d21dba01",
      "from": "0x56fd3f2bee130e9867942d0f463a16fbe49b8d81",
      "to": "0x5335bd8ad99c14be976f2c1eac64c3365315d88e",
      "contractAddress": null,
      "l1BaseFeeScalar": "0x0",
      "l1BlobBaseFee": "0x1",
      "l1BlobBaseFeeScalar": "0x0",
      "l1Fee": "0x0",
      "l1GasPrice": "0x8455ee",
      "l1GasUsed": "0x640"
    },
    {
      "status": "0x1",
      "cumulativeGasUsed": "0x2bc171",
      "logs": [
        {
          "address": "0x691ab9aff4a36e1fcb9c2d9a366cc0e176c5e4fc",
          "topics": [
            "0x7cebb17173a9ed273d2b7538f64395c0ebf352ff743f1cf8ce66b437a6144213",
            "0x000000000000000000000000d772efe6507b7d8cdc8c4d8870931439fbeeb929",
            "0x0000000000000000000000008700b6031a3c31edbf9a37426ea6a904303d2230"
          ],
          "data": "0x0000000000000000000000000000000000000000000000000000000068b988010000000000000000000000000000000000000000000000239228f4603d60c000",
          "blockHash": "0x4d55e4a3b2761e8719aeb04c9d9b9539631ef7af9ced09149293ccfa92939108",
          "blockNumber": "0x388a6d",
          "transactionHash": "0x35e02959be8482a8345d42e69bfd1c1f680943f5a128385c127867f3a3ff6bdd",
          "transactionIndex": "0x13",
          "logIndex": "0x1e",
          "removed": false
        }
      ],
      "logsBloom": "0x00800020000000000000000000000000000000000000000000000000000000040000000000000200000000000000000800000000000000000000000000100800000000000000000000000000000000000000000000000000000000000000000000000000000000000000000000088000000000000000000000000000000000000000000000000000000000000000000000000000000000000000000000000000200000000000000000000008000000000000000000000000000000000000000000000000000000001000000000000000000000000000000000000000000000000000000000000000000000000000000000000000000000000000000000000000",
      "type": "0x2",
      "transactionHash": "0x35e02959be8482a8345d42e69bfd1c1f680943f5a128385c127867f3a3ff6bdd",
      "transactionIndex": "0x13",
      "blockHash": "0x4d55e4a3b2761e8719aeb04c9d9b9539631ef7af9ced09149293ccfa92939108",
      "blockNumber": "0x388a6d",
      "gasUsed": "0x24e49",
      "effectiveGasPrice": "0x5d21dba01",
      "from": "0x56fd3f2bee130e9867942d0f463a16fbe49b8d81",
      "to": "0x8700b6031a3c31edbf9a37426ea6a904303d2230",
      "contractAddress": null,
      "l1BaseFeeScalar": "0x0",
      "l1BlobBaseFee": "0x1",
      "l1BlobBaseFeeScalar": "0x0",
      "l1Fee": "0x0",
      "l1GasPrice": "0x8455ee",
      "l1GasUsed": "0x640"
    }
  ],
  "libraries": [
    "node_modules/@celo/contracts/common/linkedlists/AddressSortedLinkedListWithMedian.sol:AddressSortedLinkedListWithMedian:0x1aD9B2599975E8CDF5629aFaBA8852269f1A1364"
  ],
  "pending": [],
  "returns": {},
  "timestamp": 1756989442817,
  "chain": 11142220,
  "commit": "7dc8151"
}