{
  "transactions": [
    {
      "hash": "0x6af610d8f3d5c69cb15ce93ce6fdd5b5adc30960489fd68037cad140cca4e370",
      "transactionType": "CALL",
      "contractName": null,
      "contractAddress": "0x712959a392488f3eae92c7d2d66517fc3ec829d0",
      "function": "report(int256,uint256)",
      "arguments": [
        "99984990",
        "1756986289"
      ],
      "transaction": {
        "from": "0x56fd3f2bee130e9867942d0f463a16fbe49b8d81",
        "to": "0x712959a392488f3eae92c7d2d66517fc3ec829d0",
        "gas": "0xb6a5",
        "value": "0x0",
        "input": "0x0f3d249d0000000000000000000000000000000000000000000000000000000005f5a65e0000000000000000000000000000000000000000000000000000000068b97bb1",
        "nonce": "0x25c",
        "chainId": "0xaa044c"
      },
      "additionalContracts": [],
      "isFixedGasLimit": false
    },
    {
      "hash": "0x89963e85fa3a85d30c79ca2f2627f7c28ddd7e610a34a3db3c4f4f6a45d9d263",
      "transactionType": "CALL",
      "contractName": null,
      "contractAddress": "0xb130563ad59b4367de850eb71b6839eade134b05",
      "function": "report(int256,uint256)",
      "arguments": [
        "100025981",
        "1756986494"
      ],
      "transaction": {
        "from": "0x56fd3f2bee130e9867942d0f463a16fbe49b8d81",
        "to": "0xb130563ad59b4367de850eb71b6839eade134b05",
        "gas": "0xb6a5",
        "value": "0x0",
        "input": "0x0f3d249d0000000000000000000000000000000000000000000000000000000005f6467d0000000000000000000000000000000000000000000000000000000068b97c7e",
        "nonce": "0x25d",
        "chainId": "0xaa044c"
      },
      "additionalContracts": [],
      "isFixedGasLimit": false
    },
    {
      "hash": "0x11b1094cbead5fe9c38b6f249f5809378282f6873bf2c5a6f8c7fc8369ab8bfa",
      "transactionType": "CALL",
      "contractName": null,
      "contractAddress": "0xa0a403b75580072a8e486f82253a407ba9bae0cb",
      "function": "report(int256,uint256)",
      "arguments": [
        "116455071",
        "1756986440"
      ],
      "transaction": {
        "from": "0x56fd3f2bee130e9867942d0f463a16fbe49b8d81",
        "to": "0xa0a403b75580072a8e486f82253a407ba9bae0cb",
        "gas": "0xb6a5",
        "value": "0x0",
        "input": "0x0f3d249d0000000000000000000000000000000000000000000000000000000006f0f69f0000000000000000000000000000000000000000000000000000000068b97c48",
        "nonce": "0x25e",
        "chainId": "0xaa044c"
      },
      "additionalContracts": [],
      "isFixedGasLimit": false
    },
    {
      "hash": "0xf0f6d9de0da9a4d419fb534910fc70d1a993a074c38a0e939b5094ad36feb9bc",
      "transactionType": "CALL",
      "contractName": null,
      "contractAddress": "0x5995fb71215c9ea02753092aacf47885bfa1a988",
      "function": "report(int256,uint256)",
      "arguments": [
        "29204517",
        "1756986304"
      ],
      "transaction": {
        "from": "0x56fd3f2bee130e9867942d0f463a16fbe49b8d81",
        "to": "0x5995fb71215c9ea02753092aacf47885bfa1a988",
        "gas": "0xb6a5",
        "value": "0x0",
        "input": "0x0f3d249d0000000000000000000000000000000000000000000000000000000001bda0250000000000000000000000000000000000000000000000000000000068b97bc0",
        "nonce": "0x25f",
        "chainId": "0xaa044c"
      },
      "additionalContracts": [],
      "isFixedGasLimit": false
    },
    {
      "hash": "0x4351ebcb67cb9067e4bdd9957994eff5e1e74a77d035855beb57ec0a2a1541f2",
      "transactionType": "CALL",
      "contractName": null,
      "contractAddress": "0x44a7e7d4de5a4d6f5db9d174943214b926fd07d1",
      "function": "report(int256,uint256)",
      "arguments": [
        "116455071",
        "1756986440"
      ],
      "transaction": {
        "from": "0x56fd3f2bee130e9867942d0f463a16fbe49b8d81",
        "to": "0x44a7e7d4de5a4d6f5db9d174943214b926fd07d1",
        "gas": "0xb6a5",
        "value": "0x0",
        "input": "0x0f3d249d0000000000000000000000000000000000000000000000000000000006f0f69f0000000000000000000000000000000000000000000000000000000068b97c48",
        "nonce": "0x260",
        "chainId": "0xaa044c"
      },
      "additionalContracts": [],
      "isFixedGasLimit": false
    },
    {
      "hash": "0x228563559a0478c2af28695e16c733b6a45e3501a650c9b06176027305fdb11e",
      "transactionType": "CALL",
      "contractName": null,
      "contractAddress": "0xe30f631aac9762059c67135095c7d520221a0868",
      "function": "report(int256,uint256)",
      "arguments": [
        "18341220",
        "1756986274"
      ],
      "transaction": {
        "from": "0x56fd3f2bee130e9867942d0f463a16fbe49b8d81",
        "to": "0xe30f631aac9762059c67135095c7d520221a0868",
        "gas": "0xb6a5",
        "value": "0x0",
        "input": "0x0f3d249d000000000000000000000000000000000000000000000000000000000117dd640000000000000000000000000000000000000000000000000000000068b97ba2",
        "nonce": "0x261",
        "chainId": "0xaa044c"
      },
      "additionalContracts": [],
      "isFixedGasLimit": false
    },
    {
      "hash": "0xcc07469aec589940c53c0555d67c85528ab70cb7e35776da37debbdbdfcd4798",
      "transactionType": "CALL",
      "contractName": null,
      "contractAddress": "0xf364db584bc3b55df019044de85993c47e1b145a",
      "function": "report(int256,uint256)",
      "arguments": [
        "1772612778056472",
        "1756986307"
      ],
      "transaction": {
        "from": "0x56fd3f2bee130e9867942d0f463a16fbe49b8d81",
        "to": "0xf364db584bc3b55df019044de85993c47e1b145a",
        "gas": "0xb6d7",
        "value": "0x0",
        "input": "0x0f3d249d00000000000000000000000000000000000000000000000000064c2e92f5db180000000000000000000000000000000000000000000000000000000068b97bc3",
        "nonce": "0x262",
        "chainId": "0xaa044c"
      },
      "additionalContracts": [],
      "isFixedGasLimit": false
    },
    {
      "hash": "0x2f6c3d0f57b2d324a7d4619f624a63834a113d8a8b5272798e1fd5fac433cfa2",
      "transactionType": "CALL",
      "contractName": null,
      "contractAddress": "0x0d1a55b9a06fe8aa48eb87251fbd959d121ea843",
      "function": "report(int256,uint256)",
      "arguments": [
        "7735148514851485",
        "1756986506"
      ],
      "transaction": {
        "from": "0x56fd3f2bee130e9867942d0f463a16fbe49b8d81",
        "to": "0x0d1a55b9a06fe8aa48eb87251fbd959d121ea843",
        "gas": "0xb6d7",
        "value": "0x0",
        "input": "0x0f3d249d000000000000000000000000000000000000000000000000001b7b139b833a9d0000000000000000000000000000000000000000000000000000000068b97c8a",
        "nonce": "0x263",
        "chainId": "0xaa044c"
      },
      "additionalContracts": [],
      "isFixedGasLimit": false
    },
    {
      "hash": "0x3c79e838e9d40763f91cd2c5b6469cfa7b3907816b143ce6ae92c8d2d8aa2d8f",
      "transactionType": "CALL",
      "contractName": null,
      "contractAddress": "0x7a2f69a58f0dae429cc6de1e6fcb6260041c7464",
      "function": "report(int256,uint256)",
      "arguments": [
        "1750462",
        "1756986418"
      ],
      "transaction": {
        "from": "0x56fd3f2bee130e9867942d0f463a16fbe49b8d81",
        "to": "0x7a2f69a58f0dae429cc6de1e6fcb6260041c7464",
        "gas": "0xb695",
        "value": "0x0",
        "input": "0x0f3d249d00000000000000000000000000000000000000000000000000000000001ab5be0000000000000000000000000000000000000000000000000000000068b97c32",
        "nonce": "0x264",
        "chainId": "0xaa044c"
      },
      "additionalContracts": [],
      "isFixedGasLimit": false
    },
    {
      "hash": "0xc745acf037e90935b78c6ae200dc1f2b6f547e05fbb03c97ad99ca6828185734",
      "transactionType": "CALL",
      "contractName": null,
      "contractAddress": "0x97fd9624af571a5291d6b5aa0f7db7de8b5e0398",
      "function": "report(int256,uint256)",
      "arguments": [
        "24975",
        "1756986425"
      ],
      "transaction": {
        "from": "0x56fd3f2bee130e9867942d0f463a16fbe49b8d81",
        "to": "0x97fd9624af571a5291d6b5aa0f7db7de8b5e0398",
        "gas": "0xa769",
        "value": "0x0",
        "input": "0x0f3d249d000000000000000000000000000000000000000000000000000000000000618f0000000000000000000000000000000000000000000000000000000068b97c39",
        "nonce": "0x265",
        "chainId": "0xaa044c"
      },
      "additionalContracts": [],
      "isFixedGasLimit": false
    },
    {
      "hash": "0xa748f741910fd5d071d6a18c3d55a50af8d6e78010152b088b73256252a7435c",
      "transactionType": "CALL",
      "contractName": null,
      "contractAddress": "0x04a1e7bbd987a7f86ca10ea36023884e45e46bd7",
      "function": "report(int256,uint256)",
      "arguments": [
        "8295932",
        "1756986386"
      ],
      "transaction": {
        "from": "0x56fd3f2bee130e9867942d0f463a16fbe49b8d81",
        "to": "0x04a1e7bbd987a7f86ca10ea36023884e45e46bd7",
        "gas": "0xb695",
        "value": "0x0",
        "input": "0x0f3d249d00000000000000000000000000000000000000000000000000000000007e95fc0000000000000000000000000000000000000000000000000000000068b97c12",
        "nonce": "0x266",
        "chainId": "0xaa044c"
      },
      "additionalContracts": [],
      "isFixedGasLimit": false
    },
    {
      "hash": "0x7ed546bc3bc1dd3fefc3c06eccaad3fb0baf9996186345ce0361537a24521617",
      "transactionType": "CALL",
      "contractName": null,
      "contractAddress": "0x56029056ccc623115d05473cee7d1aacac830185",
      "function": "report(int256,uint256)",
      "arguments": [
        "134330000",
        "1756986269"
      ],
      "transaction": {
        "from": "0x56fd3f2bee130e9867942d0f463a16fbe49b8d81",
        "to": "0x56029056ccc623115d05473cee7d1aacac830185",
        "gas": "0xb6a5",
        "value": "0x0",
        "input": "0x0f3d249d000000000000000000000000000000000000000000000000000000000801b6900000000000000000000000000000000000000000000000000000000068b97b9d",
        "nonce": "0x267",
        "chainId": "0xaa044c"
      },
      "additionalContracts": [],
      "isFixedGasLimit": false
    },
    {
      "hash": "0x2c83554fcb5111df8f0c6ac8f410e103ad725fa3036d3972468374ce2f9b7283",
      "transactionType": "CALL",
      "contractName": null,
      "contractAddress": "0x1d866336d9c2f1c9737aca853347838e0a9e0559",
      "function": "report(int256,uint256)",
      "arguments": [
        "5613719",
        "1756986453"
      ],
      "transaction": {
        "from": "0x56fd3f2bee130e9867942d0f463a16fbe49b8d81",
        "to": "0x1d866336d9c2f1c9737aca853347838e0a9e0559",
        "gas": "0xb695",
        "value": "0x0",
        "input": "0x0f3d249d000000000000000000000000000000000000000000000000000000000055a8970000000000000000000000000000000000000000000000000000000068b97c55",
        "nonce": "0x268",
        "chainId": "0xaa044c"
      },
      "additionalContracts": [],
      "isFixedGasLimit": false
    },
    {
      "hash": "0xc084f431484b97ddcb19de6c294e6fa004fe23953487d2c0d31ff59e33b2f3e8",
      "transactionType": "CALL",
      "contractName": null,
      "contractAddress": "0x8c947e599bea1f0469d5e2633a6e030910336d11",
      "function": "report(int256,uint256)",
      "arguments": [
        "72343196",
        "1756986342"
      ],
      "transaction": {
        "from": "0x56fd3f2bee130e9867942d0f463a16fbe49b8d81",
        "to": "0x8c947e599bea1f0469d5e2633a6e030910336d11",
        "gas": "0xb6a5",
        "value": "0x0",
        "input": "0x0f3d249d00000000000000000000000000000000000000000000000000000000044fde9c0000000000000000000000000000000000000000000000000000000068b97be6",
        "nonce": "0x269",
        "chainId": "0xaa044c"
      },
      "additionalContracts": [],
      "isFixedGasLimit": false
    },
    {
      "hash": "0x946bac09ced3335fb3e013f87cfd8ee67be3e043e23d8d9712bca3a4c0ef2616",
      "transactionType": "CALL",
      "contractName": null,
      "contractAddress": "0xdee315fc7023de5a99fbc68a1ca6c0266a897b17",
      "function": "report(int256,uint256)",
      "arguments": [
        "65164000",
        "1756986328"
      ],
      "transaction": {
        "from": "0x56fd3f2bee130e9867942d0f463a16fbe49b8d81",
        "to": "0xdee315fc7023de5a99fbc68a1ca6c0266a897b17",
        "gas": "0xb6a5",
        "value": "0x0",
        "input": "0x0f3d249d0000000000000000000000000000000000000000000000000000000003e252e00000000000000000000000000000000000000000000000000000000068b97bd8",
        "nonce": "0x26a",
        "chainId": "0xaa044c"
      },
      "additionalContracts": [],
      "isFixedGasLimit": false
    },
    {
      "hash": "0xc9e499057cddb2ccc3f961abcfdb63abc8fedc61a566a590319eca7f7a12e389",
      "transactionType": "CALL",
      "contractName": null,
      "contractAddress": "0x703691155cd4006ed14361023ec35599cfb33a19",
      "function": "report(int256,uint256)",
      "arguments": [
        "124100600",
        "1756986478"
      ],
      "transaction": {
        "from": "0x56fd3f2bee130e9867942d0f463a16fbe49b8d81",
        "to": "0x703691155cd4006ed14361023ec35599cfb33a19",
        "gas": "0xb6a5",
        "value": "0x0",
        "input": "0x0f3d249d0000000000000000000000000000000000000000000000000000000007659ff80000000000000000000000000000000000000000000000000000000068b97c6e",
        "nonce": "0x26b",
        "chainId": "0xaa044c"
      },
      "additionalContracts": [],
      "isFixedGasLimit": false
    },
    {
      "hash": "0x61f33d4659f112651edd597b87d2ee1d905cca1aa15657fe3f4a7112073016c0",
      "transactionType": "CALL",
      "contractName": null,
      "contractAddress": "0x8003d6ea2954e8fa12c420e189777b2a7d989653",
      "function": "report(int256,uint256)",
      "arguments": [
        "674217",
        "1756986523"
      ],
      "transaction": {
        "from": "0x56fd3f2bee130e9867942d0f463a16fbe49b8d81",
        "to": "0x8003d6ea2954e8fa12c420e189777b2a7d989653",
        "gas": "0xb695",
        "value": "0x0",
        "input": "0x0f3d249d00000000000000000000000000000000000000000000000000000000000a49a90000000000000000000000000000000000000000000000000000000068b97c9b",
        "nonce": "0x26c",
        "chainId": "0xaa044c"
      },
      "additionalContracts": [],
      "isFixedGasLimit": false
    },
    {
      "hash": "0xc89fb816b24e277bdc77a1935343e87db549447ccb730fa652bfb11e9a8da8e8",
      "transactionType": "CALL",
      "contractName": null,
      "contractAddress": "0x5db4a1e964ce93f994ff56aaf96b39de73f073da",
      "function": "report(int256,uint256)",
      "arguments": [
        "655737704918032",
        "1756986351"
      ],
      "transaction": {
        "from": "0x56fd3f2bee130e9867942d0f463a16fbe49b8d81",
        "to": "0x5db4a1e964ce93f994ff56aaf96b39de73f073da",
        "gas": "0xb6d7",
        "value": "0x0",
        "input": "0x0f3d249d00000000000000000000000000000000000000000000000000025463d4f7ac100000000000000000000000000000000000000000000000000000000068b97bef",
        "nonce": "0x26d",
        "chainId": "0xaa044c"
      },
      "additionalContracts": [],
      "isFixedGasLimit": false
    },
    {
      "hash": "0x1be91626cdfde8614b3ae9e2edbcc534c5f506e630a2ffdae8ff43448be34861",
      "transactionType": "CALL",
      "contractName": null,
      "contractAddress": "0x737285328116fcc9edab850d6fa1583fae1152ce",
      "function": "relay()",
      "arguments": [],
      "transaction": {
        "from": "0x56fd3f2bee130e9867942d0f463a16fbe49b8d81",
        "to": "0x737285328116fcc9edab850d6fa1583fae1152ce",
        "gas": "0x41e20",
        "value": "0x0",
        "input": "0xb59589d1",
        "nonce": "0x26e",
        "chainId": "0xaa044c"
      },
      "additionalContracts": [],
      "isFixedGasLimit": false
    }
  ],
  "receipts": [
    {
      "status": "0x1",
      "cumulativeGasUsed": "0x13840",
      "logs": [],
      "logsBloom": "0x00000000000000000000000000000000000000000000000000000000000000000000000000000000000000000000000000000000000000000000000000000000000000000000000000000000000000000000000000000000000000000000000000000000000000000000000000000000000000000000000000000000000000000000000000000000000000000000000000000000000000000000000000000000000000000000000000000000000000000000000000000000000000000000000000000000000000000000000000000000000000000000000000000000000000000000000000000000000000000000000000000000000000000000000000000000",
      "type": "0x2",
      "transactionHash": "0x6af610d8f3d5c69cb15ce93ce6fdd5b5adc30960489fd68037cad140cca4e370",
      "transactionIndex": "0x1",
      "blockHash": "0xbcc6140fcd2f1ac67d16394709084b56f4108b39237ffdaf3eb71d4558b6022b",
      "blockNumber": "0x387f40",
      "gasUsed": "0x843c",
      "effectiveGasPrice": "0x5d21dba01",
      "from": "0x56fd3f2bee130e9867942d0f463a16fbe49b8d81",
      "to": "0x712959a392488f3eae92c7d2d66517fc3ec829d0",
      "contractAddress": null,
      "l1BaseFeeScalar": "0x0",
      "l1BlobBaseFee": "0x1",
      "l1BlobBaseFeeScalar": "0x0",
      "l1Fee": "0x0",
      "l1GasPrice": "0x2ade945",
      "l1GasUsed": "0x640"
    },
    {
      "status": "0x1",
      "cumulativeGasUsed": "0x1bc7c",
      "logs": [],
      "logsBloom": "0x00000000000000000000000000000000000000000000000000000000000000000000000000000000000000000000000000000000000000000000000000000000000000000000000000000000000000000000000000000000000000000000000000000000000000000000000000000000000000000000000000000000000000000000000000000000000000000000000000000000000000000000000000000000000000000000000000000000000000000000000000000000000000000000000000000000000000000000000000000000000000000000000000000000000000000000000000000000000000000000000000000000000000000000000000000000",
      "type": "0x2",
      "transactionHash": "0x89963e85fa3a85d30c79ca2f2627f7c28ddd7e610a34a3db3c4f4f6a45d9d263",
      "transactionIndex": "0x2",
      "blockHash": "0xbcc6140fcd2f1ac67d16394709084b56f4108b39237ffdaf3eb71d4558b6022b",
      "blockNumber": "0x387f40",
      "gasUsed": "0x843c",
      "effectiveGasPrice": "0x5d21dba01",
      "from": "0x56fd3f2bee130e9867942d0f463a16fbe49b8d81",
      "to": "0xb130563ad59b4367de850eb71b6839eade134b05",
      "contractAddress": null,
      "l1BaseFeeScalar": "0x0",
      "l1BlobBaseFee": "0x1",
      "l1BlobBaseFeeScalar": "0x0",
      "l1Fee": "0x0",
      "l1GasPrice": "0x2ade945",
      "l1GasUsed": "0x640"
    },
    {
      "status": "0x1",
      "cumulativeGasUsed": "0x240b8",
      "logs": [],
      "logsBloom": "0x00000000000000000000000000000000000000000000000000000000000000000000000000000000000000000000000000000000000000000000000000000000000000000000000000000000000000000000000000000000000000000000000000000000000000000000000000000000000000000000000000000000000000000000000000000000000000000000000000000000000000000000000000000000000000000000000000000000000000000000000000000000000000000000000000000000000000000000000000000000000000000000000000000000000000000000000000000000000000000000000000000000000000000000000000000000",
      "type": "0x2",
      "transactionHash": "0x11b1094cbead5fe9c38b6f249f5809378282f6873bf2c5a6f8c7fc8369ab8bfa",
      "transactionIndex": "0x3",
      "blockHash": "0xbcc6140fcd2f1ac67d16394709084b56f4108b39237ffdaf3eb71d4558b6022b",
      "blockNumber": "0x387f40",
      "gasUsed": "0x843c",
      "effectiveGasPrice": "0x5d21dba01",
      "from": "0x56fd3f2bee130e9867942d0f463a16fbe49b8d81",
      "to": "0xa0a403b75580072a8e486f82253a407ba9bae0cb",
      "contractAddress": null,
      "l1BaseFeeScalar": "0x0",
      "l1BlobBaseFee": "0x1",
      "l1BlobBaseFeeScalar": "0x0",
      "l1Fee": "0x0",
      "l1GasPrice": "0x2ade945",
      "l1GasUsed": "0x640"
    },
    {
      "status": "0x1",
      "cumulativeGasUsed": "0x2c4f4",
      "logs": [],
      "logsBloom": "0x00000000000000000000000000000000000000000000000000000000000000000000000000000000000000000000000000000000000000000000000000000000000000000000000000000000000000000000000000000000000000000000000000000000000000000000000000000000000000000000000000000000000000000000000000000000000000000000000000000000000000000000000000000000000000000000000000000000000000000000000000000000000000000000000000000000000000000000000000000000000000000000000000000000000000000000000000000000000000000000000000000000000000000000000000000000",
      "type": "0x2",
      "transactionHash": "0xf0f6d9de0da9a4d419fb534910fc70d1a993a074c38a0e939b5094ad36feb9bc",
      "transactionIndex": "0x4",
      "blockHash": "0xbcc6140fcd2f1ac67d16394709084b56f4108b39237ffdaf3eb71d4558b6022b",
      "blockNumber": "0x387f40",
      "gasUsed": "0x843c",
      "effectiveGasPrice": "0x5d21dba01",
      "from": "0x56fd3f2bee130e9867942d0f463a16fbe49b8d81",
      "to": "0x5995fb71215c9ea02753092aacf47885bfa1a988",
      "contractAddress": null,
      "l1BaseFeeScalar": "0x0",
      "l1BlobBaseFee": "0x1",
      "l1BlobBaseFeeScalar": "0x0",
      "l1Fee": "0x0",
      "l1GasPrice": "0x2ade945",
      "l1GasUsed": "0x640"
    },
    {
      "status": "0x1",
      "cumulativeGasUsed": "0x34930",
      "logs": [],
      "logsBloom": "0x00000000000000000000000000000000000000000000000000000000000000000000000000000000000000000000000000000000000000000000000000000000000000000000000000000000000000000000000000000000000000000000000000000000000000000000000000000000000000000000000000000000000000000000000000000000000000000000000000000000000000000000000000000000000000000000000000000000000000000000000000000000000000000000000000000000000000000000000000000000000000000000000000000000000000000000000000000000000000000000000000000000000000000000000000000000",
      "type": "0x2",
      "transactionHash": "0x4351ebcb67cb9067e4bdd9957994eff5e1e74a77d035855beb57ec0a2a1541f2",
      "transactionIndex": "0x5",
      "blockHash": "0xbcc6140fcd2f1ac67d16394709084b56f4108b39237ffdaf3eb71d4558b6022b",
      "blockNumber": "0x387f40",
      "gasUsed": "0x843c",
      "effectiveGasPrice": "0x5d21dba01",
      "from": "0x56fd3f2bee130e9867942d0f463a16fbe49b8d81",
      "to": "0x44a7e7d4de5a4d6f5db9d174943214b926fd07d1",
      "contractAddress": null,
      "l1BaseFeeScalar": "0x0",
      "l1BlobBaseFee": "0x1",
      "l1BlobBaseFeeScalar": "0x0",
      "l1Fee": "0x0",
      "l1GasPrice": "0x2ade945",
      "l1GasUsed": "0x640"
    },
    {
      "status": "0x1",
      "cumulativeGasUsed": "0x3cd6c",
      "logs": [],
      "logsBloom": "0x00000000000000000000000000000000000000000000000000000000000000000000000000000000000000000000000000000000000000000000000000000000000000000000000000000000000000000000000000000000000000000000000000000000000000000000000000000000000000000000000000000000000000000000000000000000000000000000000000000000000000000000000000000000000000000000000000000000000000000000000000000000000000000000000000000000000000000000000000000000000000000000000000000000000000000000000000000000000000000000000000000000000000000000000000000000",
      "type": "0x2",
      "transactionHash": "0x228563559a0478c2af28695e16c733b6a45e3501a650c9b06176027305fdb11e",
      "transactionIndex": "0x6",
      "blockHash": "0xbcc6140fcd2f1ac67d16394709084b56f4108b39237ffdaf3eb71d4558b6022b",
      "blockNumber": "0x387f40",
      "gasUsed": "0x843c",
      "effectiveGasPrice": "0x5d21dba01",
      "from": "0x56fd3f2bee130e9867942d0f463a16fbe49b8d81",
      "to": "0xe30f631aac9762059c67135095c7d520221a0868",
      "contractAddress": null,
      "l1BaseFeeScalar": "0x0",
      "l1BlobBaseFee": "0x1",
      "l1BlobBaseFeeScalar": "0x0",
      "l1Fee": "0x0",
      "l1GasPrice": "0x2ade945",
      "l1GasUsed": "0x640"
    },
    {
      "status": "0x1",
      "cumulativeGasUsed": "0x451cc",
      "logs": [],
      "logsBloom": "0x00000000000000000000000000000000000000000000000000000000000000000000000000000000000000000000000000000000000000000000000000000000000000000000000000000000000000000000000000000000000000000000000000000000000000000000000000000000000000000000000000000000000000000000000000000000000000000000000000000000000000000000000000000000000000000000000000000000000000000000000000000000000000000000000000000000000000000000000000000000000000000000000000000000000000000000000000000000000000000000000000000000000000000000000000000000",
      "type": "0x2",
      "transactionHash": "0xcc07469aec589940c53c0555d67c85528ab70cb7e35776da37debbdbdfcd4798",
      "transactionIndex": "0x7",
      "blockHash": "0xbcc6140fcd2f1ac67d16394709084b56f4108b39237ffdaf3eb71d4558b6022b",
      "blockNumber": "0x387f40",
      "gasUsed": "0x8460",
      "effectiveGasPrice": "0x5d21dba01",
      "from": "0x56fd3f2bee130e9867942d0f463a16fbe49b8d81",
      "to": "0xf364db584bc3b55df019044de85993c47e1b145a",
      "contractAddress": null,
      "l1BaseFeeScalar": "0x0",
      "l1BlobBaseFee": "0x1",
      "l1BlobBaseFeeScalar": "0x0",
      "l1Fee": "0x0",
      "l1GasPrice": "0x2ade945",
      "l1GasUsed": "0x640"
    },
    {
      "status": "0x1",
      "cumulativeGasUsed": "0x4d62c",
      "logs": [],
      "logsBloom": "0x00000000000000000000000000000000000000000000000000000000000000000000000000000000000000000000000000000000000000000000000000000000000000000000000000000000000000000000000000000000000000000000000000000000000000000000000000000000000000000000000000000000000000000000000000000000000000000000000000000000000000000000000000000000000000000000000000000000000000000000000000000000000000000000000000000000000000000000000000000000000000000000000000000000000000000000000000000000000000000000000000000000000000000000000000000000",
      "type": "0x2",
      "transactionHash": "0x2f6c3d0f57b2d324a7d4619f624a63834a113d8a8b5272798e1fd5fac433cfa2",
      "transactionIndex": "0x8",
      "blockHash": "0xbcc6140fcd2f1ac67d16394709084b56f4108b39237ffdaf3eb71d4558b6022b",
      "blockNumber": "0x387f40",
      "gasUsed": "0x8460",
      "effectiveGasPrice": "0x5d21dba01",
      "from": "0x56fd3f2bee130e9867942d0f463a16fbe49b8d81",
      "to": "0x0d1a55b9a06fe8aa48eb87251fbd959d121ea843",
      "contractAddress": null,
      "l1BaseFeeScalar": "0x0",
      "l1BlobBaseFee": "0x1",
      "l1BlobBaseFeeScalar": "0x0",
      "l1Fee": "0x0",
      "l1GasPrice": "0x2ade945",
      "l1GasUsed": "0x640"
    },
    {
      "status": "0x1",
      "cumulativeGasUsed": "0x55a5c",
      "logs": [],
      "logsBloom": "0x00000000000000000000000000000000000000000000000000000000000000000000000000000000000000000000000000000000000000000000000000000000000000000000000000000000000000000000000000000000000000000000000000000000000000000000000000000000000000000000000000000000000000000000000000000000000000000000000000000000000000000000000000000000000000000000000000000000000000000000000000000000000000000000000000000000000000000000000000000000000000000000000000000000000000000000000000000000000000000000000000000000000000000000000000000000",
      "type": "0x2",
      "transactionHash": "0x3c79e838e9d40763f91cd2c5b6469cfa7b3907816b143ce6ae92c8d2d8aa2d8f",
      "transactionIndex": "0x9",
      "blockHash": "0xbcc6140fcd2f1ac67d16394709084b56f4108b39237ffdaf3eb71d4558b6022b",
      "blockNumber": "0x387f40",
      "gasUsed": "0x8430",
      "effectiveGasPrice": "0x5d21dba01",
      "from": "0x56fd3f2bee130e9867942d0f463a16fbe49b8d81",
      "to": "0x7a2f69a58f0dae429cc6de1e6fcb6260041c7464",
      "contractAddress": null,
      "l1BaseFeeScalar": "0x0",
      "l1BlobBaseFee": "0x1",
      "l1BlobBaseFeeScalar": "0x0",
      "l1Fee": "0x0",
      "l1GasPrice": "0x2ade945",
      "l1GasUsed": "0x640"
    },
    {
      "status": "0x1",
      "cumulativeGasUsed": "0x5d390",
      "logs": [],
      "logsBloom": "0x00000000000000000000000000000000000000000000000000000000000000000000000000000000000000000000000000000000000000000000000000000000000000000000000000000000000000000000000000000000000000000000000000000000000000000000000000000000000000000000000000000000000000000000000000000000000000000000000000000000000000000000000000000000000000000000000000000000000000000000000000000000000000000000000000000000000000000000000000000000000000000000000000000000000000000000000000000000000000000000000000000000000000000000000000000000",
      "type": "0x2",
      "transactionHash": "0xc745acf037e90935b78c6ae200dc1f2b6f547e05fbb03c97ad99ca6828185734",
      "transactionIndex": "0xa",
      "blockHash": "0xbcc6140fcd2f1ac67d16394709084b56f4108b39237ffdaf3eb71d4558b6022b",
      "blockNumber": "0x387f40",
      "gasUsed": "0x7934",
      "effectiveGasPrice": "0x5d21dba01",
      "from": "0x56fd3f2bee130e9867942d0f463a16fbe49b8d81",
      "to": "0x97fd9624af571a5291d6b5aa0f7db7de8b5e0398",
      "contractAddress": null,
      "l1BaseFeeScalar": "0x0",
      "l1BlobBaseFee": "0x1",
      "l1BlobBaseFeeScalar": "0x0",
      "l1Fee": "0x0",
      "l1GasPrice": "0x2ade945",
      "l1GasUsed": "0x640"
    },
    {
      "status": "0x1",
      "cumulativeGasUsed": "0x657c0",
      "logs": [],
      "logsBloom": "0x00000000000000000000000000000000000000000000000000000000000000000000000000000000000000000000000000000000000000000000000000000000000000000000000000000000000000000000000000000000000000000000000000000000000000000000000000000000000000000000000000000000000000000000000000000000000000000000000000000000000000000000000000000000000000000000000000000000000000000000000000000000000000000000000000000000000000000000000000000000000000000000000000000000000000000000000000000000000000000000000000000000000000000000000000000000",
      "type": "0x2",
      "transactionHash": "0xa748f741910fd5d071d6a18c3d55a50af8d6e78010152b088b73256252a7435c",
      "transactionIndex": "0xb",
      "blockHash": "0xbcc6140fcd2f1ac67d16394709084b56f4108b39237ffdaf3eb71d4558b6022b",
      "blockNumber": "0x387f40",
      "gasUsed": "0x8430",
      "effectiveGasPrice": "0x5d21dba01",
      "from": "0x56fd3f2bee130e9867942d0f463a16fbe49b8d81",
      "to": "0x04a1e7bbd987a7f86ca10ea36023884e45e46bd7",
      "contractAddress": null,
      "l1BaseFeeScalar": "0x0",
      "l1BlobBaseFee": "0x1",
      "l1BlobBaseFeeScalar": "0x0",
      "l1Fee": "0x0",
      "l1GasPrice": "0x2ade945",
      "l1GasUsed": "0x640"
    },
    {
      "status": "0x1",
      "cumulativeGasUsed": "0x6dbfc",
      "logs": [],
      "logsBloom": "0x00000000000000000000000000000000000000000000000000000000000000000000000000000000000000000000000000000000000000000000000000000000000000000000000000000000000000000000000000000000000000000000000000000000000000000000000000000000000000000000000000000000000000000000000000000000000000000000000000000000000000000000000000000000000000000000000000000000000000000000000000000000000000000000000000000000000000000000000000000000000000000000000000000000000000000000000000000000000000000000000000000000000000000000000000000000",
      "type": "0x2",
      "transactionHash": "0x7ed546bc3bc1dd3fefc3c06eccaad3fb0baf9996186345ce0361537a24521617",
      "transactionIndex": "0xc",
      "blockHash": "0xbcc6140fcd2f1ac67d16394709084b56f4108b39237ffdaf3eb71d4558b6022b",
      "blockNumber": "0x387f40",
      "gasUsed": "0x843c",
      "effectiveGasPrice": "0x5d21dba01",
      "from": "0x56fd3f2bee130e9867942d0f463a16fbe49b8d81",
      "to": "0x56029056ccc623115d05473cee7d1aacac830185",
      "contractAddress": null,
      "l1BaseFeeScalar": "0x0",
      "l1BlobBaseFee": "0x1",
      "l1BlobBaseFeeScalar": "0x0",
      "l1Fee": "0x0",
      "l1GasPrice": "0x2ade945",
      "l1GasUsed": "0x640"
    },
    {
      "status": "0x1",
      "cumulativeGasUsed": "0x7602c",
      "logs": [],
      "logsBloom": "0x00000000000000000000000000000000000000000000000000000000000000000000000000000000000000000000000000000000000000000000000000000000000000000000000000000000000000000000000000000000000000000000000000000000000000000000000000000000000000000000000000000000000000000000000000000000000000000000000000000000000000000000000000000000000000000000000000000000000000000000000000000000000000000000000000000000000000000000000000000000000000000000000000000000000000000000000000000000000000000000000000000000000000000000000000000000",
      "type": "0x2",
      "transactionHash": "0x2c83554fcb5111df8f0c6ac8f410e103ad725fa3036d3972468374ce2f9b7283",
      "transactionIndex": "0xd",
      "blockHash": "0xbcc6140fcd2f1ac67d16394709084b56f4108b39237ffdaf3eb71d4558b6022b",
      "blockNumber": "0x387f40",
      "gasUsed": "0x8430",
      "effectiveGasPrice": "0x5d21dba01",
      "from": "0x56fd3f2bee130e9867942d0f463a16fbe49b8d81",
      "to": "0x1d866336d9c2f1c9737aca853347838e0a9e0559",
      "contractAddress": null,
      "l1BaseFeeScalar": "0x0",
      "l1BlobBaseFee": "0x1",
      "l1BlobBaseFeeScalar": "0x0",
      "l1Fee": "0x0",
      "l1GasPrice": "0x2ade945",
      "l1GasUsed": "0x640"
    },
    {
      "status": "0x1",
      "cumulativeGasUsed": "0x7e468",
      "logs": [],
      "logsBloom": "0x00000000000000000000000000000000000000000000000000000000000000000000000000000000000000000000000000000000000000000000000000000000000000000000000000000000000000000000000000000000000000000000000000000000000000000000000000000000000000000000000000000000000000000000000000000000000000000000000000000000000000000000000000000000000000000000000000000000000000000000000000000000000000000000000000000000000000000000000000000000000000000000000000000000000000000000000000000000000000000000000000000000000000000000000000000000",
      "type": "0x2",
      "transactionHash": "0xc084f431484b97ddcb19de6c294e6fa004fe23953487d2c0d31ff59e33b2f3e8",
      "transactionIndex": "0xe",
      "blockHash": "0xbcc6140fcd2f1ac67d16394709084b56f4108b39237ffdaf3eb71d4558b6022b",
      "blockNumber": "0x387f40",
      "gasUsed": "0x843c",
      "effectiveGasPrice": "0x5d21dba01",
      "from": "0x56fd3f2bee130e9867942d0f463a16fbe49b8d81",
      "to": "0x8c947e599bea1f0469d5e2633a6e030910336d11",
      "contractAddress": null,
      "l1BaseFeeScalar": "0x0",
      "l1BlobBaseFee": "0x1",
      "l1BlobBaseFeeScalar": "0x0",
      "l1Fee": "0x0",
      "l1GasPrice": "0x2ade945",
      "l1GasUsed": "0x640"
    },
    {
      "status": "0x1",
      "cumulativeGasUsed": "0x868a4",
      "logs": [],
      "logsBloom": "0x00000000000000000000000000000000000000000000000000000000000000000000000000000000000000000000000000000000000000000000000000000000000000000000000000000000000000000000000000000000000000000000000000000000000000000000000000000000000000000000000000000000000000000000000000000000000000000000000000000000000000000000000000000000000000000000000000000000000000000000000000000000000000000000000000000000000000000000000000000000000000000000000000000000000000000000000000000000000000000000000000000000000000000000000000000000",
      "type": "0x2",
      "transactionHash": "0x946bac09ced3335fb3e013f87cfd8ee67be3e043e23d8d9712bca3a4c0ef2616",
      "transactionIndex": "0xf",
      "blockHash": "0xbcc6140fcd2f1ac67d16394709084b56f4108b39237ffdaf3eb71d4558b6022b",
      "blockNumber": "0x387f40",
      "gasUsed": "0x843c",
      "effectiveGasPrice": "0x5d21dba01",
      "from": "0x56fd3f2bee130e9867942d0f463a16fbe49b8d81",
      "to": "0xdee315fc7023de5a99fbc68a1ca6c0266a897b17",
      "contractAddress": null,
      "l1BaseFeeScalar": "0x0",
      "l1BlobBaseFee": "0x1",
      "l1BlobBaseFeeScalar": "0x0",
      "l1Fee": "0x0",
      "l1GasPrice": "0x2ade945",
      "l1GasUsed": "0x640"
    },
    {
      "status": "0x1",
      "cumulativeGasUsed": "0x8ece0",
      "logs": [],
      "logsBloom": "0x00000000000000000000000000000000000000000000000000000000000000000000000000000000000000000000000000000000000000000000000000000000000000000000000000000000000000000000000000000000000000000000000000000000000000000000000000000000000000000000000000000000000000000000000000000000000000000000000000000000000000000000000000000000000000000000000000000000000000000000000000000000000000000000000000000000000000000000000000000000000000000000000000000000000000000000000000000000000000000000000000000000000000000000000000000000",
      "type": "0x2",
      "transactionHash": "0xc9e499057cddb2ccc3f961abcfdb63abc8fedc61a566a590319eca7f7a12e389",
      "transactionIndex": "0x10",
      "blockHash": "0xbcc6140fcd2f1ac67d16394709084b56f4108b39237ffdaf3eb71d4558b6022b",
      "blockNumber": "0x387f40",
      "gasUsed": "0x843c",
      "effectiveGasPrice": "0x5d21dba01",
      "from": "0x56fd3f2bee130e9867942d0f463a16fbe49b8d81",
      "to": "0x703691155cd4006ed14361023ec35599cfb33a19",
      "contractAddress": null,
      "l1BaseFeeScalar": "0x0",
      "l1BlobBaseFee": "0x1",
      "l1BlobBaseFeeScalar": "0x0",
      "l1Fee": "0x0",
      "l1GasPrice": "0x2ade945",
      "l1GasUsed": "0x640"
    },
    {
      "status": "0x1",
      "cumulativeGasUsed": "0x97110",
      "logs": [],
      "logsBloom": "0x00000000000000000000000000000000000000000000000000000000000000000000000000000000000000000000000000000000000000000000000000000000000000000000000000000000000000000000000000000000000000000000000000000000000000000000000000000000000000000000000000000000000000000000000000000000000000000000000000000000000000000000000000000000000000000000000000000000000000000000000000000000000000000000000000000000000000000000000000000000000000000000000000000000000000000000000000000000000000000000000000000000000000000000000000000000",
      "type": "0x2",
      "transactionHash": "0x61f33d4659f112651edd597b87d2ee1d905cca1aa15657fe3f4a7112073016c0",
      "transactionIndex": "0x11",
      "blockHash": "0xbcc6140fcd2f1ac67d16394709084b56f4108b39237ffdaf3eb71d4558b6022b",
      "blockNumber": "0x387f40",
      "gasUsed": "0x8430",
      "effectiveGasPrice": "0x5d21dba01",
      "from": "0x56fd3f2bee130e9867942d0f463a16fbe49b8d81",
      "to": "0x8003d6ea2954e8fa12c420e189777b2a7d989653",
      "contractAddress": null,
      "l1BaseFeeScalar": "0x0",
      "l1BlobBaseFee": "0x1",
      "l1BlobBaseFeeScalar": "0x0",
      "l1Fee": "0x0",
      "l1GasPrice": "0x2ade945",
      "l1GasUsed": "0x640"
    },
    {
      "status": "0x1",
      "cumulativeGasUsed": "0x9f570",
      "logs": [],
      "logsBloom": "0x00000000000000000000000000000000000000000000000000000000000000000000000000000000000000000000000000000000000000000000000000000000000000000000000000000000000000000000000000000000000000000000000000000000000000000000000000000000000000000000000000000000000000000000000000000000000000000000000000000000000000000000000000000000000000000000000000000000000000000000000000000000000000000000000000000000000000000000000000000000000000000000000000000000000000000000000000000000000000000000000000000000000000000000000000000000",
      "type": "0x2",
      "transactionHash": "0xc89fb816b24e277bdc77a1935343e87db549447ccb730fa652bfb11e9a8da8e8",
      "transactionIndex": "0x12",
      "blockHash": "0xbcc6140fcd2f1ac67d16394709084b56f4108b39237ffdaf3eb71d4558b6022b",
      "blockNumber": "0x387f40",
      "gasUsed": "0x8460",
      "effectiveGasPrice": "0x5d21dba01",
      "from": "0x56fd3f2bee130e9867942d0f463a16fbe49b8d81",
      "to": "0x5db4a1e964ce93f994ff56aaf96b39de73f073da",
      "contractAddress": null,
      "l1BaseFeeScalar": "0x0",
      "l1BlobBaseFee": "0x1",
      "l1BlobBaseFeeScalar": "0x0",
      "l1Fee": "0x0",
      "l1GasPrice": "0x2ade945",
      "l1GasUsed": "0x640"
    },
    {
      "status": "0x1",
      "cumulativeGasUsed": "0xcf09c",
      "logs": [
        {
          "address": "0x691ab9aff4a36e1fcb9c2d9a366cc0e176c5e4fc",
          "topics": [
            "0x7cebb17173a9ed273d2b7538f64395c0ebf352ff743f1cf8ce66b437a6144213",
            "0x000000000000000000000000ac414205651f4a62b614b6be9e5318a182c33eb0",
            "0x000000000000000000000000737285328116fcc9edab850d6fa1583fae1152ce"
          ],
          "data": "0x0000000000000000000000000000000000000000000000000000000068b97cd400000000000000000000000000000000000000000000d3d031655765573d0000",
          "blockHash": "0xbcc6140fcd2f1ac67d16394709084b56f4108b39237ffdaf3eb71d4558b6022b",
          "blockNumber": "0x387f40",
          "transactionHash": "0x1be91626cdfde8614b3ae9e2edbcc534c5f506e630a2ffdae8ff43448be34861",
          "transactionIndex": "0x13",
          "logIndex": "0x0",
          "removed": false
        },
        {
          "address": "0x691ab9aff4a36e1fcb9c2d9a366cc0e176c5e4fc",
          "topics": [
            "0xa9981ebfc3b766a742486e898f54959b050a66006dbce1a4155c1f84a08bcf41",
            "0x000000000000000000000000ac414205651f4a62b614b6be9e5318a182c33eb0"
          ],
          "data": "0x00000000000000000000000000000000000000000000d3d031655765573d0000",
          "blockHash": "0xbcc6140fcd2f1ac67d16394709084b56f4108b39237ffdaf3eb71d4558b6022b",
          "blockNumber": "0x387f40",
          "transactionHash": "0x1be91626cdfde8614b3ae9e2edbcc534c5f506e630a2ffdae8ff43448be34861",
          "transactionIndex": "0x13",
          "logIndex": "0x1",
          "removed": false
        }
      ],
      "logsBloom": "0x00800000000000000000000000000000000000000000000000000000000000000000000000000000000000000000000800800000000000000000000008100000000000000000000000000000000000000000000004000000000000400000000000000000000000000000400000008000000000000000000000000002000000000000000000000000400000000000000000000000000000000000000000000000200000800000000000000008000000000000000000000000000000000000000000000000000000000000000000000000000000000000000000000000000000000000000000000000000000000000000000000000008000000000000000000000",
      "type": "0x2",
      "transactionHash": "0x1be91626cdfde8614b3ae9e2edbcc534c5f506e630a2ffdae8ff43448be34861",
      "transactionIndex": "0x13",
      "blockHash": "0xbcc6140fcd2f1ac67d16394709084b56f4108b39237ffdaf3eb71d4558b6022b",
      "blockNumber": "0x387f40",
      "gasUsed": "0x2fb2c",
      "effectiveGasPrice": "0x5d21dba01",
      "from": "0x56fd3f2bee130e9867942d0f463a16fbe49b8d81",
      "to": "0x737285328116fcc9edab850d6fa1583fae1152ce",
      "contractAddress": null,
      "l1BaseFeeScalar": "0x0",
      "l1BlobBaseFee": "0x1",
      "l1BlobBaseFeeScalar": "0x0",
      "l1Fee": "0x0",
      "l1GasPrice": "0x2ade945",
      "l1GasUsed": "0x640"
    }
  ],
  "libraries": [
    "node_modules/@celo/contracts/common/linkedlists/AddressSortedLinkedListWithMedian.sol:AddressSortedLinkedListWithMedian:0x1aD9B2599975E8CDF5629aFaBA8852269f1A1364"
  ],
  "pending": [],
  "returns": {},
  "timestamp": 1756986581338,
  "chain": 11142220,
  "commit": "7dc8151"
}