{
  "transactions": [
    {
      "hash": "0x2e0f0ac12fd819ae0c079e7e9a582b7cdad1680c2a386ce6992fdafdf015de2a",
      "transactionType": "CALL",
      "contractName": null,
      "contractAddress": "0x712959a392488f3eae92c7d2d66517fc3ec829d0",
      "function": "report(int256,uint256)",
      "arguments": [
        "99984254",
        "1756990611"
      ],
      "transaction": {
        "from": "0xabcde369cddd1665e4ebd9214b8e9a595271272c",
        "to": "0x712959a392488f3eae92c7d2d66517fc3ec829d0",
        "gas": "0xc220",
        "value": "0x0",
        "input": "0x0f3d249d0000000000000000000000000000000000000000000000000000000005f5a37e0000000000000000000000000000000000000000000000000000000068b98c93",
        "nonce": "0x0",
        "chainId": "0xaa044c"
      },
      "additionalContracts": [],
      "isFixedGasLimit": false
    },
    {
      "hash": "0x1cbef9c0fd3b6a4edf1f5f001c3b8b46b698ab11dbd444b5178c081312aa641e",
      "transactionType": "CALL",
      "contractName": null,
      "contractAddress": "0xb130563ad59b4367de850eb71b6839eade134b05",
      "function": "report(int256,uint256)",
      "arguments": [
        "100021173",
        "1756990786"
      ],
      "transaction": {
        "from": "0xabcde369cddd1665e4ebd9214b8e9a595271272c",
        "to": "0xb130563ad59b4367de850eb71b6839eade134b05",
        "gas": "0xc220",
        "value": "0x0",
        "input": "0x0f3d249d0000000000000000000000000000000000000000000000000000000005f633b50000000000000000000000000000000000000000000000000000000068b98d42",
        "nonce": "0x1",
        "chainId": "0xaa044c"
      },
      "additionalContracts": [],
      "isFixedGasLimit": false
    },
    {
      "hash": "0xb595a850cdc70fcbe8514966459193b8f11377162cfa8404dd711263f3b4aa0d",
      "transactionType": "CALL",
      "contractName": null,
      "contractAddress": "0xa0a403b75580072a8e486f82253a407ba9bae0cb",
      "function": "report(int256,uint256)",
      "arguments": [
        "116436317",
        "1756990864"
      ],
      "transaction": {
        "from": "0xabcde369cddd1665e4ebd9214b8e9a595271272c",
        "to": "0xa0a403b75580072a8e486f82253a407ba9bae0cb",
        "gas": "0xc220",
        "value": "0x0",
        "input": "0x0f3d249d0000000000000000000000000000000000000000000000000000000006f0ad5d0000000000000000000000000000000000000000000000000000000068b98d90",
        "nonce": "0x2",
        "chainId": "0xaa044c"
      },
      "additionalContracts": [],
      "isFixedGasLimit": false
    },
    {
      "hash": "0x28df5c2aaf2c3bbef5bfffef2e2303dbaea505a42514d6b1d8ae2bdaa4da2846",
      "transactionType": "CALL",
      "contractName": null,
      "contractAddress": "0x5995fb71215c9ea02753092aacf47885bfa1a988",
      "function": "report(int256,uint256)",
      "arguments": [
        "29258582",
        "1756990686"
      ],
      "transaction": {
        "from": "0xabcde369cddd1665e4ebd9214b8e9a595271272c",
        "to": "0x5995fb71215c9ea02753092aacf47885bfa1a988",
        "gas": "0xc220",
        "value": "0x0",
        "input": "0x0f3d249d0000000000000000000000000000000000000000000000000000000001be73560000000000000000000000000000000000000000000000000000000068b98cde",
        "nonce": "0x3",
        "chainId": "0xaa044c"
      },
      "additionalContracts": [],
      "isFixedGasLimit": false
    },
    {
      "hash": "0x2173cea2438dea91532ab396c131caf2619fd9a095fc1333964412532ac4a6c0",
      "transactionType": "CALL",
      "contractName": null,
      "contractAddress": "0x44a7e7d4de5a4d6f5db9d174943214b926fd07d1",
      "function": "report(int256,uint256)",
      "arguments": [
        "116436317",
        "1756990864"
      ],
      "transaction": {
        "from": "0xabcde369cddd1665e4ebd9214b8e9a595271272c",
        "to": "0x44a7e7d4de5a4d6f5db9d174943214b926fd07d1",
        "gas": "0xc220",
        "value": "0x0",
        "input": "0x0f3d249d0000000000000000000000000000000000000000000000000000000006f0ad5d0000000000000000000000000000000000000000000000000000000068b98d90",
        "nonce": "0x4",
        "chainId": "0xaa044c"
      },
      "additionalContracts": [],
      "isFixedGasLimit": false
    },
    {
      "hash": "0x1ab33d9492fc39be5c0b7fd14b6da19200fcb9b4e0261f094c6596b30be4d04f",
      "transactionType": "CALL",
      "contractName": null,
      "contractAddress": "0xe30f631aac9762059c67135095c7d520221a0868",
      "function": "report(int256,uint256)",
      "arguments": [
        "18319044",
        "1756990679"
      ],
      "transaction": {
        "from": "0xabcde369cddd1665e4ebd9214b8e9a595271272c",
        "to": "0xe30f631aac9762059c67135095c7d520221a0868",
        "gas": "0xc220",
        "value": "0x0",
        "input": "0x0f3d249d00000000000000000000000000000000000000000000000000000000011786c40000000000000000000000000000000000000000000000000000000068b98cd7",
        "nonce": "0x5",
        "chainId": "0xaa044c"
      },
      "additionalContracts": [],
      "isFixedGasLimit": false
    },
    {
      "hash": "0x49972d822948d56791ecbd9168cf270a0e8a1394a021c72c2db1a378e5813884",
      "transactionType": "CALL",
      "contractName": null,
      "contractAddress": "0xf364db584bc3b55df019044de85993c47e1b145a",
      "function": "report(int256,uint256)",
      "arguments": [
        "1776154767021779",
        "1756990670"
      ],
      "transaction": {
        "from": "0xabcde369cddd1665e4ebd9214b8e9a595271272c",
        "to": "0xf364db584bc3b55df019044de85993c47e1b145a",
        "gas": "0xb337",
        "value": "0x0",
        "input": "0x0f3d249d00000000000000000000000000000000000000000000000000064f6741f456d30000000000000000000000000000000000000000000000000000000068b98cce",
        "nonce": "0x6",
        "chainId": "0xaa044c"
      },
      "additionalContracts": [],
      "isFixedGasLimit": false
    },
    {
      "hash": "0x9aedaa9062ba8a40ec39960ead14060278d06be57e9c2ac2c180be7935559e11",
      "transactionType": "CALL",
      "contractName": null,
      "contractAddress": "0x0d1a55b9a06fe8aa48eb87251fbd959d121ea843",
      "function": "report(int256,uint256)",
      "arguments": [
        "7735148514851485",
        "1756990669"
      ],
      "transaction": {
        "from": "0xabcde369cddd1665e4ebd9214b8e9a595271272c",
        "to": "0x0d1a55b9a06fe8aa48eb87251fbd959d121ea843",
        "gas": "0xb337",
        "value": "0x0",
        "input": "0x0f3d249d000000000000000000000000000000000000000000000000001b7b139b833a9d0000000000000000000000000000000000000000000000000000000068b98ccd",
        "nonce": "0x7",
        "chainId": "0xaa044c"
      },
      "additionalContracts": [],
      "isFixedGasLimit": false
    },
    {
      "hash": "0x79f0174b0fce4c14e2c3730820e2521086c2b73476160f6365a62c6946dd1dd3",
      "transactionType": "CALL",
      "contractName": null,
      "contractAddress": "0x7a2f69a58f0dae429cc6de1e6fcb6260041c7464",
      "function": "report(int256,uint256)",
      "arguments": [
        "1750087",
        "1756990800"
      ],
      "transaction": {
        "from": "0xabcde369cddd1665e4ebd9214b8e9a595271272c",
        "to": "0x7a2f69a58f0dae429cc6de1e6fcb6260041c7464",
        "gas": "0xc210",
        "value": "0x0",
        "input": "0x0f3d249d00000000000000000000000000000000000000000000000000000000001ab4470000000000000000000000000000000000000000000000000000000068b98d50",
        "nonce": "0x8",
        "chainId": "0xaa044c"
      },
      "additionalContracts": [],
      "isFixedGasLimit": false
    },
    {
      "hash": "0xa5d4858cf1d2ed627cc9b8bff45e4e7d20e95b9b95e646b462234551452bab6b",
      "transactionType": "CALL",
      "contractName": null,
      "contractAddress": "0x97fd9624af571a5291d6b5aa0f7db7de8b5e0398",
      "function": "report(int256,uint256)",
      "arguments": [
        "24975",
        "1756990747"
      ],
      "transaction": {
        "from": "0xabcde369cddd1665e4ebd9214b8e9a595271272c",
        "to": "0x97fd9624af571a5291d6b5aa0f7db7de8b5e0398",
        "gas": "0xb2e4",
        "value": "0x0",
        "input": "0x0f3d249d000000000000000000000000000000000000000000000000000000000000618f0000000000000000000000000000000000000000000000000000000068b98d1b",
        "nonce": "0x9",
        "chainId": "0xaa044c"
      },
      "additionalContracts": [],
      "isFixedGasLimit": false
    },
    {
      "hash": "0x1b2f2818114337d6892afc02fc578ffb79fd6ec859a08feada8b7980b9141721",
      "transactionType": "CALL",
      "contractName": null,
      "contractAddress": "0x04a1e7bbd987a7f86ca10ea36023884e45e46bd7",
      "function": "report(int256,uint256)",
      "arguments": [
        "8295932",
        "1756990790"
      ],
      "transaction": {
        "from": "0xabcde369cddd1665e4ebd9214b8e9a595271272c",
        "to": "0x04a1e7bbd987a7f86ca10ea36023884e45e46bd7",
        "gas": "0xb2f5",
        "value": "0x0",
        "input": "0x0f3d249d00000000000000000000000000000000000000000000000000000000007e95fc0000000000000000000000000000000000000000000000000000000068b98d46",
        "nonce": "0xa",
        "chainId": "0xaa044c"
      },
      "additionalContracts": [],
      "isFixedGasLimit": false
    },
    {
      "hash": "0x374816410b588bda7e61bab3346c2d8059d3f0f06441b83a209e8a3a12b48c16",
      "transactionType": "CALL",
      "contractName": null,
      "contractAddress": "0x56029056ccc623115d05473cee7d1aacac830185",
      "function": "report(int256,uint256)",
      "arguments": [
        "134390000",
        "1756990693"
      ],
      "transaction": {
        "from": "0xabcde369cddd1665e4ebd9214b8e9a595271272c",
        "to": "0x56029056ccc623115d05473cee7d1aacac830185",
        "gas": "0xc220",
        "value": "0x0",
        "input": "0x0f3d249d000000000000000000000000000000000000000000000000000000000802a0f00000000000000000000000000000000000000000000000000000000068b98ce5",
        "nonce": "0xb",
        "chainId": "0xaa044c"
      },
      "additionalContracts": [],
      "isFixedGasLimit": false
    },
    {
      "hash": "0x7b6f8881b89dbe69f95e36cb2fa30399e035acc3d2de29f100701ba5de0c160c",
      "transactionType": "CALL",
      "contractName": null,
      "contractAddress": "0x1d866336d9c2f1c9737aca853347838e0a9e0559",
      "function": "report(int256,uint256)",
      "arguments": [
        "5626702",
        "1756990877"
      ],
      "transaction": {
        "from": "0xabcde369cddd1665e4ebd9214b8e9a595271272c",
        "to": "0x1d866336d9c2f1c9737aca853347838e0a9e0559",
        "gas": "0xc210",
        "value": "0x0",
        "input": "0x0f3d249d000000000000000000000000000000000000000000000000000000000055db4e0000000000000000000000000000000000000000000000000000000068b98d9d",
        "nonce": "0xc",
        "chainId": "0xaa044c"
      },
      "additionalContracts": [],
      "isFixedGasLimit": false
    },
    {
      "hash": "0x23a97ec6e80b5fbd19be5fd102128f67ec501426ac3256f17c23a58baf7d19b2",
      "transactionType": "CALL",
      "contractName": null,
      "contractAddress": "0x8c947e599bea1f0469d5e2633a6e030910336d11",
      "function": "report(int256,uint256)",
      "arguments": [
        "72375658",
        "1756990766"
      ],
      "transaction": {
        "from": "0xabcde369cddd1665e4ebd9214b8e9a595271272c",
        "to": "0x8c947e599bea1f0469d5e2633a6e030910336d11",
        "gas": "0xc220",
        "value": "0x0",
        "input": "0x0f3d249d0000000000000000000000000000000000000000000000000000000004505d6a0000000000000000000000000000000000000000000000000000000068b98d2e",
        "nonce": "0xd",
        "chainId": "0xaa044c"
      },
      "additionalContracts": [],
      "isFixedGasLimit": false
    },
    {
      "hash": "0xa869bc6c65e60ad6e2f8da769a2f86c840286f814fc4e34aab4dbb12840e36d6",
      "transactionType": "CALL",
      "contractName": null,
      "contractAddress": "0xdee315fc7023de5a99fbc68a1ca6c0266a897b17",
      "function": "report(int256,uint256)",
      "arguments": [
        "65189000",
        "1756990731"
      ],
      "transaction": {
        "from": "0xabcde369cddd1665e4ebd9214b8e9a595271272c",
        "to": "0xdee315fc7023de5a99fbc68a1ca6c0266a897b17",
        "gas": "0xc220",
        "value": "0x0",
        "input": "0x0f3d249d0000000000000000000000000000000000000000000000000000000003e2b4880000000000000000000000000000000000000000000000000000000068b98d0b",
        "nonce": "0xe",
        "chainId": "0xaa044c"
      },
      "additionalContracts": [],
      "isFixedGasLimit": false
    },
    {
      "hash": "0xa31d4281e5757ac8ea5af55b6c8b6781878e73997d0c1a8b691a76243b17d417",
      "transactionType": "CALL",
      "contractName": null,
      "contractAddress": "0x703691155cd4006ed14361023ec35599cfb33a19",
      "function": "report(int256,uint256)",
      "arguments": [
        "124069478",
        "1756990642"
      ],
      "transaction": {
        "from": "0xabcde369cddd1665e4ebd9214b8e9a595271272c",
        "to": "0x703691155cd4006ed14361023ec35599cfb33a19",
        "gas": "0xc220",
        "value": "0x0",
        "input": "0x0f3d249d00000000000000000000000000000000000000000000000000000000076526660000000000000000000000000000000000000000000000000000000068b98cb2",
        "nonce": "0xf",
        "chainId": "0xaa044c"
      },
      "additionalContracts": [],
      "isFixedGasLimit": false
    },
    {
      "hash": "0xd00283833e01feb5f186b69ac61ae1b208cde2e1aaf1e46aca7e49ab6f7a7d5a",
      "transactionType": "CALL",
      "contractName": null,
      "contractAddress": "0x8003d6ea2954e8fa12c420e189777b2a7d989653",
      "function": "report(int256,uint256)",
      "arguments": [
        "673561",
        "1756990667"
      ],
      "transaction": {
        "from": "0xabcde369cddd1665e4ebd9214b8e9a595271272c",
        "to": "0x8003d6ea2954e8fa12c420e189777b2a7d989653",
        "gas": "0xc210",
        "value": "0x0",
        "input": "0x0f3d249d00000000000000000000000000000000000000000000000000000000000a47190000000000000000000000000000000000000000000000000000000068b98ccb",
        "nonce": "0x10",
        "chainId": "0xaa044c"
      },
      "additionalContracts": [],
      "isFixedGasLimit": false
    },
    {
      "hash": "0xde61adb92a6e930e41c38602e1d48f40ed53cd04a0508148c3acc6615948424b",
      "transactionType": "CALL",
      "contractName": null,
      "contractAddress": "0x5db4a1e964ce93f994ff56aaf96b39de73f073da",
      "function": "report(int256,uint256)",
      "arguments": [
        "655931258404119",
        "1756990756"
      ],
      "transaction": {
        "from": "0xabcde369cddd1665e4ebd9214b8e9a595271272c",
        "to": "0x5db4a1e964ce93f994ff56aaf96b39de73f073da",
        "gas": "0xc253",
        "value": "0x0",
        "input": "0x0f3d249d00000000000000000000000000000000000000000000000000025490e5a77d170000000000000000000000000000000000000000000000000000000068b98d24",
        "nonce": "0x11",
        "chainId": "0xaa044c"
      },
      "additionalContracts": [],
      "isFixedGasLimit": false
    },
    {
      "hash": "0x267c3c839049e6ff91da15bc90430f5c4af0960a71fee77593b3970d548b0e12",
      "transactionType": "CALL",
      "contractName": null,
      "contractAddress": "0x2053c6091491a572bcd8baa96f693ca77df25ccf",
      "function": "relay()",
      "arguments": [],
      "transaction": {
        "from": "0xabcde369cddd1665e4ebd9214b8e9a595271272c",
        "to": "0x2053c6091491a572bcd8baa96f693ca77df25ccf",
        "gas": "0x34763",
        "value": "0x0",
        "input": "0xb59589d1",
        "nonce": "0x12",
        "chainId": "0xaa044c"
      },
      "additionalContracts": [],
      "isFixedGasLimit": false
    },
    {
      "hash": "0xc2678cb61be2fe42fa417dcecfb902e2e6b178ba9ad07fb791995d2ceb8fbb54",
      "transactionType": "CALL",
      "contractName": null,
      "contractAddress": "0x737285328116fcc9edab850d6fa1583fae1152ce",
      "function": "relay()",
      "arguments": [],
      "transaction": {
        "from": "0xabcde369cddd1665e4ebd9214b8e9a595271272c",
        "to": "0x737285328116fcc9edab850d6fa1583fae1152ce",
        "gas": "0x34763",
        "value": "0x0",
        "input": "0xb59589d1",
        "nonce": "0x13",
        "chainId": "0xaa044c"
      },
      "additionalContracts": [],
      "isFixedGasLimit": false
    },
    {
      "hash": "0xcfeadfb9c8050952483629e29c6b91baa043370ec5da3494b57861f9a46a915f",
      "transactionType": "CALL",
      "contractName": null,
      "contractAddress": "0x411fac2c99957651f9cc93d4852d4346f929c61e",
      "function": "relay()",
      "arguments": [],
      "transaction": {
        "from": "0xabcde369cddd1665e4ebd9214b8e9a595271272c",
        "to": "0x411fac2c99957651f9cc93d4852d4346f929c61e",
        "gas": "0x3712e",
        "value": "0x0",
        "input": "0xb59589d1",
        "nonce": "0x14",
        "chainId": "0xaa044c"
      },
      "additionalContracts": [],
      "isFixedGasLimit": false
    },
    {
      "hash": "0x1ea2c9658e8be08c6b45a80ff781e4d3ff6decffa8418e99c1d6dea5be99832b",
      "transactionType": "CALL",
      "contractName": null,
      "contractAddress": "0xdbbe66b2ec5f1539c0c79ecf5fab12a94c1c7d7b",
      "function": "relay()",
      "arguments": [],
      "transaction": {
        "from": "0xabcde369cddd1665e4ebd9214b8e9a595271272c",
        "to": "0xdbbe66b2ec5f1539c0c79ecf5fab12a94c1c7d7b",
        "gas": "0x34763",
        "value": "0x0",
        "input": "0xb59589d1",
        "nonce": "0x15",
        "chainId": "0xaa044c"
      },
      "additionalContracts": [],
      "isFixedGasLimit": false
    },
    {
      "hash": "0xf1b14de31bb86da15d6bb833a5f230a20ffa25f45f2c20a48e5dd57c70810601",
      "transactionType": "CALL",
      "contractName": null,
      "contractAddress": "0x3bc0add00a414bc1fe0cfb6bde62e03e01a39059",
      "function": "relay()",
      "arguments": [],
      "transaction": {
        "from": "0xabcde369cddd1665e4ebd9214b8e9a595271272c",
        "to": "0x3bc0add00a414bc1fe0cfb6bde62e03e01a39059",
        "gas": "0x34763",
        "value": "0x0",
        "input": "0xb59589d1",
        "nonce": "0x16",
        "chainId": "0xaa044c"
      },
      "additionalContracts": [],
      "isFixedGasLimit": false
    },
    {
      "hash": "0xb33ddc4108fbb277e133d17c6b9c8500ff20fb25ba03a7170aec07d2a182324a",
      "transactionType": "CALL",
      "contractName": null,
      "contractAddress": "0xf4ed3b0f01cf978a56fcaca96e4537c60542edd5",
      "function": "relay()",
      "arguments": [],
      "transaction": {
        "from": "0xabcde369cddd1665e4ebd9214b8e9a595271272c",
        "to": "0xf4ed3b0f01cf978a56fcaca96e4537c60542edd5",
        "gas": "0x34763",
        "value": "0x0",
        "input": "0xb59589d1",
        "nonce": "0x17",
        "chainId": "0xaa044c"
      },
      "additionalContracts": [],
      "isFixedGasLimit": false
    },
    {
      "hash": "0xa3cf617bfa61027487aa81a61435a966c69152b8ad66d065b0b5c2a23919fcda",
      "transactionType": "CALL",
      "contractName": null,
      "contractAddress": "0xf764861a23096bf289232300b51f202dd902e04d",
      "function": "relay()",
      "arguments": [],
      "transaction": {
        "from": "0xabcde369cddd1665e4ebd9214b8e9a595271272c",
        "to": "0xf764861a23096bf289232300b51f202dd902e04d",
        "gas": "0x35f4a",
        "value": "0x0",
        "input": "0xb59589d1",
        "nonce": "0x18",
        "chainId": "0xaa044c"
      },
      "additionalContracts": [],
      "isFixedGasLimit": false
    },
    {
      "hash": "0xcf1603d43ec2e9efaa6fb9e6e42cd61cd1ab35e09d9450ad541b63a78ffbe83b",
      "transactionType": "CALL",
      "contractName": null,
      "contractAddress": "0xcc08331daa33ca9a97f3feb2b73d9f393eb921c1",
      "function": "relay()",
      "arguments": [],
      "transaction": {
        "from": "0xabcde369cddd1665e4ebd9214b8e9a595271272c",
        "to": "0xcc08331daa33ca9a97f3feb2b73d9f393eb921c1",
        "gas": "0x35f4a",
        "value": "0x0",
        "input": "0xb59589d1",
        "nonce": "0x19",
        "chainId": "0xaa044c"
      },
      "additionalContracts": [],
      "isFixedGasLimit": false
    },
    {
      "hash": "0x2bfc9c45e74c6ad832e4ee66e87834fee70928747c79b59a0de05033ade5c4f2",
      "transactionType": "CALL",
      "contractName": null,
      "contractAddress": "0x8b74bca4c87207380292f0844b1c0abe2ef60c54",
      "function": "relay()",
      "arguments": [],
      "transaction": {
        "from": "0xabcde369cddd1665e4ebd9214b8e9a595271272c",
        "to": "0x8b74bca4c87207380292f0844b1c0abe2ef60c54",
        "gas": "0x34763",
        "value": "0x0",
        "input": "0xb59589d1",
        "nonce": "0x1a",
        "chainId": "0xaa044c"
      },
      "additionalContracts": [],
      "isFixedGasLimit": false
    },
    {
      "hash": "0x77d7596ed7ff72435a3a2f0f5c99eeae134bf3c4f055a96b16d8424f4b2b5770",
      "transactionType": "CALL",
      "contractName": null,
      "contractAddress": "0xa5f0ce0cd80e203161709a18378f2c850b64cc56",
      "function": "relay()",
      "arguments": [],
      "transaction": {
        "from": "0xabcde369cddd1665e4ebd9214b8e9a595271272c",
        "to": "0xa5f0ce0cd80e203161709a18378f2c850b64cc56",
        "gas": "0x3306c",
        "value": "0x0",
        "input": "0xb59589d1",
        "nonce": "0x1b",
        "chainId": "0xaa044c"
      },
      "additionalContracts": [],
      "isFixedGasLimit": false
    },
    {
      "hash": "0x23cf4070362f3659fb47ee02b5b335907e0547258c34e26577898c2f3489058a",
      "transactionType": "CALL",
      "contractName": null,
      "contractAddress": "0x01f9629fb13ec2f902cc27f521e5b29e880173b4",
      "function": "relay()",
      "arguments": [],
      "transaction": {
        "from": "0xabcde369cddd1665e4ebd9214b8e9a595271272c",
        "to": "0x01f9629fb13ec2f902cc27f521e5b29e880173b4",
        "gas": "0x3306c",
        "value": "0x0",
        "input": "0xb59589d1",
        "nonce": "0x1c",
        "chainId": "0xaa044c"
      },
      "additionalContracts": [],
      "isFixedGasLimit": false
    },
    {
      "hash": "0x23332b5f4896f0c019fe1cbaa39dbfe878f77e739c140e5bce25de344b52a454",
      "transactionType": "CALL",
      "contractName": null,
      "contractAddress": "0xbea02da2fef22ad1b47d204e592a63c77bd44944",
      "function": "relay()",
      "arguments": [],
      "transaction": {
        "from": "0xabcde369cddd1665e4ebd9214b8e9a595271272c",
        "to": "0xbea02da2fef22ad1b47d204e592a63c77bd44944",
        "gas": "0x34763",
        "value": "0x0",
        "input": "0xb59589d1",
        "nonce": "0x1d",
        "chainId": "0xaa044c"
      },
      "additionalContracts": [],
      "isFixedGasLimit": false
    },
    {
      "hash": "0x42cfb207cce5a9936010cdc651c2306933c75773ab36365e2249dfb7e1e299e1",
      "transactionType": "CALL",
      "contractName": null,
      "contractAddress": "0x5dfa86d3660a63aaf274e70bf89c9087615a65c3",
      "function": "relay()",
      "arguments": [],
      "transaction": {
        "from": "0xabcde369cddd1665e4ebd9214b8e9a595271272c",
        "to": "0x5dfa86d3660a63aaf274e70bf89c9087615a65c3",
        "gas": "0x34763",
        "value": "0x0",
        "input": "0xb59589d1",
        "nonce": "0x1e",
        "chainId": "0xaa044c"
      },
      "additionalContracts": [],
      "isFixedGasLimit": false
    },
    {
      "hash": "0x2196772ddfc9a803cd36d7728e75425732bd543dfa624a59f9efb7e62facdda2",
      "transactionType": "CALL",
      "contractName": null,
      "contractAddress": "0x41cee890564872045e770ed522e3d2bf5ff1acfd",
      "function": "relay()",
      "arguments": [],
      "transaction": {
        "from": "0xabcde369cddd1665e4ebd9214b8e9a595271272c",
        "to": "0x41cee890564872045e770ed522e3d2bf5ff1acfd",
        "gas": "0x34763",
        "value": "0x0",
        "input": "0xb59589d1",
        "nonce": "0x1f",
        "chainId": "0xaa044c"
      },
      "additionalContracts": [],
      "isFixedGasLimit": false
    },
    {
      "hash": "0x65bdbbe4b8fe245246334b5785aaf13ecd4e64361f5621a7e6a445449740b46e",
      "transactionType": "CALL",
      "contractName": null,
      "contractAddress": "0x39e6ed41f651624c90778c0f785c283a124bb52a",
      "function": "relay()",
      "arguments": [],
      "transaction": {
        "from": "0xabcde369cddd1665e4ebd9214b8e9a595271272c",
        "to": "0x39e6ed41f651624c90778c0f785c283a124bb52a",
        "gas": "0x34763",
        "value": "0x0",
        "input": "0xb59589d1",
        "nonce": "0x20",
        "chainId": "0xaa044c"
      },
      "additionalContracts": [],
      "isFixedGasLimit": false
    },
    {
      "hash": "0x24863c6006fdbc7b3ed97ae4a227aba718eea190a15821f4919bd4f4cc9b7bf5",
      "transactionType": "CALL",
      "contractName": null,
      "contractAddress": "0x5eb3f5b9d4315cda410c98be788a14e0df320fb8",
      "function": "relay()",
      "arguments": [],
      "transaction": {
        "from": "0xabcde369cddd1665e4ebd9214b8e9a595271272c",
        "to": "0x5eb3f5b9d4315cda410c98be788a14e0df320fb8",
        "gas": "0x34763",
        "value": "0x0",
        "input": "0xb59589d1",
        "nonce": "0x21",
        "chainId": "0xaa044c"
      },
      "additionalContracts": [],
      "isFixedGasLimit": false
    },
    {
      "hash": "0xafe07bf68393381e7beb1ca1f8c8f008b3fc062ef75aaf51e3f4b6fbfc215849",
      "transactionType": "CALL",
      "contractName": null,
      "contractAddress": "0x5335bd8ad99c14be976f2c1eac64c3365315d88e",
      "function": "relay()",
      "arguments": [],
      "transaction": {
        "from": "0xabcde369cddd1665e4ebd9214b8e9a595271272c",
        "to": "0x5335bd8ad99c14be976f2c1eac64c3365315d88e",
        "gas": "0x34763",
        "value": "0x0",
        "input": "0xb59589d1",
        "nonce": "0x22",
        "chainId": "0xaa044c"
      },
      "additionalContracts": [],
      "isFixedGasLimit": false
    },
    {
      "hash": "0x8f934e74c0c416dac18553233b5992fe548d6f327d02d86536ca8566686c351e",
      "transactionType": "CALL",
      "contractName": null,
      "contractAddress": "0x8700b6031a3c31edbf9a37426ea6a904303d2230",
      "function": "relay()",
      "arguments": [],
      "transaction": {
        "from": "0xabcde369cddd1665e4ebd9214b8e9a595271272c",
        "to": "0x8700b6031a3c31edbf9a37426ea6a904303d2230",
        "gas": "0x3779b",
        "value": "0x0",
        "input": "0xb59589d1",
        "nonce": "0x23",
        "chainId": "0xaa044c"
      },
      "additionalContracts": [],
      "isFixedGasLimit": false
    }
  ],
  "receipts": [
    {
      "status": "0x1",
      "cumulativeGasUsed": "0x14084",
      "logs": [],
      "logsBloom": "0x00000000000000000000000000000000000000000000000000000000000000000000000000000000000000000000000000000000000000000000000000000000000000000000000000000000000000000000000000000000000000000000000000000000000000000000000000000000000000000000000000000000000000000000000000000000000000000000000000000000000000000000000000000000000000000000000000000000000000000000000000000000000000000000000000000000000000000000000000000000000000000000000000000000000000000000000000000000000000000000000000000000000000000000000000000000",
      "type": "0x2",
      "transactionHash": "0x2e0f0ac12fd819ae0c079e7e9a582b7cdad1680c2a386ce6992fdafdf015de2a",
      "transactionIndex": "0x1",
      "blockHash": "0xe84ad420ed40dec86d819ab50aea1ffc86ed736025dbef6837bbf3db527bd568",
      "blockNumber": "0x3890de",
      "gasUsed": "0x8c8c",
      "effectiveGasPrice": "0x5d21dba01",
      "from": "0xabcde369cddd1665e4ebd9214b8e9a595271272c",
      "to": "0x712959a392488f3eae92c7d2d66517fc3ec829d0",
      "contractAddress": null,
      "l1BaseFeeScalar": "0x0",
      "l1BlobBaseFee": "0x1",
      "l1BlobBaseFeeScalar": "0x0",
      "l1Fee": "0x0",
      "l1GasPrice": "0x3815ce",
      "l1GasUsed": "0x640"
    },
    {
      "status": "0x1",
      "cumulativeGasUsed": "0x1cd10",
      "logs": [],
      "logsBloom": "0x00000000000000000000000000000000000000000000000000000000000000000000000000000000000000000000000000000000000000000000000000000000000000000000000000000000000000000000000000000000000000000000000000000000000000000000000000000000000000000000000000000000000000000000000000000000000000000000000000000000000000000000000000000000000000000000000000000000000000000000000000000000000000000000000000000000000000000000000000000000000000000000000000000000000000000000000000000000000000000000000000000000000000000000000000000000",
      "type": "0x2",
      "transactionHash": "0x1cbef9c0fd3b6a4edf1f5f001c3b8b46b698ab11dbd444b5178c081312aa641e",
      "transactionIndex": "0x2",
      "blockHash": "0xe84ad420ed40dec86d819ab50aea1ffc86ed736025dbef6837bbf3db527bd568",
      "blockNumber": "0x3890de",
      "gasUsed": "0x8c8c",
      "effectiveGasPrice": "0x5d21dba01",
      "from": "0xabcde369cddd1665e4ebd9214b8e9a595271272c",
      "to": "0xb130563ad59b4367de850eb71b6839eade134b05",
      "contractAddress": null,
      "l1BaseFeeScalar": "0x0",
      "l1BlobBaseFee": "0x1",
      "l1BlobBaseFeeScalar": "0x0",
      "l1Fee": "0x0",
      "l1GasPrice": "0x3815ce",
      "l1GasUsed": "0x640"
    },
    {
      "status": "0x1",
      "cumulativeGasUsed": "0x2599c",
      "logs": [],
      "logsBloom": "0x00000000000000000000000000000000000000000000000000000000000000000000000000000000000000000000000000000000000000000000000000000000000000000000000000000000000000000000000000000000000000000000000000000000000000000000000000000000000000000000000000000000000000000000000000000000000000000000000000000000000000000000000000000000000000000000000000000000000000000000000000000000000000000000000000000000000000000000000000000000000000000000000000000000000000000000000000000000000000000000000000000000000000000000000000000000",
      "type": "0x2",
      "transactionHash": "0xb595a850cdc70fcbe8514966459193b8f11377162cfa8404dd711263f3b4aa0d",
      "transactionIndex": "0x3",
      "blockHash": "0xe84ad420ed40dec86d819ab50aea1ffc86ed736025dbef6837bbf3db527bd568",
      "blockNumber": "0x3890de",
      "gasUsed": "0x8c8c",
      "effectiveGasPrice": "0x5d21dba01",
      "from": "0xabcde369cddd1665e4ebd9214b8e9a595271272c",
      "to": "0xa0a403b75580072a8e486f82253a407ba9bae0cb",
      "contractAddress": null,
      "l1BaseFeeScalar": "0x0",
      "l1BlobBaseFee": "0x1",
      "l1BlobBaseFeeScalar": "0x0",
      "l1Fee": "0x0",
      "l1GasPrice": "0x3815ce",
      "l1GasUsed": "0x640"
    },
    {
      "status": "0x1",
      "cumulativeGasUsed": "0x2e628",
      "logs": [],
      "logsBloom": "0x00000000000000000000000000000000000000000000000000000000000000000000000000000000000000000000000000000000000000000000000000000000000000000000000000000000000000000000000000000000000000000000000000000000000000000000000000000000000000000000000000000000000000000000000000000000000000000000000000000000000000000000000000000000000000000000000000000000000000000000000000000000000000000000000000000000000000000000000000000000000000000000000000000000000000000000000000000000000000000000000000000000000000000000000000000000",
      "type": "0x2",
      "transactionHash": "0x28df5c2aaf2c3bbef5bfffef2e2303dbaea505a42514d6b1d8ae2bdaa4da2846",
      "transactionIndex": "0x4",
      "blockHash": "0xe84ad420ed40dec86d819ab50aea1ffc86ed736025dbef6837bbf3db527bd568",
      "blockNumber": "0x3890de",
      "gasUsed": "0x8c8c",
      "effectiveGasPrice": "0x5d21dba01",
      "from": "0xabcde369cddd1665e4ebd9214b8e9a595271272c",
      "to": "0x5995fb71215c9ea02753092aacf47885bfa1a988",
      "contractAddress": null,
      "l1BaseFeeScalar": "0x0",
      "l1BlobBaseFee": "0x1",
      "l1BlobBaseFeeScalar": "0x0",
      "l1Fee": "0x0",
      "l1GasPrice": "0x3815ce",
      "l1GasUsed": "0x640"
    },
    {
      "status": "0x1",
      "cumulativeGasUsed": "0x372b4",
      "logs": [],
      "logsBloom": "0x00000000000000000000000000000000000000000000000000000000000000000000000000000000000000000000000000000000000000000000000000000000000000000000000000000000000000000000000000000000000000000000000000000000000000000000000000000000000000000000000000000000000000000000000000000000000000000000000000000000000000000000000000000000000000000000000000000000000000000000000000000000000000000000000000000000000000000000000000000000000000000000000000000000000000000000000000000000000000000000000000000000000000000000000000000000",
      "type": "0x2",
      "transactionHash": "0x2173cea2438dea91532ab396c131caf2619fd9a095fc1333964412532ac4a6c0",
      "transactionIndex": "0x5",
      "blockHash": "0xe84ad420ed40dec86d819ab50aea1ffc86ed736025dbef6837bbf3db527bd568",
      "blockNumber": "0x3890de",
      "gasUsed": "0x8c8c",
      "effectiveGasPrice": "0x5d21dba01",
      "from": "0xabcde369cddd1665e4ebd9214b8e9a595271272c",
      "to": "0x44a7e7d4de5a4d6f5db9d174943214b926fd07d1",
      "contractAddress": null,
      "l1BaseFeeScalar": "0x0",
      "l1BlobBaseFee": "0x1",
      "l1BlobBaseFeeScalar": "0x0",
      "l1Fee": "0x0",
      "l1GasPrice": "0x3815ce",
      "l1GasUsed": "0x640"
    },
    {
      "status": "0x1",
      "cumulativeGasUsed": "0x3ff40",
      "logs": [],
      "logsBloom": "0x00000000000000000000000000000000000000000000000000000000000000000000000000000000000000000000000000000000000000000000000000000000000000000000000000000000000000000000000000000000000000000000000000000000000000000000000000000000000000000000000000000000000000000000000000000000000000000000000000000000000000000000000000000000000000000000000000000000000000000000000000000000000000000000000000000000000000000000000000000000000000000000000000000000000000000000000000000000000000000000000000000000000000000000000000000000",
      "type": "0x2",
      "transactionHash": "0x1ab33d9492fc39be5c0b7fd14b6da19200fcb9b4e0261f094c6596b30be4d04f",
      "transactionIndex": "0x6",
      "blockHash": "0xe84ad420ed40dec86d819ab50aea1ffc86ed736025dbef6837bbf3db527bd568",
      "blockNumber": "0x3890de",
      "gasUsed": "0x8c8c",
      "effectiveGasPrice": "0x5d21dba01",
      "from": "0xabcde369cddd1665e4ebd9214b8e9a595271272c",
      "to": "0xe30f631aac9762059c67135095c7d520221a0868",
      "contractAddress": null,
      "l1BaseFeeScalar": "0x0",
      "l1BlobBaseFee": "0x1",
      "l1BlobBaseFeeScalar": "0x0",
      "l1Fee": "0x0",
      "l1GasPrice": "0x3815ce",
      "l1GasUsed": "0x640"
    },
    {
      "status": "0x1",
      "cumulativeGasUsed": "0x48100",
      "logs": [],
      "logsBloom": "0x00000000000000000000000000000000000000000000000000000000000000000000000000000000000000000000000000000000000000000000000000000000000000000000000000000000000000000000000000000000000000000000000000000000000000000000000000000000000000000000000000000000000000000000000000000000000000000000000000000000000000000000000000000000000000000000000000000000000000000000000000000000000000000000000000000000000000000000000000000000000000000000000000000000000000000000000000000000000000000000000000000000000000000000000000000000",
      "type": "0x2",
      "transactionHash": "0x49972d822948d56791ecbd9168cf270a0e8a1394a021c72c2db1a378e5813884",
      "transactionIndex": "0x7",
      "blockHash": "0xe84ad420ed40dec86d819ab50aea1ffc86ed736025dbef6837bbf3db527bd568",
      "blockNumber": "0x3890de",
      "gasUsed": "0x81c0",
      "effectiveGasPrice": "0x5d21dba01",
      "from": "0xabcde369cddd1665e4ebd9214b8e9a595271272c",
      "to": "0xf364db584bc3b55df019044de85993c47e1b145a",
      "contractAddress": null,
      "l1BaseFeeScalar": "0x0",
      "l1BlobBaseFee": "0x1",
      "l1BlobBaseFeeScalar": "0x0",
      "l1Fee": "0x0",
      "l1GasPrice": "0x3815ce",
      "l1GasUsed": "0x640"
    },
    {
      "status": "0x1",
      "cumulativeGasUsed": "0x135b8",
      "logs": [],
      "logsBloom": "0x00000000000000000000000000000000000000000000000000000000000000000000000000000000000000000000000000000000000000000000000000000000000000000000000000000000000000000000000000000000000000000000000000000000000000000000000000000000000000000000000000000000000000000000000000000000000000000000000000000000000000000000000000000000000000000000000000000000000000000000000000000000000000000000000000000000000000000000000000000000000000000000000000000000000000000000000000000000000000000000000000000000000000000000000000000000",
      "type": "0x2",
      "transactionHash": "0x9aedaa9062ba8a40ec39960ead14060278d06be57e9c2ac2c180be7935559e11",
      "transactionIndex": "0x1",
      "blockHash": "0x0f47d37cbf25537f97edee5b06b4894693e2209f2c6e9bee708c98c001c7db30",
      "blockNumber": "0x3890df",
      "gasUsed": "0x81c0",
      "effectiveGasPrice": "0x5d21dba01",
      "from": "0xabcde369cddd1665e4ebd9214b8e9a595271272c",
      "to": "0x0d1a55b9a06fe8aa48eb87251fbd959d121ea843",
      "contractAddress": null,
      "l1BaseFeeScalar": "0x0",
      "l1BlobBaseFee": "0x1",
      "l1BlobBaseFeeScalar": "0x0",
      "l1Fee": "0x0",
      "l1GasPrice": "0x3815ce",
      "l1GasUsed": "0x640"
    },
    {
      "status": "0x1",
      "cumulativeGasUsed": "0x1c238",
      "logs": [],
      "logsBloom": "0x00000000000000000000000000000000000000000000000000000000000000000000000000000000000000000000000000000000000000000000000000000000000000000000000000000000000000000000000000000000000000000000000000000000000000000000000000000000000000000000000000000000000000000000000000000000000000000000000000000000000000000000000000000000000000000000000000000000000000000000000000000000000000000000000000000000000000000000000000000000000000000000000000000000000000000000000000000000000000000000000000000000000000000000000000000000",
      "type": "0x2",
      "transactionHash": "0x79f0174b0fce4c14e2c3730820e2521086c2b73476160f6365a62c6946dd1dd3",
      "transactionIndex": "0x2",
      "blockHash": "0x0f47d37cbf25537f97edee5b06b4894693e2209f2c6e9bee708c98c001c7db30",
      "blockNumber": "0x3890df",
      "gasUsed": "0x8c80",
      "effectiveGasPrice": "0x5d21dba01",
      "from": "0xabcde369cddd1665e4ebd9214b8e9a595271272c",
      "to": "0x7a2f69a58f0dae429cc6de1e6fcb6260041c7464",
      "contractAddress": null,
      "l1BaseFeeScalar": "0x0",
      "l1BlobBaseFee": "0x1",
      "l1BlobBaseFeeScalar": "0x0",
      "l1Fee": "0x0",
      "l1GasPrice": "0x3815ce",
      "l1GasUsed": "0x640"
    },
    {
      "status": "0x1",
      "cumulativeGasUsed": "0x243bc",
      "logs": [],
      "logsBloom": "0x00000000000000000000000000000000000000000000000000000000000000000000000000000000000000000000000000000000000000000000000000000000000000000000000000000000000000000000000000000000000000000000000000000000000000000000000000000000000000000000000000000000000000000000000000000000000000000000000000000000000000000000000000000000000000000000000000000000000000000000000000000000000000000000000000000000000000000000000000000000000000000000000000000000000000000000000000000000000000000000000000000000000000000000000000000000",
      "type": "0x2",
      "transactionHash": "0xa5d4858cf1d2ed627cc9b8bff45e4e7d20e95b9b95e646b462234551452bab6b",
      "transactionIndex": "0x3",
      "blockHash": "0x0f47d37cbf25537f97edee5b06b4894693e2209f2c6e9bee708c98c001c7db30",
      "blockNumber": "0x3890df",
      "gasUsed": "0x8184",
      "effectiveGasPrice": "0x5d21dba01",
      "from": "0xabcde369cddd1665e4ebd9214b8e9a595271272c",
      "to": "0x97fd9624af571a5291d6b5aa0f7db7de8b5e0398",
      "contractAddress": null,
      "l1BaseFeeScalar": "0x0",
      "l1BlobBaseFee": "0x1",
      "l1BlobBaseFeeScalar": "0x0",
      "l1Fee": "0x0",
      "l1GasPrice": "0x3815ce",
      "l1GasUsed": "0x640"
    },
    {
      "status": "0x1",
      "cumulativeGasUsed": "0x2c54c",
      "logs": [],
      "logsBloom": "0x00000000000000000000000000000000000000000000000000000000000000000000000000000000000000000000000000000000000000000000000000000000000000000000000000000000000000000000000000000000000000000000000000000000000000000000000000000000000000000000000000000000000000000000000000000000000000000000000000000000000000000000000000000000000000000000000000000000000000000000000000000000000000000000000000000000000000000000000000000000000000000000000000000000000000000000000000000000000000000000000000000000000000000000000000000000",
      "type": "0x2",
      "transactionHash": "0x1b2f2818114337d6892afc02fc578ffb79fd6ec859a08feada8b7980b9141721",
      "transactionIndex": "0x4",
      "blockHash": "0x0f47d37cbf25537f97edee5b06b4894693e2209f2c6e9bee708c98c001c7db30",
      "blockNumber": "0x3890df",
      "gasUsed": "0x8190",
      "effectiveGasPrice": "0x5d21dba01",
      "from": "0xabcde369cddd1665e4ebd9214b8e9a595271272c",
      "to": "0x04a1e7bbd987a7f86ca10ea36023884e45e46bd7",
      "contractAddress": null,
      "l1BaseFeeScalar": "0x0",
      "l1BlobBaseFee": "0x1",
      "l1BlobBaseFeeScalar": "0x0",
      "l1Fee": "0x0",
      "l1GasPrice": "0x3815ce",
      "l1GasUsed": "0x640"
    },
    {
      "status": "0x1",
      "cumulativeGasUsed": "0x351d8",
      "logs": [],
      "logsBloom": "0x00000000000000000000000000000000000000000000000000000000000000000000000000000000000000000000000000000000000000000000000000000000000000000000000000000000000000000000000000000000000000000000000000000000000000000000000000000000000000000000000000000000000000000000000000000000000000000000000000000000000000000000000000000000000000000000000000000000000000000000000000000000000000000000000000000000000000000000000000000000000000000000000000000000000000000000000000000000000000000000000000000000000000000000000000000000",
      "type": "0x2",
      "transactionHash": "0x374816410b588bda7e61bab3346c2d8059d3f0f06441b83a209e8a3a12b48c16",
      "transactionIndex": "0x5",
      "blockHash": "0x0f47d37cbf25537f97edee5b06b4894693e2209f2c6e9bee708c98c001c7db30",
      "blockNumber": "0x3890df",
      "gasUsed": "0x8c8c",
      "effectiveGasPrice": "0x5d21dba01",
      "from": "0xabcde369cddd1665e4ebd9214b8e9a595271272c",
      "to": "0x56029056ccc623115d05473cee7d1aacac830185",
      "contractAddress": null,
      "l1BaseFeeScalar": "0x0",
      "l1BlobBaseFee": "0x1",
      "l1BlobBaseFeeScalar": "0x0",
      "l1Fee": "0x0",
      "l1GasPrice": "0x3815ce",
      "l1GasUsed": "0x640"
    },
    {
      "status": "0x1",
      "cumulativeGasUsed": "0x3de58",
      "logs": [],
      "logsBloom": "0x00000000000000000000000000000000000000000000000000000000000000000000000000000000000000000000000000000000000000000000000000000000000000000000000000000000000000000000000000000000000000000000000000000000000000000000000000000000000000000000000000000000000000000000000000000000000000000000000000000000000000000000000000000000000000000000000000000000000000000000000000000000000000000000000000000000000000000000000000000000000000000000000000000000000000000000000000000000000000000000000000000000000000000000000000000000",
      "type": "0x2",
      "transactionHash": "0x7b6f8881b89dbe69f95e36cb2fa30399e035acc3d2de29f100701ba5de0c160c",
      "transactionIndex": "0x6",
      "blockHash": "0x0f47d37cbf25537f97edee5b06b4894693e2209f2c6e9bee708c98c001c7db30",
      "blockNumber": "0x3890df",
      "gasUsed": "0x8c80",
      "effectiveGasPrice": "0x5d21dba01",
      "from": "0xabcde369cddd1665e4ebd9214b8e9a595271272c",
      "to": "0x1d866336d9c2f1c9737aca853347838e0a9e0559",
      "contractAddress": null,
      "l1BaseFeeScalar": "0x0",
      "l1BlobBaseFee": "0x1",
      "l1BlobBaseFeeScalar": "0x0",
      "l1Fee": "0x0",
      "l1GasPrice": "0x3815ce",
      "l1GasUsed": "0x640"
    },
    {
      "status": "0x1",
      "cumulativeGasUsed": "0x46ae4",
      "logs": [],
      "logsBloom": "0x00000000000000000000000000000000000000000000000000000000000000000000000000000000000000000000000000000000000000000000000000000000000000000000000000000000000000000000000000000000000000000000000000000000000000000000000000000000000000000000000000000000000000000000000000000000000000000000000000000000000000000000000000000000000000000000000000000000000000000000000000000000000000000000000000000000000000000000000000000000000000000000000000000000000000000000000000000000000000000000000000000000000000000000000000000000",
      "type": "0x2",
      "transactionHash": "0x23a97ec6e80b5fbd19be5fd102128f67ec501426ac3256f17c23a58baf7d19b2",
      "transactionIndex": "0x7",
      "blockHash": "0x0f47d37cbf25537f97edee5b06b4894693e2209f2c6e9bee708c98c001c7db30",
      "blockNumber": "0x3890df",
      "gasUsed": "0x8c8c",
      "effectiveGasPrice": "0x5d21dba01",
      "from": "0xabcde369cddd1665e4ebd9214b8e9a595271272c",
      "to": "0x8c947e599bea1f0469d5e2633a6e030910336d11",
      "contractAddress": null,
      "l1BaseFeeScalar": "0x0",
      "l1BlobBaseFee": "0x1",
      "l1BlobBaseFeeScalar": "0x0",
      "l1Fee": "0x0",
      "l1GasPrice": "0x3815ce",
      "l1GasUsed": "0x640"
    },
    {
      "status": "0x1",
      "cumulativeGasUsed": "0x4f770",
      "logs": [],
      "logsBloom": "0x00000000000000000000000000000000000000000000000000000000000000000000000000000000000000000000000000000000000000000000000000000000000000000000000000000000000000000000000000000000000000000000000000000000000000000000000000000000000000000000000000000000000000000000000000000000000000000000000000000000000000000000000000000000000000000000000000000000000000000000000000000000000000000000000000000000000000000000000000000000000000000000000000000000000000000000000000000000000000000000000000000000000000000000000000000000",
      "type": "0x2",
      "transactionHash": "0xa869bc6c65e60ad6e2f8da769a2f86c840286f814fc4e34aab4dbb12840e36d6",
      "transactionIndex": "0x8",
      "blockHash": "0x0f47d37cbf25537f97edee5b06b4894693e2209f2c6e9bee708c98c001c7db30",
      "blockNumber": "0x3890df",
      "gasUsed": "0x8c8c",
      "effectiveGasPrice": "0x5d21dba01",
      "from": "0xabcde369cddd1665e4ebd9214b8e9a595271272c",
      "to": "0xdee315fc7023de5a99fbc68a1ca6c0266a897b17",
      "contractAddress": null,
      "l1BaseFeeScalar": "0x0",
      "l1BlobBaseFee": "0x1",
      "l1BlobBaseFeeScalar": "0x0",
      "l1Fee": "0x0",
      "l1GasPrice": "0x3815ce",
      "l1GasUsed": "0x640"
    },
    {
      "status": "0x1",
      "cumulativeGasUsed": "0x583fc",
      "logs": [],
      "logsBloom": "0x00000000000000000000000000000000000000000000000000000000000000000000000000000000000000000000000000000000000000000000000000000000000000000000000000000000000000000000000000000000000000000000000000000000000000000000000000000000000000000000000000000000000000000000000000000000000000000000000000000000000000000000000000000000000000000000000000000000000000000000000000000000000000000000000000000000000000000000000000000000000000000000000000000000000000000000000000000000000000000000000000000000000000000000000000000000",
      "type": "0x2",
      "transactionHash": "0xa31d4281e5757ac8ea5af55b6c8b6781878e73997d0c1a8b691a76243b17d417",
      "transactionIndex": "0x9",
      "blockHash": "0x0f47d37cbf25537f97edee5b06b4894693e2209f2c6e9bee708c98c001c7db30",
      "blockNumber": "0x3890df",
      "gasUsed": "0x8c8c",
      "effectiveGasPrice": "0x5d21dba01",
      "from": "0xabcde369cddd1665e4ebd9214b8e9a595271272c",
      "to": "0x703691155cd4006ed14361023ec35599cfb33a19",
      "contractAddress": null,
      "l1BaseFeeScalar": "0x0",
      "l1BlobBaseFee": "0x1",
      "l1BlobBaseFeeScalar": "0x0",
      "l1Fee": "0x0",
      "l1GasPrice": "0x3815ce",
      "l1GasUsed": "0x640"
    },
    {
      "status": "0x1",
      "cumulativeGasUsed": "0x6107c",
      "logs": [],
      "logsBloom": "0x00000000000000000000000000000000000000000000000000000000000000000000000000000000000000000000000000000000000000000000000000000000000000000000000000000000000000000000000000000000000000000000000000000000000000000000000000000000000000000000000000000000000000000000000000000000000000000000000000000000000000000000000000000000000000000000000000000000000000000000000000000000000000000000000000000000000000000000000000000000000000000000000000000000000000000000000000000000000000000000000000000000000000000000000000000000",
      "type": "0x2",
      "transactionHash": "0xd00283833e01feb5f186b69ac61ae1b208cde2e1aaf1e46aca7e49ab6f7a7d5a",
      "transactionIndex": "0xa",
      "blockHash": "0x0f47d37cbf25537f97edee5b06b4894693e2209f2c6e9bee708c98c001c7db30",
      "blockNumber": "0x3890df",
      "gasUsed": "0x8c80",
      "effectiveGasPrice": "0x5d21dba01",
      "from": "0xabcde369cddd1665e4ebd9214b8e9a595271272c",
      "to": "0x8003d6ea2954e8fa12c420e189777b2a7d989653",
      "contractAddress": null,
      "l1BaseFeeScalar": "0x0",
      "l1BlobBaseFee": "0x1",
      "l1BlobBaseFeeScalar": "0x0",
      "l1Fee": "0x0",
      "l1GasPrice": "0x3815ce",
      "l1GasUsed": "0x640"
    },
    {
      "status": "0x1",
      "cumulativeGasUsed": "0x69d2c",
      "logs": [],
      "logsBloom": "0x00000000000000000000000000000000000000000000000000000000000000000000000000000000000000000000000000000000000000000000000000000000000000000000000000000000000000000000000000000000000000000000000000000000000000000000000000000000000000000000000000000000000000000000000000000000000000000000000000000000000000000000000000000000000000000000000000000000000000000000000000000000000000000000000000000000000000000000000000000000000000000000000000000000000000000000000000000000000000000000000000000000000000000000000000000000",
      "type": "0x2",
      "transactionHash": "0xde61adb92a6e930e41c38602e1d48f40ed53cd04a0508148c3acc6615948424b",
      "transactionIndex": "0xb",
      "blockHash": "0x0f47d37cbf25537f97edee5b06b4894693e2209f2c6e9bee708c98c001c7db30",
      "blockNumber": "0x3890df",
      "gasUsed": "0x8cb0",
      "effectiveGasPrice": "0x5d21dba01",
      "from": "0xabcde369cddd1665e4ebd9214b8e9a595271272c",
      "to": "0x5db4a1e964ce93f994ff56aaf96b39de73f073da",
      "contractAddress": null,
      "l1BaseFeeScalar": "0x0",
      "l1BlobBaseFee": "0x1",
      "l1BlobBaseFeeScalar": "0x0",
      "l1Fee": "0x0",
      "l1GasPrice": "0x3815ce",
      "l1GasUsed": "0x640"
    },
    {
      "status": "0x1",
      "cumulativeGasUsed": "0x8fce0",
      "logs": [
        {
          "address": "0x691ab9aff4a36e1fcb9c2d9a366cc0e176c5e4fc",
          "topics": [
            "0x7cebb17173a9ed273d2b7538f64395c0ebf352ff743f1cf8ce66b437a6144213",
            "0x00000000000000000000000081a313ff894bfc6093d33b5514e34d7faa41b7ef",
            "0x0000000000000000000000002053c6091491a572bcd8baa96f693ca77df25ccf"
          ],
          "data": "0x0000000000000000000000000000000000000000000000000000000068b98e7300000000000000000000000000000000000000000000d3b9929c812fe3fe0000",
          "blockHash": "0x0f47d37cbf25537f97edee5b06b4894693e2209f2c6e9bee708c98c001c7db30",
          "blockNumber": "0x3890df",
          "transactionHash": "0x267c3c839049e6ff91da15bc90430f5c4af0960a71fee77593b3970d548b0e12",
          "transactionIndex": "0xc",
          "logIndex": "0x0",
          "removed": false
        },
        {
          "address": "0x691ab9aff4a36e1fcb9c2d9a366cc0e176c5e4fc",
          "topics": [
            "0xa9981ebfc3b766a742486e898f54959b050a66006dbce1a4155c1f84a08bcf41",
            "0x00000000000000000000000081a313ff894bfc6093d33b5514e34d7faa41b7ef"
          ],
          "data": "0x00000000000000000000000000000000000000000000d3b9929c812fe3fe0000",
          "blockHash": "0x0f47d37cbf25537f97edee5b06b4894693e2209f2c6e9bee708c98c001c7db30",
          "blockNumber": "0x3890df",
          "transactionHash": "0x267c3c839049e6ff91da15bc90430f5c4af0960a71fee77593b3970d548b0e12",
          "transactionIndex": "0xc",
          "logIndex": "0x1",
          "removed": false
        }
      ],
      "logsBloom": "0x00800000000000000000000000000000000000000040000000000000000000000000000000000000000800000000000800000000000000000000000000100000000000200000000000000000000000000000000004000000000000000000000000000000000000008000000000008000000000000000000000000000000000000000000000000000400000000000000000000002000000000000000000000000200000800000000000000008000000000000008000000000000000000000000000000000000000000000000000000000000000000000000000000000000000000000000000000000000000000000000000000000000000000000000000000000",
      "type": "0x2",
      "transactionHash": "0x267c3c839049e6ff91da15bc90430f5c4af0960a71fee77593b3970d548b0e12",
      "transactionIndex": "0xc",
      "blockHash": "0x0f47d37cbf25537f97edee5b06b4894693e2209f2c6e9bee708c98c001c7db30",
      "blockNumber": "0x3890df",
      "gasUsed": "0x25fb4",
      "effectiveGasPrice": "0x5d21dba01",
      "from": "0xabcde369cddd1665e4ebd9214b8e9a595271272c",
      "to": "0x2053c6091491a572bcd8baa96f693ca77df25ccf",
      "contractAddress": null,
      "l1BaseFeeScalar": "0x0",
      "l1BlobBaseFee": "0x1",
      "l1BlobBaseFeeScalar": "0x0",
      "l1Fee": "0x0",
      "l1GasPrice": "0x3815ce",
      "l1GasUsed": "0x640"
    },
    {
      "status": "0x1",
      "cumulativeGasUsed": "0xb5c94",
      "logs": [
        {
          "address": "0x691ab9aff4a36e1fcb9c2d9a366cc0e176c5e4fc",
          "topics": [
            "0x7cebb17173a9ed273d2b7538f64395c0ebf352ff743f1cf8ce66b437a6144213",
            "0x000000000000000000000000ac414205651f4a62b614b6be9e5318a182c33eb0",
            "0x000000000000000000000000737285328116fcc9edab850d6fa1583fae1152ce"
          ],
          "data": "0x0000000000000000000000000000000000000000000000000000000068b98e7300000000000000000000000000000000000000000000d3cd9626de2276750000",
          "blockHash": "0x0f47d37cbf25537f97edee5b06b4894693e2209f2c6e9bee708c98c001c7db30",
          "blockNumber": "0x3890df",
          "transactionHash": "0xc2678cb61be2fe42fa417dcecfb902e2e6b178ba9ad07fb791995d2ceb8fbb54",
          "transactionIndex": "0xd",
          "logIndex": "0x2",
          "removed": false
        },
        {
          "address": "0x691ab9aff4a36e1fcb9c2d9a366cc0e176c5e4fc",
          "topics": [
            "0xa9981ebfc3b766a742486e898f54959b050a66006dbce1a4155c1f84a08bcf41",
            "0x000000000000000000000000ac414205651f4a62b614b6be9e5318a182c33eb0"
          ],
          "data": "0x00000000000000000000000000000000000000000000d3cd9626de2276750000",
          "blockHash": "0x0f47d37cbf25537f97edee5b06b4894693e2209f2c6e9bee708c98c001c7db30",
          "blockNumber": "0x3890df",
          "transactionHash": "0xc2678cb61be2fe42fa417dcecfb902e2e6b178ba9ad07fb791995d2ceb8fbb54",
          "transactionIndex": "0xd",
          "logIndex": "0x3",
          "removed": false
        }
      ],
      "logsBloom": "0x00800000000000000000000000000000000000000000000000000000000000000000000000000000000000000000000800800000000000000000000008100000000000000000000000000000000000000000000004000000000000400000000000000000000000000000400000008000000000000000000000000002000000000000000000000000400000000000000000000000000000000000000000000000200000800000000000000008000000000000000000000000000000000000000000000000000000000000000000000000000000000000000000000000000000000000000000000000000000000000000000000000008000000000000000000000",
      "type": "0x2",
      "transactionHash": "0xc2678cb61be2fe42fa417dcecfb902e2e6b178ba9ad07fb791995d2ceb8fbb54",
      "transactionIndex": "0xd",
      "blockHash": "0x0f47d37cbf25537f97edee5b06b4894693e2209f2c6e9bee708c98c001c7db30",
      "blockNumber": "0x3890df",
      "gasUsed": "0x25fb4",
      "effectiveGasPrice": "0x5d21dba01",
      "from": "0xabcde369cddd1665e4ebd9214b8e9a595271272c",
      "to": "0x737285328116fcc9edab850d6fa1583fae1152ce",
      "contractAddress": null,
      "l1BaseFeeScalar": "0x0",
      "l1BlobBaseFee": "0x1",
      "l1BlobBaseFeeScalar": "0x0",
      "l1Fee": "0x0",
      "l1GasPrice": "0x3815ce",
      "l1GasUsed": "0x640"
    },
    {
      "status": "0x1",
      "cumulativeGasUsed": "0xdda8a",
      "logs": [
        {
          "address": "0x691ab9aff4a36e1fcb9c2d9a366cc0e176c5e4fc",
          "topics": [
            "0x7cebb17173a9ed273d2b7538f64395c0ebf352ff743f1cf8ce66b437a6144213",
            "0x000000000000000000000000f549d6558bc78524d4beb33cf83a26b4862b2468",
            "0x000000000000000000000000411fac2c99957651f9cc93d4852d4346f929c61e"
          ],
          "data": "0x0000000000000000000000000000000000000000000000000000000068b98e7300000000000000000000000000000000000000000000d3c21bcecceda0e17b80",
          "blockHash": "0x0f47d37cbf25537f97edee5b06b4894693e2209f2c6e9bee708c98c001c7db30",
          "blockNumber": "0x3890df",
          "transactionHash": "0xcfeadfb9c8050952483629e29c6b91baa043370ec5da3494b57861f9a46a915f",
          "transactionIndex": "0xe",
          "logIndex": "0x4",
          "removed": false
        }
      ],
      "logsBloom": "0x00800000000000000000001000000000000000000000000000000000000000000000000000000000000000000000000800000000000000200000000000100000000000000000000000000000800000000000000000000000000000000000000000000000000000000000000000008000000000000000000000000000000000000000000000000000000000000000001000000000000000000008000000000000200000000000000000000008000000000000000000000000000000000000000000000000000000000000000000000000000000000000000000000000000000000000000000000000000000000000000000000000000000000000000000000020",
      "type": "0x2",
      "transactionHash": "0xcfeadfb9c8050952483629e29c6b91baa043370ec5da3494b57861f9a46a915f",
      "transactionIndex": "0xe",
      "blockHash": "0x0f47d37cbf25537f97edee5b06b4894693e2209f2c6e9bee708c98c001c7db30",
      "blockNumber": "0x3890df",
      "gasUsed": "0x27df6",
      "effectiveGasPrice": "0x5d21dba01",
      "from": "0xabcde369cddd1665e4ebd9214b8e9a595271272c",
      "to": "0x411fac2c99957651f9cc93d4852d4346f929c61e",
      "contractAddress": null,
      "l1BaseFeeScalar": "0x0",
      "l1BlobBaseFee": "0x1",
      "l1BlobBaseFeeScalar": "0x0",
      "l1Fee": "0x0",
      "l1GasPrice": "0x3815ce",
      "l1GasUsed": "0x640"
    },
    {
      "status": "0x1",
      "cumulativeGasUsed": "0x103a3e",
      "logs": [
        {
          "address": "0x691ab9aff4a36e1fcb9c2d9a366cc0e176c5e4fc",
          "topics": [
            "0x7cebb17173a9ed273d2b7538f64395c0ebf352ff743f1cf8ce66b437a6144213",
            "0x0000000000000000000000008081ce55dc0f6f1e45ab2828d2f7da2a01113084",
            "0x000000000000000000000000dbbe66b2ec5f1539c0c79ecf5fab12a94c1c7d7b"
          ],
          "data": "0x0000000000000000000000000000000000000000000000000000000068b98e73000000000000000000000000000000000000000000003df51becefe33dd60000",
          "blockHash": "0x0f47d37cbf25537f97edee5b06b4894693e2209f2c6e9bee708c98c001c7db30",
          "blockNumber": "0x3890df",
          "transactionHash": "0x1ea2c9658e8be08c6b45a80ff781e4d3ff6decffa8418e99c1d6dea5be99832b",
          "transactionIndex": "0xf",
          "logIndex": "0x5",
          "removed": false
        },
        {
          "address": "0x691ab9aff4a36e1fcb9c2d9a366cc0e176c5e4fc",
          "topics": [
            "0xa9981ebfc3b766a742486e898f54959b050a66006dbce1a4155c1f84a08bcf41",
            "0x0000000000000000000000008081ce55dc0f6f1e45ab2828d2f7da2a01113084"
          ],
          "data": "0x000000000000000000000000000000000000000000003df51becefe33dd60000",
          "blockHash": "0x0f47d37cbf25537f97edee5b06b4894693e2209f2c6e9bee708c98c001c7db30",
          "blockNumber": "0x3890df",
          "transactionHash": "0x1ea2c9658e8be08c6b45a80ff781e4d3ff6decffa8418e99c1d6dea5be99832b",
          "transactionIndex": "0xf",
          "logIndex": "0x6",
          "removed": false
        }
      ],
      "logsBloom": "0x02800000000000000000000000000000000000002000000000000000000000000000000000000000000000000000000800000000000000000000000000100000000000000000000000000000000000000000000004000000000000000000000000000000000000000000000000008000000000000080000000000000000000000000000000000000400000000000000000000000000000080000000000000000200000800000000000000008000000000000000000000000000000000000000000000000000000001000000000200000000000000000000000000000000000000000000000000000000000000000000000000000000000000000000000000000",
      "type": "0x2",
      "transactionHash": "0x1ea2c9658e8be08c6b45a80ff781e4d3ff6decffa8418e99c1d6dea5be99832b",
      "transactionIndex": "0xf",
      "blockHash": "0x0f47d37cbf25537f97edee5b06b4894693e2209f2c6e9bee708c98c001c7db30",
      "blockNumber": "0x3890df",
      "gasUsed": "0x25fb4",
      "effectiveGasPrice": "0x5d21dba01",
      "from": "0xabcde369cddd1665e4ebd9214b8e9a595271272c",
      "to": "0xdbbe66b2ec5f1539c0c79ecf5fab12a94c1c7d7b",
      "contractAddress": null,
      "l1BaseFeeScalar": "0x0",
      "l1BlobBaseFee": "0x1",
      "l1BlobBaseFeeScalar": "0x0",
      "l1Fee": "0x0",
      "l1GasPrice": "0x3815ce",
      "l1GasUsed": "0x640"
    },
    {
      "status": "0x1",
      "cumulativeGasUsed": "0x1299f2",
      "logs": [
        {
          "address": "0x691ab9aff4a36e1fcb9c2d9a366cc0e176c5e4fc",
          "topics": [
            "0x7cebb17173a9ed273d2b7538f64395c0ebf352ff743f1cf8ce66b437a6144213",
            "0x000000000000000000000000ec57482aa55e3ad026c315a0e4a692b776c318ca",
            "0x0000000000000000000000003bc0add00a414bc1fe0cfb6bde62e03e01a39059"
          ],
          "data": "0x0000000000000000000000000000000000000000000000000000000068b98e7300000000000000000000000000000000000000000000f69041012688061d0000",
          "blockHash": "0x0f47d37cbf25537f97edee5b06b4894693e2209f2c6e9bee708c98c001c7db30",
          "blockNumber": "0x3890df",
          "transactionHash": "0xf1b14de31bb86da15d6bb833a5f230a20ffa25f45f2c20a48e5dd57c70810601",
          "transactionIndex": "0x10",
          "logIndex": "0x7",
          "removed": false
        },
        {
          "address": "0x691ab9aff4a36e1fcb9c2d9a366cc0e176c5e4fc",
          "topics": [
            "0xa9981ebfc3b766a742486e898f54959b050a66006dbce1a4155c1f84a08bcf41",
            "0x000000000000000000000000ec57482aa55e3ad026c315a0e4a692b776c318ca"
          ],
          "data": "0x00000000000000000000000000000000000000000000f69041012688061d0000",
          "blockHash": "0x0f47d37cbf25537f97edee5b06b4894693e2209f2c6e9bee708c98c001c7db30",
          "blockNumber": "0x3890df",
          "transactionHash": "0xf1b14de31bb86da15d6bb833a5f230a20ffa25f45f2c20a48e5dd57c70810601",
          "transactionIndex": "0x10",
          "logIndex": "0x8",
          "removed": false
        }
      ],
      "logsBloom": "0x00800000000000000000000000000000000000000000000000000000000000000000000000000000000000000000000800000000000000000000800000100000000000001000000000000000000000000000000004000000000000000000000400000000000000000000000000008000000000000000000000000000000000000200000000000000400000000000000000000400000000000000000000000000200000800000000000000008000000000000000000000000000000000000000000000000000000000000000000000000000000000000000020000000000000000000000000000000000000000000000000000000000000000000000000000000",
      "type": "0x2",
      "transactionHash": "0xf1b14de31bb86da15d6bb833a5f230a20ffa25f45f2c20a48e5dd57c70810601",
      "transactionIndex": "0x10",
      "blockHash": "0x0f47d37cbf25537f97edee5b06b4894693e2209f2c6e9bee708c98c001c7db30",
      "blockNumber": "0x3890df",
      "gasUsed": "0x25fb4",
      "effectiveGasPrice": "0x5d21dba01",
      "from": "0xabcde369cddd1665e4ebd9214b8e9a595271272c",
      "to": "0x3bc0add00a414bc1fe0cfb6bde62e03e01a39059",
      "contractAddress": null,
      "l1BaseFeeScalar": "0x0",
      "l1BlobBaseFee": "0x1",
      "l1BlobBaseFeeScalar": "0x0",
      "l1Fee": "0x0",
      "l1GasPrice": "0x3815ce",
      "l1GasUsed": "0x640"
    },
    {
      "status": "0x1",
      "cumulativeGasUsed": "0x14f9a6",
      "logs": [
        {
          "address": "0x691ab9aff4a36e1fcb9c2d9a366cc0e176c5e4fc",
          "topics": [
            "0x7cebb17173a9ed273d2b7538f64395c0ebf352ff743f1cf8ce66b437a6144213",
            "0x000000000000000000000000669bcf7bdb701e3b15799d2732c0518cf3b65507",
            "0x000000000000000000000000f4ed3b0f01cf978a56fcaca96e4537c60542edd5"
          ],
          "data": "0x0000000000000000000000000000000000000000000000000000000068b98e730000000000000000000000000000000000000000000026cac60e037395c40000",
          "blockHash": "0x0f47d37cbf25537f97edee5b06b4894693e2209f2c6e9bee708c98c001c7db30",
          "blockNumber": "0x3890df",
          "transactionHash": "0xb33ddc4108fbb277e133d17c6b9c8500ff20fb25ba03a7170aec07d2a182324a",
          "transactionIndex": "0x11",
          "logIndex": "0x9",
          "removed": false
        },
        {
          "address": "0x691ab9aff4a36e1fcb9c2d9a366cc0e176c5e4fc",
          "topics": [
            "0xa9981ebfc3b766a742486e898f54959b050a66006dbce1a4155c1f84a08bcf41",
            "0x000000000000000000000000669bcf7bdb701e3b15799d2732c0518cf3b65507"
          ],
          "data": "0x0000000000000000000000000000000000000000000026cac60e037395c40000",
          "blockHash": "0x0f47d37cbf25537f97edee5b06b4894693e2209f2c6e9bee708c98c001c7db30",
          "blockNumber": "0x3890df",
          "transactionHash": "0xb33ddc4108fbb277e133d17c6b9c8500ff20fb25ba03a7170aec07d2a182324a",
          "transactionIndex": "0x11",
          "logIndex": "0xa",
          "removed": false
        }
      ],
      "logsBloom": "0x00800000000000000000000000000000000000000000000000000000000000000000000000000000000000000000000800000000000000000000000000100004000000000000000000000000000000000000000004000000000000000000000000000000000000000000000000008000000000000000000800040000000000000000000000000000400000000000000000000000000000000000000000000000200000800000000000000008000000040000000000000000000000000000000000000000000000000400000000000000000000000000000000000000000000000000000000000000000000000000000000000000000000000800000000000000",
      "type": "0x2",
      "transactionHash": "0xb33ddc4108fbb277e133d17c6b9c8500ff20fb25ba03a7170aec07d2a182324a",
      "transactionIndex": "0x11",
      "blockHash": "0x0f47d37cbf25537f97edee5b06b4894693e2209f2c6e9bee708c98c001c7db30",
      "blockNumber": "0x3890df",
      "gasUsed": "0x25fb4",
      "effectiveGasPrice": "0x5d21dba01",
      "from": "0xabcde369cddd1665e4ebd9214b8e9a595271272c",
      "to": "0xf4ed3b0f01cf978a56fcaca96e4537c60542edd5",
      "contractAddress": null,
      "l1BaseFeeScalar": "0x0",
      "l1BlobBaseFee": "0x1",
      "l1BlobBaseFeeScalar": "0x0",
      "l1Fee": "0x0",
      "l1GasPrice": "0x3815ce",
      "l1GasUsed": "0x640"
    },
    {
      "status": "0x1",
      "cumulativeGasUsed": "0x1747ef",
      "logs": [
        {
          "address": "0x691ab9aff4a36e1fcb9c2d9a366cc0e176c5e4fc",
          "topics": [
            "0x7cebb17173a9ed273d2b7538f64395c0ebf352ff743f1cf8ce66b437a6144213",
            "0x000000000000000000000000bb792783141ac5f51eed9c922acf86d21a059ca8",
            "0x000000000000000000000000f764861a23096bf289232300b51f202dd902e04d"
          ],
          "data": "0x0000000000000000000000000000000000000000000000000000000068b98e730000000000000000000000000000000000000000000000604919562291d51ac0",
          "blockHash": "0x0f47d37cbf25537f97edee5b06b4894693e2209f2c6e9bee708c98c001c7db30",
          "blockNumber": "0x3890df",
          "transactionHash": "0xa3cf617bfa61027487aa81a61435a966c69152b8ad66d065b0b5c2a23919fcda",
          "transactionIndex": "0x12",
          "logIndex": "0xb",
          "removed": false
        }
      ],
      "logsBloom": "0x00800008000000000000000000000000000000000010000000000000000000000000000000000000000000000000000800000000000000000000000000100000000000000000000000000000000000000000000000800000000000000000000000000000000000000000000000008000000000000000000000000000000000000000000000000000000000000000000000100000000000000000000000000000200000000000000000000008000000000000000000000000000000000000000000000000000000000000000000000000000000000000000000000000000000000000000000000004000000000000000000000000000000000000040000000000",
      "type": "0x2",
      "transactionHash": "0xa3cf617bfa61027487aa81a61435a966c69152b8ad66d065b0b5c2a23919fcda",
      "transactionIndex": "0x12",
      "blockHash": "0x0f47d37cbf25537f97edee5b06b4894693e2209f2c6e9bee708c98c001c7db30",
      "blockNumber": "0x3890df",
      "gasUsed": "0x24e49",
      "effectiveGasPrice": "0x5d21dba01",
      "from": "0xabcde369cddd1665e4ebd9214b8e9a595271272c",
      "to": "0xf764861a23096bf289232300b51f202dd902e04d",
      "contractAddress": null,
      "l1BaseFeeScalar": "0x0",
      "l1BlobBaseFee": "0x1",
      "l1BlobBaseFeeScalar": "0x0",
      "l1Fee": "0x0",
      "l1GasPrice": "0x3815ce",
      "l1GasUsed": "0x640"
    },
    {
      "status": "0x1",
      "cumulativeGasUsed": "0x199638",
      "logs": [
        {
          "address": "0x691ab9aff4a36e1fcb9c2d9a366cc0e176c5e4fc",
          "topics": [
            "0x7cebb17173a9ed273d2b7538f64395c0ebf352ff743f1cf8ce66b437a6144213",
            "0x000000000000000000000000ef40371a602409f86f9ac4e37580c59dee61199f",
            "0x000000000000000000000000cc08331daa33ca9a97f3feb2b73d9f393eb921c1"
          ],
          "data": "0x0000000000000000000000000000000000000000000000000000000068b98e730000000000000000000000000000000000000000000001a352bfefaf251e2140",
          "blockHash": "0x0f47d37cbf25537f97edee5b06b4894693e2209f2c6e9bee708c98c001c7db30",
          "blockNumber": "0x3890df",
          "transactionHash": "0xcf1603d43ec2e9efaa6fb9e6e42cd61cd1ab35e09d9450ad541b63a78ffbe83b",
          "transactionIndex": "0x13",
          "logIndex": "0xc",
          "removed": false
        }
      ],
      "logsBloom": "0x00800000000000000000000000000000000000000000000000000000000000000000000000000000000000000000000800000000000000000000100000100000000000000000000000000000000000000000000000000000000000000000000000000000000000000000000000008000000000000000000000000000000000000000000000000000000000000000000000000000000000000000000000000000200000000000000000000008000000000000000000000000000000000000000000000000000000000020400000000000000000000000000000000000000000000000000000000000000000000000000000000000000000001000010004000000",
      "type": "0x2",
      "transactionHash": "0xcf1603d43ec2e9efaa6fb9e6e42cd61cd1ab35e09d9450ad541b63a78ffbe83b",
      "transactionIndex": "0x13",
      "blockHash": "0x0f47d37cbf25537f97edee5b06b4894693e2209f2c6e9bee708c98c001c7db30",
      "blockNumber": "0x3890df",
      "gasUsed": "0x24e49",
      "effectiveGasPrice": "0x5d21dba01",
      "from": "0xabcde369cddd1665e4ebd9214b8e9a595271272c",
      "to": "0xcc08331daa33ca9a97f3feb2b73d9f393eb921c1",
      "contractAddress": null,
      "l1BaseFeeScalar": "0x0",
      "l1BlobBaseFee": "0x1",
      "l1BlobBaseFeeScalar": "0x0",
      "l1Fee": "0x0",
      "l1GasPrice": "0x3815ce",
      "l1GasUsed": "0x640"
    },
    {
      "status": "0x1",
      "cumulativeGasUsed": "0x1bf5ec",
      "logs": [
        {
          "address": "0x691ab9aff4a36e1fcb9c2d9a366cc0e176c5e4fc",
          "topics": [
            "0x7cebb17173a9ed273d2b7538f64395c0ebf352ff743f1cf8ce66b437a6144213",
            "0x000000000000000000000000aa04d30cced09ae17815f88d1bcae69a49fb160f",
            "0x0000000000000000000000008b74bca4c87207380292f0844b1c0abe2ef60c54"
          ],
          "data": "0x0000000000000000000000000000000000000000000000000000000068b98e730000000000000000000000000000000000000000000003b4b95c3d6ab2870000",
          "blockHash": "0x0f47d37cbf25537f97edee5b06b4894693e2209f2c6e9bee708c98c001c7db30",
          "blockNumber": "0x3890df",
          "transactionHash": "0x2bfc9c45e74c6ad832e4ee66e87834fee70928747c79b59a0de05033ade5c4f2",
          "transactionIndex": "0x14",
          "logIndex": "0xd",
          "removed": false
        },
        {
          "address": "0x691ab9aff4a36e1fcb9c2d9a366cc0e176c5e4fc",
          "topics": [
            "0xa9981ebfc3b766a742486e898f54959b050a66006dbce1a4155c1f84a08bcf41",
            "0x000000000000000000000000aa04d30cced09ae17815f88d1bcae69a49fb160f"
          ],
          "data": "0x0000000000000000000000000000000000000000000003b4b95c3d6ab2870000",
          "blockHash": "0x0f47d37cbf25537f97edee5b06b4894693e2209f2c6e9bee708c98c001c7db30",
          "blockNumber": "0x3890df",
          "transactionHash": "0x2bfc9c45e74c6ad832e4ee66e87834fee70928747c79b59a0de05033ade5c4f2",
          "transactionIndex": "0x14",
          "logIndex": "0xe",
          "removed": false
        }
      ],
      "logsBloom": "0x00800000000000000000000000000000000000000000000000000000000000000000000001000000800000000000000800000000000000000000000000100000000000000000000000000000000000000000000004000000000000000000000000000000000000000000000000008000000000000000000000000000000000000000000000000000400000000000000000000000000000000000000000000000200000800000000000000008000000000200000000000000000000000000000000000000080008000000000000000000000000000000001000000000000000000000000000000000000000000000000000000000000000000000000000000000",
      "type": "0x2",
      "transactionHash": "0x2bfc9c45e74c6ad832e4ee66e87834fee70928747c79b59a0de05033ade5c4f2",
      "transactionIndex": "0x14",
      "blockHash": "0x0f47d37cbf25537f97edee5b06b4894693e2209f2c6e9bee708c98c001c7db30",
      "blockNumber": "0x3890df",
      "gasUsed": "0x25fb4",
      "effectiveGasPrice": "0x5d21dba01",
      "from": "0xabcde369cddd1665e4ebd9214b8e9a595271272c",
      "to": "0x8b74bca4c87207380292f0844b1c0abe2ef60c54",
      "contractAddress": null,
      "l1BaseFeeScalar": "0x0",
      "l1BlobBaseFee": "0x1",
      "l1BlobBaseFeeScalar": "0x0",
      "l1Fee": "0x0",
      "l1GasPrice": "0x3815ce",
      "l1GasUsed": "0x640"
    },
    {
      "status": "0x1",
      "cumulativeGasUsed": "0x1e4500",
      "logs": [
        {
          "address": "0x691ab9aff4a36e1fcb9c2d9a366cc0e176c5e4fc",
          "topics": [
            "0x7cebb17173a9ed273d2b7538f64395c0ebf352ff743f1cf8ce66b437a6144213",
            "0x000000000000000000000000f7b436583e011794293a04faa440816f3354501f",
            "0x000000000000000000000000a5f0ce0cd80e203161709a18378f2c850b64cc56"
          ],
          "data": "0x0000000000000000000000000000000000000000000000000000000068b98e7300000000000000000000000000000000000000000000000d89fa3dc48dcf0000",
          "blockHash": "0x0f47d37cbf25537f97edee5b06b4894693e2209f2c6e9bee708c98c001c7db30",
          "blockNumber": "0x3890df",
          "transactionHash": "0x77d7596ed7ff72435a3a2f0f5c99eeae134bf3c4f055a96b16d8424f4b2b5770",
          "transactionIndex": "0x15",
          "logIndex": "0xf",
          "removed": false
        }
      ],
      "logsBloom": "0x00800000000000000000000000000000000000000000000000000000000000000000000000400000000000000000000800000000000000000000000000100000000000000000000000001002000000000000000000000000000000000000000000000000000000000000000000008000000000000000000000000000000000000000000000000000000000000000000000000000000000000000000004000000200000000000000000000008000000000000000000000000000000000000000000000000000000000000000000000000000000000000000000000000000000010000000000000000000000000000000001000000000000000000000000000000",
      "type": "0x2",
      "transactionHash": "0x77d7596ed7ff72435a3a2f0f5c99eeae134bf3c4f055a96b16d8424f4b2b5770",
      "transactionIndex": "0x15",
      "blockHash": "0x0f47d37cbf25537f97edee5b06b4894693e2209f2c6e9bee708c98c001c7db30",
      "blockNumber": "0x3890df",
      "gasUsed": "0x24f14",
      "effectiveGasPrice": "0x5d21dba01",
      "from": "0xabcde369cddd1665e4ebd9214b8e9a595271272c",
      "to": "0xa5f0ce0cd80e203161709a18378f2c850b64cc56",
      "contractAddress": null,
      "l1BaseFeeScalar": "0x0",
      "l1BlobBaseFee": "0x1",
      "l1BlobBaseFeeScalar": "0x0",
      "l1Fee": "0x0",
      "l1GasPrice": "0x3815ce",
      "l1GasUsed": "0x640"
    },
    {
      "status": "0x1",
      "cumulativeGasUsed": "0x209414",
      "logs": [
        {
          "address": "0x691ab9aff4a36e1fcb9c2d9a366cc0e176c5e4fc",
          "topics": [
            "0x7cebb17173a9ed273d2b7538f64395c0ebf352ff743f1cf8ce66b437a6144213",
            "0x000000000000000000000000812a10b8744a9ad8637e819899d8c33454fe8d20",
            "0x00000000000000000000000001f9629fb13ec2f902cc27f521e5b29e880173b4"
          ],
          "data": "0x0000000000000000000000000000000000000000000000000000000068b98e730000000000000000000000000000000000000000000011913bd6f2af56fc0000",
          "blockHash": "0x0f47d37cbf25537f97edee5b06b4894693e2209f2c6e9bee708c98c001c7db30",
          "blockNumber": "0x3890df",
          "transactionHash": "0x23cf4070362f3659fb47ee02b5b335907e0547258c34e26577898c2f3489058a",
          "transactionIndex": "0x16",
          "logIndex": "0x10",
          "removed": false
        }
      ],
      "logsBloom": "0x00800000000000000000000000000000100000000000002000000000000100000000000000000000000000000000000800000000002000000000000000100000000000000000000000000000000000000000000000000000000000000000000000000000000000000000000000008000000000000000000000000000000000000000000000000000000000000000000000000000000000000000000000000000200000000000000000000008000000000000080000000000000000000000000000000000000000000000000000000000000000000000000000000000000000000000000000000000000000000000000000000000000001000000000000000000",
      "type": "0x2",
      "transactionHash": "0x23cf4070362f3659fb47ee02b5b335907e0547258c34e26577898c2f3489058a",
      "transactionIndex": "0x16",
      "blockHash": "0x0f47d37cbf25537f97edee5b06b4894693e2209f2c6e9bee708c98c001c7db30",
      "blockNumber": "0x3890df",
      "gasUsed": "0x24f14",
      "effectiveGasPrice": "0x5d21dba01",
      "from": "0xabcde369cddd1665e4ebd9214b8e9a595271272c",
      "to": "0x01f9629fb13ec2f902cc27f521e5b29e880173b4",
      "contractAddress": null,
      "l1BaseFeeScalar": "0x0",
      "l1BlobBaseFee": "0x1",
      "l1BlobBaseFeeScalar": "0x0",
      "l1Fee": "0x0",
      "l1GasPrice": "0x3815ce",
      "l1GasUsed": "0x640"
    },
    {
      "status": "0x1",
      "cumulativeGasUsed": "0x22f3c8",
      "logs": [
        {
          "address": "0x691ab9aff4a36e1fcb9c2d9a366cc0e176c5e4fc",
          "topics": [
            "0x7cebb17173a9ed273d2b7538f64395c0ebf352ff743f1cf8ce66b437a6144213",
            "0x000000000000000000000000ea4103a6a122fbe2cdb07a80d4d293be07bb29fa",
            "0x000000000000000000000000bea02da2fef22ad1b47d204e592a63c77bd44944"
          ],
          "data": "0x0000000000000000000000000000000000000000000000000000000068b98e73000000000000000000000000000000000000000000011c94f708f0a364f00000",
          "blockHash": "0x0f47d37cbf25537f97edee5b06b4894693e2209f2c6e9bee708c98c001c7db30",
          "blockNumber": "0x3890df",
          "transactionHash": "0x23332b5f4896f0c019fe1cbaa39dbfe878f77e739c140e5bce25de344b52a454",
          "transactionIndex": "0x17",
          "logIndex": "0x11",
          "removed": false
        },
        {
          "address": "0x691ab9aff4a36e1fcb9c2d9a366cc0e176c5e4fc",
          "topics": [
            "0xa9981ebfc3b766a742486e898f54959b050a66006dbce1a4155c1f84a08bcf41",
            "0x000000000000000000000000ea4103a6a122fbe2cdb07a80d4d293be07bb29fa"
          ],
          "data": "0x000000000000000000000000000000000000000000011c94f708f0a364f00000",
          "blockHash": "0x0f47d37cbf25537f97edee5b06b4894693e2209f2c6e9bee708c98c001c7db30",
          "blockNumber": "0x3890df",
          "transactionHash": "0x23332b5f4896f0c019fe1cbaa39dbfe878f77e739c140e5bce25de344b52a454",
          "transactionIndex": "0x17",
          "logIndex": "0x12",
          "removed": false
        }
      ],
      "logsBloom": "0x00800000000000000000000000000000000000000000000000000000000000000000000000000000000000000000000800000000000000000000000000100080000000000000000000000008000000000000000004000000000000000000000800000000000000000040000000008000000000000000000000000000000000000000000010000000400000000000000000000000000000000000000000000000200000800000000000000008000000000000000000000000000000000000000000000000000000000000000000000002000000000000000000000000000000000000000000000000000000000000000000000000000000000000000000000000",
      "type": "0x2",
      "transactionHash": "0x23332b5f4896f0c019fe1cbaa39dbfe878f77e739c140e5bce25de344b52a454",
      "transactionIndex": "0x17",
      "blockHash": "0x0f47d37cbf25537f97edee5b06b4894693e2209f2c6e9bee708c98c001c7db30",
      "blockNumber": "0x3890df",
      "gasUsed": "0x25fb4",
      "effectiveGasPrice": "0x5d21dba01",
      "from": "0xabcde369cddd1665e4ebd9214b8e9a595271272c",
      "to": "0xbea02da2fef22ad1b47d204e592a63c77bd44944",
      "contractAddress": null,
      "l1BaseFeeScalar": "0x0",
      "l1BlobBaseFee": "0x1",
      "l1BlobBaseFeeScalar": "0x0",
      "l1Fee": "0x0",
      "l1GasPrice": "0x3815ce",
      "l1GasUsed": "0x640"
    },
    {
      "status": "0x1",
      "cumulativeGasUsed": "0x25537c",
      "logs": [
        {
          "address": "0x691ab9aff4a36e1fcb9c2d9a366cc0e176c5e4fc",
          "topics": [
            "0x7cebb17173a9ed273d2b7538f64395c0ebf352ff743f1cf8ce66b437a6144213",
            "0x0000000000000000000000006c4a6765bcfc7e7fc5b01eefe931885a79dde791",
            "0x0000000000000000000000005dfa86d3660a63aaf274e70bf89c9087615a65c3"
          ],
          "data": "0x0000000000000000000000000000000000000000000000000000000068b98e73000000000000000000000000000000000000000000000bea3dc39e8d27ce0000",
          "blockHash": "0x0f47d37cbf25537f97edee5b06b4894693e2209f2c6e9bee708c98c001c7db30",
          "blockNumber": "0x3890df",
          "transactionHash": "0x42cfb207cce5a9936010cdc651c2306933c75773ab36365e2249dfb7e1e299e1",
          "transactionIndex": "0x18",
          "logIndex": "0x13",
          "removed": false
        },
        {
          "address": "0x691ab9aff4a36e1fcb9c2d9a366cc0e176c5e4fc",
          "topics": [
            "0xa9981ebfc3b766a742486e898f54959b050a66006dbce1a4155c1f84a08bcf41",
            "0x0000000000000000000000006c4a6765bcfc7e7fc5b01eefe931885a79dde791"
          ],
          "data": "0x000000000000000000000000000000000000000000000bea3dc39e8d27ce0000",
          "blockHash": "0x0f47d37cbf25537f97edee5b06b4894693e2209f2c6e9bee708c98c001c7db30",
          "blockNumber": "0x3890df",
          "transactionHash": "0x42cfb207cce5a9936010cdc651c2306933c75773ab36365e2249dfb7e1e299e1",
          "transactionIndex": "0x18",
          "logIndex": "0x14",
          "removed": false
        }
      ],
      "logsBloom": "0x00800000000000000000000000000000000000000000000000000000000000000040000000000000000000000000000800000000000000000000000000100000000000000000000000000000000000000000000004000000000000000000000200000000000020000000000000008000000000000000000000000040000000000000000000000000400000000000000000000000000000000000000000000000200000800000000000000008000000000000000000000000000000000000000000000000000000000000000000000000000000000000000000000000000000000000000000000000000000000000000000000000020000000000000000200000",
      "type": "0x2",
      "transactionHash": "0x42cfb207cce5a9936010cdc651c2306933c75773ab36365e2249dfb7e1e299e1",
      "transactionIndex": "0x18",
      "blockHash": "0x0f47d37cbf25537f97edee5b06b4894693e2209f2c6e9bee708c98c001c7db30",
      "blockNumber": "0x3890df",
      "gasUsed": "0x25fb4",
      "effectiveGasPrice": "0x5d21dba01",
      "from": "0xabcde369cddd1665e4ebd9214b8e9a595271272c",
      "to": "0x5dfa86d3660a63aaf274e70bf89c9087615a65c3",
      "contractAddress": null,
      "l1BaseFeeScalar": "0x0",
      "l1BlobBaseFee": "0x1",
      "l1BlobBaseFeeScalar": "0x0",
      "l1Fee": "0x0",
      "l1GasPrice": "0x3815ce",
      "l1GasUsed": "0x640"
    },
    {
      "status": "0x1",
      "cumulativeGasUsed": "0x27b330",
      "logs": [
        {
          "address": "0x691ab9aff4a36e1fcb9c2d9a366cc0e176c5e4fc",
          "topics": [
            "0x7cebb17173a9ed273d2b7538f64395c0ebf352ff743f1cf8ce66b437a6144213",
            "0x00000000000000000000000002996d13041557032ffb3e910966f9ea784dfec4",
            "0x00000000000000000000000041cee890564872045e770ed522e3d2bf5ff1acfd"
          ],
          "data": "0x0000000000000000000000000000000000000000000000000000000068b98e73000000000000000000000000000000000000000000009942ec3de34b62ea0000",
          "blockHash": "0x0f47d37cbf25537f97edee5b06b4894693e2209f2c6e9bee708c98c001c7db30",
          "blockNumber": "0x3890df",
          "transactionHash": "0x2196772ddfc9a803cd36d7728e75425732bd543dfa624a59f9efb7e62facdda2",
          "transactionIndex": "0x19",
          "logIndex": "0x15",
          "removed": false
        },
        {
          "address": "0x691ab9aff4a36e1fcb9c2d9a366cc0e176c5e4fc",
          "topics": [
            "0xa9981ebfc3b766a742486e898f54959b050a66006dbce1a4155c1f84a08bcf41",
            "0x00000000000000000000000002996d13041557032ffb3e910966f9ea784dfec4"
          ],
          "data": "0x000000000000000000000000000000000000000000009942ec3de34b62ea0000",
          "blockHash": "0x0f47d37cbf25537f97edee5b06b4894693e2209f2c6e9bee708c98c001c7db30",
          "blockNumber": "0x3890df",
          "transactionHash": "0x2196772ddfc9a803cd36d7728e75425732bd543dfa624a59f9efb7e62facdda2",
          "transactionIndex": "0x19",
          "logIndex": "0x16",
          "removed": false
        }
      ],
      "logsBloom": "0x00800000000000000000000000000000000000000000000000000000400000000000000000000000000000000000000800000000000000000000000000100000000000000000000000000000000000000000000004000000000000000000000000000000000001000000000000008000000010000000000000040000000000000000000000000000400000000000000000000000000000000000000000000000200000a00000000000000008000000000000000000000000000000000000000000000000000000000000000000000000000000000000000000000000000000000000000000000000000000000000008000000000000000000000000000000000",
      "type": "0x2",
      "transactionHash": "0x2196772ddfc9a803cd36d7728e75425732bd543dfa624a59f9efb7e62facdda2",
      "transactionIndex": "0x19",
      "blockHash": "0x0f47d37cbf25537f97edee5b06b4894693e2209f2c6e9bee708c98c001c7db30",
      "blockNumber": "0x3890df",
      "gasUsed": "0x25fb4",
      "effectiveGasPrice": "0x5d21dba01",
      "from": "0xabcde369cddd1665e4ebd9214b8e9a595271272c",
      "to": "0x41cee890564872045e770ed522e3d2bf5ff1acfd",
      "contractAddress": null,
      "l1BaseFeeScalar": "0x0",
      "l1BlobBaseFee": "0x1",
      "l1BlobBaseFeeScalar": "0x0",
      "l1Fee": "0x0",
      "l1GasPrice": "0x3815ce",
      "l1GasUsed": "0x640"
    },
    {
      "status": "0x1",
      "cumulativeGasUsed": "0x2a12e4",
      "logs": [
        {
          "address": "0x691ab9aff4a36e1fcb9c2d9a366cc0e176c5e4fc",
          "topics": [
            "0x7cebb17173a9ed273d2b7538f64395c0ebf352ff743f1cf8ce66b437a6144213",
            "0x0000000000000000000000005c0c9efb14a767ce50a687ac4658cce705407380",
            "0x00000000000000000000000039e6ed41f651624c90778c0f785c283a124bb52a"
          ],
          "data": "0x0000000000000000000000000000000000000000000000000000000068b98e73000000000000000000000000000000000000000000008a0b071812c112880000",
          "blockHash": "0x0f47d37cbf25537f97edee5b06b4894693e2209f2c6e9bee708c98c001c7db30",
          "blockNumber": "0x3890df",
          "transactionHash": "0x65bdbbe4b8fe245246334b5785aaf13ecd4e64361f5621a7e6a445449740b46e",
          "transactionIndex": "0x1a",
          "logIndex": "0x17",
          "removed": false
        },
        {
          "address": "0x691ab9aff4a36e1fcb9c2d9a366cc0e176c5e4fc",
          "topics": [
            "0xa9981ebfc3b766a742486e898f54959b050a66006dbce1a4155c1f84a08bcf41",
            "0x0000000000000000000000005c0c9efb14a767ce50a687ac4658cce705407380"
          ],
          "data": "0x000000000000000000000000000000000000000000008a0b071812c112880000",
          "blockHash": "0x0f47d37cbf25537f97edee5b06b4894693e2209f2c6e9bee708c98c001c7db30",
          "blockNumber": "0x3890df",
          "transactionHash": "0x65bdbbe4b8fe245246334b5785aaf13ecd4e64361f5621a7e6a445449740b46e",
          "transactionIndex": "0x1a",
          "logIndex": "0x18",
          "removed": false
        }
      ],
      "logsBloom": "0x00800000000000000000000000000000000400000000000000000000000000000000000000000000000000020000000800000000000000000000000000100000000000000000000000000000000000000000000004000000000000000000000000000000000000000000000000008000000000000000000000000000000000000000000000000000400000000000000000000000000000000000000000000000200000800000000000000008000000000000000100000000000000000000000000000001000000000000002000000000000000000000000000000000000000000000000000000000000000000000000000000000000000000000001000000000",
      "type": "0x2",
      "transactionHash": "0x65bdbbe4b8fe245246334b5785aaf13ecd4e64361f5621a7e6a445449740b46e",
      "transactionIndex": "0x1a",
      "blockHash": "0x0f47d37cbf25537f97edee5b06b4894693e2209f2c6e9bee708c98c001c7db30",
      "blockNumber": "0x3890df",
      "gasUsed": "0x25fb4",
      "effectiveGasPrice": "0x5d21dba01",
      "from": "0xabcde369cddd1665e4ebd9214b8e9a595271272c",
      "to": "0x39e6ed41f651624c90778c0f785c283a124bb52a",
      "contractAddress": null,
      "l1BaseFeeScalar": "0x0",
      "l1BlobBaseFee": "0x1",
      "l1BlobBaseFeeScalar": "0x0",
      "l1Fee": "0x0",
      "l1GasPrice": "0x3815ce",
      "l1GasUsed": "0x640"
    },
    {
      "status": "0x1",
      "cumulativeGasUsed": "0x2c7298",
      "logs": [
        {
          "address": "0x691ab9aff4a36e1fcb9c2d9a366cc0e176c5e4fc",
          "topics": [
            "0x7cebb17173a9ed273d2b7538f64395c0ebf352ff743f1cf8ce66b437a6144213",
            "0x0000000000000000000000002ee56be22d6af8c1b0ac97149b6f42d3b0bfb8c2",
            "0x0000000000000000000000005eb3f5b9d4315cda410c98be788a14e0df320fb8"
          ],
          "data": "0x0000000000000000000000000000000000000000000000000000000068b98e730000000000000000000000000000000000000000000106ba32e41f542ce60000",
          "blockHash": "0x0f47d37cbf25537f97edee5b06b4894693e2209f2c6e9bee708c98c001c7db30",
          "blockNumber": "0x3890df",
          "transactionHash": "0x24863c6006fdbc7b3ed97ae4a227aba718eea190a15821f4919bd4f4cc9b7bf5",
          "transactionIndex": "0x1b",
          "logIndex": "0x19",
          "removed": false
        },
        {
          "address": "0x691ab9aff4a36e1fcb9c2d9a366cc0e176c5e4fc",
          "topics": [
            "0xa9981ebfc3b766a742486e898f54959b050a66006dbce1a4155c1f84a08bcf41",
            "0x0000000000000000000000002ee56be22d6af8c1b0ac97149b6f42d3b0bfb8c2"
          ],
          "data": "0x0000000000000000000000000000000000000000000106ba32e41f542ce60000",
          "blockHash": "0x0f47d37cbf25537f97edee5b06b4894693e2209f2c6e9bee708c98c001c7db30",
          "blockNumber": "0x3890df",
          "transactionHash": "0x24863c6006fdbc7b3ed97ae4a227aba718eea190a15821f4919bd4f4cc9b7bf5",
          "transactionIndex": "0x1b",
          "logIndex": "0x1a",
          "removed": false
        }
      ],
      "logsBloom": "0x00800000000000000000000000000000000000000000000000000000000000000000000000000000000000000000000800000000000000000000001000100000000000000000000000000000000000000000100004000000000000000000000000000000000000000000000000008000000000000000000000000000000000000000000000000000400800000000000000000000000000800000000200000000200000800000000000000008000000000000000000000000000000000000000000000000000000000000000000000000000000000000000000000000000000000000000000000000000000000000000000000000000000000000040000000000",
      "type": "0x2",
      "transactionHash": "0x24863c6006fdbc7b3ed97ae4a227aba718eea190a15821f4919bd4f4cc9b7bf5",
      "transactionIndex": "0x1b",
      "blockHash": "0x0f47d37cbf25537f97edee5b06b4894693e2209f2c6e9bee708c98c001c7db30",
      "blockNumber": "0x3890df",
      "gasUsed": "0x25fb4",
      "effectiveGasPrice": "0x5d21dba01",
      "from": "0xabcde369cddd1665e4ebd9214b8e9a595271272c",
      "to": "0x5eb3f5b9d4315cda410c98be788a14e0df320fb8",
      "contractAddress": null,
      "l1BaseFeeScalar": "0x0",
      "l1BlobBaseFee": "0x1",
      "l1BlobBaseFeeScalar": "0x0",
      "l1Fee": "0x0",
      "l1GasPrice": "0x3815ce",
      "l1GasUsed": "0x640"
    },
    {
      "status": "0x1",
      "cumulativeGasUsed": "0x2ed24c",
      "logs": [
        {
          "address": "0x691ab9aff4a36e1fcb9c2d9a366cc0e176c5e4fc",
          "topics": [
            "0x7cebb17173a9ed273d2b7538f64395c0ebf352ff743f1cf8ce66b437a6144213",
            "0x000000000000000000000000b9addcd1d1ce7d49dbb540e2677f1c572bc8d195",
            "0x0000000000000000000000005335bd8ad99c14be976f2c1eac64c3365315d88e"
          ],
          "data": "0x0000000000000000000000000000000000000000000000000000000068b98e7300000000000000000000000000000000000000000000016d235dc83570d90000",
          "blockHash": "0x0f47d37cbf25537f97edee5b06b4894693e2209f2c6e9bee708c98c001c7db30",
          "blockNumber": "0x3890df",
          "transactionHash": "0xafe07bf68393381e7beb1ca1f8c8f008b3fc062ef75aaf51e3f4b6fbfc215849",
          "transactionIndex": "0x1c",
          "logIndex": "0x1b",
          "removed": false
        },
        {
          "address": "0x691ab9aff4a36e1fcb9c2d9a366cc0e176c5e4fc",
          "topics": [
            "0xa9981ebfc3b766a742486e898f54959b050a66006dbce1a4155c1f84a08bcf41",
            "0x000000000000000000000000b9addcd1d1ce7d49dbb540e2677f1c572bc8d195"
          ],
          "data": "0x00000000000000000000000000000000000000000000016d235dc83570d90000",
          "blockHash": "0x0f47d37cbf25537f97edee5b06b4894693e2209f2c6e9bee708c98c001c7db30",
          "blockNumber": "0x3890df",
          "transactionHash": "0xafe07bf68393381e7beb1ca1f8c8f008b3fc062ef75aaf51e3f4b6fbfc215849",
          "transactionIndex": "0x1c",
          "logIndex": "0x1c",
          "removed": false
        }
      ],
      "logsBloom": "0x00800000000000000000000000000000000000000000000000000000000000000000000000000000000000000000000800000000000000000000000000100000000000000000000000000000000000000000000004000000000001000000000000000000000000000000000000008000000000000000000000000000000000000000000000000000420000000000000000000000000000000000000000000000200000800000000000000008000000000000000000000000000000000000000000000000000000000000000000000000000000020000000000000000100000000000100000000000000000000000000004000000000000000000000000000000",
      "type": "0x2",
      "transactionHash": "0xafe07bf68393381e7beb1ca1f8c8f008b3fc062ef75aaf51e3f4b6fbfc215849",
      "transactionIndex": "0x1c",
      "blockHash": "0x0f47d37cbf25537f97edee5b06b4894693e2209f2c6e9bee708c98c001c7db30",
      "blockNumber": "0x3890df",
      "gasUsed": "0x25fb4",
      "effectiveGasPrice": "0x5d21dba01",
      "from": "0xabcde369cddd1665e4ebd9214b8e9a595271272c",
      "to": "0x5335bd8ad99c14be976f2c1eac64c3365315d88e",
      "contractAddress": null,
      "l1BaseFeeScalar": "0x0",
      "l1BlobBaseFee": "0x1",
      "l1BlobBaseFeeScalar": "0x0",
      "l1Fee": "0x0",
      "l1GasPrice": "0x3815ce",
      "l1GasUsed": "0x640"
    },
    {
      "status": "0x1",
      "cumulativeGasUsed": "0x313135",
      "logs": [
        {
          "address": "0x691ab9aff4a36e1fcb9c2d9a366cc0e176c5e4fc",
          "topics": [
            "0x7cebb17173a9ed273d2b7538f64395c0ebf352ff743f1cf8ce66b437a6144213",
            "0x000000000000000000000000d772efe6507b7d8cdc8c4d8870931439fbeeb929",
            "0x0000000000000000000000008700b6031a3c31edbf9a37426ea6a904303d2230"
          ],
          "data": "0x0000000000000000000000000000000000000000000000000000000068b98e730000000000000000000000000000000000000000000000238edff43eec7833c0",
          "blockHash": "0x0f47d37cbf25537f97edee5b06b4894693e2209f2c6e9bee708c98c001c7db30",
          "blockNumber": "0x3890df",
          "transactionHash": "0x8f934e74c0c416dac18553233b5992fe548d6f327d02d86536ca8566686c351e",
          "transactionIndex": "0x1d",
          "logIndex": "0x1d",
          "removed": false
        },
        {
          "address": "0x691ab9aff4a36e1fcb9c2d9a366cc0e176c5e4fc",
          "topics": [
            "0xa9981ebfc3b766a742486e898f54959b050a66006dbce1a4155c1f84a08bcf41",
            "0x000000000000000000000000d772efe6507b7d8cdc8c4d8870931439fbeeb929"
          ],
          "data": "0x0000000000000000000000000000000000000000000000238edff43eec7833c0",
          "blockHash": "0x0f47d37cbf25537f97edee5b06b4894693e2209f2c6e9bee708c98c001c7db30",
          "blockNumber": "0x3890df",
          "transactionHash": "0x8f934e74c0c416dac18553233b5992fe548d6f327d02d86536ca8566686c351e",
          "transactionIndex": "0x1d",
          "logIndex": "0x1e",
          "removed": false
        }
      ],
      "logsBloom": "0x00800020000000000000000000000000000000000000000000000000000000040000000000000200000000000000000800000000000000000000000000100800000000000000000000000000000000000000000004000000000000000000000000000000000000000000000000088000000000000000000000000000000000000000000000000000400000000000000000000000000000000000000000000000200000800000000000000008000000000000000000000000000000000000000000000000000000001000000000000000000000000000000000000000000000000000000000000000000000000000000000000000000000000000000000000000",
      "type": "0x2",
      "transactionHash": "0x8f934e74c0c416dac18553233b5992fe548d6f327d02d86536ca8566686c351e",
      "transactionIndex": "0x1d",
      "blockHash": "0x0f47d37cbf25537f97edee5b06b4894693e2209f2c6e9bee708c98c001c7db30",
      "blockNumber": "0x3890df",
      "gasUsed": "0x25ee9",
      "effectiveGasPrice": "0x5d21dba01",
      "from": "0xabcde369cddd1665e4ebd9214b8e9a595271272c",
      "to": "0x8700b6031a3c31edbf9a37426ea6a904303d2230",
      "contractAddress": null,
      "l1BaseFeeScalar": "0x0",
      "l1BlobBaseFee": "0x1",
      "l1BlobBaseFeeScalar": "0x0",
      "l1Fee": "0x0",
      "l1GasPrice": "0x3815ce",
      "l1GasUsed": "0x640"
    }
  ],
  "libraries": [
    "node_modules/@celo/contracts/common/linkedlists/AddressSortedLinkedListWithMedian.sol:AddressSortedLinkedListWithMedian:0x1aD9B2599975E8CDF5629aFaBA8852269f1A1364"
  ],
  "pending": [],
  "returns": {},
  "timestamp": 1756991093101,
  "chain": 11142220,
  "commit": "51fc624"
}