{
  "transactions": [
    {
      "hash": null,
      "transactionType": "CALL",
      "contractName": null,
      "contractAddress": "0x712959a392488f3eae92c7d2d66517fc3ec829d0",
      "function": "report(int256,uint256)",
      "arguments": [
        "99985176",
        "1756990340"
      ],
      "transaction": {
        "from": "0xabcde369cddd1665e4ebd9214b8e9a595271272c",
        "to": "0x712959a392488f3eae92c7d2d66517fc3ec829d0",
        "gas": "0xc220",
        "value": "0x0",
        "input": "0x0f3d249d0000000000000000000000000000000000000000000000000000000005f5a7180000000000000000000000000000000000000000000000000000000068b98b84",
        "nonce": "0x0",
        "chainId": "0xaa044c"
      },
      "additionalContracts": [],
      "isFixedGasLimit": false
    },
    {
      "hash": null,
      "transactionType": "CALL",
      "contractName": null,
      "contractAddress": "0xb130563ad59b4367de850eb71b6839eade134b05",
      "function": "report(int256,uint256)",
      "arguments": [
        "100023855",
        "1756990515"
      ],
      "transaction": {
        "from": "0xabcde369cddd1665e4ebd9214b8e9a595271272c",
        "to": "0xb130563ad59b4367de850eb71b6839eade134b05",
        "gas": "0xc220",
        "value": "0x0",
        "input": "0x0f3d249d0000000000000000000000000000000000000000000000000000000005f63e2f0000000000000000000000000000000000000000000000000000000068b98c33",
        "nonce": "0x1",
        "chainId": "0xaa044c"
      },
      "additionalContracts": [],
      "isFixedGasLimit": false
    },
    {
      "hash": null,
      "transactionType": "CALL",
      "contractName": null,
      "contractAddress": "0xa0a403b75580072a8e486f82253a407ba9bae0cb",
      "function": "report(int256,uint256)",
      "arguments": [
        "116373510",
        "1756990344"
      ],
      "transaction": {
        "from": "0xabcde369cddd1665e4ebd9214b8e9a595271272c",
        "to": "0xa0a403b75580072a8e486f82253a407ba9bae0cb",
        "gas": "0xc220",
        "value": "0x0",
        "input": "0x0f3d249d0000000000000000000000000000000000000000000000000000000006efb8060000000000000000000000000000000000000000000000000000000068b98b88",
        "nonce": "0x2",
        "chainId": "0xaa044c"
      },
      "additionalContracts": [],
      "isFixedGasLimit": false
    },
    {
      "hash": null,
      "transactionType": "CALL",
      "contractName": null,
      "contractAddress": "0x5995fb71215c9ea02753092aacf47885bfa1a988",
      "function": "report(int256,uint256)",
      "arguments": [
        "29202658",
        "1756990416"
      ],
      "transaction": {
        "from": "0xabcde369cddd1665e4ebd9214b8e9a595271272c",
        "to": "0x5995fb71215c9ea02753092aacf47885bfa1a988",
        "gas": "0xc220",
        "value": "0x0",
        "input": "0x0f3d249d0000000000000000000000000000000000000000000000000000000001bd98e20000000000000000000000000000000000000000000000000000000068b98bd0",
        "nonce": "0x3",
        "chainId": "0xaa044c"
      },
      "additionalContracts": [],
      "isFixedGasLimit": false
    },
    {
      "hash": null,
      "transactionType": "CALL",
      "contractName": null,
      "contractAddress": "0x44a7e7d4de5a4d6f5db9d174943214b926fd07d1",
      "function": "report(int256,uint256)",
      "arguments": [
        "116373510",
        "1756990344"
      ],
      "transaction": {
        "from": "0xabcde369cddd1665e4ebd9214b8e9a595271272c",
        "to": "0x44a7e7d4de5a4d6f5db9d174943214b926fd07d1",
        "gas": "0xc220",
        "value": "0x0",
        "input": "0x0f3d249d0000000000000000000000000000000000000000000000000000000006efb8060000000000000000000000000000000000000000000000000000000068b98b88",
        "nonce": "0x4",
        "chainId": "0xaa044c"
      },
      "additionalContracts": [],
      "isFixedGasLimit": false
    },
    {
      "hash": null,
      "transactionType": "CALL",
      "contractName": null,
      "contractAddress": "0xe30f631aac9762059c67135095c7d520221a0868",
      "function": "report(int256,uint256)",
      "arguments": [
        "18316360",
        "1756990418"
      ],
      "transaction": {
        "from": "0xabcde369cddd1665e4ebd9214b8e9a595271272c",
        "to": "0xe30f631aac9762059c67135095c7d520221a0868",
        "gas": "0xc220",
        "value": "0x0",
        "input": "0x0f3d249d0000000000000000000000000000000000000000000000000000000001177c480000000000000000000000000000000000000000000000000000000068b98bd2",
        "nonce": "0x5",
        "chainId": "0xaa044c"
      },
      "additionalContracts": [],
      "isFixedGasLimit": false
    },
    {
      "hash": null,
      "transactionType": "CALL",
      "contractName": null,
      "contractAddress": "0xf364db584bc3b55df019044de85993c47e1b145a",
      "function": "report(int256,uint256)",
      "arguments": [
        "1776154767021779",
        "1756990410"
      ],
      "transaction": {
        "from": "0xabcde369cddd1665e4ebd9214b8e9a595271272c",
        "to": "0xf364db584bc3b55df019044de85993c47e1b145a",
        "gas": "0xb337",
        "value": "0x0",
        "input": "0x0f3d249d00000000000000000000000000000000000000000000000000064f6741f456d30000000000000000000000000000000000000000000000000000000068b98bca",
        "nonce": "0x6",
        "chainId": "0xaa044c"
      },
      "additionalContracts": [],
      "isFixedGasLimit": false
    },
    {
      "hash": null,
      "transactionType": "CALL",
      "contractName": null,
      "contractAddress": "0x0d1a55b9a06fe8aa48eb87251fbd959d121ea843",
      "function": "report(int256,uint256)",
      "arguments": [
        "7735148514851485",
        "1756990409"
      ],
      "transaction": {
        "from": "0xabcde369cddd1665e4ebd9214b8e9a595271272c",
        "to": "0x0d1a55b9a06fe8aa48eb87251fbd959d121ea843",
        "gas": "0xb337",
        "value": "0x0",
        "input": "0x0f3d249d000000000000000000000000000000000000000000000000001b7b139b833a9d0000000000000000000000000000000000000000000000000000000068b98bc9",
        "nonce": "0x7",
        "chainId": "0xaa044c"
      },
      "additionalContracts": [],
      "isFixedGasLimit": false
    },
    {
      "hash": null,
      "transactionType": "CALL",
      "contractName": null,
      "contractAddress": "0x7a2f69a58f0dae429cc6de1e6fcb6260041c7464",
      "function": "report(int256,uint256)",
      "arguments": [
        "1749888",
        "1756990259"
      ],
      "transaction": {
        "from": "0xabcde369cddd1665e4ebd9214b8e9a595271272c",
        "to": "0x7a2f69a58f0dae429cc6de1e6fcb6260041c7464",
        "gas": "0xc210",
        "value": "0x0",
        "input": "0x0f3d249d00000000000000000000000000000000000000000000000000000000001ab3800000000000000000000000000000000000000000000000000000000068b98b33",
        "nonce": "0x8",
        "chainId": "0xaa044c"
      },
      "additionalContracts": [],
      "isFixedGasLimit": false
    },
    {
      "hash": null,
      "transactionType": "CALL",
      "contractName": null,
      "contractAddress": "0x97fd9624af571a5291d6b5aa0f7db7de8b5e0398",
      "function": "report(int256,uint256)",
      "arguments": [
        "24975",
        "1756990477"
      ],
      "transaction": {
        "from": "0xabcde369cddd1665e4ebd9214b8e9a595271272c",
        "to": "0x97fd9624af571a5291d6b5aa0f7db7de8b5e0398",
        "gas": "0xb2e4",
        "value": "0x0",
        "input": "0x0f3d249d000000000000000000000000000000000000000000000000000000000000618f0000000000000000000000000000000000000000000000000000000068b98c0d",
        "nonce": "0x9",
        "chainId": "0xaa044c"
      },
      "additionalContracts": [],
      "isFixedGasLimit": false
    },
    {
      "hash": null,
      "transactionType": "CALL",
      "contractName": null,
      "contractAddress": "0x04a1e7bbd987a7f86ca10ea36023884e45e46bd7",
      "function": "report(int256,uint256)",
      "arguments": [
        "8295932",
        "1756990269"
      ],
      "transaction": {
        "from": "0xabcde369cddd1665e4ebd9214b8e9a595271272c",
        "to": "0x04a1e7bbd987a7f86ca10ea36023884e45e46bd7",
        "gas": "0xb2f5",
        "value": "0x0",
        "input": "0x0f3d249d00000000000000000000000000000000000000000000000000000000007e95fc0000000000000000000000000000000000000000000000000000000068b98b3d",
        "nonce": "0xa",
        "chainId": "0xaa044c"
      },
      "additionalContracts": [],
      "isFixedGasLimit": false
    },
    {
      "hash": null,
      "transactionType": "CALL",
      "contractName": null,
      "contractAddress": "0x56029056ccc623115d05473cee7d1aacac830185",
      "function": "report(int256,uint256)",
      "arguments": [
        "134330000",
        "1756990433"
      ],
      "transaction": {
        "from": "0xabcde369cddd1665e4ebd9214b8e9a595271272c",
        "to": "0x56029056ccc623115d05473cee7d1aacac830185",
        "gas": "0xc220",
        "value": "0x0",
        "input": "0x0f3d249d000000000000000000000000000000000000000000000000000000000801b6900000000000000000000000000000000000000000000000000000000068b98be1",
        "nonce": "0xb",
        "chainId": "0xaa044c"
      },
      "additionalContracts": [],
      "isFixedGasLimit": false
    },
    {
      "hash": null,
      "transactionType": "CALL",
      "contractName": null,
      "contractAddress": "0x1d866336d9c2f1c9737aca853347838e0a9e0559",
      "function": "report(int256,uint256)",
      "arguments": [
        "5620149",
        "1756990356"
      ],
      "transaction": {
        "from": "0xabcde369cddd1665e4ebd9214b8e9a595271272c",
        "to": "0x1d866336d9c2f1c9737aca853347838e0a9e0559",
        "gas": "0xc210",
        "value": "0x0",
        "input": "0x0f3d249d000000000000000000000000000000000000000000000000000000000055c1b50000000000000000000000000000000000000000000000000000000068b98b94",
        "nonce": "0xc",
        "chainId": "0xaa044c"
      },
      "additionalContracts": [],
      "isFixedGasLimit": false
    },
    {
      "hash": null,
      "transactionType": "CALL",
      "contractName": null,
      "contractAddress": "0x8c947e599bea1f0469d5e2633a6e030910336d11",
      "function": "report(int256,uint256)",
      "arguments": [
        "72365707",
        "1756990505"
      ],
      "transaction": {
        "from": "0xabcde369cddd1665e4ebd9214b8e9a595271272c",
        "to": "0x8c947e599bea1f0469d5e2633a6e030910336d11",
        "gas": "0xc220",
        "value": "0x0",
        "input": "0x0f3d249d000000000000000000000000000000000000000000000000000000000450368b0000000000000000000000000000000000000000000000000000000068b98c29",
        "nonce": "0xd",
        "chainId": "0xaa044c"
      },
      "additionalContracts": [],
      "isFixedGasLimit": false
    },
    {
      "hash": null,
      "transactionType": "CALL",
      "contractName": null,
      "contractAddress": "0xdee315fc7023de5a99fbc68a1ca6c0266a897b17",
      "function": "report(int256,uint256)",
      "arguments": [
        "65141000",
        "1756990480"
      ],
      "transaction": {
        "from": "0xabcde369cddd1665e4ebd9214b8e9a595271272c",
        "to": "0xdee315fc7023de5a99fbc68a1ca6c0266a897b17",
        "gas": "0xc220",
        "value": "0x0",
        "input": "0x0f3d249d0000000000000000000000000000000000000000000000000000000003e1f9080000000000000000000000000000000000000000000000000000000068b98c10",
        "nonce": "0xe",
        "chainId": "0xaa044c"
      },
      "additionalContracts": [],
      "isFixedGasLimit": false
    },
    {
      "hash": null,
      "transactionType": "CALL",
      "contractName": null,
      "contractAddress": "0x703691155cd4006ed14361023ec35599cfb33a19",
      "function": "report(int256,uint256)",
      "arguments": [
        "124084874",
        "1756990381"
      ],
      "transaction": {
        "from": "0xabcde369cddd1665e4ebd9214b8e9a595271272c",
        "to": "0x703691155cd4006ed14361023ec35599cfb33a19",
        "gas": "0xc220",
        "value": "0x0",
        "input": "0x0f3d249d000000000000000000000000000000000000000000000000000000000765628a0000000000000000000000000000000000000000000000000000000068b98bad",
        "nonce": "0xf",
        "chainId": "0xaa044c"
      },
      "additionalContracts": [],
      "isFixedGasLimit": false
    },
    {
      "hash": null,
      "transactionType": "CALL",
      "contractName": null,
      "contractAddress": "0x8003d6ea2954e8fa12c420e189777b2a7d989653",
      "function": "report(int256,uint256)",
      "arguments": [
        "673641",
        "1756990408"
      ],
      "transaction": {
        "from": "0xabcde369cddd1665e4ebd9214b8e9a595271272c",
        "to": "0x8003d6ea2954e8fa12c420e189777b2a7d989653",
        "gas": "0xc210",
        "value": "0x0",
        "input": "0x0f3d249d00000000000000000000000000000000000000000000000000000000000a47690000000000000000000000000000000000000000000000000000000068b98bc8",
        "nonce": "0x10",
        "chainId": "0xaa044c"
      },
      "additionalContracts": [],
      "isFixedGasLimit": false
    },
    {
      "hash": null,
      "transactionType": "CALL",
      "contractName": null,
      "contractAddress": "0x5db4a1e964ce93f994ff56aaf96b39de73f073da",
      "function": "report(int256,uint256)",
      "arguments": [
        "655931258404119",
        "1756990506"
      ],
      "transaction": {
        "from": "0xabcde369cddd1665e4ebd9214b8e9a595271272c",
        "to": "0x5db4a1e964ce93f994ff56aaf96b39de73f073da",
        "gas": "0xc253",
        "value": "0x0",
        "input": "0x0f3d249d00000000000000000000000000000000000000000000000000025490e5a77d170000000000000000000000000000000000000000000000000000000068b98c2a",
        "nonce": "0x11",
        "chainId": "0xaa044c"
      },
      "additionalContracts": [],
      "isFixedGasLimit": false
    },
    {
      "hash": null,
      "transactionType": "CALL",
      "contractName": null,
      "contractAddress": "0x2053c6091491a572bcd8baa96f693ca77df25ccf",
      "function": "relay()",
      "arguments": [],
      "transaction": {
        "from": "0xabcde369cddd1665e4ebd9214b8e9a595271272c",
        "to": "0x2053c6091491a572bcd8baa96f693ca77df25ccf",
        "gas": "0x34763",
        "value": "0x0",
        "input": "0xb59589d1",
        "nonce": "0x12",
        "chainId": "0xaa044c"
      },
      "additionalContracts": [],
      "isFixedGasLimit": false
    },
    {
      "hash": null,
      "transactionType": "CALL",
      "contractName": null,
      "contractAddress": "0x737285328116fcc9edab850d6fa1583fae1152ce",
      "function": "relay()",
      "arguments": [],
      "transaction": {
        "from": "0xabcde369cddd1665e4ebd9214b8e9a595271272c",
        "to": "0x737285328116fcc9edab850d6fa1583fae1152ce",
        "gas": "0x34763",
        "value": "0x0",
        "input": "0xb59589d1",
        "nonce": "0x13",
        "chainId": "0xaa044c"
      },
      "additionalContracts": [],
      "isFixedGasLimit": false
    },
    {
      "hash": null,
      "transactionType": "CALL",
      "contractName": null,
      "contractAddress": "0x411fac2c99957651f9cc93d4852d4346f929c61e",
      "function": "relay()",
      "arguments": [],
      "transaction": {
        "from": "0xabcde369cddd1665e4ebd9214b8e9a595271272c",
        "to": "0x411fac2c99957651f9cc93d4852d4346f929c61e",
        "gas": "0x38825",
        "value": "0x0",
        "input": "0xb59589d1",
        "nonce": "0x14",
        "chainId": "0xaa044c"
      },
      "additionalContracts": [],
      "isFixedGasLimit": false
    },
    {
      "hash": null,
      "transactionType": "CALL",
      "contractName": null,
      "contractAddress": "0xdbbe66b2ec5f1539c0c79ecf5fab12a94c1c7d7b",
      "function": "relay()",
      "arguments": [],
      "transaction": {
        "from": "0xabcde369cddd1665e4ebd9214b8e9a595271272c",
        "to": "0xdbbe66b2ec5f1539c0c79ecf5fab12a94c1c7d7b",
        "gas": "0x34763",
        "value": "0x0",
        "input": "0xb59589d1",
        "nonce": "0x15",
        "chainId": "0xaa044c"
      },
      "additionalContracts": [],
      "isFixedGasLimit": false
    },
    {
      "hash": null,
      "transactionType": "CALL",
      "contractName": null,
      "contractAddress": "0x3bc0add00a414bc1fe0cfb6bde62e03e01a39059",
      "function": "relay()",
      "arguments": [],
      "transaction": {
        "from": "0xabcde369cddd1665e4ebd9214b8e9a595271272c",
        "to": "0x3bc0add00a414bc1fe0cfb6bde62e03e01a39059",
        "gas": "0x34763",
        "value": "0x0",
        "input": "0xb59589d1",
        "nonce": "0x16",
        "chainId": "0xaa044c"
      },
      "additionalContracts": [],
      "isFixedGasLimit": false
    },
    {
      "hash": null,
      "transactionType": "CALL",
      "contractName": null,
      "contractAddress": "0xf4ed3b0f01cf978a56fcaca96e4537c60542edd5",
      "function": "relay()",
      "arguments": [],
      "transaction": {
        "from": "0xabcde369cddd1665e4ebd9214b8e9a595271272c",
        "to": "0xf4ed3b0f01cf978a56fcaca96e4537c60542edd5",
        "gas": "0x34763",
        "value": "0x0",
        "input": "0xb59589d1",
        "nonce": "0x17",
        "chainId": "0xaa044c"
      },
      "additionalContracts": [],
      "isFixedGasLimit": false
    },
    {
      "hash": null,
      "transactionType": "CALL",
      "contractName": null,
      "contractAddress": "0xf764861a23096bf289232300b51f202dd902e04d",
      "function": "relay()",
      "arguments": [],
      "transaction": {
        "from": "0xabcde369cddd1665e4ebd9214b8e9a595271272c",
        "to": "0xf764861a23096bf289232300b51f202dd902e04d",
        "gas": "0x35f4a",
        "value": "0x0",
        "input": "0xb59589d1",
        "nonce": "0x18",
        "chainId": "0xaa044c"
      },
      "additionalContracts": [],
      "isFixedGasLimit": false
    },
    {
      "hash": null,
      "transactionType": "CALL",
      "contractName": null,
      "contractAddress": "0xcc08331daa33ca9a97f3feb2b73d9f393eb921c1",
      "function": "relay()",
      "arguments": [],
      "transaction": {
        "from": "0xabcde369cddd1665e4ebd9214b8e9a595271272c",
        "to": "0xcc08331daa33ca9a97f3feb2b73d9f393eb921c1",
        "gas": "0x35f4a",
        "value": "0x0",
        "input": "0xb59589d1",
        "nonce": "0x19",
        "chainId": "0xaa044c"
      },
      "additionalContracts": [],
      "isFixedGasLimit": false
    },
    {
      "hash": null,
      "transactionType": "CALL",
      "contractName": null,
      "contractAddress": "0x8b74bca4c87207380292f0844b1c0abe2ef60c54",
      "function": "relay()",
      "arguments": [],
      "transaction": {
        "from": "0xabcde369cddd1665e4ebd9214b8e9a595271272c",
        "to": "0x8b74bca4c87207380292f0844b1c0abe2ef60c54",
        "gas": "0x34763",
        "value": "0x0",
        "input": "0xb59589d1",
        "nonce": "0x1a",
        "chainId": "0xaa044c"
      },
      "additionalContracts": [],
      "isFixedGasLimit": false
    },
    {
      "hash": null,
      "transactionType": "CALL",
      "contractName": null,
      "contractAddress": "0xa5f0ce0cd80e203161709a18378f2c850b64cc56",
      "function": "relay()",
      "arguments": [],
      "transaction": {
        "from": "0xabcde369cddd1665e4ebd9214b8e9a595271272c",
        "to": "0xa5f0ce0cd80e203161709a18378f2c850b64cc56",
        "gas": "0x3306c",
        "value": "0x0",
        "input": "0xb59589d1",
        "nonce": "0x1b",
        "chainId": "0xaa044c"
      },
      "additionalContracts": [],
      "isFixedGasLimit": false
    },
    {
      "hash": null,
      "transactionType": "CALL",
      "contractName": null,
      "contractAddress": "0x01f9629fb13ec2f902cc27f521e5b29e880173b4",
      "function": "relay()",
      "arguments": [],
      "transaction": {
        "from": "0xabcde369cddd1665e4ebd9214b8e9a595271272c",
        "to": "0x01f9629fb13ec2f902cc27f521e5b29e880173b4",
        "gas": "0x3306c",
        "value": "0x0",
        "input": "0xb59589d1",
        "nonce": "0x1c",
        "chainId": "0xaa044c"
      },
      "additionalContracts": [],
      "isFixedGasLimit": false
    },
    {
      "hash": null,
      "transactionType": "CALL",
      "contractName": null,
      "contractAddress": "0xbea02da2fef22ad1b47d204e592a63c77bd44944",
      "function": "relay()",
      "arguments": [],
      "transaction": {
        "from": "0xabcde369cddd1665e4ebd9214b8e9a595271272c",
        "to": "0xbea02da2fef22ad1b47d204e592a63c77bd44944",
        "gas": "0x34763",
        "value": "0x0",
        "input": "0xb59589d1",
        "nonce": "0x1d",
        "chainId": "0xaa044c"
      },
      "additionalContracts": [],
      "isFixedGasLimit": false
    },
    {
      "hash": null,
      "transactionType": "CALL",
      "contractName": null,
      "contractAddress": "0x5dfa86d3660a63aaf274e70bf89c9087615a65c3",
      "function": "relay()",
      "arguments": [],
      "transaction": {
        "from": "0xabcde369cddd1665e4ebd9214b8e9a595271272c",
        "to": "0x5dfa86d3660a63aaf274e70bf89c9087615a65c3",
        "gas": "0x34763",
        "value": "0x0",
        "input": "0xb59589d1",
        "nonce": "0x1e",
        "chainId": "0xaa044c"
      },
      "additionalContracts": [],
      "isFixedGasLimit": false
    },
    {
      "hash": null,
      "transactionType": "CALL",
      "contractName": null,
      "contractAddress": "0x41cee890564872045e770ed522e3d2bf5ff1acfd",
      "function": "relay()",
      "arguments": [],
      "transaction": {
        "from": "0xabcde369cddd1665e4ebd9214b8e9a595271272c",
        "to": "0x41cee890564872045e770ed522e3d2bf5ff1acfd",
        "gas": "0x34763",
        "value": "0x0",
        "input": "0xb59589d1",
        "nonce": "0x1f",
        "chainId": "0xaa044c"
      },
      "additionalContracts": [],
      "isFixedGasLimit": false
    },
    {
      "hash": null,
      "transactionType": "CALL",
      "contractName": null,
      "contractAddress": "0x39e6ed41f651624c90778c0f785c283a124bb52a",
      "function": "relay()",
      "arguments": [],
      "transaction": {
        "from": "0xabcde369cddd1665e4ebd9214b8e9a595271272c",
        "to": "0x39e6ed41f651624c90778c0f785c283a124bb52a",
        "gas": "0x34763",
        "value": "0x0",
        "input": "0xb59589d1",
        "nonce": "0x20",
        "chainId": "0xaa044c"
      },
      "additionalContracts": [],
      "isFixedGasLimit": false
    },
    {
      "hash": null,
      "transactionType": "CALL",
      "contractName": null,
      "contractAddress": "0x5eb3f5b9d4315cda410c98be788a14e0df320fb8",
      "function": "relay()",
      "arguments": [],
      "transaction": {
        "from": "0xabcde369cddd1665e4ebd9214b8e9a595271272c",
        "to": "0x5eb3f5b9d4315cda410c98be788a14e0df320fb8",
        "gas": "0x34763",
        "value": "0x0",
        "input": "0xb59589d1",
        "nonce": "0x21",
        "chainId": "0xaa044c"
      },
      "additionalContracts": [],
      "isFixedGasLimit": false
    },
    {
      "hash": null,
      "transactionType": "CALL",
      "contractName": null,
      "contractAddress": "0x5335bd8ad99c14be976f2c1eac64c3365315d88e",
      "function": "relay()",
      "arguments": [],
      "transaction": {
        "from": "0xabcde369cddd1665e4ebd9214b8e9a595271272c",
        "to": "0x5335bd8ad99c14be976f2c1eac64c3365315d88e",
        "gas": "0x34763",
        "value": "0x0",
        "input": "0xb59589d1",
        "nonce": "0x22",
        "chainId": "0xaa044c"
      },
      "additionalContracts": [],
      "isFixedGasLimit": false
    },
    {
      "hash": null,
      "transactionType": "CALL",
      "contractName": null,
      "contractAddress": "0x8700b6031a3c31edbf9a37426ea6a904303d2230",
      "function": "relay()",
      "arguments": [],
      "transaction": {
        "from": "0xabcde369cddd1665e4ebd9214b8e9a595271272c",
        "to": "0x8700b6031a3c31edbf9a37426ea6a904303d2230",
        "gas": "0x3779b",
        "value": "0x0",
        "input": "0xb59589d1",
        "nonce": "0x23",
        "chainId": "0xaa044c"
      },
      "additionalContracts": [],
      "isFixedGasLimit": false
    }
  ],
  "receipts": [],
  "libraries": [
    "node_modules/@celo/contracts/common/linkedlists/AddressSortedLinkedListWithMedian.sol:AddressSortedLinkedListWithMedian:0x1aD9B2599975E8CDF5629aFaBA8852269f1A1364"
  ],
  "pending": [],
  "returns": {},
  "timestamp": 1756990738262,
  "chain": 11142220,
  "commit": "7dc8151"
}