{
  "transactions": [
    {
      "hash": "0x9544da1eede82b87eac7654d1dee4381fee0ac80a2bfaa1fca0a9f67d8841204",
      "transactionType": "CALL",
      "contractName": null,
      "contractAddress": "0x712959a392488f3eae92c7d2d66517fc3ec829d0",
      "function": "report(int256,uint256)",
      "arguments": [
        "99982921",
        "1756988179"
      ],
      "transaction": {
        "from": "0x56fd3f2bee130e9867942d0f463a16fbe49b8d81",
        "to": "0x712959a392488f3eae92c7d2d66517fc3ec829d0",
        "gas": "0x986e",
        "value": "0x0",
        "input": "0x0f3d249d0000000000000000000000000000000000000000000000000000000005f59e490000000000000000000000000000000000000000000000000000000068b98313",
        "nonce": "0x2ce",
        "chainId": "0xaa044c"
      },
      "additionalContracts": [],
      "isFixedGasLimit": false
    },
    {
      "hash": "0xd1b29e8982c4188664c232962db8efb255509afd91ec02e3470d5aaa36cda1c2",
      "transactionType": "CALL",
      "contractName": null,
      "contractAddress": "0xb130563ad59b4367de850eb71b6839eade134b05",
      "function": "report(int256,uint256)",
      "arguments": [
        "100020357",
        "1756988087"
      ],
      "transaction": {
        "from": "0x56fd3f2bee130e9867942d0f463a16fbe49b8d81",
        "to": "0xb130563ad59b4367de850eb71b6839eade134b05",
        "gas": "0x986e",
        "value": "0x0",
        "input": "0x0f3d249d0000000000000000000000000000000000000000000000000000000005f630850000000000000000000000000000000000000000000000000000000068b982b7",
        "nonce": "0x2cf",
        "chainId": "0xaa044c"
      },
      "additionalContracts": [],
      "isFixedGasLimit": false
    },
    {
      "hash": "0x7244d995606c4205139c8111162e796bb6140d678bec84dc488c28bc5694f3a9",
      "transactionType": "CALL",
      "contractName": null,
      "contractAddress": "0xa0a403b75580072a8e486f82253a407ba9bae0cb",
      "function": "report(int256,uint256)",
      "arguments": [
        "116492107",
        "1756988263"
      ],
      "transaction": {
        "from": "0x56fd3f2bee130e9867942d0f463a16fbe49b8d81",
        "to": "0xa0a403b75580072a8e486f82253a407ba9bae0cb",
        "gas": "0xb6a5",
        "value": "0x0",
        "input": "0x0f3d249d0000000000000000000000000000000000000000000000000000000006f1874b0000000000000000000000000000000000000000000000000000000068b98367",
        "nonce": "0x2d0",
        "chainId": "0xaa044c"
      },
      "additionalContracts": [],
      "isFixedGasLimit": false
    },
    {
      "hash": "0xa03b9da6469656b63834e68e20daa61b3b83da8af7d8d6531cef58b2e411d4e3",
      "transactionType": "CALL",
      "contractName": null,
      "contractAddress": "0x5995fb71215c9ea02753092aacf47885bfa1a988",
      "function": "report(int256,uint256)",
      "arguments": [
        "29285363",
        "1756988194"
      ],
      "transaction": {
        "from": "0x56fd3f2bee130e9867942d0f463a16fbe49b8d81",
        "to": "0x5995fb71215c9ea02753092aacf47885bfa1a988",
        "gas": "0x986e",
        "value": "0x0",
        "input": "0x0f3d249d0000000000000000000000000000000000000000000000000000000001bedbf30000000000000000000000000000000000000000000000000000000068b98322",
        "nonce": "0x2d1",
        "chainId": "0xaa044c"
      },
      "additionalContracts": [],
      "isFixedGasLimit": false
    },
    {
      "hash": "0x50a3419845ccd6fcb3377dcf60dd0e389015729facc6e286c5c2c2d3ffb5ca05",
      "transactionType": "CALL",
      "contractName": null,
      "contractAddress": "0x44a7e7d4de5a4d6f5db9d174943214b926fd07d1",
      "function": "report(int256,uint256)",
      "arguments": [
        "116492107",
        "1756988263"
      ],
      "transaction": {
        "from": "0x56fd3f2bee130e9867942d0f463a16fbe49b8d81",
        "to": "0x44a7e7d4de5a4d6f5db9d174943214b926fd07d1",
        "gas": "0xb6a5",
        "value": "0x0",
        "input": "0x0f3d249d0000000000000000000000000000000000000000000000000000000006f1874b0000000000000000000000000000000000000000000000000000000068b98367",
        "nonce": "0x2d2",
        "chainId": "0xaa044c"
      },
      "additionalContracts": [],
      "isFixedGasLimit": false
    },
    {
      "hash": "0xad24e40cc0e2363117e849fea9029a61c81b083768ea37604cfe733cd6039b57",
      "transactionType": "CALL",
      "contractName": null,
      "contractAddress": "0xe30f631aac9762059c67135095c7d520221a0868",
      "function": "report(int256,uint256)",
      "arguments": [
        "18321393",
        "1756988336"
      ],
      "transaction": {
        "from": "0x56fd3f2bee130e9867942d0f463a16fbe49b8d81",
        "to": "0xe30f631aac9762059c67135095c7d520221a0868",
        "gas": "0xb6a5",
        "value": "0x0",
        "input": "0x0f3d249d0000000000000000000000000000000000000000000000000000000001178ff10000000000000000000000000000000000000000000000000000000068b983b0",
        "nonce": "0x2d3",
        "chainId": "0xaa044c"
      },
      "additionalContracts": [],
      "isFixedGasLimit": false
    },
    {
      "hash": "0x91f0cabee6cd64e7ad7c5b87468e30d28756d7b58b6a409c16c7676e2aaad009",
      "transactionType": "CALL",
      "contractName": null,
      "contractAddress": "0xf364db584bc3b55df019044de85993c47e1b145a",
      "function": "report(int256,uint256)",
      "arguments": [
        "1772612778056472",
        "1756988108"
      ],
      "transaction": {
        "from": "0x56fd3f2bee130e9867942d0f463a16fbe49b8d81",
        "to": "0xf364db584bc3b55df019044de85993c47e1b145a",
        "gas": "0x98a0",
        "value": "0x0",
        "input": "0x0f3d249d00000000000000000000000000000000000000000000000000064c2e92f5db180000000000000000000000000000000000000000000000000000000068b982cc",
        "nonce": "0x2d4",
        "chainId": "0xaa044c"
      },
      "additionalContracts": [],
      "isFixedGasLimit": false
    },
    {
      "hash": "0x5466cef32cd63131f2718c60c1ff09faa9b06e5a0ce395a1c0999ddcf8f9dbed",
      "transactionType": "CALL",
      "contractName": null,
      "contractAddress": "0x0d1a55b9a06fe8aa48eb87251fbd959d121ea843",
      "function": "report(int256,uint256)",
      "arguments": [
        "7735148514851485",
        "1756988327"
      ],
      "transaction": {
        "from": "0x56fd3f2bee130e9867942d0f463a16fbe49b8d81",
        "to": "0x0d1a55b9a06fe8aa48eb87251fbd959d121ea843",
        "gas": "0xa7bc",
        "value": "0x0",
        "input": "0x0f3d249d000000000000000000000000000000000000000000000000001b7b139b833a9d0000000000000000000000000000000000000000000000000000000068b983a7",
        "nonce": "0x2d5",
        "chainId": "0xaa044c"
      },
      "additionalContracts": [],
      "isFixedGasLimit": false
    },
    {
      "hash": "0x40a8b8e4bff36a331dd560f95b83d8d886ca9594f01b8030fcafc925f331541a",
      "transactionType": "CALL",
      "contractName": null,
      "contractAddress": "0x7a2f69a58f0dae429cc6de1e6fcb6260041c7464",
      "function": "report(int256,uint256)",
      "arguments": [
        "1751167",
        "1756988038"
      ],
      "transaction": {
        "from": "0x56fd3f2bee130e9867942d0f463a16fbe49b8d81",
        "to": "0x7a2f69a58f0dae429cc6de1e6fcb6260041c7464",
        "gas": "0x985e",
        "value": "0x0",
        "input": "0x0f3d249d00000000000000000000000000000000000000000000000000000000001ab87f0000000000000000000000000000000000000000000000000000000068b98286",
        "nonce": "0x2d6",
        "chainId": "0xaa044c"
      },
      "additionalContracts": [],
      "isFixedGasLimit": false
    },
    {
      "hash": "0xe07447b4f2f117719e8944d16238424df06621f9d7dcf2b4673a29a05024465f",
      "transactionType": "CALL",
      "contractName": null,
      "contractAddress": "0x97fd9624af571a5291d6b5aa0f7db7de8b5e0398",
      "function": "report(int256,uint256)",
      "arguments": [
        "24975",
        "1756988316"
      ],
      "transaction": {
        "from": "0x56fd3f2bee130e9867942d0f463a16fbe49b8d81",
        "to": "0x97fd9624af571a5291d6b5aa0f7db7de8b5e0398",
        "gas": "0xa769",
        "value": "0x0",
        "input": "0x0f3d249d000000000000000000000000000000000000000000000000000000000000618f0000000000000000000000000000000000000000000000000000000068b9839c",
        "nonce": "0x2d7",
        "chainId": "0xaa044c"
      },
      "additionalContracts": [],
      "isFixedGasLimit": false
    },
    {
      "hash": "0x11386d28fe5d9f7855a145f8d053b51bace6d6c765837a623744a8efa38a852d",
      "transactionType": "CALL",
      "contractName": null,
      "contractAddress": "0x04a1e7bbd987a7f86ca10ea36023884e45e46bd7",
      "function": "report(int256,uint256)",
      "arguments": [
        "8295932",
        "1756988188"
      ],
      "transaction": {
        "from": "0x56fd3f2bee130e9867942d0f463a16fbe49b8d81",
        "to": "0x04a1e7bbd987a7f86ca10ea36023884e45e46bd7",
        "gas": "0x985e",
        "value": "0x0",
        "input": "0x0f3d249d00000000000000000000000000000000000000000000000000000000007e95fc0000000000000000000000000000000000000000000000000000000068b9831c",
        "nonce": "0x2d8",
        "chainId": "0xaa044c"
      },
      "additionalContracts": [],
      "isFixedGasLimit": false
    },
    {
      "hash": "0x9f3578526789dc3821b5424318cc179615e66af093c4197214911b5fedf4c104",
      "transactionType": "CALL",
      "contractName": null,
      "contractAddress": "0x56029056ccc623115d05473cee7d1aacac830185",
      "function": "report(int256,uint256)",
      "arguments": [
        "134440000",
        "1756988091"
      ],
      "transaction": {
        "from": "0x56fd3f2bee130e9867942d0f463a16fbe49b8d81",
        "to": "0x56029056ccc623115d05473cee7d1aacac830185",
        "gas": "0x986e",
        "value": "0x0",
        "input": "0x0f3d249d00000000000000000000000000000000000000000000000000000000080364400000000000000000000000000000000000000000000000000000000068b982bb",
        "nonce": "0x2d9",
        "chainId": "0xaa044c"
      },
      "additionalContracts": [],
      "isFixedGasLimit": false
    },
    {
      "hash": "0x2cc1afd0f3e9847498045e8400f0e766415b99dd353c162a83c097a9850d2da5",
      "transactionType": "CALL",
      "contractName": null,
      "contractAddress": "0x1d866336d9c2f1c9737aca853347838e0a9e0559",
      "function": "report(int256,uint256)",
      "arguments": [
        "5628570",
        "1756988275"
      ],
      "transaction": {
        "from": "0x56fd3f2bee130e9867942d0f463a16fbe49b8d81",
        "to": "0x1d866336d9c2f1c9737aca853347838e0a9e0559",
        "gas": "0xb695",
        "value": "0x0",
        "input": "0x0f3d249d000000000000000000000000000000000000000000000000000000000055e29a0000000000000000000000000000000000000000000000000000000068b98373",
        "nonce": "0x2da",
        "chainId": "0xaa044c"
      },
      "additionalContracts": [],
      "isFixedGasLimit": false
    },
    {
      "hash": "0x2e10de268c4fedd4320c2f9a96efff11d77614bcc8e3bb222293bf1776e39485",
      "transactionType": "CALL",
      "contractName": null,
      "contractAddress": "0x8c947e599bea1f0469d5e2633a6e030910336d11",
      "function": "report(int256,uint256)",
      "arguments": [
        "72390328",
        "1756988164"
      ],
      "transaction": {
        "from": "0x56fd3f2bee130e9867942d0f463a16fbe49b8d81",
        "to": "0x8c947e599bea1f0469d5e2633a6e030910336d11",
        "gas": "0x986e",
        "value": "0x0",
        "input": "0x0f3d249d00000000000000000000000000000000000000000000000000000000045096b80000000000000000000000000000000000000000000000000000000068b98304",
        "nonce": "0x2db",
        "chainId": "0xaa044c"
      },
      "additionalContracts": [],
      "isFixedGasLimit": false
    },
    {
      "hash": "0xe09e7ec9f373c45869b77d648872e073455504c35ec2321024973b29a309795f",
      "transactionType": "CALL",
      "contractName": null,
      "contractAddress": "0xdee315fc7023de5a99fbc68a1ca6c0266a897b17",
      "function": "report(int256,uint256)",
      "arguments": [
        "65220000",
        "1756988131"
      ],
      "transaction": {
        "from": "0x56fd3f2bee130e9867942d0f463a16fbe49b8d81",
        "to": "0xdee315fc7023de5a99fbc68a1ca6c0266a897b17",
        "gas": "0x986e",
        "value": "0x0",
        "input": "0x0f3d249d0000000000000000000000000000000000000000000000000000000003e32da00000000000000000000000000000000000000000000000000000000068b982e3",
        "nonce": "0x2dc",
        "chainId": "0xaa044c"
      },
      "additionalContracts": [],
      "isFixedGasLimit": false
    },
    {
      "hash": "0xb6fc17eb7af0fbbf8ea674a1466c8a17dbed44b497a739a5557ffbdebe165216",
      "transactionType": "CALL",
      "contractName": null,
      "contractAddress": "0x703691155cd4006ed14361023ec35599cfb33a19",
      "function": "report(int256,uint256)",
      "arguments": [
        "124220516",
        "1756988300"
      ],
      "transaction": {
        "from": "0x56fd3f2bee130e9867942d0f463a16fbe49b8d81",
        "to": "0x703691155cd4006ed14361023ec35599cfb33a19",
        "gas": "0xb6a5",
        "value": "0x0",
        "input": "0x0f3d249d00000000000000000000000000000000000000000000000000000000076774640000000000000000000000000000000000000000000000000000000068b9838c",
        "nonce": "0x2dd",
        "chainId": "0xaa044c"
      },
      "additionalContracts": [],
      "isFixedGasLimit": false
    },
    {
      "hash": "0xb2fc3366bd7a12f3b1fb0bf1e6ba7c4ad256b2e8b18f47c544e026e067ed6dd2",
      "transactionType": "CALL",
      "contractName": null,
      "contractAddress": "0x8003d6ea2954e8fa12c420e189777b2a7d989653",
      "function": "report(int256,uint256)",
      "arguments": [
        "674800",
        "1756988345"
      ],
      "transaction": {
        "from": "0x56fd3f2bee130e9867942d0f463a16fbe49b8d81",
        "to": "0x8003d6ea2954e8fa12c420e189777b2a7d989653",
        "gas": "0xb695",
        "value": "0x0",
        "input": "0x0f3d249d00000000000000000000000000000000000000000000000000000000000a4bf00000000000000000000000000000000000000000000000000000000068b983b9",
        "nonce": "0x2de",
        "chainId": "0xaa044c"
      },
      "additionalContracts": [],
      "isFixedGasLimit": false
    },
    {
      "hash": "0x1d5d85d6cfe6ad7d7262aa2ec833f44d95f186ca3fdcb7f1903e1007c3650e8b",
      "transactionType": "CALL",
      "contractName": null,
      "contractAddress": "0x5db4a1e964ce93f994ff56aaf96b39de73f073da",
      "function": "report(int256,uint256)",
      "arguments": [
        "656167979002624",
        "1756988172"
      ],
      "transaction": {
        "from": "0x56fd3f2bee130e9867942d0f463a16fbe49b8d81",
        "to": "0x5db4a1e964ce93f994ff56aaf96b39de73f073da",
        "gas": "0x988f",
        "value": "0x0",
        "input": "0x0f3d249d000000000000000000000000000000000000000000000000000254c8034d2b000000000000000000000000000000000000000000000000000000000068b9830c",
        "nonce": "0x2df",
        "chainId": "0xaa044c"
      },
      "additionalContracts": [],
      "isFixedGasLimit": false
    },
    {
      "hash": "0x5b09f06ec8dc42792d5b77df728fa04a534fc73a251c947a1c474ef0241d4f90",
      "transactionType": "CALL",
      "contractName": null,
      "contractAddress": "0xcc08331daa33ca9a97f3feb2b73d9f393eb921c1",
      "function": "relay()",
      "arguments": [],
      "transaction": {
        "from": "0x56fd3f2bee130e9867942d0f463a16fbe49b8d81",
        "to": "0xcc08331daa33ca9a97f3feb2b73d9f393eb921c1",
        "gas": "0x45afa",
        "value": "0x0",
        "input": "0xb59589d1",
        "nonce": "0x2e0",
        "chainId": "0xaa044c"
      },
      "additionalContracts": [],
      "isFixedGasLimit": false
    },
    {
      "hash": "0x761ea4284ed924fad6a6fb2c7bb04cab0fe8a47fc2943c6b869f79280f2bc330",
      "transactionType": "CALL",
      "contractName": null,
      "contractAddress": "0x8b74bca4c87207380292f0844b1c0abe2ef60c54",
      "function": "relay()",
      "arguments": [],
      "transaction": {
        "from": "0x56fd3f2bee130e9867942d0f463a16fbe49b8d81",
        "to": "0x8b74bca4c87207380292f0844b1c0abe2ef60c54",
        "gas": "0x41e20",
        "value": "0x0",
        "input": "0xb59589d1",
        "nonce": "0x2e1",
        "chainId": "0xaa044c"
      },
      "additionalContracts": [],
      "isFixedGasLimit": false
    },
    {
      "hash": "0x62c842b1b86be462d97ef3a596ad93de74f1a2edca5647a945dfbf3c86e7707b",
      "transactionType": "CALL",
      "contractName": null,
      "contractAddress": "0xa5f0ce0cd80e203161709a18378f2c850b64cc56",
      "function": "relay()",
      "arguments": [],
      "transaction": {
        "from": "0x56fd3f2bee130e9867942d0f463a16fbe49b8d81",
        "to": "0xa5f0ce0cd80e203161709a18378f2c850b64cc56",
        "gas": "0x4072a",
        "value": "0x0",
        "input": "0xb59589d1",
        "nonce": "0x2e2",
        "chainId": "0xaa044c"
      },
      "additionalContracts": [],
      "isFixedGasLimit": false
    },
    {
      "hash": "0x99d97475f941948adfc07c8bb68d3fb2ca772082329c750e5c6b86e161501032",
      "transactionType": "CALL",
      "contractName": null,
      "contractAddress": "0x01f9629fb13ec2f902cc27f521e5b29e880173b4",
      "function": "relay()",
      "arguments": [],
      "transaction": {
        "from": "0x56fd3f2bee130e9867942d0f463a16fbe49b8d81",
        "to": "0x01f9629fb13ec2f902cc27f521e5b29e880173b4",
        "gas": "0x41e20",
        "value": "0x0",
        "input": "0xb59589d1",
        "nonce": "0x2e3",
        "chainId": "0xaa044c"
      },
      "additionalContracts": [],
      "isFixedGasLimit": false
    },
    {
      "hash": "0xeba423f024e3094d489360712c7143f3fc8277bc5b2e20ad959bef3ef4387ef5",
      "transactionType": "CALL",
      "contractName": null,
      "contractAddress": "0xbea02da2fef22ad1b47d204e592a63c77bd44944",
      "function": "relay()",
      "arguments": [],
      "transaction": {
        "from": "0x56fd3f2bee130e9867942d0f463a16fbe49b8d81",
        "to": "0xbea02da2fef22ad1b47d204e592a63c77bd44944",
        "gas": "0x41e20",
        "value": "0x0",
        "input": "0xb59589d1",
        "nonce": "0x2e4",
        "chainId": "0xaa044c"
      },
      "additionalContracts": [],
      "isFixedGasLimit": false
    },
    {
      "hash": "0xc1ef72575599b9deb56d5a7ee15c10b2dec1269cc9449ceb9a472ddb4051292c",
      "transactionType": "CALL",
      "contractName": null,
      "contractAddress": "0x5dfa86d3660a63aaf274e70bf89c9087615a65c3",
      "function": "relay()",
      "arguments": [],
      "transaction": {
        "from": "0x56fd3f2bee130e9867942d0f463a16fbe49b8d81",
        "to": "0x5dfa86d3660a63aaf274e70bf89c9087615a65c3",
        "gas": "0x41e20",
        "value": "0x0",
        "input": "0xb59589d1",
        "nonce": "0x2e5",
        "chainId": "0xaa044c"
      },
      "additionalContracts": [],
      "isFixedGasLimit": false
    },
    {
      "hash": "0x070a2ec964eb30129990bbfd5291b58bb861d582b85639c370f165c15b01349f",
      "transactionType": "CALL",
      "contractName": null,
      "contractAddress": "0x41cee890564872045e770ed522e3d2bf5ff1acfd",
      "function": "relay()",
      "arguments": [],
      "transaction": {
        "from": "0x56fd3f2bee130e9867942d0f463a16fbe49b8d81",
        "to": "0x41cee890564872045e770ed522e3d2bf5ff1acfd",
        "gas": "0x41e20",
        "value": "0x0",
        "input": "0xb59589d1",
        "nonce": "0x2e6",
        "chainId": "0xaa044c"
      },
      "additionalContracts": [],
      "isFixedGasLimit": false
    },
    {
      "hash": "0xa778e57c9d497ca4fd60691c412bed9a738736c693b02d393ac584929527b1b0",
      "transactionType": "CALL",
      "contractName": null,
      "contractAddress": "0x39e6ed41f651624c90778c0f785c283a124bb52a",
      "function": "relay()",
      "arguments": [],
      "transaction": {
        "from": "0x56fd3f2bee130e9867942d0f463a16fbe49b8d81",
        "to": "0x39e6ed41f651624c90778c0f785c283a124bb52a",
        "gas": "0x41e20",
        "value": "0x0",
        "input": "0xb59589d1",
        "nonce": "0x2e7",
        "chainId": "0xaa044c"
      },
      "additionalContracts": [],
      "isFixedGasLimit": false
    },
    {
      "hash": "0x2041a6bf5d1b0e8d1b682c450c4a13afbdca9e4760d433028ee1b5d0079149ca",
      "transactionType": "CALL",
      "contractName": null,
      "contractAddress": "0x5eb3f5b9d4315cda410c98be788a14e0df320fb8",
      "function": "relay()",
      "arguments": [],
      "transaction": {
        "from": "0x56fd3f2bee130e9867942d0f463a16fbe49b8d81",
        "to": "0x5eb3f5b9d4315cda410c98be788a14e0df320fb8",
        "gas": "0x41e20",
        "value": "0x0",
        "input": "0xb59589d1",
        "nonce": "0x2e8",
        "chainId": "0xaa044c"
      },
      "additionalContracts": [],
      "isFixedGasLimit": false
    },
    {
      "hash": "0xd45766a8278e5a207ef9c9eaf8484c8e5d65975b321c876df033df7002547968",
      "transactionType": "CALL",
      "contractName": null,
      "contractAddress": "0x5335bd8ad99c14be976f2c1eac64c3365315d88e",
      "function": "relay()",
      "arguments": [],
      "transaction": {
        "from": "0x56fd3f2bee130e9867942d0f463a16fbe49b8d81",
        "to": "0x5335bd8ad99c14be976f2c1eac64c3365315d88e",
        "gas": "0x41e20",
        "value": "0x0",
        "input": "0xb59589d1",
        "nonce": "0x2e9",
        "chainId": "0xaa044c"
      },
      "additionalContracts": [],
      "isFixedGasLimit": false
    },
    {
      "hash": "0x0c40f800cfe94542dba2403e132e714953cb11b4e3f7913bbe77b6d25057d81b",
      "transactionType": "CALL",
      "contractName": null,
      "contractAddress": "0x8700b6031a3c31edbf9a37426ea6a904303d2230",
      "function": "relay()",
      "arguments": [],
      "transaction": {
        "from": "0x56fd3f2bee130e9867942d0f463a16fbe49b8d81",
        "to": "0x8700b6031a3c31edbf9a37426ea6a904303d2230",
        "gas": "0x45afa",
        "value": "0x0",
        "input": "0xb59589d1",
        "nonce": "0x2ea",
        "chainId": "0xaa044c"
      },
      "additionalContracts": [],
      "isFixedGasLimit": false
    }
  ],
  "receipts": [
    {
      "status": "0x1",
      "cumulativeGasUsed": "0x12254",
      "logs": [],
      "logsBloom": "0x00000000000000000000000000000000000000000000000000000000000000000000000000000000000000000000000000000000000000000000000000000000000000000000000000000000000000000000000000000000000000000000000000000000000000000000000000000000000000000000000000000000000000000000000000000000000000000000000000000000000000000000000000000000000000000000000000000000000000000000000000000000000000000000000000000000000000000000000000000000000000000000000000000000000000000000000000000000000000000000000000000000000000000000000000000000",
      "type": "0x2",
      "transactionHash": "0x9544da1eede82b87eac7654d1dee4381fee0ac80a2bfaa1fca0a9f67d8841204",
      "transactionIndex": "0x1",
      "blockHash": "0x062051dbb093e7f43b3d93daa340dd3972c6ffbb534133379c2464b672161e33",
      "blockNumber": "0x3886bb",
      "gasUsed": "0x6e5c",
      "effectiveGasPrice": "0x5d21dba01",
      "from": "0x56fd3f2bee130e9867942d0f463a16fbe49b8d81",
      "to": "0x712959a392488f3eae92c7d2d66517fc3ec829d0",
      "contractAddress": null,
      "l1BaseFeeScalar": "0x0",
      "l1BlobBaseFee": "0x1",
      "l1BlobBaseFeeScalar": "0x0",
      "l1Fee": "0x0",
      "l1GasPrice": "0x8cb902",
      "l1GasUsed": "0x640"
    },
    {
      "status": "0x1",
      "cumulativeGasUsed": "0x190b0",
      "logs": [],
      "logsBloom": "0x00000000000000000000000000000000000000000000000000000000000000000000000000000000000000000000000000000000000000000000000000000000000000000000000000000000000000000000000000000000000000000000000000000000000000000000000000000000000000000000000000000000000000000000000000000000000000000000000000000000000000000000000000000000000000000000000000000000000000000000000000000000000000000000000000000000000000000000000000000000000000000000000000000000000000000000000000000000000000000000000000000000000000000000000000000000",
      "type": "0x2",
      "transactionHash": "0xd1b29e8982c4188664c232962db8efb255509afd91ec02e3470d5aaa36cda1c2",
      "transactionIndex": "0x2",
      "blockHash": "0x062051dbb093e7f43b3d93daa340dd3972c6ffbb534133379c2464b672161e33",
      "blockNumber": "0x3886bb",
      "gasUsed": "0x6e5c",
      "effectiveGasPrice": "0x5d21dba01",
      "from": "0x56fd3f2bee130e9867942d0f463a16fbe49b8d81",
      "to": "0xb130563ad59b4367de850eb71b6839eade134b05",
      "contractAddress": null,
      "l1BaseFeeScalar": "0x0",
      "l1BlobBaseFee": "0x1",
      "l1BlobBaseFeeScalar": "0x0",
      "l1Fee": "0x0",
      "l1GasPrice": "0x8cb902",
      "l1GasUsed": "0x640"
    },
    {
      "status": "0x1",
      "cumulativeGasUsed": "0x214ec",
      "logs": [],
      "logsBloom": "0x00000000000000000000000000000000000000000000000000000000000000000000000000000000000000000000000000000000000000000000000000000000000000000000000000000000000000000000000000000000000000000000000000000000000000000000000000000000000000000000000000000000000000000000000000000000000000000000000000000000000000000000000000000000000000000000000000000000000000000000000000000000000000000000000000000000000000000000000000000000000000000000000000000000000000000000000000000000000000000000000000000000000000000000000000000000",
      "type": "0x2",
      "transactionHash": "0x7244d995606c4205139c8111162e796bb6140d678bec84dc488c28bc5694f3a9",
      "transactionIndex": "0x3",
      "blockHash": "0x062051dbb093e7f43b3d93daa340dd3972c6ffbb534133379c2464b672161e33",
      "blockNumber": "0x3886bb",
      "gasUsed": "0x843c",
      "effectiveGasPrice": "0x5d21dba01",
      "from": "0x56fd3f2bee130e9867942d0f463a16fbe49b8d81",
      "to": "0xa0a403b75580072a8e486f82253a407ba9bae0cb",
      "contractAddress": null,
      "l1BaseFeeScalar": "0x0",
      "l1BlobBaseFee": "0x1",
      "l1BlobBaseFeeScalar": "0x0",
      "l1Fee": "0x0",
      "l1GasPrice": "0x8cb902",
      "l1GasUsed": "0x640"
    },
    {
      "status": "0x1",
      "cumulativeGasUsed": "0x28348",
      "logs": [],
      "logsBloom": "0x00000000000000000000000000000000000000000000000000000000000000000000000000000000000000000000000000000000000000000000000000000000000000000000000000000000000000000000000000000000000000000000000000000000000000000000000000000000000000000000000000000000000000000000000000000000000000000000000000000000000000000000000000000000000000000000000000000000000000000000000000000000000000000000000000000000000000000000000000000000000000000000000000000000000000000000000000000000000000000000000000000000000000000000000000000000",
      "type": "0x2",
      "transactionHash": "0xa03b9da6469656b63834e68e20daa61b3b83da8af7d8d6531cef58b2e411d4e3",
      "transactionIndex": "0x4",
      "blockHash": "0x062051dbb093e7f43b3d93daa340dd3972c6ffbb534133379c2464b672161e33",
      "blockNumber": "0x3886bb",
      "gasUsed": "0x6e5c",
      "effectiveGasPrice": "0x5d21dba01",
      "from": "0x56fd3f2bee130e9867942d0f463a16fbe49b8d81",
      "to": "0x5995fb71215c9ea02753092aacf47885bfa1a988",
      "contractAddress": null,
      "l1BaseFeeScalar": "0x0",
      "l1BlobBaseFee": "0x1",
      "l1BlobBaseFeeScalar": "0x0",
      "l1Fee": "0x0",
      "l1GasPrice": "0x8cb902",
      "l1GasUsed": "0x640"
    },
    {
      "status": "0x1",
      "cumulativeGasUsed": "0x30784",
      "logs": [],
      "logsBloom": "0x00000000000000000000000000000000000000000000000000000000000000000000000000000000000000000000000000000000000000000000000000000000000000000000000000000000000000000000000000000000000000000000000000000000000000000000000000000000000000000000000000000000000000000000000000000000000000000000000000000000000000000000000000000000000000000000000000000000000000000000000000000000000000000000000000000000000000000000000000000000000000000000000000000000000000000000000000000000000000000000000000000000000000000000000000000000",
      "type": "0x2",
      "transactionHash": "0x50a3419845ccd6fcb3377dcf60dd0e389015729facc6e286c5c2c2d3ffb5ca05",
      "transactionIndex": "0x5",
      "blockHash": "0x062051dbb093e7f43b3d93daa340dd3972c6ffbb534133379c2464b672161e33",
      "blockNumber": "0x3886bb",
      "gasUsed": "0x843c",
      "effectiveGasPrice": "0x5d21dba01",
      "from": "0x56fd3f2bee130e9867942d0f463a16fbe49b8d81",
      "to": "0x44a7e7d4de5a4d6f5db9d174943214b926fd07d1",
      "contractAddress": null,
      "l1BaseFeeScalar": "0x0",
      "l1BlobBaseFee": "0x1",
      "l1BlobBaseFeeScalar": "0x0",
      "l1Fee": "0x0",
      "l1GasPrice": "0x8cb902",
      "l1GasUsed": "0x640"
    },
    {
      "status": "0x1",
      "cumulativeGasUsed": "0x38bc0",
      "logs": [],
      "logsBloom": "0x00000000000000000000000000000000000000000000000000000000000000000000000000000000000000000000000000000000000000000000000000000000000000000000000000000000000000000000000000000000000000000000000000000000000000000000000000000000000000000000000000000000000000000000000000000000000000000000000000000000000000000000000000000000000000000000000000000000000000000000000000000000000000000000000000000000000000000000000000000000000000000000000000000000000000000000000000000000000000000000000000000000000000000000000000000000",
      "type": "0x2",
      "transactionHash": "0xad24e40cc0e2363117e849fea9029a61c81b083768ea37604cfe733cd6039b57",
      "transactionIndex": "0x6",
      "blockHash": "0x062051dbb093e7f43b3d93daa340dd3972c6ffbb534133379c2464b672161e33",
      "blockNumber": "0x3886bb",
      "gasUsed": "0x843c",
      "effectiveGasPrice": "0x5d21dba01",
      "from": "0x56fd3f2bee130e9867942d0f463a16fbe49b8d81",
      "to": "0xe30f631aac9762059c67135095c7d520221a0868",
      "contractAddress": null,
      "l1BaseFeeScalar": "0x0",
      "l1BlobBaseFee": "0x1",
      "l1BlobBaseFeeScalar": "0x0",
      "l1Fee": "0x0",
      "l1GasPrice": "0x8cb902",
      "l1GasUsed": "0x640"
    },
    {
      "status": "0x1",
      "cumulativeGasUsed": "0x3fa40",
      "logs": [],
      "logsBloom": "0x00000000000000000000000000000000000000000000000000000000000000000000000000000000000000000000000000000000000000000000000000000000000000000000000000000000000000000000000000000000000000000000000000000000000000000000000000000000000000000000000000000000000000000000000000000000000000000000000000000000000000000000000000000000000000000000000000000000000000000000000000000000000000000000000000000000000000000000000000000000000000000000000000000000000000000000000000000000000000000000000000000000000000000000000000000000",
      "type": "0x2",
      "transactionHash": "0x91f0cabee6cd64e7ad7c5b87468e30d28756d7b58b6a409c16c7676e2aaad009",
      "transactionIndex": "0x7",
      "blockHash": "0x062051dbb093e7f43b3d93daa340dd3972c6ffbb534133379c2464b672161e33",
      "blockNumber": "0x3886bb",
      "gasUsed": "0x6e80",
      "effectiveGasPrice": "0x5d21dba01",
      "from": "0x56fd3f2bee130e9867942d0f463a16fbe49b8d81",
      "to": "0xf364db584bc3b55df019044de85993c47e1b145a",
      "contractAddress": null,
      "l1BaseFeeScalar": "0x0",
      "l1BlobBaseFee": "0x1",
      "l1BlobBaseFeeScalar": "0x0",
      "l1Fee": "0x0",
      "l1GasPrice": "0x8cb902",
      "l1GasUsed": "0x640"
    },
    {
      "status": "0x1",
      "cumulativeGasUsed": "0x473b0",
      "logs": [],
      "logsBloom": "0x00000000000000000000000000000000000000000000000000000000000000000000000000000000000000000000000000000000000000000000000000000000000000000000000000000000000000000000000000000000000000000000000000000000000000000000000000000000000000000000000000000000000000000000000000000000000000000000000000000000000000000000000000000000000000000000000000000000000000000000000000000000000000000000000000000000000000000000000000000000000000000000000000000000000000000000000000000000000000000000000000000000000000000000000000000000",
      "type": "0x2",
      "transactionHash": "0x5466cef32cd63131f2718c60c1ff09faa9b06e5a0ce395a1c0999ddcf8f9dbed",
      "transactionIndex": "0x8",
      "blockHash": "0x062051dbb093e7f43b3d93daa340dd3972c6ffbb534133379c2464b672161e33",
      "blockNumber": "0x3886bb",
      "gasUsed": "0x7970",
      "effectiveGasPrice": "0x5d21dba01",
      "from": "0x56fd3f2bee130e9867942d0f463a16fbe49b8d81",
      "to": "0x0d1a55b9a06fe8aa48eb87251fbd959d121ea843",
      "contractAddress": null,
      "l1BaseFeeScalar": "0x0",
      "l1BlobBaseFee": "0x1",
      "l1BlobBaseFeeScalar": "0x0",
      "l1Fee": "0x0",
      "l1GasPrice": "0x8cb902",
      "l1GasUsed": "0x640"
    },
    {
      "status": "0x1",
      "cumulativeGasUsed": "0x4e200",
      "logs": [],
      "logsBloom": "0x00000000000000000000000000000000000000000000000000000000000000000000000000000000000000000000000000000000000000000000000000000000000000000000000000000000000000000000000000000000000000000000000000000000000000000000000000000000000000000000000000000000000000000000000000000000000000000000000000000000000000000000000000000000000000000000000000000000000000000000000000000000000000000000000000000000000000000000000000000000000000000000000000000000000000000000000000000000000000000000000000000000000000000000000000000000",
      "type": "0x2",
      "transactionHash": "0x40a8b8e4bff36a331dd560f95b83d8d886ca9594f01b8030fcafc925f331541a",
      "transactionIndex": "0x9",
      "blockHash": "0x062051dbb093e7f43b3d93daa340dd3972c6ffbb534133379c2464b672161e33",
      "blockNumber": "0x3886bb",
      "gasUsed": "0x6e50",
      "effectiveGasPrice": "0x5d21dba01",
      "from": "0x56fd3f2bee130e9867942d0f463a16fbe49b8d81",
      "to": "0x7a2f69a58f0dae429cc6de1e6fcb6260041c7464",
      "contractAddress": null,
      "l1BaseFeeScalar": "0x0",
      "l1BlobBaseFee": "0x1",
      "l1BlobBaseFeeScalar": "0x0",
      "l1Fee": "0x0",
      "l1GasPrice": "0x8cb902",
      "l1GasUsed": "0x640"
    },
    {
      "status": "0x1",
      "cumulativeGasUsed": "0x55b34",
      "logs": [],
      "logsBloom": "0x00000000000000000000000000000000000000000000000000000000000000000000000000000000000000000000000000000000000000000000000000000000000000000000000000000000000000000000000000000000000000000000000000000000000000000000000000000000000000000000000000000000000000000000000000000000000000000000000000000000000000000000000000000000000000000000000000000000000000000000000000000000000000000000000000000000000000000000000000000000000000000000000000000000000000000000000000000000000000000000000000000000000000000000000000000000",
      "type": "0x2",
      "transactionHash": "0xe07447b4f2f117719e8944d16238424df06621f9d7dcf2b4673a29a05024465f",
      "transactionIndex": "0xa",
      "blockHash": "0x062051dbb093e7f43b3d93daa340dd3972c6ffbb534133379c2464b672161e33",
      "blockNumber": "0x3886bb",
      "gasUsed": "0x7934",
      "effectiveGasPrice": "0x5d21dba01",
      "from": "0x56fd3f2bee130e9867942d0f463a16fbe49b8d81",
      "to": "0x97fd9624af571a5291d6b5aa0f7db7de8b5e0398",
      "contractAddress": null,
      "l1BaseFeeScalar": "0x0",
      "l1BlobBaseFee": "0x1",
      "l1BlobBaseFeeScalar": "0x0",
      "l1Fee": "0x0",
      "l1GasPrice": "0x8cb902",
      "l1GasUsed": "0x640"
    },
    {
      "status": "0x1",
      "cumulativeGasUsed": "0x12248",
      "logs": [],
      "logsBloom": "0x00000000000000000000000000000000000000000000000000000000000000000000000000000000000000000000000000000000000000000000000000000000000000000000000000000000000000000000000000000000000000000000000000000000000000000000000000000000000000000000000000000000000000000000000000000000000000000000000000000000000000000000000000000000000000000000000000000000000000000000000000000000000000000000000000000000000000000000000000000000000000000000000000000000000000000000000000000000000000000000000000000000000000000000000000000000",
      "type": "0x2",
      "transactionHash": "0x11386d28fe5d9f7855a145f8d053b51bace6d6c765837a623744a8efa38a852d",
      "transactionIndex": "0x1",
      "blockHash": "0xb4d0e8d5c4621d61934d3d0186966afc754b148560e41dfd2825b04e7b9c82a4",
      "blockNumber": "0x3886bc",
      "gasUsed": "0x6e50",
      "effectiveGasPrice": "0x5d21dba01",
      "from": "0x56fd3f2bee130e9867942d0f463a16fbe49b8d81",
      "to": "0x04a1e7bbd987a7f86ca10ea36023884e45e46bd7",
      "contractAddress": null,
      "l1BaseFeeScalar": "0x0",
      "l1BlobBaseFee": "0x1",
      "l1BlobBaseFeeScalar": "0x0",
      "l1Fee": "0x0",
      "l1GasPrice": "0x8cb902",
      "l1GasUsed": "0x640"
    },
    {
      "status": "0x1",
      "cumulativeGasUsed": "0x190a4",
      "logs": [],
      "logsBloom": "0x00000000000000000000000000000000000000000000000000000000000000000000000000000000000000000000000000000000000000000000000000000000000000000000000000000000000000000000000000000000000000000000000000000000000000000000000000000000000000000000000000000000000000000000000000000000000000000000000000000000000000000000000000000000000000000000000000000000000000000000000000000000000000000000000000000000000000000000000000000000000000000000000000000000000000000000000000000000000000000000000000000000000000000000000000000000",
      "type": "0x2",
      "transactionHash": "0x9f3578526789dc3821b5424318cc179615e66af093c4197214911b5fedf4c104",
      "transactionIndex": "0x2",
      "blockHash": "0xb4d0e8d5c4621d61934d3d0186966afc754b148560e41dfd2825b04e7b9c82a4",
      "blockNumber": "0x3886bc",
      "gasUsed": "0x6e5c",
      "effectiveGasPrice": "0x5d21dba01",
      "from": "0x56fd3f2bee130e9867942d0f463a16fbe49b8d81",
      "to": "0x56029056ccc623115d05473cee7d1aacac830185",
      "contractAddress": null,
      "l1BaseFeeScalar": "0x0",
      "l1BlobBaseFee": "0x1",
      "l1BlobBaseFeeScalar": "0x0",
      "l1Fee": "0x0",
      "l1GasPrice": "0x8cb902",
      "l1GasUsed": "0x640"
    },
    {
      "status": "0x1",
      "cumulativeGasUsed": "0x214d4",
      "logs": [],
      "logsBloom": "0x00000000000000000000000000000000000000000000000000000000000000000000000000000000000000000000000000000000000000000000000000000000000000000000000000000000000000000000000000000000000000000000000000000000000000000000000000000000000000000000000000000000000000000000000000000000000000000000000000000000000000000000000000000000000000000000000000000000000000000000000000000000000000000000000000000000000000000000000000000000000000000000000000000000000000000000000000000000000000000000000000000000000000000000000000000000",
      "type": "0x2",
      "transactionHash": "0x2cc1afd0f3e9847498045e8400f0e766415b99dd353c162a83c097a9850d2da5",
      "transactionIndex": "0x3",
      "blockHash": "0xb4d0e8d5c4621d61934d3d0186966afc754b148560e41dfd2825b04e7b9c82a4",
      "blockNumber": "0x3886bc",
      "gasUsed": "0x8430",
      "effectiveGasPrice": "0x5d21dba01",
      "from": "0x56fd3f2bee130e9867942d0f463a16fbe49b8d81",
      "to": "0x1d866336d9c2f1c9737aca853347838e0a9e0559",
      "contractAddress": null,
      "l1BaseFeeScalar": "0x0",
      "l1BlobBaseFee": "0x1",
      "l1BlobBaseFeeScalar": "0x0",
      "l1Fee": "0x0",
      "l1GasPrice": "0x8cb902",
      "l1GasUsed": "0x640"
    },
    {
      "status": "0x1",
      "cumulativeGasUsed": "0x28330",
      "logs": [],
      "logsBloom": "0x00000000000000000000000000000000000000000000000000000000000000000000000000000000000000000000000000000000000000000000000000000000000000000000000000000000000000000000000000000000000000000000000000000000000000000000000000000000000000000000000000000000000000000000000000000000000000000000000000000000000000000000000000000000000000000000000000000000000000000000000000000000000000000000000000000000000000000000000000000000000000000000000000000000000000000000000000000000000000000000000000000000000000000000000000000000",
      "type": "0x2",
      "transactionHash": "0x2e10de268c4fedd4320c2f9a96efff11d77614bcc8e3bb222293bf1776e39485",
      "transactionIndex": "0x4",
      "blockHash": "0xb4d0e8d5c4621d61934d3d0186966afc754b148560e41dfd2825b04e7b9c82a4",
      "blockNumber": "0x3886bc",
      "gasUsed": "0x6e5c",
      "effectiveGasPrice": "0x5d21dba01",
      "from": "0x56fd3f2bee130e9867942d0f463a16fbe49b8d81",
      "to": "0x8c947e599bea1f0469d5e2633a6e030910336d11",
      "contractAddress": null,
      "l1BaseFeeScalar": "0x0",
      "l1BlobBaseFee": "0x1",
      "l1BlobBaseFeeScalar": "0x0",
      "l1Fee": "0x0",
      "l1GasPrice": "0x8cb902",
      "l1GasUsed": "0x640"
    },
    {
      "status": "0x1",
      "cumulativeGasUsed": "0x2f18c",
      "logs": [],
      "logsBloom": "0x00000000000000000000000000000000000000000000000000000000000000000000000000000000000000000000000000000000000000000000000000000000000000000000000000000000000000000000000000000000000000000000000000000000000000000000000000000000000000000000000000000000000000000000000000000000000000000000000000000000000000000000000000000000000000000000000000000000000000000000000000000000000000000000000000000000000000000000000000000000000000000000000000000000000000000000000000000000000000000000000000000000000000000000000000000000",
      "type": "0x2",
      "transactionHash": "0xe09e7ec9f373c45869b77d648872e073455504c35ec2321024973b29a309795f",
      "transactionIndex": "0x5",
      "blockHash": "0xb4d0e8d5c4621d61934d3d0186966afc754b148560e41dfd2825b04e7b9c82a4",
      "blockNumber": "0x3886bc",
      "gasUsed": "0x6e5c",
      "effectiveGasPrice": "0x5d21dba01",
      "from": "0x56fd3f2bee130e9867942d0f463a16fbe49b8d81",
      "to": "0xdee315fc7023de5a99fbc68a1ca6c0266a897b17",
      "contractAddress": null,
      "l1BaseFeeScalar": "0x0",
      "l1BlobBaseFee": "0x1",
      "l1BlobBaseFeeScalar": "0x0",
      "l1Fee": "0x0",
      "l1GasPrice": "0x8cb902",
      "l1GasUsed": "0x640"
    },
    {
      "status": "0x1",
      "cumulativeGasUsed": "0x375c8",
      "logs": [],
      "logsBloom": "0x00000000000000000000000000000000000000000000000000000000000000000000000000000000000000000000000000000000000000000000000000000000000000000000000000000000000000000000000000000000000000000000000000000000000000000000000000000000000000000000000000000000000000000000000000000000000000000000000000000000000000000000000000000000000000000000000000000000000000000000000000000000000000000000000000000000000000000000000000000000000000000000000000000000000000000000000000000000000000000000000000000000000000000000000000000000",
      "type": "0x2",
      "transactionHash": "0xb6fc17eb7af0fbbf8ea674a1466c8a17dbed44b497a739a5557ffbdebe165216",
      "transactionIndex": "0x6",
      "blockHash": "0xb4d0e8d5c4621d61934d3d0186966afc754b148560e41dfd2825b04e7b9c82a4",
      "blockNumber": "0x3886bc",
      "gasUsed": "0x843c",
      "effectiveGasPrice": "0x5d21dba01",
      "from": "0x56fd3f2bee130e9867942d0f463a16fbe49b8d81",
      "to": "0x703691155cd4006ed14361023ec35599cfb33a19",
      "contractAddress": null,
      "l1BaseFeeScalar": "0x0",
      "l1BlobBaseFee": "0x1",
      "l1BlobBaseFeeScalar": "0x0",
      "l1Fee": "0x0",
      "l1GasPrice": "0x8cb902",
      "l1GasUsed": "0x640"
    },
    {
      "status": "0x1",
      "cumulativeGasUsed": "0x3f9f8",
      "logs": [],
      "logsBloom": "0x00000000000000000000000000000000000000000000000000000000000000000000000000000000000000000000000000000000000000000000000000000000000000000000000000000000000000000000000000000000000000000000000000000000000000000000000000000000000000000000000000000000000000000000000000000000000000000000000000000000000000000000000000000000000000000000000000000000000000000000000000000000000000000000000000000000000000000000000000000000000000000000000000000000000000000000000000000000000000000000000000000000000000000000000000000000",
      "type": "0x2",
      "transactionHash": "0xb2fc3366bd7a12f3b1fb0bf1e6ba7c4ad256b2e8b18f47c544e026e067ed6dd2",
      "transactionIndex": "0x7",
      "blockHash": "0xb4d0e8d5c4621d61934d3d0186966afc754b148560e41dfd2825b04e7b9c82a4",
      "blockNumber": "0x3886bc",
      "gasUsed": "0x8430",
      "effectiveGasPrice": "0x5d21dba01",
      "from": "0x56fd3f2bee130e9867942d0f463a16fbe49b8d81",
      "to": "0x8003d6ea2954e8fa12c420e189777b2a7d989653",
      "contractAddress": null,
      "l1BaseFeeScalar": "0x0",
      "l1BlobBaseFee": "0x1",
      "l1BlobBaseFeeScalar": "0x0",
      "l1Fee": "0x0",
      "l1GasPrice": "0x8cb902",
      "l1GasUsed": "0x640"
    },
    {
      "status": "0x1",
      "cumulativeGasUsed": "0x4686c",
      "logs": [],
      "logsBloom": "0x00000000000000000000000000000000000000000000000000000000000000000000000000000000000000000000000000000000000000000000000000000000000000000000000000000000000000000000000000000000000000000000000000000000000000000000000000000000000000000000000000000000000000000000000000000000000000000000000000000000000000000000000000000000000000000000000000000000000000000000000000000000000000000000000000000000000000000000000000000000000000000000000000000000000000000000000000000000000000000000000000000000000000000000000000000000",
      "type": "0x2",
      "transactionHash": "0x1d5d85d6cfe6ad7d7262aa2ec833f44d95f186ca3fdcb7f1903e1007c3650e8b",
      "transactionIndex": "0x8",
      "blockHash": "0xb4d0e8d5c4621d61934d3d0186966afc754b148560e41dfd2825b04e7b9c82a4",
      "blockNumber": "0x3886bc",
      "gasUsed": "0x6e74",
      "effectiveGasPrice": "0x5d21dba01",
      "from": "0x56fd3f2bee130e9867942d0f463a16fbe49b8d81",
      "to": "0x5db4a1e964ce93f994ff56aaf96b39de73f073da",
      "contractAddress": null,
      "l1BaseFeeScalar": "0x0",
      "l1BlobBaseFee": "0x1",
      "l1BlobBaseFeeScalar": "0x0",
      "l1Fee": "0x0",
      "l1GasPrice": "0x8cb902",
      "l1GasUsed": "0x640"
    },
    {
      "status": "0x1",
      "cumulativeGasUsed": "0x762cd",
      "logs": [
        {
          "address": "0x691ab9aff4a36e1fcb9c2d9a366cc0e176c5e4fc",
          "topics": [
            "0x7cebb17173a9ed273d2b7538f64395c0ebf352ff743f1cf8ce66b437a6144213",
            "0x000000000000000000000000ef40371a602409f86f9ac4e37580c59dee61199f",
            "0x000000000000000000000000cc08331daa33ca9a97f3feb2b73d9f393eb921c1"
          ],
          "data": "0x0000000000000000000000000000000000000000000000000000000068b984500000000000000000000000000000000000000000000001a352bfefaf251e2140",
          "blockHash": "0xb4d0e8d5c4621d61934d3d0186966afc754b148560e41dfd2825b04e7b9c82a4",
          "blockNumber": "0x3886bc",
          "transactionHash": "0x5b09f06ec8dc42792d5b77df728fa04a534fc73a251c947a1c474ef0241d4f90",
          "transactionIndex": "0x9",
          "logIndex": "0x0",
          "removed": false
        },
        {
          "address": "0x691ab9aff4a36e1fcb9c2d9a366cc0e176c5e4fc",
          "topics": [
            "0xa9981ebfc3b766a742486e898f54959b050a66006dbce1a4155c1f84a08bcf41",
            "0x000000000000000000000000ef40371a602409f86f9ac4e37580c59dee61199f"
          ],
          "data": "0x0000000000000000000000000000000000000000000001a352bfefaf251e2140",
          "blockHash": "0xb4d0e8d5c4621d61934d3d0186966afc754b148560e41dfd2825b04e7b9c82a4",
          "blockNumber": "0x3886bc",
          "transactionHash": "0x5b09f06ec8dc42792d5b77df728fa04a534fc73a251c947a1c474ef0241d4f90",
          "transactionIndex": "0x9",
          "logIndex": "0x1",
          "removed": false
        }
      ],
      "logsBloom": "0x00800000000000000000000000000000000000000000000000000000000000000000000000000000000000000000000800000000000000000000100000100000000000000000000000000000000000000000000004000000000000000000000000000000000000000000000000008000000000000000000000000000000000000000000000000000400000000000000000000000000000000000000000000000200000800000000000000008000000000000000000000000000000000000000000000000000000000020400000000000000000000000000000000000000000000000000000000000000000000000000000000000000000001000010004000000",
      "type": "0x2",
      "transactionHash": "0x5b09f06ec8dc42792d5b77df728fa04a534fc73a251c947a1c474ef0241d4f90",
      "transactionIndex": "0x9",
      "blockHash": "0xb4d0e8d5c4621d61934d3d0186966afc754b148560e41dfd2825b04e7b9c82a4",
      "blockNumber": "0x3886bc",
      "gasUsed": "0x2fa61",
      "effectiveGasPrice": "0x5d21dba01",
      "from": "0x56fd3f2bee130e9867942d0f463a16fbe49b8d81",
      "to": "0xcc08331daa33ca9a97f3feb2b73d9f393eb921c1",
      "contractAddress": null,
      "l1BaseFeeScalar": "0x0",
      "l1BlobBaseFee": "0x1",
      "l1BlobBaseFeeScalar": "0x0",
      "l1Fee": "0x0",
      "l1GasPrice": "0x8cb902",
      "l1GasUsed": "0x640"
    },
    {
      "status": "0x1",
      "cumulativeGasUsed": "0xa5df9",
      "logs": [
        {
          "address": "0x691ab9aff4a36e1fcb9c2d9a366cc0e176c5e4fc",
          "topics": [
            "0x7cebb17173a9ed273d2b7538f64395c0ebf352ff743f1cf8ce66b437a6144213",
            "0x000000000000000000000000aa04d30cced09ae17815f88d1bcae69a49fb160f",
            "0x0000000000000000000000008b74bca4c87207380292f0844b1c0abe2ef60c54"
          ],
          "data": "0x0000000000000000000000000000000000000000000000000000000068b984500000000000000000000000000000000000000000000003b54f3d8c3228bf0000",
          "blockHash": "0xb4d0e8d5c4621d61934d3d0186966afc754b148560e41dfd2825b04e7b9c82a4",
          "blockNumber": "0x3886bc",
          "transactionHash": "0x761ea4284ed924fad6a6fb2c7bb04cab0fe8a47fc2943c6b869f79280f2bc330",
          "transactionIndex": "0xa",
          "logIndex": "0x2",
          "removed": false
        },
        {
          "address": "0x691ab9aff4a36e1fcb9c2d9a366cc0e176c5e4fc",
          "topics": [
            "0xa9981ebfc3b766a742486e898f54959b050a66006dbce1a4155c1f84a08bcf41",
            "0x000000000000000000000000aa04d30cced09ae17815f88d1bcae69a49fb160f"
          ],
          "data": "0x0000000000000000000000000000000000000000000003b54f3d8c3228bf0000",
          "blockHash": "0xb4d0e8d5c4621d61934d3d0186966afc754b148560e41dfd2825b04e7b9c82a4",
          "blockNumber": "0x3886bc",
          "transactionHash": "0x761ea4284ed924fad6a6fb2c7bb04cab0fe8a47fc2943c6b869f79280f2bc330",
          "transactionIndex": "0xa",
          "logIndex": "0x3",
          "removed": false
        }
      ],
      "logsBloom": "0x00800000000000000000000000000000000000000000000000000000000000000000000001000000800000000000000800000000000000000000000000100000000000000000000000000000000000000000000004000000000000000000000000000000000000000000000000008000000000000000000000000000000000000000000000000000400000000000000000000000000000000000000000000000200000800000000000000008000000000200000000000000000000000000000000000000080008000000000000000000000000000000001000000000000000000000000000000000000000000000000000000000000000000000000000000000",
      "type": "0x2",
      "transactionHash": "0x761ea4284ed924fad6a6fb2c7bb04cab0fe8a47fc2943c6b869f79280f2bc330",
      "transactionIndex": "0xa",
      "blockHash": "0xb4d0e8d5c4621d61934d3d0186966afc754b148560e41dfd2825b04e7b9c82a4",
      "blockNumber": "0x3886bc",
      "gasUsed": "0x2fb2c",
      "effectiveGasPrice": "0x5d21dba01",
      "from": "0x56fd3f2bee130e9867942d0f463a16fbe49b8d81",
      "to": "0x8b74bca4c87207380292f0844b1c0abe2ef60c54",
      "contractAddress": null,
      "l1BaseFeeScalar": "0x0",
      "l1BlobBaseFee": "0x1",
      "l1BlobBaseFeeScalar": "0x0",
      "l1Fee": "0x0",
      "l1GasPrice": "0x8cb902",
      "l1GasUsed": "0x640"
    },
    {
      "status": "0x1",
      "cumulativeGasUsed": "0xd4885",
      "logs": [
        {
          "address": "0x691ab9aff4a36e1fcb9c2d9a366cc0e176c5e4fc",
          "topics": [
            "0x7cebb17173a9ed273d2b7538f64395c0ebf352ff743f1cf8ce66b437a6144213",
            "0x000000000000000000000000f7b436583e011794293a04faa440816f3354501f",
            "0x000000000000000000000000a5f0ce0cd80e203161709a18378f2c850b64cc56"
          ],
          "data": "0x0000000000000000000000000000000000000000000000000000000068b9845000000000000000000000000000000000000000000000000d89fa3dc48dcf0000",
          "blockHash": "0xb4d0e8d5c4621d61934d3d0186966afc754b148560e41dfd2825b04e7b9c82a4",
          "blockNumber": "0x3886bc",
          "transactionHash": "0x62c842b1b86be462d97ef3a596ad93de74f1a2edca5647a945dfbf3c86e7707b",
          "transactionIndex": "0xb",
          "logIndex": "0x4",
          "removed": false
        }
      ],
      "logsBloom": "0x00800000000000000000000000000000000000000000000000000000000000000000000000400000000000000000000800000000000000000000000000100000000000000000000000001002000000000000000000000000000000000000000000000000000000000000000000008000000000000000000000000000000000000000000000000000000000000000000000000000000000000000000004000000200000000000000000000008000000000000000000000000000000000000000000000000000000000000000000000000000000000000000000000000000000010000000000000000000000000000000001000000000000000000000000000000",
      "type": "0x2",
      "transactionHash": "0x62c842b1b86be462d97ef3a596ad93de74f1a2edca5647a945dfbf3c86e7707b",
      "transactionIndex": "0xb",
      "blockHash": "0xb4d0e8d5c4621d61934d3d0186966afc754b148560e41dfd2825b04e7b9c82a4",
      "blockNumber": "0x3886bc",
      "gasUsed": "0x2ea8c",
      "effectiveGasPrice": "0x5d21dba01",
      "from": "0x56fd3f2bee130e9867942d0f463a16fbe49b8d81",
      "to": "0xa5f0ce0cd80e203161709a18378f2c850b64cc56",
      "contractAddress": null,
      "l1BaseFeeScalar": "0x0",
      "l1BlobBaseFee": "0x1",
      "l1BlobBaseFeeScalar": "0x0",
      "l1Fee": "0x0",
      "l1GasPrice": "0x8cb902",
      "l1GasUsed": "0x640"
    },
    {
      "status": "0x1",
      "cumulativeGasUsed": "0x1043b1",
      "logs": [
        {
          "address": "0x691ab9aff4a36e1fcb9c2d9a366cc0e176c5e4fc",
          "topics": [
            "0x7cebb17173a9ed273d2b7538f64395c0ebf352ff743f1cf8ce66b437a6144213",
            "0x000000000000000000000000812a10b8744a9ad8637e819899d8c33454fe8d20",
            "0x00000000000000000000000001f9629fb13ec2f902cc27f521e5b29e880173b4"
          ],
          "data": "0x0000000000000000000000000000000000000000000000000000000068b984500000000000000000000000000000000000000000000011913bd6f2af56fc0000",
          "blockHash": "0xb4d0e8d5c4621d61934d3d0186966afc754b148560e41dfd2825b04e7b9c82a4",
          "blockNumber": "0x3886bc",
          "transactionHash": "0x99d97475f941948adfc07c8bb68d3fb2ca772082329c750e5c6b86e161501032",
          "transactionIndex": "0xc",
          "logIndex": "0x5",
          "removed": false
        },
        {
          "address": "0x691ab9aff4a36e1fcb9c2d9a366cc0e176c5e4fc",
          "topics": [
            "0xa9981ebfc3b766a742486e898f54959b050a66006dbce1a4155c1f84a08bcf41",
            "0x000000000000000000000000812a10b8744a9ad8637e819899d8c33454fe8d20"
          ],
          "data": "0x0000000000000000000000000000000000000000000011913bd6f2af56fc0000",
          "blockHash": "0xb4d0e8d5c4621d61934d3d0186966afc754b148560e41dfd2825b04e7b9c82a4",
          "blockNumber": "0x3886bc",
          "transactionHash": "0x99d97475f941948adfc07c8bb68d3fb2ca772082329c750e5c6b86e161501032",
          "transactionIndex": "0xc",
          "logIndex": "0x6",
          "removed": false
        }
      ],
      "logsBloom": "0x00800000000000000000000000000000100000000000002000000000000100000000000000000000000000000000000800000000002000000000000000100000000000000000000000000000000000000000000004000000000000000000000000000000000000000000000000008000000000000000000000000000000000000000000000000000400000000000000000000000000000000000000000000000200000800000000000000008000000000000080000000000000000000000000000000000000000000000000000000000000000000000000000000000000000000000000000000000000000000000000000000000000001000000000000000000",
      "type": "0x2",
      "transactionHash": "0x99d97475f941948adfc07c8bb68d3fb2ca772082329c750e5c6b86e161501032",
      "transactionIndex": "0xc",
      "blockHash": "0xb4d0e8d5c4621d61934d3d0186966afc754b148560e41dfd2825b04e7b9c82a4",
      "blockNumber": "0x3886bc",
      "gasUsed": "0x2fb2c",
      "effectiveGasPrice": "0x5d21dba01",
      "from": "0x56fd3f2bee130e9867942d0f463a16fbe49b8d81",
      "to": "0x01f9629fb13ec2f902cc27f521e5b29e880173b4",
      "contractAddress": null,
      "l1BaseFeeScalar": "0x0",
      "l1BlobBaseFee": "0x1",
      "l1BlobBaseFeeScalar": "0x0",
      "l1Fee": "0x0",
      "l1GasPrice": "0x8cb902",
      "l1GasUsed": "0x640"
    },
    {
      "status": "0x1",
      "cumulativeGasUsed": "0x133edd",
      "logs": [
        {
          "address": "0x691ab9aff4a36e1fcb9c2d9a366cc0e176c5e4fc",
          "topics": [
            "0x7cebb17173a9ed273d2b7538f64395c0ebf352ff743f1cf8ce66b437a6144213",
            "0x000000000000000000000000ea4103a6a122fbe2cdb07a80d4d293be07bb29fa",
            "0x000000000000000000000000bea02da2fef22ad1b47d204e592a63c77bd44944"
          ],
          "data": "0x0000000000000000000000000000000000000000000000000000000068b98450000000000000000000000000000000000000000000011cb011edc78654400000",
          "blockHash": "0xb4d0e8d5c4621d61934d3d0186966afc754b148560e41dfd2825b04e7b9c82a4",
          "blockNumber": "0x3886bc",
          "transactionHash": "0xeba423f024e3094d489360712c7143f3fc8277bc5b2e20ad959bef3ef4387ef5",
          "transactionIndex": "0xd",
          "logIndex": "0x7",
          "removed": false
        },
        {
          "address": "0x691ab9aff4a36e1fcb9c2d9a366cc0e176c5e4fc",
          "topics": [
            "0xa9981ebfc3b766a742486e898f54959b050a66006dbce1a4155c1f84a08bcf41",
            "0x000000000000000000000000ea4103a6a122fbe2cdb07a80d4d293be07bb29fa"
          ],
          "data": "0x000000000000000000000000000000000000000000011cb011edc78654400000",
          "blockHash": "0xb4d0e8d5c4621d61934d3d0186966afc754b148560e41dfd2825b04e7b9c82a4",
          "blockNumber": "0x3886bc",
          "transactionHash": "0xeba423f024e3094d489360712c7143f3fc8277bc5b2e20ad959bef3ef4387ef5",
          "transactionIndex": "0xd",
          "logIndex": "0x8",
          "removed": false
        }
      ],
      "logsBloom": "0x00800000000000000000000000000000000000000000000000000000000000000000000000000000000000000000000800000000000000000000000000100080000000000000000000000008000000000000000004000000000000000000000800000000000000000040000000008000000000000000000000000000000000000000000010000000400000000000000000000000000000000000000000000000200000800000000000000008000000000000000000000000000000000000000000000000000000000000000000000002000000000000000000000000000000000000000000000000000000000000000000000000000000000000000000000000",
      "type": "0x2",
      "transactionHash": "0xeba423f024e3094d489360712c7143f3fc8277bc5b2e20ad959bef3ef4387ef5",
      "transactionIndex": "0xd",
      "blockHash": "0xb4d0e8d5c4621d61934d3d0186966afc754b148560e41dfd2825b04e7b9c82a4",
      "blockNumber": "0x3886bc",
      "gasUsed": "0x2fb2c",
      "effectiveGasPrice": "0x5d21dba01",
      "from": "0x56fd3f2bee130e9867942d0f463a16fbe49b8d81",
      "to": "0xbea02da2fef22ad1b47d204e592a63c77bd44944",
      "contractAddress": null,
      "l1BaseFeeScalar": "0x0",
      "l1BlobBaseFee": "0x1",
      "l1BlobBaseFeeScalar": "0x0",
      "l1Fee": "0x0",
      "l1GasPrice": "0x8cb902",
      "l1GasUsed": "0x640"
    },
    {
      "status": "0x1",
      "cumulativeGasUsed": "0x163a09",
      "logs": [
        {
          "address": "0x691ab9aff4a36e1fcb9c2d9a366cc0e176c5e4fc",
          "topics": [
            "0x7cebb17173a9ed273d2b7538f64395c0ebf352ff743f1cf8ce66b437a6144213",
            "0x0000000000000000000000006c4a6765bcfc7e7fc5b01eefe931885a79dde791",
            "0x0000000000000000000000005dfa86d3660a63aaf274e70bf89c9087615a65c3"
          ],
          "data": "0x0000000000000000000000000000000000000000000000000000000068b98450000000000000000000000000000000000000000000000beb41004f949c1a0000",
          "blockHash": "0xb4d0e8d5c4621d61934d3d0186966afc754b148560e41dfd2825b04e7b9c82a4",
          "blockNumber": "0x3886bc",
          "transactionHash": "0xc1ef72575599b9deb56d5a7ee15c10b2dec1269cc9449ceb9a472ddb4051292c",
          "transactionIndex": "0xe",
          "logIndex": "0x9",
          "removed": false
        },
        {
          "address": "0x691ab9aff4a36e1fcb9c2d9a366cc0e176c5e4fc",
          "topics": [
            "0xa9981ebfc3b766a742486e898f54959b050a66006dbce1a4155c1f84a08bcf41",
            "0x0000000000000000000000006c4a6765bcfc7e7fc5b01eefe931885a79dde791"
          ],
          "data": "0x000000000000000000000000000000000000000000000beb41004f949c1a0000",
          "blockHash": "0xb4d0e8d5c4621d61934d3d0186966afc754b148560e41dfd2825b04e7b9c82a4",
          "blockNumber": "0x3886bc",
          "transactionHash": "0xc1ef72575599b9deb56d5a7ee15c10b2dec1269cc9449ceb9a472ddb4051292c",
          "transactionIndex": "0xe",
          "logIndex": "0xa",
          "removed": false
        }
      ],
      "logsBloom": "0x00800000000000000000000000000000000000000000000000000000000000000040000000000000000000000000000800000000000000000000000000100000000000000000000000000000000000000000000004000000000000000000000200000000000020000000000000008000000000000000000000000040000000000000000000000000400000000000000000000000000000000000000000000000200000800000000000000008000000000000000000000000000000000000000000000000000000000000000000000000000000000000000000000000000000000000000000000000000000000000000000000000020000000000000000200000",
      "type": "0x2",
      "transactionHash": "0xc1ef72575599b9deb56d5a7ee15c10b2dec1269cc9449ceb9a472ddb4051292c",
      "transactionIndex": "0xe",
      "blockHash": "0xb4d0e8d5c4621d61934d3d0186966afc754b148560e41dfd2825b04e7b9c82a4",
      "blockNumber": "0x3886bc",
      "gasUsed": "0x2fb2c",
      "effectiveGasPrice": "0x5d21dba01",
      "from": "0x56fd3f2bee130e9867942d0f463a16fbe49b8d81",
      "to": "0x5dfa86d3660a63aaf274e70bf89c9087615a65c3",
      "contractAddress": null,
      "l1BaseFeeScalar": "0x0",
      "l1BlobBaseFee": "0x1",
      "l1BlobBaseFeeScalar": "0x0",
      "l1Fee": "0x0",
      "l1GasPrice": "0x8cb902",
      "l1GasUsed": "0x640"
    },
    {
      "status": "0x1",
      "cumulativeGasUsed": "0x193535",
      "logs": [
        {
          "address": "0x691ab9aff4a36e1fcb9c2d9a366cc0e176c5e4fc",
          "topics": [
            "0x7cebb17173a9ed273d2b7538f64395c0ebf352ff743f1cf8ce66b437a6144213",
            "0x00000000000000000000000002996d13041557032ffb3e910966f9ea784dfec4",
            "0x00000000000000000000000041cee890564872045e770ed522e3d2bf5ff1acfd"
          ],
          "data": "0x0000000000000000000000000000000000000000000000000000000068b9845000000000000000000000000000000000000000000000994ae01cfc0b68b80000",
          "blockHash": "0xb4d0e8d5c4621d61934d3d0186966afc754b148560e41dfd2825b04e7b9c82a4",
          "blockNumber": "0x3886bc",
          "transactionHash": "0x070a2ec964eb30129990bbfd5291b58bb861d582b85639c370f165c15b01349f",
          "transactionIndex": "0xf",
          "logIndex": "0xb",
          "removed": false
        },
        {
          "address": "0x691ab9aff4a36e1fcb9c2d9a366cc0e176c5e4fc",
          "topics": [
            "0xa9981ebfc3b766a742486e898f54959b050a66006dbce1a4155c1f84a08bcf41",
            "0x00000000000000000000000002996d13041557032ffb3e910966f9ea784dfec4"
          ],
          "data": "0x00000000000000000000000000000000000000000000994ae01cfc0b68b80000",
          "blockHash": "0xb4d0e8d5c4621d61934d3d0186966afc754b148560e41dfd2825b04e7b9c82a4",
          "blockNumber": "0x3886bc",
          "transactionHash": "0x070a2ec964eb30129990bbfd5291b58bb861d582b85639c370f165c15b01349f",
          "transactionIndex": "0xf",
          "logIndex": "0xc",
          "removed": false
        }
      ],
      "logsBloom": "0x00800000000000000000000000000000000000000000000000000000400000000000000000000000000000000000000800000000000000000000000000100000000000000000000000000000000000000000000004000000000000000000000000000000000001000000000000008000000010000000000000040000000000000000000000000000400000000000000000000000000000000000000000000000200000a00000000000000008000000000000000000000000000000000000000000000000000000000000000000000000000000000000000000000000000000000000000000000000000000000000008000000000000000000000000000000000",
      "type": "0x2",
      "transactionHash": "0x070a2ec964eb30129990bbfd5291b58bb861d582b85639c370f165c15b01349f",
      "transactionIndex": "0xf",
      "blockHash": "0xb4d0e8d5c4621d61934d3d0186966afc754b148560e41dfd2825b04e7b9c82a4",
      "blockNumber": "0x3886bc",
      "gasUsed": "0x2fb2c",
      "effectiveGasPrice": "0x5d21dba01",
      "from": "0x56fd3f2bee130e9867942d0f463a16fbe49b8d81",
      "to": "0x41cee890564872045e770ed522e3d2bf5ff1acfd",
      "contractAddress": null,
      "l1BaseFeeScalar": "0x0",
      "l1BlobBaseFee": "0x1",
      "l1BlobBaseFeeScalar": "0x0",
      "l1Fee": "0x0",
      "l1GasPrice": "0x8cb902",
      "l1GasUsed": "0x640"
    },
    {
      "status": "0x1",
      "cumulativeGasUsed": "0x1c3061",
      "logs": [
        {
          "address": "0x691ab9aff4a36e1fcb9c2d9a366cc0e176c5e4fc",
          "topics": [
            "0x7cebb17173a9ed273d2b7538f64395c0ebf352ff743f1cf8ce66b437a6144213",
            "0x0000000000000000000000005c0c9efb14a767ce50a687ac4658cce705407380",
            "0x00000000000000000000000039e6ed41f651624c90778c0f785c283a124bb52a"
          ],
          "data": "0x0000000000000000000000000000000000000000000000000000000068b98450000000000000000000000000000000000000000000008a1bd535504dc5a00000",
          "blockHash": "0xb4d0e8d5c4621d61934d3d0186966afc754b148560e41dfd2825b04e7b9c82a4",
          "blockNumber": "0x3886bc",
          "transactionHash": "0xa778e57c9d497ca4fd60691c412bed9a738736c693b02d393ac584929527b1b0",
          "transactionIndex": "0x10",
          "logIndex": "0xd",
          "removed": false
        },
        {
          "address": "0x691ab9aff4a36e1fcb9c2d9a366cc0e176c5e4fc",
          "topics": [
            "0xa9981ebfc3b766a742486e898f54959b050a66006dbce1a4155c1f84a08bcf41",
            "0x0000000000000000000000005c0c9efb14a767ce50a687ac4658cce705407380"
          ],
          "data": "0x000000000000000000000000000000000000000000008a1bd535504dc5a00000",
          "blockHash": "0xb4d0e8d5c4621d61934d3d0186966afc754b148560e41dfd2825b04e7b9c82a4",
          "blockNumber": "0x3886bc",
          "transactionHash": "0xa778e57c9d497ca4fd60691c412bed9a738736c693b02d393ac584929527b1b0",
          "transactionIndex": "0x10",
          "logIndex": "0xe",
          "removed": false
        }
      ],
      "logsBloom": "0x00800000000000000000000000000000000400000000000000000000000000000000000000000000000000020000000800000000000000000000000000100000000000000000000000000000000000000000000004000000000000000000000000000000000000000000000000008000000000000000000000000000000000000000000000000000400000000000000000000000000000000000000000000000200000800000000000000008000000000000000100000000000000000000000000000001000000000000002000000000000000000000000000000000000000000000000000000000000000000000000000000000000000000000001000000000",
      "type": "0x2",
      "transactionHash": "0xa778e57c9d497ca4fd60691c412bed9a738736c693b02d393ac584929527b1b0",
      "transactionIndex": "0x10",
      "blockHash": "0xb4d0e8d5c4621d61934d3d0186966afc754b148560e41dfd2825b04e7b9c82a4",
      "blockNumber": "0x3886bc",
      "gasUsed": "0x2fb2c",
      "effectiveGasPrice": "0x5d21dba01",
      "from": "0x56fd3f2bee130e9867942d0f463a16fbe49b8d81",
      "to": "0x39e6ed41f651624c90778c0f785c283a124bb52a",
      "contractAddress": null,
      "l1BaseFeeScalar": "0x0",
      "l1BlobBaseFee": "0x1",
      "l1BlobBaseFeeScalar": "0x0",
      "l1Fee": "0x0",
      "l1GasPrice": "0x8cb902",
      "l1GasUsed": "0x640"
    },
    {
      "status": "0x1",
      "cumulativeGasUsed": "0x1f2b8d",
      "logs": [
        {
          "address": "0x691ab9aff4a36e1fcb9c2d9a366cc0e176c5e4fc",
          "topics": [
            "0x7cebb17173a9ed273d2b7538f64395c0ebf352ff743f1cf8ce66b437a6144213",
            "0x0000000000000000000000002ee56be22d6af8c1b0ac97149b6f42d3b0bfb8c2",
            "0x0000000000000000000000005eb3f5b9d4315cda410c98be788a14e0df320fb8"
          ],
          "data": "0x0000000000000000000000000000000000000000000000000000000068b9845000000000000000000000000000000000000000000001070c139fcefe1b640000",
          "blockHash": "0xb4d0e8d5c4621d61934d3d0186966afc754b148560e41dfd2825b04e7b9c82a4",
          "blockNumber": "0x3886bc",
          "transactionHash": "0x2041a6bf5d1b0e8d1b682c450c4a13afbdca9e4760d433028ee1b5d0079149ca",
          "transactionIndex": "0x11",
          "logIndex": "0xf",
          "removed": false
        },
        {
          "address": "0x691ab9aff4a36e1fcb9c2d9a366cc0e176c5e4fc",
          "topics": [
            "0xa9981ebfc3b766a742486e898f54959b050a66006dbce1a4155c1f84a08bcf41",
            "0x0000000000000000000000002ee56be22d6af8c1b0ac97149b6f42d3b0bfb8c2"
          ],
          "data": "0x00000000000000000000000000000000000000000001070c139fcefe1b640000",
          "blockHash": "0xb4d0e8d5c4621d61934d3d0186966afc754b148560e41dfd2825b04e7b9c82a4",
          "blockNumber": "0x3886bc",
          "transactionHash": "0x2041a6bf5d1b0e8d1b682c450c4a13afbdca9e4760d433028ee1b5d0079149ca",
          "transactionIndex": "0x11",
          "logIndex": "0x10",
          "removed": false
        }
      ],
      "logsBloom": "0x00800000000000000000000000000000000000000000000000000000000000000000000000000000000000000000000800000000000000000000001000100000000000000000000000000000000000000000100004000000000000000000000000000000000000000000000000008000000000000000000000000000000000000000000000000000400800000000000000000000000000800000000200000000200000800000000000000008000000000000000000000000000000000000000000000000000000000000000000000000000000000000000000000000000000000000000000000000000000000000000000000000000000000000040000000000",
      "type": "0x2",
      "transactionHash": "0x2041a6bf5d1b0e8d1b682c450c4a13afbdca9e4760d433028ee1b5d0079149ca",
      "transactionIndex": "0x11",
      "blockHash": "0xb4d0e8d5c4621d61934d3d0186966afc754b148560e41dfd2825b04e7b9c82a4",
      "blockNumber": "0x3886bc",
      "gasUsed": "0x2fb2c",
      "effectiveGasPrice": "0x5d21dba01",
      "from": "0x56fd3f2bee130e9867942d0f463a16fbe49b8d81",
      "to": "0x5eb3f5b9d4315cda410c98be788a14e0df320fb8",
      "contractAddress": null,
      "l1BaseFeeScalar": "0x0",
      "l1BlobBaseFee": "0x1",
      "l1BlobBaseFeeScalar": "0x0",
      "l1Fee": "0x0",
      "l1GasPrice": "0x8cb902",
      "l1GasUsed": "0x640"
    },
    {
      "status": "0x1",
      "cumulativeGasUsed": "0x2226b9",
      "logs": [
        {
          "address": "0x691ab9aff4a36e1fcb9c2d9a366cc0e176c5e4fc",
          "topics": [
            "0x7cebb17173a9ed273d2b7538f64395c0ebf352ff743f1cf8ce66b437a6144213",
            "0x000000000000000000000000b9addcd1d1ce7d49dbb540e2677f1c572bc8d195",
            "0x0000000000000000000000005335bd8ad99c14be976f2c1eac64c3365315d88e"
          ],
          "data": "0x0000000000000000000000000000000000000000000000000000000068b9845000000000000000000000000000000000000000000000016dcf4fe7904ff00000",
          "blockHash": "0xb4d0e8d5c4621d61934d3d0186966afc754b148560e41dfd2825b04e7b9c82a4",
          "blockNumber": "0x3886bc",
          "transactionHash": "0xd45766a8278e5a207ef9c9eaf8484c8e5d65975b321c876df033df7002547968",
          "transactionIndex": "0x12",
          "logIndex": "0x11",
          "removed": false
        },
        {
          "address": "0x691ab9aff4a36e1fcb9c2d9a366cc0e176c5e4fc",
          "topics": [
            "0xa9981ebfc3b766a742486e898f54959b050a66006dbce1a4155c1f84a08bcf41",
            "0x000000000000000000000000b9addcd1d1ce7d49dbb540e2677f1c572bc8d195"
          ],
          "data": "0x00000000000000000000000000000000000000000000016dcf4fe7904ff00000",
          "blockHash": "0xb4d0e8d5c4621d61934d3d0186966afc754b148560e41dfd2825b04e7b9c82a4",
          "blockNumber": "0x3886bc",
          "transactionHash": "0xd45766a8278e5a207ef9c9eaf8484c8e5d65975b321c876df033df7002547968",
          "transactionIndex": "0x12",
          "logIndex": "0x12",
          "removed": false
        }
      ],
      "logsBloom": "0x00800000000000000000000000000000000000000000000000000000000000000000000000000000000000000000000800000000000000000000000000100000000000000000000000000000000000000000000004000000000001000000000000000000000000000000000000008000000000000000000000000000000000000000000000000000420000000000000000000000000000000000000000000000200000800000000000000008000000000000000000000000000000000000000000000000000000000000000000000000000000020000000000000000100000000000100000000000000000000000000004000000000000000000000000000000",
      "type": "0x2",
      "transactionHash": "0xd45766a8278e5a207ef9c9eaf8484c8e5d65975b321c876df033df7002547968",
      "transactionIndex": "0x12",
      "blockHash": "0xb4d0e8d5c4621d61934d3d0186966afc754b148560e41dfd2825b04e7b9c82a4",
      "blockNumber": "0x3886bc",
      "gasUsed": "0x2fb2c",
      "effectiveGasPrice": "0x5d21dba01",
      "from": "0x56fd3f2bee130e9867942d0f463a16fbe49b8d81",
      "to": "0x5335bd8ad99c14be976f2c1eac64c3365315d88e",
      "contractAddress": null,
      "l1BaseFeeScalar": "0x0",
      "l1BlobBaseFee": "0x1",
      "l1BlobBaseFeeScalar": "0x0",
      "l1Fee": "0x0",
      "l1GasPrice": "0x8cb902",
      "l1GasUsed": "0x640"
    },
    {
      "status": "0x1",
      "cumulativeGasUsed": "0x25211a",
      "logs": [
        {
          "address": "0x691ab9aff4a36e1fcb9c2d9a366cc0e176c5e4fc",
          "topics": [
            "0x7cebb17173a9ed273d2b7538f64395c0ebf352ff743f1cf8ce66b437a6144213",
            "0x000000000000000000000000d772efe6507b7d8cdc8c4d8870931439fbeeb929",
            "0x0000000000000000000000008700b6031a3c31edbf9a37426ea6a904303d2230"
          ],
          "data": "0x0000000000000000000000000000000000000000000000000000000068b984500000000000000000000000000000000000000000000000239228f4603d60c000",
          "blockHash": "0xb4d0e8d5c4621d61934d3d0186966afc754b148560e41dfd2825b04e7b9c82a4",
          "blockNumber": "0x3886bc",
          "transactionHash": "0x0c40f800cfe94542dba2403e132e714953cb11b4e3f7913bbe77b6d25057d81b",
          "transactionIndex": "0x13",
          "logIndex": "0x13",
          "removed": false
        },
        {
          "address": "0x691ab9aff4a36e1fcb9c2d9a366cc0e176c5e4fc",
          "topics": [
            "0xa9981ebfc3b766a742486e898f54959b050a66006dbce1a4155c1f84a08bcf41",
            "0x000000000000000000000000d772efe6507b7d8cdc8c4d8870931439fbeeb929"
          ],
          "data": "0x0000000000000000000000000000000000000000000000239228f4603d60c000",
          "blockHash": "0xb4d0e8d5c4621d61934d3d0186966afc754b148560e41dfd2825b04e7b9c82a4",
          "blockNumber": "0x3886bc",
          "transactionHash": "0x0c40f800cfe94542dba2403e132e714953cb11b4e3f7913bbe77b6d25057d81b",
          "transactionIndex": "0x13",
          "logIndex": "0x14",
          "removed": false
        }
      ],
      "logsBloom": "0x00800020000000000000000000000000000000000000000000000000000000040000000000000200000000000000000800000000000000000000000000100800000000000000000000000000000000000000000004000000000000000000000000000000000000000000000000088000000000000000000000000000000000000000000000000000400000000000000000000000000000000000000000000000200000800000000000000008000000000000000000000000000000000000000000000000000000001000000000000000000000000000000000000000000000000000000000000000000000000000000000000000000000000000000000000000",
      "type": "0x2",
      "transactionHash": "0x0c40f800cfe94542dba2403e132e714953cb11b4e3f7913bbe77b6d25057d81b",
      "transactionIndex": "0x13",
      "blockHash": "0xb4d0e8d5c4621d61934d3d0186966afc754b148560e41dfd2825b04e7b9c82a4",
      "blockNumber": "0x3886bc",
      "gasUsed": "0x2fa61",
      "effectiveGasPrice": "0x5d21dba01",
      "from": "0x56fd3f2bee130e9867942d0f463a16fbe49b8d81",
      "to": "0x8700b6031a3c31edbf9a37426ea6a904303d2230",
      "contractAddress": null,
      "l1BaseFeeScalar": "0x0",
      "l1BlobBaseFee": "0x1",
      "l1BlobBaseFeeScalar": "0x0",
      "l1Fee": "0x0",
      "l1GasPrice": "0x8cb902",
      "l1GasUsed": "0x640"
    }
  ],
  "libraries": [
    "node_modules/@celo/contracts/common/linkedlists/AddressSortedLinkedListWithMedian.sol:AddressSortedLinkedListWithMedian:0x1aD9B2599975E8CDF5629aFaBA8852269f1A1364"
  ],
  "pending": [],
  "returns": {},
  "timestamp": 1756988497433,
  "chain": 11142220,
  "commit": "7dc8151"
}