{
  "transactions": [
    {
      "hash": "0x449ed47e4cef0020c4c1c5881b3eef337ac84273260f9fb489ffef6c61547e89",
      "transactionType": "CALL",
      "contractName": null,
      "contractAddress": "0x712959a392488f3eae92c7d2d66517fc3ec829d0",
      "function": "report(int256,uint256)",
      "arguments": [
        "99987995",
        "1756988720"
      ],
      "transaction": {
        "from": "0x56fd3f2bee130e9867942d0f463a16fbe49b8d81",
        "to": "0x712959a392488f3eae92c7d2d66517fc3ec829d0",
        "gas": "0xb6a5",
        "value": "0x0",
        "input": "0x0f3d249d0000000000000000000000000000000000000000000000000000000005f5b21b0000000000000000000000000000000000000000000000000000000068b98530",
        "nonce": "0x2eb",
        "chainId": "0xaa044c"
      },
      "additionalContracts": [],
      "isFixedGasLimit": false
    },
    {
      "hash": "0x6c47385afc73296623317b48540bb052052566be3774faf9a3fabc104969246c",
      "transactionType": "CALL",
      "contractName": null,
      "contractAddress": "0xb130563ad59b4367de850eb71b6839eade134b05",
      "function": "report(int256,uint256)",
      "arguments": [
        "100023499",
        "1756988624"
      ],
      "transaction": {
        "from": "0x56fd3f2bee130e9867942d0f463a16fbe49b8d81",
        "to": "0xb130563ad59b4367de850eb71b6839eade134b05",
        "gas": "0xb6a5",
        "value": "0x0",
        "input": "0x0f3d249d0000000000000000000000000000000000000000000000000000000005f63ccb0000000000000000000000000000000000000000000000000000000068b984d0",
        "nonce": "0x2ec",
        "chainId": "0xaa044c"
      },
      "additionalContracts": [],
      "isFixedGasLimit": false
    },
    {
      "hash": "0x37fe1417dbb1c5ada32b08f6d06e2917fedec1997b9429d8acbf330d20ba6474",
      "transactionType": "CALL",
      "contractName": null,
      "contractAddress": "0xa0a403b75580072a8e486f82253a407ba9bae0cb",
      "function": "report(int256,uint256)",
      "arguments": [
        "116480437",
        "1756988522"
      ],
      "transaction": {
        "from": "0x56fd3f2bee130e9867942d0f463a16fbe49b8d81",
        "to": "0xa0a403b75580072a8e486f82253a407ba9bae0cb",
        "gas": "0xb6a5",
        "value": "0x0",
        "input": "0x0f3d249d0000000000000000000000000000000000000000000000000000000006f159b50000000000000000000000000000000000000000000000000000000068b9846a",
        "nonce": "0x2ed",
        "chainId": "0xaa044c"
      },
      "additionalContracts": [],
      "isFixedGasLimit": false
    },
    {
      "hash": "0x860202240a583f3586f4619ac1cf11aef7bc2e9764f1f93c9630f63a0b6c9d01",
      "transactionType": "CALL",
      "contractName": null,
      "contractAddress": "0x5995fb71215c9ea02753092aacf47885bfa1a988",
      "function": "report(int256,uint256)",
      "arguments": [
        "29289707",
        "1756988735"
      ],
      "transaction": {
        "from": "0x56fd3f2bee130e9867942d0f463a16fbe49b8d81",
        "to": "0x5995fb71215c9ea02753092aacf47885bfa1a988",
        "gas": "0xb6a5",
        "value": "0x0",
        "input": "0x0f3d249d0000000000000000000000000000000000000000000000000000000001beeceb0000000000000000000000000000000000000000000000000000000068b9853f",
        "nonce": "0x2ee",
        "chainId": "0xaa044c"
      },
      "additionalContracts": [],
      "isFixedGasLimit": false
    },
    {
      "hash": "0xd223cda3d2afa0b95f8bbc574a6d469c75f820edad7254927bc762fcd237cc6d",
      "transactionType": "CALL",
      "contractName": null,
      "contractAddress": "0x44a7e7d4de5a4d6f5db9d174943214b926fd07d1",
      "function": "report(int256,uint256)",
      "arguments": [
        "116480437",
        "1756988522"
      ],
      "transaction": {
        "from": "0x56fd3f2bee130e9867942d0f463a16fbe49b8d81",
        "to": "0x44a7e7d4de5a4d6f5db9d174943214b926fd07d1",
        "gas": "0xb6a5",
        "value": "0x0",
        "input": "0x0f3d249d0000000000000000000000000000000000000000000000000000000006f159b50000000000000000000000000000000000000000000000000000000068b9846a",
        "nonce": "0x2ef",
        "chainId": "0xaa044c"
      },
      "additionalContracts": [],
      "isFixedGasLimit": false
    },
    {
      "hash": "0xaea88f4bf0ff60f643df10ad7633d3345023a593348dbe63dc2fbc5bb6d8f8a5",
      "transactionType": "CALL",
      "contractName": null,
      "contractAddress": "0xe30f631aac9762059c67135095c7d520221a0868",
      "function": "report(int256,uint256)",
      "arguments": [
        "18322065",
        "1756988606"
      ],
      "transaction": {
        "from": "0x56fd3f2bee130e9867942d0f463a16fbe49b8d81",
        "to": "0xe30f631aac9762059c67135095c7d520221a0868",
        "gas": "0xb6a5",
        "value": "0x0",
        "input": "0x0f3d249d00000000000000000000000000000000000000000000000000000000011792910000000000000000000000000000000000000000000000000000000068b984be",
        "nonce": "0x2f0",
        "chainId": "0xaa044c"
      },
      "additionalContracts": [],
      "isFixedGasLimit": false
    },
    {
      "hash": "0xba54d20fabdf998e27c11a7e078bc3d8ac71add1dcd2f69b351d7edca4a69f2b",
      "transactionType": "CALL",
      "contractName": null,
      "contractAddress": "0xf364db584bc3b55df019044de85993c47e1b145a",
      "function": "report(int256,uint256)",
      "arguments": [
        "1776154767021779",
        "1756988628"
      ],
      "transaction": {
        "from": "0x56fd3f2bee130e9867942d0f463a16fbe49b8d81",
        "to": "0xf364db584bc3b55df019044de85993c47e1b145a",
        "gas": "0xb6d7",
        "value": "0x0",
        "input": "0x0f3d249d00000000000000000000000000000000000000000000000000064f6741f456d30000000000000000000000000000000000000000000000000000000068b984d4",
        "nonce": "0x2f1",
        "chainId": "0xaa044c"
      },
      "additionalContracts": [],
      "isFixedGasLimit": false
    },
    {
      "hash": "0xda07e0cc02eb9d23ba24ec103ff641e232574418d3e4e4e155f54d4f068db56a",
      "transactionType": "CALL",
      "contractName": null,
      "contractAddress": "0x0d1a55b9a06fe8aa48eb87251fbd959d121ea843",
      "function": "report(int256,uint256)",
      "arguments": [
        "7735148514851485",
        "1756988588"
      ],
      "transaction": {
        "from": "0x56fd3f2bee130e9867942d0f463a16fbe49b8d81",
        "to": "0x0d1a55b9a06fe8aa48eb87251fbd959d121ea843",
        "gas": "0xa7bc",
        "value": "0x0",
        "input": "0x0f3d249d000000000000000000000000000000000000000000000000001b7b139b833a9d0000000000000000000000000000000000000000000000000000000068b984ac",
        "nonce": "0x2f2",
        "chainId": "0xaa044c"
      },
      "additionalContracts": [],
      "isFixedGasLimit": false
    },
    {
      "hash": "0x68ae1a21ac25afc0b472cba3cddbd0fcb6f08e9de30b4d973fb3699af5d1f8f8",
      "transactionType": "CALL",
      "contractName": null,
      "contractAddress": "0x7a2f69a58f0dae429cc6de1e6fcb6260041c7464",
      "function": "report(int256,uint256)",
      "arguments": [
        "1751160",
        "1756988639"
      ],
      "transaction": {
        "from": "0x56fd3f2bee130e9867942d0f463a16fbe49b8d81",
        "to": "0x7a2f69a58f0dae429cc6de1e6fcb6260041c7464",
        "gas": "0xb695",
        "value": "0x0",
        "input": "0x0f3d249d00000000000000000000000000000000000000000000000000000000001ab8780000000000000000000000000000000000000000000000000000000068b984df",
        "nonce": "0x2f3",
        "chainId": "0xaa044c"
      },
      "additionalContracts": [],
      "isFixedGasLimit": false
    },
    {
      "hash": "0x4adcd330e66b83d5f6d4008cff9321e09ab11cb531172ac0b4a309275c2bd487",
      "transactionType": "CALL",
      "contractName": null,
      "contractAddress": "0x97fd9624af571a5291d6b5aa0f7db7de8b5e0398",
      "function": "report(int256,uint256)",
      "arguments": [
        "24975",
        "1756988586"
      ],
      "transaction": {
        "from": "0x56fd3f2bee130e9867942d0f463a16fbe49b8d81",
        "to": "0x97fd9624af571a5291d6b5aa0f7db7de8b5e0398",
        "gas": "0xa769",
        "value": "0x0",
        "input": "0x0f3d249d000000000000000000000000000000000000000000000000000000000000618f0000000000000000000000000000000000000000000000000000000068b984aa",
        "nonce": "0x2f4",
        "chainId": "0xaa044c"
      },
      "additionalContracts": [],
      "isFixedGasLimit": false
    },
    {
      "hash": "0x96f116ce0c303d720f09bd0f22f68e859b32eb26b3dca907360d159b67433d06",
      "transactionType": "CALL",
      "contractName": null,
      "contractAddress": "0x04a1e7bbd987a7f86ca10ea36023884e45e46bd7",
      "function": "report(int256,uint256)",
      "arguments": [
        "8295932",
        "1756988708"
      ],
      "transaction": {
        "from": "0x56fd3f2bee130e9867942d0f463a16fbe49b8d81",
        "to": "0x04a1e7bbd987a7f86ca10ea36023884e45e46bd7",
        "gas": "0xa77a",
        "value": "0x0",
        "input": "0x0f3d249d00000000000000000000000000000000000000000000000000000000007e95fc0000000000000000000000000000000000000000000000000000000068b98524",
        "nonce": "0x2f5",
        "chainId": "0xaa044c"
      },
      "additionalContracts": [],
      "isFixedGasLimit": false
    },
    {
      "hash": "0xc516bf37e6bacdc27cc22f55d5aff0596e3d9c27a911647a954929876bbfe611",
      "transactionType": "CALL",
      "contractName": null,
      "contractAddress": "0x56029056ccc623115d05473cee7d1aacac830185",
      "function": "report(int256,uint256)",
      "arguments": [
        "134362000",
        "1756988611"
      ],
      "transaction": {
        "from": "0x56fd3f2bee130e9867942d0f463a16fbe49b8d81",
        "to": "0x56029056ccc623115d05473cee7d1aacac830185",
        "gas": "0xb6a5",
        "value": "0x0",
        "input": "0x0f3d249d00000000000000000000000000000000000000000000000000000000080233900000000000000000000000000000000000000000000000000000000068b984c3",
        "nonce": "0x2f6",
        "chainId": "0xaa044c"
      },
      "additionalContracts": [],
      "isFixedGasLimit": false
    },
    {
      "hash": "0xd139dee37bced13a7d34686fb3b2d02fefd33a7c2e1b4765202df35a0211957f",
      "transactionType": "CALL",
      "contractName": null,
      "contractAddress": "0x1d866336d9c2f1c9737aca853347838e0a9e0559",
      "function": "report(int256,uint256)",
      "arguments": [
        "5623790",
        "1756988535"
      ],
      "transaction": {
        "from": "0x56fd3f2bee130e9867942d0f463a16fbe49b8d81",
        "to": "0x1d866336d9c2f1c9737aca853347838e0a9e0559",
        "gas": "0xb695",
        "value": "0x0",
        "input": "0x0f3d249d000000000000000000000000000000000000000000000000000000000055cfee0000000000000000000000000000000000000000000000000000000068b98477",
        "nonce": "0x2f7",
        "chainId": "0xaa044c"
      },
      "additionalContracts": [],
      "isFixedGasLimit": false
    },
    {
      "hash": "0xdd88c1ae0886bcf92222ad9422feb44dddac6088127a39664ef64c1d4a6c6c50",
      "transactionType": "CALL",
      "contractName": null,
      "contractAddress": "0x8c947e599bea1f0469d5e2633a6e030910336d11",
      "function": "report(int256,uint256)",
      "arguments": [
        "72350262",
        "1756988684"
      ],
      "transaction": {
        "from": "0x56fd3f2bee130e9867942d0f463a16fbe49b8d81",
        "to": "0x8c947e599bea1f0469d5e2633a6e030910336d11",
        "gas": "0xb6a5",
        "value": "0x0",
        "input": "0x0f3d249d00000000000000000000000000000000000000000000000000000000044ffa360000000000000000000000000000000000000000000000000000000068b9850c",
        "nonce": "0x2f8",
        "chainId": "0xaa044c"
      },
      "additionalContracts": [],
      "isFixedGasLimit": false
    },
    {
      "hash": "0xbefc4f67f27ed438d7addfa974a5532007c97a9670ecc03b9de171d4a5107c08",
      "transactionType": "CALL",
      "contractName": null,
      "contractAddress": "0xdee315fc7023de5a99fbc68a1ca6c0266a897b17",
      "function": "report(int256,uint256)",
      "arguments": [
        "65171000",
        "1756988649"
      ],
      "transaction": {
        "from": "0x56fd3f2bee130e9867942d0f463a16fbe49b8d81",
        "to": "0xdee315fc7023de5a99fbc68a1ca6c0266a897b17",
        "gas": "0xb6a5",
        "value": "0x0",
        "input": "0x0f3d249d0000000000000000000000000000000000000000000000000000000003e26e380000000000000000000000000000000000000000000000000000000068b984e9",
        "nonce": "0x2f9",
        "chainId": "0xaa044c"
      },
      "additionalContracts": [],
      "isFixedGasLimit": false
    },
    {
      "hash": "0x9c6170ab1bd2c1a2941fdb0da5512a8ce0aebfbf8565a0204de7402aac9edd33",
      "transactionType": "CALL",
      "contractName": null,
      "contractAddress": "0x703691155cd4006ed14361023ec35599cfb33a19",
      "function": "report(int256,uint256)",
      "arguments": [
        "124178096",
        "1756988560"
      ],
      "transaction": {
        "from": "0x56fd3f2bee130e9867942d0f463a16fbe49b8d81",
        "to": "0x703691155cd4006ed14361023ec35599cfb33a19",
        "gas": "0xb6a5",
        "value": "0x0",
        "input": "0x0f3d249d000000000000000000000000000000000000000000000000000000000766ceb00000000000000000000000000000000000000000000000000000000068b98490",
        "nonce": "0x2fa",
        "chainId": "0xaa044c"
      },
      "additionalContracts": [],
      "isFixedGasLimit": false
    },
    {
      "hash": "0x65f727f4745fe15e0c4d9351267ba294ce92ac145066d0e5130c32e772860678",
      "transactionType": "CALL",
      "contractName": null,
      "contractAddress": "0x8003d6ea2954e8fa12c420e189777b2a7d989653",
      "function": "report(int256,uint256)",
      "arguments": [
        "674329",
        "1756988597"
      ],
      "transaction": {
        "from": "0x56fd3f2bee130e9867942d0f463a16fbe49b8d81",
        "to": "0x8003d6ea2954e8fa12c420e189777b2a7d989653",
        "gas": "0xb695",
        "value": "0x0",
        "input": "0x0f3d249d00000000000000000000000000000000000000000000000000000000000a4a190000000000000000000000000000000000000000000000000000000068b984b5",
        "nonce": "0x2fb",
        "chainId": "0xaa044c"
      },
      "additionalContracts": [],
      "isFixedGasLimit": false
    },
    {
      "hash": "0x1c6067a5a5878c854374d78969a8ba4759ad345010f9c541143b0b78c0afd33f",
      "transactionType": "CALL",
      "contractName": null,
      "contractAddress": "0x5db4a1e964ce93f994ff56aaf96b39de73f073da",
      "function": "report(int256,uint256)",
      "arguments": [
        "656167979002624",
        "1756988693"
      ],
      "transaction": {
        "from": "0x56fd3f2bee130e9867942d0f463a16fbe49b8d81",
        "to": "0x5db4a1e964ce93f994ff56aaf96b39de73f073da",
        "gas": "0xa7ab",
        "value": "0x0",
        "input": "0x0f3d249d000000000000000000000000000000000000000000000000000254c8034d2b000000000000000000000000000000000000000000000000000000000068b98515",
        "nonce": "0x2fc",
        "chainId": "0xaa044c"
      },
      "additionalContracts": [],
      "isFixedGasLimit": false
    },
    {
      "hash": "0x2d58ac19980094f86724a81d28d18d08f039ead3ba3dcd2c1e6f1200c54c691e",
      "transactionType": "CALL",
      "contractName": null,
      "contractAddress": "0x2053c6091491a572bcd8baa96f693ca77df25ccf",
      "function": "relay()",
      "arguments": [],
      "transaction": {
        "from": "0x56fd3f2bee130e9867942d0f463a16fbe49b8d81",
        "to": "0x2053c6091491a572bcd8baa96f693ca77df25ccf",
        "gas": "0x34763",
        "value": "0x0",
        "input": "0xb59589d1",
        "nonce": "0x2fd",
        "chainId": "0xaa044c"
      },
      "additionalContracts": [],
      "isFixedGasLimit": false
    },
    {
      "hash": "0xa183623ab0b9cea7bb949f793699da34bcec70323328ba62c44ba7c97efe131d",
      "transactionType": "CALL",
      "contractName": null,
      "contractAddress": "0x737285328116fcc9edab850d6fa1583fae1152ce",
      "function": "relay()",
      "arguments": [],
      "transaction": {
        "from": "0x56fd3f2bee130e9867942d0f463a16fbe49b8d81",
        "to": "0x737285328116fcc9edab850d6fa1583fae1152ce",
        "gas": "0x34763",
        "value": "0x0",
        "input": "0xb59589d1",
        "nonce": "0x2fe",
        "chainId": "0xaa044c"
      },
      "additionalContracts": [],
      "isFixedGasLimit": false
    },
    {
      "hash": "0xc8af1efc8e62081a69967f57b86d5f68b153a391bc2efa60d7a52c236b3e9a83",
      "transactionType": "CALL",
      "contractName": null,
      "contractAddress": "0x411fac2c99957651f9cc93d4852d4346f929c61e",
      "function": "relay()",
      "arguments": [],
      "transaction": {
        "from": "0x56fd3f2bee130e9867942d0f463a16fbe49b8d81",
        "to": "0x411fac2c99957651f9cc93d4852d4346f929c61e",
        "gas": "0x3712e",
        "value": "0x0",
        "input": "0xb59589d1",
        "nonce": "0x2ff",
        "chainId": "0xaa044c"
      },
      "additionalContracts": [],
      "isFixedGasLimit": false
    },
    {
      "hash": "0x1fc8c82ad856b0c04bdd68cf5368571dcdc58553e231a6c0f35b7c73cfcb95c7",
      "transactionType": "CALL",
      "contractName": null,
      "contractAddress": "0xdbbe66b2ec5f1539c0c79ecf5fab12a94c1c7d7b",
      "function": "relay()",
      "arguments": [],
      "transaction": {
        "from": "0x56fd3f2bee130e9867942d0f463a16fbe49b8d81",
        "to": "0xdbbe66b2ec5f1539c0c79ecf5fab12a94c1c7d7b",
        "gas": "0x34763",
        "value": "0x0",
        "input": "0xb59589d1",
        "nonce": "0x300",
        "chainId": "0xaa044c"
      },
      "additionalContracts": [],
      "isFixedGasLimit": false
    },
    {
      "hash": "0x19ea33a228b88fe6fcb0088bb4b74eb88c292f1bf9abb446e82e542c4e8eceac",
      "transactionType": "CALL",
      "contractName": null,
      "contractAddress": "0x3bc0add00a414bc1fe0cfb6bde62e03e01a39059",
      "function": "relay()",
      "arguments": [],
      "transaction": {
        "from": "0x56fd3f2bee130e9867942d0f463a16fbe49b8d81",
        "to": "0x3bc0add00a414bc1fe0cfb6bde62e03e01a39059",
        "gas": "0x34763",
        "value": "0x0",
        "input": "0xb59589d1",
        "nonce": "0x301",
        "chainId": "0xaa044c"
      },
      "additionalContracts": [],
      "isFixedGasLimit": false
    },
    {
      "hash": "0x4de1ac259e09bb0b66050aa43df8428df3aa9bffe3432d8dbf5447e669c2d5f1",
      "transactionType": "CALL",
      "contractName": null,
      "contractAddress": "0xf4ed3b0f01cf978a56fcaca96e4537c60542edd5",
      "function": "relay()",
      "arguments": [],
      "transaction": {
        "from": "0x56fd3f2bee130e9867942d0f463a16fbe49b8d81",
        "to": "0xf4ed3b0f01cf978a56fcaca96e4537c60542edd5",
        "gas": "0x34763",
        "value": "0x0",
        "input": "0xb59589d1",
        "nonce": "0x302",
        "chainId": "0xaa044c"
      },
      "additionalContracts": [],
      "isFixedGasLimit": false
    },
    {
      "hash": "0x4665de39cd2393575599bf746afc28af34308751f7fbc752120d6b28cafec6e4",
      "transactionType": "CALL",
      "contractName": null,
      "contractAddress": "0xf764861a23096bf289232300b51f202dd902e04d",
      "function": "relay()",
      "arguments": [],
      "transaction": {
        "from": "0x56fd3f2bee130e9867942d0f463a16fbe49b8d81",
        "to": "0xf764861a23096bf289232300b51f202dd902e04d",
        "gas": "0x3779b",
        "value": "0x0",
        "input": "0xb59589d1",
        "nonce": "0x303",
        "chainId": "0xaa044c"
      },
      "additionalContracts": [],
      "isFixedGasLimit": false
    },
    {
      "hash": "0x5e15793af3f513e6e9dc82e157878afd1ade2986788ae2b41ac794a65c4c67b6",
      "transactionType": "CALL",
      "contractName": null,
      "contractAddress": "0xcc08331daa33ca9a97f3feb2b73d9f393eb921c1",
      "function": "relay()",
      "arguments": [],
      "transaction": {
        "from": "0x56fd3f2bee130e9867942d0f463a16fbe49b8d81",
        "to": "0xcc08331daa33ca9a97f3feb2b73d9f393eb921c1",
        "gas": "0x35f4a",
        "value": "0x0",
        "input": "0xb59589d1",
        "nonce": "0x304",
        "chainId": "0xaa044c"
      },
      "additionalContracts": [],
      "isFixedGasLimit": false
    },
    {
      "hash": "0x4b8f4146c777f7e5ee6ae96bb98b1b06a6381b5cd6828ed5f7d67f8f062beb32",
      "transactionType": "CALL",
      "contractName": null,
      "contractAddress": "0x8b74bca4c87207380292f0844b1c0abe2ef60c54",
      "function": "relay()",
      "arguments": [],
      "transaction": {
        "from": "0x56fd3f2bee130e9867942d0f463a16fbe49b8d81",
        "to": "0x8b74bca4c87207380292f0844b1c0abe2ef60c54",
        "gas": "0x34763",
        "value": "0x0",
        "input": "0xb59589d1",
        "nonce": "0x305",
        "chainId": "0xaa044c"
      },
      "additionalContracts": [],
      "isFixedGasLimit": false
    },
    {
      "hash": "0x4eedb42bb5f09231bc1ef5a57588e7952ebf32ad300fcfcc71af1915c0aabf99",
      "transactionType": "CALL",
      "contractName": null,
      "contractAddress": "0xa5f0ce0cd80e203161709a18378f2c850b64cc56",
      "function": "relay()",
      "arguments": [],
      "transaction": {
        "from": "0x56fd3f2bee130e9867942d0f463a16fbe49b8d81",
        "to": "0xa5f0ce0cd80e203161709a18378f2c850b64cc56",
        "gas": "0x3306c",
        "value": "0x0",
        "input": "0xb59589d1",
        "nonce": "0x306",
        "chainId": "0xaa044c"
      },
      "additionalContracts": [],
      "isFixedGasLimit": false
    },
    {
      "hash": "0x94dd064a01b9b7328674aa0dcf3c0f536dea6e149f4cf9c3d97c7e0448e7b2b0",
      "transactionType": "CALL",
      "contractName": null,
      "contractAddress": "0x01f9629fb13ec2f902cc27f521e5b29e880173b4",
      "function": "relay()",
      "arguments": [],
      "transaction": {
        "from": "0x56fd3f2bee130e9867942d0f463a16fbe49b8d81",
        "to": "0x01f9629fb13ec2f902cc27f521e5b29e880173b4",
        "gas": "0x3306c",
        "value": "0x0",
        "input": "0xb59589d1",
        "nonce": "0x307",
        "chainId": "0xaa044c"
      },
      "additionalContracts": [],
      "isFixedGasLimit": false
    },
    {
      "hash": "0x44080cbd02ca1ed590836f38ccf9f54f4992949b35ab9fa3b9aba3b687cfd80f",
      "transactionType": "CALL",
      "contractName": null,
      "contractAddress": "0xbea02da2fef22ad1b47d204e592a63c77bd44944",
      "function": "relay()",
      "arguments": [],
      "transaction": {
        "from": "0x56fd3f2bee130e9867942d0f463a16fbe49b8d81",
        "to": "0xbea02da2fef22ad1b47d204e592a63c77bd44944",
        "gas": "0x34763",
        "value": "0x0",
        "input": "0xb59589d1",
        "nonce": "0x308",
        "chainId": "0xaa044c"
      },
      "additionalContracts": [],
      "isFixedGasLimit": false
    },
    {
      "hash": "0x7bade2162daa010d0673f19da67990295b4288ac07a8be459caecc0788caedee",
      "transactionType": "CALL",
      "contractName": null,
      "contractAddress": "0x5dfa86d3660a63aaf274e70bf89c9087615a65c3",
      "function": "relay()",
      "arguments": [],
      "transaction": {
        "from": "0x56fd3f2bee130e9867942d0f463a16fbe49b8d81",
        "to": "0x5dfa86d3660a63aaf274e70bf89c9087615a65c3",
        "gas": "0x34763",
        "value": "0x0",
        "input": "0xb59589d1",
        "nonce": "0x309",
        "chainId": "0xaa044c"
      },
      "additionalContracts": [],
      "isFixedGasLimit": false
    },
    {
      "hash": "0x0f5019d27ef35fb236657c85b884d3a80355c74e8850e0e20cd778ab50273a49",
      "transactionType": "CALL",
      "contractName": null,
      "contractAddress": "0x41cee890564872045e770ed522e3d2bf5ff1acfd",
      "function": "relay()",
      "arguments": [],
      "transaction": {
        "from": "0x56fd3f2bee130e9867942d0f463a16fbe49b8d81",
        "to": "0x41cee890564872045e770ed522e3d2bf5ff1acfd",
        "gas": "0x34763",
        "value": "0x0",
        "input": "0xb59589d1",
        "nonce": "0x30a",
        "chainId": "0xaa044c"
      },
      "additionalContracts": [],
      "isFixedGasLimit": false
    },
    {
      "hash": "0x1b3d7e2c5326d32b60e1c984c5128d0cf73b183a765136c67032ead4b5f9babd",
      "transactionType": "CALL",
      "contractName": null,
      "contractAddress": "0x39e6ed41f651624c90778c0f785c283a124bb52a",
      "function": "relay()",
      "arguments": [],
      "transaction": {
        "from": "0x56fd3f2bee130e9867942d0f463a16fbe49b8d81",
        "to": "0x39e6ed41f651624c90778c0f785c283a124bb52a",
        "gas": "0x34763",
        "value": "0x0",
        "input": "0xb59589d1",
        "nonce": "0x30b",
        "chainId": "0xaa044c"
      },
      "additionalContracts": [],
      "isFixedGasLimit": false
    },
    {
      "hash": "0xdc15cfc36a5a04bba419e3464aa0e1bfe02ce81187c2e6ea48c5feb3d258f833",
      "transactionType": "CALL",
      "contractName": null,
      "contractAddress": "0x5eb3f5b9d4315cda410c98be788a14e0df320fb8",
      "function": "relay()",
      "arguments": [],
      "transaction": {
        "from": "0x56fd3f2bee130e9867942d0f463a16fbe49b8d81",
        "to": "0x5eb3f5b9d4315cda410c98be788a14e0df320fb8",
        "gas": "0x34763",
        "value": "0x0",
        "input": "0xb59589d1",
        "nonce": "0x30c",
        "chainId": "0xaa044c"
      },
      "additionalContracts": [],
      "isFixedGasLimit": false
    },
    {
      "hash": "0x3e9fdc6d50a83f000926c827b1ae614e94edd54d1b8fed7592a664f7ab92094e",
      "transactionType": "CALL",
      "contractName": null,
      "contractAddress": "0x5335bd8ad99c14be976f2c1eac64c3365315d88e",
      "function": "relay()",
      "arguments": [],
      "transaction": {
        "from": "0x56fd3f2bee130e9867942d0f463a16fbe49b8d81",
        "to": "0x5335bd8ad99c14be976f2c1eac64c3365315d88e",
        "gas": "0x34763",
        "value": "0x0",
        "input": "0xb59589d1",
        "nonce": "0x30d",
        "chainId": "0xaa044c"
      },
      "additionalContracts": [],
      "isFixedGasLimit": false
    },
    {
      "hash": "0xa903d3d938876563b0d6fc54f5b773ac8114e29794784bdfa0b601b8c4ec61ac",
      "transactionType": "CALL",
      "contractName": null,
      "contractAddress": "0x8700b6031a3c31edbf9a37426ea6a904303d2230",
      "function": "relay()",
      "arguments": [],
      "transaction": {
        "from": "0x56fd3f2bee130e9867942d0f463a16fbe49b8d81",
        "to": "0x8700b6031a3c31edbf9a37426ea6a904303d2230",
        "gas": "0x35f4a",
        "value": "0x0",
        "input": "0xb59589d1",
        "nonce": "0x30e",
        "chainId": "0xaa044c"
      },
      "additionalContracts": [],
      "isFixedGasLimit": false
    }
  ],
  "receipts": [
    {
      "status": "0x1",
      "cumulativeGasUsed": "0x13834",
      "logs": [],
      "logsBloom": "0x00000000000000000000000000000000000000000000000000000000000000000000000000000000000000000000000000000000000000000000000000000000000000000000000000000000000000000000000000000000000000000000000000000000000000000000000000000000000000000000000000000000000000000000000000000000000000000000000000000000000000000000000000000000000000000000000000000000000000000000000000000000000000000000000000000000000000000000000000000000000000000000000000000000000000000000000000000000000000000000000000000000000000000000000000000000",
      "type": "0x2",
      "transactionHash": "0x449ed47e4cef0020c4c1c5881b3eef337ac84273260f9fb489ffef6c61547e89",
      "transactionIndex": "0x1",
      "blockHash": "0x6fe660397de748f1a3fed2b12ac784547b726f81669cb7148430e15f3212e87b",
      "blockNumber": "0x388897",
      "gasUsed": "0x843c",
      "effectiveGasPrice": "0x5d21dba01",
      "from": "0x56fd3f2bee130e9867942d0f463a16fbe49b8d81",
      "to": "0x712959a392488f3eae92c7d2d66517fc3ec829d0",
      "contractAddress": null,
      "l1BaseFeeScalar": "0x0",
      "l1BlobBaseFee": "0x1",
      "l1BlobBaseFeeScalar": "0x0",
      "l1Fee": "0x0",
      "l1GasPrice": "0x4a261c",
      "l1GasUsed": "0x640"
    },
    {
      "status": "0x1",
      "cumulativeGasUsed": "0x1bc70",
      "logs": [],
      "logsBloom": "0x00000000000000000000000000000000000000000000000000000000000000000000000000000000000000000000000000000000000000000000000000000000000000000000000000000000000000000000000000000000000000000000000000000000000000000000000000000000000000000000000000000000000000000000000000000000000000000000000000000000000000000000000000000000000000000000000000000000000000000000000000000000000000000000000000000000000000000000000000000000000000000000000000000000000000000000000000000000000000000000000000000000000000000000000000000000",
      "type": "0x2",
      "transactionHash": "0x6c47385afc73296623317b48540bb052052566be3774faf9a3fabc104969246c",
      "transactionIndex": "0x2",
      "blockHash": "0x6fe660397de748f1a3fed2b12ac784547b726f81669cb7148430e15f3212e87b",
      "blockNumber": "0x388897",
      "gasUsed": "0x843c",
      "effectiveGasPrice": "0x5d21dba01",
      "from": "0x56fd3f2bee130e9867942d0f463a16fbe49b8d81",
      "to": "0xb130563ad59b4367de850eb71b6839eade134b05",
      "contractAddress": null,
      "l1BaseFeeScalar": "0x0",
      "l1BlobBaseFee": "0x1",
      "l1BlobBaseFeeScalar": "0x0",
      "l1Fee": "0x0",
      "l1GasPrice": "0x4a261c",
      "l1GasUsed": "0x640"
    },
    {
      "status": "0x1",
      "cumulativeGasUsed": "0x240ac",
      "logs": [],
      "logsBloom": "0x00000000000000000000000000000000000000000000000000000000000000000000000000000000000000000000000000000000000000000000000000000000000000000000000000000000000000000000000000000000000000000000000000000000000000000000000000000000000000000000000000000000000000000000000000000000000000000000000000000000000000000000000000000000000000000000000000000000000000000000000000000000000000000000000000000000000000000000000000000000000000000000000000000000000000000000000000000000000000000000000000000000000000000000000000000000",
      "type": "0x2",
      "transactionHash": "0x37fe1417dbb1c5ada32b08f6d06e2917fedec1997b9429d8acbf330d20ba6474",
      "transactionIndex": "0x3",
      "blockHash": "0x6fe660397de748f1a3fed2b12ac784547b726f81669cb7148430e15f3212e87b",
      "blockNumber": "0x388897",
      "gasUsed": "0x843c",
      "effectiveGasPrice": "0x5d21dba01",
      "from": "0x56fd3f2bee130e9867942d0f463a16fbe49b8d81",
      "to": "0xa0a403b75580072a8e486f82253a407ba9bae0cb",
      "contractAddress": null,
      "l1BaseFeeScalar": "0x0",
      "l1BlobBaseFee": "0x1",
      "l1BlobBaseFeeScalar": "0x0",
      "l1Fee": "0x0",
      "l1GasPrice": "0x4a261c",
      "l1GasUsed": "0x640"
    },
    {
      "status": "0x1",
      "cumulativeGasUsed": "0x2c4e8",
      "logs": [],
      "logsBloom": "0x00000000000000000000000000000000000000000000000000000000000000000000000000000000000000000000000000000000000000000000000000000000000000000000000000000000000000000000000000000000000000000000000000000000000000000000000000000000000000000000000000000000000000000000000000000000000000000000000000000000000000000000000000000000000000000000000000000000000000000000000000000000000000000000000000000000000000000000000000000000000000000000000000000000000000000000000000000000000000000000000000000000000000000000000000000000",
      "type": "0x2",
      "transactionHash": "0x860202240a583f3586f4619ac1cf11aef7bc2e9764f1f93c9630f63a0b6c9d01",
      "transactionIndex": "0x4",
      "blockHash": "0x6fe660397de748f1a3fed2b12ac784547b726f81669cb7148430e15f3212e87b",
      "blockNumber": "0x388897",
      "gasUsed": "0x843c",
      "effectiveGasPrice": "0x5d21dba01",
      "from": "0x56fd3f2bee130e9867942d0f463a16fbe49b8d81",
      "to": "0x5995fb71215c9ea02753092aacf47885bfa1a988",
      "contractAddress": null,
      "l1BaseFeeScalar": "0x0",
      "l1BlobBaseFee": "0x1",
      "l1BlobBaseFeeScalar": "0x0",
      "l1Fee": "0x0",
      "l1GasPrice": "0x4a261c",
      "l1GasUsed": "0x640"
    },
    {
      "status": "0x1",
      "cumulativeGasUsed": "0x34924",
      "logs": [],
      "logsBloom": "0x00000000000000000000000000000000000000000000000000000000000000000000000000000000000000000000000000000000000000000000000000000000000000000000000000000000000000000000000000000000000000000000000000000000000000000000000000000000000000000000000000000000000000000000000000000000000000000000000000000000000000000000000000000000000000000000000000000000000000000000000000000000000000000000000000000000000000000000000000000000000000000000000000000000000000000000000000000000000000000000000000000000000000000000000000000000",
      "type": "0x2",
      "transactionHash": "0xd223cda3d2afa0b95f8bbc574a6d469c75f820edad7254927bc762fcd237cc6d",
      "transactionIndex": "0x5",
      "blockHash": "0x6fe660397de748f1a3fed2b12ac784547b726f81669cb7148430e15f3212e87b",
      "blockNumber": "0x388897",
      "gasUsed": "0x843c",
      "effectiveGasPrice": "0x5d21dba01",
      "from": "0x56fd3f2bee130e9867942d0f463a16fbe49b8d81",
      "to": "0x44a7e7d4de5a4d6f5db9d174943214b926fd07d1",
      "contractAddress": null,
      "l1BaseFeeScalar": "0x0",
      "l1BlobBaseFee": "0x1",
      "l1BlobBaseFeeScalar": "0x0",
      "l1Fee": "0x0",
      "l1GasPrice": "0x4a261c",
      "l1GasUsed": "0x640"
    },
    {
      "status": "0x1",
      "cumulativeGasUsed": "0x3cd60",
      "logs": [],
      "logsBloom": "0x00000000000000000000000000000000000000000000000000000000000000000000000000000000000000000000000000000000000000000000000000000000000000000000000000000000000000000000000000000000000000000000000000000000000000000000000000000000000000000000000000000000000000000000000000000000000000000000000000000000000000000000000000000000000000000000000000000000000000000000000000000000000000000000000000000000000000000000000000000000000000000000000000000000000000000000000000000000000000000000000000000000000000000000000000000000",
      "type": "0x2",
      "transactionHash": "0xaea88f4bf0ff60f643df10ad7633d3345023a593348dbe63dc2fbc5bb6d8f8a5",
      "transactionIndex": "0x6",
      "blockHash": "0x6fe660397de748f1a3fed2b12ac784547b726f81669cb7148430e15f3212e87b",
      "blockNumber": "0x388897",
      "gasUsed": "0x843c",
      "effectiveGasPrice": "0x5d21dba01",
      "from": "0x56fd3f2bee130e9867942d0f463a16fbe49b8d81",
      "to": "0xe30f631aac9762059c67135095c7d520221a0868",
      "contractAddress": null,
      "l1BaseFeeScalar": "0x0",
      "l1BlobBaseFee": "0x1",
      "l1BlobBaseFeeScalar": "0x0",
      "l1Fee": "0x0",
      "l1GasPrice": "0x4a261c",
      "l1GasUsed": "0x640"
    },
    {
      "status": "0x1",
      "cumulativeGasUsed": "0x451c0",
      "logs": [],
      "logsBloom": "0x00000000000000000000000000000000000000000000000000000000000000000000000000000000000000000000000000000000000000000000000000000000000000000000000000000000000000000000000000000000000000000000000000000000000000000000000000000000000000000000000000000000000000000000000000000000000000000000000000000000000000000000000000000000000000000000000000000000000000000000000000000000000000000000000000000000000000000000000000000000000000000000000000000000000000000000000000000000000000000000000000000000000000000000000000000000",
      "type": "0x2",
      "transactionHash": "0xba54d20fabdf998e27c11a7e078bc3d8ac71add1dcd2f69b351d7edca4a69f2b",
      "transactionIndex": "0x7",
      "blockHash": "0x6fe660397de748f1a3fed2b12ac784547b726f81669cb7148430e15f3212e87b",
      "blockNumber": "0x388897",
      "gasUsed": "0x8460",
      "effectiveGasPrice": "0x5d21dba01",
      "from": "0x56fd3f2bee130e9867942d0f463a16fbe49b8d81",
      "to": "0xf364db584bc3b55df019044de85993c47e1b145a",
      "contractAddress": null,
      "l1BaseFeeScalar": "0x0",
      "l1BlobBaseFee": "0x1",
      "l1BlobBaseFeeScalar": "0x0",
      "l1Fee": "0x0",
      "l1GasPrice": "0x4a261c",
      "l1GasUsed": "0x640"
    },
    {
      "status": "0x1",
      "cumulativeGasUsed": "0x4cb30",
      "logs": [],
      "logsBloom": "0x00000000000000000000000000000000000000000000000000000000000000000000000000000000000000000000000000000000000000000000000000000000000000000000000000000000000000000000000000000000000000000000000000000000000000000000000000000000000000000000000000000000000000000000000000000000000000000000000000000000000000000000000000000000000000000000000000000000000000000000000000000000000000000000000000000000000000000000000000000000000000000000000000000000000000000000000000000000000000000000000000000000000000000000000000000000",
      "type": "0x2",
      "transactionHash": "0xda07e0cc02eb9d23ba24ec103ff641e232574418d3e4e4e155f54d4f068db56a",
      "transactionIndex": "0x8",
      "blockHash": "0x6fe660397de748f1a3fed2b12ac784547b726f81669cb7148430e15f3212e87b",
      "blockNumber": "0x388897",
      "gasUsed": "0x7970",
      "effectiveGasPrice": "0x5d21dba01",
      "from": "0x56fd3f2bee130e9867942d0f463a16fbe49b8d81",
      "to": "0x0d1a55b9a06fe8aa48eb87251fbd959d121ea843",
      "contractAddress": null,
      "l1BaseFeeScalar": "0x0",
      "l1BlobBaseFee": "0x1",
      "l1BlobBaseFeeScalar": "0x0",
      "l1Fee": "0x0",
      "l1GasPrice": "0x4a261c",
      "l1GasUsed": "0x640"
    },
    {
      "status": "0x1",
      "cumulativeGasUsed": "0x54f60",
      "logs": [],
      "logsBloom": "0x00000000000000000000000000000000000000000000000000000000000000000000000000000000000000000000000000000000000000000000000000000000000000000000000000000000000000000000000000000000000000000000000000000000000000000000000000000000000000000000000000000000000000000000000000000000000000000000000000000000000000000000000000000000000000000000000000000000000000000000000000000000000000000000000000000000000000000000000000000000000000000000000000000000000000000000000000000000000000000000000000000000000000000000000000000000",
      "type": "0x2",
      "transactionHash": "0x68ae1a21ac25afc0b472cba3cddbd0fcb6f08e9de30b4d973fb3699af5d1f8f8",
      "transactionIndex": "0x9",
      "blockHash": "0x6fe660397de748f1a3fed2b12ac784547b726f81669cb7148430e15f3212e87b",
      "blockNumber": "0x388897",
      "gasUsed": "0x8430",
      "effectiveGasPrice": "0x5d21dba01",
      "from": "0x56fd3f2bee130e9867942d0f463a16fbe49b8d81",
      "to": "0x7a2f69a58f0dae429cc6de1e6fcb6260041c7464",
      "contractAddress": null,
      "l1BaseFeeScalar": "0x0",
      "l1BlobBaseFee": "0x1",
      "l1BlobBaseFeeScalar": "0x0",
      "l1Fee": "0x0",
      "l1GasPrice": "0x4a261c",
      "l1GasUsed": "0x640"
    },
    {
      "status": "0x1",
      "cumulativeGasUsed": "0x5c894",
      "logs": [],
      "logsBloom": "0x00000000000000000000000000000000000000000000000000000000000000000000000000000000000000000000000000000000000000000000000000000000000000000000000000000000000000000000000000000000000000000000000000000000000000000000000000000000000000000000000000000000000000000000000000000000000000000000000000000000000000000000000000000000000000000000000000000000000000000000000000000000000000000000000000000000000000000000000000000000000000000000000000000000000000000000000000000000000000000000000000000000000000000000000000000000",
      "type": "0x2",
      "transactionHash": "0x4adcd330e66b83d5f6d4008cff9321e09ab11cb531172ac0b4a309275c2bd487",
      "transactionIndex": "0xa",
      "blockHash": "0x6fe660397de748f1a3fed2b12ac784547b726f81669cb7148430e15f3212e87b",
      "blockNumber": "0x388897",
      "gasUsed": "0x7934",
      "effectiveGasPrice": "0x5d21dba01",
      "from": "0x56fd3f2bee130e9867942d0f463a16fbe49b8d81",
      "to": "0x97fd9624af571a5291d6b5aa0f7db7de8b5e0398",
      "contractAddress": null,
      "l1BaseFeeScalar": "0x0",
      "l1BlobBaseFee": "0x1",
      "l1BlobBaseFeeScalar": "0x0",
      "l1Fee": "0x0",
      "l1GasPrice": "0x4a261c",
      "l1GasUsed": "0x640"
    },
    {
      "status": "0x1",
      "cumulativeGasUsed": "0x641d4",
      "logs": [],
      "logsBloom": "0x00000000000000000000000000000000000000000000000000000000000000000000000000000000000000000000000000000000000000000000000000000000000000000000000000000000000000000000000000000000000000000000000000000000000000000000000000000000000000000000000000000000000000000000000000000000000000000000000000000000000000000000000000000000000000000000000000000000000000000000000000000000000000000000000000000000000000000000000000000000000000000000000000000000000000000000000000000000000000000000000000000000000000000000000000000000",
      "type": "0x2",
      "transactionHash": "0x96f116ce0c303d720f09bd0f22f68e859b32eb26b3dca907360d159b67433d06",
      "transactionIndex": "0xb",
      "blockHash": "0x6fe660397de748f1a3fed2b12ac784547b726f81669cb7148430e15f3212e87b",
      "blockNumber": "0x388897",
      "gasUsed": "0x7940",
      "effectiveGasPrice": "0x5d21dba01",
      "from": "0x56fd3f2bee130e9867942d0f463a16fbe49b8d81",
      "to": "0x04a1e7bbd987a7f86ca10ea36023884e45e46bd7",
      "contractAddress": null,
      "l1BaseFeeScalar": "0x0",
      "l1BlobBaseFee": "0x1",
      "l1BlobBaseFeeScalar": "0x0",
      "l1Fee": "0x0",
      "l1GasPrice": "0x4a261c",
      "l1GasUsed": "0x640"
    },
    {
      "status": "0x1",
      "cumulativeGasUsed": "0x6c610",
      "logs": [],
      "logsBloom": "0x00000000000000000000000000000000000000000000000000000000000000000000000000000000000000000000000000000000000000000000000000000000000000000000000000000000000000000000000000000000000000000000000000000000000000000000000000000000000000000000000000000000000000000000000000000000000000000000000000000000000000000000000000000000000000000000000000000000000000000000000000000000000000000000000000000000000000000000000000000000000000000000000000000000000000000000000000000000000000000000000000000000000000000000000000000000",
      "type": "0x2",
      "transactionHash": "0xc516bf37e6bacdc27cc22f55d5aff0596e3d9c27a911647a954929876bbfe611",
      "transactionIndex": "0xc",
      "blockHash": "0x6fe660397de748f1a3fed2b12ac784547b726f81669cb7148430e15f3212e87b",
      "blockNumber": "0x388897",
      "gasUsed": "0x843c",
      "effectiveGasPrice": "0x5d21dba01",
      "from": "0x56fd3f2bee130e9867942d0f463a16fbe49b8d81",
      "to": "0x56029056ccc623115d05473cee7d1aacac830185",
      "contractAddress": null,
      "l1BaseFeeScalar": "0x0",
      "l1BlobBaseFee": "0x1",
      "l1BlobBaseFeeScalar": "0x0",
      "l1Fee": "0x0",
      "l1GasPrice": "0x4a261c",
      "l1GasUsed": "0x640"
    },
    {
      "status": "0x1",
      "cumulativeGasUsed": "0x74a40",
      "logs": [],
      "logsBloom": "0x00000000000000000000000000000000000000000000000000000000000000000000000000000000000000000000000000000000000000000000000000000000000000000000000000000000000000000000000000000000000000000000000000000000000000000000000000000000000000000000000000000000000000000000000000000000000000000000000000000000000000000000000000000000000000000000000000000000000000000000000000000000000000000000000000000000000000000000000000000000000000000000000000000000000000000000000000000000000000000000000000000000000000000000000000000000",
      "type": "0x2",
      "transactionHash": "0xd139dee37bced13a7d34686fb3b2d02fefd33a7c2e1b4765202df35a0211957f",
      "transactionIndex": "0xd",
      "blockHash": "0x6fe660397de748f1a3fed2b12ac784547b726f81669cb7148430e15f3212e87b",
      "blockNumber": "0x388897",
      "gasUsed": "0x8430",
      "effectiveGasPrice": "0x5d21dba01",
      "from": "0x56fd3f2bee130e9867942d0f463a16fbe49b8d81",
      "to": "0x1d866336d9c2f1c9737aca853347838e0a9e0559",
      "contractAddress": null,
      "l1BaseFeeScalar": "0x0",
      "l1BlobBaseFee": "0x1",
      "l1BlobBaseFeeScalar": "0x0",
      "l1Fee": "0x0",
      "l1GasPrice": "0x4a261c",
      "l1GasUsed": "0x640"
    },
    {
      "status": "0x1",
      "cumulativeGasUsed": "0x7ce7c",
      "logs": [],
      "logsBloom": "0x00000000000000000000000000000000000000000000000000000000000000000000000000000000000000000000000000000000000000000000000000000000000000000000000000000000000000000000000000000000000000000000000000000000000000000000000000000000000000000000000000000000000000000000000000000000000000000000000000000000000000000000000000000000000000000000000000000000000000000000000000000000000000000000000000000000000000000000000000000000000000000000000000000000000000000000000000000000000000000000000000000000000000000000000000000000",
      "type": "0x2",
      "transactionHash": "0xdd88c1ae0886bcf92222ad9422feb44dddac6088127a39664ef64c1d4a6c6c50",
      "transactionIndex": "0xe",
      "blockHash": "0x6fe660397de748f1a3fed2b12ac784547b726f81669cb7148430e15f3212e87b",
      "blockNumber": "0x388897",
      "gasUsed": "0x843c",
      "effectiveGasPrice": "0x5d21dba01",
      "from": "0x56fd3f2bee130e9867942d0f463a16fbe49b8d81",
      "to": "0x8c947e599bea1f0469d5e2633a6e030910336d11",
      "contractAddress": null,
      "l1BaseFeeScalar": "0x0",
      "l1BlobBaseFee": "0x1",
      "l1BlobBaseFeeScalar": "0x0",
      "l1Fee": "0x0",
      "l1GasPrice": "0x4a261c",
      "l1GasUsed": "0x640"
    },
    {
      "status": "0x1",
      "cumulativeGasUsed": "0x852b8",
      "logs": [],
      "logsBloom": "0x00000000000000000000000000000000000000000000000000000000000000000000000000000000000000000000000000000000000000000000000000000000000000000000000000000000000000000000000000000000000000000000000000000000000000000000000000000000000000000000000000000000000000000000000000000000000000000000000000000000000000000000000000000000000000000000000000000000000000000000000000000000000000000000000000000000000000000000000000000000000000000000000000000000000000000000000000000000000000000000000000000000000000000000000000000000",
      "type": "0x2",
      "transactionHash": "0xbefc4f67f27ed438d7addfa974a5532007c97a9670ecc03b9de171d4a5107c08",
      "transactionIndex": "0xf",
      "blockHash": "0x6fe660397de748f1a3fed2b12ac784547b726f81669cb7148430e15f3212e87b",
      "blockNumber": "0x388897",
      "gasUsed": "0x843c",
      "effectiveGasPrice": "0x5d21dba01",
      "from": "0x56fd3f2bee130e9867942d0f463a16fbe49b8d81",
      "to": "0xdee315fc7023de5a99fbc68a1ca6c0266a897b17",
      "contractAddress": null,
      "l1BaseFeeScalar": "0x0",
      "l1BlobBaseFee": "0x1",
      "l1BlobBaseFeeScalar": "0x0",
      "l1Fee": "0x0",
      "l1GasPrice": "0x4a261c",
      "l1GasUsed": "0x640"
    },
    {
      "status": "0x1",
      "cumulativeGasUsed": "0x8d6f4",
      "logs": [],
      "logsBloom": "0x00000000000000000000000000000000000000000000000000000000000000000000000000000000000000000000000000000000000000000000000000000000000000000000000000000000000000000000000000000000000000000000000000000000000000000000000000000000000000000000000000000000000000000000000000000000000000000000000000000000000000000000000000000000000000000000000000000000000000000000000000000000000000000000000000000000000000000000000000000000000000000000000000000000000000000000000000000000000000000000000000000000000000000000000000000000",
      "type": "0x2",
      "transactionHash": "0x9c6170ab1bd2c1a2941fdb0da5512a8ce0aebfbf8565a0204de7402aac9edd33",
      "transactionIndex": "0x10",
      "blockHash": "0x6fe660397de748f1a3fed2b12ac784547b726f81669cb7148430e15f3212e87b",
      "blockNumber": "0x388897",
      "gasUsed": "0x843c",
      "effectiveGasPrice": "0x5d21dba01",
      "from": "0x56fd3f2bee130e9867942d0f463a16fbe49b8d81",
      "to": "0x703691155cd4006ed14361023ec35599cfb33a19",
      "contractAddress": null,
      "l1BaseFeeScalar": "0x0",
      "l1BlobBaseFee": "0x1",
      "l1BlobBaseFeeScalar": "0x0",
      "l1Fee": "0x0",
      "l1GasPrice": "0x4a261c",
      "l1GasUsed": "0x640"
    },
    {
      "status": "0x1",
      "cumulativeGasUsed": "0x95b24",
      "logs": [],
      "logsBloom": "0x00000000000000000000000000000000000000000000000000000000000000000000000000000000000000000000000000000000000000000000000000000000000000000000000000000000000000000000000000000000000000000000000000000000000000000000000000000000000000000000000000000000000000000000000000000000000000000000000000000000000000000000000000000000000000000000000000000000000000000000000000000000000000000000000000000000000000000000000000000000000000000000000000000000000000000000000000000000000000000000000000000000000000000000000000000000",
      "type": "0x2",
      "transactionHash": "0x65f727f4745fe15e0c4d9351267ba294ce92ac145066d0e5130c32e772860678",
      "transactionIndex": "0x11",
      "blockHash": "0x6fe660397de748f1a3fed2b12ac784547b726f81669cb7148430e15f3212e87b",
      "blockNumber": "0x388897",
      "gasUsed": "0x8430",
      "effectiveGasPrice": "0x5d21dba01",
      "from": "0x56fd3f2bee130e9867942d0f463a16fbe49b8d81",
      "to": "0x8003d6ea2954e8fa12c420e189777b2a7d989653",
      "contractAddress": null,
      "l1BaseFeeScalar": "0x0",
      "l1BlobBaseFee": "0x1",
      "l1BlobBaseFeeScalar": "0x0",
      "l1Fee": "0x0",
      "l1GasPrice": "0x4a261c",
      "l1GasUsed": "0x640"
    },
    {
      "status": "0x1",
      "cumulativeGasUsed": "0x9d488",
      "logs": [],
      "logsBloom": "0x00000000000000000000000000000000000000000000000000000000000000000000000000000000000000000000000000000000000000000000000000000000000000000000000000000000000000000000000000000000000000000000000000000000000000000000000000000000000000000000000000000000000000000000000000000000000000000000000000000000000000000000000000000000000000000000000000000000000000000000000000000000000000000000000000000000000000000000000000000000000000000000000000000000000000000000000000000000000000000000000000000000000000000000000000000000",
      "type": "0x2",
      "transactionHash": "0x1c6067a5a5878c854374d78969a8ba4759ad345010f9c541143b0b78c0afd33f",
      "transactionIndex": "0x12",
      "blockHash": "0x6fe660397de748f1a3fed2b12ac784547b726f81669cb7148430e15f3212e87b",
      "blockNumber": "0x388897",
      "gasUsed": "0x7964",
      "effectiveGasPrice": "0x5d21dba01",
      "from": "0x56fd3f2bee130e9867942d0f463a16fbe49b8d81",
      "to": "0x5db4a1e964ce93f994ff56aaf96b39de73f073da",
      "contractAddress": null,
      "l1BaseFeeScalar": "0x0",
      "l1BlobBaseFee": "0x1",
      "l1BlobBaseFeeScalar": "0x0",
      "l1Fee": "0x0",
      "l1GasPrice": "0x4a261c",
      "l1GasUsed": "0x640"
    },
    {
      "status": "0x1",
      "cumulativeGasUsed": "0x313ac",
      "logs": [
        {
          "address": "0x691ab9aff4a36e1fcb9c2d9a366cc0e176c5e4fc",
          "topics": [
            "0x7cebb17173a9ed273d2b7538f64395c0ebf352ff743f1cf8ce66b437a6144213",
            "0x00000000000000000000000081a313ff894bfc6093d33b5514e34d7faa41b7ef",
            "0x0000000000000000000000002053c6091491a572bcd8baa96f693ca77df25ccf"
          ],
          "data": "0x0000000000000000000000000000000000000000000000000000000068b9862c00000000000000000000000000000000000000000000d3bb99c785fafb5b0000",
          "blockHash": "0x4908168cf4d611f2b808c957c902b3cd42a1c35c160b1d57339f890aec3ccd01",
          "blockNumber": "0x388898",
          "transactionHash": "0x2d58ac19980094f86724a81d28d18d08f039ead3ba3dcd2c1e6f1200c54c691e",
          "transactionIndex": "0x1",
          "logIndex": "0x0",
          "removed": false
        },
        {
          "address": "0x691ab9aff4a36e1fcb9c2d9a366cc0e176c5e4fc",
          "topics": [
            "0xa9981ebfc3b766a742486e898f54959b050a66006dbce1a4155c1f84a08bcf41",
            "0x00000000000000000000000081a313ff894bfc6093d33b5514e34d7faa41b7ef"
          ],
          "data": "0x00000000000000000000000000000000000000000000d3bb99c785fafb5b0000",
          "blockHash": "0x4908168cf4d611f2b808c957c902b3cd42a1c35c160b1d57339f890aec3ccd01",
          "blockNumber": "0x388898",
          "transactionHash": "0x2d58ac19980094f86724a81d28d18d08f039ead3ba3dcd2c1e6f1200c54c691e",
          "transactionIndex": "0x1",
          "logIndex": "0x1",
          "removed": false
        }
      ],
      "logsBloom": "0x00800000000000000000000000000000000000000040000000000000000000000000000000000000000800000000000800000000000000000000000000100000000000200000000000000000000000000000000004000000000000000000000000000000000000008000000000008000000000000000000000000000000000000000000000000000400000000000000000000002000000000000000000000000200000800000000000000008000000000000008000000000000000000000000000000000000000000000000000000000000000000000000000000000000000000000000000000000000000000000000000000000000000000000000000000000",
      "type": "0x2",
      "transactionHash": "0x2d58ac19980094f86724a81d28d18d08f039ead3ba3dcd2c1e6f1200c54c691e",
      "transactionIndex": "0x1",
      "blockHash": "0x4908168cf4d611f2b808c957c902b3cd42a1c35c160b1d57339f890aec3ccd01",
      "blockNumber": "0x388898",
      "gasUsed": "0x25fb4",
      "effectiveGasPrice": "0x5d21dba01",
      "from": "0x56fd3f2bee130e9867942d0f463a16fbe49b8d81",
      "to": "0x2053c6091491a572bcd8baa96f693ca77df25ccf",
      "contractAddress": null,
      "l1BaseFeeScalar": "0x0",
      "l1BlobBaseFee": "0x1",
      "l1BlobBaseFeeScalar": "0x0",
      "l1Fee": "0x0",
      "l1GasPrice": "0x4a261c",
      "l1GasUsed": "0x640"
    },
    {
      "status": "0x1",
      "cumulativeGasUsed": "0x57360",
      "logs": [
        {
          "address": "0x691ab9aff4a36e1fcb9c2d9a366cc0e176c5e4fc",
          "topics": [
            "0x7cebb17173a9ed273d2b7538f64395c0ebf352ff743f1cf8ce66b437a6144213",
            "0x000000000000000000000000ac414205651f4a62b614b6be9e5318a182c33eb0",
            "0x000000000000000000000000737285328116fcc9edab850d6fa1583fae1152ce"
          ],
          "data": "0x0000000000000000000000000000000000000000000000000000000068b9862c00000000000000000000000000000000000000000000d3ced8f2fce5da0b0000",
          "blockHash": "0x4908168cf4d611f2b808c957c902b3cd42a1c35c160b1d57339f890aec3ccd01",
          "blockNumber": "0x388898",
          "transactionHash": "0xa183623ab0b9cea7bb949f793699da34bcec70323328ba62c44ba7c97efe131d",
          "transactionIndex": "0x2",
          "logIndex": "0x2",
          "removed": false
        },
        {
          "address": "0x691ab9aff4a36e1fcb9c2d9a366cc0e176c5e4fc",
          "topics": [
            "0xa9981ebfc3b766a742486e898f54959b050a66006dbce1a4155c1f84a08bcf41",
            "0x000000000000000000000000ac414205651f4a62b614b6be9e5318a182c33eb0"
          ],
          "data": "0x00000000000000000000000000000000000000000000d3ced8f2fce5da0b0000",
          "blockHash": "0x4908168cf4d611f2b808c957c902b3cd42a1c35c160b1d57339f890aec3ccd01",
          "blockNumber": "0x388898",
          "transactionHash": "0xa183623ab0b9cea7bb949f793699da34bcec70323328ba62c44ba7c97efe131d",
          "transactionIndex": "0x2",
          "logIndex": "0x3",
          "removed": false
        }
      ],
      "logsBloom": "0x00800000000000000000000000000000000000000000000000000000000000000000000000000000000000000000000800800000000000000000000008100000000000000000000000000000000000000000000004000000000000400000000000000000000000000000400000008000000000000000000000000002000000000000000000000000400000000000000000000000000000000000000000000000200000800000000000000008000000000000000000000000000000000000000000000000000000000000000000000000000000000000000000000000000000000000000000000000000000000000000000000000008000000000000000000000",
      "type": "0x2",
      "transactionHash": "0xa183623ab0b9cea7bb949f793699da34bcec70323328ba62c44ba7c97efe131d",
      "transactionIndex": "0x2",
      "blockHash": "0x4908168cf4d611f2b808c957c902b3cd42a1c35c160b1d57339f890aec3ccd01",
      "blockNumber": "0x388898",
      "gasUsed": "0x25fb4",
      "effectiveGasPrice": "0x5d21dba01",
      "from": "0x56fd3f2bee130e9867942d0f463a16fbe49b8d81",
      "to": "0x737285328116fcc9edab850d6fa1583fae1152ce",
      "contractAddress": null,
      "l1BaseFeeScalar": "0x0",
      "l1BlobBaseFee": "0x1",
      "l1BlobBaseFeeScalar": "0x0",
      "l1Fee": "0x0",
      "l1GasPrice": "0x4a261c",
      "l1GasUsed": "0x640"
    },
    {
      "status": "0x1",
      "cumulativeGasUsed": "0x7f156",
      "logs": [
        {
          "address": "0x691ab9aff4a36e1fcb9c2d9a366cc0e176c5e4fc",
          "topics": [
            "0x7cebb17173a9ed273d2b7538f64395c0ebf352ff743f1cf8ce66b437a6144213",
            "0x000000000000000000000000f549d6558bc78524d4beb33cf83a26b4862b2468",
            "0x000000000000000000000000411fac2c99957651f9cc93d4852d4346f929c61e"
          ],
          "data": "0x0000000000000000000000000000000000000000000000000000000068b9862c00000000000000000000000000000000000000000000d3c21bcecceda0f0bdc0",
          "blockHash": "0x4908168cf4d611f2b808c957c902b3cd42a1c35c160b1d57339f890aec3ccd01",
          "blockNumber": "0x388898",
          "transactionHash": "0xc8af1efc8e62081a69967f57b86d5f68b153a391bc2efa60d7a52c236b3e9a83",
          "transactionIndex": "0x3",
          "logIndex": "0x4",
          "removed": false
        }
      ],
      "logsBloom": "0x00800000000000000000001000000000000000000000000000000000000000000000000000000000000000000000000800000000000000200000000000100000000000000000000000000000800000000000000000000000000000000000000000000000000000000000000000008000000000000000000000000000000000000000000000000000000000000000001000000000000000000008000000000000200000000000000000000008000000000000000000000000000000000000000000000000000000000000000000000000000000000000000000000000000000000000000000000000000000000000000000000000000000000000000000000020",
      "type": "0x2",
      "transactionHash": "0xc8af1efc8e62081a69967f57b86d5f68b153a391bc2efa60d7a52c236b3e9a83",
      "transactionIndex": "0x3",
      "blockHash": "0x4908168cf4d611f2b808c957c902b3cd42a1c35c160b1d57339f890aec3ccd01",
      "blockNumber": "0x388898",
      "gasUsed": "0x27df6",
      "effectiveGasPrice": "0x5d21dba01",
      "from": "0x56fd3f2bee130e9867942d0f463a16fbe49b8d81",
      "to": "0x411fac2c99957651f9cc93d4852d4346f929c61e",
      "contractAddress": null,
      "l1BaseFeeScalar": "0x0",
      "l1BlobBaseFee": "0x1",
      "l1BlobBaseFeeScalar": "0x0",
      "l1Fee": "0x0",
      "l1GasPrice": "0x4a261c",
      "l1GasUsed": "0x640"
    },
    {
      "status": "0x1",
      "cumulativeGasUsed": "0xa510a",
      "logs": [
        {
          "address": "0x691ab9aff4a36e1fcb9c2d9a366cc0e176c5e4fc",
          "topics": [
            "0x7cebb17173a9ed273d2b7538f64395c0ebf352ff743f1cf8ce66b437a6144213",
            "0x0000000000000000000000008081ce55dc0f6f1e45ab2828d2f7da2a01113084",
            "0x000000000000000000000000dbbe66b2ec5f1539c0c79ecf5fab12a94c1c7d7b"
          ],
          "data": "0x0000000000000000000000000000000000000000000000000000000068b9862c000000000000000000000000000000000000000000003e05fb6311d0822b0000",
          "blockHash": "0x4908168cf4d611f2b808c957c902b3cd42a1c35c160b1d57339f890aec3ccd01",
          "blockNumber": "0x388898",
          "transactionHash": "0x1fc8c82ad856b0c04bdd68cf5368571dcdc58553e231a6c0f35b7c73cfcb95c7",
          "transactionIndex": "0x4",
          "logIndex": "0x5",
          "removed": false
        },
        {
          "address": "0x691ab9aff4a36e1fcb9c2d9a366cc0e176c5e4fc",
          "topics": [
            "0xa9981ebfc3b766a742486e898f54959b050a66006dbce1a4155c1f84a08bcf41",
            "0x0000000000000000000000008081ce55dc0f6f1e45ab2828d2f7da2a01113084"
          ],
          "data": "0x000000000000000000000000000000000000000000003e05fb6311d0822b0000",
          "blockHash": "0x4908168cf4d611f2b808c957c902b3cd42a1c35c160b1d57339f890aec3ccd01",
          "blockNumber": "0x388898",
          "transactionHash": "0x1fc8c82ad856b0c04bdd68cf5368571dcdc58553e231a6c0f35b7c73cfcb95c7",
          "transactionIndex": "0x4",
          "logIndex": "0x6",
          "removed": false
        }
      ],
      "logsBloom": "0x02800000000000000000000000000000000000002000000000000000000000000000000000000000000000000000000800000000000000000000000000100000000000000000000000000000000000000000000004000000000000000000000000000000000000000000000000008000000000000080000000000000000000000000000000000000400000000000000000000000000000080000000000000000200000800000000000000008000000000000000000000000000000000000000000000000000000001000000000200000000000000000000000000000000000000000000000000000000000000000000000000000000000000000000000000000",
      "type": "0x2",
      "transactionHash": "0x1fc8c82ad856b0c04bdd68cf5368571dcdc58553e231a6c0f35b7c73cfcb95c7",
      "transactionIndex": "0x4",
      "blockHash": "0x4908168cf4d611f2b808c957c902b3cd42a1c35c160b1d57339f890aec3ccd01",
      "blockNumber": "0x388898",
      "gasUsed": "0x25fb4",
      "effectiveGasPrice": "0x5d21dba01",
      "from": "0x56fd3f2bee130e9867942d0f463a16fbe49b8d81",
      "to": "0xdbbe66b2ec5f1539c0c79ecf5fab12a94c1c7d7b",
      "contractAddress": null,
      "l1BaseFeeScalar": "0x0",
      "l1BlobBaseFee": "0x1",
      "l1BlobBaseFeeScalar": "0x0",
      "l1Fee": "0x0",
      "l1GasPrice": "0x4a261c",
      "l1GasUsed": "0x640"
    },
    {
      "status": "0x1",
      "cumulativeGasUsed": "0xcb0be",
      "logs": [
        {
          "address": "0x691ab9aff4a36e1fcb9c2d9a366cc0e176c5e4fc",
          "topics": [
            "0x7cebb17173a9ed273d2b7538f64395c0ebf352ff743f1cf8ce66b437a6144213",
            "0x000000000000000000000000ec57482aa55e3ad026c315a0e4a692b776c318ca",
            "0x0000000000000000000000003bc0add00a414bc1fe0cfb6bde62e03e01a39059"
          ],
          "data": "0x0000000000000000000000000000000000000000000000000000000068b9862c00000000000000000000000000000000000000000000f6a82be26cf41c750000",
          "blockHash": "0x4908168cf4d611f2b808c957c902b3cd42a1c35c160b1d57339f890aec3ccd01",
          "blockNumber": "0x388898",
          "transactionHash": "0x19ea33a228b88fe6fcb0088bb4b74eb88c292f1bf9abb446e82e542c4e8eceac",
          "transactionIndex": "0x5",
          "logIndex": "0x7",
          "removed": false
        },
        {
          "address": "0x691ab9aff4a36e1fcb9c2d9a366cc0e176c5e4fc",
          "topics": [
            "0xa9981ebfc3b766a742486e898f54959b050a66006dbce1a4155c1f84a08bcf41",
            "0x000000000000000000000000ec57482aa55e3ad026c315a0e4a692b776c318ca"
          ],
          "data": "0x00000000000000000000000000000000000000000000f6a82be26cf41c750000",
          "blockHash": "0x4908168cf4d611f2b808c957c902b3cd42a1c35c160b1d57339f890aec3ccd01",
          "blockNumber": "0x388898",
          "transactionHash": "0x19ea33a228b88fe6fcb0088bb4b74eb88c292f1bf9abb446e82e542c4e8eceac",
          "transactionIndex": "0x5",
          "logIndex": "0x8",
          "removed": false
        }
      ],
      "logsBloom": "0x00800000000000000000000000000000000000000000000000000000000000000000000000000000000000000000000800000000000000000000800000100000000000001000000000000000000000000000000004000000000000000000000400000000000000000000000000008000000000000000000000000000000000000200000000000000400000000000000000000400000000000000000000000000200000800000000000000008000000000000000000000000000000000000000000000000000000000000000000000000000000000000000020000000000000000000000000000000000000000000000000000000000000000000000000000000",
      "type": "0x2",
      "transactionHash": "0x19ea33a228b88fe6fcb0088bb4b74eb88c292f1bf9abb446e82e542c4e8eceac",
      "transactionIndex": "0x5",
      "blockHash": "0x4908168cf4d611f2b808c957c902b3cd42a1c35c160b1d57339f890aec3ccd01",
      "blockNumber": "0x388898",
      "gasUsed": "0x25fb4",
      "effectiveGasPrice": "0x5d21dba01",
      "from": "0x56fd3f2bee130e9867942d0f463a16fbe49b8d81",
      "to": "0x3bc0add00a414bc1fe0cfb6bde62e03e01a39059",
      "contractAddress": null,
      "l1BaseFeeScalar": "0x0",
      "l1BlobBaseFee": "0x1",
      "l1BlobBaseFeeScalar": "0x0",
      "l1Fee": "0x0",
      "l1GasPrice": "0x4a261c",
      "l1GasUsed": "0x640"
    },
    {
      "status": "0x1",
      "cumulativeGasUsed": "0xf1072",
      "logs": [
        {
          "address": "0x691ab9aff4a36e1fcb9c2d9a366cc0e176c5e4fc",
          "topics": [
            "0x7cebb17173a9ed273d2b7538f64395c0ebf352ff743f1cf8ce66b437a6144213",
            "0x000000000000000000000000669bcf7bdb701e3b15799d2732c0518cf3b65507",
            "0x000000000000000000000000f4ed3b0f01cf978a56fcaca96e4537c60542edd5"
          ],
          "data": "0x0000000000000000000000000000000000000000000000000000000068b9862c0000000000000000000000000000000000000000000026cc694d7e645e510000",
          "blockHash": "0x4908168cf4d611f2b808c957c902b3cd42a1c35c160b1d57339f890aec3ccd01",
          "blockNumber": "0x388898",
          "transactionHash": "0x4de1ac259e09bb0b66050aa43df8428df3aa9bffe3432d8dbf5447e669c2d5f1",
          "transactionIndex": "0x6",
          "logIndex": "0x9",
          "removed": false
        },
        {
          "address": "0x691ab9aff4a36e1fcb9c2d9a366cc0e176c5e4fc",
          "topics": [
            "0xa9981ebfc3b766a742486e898f54959b050a66006dbce1a4155c1f84a08bcf41",
            "0x000000000000000000000000669bcf7bdb701e3b15799d2732c0518cf3b65507"
          ],
          "data": "0x0000000000000000000000000000000000000000000026cc694d7e645e510000",
          "blockHash": "0x4908168cf4d611f2b808c957c902b3cd42a1c35c160b1d57339f890aec3ccd01",
          "blockNumber": "0x388898",
          "transactionHash": "0x4de1ac259e09bb0b66050aa43df8428df3aa9bffe3432d8dbf5447e669c2d5f1",
          "transactionIndex": "0x6",
          "logIndex": "0xa",
          "removed": false
        }
      ],
      "logsBloom": "0x00800000000000000000000000000000000000000000000000000000000000000000000000000000000000000000000800000000000000000000000000100004000000000000000000000000000000000000000004000000000000000000000000000000000000000000000000008000000000000000000800040000000000000000000000000000400000000000000000000000000000000000000000000000200000800000000000000008000000040000000000000000000000000000000000000000000000000400000000000000000000000000000000000000000000000000000000000000000000000000000000000000000000000800000000000000",
      "type": "0x2",
      "transactionHash": "0x4de1ac259e09bb0b66050aa43df8428df3aa9bffe3432d8dbf5447e669c2d5f1",
      "transactionIndex": "0x6",
      "blockHash": "0x4908168cf4d611f2b808c957c902b3cd42a1c35c160b1d57339f890aec3ccd01",
      "blockNumber": "0x388898",
      "gasUsed": "0x25fb4",
      "effectiveGasPrice": "0x5d21dba01",
      "from": "0x56fd3f2bee130e9867942d0f463a16fbe49b8d81",
      "to": "0xf4ed3b0f01cf978a56fcaca96e4537c60542edd5",
      "contractAddress": null,
      "l1BaseFeeScalar": "0x0",
      "l1BlobBaseFee": "0x1",
      "l1BlobBaseFeeScalar": "0x0",
      "l1Fee": "0x0",
      "l1GasPrice": "0x4a261c",
      "l1GasUsed": "0x640"
    },
    {
      "status": "0x1",
      "cumulativeGasUsed": "0x116f5b",
      "logs": [
        {
          "address": "0x691ab9aff4a36e1fcb9c2d9a366cc0e176c5e4fc",
          "topics": [
            "0x7cebb17173a9ed273d2b7538f64395c0ebf352ff743f1cf8ce66b437a6144213",
            "0x000000000000000000000000bb792783141ac5f51eed9c922acf86d21a059ca8",
            "0x000000000000000000000000f764861a23096bf289232300b51f202dd902e04d"
          ],
          "data": "0x0000000000000000000000000000000000000000000000000000000068b9862c0000000000000000000000000000000000000000000000604919562291d51ac0",
          "blockHash": "0x4908168cf4d611f2b808c957c902b3cd42a1c35c160b1d57339f890aec3ccd01",
          "blockNumber": "0x388898",
          "transactionHash": "0x4665de39cd2393575599bf746afc28af34308751f7fbc752120d6b28cafec6e4",
          "transactionIndex": "0x7",
          "logIndex": "0xb",
          "removed": false
        },
        {
          "address": "0x691ab9aff4a36e1fcb9c2d9a366cc0e176c5e4fc",
          "topics": [
            "0xa9981ebfc3b766a742486e898f54959b050a66006dbce1a4155c1f84a08bcf41",
            "0x000000000000000000000000bb792783141ac5f51eed9c922acf86d21a059ca8"
          ],
          "data": "0x0000000000000000000000000000000000000000000000604919562291d51ac0",
          "blockHash": "0x4908168cf4d611f2b808c957c902b3cd42a1c35c160b1d57339f890aec3ccd01",
          "blockNumber": "0x388898",
          "transactionHash": "0x4665de39cd2393575599bf746afc28af34308751f7fbc752120d6b28cafec6e4",
          "transactionIndex": "0x7",
          "logIndex": "0xc",
          "removed": false
        }
      ],
      "logsBloom": "0x00800008000000000000000000000000000000000010000000000000000000000000000000000000000000000000000800000000000000000000000000100000000000000000000000000000000000000000000004800000000000000000000000000000000000000000000000008000000000000000000000000000000000000000000000000000400000000000000000100000000000000000000000000000200000800000000000000008000000000000000000000000000000000000000000000000000000000000000000000000000000000000000000000000000000000000000000000004000000000000000000000000000000000000040000000000",
      "type": "0x2",
      "transactionHash": "0x4665de39cd2393575599bf746afc28af34308751f7fbc752120d6b28cafec6e4",
      "transactionIndex": "0x7",
      "blockHash": "0x4908168cf4d611f2b808c957c902b3cd42a1c35c160b1d57339f890aec3ccd01",
      "blockNumber": "0x388898",
      "gasUsed": "0x25ee9",
      "effectiveGasPrice": "0x5d21dba01",
      "from": "0x56fd3f2bee130e9867942d0f463a16fbe49b8d81",
      "to": "0xf764861a23096bf289232300b51f202dd902e04d",
      "contractAddress": null,
      "l1BaseFeeScalar": "0x0",
      "l1BlobBaseFee": "0x1",
      "l1BlobBaseFeeScalar": "0x0",
      "l1Fee": "0x0",
      "l1GasPrice": "0x4a261c",
      "l1GasUsed": "0x640"
    },
    {
      "status": "0x1",
      "cumulativeGasUsed": "0x13bda4",
      "logs": [
        {
          "address": "0x691ab9aff4a36e1fcb9c2d9a366cc0e176c5e4fc",
          "topics": [
            "0x7cebb17173a9ed273d2b7538f64395c0ebf352ff743f1cf8ce66b437a6144213",
            "0x000000000000000000000000ef40371a602409f86f9ac4e37580c59dee61199f",
            "0x000000000000000000000000cc08331daa33ca9a97f3feb2b73d9f393eb921c1"
          ],
          "data": "0x0000000000000000000000000000000000000000000000000000000068b9862c0000000000000000000000000000000000000000000001a352bfefaf251e2140",
          "blockHash": "0x4908168cf4d611f2b808c957c902b3cd42a1c35c160b1d57339f890aec3ccd01",
          "blockNumber": "0x388898",
          "transactionHash": "0x5e15793af3f513e6e9dc82e157878afd1ade2986788ae2b41ac794a65c4c67b6",
          "transactionIndex": "0x8",
          "logIndex": "0xd",
          "removed": false
        }
      ],
      "logsBloom": "0x00800000000000000000000000000000000000000000000000000000000000000000000000000000000000000000000800000000000000000000100000100000000000000000000000000000000000000000000000000000000000000000000000000000000000000000000000008000000000000000000000000000000000000000000000000000000000000000000000000000000000000000000000000000200000000000000000000008000000000000000000000000000000000000000000000000000000000020400000000000000000000000000000000000000000000000000000000000000000000000000000000000000000001000010004000000",
      "type": "0x2",
      "transactionHash": "0x5e15793af3f513e6e9dc82e157878afd1ade2986788ae2b41ac794a65c4c67b6",
      "transactionIndex": "0x8",
      "blockHash": "0x4908168cf4d611f2b808c957c902b3cd42a1c35c160b1d57339f890aec3ccd01",
      "blockNumber": "0x388898",
      "gasUsed": "0x24e49",
      "effectiveGasPrice": "0x5d21dba01",
      "from": "0x56fd3f2bee130e9867942d0f463a16fbe49b8d81",
      "to": "0xcc08331daa33ca9a97f3feb2b73d9f393eb921c1",
      "contractAddress": null,
      "l1BaseFeeScalar": "0x0",
      "l1BlobBaseFee": "0x1",
      "l1BlobBaseFeeScalar": "0x0",
      "l1Fee": "0x0",
      "l1GasPrice": "0x4a261c",
      "l1GasUsed": "0x640"
    },
    {
      "status": "0x1",
      "cumulativeGasUsed": "0x161d58",
      "logs": [
        {
          "address": "0x691ab9aff4a36e1fcb9c2d9a366cc0e176c5e4fc",
          "topics": [
            "0x7cebb17173a9ed273d2b7538f64395c0ebf352ff743f1cf8ce66b437a6144213",
            "0x000000000000000000000000aa04d30cced09ae17815f88d1bcae69a49fb160f",
            "0x0000000000000000000000008b74bca4c87207380292f0844b1c0abe2ef60c54"
          ],
          "data": "0x0000000000000000000000000000000000000000000000000000000068b9862c0000000000000000000000000000000000000000000003b54e44db911a780000",
          "blockHash": "0x4908168cf4d611f2b808c957c902b3cd42a1c35c160b1d57339f890aec3ccd01",
          "blockNumber": "0x388898",
          "transactionHash": "0x4b8f4146c777f7e5ee6ae96bb98b1b06a6381b5cd6828ed5f7d67f8f062beb32",
          "transactionIndex": "0x9",
          "logIndex": "0xe",
          "removed": false
        },
        {
          "address": "0x691ab9aff4a36e1fcb9c2d9a366cc0e176c5e4fc",
          "topics": [
            "0xa9981ebfc3b766a742486e898f54959b050a66006dbce1a4155c1f84a08bcf41",
            "0x000000000000000000000000aa04d30cced09ae17815f88d1bcae69a49fb160f"
          ],
          "data": "0x0000000000000000000000000000000000000000000003b54e44db911a780000",
          "blockHash": "0x4908168cf4d611f2b808c957c902b3cd42a1c35c160b1d57339f890aec3ccd01",
          "blockNumber": "0x388898",
          "transactionHash": "0x4b8f4146c777f7e5ee6ae96bb98b1b06a6381b5cd6828ed5f7d67f8f062beb32",
          "transactionIndex": "0x9",
          "logIndex": "0xf",
          "removed": false
        }
      ],
      "logsBloom": "0x00800000000000000000000000000000000000000000000000000000000000000000000001000000800000000000000800000000000000000000000000100000000000000000000000000000000000000000000004000000000000000000000000000000000000000000000000008000000000000000000000000000000000000000000000000000400000000000000000000000000000000000000000000000200000800000000000000008000000000200000000000000000000000000000000000000080008000000000000000000000000000000001000000000000000000000000000000000000000000000000000000000000000000000000000000000",
      "type": "0x2",
      "transactionHash": "0x4b8f4146c777f7e5ee6ae96bb98b1b06a6381b5cd6828ed5f7d67f8f062beb32",
      "transactionIndex": "0x9",
      "blockHash": "0x4908168cf4d611f2b808c957c902b3cd42a1c35c160b1d57339f890aec3ccd01",
      "blockNumber": "0x388898",
      "gasUsed": "0x25fb4",
      "effectiveGasPrice": "0x5d21dba01",
      "from": "0x56fd3f2bee130e9867942d0f463a16fbe49b8d81",
      "to": "0x8b74bca4c87207380292f0844b1c0abe2ef60c54",
      "contractAddress": null,
      "l1BaseFeeScalar": "0x0",
      "l1BlobBaseFee": "0x1",
      "l1BlobBaseFeeScalar": "0x0",
      "l1Fee": "0x0",
      "l1GasPrice": "0x4a261c",
      "l1GasUsed": "0x640"
    },
    {
      "status": "0x1",
      "cumulativeGasUsed": "0x186c6c",
      "logs": [
        {
          "address": "0x691ab9aff4a36e1fcb9c2d9a366cc0e176c5e4fc",
          "topics": [
            "0x7cebb17173a9ed273d2b7538f64395c0ebf352ff743f1cf8ce66b437a6144213",
            "0x000000000000000000000000f7b436583e011794293a04faa440816f3354501f",
            "0x000000000000000000000000a5f0ce0cd80e203161709a18378f2c850b64cc56"
          ],
          "data": "0x0000000000000000000000000000000000000000000000000000000068b9862c00000000000000000000000000000000000000000000000d89fa3dc48dcf0000",
          "blockHash": "0x4908168cf4d611f2b808c957c902b3cd42a1c35c160b1d57339f890aec3ccd01",
          "blockNumber": "0x388898",
          "transactionHash": "0x4eedb42bb5f09231bc1ef5a57588e7952ebf32ad300fcfcc71af1915c0aabf99",
          "transactionIndex": "0xa",
          "logIndex": "0x10",
          "removed": false
        }
      ],
      "logsBloom": "0x00800000000000000000000000000000000000000000000000000000000000000000000000400000000000000000000800000000000000000000000000100000000000000000000000001002000000000000000000000000000000000000000000000000000000000000000000008000000000000000000000000000000000000000000000000000000000000000000000000000000000000000000004000000200000000000000000000008000000000000000000000000000000000000000000000000000000000000000000000000000000000000000000000000000000010000000000000000000000000000000001000000000000000000000000000000",
      "type": "0x2",
      "transactionHash": "0x4eedb42bb5f09231bc1ef5a57588e7952ebf32ad300fcfcc71af1915c0aabf99",
      "transactionIndex": "0xa",
      "blockHash": "0x4908168cf4d611f2b808c957c902b3cd42a1c35c160b1d57339f890aec3ccd01",
      "blockNumber": "0x388898",
      "gasUsed": "0x24f14",
      "effectiveGasPrice": "0x5d21dba01",
      "from": "0x56fd3f2bee130e9867942d0f463a16fbe49b8d81",
      "to": "0xa5f0ce0cd80e203161709a18378f2c850b64cc56",
      "contractAddress": null,
      "l1BaseFeeScalar": "0x0",
      "l1BlobBaseFee": "0x1",
      "l1BlobBaseFeeScalar": "0x0",
      "l1Fee": "0x0",
      "l1GasPrice": "0x4a261c",
      "l1GasUsed": "0x640"
    },
    {
      "status": "0x1",
      "cumulativeGasUsed": "0x1abb80",
      "logs": [
        {
          "address": "0x691ab9aff4a36e1fcb9c2d9a366cc0e176c5e4fc",
          "topics": [
            "0x7cebb17173a9ed273d2b7538f64395c0ebf352ff743f1cf8ce66b437a6144213",
            "0x000000000000000000000000812a10b8744a9ad8637e819899d8c33454fe8d20",
            "0x00000000000000000000000001f9629fb13ec2f902cc27f521e5b29e880173b4"
          ],
          "data": "0x0000000000000000000000000000000000000000000000000000000068b9862c0000000000000000000000000000000000000000000011913bd6f2af56fc0000",
          "blockHash": "0x4908168cf4d611f2b808c957c902b3cd42a1c35c160b1d57339f890aec3ccd01",
          "blockNumber": "0x388898",
          "transactionHash": "0x94dd064a01b9b7328674aa0dcf3c0f536dea6e149f4cf9c3d97c7e0448e7b2b0",
          "transactionIndex": "0xb",
          "logIndex": "0x11",
          "removed": false
        }
      ],
      "logsBloom": "0x00800000000000000000000000000000100000000000002000000000000100000000000000000000000000000000000800000000002000000000000000100000000000000000000000000000000000000000000000000000000000000000000000000000000000000000000000008000000000000000000000000000000000000000000000000000000000000000000000000000000000000000000000000000200000000000000000000008000000000000080000000000000000000000000000000000000000000000000000000000000000000000000000000000000000000000000000000000000000000000000000000000000001000000000000000000",
      "type": "0x2",
      "transactionHash": "0x94dd064a01b9b7328674aa0dcf3c0f536dea6e149f4cf9c3d97c7e0448e7b2b0",
      "transactionIndex": "0xb",
      "blockHash": "0x4908168cf4d611f2b808c957c902b3cd42a1c35c160b1d57339f890aec3ccd01",
      "blockNumber": "0x388898",
      "gasUsed": "0x24f14",
      "effectiveGasPrice": "0x5d21dba01",
      "from": "0x56fd3f2bee130e9867942d0f463a16fbe49b8d81",
      "to": "0x01f9629fb13ec2f902cc27f521e5b29e880173b4",
      "contractAddress": null,
      "l1BaseFeeScalar": "0x0",
      "l1BlobBaseFee": "0x1",
      "l1BlobBaseFeeScalar": "0x0",
      "l1Fee": "0x0",
      "l1GasPrice": "0x4a261c",
      "l1GasUsed": "0x640"
    },
    {
      "status": "0x1",
      "cumulativeGasUsed": "0x1d1b34",
      "logs": [
        {
          "address": "0x691ab9aff4a36e1fcb9c2d9a366cc0e176c5e4fc",
          "topics": [
            "0x7cebb17173a9ed273d2b7538f64395c0ebf352ff743f1cf8ce66b437a6144213",
            "0x000000000000000000000000ea4103a6a122fbe2cdb07a80d4d293be07bb29fa",
            "0x000000000000000000000000bea02da2fef22ad1b47d204e592a63c77bd44944"
          ],
          "data": "0x0000000000000000000000000000000000000000000000000000000068b9862c000000000000000000000000000000000000000000011c85c9411c244f900000",
          "blockHash": "0x4908168cf4d611f2b808c957c902b3cd42a1c35c160b1d57339f890aec3ccd01",
          "blockNumber": "0x388898",
          "transactionHash": "0x44080cbd02ca1ed590836f38ccf9f54f4992949b35ab9fa3b9aba3b687cfd80f",
          "transactionIndex": "0xc",
          "logIndex": "0x12",
          "removed": false
        },
        {
          "address": "0x691ab9aff4a36e1fcb9c2d9a366cc0e176c5e4fc",
          "topics": [
            "0xa9981ebfc3b766a742486e898f54959b050a66006dbce1a4155c1f84a08bcf41",
            "0x000000000000000000000000ea4103a6a122fbe2cdb07a80d4d293be07bb29fa"
          ],
          "data": "0x000000000000000000000000000000000000000000011c85c9411c244f900000",
          "blockHash": "0x4908168cf4d611f2b808c957c902b3cd42a1c35c160b1d57339f890aec3ccd01",
          "blockNumber": "0x388898",
          "transactionHash": "0x44080cbd02ca1ed590836f38ccf9f54f4992949b35ab9fa3b9aba3b687cfd80f",
          "transactionIndex": "0xc",
          "logIndex": "0x13",
          "removed": false
        }
      ],
      "logsBloom": "0x00800000000000000000000000000000000000000000000000000000000000000000000000000000000000000000000800000000000000000000000000100080000000000000000000000008000000000000000004000000000000000000000800000000000000000040000000008000000000000000000000000000000000000000000010000000400000000000000000000000000000000000000000000000200000800000000000000008000000000000000000000000000000000000000000000000000000000000000000000002000000000000000000000000000000000000000000000000000000000000000000000000000000000000000000000000",
      "type": "0x2",
      "transactionHash": "0x44080cbd02ca1ed590836f38ccf9f54f4992949b35ab9fa3b9aba3b687cfd80f",
      "transactionIndex": "0xc",
      "blockHash": "0x4908168cf4d611f2b808c957c902b3cd42a1c35c160b1d57339f890aec3ccd01",
      "blockNumber": "0x388898",
      "gasUsed": "0x25fb4",
      "effectiveGasPrice": "0x5d21dba01",
      "from": "0x56fd3f2bee130e9867942d0f463a16fbe49b8d81",
      "to": "0xbea02da2fef22ad1b47d204e592a63c77bd44944",
      "contractAddress": null,
      "l1BaseFeeScalar": "0x0",
      "l1BlobBaseFee": "0x1",
      "l1BlobBaseFeeScalar": "0x0",
      "l1Fee": "0x0",
      "l1GasPrice": "0x4a261c",
      "l1GasUsed": "0x640"
    },
    {
      "status": "0x1",
      "cumulativeGasUsed": "0x1f7ae8",
      "logs": [
        {
          "address": "0x691ab9aff4a36e1fcb9c2d9a366cc0e176c5e4fc",
          "topics": [
            "0x7cebb17173a9ed273d2b7538f64395c0ebf352ff743f1cf8ce66b437a6144213",
            "0x0000000000000000000000006c4a6765bcfc7e7fc5b01eefe931885a79dde791",
            "0x0000000000000000000000005dfa86d3660a63aaf274e70bf89c9087615a65c3"
          ],
          "data": "0x0000000000000000000000000000000000000000000000000000000068b9862c000000000000000000000000000000000000000000000be8a9a498d5f46e0000",
          "blockHash": "0x4908168cf4d611f2b808c957c902b3cd42a1c35c160b1d57339f890aec3ccd01",
          "blockNumber": "0x388898",
          "transactionHash": "0x7bade2162daa010d0673f19da67990295b4288ac07a8be459caecc0788caedee",
          "transactionIndex": "0xd",
          "logIndex": "0x14",
          "removed": false
        },
        {
          "address": "0x691ab9aff4a36e1fcb9c2d9a366cc0e176c5e4fc",
          "topics": [
            "0xa9981ebfc3b766a742486e898f54959b050a66006dbce1a4155c1f84a08bcf41",
            "0x0000000000000000000000006c4a6765bcfc7e7fc5b01eefe931885a79dde791"
          ],
          "data": "0x000000000000000000000000000000000000000000000be8a9a498d5f46e0000",
          "blockHash": "0x4908168cf4d611f2b808c957c902b3cd42a1c35c160b1d57339f890aec3ccd01",
          "blockNumber": "0x388898",
          "transactionHash": "0x7bade2162daa010d0673f19da67990295b4288ac07a8be459caecc0788caedee",
          "transactionIndex": "0xd",
          "logIndex": "0x15",
          "removed": false
        }
      ],
      "logsBloom": "0x00800000000000000000000000000000000000000000000000000000000000000040000000000000000000000000000800000000000000000000000000100000000000000000000000000000000000000000000004000000000000000000000200000000000020000000000000008000000000000000000000000040000000000000000000000000400000000000000000000000000000000000000000000000200000800000000000000008000000000000000000000000000000000000000000000000000000000000000000000000000000000000000000000000000000000000000000000000000000000000000000000000020000000000000000200000",
      "type": "0x2",
      "transactionHash": "0x7bade2162daa010d0673f19da67990295b4288ac07a8be459caecc0788caedee",
      "transactionIndex": "0xd",
      "blockHash": "0x4908168cf4d611f2b808c957c902b3cd42a1c35c160b1d57339f890aec3ccd01",
      "blockNumber": "0x388898",
      "gasUsed": "0x25fb4",
      "effectiveGasPrice": "0x5d21dba01",
      "from": "0x56fd3f2bee130e9867942d0f463a16fbe49b8d81",
      "to": "0x5dfa86d3660a63aaf274e70bf89c9087615a65c3",
      "contractAddress": null,
      "l1BaseFeeScalar": "0x0",
      "l1BlobBaseFee": "0x1",
      "l1BlobBaseFeeScalar": "0x0",
      "l1Fee": "0x0",
      "l1GasPrice": "0x4a261c",
      "l1GasUsed": "0x640"
    },
    {
      "status": "0x1",
      "cumulativeGasUsed": "0x21da9c",
      "logs": [
        {
          "address": "0x691ab9aff4a36e1fcb9c2d9a366cc0e176c5e4fc",
          "topics": [
            "0x7cebb17173a9ed273d2b7538f64395c0ebf352ff743f1cf8ce66b437a6144213",
            "0x00000000000000000000000002996d13041557032ffb3e910966f9ea784dfec4",
            "0x00000000000000000000000041cee890564872045e770ed522e3d2bf5ff1acfd"
          ],
          "data": "0x0000000000000000000000000000000000000000000000000000000068b9862c00000000000000000000000000000000000000000000993527d6b8d50cb60000",
          "blockHash": "0x4908168cf4d611f2b808c957c902b3cd42a1c35c160b1d57339f890aec3ccd01",
          "blockNumber": "0x388898",
          "transactionHash": "0x0f5019d27ef35fb236657c85b884d3a80355c74e8850e0e20cd778ab50273a49",
          "transactionIndex": "0xe",
          "logIndex": "0x16",
          "removed": false
        },
        {
          "address": "0x691ab9aff4a36e1fcb9c2d9a366cc0e176c5e4fc",
          "topics": [
            "0xa9981ebfc3b766a742486e898f54959b050a66006dbce1a4155c1f84a08bcf41",
            "0x00000000000000000000000002996d13041557032ffb3e910966f9ea784dfec4"
          ],
          "data": "0x00000000000000000000000000000000000000000000993527d6b8d50cb60000",
          "blockHash": "0x4908168cf4d611f2b808c957c902b3cd42a1c35c160b1d57339f890aec3ccd01",
          "blockNumber": "0x388898",
          "transactionHash": "0x0f5019d27ef35fb236657c85b884d3a80355c74e8850e0e20cd778ab50273a49",
          "transactionIndex": "0xe",
          "logIndex": "0x17",
          "removed": false
        }
      ],
      "logsBloom": "0x00800000000000000000000000000000000000000000000000000000400000000000000000000000000000000000000800000000000000000000000000100000000000000000000000000000000000000000000004000000000000000000000000000000000001000000000000008000000010000000000000040000000000000000000000000000400000000000000000000000000000000000000000000000200000a00000000000000008000000000000000000000000000000000000000000000000000000000000000000000000000000000000000000000000000000000000000000000000000000000000008000000000000000000000000000000000",
      "type": "0x2",
      "transactionHash": "0x0f5019d27ef35fb236657c85b884d3a80355c74e8850e0e20cd778ab50273a49",
      "transactionIndex": "0xe",
      "blockHash": "0x4908168cf4d611f2b808c957c902b3cd42a1c35c160b1d57339f890aec3ccd01",
      "blockNumber": "0x388898",
      "gasUsed": "0x25fb4",
      "effectiveGasPrice": "0x5d21dba01",
      "from": "0x56fd3f2bee130e9867942d0f463a16fbe49b8d81",
      "to": "0x41cee890564872045e770ed522e3d2bf5ff1acfd",
      "contractAddress": null,
      "l1BaseFeeScalar": "0x0",
      "l1BlobBaseFee": "0x1",
      "l1BlobBaseFeeScalar": "0x0",
      "l1Fee": "0x0",
      "l1GasPrice": "0x4a261c",
      "l1GasUsed": "0x640"
    },
    {
      "status": "0x1",
      "cumulativeGasUsed": "0x243a50",
      "logs": [
        {
          "address": "0x691ab9aff4a36e1fcb9c2d9a366cc0e176c5e4fc",
          "topics": [
            "0x7cebb17173a9ed273d2b7538f64395c0ebf352ff743f1cf8ce66b437a6144213",
            "0x0000000000000000000000005c0c9efb14a767ce50a687ac4658cce705407380",
            "0x00000000000000000000000039e6ed41f651624c90778c0f785c283a124bb52a"
          ],
          "data": "0x0000000000000000000000000000000000000000000000000000000068b9862c000000000000000000000000000000000000000000008a0145179c6f60380000",
          "blockHash": "0x4908168cf4d611f2b808c957c902b3cd42a1c35c160b1d57339f890aec3ccd01",
          "blockNumber": "0x388898",
          "transactionHash": "0x1b3d7e2c5326d32b60e1c984c5128d0cf73b183a765136c67032ead4b5f9babd",
          "transactionIndex": "0xf",
          "logIndex": "0x18",
          "removed": false
        },
        {
          "address": "0x691ab9aff4a36e1fcb9c2d9a366cc0e176c5e4fc",
          "topics": [
            "0xa9981ebfc3b766a742486e898f54959b050a66006dbce1a4155c1f84a08bcf41",
            "0x0000000000000000000000005c0c9efb14a767ce50a687ac4658cce705407380"
          ],
          "data": "0x000000000000000000000000000000000000000000008a0145179c6f60380000",
          "blockHash": "0x4908168cf4d611f2b808c957c902b3cd42a1c35c160b1d57339f890aec3ccd01",
          "blockNumber": "0x388898",
          "transactionHash": "0x1b3d7e2c5326d32b60e1c984c5128d0cf73b183a765136c67032ead4b5f9babd",
          "transactionIndex": "0xf",
          "logIndex": "0x19",
          "removed": false
        }
      ],
      "logsBloom": "0x00800000000000000000000000000000000400000000000000000000000000000000000000000000000000020000000800000000000000000000000000100000000000000000000000000000000000000000000004000000000000000000000000000000000000000000000000008000000000000000000000000000000000000000000000000000400000000000000000000000000000000000000000000000200000800000000000000008000000000000000100000000000000000000000000000001000000000000002000000000000000000000000000000000000000000000000000000000000000000000000000000000000000000000001000000000",
      "type": "0x2",
      "transactionHash": "0x1b3d7e2c5326d32b60e1c984c5128d0cf73b183a765136c67032ead4b5f9babd",
      "transactionIndex": "0xf",
      "blockHash": "0x4908168cf4d611f2b808c957c902b3cd42a1c35c160b1d57339f890aec3ccd01",
      "blockNumber": "0x388898",
      "gasUsed": "0x25fb4",
      "effectiveGasPrice": "0x5d21dba01",
      "from": "0x56fd3f2bee130e9867942d0f463a16fbe49b8d81",
      "to": "0x39e6ed41f651624c90778c0f785c283a124bb52a",
      "contractAddress": null,
      "l1BaseFeeScalar": "0x0",
      "l1BlobBaseFee": "0x1",
      "l1BlobBaseFeeScalar": "0x0",
      "l1Fee": "0x0",
      "l1GasPrice": "0x4a261c",
      "l1GasUsed": "0x640"
    },
    {
      "status": "0x1",
      "cumulativeGasUsed": "0x269a04",
      "logs": [
        {
          "address": "0x691ab9aff4a36e1fcb9c2d9a366cc0e176c5e4fc",
          "topics": [
            "0x7cebb17173a9ed273d2b7538f64395c0ebf352ff743f1cf8ce66b437a6144213",
            "0x0000000000000000000000002ee56be22d6af8c1b0ac97149b6f42d3b0bfb8c2",
            "0x0000000000000000000000005eb3f5b9d4315cda410c98be788a14e0df320fb8"
          ],
          "data": "0x0000000000000000000000000000000000000000000000000000000068b9862c0000000000000000000000000000000000000000000106f514aaaa8022b00000",
          "blockHash": "0x4908168cf4d611f2b808c957c902b3cd42a1c35c160b1d57339f890aec3ccd01",
          "blockNumber": "0x388898",
          "transactionHash": "0xdc15cfc36a5a04bba419e3464aa0e1bfe02ce81187c2e6ea48c5feb3d258f833",
          "transactionIndex": "0x10",
          "logIndex": "0x1a",
          "removed": false
        },
        {
          "address": "0x691ab9aff4a36e1fcb9c2d9a366cc0e176c5e4fc",
          "topics": [
            "0xa9981ebfc3b766a742486e898f54959b050a66006dbce1a4155c1f84a08bcf41",
            "0x0000000000000000000000002ee56be22d6af8c1b0ac97149b6f42d3b0bfb8c2"
          ],
          "data": "0x0000000000000000000000000000000000000000000106f514aaaa8022b00000",
          "blockHash": "0x4908168cf4d611f2b808c957c902b3cd42a1c35c160b1d57339f890aec3ccd01",
          "blockNumber": "0x388898",
          "transactionHash": "0xdc15cfc36a5a04bba419e3464aa0e1bfe02ce81187c2e6ea48c5feb3d258f833",
          "transactionIndex": "0x10",
          "logIndex": "0x1b",
          "removed": false
        }
      ],
      "logsBloom": "0x00800000000000000000000000000000000000000000000000000000000000000000000000000000000000000000000800000000000000000000001000100000000000000000000000000000000000000000100004000000000000000000000000000000000000000000000000008000000000000000000000000000000000000000000000000000400800000000000000000000000000800000000200000000200000800000000000000008000000000000000000000000000000000000000000000000000000000000000000000000000000000000000000000000000000000000000000000000000000000000000000000000000000000000040000000000",
      "type": "0x2",
      "transactionHash": "0xdc15cfc36a5a04bba419e3464aa0e1bfe02ce81187c2e6ea48c5feb3d258f833",
      "transactionIndex": "0x10",
      "blockHash": "0x4908168cf4d611f2b808c957c902b3cd42a1c35c160b1d57339f890aec3ccd01",
      "blockNumber": "0x388898",
      "gasUsed": "0x25fb4",
      "effectiveGasPrice": "0x5d21dba01",
      "from": "0x56fd3f2bee130e9867942d0f463a16fbe49b8d81",
      "to": "0x5eb3f5b9d4315cda410c98be788a14e0df320fb8",
      "contractAddress": null,
      "l1BaseFeeScalar": "0x0",
      "l1BlobBaseFee": "0x1",
      "l1BlobBaseFeeScalar": "0x0",
      "l1Fee": "0x0",
      "l1GasPrice": "0x4a261c",
      "l1GasUsed": "0x640"
    },
    {
      "status": "0x1",
      "cumulativeGasUsed": "0x28f9b8",
      "logs": [
        {
          "address": "0x691ab9aff4a36e1fcb9c2d9a366cc0e176c5e4fc",
          "topics": [
            "0x7cebb17173a9ed273d2b7538f64395c0ebf352ff743f1cf8ce66b437a6144213",
            "0x000000000000000000000000b9addcd1d1ce7d49dbb540e2677f1c572bc8d195",
            "0x0000000000000000000000005335bd8ad99c14be976f2c1eac64c3365315d88e"
          ],
          "data": "0x0000000000000000000000000000000000000000000000000000000068b9862c00000000000000000000000000000000000000000000016d8df29f84b3d90000",
          "blockHash": "0x4908168cf4d611f2b808c957c902b3cd42a1c35c160b1d57339f890aec3ccd01",
          "blockNumber": "0x388898",
          "transactionHash": "0x3e9fdc6d50a83f000926c827b1ae614e94edd54d1b8fed7592a664f7ab92094e",
          "transactionIndex": "0x11",
          "logIndex": "0x1c",
          "removed": false
        },
        {
          "address": "0x691ab9aff4a36e1fcb9c2d9a366cc0e176c5e4fc",
          "topics": [
            "0xa9981ebfc3b766a742486e898f54959b050a66006dbce1a4155c1f84a08bcf41",
            "0x000000000000000000000000b9addcd1d1ce7d49dbb540e2677f1c572bc8d195"
          ],
          "data": "0x00000000000000000000000000000000000000000000016d8df29f84b3d90000",
          "blockHash": "0x4908168cf4d611f2b808c957c902b3cd42a1c35c160b1d57339f890aec3ccd01",
          "blockNumber": "0x388898",
          "transactionHash": "0x3e9fdc6d50a83f000926c827b1ae614e94edd54d1b8fed7592a664f7ab92094e",
          "transactionIndex": "0x11",
          "logIndex": "0x1d",
          "removed": false
        }
      ],
      "logsBloom": "0x00800000000000000000000000000000000000000000000000000000000000000000000000000000000000000000000800000000000000000000000000100000000000000000000000000000000000000000000004000000000001000000000000000000000000000000000000008000000000000000000000000000000000000000000000000000420000000000000000000000000000000000000000000000200000800000000000000008000000000000000000000000000000000000000000000000000000000000000000000000000000020000000000000000100000000000100000000000000000000000000004000000000000000000000000000000",
      "type": "0x2",
      "transactionHash": "0x3e9fdc6d50a83f000926c827b1ae614e94edd54d1b8fed7592a664f7ab92094e",
      "transactionIndex": "0x11",
      "blockHash": "0x4908168cf4d611f2b808c957c902b3cd42a1c35c160b1d57339f890aec3ccd01",
      "blockNumber": "0x388898",
      "gasUsed": "0x25fb4",
      "effectiveGasPrice": "0x5d21dba01",
      "from": "0x56fd3f2bee130e9867942d0f463a16fbe49b8d81",
      "to": "0x5335bd8ad99c14be976f2c1eac64c3365315d88e",
      "contractAddress": null,
      "l1BaseFeeScalar": "0x0",
      "l1BlobBaseFee": "0x1",
      "l1BlobBaseFeeScalar": "0x0",
      "l1Fee": "0x0",
      "l1GasPrice": "0x4a261c",
      "l1GasUsed": "0x640"
    },
    {
      "status": "0x1",
      "cumulativeGasUsed": "0x2b4801",
      "logs": [
        {
          "address": "0x691ab9aff4a36e1fcb9c2d9a366cc0e176c5e4fc",
          "topics": [
            "0x7cebb17173a9ed273d2b7538f64395c0ebf352ff743f1cf8ce66b437a6144213",
            "0x000000000000000000000000d772efe6507b7d8cdc8c4d8870931439fbeeb929",
            "0x0000000000000000000000008700b6031a3c31edbf9a37426ea6a904303d2230"
          ],
          "data": "0x0000000000000000000000000000000000000000000000000000000068b9862c0000000000000000000000000000000000000000000000239228f4603d60c000",
          "blockHash": "0x4908168cf4d611f2b808c957c902b3cd42a1c35c160b1d57339f890aec3ccd01",
          "blockNumber": "0x388898",
          "transactionHash": "0xa903d3d938876563b0d6fc54f5b773ac8114e29794784bdfa0b601b8c4ec61ac",
          "transactionIndex": "0x12",
          "logIndex": "0x1e",
          "removed": false
        }
      ],
      "logsBloom": "0x00800020000000000000000000000000000000000000000000000000000000040000000000000200000000000000000800000000000000000000000000100800000000000000000000000000000000000000000000000000000000000000000000000000000000000000000000088000000000000000000000000000000000000000000000000000000000000000000000000000000000000000000000000000200000000000000000000008000000000000000000000000000000000000000000000000000000001000000000000000000000000000000000000000000000000000000000000000000000000000000000000000000000000000000000000000",
      "type": "0x2",
      "transactionHash": "0xa903d3d938876563b0d6fc54f5b773ac8114e29794784bdfa0b601b8c4ec61ac",
      "transactionIndex": "0x12",
      "blockHash": "0x4908168cf4d611f2b808c957c902b3cd42a1c35c160b1d57339f890aec3ccd01",
      "blockNumber": "0x388898",
      "gasUsed": "0x24e49",
      "effectiveGasPrice": "0x5d21dba01",
      "from": "0x56fd3f2bee130e9867942d0f463a16fbe49b8d81",
      "to": "0x8700b6031a3c31edbf9a37426ea6a904303d2230",
      "contractAddress": null,
      "l1BaseFeeScalar": "0x0",
      "l1BlobBaseFee": "0x1",
      "l1BlobBaseFeeScalar": "0x0",
      "l1Fee": "0x0",
      "l1GasPrice": "0x4a261c",
      "l1GasUsed": "0x640"
    }
  ],
  "libraries": [
    "node_modules/@celo/contracts/common/linkedlists/AddressSortedLinkedListWithMedian.sol:AddressSortedLinkedListWithMedian:0x1aD9B2599975E8CDF5629aFaBA8852269f1A1364"
  ],
  "pending": [],
  "returns": {},
  "timestamp": 1756988973865,
  "chain": 11142220,
  "commit": "7dc8151"
}