{
  "transactions": [
    {
      "hash": "0xfca5c87480e1c14c51d7bf189eabcec89cf379d307818c75aaf7312223fc2f6e",
      "transactionType": "CALL",
      "contractName": null,
      "contractAddress": "0x712959a392488f3eae92c7d2d66517fc3ec829d0",
      "function": "report(int256,uint256)",
      "arguments": [
        "99982000",
        "1756992502"
      ],
      "transaction": {
        "from": "0xabcde369cddd1665e4ebd9214b8e9a595271272c",
        "to": "0x712959a392488f3eae92c7d2d66517fc3ec829d0",
        "gas": "0xc220",
        "value": "0x0",
        "input": "0x0f3d249d0000000000000000000000000000000000000000000000000000000005f59ab00000000000000000000000000000000000000000000000000000000068b993f6",
        "nonce": "0x24",
        "chainId": "0xaa044c"
      },
      "additionalContracts": [],
      "isFixedGasLimit": false
    },
    {
      "hash": "0x3b8057d7b7be04a2d12a8b8cc2a7a12a11f4fc30ea18171988ba887291e7839a",
      "transactionType": "CALL",
      "contractName": null,
      "contractAddress": "0xb130563ad59b4367de850eb71b6839eade134b05",
      "function": "report(int256,uint256)",
      "arguments": [
        "100021654",
        "1756992406"
      ],
      "transaction": {
        "from": "0xabcde369cddd1665e4ebd9214b8e9a595271272c",
        "to": "0xb130563ad59b4367de850eb71b6839eade134b05",
        "gas": "0xc220",
        "value": "0x0",
        "input": "0x0f3d249d0000000000000000000000000000000000000000000000000000000005f635960000000000000000000000000000000000000000000000000000000068b99396",
        "nonce": "0x25",
        "chainId": "0xaa044c"
      },
      "additionalContracts": [],
      "isFixedGasLimit": false
    },
    {
      "hash": "0xed9ad51b6445e22bf3b4f5c97a7e55d6c34f9c26c8c8d8a408efaad5a62eea1e",
      "transactionType": "CALL",
      "contractName": null,
      "contractAddress": "0xa0a403b75580072a8e486f82253a407ba9bae0cb",
      "function": "report(int256,uint256)",
      "arguments": [
        "116454867",
        "1756992435"
      ],
      "transaction": {
        "from": "0xabcde369cddd1665e4ebd9214b8e9a595271272c",
        "to": "0xa0a403b75580072a8e486f82253a407ba9bae0cb",
        "gas": "0xc220",
        "value": "0x0",
        "input": "0x0f3d249d0000000000000000000000000000000000000000000000000000000006f0f5d30000000000000000000000000000000000000000000000000000000068b993b3",
        "nonce": "0x26",
        "chainId": "0xaa044c"
      },
      "additionalContracts": [],
      "isFixedGasLimit": false
    },
    {
      "hash": "0xb62014e2f5ad9234c055b0394414ad4c342684c2c65253abe9e3c523f82addbf",
      "transactionType": "CALL",
      "contractName": null,
      "contractAddress": "0x5995fb71215c9ea02753092aacf47885bfa1a988",
      "function": "report(int256,uint256)",
      "arguments": [
        "29290693",
        "1756992577"
      ],
      "transaction": {
        "from": "0xabcde369cddd1665e4ebd9214b8e9a595271272c",
        "to": "0x5995fb71215c9ea02753092aacf47885bfa1a988",
        "gas": "0xc220",
        "value": "0x0",
        "input": "0x0f3d249d0000000000000000000000000000000000000000000000000000000001bef0c50000000000000000000000000000000000000000000000000000000068b99441",
        "nonce": "0x27",
        "chainId": "0xaa044c"
      },
      "additionalContracts": [],
      "isFixedGasLimit": false
    },
    {
      "hash": "0x8508a84ee21e4313889b33aec997cc424abb95771cca7d8d3dbac0f4f2b948b0",
      "transactionType": "CALL",
      "contractName": null,
      "contractAddress": "0x44a7e7d4de5a4d6f5db9d174943214b926fd07d1",
      "function": "report(int256,uint256)",
      "arguments": [
        "116454867",
        "1756992435"
      ],
      "transaction": {
        "from": "0xabcde369cddd1665e4ebd9214b8e9a595271272c",
        "to": "0x44a7e7d4de5a4d6f5db9d174943214b926fd07d1",
        "gas": "0xc220",
        "value": "0x0",
        "input": "0x0f3d249d0000000000000000000000000000000000000000000000000000000006f0f5d30000000000000000000000000000000000000000000000000000000068b993b3",
        "nonce": "0x28",
        "chainId": "0xaa044c"
      },
      "additionalContracts": [],
      "isFixedGasLimit": false
    },
    {
      "hash": "0x172cec8a6e409381e65e1a425c71eabcabbd58dde866123fd24441fc02033594",
      "transactionType": "CALL",
      "contractName": null,
      "contractAddress": "0xe30f631aac9762059c67135095c7d520221a0868",
      "function": "report(int256,uint256)",
      "arguments": [
        "18339874",
        "1756992499"
      ],
      "transaction": {
        "from": "0xabcde369cddd1665e4ebd9214b8e9a595271272c",
        "to": "0xe30f631aac9762059c67135095c7d520221a0868",
        "gas": "0xc220",
        "value": "0x0",
        "input": "0x0f3d249d000000000000000000000000000000000000000000000000000000000117d8220000000000000000000000000000000000000000000000000000000068b993f3",
        "nonce": "0x29",
        "chainId": "0xaa044c"
      },
      "additionalContracts": [],
      "isFixedGasLimit": false
    },
    {
      "hash": "0x31f36c8784a6b0bd85b1205cc73371d5cd23ae1a98d73fecd564f6b61a38022e",
      "transactionType": "CALL",
      "contractName": null,
      "contractAddress": "0xf364db584bc3b55df019044de85993c47e1b145a",
      "function": "report(int256,uint256)",
      "arguments": [
        "1776154767021779",
        "1756992511"
      ],
      "transaction": {
        "from": "0xabcde369cddd1665e4ebd9214b8e9a595271272c",
        "to": "0xf364db584bc3b55df019044de85993c47e1b145a",
        "gas": "0xb337",
        "value": "0x0",
        "input": "0x0f3d249d00000000000000000000000000000000000000000000000000064f6741f456d30000000000000000000000000000000000000000000000000000000068b993ff",
        "nonce": "0x2a",
        "chainId": "0xaa044c"
      },
      "additionalContracts": [],
      "isFixedGasLimit": false
    },
    {
      "hash": "0xe9accefb9d850612fd4ce697a9478ac2a834bb4209dd7013aaf27a3813b7b840",
      "transactionType": "CALL",
      "contractName": null,
      "contractAddress": "0x0d1a55b9a06fe8aa48eb87251fbd959d121ea843",
      "function": "report(int256,uint256)",
      "arguments": [
        "7743000000000000",
        "1756992491"
      ],
      "transaction": {
        "from": "0xabcde369cddd1665e4ebd9214b8e9a595271272c",
        "to": "0x0d1a55b9a06fe8aa48eb87251fbd959d121ea843",
        "gas": "0xc242",
        "value": "0x0",
        "input": "0x0f3d249d000000000000000000000000000000000000000000000000001b8237ac7ef0000000000000000000000000000000000000000000000000000000000068b993eb",
        "nonce": "0x2b",
        "chainId": "0xaa044c"
      },
      "additionalContracts": [],
      "isFixedGasLimit": false
    },
    {
      "hash": "0xe7d542aa353b643fbed869961e66364b370fa71acf4ab95583d42d365c3ac61d",
      "transactionType": "CALL",
      "contractName": null,
      "contractAddress": "0x7a2f69a58f0dae429cc6de1e6fcb6260041c7464",
      "function": "report(int256,uint256)",
      "arguments": [
        "1750737",
        "1756992511"
      ],
      "transaction": {
        "from": "0xabcde369cddd1665e4ebd9214b8e9a595271272c",
        "to": "0x7a2f69a58f0dae429cc6de1e6fcb6260041c7464",
        "gas": "0xc210",
        "value": "0x0",
        "input": "0x0f3d249d00000000000000000000000000000000000000000000000000000000001ab6d10000000000000000000000000000000000000000000000000000000068b993ff",
        "nonce": "0x2c",
        "chainId": "0xaa044c"
      },
      "additionalContracts": [],
      "isFixedGasLimit": false
    },
    {
      "hash": "0x10daf14bca74f37fb5660eb36b6ffb88635460ccacbcc523f503c1d1031de44c",
      "transactionType": "CALL",
      "contractName": null,
      "contractAddress": "0x97fd9624af571a5291d6b5aa0f7db7de8b5e0398",
      "function": "report(int256,uint256)",
      "arguments": [
        "24997",
        "1756992488"
      ],
      "transaction": {
        "from": "0xabcde369cddd1665e4ebd9214b8e9a595271272c",
        "to": "0x97fd9624af571a5291d6b5aa0f7db7de8b5e0398",
        "gas": "0xc1ff",
        "value": "0x0",
        "input": "0x0f3d249d00000000000000000000000000000000000000000000000000000000000061a50000000000000000000000000000000000000000000000000000000068b993e8",
        "nonce": "0x2d",
        "chainId": "0xaa044c"
      },
      "additionalContracts": [],
      "isFixedGasLimit": false
    },
    {
      "hash": "0x49fd24c31139659ad47d2fe18b1176d3babc3ca167dade4589d8bc1433e61982",
      "transactionType": "CALL",
      "contractName": null,
      "contractAddress": "0x04a1e7bbd987a7f86ca10ea36023884e45e46bd7",
      "function": "report(int256,uint256)",
      "arguments": [
        "8295932",
        "1756992591"
      ],
      "transaction": {
        "from": "0xabcde369cddd1665e4ebd9214b8e9a595271272c",
        "to": "0x04a1e7bbd987a7f86ca10ea36023884e45e46bd7",
        "gas": "0xb2f5",
        "value": "0x0",
        "input": "0x0f3d249d00000000000000000000000000000000000000000000000000000000007e95fc0000000000000000000000000000000000000000000000000000000068b9944f",
        "nonce": "0x2e",
        "chainId": "0xaa044c"
      },
      "additionalContracts": [],
      "isFixedGasLimit": false
    },
    {
      "hash": "0xe40b9183e4579a3411d30cce824200c535524bc25e1d1d909b70ea80770570ff",
      "transactionType": "CALL",
      "contractName": null,
      "contractAddress": "0x56029056ccc623115d05473cee7d1aacac830185",
      "function": "report(int256,uint256)",
      "arguments": [
        "134420000",
        "1756992515"
      ],
      "transaction": {
        "from": "0xabcde369cddd1665e4ebd9214b8e9a595271272c",
        "to": "0x56029056ccc623115d05473cee7d1aacac830185",
        "gas": "0xc220",
        "value": "0x0",
        "input": "0x0f3d249d00000000000000000000000000000000000000000000000000000000080316200000000000000000000000000000000000000000000000000000000068b99403",
        "nonce": "0x2f",
        "chainId": "0xaa044c"
      },
      "additionalContracts": [],
      "isFixedGasLimit": false
    },
    {
      "hash": "0xc41abf3bbbe192376937f3285f3171162f77a7b4f3cb1c385fac2e924a127ca6",
      "transactionType": "CALL",
      "contractName": null,
      "contractAddress": "0x1d866336d9c2f1c9737aca853347838e0a9e0559",
      "function": "report(int256,uint256)",
      "arguments": [
        "5629236",
        "1756992448"
      ],
      "transaction": {
        "from": "0xabcde369cddd1665e4ebd9214b8e9a595271272c",
        "to": "0x1d866336d9c2f1c9737aca853347838e0a9e0559",
        "gas": "0xc210",
        "value": "0x0",
        "input": "0x0f3d249d000000000000000000000000000000000000000000000000000000000055e5340000000000000000000000000000000000000000000000000000000068b993c0",
        "nonce": "0x30",
        "chainId": "0xaa044c"
      },
      "additionalContracts": [],
      "isFixedGasLimit": false
    },
    {
      "hash": "0x251aab39afb88d591ad87c2a9887fe845eb30919d52f34d158625d070fcb253e",
      "transactionType": "CALL",
      "contractName": null,
      "contractAddress": "0x8c947e599bea1f0469d5e2633a6e030910336d11",
      "function": "report(int256,uint256)",
      "arguments": [
        "72386136",
        "1756992587"
      ],
      "transaction": {
        "from": "0xabcde369cddd1665e4ebd9214b8e9a595271272c",
        "to": "0x8c947e599bea1f0469d5e2633a6e030910336d11",
        "gas": "0xc220",
        "value": "0x0",
        "input": "0x0f3d249d00000000000000000000000000000000000000000000000000000000045086580000000000000000000000000000000000000000000000000000000068b9944b",
        "nonce": "0x31",
        "chainId": "0xaa044c"
      },
      "additionalContracts": [],
      "isFixedGasLimit": false
    },
    {
      "hash": "0xeb5a7129b2600e7f88498e22d86f4e386b002c64400e584086a54e2e79be40f3",
      "transactionType": "CALL",
      "contractName": null,
      "contractAddress": "0xdee315fc7023de5a99fbc68a1ca6c0266a897b17",
      "function": "report(int256,uint256)",
      "arguments": [
        "65213000",
        "1756992552"
      ],
      "transaction": {
        "from": "0xabcde369cddd1665e4ebd9214b8e9a595271272c",
        "to": "0xdee315fc7023de5a99fbc68a1ca6c0266a897b17",
        "gas": "0xc220",
        "value": "0x0",
        "input": "0x0f3d249d0000000000000000000000000000000000000000000000000000000003e312480000000000000000000000000000000000000000000000000000000068b99428",
        "nonce": "0x32",
        "chainId": "0xaa044c"
      },
      "additionalContracts": [],
      "isFixedGasLimit": false
    },
    {
      "hash": "0x4a9009ad962e7da9a8d6035f4cf24146c90b3602a9825f3dd1e3d77c67b9ba8d",
      "transactionType": "CALL",
      "contractName": null,
      "contractAddress": "0x703691155cd4006ed14361023ec35599cfb33a19",
      "function": "report(int256,uint256)",
      "arguments": [
        "124234405",
        "1756992463"
      ],
      "transaction": {
        "from": "0xabcde369cddd1665e4ebd9214b8e9a595271272c",
        "to": "0x703691155cd4006ed14361023ec35599cfb33a19",
        "gas": "0xc220",
        "value": "0x0",
        "input": "0x0f3d249d000000000000000000000000000000000000000000000000000000000767aaa50000000000000000000000000000000000000000000000000000000068b993cf",
        "nonce": "0x33",
        "chainId": "0xaa044c"
      },
      "additionalContracts": [],
      "isFixedGasLimit": false
    },
    {
      "hash": "0xdeaef855edfb982a514bbb71677cd824b1b1dbf66318f24adf88272d958b663e",
      "transactionType": "CALL",
      "contractName": null,
      "contractAddress": "0x8003d6ea2954e8fa12c420e189777b2a7d989653",
      "function": "report(int256,uint256)",
      "arguments": [
        "673786",
        "1756992488"
      ],
      "transaction": {
        "from": "0xabcde369cddd1665e4ebd9214b8e9a595271272c",
        "to": "0x8003d6ea2954e8fa12c420e189777b2a7d989653",
        "gas": "0xc210",
        "value": "0x0",
        "input": "0x0f3d249d00000000000000000000000000000000000000000000000000000000000a47fa0000000000000000000000000000000000000000000000000000000068b993e8",
        "nonce": "0x34",
        "chainId": "0xaa044c"
      },
      "additionalContracts": [],
      "isFixedGasLimit": false
    },
    {
      "hash": "0xc0b75e4e95b8943f20213649bb63d0f793fbf95155af225aa0b3fa5518fdfc78",
      "transactionType": "CALL",
      "contractName": null,
      "contractAddress": "0x5db4a1e964ce93f994ff56aaf96b39de73f073da",
      "function": "report(int256,uint256)",
      "arguments": [
        "656598818122127",
        "1756992576"
      ],
      "transaction": {
        "from": "0xabcde369cddd1665e4ebd9214b8e9a595271272c",
        "to": "0x5db4a1e964ce93f994ff56aaf96b39de73f073da",
        "gas": "0xc253",
        "value": "0x0",
        "input": "0x0f3d249d0000000000000000000000000000000000000000000000000002552c5350698f0000000000000000000000000000000000000000000000000000000068b99440",
        "nonce": "0x35",
        "chainId": "0xaa044c"
      },
      "additionalContracts": [],
      "isFixedGasLimit": false
    },
    {
      "hash": "0xdce33861c90ee0f1d12fb49c695bce3aa458ae65e1421fdebfdb27113e90d9a0",
      "transactionType": "CALL",
      "contractName": null,
      "contractAddress": "0x2053c6091491a572bcd8baa96f693ca77df25ccf",
      "function": "relay()",
      "arguments": [],
      "transaction": {
        "from": "0xabcde369cddd1665e4ebd9214b8e9a595271272c",
        "to": "0x2053c6091491a572bcd8baa96f693ca77df25ccf",
        "gas": "0x34763",
        "value": "0x0",
        "input": "0xb59589d1",
        "nonce": "0x36",
        "chainId": "0xaa044c"
      },
      "additionalContracts": [],
      "isFixedGasLimit": false
    },
    {
      "hash": "0x757ebced2378d227cf423e0e6e18e0790925a9f13137b5c7f214fac36df3215a",
      "transactionType": "CALL",
      "contractName": null,
      "contractAddress": "0x737285328116fcc9edab850d6fa1583fae1152ce",
      "function": "relay()",
      "arguments": [],
      "transaction": {
        "from": "0xabcde369cddd1665e4ebd9214b8e9a595271272c",
        "to": "0x737285328116fcc9edab850d6fa1583fae1152ce",
        "gas": "0x34763",
        "value": "0x0",
        "input": "0xb59589d1",
        "nonce": "0x37",
        "chainId": "0xaa044c"
      },
      "additionalContracts": [],
      "isFixedGasLimit": false
    },
    {
      "hash": "0x89a0cc1c0fb0ac06caa441bc7ccedd806d75ca1a2d97bd5b73a73da83017e77f",
      "transactionType": "CALL",
      "contractName": null,
      "contractAddress": "0x411fac2c99957651f9cc93d4852d4346f929c61e",
      "function": "relay()",
      "arguments": [],
      "transaction": {
        "from": "0xabcde369cddd1665e4ebd9214b8e9a595271272c",
        "to": "0x411fac2c99957651f9cc93d4852d4346f929c61e",
        "gas": "0x38825",
        "value": "0x0",
        "input": "0xb59589d1",
        "nonce": "0x38",
        "chainId": "0xaa044c"
      },
      "additionalContracts": [],
      "isFixedGasLimit": false
    },
    {
      "hash": "0xb3e048e26db57198b7e6a2ba0278ae0492bece92924e45a660c1f3773cfe5d4e",
      "transactionType": "CALL",
      "contractName": null,
      "contractAddress": "0xdbbe66b2ec5f1539c0c79ecf5fab12a94c1c7d7b",
      "function": "relay()",
      "arguments": [],
      "transaction": {
        "from": "0xabcde369cddd1665e4ebd9214b8e9a595271272c",
        "to": "0xdbbe66b2ec5f1539c0c79ecf5fab12a94c1c7d7b",
        "gas": "0x34763",
        "value": "0x0",
        "input": "0xb59589d1",
        "nonce": "0x39",
        "chainId": "0xaa044c"
      },
      "additionalContracts": [],
      "isFixedGasLimit": false
    },
    {
      "hash": "0x2943a679679d99249e9853523715781404c475c39f60e41da5099d499cffd7d8",
      "transactionType": "CALL",
      "contractName": null,
      "contractAddress": "0x3bc0add00a414bc1fe0cfb6bde62e03e01a39059",
      "function": "relay()",
      "arguments": [],
      "transaction": {
        "from": "0xabcde369cddd1665e4ebd9214b8e9a595271272c",
        "to": "0x3bc0add00a414bc1fe0cfb6bde62e03e01a39059",
        "gas": "0x34763",
        "value": "0x0",
        "input": "0xb59589d1",
        "nonce": "0x3a",
        "chainId": "0xaa044c"
      },
      "additionalContracts": [],
      "isFixedGasLimit": false
    },
    {
      "hash": "0xe4e820571f409d22dfc50c2e7cba950762ae9e17307858a097d14fb6d6c3600a",
      "transactionType": "CALL",
      "contractName": null,
      "contractAddress": "0xf4ed3b0f01cf978a56fcaca96e4537c60542edd5",
      "function": "relay()",
      "arguments": [],
      "transaction": {
        "from": "0xabcde369cddd1665e4ebd9214b8e9a595271272c",
        "to": "0xf4ed3b0f01cf978a56fcaca96e4537c60542edd5",
        "gas": "0x34763",
        "value": "0x0",
        "input": "0xb59589d1",
        "nonce": "0x3b",
        "chainId": "0xaa044c"
      },
      "additionalContracts": [],
      "isFixedGasLimit": false
    },
    {
      "hash": "0xffd9e6831abc9a41ba9d3c4426e2a8d22a1d71690f804e53322cc2fea83e0c4d",
      "transactionType": "CALL",
      "contractName": null,
      "contractAddress": "0xf764861a23096bf289232300b51f202dd902e04d",
      "function": "relay()",
      "arguments": [],
      "transaction": {
        "from": "0xabcde369cddd1665e4ebd9214b8e9a595271272c",
        "to": "0xf764861a23096bf289232300b51f202dd902e04d",
        "gas": "0x35f4a",
        "value": "0x0",
        "input": "0xb59589d1",
        "nonce": "0x3c",
        "chainId": "0xaa044c"
      },
      "additionalContracts": [],
      "isFixedGasLimit": false
    },
    {
      "hash": "0x9dc03e07773f439336a451efc36fc8f6f291e22d757db020cd049afef9ef1263",
      "transactionType": "CALL",
      "contractName": null,
      "contractAddress": "0xcc08331daa33ca9a97f3feb2b73d9f393eb921c1",
      "function": "relay()",
      "arguments": [],
      "transaction": {
        "from": "0xabcde369cddd1665e4ebd9214b8e9a595271272c",
        "to": "0xcc08331daa33ca9a97f3feb2b73d9f393eb921c1",
        "gas": "0x3779b",
        "value": "0x0",
        "input": "0xb59589d1",
        "nonce": "0x3d",
        "chainId": "0xaa044c"
      },
      "additionalContracts": [],
      "isFixedGasLimit": false
    },
    {
      "hash": "0x4459c30383d5a4874d59365f9fe280641603ca025a04b4cf6aa2a6810bfb6f64",
      "transactionType": "CALL",
      "contractName": null,
      "contractAddress": "0x8b74bca4c87207380292f0844b1c0abe2ef60c54",
      "function": "relay()",
      "arguments": [],
      "transaction": {
        "from": "0xabcde369cddd1665e4ebd9214b8e9a595271272c",
        "to": "0x8b74bca4c87207380292f0844b1c0abe2ef60c54",
        "gas": "0x34763",
        "value": "0x0",
        "input": "0xb59589d1",
        "nonce": "0x3e",
        "chainId": "0xaa044c"
      },
      "additionalContracts": [],
      "isFixedGasLimit": false
    },
    {
      "hash": "0x755f2d8fde33ea75823f85411c4fe28c8e479f1f350f6a1d9dac9555a6f99f59",
      "transactionType": "CALL",
      "contractName": null,
      "contractAddress": "0xa5f0ce0cd80e203161709a18378f2c850b64cc56",
      "function": "relay()",
      "arguments": [],
      "transaction": {
        "from": "0xabcde369cddd1665e4ebd9214b8e9a595271272c",
        "to": "0xa5f0ce0cd80e203161709a18378f2c850b64cc56",
        "gas": "0x34763",
        "value": "0x0",
        "input": "0xb59589d1",
        "nonce": "0x3f",
        "chainId": "0xaa044c"
      },
      "additionalContracts": [],
      "isFixedGasLimit": false
    },
    {
      "hash": "0xd131497fce1da966b8192d5f18e7981b1fe9ba0dbd2f6aef60a361ffecd81b2f",
      "transactionType": "CALL",
      "contractName": null,
      "contractAddress": "0x01f9629fb13ec2f902cc27f521e5b29e880173b4",
      "function": "relay()",
      "arguments": [],
      "transaction": {
        "from": "0xabcde369cddd1665e4ebd9214b8e9a595271272c",
        "to": "0x01f9629fb13ec2f902cc27f521e5b29e880173b4",
        "gas": "0x3306c",
        "value": "0x0",
        "input": "0xb59589d1",
        "nonce": "0x40",
        "chainId": "0xaa044c"
      },
      "additionalContracts": [],
      "isFixedGasLimit": false
    },
    {
      "hash": "0xde4d9eeac9f9c653629de9d52c821f787d1c8d5be4483539d4d0db1a626475f7",
      "transactionType": "CALL",
      "contractName": null,
      "contractAddress": "0xbea02da2fef22ad1b47d204e592a63c77bd44944",
      "function": "relay()",
      "arguments": [],
      "transaction": {
        "from": "0xabcde369cddd1665e4ebd9214b8e9a595271272c",
        "to": "0xbea02da2fef22ad1b47d204e592a63c77bd44944",
        "gas": "0x34763",
        "value": "0x0",
        "input": "0xb59589d1",
        "nonce": "0x41",
        "chainId": "0xaa044c"
      },
      "additionalContracts": [],
      "isFixedGasLimit": false
    },
    {
      "hash": "0x19de38e71cd62fe02a824dd3c425ba88080e67c97a04401e3f400641ac6bec66",
      "transactionType": "CALL",
      "contractName": null,
      "contractAddress": "0x5dfa86d3660a63aaf274e70bf89c9087615a65c3",
      "function": "relay()",
      "arguments": [],
      "transaction": {
        "from": "0xabcde369cddd1665e4ebd9214b8e9a595271272c",
        "to": "0x5dfa86d3660a63aaf274e70bf89c9087615a65c3",
        "gas": "0x34763",
        "value": "0x0",
        "input": "0xb59589d1",
        "nonce": "0x42",
        "chainId": "0xaa044c"
      },
      "additionalContracts": [],
      "isFixedGasLimit": false
    },
    {
      "hash": "0x256699519cf5e58b0dd02717421ef30d9ca1e68ed84625e6c88ab5b609b43826",
      "transactionType": "CALL",
      "contractName": null,
      "contractAddress": "0x41cee890564872045e770ed522e3d2bf5ff1acfd",
      "function": "relay()",
      "arguments": [],
      "transaction": {
        "from": "0xabcde369cddd1665e4ebd9214b8e9a595271272c",
        "to": "0x41cee890564872045e770ed522e3d2bf5ff1acfd",
        "gas": "0x34763",
        "value": "0x0",
        "input": "0xb59589d1",
        "nonce": "0x43",
        "chainId": "0xaa044c"
      },
      "additionalContracts": [],
      "isFixedGasLimit": false
    },
    {
      "hash": "0xf128bdd86c93152d034333086c2fa98e6071dda219a9a3bbe537674091b1d403",
      "transactionType": "CALL",
      "contractName": null,
      "contractAddress": "0x39e6ed41f651624c90778c0f785c283a124bb52a",
      "function": "relay()",
      "arguments": [],
      "transaction": {
        "from": "0xabcde369cddd1665e4ebd9214b8e9a595271272c",
        "to": "0x39e6ed41f651624c90778c0f785c283a124bb52a",
        "gas": "0x34763",
        "value": "0x0",
        "input": "0xb59589d1",
        "nonce": "0x44",
        "chainId": "0xaa044c"
      },
      "additionalContracts": [],
      "isFixedGasLimit": false
    },
    {
      "hash": "0x2970b3300b58f347811868798aecebf9582964ba2dddd5ae27648a9e64c6fb53",
      "transactionType": "CALL",
      "contractName": null,
      "contractAddress": "0x5eb3f5b9d4315cda410c98be788a14e0df320fb8",
      "function": "relay()",
      "arguments": [],
      "transaction": {
        "from": "0xabcde369cddd1665e4ebd9214b8e9a595271272c",
        "to": "0x5eb3f5b9d4315cda410c98be788a14e0df320fb8",
        "gas": "0x34763",
        "value": "0x0",
        "input": "0xb59589d1",
        "nonce": "0x45",
        "chainId": "0xaa044c"
      },
      "additionalContracts": [],
      "isFixedGasLimit": false
    },
    {
      "hash": "0xc999511da3f682170ce4963c42f245963327621a52b99932bb6fe73655a5a178",
      "transactionType": "CALL",
      "contractName": null,
      "contractAddress": "0x5335bd8ad99c14be976f2c1eac64c3365315d88e",
      "function": "relay()",
      "arguments": [],
      "transaction": {
        "from": "0xabcde369cddd1665e4ebd9214b8e9a595271272c",
        "to": "0x5335bd8ad99c14be976f2c1eac64c3365315d88e",
        "gas": "0x34763",
        "value": "0x0",
        "input": "0xb59589d1",
        "nonce": "0x46",
        "chainId": "0xaa044c"
      },
      "additionalContracts": [],
      "isFixedGasLimit": false
    },
    {
      "hash": "0x19fa8f169743910aa9f799f9bda97d539be83a7f35807926bdabb0f45455f5c5",
      "transactionType": "CALL",
      "contractName": null,
      "contractAddress": "0x8700b6031a3c31edbf9a37426ea6a904303d2230",
      "function": "relay()",
      "arguments": [],
      "transaction": {
        "from": "0xabcde369cddd1665e4ebd9214b8e9a595271272c",
        "to": "0x8700b6031a3c31edbf9a37426ea6a904303d2230",
        "gas": "0x3779b",
        "value": "0x0",
        "input": "0xb59589d1",
        "nonce": "0x47",
        "chainId": "0xaa044c"
      },
      "additionalContracts": [],
      "isFixedGasLimit": false
    }
  ],
  "receipts": [
    {
      "status": "0x1",
      "cumulativeGasUsed": "0x14090",
      "logs": [],
      "logsBloom": "0x00000000000000000000000000000000000000000000000000000000000000000000000000000000000000000000000000000000000000000000000000000000000000000000000000000000000000000000000000000000000000000000000000000000000000000000000000000000000000000000000000000000000000000000000000000000000000000000000000000000000000000000000000000000000000000000000000000000000000000000000000000000000000000000000000000000000000000000000000000000000000000000000000000000000000000000000000000000000000000000000000000000000000000000000000000000",
      "type": "0x2",
      "transactionHash": "0xfca5c87480e1c14c51d7bf189eabcec89cf379d307818c75aaf7312223fc2f6e",
      "transactionIndex": "0x1",
      "blockHash": "0x192a3e15e7e6ce2b6f90e0cc8f72976b4333aaf002ad420b2ecb913de13012af",
      "blockNumber": "0x38979c",
      "gasUsed": "0x8c8c",
      "effectiveGasPrice": "0x5d21dba01",
      "from": "0xabcde369cddd1665e4ebd9214b8e9a595271272c",
      "to": "0x712959a392488f3eae92c7d2d66517fc3ec829d0",
      "contractAddress": null,
      "l1BaseFeeScalar": "0x0",
      "l1BlobBaseFee": "0x1",
      "l1BlobBaseFeeScalar": "0x0",
      "l1Fee": "0x0",
      "l1GasPrice": "0x1ec068",
      "l1GasUsed": "0x640"
    },
    {
      "status": "0x1",
      "cumulativeGasUsed": "0x1cd1c",
      "logs": [],
      "logsBloom": "0x00000000000000000000000000000000000000000000000000000000000000000000000000000000000000000000000000000000000000000000000000000000000000000000000000000000000000000000000000000000000000000000000000000000000000000000000000000000000000000000000000000000000000000000000000000000000000000000000000000000000000000000000000000000000000000000000000000000000000000000000000000000000000000000000000000000000000000000000000000000000000000000000000000000000000000000000000000000000000000000000000000000000000000000000000000000",
      "type": "0x2",
      "transactionHash": "0x3b8057d7b7be04a2d12a8b8cc2a7a12a11f4fc30ea18171988ba887291e7839a",
      "transactionIndex": "0x2",
      "blockHash": "0x192a3e15e7e6ce2b6f90e0cc8f72976b4333aaf002ad420b2ecb913de13012af",
      "blockNumber": "0x38979c",
      "gasUsed": "0x8c8c",
      "effectiveGasPrice": "0x5d21dba01",
      "from": "0xabcde369cddd1665e4ebd9214b8e9a595271272c",
      "to": "0xb130563ad59b4367de850eb71b6839eade134b05",
      "contractAddress": null,
      "l1BaseFeeScalar": "0x0",
      "l1BlobBaseFee": "0x1",
      "l1BlobBaseFeeScalar": "0x0",
      "l1Fee": "0x0",
      "l1GasPrice": "0x1ec068",
      "l1GasUsed": "0x640"
    },
    {
      "status": "0x1",
      "cumulativeGasUsed": "0x259a8",
      "logs": [],
      "logsBloom": "0x00000000000000000000000000000000000000000000000000000000000000000000000000000000000000000000000000000000000000000000000000000000000000000000000000000000000000000000000000000000000000000000000000000000000000000000000000000000000000000000000000000000000000000000000000000000000000000000000000000000000000000000000000000000000000000000000000000000000000000000000000000000000000000000000000000000000000000000000000000000000000000000000000000000000000000000000000000000000000000000000000000000000000000000000000000000",
      "type": "0x2",
      "transactionHash": "0xed9ad51b6445e22bf3b4f5c97a7e55d6c34f9c26c8c8d8a408efaad5a62eea1e",
      "transactionIndex": "0x3",
      "blockHash": "0x192a3e15e7e6ce2b6f90e0cc8f72976b4333aaf002ad420b2ecb913de13012af",
      "blockNumber": "0x38979c",
      "gasUsed": "0x8c8c",
      "effectiveGasPrice": "0x5d21dba01",
      "from": "0xabcde369cddd1665e4ebd9214b8e9a595271272c",
      "to": "0xa0a403b75580072a8e486f82253a407ba9bae0cb",
      "contractAddress": null,
      "l1BaseFeeScalar": "0x0",
      "l1BlobBaseFee": "0x1",
      "l1BlobBaseFeeScalar": "0x0",
      "l1Fee": "0x0",
      "l1GasPrice": "0x1ec068",
      "l1GasUsed": "0x640"
    },
    {
      "status": "0x1",
      "cumulativeGasUsed": "0x2e634",
      "logs": [],
      "logsBloom": "0x00000000000000000000000000000000000000000000000000000000000000000000000000000000000000000000000000000000000000000000000000000000000000000000000000000000000000000000000000000000000000000000000000000000000000000000000000000000000000000000000000000000000000000000000000000000000000000000000000000000000000000000000000000000000000000000000000000000000000000000000000000000000000000000000000000000000000000000000000000000000000000000000000000000000000000000000000000000000000000000000000000000000000000000000000000000",
      "type": "0x2",
      "transactionHash": "0xb62014e2f5ad9234c055b0394414ad4c342684c2c65253abe9e3c523f82addbf",
      "transactionIndex": "0x4",
      "blockHash": "0x192a3e15e7e6ce2b6f90e0cc8f72976b4333aaf002ad420b2ecb913de13012af",
      "blockNumber": "0x38979c",
      "gasUsed": "0x8c8c",
      "effectiveGasPrice": "0x5d21dba01",
      "from": "0xabcde369cddd1665e4ebd9214b8e9a595271272c",
      "to": "0x5995fb71215c9ea02753092aacf47885bfa1a988",
      "contractAddress": null,
      "l1BaseFeeScalar": "0x0",
      "l1BlobBaseFee": "0x1",
      "l1BlobBaseFeeScalar": "0x0",
      "l1Fee": "0x0",
      "l1GasPrice": "0x1ec068",
      "l1GasUsed": "0x640"
    },
    {
      "status": "0x1",
      "cumulativeGasUsed": "0x372c0",
      "logs": [],
      "logsBloom": "0x00000000000000000000000000000000000000000000000000000000000000000000000000000000000000000000000000000000000000000000000000000000000000000000000000000000000000000000000000000000000000000000000000000000000000000000000000000000000000000000000000000000000000000000000000000000000000000000000000000000000000000000000000000000000000000000000000000000000000000000000000000000000000000000000000000000000000000000000000000000000000000000000000000000000000000000000000000000000000000000000000000000000000000000000000000000",
      "type": "0x2",
      "transactionHash": "0x8508a84ee21e4313889b33aec997cc424abb95771cca7d8d3dbac0f4f2b948b0",
      "transactionIndex": "0x5",
      "blockHash": "0x192a3e15e7e6ce2b6f90e0cc8f72976b4333aaf002ad420b2ecb913de13012af",
      "blockNumber": "0x38979c",
      "gasUsed": "0x8c8c",
      "effectiveGasPrice": "0x5d21dba01",
      "from": "0xabcde369cddd1665e4ebd9214b8e9a595271272c",
      "to": "0x44a7e7d4de5a4d6f5db9d174943214b926fd07d1",
      "contractAddress": null,
      "l1BaseFeeScalar": "0x0",
      "l1BlobBaseFee": "0x1",
      "l1BlobBaseFeeScalar": "0x0",
      "l1Fee": "0x0",
      "l1GasPrice": "0x1ec068",
      "l1GasUsed": "0x640"
    },
    {
      "status": "0x1",
      "cumulativeGasUsed": "0x3ff4c",
      "logs": [],
      "logsBloom": "0x00000000000000000000000000000000000000000000000000000000000000000000000000000000000000000000000000000000000000000000000000000000000000000000000000000000000000000000000000000000000000000000000000000000000000000000000000000000000000000000000000000000000000000000000000000000000000000000000000000000000000000000000000000000000000000000000000000000000000000000000000000000000000000000000000000000000000000000000000000000000000000000000000000000000000000000000000000000000000000000000000000000000000000000000000000000",
      "type": "0x2",
      "transactionHash": "0x172cec8a6e409381e65e1a425c71eabcabbd58dde866123fd24441fc02033594",
      "transactionIndex": "0x6",
      "blockHash": "0x192a3e15e7e6ce2b6f90e0cc8f72976b4333aaf002ad420b2ecb913de13012af",
      "blockNumber": "0x38979c",
      "gasUsed": "0x8c8c",
      "effectiveGasPrice": "0x5d21dba01",
      "from": "0xabcde369cddd1665e4ebd9214b8e9a595271272c",
      "to": "0xe30f631aac9762059c67135095c7d520221a0868",
      "contractAddress": null,
      "l1BaseFeeScalar": "0x0",
      "l1BlobBaseFee": "0x1",
      "l1BlobBaseFeeScalar": "0x0",
      "l1Fee": "0x0",
      "l1GasPrice": "0x1ec068",
      "l1GasUsed": "0x640"
    },
    {
      "status": "0x1",
      "cumulativeGasUsed": "0x4810c",
      "logs": [],
      "logsBloom": "0x00000000000000000000000000000000000000000000000000000000000000000000000000000000000000000000000000000000000000000000000000000000000000000000000000000000000000000000000000000000000000000000000000000000000000000000000000000000000000000000000000000000000000000000000000000000000000000000000000000000000000000000000000000000000000000000000000000000000000000000000000000000000000000000000000000000000000000000000000000000000000000000000000000000000000000000000000000000000000000000000000000000000000000000000000000000",
      "type": "0x2",
      "transactionHash": "0x31f36c8784a6b0bd85b1205cc73371d5cd23ae1a98d73fecd564f6b61a38022e",
      "transactionIndex": "0x7",
      "blockHash": "0x192a3e15e7e6ce2b6f90e0cc8f72976b4333aaf002ad420b2ecb913de13012af",
      "blockNumber": "0x38979c",
      "gasUsed": "0x81c0",
      "effectiveGasPrice": "0x5d21dba01",
      "from": "0xabcde369cddd1665e4ebd9214b8e9a595271272c",
      "to": "0xf364db584bc3b55df019044de85993c47e1b145a",
      "contractAddress": null,
      "l1BaseFeeScalar": "0x0",
      "l1BlobBaseFee": "0x1",
      "l1BlobBaseFeeScalar": "0x0",
      "l1Fee": "0x0",
      "l1GasPrice": "0x1ec068",
      "l1GasUsed": "0x640"
    },
    {
      "status": "0x1",
      "cumulativeGasUsed": "0x50db0",
      "logs": [],
      "logsBloom": "0x00000000000000000000000000000000000000000000000000000000000000000000000000000000000000000000000000000000000000000000000000000000000000000000000000000000000000000000000000000000000000000000000000000000000000000000000000000000000000000000000000000000000000000000000000000000000000000000000000000000000000000000000000000000000000000000000000000000000000000000000000000000000000000000000000000000000000000000000000000000000000000000000000000000000000000000000000000000000000000000000000000000000000000000000000000000",
      "type": "0x2",
      "transactionHash": "0xe9accefb9d850612fd4ce697a9478ac2a834bb4209dd7013aaf27a3813b7b840",
      "transactionIndex": "0x8",
      "blockHash": "0x192a3e15e7e6ce2b6f90e0cc8f72976b4333aaf002ad420b2ecb913de13012af",
      "blockNumber": "0x38979c",
      "gasUsed": "0x8ca4",
      "effectiveGasPrice": "0x5d21dba01",
      "from": "0xabcde369cddd1665e4ebd9214b8e9a595271272c",
      "to": "0x0d1a55b9a06fe8aa48eb87251fbd959d121ea843",
      "contractAddress": null,
      "l1BaseFeeScalar": "0x0",
      "l1BlobBaseFee": "0x1",
      "l1BlobBaseFeeScalar": "0x0",
      "l1Fee": "0x0",
      "l1GasPrice": "0x1ec068",
      "l1GasUsed": "0x640"
    },
    {
      "status": "0x1",
      "cumulativeGasUsed": "0x59a30",
      "logs": [],
      "logsBloom": "0x00000000000000000000000000000000000000000000000000000000000000000000000000000000000000000000000000000000000000000000000000000000000000000000000000000000000000000000000000000000000000000000000000000000000000000000000000000000000000000000000000000000000000000000000000000000000000000000000000000000000000000000000000000000000000000000000000000000000000000000000000000000000000000000000000000000000000000000000000000000000000000000000000000000000000000000000000000000000000000000000000000000000000000000000000000000",
      "type": "0x2",
      "transactionHash": "0xe7d542aa353b643fbed869961e66364b370fa71acf4ab95583d42d365c3ac61d",
      "transactionIndex": "0x9",
      "blockHash": "0x192a3e15e7e6ce2b6f90e0cc8f72976b4333aaf002ad420b2ecb913de13012af",
      "blockNumber": "0x38979c",
      "gasUsed": "0x8c80",
      "effectiveGasPrice": "0x5d21dba01",
      "from": "0xabcde369cddd1665e4ebd9214b8e9a595271272c",
      "to": "0x7a2f69a58f0dae429cc6de1e6fcb6260041c7464",
      "contractAddress": null,
      "l1BaseFeeScalar": "0x0",
      "l1BlobBaseFee": "0x1",
      "l1BlobBaseFeeScalar": "0x0",
      "l1Fee": "0x0",
      "l1GasPrice": "0x1ec068",
      "l1GasUsed": "0x640"
    },
    {
      "status": "0x1",
      "cumulativeGasUsed": "0x626a4",
      "logs": [],
      "logsBloom": "0x00000000000000000000000000000000000000000000000000000000000000000000000000000000000000000000000000000000000000000000000000000000000000000000000000000000000000000000000000000000000000000000000000000000000000000000000000000000000000000000000000000000000000000000000000000000000000000000000000000000000000000000000000000000000000000000000000000000000000000000000000000000000000000000000000000000000000000000000000000000000000000000000000000000000000000000000000000000000000000000000000000000000000000000000000000000",
      "type": "0x2",
      "transactionHash": "0x10daf14bca74f37fb5660eb36b6ffb88635460ccacbcc523f503c1d1031de44c",
      "transactionIndex": "0xa",
      "blockHash": "0x192a3e15e7e6ce2b6f90e0cc8f72976b4333aaf002ad420b2ecb913de13012af",
      "blockNumber": "0x38979c",
      "gasUsed": "0x8c74",
      "effectiveGasPrice": "0x5d21dba01",
      "from": "0xabcde369cddd1665e4ebd9214b8e9a595271272c",
      "to": "0x97fd9624af571a5291d6b5aa0f7db7de8b5e0398",
      "contractAddress": null,
      "l1BaseFeeScalar": "0x0",
      "l1BlobBaseFee": "0x1",
      "l1BlobBaseFeeScalar": "0x0",
      "l1Fee": "0x0",
      "l1GasPrice": "0x1ec068",
      "l1GasUsed": "0x640"
    },
    {
      "status": "0x1",
      "cumulativeGasUsed": "0x6a834",
      "logs": [],
      "logsBloom": "0x00000000000000000000000000000000000000000000000000000000000000000000000000000000000000000000000000000000000000000000000000000000000000000000000000000000000000000000000000000000000000000000000000000000000000000000000000000000000000000000000000000000000000000000000000000000000000000000000000000000000000000000000000000000000000000000000000000000000000000000000000000000000000000000000000000000000000000000000000000000000000000000000000000000000000000000000000000000000000000000000000000000000000000000000000000000",
      "type": "0x2",
      "transactionHash": "0x49fd24c31139659ad47d2fe18b1176d3babc3ca167dade4589d8bc1433e61982",
      "transactionIndex": "0xb",
      "blockHash": "0x192a3e15e7e6ce2b6f90e0cc8f72976b4333aaf002ad420b2ecb913de13012af",
      "blockNumber": "0x38979c",
      "gasUsed": "0x8190",
      "effectiveGasPrice": "0x5d21dba01",
      "from": "0xabcde369cddd1665e4ebd9214b8e9a595271272c",
      "to": "0x04a1e7bbd987a7f86ca10ea36023884e45e46bd7",
      "contractAddress": null,
      "l1BaseFeeScalar": "0x0",
      "l1BlobBaseFee": "0x1",
      "l1BlobBaseFeeScalar": "0x0",
      "l1Fee": "0x0",
      "l1GasPrice": "0x1ec068",
      "l1GasUsed": "0x640"
    },
    {
      "status": "0x1",
      "cumulativeGasUsed": "0x734c0",
      "logs": [],
      "logsBloom": "0x00000000000000000000000000000000000000000000000000000000000000000000000000000000000000000000000000000000000000000000000000000000000000000000000000000000000000000000000000000000000000000000000000000000000000000000000000000000000000000000000000000000000000000000000000000000000000000000000000000000000000000000000000000000000000000000000000000000000000000000000000000000000000000000000000000000000000000000000000000000000000000000000000000000000000000000000000000000000000000000000000000000000000000000000000000000",
      "type": "0x2",
      "transactionHash": "0xe40b9183e4579a3411d30cce824200c535524bc25e1d1d909b70ea80770570ff",
      "transactionIndex": "0xc",
      "blockHash": "0x192a3e15e7e6ce2b6f90e0cc8f72976b4333aaf002ad420b2ecb913de13012af",
      "blockNumber": "0x38979c",
      "gasUsed": "0x8c8c",
      "effectiveGasPrice": "0x5d21dba01",
      "from": "0xabcde369cddd1665e4ebd9214b8e9a595271272c",
      "to": "0x56029056ccc623115d05473cee7d1aacac830185",
      "contractAddress": null,
      "l1BaseFeeScalar": "0x0",
      "l1BlobBaseFee": "0x1",
      "l1BlobBaseFeeScalar": "0x0",
      "l1Fee": "0x0",
      "l1GasPrice": "0x1ec068",
      "l1GasUsed": "0x640"
    },
    {
      "status": "0x1",
      "cumulativeGasUsed": "0x7c140",
      "logs": [],
      "logsBloom": "0x00000000000000000000000000000000000000000000000000000000000000000000000000000000000000000000000000000000000000000000000000000000000000000000000000000000000000000000000000000000000000000000000000000000000000000000000000000000000000000000000000000000000000000000000000000000000000000000000000000000000000000000000000000000000000000000000000000000000000000000000000000000000000000000000000000000000000000000000000000000000000000000000000000000000000000000000000000000000000000000000000000000000000000000000000000000",
      "type": "0x2",
      "transactionHash": "0xc41abf3bbbe192376937f3285f3171162f77a7b4f3cb1c385fac2e924a127ca6",
      "transactionIndex": "0xd",
      "blockHash": "0x192a3e15e7e6ce2b6f90e0cc8f72976b4333aaf002ad420b2ecb913de13012af",
      "blockNumber": "0x38979c",
      "gasUsed": "0x8c80",
      "effectiveGasPrice": "0x5d21dba01",
      "from": "0xabcde369cddd1665e4ebd9214b8e9a595271272c",
      "to": "0x1d866336d9c2f1c9737aca853347838e0a9e0559",
      "contractAddress": null,
      "l1BaseFeeScalar": "0x0",
      "l1BlobBaseFee": "0x1",
      "l1BlobBaseFeeScalar": "0x0",
      "l1Fee": "0x0",
      "l1GasPrice": "0x1ec068",
      "l1GasUsed": "0x640"
    },
    {
      "status": "0x1",
      "cumulativeGasUsed": "0x84dcc",
      "logs": [],
      "logsBloom": "0x00000000000000000000000000000000000000000000000000000000000000000000000000000000000000000000000000000000000000000000000000000000000000000000000000000000000000000000000000000000000000000000000000000000000000000000000000000000000000000000000000000000000000000000000000000000000000000000000000000000000000000000000000000000000000000000000000000000000000000000000000000000000000000000000000000000000000000000000000000000000000000000000000000000000000000000000000000000000000000000000000000000000000000000000000000000",
      "type": "0x2",
      "transactionHash": "0x251aab39afb88d591ad87c2a9887fe845eb30919d52f34d158625d070fcb253e",
      "transactionIndex": "0xe",
      "blockHash": "0x192a3e15e7e6ce2b6f90e0cc8f72976b4333aaf002ad420b2ecb913de13012af",
      "blockNumber": "0x38979c",
      "gasUsed": "0x8c8c",
      "effectiveGasPrice": "0x5d21dba01",
      "from": "0xabcde369cddd1665e4ebd9214b8e9a595271272c",
      "to": "0x8c947e599bea1f0469d5e2633a6e030910336d11",
      "contractAddress": null,
      "l1BaseFeeScalar": "0x0",
      "l1BlobBaseFee": "0x1",
      "l1BlobBaseFeeScalar": "0x0",
      "l1Fee": "0x0",
      "l1GasPrice": "0x1ec068",
      "l1GasUsed": "0x640"
    },
    {
      "status": "0x1",
      "cumulativeGasUsed": "0x8da58",
      "logs": [],
      "logsBloom": "0x00000000000000000000000000000000000000000000000000000000000000000000000000000000000000000000000000000000000000000000000000000000000000000000000000000000000000000000000000000000000000000000000000000000000000000000000000000000000000000000000000000000000000000000000000000000000000000000000000000000000000000000000000000000000000000000000000000000000000000000000000000000000000000000000000000000000000000000000000000000000000000000000000000000000000000000000000000000000000000000000000000000000000000000000000000000",
      "type": "0x2",
      "transactionHash": "0xeb5a7129b2600e7f88498e22d86f4e386b002c64400e584086a54e2e79be40f3",
      "transactionIndex": "0xf",
      "blockHash": "0x192a3e15e7e6ce2b6f90e0cc8f72976b4333aaf002ad420b2ecb913de13012af",
      "blockNumber": "0x38979c",
      "gasUsed": "0x8c8c",
      "effectiveGasPrice": "0x5d21dba01",
      "from": "0xabcde369cddd1665e4ebd9214b8e9a595271272c",
      "to": "0xdee315fc7023de5a99fbc68a1ca6c0266a897b17",
      "contractAddress": null,
      "l1BaseFeeScalar": "0x0",
      "l1BlobBaseFee": "0x1",
      "l1BlobBaseFeeScalar": "0x0",
      "l1Fee": "0x0",
      "l1GasPrice": "0x1ec068",
      "l1GasUsed": "0x640"
    },
    {
      "status": "0x1",
      "cumulativeGasUsed": "0x966e4",
      "logs": [],
      "logsBloom": "0x00000000000000000000000000000000000000000000000000000000000000000000000000000000000000000000000000000000000000000000000000000000000000000000000000000000000000000000000000000000000000000000000000000000000000000000000000000000000000000000000000000000000000000000000000000000000000000000000000000000000000000000000000000000000000000000000000000000000000000000000000000000000000000000000000000000000000000000000000000000000000000000000000000000000000000000000000000000000000000000000000000000000000000000000000000000",
      "type": "0x2",
      "transactionHash": "0x4a9009ad962e7da9a8d6035f4cf24146c90b3602a9825f3dd1e3d77c67b9ba8d",
      "transactionIndex": "0x10",
      "blockHash": "0x192a3e15e7e6ce2b6f90e0cc8f72976b4333aaf002ad420b2ecb913de13012af",
      "blockNumber": "0x38979c",
      "gasUsed": "0x8c8c",
      "effectiveGasPrice": "0x5d21dba01",
      "from": "0xabcde369cddd1665e4ebd9214b8e9a595271272c",
      "to": "0x703691155cd4006ed14361023ec35599cfb33a19",
      "contractAddress": null,
      "l1BaseFeeScalar": "0x0",
      "l1BlobBaseFee": "0x1",
      "l1BlobBaseFeeScalar": "0x0",
      "l1Fee": "0x0",
      "l1GasPrice": "0x1ec068",
      "l1GasUsed": "0x640"
    },
    {
      "status": "0x1",
      "cumulativeGasUsed": "0x9f364",
      "logs": [],
      "logsBloom": "0x00000000000000000000000000000000000000000000000000000000000000000000000000000000000000000000000000000000000000000000000000000000000000000000000000000000000000000000000000000000000000000000000000000000000000000000000000000000000000000000000000000000000000000000000000000000000000000000000000000000000000000000000000000000000000000000000000000000000000000000000000000000000000000000000000000000000000000000000000000000000000000000000000000000000000000000000000000000000000000000000000000000000000000000000000000000",
      "type": "0x2",
      "transactionHash": "0xdeaef855edfb982a514bbb71677cd824b1b1dbf66318f24adf88272d958b663e",
      "transactionIndex": "0x11",
      "blockHash": "0x192a3e15e7e6ce2b6f90e0cc8f72976b4333aaf002ad420b2ecb913de13012af",
      "blockNumber": "0x38979c",
      "gasUsed": "0x8c80",
      "effectiveGasPrice": "0x5d21dba01",
      "from": "0xabcde369cddd1665e4ebd9214b8e9a595271272c",
      "to": "0x8003d6ea2954e8fa12c420e189777b2a7d989653",
      "contractAddress": null,
      "l1BaseFeeScalar": "0x0",
      "l1BlobBaseFee": "0x1",
      "l1BlobBaseFeeScalar": "0x0",
      "l1Fee": "0x0",
      "l1GasPrice": "0x1ec068",
      "l1GasUsed": "0x640"
    },
    {
      "status": "0x1",
      "cumulativeGasUsed": "0xa8014",
      "logs": [],
      "logsBloom": "0x00000000000000000000000000000000000000000000000000000000000000000000000000000000000000000000000000000000000000000000000000000000000000000000000000000000000000000000000000000000000000000000000000000000000000000000000000000000000000000000000000000000000000000000000000000000000000000000000000000000000000000000000000000000000000000000000000000000000000000000000000000000000000000000000000000000000000000000000000000000000000000000000000000000000000000000000000000000000000000000000000000000000000000000000000000000",
      "type": "0x2",
      "transactionHash": "0xc0b75e4e95b8943f20213649bb63d0f793fbf95155af225aa0b3fa5518fdfc78",
      "transactionIndex": "0x12",
      "blockHash": "0x192a3e15e7e6ce2b6f90e0cc8f72976b4333aaf002ad420b2ecb913de13012af",
      "blockNumber": "0x38979c",
      "gasUsed": "0x8cb0",
      "effectiveGasPrice": "0x5d21dba01",
      "from": "0xabcde369cddd1665e4ebd9214b8e9a595271272c",
      "to": "0x5db4a1e964ce93f994ff56aaf96b39de73f073da",
      "contractAddress": null,
      "l1BaseFeeScalar": "0x0",
      "l1BlobBaseFee": "0x1",
      "l1BlobBaseFeeScalar": "0x0",
      "l1Fee": "0x0",
      "l1GasPrice": "0x1ec068",
      "l1GasUsed": "0x640"
    },
    {
      "status": "0x1",
      "cumulativeGasUsed": "0xcdfc8",
      "logs": [
        {
          "address": "0x691ab9aff4a36e1fcb9c2d9a366cc0e176c5e4fc",
          "topics": [
            "0x7cebb17173a9ed273d2b7538f64395c0ebf352ff743f1cf8ce66b437a6144213",
            "0x00000000000000000000000081a313ff894bfc6093d33b5514e34d7faa41b7ef",
            "0x0000000000000000000000002053c6091491a572bcd8baa96f693ca77df25ccf"
          ],
          "data": "0x0000000000000000000000000000000000000000000000000000000068b9953000000000000000000000000000000000000000000000d3b859ce569beeb00000",
          "blockHash": "0x192a3e15e7e6ce2b6f90e0cc8f72976b4333aaf002ad420b2ecb913de13012af",
          "blockNumber": "0x38979c",
          "transactionHash": "0xdce33861c90ee0f1d12fb49c695bce3aa458ae65e1421fdebfdb27113e90d9a0",
          "transactionIndex": "0x13",
          "logIndex": "0x0",
          "removed": false
        },
        {
          "address": "0x691ab9aff4a36e1fcb9c2d9a366cc0e176c5e4fc",
          "topics": [
            "0xa9981ebfc3b766a742486e898f54959b050a66006dbce1a4155c1f84a08bcf41",
            "0x00000000000000000000000081a313ff894bfc6093d33b5514e34d7faa41b7ef"
          ],
          "data": "0x00000000000000000000000000000000000000000000d3b859ce569beeb00000",
          "blockHash": "0x192a3e15e7e6ce2b6f90e0cc8f72976b4333aaf002ad420b2ecb913de13012af",
          "blockNumber": "0x38979c",
          "transactionHash": "0xdce33861c90ee0f1d12fb49c695bce3aa458ae65e1421fdebfdb27113e90d9a0",
          "transactionIndex": "0x13",
          "logIndex": "0x1",
          "removed": false
        }
      ],
      "logsBloom": "0x00800000000000000000000000000000000000000040000000000000000000000000000000000000000800000000000800000000000000000000000000100000000000200000000000000000000000000000000004000000000000000000000000000000000000008000000000008000000000000000000000000000000000000000000000000000400000000000000000000002000000000000000000000000200000800000000000000008000000000000008000000000000000000000000000000000000000000000000000000000000000000000000000000000000000000000000000000000000000000000000000000000000000000000000000000000",
      "type": "0x2",
      "transactionHash": "0xdce33861c90ee0f1d12fb49c695bce3aa458ae65e1421fdebfdb27113e90d9a0",
      "transactionIndex": "0x13",
      "blockHash": "0x192a3e15e7e6ce2b6f90e0cc8f72976b4333aaf002ad420b2ecb913de13012af",
      "blockNumber": "0x38979c",
      "gasUsed": "0x25fb4",
      "effectiveGasPrice": "0x5d21dba01",
      "from": "0xabcde369cddd1665e4ebd9214b8e9a595271272c",
      "to": "0x2053c6091491a572bcd8baa96f693ca77df25ccf",
      "contractAddress": null,
      "l1BaseFeeScalar": "0x0",
      "l1BlobBaseFee": "0x1",
      "l1BlobBaseFeeScalar": "0x0",
      "l1Fee": "0x0",
      "l1GasPrice": "0x1ec068",
      "l1GasUsed": "0x640"
    },
    {
      "status": "0x1",
      "cumulativeGasUsed": "0xf3f7c",
      "logs": [
        {
          "address": "0x691ab9aff4a36e1fcb9c2d9a366cc0e176c5e4fc",
          "topics": [
            "0x7cebb17173a9ed273d2b7538f64395c0ebf352ff743f1cf8ce66b437a6144213",
            "0x000000000000000000000000ac414205651f4a62b614b6be9e5318a182c33eb0",
            "0x000000000000000000000000737285328116fcc9edab850d6fa1583fae1152ce"
          ],
          "data": "0x0000000000000000000000000000000000000000000000000000000068b9953000000000000000000000000000000000000000000000d3cdd8e76ba670160000",
          "blockHash": "0x192a3e15e7e6ce2b6f90e0cc8f72976b4333aaf002ad420b2ecb913de13012af",
          "blockNumber": "0x38979c",
          "transactionHash": "0x757ebced2378d227cf423e0e6e18e0790925a9f13137b5c7f214fac36df3215a",
          "transactionIndex": "0x14",
          "logIndex": "0x2",
          "removed": false
        },
        {
          "address": "0x691ab9aff4a36e1fcb9c2d9a366cc0e176c5e4fc",
          "topics": [
            "0xa9981ebfc3b766a742486e898f54959b050a66006dbce1a4155c1f84a08bcf41",
            "0x000000000000000000000000ac414205651f4a62b614b6be9e5318a182c33eb0"
          ],
          "data": "0x00000000000000000000000000000000000000000000d3cdd8e76ba670160000",
          "blockHash": "0x192a3e15e7e6ce2b6f90e0cc8f72976b4333aaf002ad420b2ecb913de13012af",
          "blockNumber": "0x38979c",
          "transactionHash": "0x757ebced2378d227cf423e0e6e18e0790925a9f13137b5c7f214fac36df3215a",
          "transactionIndex": "0x14",
          "logIndex": "0x3",
          "removed": false
        }
      ],
      "logsBloom": "0x00800000000000000000000000000000000000000000000000000000000000000000000000000000000000000000000800800000000000000000000008100000000000000000000000000000000000000000000004000000000000400000000000000000000000000000400000008000000000000000000000000002000000000000000000000000400000000000000000000000000000000000000000000000200000800000000000000008000000000000000000000000000000000000000000000000000000000000000000000000000000000000000000000000000000000000000000000000000000000000000000000000008000000000000000000000",
      "type": "0x2",
      "transactionHash": "0x757ebced2378d227cf423e0e6e18e0790925a9f13137b5c7f214fac36df3215a",
      "transactionIndex": "0x14",
      "blockHash": "0x192a3e15e7e6ce2b6f90e0cc8f72976b4333aaf002ad420b2ecb913de13012af",
      "blockNumber": "0x38979c",
      "gasUsed": "0x25fb4",
      "effectiveGasPrice": "0x5d21dba01",
      "from": "0xabcde369cddd1665e4ebd9214b8e9a595271272c",
      "to": "0x737285328116fcc9edab850d6fa1583fae1152ce",
      "contractAddress": null,
      "l1BaseFeeScalar": "0x0",
      "l1BlobBaseFee": "0x1",
      "l1BlobBaseFeeScalar": "0x0",
      "l1Fee": "0x0",
      "l1GasPrice": "0x1ec068",
      "l1GasUsed": "0x640"
    },
    {
      "status": "0x1",
      "cumulativeGasUsed": "0x11ce12",
      "logs": [
        {
          "address": "0x691ab9aff4a36e1fcb9c2d9a366cc0e176c5e4fc",
          "topics": [
            "0x7cebb17173a9ed273d2b7538f64395c0ebf352ff743f1cf8ce66b437a6144213",
            "0x000000000000000000000000f549d6558bc78524d4beb33cf83a26b4862b2468",
            "0x000000000000000000000000411fac2c99957651f9cc93d4852d4346f929c61e"
          ],
          "data": "0x0000000000000000000000000000000000000000000000000000000068b9953000000000000000000000000000000000000000000000d3c21bcecceda0f0bdc0",
          "blockHash": "0x192a3e15e7e6ce2b6f90e0cc8f72976b4333aaf002ad420b2ecb913de13012af",
          "blockNumber": "0x38979c",
          "transactionHash": "0x89a0cc1c0fb0ac06caa441bc7ccedd806d75ca1a2d97bd5b73a73da83017e77f",
          "transactionIndex": "0x15",
          "logIndex": "0x4",
          "removed": false
        },
        {
          "address": "0x691ab9aff4a36e1fcb9c2d9a366cc0e176c5e4fc",
          "topics": [
            "0xa9981ebfc3b766a742486e898f54959b050a66006dbce1a4155c1f84a08bcf41",
            "0x000000000000000000000000f549d6558bc78524d4beb33cf83a26b4862b2468"
          ],
          "data": "0x00000000000000000000000000000000000000000000d3c21bcecceda0f0bdc0",
          "blockHash": "0x192a3e15e7e6ce2b6f90e0cc8f72976b4333aaf002ad420b2ecb913de13012af",
          "blockNumber": "0x38979c",
          "transactionHash": "0x89a0cc1c0fb0ac06caa441bc7ccedd806d75ca1a2d97bd5b73a73da83017e77f",
          "transactionIndex": "0x15",
          "logIndex": "0x5",
          "removed": false
        }
      ],
      "logsBloom": "0x00800000000000000000001000000000000000000000000000000000000000000000000000000000000000000000000800000000000000200000000000100000000000000000000000000000800000000000000004000000000000000000000000000000000000000000000000008000000000000000000000000000000000000000000000000000400000000000001000000000000000000008000000000000200000800000000000000008000000000000000000000000000000000000000000000000000000000000000000000000000000000000000000000000000000000000000000000000000000000000000000000000000000000000000000000020",
      "type": "0x2",
      "transactionHash": "0x89a0cc1c0fb0ac06caa441bc7ccedd806d75ca1a2d97bd5b73a73da83017e77f",
      "transactionIndex": "0x15",
      "blockHash": "0x192a3e15e7e6ce2b6f90e0cc8f72976b4333aaf002ad420b2ecb913de13012af",
      "blockNumber": "0x38979c",
      "gasUsed": "0x28e96",
      "effectiveGasPrice": "0x5d21dba01",
      "from": "0xabcde369cddd1665e4ebd9214b8e9a595271272c",
      "to": "0x411fac2c99957651f9cc93d4852d4346f929c61e",
      "contractAddress": null,
      "l1BaseFeeScalar": "0x0",
      "l1BlobBaseFee": "0x1",
      "l1BlobBaseFeeScalar": "0x0",
      "l1Fee": "0x0",
      "l1GasPrice": "0x1ec068",
      "l1GasUsed": "0x640"
    },
    {
      "status": "0x1",
      "cumulativeGasUsed": "0x142dc6",
      "logs": [
        {
          "address": "0x691ab9aff4a36e1fcb9c2d9a366cc0e176c5e4fc",
          "topics": [
            "0x7cebb17173a9ed273d2b7538f64395c0ebf352ff743f1cf8ce66b437a6144213",
            "0x0000000000000000000000008081ce55dc0f6f1e45ab2828d2f7da2a01113084",
            "0x000000000000000000000000dbbe66b2ec5f1539c0c79ecf5fab12a94c1c7d7b"
          ],
          "data": "0x0000000000000000000000000000000000000000000000000000000068b99530000000000000000000000000000000000000000000003e068438d392ef850000",
          "blockHash": "0x192a3e15e7e6ce2b6f90e0cc8f72976b4333aaf002ad420b2ecb913de13012af",
          "blockNumber": "0x38979c",
          "transactionHash": "0xb3e048e26db57198b7e6a2ba0278ae0492bece92924e45a660c1f3773cfe5d4e",
          "transactionIndex": "0x16",
          "logIndex": "0x6",
          "removed": false
        },
        {
          "address": "0x691ab9aff4a36e1fcb9c2d9a366cc0e176c5e4fc",
          "topics": [
            "0xa9981ebfc3b766a742486e898f54959b050a66006dbce1a4155c1f84a08bcf41",
            "0x0000000000000000000000008081ce55dc0f6f1e45ab2828d2f7da2a01113084"
          ],
          "data": "0x000000000000000000000000000000000000000000003e068438d392ef850000",
          "blockHash": "0x192a3e15e7e6ce2b6f90e0cc8f72976b4333aaf002ad420b2ecb913de13012af",
          "blockNumber": "0x38979c",
          "transactionHash": "0xb3e048e26db57198b7e6a2ba0278ae0492bece92924e45a660c1f3773cfe5d4e",
          "transactionIndex": "0x16",
          "logIndex": "0x7",
          "removed": false
        }
      ],
      "logsBloom": "0x02800000000000000000000000000000000000002000000000000000000000000000000000000000000000000000000800000000000000000000000000100000000000000000000000000000000000000000000004000000000000000000000000000000000000000000000000008000000000000080000000000000000000000000000000000000400000000000000000000000000000080000000000000000200000800000000000000008000000000000000000000000000000000000000000000000000000001000000000200000000000000000000000000000000000000000000000000000000000000000000000000000000000000000000000000000",
      "type": "0x2",
      "transactionHash": "0xb3e048e26db57198b7e6a2ba0278ae0492bece92924e45a660c1f3773cfe5d4e",
      "transactionIndex": "0x16",
      "blockHash": "0x192a3e15e7e6ce2b6f90e0cc8f72976b4333aaf002ad420b2ecb913de13012af",
      "blockNumber": "0x38979c",
      "gasUsed": "0x25fb4",
      "effectiveGasPrice": "0x5d21dba01",
      "from": "0xabcde369cddd1665e4ebd9214b8e9a595271272c",
      "to": "0xdbbe66b2ec5f1539c0c79ecf5fab12a94c1c7d7b",
      "contractAddress": null,
      "l1BaseFeeScalar": "0x0",
      "l1BlobBaseFee": "0x1",
      "l1BlobBaseFeeScalar": "0x0",
      "l1Fee": "0x0",
      "l1GasPrice": "0x1ec068",
      "l1GasUsed": "0x640"
    },
    {
      "status": "0x1",
      "cumulativeGasUsed": "0x168d7a",
      "logs": [
        {
          "address": "0x691ab9aff4a36e1fcb9c2d9a366cc0e176c5e4fc",
          "topics": [
            "0x7cebb17173a9ed273d2b7538f64395c0ebf352ff743f1cf8ce66b437a6144213",
            "0x000000000000000000000000ec57482aa55e3ad026c315a0e4a692b776c318ca",
            "0x0000000000000000000000003bc0add00a414bc1fe0cfb6bde62e03e01a39059"
          ],
          "data": "0x0000000000000000000000000000000000000000000000000000000068b9953000000000000000000000000000000000000000000000f69a4f5589b5d1130000",
          "blockHash": "0x192a3e15e7e6ce2b6f90e0cc8f72976b4333aaf002ad420b2ecb913de13012af",
          "blockNumber": "0x38979c",
          "transactionHash": "0x2943a679679d99249e9853523715781404c475c39f60e41da5099d499cffd7d8",
          "transactionIndex": "0x17",
          "logIndex": "0x8",
          "removed": false
        },
        {
          "address": "0x691ab9aff4a36e1fcb9c2d9a366cc0e176c5e4fc",
          "topics": [
            "0xa9981ebfc3b766a742486e898f54959b050a66006dbce1a4155c1f84a08bcf41",
            "0x000000000000000000000000ec57482aa55e3ad026c315a0e4a692b776c318ca"
          ],
          "data": "0x00000000000000000000000000000000000000000000f69a4f5589b5d1130000",
          "blockHash": "0x192a3e15e7e6ce2b6f90e0cc8f72976b4333aaf002ad420b2ecb913de13012af",
          "blockNumber": "0x38979c",
          "transactionHash": "0x2943a679679d99249e9853523715781404c475c39f60e41da5099d499cffd7d8",
          "transactionIndex": "0x17",
          "logIndex": "0x9",
          "removed": false
        }
      ],
      "logsBloom": "0x00800000000000000000000000000000000000000000000000000000000000000000000000000000000000000000000800000000000000000000800000100000000000001000000000000000000000000000000004000000000000000000000400000000000000000000000000008000000000000000000000000000000000000200000000000000400000000000000000000400000000000000000000000000200000800000000000000008000000000000000000000000000000000000000000000000000000000000000000000000000000000000000020000000000000000000000000000000000000000000000000000000000000000000000000000000",
      "type": "0x2",
      "transactionHash": "0x2943a679679d99249e9853523715781404c475c39f60e41da5099d499cffd7d8",
      "transactionIndex": "0x17",
      "blockHash": "0x192a3e15e7e6ce2b6f90e0cc8f72976b4333aaf002ad420b2ecb913de13012af",
      "blockNumber": "0x38979c",
      "gasUsed": "0x25fb4",
      "effectiveGasPrice": "0x5d21dba01",
      "from": "0xabcde369cddd1665e4ebd9214b8e9a595271272c",
      "to": "0x3bc0add00a414bc1fe0cfb6bde62e03e01a39059",
      "contractAddress": null,
      "l1BaseFeeScalar": "0x0",
      "l1BlobBaseFee": "0x1",
      "l1BlobBaseFeeScalar": "0x0",
      "l1Fee": "0x0",
      "l1GasPrice": "0x1ec068",
      "l1GasUsed": "0x640"
    },
    {
      "status": "0x1",
      "cumulativeGasUsed": "0x18ed2e",
      "logs": [
        {
          "address": "0x691ab9aff4a36e1fcb9c2d9a366cc0e176c5e4fc",
          "topics": [
            "0x7cebb17173a9ed273d2b7538f64395c0ebf352ff743f1cf8ce66b437a6144213",
            "0x000000000000000000000000669bcf7bdb701e3b15799d2732c0518cf3b65507",
            "0x000000000000000000000000f4ed3b0f01cf978a56fcaca96e4537c60542edd5"
          ],
          "data": "0x0000000000000000000000000000000000000000000000000000000068b995300000000000000000000000000000000000000000000026d610cc45d4afa20000",
          "blockHash": "0x192a3e15e7e6ce2b6f90e0cc8f72976b4333aaf002ad420b2ecb913de13012af",
          "blockNumber": "0x38979c",
          "transactionHash": "0xe4e820571f409d22dfc50c2e7cba950762ae9e17307858a097d14fb6d6c3600a",
          "transactionIndex": "0x18",
          "logIndex": "0xa",
          "removed": false
        },
        {
          "address": "0x691ab9aff4a36e1fcb9c2d9a366cc0e176c5e4fc",
          "topics": [
            "0xa9981ebfc3b766a742486e898f54959b050a66006dbce1a4155c1f84a08bcf41",
            "0x000000000000000000000000669bcf7bdb701e3b15799d2732c0518cf3b65507"
          ],
          "data": "0x0000000000000000000000000000000000000000000026d610cc45d4afa20000",
          "blockHash": "0x192a3e15e7e6ce2b6f90e0cc8f72976b4333aaf002ad420b2ecb913de13012af",
          "blockNumber": "0x38979c",
          "transactionHash": "0xe4e820571f409d22dfc50c2e7cba950762ae9e17307858a097d14fb6d6c3600a",
          "transactionIndex": "0x18",
          "logIndex": "0xb",
          "removed": false
        }
      ],
      "logsBloom": "0x00800000000000000000000000000000000000000000000000000000000000000000000000000000000000000000000800000000000000000000000000100004000000000000000000000000000000000000000004000000000000000000000000000000000000000000000000008000000000000000000800040000000000000000000000000000400000000000000000000000000000000000000000000000200000800000000000000008000000040000000000000000000000000000000000000000000000000400000000000000000000000000000000000000000000000000000000000000000000000000000000000000000000000800000000000000",
      "type": "0x2",
      "transactionHash": "0xe4e820571f409d22dfc50c2e7cba950762ae9e17307858a097d14fb6d6c3600a",
      "transactionIndex": "0x18",
      "blockHash": "0x192a3e15e7e6ce2b6f90e0cc8f72976b4333aaf002ad420b2ecb913de13012af",
      "blockNumber": "0x38979c",
      "gasUsed": "0x25fb4",
      "effectiveGasPrice": "0x5d21dba01",
      "from": "0xabcde369cddd1665e4ebd9214b8e9a595271272c",
      "to": "0xf4ed3b0f01cf978a56fcaca96e4537c60542edd5",
      "contractAddress": null,
      "l1BaseFeeScalar": "0x0",
      "l1BlobBaseFee": "0x1",
      "l1BlobBaseFeeScalar": "0x0",
      "l1Fee": "0x0",
      "l1GasPrice": "0x1ec068",
      "l1GasUsed": "0x640"
    },
    {
      "status": "0x1",
      "cumulativeGasUsed": "0x1b3b77",
      "logs": [
        {
          "address": "0x691ab9aff4a36e1fcb9c2d9a366cc0e176c5e4fc",
          "topics": [
            "0x7cebb17173a9ed273d2b7538f64395c0ebf352ff743f1cf8ce66b437a6144213",
            "0x000000000000000000000000bb792783141ac5f51eed9c922acf86d21a059ca8",
            "0x000000000000000000000000f764861a23096bf289232300b51f202dd902e04d"
          ],
          "data": "0x0000000000000000000000000000000000000000000000000000000068b995300000000000000000000000000000000000000000000000604919562291d51ac0",
          "blockHash": "0x192a3e15e7e6ce2b6f90e0cc8f72976b4333aaf002ad420b2ecb913de13012af",
          "blockNumber": "0x38979c",
          "transactionHash": "0xffd9e6831abc9a41ba9d3c4426e2a8d22a1d71690f804e53322cc2fea83e0c4d",
          "transactionIndex": "0x19",
          "logIndex": "0xc",
          "removed": false
        }
      ],
      "logsBloom": "0x00800008000000000000000000000000000000000010000000000000000000000000000000000000000000000000000800000000000000000000000000100000000000000000000000000000000000000000000000800000000000000000000000000000000000000000000000008000000000000000000000000000000000000000000000000000000000000000000000100000000000000000000000000000200000000000000000000008000000000000000000000000000000000000000000000000000000000000000000000000000000000000000000000000000000000000000000000004000000000000000000000000000000000000040000000000",
      "type": "0x2",
      "transactionHash": "0xffd9e6831abc9a41ba9d3c4426e2a8d22a1d71690f804e53322cc2fea83e0c4d",
      "transactionIndex": "0x19",
      "blockHash": "0x192a3e15e7e6ce2b6f90e0cc8f72976b4333aaf002ad420b2ecb913de13012af",
      "blockNumber": "0x38979c",
      "gasUsed": "0x24e49",
      "effectiveGasPrice": "0x5d21dba01",
      "from": "0xabcde369cddd1665e4ebd9214b8e9a595271272c",
      "to": "0xf764861a23096bf289232300b51f202dd902e04d",
      "contractAddress": null,
      "l1BaseFeeScalar": "0x0",
      "l1BlobBaseFee": "0x1",
      "l1BlobBaseFeeScalar": "0x0",
      "l1Fee": "0x0",
      "l1GasPrice": "0x1ec068",
      "l1GasUsed": "0x640"
    },
    {
      "status": "0x1",
      "cumulativeGasUsed": "0x1d9a60",
      "logs": [
        {
          "address": "0x691ab9aff4a36e1fcb9c2d9a366cc0e176c5e4fc",
          "topics": [
            "0x7cebb17173a9ed273d2b7538f64395c0ebf352ff743f1cf8ce66b437a6144213",
            "0x000000000000000000000000ef40371a602409f86f9ac4e37580c59dee61199f",
            "0x000000000000000000000000cc08331daa33ca9a97f3feb2b73d9f393eb921c1"
          ],
          "data": "0x0000000000000000000000000000000000000000000000000000000068b995300000000000000000000000000000000000000000000001a3bfb603d3e99c0000",
          "blockHash": "0x192a3e15e7e6ce2b6f90e0cc8f72976b4333aaf002ad420b2ecb913de13012af",
          "blockNumber": "0x38979c",
          "transactionHash": "0x9dc03e07773f439336a451efc36fc8f6f291e22d757db020cd049afef9ef1263",
          "transactionIndex": "0x1a",
          "logIndex": "0xd",
          "removed": false
        },
        {
          "address": "0x691ab9aff4a36e1fcb9c2d9a366cc0e176c5e4fc",
          "topics": [
            "0xa9981ebfc3b766a742486e898f54959b050a66006dbce1a4155c1f84a08bcf41",
            "0x000000000000000000000000ef40371a602409f86f9ac4e37580c59dee61199f"
          ],
          "data": "0x0000000000000000000000000000000000000000000001a3bfb603d3e99c0000",
          "blockHash": "0x192a3e15e7e6ce2b6f90e0cc8f72976b4333aaf002ad420b2ecb913de13012af",
          "blockNumber": "0x38979c",
          "transactionHash": "0x9dc03e07773f439336a451efc36fc8f6f291e22d757db020cd049afef9ef1263",
          "transactionIndex": "0x1a",
          "logIndex": "0xe",
          "removed": false
        }
      ],
      "logsBloom": "0x00800000000000000000000000000000000000000000000000000000000000000000000000000000000000000000000800000000000000000000100000100000000000000000000000000000000000000000000004000000000000000000000000000000000000000000000000008000000000000000000000000000000000000000000000000000400000000000000000000000000000000000000000000000200000800000000000000008000000000000000000000000000000000000000000000000000000000020400000000000000000000000000000000000000000000000000000000000000000000000000000000000000000001000010004000000",
      "type": "0x2",
      "transactionHash": "0x9dc03e07773f439336a451efc36fc8f6f291e22d757db020cd049afef9ef1263",
      "transactionIndex": "0x1a",
      "blockHash": "0x192a3e15e7e6ce2b6f90e0cc8f72976b4333aaf002ad420b2ecb913de13012af",
      "blockNumber": "0x38979c",
      "gasUsed": "0x25ee9",
      "effectiveGasPrice": "0x5d21dba01",
      "from": "0xabcde369cddd1665e4ebd9214b8e9a595271272c",
      "to": "0xcc08331daa33ca9a97f3feb2b73d9f393eb921c1",
      "contractAddress": null,
      "l1BaseFeeScalar": "0x0",
      "l1BlobBaseFee": "0x1",
      "l1BlobBaseFeeScalar": "0x0",
      "l1Fee": "0x0",
      "l1GasPrice": "0x1ec068",
      "l1GasUsed": "0x640"
    },
    {
      "status": "0x1",
      "cumulativeGasUsed": "0x1ffa14",
      "logs": [
        {
          "address": "0x691ab9aff4a36e1fcb9c2d9a366cc0e176c5e4fc",
          "topics": [
            "0x7cebb17173a9ed273d2b7538f64395c0ebf352ff743f1cf8ce66b437a6144213",
            "0x000000000000000000000000aa04d30cced09ae17815f88d1bcae69a49fb160f",
            "0x0000000000000000000000008b74bca4c87207380292f0844b1c0abe2ef60c54"
          ],
          "data": "0x0000000000000000000000000000000000000000000000000000000068b995300000000000000000000000000000000000000000000003b51390e0fa72910000",
          "blockHash": "0x192a3e15e7e6ce2b6f90e0cc8f72976b4333aaf002ad420b2ecb913de13012af",
          "blockNumber": "0x38979c",
          "transactionHash": "0x4459c30383d5a4874d59365f9fe280641603ca025a04b4cf6aa2a6810bfb6f64",
          "transactionIndex": "0x1b",
          "logIndex": "0xf",
          "removed": false
        },
        {
          "address": "0x691ab9aff4a36e1fcb9c2d9a366cc0e176c5e4fc",
          "topics": [
            "0xa9981ebfc3b766a742486e898f54959b050a66006dbce1a4155c1f84a08bcf41",
            "0x000000000000000000000000aa04d30cced09ae17815f88d1bcae69a49fb160f"
          ],
          "data": "0x0000000000000000000000000000000000000000000003b51390e0fa72910000",
          "blockHash": "0x192a3e15e7e6ce2b6f90e0cc8f72976b4333aaf002ad420b2ecb913de13012af",
          "blockNumber": "0x38979c",
          "transactionHash": "0x4459c30383d5a4874d59365f9fe280641603ca025a04b4cf6aa2a6810bfb6f64",
          "transactionIndex": "0x1b",
          "logIndex": "0x10",
          "removed": false
        }
      ],
      "logsBloom": "0x00800000000000000000000000000000000000000000000000000000000000000000000001000000800000000000000800000000000000000000000000100000000000000000000000000000000000000000000004000000000000000000000000000000000000000000000000008000000000000000000000000000000000000000000000000000400000000000000000000000000000000000000000000000200000800000000000000008000000000200000000000000000000000000000000000000080008000000000000000000000000000000001000000000000000000000000000000000000000000000000000000000000000000000000000000000",
      "type": "0x2",
      "transactionHash": "0x4459c30383d5a4874d59365f9fe280641603ca025a04b4cf6aa2a6810bfb6f64",
      "transactionIndex": "0x1b",
      "blockHash": "0x192a3e15e7e6ce2b6f90e0cc8f72976b4333aaf002ad420b2ecb913de13012af",
      "blockNumber": "0x38979c",
      "gasUsed": "0x25fb4",
      "effectiveGasPrice": "0x5d21dba01",
      "from": "0xabcde369cddd1665e4ebd9214b8e9a595271272c",
      "to": "0x8b74bca4c87207380292f0844b1c0abe2ef60c54",
      "contractAddress": null,
      "l1BaseFeeScalar": "0x0",
      "l1BlobBaseFee": "0x1",
      "l1BlobBaseFeeScalar": "0x0",
      "l1Fee": "0x0",
      "l1GasPrice": "0x1ec068",
      "l1GasUsed": "0x640"
    },
    {
      "status": "0x1",
      "cumulativeGasUsed": "0x2259c8",
      "logs": [
        {
          "address": "0x691ab9aff4a36e1fcb9c2d9a366cc0e176c5e4fc",
          "topics": [
            "0x7cebb17173a9ed273d2b7538f64395c0ebf352ff743f1cf8ce66b437a6144213",
            "0x000000000000000000000000f7b436583e011794293a04faa440816f3354501f",
            "0x000000000000000000000000a5f0ce0cd80e203161709a18378f2c850b64cc56"
          ],
          "data": "0x0000000000000000000000000000000000000000000000000000000068b9953000000000000000000000000000000000000000000000000d8d07d69a28650000",
          "blockHash": "0x192a3e15e7e6ce2b6f90e0cc8f72976b4333aaf002ad420b2ecb913de13012af",
          "blockNumber": "0x38979c",
          "transactionHash": "0x755f2d8fde33ea75823f85411c4fe28c8e479f1f350f6a1d9dac9555a6f99f59",
          "transactionIndex": "0x1c",
          "logIndex": "0x11",
          "removed": false
        },
        {
          "address": "0x691ab9aff4a36e1fcb9c2d9a366cc0e176c5e4fc",
          "topics": [
            "0xa9981ebfc3b766a742486e898f54959b050a66006dbce1a4155c1f84a08bcf41",
            "0x000000000000000000000000f7b436583e011794293a04faa440816f3354501f"
          ],
          "data": "0x00000000000000000000000000000000000000000000000d8d07d69a28650000",
          "blockHash": "0x192a3e15e7e6ce2b6f90e0cc8f72976b4333aaf002ad420b2ecb913de13012af",
          "blockNumber": "0x38979c",
          "transactionHash": "0x755f2d8fde33ea75823f85411c4fe28c8e479f1f350f6a1d9dac9555a6f99f59",
          "transactionIndex": "0x1c",
          "logIndex": "0x12",
          "removed": false
        }
      ],
      "logsBloom": "0x00800000000000000000000000000000000000000000000000000000000000000000000000400000000000000000000800000000000000000000000000100000000000000000000000001002000000000000000004000000000000000000000000000000000000000000000000008000000000000000000000000000000000000000000000000000400000000000000000000000000000000000000004000000200000800000000000000008000000000000000000000000000000000000000000000000000000000000000000000000000000000000000000000000000000010000000000000000000000000000000001000000000000000000000000000000",
      "type": "0x2",
      "transactionHash": "0x755f2d8fde33ea75823f85411c4fe28c8e479f1f350f6a1d9dac9555a6f99f59",
      "transactionIndex": "0x1c",
      "blockHash": "0x192a3e15e7e6ce2b6f90e0cc8f72976b4333aaf002ad420b2ecb913de13012af",
      "blockNumber": "0x38979c",
      "gasUsed": "0x25fb4",
      "effectiveGasPrice": "0x5d21dba01",
      "from": "0xabcde369cddd1665e4ebd9214b8e9a595271272c",
      "to": "0xa5f0ce0cd80e203161709a18378f2c850b64cc56",
      "contractAddress": null,
      "l1BaseFeeScalar": "0x0",
      "l1BlobBaseFee": "0x1",
      "l1BlobBaseFeeScalar": "0x0",
      "l1Fee": "0x0",
      "l1GasPrice": "0x1ec068",
      "l1GasUsed": "0x640"
    },
    {
      "status": "0x1",
      "cumulativeGasUsed": "0x24a8dc",
      "logs": [
        {
          "address": "0x691ab9aff4a36e1fcb9c2d9a366cc0e176c5e4fc",
          "topics": [
            "0x7cebb17173a9ed273d2b7538f64395c0ebf352ff743f1cf8ce66b437a6144213",
            "0x000000000000000000000000812a10b8744a9ad8637e819899d8c33454fe8d20",
            "0x00000000000000000000000001f9629fb13ec2f902cc27f521e5b29e880173b4"
          ],
          "data": "0x0000000000000000000000000000000000000000000000000000000068b995300000000000000000000000000000000000000000000011913bd6f2af56fc0000",
          "blockHash": "0x192a3e15e7e6ce2b6f90e0cc8f72976b4333aaf002ad420b2ecb913de13012af",
          "blockNumber": "0x38979c",
          "transactionHash": "0xd131497fce1da966b8192d5f18e7981b1fe9ba0dbd2f6aef60a361ffecd81b2f",
          "transactionIndex": "0x1d",
          "logIndex": "0x13",
          "removed": false
        }
      ],
      "logsBloom": "0x00800000000000000000000000000000100000000000002000000000000100000000000000000000000000000000000800000000002000000000000000100000000000000000000000000000000000000000000000000000000000000000000000000000000000000000000000008000000000000000000000000000000000000000000000000000000000000000000000000000000000000000000000000000200000000000000000000008000000000000080000000000000000000000000000000000000000000000000000000000000000000000000000000000000000000000000000000000000000000000000000000000000001000000000000000000",
      "type": "0x2",
      "transactionHash": "0xd131497fce1da966b8192d5f18e7981b1fe9ba0dbd2f6aef60a361ffecd81b2f",
      "transactionIndex": "0x1d",
      "blockHash": "0x192a3e15e7e6ce2b6f90e0cc8f72976b4333aaf002ad420b2ecb913de13012af",
      "blockNumber": "0x38979c",
      "gasUsed": "0x24f14",
      "effectiveGasPrice": "0x5d21dba01",
      "from": "0xabcde369cddd1665e4ebd9214b8e9a595271272c",
      "to": "0x01f9629fb13ec2f902cc27f521e5b29e880173b4",
      "contractAddress": null,
      "l1BaseFeeScalar": "0x0",
      "l1BlobBaseFee": "0x1",
      "l1BlobBaseFeeScalar": "0x0",
      "l1Fee": "0x0",
      "l1GasPrice": "0x1ec068",
      "l1GasUsed": "0x640"
    },
    {
      "status": "0x1",
      "cumulativeGasUsed": "0x270890",
      "logs": [
        {
          "address": "0x691ab9aff4a36e1fcb9c2d9a366cc0e176c5e4fc",
          "topics": [
            "0x7cebb17173a9ed273d2b7538f64395c0ebf352ff743f1cf8ce66b437a6144213",
            "0x000000000000000000000000ea4103a6a122fbe2cdb07a80d4d293be07bb29fa",
            "0x000000000000000000000000bea02da2fef22ad1b47d204e592a63c77bd44944"
          ],
          "data": "0x0000000000000000000000000000000000000000000000000000000068b99530000000000000000000000000000000000000000000011ca53a5f0b2b8e200000",
          "blockHash": "0x192a3e15e7e6ce2b6f90e0cc8f72976b4333aaf002ad420b2ecb913de13012af",
          "blockNumber": "0x38979c",
          "transactionHash": "0xde4d9eeac9f9c653629de9d52c821f787d1c8d5be4483539d4d0db1a626475f7",
          "transactionIndex": "0x1e",
          "logIndex": "0x14",
          "removed": false
        },
        {
          "address": "0x691ab9aff4a36e1fcb9c2d9a366cc0e176c5e4fc",
          "topics": [
            "0xa9981ebfc3b766a742486e898f54959b050a66006dbce1a4155c1f84a08bcf41",
            "0x000000000000000000000000ea4103a6a122fbe2cdb07a80d4d293be07bb29fa"
          ],
          "data": "0x000000000000000000000000000000000000000000011ca53a5f0b2b8e200000",
          "blockHash": "0x192a3e15e7e6ce2b6f90e0cc8f72976b4333aaf002ad420b2ecb913de13012af",
          "blockNumber": "0x38979c",
          "transactionHash": "0xde4d9eeac9f9c653629de9d52c821f787d1c8d5be4483539d4d0db1a626475f7",
          "transactionIndex": "0x1e",
          "logIndex": "0x15",
          "removed": false
        }
      ],
      "logsBloom": "0x00800000000000000000000000000000000000000000000000000000000000000000000000000000000000000000000800000000000000000000000000100080000000000000000000000008000000000000000004000000000000000000000800000000000000000040000000008000000000000000000000000000000000000000000010000000400000000000000000000000000000000000000000000000200000800000000000000008000000000000000000000000000000000000000000000000000000000000000000000002000000000000000000000000000000000000000000000000000000000000000000000000000000000000000000000000",
      "type": "0x2",
      "transactionHash": "0xde4d9eeac9f9c653629de9d52c821f787d1c8d5be4483539d4d0db1a626475f7",
      "transactionIndex": "0x1e",
      "blockHash": "0x192a3e15e7e6ce2b6f90e0cc8f72976b4333aaf002ad420b2ecb913de13012af",
      "blockNumber": "0x38979c",
      "gasUsed": "0x25fb4",
      "effectiveGasPrice": "0x5d21dba01",
      "from": "0xabcde369cddd1665e4ebd9214b8e9a595271272c",
      "to": "0xbea02da2fef22ad1b47d204e592a63c77bd44944",
      "contractAddress": null,
      "l1BaseFeeScalar": "0x0",
      "l1BlobBaseFee": "0x1",
      "l1BlobBaseFeeScalar": "0x0",
      "l1Fee": "0x0",
      "l1GasPrice": "0x1ec068",
      "l1GasUsed": "0x640"
    },
    {
      "status": "0x1",
      "cumulativeGasUsed": "0x296844",
      "logs": [
        {
          "address": "0x691ab9aff4a36e1fcb9c2d9a366cc0e176c5e4fc",
          "topics": [
            "0x7cebb17173a9ed273d2b7538f64395c0ebf352ff743f1cf8ce66b437a6144213",
            "0x0000000000000000000000006c4a6765bcfc7e7fc5b01eefe931885a79dde791",
            "0x0000000000000000000000005dfa86d3660a63aaf274e70bf89c9087615a65c3"
          ],
          "data": "0x0000000000000000000000000000000000000000000000000000000068b99530000000000000000000000000000000000000000000000beb9d6d624b58340000",
          "blockHash": "0x192a3e15e7e6ce2b6f90e0cc8f72976b4333aaf002ad420b2ecb913de13012af",
          "blockNumber": "0x38979c",
          "transactionHash": "0x19de38e71cd62fe02a824dd3c425ba88080e67c97a04401e3f400641ac6bec66",
          "transactionIndex": "0x1f",
          "logIndex": "0x16",
          "removed": false
        },
        {
          "address": "0x691ab9aff4a36e1fcb9c2d9a366cc0e176c5e4fc",
          "topics": [
            "0xa9981ebfc3b766a742486e898f54959b050a66006dbce1a4155c1f84a08bcf41",
            "0x0000000000000000000000006c4a6765bcfc7e7fc5b01eefe931885a79dde791"
          ],
          "data": "0x000000000000000000000000000000000000000000000beb9d6d624b58340000",
          "blockHash": "0x192a3e15e7e6ce2b6f90e0cc8f72976b4333aaf002ad420b2ecb913de13012af",
          "blockNumber": "0x38979c",
          "transactionHash": "0x19de38e71cd62fe02a824dd3c425ba88080e67c97a04401e3f400641ac6bec66",
          "transactionIndex": "0x1f",
          "logIndex": "0x17",
          "removed": false
        }
      ],
      "logsBloom": "0x00800000000000000000000000000000000000000000000000000000000000000040000000000000000000000000000800000000000000000000000000100000000000000000000000000000000000000000000004000000000000000000000200000000000020000000000000008000000000000000000000000040000000000000000000000000400000000000000000000000000000000000000000000000200000800000000000000008000000000000000000000000000000000000000000000000000000000000000000000000000000000000000000000000000000000000000000000000000000000000000000000000020000000000000000200000",
      "type": "0x2",
      "transactionHash": "0x19de38e71cd62fe02a824dd3c425ba88080e67c97a04401e3f400641ac6bec66",
      "transactionIndex": "0x1f",
      "blockHash": "0x192a3e15e7e6ce2b6f90e0cc8f72976b4333aaf002ad420b2ecb913de13012af",
      "blockNumber": "0x38979c",
      "gasUsed": "0x25fb4",
      "effectiveGasPrice": "0x5d21dba01",
      "from": "0xabcde369cddd1665e4ebd9214b8e9a595271272c",
      "to": "0x5dfa86d3660a63aaf274e70bf89c9087615a65c3",
      "contractAddress": null,
      "l1BaseFeeScalar": "0x0",
      "l1BlobBaseFee": "0x1",
      "l1BlobBaseFeeScalar": "0x0",
      "l1Fee": "0x0",
      "l1GasPrice": "0x1ec068",
      "l1GasUsed": "0x640"
    },
    {
      "status": "0x1",
      "cumulativeGasUsed": "0x313b8",
      "logs": [
        {
          "address": "0x691ab9aff4a36e1fcb9c2d9a366cc0e176c5e4fc",
          "topics": [
            "0x7cebb17173a9ed273d2b7538f64395c0ebf352ff743f1cf8ce66b437a6144213",
            "0x00000000000000000000000002996d13041557032ffb3e910966f9ea784dfec4",
            "0x00000000000000000000000041cee890564872045e770ed522e3d2bf5ff1acfd"
          ],
          "data": "0x0000000000000000000000000000000000000000000000000000000068b995310000000000000000000000000000000000000000000099489a5b3a2570580000",
          "blockHash": "0x775630ed2f23e2c85bda39b1555b6b04f82680142ca1bbb1c623d6c93402b54c",
          "blockNumber": "0x38979d",
          "transactionHash": "0x256699519cf5e58b0dd02717421ef30d9ca1e68ed84625e6c88ab5b609b43826",
          "transactionIndex": "0x1",
          "logIndex": "0x0",
          "removed": false
        },
        {
          "address": "0x691ab9aff4a36e1fcb9c2d9a366cc0e176c5e4fc",
          "topics": [
            "0xa9981ebfc3b766a742486e898f54959b050a66006dbce1a4155c1f84a08bcf41",
            "0x00000000000000000000000002996d13041557032ffb3e910966f9ea784dfec4"
          ],
          "data": "0x0000000000000000000000000000000000000000000099489a5b3a2570580000",
          "blockHash": "0x775630ed2f23e2c85bda39b1555b6b04f82680142ca1bbb1c623d6c93402b54c",
          "blockNumber": "0x38979d",
          "transactionHash": "0x256699519cf5e58b0dd02717421ef30d9ca1e68ed84625e6c88ab5b609b43826",
          "transactionIndex": "0x1",
          "logIndex": "0x1",
          "removed": false
        }
      ],
      "logsBloom": "0x00800000000000000000000000000000000000000000000000000000400000000000000000000000000000000000000800000000000000000000000000100000000000000000000000000000000000000000000004000000000000000000000000000000000001000000000000008000000010000000000000040000000000000000000000000000400000000000000000000000000000000000000000000000200000a00000000000000008000000000000000000000000000000000000000000000000000000000000000000000000000000000000000000000000000000000000000000000000000000000000008000000000000000000000000000000000",
      "type": "0x2",
      "transactionHash": "0x256699519cf5e58b0dd02717421ef30d9ca1e68ed84625e6c88ab5b609b43826",
      "transactionIndex": "0x1",
      "blockHash": "0x775630ed2f23e2c85bda39b1555b6b04f82680142ca1bbb1c623d6c93402b54c",
      "blockNumber": "0x38979d",
      "gasUsed": "0x25fb4",
      "effectiveGasPrice": "0x5d21dba01",
      "from": "0xabcde369cddd1665e4ebd9214b8e9a595271272c",
      "to": "0x41cee890564872045e770ed522e3d2bf5ff1acfd",
      "contractAddress": null,
      "l1BaseFeeScalar": "0x0",
      "l1BlobBaseFee": "0x1",
      "l1BlobBaseFeeScalar": "0x0",
      "l1Fee": "0x0",
      "l1GasPrice": "0x1ec068",
      "l1GasUsed": "0x640"
    },
    {
      "status": "0x1",
      "cumulativeGasUsed": "0x5736c",
      "logs": [
        {
          "address": "0x691ab9aff4a36e1fcb9c2d9a366cc0e176c5e4fc",
          "topics": [
            "0x7cebb17173a9ed273d2b7538f64395c0ebf352ff743f1cf8ce66b437a6144213",
            "0x0000000000000000000000005c0c9efb14a767ce50a687ac4658cce705407380",
            "0x00000000000000000000000039e6ed41f651624c90778c0f785c283a124bb52a"
          ],
          "data": "0x0000000000000000000000000000000000000000000000000000000068b99531000000000000000000000000000000000000000000008a1809c35b2e00480000",
          "blockHash": "0x775630ed2f23e2c85bda39b1555b6b04f82680142ca1bbb1c623d6c93402b54c",
          "blockNumber": "0x38979d",
          "transactionHash": "0xf128bdd86c93152d034333086c2fa98e6071dda219a9a3bbe537674091b1d403",
          "transactionIndex": "0x2",
          "logIndex": "0x2",
          "removed": false
        },
        {
          "address": "0x691ab9aff4a36e1fcb9c2d9a366cc0e176c5e4fc",
          "topics": [
            "0xa9981ebfc3b766a742486e898f54959b050a66006dbce1a4155c1f84a08bcf41",
            "0x0000000000000000000000005c0c9efb14a767ce50a687ac4658cce705407380"
          ],
          "data": "0x000000000000000000000000000000000000000000008a1809c35b2e00480000",
          "blockHash": "0x775630ed2f23e2c85bda39b1555b6b04f82680142ca1bbb1c623d6c93402b54c",
          "blockNumber": "0x38979d",
          "transactionHash": "0xf128bdd86c93152d034333086c2fa98e6071dda219a9a3bbe537674091b1d403",
          "transactionIndex": "0x2",
          "logIndex": "0x3",
          "removed": false
        }
      ],
      "logsBloom": "0x00800000000000000000000000000000000400000000000000000000000000000000000000000000000000020000000800000000000000000000000000100000000000000000000000000000000000000000000004000000000000000000000000000000000000000000000000008000000000000000000000000000000000000000000000000000400000000000000000000000000000000000000000000000200000800000000000000008000000000000000100000000000000000000000000000001000000000000002000000000000000000000000000000000000000000000000000000000000000000000000000000000000000000000001000000000",
      "type": "0x2",
      "transactionHash": "0xf128bdd86c93152d034333086c2fa98e6071dda219a9a3bbe537674091b1d403",
      "transactionIndex": "0x2",
      "blockHash": "0x775630ed2f23e2c85bda39b1555b6b04f82680142ca1bbb1c623d6c93402b54c",
      "blockNumber": "0x38979d",
      "gasUsed": "0x25fb4",
      "effectiveGasPrice": "0x5d21dba01",
      "from": "0xabcde369cddd1665e4ebd9214b8e9a595271272c",
      "to": "0x39e6ed41f651624c90778c0f785c283a124bb52a",
      "contractAddress": null,
      "l1BaseFeeScalar": "0x0",
      "l1BlobBaseFee": "0x1",
      "l1BlobBaseFeeScalar": "0x0",
      "l1Fee": "0x0",
      "l1GasPrice": "0x1ec068",
      "l1GasUsed": "0x640"
    },
    {
      "status": "0x1",
      "cumulativeGasUsed": "0x7d320",
      "logs": [
        {
          "address": "0x691ab9aff4a36e1fcb9c2d9a366cc0e176c5e4fc",
          "topics": [
            "0x7cebb17173a9ed273d2b7538f64395c0ebf352ff743f1cf8ce66b437a6144213",
            "0x0000000000000000000000002ee56be22d6af8c1b0ac97149b6f42d3b0bfb8c2",
            "0x0000000000000000000000005eb3f5b9d4315cda410c98be788a14e0df320fb8"
          ],
          "data": "0x0000000000000000000000000000000000000000000000000000000068b995310000000000000000000000000000000000000000000107139b1c361f31650000",
          "blockHash": "0x775630ed2f23e2c85bda39b1555b6b04f82680142ca1bbb1c623d6c93402b54c",
          "blockNumber": "0x38979d",
          "transactionHash": "0x2970b3300b58f347811868798aecebf9582964ba2dddd5ae27648a9e64c6fb53",
          "transactionIndex": "0x3",
          "logIndex": "0x4",
          "removed": false
        },
        {
          "address": "0x691ab9aff4a36e1fcb9c2d9a366cc0e176c5e4fc",
          "topics": [
            "0xa9981ebfc3b766a742486e898f54959b050a66006dbce1a4155c1f84a08bcf41",
            "0x0000000000000000000000002ee56be22d6af8c1b0ac97149b6f42d3b0bfb8c2"
          ],
          "data": "0x0000000000000000000000000000000000000000000107139b1c361f31650000",
          "blockHash": "0x775630ed2f23e2c85bda39b1555b6b04f82680142ca1bbb1c623d6c93402b54c",
          "blockNumber": "0x38979d",
          "transactionHash": "0x2970b3300b58f347811868798aecebf9582964ba2dddd5ae27648a9e64c6fb53",
          "transactionIndex": "0x3",
          "logIndex": "0x5",
          "removed": false
        }
      ],
      "logsBloom": "0x00800000000000000000000000000000000000000000000000000000000000000000000000000000000000000000000800000000000000000000001000100000000000000000000000000000000000000000100004000000000000000000000000000000000000000000000000008000000000000000000000000000000000000000000000000000400800000000000000000000000000800000000200000000200000800000000000000008000000000000000000000000000000000000000000000000000000000000000000000000000000000000000000000000000000000000000000000000000000000000000000000000000000000000040000000000",
      "type": "0x2",
      "transactionHash": "0x2970b3300b58f347811868798aecebf9582964ba2dddd5ae27648a9e64c6fb53",
      "transactionIndex": "0x3",
      "blockHash": "0x775630ed2f23e2c85bda39b1555b6b04f82680142ca1bbb1c623d6c93402b54c",
      "blockNumber": "0x38979d",
      "gasUsed": "0x25fb4",
      "effectiveGasPrice": "0x5d21dba01",
      "from": "0xabcde369cddd1665e4ebd9214b8e9a595271272c",
      "to": "0x5eb3f5b9d4315cda410c98be788a14e0df320fb8",
      "contractAddress": null,
      "l1BaseFeeScalar": "0x0",
      "l1BlobBaseFee": "0x1",
      "l1BlobBaseFeeScalar": "0x0",
      "l1Fee": "0x0",
      "l1GasPrice": "0x1ec068",
      "l1GasUsed": "0x640"
    },
    {
      "status": "0x1",
      "cumulativeGasUsed": "0xa32d4",
      "logs": [
        {
          "address": "0x691ab9aff4a36e1fcb9c2d9a366cc0e176c5e4fc",
          "topics": [
            "0x7cebb17173a9ed273d2b7538f64395c0ebf352ff743f1cf8ce66b437a6144213",
            "0x000000000000000000000000b9addcd1d1ce7d49dbb540e2677f1c572bc8d195",
            "0x0000000000000000000000005335bd8ad99c14be976f2c1eac64c3365315d88e"
          ],
          "data": "0x0000000000000000000000000000000000000000000000000000000068b9953100000000000000000000000000000000000000000000016d42976349a97a0000",
          "blockHash": "0x775630ed2f23e2c85bda39b1555b6b04f82680142ca1bbb1c623d6c93402b54c",
          "blockNumber": "0x38979d",
          "transactionHash": "0xc999511da3f682170ce4963c42f245963327621a52b99932bb6fe73655a5a178",
          "transactionIndex": "0x4",
          "logIndex": "0x6",
          "removed": false
        },
        {
          "address": "0x691ab9aff4a36e1fcb9c2d9a366cc0e176c5e4fc",
          "topics": [
            "0xa9981ebfc3b766a742486e898f54959b050a66006dbce1a4155c1f84a08bcf41",
            "0x000000000000000000000000b9addcd1d1ce7d49dbb540e2677f1c572bc8d195"
          ],
          "data": "0x00000000000000000000000000000000000000000000016d42976349a97a0000",
          "blockHash": "0x775630ed2f23e2c85bda39b1555b6b04f82680142ca1bbb1c623d6c93402b54c",
          "blockNumber": "0x38979d",
          "transactionHash": "0xc999511da3f682170ce4963c42f245963327621a52b99932bb6fe73655a5a178",
          "transactionIndex": "0x4",
          "logIndex": "0x7",
          "removed": false
        }
      ],
      "logsBloom": "0x00800000000000000000000000000000000000000000000000000000000000000000000000000000000000000000000800000000000000000000000000100000000000000000000000000000000000000000000004000000000001000000000000000000000000000000000000008000000000000000000000000000000000000000000000000000420000000000000000000000000000000000000000000000200000800000000000000008000000000000000000000000000000000000000000000000000000000000000000000000000000020000000000000000100000000000100000000000000000000000000004000000000000000000000000000000",
      "type": "0x2",
      "transactionHash": "0xc999511da3f682170ce4963c42f245963327621a52b99932bb6fe73655a5a178",
      "transactionIndex": "0x4",
      "blockHash": "0x775630ed2f23e2c85bda39b1555b6b04f82680142ca1bbb1c623d6c93402b54c",
      "blockNumber": "0x38979d",
      "gasUsed": "0x25fb4",
      "effectiveGasPrice": "0x5d21dba01",
      "from": "0xabcde369cddd1665e4ebd9214b8e9a595271272c",
      "to": "0x5335bd8ad99c14be976f2c1eac64c3365315d88e",
      "contractAddress": null,
      "l1BaseFeeScalar": "0x0",
      "l1BlobBaseFee": "0x1",
      "l1BlobBaseFeeScalar": "0x0",
      "l1Fee": "0x0",
      "l1GasPrice": "0x1ec068",
      "l1GasUsed": "0x640"
    },
    {
      "status": "0x1",
      "cumulativeGasUsed": "0xc91bd",
      "logs": [
        {
          "address": "0x691ab9aff4a36e1fcb9c2d9a366cc0e176c5e4fc",
          "topics": [
            "0x7cebb17173a9ed273d2b7538f64395c0ebf352ff743f1cf8ce66b437a6144213",
            "0x000000000000000000000000d772efe6507b7d8cdc8c4d8870931439fbeeb929",
            "0x0000000000000000000000008700b6031a3c31edbf9a37426ea6a904303d2230"
          ],
          "data": "0x0000000000000000000000000000000000000000000000000000000068b9953100000000000000000000000000000000000000000000002398239a45beb241c0",
          "blockHash": "0x775630ed2f23e2c85bda39b1555b6b04f82680142ca1bbb1c623d6c93402b54c",
          "blockNumber": "0x38979d",
          "transactionHash": "0x19fa8f169743910aa9f799f9bda97d539be83a7f35807926bdabb0f45455f5c5",
          "transactionIndex": "0x5",
          "logIndex": "0x8",
          "removed": false
        },
        {
          "address": "0x691ab9aff4a36e1fcb9c2d9a366cc0e176c5e4fc",
          "topics": [
            "0xa9981ebfc3b766a742486e898f54959b050a66006dbce1a4155c1f84a08bcf41",
            "0x000000000000000000000000d772efe6507b7d8cdc8c4d8870931439fbeeb929"
          ],
          "data": "0x00000000000000000000000000000000000000000000002398239a45beb241c0",
          "blockHash": "0x775630ed2f23e2c85bda39b1555b6b04f82680142ca1bbb1c623d6c93402b54c",
          "blockNumber": "0x38979d",
          "transactionHash": "0x19fa8f169743910aa9f799f9bda97d539be83a7f35807926bdabb0f45455f5c5",
          "transactionIndex": "0x5",
          "logIndex": "0x9",
          "removed": false
        }
      ],
      "logsBloom": "0x00800020000000000000000000000000000000000000000000000000000000040000000000000200000000000000000800000000000000000000000000100800000000000000000000000000000000000000000004000000000000000000000000000000000000000000000000088000000000000000000000000000000000000000000000000000400000000000000000000000000000000000000000000000200000800000000000000008000000000000000000000000000000000000000000000000000000001000000000000000000000000000000000000000000000000000000000000000000000000000000000000000000000000000000000000000",
      "type": "0x2",
      "transactionHash": "0x19fa8f169743910aa9f799f9bda97d539be83a7f35807926bdabb0f45455f5c5",
      "transactionIndex": "0x5",
      "blockHash": "0x775630ed2f23e2c85bda39b1555b6b04f82680142ca1bbb1c623d6c93402b54c",
      "blockNumber": "0x38979d",
      "gasUsed": "0x25ee9",
      "effectiveGasPrice": "0x5d21dba01",
      "from": "0xabcde369cddd1665e4ebd9214b8e9a595271272c",
      "to": "0x8700b6031a3c31edbf9a37426ea6a904303d2230",
      "contractAddress": null,
      "l1BaseFeeScalar": "0x0",
      "l1BlobBaseFee": "0x1",
      "l1BlobBaseFeeScalar": "0x0",
      "l1Fee": "0x0",
      "l1GasPrice": "0x1ec068",
      "l1GasUsed": "0x640"
    }
  ],
  "libraries": [
    "node_modules/@celo/contracts/common/linkedlists/AddressSortedLinkedListWithMedian.sol:AddressSortedLinkedListWithMedian:0x1aD9B2599975E8CDF5629aFaBA8852269f1A1364"
  ],
  "pending": [],
  "returns": {},
  "timestamp": 1756992818340,
  "chain": 11142220,
  "commit": "ae1293f"
}