{
  "transactions": [
    {
      "hash": null,
      "transactionType": "CALL",
      "contractName": null,
      "contractAddress": "0xc865354934161882ddb14470298167ac93a46378",
      "function": "addToken(address)",
      "arguments": [
        "0xf817257fed379853cDe0fa4F97AB987181B1E5Ea"
      ],
      "transaction": {
        "from": "0x56fd3f2bee130e9867942d0f463a16fbe49b8d81",
        "to": "0xc865354934161882ddb14470298167ac93a46378",
        "gas": "0x1af99c9",
        "value": "0x0",
        "input": "0xd48bfca7000000000000000000000000f817257fed379853cde0fa4f97ab987181b1e5ea",
        "nonce": "0x11f",
        "chainId": "0x279f"
      },
      "additionalContracts": [],
      "isFixedGasLimit": true
    },
    {
      "hash": null,
      "transactionType": "CALL",
      "contractName": null,
      "contractAddress": "0xc865354934161882ddb14470298167ac93a46378",
      "function": "addToken(address)",
      "arguments": [
        "0x88b8E2161DEDC77EF4ab7585569D2415a1C1055D"
      ],
      "transaction": {
        "from": "0x56fd3f2bee130e9867942d0f463a16fbe49b8d81",
        "to": "0xc865354934161882ddb14470298167ac93a46378",
        "gas": "0x1aeaffb",
        "value": "0x0",
        "input": "0xd48bfca700000000000000000000000088b8e2161dedc77ef4ab7585569d2415a1c1055d",
        "nonce": "0x120",
        "chainId": "0x279f"
      },
      "additionalContracts": [],
      "isFixedGasLimit": true
    }
  ],
  "receipts": [],
  "libraries": [
    "node_modules/@celo/contracts/common/linkedlists/AddressSortedLinkedListWithMedian.sol:AddressSortedLinkedListWithMedian:0xcB985Be7a200D0075155AC2697D6D5F00267a11b"
  ],
  "pending": [],
  "returns": {},
  "timestamp": 1757343334047,
  "chain": 10143,
  "commit": "cf21763"
}