{
  "transactions": [
    {
      "hash": "0xd0d89361b4b2f66c146b25f87a10beb009dc7731e423b6154454e19dfb4b4e2a",
      "transactionType": "CALL",
      "contractName": null,
      "contractAddress": "0xc865354934161882ddb14470298167ac93a46378",
      "function": "addToken(address)",
      "arguments": [
        "0xf817257fed379853cDe0fa4F97AB987181B1E5Ea"
      ],
      "transaction": {
        "from": "0x56fd3f2bee130e9867942d0f463a16fbe49b8d81",
        "to": "0xc865354934161882ddb14470298167ac93a46378",
        "gas": "0x1af99c9",
        "value": "0x0",
        "input": "0xd48bfca7000000000000000000000000f817257fed379853cde0fa4f97ab987181b1e5ea",
        "nonce": "0x11f",
        "chainId": "0x279f"
      },
      "additionalContracts": [],
      "isFixedGasLimit": true
    },
    {
      "hash": "0xb76afdc61250e6045e130c60efc400ca70c07a5c1ca53580760473eae134af6b",
      "transactionType": "CALL",
      "contractName": null,
      "contractAddress": "0xc865354934161882ddb14470298167ac93a46378",
      "function": "addToken(address)",
      "arguments": [
        "0x88b8E2161DEDC77EF4ab7585569D2415a1C1055D"
      ],
      "transaction": {
        "from": "0x56fd3f2bee130e9867942d0f463a16fbe49b8d81",
        "to": "0xc865354934161882ddb14470298167ac93a46378",
        "gas": "0x1aeaffb",
        "value": "0x0",
        "input": "0xd48bfca700000000000000000000000088b8e2161dedc77ef4ab7585569d2415a1c1055d",
        "nonce": "0x120",
        "chainId": "0x279f"
      },
      "additionalContracts": [],
      "isFixedGasLimit": true
    }
  ],
  "receipts": [
    {
      "status": "0x1",
      "cumulativeGasUsed": "0x2065069",
      "logs": [
        {
          "address": "0xc865354934161882ddb14470298167ac93a46378",
          "topics": [
            "0x784c8f4dbf0ffedd6e72c76501c545a70f8b203b30a26ce542bf92ba87c248a4",
            "0x000000000000000000000000f817257fed379853cde0fa4f97ab987181b1e5ea"
          ],
          "data": "0x",
          "blockHash": "0xf1c4d82c67057165a8104a88e39f5a21fdfda85a0ebea2ab4de4eec25be34b2a",
          "blockNumber": "0x22603af",
          "blockTimestamp": "0x68bfee21",
          "transactionHash": "0xd0d89361b4b2f66c146b25f87a10beb009dc7731e423b6154454e19dfb4b4e2a",
          "transactionIndex": "0x18",
          "logIndex": "0x29",
          "removed": false
        }
      ],
      "logsBloom": "0x08000000000000000000000000000000000000000000000000000000000000000000000000000000000000000000000000000000000000000000000000000000000000000000000000000000004000000000000000000000008000000000000000000000000000000000000000000000000000000000200000000000000000000000000000000000000000000000000000000000000000000000000000000000000004010000002000200000000000000000000000000000000000000000000000000000000000000000000000000000000000000000000000000000000000000000000000000000000000000000000000000000000000001000000000000000",
      "type": "0x2",
      "transactionHash": "0xd0d89361b4b2f66c146b25f87a10beb009dc7731e423b6154454e19dfb4b4e2a",
      "transactionIndex": "0x18",
      "blockHash": "0xf1c4d82c67057165a8104a88e39f5a21fdfda85a0ebea2ab4de4eec25be34b2a",
      "blockNumber": "0x22603af",
      "gasUsed": "0x1af99c9",
      "effectiveGasPrice": "0xba43b7401",
      "from": "0x56fd3f2bee130e9867942d0f463a16fbe49b8d81",
      "to": "0xc865354934161882ddb14470298167ac93a46378",
      "contractAddress": null
    },
    {
      "status": "0x1",
      "cumulativeGasUsed": "0x3b50064",
      "logs": [
        {
          "address": "0xc865354934161882ddb14470298167ac93a46378",
          "topics": [
            "0x784c8f4dbf0ffedd6e72c76501c545a70f8b203b30a26ce542bf92ba87c248a4",
            "0x00000000000000000000000088b8e2161dedc77ef4ab7585569d2415a1c1055d"
          ],
          "data": "0x",
          "blockHash": "0xf1c4d82c67057165a8104a88e39f5a21fdfda85a0ebea2ab4de4eec25be34b2a",
          "blockNumber": "0x22603af",
          "blockTimestamp": "0x68bfee21",
          "transactionHash": "0xb76afdc61250e6045e130c60efc400ca70c07a5c1ca53580760473eae134af6b",
          "transactionIndex": "0x19",
          "logIndex": "0x2a",
          "removed": false
        }
      ],
      "logsBloom": "0x00000000000000000000000000000000000000000000000000000000000000000000000000000000000000000000000000000000000000000000000000000000000000000000000000000000004000000000000000000000000000000000000000000000000000000000000000000000000000000000200000000000000000080000000000000000000000000000000000000000000000000000000000000000000004000000002000200000000000000000000000000000000000000000000000000000000000000020000000000000000000000000000000000000000000000000000000000000000000000000000000800000000000001000000000000000",
      "type": "0x2",
      "transactionHash": "0xb76afdc61250e6045e130c60efc400ca70c07a5c1ca53580760473eae134af6b",
      "transactionIndex": "0x19",
      "blockHash": "0xf1c4d82c67057165a8104a88e39f5a21fdfda85a0ebea2ab4de4eec25be34b2a",
      "blockNumber": "0x22603af",
      "gasUsed": "0x1aeaffb",
      "effectiveGasPrice": "0xba43b7401",
      "from": "0x56fd3f2bee130e9867942d0f463a16fbe49b8d81",
      "to": "0xc865354934161882ddb14470298167ac93a46378",
      "contractAddress": null
    }
  ],
  "libraries": [
    "node_modules/@celo/contracts/common/linkedlists/AddressSortedLinkedListWithMedian.sol:AddressSortedLinkedListWithMedian:0xcB985Be7a200D0075155AC2697D6D5F00267a11b"
  ],
  "pending": [],
  "returns": {},
  "timestamp": 1757408803315,
  "chain": 10143,
  "commit": "cf21763"
}