{
  "transactions": [
    {
      "hash": "0x420f47f3d9f469cb799d4ceb278087921bdf1a1836a49378ec21349e4b127dde",
      "transactionType": "CALL",
      "contractName": null,
      "contractAddress": "0xc865354934161882ddb14470298167ac93a46378",
      "function": "removeToken(address,uint256)",
      "arguments": [
        "0x88b8E2161DEDC77EF4ab7585569D2415a1C1055D",
        "16"
      ],
      "transaction": {
        "from": "0x56fd3f2bee130e9867942d0f463a16fbe49b8d81",
        "to": "0xc865354934161882ddb14470298167ac93a46378",
        "gas": "0x1a1b166",
        "value": "0x0",
        "input": "0x13baf1e600000000000000000000000088b8e2161dedc77ef4ab7585569d2415a1c1055d0000000000000000000000000000000000000000000000000000000000000010",
        "nonce": "0x174",
        "chainId": "0x279f"
      },
      "additionalContracts": [],
      "isFixedGasLimit": true
    },
    {
      "hash": "0x8273affd1259eed37f20413ed6b83b576f9e953bea340fe8a48eabb31be60559",
      "transactionType": "CALL",
      "contractName": null,
      "contractAddress": "0xc865354934161882ddb14470298167ac93a46378",
      "function": "removeToken(address,uint256)",
      "arguments": [
        "0xf817257fed379853cDe0fa4F97AB987181B1E5Ea",
        "15"
      ],
      "transaction": {
        "from": "0x56fd3f2bee130e9867942d0f463a16fbe49b8d81",
        "to": "0xc865354934161882ddb14470298167ac93a46378",
        "gas": "0x1a14222",
        "value": "0x0",
        "input": "0x13baf1e6000000000000000000000000f817257fed379853cde0fa4f97ab987181b1e5ea000000000000000000000000000000000000000000000000000000000000000f",
        "nonce": "0x175",
        "chainId": "0x279f"
      },
      "additionalContracts": [],
      "isFixedGasLimit": true
    },
    {
      "hash": "0xababa230487b1c4afa633e73f5bc5d2738589db76b92d326a41cb00846f09b51",
      "transactionType": "CALL",
      "contractName": null,
      "contractAddress": "0xc865354934161882ddb14470298167ac93a46378",
      "function": "removeCollateralAsset(address,uint256)",
      "arguments": [
        "0x272E9A32492f3c9B7c31E374f2F7c3627d746DE3",
        "1"
      ],
      "transaction": {
        "from": "0x56fd3f2bee130e9867942d0f463a16fbe49b8d81",
        "to": "0xc865354934161882ddb14470298167ac93a46378",
        "gas": "0x1a0fe51",
        "value": "0x0",
        "input": "0x70022cb4000000000000000000000000272e9a32492f3c9b7c31e374f2f7c3627d746de30000000000000000000000000000000000000000000000000000000000000001",
        "nonce": "0x176",
        "chainId": "0x279f"
      },
      "additionalContracts": [],
      "isFixedGasLimit": true
    },
    {
      "hash": "0x485d79844e8d425451a48486a5c2720023ceb814b54136d401bbe9714c91b60f",
      "transactionType": "CALL",
      "contractName": null,
      "contractAddress": "0xc865354934161882ddb14470298167ac93a46378",
      "function": "removeCollateralAsset(address,uint256)",
      "arguments": [
        "0xa9b7E81a312097b0920a0B11543626c9a57155B2",
        "0"
      ],
      "transaction": {
        "from": "0x56fd3f2bee130e9867942d0f463a16fbe49b8d81",
        "to": "0xc865354934161882ddb14470298167ac93a46378",
        "gas": "0x1a0aadb",
        "value": "0x0",
        "input": "0x70022cb4000000000000000000000000a9b7e81a312097b0920a0b11543626c9a57155b20000000000000000000000000000000000000000000000000000000000000000",
        "nonce": "0x177",
        "chainId": "0x279f"
      },
      "additionalContracts": [],
      "isFixedGasLimit": true
    },
    {
      "hash": "0x3357b8d375bcdfe5430a9a4a7f9ec419b69d1283f54b62b52552be187095ac2b",
      "transactionType": "CALL",
      "contractName": null,
      "contractAddress": "0xc865354934161882ddb14470298167ac93a46378",
      "function": "addCollateralAsset(address)",
      "arguments": [
        "0xf817257fed379853cDe0fa4F97AB987181B1E5Ea"
      ],
      "transaction": {
        "from": "0x56fd3f2bee130e9867942d0f463a16fbe49b8d81",
        "to": "0xc865354934161882ddb14470298167ac93a46378",
        "gas": "0x1a069dc",
        "value": "0x0",
        "input": "0x965366f3000000000000000000000000f817257fed379853cde0fa4f97ab987181b1e5ea",
        "nonce": "0x178",
        "chainId": "0x279f"
      },
      "additionalContracts": [],
      "isFixedGasLimit": true
    },
    {
      "hash": "0x26a59af897e8ae07f97c3b33013b4ea04c99f66d3bbf17cd39a2c2cbaf4d5c7e",
      "transactionType": "CALL",
      "contractName": null,
      "contractAddress": "0xc865354934161882ddb14470298167ac93a46378",
      "function": "addCollateralAsset(address)",
      "arguments": [
        "0x88b8E2161DEDC77EF4ab7585569D2415a1C1055D"
      ],
      "transaction": {
        "from": "0x56fd3f2bee130e9867942d0f463a16fbe49b8d81",
        "to": "0xc865354934161882ddb14470298167ac93a46378",
        "gas": "0x19fff91",
        "value": "0x0",
        "input": "0x965366f300000000000000000000000088b8e2161dedc77ef4ab7585569d2415a1c1055d",
        "nonce": "0x179",
        "chainId": "0x279f"
      },
      "additionalContracts": [],
      "isFixedGasLimit": true
    }
  ],
  "receipts": [
    {
      "status": "0x1",
      "cumulativeGasUsed": "0x1ccfa8d",
      "logs": [
        {
          "address": "0xc865354934161882ddb14470298167ac93a46378",
          "topics": [
            "0xbe9bb4bdca0a094babd75e3a98b1d2e2390633430d0a2f6e2b9970e2ee03fb2e",
            "0x00000000000000000000000088b8e2161dedc77ef4ab7585569d2415a1c1055d"
          ],
          "data": "0x0000000000000000000000000000000000000000000000000000000000000010",
          "blockHash": "0x881c48fdb13f6696f40eeafc42fbb738a8bd3235f4ff586c4cba94134af5138d",
          "blockNumber": "0x2265a2f",
          "blockTimestamp": "0x68c01274",
          "transactionHash": "0x420f47f3d9f469cb799d4ceb278087921bdf1a1836a49378ec21349e4b127dde",
          "transactionIndex": "0x16",
          "logIndex": "0x34",
          "removed": false
        }
      ],
      "logsBloom": "0x00000000000000000000000000000000000000000000000000000000000000000000010000000000000000000000000000000000000000000000000000000800000000000000000000000000004000000000000000000000000000000000000000000000000000000000000000000000000000000000000000000000000000080000000000000000000000000002000000000000000000000000000000000000000004000000002000000000000000000000000000000000000000000000000000000000000000000020000000000000000000000000000000000000000000000000000000000000000000000000000000800000000000000000000000000000",
      "type": "0x2",
      "transactionHash": "0x420f47f3d9f469cb799d4ceb278087921bdf1a1836a49378ec21349e4b127dde",
      "transactionIndex": "0x16",
      "blockHash": "0x881c48fdb13f6696f40eeafc42fbb738a8bd3235f4ff586c4cba94134af5138d",
      "blockNumber": "0x2265a2f",
      "gasUsed": "0x1a1b166",
      "effectiveGasPrice": "0xba43b7401",
      "from": "0x56fd3f2bee130e9867942d0f463a16fbe49b8d81",
      "to": "0xc865354934161882ddb14470298167ac93a46378",
      "contractAddress": null
    },
    {
      "status": "0x1",
      "cumulativeGasUsed": "0x36e3caf",
      "logs": [
        {
          "address": "0xc865354934161882ddb14470298167ac93a46378",
          "topics": [
            "0xbe9bb4bdca0a094babd75e3a98b1d2e2390633430d0a2f6e2b9970e2ee03fb2e",
            "0x000000000000000000000000f817257fed379853cde0fa4f97ab987181b1e5ea"
          ],
          "data": "0x000000000000000000000000000000000000000000000000000000000000000f",
          "blockHash": "0x881c48fdb13f6696f40eeafc42fbb738a8bd3235f4ff586c4cba94134af5138d",
          "blockNumber": "0x2265a2f",
          "blockTimestamp": "0x68c01274",
          "transactionHash": "0x8273affd1259eed37f20413ed6b83b576f9e953bea340fe8a48eabb31be60559",
          "transactionIndex": "0x17",
          "logIndex": "0x35",
          "removed": false
        }
      ],
      "logsBloom": "0x08000000000000000000000000000000000000000000000000000000000000000000010000000000000000000000000000000000000000000000000000000800000000000000000000000000004000000000000000000000008000000000000000000000000000000000000000000000000000000000000000000000000000000000000000000000000000000002000000000000000000000000000000000000000004010000002000000000000000000000000000000000000000000000000000000000000000000000000000000000000000000000000000000000000000000000000000000000000000000000000000000000000000000000000000000000",
      "type": "0x2",
      "transactionHash": "0x8273affd1259eed37f20413ed6b83b576f9e953bea340fe8a48eabb31be60559",
      "transactionIndex": "0x17",
      "blockHash": "0x881c48fdb13f6696f40eeafc42fbb738a8bd3235f4ff586c4cba94134af5138d",
      "blockNumber": "0x2265a2f",
      "gasUsed": "0x1a14222",
      "effectiveGasPrice": "0xba43b7401",
      "from": "0x56fd3f2bee130e9867942d0f463a16fbe49b8d81",
      "to": "0xc865354934161882ddb14470298167ac93a46378",
      "contractAddress": null
    },
    {
      "status": "0x1",
      "cumulativeGasUsed": "0x50f3b00",
      "logs": [
        {
          "address": "0xc865354934161882ddb14470298167ac93a46378",
          "topics": [
            "0x4336391ada1af9dcb966fed43ebafa4404719b6d8e42c765ab28e3abc9a24e7a"
          ],
          "data": "0x000000000000000000000000272e9a32492f3c9b7c31e374f2f7c3627d746de3",
          "blockHash": "0x881c48fdb13f6696f40eeafc42fbb738a8bd3235f4ff586c4cba94134af5138d",
          "blockNumber": "0x2265a2f",
          "blockTimestamp": "0x68c01274",
          "transactionHash": "0xababa230487b1c4afa633e73f5bc5d2738589db76b92d326a41cb00846f09b51",
          "transactionIndex": "0x18",
          "logIndex": "0x36",
          "removed": false
        }
      ],
      "logsBloom": "0x00000000000000000000000000000000000000000000000000000000000000000000000000000000000000000000000000800000000000000000000000000000000000000000000000000000004000000000000000000000000000000000000000000000000000000000000000000000000000000000000000000000000000000000000000000000000000000000000000000000000000020000000000000000000004000000002000000000000000000000000000000000000000000000000000020000000000000000000000000000000000000000000000000000000000000000000000000000000000000000000000000000000000000000000000000000",
      "type": "0x2",
      "transactionHash": "0xababa230487b1c4afa633e73f5bc5d2738589db76b92d326a41cb00846f09b51",
      "transactionIndex": "0x18",
      "blockHash": "0x881c48fdb13f6696f40eeafc42fbb738a8bd3235f4ff586c4cba94134af5138d",
      "blockNumber": "0x2265a2f",
      "gasUsed": "0x1a0fe51",
      "effectiveGasPrice": "0xba43b7401",
      "from": "0x56fd3f2bee130e9867942d0f463a16fbe49b8d81",
      "to": "0xc865354934161882ddb14470298167ac93a46378",
      "contractAddress": null
    },
    {
      "status": "0x1",
      "cumulativeGasUsed": "0x6afe5db",
      "logs": [
        {
          "address": "0xc865354934161882ddb14470298167ac93a46378",
          "topics": [
            "0x4336391ada1af9dcb966fed43ebafa4404719b6d8e42c765ab28e3abc9a24e7a"
          ],
          "data": "0x000000000000000000000000a9b7e81a312097b0920a0b11543626c9a57155b2",
          "blockHash": "0x881c48fdb13f6696f40eeafc42fbb738a8bd3235f4ff586c4cba94134af5138d",
          "blockNumber": "0x2265a2f",
          "blockTimestamp": "0x68c01274",
          "transactionHash": "0x485d79844e8d425451a48486a5c2720023ceb814b54136d401bbe9714c91b60f",
          "transactionIndex": "0x19",
          "logIndex": "0x37",
          "removed": false
        }
      ],
      "logsBloom": "0x00000000000000000000000000000000000000000000000000000000000000000000000000000000000000000000000000800000000000000000000000000000000000000000000000000000004000000000000000000000000000000000000000000000000000000000000000000000000000000000000000000000000000000000000000000000000000000000000000000000000000020000000000000000000004000000002000000000000000000000000000000000000000000000000000020000000000000000000000000000000000000000000000000000000000000000000000000000000000000000000000000000000000000000000000000000",
      "type": "0x2",
      "transactionHash": "0x485d79844e8d425451a48486a5c2720023ceb814b54136d401bbe9714c91b60f",
      "transactionIndex": "0x19",
      "blockHash": "0x881c48fdb13f6696f40eeafc42fbb738a8bd3235f4ff586c4cba94134af5138d",
      "blockNumber": "0x2265a2f",
      "gasUsed": "0x1a0aadb",
      "effectiveGasPrice": "0xba43b7401",
      "from": "0x56fd3f2bee130e9867942d0f463a16fbe49b8d81",
      "to": "0xc865354934161882ddb14470298167ac93a46378",
      "contractAddress": null
    },
    {
      "status": "0x1",
      "cumulativeGasUsed": "0x8504fb7",
      "logs": [
        {
          "address": "0xc865354934161882ddb14470298167ac93a46378",
          "topics": [
            "0x0c7515883121475b5d9289febf21a9de4ad53f18349a856d90c7acd6e099600b"
          ],
          "data": "0x000000000000000000000000f817257fed379853cde0fa4f97ab987181b1e5ea",
          "blockHash": "0x881c48fdb13f6696f40eeafc42fbb738a8bd3235f4ff586c4cba94134af5138d",
          "blockNumber": "0x2265a2f",
          "blockTimestamp": "0x68c01274",
          "transactionHash": "0x3357b8d375bcdfe5430a9a4a7f9ec419b69d1283f54b62b52552be187095ac2b",
          "transactionIndex": "0x1a",
          "logIndex": "0x38",
          "removed": false
        }
      ],
      "logsBloom": "0x00000000000000000000000000000000000000000000000000000000000000000000000000000000000000000000000000000000000000000000000001000000000000000000000000000000004000000000000000000000000000000000040000000000000000000000000000000000000000000000000000000000000000000000000000000000000000000000000000000000000000000000000000000000000004000000002000000000000000000000000000000000080000000000000000000000000000000000000000000000000000000000000000000000000000000000000000000000000000000000000000000000000000000000000000000000",
      "type": "0x2",
      "transactionHash": "0x3357b8d375bcdfe5430a9a4a7f9ec419b69d1283f54b62b52552be187095ac2b",
      "transactionIndex": "0x1a",
      "blockHash": "0x881c48fdb13f6696f40eeafc42fbb738a8bd3235f4ff586c4cba94134af5138d",
      "blockNumber": "0x2265a2f",
      "gasUsed": "0x1a069dc",
      "effectiveGasPrice": "0xba43b7401",
      "from": "0x56fd3f2bee130e9867942d0f463a16fbe49b8d81",
      "to": "0xc865354934161882ddb14470298167ac93a46378",
      "contractAddress": null
    },
    {
      "status": "0x1",
      "cumulativeGasUsed": "0x1c75427",
      "logs": [
        {
          "address": "0xc865354934161882ddb14470298167ac93a46378",
          "topics": [
            "0x0c7515883121475b5d9289febf21a9de4ad53f18349a856d90c7acd6e099600b"
          ],
          "data": "0x00000000000000000000000088b8e2161dedc77ef4ab7585569d2415a1c1055d",
          "blockHash": "0x4d120e588cd7b0335cd083dc9290e2604f75f7fa6c91cfea3740dfeac30fea6c",
          "blockNumber": "0x2265a30",
          "blockTimestamp": "0x68c01274",
          "transactionHash": "0x26a59af897e8ae07f97c3b33013b4ea04c99f66d3bbf17cd39a2c2cbaf4d5c7e",
          "transactionIndex": "0x15",
          "logIndex": "0x46",
          "removed": false
        }
      ],
      "logsBloom": "0x00000000000000000000000000000000000000000000000000000000000000000000000000000000000000000000000000000000000000000000000001000000000000000000000000000000004000000000000000000000000000000000040000000000000000000000000000000000000000000000000000000000000000000000000000000000000000000000000000000000000000000000000000000000000004000000002000000000000000000000000000000000080000000000000000000000000000000000000000000000000000000000000000000000000000000000000000000000000000000000000000000000000000000000000000000000",
      "type": "0x2",
      "transactionHash": "0x26a59af897e8ae07f97c3b33013b4ea04c99f66d3bbf17cd39a2c2cbaf4d5c7e",
      "transactionIndex": "0x15",
      "blockHash": "0x4d120e588cd7b0335cd083dc9290e2604f75f7fa6c91cfea3740dfeac30fea6c",
      "blockNumber": "0x2265a30",
      "gasUsed": "0x19fff91",
      "effectiveGasPrice": "0xba43b7401",
      "from": "0x56fd3f2bee130e9867942d0f463a16fbe49b8d81",
      "to": "0xc865354934161882ddb14470298167ac93a46378",
      "contractAddress": null
    }
  ],
  "libraries": [
    "node_modules/@celo/contracts/common/linkedlists/AddressSortedLinkedListWithMedian.sol:AddressSortedLinkedListWithMedian:0xcB985Be7a200D0075155AC2697D6D5F00267a11b"
  ],
  "pending": [],
  "returns": {},
  "timestamp": 1757418250000,
  "chain": 10143,
  "commit": "cf21763"
}