{
  "transactions": [
    {
      "hash": "0xc68df891d6230f640d6493b9ad161236690cefe54a1e1186f5ca5f29157926fe",
      "transactionType": "CALL",
      "contractName": null,
      "contractAddress": "0xba5ed099633d3b313e4d5f7bdc1305d3c28ba5ed",
      "function": "deployCreate3(bytes32,bytes)",
      "arguments": [
        "0x2738f38fde510743e0c589415e0598c4cee6eaa700889b3e71779a6dde4abef1",
        "0x608060405234801561000f575f5ffd5b506040516106de3803806106de83398101604081905261002e916100f6565b816001600160a01b03811661005c57604051631e4fbdf760e01b81525f600482015260240160405180910390fd5b6100658161008c565b50600180546001600160a01b0319166001600160a01b039290921691909117905550610127565b5f80546001600160a01b038381166001600160a01b0319831681178455604051919092169283917f8be0079c531659141344cd1fd0a4f28419497f9722a3daafe3b4186f6b6457e09190a35050565b80516001600160a01b03811681146100f1575f5ffd5b919050565b5f5f60408385031215610107575f5ffd5b610110836100db565b915061011e602084016100db565b90509250929050565b6105aa806101345f395ff3fe608060405234801561000f575f5ffd5b5060043610610060575f3560e01c8063010ec441146100645780634c92503214610093578063715018a6146100a85780638da5cb5b146100b0578063dbfefe98146100c0578063f2fde38b146100d3575b5f5ffd5b600154610077906001600160a01b031681565b6040516001600160a01b03909116815260200160405180910390f35b6100a66100a136600461044c565b6100e6565b005b6100a6610110565b5f546001600160a01b0316610077565b6100a66100ce3660046104c1565b610123565b6100a66100e136600461044c565b610394565b6100ee6103d1565b600180546001600160a01b0319166001600160a01b0392909216919091179055565b6101186103d1565b6101215f6103fd565b565b6001546001600160a01b031633146101a85760405162461bcd60e51b815260206004820152603760248201527f4d6f636b41676772656761746f7242617463685265706f727465723a2063616c60448201527f6c6572206973206e6f7420746865207265706f7274657200000000000000000060648201526084015b60405180910390fd5b84831480156101b657508481145b61021d5760405162461bcd60e51b815260206004820152603260248201527f4d6f636b41676772656761746f7242617463685265706f727465723a206172726044820152710c2f240d8cadccee8d040dad2e6dac2e8c6d60731b606482015260840161019f565b5f5b8581101561038b5786868281811061023957610239610560565b905060200201602081019061024e919061044c565b6001600160a01b0316630f3d249d86868481811061026e5761026e610560565b9050602002013585858581811061028757610287610560565b905060200201356040518363ffffffff1660e01b81526004016102b4929190918252602082015260400190565b5f604051808303815f87803b1580156102cb575f5ffd5b505af11580156102dd573d5f5f3e3d5ffd5b505050508686828181106102f3576102f3610560565b9050602002016020810190610308919061044c565b6001600160a01b03167f8b1e3ba843a19c9b267e01bb1da4c9bbe6efdd539984bcbc0ec69a6e0e9af78786868481811061034457610344610560565b9050602002013585858581811061035d5761035d610560565b9050602002013560405161037b929190918252602082015260400190565b60405180910390a260010161021f565b50505050505050565b61039c6103d1565b6001600160a01b0381166103c557604051631e4fbdf760e01b81525f600482015260240161019f565b6103ce816103fd565b50565b5f546001600160a01b031633146101215760405163118cdaa760e01b815233600482015260240161019f565b5f80546001600160a01b038381166001600160a01b0319831681178455604051919092169283917f8be0079c531659141344cd1fd0a4f28419497f9722a3daafe3b4186f6b6457e09190a35050565b5f6020828403121561045c575f5ffd5b81356001600160a01b0381168114610472575f5ffd5b9392505050565b5f5f83601f840112610489575f5ffd5b50813567ffffffffffffffff8111156104a0575f5ffd5b6020830191508360208260051b85010111156104ba575f5ffd5b9250929050565b5f5f5f5f5f5f606087890312156104d6575f5ffd5b863567ffffffffffffffff8111156104ec575f5ffd5b6104f889828a01610479565b909750955050602087013567ffffffffffffffff811115610517575f5ffd5b61052389828a01610479565b909550935050604087013567ffffffffffffffff811115610542575f5ffd5b61054e89828a01610479565b979a9699509497509295939492505050565b634e487b7160e01b5f52603260045260245ffdfea26469706673582212200de3c28c9d2741da40f1ae2204255121b080b8cf1f5e9f95536afbcb9199f96764736f6c634300082100330000000000000000000000002738f38fde510743e0c589415e0598c4cee6eaa7000000000000000000000000abcde369cddd1665e4ebd9214b8e9a595271272c"
      ],
      "transaction": {
        "from": "0x2738f38fde510743e0c589415e0598c4cee6eaa7",
        "to": "0xba5ed099633d3b313e4d5f7bdc1305d3c28ba5ed",
        "gas": "0x9b626",
        "value": "0x0",
        "input": "0x9c36a2862738f38fde510743e0c589415e0598c4cee6eaa700889b3e71779a6dde4abef10000000000000000000000000000000000000000000000000000000000000040000000000000000000000000000000000000000000000000000000000000071e608060405234801561000f575f5ffd5b506040516106de3803806106de83398101604081905261002e916100f6565b816001600160a01b03811661005c57604051631e4fbdf760e01b81525f600482015260240160405180910390fd5b6100658161008c565b50600180546001600160a01b0319166001600160a01b039290921691909117905550610127565b5f80546001600160a01b038381166001600160a01b0319831681178455604051919092169283917f8be0079c531659141344cd1fd0a4f28419497f9722a3daafe3b4186f6b6457e09190a35050565b80516001600160a01b03811681146100f1575f5ffd5b919050565b5f5f60408385031215610107575f5ffd5b610110836100db565b915061011e602084016100db565b90509250929050565b6105aa806101345f395ff3fe608060405234801561000f575f5ffd5b5060043610610060575f3560e01c8063010ec441146100645780634c92503214610093578063715018a6146100a85780638da5cb5b146100b0578063dbfefe98146100c0578063f2fde38b146100d3575b5f5ffd5b600154610077906001600160a01b031681565b6040516001600160a01b03909116815260200160405180910390f35b6100a66100a136600461044c565b6100e6565b005b6100a6610110565b5f546001600160a01b0316610077565b6100a66100ce3660046104c1565b610123565b6100a66100e136600461044c565b610394565b6100ee6103d1565b600180546001600160a01b0319166001600160a01b0392909216919091179055565b6101186103d1565b6101215f6103fd565b565b6001546001600160a01b031633146101a85760405162461bcd60e51b815260206004820152603760248201527f4d6f636b41676772656761746f7242617463685265706f727465723a2063616c60448201527f6c6572206973206e6f7420746865207265706f7274657200000000000000000060648201526084015b60405180910390fd5b84831480156101b657508481145b61021d5760405162461bcd60e51b815260206004820152603260248201527f4d6f636b41676772656761746f7242617463685265706f727465723a206172726044820152710c2f240d8cadccee8d040dad2e6dac2e8c6d60731b606482015260840161019f565b5f5b8581101561038b5786868281811061023957610239610560565b905060200201602081019061024e919061044c565b6001600160a01b0316630f3d249d86868481811061026e5761026e610560565b9050602002013585858581811061028757610287610560565b905060200201356040518363ffffffff1660e01b81526004016102b4929190918252602082015260400190565b5f604051808303815f87803b1580156102cb575f5ffd5b505af11580156102dd573d5f5f3e3d5ffd5b505050508686828181106102f3576102f3610560565b9050602002016020810190610308919061044c565b6001600160a01b03167f8b1e3ba843a19c9b267e01bb1da4c9bbe6efdd539984bcbc0ec69a6e0e9af78786868481811061034457610344610560565b9050602002013585858581811061035d5761035d610560565b9050602002013560405161037b929190918252602082015260400190565b60405180910390a260010161021f565b50505050505050565b61039c6103d1565b6001600160a01b0381166103c557604051631e4fbdf760e01b81525f600482015260240161019f565b6103ce816103fd565b50565b5f546001600160a01b031633146101215760405163118cdaa760e01b815233600482015260240161019f565b5f80546001600160a01b038381166001600160a01b0319831681178455604051919092169283917f8be0079c531659141344cd1fd0a4f28419497f9722a3daafe3b4186f6b6457e09190a35050565b5f6020828403121561045c575f5ffd5b81356001600160a01b0381168114610472575f5ffd5b9392505050565b5f5f83601f840112610489575f5ffd5b50813567ffffffffffffffff8111156104a0575f5ffd5b6020830191508360208260051b85010111156104ba575f5ffd5b9250929050565b5f5f5f5f5f5f606087890312156104d6575f5ffd5b863567ffffffffffffffff8111156104ec575f5ffd5b6104f889828a01610479565b909750955050602087013567ffffffffffffffff811115610517575f5ffd5b61052389828a01610479565b909550935050604087013567ffffffffffffffff811115610542575f5ffd5b61054e89828a01610479565b979a9699509497509295939492505050565b634e487b7160e01b5f52603260045260245ffdfea26469706673582212200de3c28c9d2741da40f1ae2204255121b080b8cf1f5e9f95536afbcb9199f96764736f6c634300082100330000000000000000000000002738f38fde510743e0c589415e0598c4cee6eaa7000000000000000000000000abcde369cddd1665e4ebd9214b8e9a595271272c0000",
        "nonce": "0x111",
        "chainId": "0x279f"
      },
      "additionalContracts": [
        {
          "transactionType": "CREATE2",
          "contractName": null,
          "address": "0xbada1c4b3a10d9181734dbd1558b839f916fdea7",
          "initCode": "0x67363d3d37363d34f03d5260086018f3"
        },
        {
          "transactionType": "CREATE",
          "contractName": "MockAggregatorBatchReporter",
          "address": "0xbf111982c39b661d1cbc1621eb1450694fae1d3f",
          "initCode": "0x608060405234801561000f575f5ffd5b506040516106de3803806106de83398101604081905261002e916100f6565b816001600160a01b03811661005c57604051631e4fbdf760e01b81525f600482015260240160405180910390fd5b6100658161008c565b50600180546001600160a01b0319166001600160a01b039290921691909117905550610127565b5f80546001600160a01b038381166001600160a01b0319831681178455604051919092169283917f8be0079c531659141344cd1fd0a4f28419497f9722a3daafe3b4186f6b6457e09190a35050565b80516001600160a01b03811681146100f1575f5ffd5b919050565b5f5f60408385031215610107575f5ffd5b610110836100db565b915061011e602084016100db565b90509250929050565b6105aa806101345f395ff3fe608060405234801561000f575f5ffd5b5060043610610060575f3560e01c8063010ec441146100645780634c92503214610093578063715018a6146100a85780638da5cb5b146100b0578063dbfefe98146100c0578063f2fde38b146100d3575b5f5ffd5b600154610077906001600160a01b031681565b6040516001600160a01b03909116815260200160405180910390f35b6100a66100a136600461044c565b6100e6565b005b6100a6610110565b5f546001600160a01b0316610077565b6100a66100ce3660046104c1565b610123565b6100a66100e136600461044c565b610394565b6100ee6103d1565b600180546001600160a01b0319166001600160a01b0392909216919091179055565b6101186103d1565b6101215f6103fd565b565b6001546001600160a01b031633146101a85760405162461bcd60e51b815260206004820152603760248201527f4d6f636b41676772656761746f7242617463685265706f727465723a2063616c60448201527f6c6572206973206e6f7420746865207265706f7274657200000000000000000060648201526084015b60405180910390fd5b84831480156101b657508481145b61021d5760405162461bcd60e51b815260206004820152603260248201527f4d6f636b41676772656761746f7242617463685265706f727465723a206172726044820152710c2f240d8cadccee8d040dad2e6dac2e8c6d60731b606482015260840161019f565b5f5b8581101561038b5786868281811061023957610239610560565b905060200201602081019061024e919061044c565b6001600160a01b0316630f3d249d86868481811061026e5761026e610560565b9050602002013585858581811061028757610287610560565b905060200201356040518363ffffffff1660e01b81526004016102b4929190918252602082015260400190565b5f604051808303815f87803b1580156102cb575f5ffd5b505af11580156102dd573d5f5f3e3d5ffd5b505050508686828181106102f3576102f3610560565b9050602002016020810190610308919061044c565b6001600160a01b03167f8b1e3ba843a19c9b267e01bb1da4c9bbe6efdd539984bcbc0ec69a6e0e9af78786868481811061034457610344610560565b9050602002013585858581811061035d5761035d610560565b9050602002013560405161037b929190918252602082015260400190565b60405180910390a260010161021f565b50505050505050565b61039c6103d1565b6001600160a01b0381166103c557604051631e4fbdf760e01b81525f600482015260240161019f565b6103ce816103fd565b50565b5f546001600160a01b031633146101215760405163118cdaa760e01b815233600482015260240161019f565b5f80546001600160a01b038381166001600160a01b0319831681178455604051919092169283917f8be0079c531659141344cd1fd0a4f28419497f9722a3daafe3b4186f6b6457e09190a35050565b5f6020828403121561045c575f5ffd5b81356001600160a01b0381168114610472575f5ffd5b9392505050565b5f5f83601f840112610489575f5ffd5b50813567ffffffffffffffff8111156104a0575f5ffd5b6020830191508360208260051b85010111156104ba575f5ffd5b9250929050565b5f5f5f5f5f5f606087890312156104d6575f5ffd5b863567ffffffffffffffff8111156104ec575f5ffd5b6104f889828a01610479565b909750955050602087013567ffffffffffffffff811115610517575f5ffd5b61052389828a01610479565b909550935050604087013567ffffffffffffffff811115610542575f5ffd5b61054e89828a01610479565b979a9699509497509295939492505050565b634e487b7160e01b5f52603260045260245ffdfea26469706673582212200de3c28c9d2741da40f1ae2204255121b080b8cf1f5e9f95536afbcb9199f96764736f6c634300082100330000000000000000000000002738f38fde510743e0c589415e0598c4cee6eaa7000000000000000000000000abcde369cddd1665e4ebd9214b8e9a595271272c"
        }
      ],
      "isFixedGasLimit": false
    }
  ],
  "receipts": [
    {
      "type": "0x2",
      "status": "0x1",
      "cumulativeGasUsed": "0x9b626",
      "logs": [
        {
          "address": "0xba5ed099633d3b313e4d5f7bdc1305d3c28ba5ed",
          "topics": [
            "0x2feea65dd4e9f9cbd86b74b7734210c59a1b2981b5b137bd0ee3e208200c9067",
            "0x000000000000000000000000bada1c4b3a10d9181734dbd1558b839f916fdea7",
            "0x9b4fe54aff16a7532a2a45d99385b8f713a4ef0e42aafb698d278cae5e4e3c41"
          ],
          "data": "0x",
          "blockHash": "0x66bba1a992c7c399d4f667058ef5c5365182c4f1d442d3fd6e4be8ec81a8b3ed",
          "blockNumber": "0x1324487",
          "blockTimestamp": "0x69bd6be6",
          "transactionHash": "0xc68df891d6230f640d6493b9ad161236690cefe54a1e1186f5ca5f29157926fe",
          "transactionIndex": "0x1",
          "logIndex": "0x1",
          "removed": false
        },
        {
          "address": "0xbf111982c39b661d1cbc1621eb1450694fae1d3f",
          "topics": [
            "0x8be0079c531659141344cd1fd0a4f28419497f9722a3daafe3b4186f6b6457e0",
            "0x0000000000000000000000000000000000000000000000000000000000000000",
            "0x0000000000000000000000002738f38fde510743e0c589415e0598c4cee6eaa7"
          ],
          "data": "0x",
          "blockHash": "0x66bba1a992c7c399d4f667058ef5c5365182c4f1d442d3fd6e4be8ec81a8b3ed",
          "blockNumber": "0x1324487",
          "blockTimestamp": "0x69bd6be6",
          "transactionHash": "0xc68df891d6230f640d6493b9ad161236690cefe54a1e1186f5ca5f29157926fe",
          "transactionIndex": "0x1",
          "logIndex": "0x2",
          "removed": false
        },
        {
          "address": "0xba5ed099633d3b313e4d5f7bdc1305d3c28ba5ed",
          "topics": [
            "0x4db17dd5e4732fb6da34a148104a592783ca119a1e7bb8829eba6cbadef0b511",
            "0x000000000000000000000000bf111982c39b661d1cbc1621eb1450694fae1d3f"
          ],
          "data": "0x",
          "blockHash": "0x66bba1a992c7c399d4f667058ef5c5365182c4f1d442d3fd6e4be8ec81a8b3ed",
          "blockNumber": "0x1324487",
          "blockTimestamp": "0x69bd6be6",
          "transactionHash": "0xc68df891d6230f640d6493b9ad161236690cefe54a1e1186f5ca5f29157926fe",
          "transactionIndex": "0x1",
          "logIndex": "0x3",
          "removed": false
        }
      ],
      "logsBloom": "0x00020000000000000004000000000000000000000000000000800000200000000000000000000000000000000800000000000000000004000000000000000000002000000000000000000000020000000001000000000000000000000000000000000000020000000000000000000800000000000020000000000000000000400000000000000000000000000000000001000000200000000000004010000010000000000000000000000100000000000008020000000000000000000000000000000800000000000200000000000000000000002000000000000000000021000000000000000200000200000020000000000000000000000000000000400000",
      "transactionHash": "0xc68df891d6230f640d6493b9ad161236690cefe54a1e1186f5ca5f29157926fe",
      "transactionIndex": "0x1",
      "blockHash": "0x66bba1a992c7c399d4f667058ef5c5365182c4f1d442d3fd6e4be8ec81a8b3ed",
      "blockNumber": "0x1324487",
      "gasUsed": "0x9b626",
      "effectiveGasPrice": "0x1833286361",
      "from": "0x2738f38fde510743e0c589415e0598c4cee6eaa7",
      "to": "0xba5ed099633d3b313e4d5f7bdc1305d3c28ba5ed",
      "contractAddress": null
    }
  ],
  "libraries": [
    "lib/mento-core/node_modules/@celo/contracts/common/linkedlists/AddressSortedLinkedListWithMedian.sol:AddressSortedLinkedListWithMedian:0x8E1B1312EC92C9f8073296c4Cf1E60D31d228269"
  ],
  "pending": [],
  "returns": {},
  "timestamp": 1774021606419,
  "chain": 10143,
  "commit": "725096f"
}