{
  "transactions": [
    {
      "hash": "0x573a3cfff9eba1881f8b03b036ef4d83d2608cc93f2a91c392ee411143020a4a",
      "transactionType": "CALL",
      "contractName": null,
      "contractAddress": "0xba5ed099633d3b313e4d5f7bdc1305d3c28ba5ed",
      "function": "deployCreate3(bytes32,bytes)",
      "arguments": [
        "0x2738f38fde510743e0c589415e0598c4cee6eaa700d2d1803368a3e603b6b75f",
        "0x608060405234801561000f575f5ffd5b5060405161064038038061064083398101604081905261002e916100f6565b816001600160a01b03811661005c57604051631e4fbdf760e01b81525f600482015260240160405180910390fd5b6100658161008c565b50600180546001600160a01b0319166001600160a01b039290921691909117905550610127565b5f80546001600160a01b038381166001600160a01b0319831681178455604051919092169283917f8be0079c531659141344cd1fd0a4f28419497f9722a3daafe3b4186f6b6457e09190a35050565b80516001600160a01b03811681146100f1575f5ffd5b919050565b5f5f60408385031215610107575f5ffd5b610110836100db565b915061011e602084016100db565b90509250929050565b61050c806101345f395ff3fe608060405234801561000f575f5ffd5b5060043610610060575f3560e01c8063010ec441146100645780634c92503214610093578063715018a6146100a85780638da5cb5b146100b0578063dbfefe98146100c0578063f2fde38b146100d3575b5f5ffd5b600154610077906001600160a01b031681565b6040516001600160a01b03909116815260200160405180910390f35b6100a66100a13660046103ae565b6100e6565b005b6100a6610110565b5f546001600160a01b0316610077565b6100a66100ce366004610423565b610123565b6100a66100e13660046103ae565b6102f6565b6100ee610333565b600180546001600160a01b0319166001600160a01b0392909216919091179055565b610118610333565b6101215f61035f565b565b6001546001600160a01b031633146101a85760405162461bcd60e51b815260206004820152603760248201527f4d6f636b41676772656761746f7242617463685265706f727465723a2063616c60448201527f6c6572206973206e6f7420746865207265706f7274657200000000000000000060648201526084015b60405180910390fd5b84831480156101b657508481145b61021d5760405162461bcd60e51b815260206004820152603260248201527f4d6f636b41676772656761746f7242617463685265706f727465723a206172726044820152710c2f240d8cadccee8d040dad2e6dac2e8c6d60731b606482015260840161019f565b5f5b858110156102ed57868682818110610239576102396104c2565b905060200201602081019061024e91906103ae565b6001600160a01b0316630f3d249d86868481811061026e5761026e6104c2565b90506020020135858585818110610287576102876104c2565b905060200201356040518363ffffffff1660e01b81526004016102b4929190918252602082015260400190565b5f604051808303815f87803b1580156102cb575f5ffd5b505af11580156102dd573d5f5f3e3d5ffd5b50506001909201915061021f9050565b50505050505050565b6102fe610333565b6001600160a01b03811661032757604051631e4fbdf760e01b81525f600482015260240161019f565b6103308161035f565b50565b5f546001600160a01b031633146101215760405163118cdaa760e01b815233600482015260240161019f565b5f80546001600160a01b038381166001600160a01b0319831681178455604051919092169283917f8be0079c531659141344cd1fd0a4f28419497f9722a3daafe3b4186f6b6457e09190a35050565b5f602082840312156103be575f5ffd5b81356001600160a01b03811681146103d4575f5ffd5b9392505050565b5f5f83601f8401126103eb575f5ffd5b50813567ffffffffffffffff811115610402575f5ffd5b6020830191508360208260051b850101111561041c575f5ffd5b9250929050565b5f5f5f5f5f5f60608789031215610438575f5ffd5b863567ffffffffffffffff81111561044e575f5ffd5b61045a89828a016103db565b909750955050602087013567ffffffffffffffff811115610479575f5ffd5b61048589828a016103db565b909550935050604087013567ffffffffffffffff8111156104a4575f5ffd5b6104b089828a016103db565b979a9699509497509295939492505050565b634e487b7160e01b5f52603260045260245ffdfea26469706673582212203fec04494231190ca2e4813bb3b2b07aa3f03c9dcf253d0dcc6cb5cb3e2363bd64736f6c634300082100330000000000000000000000002738f38fde510743e0c589415e0598c4cee6eaa7000000000000000000000000abcde369cddd1665e4ebd9214b8e9a595271272c"
      ],
      "transaction": {
        "from": "0x2738f38fde510743e0c589415e0598c4cee6eaa7",
        "to": "0xba5ed099633d3b313e4d5f7bdc1305d3c28ba5ed",
        "gas": "0x8e512",
        "value": "0x0",
        "input": "0x9c36a2862738f38fde510743e0c589415e0598c4cee6eaa700d2d1803368a3e603b6b75f00000000000000000000000000000000000000000000000000000000000000400000000000000000000000000000000000000000000000000000000000000680608060405234801561000f575f5ffd5b5060405161064038038061064083398101604081905261002e916100f6565b816001600160a01b03811661005c57604051631e4fbdf760e01b81525f600482015260240160405180910390fd5b6100658161008c565b50600180546001600160a01b0319166001600160a01b039290921691909117905550610127565b5f80546001600160a01b038381166001600160a01b0319831681178455604051919092169283917f8be0079c531659141344cd1fd0a4f28419497f9722a3daafe3b4186f6b6457e09190a35050565b80516001600160a01b03811681146100f1575f5ffd5b919050565b5f5f60408385031215610107575f5ffd5b610110836100db565b915061011e602084016100db565b90509250929050565b61050c806101345f395ff3fe608060405234801561000f575f5ffd5b5060043610610060575f3560e01c8063010ec441146100645780634c92503214610093578063715018a6146100a85780638da5cb5b146100b0578063dbfefe98146100c0578063f2fde38b146100d3575b5f5ffd5b600154610077906001600160a01b031681565b6040516001600160a01b03909116815260200160405180910390f35b6100a66100a13660046103ae565b6100e6565b005b6100a6610110565b5f546001600160a01b0316610077565b6100a66100ce366004610423565b610123565b6100a66100e13660046103ae565b6102f6565b6100ee610333565b600180546001600160a01b0319166001600160a01b0392909216919091179055565b610118610333565b6101215f61035f565b565b6001546001600160a01b031633146101a85760405162461bcd60e51b815260206004820152603760248201527f4d6f636b41676772656761746f7242617463685265706f727465723a2063616c60448201527f6c6572206973206e6f7420746865207265706f7274657200000000000000000060648201526084015b60405180910390fd5b84831480156101b657508481145b61021d5760405162461bcd60e51b815260206004820152603260248201527f4d6f636b41676772656761746f7242617463685265706f727465723a206172726044820152710c2f240d8cadccee8d040dad2e6dac2e8c6d60731b606482015260840161019f565b5f5b858110156102ed57868682818110610239576102396104c2565b905060200201602081019061024e91906103ae565b6001600160a01b0316630f3d249d86868481811061026e5761026e6104c2565b90506020020135858585818110610287576102876104c2565b905060200201356040518363ffffffff1660e01b81526004016102b4929190918252602082015260400190565b5f604051808303815f87803b1580156102cb575f5ffd5b505af11580156102dd573d5f5f3e3d5ffd5b50506001909201915061021f9050565b50505050505050565b6102fe610333565b6001600160a01b03811661032757604051631e4fbdf760e01b81525f600482015260240161019f565b6103308161035f565b50565b5f546001600160a01b031633146101215760405163118cdaa760e01b815233600482015260240161019f565b5f80546001600160a01b038381166001600160a01b0319831681178455604051919092169283917f8be0079c531659141344cd1fd0a4f28419497f9722a3daafe3b4186f6b6457e09190a35050565b5f602082840312156103be575f5ffd5b81356001600160a01b03811681146103d4575f5ffd5b9392505050565b5f5f83601f8401126103eb575f5ffd5b50813567ffffffffffffffff811115610402575f5ffd5b6020830191508360208260051b850101111561041c575f5ffd5b9250929050565b5f5f5f5f5f5f60608789031215610438575f5ffd5b863567ffffffffffffffff81111561044e575f5ffd5b61045a89828a016103db565b909750955050602087013567ffffffffffffffff811115610479575f5ffd5b61048589828a016103db565b909550935050604087013567ffffffffffffffff8111156104a4575f5ffd5b6104b089828a016103db565b979a9699509497509295939492505050565b634e487b7160e01b5f52603260045260245ffdfea26469706673582212203fec04494231190ca2e4813bb3b2b07aa3f03c9dcf253d0dcc6cb5cb3e2363bd64736f6c634300082100330000000000000000000000002738f38fde510743e0c589415e0598c4cee6eaa7000000000000000000000000abcde369cddd1665e4ebd9214b8e9a595271272c",
        "nonce": "0xf3",
        "chainId": "0x279f"
      },
      "additionalContracts": [
        {
          "transactionType": "CREATE2",
          "contractName": null,
          "address": "0x8444e8e6ac1e4c465bd091e6d13cad487ba75d69",
          "initCode": "0x67363d3d37363d34f03d5260086018f3"
        },
        {
          "transactionType": "CREATE",
          "contractName": "MockAggregatorBatchReporter",
          "address": "0x84af7ea77d80cb8080abdf5e4982ea064b6775f8",
          "initCode": "0x608060405234801561000f575f5ffd5b5060405161064038038061064083398101604081905261002e916100f6565b816001600160a01b03811661005c57604051631e4fbdf760e01b81525f600482015260240160405180910390fd5b6100658161008c565b50600180546001600160a01b0319166001600160a01b039290921691909117905550610127565b5f80546001600160a01b038381166001600160a01b0319831681178455604051919092169283917f8be0079c531659141344cd1fd0a4f28419497f9722a3daafe3b4186f6b6457e09190a35050565b80516001600160a01b03811681146100f1575f5ffd5b919050565b5f5f60408385031215610107575f5ffd5b610110836100db565b915061011e602084016100db565b90509250929050565b61050c806101345f395ff3fe608060405234801561000f575f5ffd5b5060043610610060575f3560e01c8063010ec441146100645780634c92503214610093578063715018a6146100a85780638da5cb5b146100b0578063dbfefe98146100c0578063f2fde38b146100d3575b5f5ffd5b600154610077906001600160a01b031681565b6040516001600160a01b03909116815260200160405180910390f35b6100a66100a13660046103ae565b6100e6565b005b6100a6610110565b5f546001600160a01b0316610077565b6100a66100ce366004610423565b610123565b6100a66100e13660046103ae565b6102f6565b6100ee610333565b600180546001600160a01b0319166001600160a01b0392909216919091179055565b610118610333565b6101215f61035f565b565b6001546001600160a01b031633146101a85760405162461bcd60e51b815260206004820152603760248201527f4d6f636b41676772656761746f7242617463685265706f727465723a2063616c60448201527f6c6572206973206e6f7420746865207265706f7274657200000000000000000060648201526084015b60405180910390fd5b84831480156101b657508481145b61021d5760405162461bcd60e51b815260206004820152603260248201527f4d6f636b41676772656761746f7242617463685265706f727465723a206172726044820152710c2f240d8cadccee8d040dad2e6dac2e8c6d60731b606482015260840161019f565b5f5b858110156102ed57868682818110610239576102396104c2565b905060200201602081019061024e91906103ae565b6001600160a01b0316630f3d249d86868481811061026e5761026e6104c2565b90506020020135858585818110610287576102876104c2565b905060200201356040518363ffffffff1660e01b81526004016102b4929190918252602082015260400190565b5f604051808303815f87803b1580156102cb575f5ffd5b505af11580156102dd573d5f5f3e3d5ffd5b50506001909201915061021f9050565b50505050505050565b6102fe610333565b6001600160a01b03811661032757604051631e4fbdf760e01b81525f600482015260240161019f565b6103308161035f565b50565b5f546001600160a01b031633146101215760405163118cdaa760e01b815233600482015260240161019f565b5f80546001600160a01b038381166001600160a01b0319831681178455604051919092169283917f8be0079c531659141344cd1fd0a4f28419497f9722a3daafe3b4186f6b6457e09190a35050565b5f602082840312156103be575f5ffd5b81356001600160a01b03811681146103d4575f5ffd5b9392505050565b5f5f83601f8401126103eb575f5ffd5b50813567ffffffffffffffff811115610402575f5ffd5b6020830191508360208260051b850101111561041c575f5ffd5b9250929050565b5f5f5f5f5f5f60608789031215610438575f5ffd5b863567ffffffffffffffff81111561044e575f5ffd5b61045a89828a016103db565b909750955050602087013567ffffffffffffffff811115610479575f5ffd5b61048589828a016103db565b909550935050604087013567ffffffffffffffff8111156104a4575f5ffd5b6104b089828a016103db565b979a9699509497509295939492505050565b634e487b7160e01b5f52603260045260245ffdfea26469706673582212203fec04494231190ca2e4813bb3b2b07aa3f03c9dcf253d0dcc6cb5cb3e2363bd64736f6c634300082100330000000000000000000000002738f38fde510743e0c589415e0598c4cee6eaa7000000000000000000000000abcde369cddd1665e4ebd9214b8e9a595271272c"
        }
      ],
      "isFixedGasLimit": false
    }
  ],
  "receipts": [
    {
      "type": "0x2",
      "status": "0x1",
      "cumulativeGasUsed": "0x8e512",
      "logs": [
        {
          "address": "0xba5ed099633d3b313e4d5f7bdc1305d3c28ba5ed",
          "topics": [
            "0x2feea65dd4e9f9cbd86b74b7734210c59a1b2981b5b137bd0ee3e208200c9067",
            "0x0000000000000000000000008444e8e6ac1e4c465bd091e6d13cad487ba75d69",
            "0xdc0729bf233f045dd0ca6254fea399cb4cd183819804869d6848d735c13441ac"
          ],
          "data": "0x",
          "blockHash": "0x1e3d7e0db9c82b98529ac9ff1e21d4c7bff58356b74788cdb205b22c3ef615b1",
          "blockNumber": "0x131c86f",
          "blockTimestamp": "0x69bd3a3b",
          "transactionHash": "0x573a3cfff9eba1881f8b03b036ef4d83d2608cc93f2a91c392ee411143020a4a",
          "transactionIndex": "0x1",
          "logIndex": "0x1",
          "removed": false
        },
        {
          "address": "0x84af7ea77d80cb8080abdf5e4982ea064b6775f8",
          "topics": [
            "0x8be0079c531659141344cd1fd0a4f28419497f9722a3daafe3b4186f6b6457e0",
            "0x0000000000000000000000000000000000000000000000000000000000000000",
            "0x0000000000000000000000002738f38fde510743e0c589415e0598c4cee6eaa7"
          ],
          "data": "0x",
          "blockHash": "0x1e3d7e0db9c82b98529ac9ff1e21d4c7bff58356b74788cdb205b22c3ef615b1",
          "blockNumber": "0x131c86f",
          "blockTimestamp": "0x69bd3a3b",
          "transactionHash": "0x573a3cfff9eba1881f8b03b036ef4d83d2608cc93f2a91c392ee411143020a4a",
          "transactionIndex": "0x1",
          "logIndex": "0x2",
          "removed": false
        },
        {
          "address": "0xba5ed099633d3b313e4d5f7bdc1305d3c28ba5ed",
          "topics": [
            "0x4db17dd5e4732fb6da34a148104a592783ca119a1e7bb8829eba6cbadef0b511",
            "0x00000000000000000000000084af7ea77d80cb8080abdf5e4982ea064b6775f8"
          ],
          "data": "0x",
          "blockHash": "0x1e3d7e0db9c82b98529ac9ff1e21d4c7bff58356b74788cdb205b22c3ef615b1",
          "blockNumber": "0x131c86f",
          "blockTimestamp": "0x69bd3a3b",
          "transactionHash": "0x573a3cfff9eba1881f8b03b036ef4d83d2608cc93f2a91c392ee411143020a4a",
          "transactionIndex": "0x1",
          "logIndex": "0x3",
          "removed": false
        }
      ],
      "logsBloom": "0x00020000000000000000000000000080000000000000000000800000200000000000000000001000000000000000000000020000000004000000000000000000002000000000200040000000020000000001000000000000000000020000000000200000020000000000000000000800000000000020000000000000000000400000000000000000000000001000000400000000000000000400004000000010000000000000000000000000000000000000000000000000000000000000000000000802000000000200000000000000000000002000000000000000000020000000000000000200000000000000000000000000000000000000000008000000",
      "transactionHash": "0x573a3cfff9eba1881f8b03b036ef4d83d2608cc93f2a91c392ee411143020a4a",
      "transactionIndex": "0x1",
      "blockHash": "0x1e3d7e0db9c82b98529ac9ff1e21d4c7bff58356b74788cdb205b22c3ef615b1",
      "blockNumber": "0x131c86f",
      "gasUsed": "0x8e512",
      "effectiveGasPrice": "0x181b9985aa",
      "from": "0x2738f38fde510743e0c589415e0598c4cee6eaa7",
      "to": "0xba5ed099633d3b313e4d5f7bdc1305d3c28ba5ed",
      "contractAddress": null
    }
  ],
  "libraries": [
    "lib/mento-core/node_modules/@celo/contracts/common/linkedlists/AddressSortedLinkedListWithMedian.sol:AddressSortedLinkedListWithMedian:0x8E1B1312EC92C9f8073296c4Cf1E60D31d228269"
  ],
  "pending": [],
  "returns": {},
  "timestamp": 1774008891810,
  "chain": 10143,
  "commit": "6eb5f9b"
}