{
  "transactions": [
    {
      "hash": "0xea0ded9d06c07b2789a473c8e1bab52cf279519e289bbb072d11a1f74026faba",
      "transactionType": "CALL",
      "contractName": "MockChainlinkAggregator",
      "contractAddress": "0x02cad821a8ab80a417d682d38a4784ef7887711d",
      "function": "report(int256,uint256)",
      "arguments": [
        "99982506",
        "1757418277"
      ],
      "transaction": {
        "from": "0xabcde369cddd1665e4ebd9214b8e9a595271272c",
        "to": "0x02cad821a8ab80a417d682d38a4784ef7887711d",
        "gas": "0xc220",
        "value": "0x0",
        "input": "0x0f3d249d0000000000000000000000000000000000000000000000000000000005f59caa0000000000000000000000000000000000000000000000000000000068c01325",
        "nonce": "0x11",
        "chainId": "0x279f"
      },
      "additionalContracts": [],
      "isFixedGasLimit": false
    },
    {
      "hash": "0x56b78d97154d8303fc3c52cfdc3ef2009b87bcf8ba84c6194b822699f5da98f9",
      "transactionType": "CALL",
      "contractName": "MockChainlinkAggregator",
      "contractAddress": "0xc51c67ade4c6a37daa31eac104417705dfc810da",
      "function": "report(int256,uint256)",
      "arguments": [
        "100007771",
        "1757418268"
      ],
      "transaction": {
        "from": "0xabcde369cddd1665e4ebd9214b8e9a595271272c",
        "to": "0xc51c67ade4c6a37daa31eac104417705dfc810da",
        "gas": "0xc220",
        "value": "0x0",
        "input": "0x0f3d249d0000000000000000000000000000000000000000000000000000000005f5ff5b0000000000000000000000000000000000000000000000000000000068c0131c",
        "nonce": "0x12",
        "chainId": "0x279f"
      },
      "additionalContracts": [],
      "isFixedGasLimit": false
    },
    {
      "hash": "0x1725d8e26850d5319b4c5049d17807fea1493e66285426a251f9f86263b5c1e8",
      "transactionType": "CALL",
      "contractName": "MockChainlinkAggregator",
      "contractAddress": "0x366609f8445b2b33d1e8a592e18eaaff89e8bedb",
      "function": "report(int256,uint256)",
      "arguments": [
        "117478496",
        "1757418227"
      ],
      "transaction": {
        "from": "0xabcde369cddd1665e4ebd9214b8e9a595271272c",
        "to": "0x366609f8445b2b33d1e8a592e18eaaff89e8bedb",
        "gas": "0xc210",
        "value": "0x0",
        "input": "0x0f3d249d00000000000000000000000000000000000000000000000000000000070094600000000000000000000000000000000000000000000000000000000068c012f3",
        "nonce": "0x13",
        "chainId": "0x279f"
      },
      "additionalContracts": [],
      "isFixedGasLimit": false
    },
    {
      "hash": "0x4ebd5db11ce6fb9ae583ba6ff940c486f356ffb3e9837d5b8cfc9630f3cc990f",
      "transactionType": "CALL",
      "contractName": "MockChainlinkAggregator",
      "contractAddress": "0x17117be87ae0bccb6b0923d096a20042185d8bc8",
      "function": "report(int256,uint256)",
      "arguments": [
        "117478496",
        "1757418227"
      ],
      "transaction": {
        "from": "0xabcde369cddd1665e4ebd9214b8e9a595271272c",
        "to": "0x17117be87ae0bccb6b0923d096a20042185d8bc8",
        "gas": "0xc210",
        "value": "0x0",
        "input": "0x0f3d249d00000000000000000000000000000000000000000000000000000000070094600000000000000000000000000000000000000000000000000000000068c012f3",
        "nonce": "0x14",
        "chainId": "0x279f"
      },
      "additionalContracts": [],
      "isFixedGasLimit": false
    },
    {
      "hash": "0x5c2f3ed0eb5cf7fc26389fa63a723354f6d57ea955721002433906c90ff6df30",
      "transactionType": "CALL",
      "contractName": "MockChainlinkAggregator",
      "contractAddress": "0x6f9b5465802afde16934ece2462955bce857e365",
      "function": "report(int256,uint256)",
      "arguments": [
        "18442698",
        "1757418284"
      ],
      "transaction": {
        "from": "0xabcde369cddd1665e4ebd9214b8e9a595271272c",
        "to": "0x6f9b5465802afde16934ece2462955bce857e365",
        "gas": "0xc220",
        "value": "0x0",
        "input": "0x0f3d249d00000000000000000000000000000000000000000000000000000000011969ca0000000000000000000000000000000000000000000000000000000068c0132c",
        "nonce": "0x15",
        "chainId": "0x279f"
      },
      "additionalContracts": [],
      "isFixedGasLimit": false
    },
    {
      "hash": "0x5af00866d222e1976b9793ff6e77e5a1f93a9f976a981c28f4b9da54d43bcf91",
      "transactionType": "CALL",
      "contractName": "MockChainlinkAggregator",
      "contractAddress": "0xf48d1fe1754a918d0b91113298b5f3fbb9025060",
      "function": "report(int256,uint256)",
      "arguments": [
        "1789933414476981",
        "1757418323"
      ],
      "transaction": {
        "from": "0xabcde369cddd1665e4ebd9214b8e9a595271272c",
        "to": "0xf48d1fe1754a918d0b91113298b5f3fbb9025060",
        "gas": "0xb337",
        "value": "0x0",
        "input": "0x0f3d249d00000000000000000000000000000000000000000000000000065bef59576cb50000000000000000000000000000000000000000000000000000000068c01353",
        "nonce": "0x16",
        "chainId": "0x279f"
      },
      "additionalContracts": [],
      "isFixedGasLimit": false
    },
    {
      "hash": "0x2d61b25e061856bf7120778bb51ecbb920864052dabbac1d94c7cfd33e25a7c4",
      "transactionType": "CALL",
      "contractName": "MockChainlinkAggregator",
      "contractAddress": "0x9b9fe8a5e206047fc442a46ea78d1a55ef9040f4",
      "function": "report(int256,uint256)",
      "arguments": [
        "7739698461347946",
        "1757418106"
      ],
      "transaction": {
        "from": "0xabcde369cddd1665e4ebd9214b8e9a595271272c",
        "to": "0x9b9fe8a5e206047fc442a46ea78d1a55ef9040f4",
        "gas": "0xb337",
        "value": "0x0",
        "input": "0x0f3d249d000000000000000000000000000000000000000000000000001b7f36f975106a0000000000000000000000000000000000000000000000000000000068c0127a",
        "nonce": "0x17",
        "chainId": "0x279f"
      },
      "additionalContracts": [],
      "isFixedGasLimit": false
    },
    {
      "hash": "0xd0dc7ac5e689f3e40c3e25dd900422d4a4990c991660dc5cf187c5f425f5dd16",
      "transactionType": "CALL",
      "contractName": "MockChainlinkAggregator",
      "contractAddress": "0x6c3c523f4460f7658eccccfd39c76437ad19d742",
      "function": "report(int256,uint256)",
      "arguments": [
        "1758186",
        "1757418299"
      ],
      "transaction": {
        "from": "0xabcde369cddd1665e4ebd9214b8e9a595271272c",
        "to": "0x6c3c523f4460f7658eccccfd39c76437ad19d742",
        "gas": "0xc210",
        "value": "0x0",
        "input": "0x0f3d249d00000000000000000000000000000000000000000000000000000000001ad3ea0000000000000000000000000000000000000000000000000000000068c0133b",
        "nonce": "0x18",
        "chainId": "0x279f"
      },
      "additionalContracts": [],
      "isFixedGasLimit": false
    },
    {
      "hash": "0x3bedf441c12bec0e5053c0efe27a034d7c19ccce225405c5a8c0015bd15e0a99",
      "transactionType": "CALL",
      "contractName": "MockChainlinkAggregator",
      "contractAddress": "0xbed53c78968e50899bfb42b9edff8cccba3b85fb",
      "function": "report(int256,uint256)",
      "arguments": [
        "25380",
        "1757418195"
      ],
      "transaction": {
        "from": "0xabcde369cddd1665e4ebd9214b8e9a595271272c",
        "to": "0xbed53c78968e50899bfb42b9edff8cccba3b85fb",
        "gas": "0xb2e4",
        "value": "0x0",
        "input": "0x0f3d249d00000000000000000000000000000000000000000000000000000000000063240000000000000000000000000000000000000000000000000000000068c012d3",
        "nonce": "0x19",
        "chainId": "0x279f"
      },
      "additionalContracts": [],
      "isFixedGasLimit": false
    },
    {
      "hash": "0x00d667f523686984cf457d44a52eb10e6fa1390b5c93a878605718f5cbf8faf3",
      "transactionType": "CALL",
      "contractName": "MockChainlinkAggregator",
      "contractAddress": "0x8b31ea83776e31fc3d21e13594be1e1978db0d66",
      "function": "report(int256,uint256)",
      "arguments": [
        "8247150",
        "1757418253"
      ],
      "transaction": {
        "from": "0xabcde369cddd1665e4ebd9214b8e9a595271272c",
        "to": "0x8b31ea83776e31fc3d21e13594be1e1978db0d66",
        "gas": "0xc210",
        "value": "0x0",
        "input": "0x0f3d249d00000000000000000000000000000000000000000000000000000000007dd76e0000000000000000000000000000000000000000000000000000000068c0130d",
        "nonce": "0x1a",
        "chainId": "0x279f"
      },
      "additionalContracts": [],
      "isFixedGasLimit": false
    },
    {
      "hash": "0x66fbfb3978bcf5a4f3c574eadf3a0a66bb32c06223f5f087ffbec46229b52a2b",
      "transactionType": "CALL",
      "contractName": "MockChainlinkAggregator",
      "contractAddress": "0xfb4caf2ce0488f955aaddd4272bedbffc0ac303a",
      "function": "report(int256,uint256)",
      "arguments": [
        "135676800",
        "1757418356"
      ],
      "transaction": {
        "from": "0xabcde369cddd1665e4ebd9214b8e9a595271272c",
        "to": "0xfb4caf2ce0488f955aaddd4272bedbffc0ac303a",
        "gas": "0xc220",
        "value": "0x0",
        "input": "0x0f3d249d00000000000000000000000000000000000000000000000000000000081643800000000000000000000000000000000000000000000000000000000068c01374",
        "nonce": "0x1b",
        "chainId": "0x279f"
      },
      "additionalContracts": [],
      "isFixedGasLimit": false
    },
    {
      "hash": "0xf16d841201897b57d3372407a41cc5d6430f3866cd2bbfcbc1f20b739a555fd0",
      "transactionType": "CALL",
      "contractName": "MockChainlinkAggregator",
      "contractAddress": "0x55054ac67c8f1894ecef32e5d5e71a2204f42879",
      "function": "report(int256,uint256)",
      "arguments": [
        "5723934",
        "1757418223"
      ],
      "transaction": {
        "from": "0xabcde369cddd1665e4ebd9214b8e9a595271272c",
        "to": "0x55054ac67c8f1894ecef32e5d5e71a2204f42879",
        "gas": "0xc210",
        "value": "0x0",
        "input": "0x0f3d249d000000000000000000000000000000000000000000000000000000000057571e0000000000000000000000000000000000000000000000000000000068c012ef",
        "nonce": "0x1c",
        "chainId": "0x279f"
      },
      "additionalContracts": [],
      "isFixedGasLimit": false
    },
    {
      "hash": "0xdcaeca51a45fa1f39083c64297d18c0a0aad3b1f6d7e8f025099eac1fbbf914c",
      "transactionType": "CALL",
      "contractName": "MockChainlinkAggregator",
      "contractAddress": "0x4dd4617060621e386df45b47c4cc2a1cf9dbd456",
      "function": "report(int256,uint256)",
      "arguments": [
        "72417064",
        "1757418133"
      ],
      "transaction": {
        "from": "0xabcde369cddd1665e4ebd9214b8e9a595271272c",
        "to": "0x4dd4617060621e386df45b47c4cc2a1cf9dbd456",
        "gas": "0xc220",
        "value": "0x0",
        "input": "0x0f3d249d000000000000000000000000000000000000000000000000000000000450ff280000000000000000000000000000000000000000000000000000000068c01295",
        "nonce": "0x1d",
        "chainId": "0x279f"
      },
      "additionalContracts": [],
      "isFixedGasLimit": false
    },
    {
      "hash": "0x9aa2707b78edd4a2fb3a84d75933435362d6719e70cf4f35dda72fe80cb63765",
      "transactionType": "CALL",
      "contractName": "MockChainlinkAggregator",
      "contractAddress": "0x48b6bec66a57640f1d3957efb74e77a2ade70d31",
      "function": "report(int256,uint256)",
      "arguments": [
        "66101800",
        "1757418356"
      ],
      "transaction": {
        "from": "0xabcde369cddd1665e4ebd9214b8e9a595271272c",
        "to": "0x48b6bec66a57640f1d3957efb74e77a2ade70d31",
        "gas": "0xc220",
        "value": "0x0",
        "input": "0x0f3d249d0000000000000000000000000000000000000000000000000000000003f0a2280000000000000000000000000000000000000000000000000000000068c01374",
        "nonce": "0x1e",
        "chainId": "0x279f"
      },
      "additionalContracts": [],
      "isFixedGasLimit": false
    },
    {
      "hash": "0xde58372c64886f483f27a883a1493920de677c88df529d897e2e5112c38e4be7",
      "transactionType": "CALL",
      "contractName": "MockChainlinkAggregator",
      "contractAddress": "0x6bcc89071b3ee0b2927b6a6597b3add6379cc5f2",
      "function": "report(int256,uint256)",
      "arguments": [
        "125978697",
        "1757418347"
      ],
      "transaction": {
        "from": "0xabcde369cddd1665e4ebd9214b8e9a595271272c",
        "to": "0x6bcc89071b3ee0b2927b6a6597b3add6379cc5f2",
        "gas": "0xc220",
        "value": "0x0",
        "input": "0x0f3d249d00000000000000000000000000000000000000000000000000000000078248490000000000000000000000000000000000000000000000000000000068c0136b",
        "nonce": "0x1f",
        "chainId": "0x279f"
      },
      "additionalContracts": [],
      "isFixedGasLimit": false
    },
    {
      "hash": "0xca6a98b647d86d08a40b2524c08bae39e510e8feaf2958a3a7212e7aa3049fb3",
      "transactionType": "CALL",
      "contractName": "MockChainlinkAggregator",
      "contractAddress": "0xe202ed51731c182bfc189c8d0017977fffefd8bc",
      "function": "report(int256,uint256)",
      "arguments": [
        "682170",
        "1757418214"
      ],
      "transaction": {
        "from": "0xabcde369cddd1665e4ebd9214b8e9a595271272c",
        "to": "0xe202ed51731c182bfc189c8d0017977fffefd8bc",
        "gas": "0xc210",
        "value": "0x0",
        "input": "0x0f3d249d00000000000000000000000000000000000000000000000000000000000a68ba0000000000000000000000000000000000000000000000000000000068c012e6",
        "nonce": "0x20",
        "chainId": "0x279f"
      },
      "additionalContracts": [],
      "isFixedGasLimit": false
    },
    {
      "hash": "0xd2f96f95ccf82383629dce86f1685bc5dd62e9b52f299b5d7df1a27b54d4ab72",
      "transactionType": "CALL",
      "contractName": "MockChainlinkAggregator",
      "contractAddress": "0x3a2f88440fcf8c86c2e81025d99048f33b090f2e",
      "function": "report(int256,uint256)",
      "arguments": [
        "663349917081260",
        "1757418340"
      ],
      "transaction": {
        "from": "0xabcde369cddd1665e4ebd9214b8e9a595271272c",
        "to": "0x3a2f88440fcf8c86c2e81025d99048f33b090f2e",
        "gas": "0xb337",
        "value": "0x0",
        "input": "0x0f3d249d00000000000000000000000000000000000000000000000000025b50302b5eac0000000000000000000000000000000000000000000000000000000068c01364",
        "nonce": "0x21",
        "chainId": "0x279f"
      },
      "additionalContracts": [],
      "isFixedGasLimit": false
    }
  ],
  "receipts": [
    {
      "status": "0x1",
      "cumulativeGasUsed": "0x37e3cd",
      "logs": [],
      "logsBloom": "0x00000000000000000000000000000000000000000000000000000000000000000000000000000000000000000000000000000000000000000000000000000000000000000000000000000000000000000000000000000000000000000000000000000000000000000000000000000000000000000000000000000000000000000000000000000000000000000000000000000000000000000000000000000000000000000000000000000000000000000000000000000000000000000000000000000000000000000000000000000000000000000000000000000000000000000000000000000000000000000000000000000000000000000000000000000000",
      "type": "0x2",
      "transactionHash": "0xea0ded9d06c07b2789a473c8e1bab52cf279519e289bbb072d11a1f74026faba",
      "transactionIndex": "0x1b",
      "blockHash": "0x266a504c73cc254b821f926dae4d46386b14631e8a4e927f4865df59dd4607fb",
      "blockNumber": "0x2265d12",
      "gasUsed": "0xc220",
      "effectiveGasPrice": "0xba43b7401",
      "from": "0xabcde369cddd1665e4ebd9214b8e9a595271272c",
      "to": "0x02cad821a8ab80a417d682d38a4784ef7887711d",
      "contractAddress": null
    },
    {
      "status": "0x1",
      "cumulativeGasUsed": "0x38a5ed",
      "logs": [],
      "logsBloom": "0x00000000000000000000000000000000000000000000000000000000000000000000000000000000000000000000000000000000000000000000000000000000000000000000000000000000000000000000000000000000000000000000000000000000000000000000000000000000000000000000000000000000000000000000000000000000000000000000000000000000000000000000000000000000000000000000000000000000000000000000000000000000000000000000000000000000000000000000000000000000000000000000000000000000000000000000000000000000000000000000000000000000000000000000000000000000",
      "type": "0x2",
      "transactionHash": "0x56b78d97154d8303fc3c52cfdc3ef2009b87bcf8ba84c6194b822699f5da98f9",
      "transactionIndex": "0x1c",
      "blockHash": "0x266a504c73cc254b821f926dae4d46386b14631e8a4e927f4865df59dd4607fb",
      "blockNumber": "0x2265d12",
      "gasUsed": "0xc220",
      "effectiveGasPrice": "0xba43b7401",
      "from": "0xabcde369cddd1665e4ebd9214b8e9a595271272c",
      "to": "0xc51c67ade4c6a37daa31eac104417705dfc810da",
      "contractAddress": null
    },
    {
      "status": "0x1",
      "cumulativeGasUsed": "0x3967fd",
      "logs": [],
      "logsBloom": "0x00000000000000000000000000000000000000000000000000000000000000000000000000000000000000000000000000000000000000000000000000000000000000000000000000000000000000000000000000000000000000000000000000000000000000000000000000000000000000000000000000000000000000000000000000000000000000000000000000000000000000000000000000000000000000000000000000000000000000000000000000000000000000000000000000000000000000000000000000000000000000000000000000000000000000000000000000000000000000000000000000000000000000000000000000000000",
      "type": "0x2",
      "transactionHash": "0x1725d8e26850d5319b4c5049d17807fea1493e66285426a251f9f86263b5c1e8",
      "transactionIndex": "0x1d",
      "blockHash": "0x266a504c73cc254b821f926dae4d46386b14631e8a4e927f4865df59dd4607fb",
      "blockNumber": "0x2265d12",
      "gasUsed": "0xc210",
      "effectiveGasPrice": "0xba43b7401",
      "from": "0xabcde369cddd1665e4ebd9214b8e9a595271272c",
      "to": "0x366609f8445b2b33d1e8a592e18eaaff89e8bedb",
      "contractAddress": null
    },
    {
      "status": "0x1",
      "cumulativeGasUsed": "0x3a2a0d",
      "logs": [],
      "logsBloom": "0x00000000000000000000000000000000000000000000000000000000000000000000000000000000000000000000000000000000000000000000000000000000000000000000000000000000000000000000000000000000000000000000000000000000000000000000000000000000000000000000000000000000000000000000000000000000000000000000000000000000000000000000000000000000000000000000000000000000000000000000000000000000000000000000000000000000000000000000000000000000000000000000000000000000000000000000000000000000000000000000000000000000000000000000000000000000",
      "type": "0x2",
      "transactionHash": "0x4ebd5db11ce6fb9ae583ba6ff940c486f356ffb3e9837d5b8cfc9630f3cc990f",
      "transactionIndex": "0x1e",
      "blockHash": "0x266a504c73cc254b821f926dae4d46386b14631e8a4e927f4865df59dd4607fb",
      "blockNumber": "0x2265d12",
      "gasUsed": "0xc210",
      "effectiveGasPrice": "0xba43b7401",
      "from": "0xabcde369cddd1665e4ebd9214b8e9a595271272c",
      "to": "0x17117be87ae0bccb6b0923d096a20042185d8bc8",
      "contractAddress": null
    },
    {
      "status": "0x1",
      "cumulativeGasUsed": "0x3aec2d",
      "logs": [],
      "logsBloom": "0x00000000000000000000000000000000000000000000000000000000000000000000000000000000000000000000000000000000000000000000000000000000000000000000000000000000000000000000000000000000000000000000000000000000000000000000000000000000000000000000000000000000000000000000000000000000000000000000000000000000000000000000000000000000000000000000000000000000000000000000000000000000000000000000000000000000000000000000000000000000000000000000000000000000000000000000000000000000000000000000000000000000000000000000000000000000",
      "type": "0x2",
      "transactionHash": "0x5c2f3ed0eb5cf7fc26389fa63a723354f6d57ea955721002433906c90ff6df30",
      "transactionIndex": "0x1f",
      "blockHash": "0x266a504c73cc254b821f926dae4d46386b14631e8a4e927f4865df59dd4607fb",
      "blockNumber": "0x2265d12",
      "gasUsed": "0xc220",
      "effectiveGasPrice": "0xba43b7401",
      "from": "0xabcde369cddd1665e4ebd9214b8e9a595271272c",
      "to": "0x6f9b5465802afde16934ece2462955bce857e365",
      "contractAddress": null
    },
    {
      "status": "0x1",
      "cumulativeGasUsed": "0x3c54c2",
      "logs": [],
      "logsBloom": "0x00000000000000000000000000000000000000000000000000000000000000000000000000000000000000000000000000000000000000000000000000000000000000000000000000000000000000000000000000000000000000000000000000000000000000000000000000000000000000000000000000000000000000000000000000000000000000000000000000000000000000000000000000000000000000000000000000000000000000000000000000000000000000000000000000000000000000000000000000000000000000000000000000000000000000000000000000000000000000000000000000000000000000000000000000000000",
      "type": "0x2",
      "transactionHash": "0x5af00866d222e1976b9793ff6e77e5a1f93a9f976a981c28f4b9da54d43bcf91",
      "transactionIndex": "0x21",
      "blockHash": "0x266a504c73cc254b821f926dae4d46386b14631e8a4e927f4865df59dd4607fb",
      "blockNumber": "0x2265d12",
      "gasUsed": "0xb337",
      "effectiveGasPrice": "0xba43b7401",
      "from": "0xabcde369cddd1665e4ebd9214b8e9a595271272c",
      "to": "0xf48d1fe1754a918d0b91113298b5f3fbb9025060",
      "contractAddress": null
    },
    {
      "status": "0x1",
      "cumulativeGasUsed": "0x3d07f9",
      "logs": [],
      "logsBloom": "0x00000000000000000000000000000000000000000000000000000000000000000000000000000000000000000000000000000000000000000000000000000000000000000000000000000000000000000000000000000000000000000000000000000000000000000000000000000000000000000000000000000000000000000000000000000000000000000000000000000000000000000000000000000000000000000000000000000000000000000000000000000000000000000000000000000000000000000000000000000000000000000000000000000000000000000000000000000000000000000000000000000000000000000000000000000000",
      "type": "0x2",
      "transactionHash": "0x2d61b25e061856bf7120778bb51ecbb920864052dabbac1d94c7cfd33e25a7c4",
      "transactionIndex": "0x22",
      "blockHash": "0x266a504c73cc254b821f926dae4d46386b14631e8a4e927f4865df59dd4607fb",
      "blockNumber": "0x2265d12",
      "gasUsed": "0xb337",
      "effectiveGasPrice": "0xba43b7401",
      "from": "0xabcde369cddd1665e4ebd9214b8e9a595271272c",
      "to": "0x9b9fe8a5e206047fc442a46ea78d1a55ef9040f4",
      "contractAddress": null
    },
    {
      "status": "0x1",
      "cumulativeGasUsed": "0x3dca09",
      "logs": [],
      "logsBloom": "0x00000000000000000000000000000000000000000000000000000000000000000000000000000000000000000000000000000000000000000000000000000000000000000000000000000000000000000000000000000000000000000000000000000000000000000000000000000000000000000000000000000000000000000000000000000000000000000000000000000000000000000000000000000000000000000000000000000000000000000000000000000000000000000000000000000000000000000000000000000000000000000000000000000000000000000000000000000000000000000000000000000000000000000000000000000000",
      "type": "0x2",
      "transactionHash": "0xd0dc7ac5e689f3e40c3e25dd900422d4a4990c991660dc5cf187c5f425f5dd16",
      "transactionIndex": "0x23",
      "blockHash": "0x266a504c73cc254b821f926dae4d46386b14631e8a4e927f4865df59dd4607fb",
      "blockNumber": "0x2265d12",
      "gasUsed": "0xc210",
      "effectiveGasPrice": "0xba43b7401",
      "from": "0xabcde369cddd1665e4ebd9214b8e9a595271272c",
      "to": "0x6c3c523f4460f7658eccccfd39c76437ad19d742",
      "contractAddress": null
    },
    {
      "status": "0x1",
      "cumulativeGasUsed": "0x3e7ced",
      "logs": [],
      "logsBloom": "0x00000000000000000000000000000000000000000000000000000000000000000000000000000000000000000000000000000000000000000000000000000000000000000000000000000000000000000000000000000000000000000000000000000000000000000000000000000000000000000000000000000000000000000000000000000000000000000000000000000000000000000000000000000000000000000000000000000000000000000000000000000000000000000000000000000000000000000000000000000000000000000000000000000000000000000000000000000000000000000000000000000000000000000000000000000000",
      "type": "0x2",
      "transactionHash": "0x3bedf441c12bec0e5053c0efe27a034d7c19ccce225405c5a8c0015bd15e0a99",
      "transactionIndex": "0x24",
      "blockHash": "0x266a504c73cc254b821f926dae4d46386b14631e8a4e927f4865df59dd4607fb",
      "blockNumber": "0x2265d12",
      "gasUsed": "0xb2e4",
      "effectiveGasPrice": "0xba43b7401",
      "from": "0xabcde369cddd1665e4ebd9214b8e9a595271272c",
      "to": "0xbed53c78968e50899bfb42b9edff8cccba3b85fb",
      "contractAddress": null
    },
    {
      "status": "0x1",
      "cumulativeGasUsed": "0x3f3efd",
      "logs": [],
      "logsBloom": "0x00000000000000000000000000000000000000000000000000000000000000000000000000000000000000000000000000000000000000000000000000000000000000000000000000000000000000000000000000000000000000000000000000000000000000000000000000000000000000000000000000000000000000000000000000000000000000000000000000000000000000000000000000000000000000000000000000000000000000000000000000000000000000000000000000000000000000000000000000000000000000000000000000000000000000000000000000000000000000000000000000000000000000000000000000000000",
      "type": "0x2",
      "transactionHash": "0x00d667f523686984cf457d44a52eb10e6fa1390b5c93a878605718f5cbf8faf3",
      "transactionIndex": "0x25",
      "blockHash": "0x266a504c73cc254b821f926dae4d46386b14631e8a4e927f4865df59dd4607fb",
      "blockNumber": "0x2265d12",
      "gasUsed": "0xc210",
      "effectiveGasPrice": "0xba43b7401",
      "from": "0xabcde369cddd1665e4ebd9214b8e9a595271272c",
      "to": "0x8b31ea83776e31fc3d21e13594be1e1978db0d66",
      "contractAddress": null
    },
    {
      "status": "0x1",
      "cumulativeGasUsed": "0x40011d",
      "logs": [],
      "logsBloom": "0x00000000000000000000000000000000000000000000000000000000000000000000000000000000000000000000000000000000000000000000000000000000000000000000000000000000000000000000000000000000000000000000000000000000000000000000000000000000000000000000000000000000000000000000000000000000000000000000000000000000000000000000000000000000000000000000000000000000000000000000000000000000000000000000000000000000000000000000000000000000000000000000000000000000000000000000000000000000000000000000000000000000000000000000000000000000",
      "type": "0x2",
      "transactionHash": "0x66fbfb3978bcf5a4f3c574eadf3a0a66bb32c06223f5f087ffbec46229b52a2b",
      "transactionIndex": "0x26",
      "blockHash": "0x266a504c73cc254b821f926dae4d46386b14631e8a4e927f4865df59dd4607fb",
      "blockNumber": "0x2265d12",
      "gasUsed": "0xc220",
      "effectiveGasPrice": "0xba43b7401",
      "from": "0xabcde369cddd1665e4ebd9214b8e9a595271272c",
      "to": "0xfb4caf2ce0488f955aaddd4272bedbffc0ac303a",
      "contractAddress": null
    },
    {
      "status": "0x1",
      "cumulativeGasUsed": "0x40c32d",
      "logs": [],
      "logsBloom": "0x00000000000000000000000000000000000000000000000000000000000000000000000000000000000000000000000000000000000000000000000000000000000000000000000000000000000000000000000000000000000000000000000000000000000000000000000000000000000000000000000000000000000000000000000000000000000000000000000000000000000000000000000000000000000000000000000000000000000000000000000000000000000000000000000000000000000000000000000000000000000000000000000000000000000000000000000000000000000000000000000000000000000000000000000000000000",
      "type": "0x2",
      "transactionHash": "0xf16d841201897b57d3372407a41cc5d6430f3866cd2bbfcbc1f20b739a555fd0",
      "transactionIndex": "0x27",
      "blockHash": "0x266a504c73cc254b821f926dae4d46386b14631e8a4e927f4865df59dd4607fb",
      "blockNumber": "0x2265d12",
      "gasUsed": "0xc210",
      "effectiveGasPrice": "0xba43b7401",
      "from": "0xabcde369cddd1665e4ebd9214b8e9a595271272c",
      "to": "0x55054ac67c8f1894ecef32e5d5e71a2204f42879",
      "contractAddress": null
    },
    {
      "status": "0x1",
      "cumulativeGasUsed": "0x41854d",
      "logs": [],
      "logsBloom": "0x00000000000000000000000000000000000000000000000000000000000000000000000000000000000000000000000000000000000000000000000000000000000000000000000000000000000000000000000000000000000000000000000000000000000000000000000000000000000000000000000000000000000000000000000000000000000000000000000000000000000000000000000000000000000000000000000000000000000000000000000000000000000000000000000000000000000000000000000000000000000000000000000000000000000000000000000000000000000000000000000000000000000000000000000000000000",
      "type": "0x2",
      "transactionHash": "0xdcaeca51a45fa1f39083c64297d18c0a0aad3b1f6d7e8f025099eac1fbbf914c",
      "transactionIndex": "0x28",
      "blockHash": "0x266a504c73cc254b821f926dae4d46386b14631e8a4e927f4865df59dd4607fb",
      "blockNumber": "0x2265d12",
      "gasUsed": "0xc220",
      "effectiveGasPrice": "0xba43b7401",
      "from": "0xabcde369cddd1665e4ebd9214b8e9a595271272c",
      "to": "0x4dd4617060621e386df45b47c4cc2a1cf9dbd456",
      "contractAddress": null
    },
    {
      "status": "0x1",
      "cumulativeGasUsed": "0x42476d",
      "logs": [],
      "logsBloom": "0x00000000000000000000000000000000000000000000000000000000000000000000000000000000000000000000000000000000000000000000000000000000000000000000000000000000000000000000000000000000000000000000000000000000000000000000000000000000000000000000000000000000000000000000000000000000000000000000000000000000000000000000000000000000000000000000000000000000000000000000000000000000000000000000000000000000000000000000000000000000000000000000000000000000000000000000000000000000000000000000000000000000000000000000000000000000",
      "type": "0x2",
      "transactionHash": "0x9aa2707b78edd4a2fb3a84d75933435362d6719e70cf4f35dda72fe80cb63765",
      "transactionIndex": "0x29",
      "blockHash": "0x266a504c73cc254b821f926dae4d46386b14631e8a4e927f4865df59dd4607fb",
      "blockNumber": "0x2265d12",
      "gasUsed": "0xc220",
      "effectiveGasPrice": "0xba43b7401",
      "from": "0xabcde369cddd1665e4ebd9214b8e9a595271272c",
      "to": "0x48b6bec66a57640f1d3957efb74e77a2ade70d31",
      "contractAddress": null
    },
    {
      "status": "0x1",
      "cumulativeGasUsed": "0x43098d",
      "logs": [],
      "logsBloom": "0x00000000000000000000000000000000000000000000000000000000000000000000000000000000000000000000000000000000000000000000000000000000000000000000000000000000000000000000000000000000000000000000000000000000000000000000000000000000000000000000000000000000000000000000000000000000000000000000000000000000000000000000000000000000000000000000000000000000000000000000000000000000000000000000000000000000000000000000000000000000000000000000000000000000000000000000000000000000000000000000000000000000000000000000000000000000",
      "type": "0x2",
      "transactionHash": "0xde58372c64886f483f27a883a1493920de677c88df529d897e2e5112c38e4be7",
      "transactionIndex": "0x2a",
      "blockHash": "0x266a504c73cc254b821f926dae4d46386b14631e8a4e927f4865df59dd4607fb",
      "blockNumber": "0x2265d12",
      "gasUsed": "0xc220",
      "effectiveGasPrice": "0xba43b7401",
      "from": "0xabcde369cddd1665e4ebd9214b8e9a595271272c",
      "to": "0x6bcc89071b3ee0b2927b6a6597b3add6379cc5f2",
      "contractAddress": null
    },
    {
      "status": "0x1",
      "cumulativeGasUsed": "0x43cb9d",
      "logs": [],
      "logsBloom": "0x00000000000000000000000000000000000000000000000000000000000000000000000000000000000000000000000000000000000000000000000000000000000000000000000000000000000000000000000000000000000000000000000000000000000000000000000000000000000000000000000000000000000000000000000000000000000000000000000000000000000000000000000000000000000000000000000000000000000000000000000000000000000000000000000000000000000000000000000000000000000000000000000000000000000000000000000000000000000000000000000000000000000000000000000000000000",
      "type": "0x2",
      "transactionHash": "0xca6a98b647d86d08a40b2524c08bae39e510e8feaf2958a3a7212e7aa3049fb3",
      "transactionIndex": "0x2b",
      "blockHash": "0x266a504c73cc254b821f926dae4d46386b14631e8a4e927f4865df59dd4607fb",
      "blockNumber": "0x2265d12",
      "gasUsed": "0xc210",
      "effectiveGasPrice": "0xba43b7401",
      "from": "0xabcde369cddd1665e4ebd9214b8e9a595271272c",
      "to": "0xe202ed51731c182bfc189c8d0017977fffefd8bc",
      "contractAddress": null
    },
    {
      "status": "0x1",
      "cumulativeGasUsed": "0x447ed4",
      "logs": [],
      "logsBloom": "0x00000000000000000000000000000000000000000000000000000000000000000000000000000000000000000000000000000000000000000000000000000000000000000000000000000000000000000000000000000000000000000000000000000000000000000000000000000000000000000000000000000000000000000000000000000000000000000000000000000000000000000000000000000000000000000000000000000000000000000000000000000000000000000000000000000000000000000000000000000000000000000000000000000000000000000000000000000000000000000000000000000000000000000000000000000000",
      "type": "0x2",
      "transactionHash": "0xd2f96f95ccf82383629dce86f1685bc5dd62e9b52f299b5d7df1a27b54d4ab72",
      "transactionIndex": "0x2c",
      "blockHash": "0x266a504c73cc254b821f926dae4d46386b14631e8a4e927f4865df59dd4607fb",
      "blockNumber": "0x2265d12",
      "gasUsed": "0xb337",
      "effectiveGasPrice": "0xba43b7401",
      "from": "0xabcde369cddd1665e4ebd9214b8e9a595271272c",
      "to": "0x3a2f88440fcf8c86c2e81025d99048f33b090f2e",
      "contractAddress": null
    }
  ],
  "libraries": [
    "node_modules/@celo/contracts/common/linkedlists/AddressSortedLinkedListWithMedian.sol:AddressSortedLinkedListWithMedian:0xcB985Be7a200D0075155AC2697D6D5F00267a11b"
  ],
  "pending": [],
  "returns": {},
  "timestamp": 1757418416095,
  "chain": 10143,
  "commit": "cf21763"
}