{
  "transactions": [
    {
      "hash": "0x51a9091987f980eef1c8ee48683269abc753399e2fd0959f0553c96d25f1d715",
      "transactionType": "CALL",
      "contractName": "MockChainlinkAggregator",
      "contractAddress": "0x02cad821a8ab80a417d682d38a4784ef7887711d",
      "function": "report(int256,uint256)",
      "arguments": [
        "99983024",
        "1757416927"
      ],
      "transaction": {
        "from": "0xabcde369cddd1665e4ebd9214b8e9a595271272c",
        "to": "0x02cad821a8ab80a417d682d38a4784ef7887711d",
        "gas": "0xc220",
        "value": "0x0",
        "input": "0x0f3d249d0000000000000000000000000000000000000000000000000000000005f59eb00000000000000000000000000000000000000000000000000000000068c00ddf",
        "nonce": "0x0",
        "chainId": "0x279f"
      },
      "additionalContracts": [],
      "isFixedGasLimit": false
    },
    {
      "hash": "0xc0b681e287a3a2771a56ab121b4974f527d5265449a7c18914c5385dc0e039c2",
      "transactionType": "CALL",
      "contractName": null,
      "contractAddress": "0xc51c67ade4c6a37daa31eac104417705dfc810da",
      "function": "report(int256,uint256)",
      "arguments": [
        "100003000",
        "1757416857"
      ],
      "transaction": {
        "from": "0xabcde369cddd1665e4ebd9214b8e9a595271272c",
        "to": "0xc51c67ade4c6a37daa31eac104417705dfc810da",
        "gas": "0xc220",
        "value": "0x0",
        "input": "0x0f3d249d0000000000000000000000000000000000000000000000000000000005f5ecb80000000000000000000000000000000000000000000000000000000068c00d99",
        "nonce": "0x1",
        "chainId": "0x279f"
      },
      "additionalContracts": [],
      "isFixedGasLimit": false
    },
    {
      "hash": "0x987f547ae32942565c676178ed45f79dd79c642113f5f86d5b062e17c0342818",
      "transactionType": "CALL",
      "contractName": null,
      "contractAddress": "0x366609f8445b2b33d1e8a592e18eaaff89e8bedb",
      "function": "report(int256,uint256)",
      "arguments": [
        "117529652",
        "1757416926"
      ],
      "transaction": {
        "from": "0xabcde369cddd1665e4ebd9214b8e9a595271272c",
        "to": "0x366609f8445b2b33d1e8a592e18eaaff89e8bedb",
        "gas": "0xc220",
        "value": "0x0",
        "input": "0x0f3d249d0000000000000000000000000000000000000000000000000000000007015c340000000000000000000000000000000000000000000000000000000068c00dde",
        "nonce": "0x2",
        "chainId": "0x279f"
      },
      "additionalContracts": [],
      "isFixedGasLimit": false
    },
    {
      "hash": "0xc2f8a34a5c43090dbb8d5e61ec47c06ed0a35ea042ec0d75099d6f33a7561b45",
      "transactionType": "CALL",
      "contractName": null,
      "contractAddress": "0x17117be87ae0bccb6b0923d096a20042185d8bc8",
      "function": "report(int256,uint256)",
      "arguments": [
        "117529652",
        "1757416926"
      ],
      "transaction": {
        "from": "0xabcde369cddd1665e4ebd9214b8e9a595271272c",
        "to": "0x17117be87ae0bccb6b0923d096a20042185d8bc8",
        "gas": "0xc220",
        "value": "0x0",
        "input": "0x0f3d249d0000000000000000000000000000000000000000000000000000000007015c340000000000000000000000000000000000000000000000000000000068c00dde",
        "nonce": "0x3",
        "chainId": "0x279f"
      },
      "additionalContracts": [],
      "isFixedGasLimit": false
    },
    {
      "hash": "0x7b973816131f5b5c93dfb98cc7d94d08c55564cce089d634398c53cc02514a58",
      "transactionType": "CALL",
      "contractName": "MockChainlinkAggregator",
      "contractAddress": "0x6f9b5465802afde16934ece2462955bce857e365",
      "function": "report(int256,uint256)",
      "arguments": [
        "18440300",
        "1757416985"
      ],
      "transaction": {
        "from": "0xabcde369cddd1665e4ebd9214b8e9a595271272c",
        "to": "0x6f9b5465802afde16934ece2462955bce857e365",
        "gas": "0xc220",
        "value": "0x0",
        "input": "0x0f3d249d000000000000000000000000000000000000000000000000000000000119606c0000000000000000000000000000000000000000000000000000000068c00e19",
        "nonce": "0x4",
        "chainId": "0x279f"
      },
      "additionalContracts": [],
      "isFixedGasLimit": false
    },
    {
      "hash": "0x89adbdfbd586af270a89acf9b5e119b79445ee7dc1d04c56d1e72f54b6584ab6",
      "transactionType": "CALL",
      "contractName": "MockChainlinkAggregator",
      "contractAddress": "0xf48d1fe1754a918d0b91113298b5f3fbb9025060",
      "function": "report(int256,uint256)",
      "arguments": [
        "1789933414476981",
        "1757417023"
      ],
      "transaction": {
        "from": "0xabcde369cddd1665e4ebd9214b8e9a595271272c",
        "to": "0xf48d1fe1754a918d0b91113298b5f3fbb9025060",
        "gas": "0xc253",
        "value": "0x0",
        "input": "0x0f3d249d00000000000000000000000000000000000000000000000000065bef59576cb50000000000000000000000000000000000000000000000000000000068c00e3f",
        "nonce": "0x5",
        "chainId": "0x279f"
      },
      "additionalContracts": [],
      "isFixedGasLimit": false
    },
    {
      "hash": "0xddaf706ade75aad8a5b60debc3bdbf165fd8ee47866a751a433055f7f016052b",
      "transactionType": "CALL",
      "contractName": "MockChainlinkAggregator",
      "contractAddress": "0x9b9fe8a5e206047fc442a46ea78d1a55ef9040f4",
      "function": "report(int256,uint256)",
      "arguments": [
        "7739698461347946",
        "1757417065"
      ],
      "transaction": {
        "from": "0xabcde369cddd1665e4ebd9214b8e9a595271272c",
        "to": "0x9b9fe8a5e206047fc442a46ea78d1a55ef9040f4",
        "gas": "0xc253",
        "value": "0x0",
        "input": "0x0f3d249d000000000000000000000000000000000000000000000000001b7f36f975106a0000000000000000000000000000000000000000000000000000000068c00e69",
        "nonce": "0x6",
        "chainId": "0x279f"
      },
      "additionalContracts": [],
      "isFixedGasLimit": false
    },
    {
      "hash": "0xc18ecf28774158cb3da038115deee6b0d4ab6de5e8e25670b62d9acbf5581fc0",
      "transactionType": "CALL",
      "contractName": "MockChainlinkAggregator",
      "contractAddress": "0x6c3c523f4460f7658eccccfd39c76437ad19d742",
      "function": "report(int256,uint256)",
      "arguments": [
        "1757985",
        "1757416889"
      ],
      "transaction": {
        "from": "0xabcde369cddd1665e4ebd9214b8e9a595271272c",
        "to": "0x6c3c523f4460f7658eccccfd39c76437ad19d742",
        "gas": "0xc210",
        "value": "0x0",
        "input": "0x0f3d249d00000000000000000000000000000000000000000000000000000000001ad3210000000000000000000000000000000000000000000000000000000068c00db9",
        "nonce": "0x7",
        "chainId": "0x279f"
      },
      "additionalContracts": [],
      "isFixedGasLimit": false
    },
    {
      "hash": "0x9c7f10f2113fb7c44d1edb6cd7164280004e336f340f0127d2ad09088700c320",
      "transactionType": "CALL",
      "contractName": "MockChainlinkAggregator",
      "contractAddress": "0xbed53c78968e50899bfb42b9edff8cccba3b85fb",
      "function": "report(int256,uint256)",
      "arguments": [
        "25380",
        "1757416995"
      ],
      "transaction": {
        "from": "0xabcde369cddd1665e4ebd9214b8e9a595271272c",
        "to": "0xbed53c78968e50899bfb42b9edff8cccba3b85fb",
        "gas": "0xc1ff",
        "value": "0x0",
        "input": "0x0f3d249d00000000000000000000000000000000000000000000000000000000000063240000000000000000000000000000000000000000000000000000000068c00e23",
        "nonce": "0x8",
        "chainId": "0x279f"
      },
      "additionalContracts": [],
      "isFixedGasLimit": false
    },
    {
      "hash": "0xca4e2d02867faa160882906e83fac042846c755c6189174b77b9c1dc0b58693b",
      "transactionType": "CALL",
      "contractName": "MockChainlinkAggregator",
      "contractAddress": "0x8b31ea83776e31fc3d21e13594be1e1978db0d66",
      "function": "report(int256,uint256)",
      "arguments": [
        "8213282",
        "1757416952"
      ],
      "transaction": {
        "from": "0xabcde369cddd1665e4ebd9214b8e9a595271272c",
        "to": "0x8b31ea83776e31fc3d21e13594be1e1978db0d66",
        "gas": "0xc210",
        "value": "0x0",
        "input": "0x0f3d249d00000000000000000000000000000000000000000000000000000000007d53220000000000000000000000000000000000000000000000000000000068c00df8",
        "nonce": "0x9",
        "chainId": "0x279f"
      },
      "additionalContracts": [],
      "isFixedGasLimit": false
    },
    {
      "hash": "0xecd84c698795cd9df9b2a66dae9b628e2f2569fff1e8150774b7fd47442becc7",
      "transactionType": "CALL",
      "contractName": "MockChainlinkAggregator",
      "contractAddress": "0xfb4caf2ce0488f955aaddd4272bedbffc0ac303a",
      "function": "report(int256,uint256)",
      "arguments": [
        "135727000",
        "1757417055"
      ],
      "transaction": {
        "from": "0xabcde369cddd1665e4ebd9214b8e9a595271272c",
        "to": "0xfb4caf2ce0488f955aaddd4272bedbffc0ac303a",
        "gas": "0xc220",
        "value": "0x0",
        "input": "0x0f3d249d00000000000000000000000000000000000000000000000000000000081707980000000000000000000000000000000000000000000000000000000068c00e5f",
        "nonce": "0xa",
        "chainId": "0x279f"
      },
      "additionalContracts": [],
      "isFixedGasLimit": false
    },
    {
      "hash": "0x126c79338817ccaa62c0d240d5fc6acd2459ff2718581d6040dd1353669c9146",
      "transactionType": "CALL",
      "contractName": "MockChainlinkAggregator",
      "contractAddress": "0x55054ac67c8f1894ecef32e5d5e71a2204f42879",
      "function": "report(int256,uint256)",
      "arguments": [
        "5726555",
        "1757416922"
      ],
      "transaction": {
        "from": "0xabcde369cddd1665e4ebd9214b8e9a595271272c",
        "to": "0x55054ac67c8f1894ecef32e5d5e71a2204f42879",
        "gas": "0xc210",
        "value": "0x0",
        "input": "0x0f3d249d000000000000000000000000000000000000000000000000000000000057615b0000000000000000000000000000000000000000000000000000000068c00dda",
        "nonce": "0xb",
        "chainId": "0x279f"
      },
      "additionalContracts": [],
      "isFixedGasLimit": false
    },
    {
      "hash": "0x9f1d03055360c7fe4ad0f871600da4fa0b270cdf8b9679a9e264768210221f89",
      "transactionType": "CALL",
      "contractName": "MockChainlinkAggregator",
      "contractAddress": "0x4dd4617060621e386df45b47c4cc2a1cf9dbd456",
      "function": "report(int256,uint256)",
      "arguments": [
        "72433300",
        "1757416832"
      ],
      "transaction": {
        "from": "0xabcde369cddd1665e4ebd9214b8e9a595271272c",
        "to": "0x4dd4617060621e386df45b47c4cc2a1cf9dbd456",
        "gas": "0xc220",
        "value": "0x0",
        "input": "0x0f3d249d0000000000000000000000000000000000000000000000000000000004513e940000000000000000000000000000000000000000000000000000000068c00d80",
        "nonce": "0xc",
        "chainId": "0x279f"
      },
      "additionalContracts": [],
      "isFixedGasLimit": false
    },
    {
      "hash": "0x20937ba60b6e244b0128864bbe266bd1a810321c53e67bf7796b83488e42c7d5",
      "transactionType": "CALL",
      "contractName": "MockChainlinkAggregator",
      "contractAddress": "0x48b6bec66a57640f1d3957efb74e77a2ade70d31",
      "function": "report(int256,uint256)",
      "arguments": [
        "66131500",
        "1757416815"
      ],
      "transaction": {
        "from": "0xabcde369cddd1665e4ebd9214b8e9a595271272c",
        "to": "0x48b6bec66a57640f1d3957efb74e77a2ade70d31",
        "gas": "0xc220",
        "value": "0x0",
        "input": "0x0f3d249d0000000000000000000000000000000000000000000000000000000003f1162c0000000000000000000000000000000000000000000000000000000068c00d6f",
        "nonce": "0xd",
        "chainId": "0x279f"
      },
      "additionalContracts": [],
      "isFixedGasLimit": false
    },
    {
      "hash": "0xb30f21829b95c7fa40de78921d8532ca8afbf6596feb57799bb8ea71d65f88a3",
      "transactionType": "CALL",
      "contractName": "MockChainlinkAggregator",
      "contractAddress": "0x6bcc89071b3ee0b2927b6a6597b3add6379cc5f2",
      "function": "report(int256,uint256)",
      "arguments": [
        "125964415",
        "1757417046"
      ],
      "transaction": {
        "from": "0xabcde369cddd1665e4ebd9214b8e9a595271272c",
        "to": "0x6bcc89071b3ee0b2927b6a6597b3add6379cc5f2",
        "gas": "0xc220",
        "value": "0x0",
        "input": "0x0f3d249d000000000000000000000000000000000000000000000000000000000782107f0000000000000000000000000000000000000000000000000000000068c00e56",
        "nonce": "0xe",
        "chainId": "0x279f"
      },
      "additionalContracts": [],
      "isFixedGasLimit": false
    },
    {
      "hash": "0x88fd9cc09e86fe77ac222d6cd0d1fa777dc02bbcc71cbdeebc6c8f2096b3cbcd",
      "transactionType": "CALL",
      "contractName": "MockChainlinkAggregator",
      "contractAddress": "0xe202ed51731c182bfc189c8d0017977fffefd8bc",
      "function": "report(int256,uint256)",
      "arguments": [
        "682337",
        "1757416913"
      ],
      "transaction": {
        "from": "0xabcde369cddd1665e4ebd9214b8e9a595271272c",
        "to": "0xe202ed51731c182bfc189c8d0017977fffefd8bc",
        "gas": "0xc210",
        "value": "0x0",
        "input": "0x0f3d249d00000000000000000000000000000000000000000000000000000000000a69610000000000000000000000000000000000000000000000000000000068c00dd1",
        "nonce": "0xf",
        "chainId": "0x279f"
      },
      "additionalContracts": [],
      "isFixedGasLimit": false
    },
    {
      "hash": "0x4c5d6d10a47b67638c775aca3babd6245c81fa080f92342d8fec5952f49e868c",
      "transactionType": "CALL",
      "contractName": "MockChainlinkAggregator",
      "contractAddress": "0x3a2f88440fcf8c86c2e81025d99048f33b090f2e",
      "function": "report(int256,uint256)",
      "arguments": [
        "663349917081260",
        "1757417040"
      ],
      "transaction": {
        "from": "0xabcde369cddd1665e4ebd9214b8e9a595271272c",
        "to": "0x3a2f88440fcf8c86c2e81025d99048f33b090f2e",
        "gas": "0xc253",
        "value": "0x0",
        "input": "0x0f3d249d00000000000000000000000000000000000000000000000000025b50302b5eac0000000000000000000000000000000000000000000000000000000068c00e50",
        "nonce": "0x10",
        "chainId": "0x279f"
      },
      "additionalContracts": [],
      "isFixedGasLimit": false
    }
  ],
  "receipts": [
    {
      "status": "0x1",
      "cumulativeGasUsed": "0x7f9531",
      "logs": [],
      "logsBloom": "0x00000000000000000000000000000000000000000000000000000000000000000000000000000000000000000000000000000000000000000000000000000000000000000000000000000000000000000000000000000000000000000000000000000000000000000000000000000000000000000000000000000000000000000000000000000000000000000000000000000000000000000000000000000000000000000000000000000000000000000000000000000000000000000000000000000000000000000000000000000000000000000000000000000000000000000000000000000000000000000000000000000000000000000000000000000000",
      "type": "0x2",
      "transactionHash": "0x51a9091987f980eef1c8ee48683269abc753399e2fd0959f0553c96d25f1d715",
      "transactionIndex": "0x16",
      "blockHash": "0xe739f30e33bdf5c141c14455ff9fd5c04afb192bc97cf1d25f9f4d7832a7c5a1",
      "blockNumber": "0x226513e",
      "gasUsed": "0xc220",
      "effectiveGasPrice": "0xba43b7401",
      "from": "0xabcde369cddd1665e4ebd9214b8e9a595271272c",
      "to": "0x02cad821a8ab80a417d682d38a4784ef7887711d",
      "contractAddress": null
    },
    {
      "status": "0x1",
      "cumulativeGasUsed": "0x805751",
      "logs": [],
      "logsBloom": "0x00000000000000000000000000000000000000000000000000000000000000000000000000000000000000000000000000000000000000000000000000000000000000000000000000000000000000000000000000000000000000000000000000000000000000000000000000000000000000000000000000000000000000000000000000000000000000000000000000000000000000000000000000000000000000000000000000000000000000000000000000000000000000000000000000000000000000000000000000000000000000000000000000000000000000000000000000000000000000000000000000000000000000000000000000000000",
      "type": "0x2",
      "transactionHash": "0xc0b681e287a3a2771a56ab121b4974f527d5265449a7c18914c5385dc0e039c2",
      "transactionIndex": "0x17",
      "blockHash": "0xe739f30e33bdf5c141c14455ff9fd5c04afb192bc97cf1d25f9f4d7832a7c5a1",
      "blockNumber": "0x226513e",
      "gasUsed": "0xc220",
      "effectiveGasPrice": "0xba43b7401",
      "from": "0xabcde369cddd1665e4ebd9214b8e9a595271272c",
      "to": "0xc51c67ade4c6a37daa31eac104417705dfc810da",
      "contractAddress": null
    },
    {
      "status": "0x1",
      "cumulativeGasUsed": "0x811971",
      "logs": [],
      "logsBloom": "0x00000000000000000000000000000000000000000000000000000000000000000000000000000000000000000000000000000000000000000000000000000000000000000000000000000000000000000000000000000000000000000000000000000000000000000000000000000000000000000000000000000000000000000000000000000000000000000000000000000000000000000000000000000000000000000000000000000000000000000000000000000000000000000000000000000000000000000000000000000000000000000000000000000000000000000000000000000000000000000000000000000000000000000000000000000000",
      "type": "0x2",
      "transactionHash": "0x987f547ae32942565c676178ed45f79dd79c642113f5f86d5b062e17c0342818",
      "transactionIndex": "0x18",
      "blockHash": "0xe739f30e33bdf5c141c14455ff9fd5c04afb192bc97cf1d25f9f4d7832a7c5a1",
      "blockNumber": "0x226513e",
      "gasUsed": "0xc220",
      "effectiveGasPrice": "0xba43b7401",
      "from": "0xabcde369cddd1665e4ebd9214b8e9a595271272c",
      "to": "0x366609f8445b2b33d1e8a592e18eaaff89e8bedb",
      "contractAddress": null
    },
    {
      "status": "0x1",
      "cumulativeGasUsed": "0x81db91",
      "logs": [],
      "logsBloom": "0x00000000000000000000000000000000000000000000000000000000000000000000000000000000000000000000000000000000000000000000000000000000000000000000000000000000000000000000000000000000000000000000000000000000000000000000000000000000000000000000000000000000000000000000000000000000000000000000000000000000000000000000000000000000000000000000000000000000000000000000000000000000000000000000000000000000000000000000000000000000000000000000000000000000000000000000000000000000000000000000000000000000000000000000000000000000",
      "type": "0x2",
      "transactionHash": "0xc2f8a34a5c43090dbb8d5e61ec47c06ed0a35ea042ec0d75099d6f33a7561b45",
      "transactionIndex": "0x19",
      "blockHash": "0xe739f30e33bdf5c141c14455ff9fd5c04afb192bc97cf1d25f9f4d7832a7c5a1",
      "blockNumber": "0x226513e",
      "gasUsed": "0xc220",
      "effectiveGasPrice": "0xba43b7401",
      "from": "0xabcde369cddd1665e4ebd9214b8e9a595271272c",
      "to": "0x17117be87ae0bccb6b0923d096a20042185d8bc8",
      "contractAddress": null
    },
    {
      "status": "0x1",
      "cumulativeGasUsed": "0x829db1",
      "logs": [],
      "logsBloom": "0x00000000000000000000000000000000000000000000000000000000000000000000000000000000000000000000000000000000000000000000000000000000000000000000000000000000000000000000000000000000000000000000000000000000000000000000000000000000000000000000000000000000000000000000000000000000000000000000000000000000000000000000000000000000000000000000000000000000000000000000000000000000000000000000000000000000000000000000000000000000000000000000000000000000000000000000000000000000000000000000000000000000000000000000000000000000",
      "type": "0x2",
      "transactionHash": "0x7b973816131f5b5c93dfb98cc7d94d08c55564cce089d634398c53cc02514a58",
      "transactionIndex": "0x1a",
      "blockHash": "0xe739f30e33bdf5c141c14455ff9fd5c04afb192bc97cf1d25f9f4d7832a7c5a1",
      "blockNumber": "0x226513e",
      "gasUsed": "0xc220",
      "effectiveGasPrice": "0xba43b7401",
      "from": "0xabcde369cddd1665e4ebd9214b8e9a595271272c",
      "to": "0x6f9b5465802afde16934ece2462955bce857e365",
      "contractAddress": null
    },
    {
      "status": "0x1",
      "cumulativeGasUsed": "0x836004",
      "logs": [],
      "logsBloom": "0x00000000000000000000000000000000000000000000000000000000000000000000000000000000000000000000000000000000000000000000000000000000000000000000000000000000000000000000000000000000000000000000000000000000000000000000000000000000000000000000000000000000000000000000000000000000000000000000000000000000000000000000000000000000000000000000000000000000000000000000000000000000000000000000000000000000000000000000000000000000000000000000000000000000000000000000000000000000000000000000000000000000000000000000000000000000",
      "type": "0x2",
      "transactionHash": "0x89adbdfbd586af270a89acf9b5e119b79445ee7dc1d04c56d1e72f54b6584ab6",
      "transactionIndex": "0x1b",
      "blockHash": "0xe739f30e33bdf5c141c14455ff9fd5c04afb192bc97cf1d25f9f4d7832a7c5a1",
      "blockNumber": "0x226513e",
      "gasUsed": "0xc253",
      "effectiveGasPrice": "0xba43b7401",
      "from": "0xabcde369cddd1665e4ebd9214b8e9a595271272c",
      "to": "0xf48d1fe1754a918d0b91113298b5f3fbb9025060",
      "contractAddress": null
    },
    {
      "status": "0x1",
      "cumulativeGasUsed": "0x842257",
      "logs": [],
      "logsBloom": "0x00000000000000000000000000000000000000000000000000000000000000000000000000000000000000000000000000000000000000000000000000000000000000000000000000000000000000000000000000000000000000000000000000000000000000000000000000000000000000000000000000000000000000000000000000000000000000000000000000000000000000000000000000000000000000000000000000000000000000000000000000000000000000000000000000000000000000000000000000000000000000000000000000000000000000000000000000000000000000000000000000000000000000000000000000000000",
      "type": "0x2",
      "transactionHash": "0xddaf706ade75aad8a5b60debc3bdbf165fd8ee47866a751a433055f7f016052b",
      "transactionIndex": "0x1c",
      "blockHash": "0xe739f30e33bdf5c141c14455ff9fd5c04afb192bc97cf1d25f9f4d7832a7c5a1",
      "blockNumber": "0x226513e",
      "gasUsed": "0xc253",
      "effectiveGasPrice": "0xba43b7401",
      "from": "0xabcde369cddd1665e4ebd9214b8e9a595271272c",
      "to": "0x9b9fe8a5e206047fc442a46ea78d1a55ef9040f4",
      "contractAddress": null
    },
    {
      "status": "0x1",
      "cumulativeGasUsed": "0x62dc38",
      "logs": [],
      "logsBloom": "0x00000000000000000000000000000000000000000000000000000000000000000000000000000000000000000000000000000000000000000000000000000000000000000000000000000000000000000000000000000000000000000000000000000000000000000000000000000000000000000000000000000000000000000000000000000000000000000000000000000000000000000000000000000000000000000000000000000000000000000000000000000000000000000000000000000000000000000000000000000000000000000000000000000000000000000000000000000000000000000000000000000000000000000000000000000000",
      "type": "0x2",
      "transactionHash": "0xc18ecf28774158cb3da038115deee6b0d4ab6de5e8e25670b62d9acbf5581fc0",
      "transactionIndex": "0x13",
      "blockHash": "0xcbb1f12de3a65ee1a4cdb570d6410ebacbb76aa609c023787dc8611821356ce6",
      "blockNumber": "0x226513f",
      "gasUsed": "0xc210",
      "effectiveGasPrice": "0xba43b7401",
      "from": "0xabcde369cddd1665e4ebd9214b8e9a595271272c",
      "to": "0x6c3c523f4460f7658eccccfd39c76437ad19d742",
      "contractAddress": null
    },
    {
      "status": "0x1",
      "cumulativeGasUsed": "0x639e37",
      "logs": [],
      "logsBloom": "0x00000000000000000000000000000000000000000000000000000000000000000000000000000000000000000000000000000000000000000000000000000000000000000000000000000000000000000000000000000000000000000000000000000000000000000000000000000000000000000000000000000000000000000000000000000000000000000000000000000000000000000000000000000000000000000000000000000000000000000000000000000000000000000000000000000000000000000000000000000000000000000000000000000000000000000000000000000000000000000000000000000000000000000000000000000000",
      "type": "0x2",
      "transactionHash": "0x9c7f10f2113fb7c44d1edb6cd7164280004e336f340f0127d2ad09088700c320",
      "transactionIndex": "0x14",
      "blockHash": "0xcbb1f12de3a65ee1a4cdb570d6410ebacbb76aa609c023787dc8611821356ce6",
      "blockNumber": "0x226513f",
      "gasUsed": "0xc1ff",
      "effectiveGasPrice": "0xba43b7401",
      "from": "0xabcde369cddd1665e4ebd9214b8e9a595271272c",
      "to": "0xbed53c78968e50899bfb42b9edff8cccba3b85fb",
      "contractAddress": null
    },
    {
      "status": "0x1",
      "cumulativeGasUsed": "0x646047",
      "logs": [],
      "logsBloom": "0x00000000000000000000000000000000000000000000000000000000000000000000000000000000000000000000000000000000000000000000000000000000000000000000000000000000000000000000000000000000000000000000000000000000000000000000000000000000000000000000000000000000000000000000000000000000000000000000000000000000000000000000000000000000000000000000000000000000000000000000000000000000000000000000000000000000000000000000000000000000000000000000000000000000000000000000000000000000000000000000000000000000000000000000000000000000",
      "type": "0x2",
      "transactionHash": "0xca4e2d02867faa160882906e83fac042846c755c6189174b77b9c1dc0b58693b",
      "transactionIndex": "0x15",
      "blockHash": "0xcbb1f12de3a65ee1a4cdb570d6410ebacbb76aa609c023787dc8611821356ce6",
      "blockNumber": "0x226513f",
      "gasUsed": "0xc210",
      "effectiveGasPrice": "0xba43b7401",
      "from": "0xabcde369cddd1665e4ebd9214b8e9a595271272c",
      "to": "0x8b31ea83776e31fc3d21e13594be1e1978db0d66",
      "contractAddress": null
    },
    {
      "status": "0x1",
      "cumulativeGasUsed": "0x652267",
      "logs": [],
      "logsBloom": "0x00000000000000000000000000000000000000000000000000000000000000000000000000000000000000000000000000000000000000000000000000000000000000000000000000000000000000000000000000000000000000000000000000000000000000000000000000000000000000000000000000000000000000000000000000000000000000000000000000000000000000000000000000000000000000000000000000000000000000000000000000000000000000000000000000000000000000000000000000000000000000000000000000000000000000000000000000000000000000000000000000000000000000000000000000000000",
      "type": "0x2",
      "transactionHash": "0xecd84c698795cd9df9b2a66dae9b628e2f2569fff1e8150774b7fd47442becc7",
      "transactionIndex": "0x16",
      "blockHash": "0xcbb1f12de3a65ee1a4cdb570d6410ebacbb76aa609c023787dc8611821356ce6",
      "blockNumber": "0x226513f",
      "gasUsed": "0xc220",
      "effectiveGasPrice": "0xba43b7401",
      "from": "0xabcde369cddd1665e4ebd9214b8e9a595271272c",
      "to": "0xfb4caf2ce0488f955aaddd4272bedbffc0ac303a",
      "contractAddress": null
    },
    {
      "status": "0x1",
      "cumulativeGasUsed": "0x65e477",
      "logs": [],
      "logsBloom": "0x00000000000000000000000000000000000000000000000000000000000000000000000000000000000000000000000000000000000000000000000000000000000000000000000000000000000000000000000000000000000000000000000000000000000000000000000000000000000000000000000000000000000000000000000000000000000000000000000000000000000000000000000000000000000000000000000000000000000000000000000000000000000000000000000000000000000000000000000000000000000000000000000000000000000000000000000000000000000000000000000000000000000000000000000000000000",
      "type": "0x2",
      "transactionHash": "0x126c79338817ccaa62c0d240d5fc6acd2459ff2718581d6040dd1353669c9146",
      "transactionIndex": "0x17",
      "blockHash": "0xcbb1f12de3a65ee1a4cdb570d6410ebacbb76aa609c023787dc8611821356ce6",
      "blockNumber": "0x226513f",
      "gasUsed": "0xc210",
      "effectiveGasPrice": "0xba43b7401",
      "from": "0xabcde369cddd1665e4ebd9214b8e9a595271272c",
      "to": "0x55054ac67c8f1894ecef32e5d5e71a2204f42879",
      "contractAddress": null
    },
    {
      "status": "0x1",
      "cumulativeGasUsed": "0x66a697",
      "logs": [],
      "logsBloom": "0x00000000000000000000000000000000000000000000000000000000000000000000000000000000000000000000000000000000000000000000000000000000000000000000000000000000000000000000000000000000000000000000000000000000000000000000000000000000000000000000000000000000000000000000000000000000000000000000000000000000000000000000000000000000000000000000000000000000000000000000000000000000000000000000000000000000000000000000000000000000000000000000000000000000000000000000000000000000000000000000000000000000000000000000000000000000",
      "type": "0x2",
      "transactionHash": "0x9f1d03055360c7fe4ad0f871600da4fa0b270cdf8b9679a9e264768210221f89",
      "transactionIndex": "0x18",
      "blockHash": "0xcbb1f12de3a65ee1a4cdb570d6410ebacbb76aa609c023787dc8611821356ce6",
      "blockNumber": "0x226513f",
      "gasUsed": "0xc220",
      "effectiveGasPrice": "0xba43b7401",
      "from": "0xabcde369cddd1665e4ebd9214b8e9a595271272c",
      "to": "0x4dd4617060621e386df45b47c4cc2a1cf9dbd456",
      "contractAddress": null
    },
    {
      "status": "0x1",
      "cumulativeGasUsed": "0x6768b7",
      "logs": [],
      "logsBloom": "0x00000000000000000000000000000000000000000000000000000000000000000000000000000000000000000000000000000000000000000000000000000000000000000000000000000000000000000000000000000000000000000000000000000000000000000000000000000000000000000000000000000000000000000000000000000000000000000000000000000000000000000000000000000000000000000000000000000000000000000000000000000000000000000000000000000000000000000000000000000000000000000000000000000000000000000000000000000000000000000000000000000000000000000000000000000000",
      "type": "0x2",
      "transactionHash": "0x20937ba60b6e244b0128864bbe266bd1a810321c53e67bf7796b83488e42c7d5",
      "transactionIndex": "0x19",
      "blockHash": "0xcbb1f12de3a65ee1a4cdb570d6410ebacbb76aa609c023787dc8611821356ce6",
      "blockNumber": "0x226513f",
      "gasUsed": "0xc220",
      "effectiveGasPrice": "0xba43b7401",
      "from": "0xabcde369cddd1665e4ebd9214b8e9a595271272c",
      "to": "0x48b6bec66a57640f1d3957efb74e77a2ade70d31",
      "contractAddress": null
    },
    {
      "status": "0x1",
      "cumulativeGasUsed": "0x682ad7",
      "logs": [],
      "logsBloom": "0x00000000000000000000000000000000000000000000000000000000000000000000000000000000000000000000000000000000000000000000000000000000000000000000000000000000000000000000000000000000000000000000000000000000000000000000000000000000000000000000000000000000000000000000000000000000000000000000000000000000000000000000000000000000000000000000000000000000000000000000000000000000000000000000000000000000000000000000000000000000000000000000000000000000000000000000000000000000000000000000000000000000000000000000000000000000",
      "type": "0x2",
      "transactionHash": "0xb30f21829b95c7fa40de78921d8532ca8afbf6596feb57799bb8ea71d65f88a3",
      "transactionIndex": "0x1a",
      "blockHash": "0xcbb1f12de3a65ee1a4cdb570d6410ebacbb76aa609c023787dc8611821356ce6",
      "blockNumber": "0x226513f",
      "gasUsed": "0xc220",
      "effectiveGasPrice": "0xba43b7401",
      "from": "0xabcde369cddd1665e4ebd9214b8e9a595271272c",
      "to": "0x6bcc89071b3ee0b2927b6a6597b3add6379cc5f2",
      "contractAddress": null
    },
    {
      "status": "0x1",
      "cumulativeGasUsed": "0x68ece7",
      "logs": [],
      "logsBloom": "0x00000000000000000000000000000000000000000000000000000000000000000000000000000000000000000000000000000000000000000000000000000000000000000000000000000000000000000000000000000000000000000000000000000000000000000000000000000000000000000000000000000000000000000000000000000000000000000000000000000000000000000000000000000000000000000000000000000000000000000000000000000000000000000000000000000000000000000000000000000000000000000000000000000000000000000000000000000000000000000000000000000000000000000000000000000000",
      "type": "0x2",
      "transactionHash": "0x88fd9cc09e86fe77ac222d6cd0d1fa777dc02bbcc71cbdeebc6c8f2096b3cbcd",
      "transactionIndex": "0x1b",
      "blockHash": "0xcbb1f12de3a65ee1a4cdb570d6410ebacbb76aa609c023787dc8611821356ce6",
      "blockNumber": "0x226513f",
      "gasUsed": "0xc210",
      "effectiveGasPrice": "0xba43b7401",
      "from": "0xabcde369cddd1665e4ebd9214b8e9a595271272c",
      "to": "0xe202ed51731c182bfc189c8d0017977fffefd8bc",
      "contractAddress": null
    },
    {
      "status": "0x1",
      "cumulativeGasUsed": "0x69af3a",
      "logs": [],
      "logsBloom": "0x00000000000000000000000000000000000000000000000000000000000000000000000000000000000000000000000000000000000000000000000000000000000000000000000000000000000000000000000000000000000000000000000000000000000000000000000000000000000000000000000000000000000000000000000000000000000000000000000000000000000000000000000000000000000000000000000000000000000000000000000000000000000000000000000000000000000000000000000000000000000000000000000000000000000000000000000000000000000000000000000000000000000000000000000000000000",
      "type": "0x2",
      "transactionHash": "0x4c5d6d10a47b67638c775aca3babd6245c81fa080f92342d8fec5952f49e868c",
      "transactionIndex": "0x1c",
      "blockHash": "0xcbb1f12de3a65ee1a4cdb570d6410ebacbb76aa609c023787dc8611821356ce6",
      "blockNumber": "0x226513f",
      "gasUsed": "0xc253",
      "effectiveGasPrice": "0xba43b7401",
      "from": "0xabcde369cddd1665e4ebd9214b8e9a595271272c",
      "to": "0x3a2f88440fcf8c86c2e81025d99048f33b090f2e",
      "contractAddress": null
    }
  ],
  "libraries": [
    "node_modules/@celo/contracts/common/linkedlists/AddressSortedLinkedListWithMedian.sol:AddressSortedLinkedListWithMedian:0xcB985Be7a200D0075155AC2697D6D5F00267a11b"
  ],
  "pending": [],
  "returns": {},
  "timestamp": 1757417119366,
  "chain": 10143,
  "commit": "cf21763"
}