{
  "transactions": [
    {
      "hash": null,
      "transactionType": "CALL",
      "contractName": null,
      "contractAddress": "0x02cad821a8ab80a417d682d38a4784ef7887711d",
      "function": "report(int256,uint256)",
      "arguments": [
        "99985120",
        "1757333603"
      ],
      "transaction": {
        "from": "0xabcde369cddd1665e4ebd9214b8e9a595271272c",
        "to": "0x02cad821a8ab80a417d682d38a4784ef7887711d",
        "gas": "0xc220",
        "value": "0x0",
        "input": "0x0f3d249d0000000000000000000000000000000000000000000000000000000005f5a6e00000000000000000000000000000000000000000000000000000000068bec863",
        "nonce": "0x0",
        "chainId": "0x279f"
      },
      "additionalContracts": [],
      "isFixedGasLimit": false
    },
    {
      "hash": null,
      "transactionType": "CALL",
      "contractName": null,
      "contractAddress": "0xc51c67ade4c6a37daa31eac104417705dfc810da",
      "function": "report(int256,uint256)",
      "arguments": [
        "99988800",
        "1757333754"
      ],
      "transaction": {
        "from": "0xabcde369cddd1665e4ebd9214b8e9a595271272c",
        "to": "0xc51c67ade4c6a37daa31eac104417705dfc810da",
        "gas": "0xc220",
        "value": "0x0",
        "input": "0x0f3d249d0000000000000000000000000000000000000000000000000000000005f5b5400000000000000000000000000000000000000000000000000000000068bec8fa",
        "nonce": "0x1",
        "chainId": "0x279f"
      },
      "additionalContracts": [],
      "isFixedGasLimit": false
    },
    {
      "hash": null,
      "transactionType": "CALL",
      "contractName": null,
      "contractAddress": "0x366609f8445b2b33d1e8a592e18eaaff89e8bedb",
      "function": "report(int256,uint256)",
      "arguments": [
        "117296291",
        "1757333659"
      ],
      "transaction": {
        "from": "0xabcde369cddd1665e4ebd9214b8e9a595271272c",
        "to": "0x366609f8445b2b33d1e8a592e18eaaff89e8bedb",
        "gas": "0xc220",
        "value": "0x0",
        "input": "0x0f3d249d0000000000000000000000000000000000000000000000000000000006fdcca30000000000000000000000000000000000000000000000000000000068bec89b",
        "nonce": "0x2",
        "chainId": "0x279f"
      },
      "additionalContracts": [],
      "isFixedGasLimit": false
    },
    {
      "hash": null,
      "transactionType": "CALL",
      "contractName": null,
      "contractAddress": "0x17117be87ae0bccb6b0923d096a20042185d8bc8",
      "function": "report(int256,uint256)",
      "arguments": [
        "117296291",
        "1757333659"
      ],
      "transaction": {
        "from": "0xabcde369cddd1665e4ebd9214b8e9a595271272c",
        "to": "0x17117be87ae0bccb6b0923d096a20042185d8bc8",
        "gas": "0xc220",
        "value": "0x0",
        "input": "0x0f3d249d0000000000000000000000000000000000000000000000000000000006fdcca30000000000000000000000000000000000000000000000000000000068bec89b",
        "nonce": "0x3",
        "chainId": "0x279f"
      },
      "additionalContracts": [],
      "isFixedGasLimit": false
    },
    {
      "hash": null,
      "transactionType": "CALL",
      "contractName": null,
      "contractAddress": "0x6f9b5465802afde16934ece2462955bce857e365",
      "function": "report(int256,uint256)",
      "arguments": [
        "18493860",
        "1757333654"
      ],
      "transaction": {
        "from": "0xabcde369cddd1665e4ebd9214b8e9a595271272c",
        "to": "0x6f9b5465802afde16934ece2462955bce857e365",
        "gas": "0xc220",
        "value": "0x0",
        "input": "0x0f3d249d00000000000000000000000000000000000000000000000000000000011a31a40000000000000000000000000000000000000000000000000000000068bec896",
        "nonce": "0x4",
        "chainId": "0x279f"
      },
      "additionalContracts": [],
      "isFixedGasLimit": false
    },
    {
      "hash": null,
      "transactionType": "CALL",
      "contractName": null,
      "contractAddress": "0xf48d1fe1754a918d0b91113298b5f3fbb9025060",
      "function": "report(int256,uint256)",
      "arguments": [
        "1782626521917393",
        "1757333600"
      ],
      "transaction": {
        "from": "0xabcde369cddd1665e4ebd9214b8e9a595271272c",
        "to": "0xf48d1fe1754a918d0b91113298b5f3fbb9025060",
        "gas": "0xc253",
        "value": "0x0",
        "input": "0x0f3d249d0000000000000000000000000000000000000000000000000006554a149b27d10000000000000000000000000000000000000000000000000000000068bec860",
        "nonce": "0x5",
        "chainId": "0x279f"
      },
      "additionalContracts": [],
      "isFixedGasLimit": false
    },
    {
      "hash": null,
      "transactionType": "CALL",
      "contractName": null,
      "contractAddress": "0x9b9fe8a5e206047fc442a46ea78d1a55ef9040f4",
      "function": "report(int256,uint256)",
      "arguments": [
        "7744133818632386",
        "1757333585"
      ],
      "transaction": {
        "from": "0xabcde369cddd1665e4ebd9214b8e9a595271272c",
        "to": "0x9b9fe8a5e206047fc442a46ea78d1a55ef9040f4",
        "gas": "0xc253",
        "value": "0x0",
        "input": "0x0f3d249d000000000000000000000000000000000000000000000000001b833fa95a48c20000000000000000000000000000000000000000000000000000000068bec851",
        "nonce": "0x6",
        "chainId": "0x279f"
      },
      "additionalContracts": [],
      "isFixedGasLimit": false
    },
    {
      "hash": null,
      "transactionType": "CALL",
      "contractName": null,
      "contractAddress": "0x6c3c523f4460f7658eccccfd39c76437ad19d742",
      "function": "report(int256,uint256)",
      "arguments": [
        "1762027",
        "1757333816"
      ],
      "transaction": {
        "from": "0xabcde369cddd1665e4ebd9214b8e9a595271272c",
        "to": "0x6c3c523f4460f7658eccccfd39c76437ad19d742",
        "gas": "0xc210",
        "value": "0x0",
        "input": "0x0f3d249d00000000000000000000000000000000000000000000000000000000001ae2eb0000000000000000000000000000000000000000000000000000000068bec938",
        "nonce": "0x7",
        "chainId": "0x279f"
      },
      "additionalContracts": [],
      "isFixedGasLimit": false
    },
    {
      "hash": null,
      "transactionType": "CALL",
      "contractName": null,
      "contractAddress": "0xbed53c78968e50899bfb42b9edff8cccba3b85fb",
      "function": "report(int256,uint256)",
      "arguments": [
        "25255",
        "1757333762"
      ],
      "transaction": {
        "from": "0xabcde369cddd1665e4ebd9214b8e9a595271272c",
        "to": "0xbed53c78968e50899bfb42b9edff8cccba3b85fb",
        "gas": "0xc1ff",
        "value": "0x0",
        "input": "0x0f3d249d00000000000000000000000000000000000000000000000000000000000062a70000000000000000000000000000000000000000000000000000000068bec902",
        "nonce": "0x8",
        "chainId": "0x279f"
      },
      "additionalContracts": [],
      "isFixedGasLimit": false
    },
    {
      "hash": null,
      "transactionType": "CALL",
      "contractName": null,
      "contractAddress": "0x8b31ea83776e31fc3d21e13594be1e1978db0d66",
      "function": "report(int256,uint256)",
      "arguments": [
        "8283151",
        "1757333704"
      ],
      "transaction": {
        "from": "0xabcde369cddd1665e4ebd9214b8e9a595271272c",
        "to": "0x8b31ea83776e31fc3d21e13594be1e1978db0d66",
        "gas": "0xc210",
        "value": "0x0",
        "input": "0x0f3d249d00000000000000000000000000000000000000000000000000000000007e640f0000000000000000000000000000000000000000000000000000000068bec8c8",
        "nonce": "0x9",
        "chainId": "0x279f"
      },
      "additionalContracts": [],
      "isFixedGasLimit": false
    },
    {
      "hash": null,
      "transactionType": "CALL",
      "contractName": null,
      "contractAddress": "0xfb4caf2ce0488f955aaddd4272bedbffc0ac303a",
      "function": "report(int256,uint256)",
      "arguments": [
        "135332000",
        "1757333792"
      ],
      "transaction": {
        "from": "0xabcde369cddd1665e4ebd9214b8e9a595271272c",
        "to": "0xfb4caf2ce0488f955aaddd4272bedbffc0ac303a",
        "gas": "0xc210",
        "value": "0x0",
        "input": "0x0f3d249d00000000000000000000000000000000000000000000000000000000081100a00000000000000000000000000000000000000000000000000000000068bec920",
        "nonce": "0xa",
        "chainId": "0x279f"
      },
      "additionalContracts": [],
      "isFixedGasLimit": false
    },
    {
      "hash": null,
      "transactionType": "CALL",
      "contractName": null,
      "contractAddress": "0x55054ac67c8f1894ecef32e5d5e71a2204f42879",
      "function": "report(int256,uint256)",
      "arguments": [
        "5690839",
        "1757333754"
      ],
      "transaction": {
        "from": "0xabcde369cddd1665e4ebd9214b8e9a595271272c",
        "to": "0x55054ac67c8f1894ecef32e5d5e71a2204f42879",
        "gas": "0xc210",
        "value": "0x0",
        "input": "0x0f3d249d000000000000000000000000000000000000000000000000000000000056d5d70000000000000000000000000000000000000000000000000000000068bec8fa",
        "nonce": "0xb",
        "chainId": "0x279f"
      },
      "additionalContracts": [],
      "isFixedGasLimit": false
    },
    {
      "hash": null,
      "transactionType": "CALL",
      "contractName": null,
      "contractAddress": "0x4dd4617060621e386df45b47c4cc2a1cf9dbd456",
      "function": "report(int256,uint256)",
      "arguments": [
        "72421784",
        "1757333823"
      ],
      "transaction": {
        "from": "0xabcde369cddd1665e4ebd9214b8e9a595271272c",
        "to": "0x4dd4617060621e386df45b47c4cc2a1cf9dbd456",
        "gas": "0xc220",
        "value": "0x0",
        "input": "0x0f3d249d00000000000000000000000000000000000000000000000000000000045111980000000000000000000000000000000000000000000000000000000068bec93f",
        "nonce": "0xc",
        "chainId": "0x279f"
      },
      "additionalContracts": [],
      "isFixedGasLimit": false
    },
    {
      "hash": null,
      "transactionType": "CALL",
      "contractName": null,
      "contractAddress": "0x48b6bec66a57640f1d3957efb74e77a2ade70d31",
      "function": "report(int256,uint256)",
      "arguments": [
        "65883500",
        "1757333627"
      ],
      "transaction": {
        "from": "0xabcde369cddd1665e4ebd9214b8e9a595271272c",
        "to": "0x48b6bec66a57640f1d3957efb74e77a2ade70d31",
        "gas": "0xc220",
        "value": "0x0",
        "input": "0x0f3d249d0000000000000000000000000000000000000000000000000000000003ed4d6c0000000000000000000000000000000000000000000000000000000068bec87b",
        "nonce": "0xd",
        "chainId": "0x279f"
      },
      "additionalContracts": [],
      "isFixedGasLimit": false
    },
    {
      "hash": null,
      "transactionType": "CALL",
      "contractName": null,
      "contractAddress": "0x6bcc89071b3ee0b2927b6a6597b3add6379cc5f2",
      "function": "report(int256,uint256)",
      "arguments": [
        "125757690",
        "1757333779"
      ],
      "transaction": {
        "from": "0xabcde369cddd1665e4ebd9214b8e9a595271272c",
        "to": "0x6bcc89071b3ee0b2927b6a6597b3add6379cc5f2",
        "gas": "0xc220",
        "value": "0x0",
        "input": "0x0f3d249d00000000000000000000000000000000000000000000000000000000077ee8fa0000000000000000000000000000000000000000000000000000000068bec913",
        "nonce": "0xe",
        "chainId": "0x279f"
      },
      "additionalContracts": [],
      "isFixedGasLimit": false
    },
    {
      "hash": null,
      "transactionType": "CALL",
      "contractName": null,
      "contractAddress": "0xe202ed51731c182bfc189c8d0017977fffefd8bc",
      "function": "report(int256,uint256)",
      "arguments": [
        "676608",
        "1757333686"
      ],
      "transaction": {
        "from": "0xabcde369cddd1665e4ebd9214b8e9a595271272c",
        "to": "0xe202ed51731c182bfc189c8d0017977fffefd8bc",
        "gas": "0xc1ff",
        "value": "0x0",
        "input": "0x0f3d249d00000000000000000000000000000000000000000000000000000000000a53000000000000000000000000000000000000000000000000000000000068bec8b6",
        "nonce": "0xf",
        "chainId": "0x279f"
      },
      "additionalContracts": [],
      "isFixedGasLimit": false
    },
    {
      "hash": null,
      "transactionType": "CALL",
      "contractName": null,
      "contractAddress": "0x3a2f88440fcf8c86c2e81025d99048f33b090f2e",
      "function": "report(int256,uint256)",
      "arguments": [
        "661375661375661",
        "1757333711"
      ],
      "transaction": {
        "from": "0xabcde369cddd1665e4ebd9214b8e9a595271272c",
        "to": "0x3a2f88440fcf8c86c2e81025d99048f33b090f2e",
        "gas": "0xc242",
        "value": "0x0",
        "input": "0x0f3d249d00000000000000000000000000000000000000000000000000025984855c00ad0000000000000000000000000000000000000000000000000000000068bec8cf",
        "nonce": "0x10",
        "chainId": "0x279f"
      },
      "additionalContracts": [],
      "isFixedGasLimit": false
    }
  ],
  "receipts": [],
  "libraries": [
    "node_modules/@celo/contracts/common/linkedlists/AddressSortedLinkedListWithMedian.sol:AddressSortedLinkedListWithMedian:0xcB985Be7a200D0075155AC2697D6D5F00267a11b"
  ],
  "pending": [],
  "returns": {},
  "timestamp": 1757333881406,
  "chain": 10143,
  "commit": "cf21763"
}