{
  "transactions": [
    {
      "hash": "0x2f2d03ea093d283afeadee23f1fde1b0fecfc9784062ede44d32691fecd0fbfa",
      "transactionType": "CALL",
      "contractName": null,
      "contractAddress": "0x353ed52bf8482027c0e0b9e3c0e5d96a9f680980",
      "function": "deployFPMM(address,address,address,address,address,address,address,bool,(uint256,uint256,address,address,uint256,uint256,uint256))",
      "arguments": [
        "0x43cB9D6AcF1462356303079EA4FDd8bc30042a6A",
        "0xAb84C994b364Be03018c6528F0F68118f107578A",
        "0x01bd47aa7B13a75c24E3dA760f8A503c435BB4Df",
        "0x2738F38Fde510743e0c589415E0598C4ceE6eAa7",
        "0x9883d788d40F1C7595a780ed881Ea833C7743B4B",
        "0xA99dC247d6b7B2E3ab48a1fEE101b83cD6aCd82a",
        "0x26076B9702885d475ac8c3dB3Bd9F250Dc5A318B",
        "false",
        "(30, 20, 0x2738F38Fde510743e0c589415E0598C4ceE6eAa7, 0x2738F38Fde510743e0c589415E0598C4ceE6eAa7, 1, 5000, 3333)"
      ],
      "transaction": {
        "from": "0x2738f38fde510743e0c589415e0598c4cee6eaa7",
        "to": "0x353ed52bf8482027c0e0b9e3c0e5d96a9f680980",
        "gas": "0x1aac33",
        "value": "0x0",
        "input": "0x098a676e00000000000000000000000043cb9d6acf1462356303079ea4fdd8bc30042a6a000000000000000000000000ab84c994b364be03018c6528f0f68118f107578a00000000000000000000000001bd47aa7b13a75c24e3da760f8a503c435bb4df0000000000000000000000002738f38fde510743e0c589415e0598c4cee6eaa70000000000000000000000009883d788d40f1c7595a780ed881ea833c7743b4b000000000000000000000000a99dc247d6b7b2e3ab48a1fee101b83cd6acd82a00000000000000000000000026076b9702885d475ac8c3db3bd9f250dc5a318b0000000000000000000000000000000000000000000000000000000000000000000000000000000000000000000000000000000000000000000000000000001e00000000000000000000000000000000000000000000000000000000000000140000000000000000000000002738f38fde510743e0c589415e0598c4cee6eaa70000000000000000000000002738f38fde510743e0c589415e0598c4cee6eaa7000000000000000000000000000000000000000000000000000000000000000100000000000000000000000000000000000000000000000000000000000013880000000000000000000000000000000000000000000000000000000000000d05",
        "nonce": "0x24a",
        "chainId": "0xaa044c"
      },
      "additionalContracts": [
        {
          "transactionType": "CREATE2",
          "contractName": null,
          "address": "0x7905e61021665f43fbcda375caf520e373f0475f",
          "initCode": "0x67363d3d37363d34f03d5260086018f3"
        },
        {
          "transactionType": "CREATE",
          "contractName": "FPMMProxy",
          "address": "0xa866b014136ae7ba7f92ef6d3e7f73bc6760af8d",
          "initCode": "0x608060405260405162000dfa38038062000dfa83398101604081905262000026916200041b565b82828282816200003882825f62000052565b506200004690508262000083565b50505050505062000546565b6200005d83620000f4565b5f825111806200006a5750805b156200007e576200007c838362000135565b505b505050565b7f7e644d79422f17c01e4894b5f4f588d331ebfa28653d42ae832dc59e38c9798f620000c45f8051602062000db3833981519152546001600160a01b031690565b604080516001600160a01b03928316815291841660208301520160405180910390a1620000f18162000164565b50565b620000ff8162000201565b6040516001600160a01b038216907fbc7cd75a20ee27fd9adebab32041f755214dbc6bffa90cc0225b39da2e5c2d3b905f90a250565b60606200015d838360405180606001604052806027815260200162000dd36027913962000298565b9392505050565b6001600160a01b038116620001cf5760405162461bcd60e51b815260206004820152602660248201527f455243313936373a206e65772061646d696e20697320746865207a65726f206160448201526564647265737360d01b60648201526084015b60405180910390fd5b805f8051602062000db38339815191525b80546001600160a01b0319166001600160a01b039290921691909117905550565b6001600160a01b0381163b620002705760405162461bcd60e51b815260206004820152602d60248201527f455243313936373a206e657720696d706c656d656e746174696f6e206973206e60448201526c1bdd08184818dbdb9d1c9858dd609a1b6064820152608401620001c6565b807f360894a13ba1a3210667c828492db98dca3e2076cc3735a920a3ca505d382bbc620001e0565b60605f80856001600160a01b031685604051620002b69190620004f5565b5f60405180830381855af49150503d805f8114620002f0576040519150601f19603f3d011682016040523d82523d5f602084013e620002f5565b606091505b509092509050620003098683838762000313565b9695505050505050565b60608315620003865782515f036200037e576001600160a01b0385163b6200037e5760405162461bcd60e51b815260206004820152601d60248201527f416464726573733a2063616c6c20746f206e6f6e2d636f6e74726163740000006044820152606401620001c6565b508162000392565b6200039283836200039a565b949350505050565b815115620003ab5781518083602001fd5b8060405162461bcd60e51b8152600401620001c6919062000512565b80516001600160a01b0381168114620003de575f80fd5b919050565b634e487b7160e01b5f52604160045260245ffd5b5f5b8381101562000413578181015183820152602001620003f9565b50505f910152565b5f805f606084860312156200042e575f80fd5b6200043984620003c7565b92506200044960208501620003c7565b60408501519092506001600160401b038082111562000466575f80fd5b818601915086601f8301126200047a575f80fd5b8151818111156200048f576200048f620003e3565b604051601f8201601f19908116603f01168101908382118183101715620004ba57620004ba620003e3565b81604052828152896020848701011115620004d3575f80fd5b620004e6836020830160208801620003f7565b80955050505050509250925092565b5f825162000508818460208701620003f7565b9190910192915050565b602081525f825180602084015262000532816040850160208701620003f7565b601f01601f19169190910160400192915050565b61085f80620005545f395ff3fe60806040523661001357610011610017565b005b6100115b61001f610168565b6001600160a01b0316330361015e5760606001600160e01b03195f35166364d3180d60e11b81016100595761005261019a565b9150610156565b63587086bd60e11b6001600160e01b0319821601610079576100526101ed565b63070d7c6960e41b6001600160e01b031982160161009957610052610231565b621eb96f60e61b6001600160e01b03198216016100b857610052610261565b63a39f25e560e01b6001600160e01b03198216016100d8576100526102a0565b60405162461bcd60e51b815260206004820152604260248201527f5472616e73706172656e745570677261646561626c6550726f78793a2061646d60448201527f696e2063616e6e6f742066616c6c6261636b20746f2070726f78792074617267606482015261195d60f21b608482015260a4015b60405180910390fd5b815160208301f35b6101666102b3565b565b5f7fb53127684a568b3173ae13b9f8a6016e243e63b6e8ee1178d6a717850b5d61035b546001600160a01b0316919050565b60606101a46102c3565b5f6101b23660048184610668565b8101906101bf91906106aa565b90506101da8160405180602001604052805f8152505f6102cd565b505060408051602081019091525f815290565b60605f806101fe3660048184610668565b81019061020b91906106d7565b9150915061021b828260016102cd565b60405180602001604052805f8152509250505090565b606061023b6102c3565b5f6102493660048184610668565b81019061025691906106aa565b90506101da816102f8565b606061026b6102c3565b5f610274610168565b604080516001600160a01b03831660208201529192500160405160208183030381529060405291505090565b60606102aa6102c3565b5f61027461034f565b6101666102be61034f565b61035d565b3415610166575f80fd5b6102d68361037b565b5f825111806102e25750805b156102f3576102f183836103ba565b505b505050565b7f7e644d79422f17c01e4894b5f4f588d331ebfa28653d42ae832dc59e38c9798f610321610168565b604080516001600160a01b03928316815291841660208301520160405180910390a161034c816103e6565b50565b5f61035861048f565b905090565b365f80375f80365f845af43d5f803e808015610377573d5ff35b3d5ffd5b610384816104b6565b6040516001600160a01b038216907fbc7cd75a20ee27fd9adebab32041f755214dbc6bffa90cc0225b39da2e5c2d3b905f90a250565b60606103df83836040518060600160405280602781526020016108036027913961054a565b9392505050565b6001600160a01b03811661044b5760405162461bcd60e51b815260206004820152602660248201527f455243313936373a206e65772061646d696e20697320746865207a65726f206160448201526564647265737360d01b606482015260840161014d565b807fb53127684a568b3173ae13b9f8a6016e243e63b6e8ee1178d6a717850b5d61035b80546001600160a01b0319166001600160a01b039290921691909117905550565b5f7f360894a13ba1a3210667c828492db98dca3e2076cc3735a920a3ca505d382bbc61018b565b6001600160a01b0381163b6105235760405162461bcd60e51b815260206004820152602d60248201527f455243313936373a206e657720696d706c656d656e746174696f6e206973206e60448201526c1bdd08184818dbdb9d1c9858dd609a1b606482015260840161014d565b807f360894a13ba1a3210667c828492db98dca3e2076cc3735a920a3ca505d382bbc61046e565b60605f80856001600160a01b03168560405161056691906107b5565b5f60405180830381855af49150503d805f811461059e576040519150601f19603f3d011682016040523d82523d5f602084013e6105a3565b606091505b50915091506105b4868383876105be565b9695505050505050565b6060831561062c5782515f03610625576001600160a01b0385163b6106255760405162461bcd60e51b815260206004820152601d60248201527f416464726573733a2063616c6c20746f206e6f6e2d636f6e7472616374000000604482015260640161014d565b5081610636565b610636838361063e565b949350505050565b81511561064e5781518083602001fd5b8060405162461bcd60e51b815260040161014d91906107d0565b5f8085851115610676575f80fd5b83861115610682575f80fd5b5050820193919092039150565b80356001600160a01b03811681146106a5575f80fd5b919050565b5f602082840312156106ba575f80fd5b6103df8261068f565b634e487b7160e01b5f52604160045260245ffd5b5f80604083850312156106e8575f80fd5b6106f18361068f565b9150602083013567ffffffffffffffff8082111561070d575f80fd5b818501915085601f830112610720575f80fd5b813581811115610732576107326106c3565b604051601f8201601f19908116603f0116810190838211818310171561075a5761075a6106c3565b81604052828152886020848701011115610772575f80fd5b826020860160208301375f6020848301015280955050505050509250929050565b5f5b838110156107ad578181015183820152602001610795565b50505f910152565b5f82516107c6818460208701610793565b9190910192915050565b602081525f82518060208401526107ee816040850160208701610793565b601f01601f1916919091016040019291505056fe416464726573733a206c6f772d6c6576656c2064656c65676174652063616c6c206661696c6564a26469706673582212208b98574e6508d92199252794945bd2a09b9be85919c5029bcc658d2167243aed64736f6c63430008180033b53127684a568b3173ae13b9f8a6016e243e63b6e8ee1178d6a717850b5d6103416464726573733a206c6f772d6c6576656c2064656c65676174652063616c6c206661696c656400000000000000000000000043cb9d6acf1462356303079ea4fdd8bc30042a6a00000000000000000000000001bd47aa7b13a75c24e3da760f8a503c435bb4df000000000000000000000000000000000000000000000000000000000000006000000000000000000000000000000000000000000000000000000000000001a4c20a9ca50000000000000000000000009883d788d40f1c7595a780ed881ea833c7743b4b000000000000000000000000a99dc247d6b7b2e3ab48a1fee101b83cd6acd82a000000000000000000000000ab84c994b364be03018c6528f0f68118f107578a00000000000000000000000026076b9702885d475ac8c3db3bd9f250dc5a318b00000000000000000000000000000000000000000000000000000000000000000000000000000000000000002738f38fde510743e0c589415e0598c4cee6eaa7000000000000000000000000000000000000000000000000000000000000001e00000000000000000000000000000000000000000000000000000000000000140000000000000000000000002738f38fde510743e0c589415e0598c4cee6eaa70000000000000000000000002738f38fde510743e0c589415e0598c4cee6eaa7000000000000000000000000000000000000000000000000000000000000000100000000000000000000000000000000000000000000000000000000000013880000000000000000000000000000000000000000000000000000000000000d0500000000000000000000000000000000000000000000000000000000"
        }
      ],
      "isFixedGasLimit": false
    },
    {
      "hash": "0xfd529fa90873bce68906b18ca50f2a09ee04d38655365955e14efe14e1b8dbe7",
      "transactionType": "CALL",
      "contractName": "MockERC20",
      "contractAddress": "0x9883d788d40f1c7595a780ed881ea833c7743b4b",
      "function": "transfer(address,uint256)",
      "arguments": [
        "0xa866B014136AE7Ba7F92EF6d3E7F73BC6760AF8D",
        "1000000000000000001"
      ],
      "transaction": {
        "from": "0x2738f38fde510743e0c589415e0598c4cee6eaa7",
        "to": "0x9883d788d40f1c7595a780ed881ea833c7743b4b",
        "gas": "0x126cc",
        "value": "0x0",
        "input": "0xa9059cbb000000000000000000000000a866b014136ae7ba7f92ef6d3e7f73bc6760af8d0000000000000000000000000000000000000000000000000de0b6b3a7640001",
        "nonce": "0x24b",
        "chainId": "0xaa044c"
      },
      "additionalContracts": [],
      "isFixedGasLimit": false
    },
    {
      "hash": "0xa5a23bdbb51a93b890c19b6d11e6712efea6c5d199fbfe2deff5c15d886e8312",
      "transactionType": "CALL",
      "contractName": null,
      "contractAddress": "0xa99dc247d6b7b2e3ab48a1fee101b83cd6acd82a",
      "function": "transfer(address,uint256)",
      "arguments": [
        "0xa866B014136AE7Ba7F92EF6d3E7F73BC6760AF8D",
        "1000000000000000000"
      ],
      "transaction": {
        "from": "0x2738f38fde510743e0c589415e0598c4cee6eaa7",
        "to": "0xa99dc247d6b7b2e3ab48a1fee101b83cd6acd82a",
        "gas": "0x1328a",
        "value": "0x0",
        "input": "0xa9059cbb000000000000000000000000a866b014136ae7ba7f92ef6d3e7f73bc6760af8d0000000000000000000000000000000000000000000000000de0b6b3a7640000",
        "nonce": "0x24c",
        "chainId": "0xaa044c"
      },
      "additionalContracts": [],
      "isFixedGasLimit": false
    },
    {
      "hash": "0xc1e2cba8fe55ebfa16c7b2efa33cb6bffb9b921eb4a74682086bc426dbfa7a3c",
      "transactionType": "CALL",
      "contractName": "FPMMProxy",
      "contractAddress": "0xa866b014136ae7ba7f92ef6d3e7f73bc6760af8d",
      "function": null,
      "arguments": null,
      "transaction": {
        "from": "0x2738f38fde510743e0c589415e0598c4cee6eaa7",
        "to": "0xa866b014136ae7ba7f92ef6d3e7f73bc6760af8d",
        "gas": "0x49565",
        "value": "0x0",
        "input": "0x6a6278420000000000000000000000002738f38fde510743e0c589415e0598c4cee6eaa7",
        "nonce": "0x24d",
        "chainId": "0xaa044c"
      },
      "additionalContracts": [],
      "isFixedGasLimit": false
    },
    {
      "hash": "0x328b5343b8295c644b84edfd08c54704af444ff8cc4f8c7cff6227b06fcc5fb0",
      "transactionType": "CALL",
      "contractName": "FPMMProxy",
      "contractAddress": "0xa866b014136ae7ba7f92ef6d3e7f73bc6760af8d",
      "function": null,
      "arguments": null,
      "transaction": {
        "from": "0x2738f38fde510743e0c589415e0598c4cee6eaa7",
        "to": "0xa866b014136ae7ba7f92ef6d3e7f73bc6760af8d",
        "gas": "0x1642c",
        "value": "0x0",
        "input": "0xda7ddb8f0000000000000000000000009883d788d40f1c7595a780ed881ea833c7743b4b00000000000000000000000000000000000000000000152d02c7e14af68000000000000000000000000000000000000000000000000069e10de76676d0800000",
        "nonce": "0x24e",
        "chainId": "0xaa044c"
      },
      "additionalContracts": [],
      "isFixedGasLimit": false
    },
    {
      "hash": "0xcf8a1ea90c3681c58831d92ca61a0a1949dc39b704b3412f5b8ca43dde4b2350",
      "transactionType": "CALL",
      "contractName": "FPMMProxy",
      "contractAddress": "0xa866b014136ae7ba7f92ef6d3e7f73bc6760af8d",
      "function": null,
      "arguments": null,
      "transaction": {
        "from": "0x2738f38fde510743e0c589415e0598c4cee6eaa7",
        "to": "0xa866b014136ae7ba7f92ef6d3e7f73bc6760af8d",
        "gas": "0x18cf6",
        "value": "0x0",
        "input": "0xda7ddb8f000000000000000000000000a99dc247d6b7b2e3ab48a1fee101b83cd6acd82a00000000000000000000000000000000000000000000152d02c7e14af68000000000000000000000000000000000000000000000000069e10de76676d0800000",
        "nonce": "0x24f",
        "chainId": "0xaa044c"
      },
      "additionalContracts": [],
      "isFixedGasLimit": false
    },
    {
      "hash": "0x7368bd13e01447864308cb9cb736854dae299a4e3ff0ce3e4f4544afed09aa8d",
      "transactionType": "CALL",
      "contractName": null,
      "contractAddress": "0xbcdc1d0b92dfceeaa0fcd0a0d53355f4bf1db8a7",
      "function": "registerStableAsset(address)",
      "arguments": [
        "0xA99dC247d6b7B2E3ab48a1fEE101b83cD6aCd82a"
      ],
      "transaction": {
        "from": "0x2738f38fde510743e0c589415e0598c4cee6eaa7",
        "to": "0xbcdc1d0b92dfceeaa0fcd0a0d53355f4bf1db8a7",
        "gas": "0x1c809",
        "value": "0x0",
        "input": "0xee71f7d5000000000000000000000000a99dc247d6b7b2e3ab48a1fee101b83cd6acd82a",
        "nonce": "0x250",
        "chainId": "0xaa044c"
      },
      "additionalContracts": [],
      "isFixedGasLimit": false
    },
    {
      "hash": "0x5ae42c93201dbc549348f073a50e96684de10b1ddd9c6ab4b85fe6d7bc15481a",
      "transactionType": "CALL",
      "contractName": null,
      "contractAddress": "0xbcdc1d0b92dfceeaa0fcd0a0d53355f4bf1db8a7",
      "function": "registerCollateralAsset(address)",
      "arguments": [
        "0x9883d788d40F1C7595a780ed881Ea833C7743B4B"
      ],
      "transaction": {
        "from": "0x2738f38fde510743e0c589415e0598c4cee6eaa7",
        "to": "0xbcdc1d0b92dfceeaa0fcd0a0d53355f4bf1db8a7",
        "gas": "0x1af11",
        "value": "0x0",
        "input": "0x40a240370000000000000000000000009883d788d40f1c7595a780ed881ea833c7743b4b",
        "nonce": "0x251",
        "chainId": "0xaa044c"
      },
      "additionalContracts": [],
      "isFixedGasLimit": false
    },
    {
      "hash": "0x51ba26058931a0669564dd260505e20f6d58dcddf9e496f077435cdedfb1b1d4",
      "transactionType": "CALL",
      "contractName": "FPMMProxy",
      "contractAddress": "0xa866b014136ae7ba7f92ef6d3e7f73bc6760af8d",
      "function": null,
      "arguments": null,
      "transaction": {
        "from": "0x2738f38fde510743e0c589415e0598c4cee6eaa7",
        "to": "0xa866b014136ae7ba7f92ef6d3e7f73bc6760af8d",
        "gas": "0x12961",
        "value": "0x0",
        "input": "0xcce441a3000000000000000000000000734bb3251ec3f1a83f8f2a8609bcef649d54ebf80000000000000000000000000000000000000000000000000000000000000001",
        "nonce": "0x252",
        "chainId": "0xaa044c"
      },
      "additionalContracts": [],
      "isFixedGasLimit": false
    },
    {
      "hash": "0xe944c734882c2decf72f663d622a2485f3137488b4696f510f0523bfbef5b452",
      "transactionType": "CALL",
      "contractName": null,
      "contractAddress": "0x734bb3251ec3f1a83f8f2a8609bcef649d54ebf8",
      "function": "addPool((address,address,uint32,address,uint64,uint64,uint64,uint64))",
      "arguments": [
        "(0xa866B014136AE7Ba7F92EF6d3E7F73BC6760AF8D, 0xA99dC247d6b7B2E3ab48a1fEE101b83cD6aCd82a, 300, 0x2738F38Fde510743e0c589415E0598C4ceE6eAa7, 0, 0, 0, 0)"
      ],
      "transaction": {
        "from": "0x2738f38fde510743e0c589415e0598c4cee6eaa7",
        "to": "0x734bb3251ec3f1a83f8f2a8609bcef649d54ebf8",
        "gas": "0x2e26f",
        "value": "0x0",
        "input": "0x2d3d3638000000000000000000000000a866b014136ae7ba7f92ef6d3e7f73bc6760af8d000000000000000000000000a99dc247d6b7b2e3ab48a1fee101b83cd6acd82a000000000000000000000000000000000000000000000000000000000000012c0000000000000000000000002738f38fde510743e0c589415e0598c4cee6eaa70000000000000000000000000000000000000000000000000000000000000000000000000000000000000000000000000000000000000000000000000000000000000000000000000000000000000000000000000000000000000000000000000000000000000000000000000000000000000000000000000000000000000000",
        "nonce": "0x253",
        "chainId": "0xaa044c"
      },
      "additionalContracts": [],
      "isFixedGasLimit": false
    },
    {
      "hash": "0xdd482e235a630991a2bea1a37816ef40f4cb46f29b6b5eab8ac7bf2855cda7ff",
      "transactionType": "CALL",
      "contractName": null,
      "contractAddress": "0xa99dc247d6b7b2e3ab48a1fee101b83cd6acd82a",
      "function": "setMinter(address,bool)",
      "arguments": [
        "0x734bb3251Ec3f1A83f8f2A8609bcEF649D54EbF8",
        "true"
      ],
      "transaction": {
        "from": "0x2738f38fde510743e0c589415e0598c4cee6eaa7",
        "to": "0xa99dc247d6b7b2e3ab48a1fee101b83cd6acd82a",
        "gas": "0x12fd9",
        "value": "0x0",
        "input": "0xcf456ae7000000000000000000000000734bb3251ec3f1a83f8f2a8609bcef649d54ebf80000000000000000000000000000000000000000000000000000000000000001",
        "nonce": "0x254",
        "chainId": "0xaa044c"
      },
      "additionalContracts": [],
      "isFixedGasLimit": false
    },
    {
      "hash": "0x090afcf322709a3d63a4db40e3d32deeaa83288c86234fc04a7a6fa11941a068",
      "transactionType": "CALL",
      "contractName": null,
      "contractAddress": "0xa99dc247d6b7b2e3ab48a1fee101b83cd6acd82a",
      "function": "setBurner(address,bool)",
      "arguments": [
        "0x734bb3251Ec3f1A83f8f2A8609bcEF649D54EbF8",
        "true"
      ],
      "transaction": {
        "from": "0x2738f38fde510743e0c589415e0598c4cee6eaa7",
        "to": "0xa99dc247d6b7b2e3ab48a1fee101b83cd6acd82a",
        "gas": "0x11f29",
        "value": "0x0",
        "input": "0x0d895ee1000000000000000000000000734bb3251ec3f1a83f8f2a8609bcef649d54ebf80000000000000000000000000000000000000000000000000000000000000001",
        "nonce": "0x255",
        "chainId": "0xaa044c"
      },
      "additionalContracts": [],
      "isFixedGasLimit": false
    },
    {
      "hash": "0x1b814c6d39e1086c0d0306534c991e86153c6320b395fedebf9253380ce36555",
      "transactionType": "CALL",
      "contractName": null,
      "contractAddress": "0x353ed52bf8482027c0e0b9e3c0e5d96a9f680980",
      "function": "deployFPMM(address,address,address,address,address,address,address,bool,(uint256,uint256,address,address,uint256,uint256,uint256))",
      "arguments": [
        "0x43cB9D6AcF1462356303079EA4FDd8bc30042a6A",
        "0x26eFF54e2f0E8825996b83119b7Df5ef2C882dD7",
        "0x01bd47aa7B13a75c24E3dA760f8A503c435BB4Df",
        "0x2738F38Fde510743e0c589415E0598C4ceE6eAa7",
        "0xA99dC247d6b7B2E3ab48a1fEE101b83cD6aCd82a",
        "0xdE9e4C3ce781b4bA68120d6261cbad65ce0aB00b",
        "0x5D5a22116233BDb2a9C2977279cC348B8b8Ce917",
        "false",
        "(15, 10, 0x2738F38Fde510743e0c589415E0598C4ceE6eAa7, 0x2738F38Fde510743e0c589415E0598C4ceE6eAa7, 6, 5000, 3333)"
      ],
      "transaction": {
        "from": "0x2738f38fde510743e0c589415e0598c4cee6eaa7",
        "to": "0x353ed52bf8482027c0e0b9e3c0e5d96a9f680980",
        "gas": "0x18d3bc",
        "value": "0x0",
        "input": "0x098a676e00000000000000000000000043cb9d6acf1462356303079ea4fdd8bc30042a6a00000000000000000000000026eff54e2f0e8825996b83119b7df5ef2c882dd700000000000000000000000001bd47aa7b13a75c24e3da760f8a503c435bb4df0000000000000000000000002738f38fde510743e0c589415e0598c4cee6eaa7000000000000000000000000a99dc247d6b7b2e3ab48a1fee101b83cd6acd82a000000000000000000000000de9e4c3ce781b4ba68120d6261cbad65ce0ab00b0000000000000000000000005d5a22116233bdb2a9c2977279cc348b8b8ce9170000000000000000000000000000000000000000000000000000000000000000000000000000000000000000000000000000000000000000000000000000000f000000000000000000000000000000000000000000000000000000000000000a0000000000000000000000002738f38fde510743e0c589415e0598c4cee6eaa70000000000000000000000002738f38fde510743e0c589415e0598c4cee6eaa7000000000000000000000000000000000000000000000000000000000000000600000000000000000000000000000000000000000000000000000000000013880000000000000000000000000000000000000000000000000000000000000d05",
        "nonce": "0x256",
        "chainId": "0xaa044c"
      },
      "additionalContracts": [
        {
          "transactionType": "CREATE2",
          "contractName": null,
          "address": "0xddd0800dfd2adba86adba43e1300a8377ec3936d",
          "initCode": "0x67363d3d37363d34f03d5260086018f3"
        },
        {
          "transactionType": "CREATE",
          "contractName": "FPMMProxy",
          "address": "0x3a58acdd4627478581960f366ff411e11349fcb3",
          "initCode": "0x608060405260405162000dfa38038062000dfa83398101604081905262000026916200041b565b82828282816200003882825f62000052565b506200004690508262000083565b50505050505062000546565b6200005d83620000f4565b5f825111806200006a5750805b156200007e576200007c838362000135565b505b505050565b7f7e644d79422f17c01e4894b5f4f588d331ebfa28653d42ae832dc59e38c9798f620000c45f8051602062000db3833981519152546001600160a01b031690565b604080516001600160a01b03928316815291841660208301520160405180910390a1620000f18162000164565b50565b620000ff8162000201565b6040516001600160a01b038216907fbc7cd75a20ee27fd9adebab32041f755214dbc6bffa90cc0225b39da2e5c2d3b905f90a250565b60606200015d838360405180606001604052806027815260200162000dd36027913962000298565b9392505050565b6001600160a01b038116620001cf5760405162461bcd60e51b815260206004820152602660248201527f455243313936373a206e65772061646d696e20697320746865207a65726f206160448201526564647265737360d01b60648201526084015b60405180910390fd5b805f8051602062000db38339815191525b80546001600160a01b0319166001600160a01b039290921691909117905550565b6001600160a01b0381163b620002705760405162461bcd60e51b815260206004820152602d60248201527f455243313936373a206e657720696d706c656d656e746174696f6e206973206e60448201526c1bdd08184818dbdb9d1c9858dd609a1b6064820152608401620001c6565b807f360894a13ba1a3210667c828492db98dca3e2076cc3735a920a3ca505d382bbc620001e0565b60605f80856001600160a01b031685604051620002b69190620004f5565b5f60405180830381855af49150503d805f8114620002f0576040519150601f19603f3d011682016040523d82523d5f602084013e620002f5565b606091505b509092509050620003098683838762000313565b9695505050505050565b60608315620003865782515f036200037e576001600160a01b0385163b6200037e5760405162461bcd60e51b815260206004820152601d60248201527f416464726573733a2063616c6c20746f206e6f6e2d636f6e74726163740000006044820152606401620001c6565b508162000392565b6200039283836200039a565b949350505050565b815115620003ab5781518083602001fd5b8060405162461bcd60e51b8152600401620001c6919062000512565b80516001600160a01b0381168114620003de575f80fd5b919050565b634e487b7160e01b5f52604160045260245ffd5b5f5b8381101562000413578181015183820152602001620003f9565b50505f910152565b5f805f606084860312156200042e575f80fd5b6200043984620003c7565b92506200044960208501620003c7565b60408501519092506001600160401b038082111562000466575f80fd5b818601915086601f8301126200047a575f80fd5b8151818111156200048f576200048f620003e3565b604051601f8201601f19908116603f01168101908382118183101715620004ba57620004ba620003e3565b81604052828152896020848701011115620004d3575f80fd5b620004e6836020830160208801620003f7565b80955050505050509250925092565b5f825162000508818460208701620003f7565b9190910192915050565b602081525f825180602084015262000532816040850160208701620003f7565b601f01601f19169190910160400192915050565b61085f80620005545f395ff3fe60806040523661001357610011610017565b005b6100115b61001f610168565b6001600160a01b0316330361015e5760606001600160e01b03195f35166364d3180d60e11b81016100595761005261019a565b9150610156565b63587086bd60e11b6001600160e01b0319821601610079576100526101ed565b63070d7c6960e41b6001600160e01b031982160161009957610052610231565b621eb96f60e61b6001600160e01b03198216016100b857610052610261565b63a39f25e560e01b6001600160e01b03198216016100d8576100526102a0565b60405162461bcd60e51b815260206004820152604260248201527f5472616e73706172656e745570677261646561626c6550726f78793a2061646d60448201527f696e2063616e6e6f742066616c6c6261636b20746f2070726f78792074617267606482015261195d60f21b608482015260a4015b60405180910390fd5b815160208301f35b6101666102b3565b565b5f7fb53127684a568b3173ae13b9f8a6016e243e63b6e8ee1178d6a717850b5d61035b546001600160a01b0316919050565b60606101a46102c3565b5f6101b23660048184610668565b8101906101bf91906106aa565b90506101da8160405180602001604052805f8152505f6102cd565b505060408051602081019091525f815290565b60605f806101fe3660048184610668565b81019061020b91906106d7565b9150915061021b828260016102cd565b60405180602001604052805f8152509250505090565b606061023b6102c3565b5f6102493660048184610668565b81019061025691906106aa565b90506101da816102f8565b606061026b6102c3565b5f610274610168565b604080516001600160a01b03831660208201529192500160405160208183030381529060405291505090565b60606102aa6102c3565b5f61027461034f565b6101666102be61034f565b61035d565b3415610166575f80fd5b6102d68361037b565b5f825111806102e25750805b156102f3576102f183836103ba565b505b505050565b7f7e644d79422f17c01e4894b5f4f588d331ebfa28653d42ae832dc59e38c9798f610321610168565b604080516001600160a01b03928316815291841660208301520160405180910390a161034c816103e6565b50565b5f61035861048f565b905090565b365f80375f80365f845af43d5f803e808015610377573d5ff35b3d5ffd5b610384816104b6565b6040516001600160a01b038216907fbc7cd75a20ee27fd9adebab32041f755214dbc6bffa90cc0225b39da2e5c2d3b905f90a250565b60606103df83836040518060600160405280602781526020016108036027913961054a565b9392505050565b6001600160a01b03811661044b5760405162461bcd60e51b815260206004820152602660248201527f455243313936373a206e65772061646d696e20697320746865207a65726f206160448201526564647265737360d01b606482015260840161014d565b807fb53127684a568b3173ae13b9f8a6016e243e63b6e8ee1178d6a717850b5d61035b80546001600160a01b0319166001600160a01b039290921691909117905550565b5f7f360894a13ba1a3210667c828492db98dca3e2076cc3735a920a3ca505d382bbc61018b565b6001600160a01b0381163b6105235760405162461bcd60e51b815260206004820152602d60248201527f455243313936373a206e657720696d706c656d656e746174696f6e206973206e60448201526c1bdd08184818dbdb9d1c9858dd609a1b606482015260840161014d565b807f360894a13ba1a3210667c828492db98dca3e2076cc3735a920a3ca505d382bbc61046e565b60605f80856001600160a01b03168560405161056691906107b5565b5f60405180830381855af49150503d805f811461059e576040519150601f19603f3d011682016040523d82523d5f602084013e6105a3565b606091505b50915091506105b4868383876105be565b9695505050505050565b6060831561062c5782515f03610625576001600160a01b0385163b6106255760405162461bcd60e51b815260206004820152601d60248201527f416464726573733a2063616c6c20746f206e6f6e2d636f6e7472616374000000604482015260640161014d565b5081610636565b610636838361063e565b949350505050565b81511561064e5781518083602001fd5b8060405162461bcd60e51b815260040161014d91906107d0565b5f8085851115610676575f80fd5b83861115610682575f80fd5b5050820193919092039150565b80356001600160a01b03811681146106a5575f80fd5b919050565b5f602082840312156106ba575f80fd5b6103df8261068f565b634e487b7160e01b5f52604160045260245ffd5b5f80604083850312156106e8575f80fd5b6106f18361068f565b9150602083013567ffffffffffffffff8082111561070d575f80fd5b818501915085601f830112610720575f80fd5b813581811115610732576107326106c3565b604051601f8201601f19908116603f0116810190838211818310171561075a5761075a6106c3565b81604052828152886020848701011115610772575f80fd5b826020860160208301375f6020848301015280955050505050509250929050565b5f5b838110156107ad578181015183820152602001610795565b50505f910152565b5f82516107c6818460208701610793565b9190910192915050565b602081525f82518060208401526107ee816040850160208701610793565b601f01601f1916919091016040019291505056fe416464726573733a206c6f772d6c6576656c2064656c65676174652063616c6c206661696c6564a26469706673582212208b98574e6508d92199252794945bd2a09b9be85919c5029bcc658d2167243aed64736f6c63430008180033b53127684a568b3173ae13b9f8a6016e243e63b6e8ee1178d6a717850b5d6103416464726573733a206c6f772d6c6576656c2064656c65676174652063616c6c206661696c656400000000000000000000000043cb9d6acf1462356303079ea4fdd8bc30042a6a00000000000000000000000001bd47aa7b13a75c24e3da760f8a503c435bb4df000000000000000000000000000000000000000000000000000000000000006000000000000000000000000000000000000000000000000000000000000001a4c20a9ca5000000000000000000000000a99dc247d6b7b2e3ab48a1fee101b83cd6acd82a000000000000000000000000de9e4c3ce781b4ba68120d6261cbad65ce0ab00b00000000000000000000000026eff54e2f0e8825996b83119b7df5ef2c882dd70000000000000000000000005d5a22116233bdb2a9c2977279cc348b8b8ce91700000000000000000000000000000000000000000000000000000000000000000000000000000000000000002738f38fde510743e0c589415e0598c4cee6eaa7000000000000000000000000000000000000000000000000000000000000000f000000000000000000000000000000000000000000000000000000000000000a0000000000000000000000002738f38fde510743e0c589415e0598c4cee6eaa70000000000000000000000002738f38fde510743e0c589415e0598c4cee6eaa7000000000000000000000000000000000000000000000000000000000000000600000000000000000000000000000000000000000000000000000000000013880000000000000000000000000000000000000000000000000000000000000d0500000000000000000000000000000000000000000000000000000000"
        }
      ],
      "isFixedGasLimit": false
    },
    {
      "hash": "0x8ba618d1754c6360a09b042741f7b1bc8693115988b9e2f9648652ffed191d78",
      "transactionType": "CALL",
      "contractName": null,
      "contractAddress": "0xa99dc247d6b7b2e3ab48a1fee101b83cd6acd82a",
      "function": "transfer(address,uint256)",
      "arguments": [
        "0x3a58ACdd4627478581960f366fF411E11349FcB3",
        "866252742231337126"
      ],
      "transaction": {
        "from": "0x2738f38fde510743e0c589415e0598c4cee6eaa7",
        "to": "0xa99dc247d6b7b2e3ab48a1fee101b83cd6acd82a",
        "gas": "0x132ac",
        "value": "0x0",
        "input": "0xa9059cbb0000000000000000000000003a58acdd4627478581960f366ff411e11349fcb30000000000000000000000000000000000000000000000000c058c478a6828a6",
        "nonce": "0x257",
        "chainId": "0xaa044c"
      },
      "additionalContracts": [],
      "isFixedGasLimit": false
    },
    {
      "hash": "0x82acdd27bed10fb5e8fa27c1dfb74760055506b4c2591957c52926132369b27a",
      "transactionType": "CALL",
      "contractName": null,
      "contractAddress": "0xde9e4c3ce781b4ba68120d6261cbad65ce0ab00b",
      "function": "transfer(address,uint256)",
      "arguments": [
        "0x3a58ACdd4627478581960f366fF411E11349FcB3",
        "1000000000000000000"
      ],
      "transaction": {
        "from": "0x2738f38fde510743e0c589415e0598c4cee6eaa7",
        "to": "0xde9e4c3ce781b4ba68120d6261cbad65ce0ab00b",
        "gas": "0x1328a",
        "value": "0x0",
        "input": "0xa9059cbb0000000000000000000000003a58acdd4627478581960f366ff411e11349fcb30000000000000000000000000000000000000000000000000de0b6b3a7640000",
        "nonce": "0x258",
        "chainId": "0xaa044c"
      },
      "additionalContracts": [],
      "isFixedGasLimit": false
    },
    {
      "hash": "0x4ef98f149ceec367065e7ea3ddd8ad14baafd02921be7cf681e1a8f2167b4a02",
      "transactionType": "CALL",
      "contractName": "FPMMProxy",
      "contractAddress": "0x3a58acdd4627478581960f366ff411e11349fcb3",
      "function": null,
      "arguments": null,
      "transaction": {
        "from": "0x2738f38fde510743e0c589415e0598c4cee6eaa7",
        "to": "0x3a58acdd4627478581960f366ff411e11349fcb3",
        "gas": "0x4aa53",
        "value": "0x0",
        "input": "0x6a6278420000000000000000000000002738f38fde510743e0c589415e0598c4cee6eaa7",
        "nonce": "0x259",
        "chainId": "0xaa044c"
      },
      "additionalContracts": [],
      "isFixedGasLimit": false
    },
    {
      "hash": "0xb46c724f43ea1a7c5e5688f96b1268f310311426fd85222086e945adbafc746d",
      "transactionType": "CALL",
      "contractName": "FPMMProxy",
      "contractAddress": "0x3a58acdd4627478581960f366ff411e11349fcb3",
      "function": null,
      "arguments": null,
      "transaction": {
        "from": "0x2738f38fde510743e0c589415e0598c4cee6eaa7",
        "to": "0x3a58acdd4627478581960f366ff411e11349fcb3",
        "gas": "0x1980c",
        "value": "0x0",
        "input": "0xda7ddb8f000000000000000000000000a99dc247d6b7b2e3ab48a1fee101b83cd6acd82a000000000000000000000000000000000000000000002d872c60f12df860000000000000000000000000000000000000000000000000b61cb183c4b7e1800000",
        "nonce": "0x25a",
        "chainId": "0xaa044c"
      },
      "additionalContracts": [],
      "isFixedGasLimit": false
    },
    {
      "hash": "0x6015ac23409db874b021c3377f05c4e4084e1dce52e742963890e2c35e2dd7ea",
      "transactionType": "CALL",
      "contractName": "FPMMProxy",
      "contractAddress": "0x3a58acdd4627478581960f366ff411e11349fcb3",
      "function": null,
      "arguments": null,
      "transaction": {
        "from": "0x2738f38fde510743e0c589415e0598c4cee6eaa7",
        "to": "0x3a58acdd4627478581960f366ff411e11349fcb3",
        "gas": "0x1a43e",
        "value": "0x0",
        "input": "0xda7ddb8f000000000000000000000000de9e4c3ce781b4ba68120d6261cbad65ce0ab00b0000000000000000000000000000000000000000000034f086f3b33b6840000000000000000000000000000000000000000000000000d3c21bcecceda1000000",
        "nonce": "0x25b",
        "chainId": "0xaa044c"
      },
      "additionalContracts": [],
      "isFixedGasLimit": false
    },
    {
      "hash": "0x17f22b278736b261d590b0827f744d14bbddbcd112b07fcf2e3832e0cb9419f9",
      "transactionType": "CALL",
      "contractName": "FPMMProxy",
      "contractAddress": "0x3a58acdd4627478581960f366ff411e11349fcb3",
      "function": null,
      "arguments": null,
      "transaction": {
        "from": "0x2738f38fde510743e0c589415e0598c4cee6eaa7",
        "to": "0x3a58acdd4627478581960f366ff411e11349fcb3",
        "gas": "0x12961",
        "value": "0x0",
        "input": "0xcce441a3000000000000000000000000ccd2ad0603a08ebc14d223a983171ef18192e8c90000000000000000000000000000000000000000000000000000000000000001",
        "nonce": "0x25c",
        "chainId": "0xaa044c"
      },
      "additionalContracts": [],
      "isFixedGasLimit": false
    },
    {
      "hash": "0x036b4f999221f627ba4e2a589dca4a455b309b5de8fe23a6b8d9b91247e8c60f",
      "transactionType": "CALL",
      "contractName": null,
      "contractAddress": "0xccd2ad0603a08ebc14d223a983171ef18192e8c9",
      "function": "addPool((address,address,uint32,address,uint64,uint64,uint64,uint64))",
      "arguments": [
        "(0x3a58ACdd4627478581960f366fF411E11349FcB3, 0xdE9e4C3ce781b4bA68120d6261cbad65ce0aB00b, 300, 0x2738F38Fde510743e0c589415E0598C4ceE6eAa7, 500000000000000, 0, 500000000000000, 0)"
      ],
      "transaction": {
        "from": "0x2738f38fde510743e0c589415e0598c4cee6eaa7",
        "to": "0xccd2ad0603a08ebc14d223a983171ef18192e8c9",
        "gas": "0x381ae",
        "value": "0x0",
        "input": "0x2d3d36380000000000000000000000003a58acdd4627478581960f366ff411e11349fcb3000000000000000000000000de9e4c3ce781b4ba68120d6261cbad65ce0ab00b000000000000000000000000000000000000000000000000000000000000012c0000000000000000000000002738f38fde510743e0c589415e0598c4cee6eaa70000000000000000000000000000000000000000000000000001c6bf5263400000000000000000000000000000000000000000000000000000000000000000000000000000000000000000000000000000000000000000000001c6bf526340000000000000000000000000000000000000000000000000000000000000000000",
        "nonce": "0x25d",
        "chainId": "0xaa044c"
      },
      "additionalContracts": [],
      "isFixedGasLimit": false
    }
  ],
  "receipts": [
    {
      "type": "0x2",
      "status": "0x1",
      "cumulativeGasUsed": "0x12f0e1",
      "logs": [
        {
          "address": "0xba5ed099633d3b313e4d5f7bdc1305d3c28ba5ed",
          "topics": [
            "0x2feea65dd4e9f9cbd86b74b7734210c59a1b2981b5b137bd0ee3e208200c9067",
            "0x0000000000000000000000007905e61021665f43fbcda375caf520e373f0475f",
            "0x0ad47c5314019f1efd6fc059de5f7cfa87085330e1871f028161c9d51dbf33d3"
          ],
          "data": "0x",
          "blockHash": "0x03ec29f498f30f2dc24475009ecd0bd18c88202e29cd625ab2218a410caa9d7f",
          "blockNumber": "0x14452db",
          "blockTimestamp": "0x69c5506f",
          "transactionHash": "0x2f2d03ea093d283afeadee23f1fde1b0fecfc9784062ede44d32691fecd0fbfa",
          "transactionIndex": "0x1",
          "logIndex": "0x0",
          "removed": false
        },
        {
          "address": "0xa866b014136ae7ba7f92ef6d3e7f73bc6760af8d",
          "topics": [
            "0xbc7cd75a20ee27fd9adebab32041f755214dbc6bffa90cc0225b39da2e5c2d3b",
            "0x00000000000000000000000043cb9d6acf1462356303079ea4fdd8bc30042a6a"
          ],
          "data": "0x",
          "blockHash": "0x03ec29f498f30f2dc24475009ecd0bd18c88202e29cd625ab2218a410caa9d7f",
          "blockNumber": "0x14452db",
          "blockTimestamp": "0x69c5506f",
          "transactionHash": "0x2f2d03ea093d283afeadee23f1fde1b0fecfc9784062ede44d32691fecd0fbfa",
          "transactionIndex": "0x1",
          "logIndex": "0x1",
          "removed": false
        },
        {
          "address": "0xa866b014136ae7ba7f92ef6d3e7f73bc6760af8d",
          "topics": [
            "0x8be0079c531659141344cd1fd0a4f28419497f9722a3daafe3b4186f6b6457e0",
            "0x0000000000000000000000000000000000000000000000000000000000000000",
            "0x0000000000000000000000007905e61021665f43fbcda375caf520e373f0475f"
          ],
          "data": "0x",
          "blockHash": "0x03ec29f498f30f2dc24475009ecd0bd18c88202e29cd625ab2218a410caa9d7f",
          "blockNumber": "0x14452db",
          "blockTimestamp": "0x69c5506f",
          "transactionHash": "0x2f2d03ea093d283afeadee23f1fde1b0fecfc9784062ede44d32691fecd0fbfa",
          "transactionIndex": "0x1",
          "logIndex": "0x2",
          "removed": false
        },
        {
          "address": "0xa866b014136ae7ba7f92ef6d3e7f73bc6760af8d",
          "topics": [
            "0xb5d5dda8af4f1e40a5cc4aa66c39ca5aac7f90947261313b07527eb3bdd98bc7"
          ],
          "data": "0x0000000000000000000000000000000000000000000000000000000000000000000000000000000000000000000000000000000000000000000000000000001e",
          "blockHash": "0x03ec29f498f30f2dc24475009ecd0bd18c88202e29cd625ab2218a410caa9d7f",
          "blockNumber": "0x14452db",
          "blockTimestamp": "0x69c5506f",
          "transactionHash": "0x2f2d03ea093d283afeadee23f1fde1b0fecfc9784062ede44d32691fecd0fbfa",
          "transactionIndex": "0x1",
          "logIndex": "0x3",
          "removed": false
        },
        {
          "address": "0xa866b014136ae7ba7f92ef6d3e7f73bc6760af8d",
          "topics": [
            "0xd3890fc76afcfc31cba1dcf2c27b50e2541e4d75039c981855b5b5e03682aea0",
            "0x0000000000000000000000000000000000000000000000000000000000000000",
            "0x0000000000000000000000002738f38fde510743e0c589415e0598c4cee6eaa7"
          ],
          "data": "0x",
          "blockHash": "0x03ec29f498f30f2dc24475009ecd0bd18c88202e29cd625ab2218a410caa9d7f",
          "blockNumber": "0x14452db",
          "blockTimestamp": "0x69c5506f",
          "transactionHash": "0x2f2d03ea093d283afeadee23f1fde1b0fecfc9784062ede44d32691fecd0fbfa",
          "transactionIndex": "0x1",
          "logIndex": "0x4",
          "removed": false
        },
        {
          "address": "0xa866b014136ae7ba7f92ef6d3e7f73bc6760af8d",
          "topics": [
            "0xb404cac19fb1cbeff98d325795b08886e3cd8fe8cb1a2f193aac66f13fb239c3"
          ],
          "data": "0x00000000000000000000000000000000000000000000000000000000000000000000000000000000000000000000000000000000000000000000000000000014",
          "blockHash": "0x03ec29f498f30f2dc24475009ecd0bd18c88202e29cd625ab2218a410caa9d7f",
          "blockNumber": "0x14452db",
          "blockTimestamp": "0x69c5506f",
          "transactionHash": "0x2f2d03ea093d283afeadee23f1fde1b0fecfc9784062ede44d32691fecd0fbfa",
          "transactionIndex": "0x1",
          "logIndex": "0x5",
          "removed": false
        },
        {
          "address": "0xa866b014136ae7ba7f92ef6d3e7f73bc6760af8d",
          "topics": [
            "0xb273226859e3e49fd86c9ac8f721eaa74e677de0877db704918e0f43ec8d23bc"
          ],
          "data": "0x00000000000000000000000000000000000000000000000000000000000000000000000000000000000000000000000000000000000000000000000000000001",
          "blockHash": "0x03ec29f498f30f2dc24475009ecd0bd18c88202e29cd625ab2218a410caa9d7f",
          "blockNumber": "0x14452db",
          "blockTimestamp": "0x69c5506f",
          "transactionHash": "0x2f2d03ea093d283afeadee23f1fde1b0fecfc9784062ede44d32691fecd0fbfa",
          "transactionIndex": "0x1",
          "logIndex": "0x6",
          "removed": false
        },
        {
          "address": "0xa866b014136ae7ba7f92ef6d3e7f73bc6760af8d",
          "topics": [
            "0x77c5ddba87b3d3f970242eda9bb1263ade9e4aed3eca233d5fa1af00a574b025"
          ],
          "data": "0x0000000000000000000000000000000000000000000000000000000000000000000000000000000000000000000000000000000000000000000000000000000000000000000000000000000000000000000000000000000000000000000013880000000000000000000000000000000000000000000000000000000000000d05",
          "blockHash": "0x03ec29f498f30f2dc24475009ecd0bd18c88202e29cd625ab2218a410caa9d7f",
          "blockNumber": "0x14452db",
          "blockTimestamp": "0x69c5506f",
          "transactionHash": "0x2f2d03ea093d283afeadee23f1fde1b0fecfc9784062ede44d32691fecd0fbfa",
          "transactionIndex": "0x1",
          "logIndex": "0x7",
          "removed": false
        },
        {
          "address": "0xa866b014136ae7ba7f92ef6d3e7f73bc6760af8d",
          "topics": [
            "0xe4630e6e66d263636ccf946c97182b0edb7bbea539a79dfa121bab7444e83b79",
            "0x0000000000000000000000000000000000000000000000000000000000000000",
            "0x000000000000000000000000ab84c994b364be03018c6528f0f68118f107578a"
          ],
          "data": "0x",
          "blockHash": "0x03ec29f498f30f2dc24475009ecd0bd18c88202e29cd625ab2218a410caa9d7f",
          "blockNumber": "0x14452db",
          "blockTimestamp": "0x69c5506f",
          "transactionHash": "0x2f2d03ea093d283afeadee23f1fde1b0fecfc9784062ede44d32691fecd0fbfa",
          "transactionIndex": "0x1",
          "logIndex": "0x8",
          "removed": false
        },
        {
          "address": "0xa866b014136ae7ba7f92ef6d3e7f73bc6760af8d",
          "topics": [
            "0xc1ba25a60afffd747fd25304e169131b7ae93932f7f3e508a8cec0e18fa12842",
            "0x0000000000000000000000000000000000000000000000000000000000000000",
            "0x00000000000000000000000026076b9702885d475ac8c3db3bd9f250dc5a318b"
          ],
          "data": "0x",
          "blockHash": "0x03ec29f498f30f2dc24475009ecd0bd18c88202e29cd625ab2218a410caa9d7f",
          "blockNumber": "0x14452db",
          "blockTimestamp": "0x69c5506f",
          "transactionHash": "0x2f2d03ea093d283afeadee23f1fde1b0fecfc9784062ede44d32691fecd0fbfa",
          "transactionIndex": "0x1",
          "logIndex": "0x9",
          "removed": false
        },
        {
          "address": "0xa866b014136ae7ba7f92ef6d3e7f73bc6760af8d",
          "topics": [
            "0x00af8726a3679feb41b28b0996e403259aceb28ec6f3c6c3dc7a4c4fe6c8fce1"
          ],
          "data": "0x00000000000000000000000000000000000000000000000000000000000000000000000000000000000000000000000000000000000000000000000000000000",
          "blockHash": "0x03ec29f498f30f2dc24475009ecd0bd18c88202e29cd625ab2218a410caa9d7f",
          "blockNumber": "0x14452db",
          "blockTimestamp": "0x69c5506f",
          "transactionHash": "0x2f2d03ea093d283afeadee23f1fde1b0fecfc9784062ede44d32691fecd0fbfa",
          "transactionIndex": "0x1",
          "logIndex": "0xa",
          "removed": false
        },
        {
          "address": "0xa866b014136ae7ba7f92ef6d3e7f73bc6760af8d",
          "topics": [
            "0x8be0079c531659141344cd1fd0a4f28419497f9722a3daafe3b4186f6b6457e0",
            "0x0000000000000000000000007905e61021665f43fbcda375caf520e373f0475f",
            "0x0000000000000000000000002738f38fde510743e0c589415e0598c4cee6eaa7"
          ],
          "data": "0x",
          "blockHash": "0x03ec29f498f30f2dc24475009ecd0bd18c88202e29cd625ab2218a410caa9d7f",
          "blockNumber": "0x14452db",
          "blockTimestamp": "0x69c5506f",
          "transactionHash": "0x2f2d03ea093d283afeadee23f1fde1b0fecfc9784062ede44d32691fecd0fbfa",
          "transactionIndex": "0x1",
          "logIndex": "0xb",
          "removed": false
        },
        {
          "address": "0xa866b014136ae7ba7f92ef6d3e7f73bc6760af8d",
          "topics": [
            "0x7f26b83ff96e1f2b6a682f133852f6798a09c465da95921460cefb3847402498"
          ],
          "data": "0x0000000000000000000000000000000000000000000000000000000000000001",
          "blockHash": "0x03ec29f498f30f2dc24475009ecd0bd18c88202e29cd625ab2218a410caa9d7f",
          "blockNumber": "0x14452db",
          "blockTimestamp": "0x69c5506f",
          "transactionHash": "0x2f2d03ea093d283afeadee23f1fde1b0fecfc9784062ede44d32691fecd0fbfa",
          "transactionIndex": "0x1",
          "logIndex": "0xc",
          "removed": false
        },
        {
          "address": "0xa866b014136ae7ba7f92ef6d3e7f73bc6760af8d",
          "topics": [
            "0x7e644d79422f17c01e4894b5f4f588d331ebfa28653d42ae832dc59e38c9798f"
          ],
          "data": "0x000000000000000000000000000000000000000000000000000000000000000000000000000000000000000001bd47aa7b13a75c24e3da760f8a503c435bb4df",
          "blockHash": "0x03ec29f498f30f2dc24475009ecd0bd18c88202e29cd625ab2218a410caa9d7f",
          "blockNumber": "0x14452db",
          "blockTimestamp": "0x69c5506f",
          "transactionHash": "0x2f2d03ea093d283afeadee23f1fde1b0fecfc9784062ede44d32691fecd0fbfa",
          "transactionIndex": "0x1",
          "logIndex": "0xd",
          "removed": false
        },
        {
          "address": "0xba5ed099633d3b313e4d5f7bdc1305d3c28ba5ed",
          "topics": [
            "0x4db17dd5e4732fb6da34a148104a592783ca119a1e7bb8829eba6cbadef0b511",
            "0x000000000000000000000000a866b014136ae7ba7f92ef6d3e7f73bc6760af8d"
          ],
          "data": "0x",
          "blockHash": "0x03ec29f498f30f2dc24475009ecd0bd18c88202e29cd625ab2218a410caa9d7f",
          "blockNumber": "0x14452db",
          "blockTimestamp": "0x69c5506f",
          "transactionHash": "0x2f2d03ea093d283afeadee23f1fde1b0fecfc9784062ede44d32691fecd0fbfa",
          "transactionIndex": "0x1",
          "logIndex": "0xe",
          "removed": false
        },
        {
          "address": "0x353ed52bf8482027c0e0b9e3c0e5d96a9f680980",
          "topics": [
            "0xcf8e77154e470bf74e2e443ad6193730ed2a7c72279dc06aa8c12daf20c7768e",
            "0x0000000000000000000000009883d788d40f1c7595a780ed881ea833c7743b4b",
            "0x000000000000000000000000a99dc247d6b7b2e3ab48a1fee101b83cd6acd82a"
          ],
          "data": "0x000000000000000000000000a866b014136ae7ba7f92ef6d3e7f73bc6760af8d00000000000000000000000043cb9d6acf1462356303079ea4fdd8bc30042a6a",
          "blockHash": "0x03ec29f498f30f2dc24475009ecd0bd18c88202e29cd625ab2218a410caa9d7f",
          "blockNumber": "0x14452db",
          "blockTimestamp": "0x69c5506f",
          "transactionHash": "0x2f2d03ea093d283afeadee23f1fde1b0fecfc9784062ede44d32691fecd0fbfa",
          "transactionIndex": "0x1",
          "logIndex": "0xf",
          "removed": false
        }
      ],
      "logsBloom": "0x000200000200020080000080000004204000000000000000008008052000100001000000000000000004000000000010000000000408040000000000000000000020000800000008000000000200021000210400010000000060000000000000000040100200000000a0002000100800000002800120000020000000000000400000000000000000000400000000001008004000020880000004004000800010000002020044000000000000002400000000000000000000000000000010000000000820020000010200080000040018000080012400000020000000000020000000000000000200000000000000000000280080000000000000000000000000",
      "transactionHash": "0x2f2d03ea093d283afeadee23f1fde1b0fecfc9784062ede44d32691fecd0fbfa",
      "transactionIndex": "0x1",
      "blockHash": "0x03ec29f498f30f2dc24475009ecd0bd18c88202e29cd625ab2218a410caa9d7f",
      "blockNumber": "0x14452db",
      "gasUsed": "0x123cdb",
      "effectiveGasPrice": "0xba43b7401",
      "blobGasUsed": "0xf8",
      "from": "0x2738f38fde510743e0c589415e0598c4cee6eaa7",
      "to": "0x353ed52bf8482027c0e0b9e3c0e5d96a9f680980",
      "contractAddress": null
    },
    {
      "type": "0x2",
      "status": "0x1",
      "cumulativeGasUsed": "0x17d99",
      "logs": [
        {
          "address": "0x9883d788d40f1c7595a780ed881ea833c7743b4b",
          "topics": [
            "0xddf252ad1be2c89b69c2b068fc378daa952ba7f163c4a11628f55a4df523b3ef",
            "0x0000000000000000000000002738f38fde510743e0c589415e0598c4cee6eaa7",
            "0x000000000000000000000000a866b014136ae7ba7f92ef6d3e7f73bc6760af8d"
          ],
          "data": "0x0000000000000000000000000000000000000000000000000de0b6b3a7640001",
          "blockHash": "0x2404e23ed2fbe4dd7300de7890317e50db5d6668f35cfaf43d150c873ac777a7",
          "blockNumber": "0x14452de",
          "blockTimestamp": "0x69c55072",
          "transactionHash": "0xfd529fa90873bce68906b18ca50f2a09ee04d38655365955e14efe14e1b8dbe7",
          "transactionIndex": "0x1",
          "logIndex": "0x0",
          "removed": false
        }
      ],
      "logsBloom": "0x00000000000000000000000000000000200000000000000000000800000000000100000000000000000000000000000000000000000000000000000000000000002000000000000000000008000000000000000000000000000000000000008000000000000000000000000000000000000000000000000000000210000000000000000000000000000000000000000000000000000000000000000000000010000000000000000000000000002000000000000000000000000000000000000000000802000000000000000000000000000000000000000000000000000000000000000000000000000000000000000000000000000000000000000000000000",
      "transactionHash": "0xfd529fa90873bce68906b18ca50f2a09ee04d38655365955e14efe14e1b8dbe7",
      "transactionIndex": "0x1",
      "blockHash": "0x2404e23ed2fbe4dd7300de7890317e50db5d6668f35cfaf43d150c873ac777a7",
      "blockNumber": "0x14452de",
      "gasUsed": "0xc993",
      "effectiveGasPrice": "0xba43b7401",
      "blobGasUsed": "0x64",
      "from": "0x2738f38fde510743e0c589415e0598c4cee6eaa7",
      "to": "0x9883d788d40f1c7595a780ed881ea833c7743b4b",
      "contractAddress": null
    },
    {
      "type": "0x2",
      "status": "0x1",
      "cumulativeGasUsed": "0x191f5",
      "logs": [
        {
          "address": "0xa99dc247d6b7b2e3ab48a1fee101b83cd6acd82a",
          "topics": [
            "0xddf252ad1be2c89b69c2b068fc378daa952ba7f163c4a11628f55a4df523b3ef",
            "0x0000000000000000000000002738f38fde510743e0c589415e0598c4cee6eaa7",
            "0x000000000000000000000000a866b014136ae7ba7f92ef6d3e7f73bc6760af8d"
          ],
          "data": "0x0000000000000000000000000000000000000000000000000de0b6b3a7640000",
          "blockHash": "0xc37648ba847bfd21951ebef69e2d72498b7428287a1809bab3ba6412ad3b6680",
          "blockNumber": "0x14452e0",
          "blockTimestamp": "0x69c55074",
          "transactionHash": "0xa5a23bdbb51a93b890c19b6d11e6712efea6c5d199fbfe2deff5c15d886e8312",
          "transactionIndex": "0x1",
          "logIndex": "0x0",
          "removed": false
        }
      ],
      "logsBloom": "0x00000000000000000000000000000000000000000000000000000800000000000100000000000000000000001000000000000000000000000000000000000000002000000000000000000008000000000000000000000000000000000000000001000000000000000000000000000000000000000000000000000010000000000000000000000000000000000000000000000000000000000000000000000010000000000000000000000000002000000000000000000000000000000000000000000802000000000000000000000000000000000000000000000000000000000000000000000000000000000000000000000000000000020000000000000000",
      "transactionHash": "0xa5a23bdbb51a93b890c19b6d11e6712efea6c5d199fbfe2deff5c15d886e8312",
      "transactionIndex": "0x1",
      "blockHash": "0xc37648ba847bfd21951ebef69e2d72498b7428287a1809bab3ba6412ad3b6680",
      "blockNumber": "0x14452e0",
      "gasUsed": "0xddef",
      "effectiveGasPrice": "0xba43b7401",
      "blobGasUsed": "0x64",
      "from": "0x2738f38fde510743e0c589415e0598c4cee6eaa7",
      "to": "0xa99dc247d6b7b2e3ab48a1fee101b83cd6acd82a",
      "contractAddress": null
    },
    {
      "type": "0x2",
      "status": "0x1",
      "cumulativeGasUsed": "0x4fa72",
      "logs": [
        {
          "address": "0xa866b014136ae7ba7f92ef6d3e7f73bc6760af8d",
          "topics": [
            "0xddf252ad1be2c89b69c2b068fc378daa952ba7f163c4a11628f55a4df523b3ef",
            "0x0000000000000000000000000000000000000000000000000000000000000000",
            "0x0000000000000000000000000000000000000000000000000000000000000001"
          ],
          "data": "0x00000000000000000000000000000000000000000000000000000000000003e8",
          "blockHash": "0x4c84d6bfbd105aabbce49b773ee5bca89b73f6c5211b27318107d10f19e2fd68",
          "blockNumber": "0x14452e3",
          "blockTimestamp": "0x69c55077",
          "transactionHash": "0xc1e2cba8fe55ebfa16c7b2efa33cb6bffb9b921eb4a74682086bc426dbfa7a3c",
          "transactionIndex": "0x2",
          "logIndex": "0x2",
          "removed": false
        },
        {
          "address": "0xa866b014136ae7ba7f92ef6d3e7f73bc6760af8d",
          "topics": [
            "0xddf252ad1be2c89b69c2b068fc378daa952ba7f163c4a11628f55a4df523b3ef",
            "0x0000000000000000000000000000000000000000000000000000000000000000",
            "0x0000000000000000000000002738f38fde510743e0c589415e0598c4cee6eaa7"
          ],
          "data": "0x0000000000000000000000000000000000000000000000000de0b6b3a763fc18",
          "blockHash": "0x4c84d6bfbd105aabbce49b773ee5bca89b73f6c5211b27318107d10f19e2fd68",
          "blockNumber": "0x14452e3",
          "blockTimestamp": "0x69c55077",
          "transactionHash": "0xc1e2cba8fe55ebfa16c7b2efa33cb6bffb9b921eb4a74682086bc426dbfa7a3c",
          "transactionIndex": "0x2",
          "logIndex": "0x3",
          "removed": false
        },
        {
          "address": "0xa866b014136ae7ba7f92ef6d3e7f73bc6760af8d",
          "topics": [
            "0xf71a0e183fe1c86e734de92237976be5699cb46fd28373d6ace2f8eafea2857c"
          ],
          "data": "0x0000000000000000000000000000000000000000000000000de0b6b3a76400010000000000000000000000000000000000000000000000000de0b6b3a76400000000000000000000000000000000000000000000000000000000000069c55077",
          "blockHash": "0x4c84d6bfbd105aabbce49b773ee5bca89b73f6c5211b27318107d10f19e2fd68",
          "blockNumber": "0x14452e3",
          "blockTimestamp": "0x69c55077",
          "transactionHash": "0xc1e2cba8fe55ebfa16c7b2efa33cb6bffb9b921eb4a74682086bc426dbfa7a3c",
          "transactionIndex": "0x2",
          "logIndex": "0x4",
          "removed": false
        },
        {
          "address": "0xa866b014136ae7ba7f92ef6d3e7f73bc6760af8d",
          "topics": [
            "0xa8137fff86647d8a402117b9c5dbda627f721d3773338fb9678c83e54ed39080",
            "0x0000000000000000000000002738f38fde510743e0c589415e0598c4cee6eaa7",
            "0x0000000000000000000000002738f38fde510743e0c589415e0598c4cee6eaa7"
          ],
          "data": "0x0000000000000000000000000000000000000000000000000de0b6b3a76400010000000000000000000000000000000000000000000000000de0b6b3a76400000000000000000000000000000000000000000000000000000de0b6b3a763fc18",
          "blockHash": "0x4c84d6bfbd105aabbce49b773ee5bca89b73f6c5211b27318107d10f19e2fd68",
          "blockNumber": "0x14452e3",
          "blockTimestamp": "0x69c55077",
          "transactionHash": "0xc1e2cba8fe55ebfa16c7b2efa33cb6bffb9b921eb4a74682086bc426dbfa7a3c",
          "transactionIndex": "0x2",
          "logIndex": "0x5",
          "removed": false
        }
      ],
      "logsBloom": "0x00000000200000000000000000000000000000000000000000000000000000000000000000000000000000000000000000000000080000000000000000040000002000000100000000000008000000000000000000040000000000000000000000000000020000000000002000000800000000000000000000000010000000000000000000000000000000000000001000000000000000000000000000000010000000000000000000000000000000400000000000000000000000000000400000000802000000010000000000000000000000000000000000000000000060000000000000000000000000000000000000000000000000000000000000000000",
      "transactionHash": "0xc1e2cba8fe55ebfa16c7b2efa33cb6bffb9b921eb4a74682086bc426dbfa7a3c",
      "transactionIndex": "0x2",
      "blockHash": "0x4c84d6bfbd105aabbce49b773ee5bca89b73f6c5211b27318107d10f19e2fd68",
      "blockNumber": "0x14452e3",
      "gasUsed": "0x35185",
      "effectiveGasPrice": "0xba43b7401",
      "blobGasUsed": "0x64",
      "from": "0x2738f38fde510743e0c589415e0598c4cee6eaa7",
      "to": "0xa866b014136ae7ba7f92ef6d3e7f73bc6760af8d",
      "contractAddress": null
    },
    {
      "type": "0x2",
      "status": "0x1",
      "cumulativeGasUsed": "0x1b5e4",
      "logs": [
        {
          "address": "0xa866b014136ae7ba7f92ef6d3e7f73bc6760af8d",
          "topics": [
            "0x0a59d45890c37e353ebb4ff4a00b4e5002b27b21e3a308daea7646097c12533f",
            "0x0000000000000000000000009883d788d40f1c7595a780ed881ea833c7743b4b"
          ],
          "data": "0x0000000000000000000000000000000000000000000000056bc75e2d6310000000000000000000000000000000000000000000000000001b1ae4d6e2ef5000000000000000000000000000000000000000000000000000000000000000000012",
          "blockHash": "0x06dbd2a4bcc990796953ca69d47958caeed947c1bd74b2afbc54a56d4f328ae2",
          "blockNumber": "0x14452e6",
          "blockTimestamp": "0x69c5507a",
          "transactionHash": "0x328b5343b8295c644b84edfd08c54704af444ff8cc4f8c7cff6227b06fcc5fb0",
          "transactionIndex": "0x1",
          "logIndex": "0x0",
          "removed": false
        }
      ],
      "logsBloom": "0x00000000020000000000000000000000000000000000000004000000000000000000000000000000000000000000000000000000000000000000000100000000000000000000000000000000000000000000000000000000000000000000000000000000000000000000002000000000000002000000000000000000000000000000000000000000000000000000001000000000000000000000000000000000000000000000000000000000000000000000000000000000000000000000000000000000000000010000000000000000000080000000000000000000010000000000000000000000000000000000000000000000000000000000000000000000",
      "transactionHash": "0x328b5343b8295c644b84edfd08c54704af444ff8cc4f8c7cff6227b06fcc5fb0",
      "transactionIndex": "0x1",
      "blockHash": "0x06dbd2a4bcc990796953ca69d47958caeed947c1bd74b2afbc54a56d4f328ae2",
      "blockNumber": "0x14452e6",
      "gasUsed": "0x101de",
      "effectiveGasPrice": "0xba43b7401",
      "blobGasUsed": "0x6a",
      "from": "0x2738f38fde510743e0c589415e0598c4cee6eaa7",
      "to": "0xa866b014136ae7ba7f92ef6d3e7f73bc6760af8d",
      "contractAddress": null
    },
    {
      "type": "0x2",
      "status": "0x1",
      "cumulativeGasUsed": "0x1d36b",
      "logs": [
        {
          "address": "0xa866b014136ae7ba7f92ef6d3e7f73bc6760af8d",
          "topics": [
            "0x0a59d45890c37e353ebb4ff4a00b4e5002b27b21e3a308daea7646097c12533f",
            "0x000000000000000000000000a99dc247d6b7b2e3ab48a1fee101b83cd6acd82a"
          ],
          "data": "0x0000000000000000000000000000000000000000000000056bc75e2d6310000000000000000000000000000000000000000000000000001b1ae4d6e2ef5000000000000000000000000000000000000000000000000000000000000000000012",
          "blockHash": "0x467ec7224b9e10f92bdf1304e89997ebc386bf5ab02571201945b91be11dfbe8",
          "blockNumber": "0x14452e8",
          "blockTimestamp": "0x69c5507c",
          "transactionHash": "0xcf8a1ea90c3681c58831d92ca61a0a1949dc39b704b3412f5b8ca43dde4b2350",
          "transactionIndex": "0x1",
          "logIndex": "0x0",
          "removed": false
        }
      ],
      "logsBloom": "0x00000000000000000000000000000000000000000000000004000000000000000000000000000000000000000000000000000000000000000000000100000000000000000000000000000000000000100000000000000000000000000000000000000000000000000000002000000000000000000000000020000000000000000000000000000000000000000000001000000000000000000000000000000000000000000000000000000000000000000000000000000000000000000000000000000000000000010000000000000000000000000000000000000000010000000000000000000000000000000000000000200000000000000000000000000000",
      "transactionHash": "0xcf8a1ea90c3681c58831d92ca61a0a1949dc39b704b3412f5b8ca43dde4b2350",
      "transactionIndex": "0x1",
      "blockHash": "0x467ec7224b9e10f92bdf1304e89997ebc386bf5ab02571201945b91be11dfbe8",
      "blockNumber": "0x14452e8",
      "gasUsed": "0x11f65",
      "effectiveGasPrice": "0xba43b7401",
      "blobGasUsed": "0x6a",
      "from": "0x2738f38fde510743e0c589415e0598c4cee6eaa7",
      "to": "0xa866b014136ae7ba7f92ef6d3e7f73bc6760af8d",
      "contractAddress": null
    },
    {
      "type": "0x2",
      "status": "0x1",
      "cumulativeGasUsed": "0x1ebd8",
      "logs": [
        {
          "address": "0xbcdc1d0b92dfceeaa0fcd0a0d53355f4bf1db8a7",
          "topics": [
            "0x177acde39223f473628b69da4bf70587e58c441e053c73d5c52a5741815e51a4",
            "0x000000000000000000000000a99dc247d6b7b2e3ab48a1fee101b83cd6acd82a"
          ],
          "data": "0x",
          "blockHash": "0x2bd6ac26790dd381dd10c688c9c265b7c97df12cfa471c5aab500cf2fb0335d1",
          "blockNumber": "0x14452eb",
          "blockTimestamp": "0x69c5507f",
          "transactionHash": "0x7368bd13e01447864308cb9cb736854dae299a4e3ff0ce3e4f4544afed09aa8d",
          "transactionIndex": "0x1",
          "logIndex": "0x0",
          "removed": false
        }
      ],
      "logsBloom": "0x00000000000000000000000000000000000000000000000000000000000000000000000000000000000000000000000000000000200000000000000000000000000000000000000000000000000000100000000000000000000000000000000000020000000000000000000000000000000000000000000020000200000000000000000100000000000000000000000000000000000000000000000000200000000000000000000000000000000000000000000000000000000000000000000000000000000000000000000040000000000000000000000000000000000000000000000000000000000000000000000000200000000000000000000000000000",
      "transactionHash": "0x7368bd13e01447864308cb9cb736854dae299a4e3ff0ce3e4f4544afed09aa8d",
      "transactionIndex": "0x1",
      "blockHash": "0x2bd6ac26790dd381dd10c688c9c265b7c97df12cfa471c5aab500cf2fb0335d1",
      "blockNumber": "0x14452eb",
      "gasUsed": "0x137d2",
      "effectiveGasPrice": "0xba43b7401",
      "blobGasUsed": "0x64",
      "from": "0x2738f38fde510743e0c589415e0598c4cee6eaa7",
      "to": "0xbcdc1d0b92dfceeaa0fcd0a0d53355f4bf1db8a7",
      "contractAddress": null
    },
    {
      "type": "0x2",
      "status": "0x1",
      "cumulativeGasUsed": "0x1ec1c",
      "logs": [
        {
          "address": "0xbcdc1d0b92dfceeaa0fcd0a0d53355f4bf1db8a7",
          "topics": [
            "0x52cceb71b4b81514c72f2311183885dd3a70cca83e7811fa08e9b9937047109d",
            "0x0000000000000000000000009883d788d40f1c7595a780ed881ea833c7743b4b"
          ],
          "data": "0x",
          "blockHash": "0x845338f59a1827523bddc021fa3e86d45a23a8d8ba60e036a799ee116901c332",
          "blockNumber": "0x14452ed",
          "blockTimestamp": "0x69c55081",
          "transactionHash": "0x5ae42c93201dbc549348f073a50e96684de10b1ddd9c6ab4b85fe6d7bc15481a",
          "transactionIndex": "0x1",
          "logIndex": "0x0",
          "removed": false
        }
      ],
      "logsBloom": "0x00000000024000000000000000000000000000000000000000000000000000000000000000000000000000000000000000000000000000000000000000000000000000000000000000000000000000000000000000000000000000000000000000000000000000000000000000000000000002000000000000000200000000000000000100000000000000000000000000000000000000000000000000000000000000000000080000000000000000000000000000000000000000000000000000000000000000000000000040000800000080000000000000000000000000000000000000000000000000000000000000000000000000000000000000000000",
      "transactionHash": "0x5ae42c93201dbc549348f073a50e96684de10b1ddd9c6ab4b85fe6d7bc15481a",
      "transactionIndex": "0x1",
      "blockHash": "0x845338f59a1827523bddc021fa3e86d45a23a8d8ba60e036a799ee116901c332",
      "blockNumber": "0x14452ed",
      "gasUsed": "0x13816",
      "effectiveGasPrice": "0xba43b7401",
      "blobGasUsed": "0x64",
      "from": "0x2738f38fde510743e0c589415e0598c4cee6eaa7",
      "to": "0xbcdc1d0b92dfceeaa0fcd0a0d53355f4bf1db8a7",
      "contractAddress": null
    },
    {
      "type": "0x2",
      "status": "0x1",
      "cumulativeGasUsed": "0x18b53",
      "logs": [
        {
          "address": "0xa866b014136ae7ba7f92ef6d3e7f73bc6760af8d",
          "topics": [
            "0x133037347700fe9a7e5fffb139c832853fc52536035550fc6bc3b3f6207fd875",
            "0x000000000000000000000000734bb3251ec3f1a83f8f2a8609bcef649d54ebf8"
          ],
          "data": "0x0000000000000000000000000000000000000000000000000000000000000001",
          "blockHash": "0x1f140f45a84c9631281f5bad2063fcfc0e98658ba7b718f682a342567569856a",
          "blockNumber": "0x14452ef",
          "blockTimestamp": "0x69c55083",
          "transactionHash": "0x51ba26058931a0669564dd260505e20f6d58dcddf9e496f077435cdedfb1b1d4",
          "transactionIndex": "0x1",
          "logIndex": "0x0",
          "removed": false
        }
      ],
      "logsBloom": "0x00000000000000000000000000000000000000000000000000000000000200000000000000000000000000000000000000000000000008000000000000000000000000000000000000000000000000000000000000008000000000000000000000000000000000000000002000000000000000000000000000000000000000000000000000000000000000000000001000000000000000000000000000000000000000000000000000000000000000000000000000000000000000010000000000000000000000010000000000000000000000000000000000000000000000800001000000000000000000000000000000000000000000000000000000000000",
      "transactionHash": "0x51ba26058931a0669564dd260505e20f6d58dcddf9e496f077435cdedfb1b1d4",
      "transactionIndex": "0x1",
      "blockHash": "0x1f140f45a84c9631281f5bad2063fcfc0e98658ba7b718f682a342567569856a",
      "blockNumber": "0x14452ef",
      "gasUsed": "0xd74d",
      "effectiveGasPrice": "0xba43b7401",
      "blobGasUsed": "0x64",
      "from": "0x2738f38fde510743e0c589415e0598c4cee6eaa7",
      "to": "0xa866b014136ae7ba7f92ef6d3e7f73bc6760af8d",
      "contractAddress": null
    },
    {
      "type": "0x2",
      "status": "0x1",
      "cumulativeGasUsed": "0x81b9c",
      "logs": [
        {
          "address": "0x734bb3251ec3f1a83f8f2a8609bcef649d54ebf8",
          "topics": [
            "0x5865b763d2fcaa2023d34f5622fec93cfc34b82e8625c1e622b9a6cb47a69239",
            "0x000000000000000000000000a866b014136ae7ba7f92ef6d3e7f73bc6760af8d"
          ],
          "data": "0x000000000000000000000000a866b014136ae7ba7f92ef6d3e7f73bc6760af8d000000000000000000000000a99dc247d6b7b2e3ab48a1fee101b83cd6acd82a000000000000000000000000000000000000000000000000000000000000012c0000000000000000000000002738f38fde510743e0c589415e0598c4cee6eaa70000000000000000000000000000000000000000000000000000000000000000000000000000000000000000000000000000000000000000000000000000000000000000000000000000000000000000000000000000000000000000000000000000000000000000000000000000000000000000000000000000000000000000",
          "blockHash": "0x50884fa982f43f52770c8c81c15d9ce1ad7616dab93978e789c577b9c32b2585",
          "blockNumber": "0x14452f1",
          "blockTimestamp": "0x69c55085",
          "transactionHash": "0xe944c734882c2decf72f663d622a2485f3137488b4696f510f0523bfbef5b452",
          "transactionIndex": "0x3",
          "logIndex": "0x4",
          "removed": false
        }
      ],
      "logsBloom": "0x00000000000000000000000000000000000400000000000000000800000000000100000000200000000000000000000000000000000000000000000000000000000000000000000000000000001000000000000000000000000080000000000000000000000000000000000000000000000000000000000000000000000000000000000000000000000000000000000000000000000000000000000000000000000000000000000000000000002000000000000000000000000000000000000000000000000000000000000000000000000000000000002000000000000000000100000000000000000000000000000000000000000000000000000000000000",
      "transactionHash": "0xe944c734882c2decf72f663d622a2485f3137488b4696f510f0523bfbef5b452",
      "transactionIndex": "0x3",
      "blockHash": "0x50884fa982f43f52770c8c81c15d9ce1ad7616dab93978e789c577b9c32b2585",
      "blockNumber": "0x14452f1",
      "gasUsed": "0x1f8ea",
      "effectiveGasPrice": "0xba43b7401",
      "blobGasUsed": "0x86",
      "from": "0x2738f38fde510743e0c589415e0598c4cee6eaa7",
      "to": "0x734bb3251ec3f1a83f8f2a8609bcef649d54ebf8",
      "contractAddress": null
    },
    {
      "type": "0x2",
      "status": "0x1",
      "cumulativeGasUsed": "0x106274",
      "logs": [
        {
          "address": "0xa99dc247d6b7b2e3ab48a1fee101b83cd6acd82a",
          "topics": [
            "0xb21afb9ce9be0a676f8f317ff0ca072fb89a4f8ce2d1b6fe80f8755c14f1cb19",
            "0x000000000000000000000000734bb3251ec3f1a83f8f2a8609bcef649d54ebf8"
          ],
          "data": "0x0000000000000000000000000000000000000000000000000000000000000001",
          "blockHash": "0xb6fe23a2dc61a338f3d25677566851f4493b979a3beb1cb765bcf50bbaa797a6",
          "blockNumber": "0x14452f4",
          "blockTimestamp": "0x69c55088",
          "transactionHash": "0xdd482e235a630991a2bea1a37816ef40f4cb46f29b6b5eab8ac7bf2855cda7ff",
          "transactionIndex": "0x6",
          "logIndex": "0x9",
          "removed": false
        }
      ],
      "logsBloom": "0x00000000000000000000000000000000000000000000000000000000000200000000000000000000000000001000000000000000000000040000000000000080000000000000000000000000000000000000000000008000000000000000000001000000000000000000000000000000000000000000000000000000000000000000000000000000000000000000000000000000000000000000200000000000000000000000000000000000000000000000000000000000000000010000000000000000000000000000000000000000000000000000000000000000000000000000000000000000000000000000000000000000000000020000000000000000",
      "transactionHash": "0xdd482e235a630991a2bea1a37816ef40f4cb46f29b6b5eab8ac7bf2855cda7ff",
      "transactionIndex": "0x6",
      "blockHash": "0xb6fe23a2dc61a338f3d25677566851f4493b979a3beb1cb765bcf50bbaa797a6",
      "blockNumber": "0x14452f4",
      "gasUsed": "0xcfc3",
      "effectiveGasPrice": "0xba43b7401",
      "blobGasUsed": "0x64",
      "from": "0x2738f38fde510743e0c589415e0598c4cee6eaa7",
      "to": "0xa99dc247d6b7b2e3ab48a1fee101b83cd6acd82a",
      "contractAddress": null
    },
    {
      "type": "0x2",
      "status": "0x1",
      "cumulativeGasUsed": "0xfc77a",
      "logs": [
        {
          "address": "0xa99dc247d6b7b2e3ab48a1fee101b83cd6acd82a",
          "topics": [
            "0xf0e5abe4ab32ea692e3889b4c146fd4ddae5f17bb40ab4feba97fb67a2d4de0f",
            "0x000000000000000000000000734bb3251ec3f1a83f8f2a8609bcef649d54ebf8"
          ],
          "data": "0x0000000000000000000000000000000000000000000000000000000000000001",
          "blockHash": "0x2495ad542a167e49233a15d8102f1bc06c9b43608d4c8902828381990183c8d1",
          "blockNumber": "0x14452f6",
          "blockTimestamp": "0x69c5508a",
          "transactionHash": "0x090afcf322709a3d63a4db40e3d32deeaa83288c86234fc04a7a6fa11941a068",
          "transactionIndex": "0x6",
          "logIndex": "0xa",
          "removed": false
        }
      ],
      "logsBloom": "0x00000000000000000000000000000000000000000000000000000000000200000000000000000000000000001000000000000000040000000000000000000000100000000000000000000000000000000000000020008000000000000000000001000000000000000000000000000000000000000000000000000000000000000000000000000000000000000000000000000000000000000000000000000000000000000000000000000000000000000000000000000000000000010000000000000000000000000000000000000000000000000000000000000000000000000000000000000000000000000000000000000000000000020000000000000000",
      "transactionHash": "0x090afcf322709a3d63a4db40e3d32deeaa83288c86234fc04a7a6fa11941a068",
      "transactionIndex": "0x6",
      "blockHash": "0x2495ad542a167e49233a15d8102f1bc06c9b43608d4c8902828381990183c8d1",
      "blockNumber": "0x14452f6",
      "gasUsed": "0xcfe7",
      "effectiveGasPrice": "0xba43b7401",
      "blobGasUsed": "0x64",
      "from": "0x2738f38fde510743e0c589415e0598c4cee6eaa7",
      "to": "0xa99dc247d6b7b2e3ab48a1fee101b83cd6acd82a",
      "contractAddress": null
    },
    {
      "type": "0x2",
      "status": "0x1",
      "cumulativeGasUsed": "0x1b5c71",
      "logs": [
        {
          "address": "0xba5ed099633d3b313e4d5f7bdc1305d3c28ba5ed",
          "topics": [
            "0x2feea65dd4e9f9cbd86b74b7734210c59a1b2981b5b137bd0ee3e208200c9067",
            "0x000000000000000000000000ddd0800dfd2adba86adba43e1300a8377ec3936d",
            "0x995f13da8986ef2b474a70cab003404961c8cfa95e74ad71ea1493a571a2e941"
          ],
          "data": "0x",
          "blockHash": "0xd3920a72cb973568b7be1d9f41c3bc63118aa3d881a6c6f844aca21a0b6ca54d",
          "blockNumber": "0x14452f9",
          "blockTimestamp": "0x69c5508d",
          "transactionHash": "0x1b814c6d39e1086c0d0306534c991e86153c6320b395fedebf9253380ce36555",
          "transactionIndex": "0x4",
          "logIndex": "0x6",
          "removed": false
        },
        {
          "address": "0x3a58acdd4627478581960f366ff411e11349fcb3",
          "topics": [
            "0xbc7cd75a20ee27fd9adebab32041f755214dbc6bffa90cc0225b39da2e5c2d3b",
            "0x00000000000000000000000043cb9d6acf1462356303079ea4fdd8bc30042a6a"
          ],
          "data": "0x",
          "blockHash": "0xd3920a72cb973568b7be1d9f41c3bc63118aa3d881a6c6f844aca21a0b6ca54d",
          "blockNumber": "0x14452f9",
          "blockTimestamp": "0x69c5508d",
          "transactionHash": "0x1b814c6d39e1086c0d0306534c991e86153c6320b395fedebf9253380ce36555",
          "transactionIndex": "0x4",
          "logIndex": "0x7",
          "removed": false
        },
        {
          "address": "0x3a58acdd4627478581960f366ff411e11349fcb3",
          "topics": [
            "0x8be0079c531659141344cd1fd0a4f28419497f9722a3daafe3b4186f6b6457e0",
            "0x0000000000000000000000000000000000000000000000000000000000000000",
            "0x000000000000000000000000ddd0800dfd2adba86adba43e1300a8377ec3936d"
          ],
          "data": "0x",
          "blockHash": "0xd3920a72cb973568b7be1d9f41c3bc63118aa3d881a6c6f844aca21a0b6ca54d",
          "blockNumber": "0x14452f9",
          "blockTimestamp": "0x69c5508d",
          "transactionHash": "0x1b814c6d39e1086c0d0306534c991e86153c6320b395fedebf9253380ce36555",
          "transactionIndex": "0x4",
          "logIndex": "0x8",
          "removed": false
        },
        {
          "address": "0x3a58acdd4627478581960f366ff411e11349fcb3",
          "topics": [
            "0xb5d5dda8af4f1e40a5cc4aa66c39ca5aac7f90947261313b07527eb3bdd98bc7"
          ],
          "data": "0x0000000000000000000000000000000000000000000000000000000000000000000000000000000000000000000000000000000000000000000000000000000f",
          "blockHash": "0xd3920a72cb973568b7be1d9f41c3bc63118aa3d881a6c6f844aca21a0b6ca54d",
          "blockNumber": "0x14452f9",
          "blockTimestamp": "0x69c5508d",
          "transactionHash": "0x1b814c6d39e1086c0d0306534c991e86153c6320b395fedebf9253380ce36555",
          "transactionIndex": "0x4",
          "logIndex": "0x9",
          "removed": false
        },
        {
          "address": "0x3a58acdd4627478581960f366ff411e11349fcb3",
          "topics": [
            "0xd3890fc76afcfc31cba1dcf2c27b50e2541e4d75039c981855b5b5e03682aea0",
            "0x0000000000000000000000000000000000000000000000000000000000000000",
            "0x0000000000000000000000002738f38fde510743e0c589415e0598c4cee6eaa7"
          ],
          "data": "0x",
          "blockHash": "0xd3920a72cb973568b7be1d9f41c3bc63118aa3d881a6c6f844aca21a0b6ca54d",
          "blockNumber": "0x14452f9",
          "blockTimestamp": "0x69c5508d",
          "transactionHash": "0x1b814c6d39e1086c0d0306534c991e86153c6320b395fedebf9253380ce36555",
          "transactionIndex": "0x4",
          "logIndex": "0xa",
          "removed": false
        },
        {
          "address": "0x3a58acdd4627478581960f366ff411e11349fcb3",
          "topics": [
            "0xb404cac19fb1cbeff98d325795b08886e3cd8fe8cb1a2f193aac66f13fb239c3"
          ],
          "data": "0x0000000000000000000000000000000000000000000000000000000000000000000000000000000000000000000000000000000000000000000000000000000a",
          "blockHash": "0xd3920a72cb973568b7be1d9f41c3bc63118aa3d881a6c6f844aca21a0b6ca54d",
          "blockNumber": "0x14452f9",
          "blockTimestamp": "0x69c5508d",
          "transactionHash": "0x1b814c6d39e1086c0d0306534c991e86153c6320b395fedebf9253380ce36555",
          "transactionIndex": "0x4",
          "logIndex": "0xb",
          "removed": false
        },
        {
          "address": "0x3a58acdd4627478581960f366ff411e11349fcb3",
          "topics": [
            "0xb273226859e3e49fd86c9ac8f721eaa74e677de0877db704918e0f43ec8d23bc"
          ],
          "data": "0x00000000000000000000000000000000000000000000000000000000000000000000000000000000000000000000000000000000000000000000000000000006",
          "blockHash": "0xd3920a72cb973568b7be1d9f41c3bc63118aa3d881a6c6f844aca21a0b6ca54d",
          "blockNumber": "0x14452f9",
          "blockTimestamp": "0x69c5508d",
          "transactionHash": "0x1b814c6d39e1086c0d0306534c991e86153c6320b395fedebf9253380ce36555",
          "transactionIndex": "0x4",
          "logIndex": "0xc",
          "removed": false
        },
        {
          "address": "0x3a58acdd4627478581960f366ff411e11349fcb3",
          "topics": [
            "0x77c5ddba87b3d3f970242eda9bb1263ade9e4aed3eca233d5fa1af00a574b025"
          ],
          "data": "0x0000000000000000000000000000000000000000000000000000000000000000000000000000000000000000000000000000000000000000000000000000000000000000000000000000000000000000000000000000000000000000000013880000000000000000000000000000000000000000000000000000000000000d05",
          "blockHash": "0xd3920a72cb973568b7be1d9f41c3bc63118aa3d881a6c6f844aca21a0b6ca54d",
          "blockNumber": "0x14452f9",
          "blockTimestamp": "0x69c5508d",
          "transactionHash": "0x1b814c6d39e1086c0d0306534c991e86153c6320b395fedebf9253380ce36555",
          "transactionIndex": "0x4",
          "logIndex": "0xd",
          "removed": false
        },
        {
          "address": "0x3a58acdd4627478581960f366ff411e11349fcb3",
          "topics": [
            "0xe4630e6e66d263636ccf946c97182b0edb7bbea539a79dfa121bab7444e83b79",
            "0x0000000000000000000000000000000000000000000000000000000000000000",
            "0x00000000000000000000000026eff54e2f0e8825996b83119b7df5ef2c882dd7"
          ],
          "data": "0x",
          "blockHash": "0xd3920a72cb973568b7be1d9f41c3bc63118aa3d881a6c6f844aca21a0b6ca54d",
          "blockNumber": "0x14452f9",
          "blockTimestamp": "0x69c5508d",
          "transactionHash": "0x1b814c6d39e1086c0d0306534c991e86153c6320b395fedebf9253380ce36555",
          "transactionIndex": "0x4",
          "logIndex": "0xe",
          "removed": false
        },
        {
          "address": "0x3a58acdd4627478581960f366ff411e11349fcb3",
          "topics": [
            "0xc1ba25a60afffd747fd25304e169131b7ae93932f7f3e508a8cec0e18fa12842",
            "0x0000000000000000000000000000000000000000000000000000000000000000",
            "0x0000000000000000000000005d5a22116233bdb2a9c2977279cc348b8b8ce917"
          ],
          "data": "0x",
          "blockHash": "0xd3920a72cb973568b7be1d9f41c3bc63118aa3d881a6c6f844aca21a0b6ca54d",
          "blockNumber": "0x14452f9",
          "blockTimestamp": "0x69c5508d",
          "transactionHash": "0x1b814c6d39e1086c0d0306534c991e86153c6320b395fedebf9253380ce36555",
          "transactionIndex": "0x4",
          "logIndex": "0xf",
          "removed": false
        },
        {
          "address": "0x3a58acdd4627478581960f366ff411e11349fcb3",
          "topics": [
            "0x00af8726a3679feb41b28b0996e403259aceb28ec6f3c6c3dc7a4c4fe6c8fce1"
          ],
          "data": "0x00000000000000000000000000000000000000000000000000000000000000000000000000000000000000000000000000000000000000000000000000000000",
          "blockHash": "0xd3920a72cb973568b7be1d9f41c3bc63118aa3d881a6c6f844aca21a0b6ca54d",
          "blockNumber": "0x14452f9",
          "blockTimestamp": "0x69c5508d",
          "transactionHash": "0x1b814c6d39e1086c0d0306534c991e86153c6320b395fedebf9253380ce36555",
          "transactionIndex": "0x4",
          "logIndex": "0x10",
          "removed": false
        },
        {
          "address": "0x3a58acdd4627478581960f366ff411e11349fcb3",
          "topics": [
            "0x8be0079c531659141344cd1fd0a4f28419497f9722a3daafe3b4186f6b6457e0",
            "0x000000000000000000000000ddd0800dfd2adba86adba43e1300a8377ec3936d",
            "0x0000000000000000000000002738f38fde510743e0c589415e0598c4cee6eaa7"
          ],
          "data": "0x",
          "blockHash": "0xd3920a72cb973568b7be1d9f41c3bc63118aa3d881a6c6f844aca21a0b6ca54d",
          "blockNumber": "0x14452f9",
          "blockTimestamp": "0x69c5508d",
          "transactionHash": "0x1b814c6d39e1086c0d0306534c991e86153c6320b395fedebf9253380ce36555",
          "transactionIndex": "0x4",
          "logIndex": "0x11",
          "removed": false
        },
        {
          "address": "0x3a58acdd4627478581960f366ff411e11349fcb3",
          "topics": [
            "0x7f26b83ff96e1f2b6a682f133852f6798a09c465da95921460cefb3847402498"
          ],
          "data": "0x0000000000000000000000000000000000000000000000000000000000000001",
          "blockHash": "0xd3920a72cb973568b7be1d9f41c3bc63118aa3d881a6c6f844aca21a0b6ca54d",
          "blockNumber": "0x14452f9",
          "blockTimestamp": "0x69c5508d",
          "transactionHash": "0x1b814c6d39e1086c0d0306534c991e86153c6320b395fedebf9253380ce36555",
          "transactionIndex": "0x4",
          "logIndex": "0x12",
          "removed": false
        },
        {
          "address": "0x3a58acdd4627478581960f366ff411e11349fcb3",
          "topics": [
            "0x7e644d79422f17c01e4894b5f4f588d331ebfa28653d42ae832dc59e38c9798f"
          ],
          "data": "0x000000000000000000000000000000000000000000000000000000000000000000000000000000000000000001bd47aa7b13a75c24e3da760f8a503c435bb4df",
          "blockHash": "0xd3920a72cb973568b7be1d9f41c3bc63118aa3d881a6c6f844aca21a0b6ca54d",
          "blockNumber": "0x14452f9",
          "blockTimestamp": "0x69c5508d",
          "transactionHash": "0x1b814c6d39e1086c0d0306534c991e86153c6320b395fedebf9253380ce36555",
          "transactionIndex": "0x4",
          "logIndex": "0x13",
          "removed": false
        },
        {
          "address": "0xba5ed099633d3b313e4d5f7bdc1305d3c28ba5ed",
          "topics": [
            "0x4db17dd5e4732fb6da34a148104a592783ca119a1e7bb8829eba6cbadef0b511",
            "0x0000000000000000000000003a58acdd4627478581960f366ff411e11349fcb3"
          ],
          "data": "0x",
          "blockHash": "0xd3920a72cb973568b7be1d9f41c3bc63118aa3d881a6c6f844aca21a0b6ca54d",
          "blockNumber": "0x14452f9",
          "blockTimestamp": "0x69c5508d",
          "transactionHash": "0x1b814c6d39e1086c0d0306534c991e86153c6320b395fedebf9253380ce36555",
          "transactionIndex": "0x4",
          "logIndex": "0x14",
          "removed": false
        },
        {
          "address": "0x353ed52bf8482027c0e0b9e3c0e5d96a9f680980",
          "topics": [
            "0xcf8e77154e470bf74e2e443ad6193730ed2a7c72279dc06aa8c12daf20c7768e",
            "0x000000000000000000000000a99dc247d6b7b2e3ab48a1fee101b83cd6acd82a",
            "0x000000000000000000000000de9e4c3ce781b4ba68120d6261cbad65ce0ab00b"
          ],
          "data": "0x0000000000000000000000003a58acdd4627478581960f366ff411e11349fcb300000000000000000000000043cb9d6acf1462356303079ea4fdd8bc30042a6a",
          "blockHash": "0xd3920a72cb973568b7be1d9f41c3bc63118aa3d881a6c6f844aca21a0b6ca54d",
          "blockNumber": "0x14452f9",
          "blockTimestamp": "0x69c5508d",
          "transactionHash": "0x1b814c6d39e1086c0d0306534c991e86153c6320b395fedebf9253380ce36555",
          "transactionIndex": "0x4",
          "logIndex": "0x15",
          "removed": false
        }
      ],
      "logsBloom": "0x000200000000020000000080000004204000010000000000009000012000100001000102000000000004000000000010200000000008040000000000000000000020000000000000010000000200421000010400040000000060000040000000000040100200020000000000001008000000008101220000200000000000004000000000000000000004000000000000080000080a0880000004004000800410000002020044000000000000000400000000000000000004000000000010000000000820020000000200080000040010000000012400000020000000000024000000000000000201000000000000000000280280000000000000000000000000",
      "transactionHash": "0x1b814c6d39e1086c0d0306534c991e86153c6320b395fedebf9253380ce36555",
      "transactionIndex": "0x4",
      "blockHash": "0xd3920a72cb973568b7be1d9f41c3bc63118aa3d881a6c6f844aca21a0b6ca54d",
      "blockNumber": "0x14452f9",
      "gasUsed": "0x11f970",
      "effectiveGasPrice": "0xba43b7401",
      "blobGasUsed": "0xf8",
      "from": "0x2738f38fde510743e0c589415e0598c4cee6eaa7",
      "to": "0x353ed52bf8482027c0e0b9e3c0e5d96a9f680980",
      "contractAddress": null
    },
    {
      "type": "0x2",
      "status": "0x1",
      "cumulativeGasUsed": "0x1920d",
      "logs": [
        {
          "address": "0xa99dc247d6b7b2e3ab48a1fee101b83cd6acd82a",
          "topics": [
            "0xddf252ad1be2c89b69c2b068fc378daa952ba7f163c4a11628f55a4df523b3ef",
            "0x0000000000000000000000002738f38fde510743e0c589415e0598c4cee6eaa7",
            "0x0000000000000000000000003a58acdd4627478581960f366ff411e11349fcb3"
          ],
          "data": "0x0000000000000000000000000000000000000000000000000c058c478a6828a6",
          "blockHash": "0x383034996e77b5ae2abe351e794ee032e61bf04914814e328cd07bcdbab05d6c",
          "blockNumber": "0x14452fb",
          "blockTimestamp": "0x69c5508f",
          "transactionHash": "0x8ba618d1754c6360a09b042741f7b1bc8693115988b9e2f9648652ffed191d78",
          "transactionIndex": "0x1",
          "logIndex": "0x0",
          "removed": false
        }
      ],
      "logsBloom": "0x00000000000000000000000000000000000001000000000000000000000000000000000000000000000000001000000020000000000000000000000000000000002000000000000000000008000000000000000000000000000000000000000001000000000000000000000000000000000000000000000000000010000000000000000000000000000000000000000000000008000000000000000000000010000000000000000000000000000000000000000000000000000000000000000000000802000000000000000000000000000000000000000000000000000000000000000000000000000000000000000000000000000000020000000000000000",
      "transactionHash": "0x8ba618d1754c6360a09b042741f7b1bc8693115988b9e2f9648652ffed191d78",
      "transactionIndex": "0x1",
      "blockHash": "0x383034996e77b5ae2abe351e794ee032e61bf04914814e328cd07bcdbab05d6c",
      "blockNumber": "0x14452fb",
      "gasUsed": "0xde07",
      "effectiveGasPrice": "0xba43b7401",
      "blobGasUsed": "0x64",
      "from": "0x2738f38fde510743e0c589415e0598c4cee6eaa7",
      "to": "0xa99dc247d6b7b2e3ab48a1fee101b83cd6acd82a",
      "contractAddress": null
    },
    {
      "type": "0x2",
      "status": "0x1",
      "cumulativeGasUsed": "0x191f5",
      "logs": [
        {
          "address": "0xde9e4c3ce781b4ba68120d6261cbad65ce0ab00b",
          "topics": [
            "0xddf252ad1be2c89b69c2b068fc378daa952ba7f163c4a11628f55a4df523b3ef",
            "0x0000000000000000000000002738f38fde510743e0c589415e0598c4cee6eaa7",
            "0x0000000000000000000000003a58acdd4627478581960f366ff411e11349fcb3"
          ],
          "data": "0x0000000000000000000000000000000000000000000000000de0b6b3a7640000",
          "blockHash": "0x81c4fff51a83ed0ef642aaa2505285afe56adb091f806c82750af119187dbdc6",
          "blockNumber": "0x14452fe",
          "blockTimestamp": "0x69c55092",
          "transactionHash": "0x82acdd27bed10fb5e8fa27c1dfb74760055506b4c2591957c52926132369b27a",
          "transactionIndex": "0x1",
          "logIndex": "0x0",
          "removed": false
        }
      ],
      "logsBloom": "0x00000000000000000000000000000000000001000000000000000000000000000000000000000000000000000000000020000040000000000000000000000000002000000000000000000008000000000000000000000008000000000000000000000000000000000000000000000000000000000000000000000010000000000000000000000000000000000000000000000008000000000000000000000010000000000000000000000000000000000000000000000000000000000000000000000802000000000000000000000000000000000000000000000000800000000000000000000000000000000000000000000000000000000000000000000000",
      "transactionHash": "0x82acdd27bed10fb5e8fa27c1dfb74760055506b4c2591957c52926132369b27a",
      "transactionIndex": "0x1",
      "blockHash": "0x81c4fff51a83ed0ef642aaa2505285afe56adb091f806c82750af119187dbdc6",
      "blockNumber": "0x14452fe",
      "gasUsed": "0xddef",
      "effectiveGasPrice": "0xba43b7401",
      "blobGasUsed": "0x64",
      "from": "0x2738f38fde510743e0c589415e0598c4cee6eaa7",
      "to": "0xde9e4c3ce781b4ba68120d6261cbad65ce0ab00b",
      "contractAddress": null
    },
    {
      "type": "0x2",
      "status": "0x1",
      "cumulativeGasUsed": "0x414b2",
      "logs": [
        {
          "address": "0x3a58acdd4627478581960f366ff411e11349fcb3",
          "topics": [
            "0xddf252ad1be2c89b69c2b068fc378daa952ba7f163c4a11628f55a4df523b3ef",
            "0x0000000000000000000000000000000000000000000000000000000000000000",
            "0x0000000000000000000000000000000000000000000000000000000000000001"
          ],
          "data": "0x00000000000000000000000000000000000000000000000000000000000003e8",
          "blockHash": "0xea0fcd809d52de04a2f4f4f4a23a255443b177632cbf3079cc7e8ae777a49791",
          "blockNumber": "0x1445301",
          "blockTimestamp": "0x69c55095",
          "transactionHash": "0x4ef98f149ceec367065e7ea3ddd8ad14baafd02921be7cf681e1a8f2167b4a02",
          "transactionIndex": "0x1",
          "logIndex": "0x0",
          "removed": false
        },
        {
          "address": "0x3a58acdd4627478581960f366ff411e11349fcb3",
          "topics": [
            "0xddf252ad1be2c89b69c2b068fc378daa952ba7f163c4a11628f55a4df523b3ef",
            "0x0000000000000000000000000000000000000000000000000000000000000000",
            "0x0000000000000000000000002738f38fde510743e0c589415e0598c4cee6eaa7"
          ],
          "data": "0x0000000000000000000000000000000000000000000000000cea9b45b035f47c",
          "blockHash": "0xea0fcd809d52de04a2f4f4f4a23a255443b177632cbf3079cc7e8ae777a49791",
          "blockNumber": "0x1445301",
          "blockTimestamp": "0x69c55095",
          "transactionHash": "0x4ef98f149ceec367065e7ea3ddd8ad14baafd02921be7cf681e1a8f2167b4a02",
          "transactionIndex": "0x1",
          "logIndex": "0x1",
          "removed": false
        },
        {
          "address": "0x3a58acdd4627478581960f366ff411e11349fcb3",
          "topics": [
            "0xf71a0e183fe1c86e734de92237976be5699cb46fd28373d6ace2f8eafea2857c"
          ],
          "data": "0x0000000000000000000000000000000000000000000000000c058c478a6828a60000000000000000000000000000000000000000000000000de0b6b3a76400000000000000000000000000000000000000000000000000000000000069c55095",
          "blockHash": "0xea0fcd809d52de04a2f4f4f4a23a255443b177632cbf3079cc7e8ae777a49791",
          "blockNumber": "0x1445301",
          "blockTimestamp": "0x69c55095",
          "transactionHash": "0x4ef98f149ceec367065e7ea3ddd8ad14baafd02921be7cf681e1a8f2167b4a02",
          "transactionIndex": "0x1",
          "logIndex": "0x2",
          "removed": false
        },
        {
          "address": "0x3a58acdd4627478581960f366ff411e11349fcb3",
          "topics": [
            "0xa8137fff86647d8a402117b9c5dbda627f721d3773338fb9678c83e54ed39080",
            "0x0000000000000000000000002738f38fde510743e0c589415e0598c4cee6eaa7",
            "0x0000000000000000000000002738f38fde510743e0c589415e0598c4cee6eaa7"
          ],
          "data": "0x0000000000000000000000000000000000000000000000000c058c478a6828a60000000000000000000000000000000000000000000000000de0b6b3a76400000000000000000000000000000000000000000000000000000cea9b45b035f47c",
          "blockHash": "0xea0fcd809d52de04a2f4f4f4a23a255443b177632cbf3079cc7e8ae777a49791",
          "blockNumber": "0x1445301",
          "blockTimestamp": "0x69c55095",
          "transactionHash": "0x4ef98f149ceec367065e7ea3ddd8ad14baafd02921be7cf681e1a8f2167b4a02",
          "transactionIndex": "0x1",
          "logIndex": "0x3",
          "removed": false
        }
      ],
      "logsBloom": "0x00000000200000000000000000000000000000000000000000000000000000000000000000000000000000000000000000000000080000000000000000040000002000000100000000000008000000000000000004040000000000000000000000000000020000000000000000000800000000010002000000000010000000000000000000000000000000000000000000000000000000000000000000000010000000000000000000000000000000400000000000000000000000000000400000000802000000000000000000000000000000000000000000000000000060000000000000000000000000000000000000000000000000000000000000000000",
      "transactionHash": "0x4ef98f149ceec367065e7ea3ddd8ad14baafd02921be7cf681e1a8f2167b4a02",
      "transactionIndex": "0x1",
      "blockHash": "0xea0fcd809d52de04a2f4f4f4a23a255443b177632cbf3079cc7e8ae777a49791",
      "blockNumber": "0x1445301",
      "gasUsed": "0x360ac",
      "effectiveGasPrice": "0xba43b7401",
      "blobGasUsed": "0x64",
      "from": "0x2738f38fde510743e0c589415e0598c4cee6eaa7",
      "to": "0x3a58acdd4627478581960f366ff411e11349fcb3",
      "contractAddress": null
    },
    {
      "type": "0x2",
      "status": "0x1",
      "cumulativeGasUsed": "0x1cb08",
      "logs": [
        {
          "address": "0x3a58acdd4627478581960f366ff411e11349fcb3",
          "topics": [
            "0x0a59d45890c37e353ebb4ff4a00b4e5002b27b21e3a308daea7646097c12533f",
            "0x000000000000000000000000a99dc247d6b7b2e3ab48a1fee101b83cd6acd82a"
          ],
          "data": "0x00000000000000000000000000000000000000000000000ba7b970e194fc000000000000000000000000000000000000000000000000002e9ee5c38653f000000000000000000000000000000000000000000000000000000000000000000012",
          "blockHash": "0x1553bb1a5c246031f73ea46b81003b0a4c99ef8a4581bf333b8dfcc1d222b287",
          "blockNumber": "0x1445303",
          "blockTimestamp": "0x69c55097",
          "transactionHash": "0xb46c724f43ea1a7c5e5688f96b1268f310311426fd85222086e945adbafc746d",
          "transactionIndex": "0x1",
          "logIndex": "0x0",
          "removed": false
        }
      ],
      "logsBloom": "0x00000000000000000000000000000000000000000000000004000000000000000000000000000000000000000000000000000000000000000000000100000000000000000000000000000000000000100000000004000000000000000000000000000000000000000000000000000000000000010002000020000000000000000000000000000000000000000000000000000000000000000000000000000000000000000000000000000000000000000000000000000000000000000000000000000000000000000000000000000000000000000000000000000000010000000000000000000000000000000000000000200000000000000000000000000000",
      "transactionHash": "0xb46c724f43ea1a7c5e5688f96b1268f310311426fd85222086e945adbafc746d",
      "transactionIndex": "0x1",
      "blockHash": "0x1553bb1a5c246031f73ea46b81003b0a4c99ef8a4581bf333b8dfcc1d222b287",
      "blockNumber": "0x1445303",
      "gasUsed": "0x11702",
      "effectiveGasPrice": "0xba43b7401",
      "blobGasUsed": "0x6a",
      "from": "0x2738f38fde510743e0c589415e0598c4cee6eaa7",
      "to": "0x3a58acdd4627478581960f366ff411e11349fcb3",
      "contractAddress": null
    },
    {
      "type": "0x2",
      "status": "0x1",
      "cumulativeGasUsed": "0x1d35f",
      "logs": [
        {
          "address": "0x3a58acdd4627478581960f366ff411e11349fcb3",
          "topics": [
            "0x0a59d45890c37e353ebb4ff4a00b4e5002b27b21e3a308daea7646097c12533f",
            "0x000000000000000000000000de9e4c3ce781b4ba68120d6261cbad65ce0ab00b"
          ],
          "data": "0x00000000000000000000000000000000000000000000000d8d726b7177a8000000000000000000000000000000000000000000000000003635c9adc5dea000000000000000000000000000000000000000000000000000000000000000000012",
          "blockHash": "0x256cd6b72be70b5fb35950ef1c590f63ff18533a4ab4e48d3eb739e951111e4e",
          "blockNumber": "0x1445306",
          "blockTimestamp": "0x69c5509a",
          "transactionHash": "0x6015ac23409db874b021c3377f05c4e4084e1dce52e742963890e2c35e2dd7ea",
          "transactionIndex": "0x1",
          "logIndex": "0x0",
          "removed": false
        }
      ],
      "logsBloom": "0x00000000000000000000000000000000000000000000000004000000000000000100010000000000000000000000000000000000000000000000000100000000000000000000000000000000000000000000000004000000000000000000000000000000000002000000000000000000000000010002000000000000000000000000000000000000000000000000000000000000000000000000000000000000000000000000000000000000000000000000000000000000000000000000000000000000000000000000000000000000000000000000000000000000010000000000000000000000000000000000000000000000000000000000000000000000",
      "transactionHash": "0x6015ac23409db874b021c3377f05c4e4084e1dce52e742963890e2c35e2dd7ea",
      "transactionIndex": "0x1",
      "blockHash": "0x256cd6b72be70b5fb35950ef1c590f63ff18533a4ab4e48d3eb739e951111e4e",
      "blockNumber": "0x1445306",
      "gasUsed": "0x11f59",
      "effectiveGasPrice": "0xba43b7401",
      "blobGasUsed": "0x6a",
      "from": "0x2738f38fde510743e0c589415e0598c4cee6eaa7",
      "to": "0x3a58acdd4627478581960f366ff411e11349fcb3",
      "contractAddress": null
    },
    {
      "type": "0x2",
      "status": "0x1",
      "cumulativeGasUsed": "0x18b53",
      "logs": [
        {
          "address": "0x3a58acdd4627478581960f366ff411e11349fcb3",
          "topics": [
            "0x133037347700fe9a7e5fffb139c832853fc52536035550fc6bc3b3f6207fd875",
            "0x000000000000000000000000ccd2ad0603a08ebc14d223a983171ef18192e8c9"
          ],
          "data": "0x0000000000000000000000000000000000000000000000000000000000000001",
          "blockHash": "0x845835711c9359742ad24094e6d10cf3b931e4ef2074319e346c7d7f5f94dffa",
          "blockNumber": "0x1445308",
          "blockTimestamp": "0x69c5509c",
          "transactionHash": "0x17f22b278736b261d590b0827f744d14bbddbcd112b07fcf2e3832e0cb9419f9",
          "transactionIndex": "0x1",
          "logIndex": "0x0",
          "removed": false
        }
      ],
      "logsBloom": "0x00000000000000000000000000000000000000000000000000000000000000000000000000000000000000000000000000000000000008000000000000000000000000000000000000000000000000000000000004000020000000000000000000000000000000000000000008000000000000010002000000000000000000000000000000000000000000000000000000000000000000000000000000000000000000000000000000000000000000000000000000000000000000000000000000000000000000000000000000000000000000000000000400000000000000800001000000000000000000000000000000000000000000000000000000000000",
      "transactionHash": "0x17f22b278736b261d590b0827f744d14bbddbcd112b07fcf2e3832e0cb9419f9",
      "transactionIndex": "0x1",
      "blockHash": "0x845835711c9359742ad24094e6d10cf3b931e4ef2074319e346c7d7f5f94dffa",
      "blockNumber": "0x1445308",
      "gasUsed": "0xd74d",
      "effectiveGasPrice": "0xba43b7401",
      "blobGasUsed": "0x64",
      "from": "0x2738f38fde510743e0c589415e0598c4cee6eaa7",
      "to": "0x3a58acdd4627478581960f366ff411e11349fcb3",
      "contractAddress": null
    },
    {
      "type": "0x2",
      "status": "0x1",
      "cumulativeGasUsed": "0x33dee",
      "logs": [
        {
          "address": "0xccd2ad0603a08ebc14d223a983171ef18192e8c9",
          "topics": [
            "0x5865b763d2fcaa2023d34f5622fec93cfc34b82e8625c1e622b9a6cb47a69239",
            "0x0000000000000000000000003a58acdd4627478581960f366ff411e11349fcb3"
          ],
          "data": "0x0000000000000000000000003a58acdd4627478581960f366ff411e11349fcb3000000000000000000000000de9e4c3ce781b4ba68120d6261cbad65ce0ab00b000000000000000000000000000000000000000000000000000000000000012c0000000000000000000000002738f38fde510743e0c589415e0598c4cee6eaa70000000000000000000000000000000000000000000000000001c6bf5263400000000000000000000000000000000000000000000000000000000000000000000000000000000000000000000000000000000000000000000001c6bf526340000000000000000000000000000000000000000000000000000000000000000000",
          "blockHash": "0xe897db98d9ccd56f95e0199b447edbb685919b1bfe9e56e7d109a3a3ccaa19f3",
          "blockNumber": "0x144530b",
          "blockTimestamp": "0x69c5509f",
          "transactionHash": "0x036b4f999221f627ba4e2a589dca4a455b309b5de8fe23a6b8d9b91247e8c60f",
          "transactionIndex": "0x1",
          "logIndex": "0x0",
          "removed": false
        }
      ],
      "logsBloom": "0x00000000000000000000000000000000000401000040000000000000000000000000000000000000000000000000000020000000400000000000000000000000000000000000000000000000000000000000000000000000000080000000000000000000000000000000000000000000000000000000000000000000000000000000000000000000000000000000000000000008000000000000000000000000000000000000000000000000000000000000000000004000000000000000000000000000000000000000000000000000000000000000002000000000000000000000000000000000000000000000000000000000000000000000000000000000",
      "transactionHash": "0x036b4f999221f627ba4e2a589dca4a455b309b5de8fe23a6b8d9b91247e8c60f",
      "transactionIndex": "0x1",
      "blockHash": "0xe897db98d9ccd56f95e0199b447edbb685919b1bfe9e56e7d109a3a3ccaa19f3",
      "blockNumber": "0x144530b",
      "gasUsed": "0x289e8",
      "effectiveGasPrice": "0xba43b7401",
      "blobGasUsed": "0x94",
      "from": "0x2738f38fde510743e0c589415e0598c4cee6eaa7",
      "to": "0xccd2ad0603a08ebc14d223a983171ef18192e8c9",
      "contractAddress": null
    }
  ],
  "libraries": [
    "node_modules/@celo/contracts/common/linkedlists/AddressSortedLinkedListWithMedian.sol:AddressSortedLinkedListWithMedian:0xf90B816Ea07eC3c6384656cd5B3249DA8fc3df6F"
  ],
  "pending": [],
  "returns": {},
  "timestamp": 1774538912353,
  "chain": 11142220,
  "commit": "4e99042"
}