{
  "transactions": [
    {
      "hash": "0x4160f2b23b859cacbfd3857cb9c7e6c21c63f478b7268a6e470ff5d654b519be",
      "transactionType": "CALL",
      "contractName": null,
      "contractAddress": "0x353ed52bf8482027c0e0b9e3c0e5d96a9f680980",
      "function": "deployFPMM(address,address,address,address,address,address,address,bool,(uint256,uint256,address,address,uint256,uint256,uint256))",
      "arguments": [
        "0x43cB9D6AcF1462356303079EA4FDd8bc30042a6A",
        "0x26eFF54e2f0E8825996b83119b7Df5ef2C882dD7",
        "0x01bd47aa7B13a75c24E3dA760f8A503c435BB4Df",
        "0x2738F38Fde510743e0c589415E0598C4ceE6eAa7",
        "0x85F5181Abdbf0e1814Fc4358582Ae07b8eBA3aF3",
        "0xdE9e4C3ce781b4bA68120d6261cbad65ce0aB00b",
        "0xAe5eEe6815b8529847955d19522858806Bca8217",
        "false",
        "(20, 10, 0x2738F38Fde510743e0c589415E0598C4ceE6eAa7, 0x2738F38Fde510743e0c589415E0598C4ceE6eAa7, 6, 5000, 3333)"
      ],
      "transaction": {
        "from": "0x2738f38fde510743e0c589415e0598c4cee6eaa7",
        "to": "0x353ed52bf8482027c0e0b9e3c0e5d96a9f680980",
        "gas": "0x193001",
        "value": "0x0",
        "input": "0x098a676e00000000000000000000000043cb9d6acf1462356303079ea4fdd8bc30042a6a00000000000000000000000026eff54e2f0e8825996b83119b7df5ef2c882dd700000000000000000000000001bd47aa7b13a75c24e3da760f8a503c435bb4df0000000000000000000000002738f38fde510743e0c589415e0598c4cee6eaa700000000000000000000000085f5181abdbf0e1814fc4358582ae07b8eba3af3000000000000000000000000de9e4c3ce781b4ba68120d6261cbad65ce0ab00b000000000000000000000000ae5eee6815b8529847955d19522858806bca821700000000000000000000000000000000000000000000000000000000000000000000000000000000000000000000000000000000000000000000000000000014000000000000000000000000000000000000000000000000000000000000000a0000000000000000000000002738f38fde510743e0c589415e0598c4cee6eaa70000000000000000000000002738f38fde510743e0c589415e0598c4cee6eaa7000000000000000000000000000000000000000000000000000000000000000600000000000000000000000000000000000000000000000000000000000013880000000000000000000000000000000000000000000000000000000000000d05",
        "nonce": "0x8e",
        "chainId": "0xaa044c"
      },
      "additionalContracts": [
        {
          "transactionType": "CREATE2",
          "contractName": null,
          "address": "0xd9e9e6f6b5298e8bad390f7748035c49d6eeb055",
          "initCode": "0x67363d3d37363d34f03d5260086018f3"
        },
        {
          "transactionType": "CREATE",
          "contractName": "FPMMProxy",
          "address": "0x550d9ecb4c373510b8a41f5fb7d98e9e1c51a07e",
          "initCode": "0x608060405260405162000dfa38038062000dfa83398101604081905262000026916200041b565b82828282816200003882825f62000052565b506200004690508262000083565b50505050505062000546565b6200005d83620000f4565b5f825111806200006a5750805b156200007e576200007c838362000135565b505b505050565b7f7e644d79422f17c01e4894b5f4f588d331ebfa28653d42ae832dc59e38c9798f620000c45f8051602062000db3833981519152546001600160a01b031690565b604080516001600160a01b03928316815291841660208301520160405180910390a1620000f18162000164565b50565b620000ff8162000201565b6040516001600160a01b038216907fbc7cd75a20ee27fd9adebab32041f755214dbc6bffa90cc0225b39da2e5c2d3b905f90a250565b60606200015d838360405180606001604052806027815260200162000dd36027913962000298565b9392505050565b6001600160a01b038116620001cf5760405162461bcd60e51b815260206004820152602660248201527f455243313936373a206e65772061646d696e20697320746865207a65726f206160448201526564647265737360d01b60648201526084015b60405180910390fd5b805f8051602062000db38339815191525b80546001600160a01b0319166001600160a01b039290921691909117905550565b6001600160a01b0381163b620002705760405162461bcd60e51b815260206004820152602d60248201527f455243313936373a206e657720696d706c656d656e746174696f6e206973206e60448201526c1bdd08184818dbdb9d1c9858dd609a1b6064820152608401620001c6565b807f360894a13ba1a3210667c828492db98dca3e2076cc3735a920a3ca505d382bbc620001e0565b60605f80856001600160a01b031685604051620002b69190620004f5565b5f60405180830381855af49150503d805f8114620002f0576040519150601f19603f3d011682016040523d82523d5f602084013e620002f5565b606091505b509092509050620003098683838762000313565b9695505050505050565b60608315620003865782515f036200037e576001600160a01b0385163b6200037e5760405162461bcd60e51b815260206004820152601d60248201527f416464726573733a2063616c6c20746f206e6f6e2d636f6e74726163740000006044820152606401620001c6565b508162000392565b6200039283836200039a565b949350505050565b815115620003ab5781518083602001fd5b8060405162461bcd60e51b8152600401620001c6919062000512565b80516001600160a01b0381168114620003de575f80fd5b919050565b634e487b7160e01b5f52604160045260245ffd5b5f5b8381101562000413578181015183820152602001620003f9565b50505f910152565b5f805f606084860312156200042e575f80fd5b6200043984620003c7565b92506200044960208501620003c7565b60408501519092506001600160401b038082111562000466575f80fd5b818601915086601f8301126200047a575f80fd5b8151818111156200048f576200048f620003e3565b604051601f8201601f19908116603f01168101908382118183101715620004ba57620004ba620003e3565b81604052828152896020848701011115620004d3575f80fd5b620004e6836020830160208801620003f7565b80955050505050509250925092565b5f825162000508818460208701620003f7565b9190910192915050565b602081525f825180602084015262000532816040850160208701620003f7565b601f01601f19169190910160400192915050565b61085f80620005545f395ff3fe60806040523661001357610011610017565b005b6100115b61001f610168565b6001600160a01b0316330361015e5760606001600160e01b03195f35166364d3180d60e11b81016100595761005261019a565b9150610156565b63587086bd60e11b6001600160e01b0319821601610079576100526101ed565b63070d7c6960e41b6001600160e01b031982160161009957610052610231565b621eb96f60e61b6001600160e01b03198216016100b857610052610261565b63a39f25e560e01b6001600160e01b03198216016100d8576100526102a0565b60405162461bcd60e51b815260206004820152604260248201527f5472616e73706172656e745570677261646561626c6550726f78793a2061646d60448201527f696e2063616e6e6f742066616c6c6261636b20746f2070726f78792074617267606482015261195d60f21b608482015260a4015b60405180910390fd5b815160208301f35b6101666102b3565b565b5f7fb53127684a568b3173ae13b9f8a6016e243e63b6e8ee1178d6a717850b5d61035b546001600160a01b0316919050565b60606101a46102c3565b5f6101b23660048184610668565b8101906101bf91906106aa565b90506101da8160405180602001604052805f8152505f6102cd565b505060408051602081019091525f815290565b60605f806101fe3660048184610668565b81019061020b91906106d7565b9150915061021b828260016102cd565b60405180602001604052805f8152509250505090565b606061023b6102c3565b5f6102493660048184610668565b81019061025691906106aa565b90506101da816102f8565b606061026b6102c3565b5f610274610168565b604080516001600160a01b03831660208201529192500160405160208183030381529060405291505090565b60606102aa6102c3565b5f61027461034f565b6101666102be61034f565b61035d565b3415610166575f80fd5b6102d68361037b565b5f825111806102e25750805b156102f3576102f183836103ba565b505b505050565b7f7e644d79422f17c01e4894b5f4f588d331ebfa28653d42ae832dc59e38c9798f610321610168565b604080516001600160a01b03928316815291841660208301520160405180910390a161034c816103e6565b50565b5f61035861048f565b905090565b365f80375f80365f845af43d5f803e808015610377573d5ff35b3d5ffd5b610384816104b6565b6040516001600160a01b038216907fbc7cd75a20ee27fd9adebab32041f755214dbc6bffa90cc0225b39da2e5c2d3b905f90a250565b60606103df83836040518060600160405280602781526020016108036027913961054a565b9392505050565b6001600160a01b03811661044b5760405162461bcd60e51b815260206004820152602660248201527f455243313936373a206e65772061646d696e20697320746865207a65726f206160448201526564647265737360d01b606482015260840161014d565b807fb53127684a568b3173ae13b9f8a6016e243e63b6e8ee1178d6a717850b5d61035b80546001600160a01b0319166001600160a01b039290921691909117905550565b5f7f360894a13ba1a3210667c828492db98dca3e2076cc3735a920a3ca505d382bbc61018b565b6001600160a01b0381163b6105235760405162461bcd60e51b815260206004820152602d60248201527f455243313936373a206e657720696d706c656d656e746174696f6e206973206e60448201526c1bdd08184818dbdb9d1c9858dd609a1b606482015260840161014d565b807f360894a13ba1a3210667c828492db98dca3e2076cc3735a920a3ca505d382bbc61046e565b60605f80856001600160a01b03168560405161056691906107b5565b5f60405180830381855af49150503d805f811461059e576040519150601f19603f3d011682016040523d82523d5f602084013e6105a3565b606091505b50915091506105b4868383876105be565b9695505050505050565b6060831561062c5782515f03610625576001600160a01b0385163b6106255760405162461bcd60e51b815260206004820152601d60248201527f416464726573733a2063616c6c20746f206e6f6e2d636f6e7472616374000000604482015260640161014d565b5081610636565b610636838361063e565b949350505050565b81511561064e5781518083602001fd5b8060405162461bcd60e51b815260040161014d91906107d0565b5f8085851115610676575f80fd5b83861115610682575f80fd5b5050820193919092039150565b80356001600160a01b03811681146106a5575f80fd5b919050565b5f602082840312156106ba575f80fd5b6103df8261068f565b634e487b7160e01b5f52604160045260245ffd5b5f80604083850312156106e8575f80fd5b6106f18361068f565b9150602083013567ffffffffffffffff8082111561070d575f80fd5b818501915085601f830112610720575f80fd5b813581811115610732576107326106c3565b604051601f8201601f19908116603f0116810190838211818310171561075a5761075a6106c3565b81604052828152886020848701011115610772575f80fd5b826020860160208301375f6020848301015280955050505050509250929050565b5f5b838110156107ad578181015183820152602001610795565b50505f910152565b5f82516107c6818460208701610793565b9190910192915050565b602081525f82518060208401526107ee816040850160208701610793565b601f01601f1916919091016040019291505056fe416464726573733a206c6f772d6c6576656c2064656c65676174652063616c6c206661696c6564a26469706673582212208b98574e6508d92199252794945bd2a09b9be85919c5029bcc658d2167243aed64736f6c63430008180033b53127684a568b3173ae13b9f8a6016e243e63b6e8ee1178d6a717850b5d6103416464726573733a206c6f772d6c6576656c2064656c65676174652063616c6c206661696c656400000000000000000000000043cb9d6acf1462356303079ea4fdd8bc30042a6a00000000000000000000000001bd47aa7b13a75c24e3da760f8a503c435bb4df000000000000000000000000000000000000000000000000000000000000006000000000000000000000000000000000000000000000000000000000000001a4c20a9ca500000000000000000000000085f5181abdbf0e1814fc4358582ae07b8eba3af3000000000000000000000000de9e4c3ce781b4ba68120d6261cbad65ce0ab00b00000000000000000000000026eff54e2f0e8825996b83119b7df5ef2c882dd7000000000000000000000000ae5eee6815b8529847955d19522858806bca821700000000000000000000000000000000000000000000000000000000000000000000000000000000000000002738f38fde510743e0c589415e0598c4cee6eaa70000000000000000000000000000000000000000000000000000000000000014000000000000000000000000000000000000000000000000000000000000000a0000000000000000000000002738f38fde510743e0c589415e0598c4cee6eaa70000000000000000000000002738f38fde510743e0c589415e0598c4cee6eaa7000000000000000000000000000000000000000000000000000000000000000600000000000000000000000000000000000000000000000000000000000013880000000000000000000000000000000000000000000000000000000000000d0500000000000000000000000000000000000000000000000000000000"
        }
      ],
      "isFixedGasLimit": false
    },
    {
      "hash": "0x99baa77383826b838f101297a12873e94b94be81a41d31bd28f612c9952fe4aa",
      "transactionType": "CALL",
      "contractName": null,
      "contractAddress": "0x85f5181abdbf0e1814fc4358582ae07b8eba3af3",
      "function": "transfer(address,uint256)",
      "arguments": [
        "0x550D9EcB4C373510b8A41f5fB7D98E9E1c51A07e",
        "741372280090447418"
      ],
      "transaction": {
        "from": "0x2738f38fde510743e0c589415e0598c4cee6eaa7",
        "to": "0x85f5181abdbf0e1814fc4358582ae07b8eba3af3",
        "gas": "0x144ae",
        "value": "0x0",
        "input": "0xa9059cbb000000000000000000000000550d9ecb4c373510b8a41f5fb7d98e9e1c51a07e0000000000000000000000000000000000000000000000000a49e229291cce3a",
        "nonce": "0x8f",
        "chainId": "0xaa044c"
      },
      "additionalContracts": [],
      "isFixedGasLimit": false
    },
    {
      "hash": "0x77ad50c9c68a5420bf7087810a154dc8f6c4206b359c119c3c35fc9ca3b40aa3",
      "transactionType": "CALL",
      "contractName": null,
      "contractAddress": "0xde9e4c3ce781b4ba68120d6261cbad65ce0ab00b",
      "function": "transfer(address,uint256)",
      "arguments": [
        "0x550D9EcB4C373510b8A41f5fB7D98E9E1c51A07e",
        "1000000000000000000"
      ],
      "transaction": {
        "from": "0x2738f38fde510743e0c589415e0598c4cee6eaa7",
        "to": "0xde9e4c3ce781b4ba68120d6261cbad65ce0ab00b",
        "gas": "0x1448b",
        "value": "0x0",
        "input": "0xa9059cbb000000000000000000000000550d9ecb4c373510b8a41f5fb7d98e9e1c51a07e0000000000000000000000000000000000000000000000000de0b6b3a7640000",
        "nonce": "0x90",
        "chainId": "0xaa044c"
      },
      "additionalContracts": [],
      "isFixedGasLimit": false
    },
    {
      "hash": "0x1d478c8f30c6d3c2241db47f08e58ea4b0b5a1062677773a76f5a90447bb11b1",
      "transactionType": "CALL",
      "contractName": "FPMMProxy",
      "contractAddress": "0x550d9ecb4c373510b8a41f5fb7d98e9e1c51a07e",
      "function": null,
      "arguments": null,
      "transaction": {
        "from": "0x2738f38fde510743e0c589415e0598c4cee6eaa7",
        "to": "0x550d9ecb4c373510b8a41f5fb7d98e9e1c51a07e",
        "gas": "0x4f070",
        "value": "0x0",
        "input": "0x6a6278420000000000000000000000002738f38fde510743e0c589415e0598c4cee6eaa7",
        "nonce": "0x91",
        "chainId": "0xaa044c"
      },
      "additionalContracts": [],
      "isFixedGasLimit": false
    },
    {
      "hash": "0x24b80d7635dcf147db192cbc9bd682fa3853686ff848e551c31dd6d5e834c688",
      "transactionType": "CALL",
      "contractName": "FPMMProxy",
      "contractAddress": "0x550d9ecb4c373510b8a41f5fb7d98e9e1c51a07e",
      "function": null,
      "arguments": null,
      "transaction": {
        "from": "0x2738f38fde510743e0c589415e0598c4cee6eaa7",
        "to": "0x550d9ecb4c373510b8a41f5fb7d98e9e1c51a07e",
        "gas": "0x1980a",
        "value": "0x0",
        "input": "0xda7ddb8f00000000000000000000000085f5181abdbf0e1814fc4358582ae07b8eba3af300000000000000000000000000000000000000000000104e2da94483f6200000000000000000000000000000000000000000000000005186e44e5693cea00000",
        "nonce": "0x92",
        "chainId": "0xaa044c"
      },
      "additionalContracts": [],
      "isFixedGasLimit": false
    },
    {
      "hash": "0x922928a216daaa83ff23d026143c0c5031b62e461d625f554daf84af93617bdb",
      "transactionType": "CALL",
      "contractName": "FPMMProxy",
      "contractAddress": "0x550d9ecb4c373510b8a41f5fb7d98e9e1c51a07e",
      "function": null,
      "arguments": null,
      "transaction": {
        "from": "0x2738f38fde510743e0c589415e0598c4cee6eaa7",
        "to": "0x550d9ecb4c373510b8a41f5fb7d98e9e1c51a07e",
        "gas": "0x18cf5",
        "value": "0x0",
        "input": "0xda7ddb8f000000000000000000000000de9e4c3ce781b4ba68120d6261cbad65ce0ab00b00000000000000000000000000000000000000000000152d02c7e14af68000000000000000000000000000000000000000000000000069e10de76676d0800000",
        "nonce": "0x93",
        "chainId": "0xaa044c"
      },
      "additionalContracts": [],
      "isFixedGasLimit": false
    },
    {
      "hash": "0x6ff98465d915e6417aa7089d98b772387f38acbc2a3c3b2a2f834ff1a508a472",
      "transactionType": "CALL",
      "contractName": null,
      "contractAddress": "0x353ed52bf8482027c0e0b9e3c0e5d96a9f680980",
      "function": "deployFPMM(address,address,address,address,address,address,address,bool,(uint256,uint256,address,address,uint256,uint256,uint256))",
      "arguments": [
        "0x43cB9D6AcF1462356303079EA4FDd8bc30042a6A",
        "0x26eFF54e2f0E8825996b83119b7Df5ef2C882dD7",
        "0x01bd47aa7B13a75c24E3dA760f8A503c435BB4Df",
        "0x2738F38Fde510743e0c589415E0598C4ceE6eAa7",
        "0x6285De9DA7C1d329C0451628638908915002d9d1",
        "0xdE9e4C3ce781b4bA68120d6261cbad65ce0aB00b",
        "0xA1A8003936862E7a15092A91898D69fa8bCE290c",
        "false",
        "(3, 2, 0x2738F38Fde510743e0c589415E0598C4ceE6eAa7, 0x2738F38Fde510743e0c589415E0598C4ceE6eAa7, 1, 5000, 3333)"
      ],
      "transaction": {
        "from": "0x2738f38fde510743e0c589415e0598c4cee6eaa7",
        "to": "0x353ed52bf8482027c0e0b9e3c0e5d96a9f680980",
        "gas": "0x1930cc",
        "value": "0x0",
        "input": "0x098a676e00000000000000000000000043cb9d6acf1462356303079ea4fdd8bc30042a6a00000000000000000000000026eff54e2f0e8825996b83119b7df5ef2c882dd700000000000000000000000001bd47aa7b13a75c24e3da760f8a503c435bb4df0000000000000000000000002738f38fde510743e0c589415e0598c4cee6eaa70000000000000000000000006285de9da7c1d329c0451628638908915002d9d1000000000000000000000000de9e4c3ce781b4ba68120d6261cbad65ce0ab00b000000000000000000000000a1a8003936862e7a15092a91898d69fa8bce290c0000000000000000000000000000000000000000000000000000000000000000000000000000000000000000000000000000000000000000000000000000000300000000000000000000000000000000000000000000000000000000000000020000000000000000000000002738f38fde510743e0c589415e0598c4cee6eaa70000000000000000000000002738f38fde510743e0c589415e0598c4cee6eaa7000000000000000000000000000000000000000000000000000000000000000100000000000000000000000000000000000000000000000000000000000013880000000000000000000000000000000000000000000000000000000000000d05",
        "nonce": "0x94",
        "chainId": "0xaa044c"
      },
      "additionalContracts": [
        {
          "transactionType": "CREATE2",
          "contractName": null,
          "address": "0xb5f2851ac676d0e9f8a4a5a5cc179428917c7aa1",
          "initCode": "0x67363d3d37363d34f03d5260086018f3"
        },
        {
          "transactionType": "CREATE",
          "contractName": "FPMMProxy",
          "address": "0xf1b77ffc1f71b21b6c69876cedaf82340803de75",
          "initCode": "0x608060405260405162000dfa38038062000dfa83398101604081905262000026916200041b565b82828282816200003882825f62000052565b506200004690508262000083565b50505050505062000546565b6200005d83620000f4565b5f825111806200006a5750805b156200007e576200007c838362000135565b505b505050565b7f7e644d79422f17c01e4894b5f4f588d331ebfa28653d42ae832dc59e38c9798f620000c45f8051602062000db3833981519152546001600160a01b031690565b604080516001600160a01b03928316815291841660208301520160405180910390a1620000f18162000164565b50565b620000ff8162000201565b6040516001600160a01b038216907fbc7cd75a20ee27fd9adebab32041f755214dbc6bffa90cc0225b39da2e5c2d3b905f90a250565b60606200015d838360405180606001604052806027815260200162000dd36027913962000298565b9392505050565b6001600160a01b038116620001cf5760405162461bcd60e51b815260206004820152602660248201527f455243313936373a206e65772061646d696e20697320746865207a65726f206160448201526564647265737360d01b60648201526084015b60405180910390fd5b805f8051602062000db38339815191525b80546001600160a01b0319166001600160a01b039290921691909117905550565b6001600160a01b0381163b620002705760405162461bcd60e51b815260206004820152602d60248201527f455243313936373a206e657720696d706c656d656e746174696f6e206973206e60448201526c1bdd08184818dbdb9d1c9858dd609a1b6064820152608401620001c6565b807f360894a13ba1a3210667c828492db98dca3e2076cc3735a920a3ca505d382bbc620001e0565b60605f80856001600160a01b031685604051620002b69190620004f5565b5f60405180830381855af49150503d805f8114620002f0576040519150601f19603f3d011682016040523d82523d5f602084013e620002f5565b606091505b509092509050620003098683838762000313565b9695505050505050565b60608315620003865782515f036200037e576001600160a01b0385163b6200037e5760405162461bcd60e51b815260206004820152601d60248201527f416464726573733a2063616c6c20746f206e6f6e2d636f6e74726163740000006044820152606401620001c6565b508162000392565b6200039283836200039a565b949350505050565b815115620003ab5781518083602001fd5b8060405162461bcd60e51b8152600401620001c6919062000512565b80516001600160a01b0381168114620003de575f80fd5b919050565b634e487b7160e01b5f52604160045260245ffd5b5f5b8381101562000413578181015183820152602001620003f9565b50505f910152565b5f805f606084860312156200042e575f80fd5b6200043984620003c7565b92506200044960208501620003c7565b60408501519092506001600160401b038082111562000466575f80fd5b818601915086601f8301126200047a575f80fd5b8151818111156200048f576200048f620003e3565b604051601f8201601f19908116603f01168101908382118183101715620004ba57620004ba620003e3565b81604052828152896020848701011115620004d3575f80fd5b620004e6836020830160208801620003f7565b80955050505050509250925092565b5f825162000508818460208701620003f7565b9190910192915050565b602081525f825180602084015262000532816040850160208701620003f7565b601f01601f19169190910160400192915050565b61085f80620005545f395ff3fe60806040523661001357610011610017565b005b6100115b61001f610168565b6001600160a01b0316330361015e5760606001600160e01b03195f35166364d3180d60e11b81016100595761005261019a565b9150610156565b63587086bd60e11b6001600160e01b0319821601610079576100526101ed565b63070d7c6960e41b6001600160e01b031982160161009957610052610231565b621eb96f60e61b6001600160e01b03198216016100b857610052610261565b63a39f25e560e01b6001600160e01b03198216016100d8576100526102a0565b60405162461bcd60e51b815260206004820152604260248201527f5472616e73706172656e745570677261646561626c6550726f78793a2061646d60448201527f696e2063616e6e6f742066616c6c6261636b20746f2070726f78792074617267606482015261195d60f21b608482015260a4015b60405180910390fd5b815160208301f35b6101666102b3565b565b5f7fb53127684a568b3173ae13b9f8a6016e243e63b6e8ee1178d6a717850b5d61035b546001600160a01b0316919050565b60606101a46102c3565b5f6101b23660048184610668565b8101906101bf91906106aa565b90506101da8160405180602001604052805f8152505f6102cd565b505060408051602081019091525f815290565b60605f806101fe3660048184610668565b81019061020b91906106d7565b9150915061021b828260016102cd565b60405180602001604052805f8152509250505090565b606061023b6102c3565b5f6102493660048184610668565b81019061025691906106aa565b90506101da816102f8565b606061026b6102c3565b5f610274610168565b604080516001600160a01b03831660208201529192500160405160208183030381529060405291505090565b60606102aa6102c3565b5f61027461034f565b6101666102be61034f565b61035d565b3415610166575f80fd5b6102d68361037b565b5f825111806102e25750805b156102f3576102f183836103ba565b505b505050565b7f7e644d79422f17c01e4894b5f4f588d331ebfa28653d42ae832dc59e38c9798f610321610168565b604080516001600160a01b03928316815291841660208301520160405180910390a161034c816103e6565b50565b5f61035861048f565b905090565b365f80375f80365f845af43d5f803e808015610377573d5ff35b3d5ffd5b610384816104b6565b6040516001600160a01b038216907fbc7cd75a20ee27fd9adebab32041f755214dbc6bffa90cc0225b39da2e5c2d3b905f90a250565b60606103df83836040518060600160405280602781526020016108036027913961054a565b9392505050565b6001600160a01b03811661044b5760405162461bcd60e51b815260206004820152602660248201527f455243313936373a206e65772061646d696e20697320746865207a65726f206160448201526564647265737360d01b606482015260840161014d565b807fb53127684a568b3173ae13b9f8a6016e243e63b6e8ee1178d6a717850b5d61035b80546001600160a01b0319166001600160a01b039290921691909117905550565b5f7f360894a13ba1a3210667c828492db98dca3e2076cc3735a920a3ca505d382bbc61018b565b6001600160a01b0381163b6105235760405162461bcd60e51b815260206004820152602d60248201527f455243313936373a206e657720696d706c656d656e746174696f6e206973206e60448201526c1bdd08184818dbdb9d1c9858dd609a1b606482015260840161014d565b807f360894a13ba1a3210667c828492db98dca3e2076cc3735a920a3ca505d382bbc61046e565b60605f80856001600160a01b03168560405161056691906107b5565b5f60405180830381855af49150503d805f811461059e576040519150601f19603f3d011682016040523d82523d5f602084013e6105a3565b606091505b50915091506105b4868383876105be565b9695505050505050565b6060831561062c5782515f03610625576001600160a01b0385163b6106255760405162461bcd60e51b815260206004820152601d60248201527f416464726573733a2063616c6c20746f206e6f6e2d636f6e7472616374000000604482015260640161014d565b5081610636565b610636838361063e565b949350505050565b81511561064e5781518083602001fd5b8060405162461bcd60e51b815260040161014d91906107d0565b5f8085851115610676575f80fd5b83861115610682575f80fd5b5050820193919092039150565b80356001600160a01b03811681146106a5575f80fd5b919050565b5f602082840312156106ba575f80fd5b6103df8261068f565b634e487b7160e01b5f52604160045260245ffd5b5f80604083850312156106e8575f80fd5b6106f18361068f565b9150602083013567ffffffffffffffff8082111561070d575f80fd5b818501915085601f830112610720575f80fd5b813581811115610732576107326106c3565b604051601f8201601f19908116603f0116810190838211818310171561075a5761075a6106c3565b81604052828152886020848701011115610772575f80fd5b826020860160208301375f6020848301015280955050505050509250929050565b5f5b838110156107ad578181015183820152602001610795565b50505f910152565b5f82516107c6818460208701610793565b9190910192915050565b602081525f82518060208401526107ee816040850160208701610793565b601f01601f1916919091016040019291505056fe416464726573733a206c6f772d6c6576656c2064656c65676174652063616c6c206661696c6564a26469706673582212208b98574e6508d92199252794945bd2a09b9be85919c5029bcc658d2167243aed64736f6c63430008180033b53127684a568b3173ae13b9f8a6016e243e63b6e8ee1178d6a717850b5d6103416464726573733a206c6f772d6c6576656c2064656c65676174652063616c6c206661696c656400000000000000000000000043cb9d6acf1462356303079ea4fdd8bc30042a6a00000000000000000000000001bd47aa7b13a75c24e3da760f8a503c435bb4df000000000000000000000000000000000000000000000000000000000000006000000000000000000000000000000000000000000000000000000000000001a4c20a9ca50000000000000000000000006285de9da7c1d329c0451628638908915002d9d1000000000000000000000000de9e4c3ce781b4ba68120d6261cbad65ce0ab00b00000000000000000000000026eff54e2f0e8825996b83119b7df5ef2c882dd7000000000000000000000000a1a8003936862e7a15092a91898d69fa8bce290c00000000000000000000000000000000000000000000000000000000000000000000000000000000000000002738f38fde510743e0c589415e0598c4cee6eaa7000000000000000000000000000000000000000000000000000000000000000300000000000000000000000000000000000000000000000000000000000000020000000000000000000000002738f38fde510743e0c589415e0598c4cee6eaa70000000000000000000000002738f38fde510743e0c589415e0598c4cee6eaa7000000000000000000000000000000000000000000000000000000000000000100000000000000000000000000000000000000000000000000000000000013880000000000000000000000000000000000000000000000000000000000000d0500000000000000000000000000000000000000000000000000000000"
        }
      ],
      "isFixedGasLimit": false
    },
    {
      "hash": "0xcb69ac857847b2be96aac4b993bdff01468ee80f22ceedc84aa99a851491821a",
      "transactionType": "CALL",
      "contractName": "MockERC20",
      "contractAddress": "0x6285de9da7c1d329c0451628638908915002d9d1",
      "function": "transfer(address,uint256)",
      "arguments": [
        "0xF1B77Ffc1F71b21b6c69876CEDAf82340803dE75",
        "1000040001600064002"
      ],
      "transaction": {
        "from": "0x2738f38fde510743e0c589415e0598c4cee6eaa7",
        "to": "0x6285de9da7c1d329c0451628638908915002d9d1",
        "gas": "0x1167c",
        "value": "0x0",
        "input": "0xa9059cbb000000000000000000000000f1b77ffc1f71b21b6c69876cedaf82340803de750000000000000000000000000000000000000000000000000de0db15408d8a02",
        "nonce": "0x95",
        "chainId": "0xaa044c"
      },
      "additionalContracts": [],
      "isFixedGasLimit": false
    },
    {
      "hash": "0x4a08c7b0aa9e5e7fb8a551e96248a553378433aa7e9064f611f257488459a3fb",
      "transactionType": "CALL",
      "contractName": null,
      "contractAddress": "0xde9e4c3ce781b4ba68120d6261cbad65ce0ab00b",
      "function": "transfer(address,uint256)",
      "arguments": [
        "0xF1B77Ffc1F71b21b6c69876CEDAf82340803dE75",
        "1000000000000000000"
      ],
      "transaction": {
        "from": "0x2738f38fde510743e0c589415e0598c4cee6eaa7",
        "to": "0xde9e4c3ce781b4ba68120d6261cbad65ce0ab00b",
        "gas": "0x1448b",
        "value": "0x0",
        "input": "0xa9059cbb000000000000000000000000f1b77ffc1f71b21b6c69876cedaf82340803de750000000000000000000000000000000000000000000000000de0b6b3a7640000",
        "nonce": "0x96",
        "chainId": "0xaa044c"
      },
      "additionalContracts": [],
      "isFixedGasLimit": false
    },
    {
      "hash": "0xe2f9214711ae776c0ef10cc39a69a850cfd15af273054a9ca83e46300a694654",
      "transactionType": "CALL",
      "contractName": "FPMMProxy",
      "contractAddress": "0xf1b77ffc1f71b21b6c69876cedaf82340803de75",
      "function": null,
      "arguments": null,
      "transaction": {
        "from": "0x2738f38fde510743e0c589415e0598c4cee6eaa7",
        "to": "0xf1b77ffc1f71b21b6c69876cedaf82340803de75",
        "gas": "0x4956e",
        "value": "0x0",
        "input": "0x6a6278420000000000000000000000002738f38fde510743e0c589415e0598c4cee6eaa7",
        "nonce": "0x97",
        "chainId": "0xaa044c"
      },
      "additionalContracts": [],
      "isFixedGasLimit": false
    },
    {
      "hash": "0xa6e6cc7b23fcda5f910a754b7e3e3a6c9cbf810b43f5d7a2de70f27c171c3d61",
      "transactionType": "CALL",
      "contractName": "FPMMProxy",
      "contractAddress": "0xf1b77ffc1f71b21b6c69876cedaf82340803de75",
      "function": null,
      "arguments": null,
      "transaction": {
        "from": "0x2738f38fde510743e0c589415e0598c4cee6eaa7",
        "to": "0xf1b77ffc1f71b21b6c69876cedaf82340803de75",
        "gas": "0x1790f",
        "value": "0x0",
        "input": "0xda7ddb8f0000000000000000000000006285de9da7c1d329c0451628638908915002d9d10000000000000000000000000000000000000000000069e10de76676d080000000000000000000000000000000000000000000000000d3c21bcecceda1000000",
        "nonce": "0x98",
        "chainId": "0xaa044c"
      },
      "additionalContracts": [],
      "isFixedGasLimit": false
    },
    {
      "hash": "0xd49812907454f1c5ee2113038f79cffe725e14529225ecb0c44255ceb8fd54fa",
      "transactionType": "CALL",
      "contractName": "FPMMProxy",
      "contractAddress": "0xf1b77ffc1f71b21b6c69876cedaf82340803de75",
      "function": null,
      "arguments": null,
      "transaction": {
        "from": "0x2738f38fde510743e0c589415e0598c4cee6eaa7",
        "to": "0xf1b77ffc1f71b21b6c69876cedaf82340803de75",
        "gas": "0x18ce4",
        "value": "0x0",
        "input": "0xda7ddb8f000000000000000000000000de9e4c3ce781b4ba68120d6261cbad65ce0ab00b0000000000000000000000000000000000000000000069e10de76676d080000000000000000000000000000000000000000000000000d3c21bcecceda1000000",
        "nonce": "0x99",
        "chainId": "0xaa044c"
      },
      "additionalContracts": [],
      "isFixedGasLimit": false
    },
    {
      "hash": "0xa5a9d19d072d1c6b95323b0108d8d0cbfb356f964a4cdf9ff24e736b81e2fb32",
      "transactionType": "CALL",
      "contractName": null,
      "contractAddress": "0xbcdc1d0b92dfceeaa0fcd0a0d53355f4bf1db8a7",
      "function": "registerStableAsset(address)",
      "arguments": [
        "0xdE9e4C3ce781b4bA68120d6261cbad65ce0aB00b"
      ],
      "transaction": {
        "from": "0x2738f38fde510743e0c589415e0598c4cee6eaa7",
        "to": "0xbcdc1d0b92dfceeaa0fcd0a0d53355f4bf1db8a7",
        "gas": "0x20af5",
        "value": "0x0",
        "input": "0xee71f7d5000000000000000000000000de9e4c3ce781b4ba68120d6261cbad65ce0ab00b",
        "nonce": "0x9a",
        "chainId": "0xaa044c"
      },
      "additionalContracts": [],
      "isFixedGasLimit": false
    },
    {
      "hash": "0x8e9805eb897c6d966537e91f433b63ce6699a4344cf47e73f9b6a7267531b160",
      "transactionType": "CALL",
      "contractName": null,
      "contractAddress": "0xbcdc1d0b92dfceeaa0fcd0a0d53355f4bf1db8a7",
      "function": "registerCollateralAsset(address)",
      "arguments": [
        "0x6285De9DA7C1d329C0451628638908915002d9d1"
      ],
      "transaction": {
        "from": "0x2738f38fde510743e0c589415e0598c4cee6eaa7",
        "to": "0xbcdc1d0b92dfceeaa0fcd0a0d53355f4bf1db8a7",
        "gas": "0x22a1d",
        "value": "0x0",
        "input": "0x40a240370000000000000000000000006285de9da7c1d329c0451628638908915002d9d1",
        "nonce": "0x9b",
        "chainId": "0xaa044c"
      },
      "additionalContracts": [],
      "isFixedGasLimit": false
    },
    {
      "hash": "0x159eb08a0290489a7ffd16a450e1509f98517cd3f0f0c2e3b367a4c84409f43f",
      "transactionType": "CALL",
      "contractName": "FPMMProxy",
      "contractAddress": "0xf1b77ffc1f71b21b6c69876cedaf82340803de75",
      "function": null,
      "arguments": null,
      "transaction": {
        "from": "0x2738f38fde510743e0c589415e0598c4cee6eaa7",
        "to": "0xf1b77ffc1f71b21b6c69876cedaf82340803de75",
        "gas": "0x12961",
        "value": "0x0",
        "input": "0xcce441a3000000000000000000000000734bb3251ec3f1a83f8f2a8609bcef649d54ebf80000000000000000000000000000000000000000000000000000000000000001",
        "nonce": "0x9c",
        "chainId": "0xaa044c"
      },
      "additionalContracts": [],
      "isFixedGasLimit": false
    },
    {
      "hash": "0x306744cc48596e85b933bea60d6bbdfe7ebaf3128a3688d4f80ef91bbf601c2c",
      "transactionType": "CALL",
      "contractName": null,
      "contractAddress": "0x734bb3251ec3f1a83f8f2a8609bcef649d54ebf8",
      "function": "addPool((address,address,uint32,address,uint64,uint64,uint64,uint64))",
      "arguments": [
        "(0xF1B77Ffc1F71b21b6c69876CEDAf82340803dE75, 0xdE9e4C3ce781b4bA68120d6261cbad65ce0aB00b, 300, 0x2738F38Fde510743e0c589415E0598C4ceE6eAa7, 0, 0, 0, 0)"
      ],
      "transaction": {
        "from": "0x2738f38fde510743e0c589415e0598c4cee6eaa7",
        "to": "0x734bb3251ec3f1a83f8f2a8609bcef649d54ebf8",
        "gas": "0x315ac",
        "value": "0x0",
        "input": "0x2d3d3638000000000000000000000000f1b77ffc1f71b21b6c69876cedaf82340803de75000000000000000000000000de9e4c3ce781b4ba68120d6261cbad65ce0ab00b000000000000000000000000000000000000000000000000000000000000012c0000000000000000000000002738f38fde510743e0c589415e0598c4cee6eaa70000000000000000000000000000000000000000000000000000000000000000000000000000000000000000000000000000000000000000000000000000000000000000000000000000000000000000000000000000000000000000000000000000000000000000000000000000000000000000000000000000000000000000",
        "nonce": "0x9d",
        "chainId": "0xaa044c"
      },
      "additionalContracts": [],
      "isFixedGasLimit": false
    },
    {
      "hash": "0x6d31836c463eed2bfb5d035d4c2e49ca5dec51c4da422bf4538e2cf7787748ad",
      "transactionType": "CALL",
      "contractName": null,
      "contractAddress": "0xde9e4c3ce781b4ba68120d6261cbad65ce0ab00b",
      "function": "setMinter(address,bool)",
      "arguments": [
        "0x734bb3251Ec3f1A83f8f2A8609bcEF649D54EbF8",
        "true"
      ],
      "transaction": {
        "from": "0x2738f38fde510743e0c589415e0598c4cee6eaa7",
        "to": "0xde9e4c3ce781b4ba68120d6261cbad65ce0ab00b",
        "gas": "0x11ef1",
        "value": "0x0",
        "input": "0xcf456ae7000000000000000000000000734bb3251ec3f1a83f8f2a8609bcef649d54ebf80000000000000000000000000000000000000000000000000000000000000001",
        "nonce": "0x9e",
        "chainId": "0xaa044c"
      },
      "additionalContracts": [],
      "isFixedGasLimit": false
    },
    {
      "hash": "0x8b20168280da9a00d7fe499f132e85310bda8085ee0753d49d486dc94b203136",
      "transactionType": "CALL",
      "contractName": null,
      "contractAddress": "0xde9e4c3ce781b4ba68120d6261cbad65ce0ab00b",
      "function": "setBurner(address,bool)",
      "arguments": [
        "0x734bb3251Ec3f1A83f8f2A8609bcEF649D54EbF8",
        "true"
      ],
      "transaction": {
        "from": "0x2738f38fde510743e0c589415e0598c4cee6eaa7",
        "to": "0xde9e4c3ce781b4ba68120d6261cbad65ce0ab00b",
        "gas": "0x13008",
        "value": "0x0",
        "input": "0x0d895ee1000000000000000000000000734bb3251ec3f1a83f8f2a8609bcef649d54ebf80000000000000000000000000000000000000000000000000000000000000001",
        "nonce": "0x9f",
        "chainId": "0xaa044c"
      },
      "additionalContracts": [],
      "isFixedGasLimit": false
    },
    {
      "hash": "0xbd75fcbf028a577ef4445dada84b264a1acadaa271b8d2a395cb022136727d52",
      "transactionType": "CALL",
      "contractName": null,
      "contractAddress": "0x353ed52bf8482027c0e0b9e3c0e5d96a9f680980",
      "function": "deployFPMM(address,address,address,address,address,address,address,bool,(uint256,uint256,address,address,uint256,uint256,uint256))",
      "arguments": [
        "0x43cB9D6AcF1462356303079EA4FDd8bc30042a6A",
        "0x26eFF54e2f0E8825996b83119b7Df5ef2C882dD7",
        "0x01bd47aa7B13a75c24E3dA760f8A503c435BB4Df",
        "0x2738F38Fde510743e0c589415E0598C4ceE6eAa7",
        "0x01C5C0122039549AD1493B8220cABEdD739BC44E",
        "0xdE9e4C3ce781b4bA68120d6261cbad65ce0aB00b",
        "0xA1A8003936862E7a15092A91898D69fa8bCE290c",
        "false",
        "(3, 2, 0x2738F38Fde510743e0c589415E0598C4ceE6eAa7, 0x2738F38Fde510743e0c589415E0598C4ceE6eAa7, 1, 5000, 3333)"
      ],
      "transaction": {
        "from": "0x2738f38fde510743e0c589415e0598c4cee6eaa7",
        "to": "0x353ed52bf8482027c0e0b9e3c0e5d96a9f680980",
        "gas": "0x18f31d",
        "value": "0x0",
        "input": "0x098a676e00000000000000000000000043cb9d6acf1462356303079ea4fdd8bc30042a6a00000000000000000000000026eff54e2f0e8825996b83119b7df5ef2c882dd700000000000000000000000001bd47aa7b13a75c24e3da760f8a503c435bb4df0000000000000000000000002738f38fde510743e0c589415e0598c4cee6eaa700000000000000000000000001c5c0122039549ad1493b8220cabedd739bc44e000000000000000000000000de9e4c3ce781b4ba68120d6261cbad65ce0ab00b000000000000000000000000a1a8003936862e7a15092a91898d69fa8bce290c0000000000000000000000000000000000000000000000000000000000000000000000000000000000000000000000000000000000000000000000000000000300000000000000000000000000000000000000000000000000000000000000020000000000000000000000002738f38fde510743e0c589415e0598c4cee6eaa70000000000000000000000002738f38fde510743e0c589415e0598c4cee6eaa7000000000000000000000000000000000000000000000000000000000000000100000000000000000000000000000000000000000000000000000000000013880000000000000000000000000000000000000000000000000000000000000d05",
        "nonce": "0xa0",
        "chainId": "0xaa044c"
      },
      "additionalContracts": [
        {
          "transactionType": "CREATE2",
          "contractName": null,
          "address": "0x1229e8a7b266c6db52712ba5c6899a6c4c3025cd",
          "initCode": "0x67363d3d37363d34f03d5260086018f3"
        },
        {
          "transactionType": "CREATE",
          "contractName": "FPMMProxy",
          "address": "0x7109e0a9b4623e90755b7e5c4e10f089e5bf8bdb",
          "initCode": "0x608060405260405162000dfa38038062000dfa83398101604081905262000026916200041b565b82828282816200003882825f62000052565b506200004690508262000083565b50505050505062000546565b6200005d83620000f4565b5f825111806200006a5750805b156200007e576200007c838362000135565b505b505050565b7f7e644d79422f17c01e4894b5f4f588d331ebfa28653d42ae832dc59e38c9798f620000c45f8051602062000db3833981519152546001600160a01b031690565b604080516001600160a01b03928316815291841660208301520160405180910390a1620000f18162000164565b50565b620000ff8162000201565b6040516001600160a01b038216907fbc7cd75a20ee27fd9adebab32041f755214dbc6bffa90cc0225b39da2e5c2d3b905f90a250565b60606200015d838360405180606001604052806027815260200162000dd36027913962000298565b9392505050565b6001600160a01b038116620001cf5760405162461bcd60e51b815260206004820152602660248201527f455243313936373a206e65772061646d696e20697320746865207a65726f206160448201526564647265737360d01b60648201526084015b60405180910390fd5b805f8051602062000db38339815191525b80546001600160a01b0319166001600160a01b039290921691909117905550565b6001600160a01b0381163b620002705760405162461bcd60e51b815260206004820152602d60248201527f455243313936373a206e657720696d706c656d656e746174696f6e206973206e60448201526c1bdd08184818dbdb9d1c9858dd609a1b6064820152608401620001c6565b807f360894a13ba1a3210667c828492db98dca3e2076cc3735a920a3ca505d382bbc620001e0565b60605f80856001600160a01b031685604051620002b69190620004f5565b5f60405180830381855af49150503d805f8114620002f0576040519150601f19603f3d011682016040523d82523d5f602084013e620002f5565b606091505b509092509050620003098683838762000313565b9695505050505050565b60608315620003865782515f036200037e576001600160a01b0385163b6200037e5760405162461bcd60e51b815260206004820152601d60248201527f416464726573733a2063616c6c20746f206e6f6e2d636f6e74726163740000006044820152606401620001c6565b508162000392565b6200039283836200039a565b949350505050565b815115620003ab5781518083602001fd5b8060405162461bcd60e51b8152600401620001c6919062000512565b80516001600160a01b0381168114620003de575f80fd5b919050565b634e487b7160e01b5f52604160045260245ffd5b5f5b8381101562000413578181015183820152602001620003f9565b50505f910152565b5f805f606084860312156200042e575f80fd5b6200043984620003c7565b92506200044960208501620003c7565b60408501519092506001600160401b038082111562000466575f80fd5b818601915086601f8301126200047a575f80fd5b8151818111156200048f576200048f620003e3565b604051601f8201601f19908116603f01168101908382118183101715620004ba57620004ba620003e3565b81604052828152896020848701011115620004d3575f80fd5b620004e6836020830160208801620003f7565b80955050505050509250925092565b5f825162000508818460208701620003f7565b9190910192915050565b602081525f825180602084015262000532816040850160208701620003f7565b601f01601f19169190910160400192915050565b61085f80620005545f395ff3fe60806040523661001357610011610017565b005b6100115b61001f610168565b6001600160a01b0316330361015e5760606001600160e01b03195f35166364d3180d60e11b81016100595761005261019a565b9150610156565b63587086bd60e11b6001600160e01b0319821601610079576100526101ed565b63070d7c6960e41b6001600160e01b031982160161009957610052610231565b621eb96f60e61b6001600160e01b03198216016100b857610052610261565b63a39f25e560e01b6001600160e01b03198216016100d8576100526102a0565b60405162461bcd60e51b815260206004820152604260248201527f5472616e73706172656e745570677261646561626c6550726f78793a2061646d60448201527f696e2063616e6e6f742066616c6c6261636b20746f2070726f78792074617267606482015261195d60f21b608482015260a4015b60405180910390fd5b815160208301f35b6101666102b3565b565b5f7fb53127684a568b3173ae13b9f8a6016e243e63b6e8ee1178d6a717850b5d61035b546001600160a01b0316919050565b60606101a46102c3565b5f6101b23660048184610668565b8101906101bf91906106aa565b90506101da8160405180602001604052805f8152505f6102cd565b505060408051602081019091525f815290565b60605f806101fe3660048184610668565b81019061020b91906106d7565b9150915061021b828260016102cd565b60405180602001604052805f8152509250505090565b606061023b6102c3565b5f6102493660048184610668565b81019061025691906106aa565b90506101da816102f8565b606061026b6102c3565b5f610274610168565b604080516001600160a01b03831660208201529192500160405160208183030381529060405291505090565b60606102aa6102c3565b5f61027461034f565b6101666102be61034f565b61035d565b3415610166575f80fd5b6102d68361037b565b5f825111806102e25750805b156102f3576102f183836103ba565b505b505050565b7f7e644d79422f17c01e4894b5f4f588d331ebfa28653d42ae832dc59e38c9798f610321610168565b604080516001600160a01b03928316815291841660208301520160405180910390a161034c816103e6565b50565b5f61035861048f565b905090565b365f80375f80365f845af43d5f803e808015610377573d5ff35b3d5ffd5b610384816104b6565b6040516001600160a01b038216907fbc7cd75a20ee27fd9adebab32041f755214dbc6bffa90cc0225b39da2e5c2d3b905f90a250565b60606103df83836040518060600160405280602781526020016108036027913961054a565b9392505050565b6001600160a01b03811661044b5760405162461bcd60e51b815260206004820152602660248201527f455243313936373a206e65772061646d696e20697320746865207a65726f206160448201526564647265737360d01b606482015260840161014d565b807fb53127684a568b3173ae13b9f8a6016e243e63b6e8ee1178d6a717850b5d61035b80546001600160a01b0319166001600160a01b039290921691909117905550565b5f7f360894a13ba1a3210667c828492db98dca3e2076cc3735a920a3ca505d382bbc61018b565b6001600160a01b0381163b6105235760405162461bcd60e51b815260206004820152602d60248201527f455243313936373a206e657720696d706c656d656e746174696f6e206973206e60448201526c1bdd08184818dbdb9d1c9858dd609a1b606482015260840161014d565b807f360894a13ba1a3210667c828492db98dca3e2076cc3735a920a3ca505d382bbc61046e565b60605f80856001600160a01b03168560405161056691906107b5565b5f60405180830381855af49150503d805f811461059e576040519150601f19603f3d011682016040523d82523d5f602084013e6105a3565b606091505b50915091506105b4868383876105be565b9695505050505050565b6060831561062c5782515f03610625576001600160a01b0385163b6106255760405162461bcd60e51b815260206004820152601d60248201527f416464726573733a2063616c6c20746f206e6f6e2d636f6e7472616374000000604482015260640161014d565b5081610636565b610636838361063e565b949350505050565b81511561064e5781518083602001fd5b8060405162461bcd60e51b815260040161014d91906107d0565b5f8085851115610676575f80fd5b83861115610682575f80fd5b5050820193919092039150565b80356001600160a01b03811681146106a5575f80fd5b919050565b5f602082840312156106ba575f80fd5b6103df8261068f565b634e487b7160e01b5f52604160045260245ffd5b5f80604083850312156106e8575f80fd5b6106f18361068f565b9150602083013567ffffffffffffffff8082111561070d575f80fd5b818501915085601f830112610720575f80fd5b813581811115610732576107326106c3565b604051601f8201601f19908116603f0116810190838211818310171561075a5761075a6106c3565b81604052828152886020848701011115610772575f80fd5b826020860160208301375f6020848301015280955050505050509250929050565b5f5b838110156107ad578181015183820152602001610795565b50505f910152565b5f82516107c6818460208701610793565b9190910192915050565b602081525f82518060208401526107ee816040850160208701610793565b601f01601f1916919091016040019291505056fe416464726573733a206c6f772d6c6576656c2064656c65676174652063616c6c206661696c6564a26469706673582212208b98574e6508d92199252794945bd2a09b9be85919c5029bcc658d2167243aed64736f6c63430008180033b53127684a568b3173ae13b9f8a6016e243e63b6e8ee1178d6a717850b5d6103416464726573733a206c6f772d6c6576656c2064656c65676174652063616c6c206661696c656400000000000000000000000043cb9d6acf1462356303079ea4fdd8bc30042a6a00000000000000000000000001bd47aa7b13a75c24e3da760f8a503c435bb4df000000000000000000000000000000000000000000000000000000000000006000000000000000000000000000000000000000000000000000000000000001a4c20a9ca500000000000000000000000001c5c0122039549ad1493b8220cabedd739bc44e000000000000000000000000de9e4c3ce781b4ba68120d6261cbad65ce0ab00b00000000000000000000000026eff54e2f0e8825996b83119b7df5ef2c882dd7000000000000000000000000a1a8003936862e7a15092a91898d69fa8bce290c00000000000000000000000000000000000000000000000000000000000000000000000000000000000000002738f38fde510743e0c589415e0598c4cee6eaa7000000000000000000000000000000000000000000000000000000000000000300000000000000000000000000000000000000000000000000000000000000020000000000000000000000002738f38fde510743e0c589415e0598c4cee6eaa70000000000000000000000002738f38fde510743e0c589415e0598c4cee6eaa7000000000000000000000000000000000000000000000000000000000000000100000000000000000000000000000000000000000000000000000000000013880000000000000000000000000000000000000000000000000000000000000d0500000000000000000000000000000000000000000000000000000000"
        }
      ],
      "isFixedGasLimit": false
    },
    {
      "hash": "0x80c527e9bc2123f304aecb88886c761a753a2ba757e04232377cc82f49ad3dbe",
      "transactionType": "CALL",
      "contractName": null,
      "contractAddress": "0x01c5c0122039549ad1493b8220cabedd739bc44e",
      "function": "transfer(address,uint256)",
      "arguments": [
        "0x7109E0A9B4623e90755b7e5c4e10F089E5Bf8bDb",
        "1000040"
      ],
      "transaction": {
        "from": "0x2738f38fde510743e0c589415e0598c4cee6eaa7",
        "to": "0x01c5c0122039549ad1493b8220cabedd739bc44e",
        "gas": "0x14f5f",
        "value": "0x0",
        "input": "0xa9059cbb0000000000000000000000007109e0a9b4623e90755b7e5c4e10f089e5bf8bdb00000000000000000000000000000000000000000000000000000000000f4268",
        "nonce": "0xa1",
        "chainId": "0xaa044c"
      },
      "additionalContracts": [],
      "isFixedGasLimit": false
    },
    {
      "hash": "0x67fa5032dad990b08022485ccd62190dd3913fa2600cc96756407b4e1099d723",
      "transactionType": "CALL",
      "contractName": null,
      "contractAddress": "0xde9e4c3ce781b4ba68120d6261cbad65ce0ab00b",
      "function": "transfer(address,uint256)",
      "arguments": [
        "0x7109E0A9B4623e90755b7e5c4e10F089E5Bf8bDb",
        "1000000000000000000"
      ],
      "transaction": {
        "from": "0x2738f38fde510743e0c589415e0598c4cee6eaa7",
        "to": "0xde9e4c3ce781b4ba68120d6261cbad65ce0ab00b",
        "gas": "0x1448b",
        "value": "0x0",
        "input": "0xa9059cbb0000000000000000000000007109e0a9b4623e90755b7e5c4e10f089e5bf8bdb0000000000000000000000000000000000000000000000000de0b6b3a7640000",
        "nonce": "0xa2",
        "chainId": "0xaa044c"
      },
      "additionalContracts": [],
      "isFixedGasLimit": false
    },
    {
      "hash": "0x1df80ef22b00ad66d4171fe829ea8e0091e0b8fa974f5a3fe20954ac7508773f",
      "transactionType": "CALL",
      "contractName": "FPMMProxy",
      "contractAddress": "0x7109e0a9b4623e90755b7e5c4e10f089e5bf8bdb",
      "function": null,
      "arguments": null,
      "transaction": {
        "from": "0x2738f38fde510743e0c589415e0598c4cee6eaa7",
        "to": "0x7109e0a9b4623e90755b7e5c4e10f089e5bf8bdb",
        "gas": "0x50760",
        "value": "0x0",
        "input": "0x6a6278420000000000000000000000002738f38fde510743e0c589415e0598c4cee6eaa7",
        "nonce": "0xa3",
        "chainId": "0xaa044c"
      },
      "additionalContracts": [],
      "isFixedGasLimit": false
    },
    {
      "hash": "0x1c16914cacb2409a4705d03bb43740822c846a954227cfa46fadc3b38b3077fd",
      "transactionType": "CALL",
      "contractName": "FPMMProxy",
      "contractAddress": "0x7109e0a9b4623e90755b7e5c4e10f089e5bf8bdb",
      "function": null,
      "arguments": null,
      "transaction": {
        "from": "0x2738f38fde510743e0c589415e0598c4cee6eaa7",
        "to": "0x7109e0a9b4623e90755b7e5c4e10f089e5bf8bdb",
        "gas": "0x19633",
        "value": "0x0",
        "input": "0xda7ddb8f00000000000000000000000001c5c0122039549ad1493b8220cabedd739bc44e000000000000000000000000000000000000000000000000000000746a528800000000000000000000000000000000000000000000000000000000e8d4a51000",
        "nonce": "0xa4",
        "chainId": "0xaa044c"
      },
      "additionalContracts": [],
      "isFixedGasLimit": false
    },
    {
      "hash": "0xb24967170c2eecc29a0040ddc0159da8151fec194786967c62d528fcfbaaa583",
      "transactionType": "CALL",
      "contractName": "FPMMProxy",
      "contractAddress": "0x7109e0a9b4623e90755b7e5c4e10f089e5bf8bdb",
      "function": null,
      "arguments": null,
      "transaction": {
        "from": "0x2738f38fde510743e0c589415e0598c4cee6eaa7",
        "to": "0x7109e0a9b4623e90755b7e5c4e10f089e5bf8bdb",
        "gas": "0x18ce4",
        "value": "0x0",
        "input": "0xda7ddb8f000000000000000000000000de9e4c3ce781b4ba68120d6261cbad65ce0ab00b0000000000000000000000000000000000000000000069e10de76676d080000000000000000000000000000000000000000000000000d3c21bcecceda1000000",
        "nonce": "0xa5",
        "chainId": "0xaa044c"
      },
      "additionalContracts": [],
      "isFixedGasLimit": false
    },
    {
      "hash": "0xdaa672a09e7cf81917ecdaa5cbdcb6dca75d0eb83039b6bffe19e5153522397c",
      "transactionType": "CALL",
      "contractName": null,
      "contractAddress": "0xbcdc1d0b92dfceeaa0fcd0a0d53355f4bf1db8a7",
      "function": "registerCollateralAsset(address)",
      "arguments": [
        "0x01C5C0122039549AD1493B8220cABEdD739BC44E"
      ],
      "transaction": {
        "from": "0x2738f38fde510743e0c589415e0598c4cee6eaa7",
        "to": "0xbcdc1d0b92dfceeaa0fcd0a0d53355f4bf1db8a7",
        "gas": "0x1af11",
        "value": "0x0",
        "input": "0x40a2403700000000000000000000000001c5c0122039549ad1493b8220cabedd739bc44e",
        "nonce": "0xa6",
        "chainId": "0xaa044c"
      },
      "additionalContracts": [],
      "isFixedGasLimit": false
    },
    {
      "hash": "0x97ebcf804b65cb1d550d3fa7fdd704cecd9327e558dbdd64c204338971293aac",
      "transactionType": "CALL",
      "contractName": "FPMMProxy",
      "contractAddress": "0x7109e0a9b4623e90755b7e5c4e10f089e5bf8bdb",
      "function": null,
      "arguments": null,
      "transaction": {
        "from": "0x2738f38fde510743e0c589415e0598c4cee6eaa7",
        "to": "0x7109e0a9b4623e90755b7e5c4e10f089e5bf8bdb",
        "gas": "0x12961",
        "value": "0x0",
        "input": "0xcce441a3000000000000000000000000734bb3251ec3f1a83f8f2a8609bcef649d54ebf80000000000000000000000000000000000000000000000000000000000000001",
        "nonce": "0xa7",
        "chainId": "0xaa044c"
      },
      "additionalContracts": [],
      "isFixedGasLimit": false
    },
    {
      "hash": "0xbdfbdf257d62d48a4587bb5d2f604f55e7cf7775ae1f49378ee4f0535df02b00",
      "transactionType": "CALL",
      "contractName": null,
      "contractAddress": "0x734bb3251ec3f1a83f8f2a8609bcef649d54ebf8",
      "function": "addPool((address,address,uint32,address,uint64,uint64,uint64,uint64))",
      "arguments": [
        "(0x7109E0A9B4623e90755b7e5c4e10F089E5Bf8bDb, 0xdE9e4C3ce781b4bA68120d6261cbad65ce0aB00b, 300, 0x2738F38Fde510743e0c589415E0598C4ceE6eAa7, 0, 0, 0, 0)"
      ],
      "transaction": {
        "from": "0x2738f38fde510743e0c589415e0598c4cee6eaa7",
        "to": "0x734bb3251ec3f1a83f8f2a8609bcef649d54ebf8",
        "gas": "0x2e26f",
        "value": "0x0",
        "input": "0x2d3d36380000000000000000000000007109e0a9b4623e90755b7e5c4e10f089e5bf8bdb000000000000000000000000de9e4c3ce781b4ba68120d6261cbad65ce0ab00b000000000000000000000000000000000000000000000000000000000000012c0000000000000000000000002738f38fde510743e0c589415e0598c4cee6eaa70000000000000000000000000000000000000000000000000000000000000000000000000000000000000000000000000000000000000000000000000000000000000000000000000000000000000000000000000000000000000000000000000000000000000000000000000000000000000000000000000000000000000000",
        "nonce": "0xa8",
        "chainId": "0xaa044c"
      },
      "additionalContracts": [],
      "isFixedGasLimit": false
    },
    {
      "hash": "0xa781802dc865a01c77f438e6a0fe7569ebf43a699861f216891a9263f12154f1",
      "transactionType": "CALL",
      "contractName": null,
      "contractAddress": "0x353ed52bf8482027c0e0b9e3c0e5d96a9f680980",
      "function": "deployFPMM(address,address,address,address,address,address,address,bool,(uint256,uint256,address,address,uint256,uint256,uint256))",
      "arguments": [
        "0x43cB9D6AcF1462356303079EA4FDd8bc30042a6A",
        "0x26eFF54e2f0E8825996b83119b7Df5ef2C882dD7",
        "0x01bd47aa7B13a75c24E3dA760f8A503c435BB4Df",
        "0x2738F38Fde510743e0c589415E0598C4ceE6eAa7",
        "0xd077A400968890Eacc75cdc901F0356c943e4fDb",
        "0xdE9e4C3ce781b4bA68120d6261cbad65ce0aB00b",
        "0xE06C10C63377cD098b589c0b90314bFb55751558",
        "false",
        "(3, 2, 0x2738F38Fde510743e0c589415E0598C4ceE6eAa7, 0x2738F38Fde510743e0c589415E0598C4ceE6eAa7, 1, 5000, 3333)"
      ],
      "transaction": {
        "from": "0x2738f38fde510743e0c589415e0598c4cee6eaa7",
        "to": "0x353ed52bf8482027c0e0b9e3c0e5d96a9f680980",
        "gas": "0x1aeb88",
        "value": "0x0",
        "input": "0x098a676e00000000000000000000000043cb9d6acf1462356303079ea4fdd8bc30042a6a00000000000000000000000026eff54e2f0e8825996b83119b7df5ef2c882dd700000000000000000000000001bd47aa7b13a75c24e3da760f8a503c435bb4df0000000000000000000000002738f38fde510743e0c589415e0598c4cee6eaa7000000000000000000000000d077a400968890eacc75cdc901f0356c943e4fdb000000000000000000000000de9e4c3ce781b4ba68120d6261cbad65ce0ab00b000000000000000000000000e06c10c63377cd098b589c0b90314bfb557515580000000000000000000000000000000000000000000000000000000000000000000000000000000000000000000000000000000000000000000000000000000300000000000000000000000000000000000000000000000000000000000000020000000000000000000000002738f38fde510743e0c589415e0598c4cee6eaa70000000000000000000000002738f38fde510743e0c589415e0598c4cee6eaa7000000000000000000000000000000000000000000000000000000000000000100000000000000000000000000000000000000000000000000000000000013880000000000000000000000000000000000000000000000000000000000000d05",
        "nonce": "0xa9",
        "chainId": "0xaa044c"
      },
      "additionalContracts": [
        {
          "transactionType": "CREATE2",
          "contractName": null,
          "address": "0x59bad734462c92fa251a4d8d22f3ae779f9f3b11",
          "initCode": "0x67363d3d37363d34f03d5260086018f3"
        },
        {
          "transactionType": "CREATE",
          "contractName": "FPMMProxy",
          "address": "0xd1a70f43b2a95384dd2a7d7b259293328b3974f8",
          "initCode": "0x608060405260405162000dfa38038062000dfa83398101604081905262000026916200041b565b82828282816200003882825f62000052565b506200004690508262000083565b50505050505062000546565b6200005d83620000f4565b5f825111806200006a5750805b156200007e576200007c838362000135565b505b505050565b7f7e644d79422f17c01e4894b5f4f588d331ebfa28653d42ae832dc59e38c9798f620000c45f8051602062000db3833981519152546001600160a01b031690565b604080516001600160a01b03928316815291841660208301520160405180910390a1620000f18162000164565b50565b620000ff8162000201565b6040516001600160a01b038216907fbc7cd75a20ee27fd9adebab32041f755214dbc6bffa90cc0225b39da2e5c2d3b905f90a250565b60606200015d838360405180606001604052806027815260200162000dd36027913962000298565b9392505050565b6001600160a01b038116620001cf5760405162461bcd60e51b815260206004820152602660248201527f455243313936373a206e65772061646d696e20697320746865207a65726f206160448201526564647265737360d01b60648201526084015b60405180910390fd5b805f8051602062000db38339815191525b80546001600160a01b0319166001600160a01b039290921691909117905550565b6001600160a01b0381163b620002705760405162461bcd60e51b815260206004820152602d60248201527f455243313936373a206e657720696d706c656d656e746174696f6e206973206e60448201526c1bdd08184818dbdb9d1c9858dd609a1b6064820152608401620001c6565b807f360894a13ba1a3210667c828492db98dca3e2076cc3735a920a3ca505d382bbc620001e0565b60605f80856001600160a01b031685604051620002b69190620004f5565b5f60405180830381855af49150503d805f8114620002f0576040519150601f19603f3d011682016040523d82523d5f602084013e620002f5565b606091505b509092509050620003098683838762000313565b9695505050505050565b60608315620003865782515f036200037e576001600160a01b0385163b6200037e5760405162461bcd60e51b815260206004820152601d60248201527f416464726573733a2063616c6c20746f206e6f6e2d636f6e74726163740000006044820152606401620001c6565b508162000392565b6200039283836200039a565b949350505050565b815115620003ab5781518083602001fd5b8060405162461bcd60e51b8152600401620001c6919062000512565b80516001600160a01b0381168114620003de575f80fd5b919050565b634e487b7160e01b5f52604160045260245ffd5b5f5b8381101562000413578181015183820152602001620003f9565b50505f910152565b5f805f606084860312156200042e575f80fd5b6200043984620003c7565b92506200044960208501620003c7565b60408501519092506001600160401b038082111562000466575f80fd5b818601915086601f8301126200047a575f80fd5b8151818111156200048f576200048f620003e3565b604051601f8201601f19908116603f01168101908382118183101715620004ba57620004ba620003e3565b81604052828152896020848701011115620004d3575f80fd5b620004e6836020830160208801620003f7565b80955050505050509250925092565b5f825162000508818460208701620003f7565b9190910192915050565b602081525f825180602084015262000532816040850160208701620003f7565b601f01601f19169190910160400192915050565b61085f80620005545f395ff3fe60806040523661001357610011610017565b005b6100115b61001f610168565b6001600160a01b0316330361015e5760606001600160e01b03195f35166364d3180d60e11b81016100595761005261019a565b9150610156565b63587086bd60e11b6001600160e01b0319821601610079576100526101ed565b63070d7c6960e41b6001600160e01b031982160161009957610052610231565b621eb96f60e61b6001600160e01b03198216016100b857610052610261565b63a39f25e560e01b6001600160e01b03198216016100d8576100526102a0565b60405162461bcd60e51b815260206004820152604260248201527f5472616e73706172656e745570677261646561626c6550726f78793a2061646d60448201527f696e2063616e6e6f742066616c6c6261636b20746f2070726f78792074617267606482015261195d60f21b608482015260a4015b60405180910390fd5b815160208301f35b6101666102b3565b565b5f7fb53127684a568b3173ae13b9f8a6016e243e63b6e8ee1178d6a717850b5d61035b546001600160a01b0316919050565b60606101a46102c3565b5f6101b23660048184610668565b8101906101bf91906106aa565b90506101da8160405180602001604052805f8152505f6102cd565b505060408051602081019091525f815290565b60605f806101fe3660048184610668565b81019061020b91906106d7565b9150915061021b828260016102cd565b60405180602001604052805f8152509250505090565b606061023b6102c3565b5f6102493660048184610668565b81019061025691906106aa565b90506101da816102f8565b606061026b6102c3565b5f610274610168565b604080516001600160a01b03831660208201529192500160405160208183030381529060405291505090565b60606102aa6102c3565b5f61027461034f565b6101666102be61034f565b61035d565b3415610166575f80fd5b6102d68361037b565b5f825111806102e25750805b156102f3576102f183836103ba565b505b505050565b7f7e644d79422f17c01e4894b5f4f588d331ebfa28653d42ae832dc59e38c9798f610321610168565b604080516001600160a01b03928316815291841660208301520160405180910390a161034c816103e6565b50565b5f61035861048f565b905090565b365f80375f80365f845af43d5f803e808015610377573d5ff35b3d5ffd5b610384816104b6565b6040516001600160a01b038216907fbc7cd75a20ee27fd9adebab32041f755214dbc6bffa90cc0225b39da2e5c2d3b905f90a250565b60606103df83836040518060600160405280602781526020016108036027913961054a565b9392505050565b6001600160a01b03811661044b5760405162461bcd60e51b815260206004820152602660248201527f455243313936373a206e65772061646d696e20697320746865207a65726f206160448201526564647265737360d01b606482015260840161014d565b807fb53127684a568b3173ae13b9f8a6016e243e63b6e8ee1178d6a717850b5d61035b80546001600160a01b0319166001600160a01b039290921691909117905550565b5f7f360894a13ba1a3210667c828492db98dca3e2076cc3735a920a3ca505d382bbc61018b565b6001600160a01b0381163b6105235760405162461bcd60e51b815260206004820152602d60248201527f455243313936373a206e657720696d706c656d656e746174696f6e206973206e60448201526c1bdd08184818dbdb9d1c9858dd609a1b606482015260840161014d565b807f360894a13ba1a3210667c828492db98dca3e2076cc3735a920a3ca505d382bbc61046e565b60605f80856001600160a01b03168560405161056691906107b5565b5f60405180830381855af49150503d805f811461059e576040519150601f19603f3d011682016040523d82523d5f602084013e6105a3565b606091505b50915091506105b4868383876105be565b9695505050505050565b6060831561062c5782515f03610625576001600160a01b0385163b6106255760405162461bcd60e51b815260206004820152601d60248201527f416464726573733a2063616c6c20746f206e6f6e2d636f6e7472616374000000604482015260640161014d565b5081610636565b610636838361063e565b949350505050565b81511561064e5781518083602001fd5b8060405162461bcd60e51b815260040161014d91906107d0565b5f8085851115610676575f80fd5b83861115610682575f80fd5b5050820193919092039150565b80356001600160a01b03811681146106a5575f80fd5b919050565b5f602082840312156106ba575f80fd5b6103df8261068f565b634e487b7160e01b5f52604160045260245ffd5b5f80604083850312156106e8575f80fd5b6106f18361068f565b9150602083013567ffffffffffffffff8082111561070d575f80fd5b818501915085601f830112610720575f80fd5b813581811115610732576107326106c3565b604051601f8201601f19908116603f0116810190838211818310171561075a5761075a6106c3565b81604052828152886020848701011115610772575f80fd5b826020860160208301375f6020848301015280955050505050509250929050565b5f5b838110156107ad578181015183820152602001610795565b50505f910152565b5f82516107c6818460208701610793565b9190910192915050565b602081525f82518060208401526107ee816040850160208701610793565b601f01601f1916919091016040019291505056fe416464726573733a206c6f772d6c6576656c2064656c65676174652063616c6c206661696c6564a26469706673582212208b98574e6508d92199252794945bd2a09b9be85919c5029bcc658d2167243aed64736f6c63430008180033b53127684a568b3173ae13b9f8a6016e243e63b6e8ee1178d6a717850b5d6103416464726573733a206c6f772d6c6576656c2064656c65676174652063616c6c206661696c656400000000000000000000000043cb9d6acf1462356303079ea4fdd8bc30042a6a00000000000000000000000001bd47aa7b13a75c24e3da760f8a503c435bb4df000000000000000000000000000000000000000000000000000000000000006000000000000000000000000000000000000000000000000000000000000001a4c20a9ca5000000000000000000000000d077a400968890eacc75cdc901f0356c943e4fdb000000000000000000000000de9e4c3ce781b4ba68120d6261cbad65ce0ab00b00000000000000000000000026eff54e2f0e8825996b83119b7df5ef2c882dd7000000000000000000000000e06c10c63377cd098b589c0b90314bfb5575155800000000000000000000000000000000000000000000000000000000000000000000000000000000000000002738f38fde510743e0c589415e0598c4cee6eaa7000000000000000000000000000000000000000000000000000000000000000300000000000000000000000000000000000000000000000000000000000000020000000000000000000000002738f38fde510743e0c589415e0598c4cee6eaa70000000000000000000000002738f38fde510743e0c589415e0598c4cee6eaa7000000000000000000000000000000000000000000000000000000000000000100000000000000000000000000000000000000000000000000000000000013880000000000000000000000000000000000000000000000000000000000000d0500000000000000000000000000000000000000000000000000000000"
        }
      ],
      "isFixedGasLimit": false
    },
    {
      "hash": "0xb76b9944d8ebf444db942b26eefd069cb4fce8889dc603fc601c0f52f7e02e0b",
      "transactionType": "CALL",
      "contractName": null,
      "contractAddress": "0xd077a400968890eacc75cdc901f0356c943e4fdb",
      "function": "transfer(address,uint256)",
      "arguments": [
        "0xd1a70F43B2A95384DD2a7D7b259293328B3974f8",
        "1000095"
      ],
      "transaction": {
        "from": "0x2738f38fde510743e0c589415e0598c4cee6eaa7",
        "to": "0xd077a400968890eacc75cdc901f0356c943e4fdb",
        "gas": "0x14897",
        "value": "0x0",
        "input": "0xa9059cbb000000000000000000000000d1a70f43b2a95384dd2a7d7b259293328b3974f800000000000000000000000000000000000000000000000000000000000f429f",
        "nonce": "0xaa",
        "chainId": "0xaa044c"
      },
      "additionalContracts": [],
      "isFixedGasLimit": false
    },
    {
      "hash": "0x4a8985ab46327df6f1c4ecb1b338eb113b7211a69cce7c372234cbba1ebd661b",
      "transactionType": "CALL",
      "contractName": null,
      "contractAddress": "0xde9e4c3ce781b4ba68120d6261cbad65ce0ab00b",
      "function": "transfer(address,uint256)",
      "arguments": [
        "0xd1a70F43B2A95384DD2a7D7b259293328B3974f8",
        "1000000000000000000"
      ],
      "transaction": {
        "from": "0x2738f38fde510743e0c589415e0598c4cee6eaa7",
        "to": "0xde9e4c3ce781b4ba68120d6261cbad65ce0ab00b",
        "gas": "0x1448b",
        "value": "0x0",
        "input": "0xa9059cbb000000000000000000000000d1a70f43b2a95384dd2a7d7b259293328b3974f80000000000000000000000000000000000000000000000000de0b6b3a7640000",
        "nonce": "0xab",
        "chainId": "0xaa044c"
      },
      "additionalContracts": [],
      "isFixedGasLimit": false
    },
    {
      "hash": "0x9580b3c7eece3cb97d56ca0eedb1a252bc5bb2989dd3c55d1de947552cb0ea41",
      "transactionType": "CALL",
      "contractName": "FPMMProxy",
      "contractAddress": "0xd1a70f43b2a95384dd2a7d7b259293328b3974f8",
      "function": null,
      "arguments": null,
      "transaction": {
        "from": "0x2738f38fde510743e0c589415e0598c4cee6eaa7",
        "to": "0xd1a70f43b2a95384dd2a7d7b259293328b3974f8",
        "gas": "0x4bfeb",
        "value": "0x0",
        "input": "0x6a6278420000000000000000000000002738f38fde510743e0c589415e0598c4cee6eaa7",
        "nonce": "0xac",
        "chainId": "0xaa044c"
      },
      "additionalContracts": [],
      "isFixedGasLimit": false
    },
    {
      "hash": "0xee52c3c86e9b7dd238e55a7e1b56c0c4c2e79a5b88baa2dd6e91802717432f66",
      "transactionType": "CALL",
      "contractName": "FPMMProxy",
      "contractAddress": "0xd1a70f43b2a95384dd2a7d7b259293328b3974f8",
      "function": null,
      "arguments": null,
      "transaction": {
        "from": "0x2738f38fde510743e0c589415e0598c4cee6eaa7",
        "to": "0xd1a70f43b2a95384dd2a7d7b259293328b3974f8",
        "gas": "0x195da",
        "value": "0x0",
        "input": "0xda7ddb8f000000000000000000000000d077a400968890eacc75cdc901f0356c943e4fdb000000000000000000000000000000000000000000000000000000746a528800000000000000000000000000000000000000000000000000000000e8d4a51000",
        "nonce": "0xad",
        "chainId": "0xaa044c"
      },
      "additionalContracts": [],
      "isFixedGasLimit": false
    },
    {
      "hash": "0x4285515d62041acaf5cad0d90f8143084285343e4fd7535c007a53b39dffe886",
      "transactionType": "CALL",
      "contractName": "FPMMProxy",
      "contractAddress": "0xd1a70f43b2a95384dd2a7d7b259293328b3974f8",
      "function": null,
      "arguments": null,
      "transaction": {
        "from": "0x2738f38fde510743e0c589415e0598c4cee6eaa7",
        "to": "0xd1a70f43b2a95384dd2a7d7b259293328b3974f8",
        "gas": "0x18ce4",
        "value": "0x0",
        "input": "0xda7ddb8f000000000000000000000000de9e4c3ce781b4ba68120d6261cbad65ce0ab00b0000000000000000000000000000000000000000000069e10de76676d080000000000000000000000000000000000000000000000000d3c21bcecceda1000000",
        "nonce": "0xae",
        "chainId": "0xaa044c"
      },
      "additionalContracts": [],
      "isFixedGasLimit": false
    },
    {
      "hash": "0x9950059806bc9f31f2fcaaf59020f7c7fab3d901f925467b8367874192375776",
      "transactionType": "CALL",
      "contractName": null,
      "contractAddress": "0xbcdc1d0b92dfceeaa0fcd0a0d53355f4bf1db8a7",
      "function": "registerCollateralAsset(address)",
      "arguments": [
        "0xd077A400968890Eacc75cdc901F0356c943e4fDb"
      ],
      "transaction": {
        "from": "0x2738f38fde510743e0c589415e0598c4cee6eaa7",
        "to": "0xbcdc1d0b92dfceeaa0fcd0a0d53355f4bf1db8a7",
        "gas": "0x1c85b",
        "value": "0x0",
        "input": "0x40a24037000000000000000000000000d077a400968890eacc75cdc901f0356c943e4fdb",
        "nonce": "0xaf",
        "chainId": "0xaa044c"
      },
      "additionalContracts": [],
      "isFixedGasLimit": false
    },
    {
      "hash": "0x55f4d645ddd522f96063b189e98da3572230a68719d42546e2a7a9da1017a482",
      "transactionType": "CALL",
      "contractName": "FPMMProxy",
      "contractAddress": "0xd1a70f43b2a95384dd2a7d7b259293328b3974f8",
      "function": null,
      "arguments": null,
      "transaction": {
        "from": "0x2738f38fde510743e0c589415e0598c4cee6eaa7",
        "to": "0xd1a70f43b2a95384dd2a7d7b259293328b3974f8",
        "gas": "0x12961",
        "value": "0x0",
        "input": "0xcce441a3000000000000000000000000734bb3251ec3f1a83f8f2a8609bcef649d54ebf80000000000000000000000000000000000000000000000000000000000000001",
        "nonce": "0xb0",
        "chainId": "0xaa044c"
      },
      "additionalContracts": [],
      "isFixedGasLimit": false
    },
    {
      "hash": "0x701308f4872bab421c7c8d458e94b91002eea42a4c7690347ade4ecb14020bf1",
      "transactionType": "CALL",
      "contractName": null,
      "contractAddress": "0x734bb3251ec3f1a83f8f2a8609bcef649d54ebf8",
      "function": "addPool((address,address,uint32,address,uint64,uint64,uint64,uint64))",
      "arguments": [
        "(0xd1a70F43B2A95384DD2a7D7b259293328B3974f8, 0xdE9e4C3ce781b4bA68120d6261cbad65ce0aB00b, 300, 0x2738F38Fde510743e0c589415E0598C4ceE6eAa7, 0, 0, 0, 0)"
      ],
      "transaction": {
        "from": "0x2738f38fde510743e0c589415e0598c4cee6eaa7",
        "to": "0x734bb3251ec3f1a83f8f2a8609bcef649d54ebf8",
        "gas": "0x2e26f",
        "value": "0x0",
        "input": "0x2d3d3638000000000000000000000000d1a70f43b2a95384dd2a7d7b259293328b3974f8000000000000000000000000de9e4c3ce781b4ba68120d6261cbad65ce0ab00b000000000000000000000000000000000000000000000000000000000000012c0000000000000000000000002738f38fde510743e0c589415e0598c4cee6eaa70000000000000000000000000000000000000000000000000000000000000000000000000000000000000000000000000000000000000000000000000000000000000000000000000000000000000000000000000000000000000000000000000000000000000000000000000000000000000000000000000000000000000000",
        "nonce": "0xb1",
        "chainId": "0xaa044c"
      },
      "additionalContracts": [],
      "isFixedGasLimit": false
    }
  ],
  "receipts": [
    {
      "status": "0x1",
      "cumulativeGasUsed": "0x15aca8",
      "logs": [
        {
          "address": "0xba5ed099633d3b313e4d5f7bdc1305d3c28ba5ed",
          "topics": [
            "0x2feea65dd4e9f9cbd86b74b7734210c59a1b2981b5b137bd0ee3e208200c9067",
            "0x000000000000000000000000d9e9e6f6b5298e8bad390f7748035c49d6eeb055",
            "0x8a1ee54d054a1d1ec047f2ae643d579b62cc4fef8189ef62d6e64e5188df9f6c"
          ],
          "data": "0x",
          "blockHash": "0xdcc6f588ad8abfd863ddc0f7f8bc0f9dcad431d10882d45e43a2af319c88e1a1",
          "blockNumber": "0x124c533",
          "transactionHash": "0x4160f2b23b859cacbfd3857cb9c7e6c21c63f478b7268a6e470ff5d654b519be",
          "transactionIndex": "0x2",
          "logIndex": "0x1",
          "removed": false
        },
        {
          "address": "0x550d9ecb4c373510b8a41f5fb7d98e9e1c51a07e",
          "topics": [
            "0xbc7cd75a20ee27fd9adebab32041f755214dbc6bffa90cc0225b39da2e5c2d3b",
            "0x00000000000000000000000043cb9d6acf1462356303079ea4fdd8bc30042a6a"
          ],
          "data": "0x",
          "blockHash": "0xdcc6f588ad8abfd863ddc0f7f8bc0f9dcad431d10882d45e43a2af319c88e1a1",
          "blockNumber": "0x124c533",
          "transactionHash": "0x4160f2b23b859cacbfd3857cb9c7e6c21c63f478b7268a6e470ff5d654b519be",
          "transactionIndex": "0x2",
          "logIndex": "0x2",
          "removed": false
        },
        {
          "address": "0x550d9ecb4c373510b8a41f5fb7d98e9e1c51a07e",
          "topics": [
            "0x8be0079c531659141344cd1fd0a4f28419497f9722a3daafe3b4186f6b6457e0",
            "0x0000000000000000000000000000000000000000000000000000000000000000",
            "0x000000000000000000000000d9e9e6f6b5298e8bad390f7748035c49d6eeb055"
          ],
          "data": "0x",
          "blockHash": "0xdcc6f588ad8abfd863ddc0f7f8bc0f9dcad431d10882d45e43a2af319c88e1a1",
          "blockNumber": "0x124c533",
          "transactionHash": "0x4160f2b23b859cacbfd3857cb9c7e6c21c63f478b7268a6e470ff5d654b519be",
          "transactionIndex": "0x2",
          "logIndex": "0x3",
          "removed": false
        },
        {
          "address": "0x550d9ecb4c373510b8a41f5fb7d98e9e1c51a07e",
          "topics": [
            "0xb5d5dda8af4f1e40a5cc4aa66c39ca5aac7f90947261313b07527eb3bdd98bc7"
          ],
          "data": "0x00000000000000000000000000000000000000000000000000000000000000000000000000000000000000000000000000000000000000000000000000000014",
          "blockHash": "0xdcc6f588ad8abfd863ddc0f7f8bc0f9dcad431d10882d45e43a2af319c88e1a1",
          "blockNumber": "0x124c533",
          "transactionHash": "0x4160f2b23b859cacbfd3857cb9c7e6c21c63f478b7268a6e470ff5d654b519be",
          "transactionIndex": "0x2",
          "logIndex": "0x4",
          "removed": false
        },
        {
          "address": "0x550d9ecb4c373510b8a41f5fb7d98e9e1c51a07e",
          "topics": [
            "0xd3890fc76afcfc31cba1dcf2c27b50e2541e4d75039c981855b5b5e03682aea0",
            "0x0000000000000000000000000000000000000000000000000000000000000000",
            "0x0000000000000000000000002738f38fde510743e0c589415e0598c4cee6eaa7"
          ],
          "data": "0x",
          "blockHash": "0xdcc6f588ad8abfd863ddc0f7f8bc0f9dcad431d10882d45e43a2af319c88e1a1",
          "blockNumber": "0x124c533",
          "transactionHash": "0x4160f2b23b859cacbfd3857cb9c7e6c21c63f478b7268a6e470ff5d654b519be",
          "transactionIndex": "0x2",
          "logIndex": "0x5",
          "removed": false
        },
        {
          "address": "0x550d9ecb4c373510b8a41f5fb7d98e9e1c51a07e",
          "topics": [
            "0xb404cac19fb1cbeff98d325795b08886e3cd8fe8cb1a2f193aac66f13fb239c3"
          ],
          "data": "0x0000000000000000000000000000000000000000000000000000000000000000000000000000000000000000000000000000000000000000000000000000000a",
          "blockHash": "0xdcc6f588ad8abfd863ddc0f7f8bc0f9dcad431d10882d45e43a2af319c88e1a1",
          "blockNumber": "0x124c533",
          "transactionHash": "0x4160f2b23b859cacbfd3857cb9c7e6c21c63f478b7268a6e470ff5d654b519be",
          "transactionIndex": "0x2",
          "logIndex": "0x6",
          "removed": false
        },
        {
          "address": "0x550d9ecb4c373510b8a41f5fb7d98e9e1c51a07e",
          "topics": [
            "0xb273226859e3e49fd86c9ac8f721eaa74e677de0877db704918e0f43ec8d23bc"
          ],
          "data": "0x00000000000000000000000000000000000000000000000000000000000000000000000000000000000000000000000000000000000000000000000000000006",
          "blockHash": "0xdcc6f588ad8abfd863ddc0f7f8bc0f9dcad431d10882d45e43a2af319c88e1a1",
          "blockNumber": "0x124c533",
          "transactionHash": "0x4160f2b23b859cacbfd3857cb9c7e6c21c63f478b7268a6e470ff5d654b519be",
          "transactionIndex": "0x2",
          "logIndex": "0x7",
          "removed": false
        },
        {
          "address": "0x550d9ecb4c373510b8a41f5fb7d98e9e1c51a07e",
          "topics": [
            "0x77c5ddba87b3d3f970242eda9bb1263ade9e4aed3eca233d5fa1af00a574b025"
          ],
          "data": "0x0000000000000000000000000000000000000000000000000000000000000000000000000000000000000000000000000000000000000000000000000000000000000000000000000000000000000000000000000000000000000000000013880000000000000000000000000000000000000000000000000000000000000d05",
          "blockHash": "0xdcc6f588ad8abfd863ddc0f7f8bc0f9dcad431d10882d45e43a2af319c88e1a1",
          "blockNumber": "0x124c533",
          "transactionHash": "0x4160f2b23b859cacbfd3857cb9c7e6c21c63f478b7268a6e470ff5d654b519be",
          "transactionIndex": "0x2",
          "logIndex": "0x8",
          "removed": false
        },
        {
          "address": "0x550d9ecb4c373510b8a41f5fb7d98e9e1c51a07e",
          "topics": [
            "0xe4630e6e66d263636ccf946c97182b0edb7bbea539a79dfa121bab7444e83b79",
            "0x0000000000000000000000000000000000000000000000000000000000000000",
            "0x00000000000000000000000026eff54e2f0e8825996b83119b7df5ef2c882dd7"
          ],
          "data": "0x",
          "blockHash": "0xdcc6f588ad8abfd863ddc0f7f8bc0f9dcad431d10882d45e43a2af319c88e1a1",
          "blockNumber": "0x124c533",
          "transactionHash": "0x4160f2b23b859cacbfd3857cb9c7e6c21c63f478b7268a6e470ff5d654b519be",
          "transactionIndex": "0x2",
          "logIndex": "0x9",
          "removed": false
        },
        {
          "address": "0x550d9ecb4c373510b8a41f5fb7d98e9e1c51a07e",
          "topics": [
            "0xc1ba25a60afffd747fd25304e169131b7ae93932f7f3e508a8cec0e18fa12842",
            "0x0000000000000000000000000000000000000000000000000000000000000000",
            "0x000000000000000000000000ae5eee6815b8529847955d19522858806bca8217"
          ],
          "data": "0x",
          "blockHash": "0xdcc6f588ad8abfd863ddc0f7f8bc0f9dcad431d10882d45e43a2af319c88e1a1",
          "blockNumber": "0x124c533",
          "transactionHash": "0x4160f2b23b859cacbfd3857cb9c7e6c21c63f478b7268a6e470ff5d654b519be",
          "transactionIndex": "0x2",
          "logIndex": "0xa",
          "removed": false
        },
        {
          "address": "0x550d9ecb4c373510b8a41f5fb7d98e9e1c51a07e",
          "topics": [
            "0x00af8726a3679feb41b28b0996e403259aceb28ec6f3c6c3dc7a4c4fe6c8fce1"
          ],
          "data": "0x00000000000000000000000000000000000000000000000000000000000000000000000000000000000000000000000000000000000000000000000000000000",
          "blockHash": "0xdcc6f588ad8abfd863ddc0f7f8bc0f9dcad431d10882d45e43a2af319c88e1a1",
          "blockNumber": "0x124c533",
          "transactionHash": "0x4160f2b23b859cacbfd3857cb9c7e6c21c63f478b7268a6e470ff5d654b519be",
          "transactionIndex": "0x2",
          "logIndex": "0xb",
          "removed": false
        },
        {
          "address": "0x550d9ecb4c373510b8a41f5fb7d98e9e1c51a07e",
          "topics": [
            "0x8be0079c531659141344cd1fd0a4f28419497f9722a3daafe3b4186f6b6457e0",
            "0x000000000000000000000000d9e9e6f6b5298e8bad390f7748035c49d6eeb055",
            "0x0000000000000000000000002738f38fde510743e0c589415e0598c4cee6eaa7"
          ],
          "data": "0x",
          "blockHash": "0xdcc6f588ad8abfd863ddc0f7f8bc0f9dcad431d10882d45e43a2af319c88e1a1",
          "blockNumber": "0x124c533",
          "transactionHash": "0x4160f2b23b859cacbfd3857cb9c7e6c21c63f478b7268a6e470ff5d654b519be",
          "transactionIndex": "0x2",
          "logIndex": "0xc",
          "removed": false
        },
        {
          "address": "0x550d9ecb4c373510b8a41f5fb7d98e9e1c51a07e",
          "topics": [
            "0x7f26b83ff96e1f2b6a682f133852f6798a09c465da95921460cefb3847402498"
          ],
          "data": "0x0000000000000000000000000000000000000000000000000000000000000001",
          "blockHash": "0xdcc6f588ad8abfd863ddc0f7f8bc0f9dcad431d10882d45e43a2af319c88e1a1",
          "blockNumber": "0x124c533",
          "transactionHash": "0x4160f2b23b859cacbfd3857cb9c7e6c21c63f478b7268a6e470ff5d654b519be",
          "transactionIndex": "0x2",
          "logIndex": "0xd",
          "removed": false
        },
        {
          "address": "0x550d9ecb4c373510b8a41f5fb7d98e9e1c51a07e",
          "topics": [
            "0x7e644d79422f17c01e4894b5f4f588d331ebfa28653d42ae832dc59e38c9798f"
          ],
          "data": "0x000000000000000000000000000000000000000000000000000000000000000000000000000000000000000001bd47aa7b13a75c24e3da760f8a503c435bb4df",
          "blockHash": "0xdcc6f588ad8abfd863ddc0f7f8bc0f9dcad431d10882d45e43a2af319c88e1a1",
          "blockNumber": "0x124c533",
          "transactionHash": "0x4160f2b23b859cacbfd3857cb9c7e6c21c63f478b7268a6e470ff5d654b519be",
          "transactionIndex": "0x2",
          "logIndex": "0xe",
          "removed": false
        },
        {
          "address": "0xba5ed099633d3b313e4d5f7bdc1305d3c28ba5ed",
          "topics": [
            "0x4db17dd5e4732fb6da34a148104a592783ca119a1e7bb8829eba6cbadef0b511",
            "0x000000000000000000000000550d9ecb4c373510b8a41f5fb7d98e9e1c51a07e"
          ],
          "data": "0x",
          "blockHash": "0xdcc6f588ad8abfd863ddc0f7f8bc0f9dcad431d10882d45e43a2af319c88e1a1",
          "blockNumber": "0x124c533",
          "transactionHash": "0x4160f2b23b859cacbfd3857cb9c7e6c21c63f478b7268a6e470ff5d654b519be",
          "transactionIndex": "0x2",
          "logIndex": "0xf",
          "removed": false
        },
        {
          "address": "0x353ed52bf8482027c0e0b9e3c0e5d96a9f680980",
          "topics": [
            "0xcf8e77154e470bf74e2e443ad6193730ed2a7c72279dc06aa8c12daf20c7768e",
            "0x00000000000000000000000085f5181abdbf0e1814fc4358582ae07b8eba3af3",
            "0x000000000000000000000000de9e4c3ce781b4ba68120d6261cbad65ce0ab00b"
          ],
          "data": "0x000000000000000000000000550d9ecb4c373510b8a41f5fb7d98e9e1c51a07e00000000000000000000000043cb9d6acf1462356303079ea4fdd8bc30042a6a",
          "blockHash": "0xdcc6f588ad8abfd863ddc0f7f8bc0f9dcad431d10882d45e43a2af319c88e1a1",
          "blockNumber": "0x124c533",
          "transactionHash": "0x4160f2b23b859cacbfd3857cb9c7e6c21c63f478b7268a6e470ff5d654b519be",
          "transactionIndex": "0x2",
          "logIndex": "0x10",
          "removed": false
        }
      ],
      "logsBloom": "0x00020000000002000000008000400420400000000000400000800001200010000100010200000000000400000000001000840000000804000000000000000000002002000000008000000000020042000401040000000000006000000000000004004010020002000000000020180800000000800120000000000001000000400000000000010000000400000000000008000004020880000004004000800010000002020044000000000000000400000000000000000080000000000810000000000820020000000200080000040010000000002400002020000000000024000000000000000200000000000000000000080080000000000000800000000000",
      "type": "0x2",
      "transactionHash": "0x4160f2b23b859cacbfd3857cb9c7e6c21c63f478b7268a6e470ff5d654b519be",
      "transactionIndex": "0x2",
      "blockHash": "0xdcc6f588ad8abfd863ddc0f7f8bc0f9dcad431d10882d45e43a2af319c88e1a1",
      "blockNumber": "0x124c533",
      "gasUsed": "0x123c3e",
      "effectiveGasPrice": "0x5d21dba01",
      "from": "0x2738f38fde510743e0c589415e0598c4cee6eaa7",
      "to": "0x353ed52bf8482027c0e0b9e3c0e5d96a9f680980",
      "contractAddress": null,
      "l1BaseFeeScalar": "0x0",
      "l1BlobBaseFee": "0x1",
      "l1BlobBaseFeeScalar": "0x0",
      "l1Fee": "0x0",
      "l1GasPrice": "0xb",
      "l1GasUsed": "0xf7a"
    },
    {
      "status": "0x1",
      "cumulativeGasUsed": "0xa6ba1",
      "logs": [
        {
          "address": "0x85f5181abdbf0e1814fc4358582ae07b8eba3af3",
          "topics": [
            "0xddf252ad1be2c89b69c2b068fc378daa952ba7f163c4a11628f55a4df523b3ef",
            "0x0000000000000000000000002738f38fde510743e0c589415e0598c4cee6eaa7",
            "0x000000000000000000000000550d9ecb4c373510b8a41f5fb7d98e9e1c51a07e"
          ],
          "data": "0x0000000000000000000000000000000000000000000000000a49e229291cce3a",
          "blockHash": "0x2ab9c828183e78f915308bdeb898e96e2927c63a85dafee92733339b3d5fda64",
          "blockNumber": "0x124c538",
          "transactionHash": "0x99baa77383826b838f101297a12873e94b94be81a41d31bd28f612c9952fe4aa",
          "transactionIndex": "0x4",
          "logIndex": "0x3",
          "removed": false
        }
      ],
      "logsBloom": "0x00000000000000000000000000000000000000000000000000000000000000000000000000000000000000000000000000800000000000000000000000000000002000800000000000000008000000000000000000000000000000000000000000000000000000000000000000000000000000000100000000000010000000000000010000010000800000000000000000000000000000000000000000000010000000000000000000000000000000000000000000000000000000000000000000000802000000000000000000000000000000000000000000000000000000000000000000000000000000000000000000000000000000000000000000000000",
      "type": "0x2",
      "transactionHash": "0x99baa77383826b838f101297a12873e94b94be81a41d31bd28f612c9952fe4aa",
      "transactionIndex": "0x4",
      "blockHash": "0x2ab9c828183e78f915308bdeb898e96e2927c63a85dafee92733339b3d5fda64",
      "blockNumber": "0x124c538",
      "gasUsed": "0xde01",
      "effectiveGasPrice": "0x5d21dba01",
      "from": "0x2738f38fde510743e0c589415e0598c4cee6eaa7",
      "to": "0x85f5181abdbf0e1814fc4358582ae07b8eba3af3",
      "contractAddress": null,
      "l1BaseFeeScalar": "0x0",
      "l1BlobBaseFee": "0x1",
      "l1BlobBaseFeeScalar": "0x0",
      "l1Fee": "0x0",
      "l1GasPrice": "0xb",
      "l1GasUsed": "0x640"
    },
    {
      "status": "0x1",
      "cumulativeGasUsed": "0x437b4",
      "logs": [
        {
          "address": "0xde9e4c3ce781b4ba68120d6261cbad65ce0ab00b",
          "topics": [
            "0xddf252ad1be2c89b69c2b068fc378daa952ba7f163c4a11628f55a4df523b3ef",
            "0x0000000000000000000000002738f38fde510743e0c589415e0598c4cee6eaa7",
            "0x000000000000000000000000550d9ecb4c373510b8a41f5fb7d98e9e1c51a07e"
          ],
          "data": "0x0000000000000000000000000000000000000000000000000de0b6b3a7640000",
          "blockHash": "0x253fc283515fe1f1fbc30d799eaaf58580ea8ce22b25ef95e260061a09fb4fed",
          "blockNumber": "0x124c53e",
          "transactionHash": "0x77ad50c9c68a5420bf7087810a154dc8f6c4206b359c119c3c35fc9ca3b40aa3",
          "transactionIndex": "0x2",
          "logIndex": "0x1",
          "removed": false
        }
      ],
      "logsBloom": "0x00000000000000000000000000000000000000000000000000000000000000000000000000000000000000000000000000800040000000000000000000000000002000000000000000000008000000000000000000000008000000000000000000000000000000000000000000000000000000000100000000000010000000000000000000010000000000000000000000000000000000000000000000000010000000000000000000000000000000000000000000000000000000000000000000000802000000000000000000000000000000000000000000000000800000000000000000000000000000000000000000000000000000000000000000000000",
      "type": "0x2",
      "transactionHash": "0x77ad50c9c68a5420bf7087810a154dc8f6c4206b359c119c3c35fc9ca3b40aa3",
      "transactionIndex": "0x2",
      "blockHash": "0x253fc283515fe1f1fbc30d799eaaf58580ea8ce22b25ef95e260061a09fb4fed",
      "blockNumber": "0x124c53e",
      "gasUsed": "0xdde9",
      "effectiveGasPrice": "0x5d21dba01",
      "from": "0x2738f38fde510743e0c589415e0598c4cee6eaa7",
      "to": "0xde9e4c3ce781b4ba68120d6261cbad65ce0ab00b",
      "contractAddress": null,
      "l1BaseFeeScalar": "0x0",
      "l1BlobBaseFee": "0x1",
      "l1BlobBaseFeeScalar": "0x0",
      "l1Fee": "0x0",
      "l1GasPrice": "0xb",
      "l1GasUsed": "0x640"
    },
    {
      "status": "0x1",
      "cumulativeGasUsed": "0x41473",
      "logs": [
        {
          "address": "0x550d9ecb4c373510b8a41f5fb7d98e9e1c51a07e",
          "topics": [
            "0xddf252ad1be2c89b69c2b068fc378daa952ba7f163c4a11628f55a4df523b3ef",
            "0x0000000000000000000000000000000000000000000000000000000000000000",
            "0x0000000000000000000000000000000000000000000000000000000000000001"
          ],
          "data": "0x00000000000000000000000000000000000000000000000000000000000003e8",
          "blockHash": "0x383ea49aec03ed80b043d65da091ad46e37b543b5dda4629f76897a71f6cfe0d",
          "blockNumber": "0x124c543",
          "transactionHash": "0x1d478c8f30c6d3c2241db47f08e58ea4b0b5a1062677773a76f5a90447bb11b1",
          "transactionIndex": "0x1",
          "logIndex": "0x0",
          "removed": false
        },
        {
          "address": "0x550d9ecb4c373510b8a41f5fb7d98e9e1c51a07e",
          "topics": [
            "0xddf252ad1be2c89b69c2b068fc378daa952ba7f163c4a11628f55a4df523b3ef",
            "0x0000000000000000000000000000000000000000000000000000000000000000",
            "0x0000000000000000000000002738f38fde510743e0c589415e0598c4cee6eaa7"
          ],
          "data": "0x0000000000000000000000000000000000000000000000000bf2fe059e378785",
          "blockHash": "0x383ea49aec03ed80b043d65da091ad46e37b543b5dda4629f76897a71f6cfe0d",
          "blockNumber": "0x124c543",
          "transactionHash": "0x1d478c8f30c6d3c2241db47f08e58ea4b0b5a1062677773a76f5a90447bb11b1",
          "transactionIndex": "0x1",
          "logIndex": "0x1",
          "removed": false
        },
        {
          "address": "0x550d9ecb4c373510b8a41f5fb7d98e9e1c51a07e",
          "topics": [
            "0xf71a0e183fe1c86e734de92237976be5699cb46fd28373d6ace2f8eafea2857c"
          ],
          "data": "0x0000000000000000000000000000000000000000000000000a49e229291cce3a0000000000000000000000000000000000000000000000000de0b6b3a76400000000000000000000000000000000000000000000000000000000000069a5c2d7",
          "blockHash": "0x383ea49aec03ed80b043d65da091ad46e37b543b5dda4629f76897a71f6cfe0d",
          "blockNumber": "0x124c543",
          "transactionHash": "0x1d478c8f30c6d3c2241db47f08e58ea4b0b5a1062677773a76f5a90447bb11b1",
          "transactionIndex": "0x1",
          "logIndex": "0x2",
          "removed": false
        },
        {
          "address": "0x550d9ecb4c373510b8a41f5fb7d98e9e1c51a07e",
          "topics": [
            "0xa8137fff86647d8a402117b9c5dbda627f721d3773338fb9678c83e54ed39080",
            "0x0000000000000000000000002738f38fde510743e0c589415e0598c4cee6eaa7",
            "0x0000000000000000000000002738f38fde510743e0c589415e0598c4cee6eaa7"
          ],
          "data": "0x0000000000000000000000000000000000000000000000000a49e229291cce3a0000000000000000000000000000000000000000000000000de0b6b3a76400000000000000000000000000000000000000000000000000000bf2fe059e378785",
          "blockHash": "0x383ea49aec03ed80b043d65da091ad46e37b543b5dda4629f76897a71f6cfe0d",
          "blockNumber": "0x124c543",
          "transactionHash": "0x1d478c8f30c6d3c2241db47f08e58ea4b0b5a1062677773a76f5a90447bb11b1",
          "transactionIndex": "0x1",
          "logIndex": "0x3",
          "removed": false
        }
      ],
      "logsBloom": "0x00000000200000000000000000000000000000000000000000000000000000000000000000000000000000000000000000040000080000000000000000040000002000000100000000000008000000000000000000040000000000000000000000000000020000000000000000000800000000000000000000000010000000000000000000000000000000000000000000000000000000000000000000000010000000000000000000000000000000400000000000000080000000000000400000000802000000000000000000000000000000000000002000000000000060000000000000000000000000000000000000000000000000000000000000000000",
      "type": "0x2",
      "transactionHash": "0x1d478c8f30c6d3c2241db47f08e58ea4b0b5a1062677773a76f5a90447bb11b1",
      "transactionIndex": "0x1",
      "blockHash": "0x383ea49aec03ed80b043d65da091ad46e37b543b5dda4629f76897a71f6cfe0d",
      "blockNumber": "0x124c543",
      "gasUsed": "0x36093",
      "effectiveGasPrice": "0x5d21dba01",
      "from": "0x2738f38fde510743e0c589415e0598c4cee6eaa7",
      "to": "0x550d9ecb4c373510b8a41f5fb7d98e9e1c51a07e",
      "contractAddress": null,
      "l1BaseFeeScalar": "0x0",
      "l1BlobBaseFee": "0x1",
      "l1BlobBaseFeeScalar": "0x0",
      "l1Fee": "0x0",
      "l1GasPrice": "0xb",
      "l1GasUsed": "0x640"
    },
    {
      "status": "0x1",
      "cumulativeGasUsed": "0x1cae1",
      "logs": [
        {
          "address": "0x550d9ecb4c373510b8a41f5fb7d98e9e1c51a07e",
          "topics": [
            "0x0a59d45890c37e353ebb4ff4a00b4e5002b27b21e3a308daea7646097c12533f",
            "0x00000000000000000000000085f5181abdbf0e1814fc4358582ae07b8eba3af3"
          ],
          "data": "0x0000000000000000000000000000000000000000000000042c96f40959140000000000000000000000000000000000000000000000000014def2c42ebd6400000000000000000000000000000000000000000000000000000000000000000012",
          "blockHash": "0xadab5b74d383882c92f1bb82d7292b0790219dbf97ef8c16cc030583a4043586",
          "blockNumber": "0x124c547",
          "transactionHash": "0x24b80d7635dcf147db192cbc9bd682fa3853686ff848e551c31dd6d5e834c688",
          "transactionIndex": "0x1",
          "logIndex": "0x0",
          "removed": false
        }
      ],
      "logsBloom": "0x00000000000000000000000000400000000000000000000004000000000000000000000000000000000000000000000000040000000000000000000100000000000002000000000000000000000000000000000000000000000000000000000000000000000000000000000000080000000000000000000000000000000000000000000000000000000000000000000000000000000000000000000000000000000000000000000000000000000000000000000000000080000000000000000000000000000000000000000000000000000000000000002000000000010000000000000000000000000000000000000000000000000000000000000000000000",
      "type": "0x2",
      "transactionHash": "0x24b80d7635dcf147db192cbc9bd682fa3853686ff848e551c31dd6d5e834c688",
      "transactionIndex": "0x1",
      "blockHash": "0xadab5b74d383882c92f1bb82d7292b0790219dbf97ef8c16cc030583a4043586",
      "blockNumber": "0x124c547",
      "gasUsed": "0x11701",
      "effectiveGasPrice": "0x5d21dba01",
      "from": "0x2738f38fde510743e0c589415e0598c4cee6eaa7",
      "to": "0x550d9ecb4c373510b8a41f5fb7d98e9e1c51a07e",
      "contractAddress": null,
      "l1BaseFeeScalar": "0x0",
      "l1BlobBaseFee": "0x1",
      "l1BlobBaseFeeScalar": "0x0",
      "l1Fee": "0x0",
      "l1GasPrice": "0xb",
      "l1GasUsed": "0x697"
    },
    {
      "status": "0x1",
      "cumulativeGasUsed": "0x6b946",
      "logs": [
        {
          "address": "0x550d9ecb4c373510b8a41f5fb7d98e9e1c51a07e",
          "topics": [
            "0x0a59d45890c37e353ebb4ff4a00b4e5002b27b21e3a308daea7646097c12533f",
            "0x000000000000000000000000de9e4c3ce781b4ba68120d6261cbad65ce0ab00b"
          ],
          "data": "0x0000000000000000000000000000000000000000000000056bc75e2d6310000000000000000000000000000000000000000000000000001b1ae4d6e2ef5000000000000000000000000000000000000000000000000000000000000000000012",
          "blockHash": "0x0e327f874ed8b5f77f642d17fc213d5e08f3734bdc56528455ee1568499a3bb8",
          "blockNumber": "0x124c54c",
          "transactionHash": "0x922928a216daaa83ff23d026143c0c5031b62e461d625f554daf84af93617bdb",
          "transactionIndex": "0xb",
          "logIndex": "0x1",
          "removed": false
        }
      ],
      "logsBloom": "0x00000000000000000000000000000000000000000000000004000000000000000100010000000000000000000000000000040000000000000000000100000000000000000000000000000000000000000000000000000000000000000000000000000000000002000000000000000000000000000000000000000000000000000000000000000000000000000000000000000000000000000000000000000000000000000000000000000000000000000000000000000080000000000000000000000000000000000000000000000000000000000000002000000000010000000000000000000000000000000000000000000000000000000000000000000000",
      "type": "0x2",
      "transactionHash": "0x922928a216daaa83ff23d026143c0c5031b62e461d625f554daf84af93617bdb",
      "transactionIndex": "0xb",
      "blockHash": "0x0e327f874ed8b5f77f642d17fc213d5e08f3734bdc56528455ee1568499a3bb8",
      "blockNumber": "0x124c54c",
      "gasUsed": "0x11f64",
      "effectiveGasPrice": "0x5d21dba01",
      "from": "0x2738f38fde510743e0c589415e0598c4cee6eaa7",
      "to": "0x550d9ecb4c373510b8a41f5fb7d98e9e1c51a07e",
      "contractAddress": null,
      "l1BaseFeeScalar": "0x0",
      "l1BlobBaseFee": "0x1",
      "l1BlobBaseFeeScalar": "0x0",
      "l1Fee": "0x0",
      "l1GasPrice": "0xb",
      "l1GasUsed": "0x697"
    },
    {
      "status": "0x1",
      "cumulativeGasUsed": "0x12f0b0",
      "logs": [
        {
          "address": "0xba5ed099633d3b313e4d5f7bdc1305d3c28ba5ed",
          "topics": [
            "0x2feea65dd4e9f9cbd86b74b7734210c59a1b2981b5b137bd0ee3e208200c9067",
            "0x000000000000000000000000b5f2851ac676d0e9f8a4a5a5cc179428917c7aa1",
            "0xfba42ec00b31241f1e71cba8037948e8c137410bcc12f1f7ff1710c5893ad5ea"
          ],
          "data": "0x",
          "blockHash": "0xccc891b0f2ce3083d1f9c3ed47b4b38dbd5359a23ad7c22a559f91632d826898",
          "blockNumber": "0x124c551",
          "transactionHash": "0x6ff98465d915e6417aa7089d98b772387f38acbc2a3c3b2a2f834ff1a508a472",
          "transactionIndex": "0x1",
          "logIndex": "0x0",
          "removed": false
        },
        {
          "address": "0xf1b77ffc1f71b21b6c69876cedaf82340803de75",
          "topics": [
            "0xbc7cd75a20ee27fd9adebab32041f755214dbc6bffa90cc0225b39da2e5c2d3b",
            "0x00000000000000000000000043cb9d6acf1462356303079ea4fdd8bc30042a6a"
          ],
          "data": "0x",
          "blockHash": "0xccc891b0f2ce3083d1f9c3ed47b4b38dbd5359a23ad7c22a559f91632d826898",
          "blockNumber": "0x124c551",
          "transactionHash": "0x6ff98465d915e6417aa7089d98b772387f38acbc2a3c3b2a2f834ff1a508a472",
          "transactionIndex": "0x1",
          "logIndex": "0x1",
          "removed": false
        },
        {
          "address": "0xf1b77ffc1f71b21b6c69876cedaf82340803de75",
          "topics": [
            "0x8be0079c531659141344cd1fd0a4f28419497f9722a3daafe3b4186f6b6457e0",
            "0x0000000000000000000000000000000000000000000000000000000000000000",
            "0x000000000000000000000000b5f2851ac676d0e9f8a4a5a5cc179428917c7aa1"
          ],
          "data": "0x",
          "blockHash": "0xccc891b0f2ce3083d1f9c3ed47b4b38dbd5359a23ad7c22a559f91632d826898",
          "blockNumber": "0x124c551",
          "transactionHash": "0x6ff98465d915e6417aa7089d98b772387f38acbc2a3c3b2a2f834ff1a508a472",
          "transactionIndex": "0x1",
          "logIndex": "0x2",
          "removed": false
        },
        {
          "address": "0xf1b77ffc1f71b21b6c69876cedaf82340803de75",
          "topics": [
            "0xb5d5dda8af4f1e40a5cc4aa66c39ca5aac7f90947261313b07527eb3bdd98bc7"
          ],
          "data": "0x00000000000000000000000000000000000000000000000000000000000000000000000000000000000000000000000000000000000000000000000000000003",
          "blockHash": "0xccc891b0f2ce3083d1f9c3ed47b4b38dbd5359a23ad7c22a559f91632d826898",
          "blockNumber": "0x124c551",
          "transactionHash": "0x6ff98465d915e6417aa7089d98b772387f38acbc2a3c3b2a2f834ff1a508a472",
          "transactionIndex": "0x1",
          "logIndex": "0x3",
          "removed": false
        },
        {
          "address": "0xf1b77ffc1f71b21b6c69876cedaf82340803de75",
          "topics": [
            "0xd3890fc76afcfc31cba1dcf2c27b50e2541e4d75039c981855b5b5e03682aea0",
            "0x0000000000000000000000000000000000000000000000000000000000000000",
            "0x0000000000000000000000002738f38fde510743e0c589415e0598c4cee6eaa7"
          ],
          "data": "0x",
          "blockHash": "0xccc891b0f2ce3083d1f9c3ed47b4b38dbd5359a23ad7c22a559f91632d826898",
          "blockNumber": "0x124c551",
          "transactionHash": "0x6ff98465d915e6417aa7089d98b772387f38acbc2a3c3b2a2f834ff1a508a472",
          "transactionIndex": "0x1",
          "logIndex": "0x4",
          "removed": false
        },
        {
          "address": "0xf1b77ffc1f71b21b6c69876cedaf82340803de75",
          "topics": [
            "0xb404cac19fb1cbeff98d325795b08886e3cd8fe8cb1a2f193aac66f13fb239c3"
          ],
          "data": "0x00000000000000000000000000000000000000000000000000000000000000000000000000000000000000000000000000000000000000000000000000000002",
          "blockHash": "0xccc891b0f2ce3083d1f9c3ed47b4b38dbd5359a23ad7c22a559f91632d826898",
          "blockNumber": "0x124c551",
          "transactionHash": "0x6ff98465d915e6417aa7089d98b772387f38acbc2a3c3b2a2f834ff1a508a472",
          "transactionIndex": "0x1",
          "logIndex": "0x5",
          "removed": false
        },
        {
          "address": "0xf1b77ffc1f71b21b6c69876cedaf82340803de75",
          "topics": [
            "0xb273226859e3e49fd86c9ac8f721eaa74e677de0877db704918e0f43ec8d23bc"
          ],
          "data": "0x00000000000000000000000000000000000000000000000000000000000000000000000000000000000000000000000000000000000000000000000000000001",
          "blockHash": "0xccc891b0f2ce3083d1f9c3ed47b4b38dbd5359a23ad7c22a559f91632d826898",
          "blockNumber": "0x124c551",
          "transactionHash": "0x6ff98465d915e6417aa7089d98b772387f38acbc2a3c3b2a2f834ff1a508a472",
          "transactionIndex": "0x1",
          "logIndex": "0x6",
          "removed": false
        },
        {
          "address": "0xf1b77ffc1f71b21b6c69876cedaf82340803de75",
          "topics": [
            "0x77c5ddba87b3d3f970242eda9bb1263ade9e4aed3eca233d5fa1af00a574b025"
          ],
          "data": "0x0000000000000000000000000000000000000000000000000000000000000000000000000000000000000000000000000000000000000000000000000000000000000000000000000000000000000000000000000000000000000000000013880000000000000000000000000000000000000000000000000000000000000d05",
          "blockHash": "0xccc891b0f2ce3083d1f9c3ed47b4b38dbd5359a23ad7c22a559f91632d826898",
          "blockNumber": "0x124c551",
          "transactionHash": "0x6ff98465d915e6417aa7089d98b772387f38acbc2a3c3b2a2f834ff1a508a472",
          "transactionIndex": "0x1",
          "logIndex": "0x7",
          "removed": false
        },
        {
          "address": "0xf1b77ffc1f71b21b6c69876cedaf82340803de75",
          "topics": [
            "0xe4630e6e66d263636ccf946c97182b0edb7bbea539a79dfa121bab7444e83b79",
            "0x0000000000000000000000000000000000000000000000000000000000000000",
            "0x00000000000000000000000026eff54e2f0e8825996b83119b7df5ef2c882dd7"
          ],
          "data": "0x",
          "blockHash": "0xccc891b0f2ce3083d1f9c3ed47b4b38dbd5359a23ad7c22a559f91632d826898",
          "blockNumber": "0x124c551",
          "transactionHash": "0x6ff98465d915e6417aa7089d98b772387f38acbc2a3c3b2a2f834ff1a508a472",
          "transactionIndex": "0x1",
          "logIndex": "0x8",
          "removed": false
        },
        {
          "address": "0xf1b77ffc1f71b21b6c69876cedaf82340803de75",
          "topics": [
            "0xc1ba25a60afffd747fd25304e169131b7ae93932f7f3e508a8cec0e18fa12842",
            "0x0000000000000000000000000000000000000000000000000000000000000000",
            "0x000000000000000000000000a1a8003936862e7a15092a91898d69fa8bce290c"
          ],
          "data": "0x",
          "blockHash": "0xccc891b0f2ce3083d1f9c3ed47b4b38dbd5359a23ad7c22a559f91632d826898",
          "blockNumber": "0x124c551",
          "transactionHash": "0x6ff98465d915e6417aa7089d98b772387f38acbc2a3c3b2a2f834ff1a508a472",
          "transactionIndex": "0x1",
          "logIndex": "0x9",
          "removed": false
        },
        {
          "address": "0xf1b77ffc1f71b21b6c69876cedaf82340803de75",
          "topics": [
            "0x00af8726a3679feb41b28b0996e403259aceb28ec6f3c6c3dc7a4c4fe6c8fce1"
          ],
          "data": "0x00000000000000000000000000000000000000000000000000000000000000000000000000000000000000000000000000000000000000000000000000000000",
          "blockHash": "0xccc891b0f2ce3083d1f9c3ed47b4b38dbd5359a23ad7c22a559f91632d826898",
          "blockNumber": "0x124c551",
          "transactionHash": "0x6ff98465d915e6417aa7089d98b772387f38acbc2a3c3b2a2f834ff1a508a472",
          "transactionIndex": "0x1",
          "logIndex": "0xa",
          "removed": false
        },
        {
          "address": "0xf1b77ffc1f71b21b6c69876cedaf82340803de75",
          "topics": [
            "0x8be0079c531659141344cd1fd0a4f28419497f9722a3daafe3b4186f6b6457e0",
            "0x000000000000000000000000b5f2851ac676d0e9f8a4a5a5cc179428917c7aa1",
            "0x0000000000000000000000002738f38fde510743e0c589415e0598c4cee6eaa7"
          ],
          "data": "0x",
          "blockHash": "0xccc891b0f2ce3083d1f9c3ed47b4b38dbd5359a23ad7c22a559f91632d826898",
          "blockNumber": "0x124c551",
          "transactionHash": "0x6ff98465d915e6417aa7089d98b772387f38acbc2a3c3b2a2f834ff1a508a472",
          "transactionIndex": "0x1",
          "logIndex": "0xb",
          "removed": false
        },
        {
          "address": "0xf1b77ffc1f71b21b6c69876cedaf82340803de75",
          "topics": [
            "0x7f26b83ff96e1f2b6a682f133852f6798a09c465da95921460cefb3847402498"
          ],
          "data": "0x0000000000000000000000000000000000000000000000000000000000000001",
          "blockHash": "0xccc891b0f2ce3083d1f9c3ed47b4b38dbd5359a23ad7c22a559f91632d826898",
          "blockNumber": "0x124c551",
          "transactionHash": "0x6ff98465d915e6417aa7089d98b772387f38acbc2a3c3b2a2f834ff1a508a472",
          "transactionIndex": "0x1",
          "logIndex": "0xc",
          "removed": false
        },
        {
          "address": "0xf1b77ffc1f71b21b6c69876cedaf82340803de75",
          "topics": [
            "0x7e644d79422f17c01e4894b5f4f588d331ebfa28653d42ae832dc59e38c9798f"
          ],
          "data": "0x000000000000000000000000000000000000000000000000000000000000000000000000000000000000000001bd47aa7b13a75c24e3da760f8a503c435bb4df",
          "blockHash": "0xccc891b0f2ce3083d1f9c3ed47b4b38dbd5359a23ad7c22a559f91632d826898",
          "blockNumber": "0x124c551",
          "transactionHash": "0x6ff98465d915e6417aa7089d98b772387f38acbc2a3c3b2a2f834ff1a508a472",
          "transactionIndex": "0x1",
          "logIndex": "0xd",
          "removed": false
        },
        {
          "address": "0xba5ed099633d3b313e4d5f7bdc1305d3c28ba5ed",
          "topics": [
            "0x4db17dd5e4732fb6da34a148104a592783ca119a1e7bb8829eba6cbadef0b511",
            "0x000000000000000000000000f1b77ffc1f71b21b6c69876cedaf82340803de75"
          ],
          "data": "0x",
          "blockHash": "0xccc891b0f2ce3083d1f9c3ed47b4b38dbd5359a23ad7c22a559f91632d826898",
          "blockNumber": "0x124c551",
          "transactionHash": "0x6ff98465d915e6417aa7089d98b772387f38acbc2a3c3b2a2f834ff1a508a472",
          "transactionIndex": "0x1",
          "logIndex": "0xe",
          "removed": false
        },
        {
          "address": "0x353ed52bf8482027c0e0b9e3c0e5d96a9f680980",
          "topics": [
            "0xcf8e77154e470bf74e2e443ad6193730ed2a7c72279dc06aa8c12daf20c7768e",
            "0x0000000000000000000000006285de9da7c1d329c0451628638908915002d9d1",
            "0x000000000000000000000000de9e4c3ce781b4ba68120d6261cbad65ce0ab00b"
          ],
          "data": "0x000000000000000000000000f1b77ffc1f71b21b6c69876cedaf82340803de7500000000000000000000000043cb9d6acf1462356303079ea4fdd8bc30042a6a",
          "blockHash": "0xccc891b0f2ce3083d1f9c3ed47b4b38dbd5359a23ad7c22a559f91632d826898",
          "blockNumber": "0x124c551",
          "transactionHash": "0x6ff98465d915e6417aa7089d98b772387f38acbc2a3c3b2a2f834ff1a508a472",
          "transactionIndex": "0x1",
          "logIndex": "0xf",
          "removed": false
        }
      ],
      "logsBloom": "0x00020000020002000000048000000420600000000000800000800001200010000100010200000000000400000000801000000000000804000000000000000000002000000008004000000000024042000001040000000000006000000000000000004010020002000000000000100800000000800120040040000001000000400000000000000000000400000000000008000000020880000004004000c00010000002020044000000000000000400000000000802000000000000200010000000000920020000000220080000040010000000002400000020000000000024000000000000000200000000000000000000080080000020000000000000000000",
      "type": "0x2",
      "transactionHash": "0x6ff98465d915e6417aa7089d98b772387f38acbc2a3c3b2a2f834ff1a508a472",
      "transactionIndex": "0x1",
      "blockHash": "0xccc891b0f2ce3083d1f9c3ed47b4b38dbd5359a23ad7c22a559f91632d826898",
      "blockNumber": "0x124c551",
      "gasUsed": "0x123cd0",
      "effectiveGasPrice": "0x5d21dba01",
      "from": "0x2738f38fde510743e0c589415e0598c4cee6eaa7",
      "to": "0x353ed52bf8482027c0e0b9e3c0e5d96a9f680980",
      "contractAddress": null,
      "l1BaseFeeScalar": "0x0",
      "l1BlobBaseFee": "0x1",
      "l1BlobBaseFeeScalar": "0x0",
      "l1Fee": "0x0",
      "l1GasPrice": "0xb",
      "l1GasUsed": "0xf7a"
    },
    {
      "status": "0x1",
      "cumulativeGasUsed": "0x17d7f",
      "logs": [
        {
          "address": "0x6285de9da7c1d329c0451628638908915002d9d1",
          "topics": [
            "0xddf252ad1be2c89b69c2b068fc378daa952ba7f163c4a11628f55a4df523b3ef",
            "0x0000000000000000000000002738f38fde510743e0c589415e0598c4cee6eaa7",
            "0x000000000000000000000000f1b77ffc1f71b21b6c69876cedaf82340803de75"
          ],
          "data": "0x0000000000000000000000000000000000000000000000000de0db15408d8a02",
          "blockHash": "0x7ab88e8b0f5d23c754b3f8731943f46523449232c95a1152b9405d4ebfa679d0",
          "blockNumber": "0x124c556",
          "transactionHash": "0xcb69ac857847b2be96aac4b993bdff01468ee80f22ceedc84aa99a851491821a",
          "transactionIndex": "0x1",
          "logIndex": "0x0",
          "removed": false
        }
      ],
      "logsBloom": "0x00000000020000000000040000000000000000000000000000000000000000100000000000000000000000000000000000000000000000000000000000000000002000000008000000000008000000000000000000000000000000000000000000000000000000000000000000000000000000000000040000000010000000000000000000000000000000000000000000000000000000000000000000000010000000000080000000000000000000000000000000000000000000000000000000000802000000000000000000000000000000000000000000000000000000000000000000000000000000000000000000000000000000000000000000000000",
      "type": "0x2",
      "transactionHash": "0xcb69ac857847b2be96aac4b993bdff01468ee80f22ceedc84aa99a851491821a",
      "transactionIndex": "0x1",
      "blockHash": "0x7ab88e8b0f5d23c754b3f8731943f46523449232c95a1152b9405d4ebfa679d0",
      "blockNumber": "0x124c556",
      "gasUsed": "0xc99f",
      "effectiveGasPrice": "0x5d21dba01",
      "from": "0x2738f38fde510743e0c589415e0598c4cee6eaa7",
      "to": "0x6285de9da7c1d329c0451628638908915002d9d1",
      "contractAddress": null,
      "l1BaseFeeScalar": "0x0",
      "l1BlobBaseFee": "0x1",
      "l1BlobBaseFeeScalar": "0x0",
      "l1Fee": "0x0",
      "l1GasPrice": "0xb",
      "l1GasUsed": "0x640"
    },
    {
      "status": "0x1",
      "cumulativeGasUsed": "0x191c9",
      "logs": [
        {
          "address": "0xde9e4c3ce781b4ba68120d6261cbad65ce0ab00b",
          "topics": [
            "0xddf252ad1be2c89b69c2b068fc378daa952ba7f163c4a11628f55a4df523b3ef",
            "0x0000000000000000000000002738f38fde510743e0c589415e0598c4cee6eaa7",
            "0x000000000000000000000000f1b77ffc1f71b21b6c69876cedaf82340803de75"
          ],
          "data": "0x0000000000000000000000000000000000000000000000000de0b6b3a7640000",
          "blockHash": "0xbcae09bc2fd4f3d928bf2b2eafbe38f568496549a8d259ac0d707fe5589b3d5c",
          "blockNumber": "0x124c55c",
          "transactionHash": "0x4a08c7b0aa9e5e7fb8a551e96248a553378433aa7e9064f611f257488459a3fb",
          "transactionIndex": "0x1",
          "logIndex": "0x0",
          "removed": false
        }
      ],
      "logsBloom": "0x00000000020000000000000000000000000000000000000000000000000000000000000000000000000000000000000000000040000000000000000000000000002000000008000000000008000000000000000000000008000000000000000000000000000000000000000000000000000000000000040000000010000000000000000000000000000000000000000000000000000000000000000000000010000000000000000000000000000000000000000000000000000000000000000000000802000000000000000000000000000000000000000000000000800000000000000000000000000000000000000000000000000000000000000000000000",
      "type": "0x2",
      "transactionHash": "0x4a08c7b0aa9e5e7fb8a551e96248a553378433aa7e9064f611f257488459a3fb",
      "transactionIndex": "0x1",
      "blockHash": "0xbcae09bc2fd4f3d928bf2b2eafbe38f568496549a8d259ac0d707fe5589b3d5c",
      "blockNumber": "0x124c55c",
      "gasUsed": "0xdde9",
      "effectiveGasPrice": "0x5d21dba01",
      "from": "0x2738f38fde510743e0c589415e0598c4cee6eaa7",
      "to": "0xde9e4c3ce781b4ba68120d6261cbad65ce0ab00b",
      "contractAddress": null,
      "l1BaseFeeScalar": "0x0",
      "l1BlobBaseFee": "0x1",
      "l1BlobBaseFeeScalar": "0x0",
      "l1Fee": "0x0",
      "l1GasPrice": "0xb",
      "l1GasUsed": "0x640"
    },
    {
      "status": "0x1",
      "cumulativeGasUsed": "0x4056c",
      "logs": [
        {
          "address": "0xf1b77ffc1f71b21b6c69876cedaf82340803de75",
          "topics": [
            "0xddf252ad1be2c89b69c2b068fc378daa952ba7f163c4a11628f55a4df523b3ef",
            "0x0000000000000000000000000000000000000000000000000000000000000000",
            "0x0000000000000000000000000000000000000000000000000000000000000001"
          ],
          "data": "0x00000000000000000000000000000000000000000000000000000000000003e8",
          "blockHash": "0x4b57618311617afc62afed78ab9b0ded02e79b79b8311672d17e18a6070d06fb",
          "blockNumber": "0x124c561",
          "transactionHash": "0xe2f9214711ae776c0ef10cc39a69a850cfd15af273054a9ca83e46300a694654",
          "transactionIndex": "0x1",
          "logIndex": "0x0",
          "removed": false
        },
        {
          "address": "0xf1b77ffc1f71b21b6c69876cedaf82340803de75",
          "topics": [
            "0xddf252ad1be2c89b69c2b068fc378daa952ba7f163c4a11628f55a4df523b3ef",
            "0x0000000000000000000000000000000000000000000000000000000000000000",
            "0x0000000000000000000000002738f38fde510743e0c589415e0598c4cee6eaa7"
          ],
          "data": "0x0000000000000000000000000000000000000000000000000de0c8e4680cd038",
          "blockHash": "0x4b57618311617afc62afed78ab9b0ded02e79b79b8311672d17e18a6070d06fb",
          "blockNumber": "0x124c561",
          "transactionHash": "0xe2f9214711ae776c0ef10cc39a69a850cfd15af273054a9ca83e46300a694654",
          "transactionIndex": "0x1",
          "logIndex": "0x1",
          "removed": false
        },
        {
          "address": "0xf1b77ffc1f71b21b6c69876cedaf82340803de75",
          "topics": [
            "0xf71a0e183fe1c86e734de92237976be5699cb46fd28373d6ace2f8eafea2857c"
          ],
          "data": "0x0000000000000000000000000000000000000000000000000de0db15408d8a020000000000000000000000000000000000000000000000000de0b6b3a76400000000000000000000000000000000000000000000000000000000000069a5c2f5",
          "blockHash": "0x4b57618311617afc62afed78ab9b0ded02e79b79b8311672d17e18a6070d06fb",
          "blockNumber": "0x124c561",
          "transactionHash": "0xe2f9214711ae776c0ef10cc39a69a850cfd15af273054a9ca83e46300a694654",
          "transactionIndex": "0x1",
          "logIndex": "0x2",
          "removed": false
        },
        {
          "address": "0xf1b77ffc1f71b21b6c69876cedaf82340803de75",
          "topics": [
            "0xa8137fff86647d8a402117b9c5dbda627f721d3773338fb9678c83e54ed39080",
            "0x0000000000000000000000002738f38fde510743e0c589415e0598c4cee6eaa7",
            "0x0000000000000000000000002738f38fde510743e0c589415e0598c4cee6eaa7"
          ],
          "data": "0x0000000000000000000000000000000000000000000000000de0db15408d8a020000000000000000000000000000000000000000000000000de0b6b3a76400000000000000000000000000000000000000000000000000000de0c8e4680cd038",
          "blockHash": "0x4b57618311617afc62afed78ab9b0ded02e79b79b8311672d17e18a6070d06fb",
          "blockNumber": "0x124c561",
          "transactionHash": "0xe2f9214711ae776c0ef10cc39a69a850cfd15af273054a9ca83e46300a694654",
          "transactionIndex": "0x1",
          "logIndex": "0x3",
          "removed": false
        }
      ],
      "logsBloom": "0x00000000200000000000000000000000000000000000000000000000000000000000000000000000000000000000800000000000080000000000000000040000002000000100000000000008004000000000000000040000000000000000000000000000020000000000000000000800000000000000000000000010000000000000000000000000000000000000000000000000000000000000000000000010000000000000000000000000000000400000000800000000000000000000400000000802000000000000000000000000000000000000000000000000000060000000000000000000000000000000000000000000000000000000000000000000",
      "type": "0x2",
      "transactionHash": "0xe2f9214711ae776c0ef10cc39a69a850cfd15af273054a9ca83e46300a694654",
      "transactionIndex": "0x1",
      "blockHash": "0x4b57618311617afc62afed78ab9b0ded02e79b79b8311672d17e18a6070d06fb",
      "blockNumber": "0x124c561",
      "gasUsed": "0x3518c",
      "effectiveGasPrice": "0x5d21dba01",
      "from": "0x2738f38fde510743e0c589415e0598c4cee6eaa7",
      "to": "0xf1b77ffc1f71b21b6c69876cedaf82340803de75",
      "contractAddress": null,
      "l1BaseFeeScalar": "0x0",
      "l1BlobBaseFee": "0x1",
      "l1BlobBaseFeeScalar": "0x0",
      "l1Fee": "0x0",
      "l1GasPrice": "0xb",
      "l1GasUsed": "0x640"
    },
    {
      "status": "0x1",
      "cumulativeGasUsed": "0x1b5b2",
      "logs": [
        {
          "address": "0xf1b77ffc1f71b21b6c69876cedaf82340803de75",
          "topics": [
            "0x0a59d45890c37e353ebb4ff4a00b4e5002b27b21e3a308daea7646097c12533f",
            "0x0000000000000000000000006285de9da7c1d329c0451628638908915002d9d1"
          ],
          "data": "0x00000000000000000000000000000000000000000000001b1ae4d6e2ef50000000000000000000000000000000000000000000000000003635c9adc5dea000000000000000000000000000000000000000000000000000000000000000000012",
          "blockHash": "0xf45d9a8c3671d9cd3dae97fc59d3335c672a6780dc61a9e6479dd06bcd49c2cf",
          "blockNumber": "0x124c566",
          "transactionHash": "0xa6e6cc7b23fcda5f910a754b7e3e3a6c9cbf810b43f5d7a2de70f27c171c3d61",
          "transactionIndex": "0x1",
          "logIndex": "0x0",
          "removed": false
        }
      ],
      "logsBloom": "0x00000000000000000000000000000000000000000000000004000000000000000000000000000000000000000000800000000000000000000000000100000000000000000000000000000000004000000000000000000000000000000000000000000000000000000000000000000000000000000000000000000000000000000000000000000000000000000000000000000000000000000000000000400000000000000000000000000000000000000000000800000000000000200000000000000100000000000000000000000000000000000000000000000000010000000000000000000000000000000000000000000000000000000000000000000000",
      "type": "0x2",
      "transactionHash": "0xa6e6cc7b23fcda5f910a754b7e3e3a6c9cbf810b43f5d7a2de70f27c171c3d61",
      "transactionIndex": "0x1",
      "blockHash": "0xf45d9a8c3671d9cd3dae97fc59d3335c672a6780dc61a9e6479dd06bcd49c2cf",
      "blockNumber": "0x124c566",
      "gasUsed": "0x101d2",
      "effectiveGasPrice": "0x5d21dba01",
      "from": "0x2738f38fde510743e0c589415e0598c4cee6eaa7",
      "to": "0xf1b77ffc1f71b21b6c69876cedaf82340803de75",
      "contractAddress": null,
      "l1BaseFeeScalar": "0x0",
      "l1BlobBaseFee": "0x1",
      "l1BlobBaseFeeScalar": "0x0",
      "l1Fee": "0x0",
      "l1GasPrice": "0xb",
      "l1GasUsed": "0x697"
    },
    {
      "status": "0x1",
      "cumulativeGasUsed": "0x1d338",
      "logs": [
        {
          "address": "0xf1b77ffc1f71b21b6c69876cedaf82340803de75",
          "topics": [
            "0x0a59d45890c37e353ebb4ff4a00b4e5002b27b21e3a308daea7646097c12533f",
            "0x000000000000000000000000de9e4c3ce781b4ba68120d6261cbad65ce0ab00b"
          ],
          "data": "0x00000000000000000000000000000000000000000000001b1ae4d6e2ef50000000000000000000000000000000000000000000000000003635c9adc5dea000000000000000000000000000000000000000000000000000000000000000000012",
          "blockHash": "0x1adcbc8dadd9ff0d007586344968c07812f0fd5aef65d39763ca3710a12a1114",
          "blockNumber": "0x124c56c",
          "transactionHash": "0xd49812907454f1c5ee2113038f79cffe725e14529225ecb0c44255ceb8fd54fa",
          "transactionIndex": "0x1",
          "logIndex": "0x0",
          "removed": false
        }
      ],
      "logsBloom": "0x00000000000000000000000000000000000000000000000004000000000000000100010000000000000000000000800000000000000000000000000100000000000000000000000000000000004000000000000000000000000000000000000000000000000002000000000000000000000000000000000000000000000000000000000000000000000000000000000000000000000000000000000000000000000000000000000000000000000000000000000800000000000000000000000000000000000000000000000000000000000000000000000000000000010000000000000000000000000000000000000000000000000000000000000000000000",
      "type": "0x2",
      "transactionHash": "0xd49812907454f1c5ee2113038f79cffe725e14529225ecb0c44255ceb8fd54fa",
      "transactionIndex": "0x1",
      "blockHash": "0x1adcbc8dadd9ff0d007586344968c07812f0fd5aef65d39763ca3710a12a1114",
      "blockNumber": "0x124c56c",
      "gasUsed": "0x11f58",
      "effectiveGasPrice": "0x5d21dba01",
      "from": "0x2738f38fde510743e0c589415e0598c4cee6eaa7",
      "to": "0xf1b77ffc1f71b21b6c69876cedaf82340803de75",
      "contractAddress": null,
      "l1BaseFeeScalar": "0x0",
      "l1BlobBaseFee": "0x1",
      "l1BlobBaseFeeScalar": "0x0",
      "l1Fee": "0x0",
      "l1GasPrice": "0xb",
      "l1GasUsed": "0x697"
    },
    {
      "status": "0x1",
      "cumulativeGasUsed": "0x10cff3",
      "logs": [
        {
          "address": "0xbcdc1d0b92dfceeaa0fcd0a0d53355f4bf1db8a7",
          "topics": [
            "0x177acde39223f473628b69da4bf70587e58c441e053c73d5c52a5741815e51a4",
            "0x000000000000000000000000de9e4c3ce781b4ba68120d6261cbad65ce0ab00b"
          ],
          "data": "0x",
          "blockHash": "0xd5a74c5b2f1014d3a881e2fb0a5c530203bc797459bb9169273e7e2dd4d7aa62",
          "blockNumber": "0x124c571",
          "transactionHash": "0xa5a9d19d072d1c6b95323b0108d8d0cbfb356f964a4cdf9ff24e736b81e2fb32",
          "transactionIndex": "0x6",
          "logIndex": "0x5",
          "removed": false
        }
      ],
      "logsBloom": "0x00000000000000000000000000000000000000000000000000000000000000000100010000000000000000000000000000000000200000000000000000000000000000000000000000000000000000000000000000000000000000000000000000020000000002000000000000000000000000000000000000000200000000000000000100000000000000000000000000000000000000000000000000200000000000000000000000000000000000000000000000000000000000000000000000000000000000000000000040000000000000000000000000000000000000000000000000000000000000000000000000000000000000000000000000000000",
      "type": "0x2",
      "transactionHash": "0xa5a9d19d072d1c6b95323b0108d8d0cbfb356f964a4cdf9ff24e736b81e2fb32",
      "transactionIndex": "0x6",
      "blockHash": "0xd5a74c5b2f1014d3a881e2fb0a5c530203bc797459bb9169273e7e2dd4d7aa62",
      "blockNumber": "0x124c571",
      "gasUsed": "0x17a9e",
      "effectiveGasPrice": "0x5d21dba01",
      "from": "0x2738f38fde510743e0c589415e0598c4cee6eaa7",
      "to": "0xbcdc1d0b92dfceeaa0fcd0a0d53355f4bf1db8a7",
      "contractAddress": null,
      "l1BaseFeeScalar": "0x0",
      "l1BlobBaseFee": "0x1",
      "l1BlobBaseFeeScalar": "0x0",
      "l1Fee": "0x0",
      "l1GasPrice": "0xb",
      "l1GasUsed": "0x640"
    },
    {
      "status": "0x1",
      "cumulativeGasUsed": "0xd8041",
      "logs": [
        {
          "address": "0xbcdc1d0b92dfceeaa0fcd0a0d53355f4bf1db8a7",
          "topics": [
            "0x52cceb71b4b81514c72f2311183885dd3a70cca83e7811fa08e9b9937047109d",
            "0x0000000000000000000000006285de9da7c1d329c0451628638908915002d9d1"
          ],
          "data": "0x",
          "blockHash": "0xd1f249df33a632925218cc8b15c8fd658074b77b6fbe3cc44d07a1ffb9344d88",
          "blockNumber": "0x124c575",
          "transactionHash": "0x8e9805eb897c6d966537e91f433b63ce6699a4344cf47e73f9b6a7267531b160",
          "transactionIndex": "0x5",
          "logIndex": "0x4",
          "removed": false
        }
      ],
      "logsBloom": "0x00000000004000000000000000000000000000000000000000000000000000000000000000000000000000000000000000000000000000000000000000000000000000000000000000000000000000000000000000000000000000000000000000000000000000000000000000000000000000000000000000000200000000000000000100000000000000000000000000000000000000000000000000400000000000000000080000000000000000000000000000000000000000200000000000000100000000000000000040000800000000000000000000000000000000000000000000000000000000000000000000000000000000000000000000000000",
      "type": "0x2",
      "transactionHash": "0x8e9805eb897c6d966537e91f433b63ce6699a4344cf47e73f9b6a7267531b160",
      "transactionIndex": "0x5",
      "blockHash": "0xd1f249df33a632925218cc8b15c8fd658074b77b6fbe3cc44d07a1ffb9344d88",
      "blockNumber": "0x124c575",
      "gasUsed": "0x17ae2",
      "effectiveGasPrice": "0x5d21dba01",
      "from": "0x2738f38fde510743e0c589415e0598c4cee6eaa7",
      "to": "0xbcdc1d0b92dfceeaa0fcd0a0d53355f4bf1db8a7",
      "contractAddress": null,
      "l1BaseFeeScalar": "0x0",
      "l1BlobBaseFee": "0x1",
      "l1BlobBaseFeeScalar": "0x0",
      "l1Fee": "0x0",
      "l1GasPrice": "0xb",
      "l1GasUsed": "0x640"
    },
    {
      "status": "0x1",
      "cumulativeGasUsed": "0x7407e",
      "logs": [
        {
          "address": "0xf1b77ffc1f71b21b6c69876cedaf82340803de75",
          "topics": [
            "0x133037347700fe9a7e5fffb139c832853fc52536035550fc6bc3b3f6207fd875",
            "0x000000000000000000000000734bb3251ec3f1a83f8f2a8609bcef649d54ebf8"
          ],
          "data": "0x0000000000000000000000000000000000000000000000000000000000000001",
          "blockHash": "0x3ec134872fab90ca9bc53c2004b605601ec489401c9d6927b76496e1b1494c80",
          "blockNumber": "0x124c57a",
          "transactionHash": "0x159eb08a0290489a7ffd16a450e1509f98517cd3f0f0c2e3b367a4c84409f43f",
          "transactionIndex": "0x3",
          "logIndex": "0x2",
          "removed": false
        }
      ],
      "logsBloom": "0x00000000000000000000000000000000000000000000000000000000000200000000000000000000000000000000800000000000000008000000000000000000000000000000000000000000004000000000000000008000000000000000000000000000000000000000000000000000000000000000000000000000000000000000000000000000000000000000000000000000000000000000000000000000000000000000000000000000000000000000000800000000000000010000000000000000000000000000000000000000000000000000000000000000000000800001000000000000000000000000000000000000000000000000000000000000",
      "type": "0x2",
      "transactionHash": "0x159eb08a0290489a7ffd16a450e1509f98517cd3f0f0c2e3b367a4c84409f43f",
      "transactionIndex": "0x3",
      "blockHash": "0x3ec134872fab90ca9bc53c2004b605601ec489401c9d6927b76496e1b1494c80",
      "blockNumber": "0x124c57a",
      "gasUsed": "0xd74d",
      "effectiveGasPrice": "0x5d21dba01",
      "from": "0x2738f38fde510743e0c589415e0598c4cee6eaa7",
      "to": "0xf1b77ffc1f71b21b6c69876cedaf82340803de75",
      "contractAddress": null,
      "l1BaseFeeScalar": "0x0",
      "l1BlobBaseFee": "0x1",
      "l1BlobBaseFeeScalar": "0x0",
      "l1Fee": "0x0",
      "l1GasPrice": "0xb",
      "l1GasUsed": "0x640"
    },
    {
      "status": "0x1",
      "cumulativeGasUsed": "0x2ef96",
      "logs": [
        {
          "address": "0x734bb3251ec3f1a83f8f2a8609bcef649d54ebf8",
          "topics": [
            "0x5865b763d2fcaa2023d34f5622fec93cfc34b82e8625c1e622b9a6cb47a69239",
            "0x000000000000000000000000f1b77ffc1f71b21b6c69876cedaf82340803de75"
          ],
          "data": "0x000000000000000000000000f1b77ffc1f71b21b6c69876cedaf82340803de75000000000000000000000000de9e4c3ce781b4ba68120d6261cbad65ce0ab00b000000000000000000000000000000000000000000000000000000000000012c0000000000000000000000002738f38fde510743e0c589415e0598c4cee6eaa70000000000000000000000000000000000000000000000000000000000000000000000000000000000000000000000000000000000000000000000000000000000000000000000000000000000000000000000000000000000000000000000000000000000000000000000000000000000000000000000000000000000000000",
          "blockHash": "0xc32f1bd252a463c76b4592344bdd9cc2e4f02bda79920903f2e04d85d5cb00e6",
          "blockNumber": "0x124c580",
          "transactionHash": "0x306744cc48596e85b933bea60d6bbdfe7ebaf3128a3688d4f80ef91bbf601c2c",
          "transactionIndex": "0x1",
          "logIndex": "0x0",
          "removed": false
        }
      ],
      "logsBloom": "0x00000000020000000000000000000000000400000000000000000000000000000000000000200000000000000000000000000000000000000000000000000000000000000008000000000000001000000000000000000000000080000000000000000000000000000000000000000000000000000000040000000000000000000000000000000000000000000000000000000000000000000000000000000000000000000000000000000000000000000000000000000000000000000000000000000000000000000000000000000000000000000000002000000000000000000100000000000000000000000000000000000000000000000000000000000000",
      "type": "0x2",
      "transactionHash": "0x306744cc48596e85b933bea60d6bbdfe7ebaf3128a3688d4f80ef91bbf601c2c",
      "transactionIndex": "0x1",
      "blockHash": "0xc32f1bd252a463c76b4592344bdd9cc2e4f02bda79920903f2e04d85d5cb00e6",
      "blockNumber": "0x124c580",
      "gasUsed": "0x23bb6",
      "effectiveGasPrice": "0x5d21dba01",
      "from": "0x2738f38fde510743e0c589415e0598c4cee6eaa7",
      "to": "0x734bb3251ec3f1a83f8f2a8609bcef649d54ebf8",
      "contractAddress": null,
      "l1BaseFeeScalar": "0x0",
      "l1BlobBaseFee": "0x1",
      "l1BlobBaseFeeScalar": "0x0",
      "l1Fee": "0x0",
      "l1GasPrice": "0xb",
      "l1GasUsed": "0x85e"
    },
    {
      "status": "0x1",
      "cumulativeGasUsed": "0x1839f",
      "logs": [
        {
          "address": "0xde9e4c3ce781b4ba68120d6261cbad65ce0ab00b",
          "topics": [
            "0xb21afb9ce9be0a676f8f317ff0ca072fb89a4f8ce2d1b6fe80f8755c14f1cb19",
            "0x000000000000000000000000734bb3251ec3f1a83f8f2a8609bcef649d54ebf8"
          ],
          "data": "0x0000000000000000000000000000000000000000000000000000000000000001",
          "blockHash": "0x9726f76ae5a5458b74ab54358a14914930ad79be136dcb3dd6877ef75dbaf465",
          "blockNumber": "0x124c586",
          "transactionHash": "0x6d31836c463eed2bfb5d035d4c2e49ca5dec51c4da422bf4538e2cf7787748ad",
          "transactionIndex": "0x1",
          "logIndex": "0x0",
          "removed": false
        }
      ],
      "logsBloom": "0x00000000000000000000000000000000000000000000000000000000000200000000000000000000000000000000000000000040000000040000000000000080000000000000000000000000000000000000000000008008000000000000000000000000000000000000000000000000000000000000000000000000000000000000000000000000000000000000000000000000000000000000200000000000000000000000000000000000000000000000000000000000000000010000000000000000000000000000000000000000000000000000000000000000800000000000000000000000000000000000000000000000000000000000000000000000",
      "type": "0x2",
      "transactionHash": "0x6d31836c463eed2bfb5d035d4c2e49ca5dec51c4da422bf4538e2cf7787748ad",
      "transactionIndex": "0x1",
      "blockHash": "0x9726f76ae5a5458b74ab54358a14914930ad79be136dcb3dd6877ef75dbaf465",
      "blockNumber": "0x124c586",
      "gasUsed": "0xcfbf",
      "effectiveGasPrice": "0x5d21dba01",
      "from": "0x2738f38fde510743e0c589415e0598c4cee6eaa7",
      "to": "0xde9e4c3ce781b4ba68120d6261cbad65ce0ab00b",
      "contractAddress": null,
      "l1BaseFeeScalar": "0x0",
      "l1BlobBaseFee": "0x1",
      "l1BlobBaseFeeScalar": "0x0",
      "l1Fee": "0x0",
      "l1GasPrice": "0xb",
      "l1GasUsed": "0x640"
    },
    {
      "status": "0x1",
      "cumulativeGasUsed": "0x183c3",
      "logs": [
        {
          "address": "0xde9e4c3ce781b4ba68120d6261cbad65ce0ab00b",
          "topics": [
            "0xf0e5abe4ab32ea692e3889b4c146fd4ddae5f17bb40ab4feba97fb67a2d4de0f",
            "0x000000000000000000000000734bb3251ec3f1a83f8f2a8609bcef649d54ebf8"
          ],
          "data": "0x0000000000000000000000000000000000000000000000000000000000000001",
          "blockHash": "0x15d7772f64b48a2f18af99db8072b6d07caafd36d93d8e68142c1fce691d6883",
          "blockNumber": "0x124c58b",
          "transactionHash": "0x8b20168280da9a00d7fe499f132e85310bda8085ee0753d49d486dc94b203136",
          "transactionIndex": "0x1",
          "logIndex": "0x0",
          "removed": false
        }
      ],
      "logsBloom": "0x00000000000000000000000000000000000000000000000000000000000200000000000000000000000000000000000000000040040000000000000000000000100000000000000000000000000000000000000020008008000000000000000000000000000000000000000000000000000000000000000000000000000000000000000000000000000000000000000000000000000000000000000000000000000000000000000000000000000000000000000000000000000000010000000000000000000000000000000000000000000000000000000000000000800000000000000000000000000000000000000000000000000000000000000000000000",
      "type": "0x2",
      "transactionHash": "0x8b20168280da9a00d7fe499f132e85310bda8085ee0753d49d486dc94b203136",
      "transactionIndex": "0x1",
      "blockHash": "0x15d7772f64b48a2f18af99db8072b6d07caafd36d93d8e68142c1fce691d6883",
      "blockNumber": "0x124c58b",
      "gasUsed": "0xcfe3",
      "effectiveGasPrice": "0x5d21dba01",
      "from": "0x2738f38fde510743e0c589415e0598c4cee6eaa7",
      "to": "0xde9e4c3ce781b4ba68120d6261cbad65ce0ab00b",
      "contractAddress": null,
      "l1BaseFeeScalar": "0x0",
      "l1BlobBaseFee": "0x1",
      "l1BlobBaseFeeScalar": "0x0",
      "l1Fee": "0x0",
      "l1GasPrice": "0xb",
      "l1GasUsed": "0x640"
    },
    {
      "status": "0x1",
      "cumulativeGasUsed": "0x12c408",
      "logs": [
        {
          "address": "0xba5ed099633d3b313e4d5f7bdc1305d3c28ba5ed",
          "topics": [
            "0x2feea65dd4e9f9cbd86b74b7734210c59a1b2981b5b137bd0ee3e208200c9067",
            "0x0000000000000000000000001229e8a7b266c6db52712ba5c6899a6c4c3025cd",
            "0x20593f2b2e906d85ed801e5f33ed01362be3e96aa555aba054ecc779e6ec4d6a"
          ],
          "data": "0x",
          "blockHash": "0xde219246e6aa984fa595550136fbfd6021d306f43b5eebb677ba0d82a005564a",
          "blockNumber": "0x124c58f",
          "transactionHash": "0xbd75fcbf028a577ef4445dada84b264a1acadaa271b8d2a395cb022136727d52",
          "transactionIndex": "0x1",
          "logIndex": "0x0",
          "removed": false
        },
        {
          "address": "0x7109e0a9b4623e90755b7e5c4e10f089e5bf8bdb",
          "topics": [
            "0xbc7cd75a20ee27fd9adebab32041f755214dbc6bffa90cc0225b39da2e5c2d3b",
            "0x00000000000000000000000043cb9d6acf1462356303079ea4fdd8bc30042a6a"
          ],
          "data": "0x",
          "blockHash": "0xde219246e6aa984fa595550136fbfd6021d306f43b5eebb677ba0d82a005564a",
          "blockNumber": "0x124c58f",
          "transactionHash": "0xbd75fcbf028a577ef4445dada84b264a1acadaa271b8d2a395cb022136727d52",
          "transactionIndex": "0x1",
          "logIndex": "0x1",
          "removed": false
        },
        {
          "address": "0x7109e0a9b4623e90755b7e5c4e10f089e5bf8bdb",
          "topics": [
            "0x8be0079c531659141344cd1fd0a4f28419497f9722a3daafe3b4186f6b6457e0",
            "0x0000000000000000000000000000000000000000000000000000000000000000",
            "0x0000000000000000000000001229e8a7b266c6db52712ba5c6899a6c4c3025cd"
          ],
          "data": "0x",
          "blockHash": "0xde219246e6aa984fa595550136fbfd6021d306f43b5eebb677ba0d82a005564a",
          "blockNumber": "0x124c58f",
          "transactionHash": "0xbd75fcbf028a577ef4445dada84b264a1acadaa271b8d2a395cb022136727d52",
          "transactionIndex": "0x1",
          "logIndex": "0x2",
          "removed": false
        },
        {
          "address": "0x7109e0a9b4623e90755b7e5c4e10f089e5bf8bdb",
          "topics": [
            "0xb5d5dda8af4f1e40a5cc4aa66c39ca5aac7f90947261313b07527eb3bdd98bc7"
          ],
          "data": "0x00000000000000000000000000000000000000000000000000000000000000000000000000000000000000000000000000000000000000000000000000000003",
          "blockHash": "0xde219246e6aa984fa595550136fbfd6021d306f43b5eebb677ba0d82a005564a",
          "blockNumber": "0x124c58f",
          "transactionHash": "0xbd75fcbf028a577ef4445dada84b264a1acadaa271b8d2a395cb022136727d52",
          "transactionIndex": "0x1",
          "logIndex": "0x3",
          "removed": false
        },
        {
          "address": "0x7109e0a9b4623e90755b7e5c4e10f089e5bf8bdb",
          "topics": [
            "0xd3890fc76afcfc31cba1dcf2c27b50e2541e4d75039c981855b5b5e03682aea0",
            "0x0000000000000000000000000000000000000000000000000000000000000000",
            "0x0000000000000000000000002738f38fde510743e0c589415e0598c4cee6eaa7"
          ],
          "data": "0x",
          "blockHash": "0xde219246e6aa984fa595550136fbfd6021d306f43b5eebb677ba0d82a005564a",
          "blockNumber": "0x124c58f",
          "transactionHash": "0xbd75fcbf028a577ef4445dada84b264a1acadaa271b8d2a395cb022136727d52",
          "transactionIndex": "0x1",
          "logIndex": "0x4",
          "removed": false
        },
        {
          "address": "0x7109e0a9b4623e90755b7e5c4e10f089e5bf8bdb",
          "topics": [
            "0xb404cac19fb1cbeff98d325795b08886e3cd8fe8cb1a2f193aac66f13fb239c3"
          ],
          "data": "0x00000000000000000000000000000000000000000000000000000000000000000000000000000000000000000000000000000000000000000000000000000002",
          "blockHash": "0xde219246e6aa984fa595550136fbfd6021d306f43b5eebb677ba0d82a005564a",
          "blockNumber": "0x124c58f",
          "transactionHash": "0xbd75fcbf028a577ef4445dada84b264a1acadaa271b8d2a395cb022136727d52",
          "transactionIndex": "0x1",
          "logIndex": "0x5",
          "removed": false
        },
        {
          "address": "0x7109e0a9b4623e90755b7e5c4e10f089e5bf8bdb",
          "topics": [
            "0xb273226859e3e49fd86c9ac8f721eaa74e677de0877db704918e0f43ec8d23bc"
          ],
          "data": "0x00000000000000000000000000000000000000000000000000000000000000000000000000000000000000000000000000000000000000000000000000000001",
          "blockHash": "0xde219246e6aa984fa595550136fbfd6021d306f43b5eebb677ba0d82a005564a",
          "blockNumber": "0x124c58f",
          "transactionHash": "0xbd75fcbf028a577ef4445dada84b264a1acadaa271b8d2a395cb022136727d52",
          "transactionIndex": "0x1",
          "logIndex": "0x6",
          "removed": false
        },
        {
          "address": "0x7109e0a9b4623e90755b7e5c4e10f089e5bf8bdb",
          "topics": [
            "0x77c5ddba87b3d3f970242eda9bb1263ade9e4aed3eca233d5fa1af00a574b025"
          ],
          "data": "0x0000000000000000000000000000000000000000000000000000000000000000000000000000000000000000000000000000000000000000000000000000000000000000000000000000000000000000000000000000000000000000000013880000000000000000000000000000000000000000000000000000000000000d05",
          "blockHash": "0xde219246e6aa984fa595550136fbfd6021d306f43b5eebb677ba0d82a005564a",
          "blockNumber": "0x124c58f",
          "transactionHash": "0xbd75fcbf028a577ef4445dada84b264a1acadaa271b8d2a395cb022136727d52",
          "transactionIndex": "0x1",
          "logIndex": "0x7",
          "removed": false
        },
        {
          "address": "0x7109e0a9b4623e90755b7e5c4e10f089e5bf8bdb",
          "topics": [
            "0xe4630e6e66d263636ccf946c97182b0edb7bbea539a79dfa121bab7444e83b79",
            "0x0000000000000000000000000000000000000000000000000000000000000000",
            "0x00000000000000000000000026eff54e2f0e8825996b83119b7df5ef2c882dd7"
          ],
          "data": "0x",
          "blockHash": "0xde219246e6aa984fa595550136fbfd6021d306f43b5eebb677ba0d82a005564a",
          "blockNumber": "0x124c58f",
          "transactionHash": "0xbd75fcbf028a577ef4445dada84b264a1acadaa271b8d2a395cb022136727d52",
          "transactionIndex": "0x1",
          "logIndex": "0x8",
          "removed": false
        },
        {
          "address": "0x7109e0a9b4623e90755b7e5c4e10f089e5bf8bdb",
          "topics": [
            "0xc1ba25a60afffd747fd25304e169131b7ae93932f7f3e508a8cec0e18fa12842",
            "0x0000000000000000000000000000000000000000000000000000000000000000",
            "0x000000000000000000000000a1a8003936862e7a15092a91898d69fa8bce290c"
          ],
          "data": "0x",
          "blockHash": "0xde219246e6aa984fa595550136fbfd6021d306f43b5eebb677ba0d82a005564a",
          "blockNumber": "0x124c58f",
          "transactionHash": "0xbd75fcbf028a577ef4445dada84b264a1acadaa271b8d2a395cb022136727d52",
          "transactionIndex": "0x1",
          "logIndex": "0x9",
          "removed": false
        },
        {
          "address": "0x7109e0a9b4623e90755b7e5c4e10f089e5bf8bdb",
          "topics": [
            "0x00af8726a3679feb41b28b0996e403259aceb28ec6f3c6c3dc7a4c4fe6c8fce1"
          ],
          "data": "0x00000000000000000000000000000000000000000000000000000000000000000000000000000000000000000000000000000000000000000000000000000000",
          "blockHash": "0xde219246e6aa984fa595550136fbfd6021d306f43b5eebb677ba0d82a005564a",
          "blockNumber": "0x124c58f",
          "transactionHash": "0xbd75fcbf028a577ef4445dada84b264a1acadaa271b8d2a395cb022136727d52",
          "transactionIndex": "0x1",
          "logIndex": "0xa",
          "removed": false
        },
        {
          "address": "0x7109e0a9b4623e90755b7e5c4e10f089e5bf8bdb",
          "topics": [
            "0x8be0079c531659141344cd1fd0a4f28419497f9722a3daafe3b4186f6b6457e0",
            "0x0000000000000000000000001229e8a7b266c6db52712ba5c6899a6c4c3025cd",
            "0x0000000000000000000000002738f38fde510743e0c589415e0598c4cee6eaa7"
          ],
          "data": "0x",
          "blockHash": "0xde219246e6aa984fa595550136fbfd6021d306f43b5eebb677ba0d82a005564a",
          "blockNumber": "0x124c58f",
          "transactionHash": "0xbd75fcbf028a577ef4445dada84b264a1acadaa271b8d2a395cb022136727d52",
          "transactionIndex": "0x1",
          "logIndex": "0xb",
          "removed": false
        },
        {
          "address": "0x7109e0a9b4623e90755b7e5c4e10f089e5bf8bdb",
          "topics": [
            "0x7f26b83ff96e1f2b6a682f133852f6798a09c465da95921460cefb3847402498"
          ],
          "data": "0x0000000000000000000000000000000000000000000000000000000000000001",
          "blockHash": "0xde219246e6aa984fa595550136fbfd6021d306f43b5eebb677ba0d82a005564a",
          "blockNumber": "0x124c58f",
          "transactionHash": "0xbd75fcbf028a577ef4445dada84b264a1acadaa271b8d2a395cb022136727d52",
          "transactionIndex": "0x1",
          "logIndex": "0xc",
          "removed": false
        },
        {
          "address": "0x7109e0a9b4623e90755b7e5c4e10f089e5bf8bdb",
          "topics": [
            "0x7e644d79422f17c01e4894b5f4f588d331ebfa28653d42ae832dc59e38c9798f"
          ],
          "data": "0x000000000000000000000000000000000000000000000000000000000000000000000000000000000000000001bd47aa7b13a75c24e3da760f8a503c435bb4df",
          "blockHash": "0xde219246e6aa984fa595550136fbfd6021d306f43b5eebb677ba0d82a005564a",
          "blockNumber": "0x124c58f",
          "transactionHash": "0xbd75fcbf028a577ef4445dada84b264a1acadaa271b8d2a395cb022136727d52",
          "transactionIndex": "0x1",
          "logIndex": "0xd",
          "removed": false
        },
        {
          "address": "0xba5ed099633d3b313e4d5f7bdc1305d3c28ba5ed",
          "topics": [
            "0x4db17dd5e4732fb6da34a148104a592783ca119a1e7bb8829eba6cbadef0b511",
            "0x0000000000000000000000007109e0a9b4623e90755b7e5c4e10f089e5bf8bdb"
          ],
          "data": "0x",
          "blockHash": "0xde219246e6aa984fa595550136fbfd6021d306f43b5eebb677ba0d82a005564a",
          "blockNumber": "0x124c58f",
          "transactionHash": "0xbd75fcbf028a577ef4445dada84b264a1acadaa271b8d2a395cb022136727d52",
          "transactionIndex": "0x1",
          "logIndex": "0xe",
          "removed": false
        },
        {
          "address": "0x353ed52bf8482027c0e0b9e3c0e5d96a9f680980",
          "topics": [
            "0xcf8e77154e470bf74e2e443ad6193730ed2a7c72279dc06aa8c12daf20c7768e",
            "0x00000000000000000000000001c5c0122039549ad1493b8220cabedd739bc44e",
            "0x000000000000000000000000de9e4c3ce781b4ba68120d6261cbad65ce0ab00b"
          ],
          "data": "0x0000000000000000000000007109e0a9b4623e90755b7e5c4e10f089e5bf8bdb00000000000000000000000043cb9d6acf1462356303079ea4fdd8bc30042a6a",
          "blockHash": "0xde219246e6aa984fa595550136fbfd6021d306f43b5eebb677ba0d82a005564a",
          "blockNumber": "0x124c58f",
          "transactionHash": "0xbd75fcbf028a577ef4445dada84b264a1acadaa271b8d2a395cb022136727d52",
          "transactionIndex": "0x1",
          "logIndex": "0xf",
          "removed": false
        }
      ],
      "logsBloom": "0x000200000000820000000480000004a0400000000000000000800001200010000100010200000000000400000000001000000000000804000000000000008004002000000000000000000000020042000001040000200000006000000040000000004010020002000000004000100800000000801120000040000000000000400000000000000000000400000000000008000000020880000004004000800010000002020044000020000000000400000000000000000000000001000010200000000824020000000200080000040010000000002400000020000000000024000000000000000200000000000000000004080080000020000200000000000000",
      "type": "0x2",
      "transactionHash": "0xbd75fcbf028a577ef4445dada84b264a1acadaa271b8d2a395cb022136727d52",
      "transactionIndex": "0x1",
      "blockHash": "0xde219246e6aa984fa595550136fbfd6021d306f43b5eebb677ba0d82a005564a",
      "blockNumber": "0x124c58f",
      "gasUsed": "0x121028",
      "effectiveGasPrice": "0x5d21dba01",
      "from": "0x2738f38fde510743e0c589415e0598c4cee6eaa7",
      "to": "0x353ed52bf8482027c0e0b9e3c0e5d96a9f680980",
      "contractAddress": null,
      "l1BaseFeeScalar": "0x0",
      "l1BlobBaseFee": "0x1",
      "l1BlobBaseFeeScalar": "0x0",
      "l1Fee": "0x0",
      "l1GasPrice": "0xb",
      "l1GasUsed": "0xf7a"
    },
    {
      "status": "0x1",
      "cumulativeGasUsed": "0x1a6af",
      "logs": [
        {
          "address": "0x01c5c0122039549ad1493b8220cabedd739bc44e",
          "topics": [
            "0xddf252ad1be2c89b69c2b068fc378daa952ba7f163c4a11628f55a4df523b3ef",
            "0x0000000000000000000000002738f38fde510743e0c589415e0598c4cee6eaa7",
            "0x0000000000000000000000007109e0a9b4623e90755b7e5c4e10f089e5bf8bdb"
          ],
          "data": "0x00000000000000000000000000000000000000000000000000000000000f4268",
          "blockHash": "0x7897a8eea8e88610e31630fc57e20b9f9170026a556f9d2f889384c8826c723e",
          "blockNumber": "0x124c594",
          "transactionHash": "0x80c527e9bc2123f304aecb88886c761a753a2ba757e04232377cc82f49ad3dbe",
          "transactionIndex": "0x1",
          "logIndex": "0x0",
          "removed": false
        }
      ],
      "logsBloom": "0x00000000000080000000000000000000000000000000000000000000000000000000000000000000000000000000000000000000000000000000000000000000002000000000000000000008000000000000000000000000000000000000000000000000000000000000000000000010000000004100000000000010000000000000000000000000000000000000000000000000000000000000000000000010000000000000000000000000000000000000000000000000000001000000000000000802000000000000000000000000000000000000000000000000000000000000000000000000000000000000000000000000000004000000000000000000",
      "type": "0x2",
      "transactionHash": "0x80c527e9bc2123f304aecb88886c761a753a2ba757e04232377cc82f49ad3dbe",
      "transactionIndex": "0x1",
      "blockHash": "0x7897a8eea8e88610e31630fc57e20b9f9170026a556f9d2f889384c8826c723e",
      "blockNumber": "0x124c594",
      "gasUsed": "0xf2cf",
      "effectiveGasPrice": "0x5d21dba01",
      "from": "0x2738f38fde510743e0c589415e0598c4cee6eaa7",
      "to": "0x01c5c0122039549ad1493b8220cabedd739bc44e",
      "contractAddress": null,
      "l1BaseFeeScalar": "0x0",
      "l1BlobBaseFee": "0x1",
      "l1BlobBaseFeeScalar": "0x0",
      "l1Fee": "0x0",
      "l1GasPrice": "0xb",
      "l1GasUsed": "0x640"
    },
    {
      "status": "0x1",
      "cumulativeGasUsed": "0x191c9",
      "logs": [
        {
          "address": "0xde9e4c3ce781b4ba68120d6261cbad65ce0ab00b",
          "topics": [
            "0xddf252ad1be2c89b69c2b068fc378daa952ba7f163c4a11628f55a4df523b3ef",
            "0x0000000000000000000000002738f38fde510743e0c589415e0598c4cee6eaa7",
            "0x0000000000000000000000007109e0a9b4623e90755b7e5c4e10f089e5bf8bdb"
          ],
          "data": "0x0000000000000000000000000000000000000000000000000de0b6b3a7640000",
          "blockHash": "0xf326f9576685fd9a2089aeb86b43f5052130bf5212ed7c0f48f9239c0884e00b",
          "blockNumber": "0x124c59a",
          "transactionHash": "0x67fa5032dad990b08022485ccd62190dd3913fa2600cc96756407b4e1099d723",
          "transactionIndex": "0x1",
          "logIndex": "0x0",
          "removed": false
        }
      ],
      "logsBloom": "0x00000000000080000000000000000000000000000000000000000000000000000000000000000000000000000000000000000040000000000000000000000000002000000000000000000008000000000000000000000008000000000000000000000000000000000000000000000000000000000100000000000010000000000000000000000000000000000000000000000000000000000000000000000010000000000000000000000000000000000000000000000000000001000000000000000802000000000000000000000000000000000000000000000000800000000000000000000000000000000000000000000000000000000000000000000000",
      "type": "0x2",
      "transactionHash": "0x67fa5032dad990b08022485ccd62190dd3913fa2600cc96756407b4e1099d723",
      "transactionIndex": "0x1",
      "blockHash": "0xf326f9576685fd9a2089aeb86b43f5052130bf5212ed7c0f48f9239c0884e00b",
      "blockNumber": "0x124c59a",
      "gasUsed": "0xdde9",
      "effectiveGasPrice": "0x5d21dba01",
      "from": "0x2738f38fde510743e0c589415e0598c4cee6eaa7",
      "to": "0xde9e4c3ce781b4ba68120d6261cbad65ce0ab00b",
      "contractAddress": null,
      "l1BaseFeeScalar": "0x0",
      "l1BlobBaseFee": "0x1",
      "l1BlobBaseFeeScalar": "0x0",
      "l1Fee": "0x0",
      "l1GasPrice": "0xb",
      "l1GasUsed": "0x640"
    },
    {
      "status": "0x1",
      "cumulativeGasUsed": "0x42422",
      "logs": [
        {
          "address": "0x7109e0a9b4623e90755b7e5c4e10f089e5bf8bdb",
          "topics": [
            "0xddf252ad1be2c89b69c2b068fc378daa952ba7f163c4a11628f55a4df523b3ef",
            "0x0000000000000000000000000000000000000000000000000000000000000000",
            "0x0000000000000000000000000000000000000000000000000000000000000001"
          ],
          "data": "0x00000000000000000000000000000000000000000000000000000000000003e8",
          "blockHash": "0x40aee96ad694c925ffb0b4d50a1a5fceae3900f60e5e72b76abfedabd323943b",
          "blockNumber": "0x124c59f",
          "transactionHash": "0x1df80ef22b00ad66d4171fe829ea8e0091e0b8fa974f5a3fe20954ac7508773f",
          "transactionIndex": "0x1",
          "logIndex": "0x0",
          "removed": false
        },
        {
          "address": "0x7109e0a9b4623e90755b7e5c4e10f089e5bf8bdb",
          "topics": [
            "0xddf252ad1be2c89b69c2b068fc378daa952ba7f163c4a11628f55a4df523b3ef",
            "0x0000000000000000000000000000000000000000000000000000000000000000",
            "0x0000000000000000000000002738f38fde510743e0c589415e0598c4cee6eaa7"
          ],
          "data": "0x000000000000000000000000000000000000000000000000000000e8d5d63850",
          "blockHash": "0x40aee96ad694c925ffb0b4d50a1a5fceae3900f60e5e72b76abfedabd323943b",
          "blockNumber": "0x124c59f",
          "transactionHash": "0x1df80ef22b00ad66d4171fe829ea8e0091e0b8fa974f5a3fe20954ac7508773f",
          "transactionIndex": "0x1",
          "logIndex": "0x1",
          "removed": false
        },
        {
          "address": "0x7109e0a9b4623e90755b7e5c4e10f089e5bf8bdb",
          "topics": [
            "0xf71a0e183fe1c86e734de92237976be5699cb46fd28373d6ace2f8eafea2857c"
          ],
          "data": "0x00000000000000000000000000000000000000000000000000000000000f42680000000000000000000000000000000000000000000000000de0b6b3a76400000000000000000000000000000000000000000000000000000000000069a5c333",
          "blockHash": "0x40aee96ad694c925ffb0b4d50a1a5fceae3900f60e5e72b76abfedabd323943b",
          "blockNumber": "0x124c59f",
          "transactionHash": "0x1df80ef22b00ad66d4171fe829ea8e0091e0b8fa974f5a3fe20954ac7508773f",
          "transactionIndex": "0x1",
          "logIndex": "0x2",
          "removed": false
        },
        {
          "address": "0x7109e0a9b4623e90755b7e5c4e10f089e5bf8bdb",
          "topics": [
            "0xa8137fff86647d8a402117b9c5dbda627f721d3773338fb9678c83e54ed39080",
            "0x0000000000000000000000002738f38fde510743e0c589415e0598c4cee6eaa7",
            "0x0000000000000000000000002738f38fde510743e0c589415e0598c4cee6eaa7"
          ],
          "data": "0x00000000000000000000000000000000000000000000000000000000000f42680000000000000000000000000000000000000000000000000de0b6b3a7640000000000000000000000000000000000000000000000000000000000e8d5d63850",
          "blockHash": "0x40aee96ad694c925ffb0b4d50a1a5fceae3900f60e5e72b76abfedabd323943b",
          "blockNumber": "0x124c59f",
          "transactionHash": "0x1df80ef22b00ad66d4171fe829ea8e0091e0b8fa974f5a3fe20954ac7508773f",
          "transactionIndex": "0x1",
          "logIndex": "0x3",
          "removed": false
        }
      ],
      "logsBloom": "0x00000000200000000000000000000000000000000000000000000000000000000000000000000000000000000000000000000000080000000000000000048004002000000100000000000008000000000000000000040000000000000040000000000000020000000000000000000800000000000000000000000010000000000000000000000000000000000000000000000000000000000000000000000010000000000000000000000000000000400000000000000000000000000000400000000802000000000000000000000000000000000000000000000000000060000000000000000000000000000000000000000000000000000000000000000000",
      "type": "0x2",
      "transactionHash": "0x1df80ef22b00ad66d4171fe829ea8e0091e0b8fa974f5a3fe20954ac7508773f",
      "transactionIndex": "0x1",
      "blockHash": "0x40aee96ad694c925ffb0b4d50a1a5fceae3900f60e5e72b76abfedabd323943b",
      "blockNumber": "0x124c59f",
      "gasUsed": "0x37042",
      "effectiveGasPrice": "0x5d21dba01",
      "from": "0x2738f38fde510743e0c589415e0598c4cee6eaa7",
      "to": "0x7109e0a9b4623e90755b7e5c4e10f089e5bf8bdb",
      "contractAddress": null,
      "l1BaseFeeScalar": "0x0",
      "l1BlobBaseFee": "0x1",
      "l1BlobBaseFeeScalar": "0x0",
      "l1Fee": "0x0",
      "l1GasPrice": "0xb",
      "l1GasUsed": "0x640"
    },
    {
      "status": "0x1",
      "cumulativeGasUsed": "0x1d9f5",
      "logs": [
        {
          "address": "0x7109e0a9b4623e90755b7e5c4e10f089e5bf8bdb",
          "topics": [
            "0x0a59d45890c37e353ebb4ff4a00b4e5002b27b21e3a308daea7646097c12533f",
            "0x00000000000000000000000001c5c0122039549ad1493b8220cabedd739bc44e"
          ],
          "data": "0x00000000000000000000000000000000000000000000001b1ae4d6e2ef50000000000000000000000000000000000000000000000000003635c9adc5dea000000000000000000000000000000000000000000000000000000000000000000006",
          "blockHash": "0x59cfd8f5aa6862c1e9411163f16c7275c06d07ec30cb8aa80aa1c681ef022122",
          "blockNumber": "0x124c5a3",
          "transactionHash": "0x1c16914cacb2409a4705d03bb43740822c846a954227cfa46fadc3b38b3077fd",
          "transactionIndex": "0x1",
          "logIndex": "0x0",
          "removed": false
        }
      ],
      "logsBloom": "0x00000000000000000000000000000000000000000000000004000000000000000000000000000000000000000000000000000000000000000000000100008004000000000000000000000000000000000000000000200000000000000040000000000000000000000000000000000000000000000000000000000000000000000000000000000000000000000000000000000000000000000000000000000000000000000000000000000000000000000000000000000000000000000000000000000004000000000000000000000000000000000000000000000000010000000000000000000000000000000000000000000000000000000200000000000000",
      "type": "0x2",
      "transactionHash": "0x1c16914cacb2409a4705d03bb43740822c846a954227cfa46fadc3b38b3077fd",
      "transactionIndex": "0x1",
      "blockHash": "0x59cfd8f5aa6862c1e9411163f16c7275c06d07ec30cb8aa80aa1c681ef022122",
      "blockNumber": "0x124c5a3",
      "gasUsed": "0x12615",
      "effectiveGasPrice": "0x5d21dba01",
      "from": "0x2738f38fde510743e0c589415e0598c4cee6eaa7",
      "to": "0x7109e0a9b4623e90755b7e5c4e10f089e5bf8bdb",
      "contractAddress": null,
      "l1BaseFeeScalar": "0x0",
      "l1BlobBaseFee": "0x1",
      "l1BlobBaseFeeScalar": "0x0",
      "l1Fee": "0x0",
      "l1GasPrice": "0xb",
      "l1GasUsed": "0x640"
    },
    {
      "status": "0x1",
      "cumulativeGasUsed": "0x1d338",
      "logs": [
        {
          "address": "0x7109e0a9b4623e90755b7e5c4e10f089e5bf8bdb",
          "topics": [
            "0x0a59d45890c37e353ebb4ff4a00b4e5002b27b21e3a308daea7646097c12533f",
            "0x000000000000000000000000de9e4c3ce781b4ba68120d6261cbad65ce0ab00b"
          ],
          "data": "0x00000000000000000000000000000000000000000000001b1ae4d6e2ef50000000000000000000000000000000000000000000000000003635c9adc5dea000000000000000000000000000000000000000000000000000000000000000000012",
          "blockHash": "0x1dd7bb2f141d091421a07542dd8c77d02699710d706f40eed0056e902d1a5191",
          "blockNumber": "0x124c5a8",
          "transactionHash": "0xb24967170c2eecc29a0040ddc0159da8151fec194786967c62d528fcfbaaa583",
          "transactionIndex": "0x1",
          "logIndex": "0x0",
          "removed": false
        }
      ],
      "logsBloom": "0x00000000000000000000000000000000000000000000000004000000000000000100010000000000000000000000000000000000000000000000000100008004000000000000000000000000000000000000000000000000000000000040000000000000000002000000000000000000000000000000000000000000000000000000000000000000000000000000000000000000000000000000000000000000000000000000000000000000000000000000000000000000000000000000000000000000000000000000000000000000000000000000000000000000010000000000000000000000000000000000000000000000000000000000000000000000",
      "type": "0x2",
      "transactionHash": "0xb24967170c2eecc29a0040ddc0159da8151fec194786967c62d528fcfbaaa583",
      "transactionIndex": "0x1",
      "blockHash": "0x1dd7bb2f141d091421a07542dd8c77d02699710d706f40eed0056e902d1a5191",
      "blockNumber": "0x124c5a8",
      "gasUsed": "0x11f58",
      "effectiveGasPrice": "0x5d21dba01",
      "from": "0x2738f38fde510743e0c589415e0598c4cee6eaa7",
      "to": "0x7109e0a9b4623e90755b7e5c4e10f089e5bf8bdb",
      "contractAddress": null,
      "l1BaseFeeScalar": "0x0",
      "l1BlobBaseFee": "0x1",
      "l1BlobBaseFeeScalar": "0x0",
      "l1Fee": "0x0",
      "l1GasPrice": "0xb",
      "l1GasUsed": "0x697"
    },
    {
      "status": "0x1",
      "cumulativeGasUsed": "0xaafd3",
      "logs": [
        {
          "address": "0xbcdc1d0b92dfceeaa0fcd0a0d53355f4bf1db8a7",
          "topics": [
            "0x52cceb71b4b81514c72f2311183885dd3a70cca83e7811fa08e9b9937047109d",
            "0x00000000000000000000000001c5c0122039549ad1493b8220cabedd739bc44e"
          ],
          "data": "0x",
          "blockHash": "0xc73c52f6fa0b6455d3b798429bbb3367b7a4b5541f6b446a185da7ac18ccb9a5",
          "blockNumber": "0x124c5ae",
          "transactionHash": "0xdaa672a09e7cf81917ecdaa5cbdcb6dca75d0eb83039b6bffe19e5153522397c",
          "transactionIndex": "0x4",
          "logIndex": "0x3",
          "removed": false
        }
      ],
      "logsBloom": "0x00000000004000000000000000000000000000000000000000000000000000000000000000000000000000000000000000000000000000000000000000000000000000000000000000000000000000000000000000200000000000000000000000000000000000000000000000000000000000000000000000000200000000000000000100000000000000000000000000000000000000000000000000000000000000000000080000000000000000000000000000000000000000000000000000000004000000000000000040000800000000000000000000000000000000000000000000000000000000000000000000000000000000000200000000000000",
      "type": "0x2",
      "transactionHash": "0xdaa672a09e7cf81917ecdaa5cbdcb6dca75d0eb83039b6bffe19e5153522397c",
      "transactionIndex": "0x4",
      "blockHash": "0xc73c52f6fa0b6455d3b798429bbb3367b7a4b5541f6b446a185da7ac18ccb9a5",
      "blockNumber": "0x124c5ae",
      "gasUsed": "0x13816",
      "effectiveGasPrice": "0x5d21dba01",
      "from": "0x2738f38fde510743e0c589415e0598c4cee6eaa7",
      "to": "0xbcdc1d0b92dfceeaa0fcd0a0d53355f4bf1db8a7",
      "contractAddress": null,
      "l1BaseFeeScalar": "0x0",
      "l1BlobBaseFee": "0x1",
      "l1BlobBaseFeeScalar": "0x0",
      "l1Fee": "0x0",
      "l1GasPrice": "0xb",
      "l1GasUsed": "0x640"
    },
    {
      "status": "0x1",
      "cumulativeGasUsed": "0xa9737",
      "logs": [
        {
          "address": "0x7109e0a9b4623e90755b7e5c4e10f089e5bf8bdb",
          "topics": [
            "0x133037347700fe9a7e5fffb139c832853fc52536035550fc6bc3b3f6207fd875",
            "0x000000000000000000000000734bb3251ec3f1a83f8f2a8609bcef649d54ebf8"
          ],
          "data": "0x0000000000000000000000000000000000000000000000000000000000000001",
          "blockHash": "0xa942969e97635120161c633455eae4f83d0dfc697cab7fd24c9ac64686c8d215",
          "blockNumber": "0x124c5b3",
          "transactionHash": "0x97ebcf804b65cb1d550d3fa7fdd704cecd9327e558dbdd64c204338971293aac",
          "transactionIndex": "0x5",
          "logIndex": "0x4",
          "removed": false
        }
      ],
      "logsBloom": "0x00000000000000000000000000000000000000000000000000000000000200000000000000000000000000000000000000000000000008000000000000008004000000000000000000000000000000000000000000008000000000000040000000000000000000000000000000000000000000000000000000000000000000000000000000000000000000000000000000000000000000000000000000000000000000000000000000000000000000000000000000000000000000010000000000000000000000000000000000000000000000000000000000000000000000800001000000000000000000000000000000000000000000000000000000000000",
      "type": "0x2",
      "transactionHash": "0x97ebcf804b65cb1d550d3fa7fdd704cecd9327e558dbdd64c204338971293aac",
      "transactionIndex": "0x5",
      "blockHash": "0xa942969e97635120161c633455eae4f83d0dfc697cab7fd24c9ac64686c8d215",
      "blockNumber": "0x124c5b3",
      "gasUsed": "0xd74d",
      "effectiveGasPrice": "0x5d21dba01",
      "from": "0x2738f38fde510743e0c589415e0598c4cee6eaa7",
      "to": "0x7109e0a9b4623e90755b7e5c4e10f089e5bf8bdb",
      "contractAddress": null,
      "l1BaseFeeScalar": "0x0",
      "l1BlobBaseFee": "0x1",
      "l1BlobBaseFeeScalar": "0x0",
      "l1Fee": "0x0",
      "l1GasPrice": "0xb",
      "l1GasUsed": "0x640"
    },
    {
      "status": "0x1",
      "cumulativeGasUsed": "0x7f96b",
      "logs": [
        {
          "address": "0x734bb3251ec3f1a83f8f2a8609bcef649d54ebf8",
          "topics": [
            "0x5865b763d2fcaa2023d34f5622fec93cfc34b82e8625c1e622b9a6cb47a69239",
            "0x0000000000000000000000007109e0a9b4623e90755b7e5c4e10f089e5bf8bdb"
          ],
          "data": "0x0000000000000000000000007109e0a9b4623e90755b7e5c4e10f089e5bf8bdb000000000000000000000000de9e4c3ce781b4ba68120d6261cbad65ce0ab00b000000000000000000000000000000000000000000000000000000000000012c0000000000000000000000002738f38fde510743e0c589415e0598c4cee6eaa70000000000000000000000000000000000000000000000000000000000000000000000000000000000000000000000000000000000000000000000000000000000000000000000000000000000000000000000000000000000000000000000000000000000000000000000000000000000000000000000000000000000000000",
          "blockHash": "0xc76d9a8d4c479c15567091ac40a2f2bd4c388bfffae618f37a640862642d591d",
          "blockNumber": "0x124c5b7",
          "transactionHash": "0xbdfbdf257d62d48a4587bb5d2f604f55e7cf7775ae1f49378ee4f0535df02b00",
          "transactionIndex": "0x3",
          "logIndex": "0x2",
          "removed": false
        }
      ],
      "logsBloom": "0x00000000000080000000000000000000000400000000000000000000000000000000000000200000000000000000000000000000000000000000000000000000000000000000000000000000001000000000000000000000000080000000000000000000000000000000000000000000000000000100000000000000000000000000000000000000000000000000000000000000000000000000000000000000000000000000000000000000000000000000000000000000000001000000000000000000000000000000000000000000000000000000002000000000000000000100000000000000000000000000000000000000000000000000000000000000",
      "type": "0x2",
      "transactionHash": "0xbdfbdf257d62d48a4587bb5d2f604f55e7cf7775ae1f49378ee4f0535df02b00",
      "transactionIndex": "0x3",
      "blockHash": "0xc76d9a8d4c479c15567091ac40a2f2bd4c388bfffae618f37a640862642d591d",
      "blockNumber": "0x124c5b7",
      "gasUsed": "0x1f8ea",
      "effectiveGasPrice": "0x5d21dba01",
      "from": "0x2738f38fde510743e0c589415e0598c4cee6eaa7",
      "to": "0x734bb3251ec3f1a83f8f2a8609bcef649d54ebf8",
      "contractAddress": null,
      "l1BaseFeeScalar": "0x0",
      "l1BlobBaseFee": "0x1",
      "l1BlobBaseFeeScalar": "0x0",
      "l1Fee": "0x0",
      "l1GasPrice": "0xb",
      "l1GasUsed": "0x85e"
    },
    {
      "status": "0x1",
      "cumulativeGasUsed": "0x131c09",
      "logs": [
        {
          "address": "0xba5ed099633d3b313e4d5f7bdc1305d3c28ba5ed",
          "topics": [
            "0x2feea65dd4e9f9cbd86b74b7734210c59a1b2981b5b137bd0ee3e208200c9067",
            "0x00000000000000000000000059bad734462c92fa251a4d8d22f3ae779f9f3b11",
            "0x7a460d4df1761a46ebadab09807fd838f8e72ceb1d8c7722ee202f1148400d01"
          ],
          "data": "0x",
          "blockHash": "0x73125049d47b8018a921acace214a40356e841da60e615aced43a7d80125243e",
          "blockNumber": "0x124c5bc",
          "transactionHash": "0xa781802dc865a01c77f438e6a0fe7569ebf43a699861f216891a9263f12154f1",
          "transactionIndex": "0x1",
          "logIndex": "0x0",
          "removed": false
        },
        {
          "address": "0xd1a70f43b2a95384dd2a7d7b259293328b3974f8",
          "topics": [
            "0xbc7cd75a20ee27fd9adebab32041f755214dbc6bffa90cc0225b39da2e5c2d3b",
            "0x00000000000000000000000043cb9d6acf1462356303079ea4fdd8bc30042a6a"
          ],
          "data": "0x",
          "blockHash": "0x73125049d47b8018a921acace214a40356e841da60e615aced43a7d80125243e",
          "blockNumber": "0x124c5bc",
          "transactionHash": "0xa781802dc865a01c77f438e6a0fe7569ebf43a699861f216891a9263f12154f1",
          "transactionIndex": "0x1",
          "logIndex": "0x1",
          "removed": false
        },
        {
          "address": "0xd1a70f43b2a95384dd2a7d7b259293328b3974f8",
          "topics": [
            "0x8be0079c531659141344cd1fd0a4f28419497f9722a3daafe3b4186f6b6457e0",
            "0x0000000000000000000000000000000000000000000000000000000000000000",
            "0x00000000000000000000000059bad734462c92fa251a4d8d22f3ae779f9f3b11"
          ],
          "data": "0x",
          "blockHash": "0x73125049d47b8018a921acace214a40356e841da60e615aced43a7d80125243e",
          "blockNumber": "0x124c5bc",
          "transactionHash": "0xa781802dc865a01c77f438e6a0fe7569ebf43a699861f216891a9263f12154f1",
          "transactionIndex": "0x1",
          "logIndex": "0x2",
          "removed": false
        },
        {
          "address": "0xd1a70f43b2a95384dd2a7d7b259293328b3974f8",
          "topics": [
            "0xb5d5dda8af4f1e40a5cc4aa66c39ca5aac7f90947261313b07527eb3bdd98bc7"
          ],
          "data": "0x00000000000000000000000000000000000000000000000000000000000000000000000000000000000000000000000000000000000000000000000000000003",
          "blockHash": "0x73125049d47b8018a921acace214a40356e841da60e615aced43a7d80125243e",
          "blockNumber": "0x124c5bc",
          "transactionHash": "0xa781802dc865a01c77f438e6a0fe7569ebf43a699861f216891a9263f12154f1",
          "transactionIndex": "0x1",
          "logIndex": "0x3",
          "removed": false
        },
        {
          "address": "0xd1a70f43b2a95384dd2a7d7b259293328b3974f8",
          "topics": [
            "0xd3890fc76afcfc31cba1dcf2c27b50e2541e4d75039c981855b5b5e03682aea0",
            "0x0000000000000000000000000000000000000000000000000000000000000000",
            "0x0000000000000000000000002738f38fde510743e0c589415e0598c4cee6eaa7"
          ],
          "data": "0x",
          "blockHash": "0x73125049d47b8018a921acace214a40356e841da60e615aced43a7d80125243e",
          "blockNumber": "0x124c5bc",
          "transactionHash": "0xa781802dc865a01c77f438e6a0fe7569ebf43a699861f216891a9263f12154f1",
          "transactionIndex": "0x1",
          "logIndex": "0x4",
          "removed": false
        },
        {
          "address": "0xd1a70f43b2a95384dd2a7d7b259293328b3974f8",
          "topics": [
            "0xb404cac19fb1cbeff98d325795b08886e3cd8fe8cb1a2f193aac66f13fb239c3"
          ],
          "data": "0x00000000000000000000000000000000000000000000000000000000000000000000000000000000000000000000000000000000000000000000000000000002",
          "blockHash": "0x73125049d47b8018a921acace214a40356e841da60e615aced43a7d80125243e",
          "blockNumber": "0x124c5bc",
          "transactionHash": "0xa781802dc865a01c77f438e6a0fe7569ebf43a699861f216891a9263f12154f1",
          "transactionIndex": "0x1",
          "logIndex": "0x5",
          "removed": false
        },
        {
          "address": "0xd1a70f43b2a95384dd2a7d7b259293328b3974f8",
          "topics": [
            "0xb273226859e3e49fd86c9ac8f721eaa74e677de0877db704918e0f43ec8d23bc"
          ],
          "data": "0x00000000000000000000000000000000000000000000000000000000000000000000000000000000000000000000000000000000000000000000000000000001",
          "blockHash": "0x73125049d47b8018a921acace214a40356e841da60e615aced43a7d80125243e",
          "blockNumber": "0x124c5bc",
          "transactionHash": "0xa781802dc865a01c77f438e6a0fe7569ebf43a699861f216891a9263f12154f1",
          "transactionIndex": "0x1",
          "logIndex": "0x6",
          "removed": false
        },
        {
          "address": "0xd1a70f43b2a95384dd2a7d7b259293328b3974f8",
          "topics": [
            "0x77c5ddba87b3d3f970242eda9bb1263ade9e4aed3eca233d5fa1af00a574b025"
          ],
          "data": "0x0000000000000000000000000000000000000000000000000000000000000000000000000000000000000000000000000000000000000000000000000000000000000000000000000000000000000000000000000000000000000000000013880000000000000000000000000000000000000000000000000000000000000d05",
          "blockHash": "0x73125049d47b8018a921acace214a40356e841da60e615aced43a7d80125243e",
          "blockNumber": "0x124c5bc",
          "transactionHash": "0xa781802dc865a01c77f438e6a0fe7569ebf43a699861f216891a9263f12154f1",
          "transactionIndex": "0x1",
          "logIndex": "0x7",
          "removed": false
        },
        {
          "address": "0xd1a70f43b2a95384dd2a7d7b259293328b3974f8",
          "topics": [
            "0xe4630e6e66d263636ccf946c97182b0edb7bbea539a79dfa121bab7444e83b79",
            "0x0000000000000000000000000000000000000000000000000000000000000000",
            "0x00000000000000000000000026eff54e2f0e8825996b83119b7df5ef2c882dd7"
          ],
          "data": "0x",
          "blockHash": "0x73125049d47b8018a921acace214a40356e841da60e615aced43a7d80125243e",
          "blockNumber": "0x124c5bc",
          "transactionHash": "0xa781802dc865a01c77f438e6a0fe7569ebf43a699861f216891a9263f12154f1",
          "transactionIndex": "0x1",
          "logIndex": "0x8",
          "removed": false
        },
        {
          "address": "0xd1a70f43b2a95384dd2a7d7b259293328b3974f8",
          "topics": [
            "0xc1ba25a60afffd747fd25304e169131b7ae93932f7f3e508a8cec0e18fa12842",
            "0x0000000000000000000000000000000000000000000000000000000000000000",
            "0x000000000000000000000000e06c10c63377cd098b589c0b90314bfb55751558"
          ],
          "data": "0x",
          "blockHash": "0x73125049d47b8018a921acace214a40356e841da60e615aced43a7d80125243e",
          "blockNumber": "0x124c5bc",
          "transactionHash": "0xa781802dc865a01c77f438e6a0fe7569ebf43a699861f216891a9263f12154f1",
          "transactionIndex": "0x1",
          "logIndex": "0x9",
          "removed": false
        },
        {
          "address": "0xd1a70f43b2a95384dd2a7d7b259293328b3974f8",
          "topics": [
            "0x00af8726a3679feb41b28b0996e403259aceb28ec6f3c6c3dc7a4c4fe6c8fce1"
          ],
          "data": "0x00000000000000000000000000000000000000000000000000000000000000000000000000000000000000000000000000000000000000000000000000000000",
          "blockHash": "0x73125049d47b8018a921acace214a40356e841da60e615aced43a7d80125243e",
          "blockNumber": "0x124c5bc",
          "transactionHash": "0xa781802dc865a01c77f438e6a0fe7569ebf43a699861f216891a9263f12154f1",
          "transactionIndex": "0x1",
          "logIndex": "0xa",
          "removed": false
        },
        {
          "address": "0xd1a70f43b2a95384dd2a7d7b259293328b3974f8",
          "topics": [
            "0x8be0079c531659141344cd1fd0a4f28419497f9722a3daafe3b4186f6b6457e0",
            "0x00000000000000000000000059bad734462c92fa251a4d8d22f3ae779f9f3b11",
            "0x0000000000000000000000002738f38fde510743e0c589415e0598c4cee6eaa7"
          ],
          "data": "0x",
          "blockHash": "0x73125049d47b8018a921acace214a40356e841da60e615aced43a7d80125243e",
          "blockNumber": "0x124c5bc",
          "transactionHash": "0xa781802dc865a01c77f438e6a0fe7569ebf43a699861f216891a9263f12154f1",
          "transactionIndex": "0x1",
          "logIndex": "0xb",
          "removed": false
        },
        {
          "address": "0xd1a70f43b2a95384dd2a7d7b259293328b3974f8",
          "topics": [
            "0x7f26b83ff96e1f2b6a682f133852f6798a09c465da95921460cefb3847402498"
          ],
          "data": "0x0000000000000000000000000000000000000000000000000000000000000001",
          "blockHash": "0x73125049d47b8018a921acace214a40356e841da60e615aced43a7d80125243e",
          "blockNumber": "0x124c5bc",
          "transactionHash": "0xa781802dc865a01c77f438e6a0fe7569ebf43a699861f216891a9263f12154f1",
          "transactionIndex": "0x1",
          "logIndex": "0xc",
          "removed": false
        },
        {
          "address": "0xd1a70f43b2a95384dd2a7d7b259293328b3974f8",
          "topics": [
            "0x7e644d79422f17c01e4894b5f4f588d331ebfa28653d42ae832dc59e38c9798f"
          ],
          "data": "0x000000000000000000000000000000000000000000000000000000000000000000000000000000000000000001bd47aa7b13a75c24e3da760f8a503c435bb4df",
          "blockHash": "0x73125049d47b8018a921acace214a40356e841da60e615aced43a7d80125243e",
          "blockNumber": "0x124c5bc",
          "transactionHash": "0xa781802dc865a01c77f438e6a0fe7569ebf43a699861f216891a9263f12154f1",
          "transactionIndex": "0x1",
          "logIndex": "0xd",
          "removed": false
        },
        {
          "address": "0xba5ed099633d3b313e4d5f7bdc1305d3c28ba5ed",
          "topics": [
            "0x4db17dd5e4732fb6da34a148104a592783ca119a1e7bb8829eba6cbadef0b511",
            "0x000000000000000000000000d1a70f43b2a95384dd2a7d7b259293328b3974f8"
          ],
          "data": "0x",
          "blockHash": "0x73125049d47b8018a921acace214a40356e841da60e615aced43a7d80125243e",
          "blockNumber": "0x124c5bc",
          "transactionHash": "0xa781802dc865a01c77f438e6a0fe7569ebf43a699861f216891a9263f12154f1",
          "transactionIndex": "0x1",
          "logIndex": "0xe",
          "removed": false
        },
        {
          "address": "0x353ed52bf8482027c0e0b9e3c0e5d96a9f680980",
          "topics": [
            "0xcf8e77154e470bf74e2e443ad6193730ed2a7c72279dc06aa8c12daf20c7768e",
            "0x000000000000000000000000d077a400968890eacc75cdc901f0356c943e4fdb",
            "0x000000000000000000000000de9e4c3ce781b4ba68120d6261cbad65ce0ab00b"
          ],
          "data": "0x000000000000000000000000d1a70f43b2a95384dd2a7d7b259293328b3974f800000000000000000000000043cb9d6acf1462356303079ea4fdd8bc30042a6a",
          "blockHash": "0x73125049d47b8018a921acace214a40356e841da60e615aced43a7d80125243e",
          "blockNumber": "0x124c5bc",
          "transactionHash": "0xa781802dc865a01c77f438e6a0fe7569ebf43a699861f216891a9263f12154f1",
          "transactionIndex": "0x1",
          "logIndex": "0xf",
          "removed": false
        }
      ],
      "logsBloom": "0x00020000000002004000008000000420400000000000000000800001200010000100410200080000000400000000001000000000000804000000080000000000002000002000000000000000020042000001040000000000006001000100002010004010020002000000000000100800000010900120000000004000000000400000000000000000000400000000000008000000020880000004004000800010000002020044000000000000000400000000000000000000000000000010000000100820020000008200080000041010010000002408000020000000000024000000000000000200000000000000000000080080000004000000000000000000",
      "type": "0x2",
      "transactionHash": "0xa781802dc865a01c77f438e6a0fe7569ebf43a699861f216891a9263f12154f1",
      "transactionIndex": "0x1",
      "blockHash": "0x73125049d47b8018a921acace214a40356e841da60e615aced43a7d80125243e",
      "blockNumber": "0x124c5bc",
      "gasUsed": "0x126829",
      "effectiveGasPrice": "0x5d21dba01",
      "from": "0x2738f38fde510743e0c589415e0598c4cee6eaa7",
      "to": "0x353ed52bf8482027c0e0b9e3c0e5d96a9f680980",
      "contractAddress": null,
      "l1BaseFeeScalar": "0x0",
      "l1BlobBaseFee": "0x1",
      "l1BlobBaseFeeScalar": "0x0",
      "l1Fee": "0x0",
      "l1GasPrice": "0xb",
      "l1GasUsed": "0xf7a"
    },
    {
      "status": "0x1",
      "cumulativeGasUsed": "0x1a1c5",
      "logs": [
        {
          "address": "0xd077a400968890eacc75cdc901f0356c943e4fdb",
          "topics": [
            "0xddf252ad1be2c89b69c2b068fc378daa952ba7f163c4a11628f55a4df523b3ef",
            "0x0000000000000000000000002738f38fde510743e0c589415e0598c4cee6eaa7",
            "0x000000000000000000000000d1a70f43b2a95384dd2a7d7b259293328b3974f8"
          ],
          "data": "0x00000000000000000000000000000000000000000000000000000000000f429f",
          "blockHash": "0x9fbad6a6868a47435b340b298a3f70df769e4add4e037ea34685115517815290",
          "blockNumber": "0x124c5c2",
          "transactionHash": "0xb76b9944d8ebf444db942b26eefd069cb4fce8889dc603fc601c0f52f7e02e0b",
          "transactionIndex": "0x1",
          "logIndex": "0x0",
          "removed": false
        }
      ],
      "logsBloom": "0x00000000000000000000000000000000000000000000000000000000000000000000400000000000000000000000000000000000000000000000000000000000002000000000000000000008000000000000000000000000000000000000000000000000000000000000000000000000000010000000000000000010000000000000000000000000000000000000000000000000000000000004000000000010000000000000000000000000000000000000000000800000000000000000000000000802000000000000000000001000000000000000000000000000000000000000004000000000000000000000000000000000000000000000000000000000",
      "type": "0x2",
      "transactionHash": "0xb76b9944d8ebf444db942b26eefd069cb4fce8889dc603fc601c0f52f7e02e0b",
      "transactionIndex": "0x1",
      "blockHash": "0x9fbad6a6868a47435b340b298a3f70df769e4add4e037ea34685115517815290",
      "blockNumber": "0x124c5c2",
      "gasUsed": "0xede5",
      "effectiveGasPrice": "0x5d21dba01",
      "from": "0x2738f38fde510743e0c589415e0598c4cee6eaa7",
      "to": "0xd077a400968890eacc75cdc901f0356c943e4fdb",
      "contractAddress": null,
      "l1BaseFeeScalar": "0x0",
      "l1BlobBaseFee": "0x1",
      "l1BlobBaseFeeScalar": "0x0",
      "l1Fee": "0x0",
      "l1GasPrice": "0xb",
      "l1GasUsed": "0x640"
    },
    {
      "status": "0x1",
      "cumulativeGasUsed": "0x191c9",
      "logs": [
        {
          "address": "0xde9e4c3ce781b4ba68120d6261cbad65ce0ab00b",
          "topics": [
            "0xddf252ad1be2c89b69c2b068fc378daa952ba7f163c4a11628f55a4df523b3ef",
            "0x0000000000000000000000002738f38fde510743e0c589415e0598c4cee6eaa7",
            "0x000000000000000000000000d1a70f43b2a95384dd2a7d7b259293328b3974f8"
          ],
          "data": "0x0000000000000000000000000000000000000000000000000de0b6b3a7640000",
          "blockHash": "0x816e51fe15a8319d49cdb6c8dc7fdc11a6eb7ce40ce833e624f6d72facd5b746",
          "blockNumber": "0x124c5c8",
          "transactionHash": "0x4a8985ab46327df6f1c4ecb1b338eb113b7211a69cce7c372234cbba1ebd661b",
          "transactionIndex": "0x1",
          "logIndex": "0x0",
          "removed": false
        }
      ],
      "logsBloom": "0x00000000000000000000000000000000000000000000000000000000000000000000400000000000000000000000000000000040000000000000000000000000002000000000000000000008000000000000000000000008000000000000000000000000000000000000000000000000000010000000000000000010000000000000000000000000000000000000000000000000000000000000000000000010000000000000000000000000000000000000000000000000000000000000000000000802000000000000000000001000000000000000000000000000800000000000000000000000000000000000000000000000000000000000000000000000",
      "type": "0x2",
      "transactionHash": "0x4a8985ab46327df6f1c4ecb1b338eb113b7211a69cce7c372234cbba1ebd661b",
      "transactionIndex": "0x1",
      "blockHash": "0x816e51fe15a8319d49cdb6c8dc7fdc11a6eb7ce40ce833e624f6d72facd5b746",
      "blockNumber": "0x124c5c8",
      "gasUsed": "0xdde9",
      "effectiveGasPrice": "0x5d21dba01",
      "from": "0x2738f38fde510743e0c589415e0598c4cee6eaa7",
      "to": "0xde9e4c3ce781b4ba68120d6261cbad65ce0ab00b",
      "contractAddress": null,
      "l1BaseFeeScalar": "0x0",
      "l1BlobBaseFee": "0x1",
      "l1BlobBaseFeeScalar": "0x0",
      "l1Fee": "0x0",
      "l1GasPrice": "0xb",
      "l1GasUsed": "0x640"
    },
    {
      "status": "0x1",
      "cumulativeGasUsed": "0x4242f",
      "logs": [
        {
          "address": "0xd1a70f43b2a95384dd2a7d7b259293328b3974f8",
          "topics": [
            "0xddf252ad1be2c89b69c2b068fc378daa952ba7f163c4a11628f55a4df523b3ef",
            "0x0000000000000000000000000000000000000000000000000000000000000000",
            "0x0000000000000000000000000000000000000000000000000000000000000001"
          ],
          "data": "0x00000000000000000000000000000000000000000000000000000000000003e8",
          "blockHash": "0x4c23f3d86bf48e2edbf8efcc55dbdd0dc8ef80af9945c0883b73fb88f60a202d",
          "blockNumber": "0x124c5cd",
          "transactionHash": "0x9580b3c7eece3cb97d56ca0eedb1a252bc5bb2989dd3c55d1de947552cb0ea41",
          "transactionIndex": "0x1",
          "logIndex": "0x0",
          "removed": false
        },
        {
          "address": "0xd1a70f43b2a95384dd2a7d7b259293328b3974f8",
          "topics": [
            "0xddf252ad1be2c89b69c2b068fc378daa952ba7f163c4a11628f55a4df523b3ef",
            "0x0000000000000000000000000000000000000000000000000000000000000000",
            "0x0000000000000000000000002738f38fde510743e0c589415e0598c4cee6eaa7"
          ],
          "data": "0x000000000000000000000000000000000000000000000000000000e8d779d28f",
          "blockHash": "0x4c23f3d86bf48e2edbf8efcc55dbdd0dc8ef80af9945c0883b73fb88f60a202d",
          "blockNumber": "0x124c5cd",
          "transactionHash": "0x9580b3c7eece3cb97d56ca0eedb1a252bc5bb2989dd3c55d1de947552cb0ea41",
          "transactionIndex": "0x1",
          "logIndex": "0x1",
          "removed": false
        },
        {
          "address": "0xd1a70f43b2a95384dd2a7d7b259293328b3974f8",
          "topics": [
            "0xf71a0e183fe1c86e734de92237976be5699cb46fd28373d6ace2f8eafea2857c"
          ],
          "data": "0x00000000000000000000000000000000000000000000000000000000000f429f0000000000000000000000000000000000000000000000000de0b6b3a76400000000000000000000000000000000000000000000000000000000000069a5c361",
          "blockHash": "0x4c23f3d86bf48e2edbf8efcc55dbdd0dc8ef80af9945c0883b73fb88f60a202d",
          "blockNumber": "0x124c5cd",
          "transactionHash": "0x9580b3c7eece3cb97d56ca0eedb1a252bc5bb2989dd3c55d1de947552cb0ea41",
          "transactionIndex": "0x1",
          "logIndex": "0x2",
          "removed": false
        },
        {
          "address": "0xd1a70f43b2a95384dd2a7d7b259293328b3974f8",
          "topics": [
            "0xa8137fff86647d8a402117b9c5dbda627f721d3773338fb9678c83e54ed39080",
            "0x0000000000000000000000002738f38fde510743e0c589415e0598c4cee6eaa7",
            "0x0000000000000000000000002738f38fde510743e0c589415e0598c4cee6eaa7"
          ],
          "data": "0x00000000000000000000000000000000000000000000000000000000000f429f0000000000000000000000000000000000000000000000000de0b6b3a7640000000000000000000000000000000000000000000000000000000000e8d779d28f",
          "blockHash": "0x4c23f3d86bf48e2edbf8efcc55dbdd0dc8ef80af9945c0883b73fb88f60a202d",
          "blockNumber": "0x124c5cd",
          "transactionHash": "0x9580b3c7eece3cb97d56ca0eedb1a252bc5bb2989dd3c55d1de947552cb0ea41",
          "transactionIndex": "0x1",
          "logIndex": "0x3",
          "removed": false
        }
      ],
      "logsBloom": "0x00000000200000000000000000000000000000000000000000000000000000000000000000080000000000000000000000000000080000000000000000040000002000002100000000000008000000000000000000040000000000000000000010000000020000000000000000000800000000000000000000000010000000000000000000000000000000000000000000000000000000000000000000000010000000000000000000000000000000400000000000000000000000000000400000000802000000000000000000000000000000000000000000000000000060000000000000000000000000000000000000000000000000000000000000000000",
      "type": "0x2",
      "transactionHash": "0x9580b3c7eece3cb97d56ca0eedb1a252bc5bb2989dd3c55d1de947552cb0ea41",
      "transactionIndex": "0x1",
      "blockHash": "0x4c23f3d86bf48e2edbf8efcc55dbdd0dc8ef80af9945c0883b73fb88f60a202d",
      "blockNumber": "0x124c5cd",
      "gasUsed": "0x3704f",
      "effectiveGasPrice": "0x5d21dba01",
      "from": "0x2738f38fde510743e0c589415e0598c4cee6eaa7",
      "to": "0xd1a70f43b2a95384dd2a7d7b259293328b3974f8",
      "contractAddress": null,
      "l1BaseFeeScalar": "0x0",
      "l1BlobBaseFee": "0x1",
      "l1BlobBaseFeeScalar": "0x0",
      "l1Fee": "0x0",
      "l1GasPrice": "0xb",
      "l1GasUsed": "0x640"
    },
    {
      "status": "0x1",
      "cumulativeGasUsed": "0x1d9b5",
      "logs": [
        {
          "address": "0xd1a70f43b2a95384dd2a7d7b259293328b3974f8",
          "topics": [
            "0x0a59d45890c37e353ebb4ff4a00b4e5002b27b21e3a308daea7646097c12533f",
            "0x000000000000000000000000d077a400968890eacc75cdc901f0356c943e4fdb"
          ],
          "data": "0x00000000000000000000000000000000000000000000001b1ae4d6e2ef50000000000000000000000000000000000000000000000000003635c9adc5dea000000000000000000000000000000000000000000000000000000000000000000006",
          "blockHash": "0x61351189d21cc48e8d73d097280998b13a1d01dddcc264796b550f3e02d5acd0",
          "blockNumber": "0x124c5d1",
          "transactionHash": "0xee52c3c86e9b7dd238e55a7e1b56c0c4c2e79a5b88baa2dd6e91802717432f66",
          "transactionIndex": "0x1",
          "logIndex": "0x0",
          "removed": false
        }
      ],
      "logsBloom": "0x00000000000000000000000000000000000000000000000004000000000000000000000000080000000000000000000000000000000000000000000100000000000000002000000000000000000000000000000000000000000000000000002010000000000000000000000000000000000000000000000000000000000000000000000000000000000000000000000000000000000000000000000000000000000000000000000000000000000000000000000000000000000000000000000000100000000000000000000000000000000000000008000000000000010000000000000000000000000000000000000000000000000000000000000000000000",
      "type": "0x2",
      "transactionHash": "0xee52c3c86e9b7dd238e55a7e1b56c0c4c2e79a5b88baa2dd6e91802717432f66",
      "transactionIndex": "0x1",
      "blockHash": "0x61351189d21cc48e8d73d097280998b13a1d01dddcc264796b550f3e02d5acd0",
      "blockNumber": "0x124c5d1",
      "gasUsed": "0x125d5",
      "effectiveGasPrice": "0x5d21dba01",
      "from": "0x2738f38fde510743e0c589415e0598c4cee6eaa7",
      "to": "0xd1a70f43b2a95384dd2a7d7b259293328b3974f8",
      "contractAddress": null,
      "l1BaseFeeScalar": "0x0",
      "l1BlobBaseFee": "0x1",
      "l1BlobBaseFeeScalar": "0x0",
      "l1Fee": "0x0",
      "l1GasPrice": "0xb",
      "l1GasUsed": "0x640"
    },
    {
      "status": "0x1",
      "cumulativeGasUsed": "0x1d338",
      "logs": [
        {
          "address": "0xd1a70f43b2a95384dd2a7d7b259293328b3974f8",
          "topics": [
            "0x0a59d45890c37e353ebb4ff4a00b4e5002b27b21e3a308daea7646097c12533f",
            "0x000000000000000000000000de9e4c3ce781b4ba68120d6261cbad65ce0ab00b"
          ],
          "data": "0x00000000000000000000000000000000000000000000001b1ae4d6e2ef50000000000000000000000000000000000000000000000000003635c9adc5dea000000000000000000000000000000000000000000000000000000000000000000012",
          "blockHash": "0x1814937e84f1b28bbede39bde3b50fc0b149fe0e09f17e640cd5e3c704e8be9b",
          "blockNumber": "0x124c5d6",
          "transactionHash": "0x4285515d62041acaf5cad0d90f8143084285343e4fd7535c007a53b39dffe886",
          "transactionIndex": "0x1",
          "logIndex": "0x0",
          "removed": false
        }
      ],
      "logsBloom": "0x00000000000000000000000000000000000000000000000004000000000000000100010000080000000000000000000000000000000000000000000100000000000000002000000000000000000000000000000000000000000000000000000010000000000002000000000000000000000000000000000000000000000000000000000000000000000000000000000000000000000000000000000000000000000000000000000000000000000000000000000000000000000000000000000000000000000000000000000000000000000000000000000000000000010000000000000000000000000000000000000000000000000000000000000000000000",
      "type": "0x2",
      "transactionHash": "0x4285515d62041acaf5cad0d90f8143084285343e4fd7535c007a53b39dffe886",
      "transactionIndex": "0x1",
      "blockHash": "0x1814937e84f1b28bbede39bde3b50fc0b149fe0e09f17e640cd5e3c704e8be9b",
      "blockNumber": "0x124c5d6",
      "gasUsed": "0x11f58",
      "effectiveGasPrice": "0x5d21dba01",
      "from": "0x2738f38fde510743e0c589415e0598c4cee6eaa7",
      "to": "0xd1a70f43b2a95384dd2a7d7b259293328b3974f8",
      "contractAddress": null,
      "l1BaseFeeScalar": "0x0",
      "l1BlobBaseFee": "0x1",
      "l1BlobBaseFeeScalar": "0x0",
      "l1Fee": "0x0",
      "l1GasPrice": "0xb",
      "l1GasUsed": "0x697"
    },
    {
      "status": "0x1",
      "cumulativeGasUsed": "0x1ebea",
      "logs": [
        {
          "address": "0xbcdc1d0b92dfceeaa0fcd0a0d53355f4bf1db8a7",
          "topics": [
            "0x52cceb71b4b81514c72f2311183885dd3a70cca83e7811fa08e9b9937047109d",
            "0x000000000000000000000000d077a400968890eacc75cdc901f0356c943e4fdb"
          ],
          "data": "0x",
          "blockHash": "0x38592534088a06ac3741ca33b1ec76f0f52088221f1980a04a0e59c2c147d830",
          "blockNumber": "0x124c5db",
          "transactionHash": "0x9950059806bc9f31f2fcaaf59020f7c7fab3d901f925467b8367874192375776",
          "transactionIndex": "0x1",
          "logIndex": "0x0",
          "removed": false
        }
      ],
      "logsBloom": "0x00000000004000000000000000000000000000000000000000000000000000000000000000000000000000000000000000000000000000000000000000000000000000000000000000000000000000000000000000000000000000000000002000000000000000000000000000000000000000000000000000000200000000000000000100000000000000000000000000000000000000000000000000000000000000000000080000000000000000000000000000000000000000000000000000100000000000000000000040000800000000000008000000000000000000000000000000000000000000000000000000000000000000000000000000000000",
      "type": "0x2",
      "transactionHash": "0x9950059806bc9f31f2fcaaf59020f7c7fab3d901f925467b8367874192375776",
      "transactionIndex": "0x1",
      "blockHash": "0x38592534088a06ac3741ca33b1ec76f0f52088221f1980a04a0e59c2c147d830",
      "blockNumber": "0x124c5db",
      "gasUsed": "0x1380a",
      "effectiveGasPrice": "0x5d21dba01",
      "from": "0x2738f38fde510743e0c589415e0598c4cee6eaa7",
      "to": "0xbcdc1d0b92dfceeaa0fcd0a0d53355f4bf1db8a7",
      "contractAddress": null,
      "l1BaseFeeScalar": "0x0",
      "l1BlobBaseFee": "0x1",
      "l1BlobBaseFeeScalar": "0x0",
      "l1Fee": "0x0",
      "l1GasPrice": "0xb",
      "l1GasUsed": "0x640"
    },
    {
      "status": "0x1",
      "cumulativeGasUsed": "0x18b2d",
      "logs": [
        {
          "address": "0xd1a70f43b2a95384dd2a7d7b259293328b3974f8",
          "topics": [
            "0x133037347700fe9a7e5fffb139c832853fc52536035550fc6bc3b3f6207fd875",
            "0x000000000000000000000000734bb3251ec3f1a83f8f2a8609bcef649d54ebf8"
          ],
          "data": "0x0000000000000000000000000000000000000000000000000000000000000001",
          "blockHash": "0x770fb49f896140edbe7bb5c690a772c70cb8979b5a61ce9a6928f420c7bb639d",
          "blockNumber": "0x124c5e0",
          "transactionHash": "0x55f4d645ddd522f96063b189e98da3572230a68719d42546e2a7a9da1017a482",
          "transactionIndex": "0x1",
          "logIndex": "0x0",
          "removed": false
        }
      ],
      "logsBloom": "0x00000000000000000000000000000000000000000000000000000000000200000000000000080000000000000000000000000000000008000000000000000000000000002000000000000000000000000000000000008000000000000000000010000000000000000000000000000000000000000000000000000000000000000000000000000000000000000000000000000000000000000000000000000000000000000000000000000000000000000000000000000000000000010000000000000000000000000000000000000000000000000000000000000000000000800001000000000000000000000000000000000000000000000000000000000000",
      "type": "0x2",
      "transactionHash": "0x55f4d645ddd522f96063b189e98da3572230a68719d42546e2a7a9da1017a482",
      "transactionIndex": "0x1",
      "blockHash": "0x770fb49f896140edbe7bb5c690a772c70cb8979b5a61ce9a6928f420c7bb639d",
      "blockNumber": "0x124c5e0",
      "gasUsed": "0xd74d",
      "effectiveGasPrice": "0x5d21dba01",
      "from": "0x2738f38fde510743e0c589415e0598c4cee6eaa7",
      "to": "0xd1a70f43b2a95384dd2a7d7b259293328b3974f8",
      "contractAddress": null,
      "l1BaseFeeScalar": "0x0",
      "l1BlobBaseFee": "0x1",
      "l1BlobBaseFeeScalar": "0x0",
      "l1Fee": "0x0",
      "l1GasPrice": "0xb",
      "l1GasUsed": "0x640"
    },
    {
      "status": "0x1",
      "cumulativeGasUsed": "0x2acca",
      "logs": [
        {
          "address": "0x734bb3251ec3f1a83f8f2a8609bcef649d54ebf8",
          "topics": [
            "0x5865b763d2fcaa2023d34f5622fec93cfc34b82e8625c1e622b9a6cb47a69239",
            "0x000000000000000000000000d1a70f43b2a95384dd2a7d7b259293328b3974f8"
          ],
          "data": "0x000000000000000000000000d1a70f43b2a95384dd2a7d7b259293328b3974f8000000000000000000000000de9e4c3ce781b4ba68120d6261cbad65ce0ab00b000000000000000000000000000000000000000000000000000000000000012c0000000000000000000000002738f38fde510743e0c589415e0598c4cee6eaa70000000000000000000000000000000000000000000000000000000000000000000000000000000000000000000000000000000000000000000000000000000000000000000000000000000000000000000000000000000000000000000000000000000000000000000000000000000000000000000000000000000000000000",
          "blockHash": "0x4ffbe8b4c44de1f214f7bd54c63271785998ef88d2e0a11800f294fa930c37c9",
          "blockNumber": "0x124c5e6",
          "transactionHash": "0x701308f4872bab421c7c8d458e94b91002eea42a4c7690347ade4ecb14020bf1",
          "transactionIndex": "0x1",
          "logIndex": "0x0",
          "removed": false
        }
      ],
      "logsBloom": "0x00000000000000000000000000000000000400000000000000000000000000000000400000200000000000000000000000000000000000000000000000000000000000000000000000000000001000000000000000000000000080000000000000000000000000000000000000000000000010000000000000000000000000000000000000000000000000000000000000000000000000000000000000000000000000000000000000000000000000000000000000000000000000000000000000000000000000000000000000001000000000000000002000000000000000000100000000000000000000000000000000000000000000000000000000000000",
      "type": "0x2",
      "transactionHash": "0x701308f4872bab421c7c8d458e94b91002eea42a4c7690347ade4ecb14020bf1",
      "transactionIndex": "0x1",
      "blockHash": "0x4ffbe8b4c44de1f214f7bd54c63271785998ef88d2e0a11800f294fa930c37c9",
      "blockNumber": "0x124c5e6",
      "gasUsed": "0x1f8ea",
      "effectiveGasPrice": "0x5d21dba01",
      "from": "0x2738f38fde510743e0c589415e0598c4cee6eaa7",
      "to": "0x734bb3251ec3f1a83f8f2a8609bcef649d54ebf8",
      "contractAddress": null,
      "l1BaseFeeScalar": "0x0",
      "l1BlobBaseFee": "0x1",
      "l1BlobBaseFeeScalar": "0x0",
      "l1Fee": "0x0",
      "l1GasPrice": "0xb",
      "l1GasUsed": "0x85e"
    }
  ],
  "libraries": [
    "node_modules/@celo/contracts/common/linkedlists/AddressSortedLinkedListWithMedian.sol:AddressSortedLinkedListWithMedian:0xf90B816Ea07eC3c6384656cd5B3249DA8fc3df6F"
  ],
  "pending": [],
  "returns": {},
  "timestamp": 1772471162403,
  "chain": 11142220,
  "commit": "b2dfffb"
}