{
  "transactions": [
    {
      "hash": "0x46a2e1910ef6ece56709b87545d18ca74393fc703c07147f3d68643a6250ae0a",
      "transactionType": "CALL",
      "contractName": "TransparentUpgradeableProxy",
      "contractAddress": "0x353ed52bf8482027c0e0b9e3c0e5d96a9f680980",
      "function": null,
      "arguments": null,
      "transaction": {
        "from": "0x2738f38fde510743e0c589415e0598c4cee6eaa7",
        "to": "0x353ed52bf8482027c0e0b9e3c0e5d96a9f680980",
        "gas": "0x18d3bc",
        "value": "0x0",
        "input": "0x098a676e00000000000000000000000043cb9d6acf1462356303079ea4fdd8bc30042a6a00000000000000000000000026eff54e2f0e8825996b83119b7df5ef2c882dd700000000000000000000000001bd47aa7b13a75c24e3da760f8a503c435bb4df0000000000000000000000002738f38fde510743e0c589415e0598c4cee6eaa700000000000000000000000085bee67d435a39f7467a8a9de34a5b73d25df426000000000000000000000000de9e4c3ce781b4ba68120d6261cbad65ce0ab00b000000000000000000000000403ea4186ce479ff162636c37fdf4086bd286f8c00000000000000000000000000000000000000000000000000000000000000000000000000000000000000000000000000000000000000000000000000000014000000000000000000000000000000000000000000000000000000000000000a0000000000000000000000002738f38fde510743e0c589415e0598c4cee6eaa70000000000000000000000002738f38fde510743e0c589415e0598c4cee6eaa7000000000000000000000000000000000000000000000000000000000000000600000000000000000000000000000000000000000000000000000000000013880000000000000000000000000000000000000000000000000000000000000d05",
        "nonce": "0x271",
        "chainId": "0xaa044c"
      },
      "additionalContracts": [
        {
          "transactionType": "CREATE2",
          "contractName": null,
          "address": "0x8e40ca2cef706205ba8dcd9150ee7b84ef3beebe",
          "initCode": "0x67363d3d37363d34f03d5260086018f3"
        },
        {
          "transactionType": "CREATE",
          "contractName": "FPMMProxy",
          "address": "0xfd5295e75ffea02780b0e2638d9fabb0316fd4e0",
          "initCode": "0x608060405260405162000dfa38038062000dfa83398101604081905262000026916200041b565b82828282816200003882825f62000052565b506200004690508262000083565b50505050505062000546565b6200005d83620000f4565b5f825111806200006a5750805b156200007e576200007c838362000135565b505b505050565b7f7e644d79422f17c01e4894b5f4f588d331ebfa28653d42ae832dc59e38c9798f620000c45f8051602062000db3833981519152546001600160a01b031690565b604080516001600160a01b03928316815291841660208301520160405180910390a1620000f18162000164565b50565b620000ff8162000201565b6040516001600160a01b038216907fbc7cd75a20ee27fd9adebab32041f755214dbc6bffa90cc0225b39da2e5c2d3b905f90a250565b60606200015d838360405180606001604052806027815260200162000dd36027913962000298565b9392505050565b6001600160a01b038116620001cf5760405162461bcd60e51b815260206004820152602660248201527f455243313936373a206e65772061646d696e20697320746865207a65726f206160448201526564647265737360d01b60648201526084015b60405180910390fd5b805f8051602062000db38339815191525b80546001600160a01b0319166001600160a01b039290921691909117905550565b6001600160a01b0381163b620002705760405162461bcd60e51b815260206004820152602d60248201527f455243313936373a206e657720696d706c656d656e746174696f6e206973206e60448201526c1bdd08184818dbdb9d1c9858dd609a1b6064820152608401620001c6565b807f360894a13ba1a3210667c828492db98dca3e2076cc3735a920a3ca505d382bbc620001e0565b60605f80856001600160a01b031685604051620002b69190620004f5565b5f60405180830381855af49150503d805f8114620002f0576040519150601f19603f3d011682016040523d82523d5f602084013e620002f5565b606091505b509092509050620003098683838762000313565b9695505050505050565b60608315620003865782515f036200037e576001600160a01b0385163b6200037e5760405162461bcd60e51b815260206004820152601d60248201527f416464726573733a2063616c6c20746f206e6f6e2d636f6e74726163740000006044820152606401620001c6565b508162000392565b6200039283836200039a565b949350505050565b815115620003ab5781518083602001fd5b8060405162461bcd60e51b8152600401620001c6919062000512565b80516001600160a01b0381168114620003de575f80fd5b919050565b634e487b7160e01b5f52604160045260245ffd5b5f5b8381101562000413578181015183820152602001620003f9565b50505f910152565b5f805f606084860312156200042e575f80fd5b6200043984620003c7565b92506200044960208501620003c7565b60408501519092506001600160401b038082111562000466575f80fd5b818601915086601f8301126200047a575f80fd5b8151818111156200048f576200048f620003e3565b604051601f8201601f19908116603f01168101908382118183101715620004ba57620004ba620003e3565b81604052828152896020848701011115620004d3575f80fd5b620004e6836020830160208801620003f7565b80955050505050509250925092565b5f825162000508818460208701620003f7565b9190910192915050565b602081525f825180602084015262000532816040850160208701620003f7565b601f01601f19169190910160400192915050565b61085f80620005545f395ff3fe60806040523661001357610011610017565b005b6100115b61001f610168565b6001600160a01b0316330361015e5760606001600160e01b03195f35166364d3180d60e11b81016100595761005261019a565b9150610156565b63587086bd60e11b6001600160e01b0319821601610079576100526101ed565b63070d7c6960e41b6001600160e01b031982160161009957610052610231565b621eb96f60e61b6001600160e01b03198216016100b857610052610261565b63a39f25e560e01b6001600160e01b03198216016100d8576100526102a0565b60405162461bcd60e51b815260206004820152604260248201527f5472616e73706172656e745570677261646561626c6550726f78793a2061646d60448201527f696e2063616e6e6f742066616c6c6261636b20746f2070726f78792074617267606482015261195d60f21b608482015260a4015b60405180910390fd5b815160208301f35b6101666102b3565b565b5f7fb53127684a568b3173ae13b9f8a6016e243e63b6e8ee1178d6a717850b5d61035b546001600160a01b0316919050565b60606101a46102c3565b5f6101b23660048184610668565b8101906101bf91906106aa565b90506101da8160405180602001604052805f8152505f6102cd565b505060408051602081019091525f815290565b60605f806101fe3660048184610668565b81019061020b91906106d7565b9150915061021b828260016102cd565b60405180602001604052805f8152509250505090565b606061023b6102c3565b5f6102493660048184610668565b81019061025691906106aa565b90506101da816102f8565b606061026b6102c3565b5f610274610168565b604080516001600160a01b03831660208201529192500160405160208183030381529060405291505090565b60606102aa6102c3565b5f61027461034f565b6101666102be61034f565b61035d565b3415610166575f80fd5b6102d68361037b565b5f825111806102e25750805b156102f3576102f183836103ba565b505b505050565b7f7e644d79422f17c01e4894b5f4f588d331ebfa28653d42ae832dc59e38c9798f610321610168565b604080516001600160a01b03928316815291841660208301520160405180910390a161034c816103e6565b50565b5f61035861048f565b905090565b365f80375f80365f845af43d5f803e808015610377573d5ff35b3d5ffd5b610384816104b6565b6040516001600160a01b038216907fbc7cd75a20ee27fd9adebab32041f755214dbc6bffa90cc0225b39da2e5c2d3b905f90a250565b60606103df83836040518060600160405280602781526020016108036027913961054a565b9392505050565b6001600160a01b03811661044b5760405162461bcd60e51b815260206004820152602660248201527f455243313936373a206e65772061646d696e20697320746865207a65726f206160448201526564647265737360d01b606482015260840161014d565b807fb53127684a568b3173ae13b9f8a6016e243e63b6e8ee1178d6a717850b5d61035b80546001600160a01b0319166001600160a01b039290921691909117905550565b5f7f360894a13ba1a3210667c828492db98dca3e2076cc3735a920a3ca505d382bbc61018b565b6001600160a01b0381163b6105235760405162461bcd60e51b815260206004820152602d60248201527f455243313936373a206e657720696d706c656d656e746174696f6e206973206e60448201526c1bdd08184818dbdb9d1c9858dd609a1b606482015260840161014d565b807f360894a13ba1a3210667c828492db98dca3e2076cc3735a920a3ca505d382bbc61046e565b60605f80856001600160a01b03168560405161056691906107b5565b5f60405180830381855af49150503d805f811461059e576040519150601f19603f3d011682016040523d82523d5f602084013e6105a3565b606091505b50915091506105b4868383876105be565b9695505050505050565b6060831561062c5782515f03610625576001600160a01b0385163b6106255760405162461bcd60e51b815260206004820152601d60248201527f416464726573733a2063616c6c20746f206e6f6e2d636f6e7472616374000000604482015260640161014d565b5081610636565b610636838361063e565b949350505050565b81511561064e5781518083602001fd5b8060405162461bcd60e51b815260040161014d91906107d0565b5f8085851115610676575f80fd5b83861115610682575f80fd5b5050820193919092039150565b80356001600160a01b03811681146106a5575f80fd5b919050565b5f602082840312156106ba575f80fd5b6103df8261068f565b634e487b7160e01b5f52604160045260245ffd5b5f80604083850312156106e8575f80fd5b6106f18361068f565b9150602083013567ffffffffffffffff8082111561070d575f80fd5b818501915085601f830112610720575f80fd5b813581811115610732576107326106c3565b604051601f8201601f19908116603f0116810190838211818310171561075a5761075a6106c3565b81604052828152886020848701011115610772575f80fd5b826020860160208301375f6020848301015280955050505050509250929050565b5f5b838110156107ad578181015183820152602001610795565b50505f910152565b5f82516107c6818460208701610793565b9190910192915050565b602081525f82518060208401526107ee816040850160208701610793565b601f01601f1916919091016040019291505056fe416464726573733a206c6f772d6c6576656c2064656c65676174652063616c6c206661696c6564a26469706673582212208b98574e6508d92199252794945bd2a09b9be85919c5029bcc658d2167243aed64736f6c63430008180033b53127684a568b3173ae13b9f8a6016e243e63b6e8ee1178d6a717850b5d6103416464726573733a206c6f772d6c6576656c2064656c65676174652063616c6c206661696c656400000000000000000000000043cb9d6acf1462356303079ea4fdd8bc30042a6a00000000000000000000000001bd47aa7b13a75c24e3da760f8a503c435bb4df000000000000000000000000000000000000000000000000000000000000006000000000000000000000000000000000000000000000000000000000000001a4c20a9ca500000000000000000000000085bee67d435a39f7467a8a9de34a5b73d25df426000000000000000000000000de9e4c3ce781b4ba68120d6261cbad65ce0ab00b00000000000000000000000026eff54e2f0e8825996b83119b7df5ef2c882dd7000000000000000000000000403ea4186ce479ff162636c37fdf4086bd286f8c00000000000000000000000000000000000000000000000000000000000000000000000000000000000000002738f38fde510743e0c589415e0598c4cee6eaa70000000000000000000000000000000000000000000000000000000000000014000000000000000000000000000000000000000000000000000000000000000a0000000000000000000000002738f38fde510743e0c589415e0598c4cee6eaa70000000000000000000000002738f38fde510743e0c589415e0598c4cee6eaa7000000000000000000000000000000000000000000000000000000000000000600000000000000000000000000000000000000000000000000000000000013880000000000000000000000000000000000000000000000000000000000000d0500000000000000000000000000000000000000000000000000000000"
        }
      ],
      "isFixedGasLimit": false
    },
    {
      "hash": "0x4bf6f215b357ebf72ddd5c74e24b13f8660d71e664ca5ad2b4494a3ba57b0c09",
      "transactionType": "CALL",
      "contractName": null,
      "contractAddress": "0x85bee67d435a39f7467a8a9de34a5b73d25df426",
      "function": "transfer(address,uint256)",
      "arguments": [
        "0xfD5295e75Ffea02780B0e2638D9faBb0316fD4e0",
        "159517109805197705505"
      ],
      "transaction": {
        "from": "0x2738f38fde510743e0c589415e0598c4cee6eaa7",
        "to": "0x85bee67d435a39f7467a8a9de34a5b73d25df426",
        "gas": "0x144c8",
        "value": "0x0",
        "input": "0xa9059cbb000000000000000000000000fd5295e75ffea02780b0e2638d9fabb0316fd4e0000000000000000000000000000000000000000000000008a5be9e35bfca4121",
        "nonce": "0x272",
        "chainId": "0xaa044c"
      },
      "additionalContracts": [],
      "isFixedGasLimit": false
    },
    {
      "hash": "0x56e55cda468edac3a9d47ac2c0691e337cf03dc0a9ed989cf3fd4bc3b91188b4",
      "transactionType": "CALL",
      "contractName": null,
      "contractAddress": "0xde9e4c3ce781b4ba68120d6261cbad65ce0ab00b",
      "function": "transfer(address,uint256)",
      "arguments": [
        "0xfD5295e75Ffea02780B0e2638D9faBb0316fD4e0",
        "1000000000000000000"
      ],
      "transaction": {
        "from": "0x2738f38fde510743e0c589415e0598c4cee6eaa7",
        "to": "0xde9e4c3ce781b4ba68120d6261cbad65ce0ab00b",
        "gas": "0x1328a",
        "value": "0x0",
        "input": "0xa9059cbb000000000000000000000000fd5295e75ffea02780b0e2638d9fabb0316fd4e00000000000000000000000000000000000000000000000000de0b6b3a7640000",
        "nonce": "0x273",
        "chainId": "0xaa044c"
      },
      "additionalContracts": [],
      "isFixedGasLimit": false
    },
    {
      "hash": "0x1d52569bff81474d65fad3a4f9eb7fe710380f6a945397acc0641b3a7b8e0bbb",
      "transactionType": "CALL",
      "contractName": "FPMMProxy",
      "contractAddress": "0xfd5295e75ffea02780b0e2638d9fabb0316fd4e0",
      "function": null,
      "arguments": null,
      "transaction": {
        "from": "0x2738f38fde510743e0c589415e0598c4cee6eaa7",
        "to": "0xfd5295e75ffea02780b0e2638d9fabb0316fd4e0",
        "gas": "0x4f0a8",
        "value": "0x0",
        "input": "0x6a6278420000000000000000000000002738f38fde510743e0c589415e0598c4cee6eaa7",
        "nonce": "0x274",
        "chainId": "0xaa044c"
      },
      "additionalContracts": [],
      "isFixedGasLimit": false
    },
    {
      "hash": "0x5e5cc4f9e5f74d1f5a898675f1044bdb78c3d4af1e429ed1b883a0514a1f7749",
      "transactionType": "CALL",
      "contractName": "FPMMProxy",
      "contractAddress": "0xfd5295e75ffea02780b0e2638d9fabb0316fd4e0",
      "function": null,
      "arguments": null,
      "transaction": {
        "from": "0x2738f38fde510743e0c589415e0598c4cee6eaa7",
        "to": "0xfd5295e75ffea02780b0e2638d9fabb0316fd4e0",
        "gas": "0x1980c",
        "value": "0x0",
        "input": "0xda7ddb8f00000000000000000000000085bee67d435a39f7467a8a9de34a5b73d25df4260000000000000000000000000000000000000000000cbd13ac3d8718490000000000000000000000000000000000000000000000003fb1625d33a3796d000000",
        "nonce": "0x275",
        "chainId": "0xaa044c"
      },
      "additionalContracts": [],
      "isFixedGasLimit": false
    },
    {
      "hash": "0x56b04f0a248832a058495e40dd28d323f6e39a50619795beddefdda7179f8249",
      "transactionType": "CALL",
      "contractName": "FPMMProxy",
      "contractAddress": "0xfd5295e75ffea02780b0e2638d9fabb0316fd4e0",
      "function": null,
      "arguments": null,
      "transaction": {
        "from": "0x2738f38fde510743e0c589415e0598c4cee6eaa7",
        "to": "0xfd5295e75ffea02780b0e2638d9fabb0316fd4e0",
        "gas": "0x18cf6",
        "value": "0x0",
        "input": "0xda7ddb8f000000000000000000000000de9e4c3ce781b4ba68120d6261cbad65ce0ab00b00000000000000000000000000000000000000000000152d02c7e14af68000000000000000000000000000000000000000000000000069e10de76676d0800000",
        "nonce": "0x276",
        "chainId": "0xaa044c"
      },
      "additionalContracts": [],
      "isFixedGasLimit": false
    },
    {
      "hash": "0x12718fd5e80f6513ff64f8cf708b81fc1da6e778a86cfa377455028cd7235694",
      "transactionType": "CALL",
      "contractName": "VirtualPoolFactory",
      "contractAddress": "0x887955f28723b0e9bddc358448cb5b1fde692da4",
      "function": "deprecatePool(address)",
      "arguments": [
        "0x284c2d99c5A12A65F10eFF7183c33C1217B65A56"
      ],
      "transaction": {
        "from": "0x2738f38fde510743e0c589415e0598c4cee6eaa7",
        "to": "0x887955f28723b0e9bddc358448cb5b1fde692da4",
        "gas": "0x10c38",
        "value": "0x0",
        "input": "0x32cc9a05000000000000000000000000284c2d99c5a12a65f10eff7183c33c1217b65a56",
        "nonce": "0x277",
        "chainId": "0xaa044c"
      },
      "additionalContracts": [],
      "isFixedGasLimit": false
    },
    {
      "hash": "0x974b3c1e8bc88ed6c2a183df596dce9e9388de4509b03d8df58d70f22599496f",
      "transactionType": "CALL",
      "contractName": "TransparentUpgradeableProxy",
      "contractAddress": "0x353ed52bf8482027c0e0b9e3c0e5d96a9f680980",
      "function": null,
      "arguments": null,
      "transaction": {
        "from": "0x2738f38fde510743e0c589415e0598c4cee6eaa7",
        "to": "0x353ed52bf8482027c0e0b9e3c0e5d96a9f680980",
        "gas": "0x18d3bc",
        "value": "0x0",
        "input": "0x098a676e00000000000000000000000043cb9d6acf1462356303079ea4fdd8bc30042a6a00000000000000000000000026eff54e2f0e8825996b83119b7df5ef2c882dd700000000000000000000000001bd47aa7b13a75c24e3da760f8a503c435bb4df0000000000000000000000002738f38fde510743e0c589415e0598c4cee6eaa7000000000000000000000000284e9b7b623eae866914b7fa0eb720c2bb3c2980000000000000000000000000de9e4c3ce781b4ba68120d6261cbad65ce0ab00b0000000000000000000000004f2746e21a13ea9a8a832d929cdbf32ffc113a2c00000000000000000000000000000000000000000000000000000000000000000000000000000000000000000000000000000000000000000000000000000014000000000000000000000000000000000000000000000000000000000000000a0000000000000000000000002738f38fde510743e0c589415e0598c4cee6eaa70000000000000000000000002738f38fde510743e0c589415e0598c4cee6eaa7000000000000000000000000000000000000000000000000000000000000000600000000000000000000000000000000000000000000000000000000000013880000000000000000000000000000000000000000000000000000000000000d05",
        "nonce": "0x278",
        "chainId": "0xaa044c"
      },
      "additionalContracts": [
        {
          "transactionType": "CREATE2",
          "contractName": null,
          "address": "0x61c567bb387c1b8961f492118a97828972ba535d",
          "initCode": "0x67363d3d37363d34f03d5260086018f3"
        },
        {
          "transactionType": "CREATE",
          "contractName": "FPMMProxy",
          "address": "0x938a21b1f301206abb4e15340782b89ef7d83c9c",
          "initCode": "0x608060405260405162000dfa38038062000dfa83398101604081905262000026916200041b565b82828282816200003882825f62000052565b506200004690508262000083565b50505050505062000546565b6200005d83620000f4565b5f825111806200006a5750805b156200007e576200007c838362000135565b505b505050565b7f7e644d79422f17c01e4894b5f4f588d331ebfa28653d42ae832dc59e38c9798f620000c45f8051602062000db3833981519152546001600160a01b031690565b604080516001600160a01b03928316815291841660208301520160405180910390a1620000f18162000164565b50565b620000ff8162000201565b6040516001600160a01b038216907fbc7cd75a20ee27fd9adebab32041f755214dbc6bffa90cc0225b39da2e5c2d3b905f90a250565b60606200015d838360405180606001604052806027815260200162000dd36027913962000298565b9392505050565b6001600160a01b038116620001cf5760405162461bcd60e51b815260206004820152602660248201527f455243313936373a206e65772061646d696e20697320746865207a65726f206160448201526564647265737360d01b60648201526084015b60405180910390fd5b805f8051602062000db38339815191525b80546001600160a01b0319166001600160a01b039290921691909117905550565b6001600160a01b0381163b620002705760405162461bcd60e51b815260206004820152602d60248201527f455243313936373a206e657720696d706c656d656e746174696f6e206973206e60448201526c1bdd08184818dbdb9d1c9858dd609a1b6064820152608401620001c6565b807f360894a13ba1a3210667c828492db98dca3e2076cc3735a920a3ca505d382bbc620001e0565b60605f80856001600160a01b031685604051620002b69190620004f5565b5f60405180830381855af49150503d805f8114620002f0576040519150601f19603f3d011682016040523d82523d5f602084013e620002f5565b606091505b509092509050620003098683838762000313565b9695505050505050565b60608315620003865782515f036200037e576001600160a01b0385163b6200037e5760405162461bcd60e51b815260206004820152601d60248201527f416464726573733a2063616c6c20746f206e6f6e2d636f6e74726163740000006044820152606401620001c6565b508162000392565b6200039283836200039a565b949350505050565b815115620003ab5781518083602001fd5b8060405162461bcd60e51b8152600401620001c6919062000512565b80516001600160a01b0381168114620003de575f80fd5b919050565b634e487b7160e01b5f52604160045260245ffd5b5f5b8381101562000413578181015183820152602001620003f9565b50505f910152565b5f805f606084860312156200042e575f80fd5b6200043984620003c7565b92506200044960208501620003c7565b60408501519092506001600160401b038082111562000466575f80fd5b818601915086601f8301126200047a575f80fd5b8151818111156200048f576200048f620003e3565b604051601f8201601f19908116603f01168101908382118183101715620004ba57620004ba620003e3565b81604052828152896020848701011115620004d3575f80fd5b620004e6836020830160208801620003f7565b80955050505050509250925092565b5f825162000508818460208701620003f7565b9190910192915050565b602081525f825180602084015262000532816040850160208701620003f7565b601f01601f19169190910160400192915050565b61085f80620005545f395ff3fe60806040523661001357610011610017565b005b6100115b61001f610168565b6001600160a01b0316330361015e5760606001600160e01b03195f35166364d3180d60e11b81016100595761005261019a565b9150610156565b63587086bd60e11b6001600160e01b0319821601610079576100526101ed565b63070d7c6960e41b6001600160e01b031982160161009957610052610231565b621eb96f60e61b6001600160e01b03198216016100b857610052610261565b63a39f25e560e01b6001600160e01b03198216016100d8576100526102a0565b60405162461bcd60e51b815260206004820152604260248201527f5472616e73706172656e745570677261646561626c6550726f78793a2061646d60448201527f696e2063616e6e6f742066616c6c6261636b20746f2070726f78792074617267606482015261195d60f21b608482015260a4015b60405180910390fd5b815160208301f35b6101666102b3565b565b5f7fb53127684a568b3173ae13b9f8a6016e243e63b6e8ee1178d6a717850b5d61035b546001600160a01b0316919050565b60606101a46102c3565b5f6101b23660048184610668565b8101906101bf91906106aa565b90506101da8160405180602001604052805f8152505f6102cd565b505060408051602081019091525f815290565b60605f806101fe3660048184610668565b81019061020b91906106d7565b9150915061021b828260016102cd565b60405180602001604052805f8152509250505090565b606061023b6102c3565b5f6102493660048184610668565b81019061025691906106aa565b90506101da816102f8565b606061026b6102c3565b5f610274610168565b604080516001600160a01b03831660208201529192500160405160208183030381529060405291505090565b60606102aa6102c3565b5f61027461034f565b6101666102be61034f565b61035d565b3415610166575f80fd5b6102d68361037b565b5f825111806102e25750805b156102f3576102f183836103ba565b505b505050565b7f7e644d79422f17c01e4894b5f4f588d331ebfa28653d42ae832dc59e38c9798f610321610168565b604080516001600160a01b03928316815291841660208301520160405180910390a161034c816103e6565b50565b5f61035861048f565b905090565b365f80375f80365f845af43d5f803e808015610377573d5ff35b3d5ffd5b610384816104b6565b6040516001600160a01b038216907fbc7cd75a20ee27fd9adebab32041f755214dbc6bffa90cc0225b39da2e5c2d3b905f90a250565b60606103df83836040518060600160405280602781526020016108036027913961054a565b9392505050565b6001600160a01b03811661044b5760405162461bcd60e51b815260206004820152602660248201527f455243313936373a206e65772061646d696e20697320746865207a65726f206160448201526564647265737360d01b606482015260840161014d565b807fb53127684a568b3173ae13b9f8a6016e243e63b6e8ee1178d6a717850b5d61035b80546001600160a01b0319166001600160a01b039290921691909117905550565b5f7f360894a13ba1a3210667c828492db98dca3e2076cc3735a920a3ca505d382bbc61018b565b6001600160a01b0381163b6105235760405162461bcd60e51b815260206004820152602d60248201527f455243313936373a206e657720696d706c656d656e746174696f6e206973206e60448201526c1bdd08184818dbdb9d1c9858dd609a1b606482015260840161014d565b807f360894a13ba1a3210667c828492db98dca3e2076cc3735a920a3ca505d382bbc61046e565b60605f80856001600160a01b03168560405161056691906107b5565b5f60405180830381855af49150503d805f811461059e576040519150601f19603f3d011682016040523d82523d5f602084013e6105a3565b606091505b50915091506105b4868383876105be565b9695505050505050565b6060831561062c5782515f03610625576001600160a01b0385163b6106255760405162461bcd60e51b815260206004820152601d60248201527f416464726573733a2063616c6c20746f206e6f6e2d636f6e7472616374000000604482015260640161014d565b5081610636565b610636838361063e565b949350505050565b81511561064e5781518083602001fd5b8060405162461bcd60e51b815260040161014d91906107d0565b5f8085851115610676575f80fd5b83861115610682575f80fd5b5050820193919092039150565b80356001600160a01b03811681146106a5575f80fd5b919050565b5f602082840312156106ba575f80fd5b6103df8261068f565b634e487b7160e01b5f52604160045260245ffd5b5f80604083850312156106e8575f80fd5b6106f18361068f565b9150602083013567ffffffffffffffff8082111561070d575f80fd5b818501915085601f830112610720575f80fd5b813581811115610732576107326106c3565b604051601f8201601f19908116603f0116810190838211818310171561075a5761075a6106c3565b81604052828152886020848701011115610772575f80fd5b826020860160208301375f6020848301015280955050505050509250929050565b5f5b838110156107ad578181015183820152602001610795565b50505f910152565b5f82516107c6818460208701610793565b9190910192915050565b602081525f82518060208401526107ee816040850160208701610793565b601f01601f1916919091016040019291505056fe416464726573733a206c6f772d6c6576656c2064656c65676174652063616c6c206661696c6564a26469706673582212208b98574e6508d92199252794945bd2a09b9be85919c5029bcc658d2167243aed64736f6c63430008180033b53127684a568b3173ae13b9f8a6016e243e63b6e8ee1178d6a717850b5d6103416464726573733a206c6f772d6c6576656c2064656c65676174652063616c6c206661696c656400000000000000000000000043cb9d6acf1462356303079ea4fdd8bc30042a6a00000000000000000000000001bd47aa7b13a75c24e3da760f8a503c435bb4df000000000000000000000000000000000000000000000000000000000000006000000000000000000000000000000000000000000000000000000000000001a4c20a9ca5000000000000000000000000284e9b7b623eae866914b7fa0eb720c2bb3c2980000000000000000000000000de9e4c3ce781b4ba68120d6261cbad65ce0ab00b00000000000000000000000026eff54e2f0e8825996b83119b7df5ef2c882dd70000000000000000000000004f2746e21a13ea9a8a832d929cdbf32ffc113a2c00000000000000000000000000000000000000000000000000000000000000000000000000000000000000002738f38fde510743e0c589415e0598c4cee6eaa70000000000000000000000000000000000000000000000000000000000000014000000000000000000000000000000000000000000000000000000000000000a0000000000000000000000002738f38fde510743e0c589415e0598c4cee6eaa70000000000000000000000002738f38fde510743e0c589415e0598c4cee6eaa7000000000000000000000000000000000000000000000000000000000000000600000000000000000000000000000000000000000000000000000000000013880000000000000000000000000000000000000000000000000000000000000d0500000000000000000000000000000000000000000000000000000000"
        }
      ],
      "isFixedGasLimit": false
    },
    {
      "hash": "0x501bb8fa48940062aa69071697b9230682ce6cfb9191e8650d5e20e7fa99f2ee",
      "transactionType": "CALL",
      "contractName": null,
      "contractAddress": "0x284e9b7b623eae866914b7fa0eb720c2bb3c2980",
      "function": "transfer(address,uint256)",
      "arguments": [
        "0x938A21b1f301206aBB4e15340782b89EF7D83c9c",
        "784285005280865440"
      ],
      "transaction": {
        "from": "0x2738f38fde510743e0c589415e0598c4cee6eaa7",
        "to": "0x284e9b7b623eae866914b7fa0eb720c2bb3c2980",
        "gas": "0x132ac",
        "value": "0x0",
        "input": "0xa9059cbb000000000000000000000000938a21b1f301206abb4e15340782b89ef7d83c9c0000000000000000000000000000000000000000000000000ae2570e966e6ca0",
        "nonce": "0x279",
        "chainId": "0xaa044c"
      },
      "additionalContracts": [],
      "isFixedGasLimit": false
    },
    {
      "hash": "0x70422a5039850fad8789eb513b5a8ed4306692b2830f2978badb339e9c4a714f",
      "transactionType": "CALL",
      "contractName": null,
      "contractAddress": "0xde9e4c3ce781b4ba68120d6261cbad65ce0ab00b",
      "function": "transfer(address,uint256)",
      "arguments": [
        "0x938A21b1f301206aBB4e15340782b89EF7D83c9c",
        "1000000000000000000"
      ],
      "transaction": {
        "from": "0x2738f38fde510743e0c589415e0598c4cee6eaa7",
        "to": "0xde9e4c3ce781b4ba68120d6261cbad65ce0ab00b",
        "gas": "0x1328a",
        "value": "0x0",
        "input": "0xa9059cbb000000000000000000000000938a21b1f301206abb4e15340782b89ef7d83c9c0000000000000000000000000000000000000000000000000de0b6b3a7640000",
        "nonce": "0x27a",
        "chainId": "0xaa044c"
      },
      "additionalContracts": [],
      "isFixedGasLimit": false
    },
    {
      "hash": "0x6c883f9dbbc42f3bdd4465bf1c464b77f7168d25a8c1fcf4f2a798537a4030e0",
      "transactionType": "CALL",
      "contractName": "FPMMProxy",
      "contractAddress": "0x938a21b1f301206abb4e15340782b89ef7d83c9c",
      "function": null,
      "arguments": null,
      "transaction": {
        "from": "0x2738f38fde510743e0c589415e0598c4cee6eaa7",
        "to": "0x938a21b1f301206abb4e15340782b89ef7d83c9c",
        "gas": "0x4aa40",
        "value": "0x0",
        "input": "0x6a6278420000000000000000000000002738f38fde510743e0c589415e0598c4cee6eaa7",
        "nonce": "0x27b",
        "chainId": "0xaa044c"
      },
      "additionalContracts": [],
      "isFixedGasLimit": false
    },
    {
      "hash": "0xdf89c96ef1b632b44f9f8b123448a017f7f87c9f56bec1b8258d527c6cbc34f4",
      "transactionType": "CALL",
      "contractName": "FPMMProxy",
      "contractAddress": "0x938a21b1f301206abb4e15340782b89ef7d83c9c",
      "function": null,
      "arguments": null,
      "transaction": {
        "from": "0x2738f38fde510743e0c589415e0598c4cee6eaa7",
        "to": "0x938a21b1f301206abb4e15340782b89ef7d83c9c",
        "gas": "0x1980c",
        "value": "0x0",
        "input": "0xda7ddb8f000000000000000000000000284e9b7b623eae866914b7fa0eb720c2bb3c298000000000000000000000000000000000000000000000104e2da94483f6200000000000000000000000000000000000000000000000005186e44e5693cea00000",
        "nonce": "0x27c",
        "chainId": "0xaa044c"
      },
      "additionalContracts": [],
      "isFixedGasLimit": false
    },
    {
      "hash": "0x2f692c1975ae7004980b78ee50a7a0bc4e664f1b47d2fb73513058789676bb03",
      "transactionType": "CALL",
      "contractName": "FPMMProxy",
      "contractAddress": "0x938a21b1f301206abb4e15340782b89ef7d83c9c",
      "function": null,
      "arguments": null,
      "transaction": {
        "from": "0x2738f38fde510743e0c589415e0598c4cee6eaa7",
        "to": "0x938a21b1f301206abb4e15340782b89ef7d83c9c",
        "gas": "0x18cf6",
        "value": "0x0",
        "input": "0xda7ddb8f000000000000000000000000de9e4c3ce781b4ba68120d6261cbad65ce0ab00b00000000000000000000000000000000000000000000152d02c7e14af68000000000000000000000000000000000000000000000000069e10de76676d0800000",
        "nonce": "0x27d",
        "chainId": "0xaa044c"
      },
      "additionalContracts": [],
      "isFixedGasLimit": false
    },
    {
      "hash": "0x117adf261aa5c6a176c40bebad72bf8682e282b879d9326baeb8ad37f6388793",
      "transactionType": "CALL",
      "contractName": "VirtualPoolFactory",
      "contractAddress": "0x887955f28723b0e9bddc358448cb5b1fde692da4",
      "function": "deprecatePool(address)",
      "arguments": [
        "0x58F08739eA9764097b9500B6e4A4db64D168b807"
      ],
      "transaction": {
        "from": "0x2738f38fde510743e0c589415e0598c4cee6eaa7",
        "to": "0x887955f28723b0e9bddc358448cb5b1fde692da4",
        "gas": "0x10c27",
        "value": "0x0",
        "input": "0x32cc9a0500000000000000000000000058f08739ea9764097b9500b6e4a4db64d168b807",
        "nonce": "0x27e",
        "chainId": "0xaa044c"
      },
      "additionalContracts": [],
      "isFixedGasLimit": false
    }
  ],
  "receipts": [
    {
      "type": "0x2",
      "status": "0x1",
      "cumulativeGasUsed": "0x12adb2",
      "logs": [
        {
          "address": "0xba5ed099633d3b313e4d5f7bdc1305d3c28ba5ed",
          "topics": [
            "0x2feea65dd4e9f9cbd86b74b7734210c59a1b2981b5b137bd0ee3e208200c9067",
            "0x0000000000000000000000008e40ca2cef706205ba8dcd9150ee7b84ef3beebe",
            "0x9a0f5e6afe5f895394775d03b758eac0d78219bcae1aa3e8dd41a6bf19b58938"
          ],
          "data": "0x",
          "blockHash": "0x5f2b5711a33537cd7c65020b65f087f95e41bcb5c96227416b5d6a7cb008e648",
          "blockNumber": "0x1693162",
          "blockTimestamp": "0x69ea2ef6",
          "transactionHash": "0x46a2e1910ef6ece56709b87545d18ca74393fc703c07147f3d68643a6250ae0a",
          "transactionIndex": "0x1",
          "logIndex": "0x0",
          "removed": false
        },
        {
          "address": "0xfd5295e75ffea02780b0e2638d9fabb0316fd4e0",
          "topics": [
            "0xbc7cd75a20ee27fd9adebab32041f755214dbc6bffa90cc0225b39da2e5c2d3b",
            "0x00000000000000000000000043cb9d6acf1462356303079ea4fdd8bc30042a6a"
          ],
          "data": "0x",
          "blockHash": "0x5f2b5711a33537cd7c65020b65f087f95e41bcb5c96227416b5d6a7cb008e648",
          "blockNumber": "0x1693162",
          "blockTimestamp": "0x69ea2ef6",
          "transactionHash": "0x46a2e1910ef6ece56709b87545d18ca74393fc703c07147f3d68643a6250ae0a",
          "transactionIndex": "0x1",
          "logIndex": "0x1",
          "removed": false
        },
        {
          "address": "0xfd5295e75ffea02780b0e2638d9fabb0316fd4e0",
          "topics": [
            "0x8be0079c531659141344cd1fd0a4f28419497f9722a3daafe3b4186f6b6457e0",
            "0x0000000000000000000000000000000000000000000000000000000000000000",
            "0x0000000000000000000000008e40ca2cef706205ba8dcd9150ee7b84ef3beebe"
          ],
          "data": "0x",
          "blockHash": "0x5f2b5711a33537cd7c65020b65f087f95e41bcb5c96227416b5d6a7cb008e648",
          "blockNumber": "0x1693162",
          "blockTimestamp": "0x69ea2ef6",
          "transactionHash": "0x46a2e1910ef6ece56709b87545d18ca74393fc703c07147f3d68643a6250ae0a",
          "transactionIndex": "0x1",
          "logIndex": "0x2",
          "removed": false
        },
        {
          "address": "0xfd5295e75ffea02780b0e2638d9fabb0316fd4e0",
          "topics": [
            "0xb5d5dda8af4f1e40a5cc4aa66c39ca5aac7f90947261313b07527eb3bdd98bc7"
          ],
          "data": "0x00000000000000000000000000000000000000000000000000000000000000000000000000000000000000000000000000000000000000000000000000000014",
          "blockHash": "0x5f2b5711a33537cd7c65020b65f087f95e41bcb5c96227416b5d6a7cb008e648",
          "blockNumber": "0x1693162",
          "blockTimestamp": "0x69ea2ef6",
          "transactionHash": "0x46a2e1910ef6ece56709b87545d18ca74393fc703c07147f3d68643a6250ae0a",
          "transactionIndex": "0x1",
          "logIndex": "0x3",
          "removed": false
        },
        {
          "address": "0xfd5295e75ffea02780b0e2638d9fabb0316fd4e0",
          "topics": [
            "0xd3890fc76afcfc31cba1dcf2c27b50e2541e4d75039c981855b5b5e03682aea0",
            "0x0000000000000000000000000000000000000000000000000000000000000000",
            "0x0000000000000000000000002738f38fde510743e0c589415e0598c4cee6eaa7"
          ],
          "data": "0x",
          "blockHash": "0x5f2b5711a33537cd7c65020b65f087f95e41bcb5c96227416b5d6a7cb008e648",
          "blockNumber": "0x1693162",
          "blockTimestamp": "0x69ea2ef6",
          "transactionHash": "0x46a2e1910ef6ece56709b87545d18ca74393fc703c07147f3d68643a6250ae0a",
          "transactionIndex": "0x1",
          "logIndex": "0x4",
          "removed": false
        },
        {
          "address": "0xfd5295e75ffea02780b0e2638d9fabb0316fd4e0",
          "topics": [
            "0xb404cac19fb1cbeff98d325795b08886e3cd8fe8cb1a2f193aac66f13fb239c3"
          ],
          "data": "0x0000000000000000000000000000000000000000000000000000000000000000000000000000000000000000000000000000000000000000000000000000000a",
          "blockHash": "0x5f2b5711a33537cd7c65020b65f087f95e41bcb5c96227416b5d6a7cb008e648",
          "blockNumber": "0x1693162",
          "blockTimestamp": "0x69ea2ef6",
          "transactionHash": "0x46a2e1910ef6ece56709b87545d18ca74393fc703c07147f3d68643a6250ae0a",
          "transactionIndex": "0x1",
          "logIndex": "0x5",
          "removed": false
        },
        {
          "address": "0xfd5295e75ffea02780b0e2638d9fabb0316fd4e0",
          "topics": [
            "0xb273226859e3e49fd86c9ac8f721eaa74e677de0877db704918e0f43ec8d23bc"
          ],
          "data": "0x00000000000000000000000000000000000000000000000000000000000000000000000000000000000000000000000000000000000000000000000000000006",
          "blockHash": "0x5f2b5711a33537cd7c65020b65f087f95e41bcb5c96227416b5d6a7cb008e648",
          "blockNumber": "0x1693162",
          "blockTimestamp": "0x69ea2ef6",
          "transactionHash": "0x46a2e1910ef6ece56709b87545d18ca74393fc703c07147f3d68643a6250ae0a",
          "transactionIndex": "0x1",
          "logIndex": "0x6",
          "removed": false
        },
        {
          "address": "0xfd5295e75ffea02780b0e2638d9fabb0316fd4e0",
          "topics": [
            "0x77c5ddba87b3d3f970242eda9bb1263ade9e4aed3eca233d5fa1af00a574b025"
          ],
          "data": "0x0000000000000000000000000000000000000000000000000000000000000000000000000000000000000000000000000000000000000000000000000000000000000000000000000000000000000000000000000000000000000000000013880000000000000000000000000000000000000000000000000000000000000d05",
          "blockHash": "0x5f2b5711a33537cd7c65020b65f087f95e41bcb5c96227416b5d6a7cb008e648",
          "blockNumber": "0x1693162",
          "blockTimestamp": "0x69ea2ef6",
          "transactionHash": "0x46a2e1910ef6ece56709b87545d18ca74393fc703c07147f3d68643a6250ae0a",
          "transactionIndex": "0x1",
          "logIndex": "0x7",
          "removed": false
        },
        {
          "address": "0xfd5295e75ffea02780b0e2638d9fabb0316fd4e0",
          "topics": [
            "0xe4630e6e66d263636ccf946c97182b0edb7bbea539a79dfa121bab7444e83b79",
            "0x0000000000000000000000000000000000000000000000000000000000000000",
            "0x00000000000000000000000026eff54e2f0e8825996b83119b7df5ef2c882dd7"
          ],
          "data": "0x",
          "blockHash": "0x5f2b5711a33537cd7c65020b65f087f95e41bcb5c96227416b5d6a7cb008e648",
          "blockNumber": "0x1693162",
          "blockTimestamp": "0x69ea2ef6",
          "transactionHash": "0x46a2e1910ef6ece56709b87545d18ca74393fc703c07147f3d68643a6250ae0a",
          "transactionIndex": "0x1",
          "logIndex": "0x8",
          "removed": false
        },
        {
          "address": "0xfd5295e75ffea02780b0e2638d9fabb0316fd4e0",
          "topics": [
            "0xc1ba25a60afffd747fd25304e169131b7ae93932f7f3e508a8cec0e18fa12842",
            "0x0000000000000000000000000000000000000000000000000000000000000000",
            "0x000000000000000000000000403ea4186ce479ff162636c37fdf4086bd286f8c"
          ],
          "data": "0x",
          "blockHash": "0x5f2b5711a33537cd7c65020b65f087f95e41bcb5c96227416b5d6a7cb008e648",
          "blockNumber": "0x1693162",
          "blockTimestamp": "0x69ea2ef6",
          "transactionHash": "0x46a2e1910ef6ece56709b87545d18ca74393fc703c07147f3d68643a6250ae0a",
          "transactionIndex": "0x1",
          "logIndex": "0x9",
          "removed": false
        },
        {
          "address": "0xfd5295e75ffea02780b0e2638d9fabb0316fd4e0",
          "topics": [
            "0x00af8726a3679feb41b28b0996e403259aceb28ec6f3c6c3dc7a4c4fe6c8fce1"
          ],
          "data": "0x00000000000000000000000000000000000000000000000000000000000000000000000000000000000000000000000000000000000000000000000000000000",
          "blockHash": "0x5f2b5711a33537cd7c65020b65f087f95e41bcb5c96227416b5d6a7cb008e648",
          "blockNumber": "0x1693162",
          "blockTimestamp": "0x69ea2ef6",
          "transactionHash": "0x46a2e1910ef6ece56709b87545d18ca74393fc703c07147f3d68643a6250ae0a",
          "transactionIndex": "0x1",
          "logIndex": "0xa",
          "removed": false
        },
        {
          "address": "0xfd5295e75ffea02780b0e2638d9fabb0316fd4e0",
          "topics": [
            "0x8be0079c531659141344cd1fd0a4f28419497f9722a3daafe3b4186f6b6457e0",
            "0x0000000000000000000000008e40ca2cef706205ba8dcd9150ee7b84ef3beebe",
            "0x0000000000000000000000002738f38fde510743e0c589415e0598c4cee6eaa7"
          ],
          "data": "0x",
          "blockHash": "0x5f2b5711a33537cd7c65020b65f087f95e41bcb5c96227416b5d6a7cb008e648",
          "blockNumber": "0x1693162",
          "blockTimestamp": "0x69ea2ef6",
          "transactionHash": "0x46a2e1910ef6ece56709b87545d18ca74393fc703c07147f3d68643a6250ae0a",
          "transactionIndex": "0x1",
          "logIndex": "0xb",
          "removed": false
        },
        {
          "address": "0xfd5295e75ffea02780b0e2638d9fabb0316fd4e0",
          "topics": [
            "0x7f26b83ff96e1f2b6a682f133852f6798a09c465da95921460cefb3847402498"
          ],
          "data": "0x0000000000000000000000000000000000000000000000000000000000000001",
          "blockHash": "0x5f2b5711a33537cd7c65020b65f087f95e41bcb5c96227416b5d6a7cb008e648",
          "blockNumber": "0x1693162",
          "blockTimestamp": "0x69ea2ef6",
          "transactionHash": "0x46a2e1910ef6ece56709b87545d18ca74393fc703c07147f3d68643a6250ae0a",
          "transactionIndex": "0x1",
          "logIndex": "0xc",
          "removed": false
        },
        {
          "address": "0xfd5295e75ffea02780b0e2638d9fabb0316fd4e0",
          "topics": [
            "0x7e644d79422f17c01e4894b5f4f588d331ebfa28653d42ae832dc59e38c9798f"
          ],
          "data": "0x000000000000000000000000000000000000000000000000000000000000000000000000000000000000000001bd47aa7b13a75c24e3da760f8a503c435bb4df",
          "blockHash": "0x5f2b5711a33537cd7c65020b65f087f95e41bcb5c96227416b5d6a7cb008e648",
          "blockNumber": "0x1693162",
          "blockTimestamp": "0x69ea2ef6",
          "transactionHash": "0x46a2e1910ef6ece56709b87545d18ca74393fc703c07147f3d68643a6250ae0a",
          "transactionIndex": "0x1",
          "logIndex": "0xd",
          "removed": false
        },
        {
          "address": "0xba5ed099633d3b313e4d5f7bdc1305d3c28ba5ed",
          "topics": [
            "0x4db17dd5e4732fb6da34a148104a592783ca119a1e7bb8829eba6cbadef0b511",
            "0x000000000000000000000000fd5295e75ffea02780b0e2638d9fabb0316fd4e0"
          ],
          "data": "0x",
          "blockHash": "0x5f2b5711a33537cd7c65020b65f087f95e41bcb5c96227416b5d6a7cb008e648",
          "blockNumber": "0x1693162",
          "blockTimestamp": "0x69ea2ef6",
          "transactionHash": "0x46a2e1910ef6ece56709b87545d18ca74393fc703c07147f3d68643a6250ae0a",
          "transactionIndex": "0x1",
          "logIndex": "0xe",
          "removed": false
        },
        {
          "address": "0x353ed52bf8482027c0e0b9e3c0e5d96a9f680980",
          "topics": [
            "0xcf8e77154e470bf74e2e443ad6193730ed2a7c72279dc06aa8c12daf20c7768e",
            "0x00000000000000000000000085bee67d435a39f7467a8a9de34a5b73d25df426",
            "0x000000000000000000000000de9e4c3ce781b4ba68120d6261cbad65ce0ab00b"
          ],
          "data": "0x000000000000000000000000fd5295e75ffea02780b0e2638d9fabb0316fd4e000000000000000000000000043cb9d6acf1462356303079ea4fdd8bc30042a6a",
          "blockHash": "0x5f2b5711a33537cd7c65020b65f087f95e41bcb5c96227416b5d6a7cb008e648",
          "blockNumber": "0x1693162",
          "blockTimestamp": "0x69ea2ef6",
          "transactionHash": "0x46a2e1910ef6ece56709b87545d18ca74393fc703c07147f3d68643a6250ae0a",
          "transactionIndex": "0x1",
          "logIndex": "0xf",
          "removed": false
        }
      ],
      "logsBloom": "0x00020000000002000000008000000620400000000000000000800001200010000100010200018000000400000000001000000000000804004000000000000000002000000000000000000000020042000001040000000000006000000000000000004010020002000000000010100800000000800120000000000004000000400000000000000000000400000000000008000000020880000004204000800010000002020044000a00000000004500000080000000000200000000000010000000000820020000000200080000040010000000002400000020000000000025000000002000000208040000000000000000082080000000000000000000000000",
      "transactionHash": "0x46a2e1910ef6ece56709b87545d18ca74393fc703c07147f3d68643a6250ae0a",
      "transactionIndex": "0x1",
      "blockHash": "0x5f2b5711a33537cd7c65020b65f087f95e41bcb5c96227416b5d6a7cb008e648",
      "blockNumber": "0x1693162",
      "gasUsed": "0x11f970",
      "effectiveGasPrice": "0xba43b7401",
      "blobGasUsed": "0xf8",
      "from": "0x2738f38fde510743e0c589415e0598c4cee6eaa7",
      "to": "0x353ed52bf8482027c0e0b9e3c0e5d96a9f680980",
      "contractAddress": null
    },
    {
      "type": "0x2",
      "status": "0x1",
      "cumulativeGasUsed": "0x19255",
      "logs": [
        {
          "address": "0x85bee67d435a39f7467a8a9de34a5b73d25df426",
          "topics": [
            "0xddf252ad1be2c89b69c2b068fc378daa952ba7f163c4a11628f55a4df523b3ef",
            "0x0000000000000000000000002738f38fde510743e0c589415e0598c4cee6eaa7",
            "0x000000000000000000000000fd5295e75ffea02780b0e2638d9fabb0316fd4e0"
          ],
          "data": "0x000000000000000000000000000000000000000000000008a5be9e35bfca4121",
          "blockHash": "0x1aa8815daa62e2c76ca6373dadf9417457df15eb42eef941405e230b5f061e15",
          "blockNumber": "0x1693165",
          "blockTimestamp": "0x69ea2ef9",
          "transactionHash": "0x4bf6f215b357ebf72ddd5c74e24b13f8660d71e664ca5ad2b4494a3ba57b0c09",
          "transactionIndex": "0x1",
          "logIndex": "0x0",
          "removed": false
        }
      ],
      "logsBloom": "0x00000000000000000000000000000200000000000000000000000000000000000000000000000000000000000000000000000000000000000000000000000000002000080000000000000008000000000000000000000000000000000000000000000000000000000000000000000000000000000000040000000010000000000000000000000000000000000000000000000000000000000000000000000010000000000000000800000000000000000000000000000000000000000000000000000882000000000000000000000000000000000000000000000000000000000000000000000008000000000000000000000000000000000000000000000000",
      "transactionHash": "0x4bf6f215b357ebf72ddd5c74e24b13f8660d71e664ca5ad2b4494a3ba57b0c09",
      "transactionIndex": "0x1",
      "blockHash": "0x1aa8815daa62e2c76ca6373dadf9417457df15eb42eef941405e230b5f061e15",
      "blockNumber": "0x1693165",
      "gasUsed": "0xde13",
      "effectiveGasPrice": "0xba43b7401",
      "blobGasUsed": "0x64",
      "from": "0x2738f38fde510743e0c589415e0598c4cee6eaa7",
      "to": "0x85bee67d435a39f7467a8a9de34a5b73d25df426",
      "contractAddress": null
    },
    {
      "type": "0x2",
      "status": "0x1",
      "cumulativeGasUsed": "0x19231",
      "logs": [
        {
          "address": "0xde9e4c3ce781b4ba68120d6261cbad65ce0ab00b",
          "topics": [
            "0xddf252ad1be2c89b69c2b068fc378daa952ba7f163c4a11628f55a4df523b3ef",
            "0x0000000000000000000000002738f38fde510743e0c589415e0598c4cee6eaa7",
            "0x000000000000000000000000fd5295e75ffea02780b0e2638d9fabb0316fd4e0"
          ],
          "data": "0x0000000000000000000000000000000000000000000000000de0b6b3a7640000",
          "blockHash": "0xfcc06649267f9c7f564cd7b5da08b7ff3977e6aca23a3bde624f4328c5c40bda",
          "blockNumber": "0x1693168",
          "blockTimestamp": "0x69ea2efc",
          "transactionHash": "0x56e55cda468edac3a9d47ac2c0691e337cf03dc0a9ed989cf3fd4bc3b91188b4",
          "transactionIndex": "0x1",
          "logIndex": "0x0",
          "removed": false
        }
      ],
      "logsBloom": "0x00000000000000000000000000000200000000000000000000000000000000000000000000000000000000000000000000000040000000000000000000000000002000000000000000000008000000000000000000000008000000000000000000000000000000000000000000000000000000000000000000000010000000000000000000000000000000000000000000000000000000000000000000000010000000000000000800000000000000000000000000000000000000000000000000000802000000000000000000000000000000000000000000000000800000000000000000000008000000000000000000000000000000000000000000000000",
      "transactionHash": "0x56e55cda468edac3a9d47ac2c0691e337cf03dc0a9ed989cf3fd4bc3b91188b4",
      "transactionIndex": "0x1",
      "blockHash": "0xfcc06649267f9c7f564cd7b5da08b7ff3977e6aca23a3bde624f4328c5c40bda",
      "blockNumber": "0x1693168",
      "gasUsed": "0xddef",
      "effectiveGasPrice": "0xba43b7401",
      "blobGasUsed": "0x64",
      "from": "0x2738f38fde510743e0c589415e0598c4cee6eaa7",
      "to": "0xde9e4c3ce781b4ba68120d6261cbad65ce0ab00b",
      "contractAddress": null
    },
    {
      "type": "0x2",
      "status": "0x1",
      "cumulativeGasUsed": "0x414fb",
      "logs": [
        {
          "address": "0xfd5295e75ffea02780b0e2638d9fabb0316fd4e0",
          "topics": [
            "0xddf252ad1be2c89b69c2b068fc378daa952ba7f163c4a11628f55a4df523b3ef",
            "0x0000000000000000000000000000000000000000000000000000000000000000",
            "0x0000000000000000000000000000000000000000000000000000000000000001"
          ],
          "data": "0x00000000000000000000000000000000000000000000000000000000000003e8",
          "blockHash": "0x52596498f510f5e110b075d18f238ac74a5f5a1d0b027e94dcec41ce0f144923",
          "blockNumber": "0x169316a",
          "blockTimestamp": "0x69ea2efe",
          "transactionHash": "0x1d52569bff81474d65fad3a4f9eb7fe710380f6a945397acc0641b3a7b8e0bbb",
          "transactionIndex": "0x1",
          "logIndex": "0x0",
          "removed": false
        },
        {
          "address": "0xfd5295e75ffea02780b0e2638d9fabb0316fd4e0",
          "topics": [
            "0xddf252ad1be2c89b69c2b068fc378daa952ba7f163c4a11628f55a4df523b3ef",
            "0x0000000000000000000000000000000000000000000000000000000000000000",
            "0x0000000000000000000000002738f38fde510743e0c589415e0598c4cee6eaa7"
          ],
          "data": "0x000000000000000000000000000000000000000000000000af46cda332e8231e",
          "blockHash": "0x52596498f510f5e110b075d18f238ac74a5f5a1d0b027e94dcec41ce0f144923",
          "blockNumber": "0x169316a",
          "blockTimestamp": "0x69ea2efe",
          "transactionHash": "0x1d52569bff81474d65fad3a4f9eb7fe710380f6a945397acc0641b3a7b8e0bbb",
          "transactionIndex": "0x1",
          "logIndex": "0x1",
          "removed": false
        },
        {
          "address": "0xfd5295e75ffea02780b0e2638d9fabb0316fd4e0",
          "topics": [
            "0xf71a0e183fe1c86e734de92237976be5699cb46fd28373d6ace2f8eafea2857c"
          ],
          "data": "0x000000000000000000000000000000000000000000000008a5be9e35bfca41210000000000000000000000000000000000000000000000000de0b6b3a76400000000000000000000000000000000000000000000000000000000000069ea2efe",
          "blockHash": "0x52596498f510f5e110b075d18f238ac74a5f5a1d0b027e94dcec41ce0f144923",
          "blockNumber": "0x169316a",
          "blockTimestamp": "0x69ea2efe",
          "transactionHash": "0x1d52569bff81474d65fad3a4f9eb7fe710380f6a945397acc0641b3a7b8e0bbb",
          "transactionIndex": "0x1",
          "logIndex": "0x2",
          "removed": false
        },
        {
          "address": "0xfd5295e75ffea02780b0e2638d9fabb0316fd4e0",
          "topics": [
            "0xa8137fff86647d8a402117b9c5dbda627f721d3773338fb9678c83e54ed39080",
            "0x0000000000000000000000002738f38fde510743e0c589415e0598c4cee6eaa7",
            "0x0000000000000000000000002738f38fde510743e0c589415e0598c4cee6eaa7"
          ],
          "data": "0x000000000000000000000000000000000000000000000008a5be9e35bfca41210000000000000000000000000000000000000000000000000de0b6b3a7640000000000000000000000000000000000000000000000000000af46cda332e8231e",
          "blockHash": "0x52596498f510f5e110b075d18f238ac74a5f5a1d0b027e94dcec41ce0f144923",
          "blockNumber": "0x169316a",
          "blockTimestamp": "0x69ea2efe",
          "transactionHash": "0x1d52569bff81474d65fad3a4f9eb7fe710380f6a945397acc0641b3a7b8e0bbb",
          "transactionIndex": "0x1",
          "logIndex": "0x3",
          "removed": false
        }
      ],
      "logsBloom": "0x00000000200000000000000000000000000000000000000000000000000000000000000000010000000000000000000000000000080000000000000000040000002000000100000000000008000000000000000000040000000000000000000000000000020000000000000000000800000000000000000000000010000000000000000000000000000000000000000000000000000000000000000000000010000000000000000000000000000100400000000000000000000000000000400000000802000000000000000000000000000000000000000000000000000060000000000000000000000000000000000000002000000000000000000000000000",
      "transactionHash": "0x1d52569bff81474d65fad3a4f9eb7fe710380f6a945397acc0641b3a7b8e0bbb",
      "transactionIndex": "0x1",
      "blockHash": "0x52596498f510f5e110b075d18f238ac74a5f5a1d0b027e94dcec41ce0f144923",
      "blockNumber": "0x169316a",
      "gasUsed": "0x360b9",
      "effectiveGasPrice": "0xba43b7401",
      "blobGasUsed": "0x64",
      "from": "0x2738f38fde510743e0c589415e0598c4cee6eaa7",
      "to": "0xfd5295e75ffea02780b0e2638d9fabb0316fd4e0",
      "contractAddress": null
    },
    {
      "type": "0x2",
      "status": "0x1",
      "cumulativeGasUsed": "0x1cb44",
      "logs": [
        {
          "address": "0xfd5295e75ffea02780b0e2638d9fabb0316fd4e0",
          "topics": [
            "0x0a59d45890c37e353ebb4ff4a00b4e5002b27b21e3a308daea7646097c12533f",
            "0x00000000000000000000000085bee67d435a39f7467a8a9de34a5b73d25df426"
          ],
          "data": "0x000000000000000000000000000000000000000000000342d5eea74d97a0000000000000000000000000000000000000000000000000104e2da94483f62000000000000000000000000000000000000000000000000000000000000000000012",
          "blockHash": "0x11b461a8f92dad2bd47ea4877a95f5629248abcefaba57c91f20678b663ed86a",
          "blockNumber": "0x169316d",
          "blockTimestamp": "0x69ea2f01",
          "transactionHash": "0x5e5cc4f9e5f74d1f5a898675f1044bdb78c3d4af1e429ed1b883a0514a1f7749",
          "transactionIndex": "0x1",
          "logIndex": "0x0",
          "removed": false
        }
      ],
      "logsBloom": "0x00000000000000000000000000000000000000000000000004000000000000000000000000010000000000000000000000000000000000000000000100000000000000000000000000000000000000000000000000000000000000000000000000000000000000000000000000000000000000000000000000000004000000000000000000000000000000000000000000000000000000000000000000000000000000000000000000000000004100000000000000000000000000000000000000000000000000000000000000000000000000000000000000000000010001000000000000000000000000000000000000002000000000000000000000000000",
      "transactionHash": "0x5e5cc4f9e5f74d1f5a898675f1044bdb78c3d4af1e429ed1b883a0514a1f7749",
      "transactionIndex": "0x1",
      "blockHash": "0x11b461a8f92dad2bd47ea4877a95f5629248abcefaba57c91f20678b663ed86a",
      "blockNumber": "0x169316d",
      "gasUsed": "0x11702",
      "effectiveGasPrice": "0xba43b7401",
      "blobGasUsed": "0x6b",
      "from": "0x2738f38fde510743e0c589415e0598c4cee6eaa7",
      "to": "0xfd5295e75ffea02780b0e2638d9fabb0316fd4e0",
      "contractAddress": null
    },
    {
      "type": "0x2",
      "status": "0x1",
      "cumulativeGasUsed": "0x1d3a7",
      "logs": [
        {
          "address": "0xfd5295e75ffea02780b0e2638d9fabb0316fd4e0",
          "topics": [
            "0x0a59d45890c37e353ebb4ff4a00b4e5002b27b21e3a308daea7646097c12533f",
            "0x000000000000000000000000de9e4c3ce781b4ba68120d6261cbad65ce0ab00b"
          ],
          "data": "0x0000000000000000000000000000000000000000000000056bc75e2d6310000000000000000000000000000000000000000000000000001b1ae4d6e2ef5000000000000000000000000000000000000000000000000000000000000000000012",
          "blockHash": "0x4a647d3e48c963306862eee82fd180d0a84eb7154ab592f00310486424c994ce",
          "blockNumber": "0x1693170",
          "blockTimestamp": "0x69ea2f04",
          "transactionHash": "0x56b04f0a248832a058495e40dd28d323f6e39a50619795beddefdda7179f8249",
          "transactionIndex": "0x1",
          "logIndex": "0x0",
          "removed": false
        }
      ],
      "logsBloom": "0x00000000000000000000000000000000000000000000000004000000000000000100010000010000000000000000000000000000000000000000000100000000000000000000000000000000000000000000000000000000000000000000000000000000000002000000000000000000000000000000000000000000000000000000000000000000000000000000000000000000000000000000000000000000000000000000000000000000000100000000000000000000000000000000000000000000000000000000000000000000000000000000000000000000010000000000000000000000000000000000000000002000000000000000000000000000",
      "transactionHash": "0x56b04f0a248832a058495e40dd28d323f6e39a50619795beddefdda7179f8249",
      "transactionIndex": "0x1",
      "blockHash": "0x4a647d3e48c963306862eee82fd180d0a84eb7154ab592f00310486424c994ce",
      "blockNumber": "0x1693170",
      "gasUsed": "0x11f65",
      "effectiveGasPrice": "0xba43b7401",
      "blobGasUsed": "0x6a",
      "from": "0x2738f38fde510743e0c589415e0598c4cee6eaa7",
      "to": "0xfd5295e75ffea02780b0e2638d9fabb0316fd4e0",
      "contractAddress": null
    },
    {
      "type": "0x2",
      "status": "0x1",
      "cumulativeGasUsed": "0x17672",
      "logs": [
        {
          "address": "0x887955f28723b0e9bddc358448cb5b1fde692da4",
          "topics": [
            "0x01bddfafb594f9f8299e49bc6aaec90526c4f49ac7f3cb0fa6246152c55c914c",
            "0x000000000000000000000000284c2d99c5a12a65f10eff7183c33c1217b65a56"
          ],
          "data": "0x",
          "blockHash": "0x1e071a1d84367df83a1b046c1e10bafb48076bf11c1464388e2b84622db97a4e",
          "blockNumber": "0x1693172",
          "blockTimestamp": "0x69ea2f06",
          "transactionHash": "0x12718fd5e80f6513ff64f8cf708b81fc1da6e778a86cfa377455028cd7235694",
          "transactionIndex": "0x1",
          "logIndex": "0x0",
          "removed": false
        }
      ],
      "logsBloom": "0x00000000000000000000000000000000000000000000000000000000000000000000000000000000000000000000400000000000000000000000000000000000000000020000000000000000000000000000000000000000000000000000800000000000000000000000000000000000000000000000000000000000000000000000000000000000000000000000000000002000000001000000800000000000000000000000000040000000000000000000000000000000000000000000000000000000000000000000000000000000000000000000000000000000000000000000080000000000000000000000000000000000040000000000000000000000",
      "transactionHash": "0x12718fd5e80f6513ff64f8cf708b81fc1da6e778a86cfa377455028cd7235694",
      "transactionIndex": "0x1",
      "blockHash": "0x1e071a1d84367df83a1b046c1e10bafb48076bf11c1464388e2b84622db97a4e",
      "blockNumber": "0x1693172",
      "gasUsed": "0xc230",
      "effectiveGasPrice": "0xba43b7401",
      "blobGasUsed": "0x64",
      "from": "0x2738f38fde510743e0c589415e0598c4cee6eaa7",
      "to": "0x887955f28723b0e9bddc358448cb5b1fde692da4",
      "contractAddress": null
    },
    {
      "type": "0x2",
      "status": "0x1",
      "cumulativeGasUsed": "0x12adb2",
      "logs": [
        {
          "address": "0xba5ed099633d3b313e4d5f7bdc1305d3c28ba5ed",
          "topics": [
            "0x2feea65dd4e9f9cbd86b74b7734210c59a1b2981b5b137bd0ee3e208200c9067",
            "0x00000000000000000000000061c567bb387c1b8961f492118a97828972ba535d",
            "0xc5e30b617426557ee8360efbe9a58151ef6c99d08f38f572fb2443bd9f19527c"
          ],
          "data": "0x",
          "blockHash": "0x92765d72fad6f54e27b9cfe7a2d39d0d233ef9b83ec48df97b974e58c333f9f9",
          "blockNumber": "0x1693174",
          "blockTimestamp": "0x69ea2f08",
          "transactionHash": "0x974b3c1e8bc88ed6c2a183df596dce9e9388de4509b03d8df58d70f22599496f",
          "transactionIndex": "0x1",
          "logIndex": "0x0",
          "removed": false
        },
        {
          "address": "0x938a21b1f301206abb4e15340782b89ef7d83c9c",
          "topics": [
            "0xbc7cd75a20ee27fd9adebab32041f755214dbc6bffa90cc0225b39da2e5c2d3b",
            "0x00000000000000000000000043cb9d6acf1462356303079ea4fdd8bc30042a6a"
          ],
          "data": "0x",
          "blockHash": "0x92765d72fad6f54e27b9cfe7a2d39d0d233ef9b83ec48df97b974e58c333f9f9",
          "blockNumber": "0x1693174",
          "blockTimestamp": "0x69ea2f08",
          "transactionHash": "0x974b3c1e8bc88ed6c2a183df596dce9e9388de4509b03d8df58d70f22599496f",
          "transactionIndex": "0x1",
          "logIndex": "0x1",
          "removed": false
        },
        {
          "address": "0x938a21b1f301206abb4e15340782b89ef7d83c9c",
          "topics": [
            "0x8be0079c531659141344cd1fd0a4f28419497f9722a3daafe3b4186f6b6457e0",
            "0x0000000000000000000000000000000000000000000000000000000000000000",
            "0x00000000000000000000000061c567bb387c1b8961f492118a97828972ba535d"
          ],
          "data": "0x",
          "blockHash": "0x92765d72fad6f54e27b9cfe7a2d39d0d233ef9b83ec48df97b974e58c333f9f9",
          "blockNumber": "0x1693174",
          "blockTimestamp": "0x69ea2f08",
          "transactionHash": "0x974b3c1e8bc88ed6c2a183df596dce9e9388de4509b03d8df58d70f22599496f",
          "transactionIndex": "0x1",
          "logIndex": "0x2",
          "removed": false
        },
        {
          "address": "0x938a21b1f301206abb4e15340782b89ef7d83c9c",
          "topics": [
            "0xb5d5dda8af4f1e40a5cc4aa66c39ca5aac7f90947261313b07527eb3bdd98bc7"
          ],
          "data": "0x00000000000000000000000000000000000000000000000000000000000000000000000000000000000000000000000000000000000000000000000000000014",
          "blockHash": "0x92765d72fad6f54e27b9cfe7a2d39d0d233ef9b83ec48df97b974e58c333f9f9",
          "blockNumber": "0x1693174",
          "blockTimestamp": "0x69ea2f08",
          "transactionHash": "0x974b3c1e8bc88ed6c2a183df596dce9e9388de4509b03d8df58d70f22599496f",
          "transactionIndex": "0x1",
          "logIndex": "0x3",
          "removed": false
        },
        {
          "address": "0x938a21b1f301206abb4e15340782b89ef7d83c9c",
          "topics": [
            "0xd3890fc76afcfc31cba1dcf2c27b50e2541e4d75039c981855b5b5e03682aea0",
            "0x0000000000000000000000000000000000000000000000000000000000000000",
            "0x0000000000000000000000002738f38fde510743e0c589415e0598c4cee6eaa7"
          ],
          "data": "0x",
          "blockHash": "0x92765d72fad6f54e27b9cfe7a2d39d0d233ef9b83ec48df97b974e58c333f9f9",
          "blockNumber": "0x1693174",
          "blockTimestamp": "0x69ea2f08",
          "transactionHash": "0x974b3c1e8bc88ed6c2a183df596dce9e9388de4509b03d8df58d70f22599496f",
          "transactionIndex": "0x1",
          "logIndex": "0x4",
          "removed": false
        },
        {
          "address": "0x938a21b1f301206abb4e15340782b89ef7d83c9c",
          "topics": [
            "0xb404cac19fb1cbeff98d325795b08886e3cd8fe8cb1a2f193aac66f13fb239c3"
          ],
          "data": "0x0000000000000000000000000000000000000000000000000000000000000000000000000000000000000000000000000000000000000000000000000000000a",
          "blockHash": "0x92765d72fad6f54e27b9cfe7a2d39d0d233ef9b83ec48df97b974e58c333f9f9",
          "blockNumber": "0x1693174",
          "blockTimestamp": "0x69ea2f08",
          "transactionHash": "0x974b3c1e8bc88ed6c2a183df596dce9e9388de4509b03d8df58d70f22599496f",
          "transactionIndex": "0x1",
          "logIndex": "0x5",
          "removed": false
        },
        {
          "address": "0x938a21b1f301206abb4e15340782b89ef7d83c9c",
          "topics": [
            "0xb273226859e3e49fd86c9ac8f721eaa74e677de0877db704918e0f43ec8d23bc"
          ],
          "data": "0x00000000000000000000000000000000000000000000000000000000000000000000000000000000000000000000000000000000000000000000000000000006",
          "blockHash": "0x92765d72fad6f54e27b9cfe7a2d39d0d233ef9b83ec48df97b974e58c333f9f9",
          "blockNumber": "0x1693174",
          "blockTimestamp": "0x69ea2f08",
          "transactionHash": "0x974b3c1e8bc88ed6c2a183df596dce9e9388de4509b03d8df58d70f22599496f",
          "transactionIndex": "0x1",
          "logIndex": "0x6",
          "removed": false
        },
        {
          "address": "0x938a21b1f301206abb4e15340782b89ef7d83c9c",
          "topics": [
            "0x77c5ddba87b3d3f970242eda9bb1263ade9e4aed3eca233d5fa1af00a574b025"
          ],
          "data": "0x0000000000000000000000000000000000000000000000000000000000000000000000000000000000000000000000000000000000000000000000000000000000000000000000000000000000000000000000000000000000000000000013880000000000000000000000000000000000000000000000000000000000000d05",
          "blockHash": "0x92765d72fad6f54e27b9cfe7a2d39d0d233ef9b83ec48df97b974e58c333f9f9",
          "blockNumber": "0x1693174",
          "blockTimestamp": "0x69ea2f08",
          "transactionHash": "0x974b3c1e8bc88ed6c2a183df596dce9e9388de4509b03d8df58d70f22599496f",
          "transactionIndex": "0x1",
          "logIndex": "0x7",
          "removed": false
        },
        {
          "address": "0x938a21b1f301206abb4e15340782b89ef7d83c9c",
          "topics": [
            "0xe4630e6e66d263636ccf946c97182b0edb7bbea539a79dfa121bab7444e83b79",
            "0x0000000000000000000000000000000000000000000000000000000000000000",
            "0x00000000000000000000000026eff54e2f0e8825996b83119b7df5ef2c882dd7"
          ],
          "data": "0x",
          "blockHash": "0x92765d72fad6f54e27b9cfe7a2d39d0d233ef9b83ec48df97b974e58c333f9f9",
          "blockNumber": "0x1693174",
          "blockTimestamp": "0x69ea2f08",
          "transactionHash": "0x974b3c1e8bc88ed6c2a183df596dce9e9388de4509b03d8df58d70f22599496f",
          "transactionIndex": "0x1",
          "logIndex": "0x8",
          "removed": false
        },
        {
          "address": "0x938a21b1f301206abb4e15340782b89ef7d83c9c",
          "topics": [
            "0xc1ba25a60afffd747fd25304e169131b7ae93932f7f3e508a8cec0e18fa12842",
            "0x0000000000000000000000000000000000000000000000000000000000000000",
            "0x0000000000000000000000004f2746e21a13ea9a8a832d929cdbf32ffc113a2c"
          ],
          "data": "0x",
          "blockHash": "0x92765d72fad6f54e27b9cfe7a2d39d0d233ef9b83ec48df97b974e58c333f9f9",
          "blockNumber": "0x1693174",
          "blockTimestamp": "0x69ea2f08",
          "transactionHash": "0x974b3c1e8bc88ed6c2a183df596dce9e9388de4509b03d8df58d70f22599496f",
          "transactionIndex": "0x1",
          "logIndex": "0x9",
          "removed": false
        },
        {
          "address": "0x938a21b1f301206abb4e15340782b89ef7d83c9c",
          "topics": [
            "0x00af8726a3679feb41b28b0996e403259aceb28ec6f3c6c3dc7a4c4fe6c8fce1"
          ],
          "data": "0x00000000000000000000000000000000000000000000000000000000000000000000000000000000000000000000000000000000000000000000000000000000",
          "blockHash": "0x92765d72fad6f54e27b9cfe7a2d39d0d233ef9b83ec48df97b974e58c333f9f9",
          "blockNumber": "0x1693174",
          "blockTimestamp": "0x69ea2f08",
          "transactionHash": "0x974b3c1e8bc88ed6c2a183df596dce9e9388de4509b03d8df58d70f22599496f",
          "transactionIndex": "0x1",
          "logIndex": "0xa",
          "removed": false
        },
        {
          "address": "0x938a21b1f301206abb4e15340782b89ef7d83c9c",
          "topics": [
            "0x8be0079c531659141344cd1fd0a4f28419497f9722a3daafe3b4186f6b6457e0",
            "0x00000000000000000000000061c567bb387c1b8961f492118a97828972ba535d",
            "0x0000000000000000000000002738f38fde510743e0c589415e0598c4cee6eaa7"
          ],
          "data": "0x",
          "blockHash": "0x92765d72fad6f54e27b9cfe7a2d39d0d233ef9b83ec48df97b974e58c333f9f9",
          "blockNumber": "0x1693174",
          "blockTimestamp": "0x69ea2f08",
          "transactionHash": "0x974b3c1e8bc88ed6c2a183df596dce9e9388de4509b03d8df58d70f22599496f",
          "transactionIndex": "0x1",
          "logIndex": "0xb",
          "removed": false
        },
        {
          "address": "0x938a21b1f301206abb4e15340782b89ef7d83c9c",
          "topics": [
            "0x7f26b83ff96e1f2b6a682f133852f6798a09c465da95921460cefb3847402498"
          ],
          "data": "0x0000000000000000000000000000000000000000000000000000000000000001",
          "blockHash": "0x92765d72fad6f54e27b9cfe7a2d39d0d233ef9b83ec48df97b974e58c333f9f9",
          "blockNumber": "0x1693174",
          "blockTimestamp": "0x69ea2f08",
          "transactionHash": "0x974b3c1e8bc88ed6c2a183df596dce9e9388de4509b03d8df58d70f22599496f",
          "transactionIndex": "0x1",
          "logIndex": "0xc",
          "removed": false
        },
        {
          "address": "0x938a21b1f301206abb4e15340782b89ef7d83c9c",
          "topics": [
            "0x7e644d79422f17c01e4894b5f4f588d331ebfa28653d42ae832dc59e38c9798f"
          ],
          "data": "0x000000000000000000000000000000000000000000000000000000000000000000000000000000000000000001bd47aa7b13a75c24e3da760f8a503c435bb4df",
          "blockHash": "0x92765d72fad6f54e27b9cfe7a2d39d0d233ef9b83ec48df97b974e58c333f9f9",
          "blockNumber": "0x1693174",
          "blockTimestamp": "0x69ea2f08",
          "transactionHash": "0x974b3c1e8bc88ed6c2a183df596dce9e9388de4509b03d8df58d70f22599496f",
          "transactionIndex": "0x1",
          "logIndex": "0xd",
          "removed": false
        },
        {
          "address": "0xba5ed099633d3b313e4d5f7bdc1305d3c28ba5ed",
          "topics": [
            "0x4db17dd5e4732fb6da34a148104a592783ca119a1e7bb8829eba6cbadef0b511",
            "0x000000000000000000000000938a21b1f301206abb4e15340782b89ef7d83c9c"
          ],
          "data": "0x",
          "blockHash": "0x92765d72fad6f54e27b9cfe7a2d39d0d233ef9b83ec48df97b974e58c333f9f9",
          "blockNumber": "0x1693174",
          "blockTimestamp": "0x69ea2f08",
          "transactionHash": "0x974b3c1e8bc88ed6c2a183df596dce9e9388de4509b03d8df58d70f22599496f",
          "transactionIndex": "0x1",
          "logIndex": "0xe",
          "removed": false
        },
        {
          "address": "0x353ed52bf8482027c0e0b9e3c0e5d96a9f680980",
          "topics": [
            "0xcf8e77154e470bf74e2e443ad6193730ed2a7c72279dc06aa8c12daf20c7768e",
            "0x000000000000000000000000284e9b7b623eae866914b7fa0eb720c2bb3c2980",
            "0x000000000000000000000000de9e4c3ce781b4ba68120d6261cbad65ce0ab00b"
          ],
          "data": "0x000000000000000000000000938a21b1f301206abb4e15340782b89ef7d83c9c00000000000000000000000043cb9d6acf1462356303079ea4fdd8bc30042a6a",
          "blockHash": "0x92765d72fad6f54e27b9cfe7a2d39d0d233ef9b83ec48df97b974e58c333f9f9",
          "blockNumber": "0x1693174",
          "blockTimestamp": "0x69ea2f08",
          "transactionHash": "0x974b3c1e8bc88ed6c2a183df596dce9e9388de4509b03d8df58d70f22599496f",
          "transactionIndex": "0x1",
          "logIndex": "0xf",
          "removed": false
        }
      ],
      "logsBloom": "0x000200000000020000000080010004204000000000000000008000012000100001000102000000020004000000000010000000000008040000000000000000000020000000000000000000000200420000010404000000000060000004000000000040100200022000000000001008000000008001200000000000000040004000000800000002000004000000000000080000000208800000040040008000100000020200c4000000000000000400000000020000000000000000000090000000000820020000000200080000040010000000002400100120000000002024008000000000000200000000000000020000080080000000080000000000000400",
      "transactionHash": "0x974b3c1e8bc88ed6c2a183df596dce9e9388de4509b03d8df58d70f22599496f",
      "transactionIndex": "0x1",
      "blockHash": "0x92765d72fad6f54e27b9cfe7a2d39d0d233ef9b83ec48df97b974e58c333f9f9",
      "blockNumber": "0x1693174",
      "gasUsed": "0x11f970",
      "effectiveGasPrice": "0xba43b7401",
      "blobGasUsed": "0xf8",
      "from": "0x2738f38fde510743e0c589415e0598c4cee6eaa7",
      "to": "0x353ed52bf8482027c0e0b9e3c0e5d96a9f680980",
      "contractAddress": null
    },
    {
      "type": "0x2",
      "status": "0x1",
      "cumulativeGasUsed": "0xa0dce",
      "logs": [
        {
          "address": "0x284e9b7b623eae866914b7fa0eb720c2bb3c2980",
          "topics": [
            "0xddf252ad1be2c89b69c2b068fc378daa952ba7f163c4a11628f55a4df523b3ef",
            "0x0000000000000000000000002738f38fde510743e0c589415e0598c4cee6eaa7",
            "0x000000000000000000000000938a21b1f301206abb4e15340782b89ef7d83c9c"
          ],
          "data": "0x0000000000000000000000000000000000000000000000000ae2570e966e6ca0",
          "blockHash": "0xee27afeaecc99e8380c6e687010a3f72e2de2437c5d6d51a2d4ca70f8a7a6618",
          "blockNumber": "0x1693177",
          "blockTimestamp": "0x69ea2f0b",
          "transactionHash": "0x501bb8fa48940062aa69071697b9230682ce6cfb9191e8650d5e20e7fa99f2ee",
          "transactionIndex": "0x4",
          "logIndex": "0x3",
          "removed": false
        }
      ],
      "logsBloom": "0x00000000000000000000000000000000000000000000000000000000000000000020000000000000000000000000000000000000000000000000000000000000002000000000000000000008000000000000000400000000000000000000000000000000000000000000000000000000000000000000000000000010000000000000000000000000000000000000000000000000800000000000000000000010000000000000000000000000000000000000000000000000000000000000000000000802000000000000000000000000000000000000000000000000000000008000000020000000000000000000020000000000000000000000000000000000",
      "transactionHash": "0x501bb8fa48940062aa69071697b9230682ce6cfb9191e8650d5e20e7fa99f2ee",
      "transactionIndex": "0x4",
      "blockHash": "0xee27afeaecc99e8380c6e687010a3f72e2de2437c5d6d51a2d4ca70f8a7a6618",
      "blockNumber": "0x1693177",
      "gasUsed": "0xde07",
      "effectiveGasPrice": "0xba43b7401",
      "blobGasUsed": "0x64",
      "from": "0x2738f38fde510743e0c589415e0598c4cee6eaa7",
      "to": "0x284e9b7b623eae866914b7fa0eb720c2bb3c2980",
      "contractAddress": null
    },
    {
      "type": "0x2",
      "status": "0x1",
      "cumulativeGasUsed": "0x18ca55",
      "logs": [
        {
          "address": "0xde9e4c3ce781b4ba68120d6261cbad65ce0ab00b",
          "topics": [
            "0xddf252ad1be2c89b69c2b068fc378daa952ba7f163c4a11628f55a4df523b3ef",
            "0x0000000000000000000000002738f38fde510743e0c589415e0598c4cee6eaa7",
            "0x000000000000000000000000938a21b1f301206abb4e15340782b89ef7d83c9c"
          ],
          "data": "0x0000000000000000000000000000000000000000000000000de0b6b3a7640000",
          "blockHash": "0x45c678ba671df56ba49a1586c89d90e52354a041dc7cfdd1d003e18c3c0d2640",
          "blockNumber": "0x1693179",
          "blockTimestamp": "0x69ea2f0d",
          "transactionHash": "0x70422a5039850fad8789eb513b5a8ed4306692b2830f2978badb339e9c4a714f",
          "transactionIndex": "0x9",
          "logIndex": "0x8",
          "removed": false
        }
      ],
      "logsBloom": "0x00000000000000000000000000000000000000000000000000000000000000000000000000000000000000000000000000000040000000000000000000000000002000000000000000000008000000000000000400000008000000000000000000000000000000000000000000000000000000000000000000000010000000000000000000000000000000000000000000000000000000000000000000000010000000000000000000000000000000000000000000000000000000000000000000000802000000000000000000000000000000000000000000000000800000008000000000000000000000000000020000000000000000000000000000000000",
      "transactionHash": "0x70422a5039850fad8789eb513b5a8ed4306692b2830f2978badb339e9c4a714f",
      "transactionIndex": "0x9",
      "blockHash": "0x45c678ba671df56ba49a1586c89d90e52354a041dc7cfdd1d003e18c3c0d2640",
      "blockNumber": "0x1693179",
      "gasUsed": "0xddef",
      "effectiveGasPrice": "0xba43b7401",
      "blobGasUsed": "0x64",
      "from": "0x2738f38fde510743e0c589415e0598c4cee6eaa7",
      "to": "0xde9e4c3ce781b4ba68120d6261cbad65ce0ab00b",
      "contractAddress": null
    },
    {
      "type": "0x2",
      "status": "0x1",
      "cumulativeGasUsed": "0xcdf28",
      "logs": [
        {
          "address": "0x938a21b1f301206abb4e15340782b89ef7d83c9c",
          "topics": [
            "0xddf252ad1be2c89b69c2b068fc378daa952ba7f163c4a11628f55a4df523b3ef",
            "0x0000000000000000000000000000000000000000000000000000000000000000",
            "0x0000000000000000000000000000000000000000000000000000000000000001"
          ],
          "data": "0x00000000000000000000000000000000000000000000000000000000000003e8",
          "blockHash": "0x5b1dc8b64b5931cff2ba01fd80208cfddc4361dd3d4911325b02370545d07d41",
          "blockNumber": "0x169317c",
          "blockTimestamp": "0x69ea2f10",
          "transactionHash": "0x6c883f9dbbc42f3bdd4465bf1c464b77f7168d25a8c1fcf4f2a798537a4030e0",
          "transactionIndex": "0x4",
          "logIndex": "0x3",
          "removed": false
        },
        {
          "address": "0x938a21b1f301206abb4e15340782b89ef7d83c9c",
          "topics": [
            "0xddf252ad1be2c89b69c2b068fc378daa952ba7f163c4a11628f55a4df523b3ef",
            "0x0000000000000000000000000000000000000000000000000000000000000000",
            "0x0000000000000000000000002738f38fde510743e0c589415e0598c4cee6eaa7"
          ],
          "data": "0x0000000000000000000000000000000000000000000000000c4a474c7bb8f24a",
          "blockHash": "0x5b1dc8b64b5931cff2ba01fd80208cfddc4361dd3d4911325b02370545d07d41",
          "blockNumber": "0x169317c",
          "blockTimestamp": "0x69ea2f10",
          "transactionHash": "0x6c883f9dbbc42f3bdd4465bf1c464b77f7168d25a8c1fcf4f2a798537a4030e0",
          "transactionIndex": "0x4",
          "logIndex": "0x4",
          "removed": false
        },
        {
          "address": "0x938a21b1f301206abb4e15340782b89ef7d83c9c",
          "topics": [
            "0xf71a0e183fe1c86e734de92237976be5699cb46fd28373d6ace2f8eafea2857c"
          ],
          "data": "0x0000000000000000000000000000000000000000000000000ae2570e966e6ca00000000000000000000000000000000000000000000000000de0b6b3a76400000000000000000000000000000000000000000000000000000000000069ea2f10",
          "blockHash": "0x5b1dc8b64b5931cff2ba01fd80208cfddc4361dd3d4911325b02370545d07d41",
          "blockNumber": "0x169317c",
          "blockTimestamp": "0x69ea2f10",
          "transactionHash": "0x6c883f9dbbc42f3bdd4465bf1c464b77f7168d25a8c1fcf4f2a798537a4030e0",
          "transactionIndex": "0x4",
          "logIndex": "0x5",
          "removed": false
        },
        {
          "address": "0x938a21b1f301206abb4e15340782b89ef7d83c9c",
          "topics": [
            "0xa8137fff86647d8a402117b9c5dbda627f721d3773338fb9678c83e54ed39080",
            "0x0000000000000000000000002738f38fde510743e0c589415e0598c4cee6eaa7",
            "0x0000000000000000000000002738f38fde510743e0c589415e0598c4cee6eaa7"
          ],
          "data": "0x0000000000000000000000000000000000000000000000000ae2570e966e6ca00000000000000000000000000000000000000000000000000de0b6b3a76400000000000000000000000000000000000000000000000000000c4a474c7bb8f24a",
          "blockHash": "0x5b1dc8b64b5931cff2ba01fd80208cfddc4361dd3d4911325b02370545d07d41",
          "blockNumber": "0x169317c",
          "blockTimestamp": "0x69ea2f10",
          "transactionHash": "0x6c883f9dbbc42f3bdd4465bf1c464b77f7168d25a8c1fcf4f2a798537a4030e0",
          "transactionIndex": "0x4",
          "logIndex": "0x6",
          "removed": false
        }
      ],
      "logsBloom": "0x00000000200000000000000000000000000000000000000000000000000000000000000000000002000000000000000000000000080000000000000000040000002000000100000000000008000000000000000000040000000000000000000000000000020000000000000000000800000000000000000000000010000000000000000000000000000000000000000000000000000000000000000000000010000000000080000000000000000000400000000000000000000000000000400000000802000000000000000000000000000000000000000100000000000060000000000000000000000000000000000000000000000000000000000000000000",
      "transactionHash": "0x6c883f9dbbc42f3bdd4465bf1c464b77f7168d25a8c1fcf4f2a798537a4030e0",
      "transactionIndex": "0x4",
      "blockHash": "0x5b1dc8b64b5931cff2ba01fd80208cfddc4361dd3d4911325b02370545d07d41",
      "blockNumber": "0x169317c",
      "gasUsed": "0x3609f",
      "effectiveGasPrice": "0xba43b7401",
      "blobGasUsed": "0x64",
      "from": "0x2738f38fde510743e0c589415e0598c4cee6eaa7",
      "to": "0x938a21b1f301206abb4e15340782b89ef7d83c9c",
      "contractAddress": null
    },
    {
      "type": "0x2",
      "status": "0x1",
      "cumulativeGasUsed": "0x471fa",
      "logs": [
        {
          "address": "0x938a21b1f301206abb4e15340782b89ef7d83c9c",
          "topics": [
            "0x0a59d45890c37e353ebb4ff4a00b4e5002b27b21e3a308daea7646097c12533f",
            "0x000000000000000000000000284e9b7b623eae866914b7fa0eb720c2bb3c2980"
          ],
          "data": "0x0000000000000000000000000000000000000000000000042c96f40959140000000000000000000000000000000000000000000000000014def2c42ebd6400000000000000000000000000000000000000000000000000000000000000000012",
          "blockHash": "0x0dbc5afdde20d39d58b606af17273b26d54c301ff64f84eede9100e87c8bf5f5",
          "blockNumber": "0x169317f",
          "blockTimestamp": "0x69ea2f13",
          "transactionHash": "0xdf89c96ef1b632b44f9f8b123448a017f7f87c9f56bec1b8258d527c6cbc34f4",
          "transactionIndex": "0x2",
          "logIndex": "0x1",
          "removed": false
        }
      ],
      "logsBloom": "0x00000000000000000000000001000000000000000000000004000000000000000000000000000002000000000000000000000000000000000000000100000000000000000000000000000000000000000000000000000000000000000000000000000000000000000000000000000000000000000000000000000000004000000000080000000000000000000000000000000000000000000000000000000000000000000080000000000000000000000000000000000000000000000000000000000000000000000000000000000000000000000000000100000000010000000000000000000000000000000000000000000000000000000000000000000000",
      "transactionHash": "0xdf89c96ef1b632b44f9f8b123448a017f7f87c9f56bec1b8258d527c6cbc34f4",
      "transactionIndex": "0x2",
      "blockHash": "0x0dbc5afdde20d39d58b606af17273b26d54c301ff64f84eede9100e87c8bf5f5",
      "blockNumber": "0x169317f",
      "gasUsed": "0x11702",
      "effectiveGasPrice": "0xba43b7401",
      "blobGasUsed": "0x6a",
      "from": "0x2738f38fde510743e0c589415e0598c4cee6eaa7",
      "to": "0x938a21b1f301206abb4e15340782b89ef7d83c9c",
      "contractAddress": null
    },
    {
      "type": "0x2",
      "status": "0x1",
      "cumulativeGasUsed": "0x1f45f",
      "logs": [
        {
          "address": "0x938a21b1f301206abb4e15340782b89ef7d83c9c",
          "topics": [
            "0x0a59d45890c37e353ebb4ff4a00b4e5002b27b21e3a308daea7646097c12533f",
            "0x000000000000000000000000de9e4c3ce781b4ba68120d6261cbad65ce0ab00b"
          ],
          "data": "0x0000000000000000000000000000000000000000000000056bc75e2d6310000000000000000000000000000000000000000000000000001b1ae4d6e2ef5000000000000000000000000000000000000000000000000000000000000000000012",
          "blockHash": "0x07939a0516e84a2893a3345a92caace91e82fd04ec04c6b44d3a0a6fb1a34f1a",
          "blockNumber": "0x1693182",
          "blockTimestamp": "0x69ea2f16",
          "transactionHash": "0x2f692c1975ae7004980b78ee50a7a0bc4e664f1b47d2fb73513058789676bb03",
          "transactionIndex": "0x1",
          "logIndex": "0x0",
          "removed": false
        }
      ],
      "logsBloom": "0x00000000000000000000000000000000000000000000000004000000000000000100010000000002000000000000000000000000000000000000000100000000000000000000000000000000000000000000000000000000000000000000000000000000000002000000000000000000000000000000000000000000000000000000000000000000000000000000000000000000000000000000000000000000000000000080000000000000000000000000000000000000000000000000000000000000000000000000000000000000000000000000000100000000010000000000000000000000000000000000000000000000000000000000000000000000",
      "transactionHash": "0x2f692c1975ae7004980b78ee50a7a0bc4e664f1b47d2fb73513058789676bb03",
      "transactionIndex": "0x1",
      "blockHash": "0x07939a0516e84a2893a3345a92caace91e82fd04ec04c6b44d3a0a6fb1a34f1a",
      "blockNumber": "0x1693182",
      "gasUsed": "0x11f65",
      "effectiveGasPrice": "0xba43b7401",
      "blobGasUsed": "0x6a",
      "from": "0x2738f38fde510743e0c589415e0598c4cee6eaa7",
      "to": "0x938a21b1f301206abb4e15340782b89ef7d83c9c",
      "contractAddress": null
    },
    {
      "type": "0x2",
      "status": "0x1",
      "cumulativeGasUsed": "0x1971e",
      "logs": [
        {
          "address": "0x887955f28723b0e9bddc358448cb5b1fde692da4",
          "topics": [
            "0x01bddfafb594f9f8299e49bc6aaec90526c4f49ac7f3cb0fa6246152c55c914c",
            "0x00000000000000000000000058f08739ea9764097b9500b6e4a4db64d168b807"
          ],
          "data": "0x",
          "blockHash": "0xbf16cad075177467f970e616cc25bbe28f36932a81061f42c9944ffc22713c4a",
          "blockNumber": "0x1693184",
          "blockTimestamp": "0x69ea2f18",
          "transactionHash": "0x117adf261aa5c6a176c40bebad72bf8682e282b879d9326baeb8ad37f6388793",
          "transactionIndex": "0x1",
          "logIndex": "0x0",
          "removed": false
        }
      ],
      "logsBloom": "0x00000000000000000000000000000000000000000000000000000000000000000000000000000000000000000000000000000000000000000000000000000000000000020000000000000000000000000000080000000000000000000000800000000000000000000000000000000000000000000000000000000000000000000000000000000000000000000000000000002000000000000000800000000000000000000000000000000000000000000000000000000000000000000000000000000000000000000000000000000000000000000000200000000000000000000000080000000000000000000000000000000000060000000000000000000000",
      "transactionHash": "0x117adf261aa5c6a176c40bebad72bf8682e282b879d9326baeb8ad37f6388793",
      "transactionIndex": "0x1",
      "blockHash": "0xbf16cad075177467f970e616cc25bbe28f36932a81061f42c9944ffc22713c4a",
      "blockNumber": "0x1693184",
      "gasUsed": "0xc224",
      "effectiveGasPrice": "0xba43b7401",
      "blobGasUsed": "0x64",
      "from": "0x2738f38fde510743e0c589415e0598c4cee6eaa7",
      "to": "0x887955f28723b0e9bddc358448cb5b1fde692da4",
      "contractAddress": null
    }
  ],
  "libraries": [
    "node_modules/@celo/contracts/common/linkedlists/AddressSortedLinkedListWithMedian.sol:AddressSortedLinkedListWithMedian:0xf90B816Ea07eC3c6384656cd5B3249DA8fc3df6F"
  ],
  "pending": [],
  "returns": {},
  "timestamp": 1776955160952,
  "chain": 11142220,
  "commit": "273ee36"
}