{
  "transactions": [
    {
      "hash": "0x761fe35723b3dddb533b07f8ba46259fbc51bf49eb73aee6eae897e3dec8b195",
      "transactionType": "CALL",
      "contractName": null,
      "contractAddress": "0x98c6d2a3a39ff5a2803240f597eb4c8ce76d36ab",
      "function": "createExchange((address,address,address,uint256,uint256,uint256,((uint256),address,uint256,uint256,uint256)))",
      "arguments": [
        "(0x9E174bc09cEdaDc7a5e39Ba1142b6d95365182CB, 0xa9b7E81a312097b0920a0B11543626c9a57155B2, 0x49503Ffd8da325BfE52B8982A7f9c2E26643c276, 0, 0, 0, ((0), 0x81a313Ff894BFC6093d33b5514E34D7FAA41B7eF, 360, 1, 12000000000000000000000000))"
      ],
      "transaction": {
        "from": "0x56fd3f2bee130e9867942d0f463a16fbe49b8d81",
        "to": "0x98c6d2a3a39ff5a2803240f597eb4c8ce76d36ab",
        "gas": "0x89c9f",
        "value": "0x0",
        "input": "0xb08986910000000000000000000000009e174bc09cedadc7a5e39ba1142b6d95365182cb000000000000000000000000a9b7e81a312097b0920a0b11543626c9a57155b200000000000000000000000049503ffd8da325bfe52b8982a7f9c2e26643c276000000000000000000000000000000000000000000000000000000000000000000000000000000000000000000000000000000000000000000000000000000000000000000000000000000000000000000000000000000000000000000000000000000000000000000000000000000000000000000000000000000000000000000000000000000000000000081a313ff894bfc6093d33b5514e34d7faa41b7ef0000000000000000000000000000000000000000000000000000000000000168000000000000000000000000000000000000000000000000000000000000000100000000000000000000000000000000000000000009ed194db19b238c000000",
        "nonce": "0xe1",
        "chainId": "0x279f"
      },
      "additionalContracts": [],
      "isFixedGasLimit": false
    },
    {
      "hash": "0x89073323d3e461473bbaffe851cd6857479fc34b11432c1baeec9fb1be49582a",
      "transactionType": "CALL",
      "contractName": null,
      "contractAddress": "0x388f2c53e77ef33111383a363e0b5fd976b18e74",
      "function": "configureTradingLimit(bytes32,address,(uint32,uint32,int48,int48,int48,uint8))",
      "arguments": [
        "0x1dd1d4a1c823d13a0b425f67f38f882c3369d05b67e9b3ba1d561d1d9443651e",
        "0x9E174bc09cEdaDc7a5e39Ba1142b6d95365182CB",
        "(300, 86400, 2500000, 5000000, 0, 3)"
      ],
      "transaction": {
        "from": "0x56fd3f2bee130e9867942d0f463a16fbe49b8d81",
        "to": "0x388f2c53e77ef33111383a363e0b5fd976b18e74",
        "gas": "0x15639",
        "value": "0x0",
        "input": "0xa9b5aab31dd1d4a1c823d13a0b425f67f38f882c3369d05b67e9b3ba1d561d1d9443651e0000000000000000000000009e174bc09cedadc7a5e39ba1142b6d95365182cb000000000000000000000000000000000000000000000000000000000000012c000000000000000000000000000000000000000000000000000000000001518000000000000000000000000000000000000000000000000000000000002625a000000000000000000000000000000000000000000000000000000000004c4b4000000000000000000000000000000000000000000000000000000000000000000000000000000000000000000000000000000000000000000000000000000003",
        "nonce": "0xe2",
        "chainId": "0x279f"
      },
      "additionalContracts": [],
      "isFixedGasLimit": false
    },
    {
      "hash": "0x6f25df0e96db35bc2b878dc6a7216f3269e3f9b6c3a85e7f00238cb45bb442d1",
      "transactionType": "CALL",
      "contractName": null,
      "contractAddress": "0x98c6d2a3a39ff5a2803240f597eb4c8ce76d36ab",
      "function": "createExchange((address,address,address,uint256,uint256,uint256,((uint256),address,uint256,uint256,uint256)))",
      "arguments": [
        "(0x9E174bc09cEdaDc7a5e39Ba1142b6d95365182CB, 0x272E9A32492f3c9B7c31E374f2F7c3627d746DE3, 0x49503Ffd8da325BfE52B8982A7f9c2E26643c276, 0, 0, 0, ((0), 0xAc414205651F4a62B614b6BE9e5318a182C33EB0, 360, 1, 12000000000000000000000000))"
      ],
      "transaction": {
        "from": "0x56fd3f2bee130e9867942d0f463a16fbe49b8d81",
        "to": "0x98c6d2a3a39ff5a2803240f597eb4c8ce76d36ab",
        "gas": "0x7d4fd",
        "value": "0x0",
        "input": "0xb08986910000000000000000000000009e174bc09cedadc7a5e39ba1142b6d95365182cb000000000000000000000000272e9a32492f3c9b7c31e374f2f7c3627d746de300000000000000000000000049503ffd8da325bfe52b8982a7f9c2e26643c2760000000000000000000000000000000000000000000000000000000000000000000000000000000000000000000000000000000000000000000000000000000000000000000000000000000000000000000000000000000000000000000000000000000000000000000000000000000000000000000000000000000000000000000000000000000000000000ac414205651f4a62b614b6be9e5318a182c33eb00000000000000000000000000000000000000000000000000000000000000168000000000000000000000000000000000000000000000000000000000000000100000000000000000000000000000000000000000009ed194db19b238c000000",
        "nonce": "0xe3",
        "chainId": "0x279f"
      },
      "additionalContracts": [],
      "isFixedGasLimit": false
    },
    {
      "hash": "0x257b4849a43bf3518d241b05fa75867e9dfc267f7a9095591ba03d882f93da80",
      "transactionType": "CALL",
      "contractName": null,
      "contractAddress": "0x388f2c53e77ef33111383a363e0b5fd976b18e74",
      "function": "configureTradingLimit(bytes32,address,(uint32,uint32,int48,int48,int48,uint8))",
      "arguments": [
        "0x09c52cc74e3ab4c6a0fbdecf0b859ecc63ba2dbec3861bfc87495fdf80d71cd9",
        "0x9E174bc09cEdaDc7a5e39Ba1142b6d95365182CB",
        "(300, 86400, 2500000, 5000000, 0, 3)"
      ],
      "transaction": {
        "from": "0x56fd3f2bee130e9867942d0f463a16fbe49b8d81",
        "to": "0x388f2c53e77ef33111383a363e0b5fd976b18e74",
        "gas": "0x15639",
        "value": "0x0",
        "input": "0xa9b5aab309c52cc74e3ab4c6a0fbdecf0b859ecc63ba2dbec3861bfc87495fdf80d71cd90000000000000000000000009e174bc09cedadc7a5e39ba1142b6d95365182cb000000000000000000000000000000000000000000000000000000000000012c000000000000000000000000000000000000000000000000000000000001518000000000000000000000000000000000000000000000000000000000002625a000000000000000000000000000000000000000000000000000000000004c4b4000000000000000000000000000000000000000000000000000000000000000000000000000000000000000000000000000000000000000000000000000000003",
        "nonce": "0xe4",
        "chainId": "0x279f"
      },
      "additionalContracts": [],
      "isFixedGasLimit": false
    },
    {
      "hash": "0xb056675fa94be860dd1324ca71bf2e6c1a7e3a7c2c76cbc67d9eeb75b17fdb3d",
      "transactionType": "CALL",
      "contractName": null,
      "contractAddress": "0x98c6d2a3a39ff5a2803240f597eb4c8ce76d36ab",
      "function": "createExchange((address,address,address,uint256,uint256,uint256,((uint256),address,uint256,uint256,uint256)))",
      "arguments": [
        "(0x9E174bc09cEdaDc7a5e39Ba1142b6d95365182CB, 0xb5a31A69b58b3B3A61C8704B489F53d6b79016c4, 0x49503Ffd8da325BfE52B8982A7f9c2E26643c276, 0, 0, 0, ((500000000000000000000000), 0xEc57482AA55e3ad026C315A0e4A692B776C318cA, 360, 1, 10000000000000000000000000))"
      ],
      "transaction": {
        "from": "0x56fd3f2bee130e9867942d0f463a16fbe49b8d81",
        "to": "0x98c6d2a3a39ff5a2803240f597eb4c8ce76d36ab",
        "gas": "0x83e7d",
        "value": "0x0",
        "input": "0xb08986910000000000000000000000009e174bc09cedadc7a5e39ba1142b6d95365182cb000000000000000000000000b5a31a69b58b3b3a61c8704b489f53d6b79016c400000000000000000000000049503ffd8da325bfe52b8982a7f9c2e26643c2760000000000000000000000000000000000000000000000000000000000000000000000000000000000000000000000000000000000000000000000000000000000000000000000000000000000000000000000000000000000000000000000000000000000000000000000000000000000000000000069e10de76676d0800000000000000000000000000000ec57482aa55e3ad026c315a0e4a692b776c318ca00000000000000000000000000000000000000000000000000000000000001680000000000000000000000000000000000000000000000000000000000000001000000000000000000000000000000000000000000084595161401484a000000",
        "nonce": "0xe5",
        "chainId": "0x279f"
      },
      "additionalContracts": [],
      "isFixedGasLimit": false
    },
    {
      "hash": "0x0e946990a2501d678c18bed9ce0847c7fd13da760e8d7d2ace0191eb7bee35f7",
      "transactionType": "CALL",
      "contractName": null,
      "contractAddress": "0x388f2c53e77ef33111383a363e0b5fd976b18e74",
      "function": "configureTradingLimit(bytes32,address,(uint32,uint32,int48,int48,int48,uint8))",
      "arguments": [
        "0x74347ad8b811b2ca1cfbc092ee1f48203e0add8c0c4c4760d66868b46a42af81",
        "0x9E174bc09cEdaDc7a5e39Ba1142b6d95365182CB",
        "(300, 86400, 100000, 500000, 2500000, 7)"
      ],
      "transaction": {
        "from": "0x56fd3f2bee130e9867942d0f463a16fbe49b8d81",
        "to": "0x388f2c53e77ef33111383a363e0b5fd976b18e74",
        "gas": "0x156f8",
        "value": "0x0",
        "input": "0xa9b5aab374347ad8b811b2ca1cfbc092ee1f48203e0add8c0c4c4760d66868b46a42af810000000000000000000000009e174bc09cedadc7a5e39ba1142b6d95365182cb000000000000000000000000000000000000000000000000000000000000012c000000000000000000000000000000000000000000000000000000000001518000000000000000000000000000000000000000000000000000000000000186a0000000000000000000000000000000000000000000000000000000000007a12000000000000000000000000000000000000000000000000000000000002625a00000000000000000000000000000000000000000000000000000000000000007",
        "nonce": "0xe6",
        "chainId": "0x279f"
      },
      "additionalContracts": [],
      "isFixedGasLimit": false
    },
    {
      "hash": "0x87f9596d1537a6f15f9c41886729964d29deb670015b3ec7c97f24a57b95632b",
      "transactionType": "CALL",
      "contractName": null,
      "contractAddress": "0x388f2c53e77ef33111383a363e0b5fd976b18e74",
      "function": "configureTradingLimit(bytes32,address,(uint32,uint32,int48,int48,int48,uint8))",
      "arguments": [
        "0x74347ad8b811b2ca1cfbc092ee1f48203e0add8c0c4c4760d66868b46a42af81",
        "0xb5a31A69b58b3B3A61C8704B489F53d6b79016c4",
        "(300, 86400, 86000, 430000, 2150000, 7)"
      ],
      "transaction": {
        "from": "0x56fd3f2bee130e9867942d0f463a16fbe49b8d81",
        "to": "0x388f2c53e77ef33111383a363e0b5fd976b18e74",
        "gas": "0x156f8",
        "value": "0x0",
        "input": "0xa9b5aab374347ad8b811b2ca1cfbc092ee1f48203e0add8c0c4c4760d66868b46a42af81000000000000000000000000b5a31a69b58b3b3a61c8704b489f53d6b79016c4000000000000000000000000000000000000000000000000000000000000012c00000000000000000000000000000000000000000000000000000000000151800000000000000000000000000000000000000000000000000000000000014ff00000000000000000000000000000000000000000000000000000000000068fb0000000000000000000000000000000000000000000000000000000000020ce700000000000000000000000000000000000000000000000000000000000000007",
        "nonce": "0xe7",
        "chainId": "0x279f"
      },
      "additionalContracts": [],
      "isFixedGasLimit": false
    },
    {
      "hash": "0xcbc13eb1f52d97fa33eccb20992020d1b97b86bd7d6df2a963ec6bf350a8b261",
      "transactionType": "CALL",
      "contractName": null,
      "contractAddress": "0x98c6d2a3a39ff5a2803240f597eb4c8ce76d36ab",
      "function": "createExchange((address,address,address,uint256,uint256,uint256,((uint256),address,uint256,uint256,uint256)))",
      "arguments": [
        "(0x9E174bc09cEdaDc7a5e39Ba1142b6d95365182CB, 0x109902563DaA6D404F9d30981D03D7070B96E1C8, 0x49503Ffd8da325BfE52B8982A7f9c2E26643c276, 0, 0, 0, ((150000000000000000000000), 0x5c0C9EfB14A767ce50A687AC4658CcE705407380, 360, 1, 10000000000000000000000000))"
      ],
      "transaction": {
        "from": "0x56fd3f2bee130e9867942d0f463a16fbe49b8d81",
        "to": "0x98c6d2a3a39ff5a2803240f597eb4c8ce76d36ab",
        "gas": "0x83e7d",
        "value": "0x0",
        "input": "0xb08986910000000000000000000000009e174bc09cedadc7a5e39ba1142b6d95365182cb000000000000000000000000109902563daa6d404f9d30981d03d7070b96e1c800000000000000000000000049503ffd8da325bfe52b8982a7f9c2e26643c276000000000000000000000000000000000000000000000000000000000000000000000000000000000000000000000000000000000000000000000000000000000000000000000000000000000000000000000000000000000000000000000000000000000000000000000000000000000000000000001fc3842bd1f071c000000000000000000000000000005c0c9efb14a767ce50a687ac4658cce70540738000000000000000000000000000000000000000000000000000000000000001680000000000000000000000000000000000000000000000000000000000000001000000000000000000000000000000000000000000084595161401484a000000",
        "nonce": "0xe8",
        "chainId": "0x279f"
      },
      "additionalContracts": [],
      "isFixedGasLimit": false
    },
    {
      "hash": "0xddcfd8b8fe0d7d8b938402cdbcd6ad8d520310be60a8765e1c74663d41cb3a4c",
      "transactionType": "CALL",
      "contractName": null,
      "contractAddress": "0x388f2c53e77ef33111383a363e0b5fd976b18e74",
      "function": "configureTradingLimit(bytes32,address,(uint32,uint32,int48,int48,int48,uint8))",
      "arguments": [
        "0x7e31ac1ba139a9da37c7e0503e48eb7d3b9a74f348eddf98157d11cf13306a34",
        "0x9E174bc09cEdaDc7a5e39Ba1142b6d95365182CB",
        "(300, 86400, 100000, 500000, 2500000, 7)"
      ],
      "transaction": {
        "from": "0x56fd3f2bee130e9867942d0f463a16fbe49b8d81",
        "to": "0x388f2c53e77ef33111383a363e0b5fd976b18e74",
        "gas": "0x156f8",
        "value": "0x0",
        "input": "0xa9b5aab37e31ac1ba139a9da37c7e0503e48eb7d3b9a74f348eddf98157d11cf13306a340000000000000000000000009e174bc09cedadc7a5e39ba1142b6d95365182cb000000000000000000000000000000000000000000000000000000000000012c000000000000000000000000000000000000000000000000000000000001518000000000000000000000000000000000000000000000000000000000000186a0000000000000000000000000000000000000000000000000000000000007a12000000000000000000000000000000000000000000000000000000000002625a00000000000000000000000000000000000000000000000000000000000000007",
        "nonce": "0xe9",
        "chainId": "0x279f"
      },
      "additionalContracts": [],
      "isFixedGasLimit": false
    },
    {
      "hash": "0xe02c73eb55b8e6d8b4fb5ab2a43c309b90a221c327fcabd16b6e793bdb01964c",
      "transactionType": "CALL",
      "contractName": null,
      "contractAddress": "0x388f2c53e77ef33111383a363e0b5fd976b18e74",
      "function": "configureTradingLimit(bytes32,address,(uint32,uint32,int48,int48,int48,uint8))",
      "arguments": [
        "0x7e31ac1ba139a9da37c7e0503e48eb7d3b9a74f348eddf98157d11cf13306a34",
        "0x109902563DaA6D404F9d30981D03D7070B96E1C8",
        "(300, 86400, 154000, 770000, 3850000, 7)"
      ],
      "transaction": {
        "from": "0x56fd3f2bee130e9867942d0f463a16fbe49b8d81",
        "to": "0x388f2c53e77ef33111383a363e0b5fd976b18e74",
        "gas": "0x156f8",
        "value": "0x0",
        "input": "0xa9b5aab37e31ac1ba139a9da37c7e0503e48eb7d3b9a74f348eddf98157d11cf13306a34000000000000000000000000109902563daa6d404f9d30981d03d7070b96e1c8000000000000000000000000000000000000000000000000000000000000012c0000000000000000000000000000000000000000000000000000000000015180000000000000000000000000000000000000000000000000000000000002599000000000000000000000000000000000000000000000000000000000000bbfd000000000000000000000000000000000000000000000000000000000003abf100000000000000000000000000000000000000000000000000000000000000007",
        "nonce": "0xea",
        "chainId": "0x279f"
      },
      "additionalContracts": [],
      "isFixedGasLimit": false
    },
    {
      "hash": "0x05b25de0d980864321bb3c806888538b348fffe7b84386d0fa54138368a9d592",
      "transactionType": "CALL",
      "contractName": null,
      "contractAddress": "0x98c6d2a3a39ff5a2803240f597eb4c8ce76d36ab",
      "function": "createExchange((address,address,address,uint256,uint256,uint256,((uint256),address,uint256,uint256,uint256)))",
      "arguments": [
        "(0x9E174bc09cEdaDc7a5e39Ba1142b6d95365182CB, 0xFdb9576d43148e523F5351De41e43A307a7d2956, 0x49503Ffd8da325BfE52B8982A7f9c2E26643c276, 0, 0, 0, ((150000000000000000000000), 0x02996d13041557032FFB3e910966F9eA784DFec4, 360, 1, 10000000000000000000000000))"
      ],
      "transaction": {
        "from": "0x56fd3f2bee130e9867942d0f463a16fbe49b8d81",
        "to": "0x98c6d2a3a39ff5a2803240f597eb4c8ce76d36ab",
        "gas": "0x83e7d",
        "value": "0x0",
        "input": "0xb08986910000000000000000000000009e174bc09cedadc7a5e39ba1142b6d95365182cb000000000000000000000000fdb9576d43148e523f5351de41e43a307a7d295600000000000000000000000049503ffd8da325bfe52b8982a7f9c2e26643c276000000000000000000000000000000000000000000000000000000000000000000000000000000000000000000000000000000000000000000000000000000000000000000000000000000000000000000000000000000000000000000000000000000000000000000000000000000000000000000001fc3842bd1f071c0000000000000000000000000000002996d13041557032ffb3e910966f9ea784dfec400000000000000000000000000000000000000000000000000000000000001680000000000000000000000000000000000000000000000000000000000000001000000000000000000000000000000000000000000084595161401484a000000",
        "nonce": "0xeb",
        "chainId": "0x279f"
      },
      "additionalContracts": [],
      "isFixedGasLimit": false
    },
    {
      "hash": "0xc4d8d4d1824dffd7ffc6b9ec57e384668ec80a96fa6d6a9fff188feb2749a6d3",
      "transactionType": "CALL",
      "contractName": null,
      "contractAddress": "0x388f2c53e77ef33111383a363e0b5fd976b18e74",
      "function": "configureTradingLimit(bytes32,address,(uint32,uint32,int48,int48,int48,uint8))",
      "arguments": [
        "0x3a741bff3e73215535b95af758343e59e523a59773b5420528f5e1b3a12de496",
        "0x9E174bc09cEdaDc7a5e39Ba1142b6d95365182CB",
        "(300, 86400, 100000, 500000, 2500000, 7)"
      ],
      "transaction": {
        "from": "0x56fd3f2bee130e9867942d0f463a16fbe49b8d81",
        "to": "0x388f2c53e77ef33111383a363e0b5fd976b18e74",
        "gas": "0x156f8",
        "value": "0x0",
        "input": "0xa9b5aab33a741bff3e73215535b95af758343e59e523a59773b5420528f5e1b3a12de4960000000000000000000000009e174bc09cedadc7a5e39ba1142b6d95365182cb000000000000000000000000000000000000000000000000000000000000012c000000000000000000000000000000000000000000000000000000000001518000000000000000000000000000000000000000000000000000000000000186a0000000000000000000000000000000000000000000000000000000000007a12000000000000000000000000000000000000000000000000000000000002625a00000000000000000000000000000000000000000000000000000000000000007",
        "nonce": "0xec",
        "chainId": "0x279f"
      },
      "additionalContracts": [],
      "isFixedGasLimit": false
    },
    {
      "hash": "0x84f6f77e24a039957615ffa3489b0528147c8f90047b2eceac7e1d6ddd41e7f6",
      "transactionType": "CALL",
      "contractName": null,
      "contractAddress": "0x388f2c53e77ef33111383a363e0b5fd976b18e74",
      "function": "configureTradingLimit(bytes32,address,(uint32,uint32,int48,int48,int48,uint8))",
      "arguments": [
        "0x3a741bff3e73215535b95af758343e59e523a59773b5420528f5e1b3a12de496",
        "0xFdb9576d43148e523F5351De41e43A307a7d2956",
        "(300, 86400, 138000, 690000, 3450000, 7)"
      ],
      "transaction": {
        "from": "0x56fd3f2bee130e9867942d0f463a16fbe49b8d81",
        "to": "0x388f2c53e77ef33111383a363e0b5fd976b18e74",
        "gas": "0x156f8",
        "value": "0x0",
        "input": "0xa9b5aab33a741bff3e73215535b95af758343e59e523a59773b5420528f5e1b3a12de496000000000000000000000000fdb9576d43148e523f5351de41e43a307a7d2956000000000000000000000000000000000000000000000000000000000000012c00000000000000000000000000000000000000000000000000000000000151800000000000000000000000000000000000000000000000000000000000021b1000000000000000000000000000000000000000000000000000000000000a8750000000000000000000000000000000000000000000000000000000000034a4900000000000000000000000000000000000000000000000000000000000000007",
        "nonce": "0xed",
        "chainId": "0x279f"
      },
      "additionalContracts": [],
      "isFixedGasLimit": false
    },
    {
      "hash": "0xb66922e4202a8e9107fd3ac5df391b5be078eec4bd5d64995097aef90f20b327",
      "transactionType": "CALL",
      "contractName": null,
      "contractAddress": "0x98c6d2a3a39ff5a2803240f597eb4c8ce76d36ab",
      "function": "createExchange((address,address,address,uint256,uint256,uint256,((uint256),address,uint256,uint256,uint256)))",
      "arguments": [
        "(0x9E174bc09cEdaDc7a5e39Ba1142b6d95365182CB, 0xAf95A360EBaE29Ba1F9dC8B833b8a985DF168a83, 0x49503Ffd8da325BfE52B8982A7f9c2E26643c276, 0, 0, 0, ((300000000000000000000000), 0xEA4103A6A122fbe2cDb07A80d4d293be07bb29Fa, 360, 1, 10000000000000000000000000))"
      ],
      "transaction": {
        "from": "0x56fd3f2bee130e9867942d0f463a16fbe49b8d81",
        "to": "0x98c6d2a3a39ff5a2803240f597eb4c8ce76d36ab",
        "gas": "0x83e7d",
        "value": "0x0",
        "input": "0xb08986910000000000000000000000009e174bc09cedadc7a5e39ba1142b6d95365182cb000000000000000000000000af95a360ebae29ba1f9dc8b833b8a985df168a8300000000000000000000000049503ffd8da325bfe52b8982a7f9c2e26643c276000000000000000000000000000000000000000000000000000000000000000000000000000000000000000000000000000000000000000000000000000000000000000000000000000000000000000000000000000000000000000000000000000000000000000000000000000000000000000000003f870857a3e0e3800000000000000000000000000000ea4103a6a122fbe2cdb07a80d4d293be07bb29fa00000000000000000000000000000000000000000000000000000000000001680000000000000000000000000000000000000000000000000000000000000001000000000000000000000000000000000000000000084595161401484a000000",
        "nonce": "0xee",
        "chainId": "0x279f"
      },
      "additionalContracts": [],
      "isFixedGasLimit": false
    },
    {
      "hash": "0x74cdbe3180a70924e3dcb13492bcaf42c462b9ab310ce2a0eae14c182fc3093c",
      "transactionType": "CALL",
      "contractName": null,
      "contractAddress": "0x388f2c53e77ef33111383a363e0b5fd976b18e74",
      "function": "configureTradingLimit(bytes32,address,(uint32,uint32,int48,int48,int48,uint8))",
      "arguments": [
        "0x1e202f0a25ad85db6599f21e871274250e3f946c4b13ead6793c4d36d54b7680",
        "0x9E174bc09cEdaDc7a5e39Ba1142b6d95365182CB",
        "(300, 86400, 100000, 500000, 2500000, 7)"
      ],
      "transaction": {
        "from": "0x56fd3f2bee130e9867942d0f463a16fbe49b8d81",
        "to": "0x388f2c53e77ef33111383a363e0b5fd976b18e74",
        "gas": "0x156f8",
        "value": "0x0",
        "input": "0xa9b5aab31e202f0a25ad85db6599f21e871274250e3f946c4b13ead6793c4d36d54b76800000000000000000000000009e174bc09cedadc7a5e39ba1142b6d95365182cb000000000000000000000000000000000000000000000000000000000000012c000000000000000000000000000000000000000000000000000000000001518000000000000000000000000000000000000000000000000000000000000186a0000000000000000000000000000000000000000000000000000000000007a12000000000000000000000000000000000000000000000000000000000002625a00000000000000000000000000000000000000000000000000000000000000007",
        "nonce": "0xef",
        "chainId": "0x279f"
      },
      "additionalContracts": [],
      "isFixedGasLimit": false
    },
    {
      "hash": "0x6752f4fee507d2f5ea89756ea8b0ace960adb20711105ab8e3ecf2c1da083f69",
      "transactionType": "CALL",
      "contractName": null,
      "contractAddress": "0x388f2c53e77ef33111383a363e0b5fd976b18e74",
      "function": "configureTradingLimit(bytes32,address,(uint32,uint32,int48,int48,int48,uint8))",
      "arguments": [
        "0x1e202f0a25ad85db6599f21e871274250e3f946c4b13ead6793c4d36d54b7680",
        "0xAf95A360EBaE29Ba1F9dC8B833b8a985DF168a83",
        "(300, 86400, 75000, 375000, 1875000, 7)"
      ],
      "transaction": {
        "from": "0x56fd3f2bee130e9867942d0f463a16fbe49b8d81",
        "to": "0x388f2c53e77ef33111383a363e0b5fd976b18e74",
        "gas": "0x156f8",
        "value": "0x0",
        "input": "0xa9b5aab31e202f0a25ad85db6599f21e871274250e3f946c4b13ead6793c4d36d54b7680000000000000000000000000af95a360ebae29ba1f9dc8b833b8a985df168a83000000000000000000000000000000000000000000000000000000000000012c000000000000000000000000000000000000000000000000000000000001518000000000000000000000000000000000000000000000000000000000000124f8000000000000000000000000000000000000000000000000000000000005b8d800000000000000000000000000000000000000000000000000000000001c9c380000000000000000000000000000000000000000000000000000000000000007",
        "nonce": "0xf0",
        "chainId": "0x279f"
      },
      "additionalContracts": [],
      "isFixedGasLimit": false
    },
    {
      "hash": "0xa78fa75d0d329e7694ad927743ce87fcb00292bcdf84d1244efb5fc566afaa77",
      "transactionType": "CALL",
      "contractName": null,
      "contractAddress": "0x98c6d2a3a39ff5a2803240f597eb4c8ce76d36ab",
      "function": "createExchange((address,address,address,uint256,uint256,uint256,((uint256),address,uint256,uint256,uint256)))",
      "arguments": [
        "(0x9E174bc09cEdaDc7a5e39Ba1142b6d95365182CB, 0xcE1b285691b40F54762d69c40b24Ec4c95add3fc, 0x49503Ffd8da325BfE52B8982A7f9c2E26643c276, 0, 0, 0, ((300000000000000000000000), 0x6C4A6765BCFc7E7FC5b01EEfe931885A79DDe791, 360, 1, 10000000000000000000000000))"
      ],
      "transaction": {
        "from": "0x56fd3f2bee130e9867942d0f463a16fbe49b8d81",
        "to": "0x98c6d2a3a39ff5a2803240f597eb4c8ce76d36ab",
        "gas": "0x83e7d",
        "value": "0x0",
        "input": "0xb08986910000000000000000000000009e174bc09cedadc7a5e39ba1142b6d95365182cb000000000000000000000000ce1b285691b40f54762d69c40b24ec4c95add3fc00000000000000000000000049503ffd8da325bfe52b8982a7f9c2e26643c276000000000000000000000000000000000000000000000000000000000000000000000000000000000000000000000000000000000000000000000000000000000000000000000000000000000000000000000000000000000000000000000000000000000000000000000000000000000000000000003f870857a3e0e38000000000000000000000000000006c4a6765bcfc7e7fc5b01eefe931885a79dde79100000000000000000000000000000000000000000000000000000000000001680000000000000000000000000000000000000000000000000000000000000001000000000000000000000000000000000000000000084595161401484a000000",
        "nonce": "0xf1",
        "chainId": "0x279f"
      },
      "additionalContracts": [],
      "isFixedGasLimit": false
    },
    {
      "hash": "0x578a82157a39a60721a2acc44bd1c20566e6216a33ea2d1b7beaaa04663d209c",
      "transactionType": "CALL",
      "contractName": null,
      "contractAddress": "0x388f2c53e77ef33111383a363e0b5fd976b18e74",
      "function": "configureTradingLimit(bytes32,address,(uint32,uint32,int48,int48,int48,uint8))",
      "arguments": [
        "0xe8aecadc079c71e499fb1988f24806ea48e03b472829a165527bd80d856c3f7f",
        "0x9E174bc09cEdaDc7a5e39Ba1142b6d95365182CB",
        "(300, 86400, 100000, 500000, 2500000, 7)"
      ],
      "transaction": {
        "from": "0x56fd3f2bee130e9867942d0f463a16fbe49b8d81",
        "to": "0x388f2c53e77ef33111383a363e0b5fd976b18e74",
        "gas": "0x156f8",
        "value": "0x0",
        "input": "0xa9b5aab3e8aecadc079c71e499fb1988f24806ea48e03b472829a165527bd80d856c3f7f0000000000000000000000009e174bc09cedadc7a5e39ba1142b6d95365182cb000000000000000000000000000000000000000000000000000000000000012c000000000000000000000000000000000000000000000000000000000001518000000000000000000000000000000000000000000000000000000000000186a0000000000000000000000000000000000000000000000000000000000007a12000000000000000000000000000000000000000000000000000000000002625a00000000000000000000000000000000000000000000000000000000000000007",
        "nonce": "0xf2",
        "chainId": "0x279f"
      },
      "additionalContracts": [],
      "isFixedGasLimit": false
    },
    {
      "hash": "0x54dd68c3c6baabb82f89a5a1391bcd0fbfcb773de9590f25d13f9d47921d70b9",
      "transactionType": "CALL",
      "contractName": null,
      "contractAddress": "0x388f2c53e77ef33111383a363e0b5fd976b18e74",
      "function": "configureTradingLimit(bytes32,address,(uint32,uint32,int48,int48,int48,uint8))",
      "arguments": [
        "0xe8aecadc079c71e499fb1988f24806ea48e03b472829a165527bd80d856c3f7f",
        "0xcE1b285691b40F54762d69c40b24Ec4c95add3fc",
        "(300, 86400, 1772000, 8860000, 44300000, 7)"
      ],
      "transaction": {
        "from": "0x56fd3f2bee130e9867942d0f463a16fbe49b8d81",
        "to": "0x388f2c53e77ef33111383a363e0b5fd976b18e74",
        "gas": "0x16b37",
        "value": "0x0",
        "input": "0xa9b5aab3e8aecadc079c71e499fb1988f24806ea48e03b472829a165527bd80d856c3f7f000000000000000000000000ce1b285691b40f54762d69c40b24ec4c95add3fc000000000000000000000000000000000000000000000000000000000000012c000000000000000000000000000000000000000000000000000000000001518000000000000000000000000000000000000000000000000000000000001b09e000000000000000000000000000000000000000000000000000000000008731600000000000000000000000000000000000000000000000000000000002a3f6e00000000000000000000000000000000000000000000000000000000000000007",
        "nonce": "0xf3",
        "chainId": "0x279f"
      },
      "additionalContracts": [],
      "isFixedGasLimit": false
    },
    {
      "hash": "0x9313fd7da70171241be986c82aaa9ebc4e73d902ade8b0c537a09ae4fd4fa166",
      "transactionType": "CALL",
      "contractName": null,
      "contractAddress": "0x98c6d2a3a39ff5a2803240f597eb4c8ce76d36ab",
      "function": "createExchange((address,address,address,uint256,uint256,uint256,((uint256),address,uint256,uint256,uint256)))",
      "arguments": [
        "(0x9E174bc09cEdaDc7a5e39Ba1142b6d95365182CB, 0xaFd756571B850B833Ec0A1A66A69Db30AF95Ee94, 0x49503Ffd8da325BfE52B8982A7f9c2E26643c276, 0, 0, 0, ((300000000000000000000000), 0x2EE56bE22D6af8c1b0ac97149b6F42D3B0BFb8C2, 360, 1, 10000000000000000000000000))"
      ],
      "transaction": {
        "from": "0x56fd3f2bee130e9867942d0f463a16fbe49b8d81",
        "to": "0x98c6d2a3a39ff5a2803240f597eb4c8ce76d36ab",
        "gas": "0x83e7d",
        "value": "0x0",
        "input": "0xb08986910000000000000000000000009e174bc09cedadc7a5e39ba1142b6d95365182cb000000000000000000000000afd756571b850b833ec0a1a66a69db30af95ee9400000000000000000000000049503ffd8da325bfe52b8982a7f9c2e26643c276000000000000000000000000000000000000000000000000000000000000000000000000000000000000000000000000000000000000000000000000000000000000000000000000000000000000000000000000000000000000000000000000000000000000000000000000000000000000000000003f870857a3e0e38000000000000000000000000000002ee56be22d6af8c1b0ac97149b6f42d3b0bfb8c200000000000000000000000000000000000000000000000000000000000001680000000000000000000000000000000000000000000000000000000000000001000000000000000000000000000000000000000000084595161401484a000000",
        "nonce": "0xf4",
        "chainId": "0x279f"
      },
      "additionalContracts": [],
      "isFixedGasLimit": false
    },
    {
      "hash": "0x6dfb950f1a4951d6a584b31b3284ace3b224b857be29e43ed92fe79c9837c027",
      "transactionType": "CALL",
      "contractName": null,
      "contractAddress": "0x388f2c53e77ef33111383a363e0b5fd976b18e74",
      "function": "configureTradingLimit(bytes32,address,(uint32,uint32,int48,int48,int48,uint8))",
      "arguments": [
        "0xf57e4020771fd78df1d99034f5f503d8c4886e428030f6b187fe1745122a0b02",
        "0x9E174bc09cEdaDc7a5e39Ba1142b6d95365182CB",
        "(300, 86400, 100000, 500000, 2500000, 7)"
      ],
      "transaction": {
        "from": "0x56fd3f2bee130e9867942d0f463a16fbe49b8d81",
        "to": "0x388f2c53e77ef33111383a363e0b5fd976b18e74",
        "gas": "0x156f8",
        "value": "0x0",
        "input": "0xa9b5aab3f57e4020771fd78df1d99034f5f503d8c4886e428030f6b187fe1745122a0b020000000000000000000000009e174bc09cedadc7a5e39ba1142b6d95365182cb000000000000000000000000000000000000000000000000000000000000012c000000000000000000000000000000000000000000000000000000000001518000000000000000000000000000000000000000000000000000000000000186a0000000000000000000000000000000000000000000000000000000000007a12000000000000000000000000000000000000000000000000000000000002625a00000000000000000000000000000000000000000000000000000000000000007",
        "nonce": "0xf5",
        "chainId": "0x279f"
      },
      "additionalContracts": [],
      "isFixedGasLimit": false
    },
    {
      "hash": "0x85a353a93701a776a4735b652dae2a3c48f9440e4f61be952f28bc3a1560fb94",
      "transactionType": "CALL",
      "contractName": null,
      "contractAddress": "0x388f2c53e77ef33111383a363e0b5fd976b18e74",
      "function": "configureTradingLimit(bytes32,address,(uint32,uint32,int48,int48,int48,uint8))",
      "arguments": [
        "0xf57e4020771fd78df1d99034f5f503d8c4886e428030f6b187fe1745122a0b02",
        "0xaFd756571B850B833Ec0A1A66A69Db30AF95Ee94",
        "(300, 86400, 80000, 400000, 2000000, 7)"
      ],
      "transaction": {
        "from": "0x56fd3f2bee130e9867942d0f463a16fbe49b8d81",
        "to": "0x388f2c53e77ef33111383a363e0b5fd976b18e74",
        "gas": "0x156f8",
        "value": "0x0",
        "input": "0xa9b5aab3f57e4020771fd78df1d99034f5f503d8c4886e428030f6b187fe1745122a0b02000000000000000000000000afd756571b850b833ec0a1a66a69db30af95ee94000000000000000000000000000000000000000000000000000000000000012c000000000000000000000000000000000000000000000000000000000001518000000000000000000000000000000000000000000000000000000000000138800000000000000000000000000000000000000000000000000000000000061a8000000000000000000000000000000000000000000000000000000000001e84800000000000000000000000000000000000000000000000000000000000000007",
        "nonce": "0xf6",
        "chainId": "0x279f"
      },
      "additionalContracts": [],
      "isFixedGasLimit": false
    },
    {
      "hash": "0xc0da1778e2fd9ca388c1b04816078e82f673564676c94dfd3942aa4082b24e46",
      "transactionType": "CALL",
      "contractName": null,
      "contractAddress": "0x98c6d2a3a39ff5a2803240f597eb4c8ce76d36ab",
      "function": "createExchange((address,address,address,uint256,uint256,uint256,((uint256),address,uint256,uint256,uint256)))",
      "arguments": [
        "(0x9E174bc09cEdaDc7a5e39Ba1142b6d95365182CB, 0xDdcaf78d5bB0AfE82EC022B7e58758EcC1C6f641, 0x49503Ffd8da325BfE52B8982A7f9c2E26643c276, 0, 0, 0, ((300000000000000000000000), 0xb9aDdcD1d1CE7d49DBB540E2677F1C572Bc8D195, 360, 1, 10000000000000000000000000))"
      ],
      "transaction": {
        "from": "0x56fd3f2bee130e9867942d0f463a16fbe49b8d81",
        "to": "0x98c6d2a3a39ff5a2803240f597eb4c8ce76d36ab",
        "gas": "0x83e7d",
        "value": "0x0",
        "input": "0xb08986910000000000000000000000009e174bc09cedadc7a5e39ba1142b6d95365182cb000000000000000000000000ddcaf78d5bb0afe82ec022b7e58758ecc1c6f64100000000000000000000000049503ffd8da325bfe52b8982a7f9c2e26643c276000000000000000000000000000000000000000000000000000000000000000000000000000000000000000000000000000000000000000000000000000000000000000000000000000000000000000000000000000000000000000000000000000000000000000000000000000000000000000000003f870857a3e0e3800000000000000000000000000000b9addcd1d1ce7d49dbb540e2677f1c572bc8d19500000000000000000000000000000000000000000000000000000000000001680000000000000000000000000000000000000000000000000000000000000001000000000000000000000000000000000000000000084595161401484a000000",
        "nonce": "0xf7",
        "chainId": "0x279f"
      },
      "additionalContracts": [],
      "isFixedGasLimit": false
    },
    {
      "hash": "0xa1a4df47ad858a9fe6a0c4ca5fc6616101e250924c3e7e6625798165357bbd3e",
      "transactionType": "CALL",
      "contractName": null,
      "contractAddress": "0x388f2c53e77ef33111383a363e0b5fd976b18e74",
      "function": "configureTradingLimit(bytes32,address,(uint32,uint32,int48,int48,int48,uint8))",
      "arguments": [
        "0xe18089b08b31c64439612de898b855e9564a163c23b9f2af8047d8b137eb148a",
        "0x9E174bc09cEdaDc7a5e39Ba1142b6d95365182CB",
        "(300, 86400, 100000, 500000, 2500000, 7)"
      ],
      "transaction": {
        "from": "0x56fd3f2bee130e9867942d0f463a16fbe49b8d81",
        "to": "0x388f2c53e77ef33111383a363e0b5fd976b18e74",
        "gas": "0x156f8",
        "value": "0x0",
        "input": "0xa9b5aab3e18089b08b31c64439612de898b855e9564a163c23b9f2af8047d8b137eb148a0000000000000000000000009e174bc09cedadc7a5e39ba1142b6d95365182cb000000000000000000000000000000000000000000000000000000000000012c000000000000000000000000000000000000000000000000000000000001518000000000000000000000000000000000000000000000000000000000000186a0000000000000000000000000000000000000000000000000000000000007a12000000000000000000000000000000000000000000000000000000000002625a00000000000000000000000000000000000000000000000000000000000000007",
        "nonce": "0xf8",
        "chainId": "0x279f"
      },
      "additionalContracts": [],
      "isFixedGasLimit": false
    },
    {
      "hash": "0xe2d9489b87d153178d3736d99a556a3e56846270384f73e3c1c8dd6275654eb4",
      "transactionType": "CALL",
      "contractName": null,
      "contractAddress": "0x388f2c53e77ef33111383a363e0b5fd976b18e74",
      "function": "configureTradingLimit(bytes32,address,(uint32,uint32,int48,int48,int48,uint8))",
      "arguments": [
        "0xe18089b08b31c64439612de898b855e9564a163c23b9f2af8047d8b137eb148a",
        "0xDdcaf78d5bB0AfE82EC022B7e58758EcC1C6f641",
        "(300, 86400, 14900000, 74500000, 372500000, 7)"
      ],
      "transaction": {
        "from": "0x56fd3f2bee130e9867942d0f463a16fbe49b8d81",
        "to": "0x388f2c53e77ef33111383a363e0b5fd976b18e74",
        "gas": "0x1571a",
        "value": "0x0",
        "input": "0xa9b5aab3e18089b08b31c64439612de898b855e9564a163c23b9f2af8047d8b137eb148a000000000000000000000000ddcaf78d5bb0afe82ec022b7e58758ecc1c6f641000000000000000000000000000000000000000000000000000000000000012c00000000000000000000000000000000000000000000000000000000000151800000000000000000000000000000000000000000000000000000000000e35b20000000000000000000000000000000000000000000000000000000000470c7a0000000000000000000000000000000000000000000000000000000001633e6200000000000000000000000000000000000000000000000000000000000000007",
        "nonce": "0xf9",
        "chainId": "0x279f"
      },
      "additionalContracts": [],
      "isFixedGasLimit": false
    },
    {
      "hash": "0xceb04c83213f8100cd1e63a55d7266fdcf5df4dc993c360ecda515d15b22a37a",
      "transactionType": "CALL",
      "contractName": null,
      "contractAddress": "0x98c6d2a3a39ff5a2803240f597eb4c8ce76d36ab",
      "function": "createExchange((address,address,address,uint256,uint256,uint256,((uint256),address,uint256,uint256,uint256)))",
      "arguments": [
        "(0x9E174bc09cEdaDc7a5e39Ba1142b6d95365182CB, 0xfBD6322586AE7c8F0776918E70b8Eb169737ba57, 0x49503Ffd8da325BfE52B8982A7f9c2E26643c276, 0, 0, 0, ((300000000000000000000000), 0xF7b436583E011794293A04FAA440816F3354501F, 360, 1, 10000000000000000000000000))"
      ],
      "transaction": {
        "from": "0x56fd3f2bee130e9867942d0f463a16fbe49b8d81",
        "to": "0x98c6d2a3a39ff5a2803240f597eb4c8ce76d36ab",
        "gas": "0x83e7d",
        "value": "0x0",
        "input": "0xb08986910000000000000000000000009e174bc09cedadc7a5e39ba1142b6d95365182cb000000000000000000000000fbd6322586ae7c8f0776918e70b8eb169737ba5700000000000000000000000049503ffd8da325bfe52b8982a7f9c2e26643c276000000000000000000000000000000000000000000000000000000000000000000000000000000000000000000000000000000000000000000000000000000000000000000000000000000000000000000000000000000000000000000000000000000000000000000000000000000000000000000003f870857a3e0e3800000000000000000000000000000f7b436583e011794293a04faa440816f3354501f00000000000000000000000000000000000000000000000000000000000001680000000000000000000000000000000000000000000000000000000000000001000000000000000000000000000000000000000000084595161401484a000000",
        "nonce": "0xfa",
        "chainId": "0x279f"
      },
      "additionalContracts": [],
      "isFixedGasLimit": false
    },
    {
      "hash": "0xd9d0cad359b7748423b9d981bc105f96b09bf3a3ab988ddb42af2b973bfdc902",
      "transactionType": "CALL",
      "contractName": null,
      "contractAddress": "0x388f2c53e77ef33111383a363e0b5fd976b18e74",
      "function": "configureTradingLimit(bytes32,address,(uint32,uint32,int48,int48,int48,uint8))",
      "arguments": [
        "0x34737a6b35a25ba8679874e532109434ce6dd0ac8c567a2095b9d0feff06d7b2",
        "0x9E174bc09cEdaDc7a5e39Ba1142b6d95365182CB",
        "(300, 86400, 50000, 250000, 1250000, 7)"
      ],
      "transaction": {
        "from": "0x56fd3f2bee130e9867942d0f463a16fbe49b8d81",
        "to": "0x388f2c53e77ef33111383a363e0b5fd976b18e74",
        "gas": "0x16b14",
        "value": "0x0",
        "input": "0xa9b5aab334737a6b35a25ba8679874e532109434ce6dd0ac8c567a2095b9d0feff06d7b20000000000000000000000009e174bc09cedadc7a5e39ba1142b6d95365182cb000000000000000000000000000000000000000000000000000000000000012c0000000000000000000000000000000000000000000000000000000000015180000000000000000000000000000000000000000000000000000000000000c350000000000000000000000000000000000000000000000000000000000003d09000000000000000000000000000000000000000000000000000000000001312d00000000000000000000000000000000000000000000000000000000000000007",
        "nonce": "0xfb",
        "chainId": "0x279f"
      },
      "additionalContracts": [],
      "isFixedGasLimit": false
    },
    {
      "hash": "0xb963b033c7d31c5c42ecad160eccbe3573dc4bebedc1a04d05613cc1ae3135ac",
      "transactionType": "CALL",
      "contractName": null,
      "contractAddress": "0x388f2c53e77ef33111383a363e0b5fd976b18e74",
      "function": "configureTradingLimit(bytes32,address,(uint32,uint32,int48,int48,int48,uint8))",
      "arguments": [
        "0x34737a6b35a25ba8679874e532109434ce6dd0ac8c567a2095b9d0feff06d7b2",
        "0xfBD6322586AE7c8F0776918E70b8Eb169737ba57",
        "(300, 86400, 200750000, 1003750000, 5018750000, 7)"
      ],
      "transaction": {
        "from": "0x56fd3f2bee130e9867942d0f463a16fbe49b8d81",
        "to": "0x388f2c53e77ef33111383a363e0b5fd976b18e74",
        "gas": "0x1573b",
        "value": "0x0",
        "input": "0xa9b5aab334737a6b35a25ba8679874e532109434ce6dd0ac8c567a2095b9d0feff06d7b2000000000000000000000000fbd6322586ae7c8f0776918e70b8eb169737ba57000000000000000000000000000000000000000000000000000000000000012c0000000000000000000000000000000000000000000000000000000000015180000000000000000000000000000000000000000000000000000000000bf733b0000000000000000000000000000000000000000000000000000000003bd40270000000000000000000000000000000000000000000000000000000012b240c300000000000000000000000000000000000000000000000000000000000000007",
        "nonce": "0xfc",
        "chainId": "0x279f"
      },
      "additionalContracts": [],
      "isFixedGasLimit": false
    },
    {
      "hash": "0x2e135a8a30ca36dac23b9799f654d49dd80c7a9361d05314bc9d3e74fc384372",
      "transactionType": "CALL",
      "contractName": null,
      "contractAddress": "0x98c6d2a3a39ff5a2803240f597eb4c8ce76d36ab",
      "function": "createExchange((address,address,address,uint256,uint256,uint256,((uint256),address,uint256,uint256,uint256)))",
      "arguments": [
        "(0x9E174bc09cEdaDc7a5e39Ba1142b6d95365182CB, 0xCE0da71375DBB11bD275307e735768AcF78D2843, 0x49503Ffd8da325BfE52B8982A7f9c2E26643c276, 0, 0, 0, ((300000000000000000000000), 0x669bCF7BDB701E3b15799D2732C0518Cf3B65507, 360, 1, 10000000000000000000000000))"
      ],
      "transaction": {
        "from": "0x56fd3f2bee130e9867942d0f463a16fbe49b8d81",
        "to": "0x98c6d2a3a39ff5a2803240f597eb4c8ce76d36ab",
        "gas": "0x83e7d",
        "value": "0x0",
        "input": "0xb08986910000000000000000000000009e174bc09cedadc7a5e39ba1142b6d95365182cb000000000000000000000000ce0da71375dbb11bd275307e735768acf78d284300000000000000000000000049503ffd8da325bfe52b8982a7f9c2e26643c276000000000000000000000000000000000000000000000000000000000000000000000000000000000000000000000000000000000000000000000000000000000000000000000000000000000000000000000000000000000000000000000000000000000000000000000000000000000000000000003f870857a3e0e3800000000000000000000000000000669bcf7bdb701e3b15799d2732c0518cf3b6550700000000000000000000000000000000000000000000000000000000000001680000000000000000000000000000000000000000000000000000000000000001000000000000000000000000000000000000000000084595161401484a000000",
        "nonce": "0xfd",
        "chainId": "0x279f"
      },
      "additionalContracts": [],
      "isFixedGasLimit": false
    },
    {
      "hash": "0x6168bdb0d73d4d67eaded6db3eaabc51616023611e4dfef712a6976b58e95d73",
      "transactionType": "CALL",
      "contractName": null,
      "contractAddress": "0x388f2c53e77ef33111383a363e0b5fd976b18e74",
      "function": "configureTradingLimit(bytes32,address,(uint32,uint32,int48,int48,int48,uint8))",
      "arguments": [
        "0xdb873c9488872f50c4047ab9ce46e8f75a341d9684b88d9c3a9a6b26027aca20",
        "0x9E174bc09cEdaDc7a5e39Ba1142b6d95365182CB",
        "(300, 86400, 100000, 500000, 2500000, 7)"
      ],
      "transaction": {
        "from": "0x56fd3f2bee130e9867942d0f463a16fbe49b8d81",
        "to": "0x388f2c53e77ef33111383a363e0b5fd976b18e74",
        "gas": "0x156f8",
        "value": "0x0",
        "input": "0xa9b5aab3db873c9488872f50c4047ab9ce46e8f75a341d9684b88d9c3a9a6b26027aca200000000000000000000000009e174bc09cedadc7a5e39ba1142b6d95365182cb000000000000000000000000000000000000000000000000000000000000012c000000000000000000000000000000000000000000000000000000000001518000000000000000000000000000000000000000000000000000000000000186a0000000000000000000000000000000000000000000000000000000000007a12000000000000000000000000000000000000000000000000000000000002625a00000000000000000000000000000000000000000000000000000000000000007",
        "nonce": "0xfe",
        "chainId": "0x279f"
      },
      "additionalContracts": [],
      "isFixedGasLimit": false
    },
    {
      "hash": "0xe76798bb721b891dd4f201588511cdaa62b4024f1c335c787cfbabe4d3996327",
      "transactionType": "CALL",
      "contractName": null,
      "contractAddress": "0x388f2c53e77ef33111383a363e0b5fd976b18e74",
      "function": "configureTradingLimit(bytes32,address,(uint32,uint32,int48,int48,int48,uint8))",
      "arguments": [
        "0xdb873c9488872f50c4047ab9ce46e8f75a341d9684b88d9c3a9a6b26027aca20",
        "0xCE0da71375DBB11bD275307e735768AcF78D2843",
        "(300, 86400, 545000, 2725000, 13625000, 7)"
      ],
      "transaction": {
        "from": "0x56fd3f2bee130e9867942d0f463a16fbe49b8d81",
        "to": "0x388f2c53e77ef33111383a363e0b5fd976b18e74",
        "gas": "0x156f8",
        "value": "0x0",
        "input": "0xa9b5aab3db873c9488872f50c4047ab9ce46e8f75a341d9684b88d9c3a9a6b26027aca20000000000000000000000000ce0da71375dbb11bd275307e735768acf78d2843000000000000000000000000000000000000000000000000000000000000012c000000000000000000000000000000000000000000000000000000000001518000000000000000000000000000000000000000000000000000000000000850e800000000000000000000000000000000000000000000000000000000002994880000000000000000000000000000000000000000000000000000000000cfe6a80000000000000000000000000000000000000000000000000000000000000007",
        "nonce": "0xff",
        "chainId": "0x279f"
      },
      "additionalContracts": [],
      "isFixedGasLimit": false
    },
    {
      "hash": "0xf5add2aac533daacd9037bbc079df051c40f2ed0d76ce597473ae8640b1651f5",
      "transactionType": "CALL",
      "contractName": null,
      "contractAddress": "0x98c6d2a3a39ff5a2803240f597eb4c8ce76d36ab",
      "function": "createExchange((address,address,address,uint256,uint256,uint256,((uint256),address,uint256,uint256,uint256)))",
      "arguments": [
        "(0x9E174bc09cEdaDc7a5e39Ba1142b6d95365182CB, 0xE3bdea6Cd6ed7aAFd5aCb1E43D8777714ba31acA, 0x49503Ffd8da325BfE52B8982A7f9c2E26643c276, 0, 0, 0, ((1000000000000000000000000), 0x812a10B8744A9aD8637e819899d8c33454fE8D20, 360, 1, 10000000000000000000000000))"
      ],
      "transaction": {
        "from": "0x56fd3f2bee130e9867942d0f463a16fbe49b8d81",
        "to": "0x98c6d2a3a39ff5a2803240f597eb4c8ce76d36ab",
        "gas": "0x8ba91",
        "value": "0x0",
        "input": "0xb08986910000000000000000000000009e174bc09cedadc7a5e39ba1142b6d95365182cb000000000000000000000000e3bdea6cd6ed7aafd5acb1e43d8777714ba31aca00000000000000000000000049503ffd8da325bfe52b8982a7f9c2e26643c27600000000000000000000000000000000000000000000000000000000000000000000000000000000000000000000000000000000000000000000000000000000000000000000000000000000000000000000000000000000000000000000000000000000000000000000000000000000000000000000d3c21bcecceda1000000000000000000000000000000812a10b8744a9ad8637e819899d8c33454fe8d2000000000000000000000000000000000000000000000000000000000000001680000000000000000000000000000000000000000000000000000000000000001000000000000000000000000000000000000000000084595161401484a000000",
        "nonce": "0x100",
        "chainId": "0x279f"
      },
      "additionalContracts": [],
      "isFixedGasLimit": false
    },
    {
      "hash": "0x70731f1289f64443d08bafb49ea86ef156b8179dd5fec2095b7340e99434e29e",
      "transactionType": "CALL",
      "contractName": null,
      "contractAddress": "0x388f2c53e77ef33111383a363e0b5fd976b18e74",
      "function": "configureTradingLimit(bytes32,address,(uint32,uint32,int48,int48,int48,uint8))",
      "arguments": [
        "0x5117b12cd22b5f67b1898f500c9622236edbd651a4d1f16e1a64eb1c39da6280",
        "0x9E174bc09cEdaDc7a5e39Ba1142b6d95365182CB",
        "(300, 86400, 50000, 250000, 1250000, 7)"
      ],
      "transaction": {
        "from": "0x56fd3f2bee130e9867942d0f463a16fbe49b8d81",
        "to": "0x388f2c53e77ef33111383a363e0b5fd976b18e74",
        "gas": "0x16b14",
        "value": "0x0",
        "input": "0xa9b5aab35117b12cd22b5f67b1898f500c9622236edbd651a4d1f16e1a64eb1c39da62800000000000000000000000009e174bc09cedadc7a5e39ba1142b6d95365182cb000000000000000000000000000000000000000000000000000000000000012c0000000000000000000000000000000000000000000000000000000000015180000000000000000000000000000000000000000000000000000000000000c350000000000000000000000000000000000000000000000000000000000003d09000000000000000000000000000000000000000000000000000000000001312d00000000000000000000000000000000000000000000000000000000000000007",
        "nonce": "0x101",
        "chainId": "0x279f"
      },
      "additionalContracts": [],
      "isFixedGasLimit": false
    },
    {
      "hash": "0xcd831ad0b88331909c9161bf15a4a3fb1c4d744e44d419bc6042a71d1ceb2081",
      "transactionType": "CALL",
      "contractName": null,
      "contractAddress": "0x388f2c53e77ef33111383a363e0b5fd976b18e74",
      "function": "configureTradingLimit(bytes32,address,(uint32,uint32,int48,int48,int48,uint8))",
      "arguments": [
        "0x5117b12cd22b5f67b1898f500c9622236edbd651a4d1f16e1a64eb1c39da6280",
        "0xE3bdea6Cd6ed7aAFd5aCb1E43D8777714ba31acA",
        "(300, 86400, 596000, 2980000, 14900000, 7)"
      ],
      "transaction": {
        "from": "0x56fd3f2bee130e9867942d0f463a16fbe49b8d81",
        "to": "0x388f2c53e77ef33111383a363e0b5fd976b18e74",
        "gas": "0x156f8",
        "value": "0x0",
        "input": "0xa9b5aab35117b12cd22b5f67b1898f500c9622236edbd651a4d1f16e1a64eb1c39da6280000000000000000000000000e3bdea6cd6ed7aafd5acb1e43d8777714ba31aca000000000000000000000000000000000000000000000000000000000000012c0000000000000000000000000000000000000000000000000000000000015180000000000000000000000000000000000000000000000000000000000009182000000000000000000000000000000000000000000000000000000000002d78a00000000000000000000000000000000000000000000000000000000000e35b200000000000000000000000000000000000000000000000000000000000000007",
        "nonce": "0x102",
        "chainId": "0x279f"
      },
      "additionalContracts": [],
      "isFixedGasLimit": false
    },
    {
      "hash": "0x98eff242eca4f4bf5c0047c2c374b3e92f98d95b10118c61afc332d71924a1c1",
      "transactionType": "CALL",
      "contractName": null,
      "contractAddress": "0x98c6d2a3a39ff5a2803240f597eb4c8ce76d36ab",
      "function": "createExchange((address,address,address,uint256,uint256,uint256,((uint256),address,uint256,uint256,uint256)))",
      "arguments": [
        "(0x9E174bc09cEdaDc7a5e39Ba1142b6d95365182CB, 0x823756e447E4db92fd3a52bc5E210c4701E6CebA, 0x49503Ffd8da325BfE52B8982A7f9c2E26643c276, 0, 0, 0, ((1000000000000000000000000), 0xD772efe6507B7D8cdC8C4d8870931439FBEeB929, 360, 1, 10000000000000000000000000))"
      ],
      "transaction": {
        "from": "0x56fd3f2bee130e9867942d0f463a16fbe49b8d81",
        "to": "0x98c6d2a3a39ff5a2803240f597eb4c8ce76d36ab",
        "gas": "0x8ba91",
        "value": "0x0",
        "input": "0xb08986910000000000000000000000009e174bc09cedadc7a5e39ba1142b6d95365182cb000000000000000000000000823756e447e4db92fd3a52bc5e210c4701e6ceba00000000000000000000000049503ffd8da325bfe52b8982a7f9c2e26643c27600000000000000000000000000000000000000000000000000000000000000000000000000000000000000000000000000000000000000000000000000000000000000000000000000000000000000000000000000000000000000000000000000000000000000000000000000000000000000000000d3c21bcecceda1000000000000000000000000000000d772efe6507b7d8cdc8c4d8870931439fbeeb92900000000000000000000000000000000000000000000000000000000000001680000000000000000000000000000000000000000000000000000000000000001000000000000000000000000000000000000000000084595161401484a000000",
        "nonce": "0x103",
        "chainId": "0x279f"
      },
      "additionalContracts": [],
      "isFixedGasLimit": false
    },
    {
      "hash": "0xd6bd6ae9a6f581b6cf9e62dadb3ee9df833565638d173db6c44a1a6d21e31944",
      "transactionType": "CALL",
      "contractName": null,
      "contractAddress": "0x388f2c53e77ef33111383a363e0b5fd976b18e74",
      "function": "configureTradingLimit(bytes32,address,(uint32,uint32,int48,int48,int48,uint8))",
      "arguments": [
        "0x28b69af87fd76c2764c7e022f37b6ee3ad6e448ef4d51747e08cd60260d61fa3",
        "0x9E174bc09cEdaDc7a5e39Ba1142b6d95365182CB",
        "(300, 86400, 50000, 250000, 1250000, 7)"
      ],
      "transaction": {
        "from": "0x56fd3f2bee130e9867942d0f463a16fbe49b8d81",
        "to": "0x388f2c53e77ef33111383a363e0b5fd976b18e74",
        "gas": "0x16b14",
        "value": "0x0",
        "input": "0xa9b5aab328b69af87fd76c2764c7e022f37b6ee3ad6e448ef4d51747e08cd60260d61fa30000000000000000000000009e174bc09cedadc7a5e39ba1142b6d95365182cb000000000000000000000000000000000000000000000000000000000000012c0000000000000000000000000000000000000000000000000000000000015180000000000000000000000000000000000000000000000000000000000000c350000000000000000000000000000000000000000000000000000000000003d09000000000000000000000000000000000000000000000000000000000001312d00000000000000000000000000000000000000000000000000000000000000007",
        "nonce": "0x104",
        "chainId": "0x279f"
      },
      "additionalContracts": [],
      "isFixedGasLimit": false
    },
    {
      "hash": "0x7a9f8aa7604eb9831b1ef0e39a4b559519124c949731670ae54d8114f5ae6407",
      "transactionType": "CALL",
      "contractName": null,
      "contractAddress": "0x388f2c53e77ef33111383a363e0b5fd976b18e74",
      "function": "configureTradingLimit(bytes32,address,(uint32,uint32,int48,int48,int48,uint8))",
      "arguments": [
        "0x28b69af87fd76c2764c7e022f37b6ee3ad6e448ef4d51747e08cd60260d61fa3",
        "0x823756e447E4db92fd3a52bc5E210c4701E6CebA",
        "(300, 86400, 76599000, 382995000, 1914975000, 7)"
      ],
      "transaction": {
        "from": "0x56fd3f2bee130e9867942d0f463a16fbe49b8d81",
        "to": "0x388f2c53e77ef33111383a363e0b5fd976b18e74",
        "gas": "0x16b5a",
        "value": "0x0",
        "input": "0xa9b5aab328b69af87fd76c2764c7e022f37b6ee3ad6e448ef4d51747e08cd60260d61fa3000000000000000000000000823756e447e4db92fd3a52bc5e210c4701e6ceba000000000000000000000000000000000000000000000000000000000000012c0000000000000000000000000000000000000000000000000000000000015180000000000000000000000000000000000000000000000000000000000490ced80000000000000000000000000000000000000000000000000000000016d40a3800000000000000000000000000000000000000000000000000000000722433180000000000000000000000000000000000000000000000000000000000000007",
        "nonce": "0x105",
        "chainId": "0x279f"
      },
      "additionalContracts": [],
      "isFixedGasLimit": false
    },
    {
      "hash": "0x6f427cab5d79edf3b25a2c39de600baa3ba3b1db10ec9edb18b4204772d3647b",
      "transactionType": "CALL",
      "contractName": null,
      "contractAddress": "0x98c6d2a3a39ff5a2803240f597eb4c8ce76d36ab",
      "function": "createExchange((address,address,address,uint256,uint256,uint256,((uint256),address,uint256,uint256,uint256)))",
      "arguments": [
        "(0x9E174bc09cEdaDc7a5e39Ba1142b6d95365182CB, 0x66BFF13AfF22c31dF7cd53707e645C9736A6637a, 0x49503Ffd8da325BfE52B8982A7f9c2E26643c276, 0, 0, 0, ((1000000000000000000000000), 0xEF40371a602409F86f9aC4e37580C59dEE61199f, 360, 1, 10000000000000000000000000))"
      ],
      "transaction": {
        "from": "0x56fd3f2bee130e9867942d0f463a16fbe49b8d81",
        "to": "0x98c6d2a3a39ff5a2803240f597eb4c8ce76d36ab",
        "gas": "0x8ba91",
        "value": "0x0",
        "input": "0xb08986910000000000000000000000009e174bc09cedadc7a5e39ba1142b6d95365182cb00000000000000000000000066bff13aff22c31df7cd53707e645c9736a6637a00000000000000000000000049503ffd8da325bfe52b8982a7f9c2e26643c27600000000000000000000000000000000000000000000000000000000000000000000000000000000000000000000000000000000000000000000000000000000000000000000000000000000000000000000000000000000000000000000000000000000000000000000000000000000000000000000d3c21bcecceda1000000000000000000000000000000ef40371a602409f86f9ac4e37580c59dee61199f00000000000000000000000000000000000000000000000000000000000001680000000000000000000000000000000000000000000000000000000000000001000000000000000000000000000000000000000000084595161401484a000000",
        "nonce": "0x106",
        "chainId": "0x279f"
      },
      "additionalContracts": [],
      "isFixedGasLimit": false
    },
    {
      "hash": "0xa26677aa5dc7c2001ddee153d117fd74d97fd28ebb42f25ce44264b68c837aa9",
      "transactionType": "CALL",
      "contractName": null,
      "contractAddress": "0x388f2c53e77ef33111383a363e0b5fd976b18e74",
      "function": "configureTradingLimit(bytes32,address,(uint32,uint32,int48,int48,int48,uint8))",
      "arguments": [
        "0x99903a787878c236d4fe73d0ea0c98064b57bc87f4bdc428a62e4592d30c19e0",
        "0x9E174bc09cEdaDc7a5e39Ba1142b6d95365182CB",
        "(300, 86400, 100000, 500000, 2500000, 7)"
      ],
      "transaction": {
        "from": "0x56fd3f2bee130e9867942d0f463a16fbe49b8d81",
        "to": "0x388f2c53e77ef33111383a363e0b5fd976b18e74",
        "gas": "0x156f8",
        "value": "0x0",
        "input": "0xa9b5aab399903a787878c236d4fe73d0ea0c98064b57bc87f4bdc428a62e4592d30c19e00000000000000000000000009e174bc09cedadc7a5e39ba1142b6d95365182cb000000000000000000000000000000000000000000000000000000000000012c000000000000000000000000000000000000000000000000000000000001518000000000000000000000000000000000000000000000000000000000000186a0000000000000000000000000000000000000000000000000000000000007a12000000000000000000000000000000000000000000000000000000000002625a00000000000000000000000000000000000000000000000000000000000000007",
        "nonce": "0x107",
        "chainId": "0x279f"
      },
      "additionalContracts": [],
      "isFixedGasLimit": false
    },
    {
      "hash": "0x7dbb900c172166e08608468f7d11181e1732fad0fadcb00d40c898da87ce7766",
      "transactionType": "CALL",
      "contractName": null,
      "contractAddress": "0x388f2c53e77ef33111383a363e0b5fd976b18e74",
      "function": "configureTradingLimit(bytes32,address,(uint32,uint32,int48,int48,int48,uint8))",
      "arguments": [
        "0x99903a787878c236d4fe73d0ea0c98064b57bc87f4bdc428a62e4592d30c19e0",
        "0x66BFF13AfF22c31dF7cd53707e645C9736A6637a",
        "(300, 86400, 12921000, 64605000, 323025000, 7)"
      ],
      "transaction": {
        "from": "0x56fd3f2bee130e9867942d0f463a16fbe49b8d81",
        "to": "0x388f2c53e77ef33111383a363e0b5fd976b18e74",
        "gas": "0x1571a",
        "value": "0x0",
        "input": "0xa9b5aab399903a787878c236d4fe73d0ea0c98064b57bc87f4bdc428a62e4592d30c19e000000000000000000000000066bff13aff22c31df7cd53707e645c9736a6637a000000000000000000000000000000000000000000000000000000000000012c00000000000000000000000000000000000000000000000000000000000151800000000000000000000000000000000000000000000000000000000000c528a80000000000000000000000000000000000000000000000000000000003d9cb48000000000000000000000000000000000000000000000000000000001340f8680000000000000000000000000000000000000000000000000000000000000007",
        "nonce": "0x108",
        "chainId": "0x279f"
      },
      "additionalContracts": [],
      "isFixedGasLimit": false
    },
    {
      "hash": "0x13bc454ea6e25e97ac30d92056d498104c86643d865b3ce8cdcd9405d0a16a9f",
      "transactionType": "CALL",
      "contractName": null,
      "contractAddress": "0x98c6d2a3a39ff5a2803240f597eb4c8ce76d36ab",
      "function": "createExchange((address,address,address,uint256,uint256,uint256,((uint256),address,uint256,uint256,uint256)))",
      "arguments": [
        "(0x9E174bc09cEdaDc7a5e39Ba1142b6d95365182CB, 0xcDDb469d22f0A15bE11d0acDA962E2CaACd52706, 0x49503Ffd8da325BfE52B8982A7f9c2E26643c276, 0, 0, 0, ((1000000000000000000000000), 0xAA04d30cced09aE17815f88d1BCAE69A49fB160f, 360, 1, 10000000000000000000000000))"
      ],
      "transaction": {
        "from": "0x56fd3f2bee130e9867942d0f463a16fbe49b8d81",
        "to": "0x98c6d2a3a39ff5a2803240f597eb4c8ce76d36ab",
        "gas": "0x8ba91",
        "value": "0x0",
        "input": "0xb08986910000000000000000000000009e174bc09cedadc7a5e39ba1142b6d95365182cb000000000000000000000000cddb469d22f0a15be11d0acda962e2caacd5270600000000000000000000000049503ffd8da325bfe52b8982a7f9c2e26643c27600000000000000000000000000000000000000000000000000000000000000000000000000000000000000000000000000000000000000000000000000000000000000000000000000000000000000000000000000000000000000000000000000000000000000000000000000000000000000000000d3c21bcecceda1000000000000000000000000000000aa04d30cced09ae17815f88d1bcae69a49fb160f00000000000000000000000000000000000000000000000000000000000001680000000000000000000000000000000000000000000000000000000000000001000000000000000000000000000000000000000000084595161401484a000000",
        "nonce": "0x109",
        "chainId": "0x279f"
      },
      "additionalContracts": [],
      "isFixedGasLimit": false
    },
    {
      "hash": "0xcf9a2ecbecc37777e48bbaeae129e90a2da1819df225bafe83d62373efde3b4b",
      "transactionType": "CALL",
      "contractName": null,
      "contractAddress": "0x388f2c53e77ef33111383a363e0b5fd976b18e74",
      "function": "configureTradingLimit(bytes32,address,(uint32,uint32,int48,int48,int48,uint8))",
      "arguments": [
        "0x4033fa45bb2569f1011bb158dc7b3ecc5958f0773d5a600923f1e8afc86d8413",
        "0x9E174bc09cEdaDc7a5e39Ba1142b6d95365182CB",
        "(300, 86400, 100000, 500000, 2500000, 7)"
      ],
      "transaction": {
        "from": "0x56fd3f2bee130e9867942d0f463a16fbe49b8d81",
        "to": "0x388f2c53e77ef33111383a363e0b5fd976b18e74",
        "gas": "0x156f8",
        "value": "0x0",
        "input": "0xa9b5aab34033fa45bb2569f1011bb158dc7b3ecc5958f0773d5a600923f1e8afc86d84130000000000000000000000009e174bc09cedadc7a5e39ba1142b6d95365182cb000000000000000000000000000000000000000000000000000000000000012c000000000000000000000000000000000000000000000000000000000001518000000000000000000000000000000000000000000000000000000000000186a0000000000000000000000000000000000000000000000000000000000007a12000000000000000000000000000000000000000000000000000000000002625a00000000000000000000000000000000000000000000000000000000000000007",
        "nonce": "0x10a",
        "chainId": "0x279f"
      },
      "additionalContracts": [],
      "isFixedGasLimit": false
    },
    {
      "hash": "0xf891a3d4e9aabd8b6965bc616c113f3dcb1a01e7298a5e5a6be37e15109dfab7",
      "transactionType": "CALL",
      "contractName": null,
      "contractAddress": "0x388f2c53e77ef33111383a363e0b5fd976b18e74",
      "function": "configureTradingLimit(bytes32,address,(uint32,uint32,int48,int48,int48,uint8))",
      "arguments": [
        "0x4033fa45bb2569f1011bb158dc7b3ecc5958f0773d5a600923f1e8afc86d8413",
        "0xcDDb469d22f0A15bE11d0acDA962E2CaACd52706",
        "(300, 86400, 5740000, 28700000, 143500000, 7)"
      ],
      "transaction": {
        "from": "0x56fd3f2bee130e9867942d0f463a16fbe49b8d81",
        "to": "0x388f2c53e77ef33111383a363e0b5fd976b18e74",
        "gas": "0x1571a",
        "value": "0x0",
        "input": "0xa9b5aab34033fa45bb2569f1011bb158dc7b3ecc5958f0773d5a600923f1e8afc86d8413000000000000000000000000cddb469d22f0a15be11d0acda962e2caacd52706000000000000000000000000000000000000000000000000000000000000012c000000000000000000000000000000000000000000000000000000000001518000000000000000000000000000000000000000000000000000000000005795e00000000000000000000000000000000000000000000000000000000001b5ed6000000000000000000000000000000000000000000000000000000000088da2e00000000000000000000000000000000000000000000000000000000000000007",
        "nonce": "0x10b",
        "chainId": "0x279f"
      },
      "additionalContracts": [],
      "isFixedGasLimit": false
    },
    {
      "hash": "0x440c039c655ccf5ea24b499e2ee326e33ce9898fc33cdc67cf5608120d59d3c5",
      "transactionType": "CALL",
      "contractName": null,
      "contractAddress": "0x98c6d2a3a39ff5a2803240f597eb4c8ce76d36ab",
      "function": "createExchange((address,address,address,uint256,uint256,uint256,((uint256),address,uint256,uint256,uint256)))",
      "arguments": [
        "(0x9E174bc09cEdaDc7a5e39Ba1142b6d95365182CB, 0xecdb02E9ce57d3B7A523bB7bf539e9E5Ffac3329, 0x49503Ffd8da325BfE52B8982A7f9c2E26643c276, 0, 0, 0, ((1000000000000000000000000), 0xbB792783141ac5F51eeD9c922ACf86d21a059Ca8, 360, 1, 10000000000000000000000000))"
      ],
      "transaction": {
        "from": "0x56fd3f2bee130e9867942d0f463a16fbe49b8d81",
        "to": "0x98c6d2a3a39ff5a2803240f597eb4c8ce76d36ab",
        "gas": "0x8ba91",
        "value": "0x0",
        "input": "0xb08986910000000000000000000000009e174bc09cedadc7a5e39ba1142b6d95365182cb000000000000000000000000ecdb02e9ce57d3b7a523bb7bf539e9e5ffac332900000000000000000000000049503ffd8da325bfe52b8982a7f9c2e26643c27600000000000000000000000000000000000000000000000000000000000000000000000000000000000000000000000000000000000000000000000000000000000000000000000000000000000000000000000000000000000000000000000000000000000000000000000000000000000000000000d3c21bcecceda1000000000000000000000000000000bb792783141ac5f51eed9c922acf86d21a059ca800000000000000000000000000000000000000000000000000000000000001680000000000000000000000000000000000000000000000000000000000000001000000000000000000000000000000000000000000084595161401484a000000",
        "nonce": "0x10c",
        "chainId": "0x279f"
      },
      "additionalContracts": [],
      "isFixedGasLimit": false
    },
    {
      "hash": "0x1e3e40b006991b85974e3ceef3bb5c81341dd258497dd0bb9ab7cccb729538e7",
      "transactionType": "CALL",
      "contractName": null,
      "contractAddress": "0x388f2c53e77ef33111383a363e0b5fd976b18e74",
      "function": "configureTradingLimit(bytes32,address,(uint32,uint32,int48,int48,int48,uint8))",
      "arguments": [
        "0xb947832f187a2fc262902bc762d0288b5dc4abb9df1d6c79129ba0a8dc5ed26d",
        "0x9E174bc09cEdaDc7a5e39Ba1142b6d95365182CB",
        "(300, 86400, 50000, 250000, 1250000, 7)"
      ],
      "transaction": {
        "from": "0x56fd3f2bee130e9867942d0f463a16fbe49b8d81",
        "to": "0x388f2c53e77ef33111383a363e0b5fd976b18e74",
        "gas": "0x16b14",
        "value": "0x0",
        "input": "0xa9b5aab3b947832f187a2fc262902bc762d0288b5dc4abb9df1d6c79129ba0a8dc5ed26d0000000000000000000000009e174bc09cedadc7a5e39ba1142b6d95365182cb000000000000000000000000000000000000000000000000000000000000012c0000000000000000000000000000000000000000000000000000000000015180000000000000000000000000000000000000000000000000000000000000c350000000000000000000000000000000000000000000000000000000000003d09000000000000000000000000000000000000000000000000000000000001312d00000000000000000000000000000000000000000000000000000000000000007",
        "nonce": "0x10d",
        "chainId": "0x279f"
      },
      "additionalContracts": [],
      "isFixedGasLimit": false
    },
    {
      "hash": "0x40c5cc094da51bdb470d7b6d3b3ab3577135d5c08200a9f61ff384297ca47156",
      "transactionType": "CALL",
      "contractName": null,
      "contractAddress": "0x388f2c53e77ef33111383a363e0b5fd976b18e74",
      "function": "configureTradingLimit(bytes32,address,(uint32,uint32,int48,int48,int48,uint8))",
      "arguments": [
        "0xb947832f187a2fc262902bc762d0288b5dc4abb9df1d6c79129ba0a8dc5ed26d",
        "0xecdb02E9ce57d3B7A523bB7bf539e9E5Ffac3329",
        "(300, 86400, 28023000, 140115000, 700575000, 7)"
      ],
      "transaction": {
        "from": "0x56fd3f2bee130e9867942d0f463a16fbe49b8d81",
        "to": "0x388f2c53e77ef33111383a363e0b5fd976b18e74",
        "gas": "0x16b5a",
        "value": "0x0",
        "input": "0xa9b5aab3b947832f187a2fc262902bc762d0288b5dc4abb9df1d6c79129ba0a8dc5ed26d000000000000000000000000ecdb02e9ce57d3b7a523bb7bf539e9e5ffac3329000000000000000000000000000000000000000000000000000000000000012c00000000000000000000000000000000000000000000000000000000000151800000000000000000000000000000000000000000000000000000000001ab98d8000000000000000000000000000000000000000000000000000000000859fc380000000000000000000000000000000000000000000000000000000029c1ed180000000000000000000000000000000000000000000000000000000000000007",
        "nonce": "0x10e",
        "chainId": "0x279f"
      },
      "additionalContracts": [],
      "isFixedGasLimit": false
    }
  ],
  "receipts": [
    {
      "status": "0x1",
      "cumulativeGasUsed": "0xb0b081",
      "logs": [
        {
          "address": "0x98c6d2a3a39ff5a2803240f597eb4c8ce76d36ab",
          "topics": [
            "0xb374789237d43aed0f75b4c50a45793fd70e354bb96eecd573f35f5d509d78a1",
            "0x1dd1d4a1c823d13a0b425f67f38f882c3369d05b67e9b3ba1d561d1d9443651e",
            "0x0000000000000000000000009e174bc09cedadc7a5e39ba1142b6d95365182cb",
            "0x000000000000000000000000a9b7e81a312097b0920a0b11543626c9a57155b2"
          ],
          "data": "0x00000000000000000000000049503ffd8da325bfe52b8982a7f9c2e26643c276",
          "blockHash": "0x9878d80e80d7896ce1e32bd57909077bf576b7b16c12c622dc16cc3a79ab4c01",
          "blockNumber": "0x22346cf",
          "blockTimestamp": "0x68bec694",
          "transactionHash": "0x761fe35723b3dddb533b07f8ba46259fbc51bf49eb73aee6eae897e3dec8b195",
          "transactionIndex": "0x2e",
          "logIndex": "0x55",
          "removed": false
        }
      ],
      "logsBloom": "0x00000000000000000000000000000000000000000000004000000000000040000000000000000000000000000000000000000000000000000000000000000000000000000000000000000000000000000000004002000000000000000000000000000000400000400000000000000000000000000000000400000000000000000000000000000000000080000000000000000000200800000000000000000000010000000000000000000000200010000000000000000000000000000000000000000000000000000000000000000000000000000000000000000000000000000000000000000000000000400000000000000000000000008000000000000000",
      "type": "0x2",
      "transactionHash": "0x761fe35723b3dddb533b07f8ba46259fbc51bf49eb73aee6eae897e3dec8b195",
      "transactionIndex": "0x2e",
      "blockHash": "0x9878d80e80d7896ce1e32bd57909077bf576b7b16c12c622dc16cc3a79ab4c01",
      "blockNumber": "0x22346cf",
      "gasUsed": "0x89c9f",
      "effectiveGasPrice": "0xba43b7401",
      "from": "0x56fd3f2bee130e9867942d0f463a16fbe49b8d81",
      "to": "0x98c6d2a3a39ff5a2803240f597eb4c8ce76d36ab",
      "contractAddress": null
    },
    {
      "status": "0x1",
      "cumulativeGasUsed": "0xbb54aa",
      "logs": [
        {
          "address": "0x388f2c53e77ef33111383a363e0b5fd976b18e74",
          "topics": [
            "0x1a082a1efaf1549c18917ddcb1f759680c29371609e24f4b946e93acf4ce5ad2"
          ],
          "data": "0x1dd1d4a1c823d13a0b425f67f38f882c3369d05b67e9b3ba1d561d1d9443651e0000000000000000000000009e174bc09cedadc7a5e39ba1142b6d95365182cb000000000000000000000000000000000000000000000000000000000000012c000000000000000000000000000000000000000000000000000000000001518000000000000000000000000000000000000000000000000000000000002625a000000000000000000000000000000000000000000000000000000000004c4b4000000000000000000000000000000000000000000000000000000000000000000000000000000000000000000000000000000000000000000000000000000003",
          "blockHash": "0x9878d80e80d7896ce1e32bd57909077bf576b7b16c12c622dc16cc3a79ab4c01",
          "blockNumber": "0x22346cf",
          "blockTimestamp": "0x68bec694",
          "transactionHash": "0x89073323d3e461473bbaffe851cd6857479fc34b11432c1baeec9fb1be49582a",
          "transactionIndex": "0x31",
          "logIndex": "0x65",
          "removed": false
        }
      ],
      "logsBloom": "0x00000000000000000000000000000000000000000002000000000000000000000000000000000000000000000000000000000000000000000000020000000000000000000000000000000000000000000000000000000000000000000000000000000000000000000000000000000000000000000000000000000000000000000000000000000000000000000000000000000000000000020000000000000000000000000000000000000000000000000000000000000000000000000000000000000000000000000000000000000000000000000040000000000000000000000000000000000000000000000000000000000000000010000010000000000000",
      "type": "0x2",
      "transactionHash": "0x89073323d3e461473bbaffe851cd6857479fc34b11432c1baeec9fb1be49582a",
      "transactionIndex": "0x31",
      "blockHash": "0x9878d80e80d7896ce1e32bd57909077bf576b7b16c12c622dc16cc3a79ab4c01",
      "blockNumber": "0x22346cf",
      "gasUsed": "0x15639",
      "effectiveGasPrice": "0xba43b7401",
      "from": "0x56fd3f2bee130e9867942d0f463a16fbe49b8d81",
      "to": "0x388f2c53e77ef33111383a363e0b5fd976b18e74",
      "contractAddress": null
    },
    {
      "status": "0x1",
      "cumulativeGasUsed": "0xc329a7",
      "logs": [
        {
          "address": "0x98c6d2a3a39ff5a2803240f597eb4c8ce76d36ab",
          "topics": [
            "0xb374789237d43aed0f75b4c50a45793fd70e354bb96eecd573f35f5d509d78a1",
            "0x09c52cc74e3ab4c6a0fbdecf0b859ecc63ba2dbec3861bfc87495fdf80d71cd9",
            "0x0000000000000000000000009e174bc09cedadc7a5e39ba1142b6d95365182cb",
            "0x000000000000000000000000272e9a32492f3c9b7c31e374f2f7c3627d746de3"
          ],
          "data": "0x00000000000000000000000049503ffd8da325bfe52b8982a7f9c2e26643c276",
          "blockHash": "0x9878d80e80d7896ce1e32bd57909077bf576b7b16c12c622dc16cc3a79ab4c01",
          "blockNumber": "0x22346cf",
          "blockTimestamp": "0x68bec694",
          "transactionHash": "0x6f25df0e96db35bc2b878dc6a7216f3269e3f9b6c3a85e7f00238cb45bb442d1",
          "transactionIndex": "0x32",
          "logIndex": "0x66",
          "removed": false
        }
      ],
      "logsBloom": "0x00000000000000000000000000000000000000000000004000000000000040000000000000000000000000000000000000000000000000000000000000000000000000000000000000000000000000000000200000000000000000000001000000000000400000400000000000000000000000000000000400000000040000000000000000000000000000000000000000000000000800000000000000000000000000000008004000000000201000000000000000000000000000000000000000000000000000000000000000000000000000000000000000000000000000000000000000000000000000400000000000000000000000008000000000000000",
      "type": "0x2",
      "transactionHash": "0x6f25df0e96db35bc2b878dc6a7216f3269e3f9b6c3a85e7f00238cb45bb442d1",
      "transactionIndex": "0x32",
      "blockHash": "0x9878d80e80d7896ce1e32bd57909077bf576b7b16c12c622dc16cc3a79ab4c01",
      "blockNumber": "0x22346cf",
      "gasUsed": "0x7d4fd",
      "effectiveGasPrice": "0xba43b7401",
      "from": "0x56fd3f2bee130e9867942d0f463a16fbe49b8d81",
      "to": "0x98c6d2a3a39ff5a2803240f597eb4c8ce76d36ab",
      "contractAddress": null
    },
    {
      "status": "0x1",
      "cumulativeGasUsed": "0xc47fe0",
      "logs": [
        {
          "address": "0x388f2c53e77ef33111383a363e0b5fd976b18e74",
          "topics": [
            "0x1a082a1efaf1549c18917ddcb1f759680c29371609e24f4b946e93acf4ce5ad2"
          ],
          "data": "0x09c52cc74e3ab4c6a0fbdecf0b859ecc63ba2dbec3861bfc87495fdf80d71cd90000000000000000000000009e174bc09cedadc7a5e39ba1142b6d95365182cb000000000000000000000000000000000000000000000000000000000000012c000000000000000000000000000000000000000000000000000000000001518000000000000000000000000000000000000000000000000000000000002625a000000000000000000000000000000000000000000000000000000000004c4b4000000000000000000000000000000000000000000000000000000000000000000000000000000000000000000000000000000000000000000000000000000003",
          "blockHash": "0x9878d80e80d7896ce1e32bd57909077bf576b7b16c12c622dc16cc3a79ab4c01",
          "blockNumber": "0x22346cf",
          "blockTimestamp": "0x68bec694",
          "transactionHash": "0x257b4849a43bf3518d241b05fa75867e9dfc267f7a9095591ba03d882f93da80",
          "transactionIndex": "0x33",
          "logIndex": "0x67",
          "removed": false
        }
      ],
      "logsBloom": "0x00000000000000000000000000000000000000000002000000000000000000000000000000000000000000000000000000000000000000000000020000000000000000000000000000000000000000000000000000000000000000000000000000000000000000000000000000000000000000000000000000000000000000000000000000000000000000000000000000000000000000020000000000000000000000000000000000000000000000000000000000000000000000000000000000000000000000000000000000000000000000000040000000000000000000000000000000000000000000000000000000000000000010000010000000000000",
      "type": "0x2",
      "transactionHash": "0x257b4849a43bf3518d241b05fa75867e9dfc267f7a9095591ba03d882f93da80",
      "transactionIndex": "0x33",
      "blockHash": "0x9878d80e80d7896ce1e32bd57909077bf576b7b16c12c622dc16cc3a79ab4c01",
      "blockNumber": "0x22346cf",
      "gasUsed": "0x15639",
      "effectiveGasPrice": "0xba43b7401",
      "from": "0x56fd3f2bee130e9867942d0f463a16fbe49b8d81",
      "to": "0x388f2c53e77ef33111383a363e0b5fd976b18e74",
      "contractAddress": null
    },
    {
      "status": "0x1",
      "cumulativeGasUsed": "0xccbe5d",
      "logs": [
        {
          "address": "0x98c6d2a3a39ff5a2803240f597eb4c8ce76d36ab",
          "topics": [
            "0xb374789237d43aed0f75b4c50a45793fd70e354bb96eecd573f35f5d509d78a1",
            "0x74347ad8b811b2ca1cfbc092ee1f48203e0add8c0c4c4760d66868b46a42af81",
            "0x0000000000000000000000009e174bc09cedadc7a5e39ba1142b6d95365182cb",
            "0x000000000000000000000000b5a31a69b58b3b3a61c8704b489f53d6b79016c4"
          ],
          "data": "0x00000000000000000000000049503ffd8da325bfe52b8982a7f9c2e26643c276",
          "blockHash": "0x9878d80e80d7896ce1e32bd57909077bf576b7b16c12c622dc16cc3a79ab4c01",
          "blockNumber": "0x22346cf",
          "blockTimestamp": "0x68bec694",
          "transactionHash": "0xb056675fa94be860dd1324ca71bf2e6c1a7e3a7c2c76cbc67d9eeb75b17fdb3d",
          "transactionIndex": "0x34",
          "logIndex": "0x68",
          "removed": false
        }
      ],
      "logsBloom": "0x00000000000000000000000000020000000000000000004000000000000040000000000000000000000000000000000000000000000000000020000000000000000000000000000001000000000400000000000000000000000000000000000000000000400000400000000000000000000000000000000400000000000000000000000000000000000000000000000000000000000800000000000000000000000000010000000000000000200000000000000000000000000000000000000000000000000000000000000000000000000000000000000000000000000000000000000000000000000000400000000000000000000000008000000400000000",
      "type": "0x2",
      "transactionHash": "0xb056675fa94be860dd1324ca71bf2e6c1a7e3a7c2c76cbc67d9eeb75b17fdb3d",
      "transactionIndex": "0x34",
      "blockHash": "0x9878d80e80d7896ce1e32bd57909077bf576b7b16c12c622dc16cc3a79ab4c01",
      "blockNumber": "0x22346cf",
      "gasUsed": "0x83e7d",
      "effectiveGasPrice": "0xba43b7401",
      "from": "0x56fd3f2bee130e9867942d0f463a16fbe49b8d81",
      "to": "0x98c6d2a3a39ff5a2803240f597eb4c8ce76d36ab",
      "contractAddress": null
    },
    {
      "status": "0x1",
      "cumulativeGasUsed": "0xce1555",
      "logs": [
        {
          "address": "0x388f2c53e77ef33111383a363e0b5fd976b18e74",
          "topics": [
            "0x1a082a1efaf1549c18917ddcb1f759680c29371609e24f4b946e93acf4ce5ad2"
          ],
          "data": "0x74347ad8b811b2ca1cfbc092ee1f48203e0add8c0c4c4760d66868b46a42af810000000000000000000000009e174bc09cedadc7a5e39ba1142b6d95365182cb000000000000000000000000000000000000000000000000000000000000012c000000000000000000000000000000000000000000000000000000000001518000000000000000000000000000000000000000000000000000000000000186a0000000000000000000000000000000000000000000000000000000000007a12000000000000000000000000000000000000000000000000000000000002625a00000000000000000000000000000000000000000000000000000000000000007",
          "blockHash": "0x9878d80e80d7896ce1e32bd57909077bf576b7b16c12c622dc16cc3a79ab4c01",
          "blockNumber": "0x22346cf",
          "blockTimestamp": "0x68bec694",
          "transactionHash": "0x0e946990a2501d678c18bed9ce0847c7fd13da760e8d7d2ace0191eb7bee35f7",
          "transactionIndex": "0x35",
          "logIndex": "0x69",
          "removed": false
        }
      ],
      "logsBloom": "0x00000000000000000000000000000000000000000002000000000000000000000000000000000000000000000000000000000000000000000000020000000000000000000000000000000000000000000000000000000000000000000000000000000000000000000000000000000000000000000000000000000000000000000000000000000000000000000000000000000000000000020000000000000000000000000000000000000000000000000000000000000000000000000000000000000000000000000000000000000000000000000040000000000000000000000000000000000000000000000000000000000000000010000010000000000000",
      "type": "0x2",
      "transactionHash": "0x0e946990a2501d678c18bed9ce0847c7fd13da760e8d7d2ace0191eb7bee35f7",
      "transactionIndex": "0x35",
      "blockHash": "0x9878d80e80d7896ce1e32bd57909077bf576b7b16c12c622dc16cc3a79ab4c01",
      "blockNumber": "0x22346cf",
      "gasUsed": "0x156f8",
      "effectiveGasPrice": "0xba43b7401",
      "from": "0x56fd3f2bee130e9867942d0f463a16fbe49b8d81",
      "to": "0x388f2c53e77ef33111383a363e0b5fd976b18e74",
      "contractAddress": null
    },
    {
      "status": "0x1",
      "cumulativeGasUsed": "0xcf6c4d",
      "logs": [
        {
          "address": "0x388f2c53e77ef33111383a363e0b5fd976b18e74",
          "topics": [
            "0x1a082a1efaf1549c18917ddcb1f759680c29371609e24f4b946e93acf4ce5ad2"
          ],
          "data": "0x74347ad8b811b2ca1cfbc092ee1f48203e0add8c0c4c4760d66868b46a42af81000000000000000000000000b5a31a69b58b3b3a61c8704b489f53d6b79016c4000000000000000000000000000000000000000000000000000000000000012c00000000000000000000000000000000000000000000000000000000000151800000000000000000000000000000000000000000000000000000000000014ff00000000000000000000000000000000000000000000000000000000000068fb0000000000000000000000000000000000000000000000000000000000020ce700000000000000000000000000000000000000000000000000000000000000007",
          "blockHash": "0x9878d80e80d7896ce1e32bd57909077bf576b7b16c12c622dc16cc3a79ab4c01",
          "blockNumber": "0x22346cf",
          "blockTimestamp": "0x68bec694",
          "transactionHash": "0x87f9596d1537a6f15f9c41886729964d29deb670015b3ec7c97f24a57b95632b",
          "transactionIndex": "0x36",
          "logIndex": "0x6a",
          "removed": false
        }
      ],
      "logsBloom": "0x00000000000000000000000000000000000000000002000000000000000000000000000000000000000000000000000000000000000000000000020000000000000000000000000000000000000000000000000000000000000000000000000000000000000000000000000000000000000000000000000000000000000000000000000000000000000000000000000000000000000000020000000000000000000000000000000000000000000000000000000000000000000000000000000000000000000000000000000000000000000000000040000000000000000000000000000000000000000000000000000000000000000010000010000000000000",
      "type": "0x2",
      "transactionHash": "0x87f9596d1537a6f15f9c41886729964d29deb670015b3ec7c97f24a57b95632b",
      "transactionIndex": "0x36",
      "blockHash": "0x9878d80e80d7896ce1e32bd57909077bf576b7b16c12c622dc16cc3a79ab4c01",
      "blockNumber": "0x22346cf",
      "gasUsed": "0x156f8",
      "effectiveGasPrice": "0xba43b7401",
      "from": "0x56fd3f2bee130e9867942d0f463a16fbe49b8d81",
      "to": "0x388f2c53e77ef33111383a363e0b5fd976b18e74",
      "contractAddress": null
    },
    {
      "status": "0x1",
      "cumulativeGasUsed": "0xd7aaca",
      "logs": [
        {
          "address": "0x98c6d2a3a39ff5a2803240f597eb4c8ce76d36ab",
          "topics": [
            "0xb374789237d43aed0f75b4c50a45793fd70e354bb96eecd573f35f5d509d78a1",
            "0x7e31ac1ba139a9da37c7e0503e48eb7d3b9a74f348eddf98157d11cf13306a34",
            "0x0000000000000000000000009e174bc09cedadc7a5e39ba1142b6d95365182cb",
            "0x000000000000000000000000109902563daa6d404f9d30981d03d7070b96e1c8"
          ],
          "data": "0x00000000000000000000000049503ffd8da325bfe52b8982a7f9c2e26643c276",
          "blockHash": "0x9878d80e80d7896ce1e32bd57909077bf576b7b16c12c622dc16cc3a79ab4c01",
          "blockNumber": "0x22346cf",
          "blockTimestamp": "0x68bec694",
          "transactionHash": "0xcbc13eb1f52d97fa33eccb20992020d1b97b86bd7d6df2a963ec6bf350a8b261",
          "transactionIndex": "0x37",
          "logIndex": "0x6b",
          "removed": false
        }
      ],
      "logsBloom": "0x00000000000000000000000000000000000000000000004000000000000140000000000000000000000000000000000000000000000000000000000000000000000000000000000000080000000000000000000000000000000000000000000000000000400800400000000800000000000000000000000400000000000000000000000000000000000000000000000000000000000800000000000000000000000000000000000000000000300000000000000000000000000000000000000000000000000000000000000000000000000000000000000008000000000000000000000000000000000000400000000000000000000000008000000000000000",
      "type": "0x2",
      "transactionHash": "0xcbc13eb1f52d97fa33eccb20992020d1b97b86bd7d6df2a963ec6bf350a8b261",
      "transactionIndex": "0x37",
      "blockHash": "0x9878d80e80d7896ce1e32bd57909077bf576b7b16c12c622dc16cc3a79ab4c01",
      "blockNumber": "0x22346cf",
      "gasUsed": "0x83e7d",
      "effectiveGasPrice": "0xba43b7401",
      "from": "0x56fd3f2bee130e9867942d0f463a16fbe49b8d81",
      "to": "0x98c6d2a3a39ff5a2803240f597eb4c8ce76d36ab",
      "contractAddress": null
    },
    {
      "status": "0x1",
      "cumulativeGasUsed": "0xd901c2",
      "logs": [
        {
          "address": "0x388f2c53e77ef33111383a363e0b5fd976b18e74",
          "topics": [
            "0x1a082a1efaf1549c18917ddcb1f759680c29371609e24f4b946e93acf4ce5ad2"
          ],
          "data": "0x7e31ac1ba139a9da37c7e0503e48eb7d3b9a74f348eddf98157d11cf13306a340000000000000000000000009e174bc09cedadc7a5e39ba1142b6d95365182cb000000000000000000000000000000000000000000000000000000000000012c000000000000000000000000000000000000000000000000000000000001518000000000000000000000000000000000000000000000000000000000000186a0000000000000000000000000000000000000000000000000000000000007a12000000000000000000000000000000000000000000000000000000000002625a00000000000000000000000000000000000000000000000000000000000000007",
          "blockHash": "0x9878d80e80d7896ce1e32bd57909077bf576b7b16c12c622dc16cc3a79ab4c01",
          "blockNumber": "0x22346cf",
          "blockTimestamp": "0x68bec694",
          "transactionHash": "0xddcfd8b8fe0d7d8b938402cdbcd6ad8d520310be60a8765e1c74663d41cb3a4c",
          "transactionIndex": "0x38",
          "logIndex": "0x6c",
          "removed": false
        }
      ],
      "logsBloom": "0x00000000000000000000000000000000000000000002000000000000000000000000000000000000000000000000000000000000000000000000020000000000000000000000000000000000000000000000000000000000000000000000000000000000000000000000000000000000000000000000000000000000000000000000000000000000000000000000000000000000000000020000000000000000000000000000000000000000000000000000000000000000000000000000000000000000000000000000000000000000000000000040000000000000000000000000000000000000000000000000000000000000000010000010000000000000",
      "type": "0x2",
      "transactionHash": "0xddcfd8b8fe0d7d8b938402cdbcd6ad8d520310be60a8765e1c74663d41cb3a4c",
      "transactionIndex": "0x38",
      "blockHash": "0x9878d80e80d7896ce1e32bd57909077bf576b7b16c12c622dc16cc3a79ab4c01",
      "blockNumber": "0x22346cf",
      "gasUsed": "0x156f8",
      "effectiveGasPrice": "0xba43b7401",
      "from": "0x56fd3f2bee130e9867942d0f463a16fbe49b8d81",
      "to": "0x388f2c53e77ef33111383a363e0b5fd976b18e74",
      "contractAddress": null
    },
    {
      "status": "0x1",
      "cumulativeGasUsed": "0xda58ba",
      "logs": [
        {
          "address": "0x388f2c53e77ef33111383a363e0b5fd976b18e74",
          "topics": [
            "0x1a082a1efaf1549c18917ddcb1f759680c29371609e24f4b946e93acf4ce5ad2"
          ],
          "data": "0x7e31ac1ba139a9da37c7e0503e48eb7d3b9a74f348eddf98157d11cf13306a34000000000000000000000000109902563daa6d404f9d30981d03d7070b96e1c8000000000000000000000000000000000000000000000000000000000000012c0000000000000000000000000000000000000000000000000000000000015180000000000000000000000000000000000000000000000000000000000002599000000000000000000000000000000000000000000000000000000000000bbfd000000000000000000000000000000000000000000000000000000000003abf100000000000000000000000000000000000000000000000000000000000000007",
          "blockHash": "0x9878d80e80d7896ce1e32bd57909077bf576b7b16c12c622dc16cc3a79ab4c01",
          "blockNumber": "0x22346cf",
          "blockTimestamp": "0x68bec694",
          "transactionHash": "0xe02c73eb55b8e6d8b4fb5ab2a43c309b90a221c327fcabd16b6e793bdb01964c",
          "transactionIndex": "0x39",
          "logIndex": "0x6d",
          "removed": false
        }
      ],
      "logsBloom": "0x00000000000000000000000000000000000000000002000000000000000000000000000000000000000000000000000000000000000000000000020000000000000000000000000000000000000000000000000000000000000000000000000000000000000000000000000000000000000000000000000000000000000000000000000000000000000000000000000000000000000000020000000000000000000000000000000000000000000000000000000000000000000000000000000000000000000000000000000000000000000000000040000000000000000000000000000000000000000000000000000000000000000010000010000000000000",
      "type": "0x2",
      "transactionHash": "0xe02c73eb55b8e6d8b4fb5ab2a43c309b90a221c327fcabd16b6e793bdb01964c",
      "transactionIndex": "0x39",
      "blockHash": "0x9878d80e80d7896ce1e32bd57909077bf576b7b16c12c622dc16cc3a79ab4c01",
      "blockNumber": "0x22346cf",
      "gasUsed": "0x156f8",
      "effectiveGasPrice": "0xba43b7401",
      "from": "0x56fd3f2bee130e9867942d0f463a16fbe49b8d81",
      "to": "0x388f2c53e77ef33111383a363e0b5fd976b18e74",
      "contractAddress": null
    },
    {
      "status": "0x1",
      "cumulativeGasUsed": "0xe29737",
      "logs": [
        {
          "address": "0x98c6d2a3a39ff5a2803240f597eb4c8ce76d36ab",
          "topics": [
            "0xb374789237d43aed0f75b4c50a45793fd70e354bb96eecd573f35f5d509d78a1",
            "0x3a741bff3e73215535b95af758343e59e523a59773b5420528f5e1b3a12de496",
            "0x0000000000000000000000009e174bc09cedadc7a5e39ba1142b6d95365182cb",
            "0x000000000000000000000000fdb9576d43148e523f5351de41e43a307a7d2956"
          ],
          "data": "0x00000000000000000000000049503ffd8da325bfe52b8982a7f9c2e26643c276",
          "blockHash": "0x9878d80e80d7896ce1e32bd57909077bf576b7b16c12c622dc16cc3a79ab4c01",
          "blockNumber": "0x22346cf",
          "blockTimestamp": "0x68bec694",
          "transactionHash": "0x05b25de0d980864321bb3c806888538b348fffe7b84386d0fa54138368a9d592",
          "transactionIndex": "0x3a",
          "logIndex": "0x6e",
          "removed": false
        }
      ],
      "logsBloom": "0x00000010000000000000000000000000000000000000004000000000000040000000000000000000000000000000001000000000000000000000000000000000000000000000000000000000000000000000000000000000000000000000000000000000400000400000000000000000000000000000000400000000000000000000000000000000000000000000000000000040000800000000000000000000000000000000000000000000200000000000000000000000000000000000000000000000000000002000000000000000000000000000000000000000000000000000000000000000000200400000000000000000000000008000000000000040",
      "type": "0x2",
      "transactionHash": "0x05b25de0d980864321bb3c806888538b348fffe7b84386d0fa54138368a9d592",
      "transactionIndex": "0x3a",
      "blockHash": "0x9878d80e80d7896ce1e32bd57909077bf576b7b16c12c622dc16cc3a79ab4c01",
      "blockNumber": "0x22346cf",
      "gasUsed": "0x83e7d",
      "effectiveGasPrice": "0xba43b7401",
      "from": "0x56fd3f2bee130e9867942d0f463a16fbe49b8d81",
      "to": "0x98c6d2a3a39ff5a2803240f597eb4c8ce76d36ab",
      "contractAddress": null
    },
    {
      "status": "0x1",
      "cumulativeGasUsed": "0xe3ee2f",
      "logs": [
        {
          "address": "0x388f2c53e77ef33111383a363e0b5fd976b18e74",
          "topics": [
            "0x1a082a1efaf1549c18917ddcb1f759680c29371609e24f4b946e93acf4ce5ad2"
          ],
          "data": "0x3a741bff3e73215535b95af758343e59e523a59773b5420528f5e1b3a12de4960000000000000000000000009e174bc09cedadc7a5e39ba1142b6d95365182cb000000000000000000000000000000000000000000000000000000000000012c000000000000000000000000000000000000000000000000000000000001518000000000000000000000000000000000000000000000000000000000000186a0000000000000000000000000000000000000000000000000000000000007a12000000000000000000000000000000000000000000000000000000000002625a00000000000000000000000000000000000000000000000000000000000000007",
          "blockHash": "0x9878d80e80d7896ce1e32bd57909077bf576b7b16c12c622dc16cc3a79ab4c01",
          "blockNumber": "0x22346cf",
          "blockTimestamp": "0x68bec694",
          "transactionHash": "0xc4d8d4d1824dffd7ffc6b9ec57e384668ec80a96fa6d6a9fff188feb2749a6d3",
          "transactionIndex": "0x3b",
          "logIndex": "0x6f",
          "removed": false
        }
      ],
      "logsBloom": "0x00000000000000000000000000000000000000000002000000000000000000000000000000000000000000000000000000000000000000000000020000000000000000000000000000000000000000000000000000000000000000000000000000000000000000000000000000000000000000000000000000000000000000000000000000000000000000000000000000000000000000020000000000000000000000000000000000000000000000000000000000000000000000000000000000000000000000000000000000000000000000000040000000000000000000000000000000000000000000000000000000000000000010000010000000000000",
      "type": "0x2",
      "transactionHash": "0xc4d8d4d1824dffd7ffc6b9ec57e384668ec80a96fa6d6a9fff188feb2749a6d3",
      "transactionIndex": "0x3b",
      "blockHash": "0x9878d80e80d7896ce1e32bd57909077bf576b7b16c12c622dc16cc3a79ab4c01",
      "blockNumber": "0x22346cf",
      "gasUsed": "0x156f8",
      "effectiveGasPrice": "0xba43b7401",
      "from": "0x56fd3f2bee130e9867942d0f463a16fbe49b8d81",
      "to": "0x388f2c53e77ef33111383a363e0b5fd976b18e74",
      "contractAddress": null
    },
    {
      "status": "0x1",
      "cumulativeGasUsed": "0xe54527",
      "logs": [
        {
          "address": "0x388f2c53e77ef33111383a363e0b5fd976b18e74",
          "topics": [
            "0x1a082a1efaf1549c18917ddcb1f759680c29371609e24f4b946e93acf4ce5ad2"
          ],
          "data": "0x3a741bff3e73215535b95af758343e59e523a59773b5420528f5e1b3a12de496000000000000000000000000fdb9576d43148e523f5351de41e43a307a7d2956000000000000000000000000000000000000000000000000000000000000012c00000000000000000000000000000000000000000000000000000000000151800000000000000000000000000000000000000000000000000000000000021b1000000000000000000000000000000000000000000000000000000000000a8750000000000000000000000000000000000000000000000000000000000034a4900000000000000000000000000000000000000000000000000000000000000007",
          "blockHash": "0x9878d80e80d7896ce1e32bd57909077bf576b7b16c12c622dc16cc3a79ab4c01",
          "blockNumber": "0x22346cf",
          "blockTimestamp": "0x68bec694",
          "transactionHash": "0x84f6f77e24a039957615ffa3489b0528147c8f90047b2eceac7e1d6ddd41e7f6",
          "transactionIndex": "0x3c",
          "logIndex": "0x70",
          "removed": false
        }
      ],
      "logsBloom": "0x00000000000000000000000000000000000000000002000000000000000000000000000000000000000000000000000000000000000000000000020000000000000000000000000000000000000000000000000000000000000000000000000000000000000000000000000000000000000000000000000000000000000000000000000000000000000000000000000000000000000000020000000000000000000000000000000000000000000000000000000000000000000000000000000000000000000000000000000000000000000000000040000000000000000000000000000000000000000000000000000000000000000010000010000000000000",
      "type": "0x2",
      "transactionHash": "0x84f6f77e24a039957615ffa3489b0528147c8f90047b2eceac7e1d6ddd41e7f6",
      "transactionIndex": "0x3c",
      "blockHash": "0x9878d80e80d7896ce1e32bd57909077bf576b7b16c12c622dc16cc3a79ab4c01",
      "blockNumber": "0x22346cf",
      "gasUsed": "0x156f8",
      "effectiveGasPrice": "0xba43b7401",
      "from": "0x56fd3f2bee130e9867942d0f463a16fbe49b8d81",
      "to": "0x388f2c53e77ef33111383a363e0b5fd976b18e74",
      "contractAddress": null
    },
    {
      "status": "0x1",
      "cumulativeGasUsed": "0xed83a4",
      "logs": [
        {
          "address": "0x98c6d2a3a39ff5a2803240f597eb4c8ce76d36ab",
          "topics": [
            "0xb374789237d43aed0f75b4c50a45793fd70e354bb96eecd573f35f5d509d78a1",
            "0x1e202f0a25ad85db6599f21e871274250e3f946c4b13ead6793c4d36d54b7680",
            "0x0000000000000000000000009e174bc09cedadc7a5e39ba1142b6d95365182cb",
            "0x000000000000000000000000af95a360ebae29ba1f9dc8b833b8a985df168a83"
          ],
          "data": "0x00000000000000000000000049503ffd8da325bfe52b8982a7f9c2e26643c276",
          "blockHash": "0x9878d80e80d7896ce1e32bd57909077bf576b7b16c12c622dc16cc3a79ab4c01",
          "blockNumber": "0x22346cf",
          "blockTimestamp": "0x68bec694",
          "transactionHash": "0xb66922e4202a8e9107fd3ac5df391b5be078eec4bd5d64995097aef90f20b327",
          "transactionIndex": "0x3d",
          "logIndex": "0x71",
          "removed": false
        }
      ],
      "logsBloom": "0x00000000000000000000000000000000000000000000004000000000000040000000000000000000000000000000000000000000000000000000000000000000000000000000000000000000000000000000000000000000000000000080000000000000400000400000000000000000000000000000000400000000000000000000000000000000000000000000000000000000000800000000004000000000000000000000000000000000200000080000000000000000000000000000000000000000004000080000002000000000000000000000000000000000000000000000000000000000000000400000000000000000000000008000000000000000",
      "type": "0x2",
      "transactionHash": "0xb66922e4202a8e9107fd3ac5df391b5be078eec4bd5d64995097aef90f20b327",
      "transactionIndex": "0x3d",
      "blockHash": "0x9878d80e80d7896ce1e32bd57909077bf576b7b16c12c622dc16cc3a79ab4c01",
      "blockNumber": "0x22346cf",
      "gasUsed": "0x83e7d",
      "effectiveGasPrice": "0xba43b7401",
      "from": "0x56fd3f2bee130e9867942d0f463a16fbe49b8d81",
      "to": "0x98c6d2a3a39ff5a2803240f597eb4c8ce76d36ab",
      "contractAddress": null
    },
    {
      "status": "0x1",
      "cumulativeGasUsed": "0xeeda9c",
      "logs": [
        {
          "address": "0x388f2c53e77ef33111383a363e0b5fd976b18e74",
          "topics": [
            "0x1a082a1efaf1549c18917ddcb1f759680c29371609e24f4b946e93acf4ce5ad2"
          ],
          "data": "0x1e202f0a25ad85db6599f21e871274250e3f946c4b13ead6793c4d36d54b76800000000000000000000000009e174bc09cedadc7a5e39ba1142b6d95365182cb000000000000000000000000000000000000000000000000000000000000012c000000000000000000000000000000000000000000000000000000000001518000000000000000000000000000000000000000000000000000000000000186a0000000000000000000000000000000000000000000000000000000000007a12000000000000000000000000000000000000000000000000000000000002625a00000000000000000000000000000000000000000000000000000000000000007",
          "blockHash": "0x9878d80e80d7896ce1e32bd57909077bf576b7b16c12c622dc16cc3a79ab4c01",
          "blockNumber": "0x22346cf",
          "blockTimestamp": "0x68bec694",
          "transactionHash": "0x74cdbe3180a70924e3dcb13492bcaf42c462b9ab310ce2a0eae14c182fc3093c",
          "transactionIndex": "0x3e",
          "logIndex": "0x72",
          "removed": false
        }
      ],
      "logsBloom": "0x00000000000000000000000000000000000000000002000000000000000000000000000000000000000000000000000000000000000000000000020000000000000000000000000000000000000000000000000000000000000000000000000000000000000000000000000000000000000000000000000000000000000000000000000000000000000000000000000000000000000000020000000000000000000000000000000000000000000000000000000000000000000000000000000000000000000000000000000000000000000000000040000000000000000000000000000000000000000000000000000000000000000010000010000000000000",
      "type": "0x2",
      "transactionHash": "0x74cdbe3180a70924e3dcb13492bcaf42c462b9ab310ce2a0eae14c182fc3093c",
      "transactionIndex": "0x3e",
      "blockHash": "0x9878d80e80d7896ce1e32bd57909077bf576b7b16c12c622dc16cc3a79ab4c01",
      "blockNumber": "0x22346cf",
      "gasUsed": "0x156f8",
      "effectiveGasPrice": "0xba43b7401",
      "from": "0x56fd3f2bee130e9867942d0f463a16fbe49b8d81",
      "to": "0x388f2c53e77ef33111383a363e0b5fd976b18e74",
      "contractAddress": null
    },
    {
      "status": "0x1",
      "cumulativeGasUsed": "0xf03194",
      "logs": [
        {
          "address": "0x388f2c53e77ef33111383a363e0b5fd976b18e74",
          "topics": [
            "0x1a082a1efaf1549c18917ddcb1f759680c29371609e24f4b946e93acf4ce5ad2"
          ],
          "data": "0x1e202f0a25ad85db6599f21e871274250e3f946c4b13ead6793c4d36d54b7680000000000000000000000000af95a360ebae29ba1f9dc8b833b8a985df168a83000000000000000000000000000000000000000000000000000000000000012c000000000000000000000000000000000000000000000000000000000001518000000000000000000000000000000000000000000000000000000000000124f8000000000000000000000000000000000000000000000000000000000005b8d800000000000000000000000000000000000000000000000000000000001c9c380000000000000000000000000000000000000000000000000000000000000007",
          "blockHash": "0x9878d80e80d7896ce1e32bd57909077bf576b7b16c12c622dc16cc3a79ab4c01",
          "blockNumber": "0x22346cf",
          "blockTimestamp": "0x68bec694",
          "transactionHash": "0x6752f4fee507d2f5ea89756ea8b0ace960adb20711105ab8e3ecf2c1da083f69",
          "transactionIndex": "0x3f",
          "logIndex": "0x73",
          "removed": false
        }
      ],
      "logsBloom": "0x00000000000000000000000000000000000000000002000000000000000000000000000000000000000000000000000000000000000000000000020000000000000000000000000000000000000000000000000000000000000000000000000000000000000000000000000000000000000000000000000000000000000000000000000000000000000000000000000000000000000000020000000000000000000000000000000000000000000000000000000000000000000000000000000000000000000000000000000000000000000000000040000000000000000000000000000000000000000000000000000000000000000010000010000000000000",
      "type": "0x2",
      "transactionHash": "0x6752f4fee507d2f5ea89756ea8b0ace960adb20711105ab8e3ecf2c1da083f69",
      "transactionIndex": "0x3f",
      "blockHash": "0x9878d80e80d7896ce1e32bd57909077bf576b7b16c12c622dc16cc3a79ab4c01",
      "blockNumber": "0x22346cf",
      "gasUsed": "0x156f8",
      "effectiveGasPrice": "0xba43b7401",
      "from": "0x56fd3f2bee130e9867942d0f463a16fbe49b8d81",
      "to": "0x388f2c53e77ef33111383a363e0b5fd976b18e74",
      "contractAddress": null
    },
    {
      "status": "0x1",
      "cumulativeGasUsed": "0x6d7cc6",
      "logs": [
        {
          "address": "0x98c6d2a3a39ff5a2803240f597eb4c8ce76d36ab",
          "topics": [
            "0xb374789237d43aed0f75b4c50a45793fd70e354bb96eecd573f35f5d509d78a1",
            "0xe8aecadc079c71e499fb1988f24806ea48e03b472829a165527bd80d856c3f7f",
            "0x0000000000000000000000009e174bc09cedadc7a5e39ba1142b6d95365182cb",
            "0x000000000000000000000000ce1b285691b40f54762d69c40b24ec4c95add3fc"
          ],
          "data": "0x00000000000000000000000049503ffd8da325bfe52b8982a7f9c2e26643c276",
          "blockHash": "0x23f5553f3a67b72857018ad706331207f02783b404c41c4aea1a6e33dceb2c28",
          "blockNumber": "0x22346d4",
          "blockTimestamp": "0x68bec696",
          "transactionHash": "0xa78fa75d0d329e7694ad927743ce87fcb00292bcdf84d1244efb5fc566afaa77",
          "transactionIndex": "0x18",
          "logIndex": "0x3b",
          "removed": false
        }
      ],
      "logsBloom": "0x00000000000000000000000000000000000000000000004000000000000040000000000000000000000000000000000000000000000000400000000000000800000000000000000000000000000000000000000000000000000000000000000000000000400000400000000000000000000000000000000400000000000000000000000000000000000000000000000000000000000800000000000000000000002000000000002000000000200000000000000000000000000000000000000000000000000000000000000000000000000000000000000000000000000000000000000000000000000000400000000000800000000000008000008000000000",
      "type": "0x2",
      "transactionHash": "0xa78fa75d0d329e7694ad927743ce87fcb00292bcdf84d1244efb5fc566afaa77",
      "transactionIndex": "0x18",
      "blockHash": "0x23f5553f3a67b72857018ad706331207f02783b404c41c4aea1a6e33dceb2c28",
      "blockNumber": "0x22346d4",
      "gasUsed": "0x83e7d",
      "effectiveGasPrice": "0xba43b7401",
      "from": "0x56fd3f2bee130e9867942d0f463a16fbe49b8d81",
      "to": "0x98c6d2a3a39ff5a2803240f597eb4c8ce76d36ab",
      "contractAddress": null
    },
    {
      "status": "0x1",
      "cumulativeGasUsed": "0x6ed3be",
      "logs": [
        {
          "address": "0x388f2c53e77ef33111383a363e0b5fd976b18e74",
          "topics": [
            "0x1a082a1efaf1549c18917ddcb1f759680c29371609e24f4b946e93acf4ce5ad2"
          ],
          "data": "0xe8aecadc079c71e499fb1988f24806ea48e03b472829a165527bd80d856c3f7f0000000000000000000000009e174bc09cedadc7a5e39ba1142b6d95365182cb000000000000000000000000000000000000000000000000000000000000012c000000000000000000000000000000000000000000000000000000000001518000000000000000000000000000000000000000000000000000000000000186a0000000000000000000000000000000000000000000000000000000000007a12000000000000000000000000000000000000000000000000000000000002625a00000000000000000000000000000000000000000000000000000000000000007",
          "blockHash": "0x23f5553f3a67b72857018ad706331207f02783b404c41c4aea1a6e33dceb2c28",
          "blockNumber": "0x22346d4",
          "blockTimestamp": "0x68bec696",
          "transactionHash": "0x578a82157a39a60721a2acc44bd1c20566e6216a33ea2d1b7beaaa04663d209c",
          "transactionIndex": "0x19",
          "logIndex": "0x3c",
          "removed": false
        }
      ],
      "logsBloom": "0x00000000000000000000000000000000000000000002000000000000000000000000000000000000000000000000000000000000000000000000020000000000000000000000000000000000000000000000000000000000000000000000000000000000000000000000000000000000000000000000000000000000000000000000000000000000000000000000000000000000000000020000000000000000000000000000000000000000000000000000000000000000000000000000000000000000000000000000000000000000000000000040000000000000000000000000000000000000000000000000000000000000000010000010000000000000",
      "type": "0x2",
      "transactionHash": "0x578a82157a39a60721a2acc44bd1c20566e6216a33ea2d1b7beaaa04663d209c",
      "transactionIndex": "0x19",
      "blockHash": "0x23f5553f3a67b72857018ad706331207f02783b404c41c4aea1a6e33dceb2c28",
      "blockNumber": "0x22346d4",
      "gasUsed": "0x156f8",
      "effectiveGasPrice": "0xba43b7401",
      "from": "0x56fd3f2bee130e9867942d0f463a16fbe49b8d81",
      "to": "0x388f2c53e77ef33111383a363e0b5fd976b18e74",
      "contractAddress": null
    },
    {
      "status": "0x1",
      "cumulativeGasUsed": "0x703ef5",
      "logs": [
        {
          "address": "0x388f2c53e77ef33111383a363e0b5fd976b18e74",
          "topics": [
            "0x1a082a1efaf1549c18917ddcb1f759680c29371609e24f4b946e93acf4ce5ad2"
          ],
          "data": "0xe8aecadc079c71e499fb1988f24806ea48e03b472829a165527bd80d856c3f7f000000000000000000000000ce1b285691b40f54762d69c40b24ec4c95add3fc000000000000000000000000000000000000000000000000000000000000012c000000000000000000000000000000000000000000000000000000000001518000000000000000000000000000000000000000000000000000000000001b09e000000000000000000000000000000000000000000000000000000000008731600000000000000000000000000000000000000000000000000000000002a3f6e00000000000000000000000000000000000000000000000000000000000000007",
          "blockHash": "0x23f5553f3a67b72857018ad706331207f02783b404c41c4aea1a6e33dceb2c28",
          "blockNumber": "0x22346d4",
          "blockTimestamp": "0x68bec696",
          "transactionHash": "0x54dd68c3c6baabb82f89a5a1391bcd0fbfcb773de9590f25d13f9d47921d70b9",
          "transactionIndex": "0x1a",
          "logIndex": "0x3d",
          "removed": false
        }
      ],
      "logsBloom": "0x00000000000000000000000000000000000000000002000000000000000000000000000000000000000000000000000000000000000000000000020000000000000000000000000000000000000000000000000000000000000000000000000000000000000000000000000000000000000000000000000000000000000000000000000000000000000000000000000000000000000000020000000000000000000000000000000000000000000000000000000000000000000000000000000000000000000000000000000000000000000000000040000000000000000000000000000000000000000000000000000000000000000010000010000000000000",
      "type": "0x2",
      "transactionHash": "0x54dd68c3c6baabb82f89a5a1391bcd0fbfcb773de9590f25d13f9d47921d70b9",
      "transactionIndex": "0x1a",
      "blockHash": "0x23f5553f3a67b72857018ad706331207f02783b404c41c4aea1a6e33dceb2c28",
      "blockNumber": "0x22346d4",
      "gasUsed": "0x16b37",
      "effectiveGasPrice": "0xba43b7401",
      "from": "0x56fd3f2bee130e9867942d0f463a16fbe49b8d81",
      "to": "0x388f2c53e77ef33111383a363e0b5fd976b18e74",
      "contractAddress": null
    },
    {
      "status": "0x1",
      "cumulativeGasUsed": "0x787d72",
      "logs": [
        {
          "address": "0x98c6d2a3a39ff5a2803240f597eb4c8ce76d36ab",
          "topics": [
            "0xb374789237d43aed0f75b4c50a45793fd70e354bb96eecd573f35f5d509d78a1",
            "0xf57e4020771fd78df1d99034f5f503d8c4886e428030f6b187fe1745122a0b02",
            "0x0000000000000000000000009e174bc09cedadc7a5e39ba1142b6d95365182cb",
            "0x000000000000000000000000afd756571b850b833ec0a1a66a69db30af95ee94"
          ],
          "data": "0x00000000000000000000000049503ffd8da325bfe52b8982a7f9c2e26643c276",
          "blockHash": "0x23f5553f3a67b72857018ad706331207f02783b404c41c4aea1a6e33dceb2c28",
          "blockNumber": "0x22346d4",
          "blockTimestamp": "0x68bec696",
          "transactionHash": "0x9313fd7da70171241be986c82aaa9ebc4e73d902ade8b0c537a09ae4fd4fa166",
          "transactionIndex": "0x1b",
          "logIndex": "0x3e",
          "removed": false
        }
      ],
      "logsBloom": "0x00000000000000000000000000002000000000000000004000000000000040000000000000000010000000000010000000000000000000000000000000000000000000000000000000000080000000000000000000000000000000000000000000000000400000400000000000000000000000000000000400000000000000000000000000000000000000000000000000000000000800000000000000000000000000000000000004000000200000000000000000000000000000000000000000000000000000000000000000000000000000000000000000000000000000000000000000000000000000400000000000000000000000008000000000000000",
      "type": "0x2",
      "transactionHash": "0x9313fd7da70171241be986c82aaa9ebc4e73d902ade8b0c537a09ae4fd4fa166",
      "transactionIndex": "0x1b",
      "blockHash": "0x23f5553f3a67b72857018ad706331207f02783b404c41c4aea1a6e33dceb2c28",
      "blockNumber": "0x22346d4",
      "gasUsed": "0x83e7d",
      "effectiveGasPrice": "0xba43b7401",
      "from": "0x56fd3f2bee130e9867942d0f463a16fbe49b8d81",
      "to": "0x98c6d2a3a39ff5a2803240f597eb4c8ce76d36ab",
      "contractAddress": null
    },
    {
      "status": "0x1",
      "cumulativeGasUsed": "0x79d46a",
      "logs": [
        {
          "address": "0x388f2c53e77ef33111383a363e0b5fd976b18e74",
          "topics": [
            "0x1a082a1efaf1549c18917ddcb1f759680c29371609e24f4b946e93acf4ce5ad2"
          ],
          "data": "0xf57e4020771fd78df1d99034f5f503d8c4886e428030f6b187fe1745122a0b020000000000000000000000009e174bc09cedadc7a5e39ba1142b6d95365182cb000000000000000000000000000000000000000000000000000000000000012c000000000000000000000000000000000000000000000000000000000001518000000000000000000000000000000000000000000000000000000000000186a0000000000000000000000000000000000000000000000000000000000007a12000000000000000000000000000000000000000000000000000000000002625a00000000000000000000000000000000000000000000000000000000000000007",
          "blockHash": "0x23f5553f3a67b72857018ad706331207f02783b404c41c4aea1a6e33dceb2c28",
          "blockNumber": "0x22346d4",
          "blockTimestamp": "0x68bec696",
          "transactionHash": "0x6dfb950f1a4951d6a584b31b3284ace3b224b857be29e43ed92fe79c9837c027",
          "transactionIndex": "0x1c",
          "logIndex": "0x3f",
          "removed": false
        }
      ],
      "logsBloom": "0x00000000000000000000000000000000000000000002000000000000000000000000000000000000000000000000000000000000000000000000020000000000000000000000000000000000000000000000000000000000000000000000000000000000000000000000000000000000000000000000000000000000000000000000000000000000000000000000000000000000000000020000000000000000000000000000000000000000000000000000000000000000000000000000000000000000000000000000000000000000000000000040000000000000000000000000000000000000000000000000000000000000000010000010000000000000",
      "type": "0x2",
      "transactionHash": "0x6dfb950f1a4951d6a584b31b3284ace3b224b857be29e43ed92fe79c9837c027",
      "transactionIndex": "0x1c",
      "blockHash": "0x23f5553f3a67b72857018ad706331207f02783b404c41c4aea1a6e33dceb2c28",
      "blockNumber": "0x22346d4",
      "gasUsed": "0x156f8",
      "effectiveGasPrice": "0xba43b7401",
      "from": "0x56fd3f2bee130e9867942d0f463a16fbe49b8d81",
      "to": "0x388f2c53e77ef33111383a363e0b5fd976b18e74",
      "contractAddress": null
    },
    {
      "status": "0x1",
      "cumulativeGasUsed": "0x7b2b62",
      "logs": [
        {
          "address": "0x388f2c53e77ef33111383a363e0b5fd976b18e74",
          "topics": [
            "0x1a082a1efaf1549c18917ddcb1f759680c29371609e24f4b946e93acf4ce5ad2"
          ],
          "data": "0xf57e4020771fd78df1d99034f5f503d8c4886e428030f6b187fe1745122a0b02000000000000000000000000afd756571b850b833ec0a1a66a69db30af95ee94000000000000000000000000000000000000000000000000000000000000012c000000000000000000000000000000000000000000000000000000000001518000000000000000000000000000000000000000000000000000000000000138800000000000000000000000000000000000000000000000000000000000061a8000000000000000000000000000000000000000000000000000000000001e84800000000000000000000000000000000000000000000000000000000000000007",
          "blockHash": "0x23f5553f3a67b72857018ad706331207f02783b404c41c4aea1a6e33dceb2c28",
          "blockNumber": "0x22346d4",
          "blockTimestamp": "0x68bec696",
          "transactionHash": "0x85a353a93701a776a4735b652dae2a3c48f9440e4f61be952f28bc3a1560fb94",
          "transactionIndex": "0x1d",
          "logIndex": "0x40",
          "removed": false
        }
      ],
      "logsBloom": "0x00000000000000000000000000000000000000000002000000000000000000000000000000000000000000000000000000000000000000000000020000000000000000000000000000000000000000000000000000000000000000000000000000000000000000000000000000000000000000000000000000000000000000000000000000000000000000000000000000000000000000020000000000000000000000000000000000000000000000000000000000000000000000000000000000000000000000000000000000000000000000000040000000000000000000000000000000000000000000000000000000000000000010000010000000000000",
      "type": "0x2",
      "transactionHash": "0x85a353a93701a776a4735b652dae2a3c48f9440e4f61be952f28bc3a1560fb94",
      "transactionIndex": "0x1d",
      "blockHash": "0x23f5553f3a67b72857018ad706331207f02783b404c41c4aea1a6e33dceb2c28",
      "blockNumber": "0x22346d4",
      "gasUsed": "0x156f8",
      "effectiveGasPrice": "0xba43b7401",
      "from": "0x56fd3f2bee130e9867942d0f463a16fbe49b8d81",
      "to": "0x388f2c53e77ef33111383a363e0b5fd976b18e74",
      "contractAddress": null
    },
    {
      "status": "0x1",
      "cumulativeGasUsed": "0x8369df",
      "logs": [
        {
          "address": "0x98c6d2a3a39ff5a2803240f597eb4c8ce76d36ab",
          "topics": [
            "0xb374789237d43aed0f75b4c50a45793fd70e354bb96eecd573f35f5d509d78a1",
            "0xe18089b08b31c64439612de898b855e9564a163c23b9f2af8047d8b137eb148a",
            "0x0000000000000000000000009e174bc09cedadc7a5e39ba1142b6d95365182cb",
            "0x000000000000000000000000ddcaf78d5bb0afe82ec022b7e58758ecc1c6f641"
          ],
          "data": "0x00000000000000000000000049503ffd8da325bfe52b8982a7f9c2e26643c276",
          "blockHash": "0x23f5553f3a67b72857018ad706331207f02783b404c41c4aea1a6e33dceb2c28",
          "blockNumber": "0x22346d4",
          "blockTimestamp": "0x68bec696",
          "transactionHash": "0xc0da1778e2fd9ca388c1b04816078e82f673564676c94dfd3942aa4082b24e46",
          "transactionIndex": "0x1e",
          "logIndex": "0x41",
          "removed": false
        }
      ],
      "logsBloom": "0x00000000000000000000000000000000000000000000004000000000000040000000000000000000000000000000000000000000000000000000000000002000000000000800000000000000000000000000000000000000000000000000000000000000400000400000000000000000000000000000000400000000000000000000000000000000000000000000000000000000000800000000000000000000000000000000000000001000200000000000000000000001000000000000000000000000000000000000000000000200000000000000080000000000000000000000000000000000000000400000000000000000000000008000000000000000",
      "type": "0x2",
      "transactionHash": "0xc0da1778e2fd9ca388c1b04816078e82f673564676c94dfd3942aa4082b24e46",
      "transactionIndex": "0x1e",
      "blockHash": "0x23f5553f3a67b72857018ad706331207f02783b404c41c4aea1a6e33dceb2c28",
      "blockNumber": "0x22346d4",
      "gasUsed": "0x83e7d",
      "effectiveGasPrice": "0xba43b7401",
      "from": "0x56fd3f2bee130e9867942d0f463a16fbe49b8d81",
      "to": "0x98c6d2a3a39ff5a2803240f597eb4c8ce76d36ab",
      "contractAddress": null
    },
    {
      "status": "0x1",
      "cumulativeGasUsed": "0x84c0d7",
      "logs": [
        {
          "address": "0x388f2c53e77ef33111383a363e0b5fd976b18e74",
          "topics": [
            "0x1a082a1efaf1549c18917ddcb1f759680c29371609e24f4b946e93acf4ce5ad2"
          ],
          "data": "0xe18089b08b31c64439612de898b855e9564a163c23b9f2af8047d8b137eb148a0000000000000000000000009e174bc09cedadc7a5e39ba1142b6d95365182cb000000000000000000000000000000000000000000000000000000000000012c000000000000000000000000000000000000000000000000000000000001518000000000000000000000000000000000000000000000000000000000000186a0000000000000000000000000000000000000000000000000000000000007a12000000000000000000000000000000000000000000000000000000000002625a00000000000000000000000000000000000000000000000000000000000000007",
          "blockHash": "0x23f5553f3a67b72857018ad706331207f02783b404c41c4aea1a6e33dceb2c28",
          "blockNumber": "0x22346d4",
          "blockTimestamp": "0x68bec696",
          "transactionHash": "0xa1a4df47ad858a9fe6a0c4ca5fc6616101e250924c3e7e6625798165357bbd3e",
          "transactionIndex": "0x1f",
          "logIndex": "0x42",
          "removed": false
        }
      ],
      "logsBloom": "0x00000000000000000000000000000000000000000002000000000000000000000000000000000000000000000000000000000000000000000000020000000000000000000000000000000000000000000000000000000000000000000000000000000000000000000000000000000000000000000000000000000000000000000000000000000000000000000000000000000000000000020000000000000000000000000000000000000000000000000000000000000000000000000000000000000000000000000000000000000000000000000040000000000000000000000000000000000000000000000000000000000000000010000010000000000000",
      "type": "0x2",
      "transactionHash": "0xa1a4df47ad858a9fe6a0c4ca5fc6616101e250924c3e7e6625798165357bbd3e",
      "transactionIndex": "0x1f",
      "blockHash": "0x23f5553f3a67b72857018ad706331207f02783b404c41c4aea1a6e33dceb2c28",
      "blockNumber": "0x22346d4",
      "gasUsed": "0x156f8",
      "effectiveGasPrice": "0xba43b7401",
      "from": "0x56fd3f2bee130e9867942d0f463a16fbe49b8d81",
      "to": "0x388f2c53e77ef33111383a363e0b5fd976b18e74",
      "contractAddress": null
    },
    {
      "status": "0x1",
      "cumulativeGasUsed": "0x8617f1",
      "logs": [
        {
          "address": "0x388f2c53e77ef33111383a363e0b5fd976b18e74",
          "topics": [
            "0x1a082a1efaf1549c18917ddcb1f759680c29371609e24f4b946e93acf4ce5ad2"
          ],
          "data": "0xe18089b08b31c64439612de898b855e9564a163c23b9f2af8047d8b137eb148a000000000000000000000000ddcaf78d5bb0afe82ec022b7e58758ecc1c6f641000000000000000000000000000000000000000000000000000000000000012c00000000000000000000000000000000000000000000000000000000000151800000000000000000000000000000000000000000000000000000000000e35b20000000000000000000000000000000000000000000000000000000000470c7a0000000000000000000000000000000000000000000000000000000001633e6200000000000000000000000000000000000000000000000000000000000000007",
          "blockHash": "0x23f5553f3a67b72857018ad706331207f02783b404c41c4aea1a6e33dceb2c28",
          "blockNumber": "0x22346d4",
          "blockTimestamp": "0x68bec696",
          "transactionHash": "0xe2d9489b87d153178d3736d99a556a3e56846270384f73e3c1c8dd6275654eb4",
          "transactionIndex": "0x20",
          "logIndex": "0x43",
          "removed": false
        }
      ],
      "logsBloom": "0x00000000000000000000000000000000000000000002000000000000000000000000000000000000000000000000000000000000000000000000020000000000000000000000000000000000000000000000000000000000000000000000000000000000000000000000000000000000000000000000000000000000000000000000000000000000000000000000000000000000000000020000000000000000000000000000000000000000000000000000000000000000000000000000000000000000000000000000000000000000000000000040000000000000000000000000000000000000000000000000000000000000000010000010000000000000",
      "type": "0x2",
      "transactionHash": "0xe2d9489b87d153178d3736d99a556a3e56846270384f73e3c1c8dd6275654eb4",
      "transactionIndex": "0x20",
      "blockHash": "0x23f5553f3a67b72857018ad706331207f02783b404c41c4aea1a6e33dceb2c28",
      "blockNumber": "0x22346d4",
      "gasUsed": "0x1571a",
      "effectiveGasPrice": "0xba43b7401",
      "from": "0x56fd3f2bee130e9867942d0f463a16fbe49b8d81",
      "to": "0x388f2c53e77ef33111383a363e0b5fd976b18e74",
      "contractAddress": null
    },
    {
      "status": "0x1",
      "cumulativeGasUsed": "0x608b5d",
      "logs": [
        {
          "address": "0x98c6d2a3a39ff5a2803240f597eb4c8ce76d36ab",
          "topics": [
            "0xb374789237d43aed0f75b4c50a45793fd70e354bb96eecd573f35f5d509d78a1",
            "0x34737a6b35a25ba8679874e532109434ce6dd0ac8c567a2095b9d0feff06d7b2",
            "0x0000000000000000000000009e174bc09cedadc7a5e39ba1142b6d95365182cb",
            "0x000000000000000000000000fbd6322586ae7c8f0776918e70b8eb169737ba57"
          ],
          "data": "0x00000000000000000000000049503ffd8da325bfe52b8982a7f9c2e26643c276",
          "blockHash": "0x4d892a673e223c49675233c5fff1313df30d399bfd0b9ce415d4c59b87a484ea",
          "blockNumber": "0x22346d9",
          "blockTimestamp": "0x68bec698",
          "transactionHash": "0xceb04c83213f8100cd1e63a55d7266fdcf5df4dc993c360ecda515d15b22a37a",
          "transactionIndex": "0x12",
          "logIndex": "0x40",
          "removed": false
        }
      ],
      "logsBloom": "0x00000000000000000000000000000000000000000000004000000000000041000000000000000000000000000000000000000000000000000000000000000000000000000000000000000000000000000000000000000000000000000000000000000000400000400000000000000000000000000000000400000000000000000000000000000000000000000000000000000000000810000000000000000000000000000000000000000000200000000000000000000000000000000000000000000000000000000000000000400000000000000000000000000000200000000000000000000000000000400000080000000000010000008000000000000000",
      "type": "0x2",
      "transactionHash": "0xceb04c83213f8100cd1e63a55d7266fdcf5df4dc993c360ecda515d15b22a37a",
      "transactionIndex": "0x12",
      "blockHash": "0x4d892a673e223c49675233c5fff1313df30d399bfd0b9ce415d4c59b87a484ea",
      "blockNumber": "0x22346d9",
      "gasUsed": "0x83e7d",
      "effectiveGasPrice": "0xba43b7401",
      "from": "0x56fd3f2bee130e9867942d0f463a16fbe49b8d81",
      "to": "0x98c6d2a3a39ff5a2803240f597eb4c8ce76d36ab",
      "contractAddress": null
    },
    {
      "status": "0x1",
      "cumulativeGasUsed": "0x690fa0",
      "logs": [
        {
          "address": "0x388f2c53e77ef33111383a363e0b5fd976b18e74",
          "topics": [
            "0x1a082a1efaf1549c18917ddcb1f759680c29371609e24f4b946e93acf4ce5ad2"
          ],
          "data": "0x34737a6b35a25ba8679874e532109434ce6dd0ac8c567a2095b9d0feff06d7b20000000000000000000000009e174bc09cedadc7a5e39ba1142b6d95365182cb000000000000000000000000000000000000000000000000000000000000012c0000000000000000000000000000000000000000000000000000000000015180000000000000000000000000000000000000000000000000000000000000c350000000000000000000000000000000000000000000000000000000000003d09000000000000000000000000000000000000000000000000000000000001312d00000000000000000000000000000000000000000000000000000000000000007",
          "blockHash": "0x4d892a673e223c49675233c5fff1313df30d399bfd0b9ce415d4c59b87a484ea",
          "blockNumber": "0x22346d9",
          "blockTimestamp": "0x68bec698",
          "transactionHash": "0xd9d0cad359b7748423b9d981bc105f96b09bf3a3ab988ddb42af2b973bfdc902",
          "transactionIndex": "0x16",
          "logIndex": "0x49",
          "removed": false
        }
      ],
      "logsBloom": "0x00000000000000000000000000000000000000000002000000000000000000000000000000000000000000000000000000000000000000000000020000000000000000000000000000000000000000000000000000000000000000000000000000000000000000000000000000000000000000000000000000000000000000000000000000000000000000000000000000000000000000020000000000000000000000000000000000000000000000000000000000000000000000000000000000000000000000000000000000000000000000000040000000000000000000000000000000000000000000000000000000000000000010000010000000000000",
      "type": "0x2",
      "transactionHash": "0xd9d0cad359b7748423b9d981bc105f96b09bf3a3ab988ddb42af2b973bfdc902",
      "transactionIndex": "0x16",
      "blockHash": "0x4d892a673e223c49675233c5fff1313df30d399bfd0b9ce415d4c59b87a484ea",
      "blockNumber": "0x22346d9",
      "gasUsed": "0x16b14",
      "effectiveGasPrice": "0xba43b7401",
      "from": "0x56fd3f2bee130e9867942d0f463a16fbe49b8d81",
      "to": "0x388f2c53e77ef33111383a363e0b5fd976b18e74",
      "contractAddress": null
    },
    {
      "status": "0x1",
      "cumulativeGasUsed": "0x6a66db",
      "logs": [
        {
          "address": "0x388f2c53e77ef33111383a363e0b5fd976b18e74",
          "topics": [
            "0x1a082a1efaf1549c18917ddcb1f759680c29371609e24f4b946e93acf4ce5ad2"
          ],
          "data": "0x34737a6b35a25ba8679874e532109434ce6dd0ac8c567a2095b9d0feff06d7b2000000000000000000000000fbd6322586ae7c8f0776918e70b8eb169737ba57000000000000000000000000000000000000000000000000000000000000012c0000000000000000000000000000000000000000000000000000000000015180000000000000000000000000000000000000000000000000000000000bf733b0000000000000000000000000000000000000000000000000000000003bd40270000000000000000000000000000000000000000000000000000000012b240c300000000000000000000000000000000000000000000000000000000000000007",
          "blockHash": "0x4d892a673e223c49675233c5fff1313df30d399bfd0b9ce415d4c59b87a484ea",
          "blockNumber": "0x22346d9",
          "blockTimestamp": "0x68bec698",
          "transactionHash": "0xb963b033c7d31c5c42ecad160eccbe3573dc4bebedc1a04d05613cc1ae3135ac",
          "transactionIndex": "0x17",
          "logIndex": "0x4a",
          "removed": false
        }
      ],
      "logsBloom": "0x00000000000000000000000000000000000000000002000000000000000000000000000000000000000000000000000000000000000000000000020000000000000000000000000000000000000000000000000000000000000000000000000000000000000000000000000000000000000000000000000000000000000000000000000000000000000000000000000000000000000000020000000000000000000000000000000000000000000000000000000000000000000000000000000000000000000000000000000000000000000000000040000000000000000000000000000000000000000000000000000000000000000010000010000000000000",
      "type": "0x2",
      "transactionHash": "0xb963b033c7d31c5c42ecad160eccbe3573dc4bebedc1a04d05613cc1ae3135ac",
      "transactionIndex": "0x17",
      "blockHash": "0x4d892a673e223c49675233c5fff1313df30d399bfd0b9ce415d4c59b87a484ea",
      "blockNumber": "0x22346d9",
      "gasUsed": "0x1573b",
      "effectiveGasPrice": "0xba43b7401",
      "from": "0x56fd3f2bee130e9867942d0f463a16fbe49b8d81",
      "to": "0x388f2c53e77ef33111383a363e0b5fd976b18e74",
      "contractAddress": null
    },
    {
      "status": "0x1",
      "cumulativeGasUsed": "0x72a558",
      "logs": [
        {
          "address": "0x98c6d2a3a39ff5a2803240f597eb4c8ce76d36ab",
          "topics": [
            "0xb374789237d43aed0f75b4c50a45793fd70e354bb96eecd573f35f5d509d78a1",
            "0xdb873c9488872f50c4047ab9ce46e8f75a341d9684b88d9c3a9a6b26027aca20",
            "0x0000000000000000000000009e174bc09cedadc7a5e39ba1142b6d95365182cb",
            "0x000000000000000000000000ce0da71375dbb11bd275307e735768acf78d2843"
          ],
          "data": "0x00000000000000000000000049503ffd8da325bfe52b8982a7f9c2e26643c276",
          "blockHash": "0x4d892a673e223c49675233c5fff1313df30d399bfd0b9ce415d4c59b87a484ea",
          "blockNumber": "0x22346d9",
          "blockTimestamp": "0x68bec698",
          "transactionHash": "0x2e135a8a30ca36dac23b9799f654d49dd80c7a9361d05314bc9d3e74fc384372",
          "transactionIndex": "0x18",
          "logIndex": "0x4b",
          "removed": false
        }
      ],
      "logsBloom": "0x00000000000000000020000000000000000000000000004000000000000040000000000000000000000004000000000000000000000000000000000000000000000000000000000000000000000000000000000000000000000000002000000000000000400000400000000000000000000000000000000400000000000000000000000000000000000000000000004000000000000800900000000000000000000000000000000000000000200000000000000000000000000000000000000000000000000000000000000000000000000000000000000000000000000000000000000000000000000000400000000000000000000000008000000000000000",
      "type": "0x2",
      "transactionHash": "0x2e135a8a30ca36dac23b9799f654d49dd80c7a9361d05314bc9d3e74fc384372",
      "transactionIndex": "0x18",
      "blockHash": "0x4d892a673e223c49675233c5fff1313df30d399bfd0b9ce415d4c59b87a484ea",
      "blockNumber": "0x22346d9",
      "gasUsed": "0x83e7d",
      "effectiveGasPrice": "0xba43b7401",
      "from": "0x56fd3f2bee130e9867942d0f463a16fbe49b8d81",
      "to": "0x98c6d2a3a39ff5a2803240f597eb4c8ce76d36ab",
      "contractAddress": null
    },
    {
      "status": "0x1",
      "cumulativeGasUsed": "0x73fc50",
      "logs": [
        {
          "address": "0x388f2c53e77ef33111383a363e0b5fd976b18e74",
          "topics": [
            "0x1a082a1efaf1549c18917ddcb1f759680c29371609e24f4b946e93acf4ce5ad2"
          ],
          "data": "0xdb873c9488872f50c4047ab9ce46e8f75a341d9684b88d9c3a9a6b26027aca200000000000000000000000009e174bc09cedadc7a5e39ba1142b6d95365182cb000000000000000000000000000000000000000000000000000000000000012c000000000000000000000000000000000000000000000000000000000001518000000000000000000000000000000000000000000000000000000000000186a0000000000000000000000000000000000000000000000000000000000007a12000000000000000000000000000000000000000000000000000000000002625a00000000000000000000000000000000000000000000000000000000000000007",
          "blockHash": "0x4d892a673e223c49675233c5fff1313df30d399bfd0b9ce415d4c59b87a484ea",
          "blockNumber": "0x22346d9",
          "blockTimestamp": "0x68bec698",
          "transactionHash": "0x6168bdb0d73d4d67eaded6db3eaabc51616023611e4dfef712a6976b58e95d73",
          "transactionIndex": "0x19",
          "logIndex": "0x4c",
          "removed": false
        }
      ],
      "logsBloom": "0x00000000000000000000000000000000000000000002000000000000000000000000000000000000000000000000000000000000000000000000020000000000000000000000000000000000000000000000000000000000000000000000000000000000000000000000000000000000000000000000000000000000000000000000000000000000000000000000000000000000000000020000000000000000000000000000000000000000000000000000000000000000000000000000000000000000000000000000000000000000000000000040000000000000000000000000000000000000000000000000000000000000000010000010000000000000",
      "type": "0x2",
      "transactionHash": "0x6168bdb0d73d4d67eaded6db3eaabc51616023611e4dfef712a6976b58e95d73",
      "transactionIndex": "0x19",
      "blockHash": "0x4d892a673e223c49675233c5fff1313df30d399bfd0b9ce415d4c59b87a484ea",
      "blockNumber": "0x22346d9",
      "gasUsed": "0x156f8",
      "effectiveGasPrice": "0xba43b7401",
      "from": "0x56fd3f2bee130e9867942d0f463a16fbe49b8d81",
      "to": "0x388f2c53e77ef33111383a363e0b5fd976b18e74",
      "contractAddress": null
    },
    {
      "status": "0x1",
      "cumulativeGasUsed": "0x5dff2d",
      "logs": [
        {
          "address": "0x388f2c53e77ef33111383a363e0b5fd976b18e74",
          "topics": [
            "0x1a082a1efaf1549c18917ddcb1f759680c29371609e24f4b946e93acf4ce5ad2"
          ],
          "data": "0xdb873c9488872f50c4047ab9ce46e8f75a341d9684b88d9c3a9a6b26027aca20000000000000000000000000ce0da71375dbb11bd275307e735768acf78d2843000000000000000000000000000000000000000000000000000000000000012c000000000000000000000000000000000000000000000000000000000001518000000000000000000000000000000000000000000000000000000000000850e800000000000000000000000000000000000000000000000000000000002994880000000000000000000000000000000000000000000000000000000000cfe6a80000000000000000000000000000000000000000000000000000000000000007",
          "blockHash": "0xd74e9f8e33778361f74fe46054046a948392e3d6f8aed2dbb522122ba7911e48",
          "blockNumber": "0x22346f3",
          "blockTimestamp": "0x68bec6a2",
          "transactionHash": "0xe76798bb721b891dd4f201588511cdaa62b4024f1c335c787cfbabe4d3996327",
          "transactionIndex": "0x22",
          "logIndex": "0x50",
          "removed": false
        }
      ],
      "logsBloom": "0x00000000000000000000000000000000000000000002000000000000000000000000000000000000000000000000000000000000000000000000020000000000000000000000000000000000000000000000000000000000000000000000000000000000000000000000000000000000000000000000000000000000000000000000000000000000000000000000000000000000000000020000000000000000000000000000000000000000000000000000000000000000000000000000000000000000000000000000000000000000000000000040000000000000000000000000000000000000000000000000000000000000000010000010000000000000",
      "type": "0x2",
      "transactionHash": "0xe76798bb721b891dd4f201588511cdaa62b4024f1c335c787cfbabe4d3996327",
      "transactionIndex": "0x22",
      "blockHash": "0xd74e9f8e33778361f74fe46054046a948392e3d6f8aed2dbb522122ba7911e48",
      "blockNumber": "0x22346f3",
      "gasUsed": "0x156f8",
      "effectiveGasPrice": "0xba43b7401",
      "from": "0x56fd3f2bee130e9867942d0f463a16fbe49b8d81",
      "to": "0x388f2c53e77ef33111383a363e0b5fd976b18e74",
      "contractAddress": null
    },
    {
      "status": "0x1",
      "cumulativeGasUsed": "0x66b9be",
      "logs": [
        {
          "address": "0x98c6d2a3a39ff5a2803240f597eb4c8ce76d36ab",
          "topics": [
            "0xb374789237d43aed0f75b4c50a45793fd70e354bb96eecd573f35f5d509d78a1",
            "0x5117b12cd22b5f67b1898f500c9622236edbd651a4d1f16e1a64eb1c39da6280",
            "0x0000000000000000000000009e174bc09cedadc7a5e39ba1142b6d95365182cb",
            "0x000000000000000000000000e3bdea6cd6ed7aafd5acb1e43d8777714ba31aca"
          ],
          "data": "0x00000000000000000000000049503ffd8da325bfe52b8982a7f9c2e26643c276",
          "blockHash": "0xd74e9f8e33778361f74fe46054046a948392e3d6f8aed2dbb522122ba7911e48",
          "blockNumber": "0x22346f3",
          "blockTimestamp": "0x68bec6a2",
          "transactionHash": "0xf5add2aac533daacd9037bbc079df051c40f2ed0d76ce597473ae8640b1651f5",
          "transactionIndex": "0x23",
          "logIndex": "0x51",
          "removed": false
        }
      ],
      "logsBloom": "0x00000000000000000000000000020000000000000000004000000000000040000000000000000000000000000000000000000000000000000000000000000000000400000000000000000000000000000000004000000000000000000000000000000200400000400000000000000000000000000000000400000000000000000000000000000000000000000000000000004000000800000000000000000000000000000000000000000000200000000000000000000000000000000000000000000000000000000000000000000000000000000000000000000000000000000000000000000000000000400000000000000000000000008400000000000000",
      "type": "0x2",
      "transactionHash": "0xf5add2aac533daacd9037bbc079df051c40f2ed0d76ce597473ae8640b1651f5",
      "transactionIndex": "0x23",
      "blockHash": "0xd74e9f8e33778361f74fe46054046a948392e3d6f8aed2dbb522122ba7911e48",
      "blockNumber": "0x22346f3",
      "gasUsed": "0x8ba91",
      "effectiveGasPrice": "0xba43b7401",
      "from": "0x56fd3f2bee130e9867942d0f463a16fbe49b8d81",
      "to": "0x98c6d2a3a39ff5a2803240f597eb4c8ce76d36ab",
      "contractAddress": null
    },
    {
      "status": "0x1",
      "cumulativeGasUsed": "0x3da305",
      "logs": [
        {
          "address": "0x388f2c53e77ef33111383a363e0b5fd976b18e74",
          "topics": [
            "0x1a082a1efaf1549c18917ddcb1f759680c29371609e24f4b946e93acf4ce5ad2"
          ],
          "data": "0x5117b12cd22b5f67b1898f500c9622236edbd651a4d1f16e1a64eb1c39da62800000000000000000000000009e174bc09cedadc7a5e39ba1142b6d95365182cb000000000000000000000000000000000000000000000000000000000000012c0000000000000000000000000000000000000000000000000000000000015180000000000000000000000000000000000000000000000000000000000000c350000000000000000000000000000000000000000000000000000000000003d09000000000000000000000000000000000000000000000000000000000001312d00000000000000000000000000000000000000000000000000000000000000007",
          "blockHash": "0xdd015634031c6f7e8c7919c5a1ec870a52467828fb75910e8a80855b4427ad74",
          "blockNumber": "0x22346fc",
          "blockTimestamp": "0x68bec6a8",
          "transactionHash": "0x70731f1289f64443d08bafb49ea86ef156b8179dd5fec2095b7340e99434e29e",
          "transactionIndex": "0x12",
          "logIndex": "0x34",
          "removed": false
        }
      ],
      "logsBloom": "0x00000000000000000000000000000000000000000002000000000000000000000000000000000000000000000000000000000000000000000000020000000000000000000000000000000000000000000000000000000000000000000000000000000000000000000000000000000000000000000000000000000000000000000000000000000000000000000000000000000000000000020000000000000000000000000000000000000000000000000000000000000000000000000000000000000000000000000000000000000000000000000040000000000000000000000000000000000000000000000000000000000000000010000010000000000000",
      "type": "0x2",
      "transactionHash": "0x70731f1289f64443d08bafb49ea86ef156b8179dd5fec2095b7340e99434e29e",
      "transactionIndex": "0x12",
      "blockHash": "0xdd015634031c6f7e8c7919c5a1ec870a52467828fb75910e8a80855b4427ad74",
      "blockNumber": "0x22346fc",
      "gasUsed": "0x16b14",
      "effectiveGasPrice": "0xba43b7401",
      "from": "0x56fd3f2bee130e9867942d0f463a16fbe49b8d81",
      "to": "0x388f2c53e77ef33111383a363e0b5fd976b18e74",
      "contractAddress": null
    },
    {
      "status": "0x1",
      "cumulativeGasUsed": "0x3ef9fd",
      "logs": [
        {
          "address": "0x388f2c53e77ef33111383a363e0b5fd976b18e74",
          "topics": [
            "0x1a082a1efaf1549c18917ddcb1f759680c29371609e24f4b946e93acf4ce5ad2"
          ],
          "data": "0x5117b12cd22b5f67b1898f500c9622236edbd651a4d1f16e1a64eb1c39da6280000000000000000000000000e3bdea6cd6ed7aafd5acb1e43d8777714ba31aca000000000000000000000000000000000000000000000000000000000000012c0000000000000000000000000000000000000000000000000000000000015180000000000000000000000000000000000000000000000000000000000009182000000000000000000000000000000000000000000000000000000000002d78a00000000000000000000000000000000000000000000000000000000000e35b200000000000000000000000000000000000000000000000000000000000000007",
          "blockHash": "0xdd015634031c6f7e8c7919c5a1ec870a52467828fb75910e8a80855b4427ad74",
          "blockNumber": "0x22346fc",
          "blockTimestamp": "0x68bec6a8",
          "transactionHash": "0xcd831ad0b88331909c9161bf15a4a3fb1c4d744e44d419bc6042a71d1ceb2081",
          "transactionIndex": "0x13",
          "logIndex": "0x35",
          "removed": false
        }
      ],
      "logsBloom": "0x00000000000000000000000000000000000000000002000000000000000000000000000000000000000000000000000000000000000000000000020000000000000000000000000000000000000000000000000000000000000000000000000000000000000000000000000000000000000000000000000000000000000000000000000000000000000000000000000000000000000000020000000000000000000000000000000000000000000000000000000000000000000000000000000000000000000000000000000000000000000000000040000000000000000000000000000000000000000000000000000000000000000010000010000000000000",
      "type": "0x2",
      "transactionHash": "0xcd831ad0b88331909c9161bf15a4a3fb1c4d744e44d419bc6042a71d1ceb2081",
      "transactionIndex": "0x13",
      "blockHash": "0xdd015634031c6f7e8c7919c5a1ec870a52467828fb75910e8a80855b4427ad74",
      "blockNumber": "0x22346fc",
      "gasUsed": "0x156f8",
      "effectiveGasPrice": "0xba43b7401",
      "from": "0x56fd3f2bee130e9867942d0f463a16fbe49b8d81",
      "to": "0x388f2c53e77ef33111383a363e0b5fd976b18e74",
      "contractAddress": null
    },
    {
      "status": "0x1",
      "cumulativeGasUsed": "0x76e36d",
      "logs": [
        {
          "address": "0x98c6d2a3a39ff5a2803240f597eb4c8ce76d36ab",
          "topics": [
            "0xb374789237d43aed0f75b4c50a45793fd70e354bb96eecd573f35f5d509d78a1",
            "0x28b69af87fd76c2764c7e022f37b6ee3ad6e448ef4d51747e08cd60260d61fa3",
            "0x0000000000000000000000009e174bc09cedadc7a5e39ba1142b6d95365182cb",
            "0x000000000000000000000000823756e447e4db92fd3a52bc5e210c4701e6ceba"
          ],
          "data": "0x00000000000000000000000049503ffd8da325bfe52b8982a7f9c2e26643c276",
          "blockHash": "0x84e5ca91d67a7f793541b33eed761e67e5f612be2c03730738ccd7d92de9fb78",
          "blockNumber": "0x2234776",
          "blockTimestamp": "0x68bec6da",
          "transactionHash": "0x98eff242eca4f4bf5c0047c2c374b3e92f98d95b10118c61afc332d71924a1c1",
          "transactionIndex": "0x20",
          "logIndex": "0x45",
          "removed": false
        }
      ],
      "logsBloom": "0x00000000000000000000000000000000000000040000004000000000000040000000000000000000000000000000000000000000000000000000000000000000000000100000000000000000000000000000000000040000000000000000000000000000400000400000000000000000000000000000000400000000000000000000000000000000100000000000000000000000000800100000000000000000000000000000000000000000200000000000000000000000000000000000000000000000000000000000000000000000000000000000000000000000000000000000000000000000000000400000000000000080000000008000000000000000",
      "type": "0x2",
      "transactionHash": "0x98eff242eca4f4bf5c0047c2c374b3e92f98d95b10118c61afc332d71924a1c1",
      "transactionIndex": "0x20",
      "blockHash": "0x84e5ca91d67a7f793541b33eed761e67e5f612be2c03730738ccd7d92de9fb78",
      "blockNumber": "0x2234776",
      "gasUsed": "0x8ba91",
      "effectiveGasPrice": "0xba43b7401",
      "from": "0x56fd3f2bee130e9867942d0f463a16fbe49b8d81",
      "to": "0x98c6d2a3a39ff5a2803240f597eb4c8ce76d36ab",
      "contractAddress": null
    },
    {
      "status": "0x1",
      "cumulativeGasUsed": "0x7dec5b",
      "logs": [
        {
          "address": "0x388f2c53e77ef33111383a363e0b5fd976b18e74",
          "topics": [
            "0x1a082a1efaf1549c18917ddcb1f759680c29371609e24f4b946e93acf4ce5ad2"
          ],
          "data": "0x28b69af87fd76c2764c7e022f37b6ee3ad6e448ef4d51747e08cd60260d61fa30000000000000000000000009e174bc09cedadc7a5e39ba1142b6d95365182cb000000000000000000000000000000000000000000000000000000000000012c0000000000000000000000000000000000000000000000000000000000015180000000000000000000000000000000000000000000000000000000000000c350000000000000000000000000000000000000000000000000000000000003d09000000000000000000000000000000000000000000000000000000000001312d00000000000000000000000000000000000000000000000000000000000000007",
          "blockHash": "0x84e5ca91d67a7f793541b33eed761e67e5f612be2c03730738ccd7d92de9fb78",
          "blockNumber": "0x2234776",
          "blockTimestamp": "0x68bec6da",
          "transactionHash": "0xd6bd6ae9a6f581b6cf9e62dadb3ee9df833565638d173db6c44a1a6d21e31944",
          "transactionIndex": "0x22",
          "logIndex": "0x4b",
          "removed": false
        }
      ],
      "logsBloom": "0x00000000000000000000000000000000000000000002000000000000000000000000000000000000000000000000000000000000000000000000020000000000000000000000000000000000000000000000000000000000000000000000000000000000000000000000000000000000000000000000000000000000000000000000000000000000000000000000000000000000000000020000000000000000000000000000000000000000000000000000000000000000000000000000000000000000000000000000000000000000000000000040000000000000000000000000000000000000000000000000000000000000000010000010000000000000",
      "type": "0x2",
      "transactionHash": "0xd6bd6ae9a6f581b6cf9e62dadb3ee9df833565638d173db6c44a1a6d21e31944",
      "transactionIndex": "0x22",
      "blockHash": "0x84e5ca91d67a7f793541b33eed761e67e5f612be2c03730738ccd7d92de9fb78",
      "blockNumber": "0x2234776",
      "gasUsed": "0x16b14",
      "effectiveGasPrice": "0xba43b7401",
      "from": "0x56fd3f2bee130e9867942d0f463a16fbe49b8d81",
      "to": "0x388f2c53e77ef33111383a363e0b5fd976b18e74",
      "contractAddress": null
    },
    {
      "status": "0x1",
      "cumulativeGasUsed": "0x7f57b5",
      "logs": [
        {
          "address": "0x388f2c53e77ef33111383a363e0b5fd976b18e74",
          "topics": [
            "0x1a082a1efaf1549c18917ddcb1f759680c29371609e24f4b946e93acf4ce5ad2"
          ],
          "data": "0x28b69af87fd76c2764c7e022f37b6ee3ad6e448ef4d51747e08cd60260d61fa3000000000000000000000000823756e447e4db92fd3a52bc5e210c4701e6ceba000000000000000000000000000000000000000000000000000000000000012c0000000000000000000000000000000000000000000000000000000000015180000000000000000000000000000000000000000000000000000000000490ced80000000000000000000000000000000000000000000000000000000016d40a3800000000000000000000000000000000000000000000000000000000722433180000000000000000000000000000000000000000000000000000000000000007",
          "blockHash": "0x84e5ca91d67a7f793541b33eed761e67e5f612be2c03730738ccd7d92de9fb78",
          "blockNumber": "0x2234776",
          "blockTimestamp": "0x68bec6da",
          "transactionHash": "0x7a9f8aa7604eb9831b1ef0e39a4b559519124c949731670ae54d8114f5ae6407",
          "transactionIndex": "0x23",
          "logIndex": "0x4c",
          "removed": false
        }
      ],
      "logsBloom": "0x00000000000000000000000000000000000000000002000000000000000000000000000000000000000000000000000000000000000000000000020000000000000000000000000000000000000000000000000000000000000000000000000000000000000000000000000000000000000000000000000000000000000000000000000000000000000000000000000000000000000000020000000000000000000000000000000000000000000000000000000000000000000000000000000000000000000000000000000000000000000000000040000000000000000000000000000000000000000000000000000000000000000010000010000000000000",
      "type": "0x2",
      "transactionHash": "0x7a9f8aa7604eb9831b1ef0e39a4b559519124c949731670ae54d8114f5ae6407",
      "transactionIndex": "0x23",
      "blockHash": "0x84e5ca91d67a7f793541b33eed761e67e5f612be2c03730738ccd7d92de9fb78",
      "blockNumber": "0x2234776",
      "gasUsed": "0x16b5a",
      "effectiveGasPrice": "0xba43b7401",
      "from": "0x56fd3f2bee130e9867942d0f463a16fbe49b8d81",
      "to": "0x388f2c53e77ef33111383a363e0b5fd976b18e74",
      "contractAddress": null
    },
    {
      "status": "0x1",
      "cumulativeGasUsed": "0x881246",
      "logs": [
        {
          "address": "0x98c6d2a3a39ff5a2803240f597eb4c8ce76d36ab",
          "topics": [
            "0xb374789237d43aed0f75b4c50a45793fd70e354bb96eecd573f35f5d509d78a1",
            "0x99903a787878c236d4fe73d0ea0c98064b57bc87f4bdc428a62e4592d30c19e0",
            "0x0000000000000000000000009e174bc09cedadc7a5e39ba1142b6d95365182cb",
            "0x00000000000000000000000066bff13aff22c31df7cd53707e645c9736a6637a"
          ],
          "data": "0x00000000000000000000000049503ffd8da325bfe52b8982a7f9c2e26643c276",
          "blockHash": "0x84e5ca91d67a7f793541b33eed761e67e5f612be2c03730738ccd7d92de9fb78",
          "blockNumber": "0x2234776",
          "blockTimestamp": "0x68bec6da",
          "transactionHash": "0x6f427cab5d79edf3b25a2c39de600baa3ba3b1db10ec9edb18b4204772d3647b",
          "transactionIndex": "0x24",
          "logIndex": "0x4d",
          "removed": false
        }
      ],
      "logsBloom": "0x00000000000000000000000000000000000000000000084008000000000040000000000000000000000000000010000000000000000000000000000001000000000000000000000004000000000000000000000000000000000000000000000000000000400000400000000000000000000000000000000400000000000000000000000000000000000000000000000000000000000800000000100000000000000000000000000000000000200000000000000000000000000000000000000000000000000000000000000000000000000000000000000000000000000000000000000000000000000000400000000000000000000000008000000000000000",
      "type": "0x2",
      "transactionHash": "0x6f427cab5d79edf3b25a2c39de600baa3ba3b1db10ec9edb18b4204772d3647b",
      "transactionIndex": "0x24",
      "blockHash": "0x84e5ca91d67a7f793541b33eed761e67e5f612be2c03730738ccd7d92de9fb78",
      "blockNumber": "0x2234776",
      "gasUsed": "0x8ba91",
      "effectiveGasPrice": "0xba43b7401",
      "from": "0x56fd3f2bee130e9867942d0f463a16fbe49b8d81",
      "to": "0x98c6d2a3a39ff5a2803240f597eb4c8ce76d36ab",
      "contractAddress": null
    },
    {
      "status": "0x1",
      "cumulativeGasUsed": "0x89693e",
      "logs": [
        {
          "address": "0x388f2c53e77ef33111383a363e0b5fd976b18e74",
          "topics": [
            "0x1a082a1efaf1549c18917ddcb1f759680c29371609e24f4b946e93acf4ce5ad2"
          ],
          "data": "0x99903a787878c236d4fe73d0ea0c98064b57bc87f4bdc428a62e4592d30c19e00000000000000000000000009e174bc09cedadc7a5e39ba1142b6d95365182cb000000000000000000000000000000000000000000000000000000000000012c000000000000000000000000000000000000000000000000000000000001518000000000000000000000000000000000000000000000000000000000000186a0000000000000000000000000000000000000000000000000000000000007a12000000000000000000000000000000000000000000000000000000000002625a00000000000000000000000000000000000000000000000000000000000000007",
          "blockHash": "0x84e5ca91d67a7f793541b33eed761e67e5f612be2c03730738ccd7d92de9fb78",
          "blockNumber": "0x2234776",
          "blockTimestamp": "0x68bec6da",
          "transactionHash": "0xa26677aa5dc7c2001ddee153d117fd74d97fd28ebb42f25ce44264b68c837aa9",
          "transactionIndex": "0x25",
          "logIndex": "0x4e",
          "removed": false
        }
      ],
      "logsBloom": "0x00000000000000000000000000000000000000000002000000000000000000000000000000000000000000000000000000000000000000000000020000000000000000000000000000000000000000000000000000000000000000000000000000000000000000000000000000000000000000000000000000000000000000000000000000000000000000000000000000000000000000020000000000000000000000000000000000000000000000000000000000000000000000000000000000000000000000000000000000000000000000000040000000000000000000000000000000000000000000000000000000000000000010000010000000000000",
      "type": "0x2",
      "transactionHash": "0xa26677aa5dc7c2001ddee153d117fd74d97fd28ebb42f25ce44264b68c837aa9",
      "transactionIndex": "0x25",
      "blockHash": "0x84e5ca91d67a7f793541b33eed761e67e5f612be2c03730738ccd7d92de9fb78",
      "blockNumber": "0x2234776",
      "gasUsed": "0x156f8",
      "effectiveGasPrice": "0xba43b7401",
      "from": "0x56fd3f2bee130e9867942d0f463a16fbe49b8d81",
      "to": "0x388f2c53e77ef33111383a363e0b5fd976b18e74",
      "contractAddress": null
    },
    {
      "status": "0x1",
      "cumulativeGasUsed": "0x8ac058",
      "logs": [
        {
          "address": "0x388f2c53e77ef33111383a363e0b5fd976b18e74",
          "topics": [
            "0x1a082a1efaf1549c18917ddcb1f759680c29371609e24f4b946e93acf4ce5ad2"
          ],
          "data": "0x99903a787878c236d4fe73d0ea0c98064b57bc87f4bdc428a62e4592d30c19e000000000000000000000000066bff13aff22c31df7cd53707e645c9736a6637a000000000000000000000000000000000000000000000000000000000000012c00000000000000000000000000000000000000000000000000000000000151800000000000000000000000000000000000000000000000000000000000c528a80000000000000000000000000000000000000000000000000000000003d9cb48000000000000000000000000000000000000000000000000000000001340f8680000000000000000000000000000000000000000000000000000000000000007",
          "blockHash": "0x84e5ca91d67a7f793541b33eed761e67e5f612be2c03730738ccd7d92de9fb78",
          "blockNumber": "0x2234776",
          "blockTimestamp": "0x68bec6da",
          "transactionHash": "0x7dbb900c172166e08608468f7d11181e1732fad0fadcb00d40c898da87ce7766",
          "transactionIndex": "0x26",
          "logIndex": "0x4f",
          "removed": false
        }
      ],
      "logsBloom": "0x00000000000000000000000000000000000000000002000000000000000000000000000000000000000000000000000000000000000000000000020000000000000000000000000000000000000000000000000000000000000000000000000000000000000000000000000000000000000000000000000000000000000000000000000000000000000000000000000000000000000000020000000000000000000000000000000000000000000000000000000000000000000000000000000000000000000000000000000000000000000000000040000000000000000000000000000000000000000000000000000000000000000010000010000000000000",
      "type": "0x2",
      "transactionHash": "0x7dbb900c172166e08608468f7d11181e1732fad0fadcb00d40c898da87ce7766",
      "transactionIndex": "0x26",
      "blockHash": "0x84e5ca91d67a7f793541b33eed761e67e5f612be2c03730738ccd7d92de9fb78",
      "blockNumber": "0x2234776",
      "gasUsed": "0x1571a",
      "effectiveGasPrice": "0xba43b7401",
      "from": "0x56fd3f2bee130e9867942d0f463a16fbe49b8d81",
      "to": "0x388f2c53e77ef33111383a363e0b5fd976b18e74",
      "contractAddress": null
    },
    {
      "status": "0x1",
      "cumulativeGasUsed": "0x481586",
      "logs": [
        {
          "address": "0x98c6d2a3a39ff5a2803240f597eb4c8ce76d36ab",
          "topics": [
            "0xb374789237d43aed0f75b4c50a45793fd70e354bb96eecd573f35f5d509d78a1",
            "0x4033fa45bb2569f1011bb158dc7b3ecc5958f0773d5a600923f1e8afc86d8413",
            "0x0000000000000000000000009e174bc09cedadc7a5e39ba1142b6d95365182cb",
            "0x000000000000000000000000cddb469d22f0a15be11d0acda962e2caacd52706"
          ],
          "data": "0x00000000000000000000000049503ffd8da325bfe52b8982a7f9c2e26643c276",
          "blockHash": "0x28612583ff65dd18eaefabb1aa83b722d7fd7e73d8f43ade35274f95d1914151",
          "blockNumber": "0x2234782",
          "blockTimestamp": "0x68bec6df",
          "transactionHash": "0x13bc454ea6e25e97ac30d92056d498104c86643d865b3ce8cdcd9405d0a16a9f",
          "transactionIndex": "0x1e",
          "logIndex": "0x29",
          "removed": false
        }
      ],
      "logsBloom": "0x00000000000000000000040000000000000000000000004000000100000040000000000000000000000000000000000000000000000000000000000000000000000000000000000000000010000000000000000000000000000000000008000000000000400000400000000000000000000000000000000400000000000000000000000000000000000000000000000000000000000800000000000000000000000000000000000000000000200000000010000000000000000000000000000000000000000000000000000000000000000000000000000000000000000000000000000000000000000000400000000000000000000000008000000000000008",
      "type": "0x2",
      "transactionHash": "0x13bc454ea6e25e97ac30d92056d498104c86643d865b3ce8cdcd9405d0a16a9f",
      "transactionIndex": "0x1e",
      "blockHash": "0x28612583ff65dd18eaefabb1aa83b722d7fd7e73d8f43ade35274f95d1914151",
      "blockNumber": "0x2234782",
      "gasUsed": "0x8ba91",
      "effectiveGasPrice": "0xba43b7401",
      "from": "0x56fd3f2bee130e9867942d0f463a16fbe49b8d81",
      "to": "0x98c6d2a3a39ff5a2803240f597eb4c8ce76d36ab",
      "contractAddress": null
    },
    {
      "status": "0x1",
      "cumulativeGasUsed": "0x587c9e",
      "logs": [
        {
          "address": "0x388f2c53e77ef33111383a363e0b5fd976b18e74",
          "topics": [
            "0x1a082a1efaf1549c18917ddcb1f759680c29371609e24f4b946e93acf4ce5ad2"
          ],
          "data": "0x4033fa45bb2569f1011bb158dc7b3ecc5958f0773d5a600923f1e8afc86d84130000000000000000000000009e174bc09cedadc7a5e39ba1142b6d95365182cb000000000000000000000000000000000000000000000000000000000000012c000000000000000000000000000000000000000000000000000000000001518000000000000000000000000000000000000000000000000000000000000186a0000000000000000000000000000000000000000000000000000000000007a12000000000000000000000000000000000000000000000000000000000002625a00000000000000000000000000000000000000000000000000000000000000007",
          "blockHash": "0x28612583ff65dd18eaefabb1aa83b722d7fd7e73d8f43ade35274f95d1914151",
          "blockNumber": "0x2234782",
          "blockTimestamp": "0x68bec6df",
          "transactionHash": "0xcf9a2ecbecc37777e48bbaeae129e90a2da1819df225bafe83d62373efde3b4b",
          "transactionIndex": "0x22",
          "logIndex": "0x3a",
          "removed": false
        }
      ],
      "logsBloom": "0x00000000000000000000000000000000000000000002000000000000000000000000000000000000000000000000000000000000000000000000020000000000000000000000000000000000000000000000000000000000000000000000000000000000000000000000000000000000000000000000000000000000000000000000000000000000000000000000000000000000000000020000000000000000000000000000000000000000000000000000000000000000000000000000000000000000000000000000000000000000000000000040000000000000000000000000000000000000000000000000000000000000000010000010000000000000",
      "type": "0x2",
      "transactionHash": "0xcf9a2ecbecc37777e48bbaeae129e90a2da1819df225bafe83d62373efde3b4b",
      "transactionIndex": "0x22",
      "blockHash": "0x28612583ff65dd18eaefabb1aa83b722d7fd7e73d8f43ade35274f95d1914151",
      "blockNumber": "0x2234782",
      "gasUsed": "0x156f8",
      "effectiveGasPrice": "0xba43b7401",
      "from": "0x56fd3f2bee130e9867942d0f463a16fbe49b8d81",
      "to": "0x388f2c53e77ef33111383a363e0b5fd976b18e74",
      "contractAddress": null
    },
    {
      "status": "0x1",
      "cumulativeGasUsed": "0x59d3b8",
      "logs": [
        {
          "address": "0x388f2c53e77ef33111383a363e0b5fd976b18e74",
          "topics": [
            "0x1a082a1efaf1549c18917ddcb1f759680c29371609e24f4b946e93acf4ce5ad2"
          ],
          "data": "0x4033fa45bb2569f1011bb158dc7b3ecc5958f0773d5a600923f1e8afc86d8413000000000000000000000000cddb469d22f0a15be11d0acda962e2caacd52706000000000000000000000000000000000000000000000000000000000000012c000000000000000000000000000000000000000000000000000000000001518000000000000000000000000000000000000000000000000000000000005795e00000000000000000000000000000000000000000000000000000000001b5ed6000000000000000000000000000000000000000000000000000000000088da2e00000000000000000000000000000000000000000000000000000000000000007",
          "blockHash": "0x28612583ff65dd18eaefabb1aa83b722d7fd7e73d8f43ade35274f95d1914151",
          "blockNumber": "0x2234782",
          "blockTimestamp": "0x68bec6df",
          "transactionHash": "0xf891a3d4e9aabd8b6965bc616c113f3dcb1a01e7298a5e5a6be37e15109dfab7",
          "transactionIndex": "0x23",
          "logIndex": "0x3b",
          "removed": false
        }
      ],
      "logsBloom": "0x00000000000000000000000000000000000000000002000000000000000000000000000000000000000000000000000000000000000000000000020000000000000000000000000000000000000000000000000000000000000000000000000000000000000000000000000000000000000000000000000000000000000000000000000000000000000000000000000000000000000000020000000000000000000000000000000000000000000000000000000000000000000000000000000000000000000000000000000000000000000000000040000000000000000000000000000000000000000000000000000000000000000010000010000000000000",
      "type": "0x2",
      "transactionHash": "0xf891a3d4e9aabd8b6965bc616c113f3dcb1a01e7298a5e5a6be37e15109dfab7",
      "transactionIndex": "0x23",
      "blockHash": "0x28612583ff65dd18eaefabb1aa83b722d7fd7e73d8f43ade35274f95d1914151",
      "blockNumber": "0x2234782",
      "gasUsed": "0x1571a",
      "effectiveGasPrice": "0xba43b7401",
      "from": "0x56fd3f2bee130e9867942d0f463a16fbe49b8d81",
      "to": "0x388f2c53e77ef33111383a363e0b5fd976b18e74",
      "contractAddress": null
    },
    {
      "status": "0x1",
      "cumulativeGasUsed": "0x3ce1fd",
      "logs": [
        {
          "address": "0x98c6d2a3a39ff5a2803240f597eb4c8ce76d36ab",
          "topics": [
            "0xb374789237d43aed0f75b4c50a45793fd70e354bb96eecd573f35f5d509d78a1",
            "0xb947832f187a2fc262902bc762d0288b5dc4abb9df1d6c79129ba0a8dc5ed26d",
            "0x0000000000000000000000009e174bc09cedadc7a5e39ba1142b6d95365182cb",
            "0x000000000000000000000000ecdb02e9ce57d3b7a523bb7bf539e9e5ffac3329"
          ],
          "data": "0x00000000000000000000000049503ffd8da325bfe52b8982a7f9c2e26643c276",
          "blockHash": "0x545ff138768945da533a68d6f3832e67ff1bb0272dbea7a2a330b4ac502280e2",
          "blockNumber": "0x2234788",
          "blockTimestamp": "0x68bec6e2",
          "transactionHash": "0x440c039c655ccf5ea24b499e2ee326e33ce9898fc33cdc67cf5608120d59d3c5",
          "transactionIndex": "0x22",
          "logIndex": "0x2e",
          "removed": false
        }
      ],
      "logsBloom": "0x00800000000000000000000000000000000000000000006000000000000040000000000000000000000000000000000000000000000000000000000000000000000000000000000000000000000000000000000000000000000000000100000000000000400000400000000000000000000000000000000400000000000000000000000000000000001000000000000000000000000800000000000000000000000000000000000000000000200000000000000000000000000000000000000000000000000000000000000000000000000000000000000000000000000000000000000000000000000000400000000000000080000000008000000000000080",
      "type": "0x2",
      "transactionHash": "0x440c039c655ccf5ea24b499e2ee326e33ce9898fc33cdc67cf5608120d59d3c5",
      "transactionIndex": "0x22",
      "blockHash": "0x545ff138768945da533a68d6f3832e67ff1bb0272dbea7a2a330b4ac502280e2",
      "blockNumber": "0x2234788",
      "gasUsed": "0x8ba91",
      "effectiveGasPrice": "0xba43b7401",
      "from": "0x56fd3f2bee130e9867942d0f463a16fbe49b8d81",
      "to": "0x98c6d2a3a39ff5a2803240f597eb4c8ce76d36ab",
      "contractAddress": null
    },
    {
      "status": "0x1",
      "cumulativeGasUsed": "0x40eecb",
      "logs": [
        {
          "address": "0x388f2c53e77ef33111383a363e0b5fd976b18e74",
          "topics": [
            "0x1a082a1efaf1549c18917ddcb1f759680c29371609e24f4b946e93acf4ce5ad2"
          ],
          "data": "0xb947832f187a2fc262902bc762d0288b5dc4abb9df1d6c79129ba0a8dc5ed26d0000000000000000000000009e174bc09cedadc7a5e39ba1142b6d95365182cb000000000000000000000000000000000000000000000000000000000000012c0000000000000000000000000000000000000000000000000000000000015180000000000000000000000000000000000000000000000000000000000000c350000000000000000000000000000000000000000000000000000000000003d09000000000000000000000000000000000000000000000000000000000001312d00000000000000000000000000000000000000000000000000000000000000007",
          "blockHash": "0x545ff138768945da533a68d6f3832e67ff1bb0272dbea7a2a330b4ac502280e2",
          "blockNumber": "0x2234788",
          "blockTimestamp": "0x68bec6e2",
          "transactionHash": "0x1e3e40b006991b85974e3ceef3bb5c81341dd258497dd0bb9ab7cccb729538e7",
          "transactionIndex": "0x24",
          "logIndex": "0x37",
          "removed": false
        }
      ],
      "logsBloom": "0x00000000000000000000000000000000000000000002000000000000000000000000000000000000000000000000000000000000000000000000020000000000000000000000000000000000000000000000000000000000000000000000000000000000000000000000000000000000000000000000000000000000000000000000000000000000000000000000000000000000000000020000000000000000000000000000000000000000000000000000000000000000000000000000000000000000000000000000000000000000000000000040000000000000000000000000000000000000000000000000000000000000000010000010000000000000",
      "type": "0x2",
      "transactionHash": "0x1e3e40b006991b85974e3ceef3bb5c81341dd258497dd0bb9ab7cccb729538e7",
      "transactionIndex": "0x24",
      "blockHash": "0x545ff138768945da533a68d6f3832e67ff1bb0272dbea7a2a330b4ac502280e2",
      "blockNumber": "0x2234788",
      "gasUsed": "0x16b14",
      "effectiveGasPrice": "0xba43b7401",
      "from": "0x56fd3f2bee130e9867942d0f463a16fbe49b8d81",
      "to": "0x388f2c53e77ef33111383a363e0b5fd976b18e74",
      "contractAddress": null
    },
    {
      "status": "0x1",
      "cumulativeGasUsed": "0x425a25",
      "logs": [
        {
          "address": "0x388f2c53e77ef33111383a363e0b5fd976b18e74",
          "topics": [
            "0x1a082a1efaf1549c18917ddcb1f759680c29371609e24f4b946e93acf4ce5ad2"
          ],
          "data": "0xb947832f187a2fc262902bc762d0288b5dc4abb9df1d6c79129ba0a8dc5ed26d000000000000000000000000ecdb02e9ce57d3b7a523bb7bf539e9e5ffac3329000000000000000000000000000000000000000000000000000000000000012c00000000000000000000000000000000000000000000000000000000000151800000000000000000000000000000000000000000000000000000000001ab98d8000000000000000000000000000000000000000000000000000000000859fc380000000000000000000000000000000000000000000000000000000029c1ed180000000000000000000000000000000000000000000000000000000000000007",
          "blockHash": "0x545ff138768945da533a68d6f3832e67ff1bb0272dbea7a2a330b4ac502280e2",
          "blockNumber": "0x2234788",
          "blockTimestamp": "0x68bec6e2",
          "transactionHash": "0x40c5cc094da51bdb470d7b6d3b3ab3577135d5c08200a9f61ff384297ca47156",
          "transactionIndex": "0x25",
          "logIndex": "0x38",
          "removed": false
        }
      ],
      "logsBloom": "0x00000000000000000000000000000000000000000002000000000000000000000000000000000000000000000000000000000000000000000000020000000000000000000000000000000000000000000000000000000000000000000000000000000000000000000000000000000000000000000000000000000000000000000000000000000000000000000000000000000000000000020000000000000000000000000000000000000000000000000000000000000000000000000000000000000000000000000000000000000000000000000040000000000000000000000000000000000000000000000000000000000000000010000010000000000000",
      "type": "0x2",
      "transactionHash": "0x40c5cc094da51bdb470d7b6d3b3ab3577135d5c08200a9f61ff384297ca47156",
      "transactionIndex": "0x25",
      "blockHash": "0x545ff138768945da533a68d6f3832e67ff1bb0272dbea7a2a330b4ac502280e2",
      "blockNumber": "0x2234788",
      "gasUsed": "0x16b5a",
      "effectiveGasPrice": "0xba43b7401",
      "from": "0x56fd3f2bee130e9867942d0f463a16fbe49b8d81",
      "to": "0x388f2c53e77ef33111383a363e0b5fd976b18e74",
      "contractAddress": null
    }
  ],
  "libraries": [
    "node_modules/@celo/contracts/common/linkedlists/AddressSortedLinkedListWithMedian.sol:AddressSortedLinkedListWithMedian:0xcB985Be7a200D0075155AC2697D6D5F00267a11b"
  ],
  "pending": [],
  "returns": {},
  "timestamp": 1757333219327,
  "chain": 10143,
  "commit": "cf21763"
}