{
  "transactions": [
    {
      "hash": "0x9f4cd4b5b7b2eb9f7683a12498155c3f31d61c4381bb14cf353fd53205e78fbe",
      "transactionType": "CALL",
      "contractName": null,
      "contractAddress": "0x98c6d2a3a39ff5a2803240f597eb4c8ce76d36ab",
      "function": "createExchange((address,address,address,uint256,uint256,uint256,((uint256),address,uint256,uint256,uint256)))",
      "arguments": [
        "(0x9E174bc09cEdaDc7a5e39Ba1142b6d95365182CB, 0xf817257fed379853cDe0fa4F97AB987181B1E5Ea, 0x49503Ffd8da325BfE52B8982A7f9c2E26643c276, 0, 0, 0, ((0), 0x81a313Ff894BFC6093d33b5514E34D7FAA41B7eF, 360, 1, 12000000000000000000000000))"
      ],
      "transaction": {
        "from": "0x56fd3f2bee130e9867942d0f463a16fbe49b8d81",
        "to": "0x98c6d2a3a39ff5a2803240f597eb4c8ce76d36ab",
        "gas": "0x89575",
        "value": "0x0",
        "input": "0xb08986910000000000000000000000009e174bc09cedadc7a5e39ba1142b6d95365182cb000000000000000000000000f817257fed379853cde0fa4f97ab987181b1e5ea00000000000000000000000049503ffd8da325bfe52b8982a7f9c2e26643c276000000000000000000000000000000000000000000000000000000000000000000000000000000000000000000000000000000000000000000000000000000000000000000000000000000000000000000000000000000000000000000000000000000000000000000000000000000000000000000000000000000000000000000000000000000000000000081a313ff894bfc6093d33b5514e34d7faa41b7ef0000000000000000000000000000000000000000000000000000000000000168000000000000000000000000000000000000000000000000000000000000000100000000000000000000000000000000000000000009ed194db19b238c000000",
        "nonce": "0x121",
        "chainId": "0x279f"
      },
      "additionalContracts": [],
      "isFixedGasLimit": false
    },
    {
      "hash": "0x74473e52413326dd01510c556e29c33b6acf672b8a81c225cf6c6f0522d76849",
      "transactionType": "CALL",
      "contractName": null,
      "contractAddress": "0x388f2c53e77ef33111383a363e0b5fd976b18e74",
      "function": "configureTradingLimit(bytes32,address,(uint32,uint32,int48,int48,int48,uint8))",
      "arguments": [
        "0x1dd1d4a1c823d13a0b425f67f38f882c3369d05b67e9b3ba1d561d1d9443651e",
        "0x9E174bc09cEdaDc7a5e39Ba1142b6d95365182CB",
        "(300, 86400, 2500000, 5000000, 0, 3)"
      ],
      "transaction": {
        "from": "0x56fd3f2bee130e9867942d0f463a16fbe49b8d81",
        "to": "0x388f2c53e77ef33111383a363e0b5fd976b18e74",
        "gas": "0xeada",
        "value": "0x0",
        "input": "0xa9b5aab31dd1d4a1c823d13a0b425f67f38f882c3369d05b67e9b3ba1d561d1d9443651e0000000000000000000000009e174bc09cedadc7a5e39ba1142b6d95365182cb000000000000000000000000000000000000000000000000000000000000012c000000000000000000000000000000000000000000000000000000000001518000000000000000000000000000000000000000000000000000000000002625a000000000000000000000000000000000000000000000000000000000004c4b4000000000000000000000000000000000000000000000000000000000000000000000000000000000000000000000000000000000000000000000000000000003",
        "nonce": "0x122",
        "chainId": "0x279f"
      },
      "additionalContracts": [],
      "isFixedGasLimit": false
    },
    {
      "hash": "0xcbabacb236da83a3f9270a38abfeb8952fd233cb74dd391b6c8e1364f7c3a07b",
      "transactionType": "CALL",
      "contractName": null,
      "contractAddress": "0x98c6d2a3a39ff5a2803240f597eb4c8ce76d36ab",
      "function": "createExchange((address,address,address,uint256,uint256,uint256,((uint256),address,uint256,uint256,uint256)))",
      "arguments": [
        "(0x9E174bc09cEdaDc7a5e39Ba1142b6d95365182CB, 0x88b8E2161DEDC77EF4ab7585569D2415a1C1055D, 0x49503Ffd8da325BfE52B8982A7f9c2E26643c276, 0, 0, 0, ((0), 0xAc414205651F4a62B614b6BE9e5318a182C33EB0, 360, 1, 12000000000000000000000000))"
      ],
      "transaction": {
        "from": "0x56fd3f2bee130e9867942d0f463a16fbe49b8d81",
        "to": "0x98c6d2a3a39ff5a2803240f597eb4c8ce76d36ab",
        "gas": "0x7bf1c",
        "value": "0x0",
        "input": "0xb08986910000000000000000000000009e174bc09cedadc7a5e39ba1142b6d95365182cb00000000000000000000000088b8e2161dedc77ef4ab7585569d2415a1c1055d00000000000000000000000049503ffd8da325bfe52b8982a7f9c2e26643c2760000000000000000000000000000000000000000000000000000000000000000000000000000000000000000000000000000000000000000000000000000000000000000000000000000000000000000000000000000000000000000000000000000000000000000000000000000000000000000000000000000000000000000000000000000000000000000ac414205651f4a62b614b6be9e5318a182c33eb00000000000000000000000000000000000000000000000000000000000000168000000000000000000000000000000000000000000000000000000000000000100000000000000000000000000000000000000000009ed194db19b238c000000",
        "nonce": "0x123",
        "chainId": "0x279f"
      },
      "additionalContracts": [],
      "isFixedGasLimit": false
    },
    {
      "hash": "0xdb4591573fe83b5d539c57fb2c67f8b7fbbbf5faffd30448b6df01bd9fe9fc65",
      "transactionType": "CALL",
      "contractName": null,
      "contractAddress": "0x388f2c53e77ef33111383a363e0b5fd976b18e74",
      "function": "configureTradingLimit(bytes32,address,(uint32,uint32,int48,int48,int48,uint8))",
      "arguments": [
        "0x09c52cc74e3ab4c6a0fbdecf0b859ecc63ba2dbec3861bfc87495fdf80d71cd9",
        "0x9E174bc09cEdaDc7a5e39Ba1142b6d95365182CB",
        "(300, 86400, 2500000, 5000000, 0, 3)"
      ],
      "transaction": {
        "from": "0x56fd3f2bee130e9867942d0f463a16fbe49b8d81",
        "to": "0x388f2c53e77ef33111383a363e0b5fd976b18e74",
        "gas": "0xeada",
        "value": "0x0",
        "input": "0xa9b5aab309c52cc74e3ab4c6a0fbdecf0b859ecc63ba2dbec3861bfc87495fdf80d71cd90000000000000000000000009e174bc09cedadc7a5e39ba1142b6d95365182cb000000000000000000000000000000000000000000000000000000000000012c000000000000000000000000000000000000000000000000000000000001518000000000000000000000000000000000000000000000000000000000002625a000000000000000000000000000000000000000000000000000000000004c4b4000000000000000000000000000000000000000000000000000000000000000000000000000000000000000000000000000000000000000000000000000000003",
        "nonce": "0x124",
        "chainId": "0x279f"
      },
      "additionalContracts": [],
      "isFixedGasLimit": false
    },
    {
      "hash": "0x2f96d90a281c28ef5c2f471f0b5f097350793d60a3679f72c6de9c21dee3da9d",
      "transactionType": "CALL",
      "contractName": null,
      "contractAddress": "0x98c6d2a3a39ff5a2803240f597eb4c8ce76d36ab",
      "function": "createExchange((address,address,address,uint256,uint256,uint256,((uint256),address,uint256,uint256,uint256)))",
      "arguments": [
        "(0x9E174bc09cEdaDc7a5e39Ba1142b6d95365182CB, 0xb5a31A69b58b3B3A61C8704B489F53d6b79016c4, 0x49503Ffd8da325BfE52B8982A7f9c2E26643c276, 0, 0, 0, ((500000000000000000000000), 0xEc57482AA55e3ad026C315A0e4A692B776C318cA, 360, 1, 10000000000000000000000000))"
      ],
      "transaction": {
        "from": "0x56fd3f2bee130e9867942d0f463a16fbe49b8d81",
        "to": "0x98c6d2a3a39ff5a2803240f597eb4c8ce76d36ab",
        "gas": "0x848f3",
        "value": "0x0",
        "input": "0xb08986910000000000000000000000009e174bc09cedadc7a5e39ba1142b6d95365182cb000000000000000000000000b5a31a69b58b3b3a61c8704b489f53d6b79016c400000000000000000000000049503ffd8da325bfe52b8982a7f9c2e26643c2760000000000000000000000000000000000000000000000000000000000000000000000000000000000000000000000000000000000000000000000000000000000000000000000000000000000000000000000000000000000000000000000000000000000000000000000000000000000000000000069e10de76676d0800000000000000000000000000000ec57482aa55e3ad026c315a0e4a692b776c318ca00000000000000000000000000000000000000000000000000000000000001680000000000000000000000000000000000000000000000000000000000000001000000000000000000000000000000000000000000084595161401484a000000",
        "nonce": "0x125",
        "chainId": "0x279f"
      },
      "additionalContracts": [],
      "isFixedGasLimit": false
    },
    {
      "hash": "0x0dbd7296ab46ec5a99f219a444381de9c026caa6c98fbf522fb4b926297b30e3",
      "transactionType": "CALL",
      "contractName": null,
      "contractAddress": "0x388f2c53e77ef33111383a363e0b5fd976b18e74",
      "function": "configureTradingLimit(bytes32,address,(uint32,uint32,int48,int48,int48,uint8))",
      "arguments": [
        "0x74347ad8b811b2ca1cfbc092ee1f48203e0add8c0c4c4760d66868b46a42af81",
        "0x9E174bc09cEdaDc7a5e39Ba1142b6d95365182CB",
        "(300, 86400, 100000, 500000, 2500000, 7)"
      ],
      "transaction": {
        "from": "0x56fd3f2bee130e9867942d0f463a16fbe49b8d81",
        "to": "0x388f2c53e77ef33111383a363e0b5fd976b18e74",
        "gas": "0xf976",
        "value": "0x0",
        "input": "0xa9b5aab374347ad8b811b2ca1cfbc092ee1f48203e0add8c0c4c4760d66868b46a42af810000000000000000000000009e174bc09cedadc7a5e39ba1142b6d95365182cb000000000000000000000000000000000000000000000000000000000000012c000000000000000000000000000000000000000000000000000000000001518000000000000000000000000000000000000000000000000000000000000186a0000000000000000000000000000000000000000000000000000000000007a12000000000000000000000000000000000000000000000000000000000002625a00000000000000000000000000000000000000000000000000000000000000007",
        "nonce": "0x126",
        "chainId": "0x279f"
      },
      "additionalContracts": [],
      "isFixedGasLimit": false
    },
    {
      "hash": "0x67cd1f8cc67f966a9229bc4d6322ef517bc756c17bf4027581d460fdf55f4fe7",
      "transactionType": "CALL",
      "contractName": null,
      "contractAddress": "0x388f2c53e77ef33111383a363e0b5fd976b18e74",
      "function": "configureTradingLimit(bytes32,address,(uint32,uint32,int48,int48,int48,uint8))",
      "arguments": [
        "0x74347ad8b811b2ca1cfbc092ee1f48203e0add8c0c4c4760d66868b46a42af81",
        "0xb5a31A69b58b3B3A61C8704B489F53d6b79016c4",
        "(300, 86400, 86000, 430000, 2150000, 7)"
      ],
      "transaction": {
        "from": "0x56fd3f2bee130e9867942d0f463a16fbe49b8d81",
        "to": "0x388f2c53e77ef33111383a363e0b5fd976b18e74",
        "gas": "0xf976",
        "value": "0x0",
        "input": "0xa9b5aab374347ad8b811b2ca1cfbc092ee1f48203e0add8c0c4c4760d66868b46a42af81000000000000000000000000b5a31a69b58b3b3a61c8704b489f53d6b79016c4000000000000000000000000000000000000000000000000000000000000012c00000000000000000000000000000000000000000000000000000000000151800000000000000000000000000000000000000000000000000000000000014ff00000000000000000000000000000000000000000000000000000000000068fb0000000000000000000000000000000000000000000000000000000000020ce700000000000000000000000000000000000000000000000000000000000000007",
        "nonce": "0x127",
        "chainId": "0x279f"
      },
      "additionalContracts": [],
      "isFixedGasLimit": false
    },
    {
      "hash": "0xba844578c51675a853d3b97e5b4a955432a47aa7bdb5243aaaf5c33c9952eefa",
      "transactionType": "CALL",
      "contractName": null,
      "contractAddress": "0x98c6d2a3a39ff5a2803240f597eb4c8ce76d36ab",
      "function": "createExchange((address,address,address,uint256,uint256,uint256,((uint256),address,uint256,uint256,uint256)))",
      "arguments": [
        "(0x9E174bc09cEdaDc7a5e39Ba1142b6d95365182CB, 0x109902563DaA6D404F9d30981D03D7070B96E1C8, 0x49503Ffd8da325BfE52B8982A7f9c2E26643c276, 0, 0, 0, ((150000000000000000000000), 0x5c0C9EfB14A767ce50A687AC4658CcE705407380, 360, 1, 10000000000000000000000000))"
      ],
      "transaction": {
        "from": "0x56fd3f2bee130e9867942d0f463a16fbe49b8d81",
        "to": "0x98c6d2a3a39ff5a2803240f597eb4c8ce76d36ab",
        "gas": "0x848f3",
        "value": "0x0",
        "input": "0xb08986910000000000000000000000009e174bc09cedadc7a5e39ba1142b6d95365182cb000000000000000000000000109902563daa6d404f9d30981d03d7070b96e1c800000000000000000000000049503ffd8da325bfe52b8982a7f9c2e26643c276000000000000000000000000000000000000000000000000000000000000000000000000000000000000000000000000000000000000000000000000000000000000000000000000000000000000000000000000000000000000000000000000000000000000000000000000000000000000000000001fc3842bd1f071c000000000000000000000000000005c0c9efb14a767ce50a687ac4658cce70540738000000000000000000000000000000000000000000000000000000000000001680000000000000000000000000000000000000000000000000000000000000001000000000000000000000000000000000000000000084595161401484a000000",
        "nonce": "0x128",
        "chainId": "0x279f"
      },
      "additionalContracts": [],
      "isFixedGasLimit": false
    },
    {
      "hash": "0xf9a01af98ca367d03b1d28da5f9b6a89965eab355dbfe4caff9b5b0e8da1631a",
      "transactionType": "CALL",
      "contractName": null,
      "contractAddress": "0x388f2c53e77ef33111383a363e0b5fd976b18e74",
      "function": "configureTradingLimit(bytes32,address,(uint32,uint32,int48,int48,int48,uint8))",
      "arguments": [
        "0x7e31ac1ba139a9da37c7e0503e48eb7d3b9a74f348eddf98157d11cf13306a34",
        "0x9E174bc09cEdaDc7a5e39Ba1142b6d95365182CB",
        "(300, 86400, 100000, 500000, 2500000, 7)"
      ],
      "transaction": {
        "from": "0x56fd3f2bee130e9867942d0f463a16fbe49b8d81",
        "to": "0x388f2c53e77ef33111383a363e0b5fd976b18e74",
        "gas": "0xf976",
        "value": "0x0",
        "input": "0xa9b5aab37e31ac1ba139a9da37c7e0503e48eb7d3b9a74f348eddf98157d11cf13306a340000000000000000000000009e174bc09cedadc7a5e39ba1142b6d95365182cb000000000000000000000000000000000000000000000000000000000000012c000000000000000000000000000000000000000000000000000000000001518000000000000000000000000000000000000000000000000000000000000186a0000000000000000000000000000000000000000000000000000000000007a12000000000000000000000000000000000000000000000000000000000002625a00000000000000000000000000000000000000000000000000000000000000007",
        "nonce": "0x129",
        "chainId": "0x279f"
      },
      "additionalContracts": [],
      "isFixedGasLimit": false
    },
    {
      "hash": "0xb5eb1ea1e25034e3e32104baf57c8e9261aed0741260d0815cd7c3d7df4f906f",
      "transactionType": "CALL",
      "contractName": null,
      "contractAddress": "0x388f2c53e77ef33111383a363e0b5fd976b18e74",
      "function": "configureTradingLimit(bytes32,address,(uint32,uint32,int48,int48,int48,uint8))",
      "arguments": [
        "0x7e31ac1ba139a9da37c7e0503e48eb7d3b9a74f348eddf98157d11cf13306a34",
        "0x109902563DaA6D404F9d30981D03D7070B96E1C8",
        "(300, 86400, 154000, 770000, 3850000, 7)"
      ],
      "transaction": {
        "from": "0x56fd3f2bee130e9867942d0f463a16fbe49b8d81",
        "to": "0x388f2c53e77ef33111383a363e0b5fd976b18e74",
        "gas": "0xf976",
        "value": "0x0",
        "input": "0xa9b5aab37e31ac1ba139a9da37c7e0503e48eb7d3b9a74f348eddf98157d11cf13306a34000000000000000000000000109902563daa6d404f9d30981d03d7070b96e1c8000000000000000000000000000000000000000000000000000000000000012c0000000000000000000000000000000000000000000000000000000000015180000000000000000000000000000000000000000000000000000000000002599000000000000000000000000000000000000000000000000000000000000bbfd000000000000000000000000000000000000000000000000000000000003abf100000000000000000000000000000000000000000000000000000000000000007",
        "nonce": "0x12a",
        "chainId": "0x279f"
      },
      "additionalContracts": [],
      "isFixedGasLimit": false
    },
    {
      "hash": "0x84e22e745b5ea8c093416d4043d86ee03bbd581c098a6d26ca2034ef333338be",
      "transactionType": "CALL",
      "contractName": null,
      "contractAddress": "0x98c6d2a3a39ff5a2803240f597eb4c8ce76d36ab",
      "function": "createExchange((address,address,address,uint256,uint256,uint256,((uint256),address,uint256,uint256,uint256)))",
      "arguments": [
        "(0x9E174bc09cEdaDc7a5e39Ba1142b6d95365182CB, 0xFdb9576d43148e523F5351De41e43A307a7d2956, 0x49503Ffd8da325BfE52B8982A7f9c2E26643c276, 0, 0, 0, ((150000000000000000000000), 0x02996d13041557032FFB3e910966F9eA784DFec4, 360, 1, 10000000000000000000000000))"
      ],
      "transaction": {
        "from": "0x56fd3f2bee130e9867942d0f463a16fbe49b8d81",
        "to": "0x98c6d2a3a39ff5a2803240f597eb4c8ce76d36ab",
        "gas": "0x848f3",
        "value": "0x0",
        "input": "0xb08986910000000000000000000000009e174bc09cedadc7a5e39ba1142b6d95365182cb000000000000000000000000fdb9576d43148e523f5351de41e43a307a7d295600000000000000000000000049503ffd8da325bfe52b8982a7f9c2e26643c276000000000000000000000000000000000000000000000000000000000000000000000000000000000000000000000000000000000000000000000000000000000000000000000000000000000000000000000000000000000000000000000000000000000000000000000000000000000000000000001fc3842bd1f071c0000000000000000000000000000002996d13041557032ffb3e910966f9ea784dfec400000000000000000000000000000000000000000000000000000000000001680000000000000000000000000000000000000000000000000000000000000001000000000000000000000000000000000000000000084595161401484a000000",
        "nonce": "0x12b",
        "chainId": "0x279f"
      },
      "additionalContracts": [],
      "isFixedGasLimit": false
    },
    {
      "hash": "0x7d38b60297f1518d69e727e9d2c8e40655485dc29b32bdf13f6ecac8d27e6d0d",
      "transactionType": "CALL",
      "contractName": null,
      "contractAddress": "0x388f2c53e77ef33111383a363e0b5fd976b18e74",
      "function": "configureTradingLimit(bytes32,address,(uint32,uint32,int48,int48,int48,uint8))",
      "arguments": [
        "0x3a741bff3e73215535b95af758343e59e523a59773b5420528f5e1b3a12de496",
        "0x9E174bc09cEdaDc7a5e39Ba1142b6d95365182CB",
        "(300, 86400, 100000, 500000, 2500000, 7)"
      ],
      "transaction": {
        "from": "0x56fd3f2bee130e9867942d0f463a16fbe49b8d81",
        "to": "0x388f2c53e77ef33111383a363e0b5fd976b18e74",
        "gas": "0xf976",
        "value": "0x0",
        "input": "0xa9b5aab33a741bff3e73215535b95af758343e59e523a59773b5420528f5e1b3a12de4960000000000000000000000009e174bc09cedadc7a5e39ba1142b6d95365182cb000000000000000000000000000000000000000000000000000000000000012c000000000000000000000000000000000000000000000000000000000001518000000000000000000000000000000000000000000000000000000000000186a0000000000000000000000000000000000000000000000000000000000007a12000000000000000000000000000000000000000000000000000000000002625a00000000000000000000000000000000000000000000000000000000000000007",
        "nonce": "0x12c",
        "chainId": "0x279f"
      },
      "additionalContracts": [],
      "isFixedGasLimit": false
    },
    {
      "hash": "0xf51257128941fd4c146fb323355cd3c62a03d0b1b06f9e05dc0729479ad05560",
      "transactionType": "CALL",
      "contractName": null,
      "contractAddress": "0x388f2c53e77ef33111383a363e0b5fd976b18e74",
      "function": "configureTradingLimit(bytes32,address,(uint32,uint32,int48,int48,int48,uint8))",
      "arguments": [
        "0x3a741bff3e73215535b95af758343e59e523a59773b5420528f5e1b3a12de496",
        "0xFdb9576d43148e523F5351De41e43A307a7d2956",
        "(300, 86400, 138000, 690000, 3450000, 7)"
      ],
      "transaction": {
        "from": "0x56fd3f2bee130e9867942d0f463a16fbe49b8d81",
        "to": "0x388f2c53e77ef33111383a363e0b5fd976b18e74",
        "gas": "0xf976",
        "value": "0x0",
        "input": "0xa9b5aab33a741bff3e73215535b95af758343e59e523a59773b5420528f5e1b3a12de496000000000000000000000000fdb9576d43148e523f5351de41e43a307a7d2956000000000000000000000000000000000000000000000000000000000000012c00000000000000000000000000000000000000000000000000000000000151800000000000000000000000000000000000000000000000000000000000021b1000000000000000000000000000000000000000000000000000000000000a8750000000000000000000000000000000000000000000000000000000000034a4900000000000000000000000000000000000000000000000000000000000000007",
        "nonce": "0x12d",
        "chainId": "0x279f"
      },
      "additionalContracts": [],
      "isFixedGasLimit": false
    },
    {
      "hash": "0x6ff32684976f7ed6de4f627b6c68a1b2605aa79bf3b004d07f2ad2f21f382c01",
      "transactionType": "CALL",
      "contractName": null,
      "contractAddress": "0x98c6d2a3a39ff5a2803240f597eb4c8ce76d36ab",
      "function": "createExchange((address,address,address,uint256,uint256,uint256,((uint256),address,uint256,uint256,uint256)))",
      "arguments": [
        "(0x9E174bc09cEdaDc7a5e39Ba1142b6d95365182CB, 0xAf95A360EBaE29Ba1F9dC8B833b8a985DF168a83, 0x49503Ffd8da325BfE52B8982A7f9c2E26643c276, 0, 0, 0, ((300000000000000000000000), 0xEA4103A6A122fbe2cDb07A80d4d293be07bb29Fa, 360, 1, 10000000000000000000000000))"
      ],
      "transaction": {
        "from": "0x56fd3f2bee130e9867942d0f463a16fbe49b8d81",
        "to": "0x98c6d2a3a39ff5a2803240f597eb4c8ce76d36ab",
        "gas": "0x848f3",
        "value": "0x0",
        "input": "0xb08986910000000000000000000000009e174bc09cedadc7a5e39ba1142b6d95365182cb000000000000000000000000af95a360ebae29ba1f9dc8b833b8a985df168a8300000000000000000000000049503ffd8da325bfe52b8982a7f9c2e26643c276000000000000000000000000000000000000000000000000000000000000000000000000000000000000000000000000000000000000000000000000000000000000000000000000000000000000000000000000000000000000000000000000000000000000000000000000000000000000000000003f870857a3e0e3800000000000000000000000000000ea4103a6a122fbe2cdb07a80d4d293be07bb29fa00000000000000000000000000000000000000000000000000000000000001680000000000000000000000000000000000000000000000000000000000000001000000000000000000000000000000000000000000084595161401484a000000",
        "nonce": "0x12e",
        "chainId": "0x279f"
      },
      "additionalContracts": [],
      "isFixedGasLimit": false
    },
    {
      "hash": "0xd6a7771d9d34a614a30b8fd4979ef5cde8f321b49d8ff9641a2f7de25e540768",
      "transactionType": "CALL",
      "contractName": null,
      "contractAddress": "0x388f2c53e77ef33111383a363e0b5fd976b18e74",
      "function": "configureTradingLimit(bytes32,address,(uint32,uint32,int48,int48,int48,uint8))",
      "arguments": [
        "0x1e202f0a25ad85db6599f21e871274250e3f946c4b13ead6793c4d36d54b7680",
        "0x9E174bc09cEdaDc7a5e39Ba1142b6d95365182CB",
        "(300, 86400, 100000, 500000, 2500000, 7)"
      ],
      "transaction": {
        "from": "0x56fd3f2bee130e9867942d0f463a16fbe49b8d81",
        "to": "0x388f2c53e77ef33111383a363e0b5fd976b18e74",
        "gas": "0xf976",
        "value": "0x0",
        "input": "0xa9b5aab31e202f0a25ad85db6599f21e871274250e3f946c4b13ead6793c4d36d54b76800000000000000000000000009e174bc09cedadc7a5e39ba1142b6d95365182cb000000000000000000000000000000000000000000000000000000000000012c000000000000000000000000000000000000000000000000000000000001518000000000000000000000000000000000000000000000000000000000000186a0000000000000000000000000000000000000000000000000000000000007a12000000000000000000000000000000000000000000000000000000000002625a00000000000000000000000000000000000000000000000000000000000000007",
        "nonce": "0x12f",
        "chainId": "0x279f"
      },
      "additionalContracts": [],
      "isFixedGasLimit": false
    },
    {
      "hash": "0x7a2d3cac8cef1feb6211a81805b405c5801aa38af1b8460b9b393b2aa50ad51d",
      "transactionType": "CALL",
      "contractName": null,
      "contractAddress": "0x388f2c53e77ef33111383a363e0b5fd976b18e74",
      "function": "configureTradingLimit(bytes32,address,(uint32,uint32,int48,int48,int48,uint8))",
      "arguments": [
        "0x1e202f0a25ad85db6599f21e871274250e3f946c4b13ead6793c4d36d54b7680",
        "0xAf95A360EBaE29Ba1F9dC8B833b8a985DF168a83",
        "(300, 86400, 75000, 375000, 1875000, 7)"
      ],
      "transaction": {
        "from": "0x56fd3f2bee130e9867942d0f463a16fbe49b8d81",
        "to": "0x388f2c53e77ef33111383a363e0b5fd976b18e74",
        "gas": "0xf976",
        "value": "0x0",
        "input": "0xa9b5aab31e202f0a25ad85db6599f21e871274250e3f946c4b13ead6793c4d36d54b7680000000000000000000000000af95a360ebae29ba1f9dc8b833b8a985df168a83000000000000000000000000000000000000000000000000000000000000012c000000000000000000000000000000000000000000000000000000000001518000000000000000000000000000000000000000000000000000000000000124f8000000000000000000000000000000000000000000000000000000000005b8d800000000000000000000000000000000000000000000000000000000001c9c380000000000000000000000000000000000000000000000000000000000000007",
        "nonce": "0x130",
        "chainId": "0x279f"
      },
      "additionalContracts": [],
      "isFixedGasLimit": false
    },
    {
      "hash": "0xe8e0ef2eba6e2143fa533217a0380925e77875e4a972592cc3a59a9ed2ab8b0c",
      "transactionType": "CALL",
      "contractName": null,
      "contractAddress": "0x98c6d2a3a39ff5a2803240f597eb4c8ce76d36ab",
      "function": "createExchange((address,address,address,uint256,uint256,uint256,((uint256),address,uint256,uint256,uint256)))",
      "arguments": [
        "(0x9E174bc09cEdaDc7a5e39Ba1142b6d95365182CB, 0xcE1b285691b40F54762d69c40b24Ec4c95add3fc, 0x49503Ffd8da325BfE52B8982A7f9c2E26643c276, 0, 0, 0, ((300000000000000000000000), 0x6C4A6765BCFc7E7FC5b01EEfe931885A79DDe791, 360, 1, 10000000000000000000000000))"
      ],
      "transaction": {
        "from": "0x56fd3f2bee130e9867942d0f463a16fbe49b8d81",
        "to": "0x98c6d2a3a39ff5a2803240f597eb4c8ce76d36ab",
        "gas": "0x848f3",
        "value": "0x0",
        "input": "0xb08986910000000000000000000000009e174bc09cedadc7a5e39ba1142b6d95365182cb000000000000000000000000ce1b285691b40f54762d69c40b24ec4c95add3fc00000000000000000000000049503ffd8da325bfe52b8982a7f9c2e26643c276000000000000000000000000000000000000000000000000000000000000000000000000000000000000000000000000000000000000000000000000000000000000000000000000000000000000000000000000000000000000000000000000000000000000000000000000000000000000000000003f870857a3e0e38000000000000000000000000000006c4a6765bcfc7e7fc5b01eefe931885a79dde79100000000000000000000000000000000000000000000000000000000000001680000000000000000000000000000000000000000000000000000000000000001000000000000000000000000000000000000000000084595161401484a000000",
        "nonce": "0x131",
        "chainId": "0x279f"
      },
      "additionalContracts": [],
      "isFixedGasLimit": false
    },
    {
      "hash": "0x87ed47288d46c6cfc1dc9ebec2132bfd7aef80431a99ff5a119bf0c12e767cb3",
      "transactionType": "CALL",
      "contractName": null,
      "contractAddress": "0x388f2c53e77ef33111383a363e0b5fd976b18e74",
      "function": "configureTradingLimit(bytes32,address,(uint32,uint32,int48,int48,int48,uint8))",
      "arguments": [
        "0xe8aecadc079c71e499fb1988f24806ea48e03b472829a165527bd80d856c3f7f",
        "0x9E174bc09cEdaDc7a5e39Ba1142b6d95365182CB",
        "(300, 86400, 100000, 500000, 2500000, 7)"
      ],
      "transaction": {
        "from": "0x56fd3f2bee130e9867942d0f463a16fbe49b8d81",
        "to": "0x388f2c53e77ef33111383a363e0b5fd976b18e74",
        "gas": "0xf976",
        "value": "0x0",
        "input": "0xa9b5aab3e8aecadc079c71e499fb1988f24806ea48e03b472829a165527bd80d856c3f7f0000000000000000000000009e174bc09cedadc7a5e39ba1142b6d95365182cb000000000000000000000000000000000000000000000000000000000000012c000000000000000000000000000000000000000000000000000000000001518000000000000000000000000000000000000000000000000000000000000186a0000000000000000000000000000000000000000000000000000000000007a12000000000000000000000000000000000000000000000000000000000002625a00000000000000000000000000000000000000000000000000000000000000007",
        "nonce": "0x132",
        "chainId": "0x279f"
      },
      "additionalContracts": [],
      "isFixedGasLimit": false
    },
    {
      "hash": "0x06261b1dd759af3479d5b5e129f99d1f65f901e59e9c995ceb2336ec95991e86",
      "transactionType": "CALL",
      "contractName": null,
      "contractAddress": "0x388f2c53e77ef33111383a363e0b5fd976b18e74",
      "function": "configureTradingLimit(bytes32,address,(uint32,uint32,int48,int48,int48,uint8))",
      "arguments": [
        "0xe8aecadc079c71e499fb1988f24806ea48e03b472829a165527bd80d856c3f7f",
        "0xcE1b285691b40F54762d69c40b24Ec4c95add3fc",
        "(300, 86400, 1772000, 8860000, 44300000, 7)"
      ],
      "transaction": {
        "from": "0x56fd3f2bee130e9867942d0f463a16fbe49b8d81",
        "to": "0x388f2c53e77ef33111383a363e0b5fd976b18e74",
        "gas": "0xebaa",
        "value": "0x0",
        "input": "0xa9b5aab3e8aecadc079c71e499fb1988f24806ea48e03b472829a165527bd80d856c3f7f000000000000000000000000ce1b285691b40f54762d69c40b24ec4c95add3fc000000000000000000000000000000000000000000000000000000000000012c000000000000000000000000000000000000000000000000000000000001518000000000000000000000000000000000000000000000000000000000001b09e000000000000000000000000000000000000000000000000000000000008731600000000000000000000000000000000000000000000000000000000002a3f6e00000000000000000000000000000000000000000000000000000000000000007",
        "nonce": "0x133",
        "chainId": "0x279f"
      },
      "additionalContracts": [],
      "isFixedGasLimit": false
    },
    {
      "hash": "0x17a89aef949b8746d2ec95801c1420afa3c70b8e2558549567571c4b8bbf63f6",
      "transactionType": "CALL",
      "contractName": null,
      "contractAddress": "0x98c6d2a3a39ff5a2803240f597eb4c8ce76d36ab",
      "function": "createExchange((address,address,address,uint256,uint256,uint256,((uint256),address,uint256,uint256,uint256)))",
      "arguments": [
        "(0x9E174bc09cEdaDc7a5e39Ba1142b6d95365182CB, 0xaFd756571B850B833Ec0A1A66A69Db30AF95Ee94, 0x49503Ffd8da325BfE52B8982A7f9c2E26643c276, 0, 0, 0, ((300000000000000000000000), 0x2EE56bE22D6af8c1b0ac97149b6F42D3B0BFb8C2, 360, 1, 10000000000000000000000000))"
      ],
      "transaction": {
        "from": "0x56fd3f2bee130e9867942d0f463a16fbe49b8d81",
        "to": "0x98c6d2a3a39ff5a2803240f597eb4c8ce76d36ab",
        "gas": "0x848f3",
        "value": "0x0",
        "input": "0xb08986910000000000000000000000009e174bc09cedadc7a5e39ba1142b6d95365182cb000000000000000000000000afd756571b850b833ec0a1a66a69db30af95ee9400000000000000000000000049503ffd8da325bfe52b8982a7f9c2e26643c276000000000000000000000000000000000000000000000000000000000000000000000000000000000000000000000000000000000000000000000000000000000000000000000000000000000000000000000000000000000000000000000000000000000000000000000000000000000000000000003f870857a3e0e38000000000000000000000000000002ee56be22d6af8c1b0ac97149b6f42d3b0bfb8c200000000000000000000000000000000000000000000000000000000000001680000000000000000000000000000000000000000000000000000000000000001000000000000000000000000000000000000000000084595161401484a000000",
        "nonce": "0x134",
        "chainId": "0x279f"
      },
      "additionalContracts": [],
      "isFixedGasLimit": false
    },
    {
      "hash": "0x1dd827b8e815f39b1c1661e9a07e5d8bb88d7c12ed50a09f8942f88121f8c86c",
      "transactionType": "CALL",
      "contractName": null,
      "contractAddress": "0x388f2c53e77ef33111383a363e0b5fd976b18e74",
      "function": "configureTradingLimit(bytes32,address,(uint32,uint32,int48,int48,int48,uint8))",
      "arguments": [
        "0xf57e4020771fd78df1d99034f5f503d8c4886e428030f6b187fe1745122a0b02",
        "0x9E174bc09cEdaDc7a5e39Ba1142b6d95365182CB",
        "(300, 86400, 100000, 500000, 2500000, 7)"
      ],
      "transaction": {
        "from": "0x56fd3f2bee130e9867942d0f463a16fbe49b8d81",
        "to": "0x388f2c53e77ef33111383a363e0b5fd976b18e74",
        "gas": "0xf976",
        "value": "0x0",
        "input": "0xa9b5aab3f57e4020771fd78df1d99034f5f503d8c4886e428030f6b187fe1745122a0b020000000000000000000000009e174bc09cedadc7a5e39ba1142b6d95365182cb000000000000000000000000000000000000000000000000000000000000012c000000000000000000000000000000000000000000000000000000000001518000000000000000000000000000000000000000000000000000000000000186a0000000000000000000000000000000000000000000000000000000000007a12000000000000000000000000000000000000000000000000000000000002625a00000000000000000000000000000000000000000000000000000000000000007",
        "nonce": "0x135",
        "chainId": "0x279f"
      },
      "additionalContracts": [],
      "isFixedGasLimit": false
    },
    {
      "hash": "0xdc9641a0c475388a90f7a607ba7de2b9f455d28b06d4030505b01143ea493147",
      "transactionType": "CALL",
      "contractName": null,
      "contractAddress": "0x388f2c53e77ef33111383a363e0b5fd976b18e74",
      "function": "configureTradingLimit(bytes32,address,(uint32,uint32,int48,int48,int48,uint8))",
      "arguments": [
        "0xf57e4020771fd78df1d99034f5f503d8c4886e428030f6b187fe1745122a0b02",
        "0xaFd756571B850B833Ec0A1A66A69Db30AF95Ee94",
        "(300, 86400, 80000, 400000, 2000000, 7)"
      ],
      "transaction": {
        "from": "0x56fd3f2bee130e9867942d0f463a16fbe49b8d81",
        "to": "0x388f2c53e77ef33111383a363e0b5fd976b18e74",
        "gas": "0xf976",
        "value": "0x0",
        "input": "0xa9b5aab3f57e4020771fd78df1d99034f5f503d8c4886e428030f6b187fe1745122a0b02000000000000000000000000afd756571b850b833ec0a1a66a69db30af95ee94000000000000000000000000000000000000000000000000000000000000012c000000000000000000000000000000000000000000000000000000000001518000000000000000000000000000000000000000000000000000000000000138800000000000000000000000000000000000000000000000000000000000061a8000000000000000000000000000000000000000000000000000000000001e84800000000000000000000000000000000000000000000000000000000000000007",
        "nonce": "0x136",
        "chainId": "0x279f"
      },
      "additionalContracts": [],
      "isFixedGasLimit": false
    },
    {
      "hash": "0xa205f56904731cd7ea770e8d0d0dc669a1f6972af37451ccb3b815d523811d13",
      "transactionType": "CALL",
      "contractName": null,
      "contractAddress": "0x98c6d2a3a39ff5a2803240f597eb4c8ce76d36ab",
      "function": "createExchange((address,address,address,uint256,uint256,uint256,((uint256),address,uint256,uint256,uint256)))",
      "arguments": [
        "(0x9E174bc09cEdaDc7a5e39Ba1142b6d95365182CB, 0xDdcaf78d5bB0AfE82EC022B7e58758EcC1C6f641, 0x49503Ffd8da325BfE52B8982A7f9c2E26643c276, 0, 0, 0, ((300000000000000000000000), 0xb9aDdcD1d1CE7d49DBB540E2677F1C572Bc8D195, 360, 1, 10000000000000000000000000))"
      ],
      "transaction": {
        "from": "0x56fd3f2bee130e9867942d0f463a16fbe49b8d81",
        "to": "0x98c6d2a3a39ff5a2803240f597eb4c8ce76d36ab",
        "gas": "0x848f3",
        "value": "0x0",
        "input": "0xb08986910000000000000000000000009e174bc09cedadc7a5e39ba1142b6d95365182cb000000000000000000000000ddcaf78d5bb0afe82ec022b7e58758ecc1c6f64100000000000000000000000049503ffd8da325bfe52b8982a7f9c2e26643c276000000000000000000000000000000000000000000000000000000000000000000000000000000000000000000000000000000000000000000000000000000000000000000000000000000000000000000000000000000000000000000000000000000000000000000000000000000000000000000003f870857a3e0e3800000000000000000000000000000b9addcd1d1ce7d49dbb540e2677f1c572bc8d19500000000000000000000000000000000000000000000000000000000000001680000000000000000000000000000000000000000000000000000000000000001000000000000000000000000000000000000000000084595161401484a000000",
        "nonce": "0x137",
        "chainId": "0x279f"
      },
      "additionalContracts": [],
      "isFixedGasLimit": false
    },
    {
      "hash": "0x7a463d0a896ae160604575b880e0bf57899fbc18c83f8485a6db1dbe5123aeee",
      "transactionType": "CALL",
      "contractName": null,
      "contractAddress": "0x388f2c53e77ef33111383a363e0b5fd976b18e74",
      "function": "configureTradingLimit(bytes32,address,(uint32,uint32,int48,int48,int48,uint8))",
      "arguments": [
        "0xe18089b08b31c64439612de898b855e9564a163c23b9f2af8047d8b137eb148a",
        "0x9E174bc09cEdaDc7a5e39Ba1142b6d95365182CB",
        "(300, 86400, 100000, 500000, 2500000, 7)"
      ],
      "transaction": {
        "from": "0x56fd3f2bee130e9867942d0f463a16fbe49b8d81",
        "to": "0x388f2c53e77ef33111383a363e0b5fd976b18e74",
        "gas": "0xf976",
        "value": "0x0",
        "input": "0xa9b5aab3e18089b08b31c64439612de898b855e9564a163c23b9f2af8047d8b137eb148a0000000000000000000000009e174bc09cedadc7a5e39ba1142b6d95365182cb000000000000000000000000000000000000000000000000000000000000012c000000000000000000000000000000000000000000000000000000000001518000000000000000000000000000000000000000000000000000000000000186a0000000000000000000000000000000000000000000000000000000000007a12000000000000000000000000000000000000000000000000000000000002625a00000000000000000000000000000000000000000000000000000000000000007",
        "nonce": "0x138",
        "chainId": "0x279f"
      },
      "additionalContracts": [],
      "isFixedGasLimit": false
    },
    {
      "hash": "0x523cb38d97a179214195b91b4557aede3f901437a7ab4e1eb94bbafea783ad84",
      "transactionType": "CALL",
      "contractName": null,
      "contractAddress": "0x388f2c53e77ef33111383a363e0b5fd976b18e74",
      "function": "configureTradingLimit(bytes32,address,(uint32,uint32,int48,int48,int48,uint8))",
      "arguments": [
        "0xe18089b08b31c64439612de898b855e9564a163c23b9f2af8047d8b137eb148a",
        "0xDdcaf78d5bB0AfE82EC022B7e58758EcC1C6f641",
        "(300, 86400, 14900000, 74500000, 372500000, 7)"
      ],
      "transaction": {
        "from": "0x56fd3f2bee130e9867942d0f463a16fbe49b8d81",
        "to": "0x388f2c53e77ef33111383a363e0b5fd976b18e74",
        "gas": "0xf999",
        "value": "0x0",
        "input": "0xa9b5aab3e18089b08b31c64439612de898b855e9564a163c23b9f2af8047d8b137eb148a000000000000000000000000ddcaf78d5bb0afe82ec022b7e58758ecc1c6f641000000000000000000000000000000000000000000000000000000000000012c00000000000000000000000000000000000000000000000000000000000151800000000000000000000000000000000000000000000000000000000000e35b20000000000000000000000000000000000000000000000000000000000470c7a0000000000000000000000000000000000000000000000000000000001633e6200000000000000000000000000000000000000000000000000000000000000007",
        "nonce": "0x139",
        "chainId": "0x279f"
      },
      "additionalContracts": [],
      "isFixedGasLimit": false
    },
    {
      "hash": "0x4384210c77193cccd28d946819505c15b7c56056028a5b8c73bcd02278f221ef",
      "transactionType": "CALL",
      "contractName": null,
      "contractAddress": "0x98c6d2a3a39ff5a2803240f597eb4c8ce76d36ab",
      "function": "createExchange((address,address,address,uint256,uint256,uint256,((uint256),address,uint256,uint256,uint256)))",
      "arguments": [
        "(0x9E174bc09cEdaDc7a5e39Ba1142b6d95365182CB, 0xfBD6322586AE7c8F0776918E70b8Eb169737ba57, 0x49503Ffd8da325BfE52B8982A7f9c2E26643c276, 0, 0, 0, ((300000000000000000000000), 0xF7b436583E011794293A04FAA440816F3354501F, 360, 1, 10000000000000000000000000))"
      ],
      "transaction": {
        "from": "0x56fd3f2bee130e9867942d0f463a16fbe49b8d81",
        "to": "0x98c6d2a3a39ff5a2803240f597eb4c8ce76d36ab",
        "gas": "0x848f3",
        "value": "0x0",
        "input": "0xb08986910000000000000000000000009e174bc09cedadc7a5e39ba1142b6d95365182cb000000000000000000000000fbd6322586ae7c8f0776918e70b8eb169737ba5700000000000000000000000049503ffd8da325bfe52b8982a7f9c2e26643c276000000000000000000000000000000000000000000000000000000000000000000000000000000000000000000000000000000000000000000000000000000000000000000000000000000000000000000000000000000000000000000000000000000000000000000000000000000000000000000003f870857a3e0e3800000000000000000000000000000f7b436583e011794293a04faa440816f3354501f00000000000000000000000000000000000000000000000000000000000001680000000000000000000000000000000000000000000000000000000000000001000000000000000000000000000000000000000000084595161401484a000000",
        "nonce": "0x13a",
        "chainId": "0x279f"
      },
      "additionalContracts": [],
      "isFixedGasLimit": false
    },
    {
      "hash": "0xecac9cc1c49356cf77444f10f25424c1cf3d7876576b1c55a1cb0f70e6228d9e",
      "transactionType": "CALL",
      "contractName": null,
      "contractAddress": "0x388f2c53e77ef33111383a363e0b5fd976b18e74",
      "function": "configureTradingLimit(bytes32,address,(uint32,uint32,int48,int48,int48,uint8))",
      "arguments": [
        "0x34737a6b35a25ba8679874e532109434ce6dd0ac8c567a2095b9d0feff06d7b2",
        "0x9E174bc09cEdaDc7a5e39Ba1142b6d95365182CB",
        "(300, 86400, 50000, 250000, 1250000, 7)"
      ],
      "transaction": {
        "from": "0x56fd3f2bee130e9867942d0f463a16fbe49b8d81",
        "to": "0x388f2c53e77ef33111383a363e0b5fd976b18e74",
        "gas": "0xeb89",
        "value": "0x0",
        "input": "0xa9b5aab334737a6b35a25ba8679874e532109434ce6dd0ac8c567a2095b9d0feff06d7b20000000000000000000000009e174bc09cedadc7a5e39ba1142b6d95365182cb000000000000000000000000000000000000000000000000000000000000012c0000000000000000000000000000000000000000000000000000000000015180000000000000000000000000000000000000000000000000000000000000c350000000000000000000000000000000000000000000000000000000000003d09000000000000000000000000000000000000000000000000000000000001312d00000000000000000000000000000000000000000000000000000000000000007",
        "nonce": "0x13b",
        "chainId": "0x279f"
      },
      "additionalContracts": [],
      "isFixedGasLimit": false
    },
    {
      "hash": "0xf5cda65257de40f508b25c69a22b0a80d75efd9762ba388c193ee0ac22c99618",
      "transactionType": "CALL",
      "contractName": null,
      "contractAddress": "0x388f2c53e77ef33111383a363e0b5fd976b18e74",
      "function": "configureTradingLimit(bytes32,address,(uint32,uint32,int48,int48,int48,uint8))",
      "arguments": [
        "0x34737a6b35a25ba8679874e532109434ce6dd0ac8c567a2095b9d0feff06d7b2",
        "0xfBD6322586AE7c8F0776918E70b8Eb169737ba57",
        "(300, 86400, 200750000, 1003750000, 5018750000, 7)"
      ],
      "transaction": {
        "from": "0x56fd3f2bee130e9867942d0f463a16fbe49b8d81",
        "to": "0x388f2c53e77ef33111383a363e0b5fd976b18e74",
        "gas": "0xf9bc",
        "value": "0x0",
        "input": "0xa9b5aab334737a6b35a25ba8679874e532109434ce6dd0ac8c567a2095b9d0feff06d7b2000000000000000000000000fbd6322586ae7c8f0776918e70b8eb169737ba57000000000000000000000000000000000000000000000000000000000000012c0000000000000000000000000000000000000000000000000000000000015180000000000000000000000000000000000000000000000000000000000bf733b0000000000000000000000000000000000000000000000000000000003bd40270000000000000000000000000000000000000000000000000000000012b240c300000000000000000000000000000000000000000000000000000000000000007",
        "nonce": "0x13c",
        "chainId": "0x279f"
      },
      "additionalContracts": [],
      "isFixedGasLimit": false
    },
    {
      "hash": "0xeed0ffbf47305020db89bb800f4b21b83bfa012775c2f742ae4cc7a97d5a5e45",
      "transactionType": "CALL",
      "contractName": null,
      "contractAddress": "0x98c6d2a3a39ff5a2803240f597eb4c8ce76d36ab",
      "function": "createExchange((address,address,address,uint256,uint256,uint256,((uint256),address,uint256,uint256,uint256)))",
      "arguments": [
        "(0x9E174bc09cEdaDc7a5e39Ba1142b6d95365182CB, 0xCE0da71375DBB11bD275307e735768AcF78D2843, 0x49503Ffd8da325BfE52B8982A7f9c2E26643c276, 0, 0, 0, ((300000000000000000000000), 0x669bCF7BDB701E3b15799D2732C0518Cf3B65507, 360, 1, 10000000000000000000000000))"
      ],
      "transaction": {
        "from": "0x56fd3f2bee130e9867942d0f463a16fbe49b8d81",
        "to": "0x98c6d2a3a39ff5a2803240f597eb4c8ce76d36ab",
        "gas": "0x848f3",
        "value": "0x0",
        "input": "0xb08986910000000000000000000000009e174bc09cedadc7a5e39ba1142b6d95365182cb000000000000000000000000ce0da71375dbb11bd275307e735768acf78d284300000000000000000000000049503ffd8da325bfe52b8982a7f9c2e26643c276000000000000000000000000000000000000000000000000000000000000000000000000000000000000000000000000000000000000000000000000000000000000000000000000000000000000000000000000000000000000000000000000000000000000000000000000000000000000000000003f870857a3e0e3800000000000000000000000000000669bcf7bdb701e3b15799d2732c0518cf3b6550700000000000000000000000000000000000000000000000000000000000001680000000000000000000000000000000000000000000000000000000000000001000000000000000000000000000000000000000000084595161401484a000000",
        "nonce": "0x13d",
        "chainId": "0x279f"
      },
      "additionalContracts": [],
      "isFixedGasLimit": false
    },
    {
      "hash": "0x40f9a882f8f4847dcd78fddadd6a5282316c519da3daea43e798ca2ac2c5cbea",
      "transactionType": "CALL",
      "contractName": null,
      "contractAddress": "0x388f2c53e77ef33111383a363e0b5fd976b18e74",
      "function": "configureTradingLimit(bytes32,address,(uint32,uint32,int48,int48,int48,uint8))",
      "arguments": [
        "0xdb873c9488872f50c4047ab9ce46e8f75a341d9684b88d9c3a9a6b26027aca20",
        "0x9E174bc09cEdaDc7a5e39Ba1142b6d95365182CB",
        "(300, 86400, 100000, 500000, 2500000, 7)"
      ],
      "transaction": {
        "from": "0x56fd3f2bee130e9867942d0f463a16fbe49b8d81",
        "to": "0x388f2c53e77ef33111383a363e0b5fd976b18e74",
        "gas": "0xf976",
        "value": "0x0",
        "input": "0xa9b5aab3db873c9488872f50c4047ab9ce46e8f75a341d9684b88d9c3a9a6b26027aca200000000000000000000000009e174bc09cedadc7a5e39ba1142b6d95365182cb000000000000000000000000000000000000000000000000000000000000012c000000000000000000000000000000000000000000000000000000000001518000000000000000000000000000000000000000000000000000000000000186a0000000000000000000000000000000000000000000000000000000000007a12000000000000000000000000000000000000000000000000000000000002625a00000000000000000000000000000000000000000000000000000000000000007",
        "nonce": "0x13e",
        "chainId": "0x279f"
      },
      "additionalContracts": [],
      "isFixedGasLimit": false
    },
    {
      "hash": "0xe43c00c52398ec5cb4df194992b9a699e7466b830ece8c427622c0da4916cf0b",
      "transactionType": "CALL",
      "contractName": null,
      "contractAddress": "0x388f2c53e77ef33111383a363e0b5fd976b18e74",
      "function": "configureTradingLimit(bytes32,address,(uint32,uint32,int48,int48,int48,uint8))",
      "arguments": [
        "0xdb873c9488872f50c4047ab9ce46e8f75a341d9684b88d9c3a9a6b26027aca20",
        "0xCE0da71375DBB11bD275307e735768AcF78D2843",
        "(300, 86400, 545000, 2725000, 13625000, 7)"
      ],
      "transaction": {
        "from": "0x56fd3f2bee130e9867942d0f463a16fbe49b8d81",
        "to": "0x388f2c53e77ef33111383a363e0b5fd976b18e74",
        "gas": "0xf976",
        "value": "0x0",
        "input": "0xa9b5aab3db873c9488872f50c4047ab9ce46e8f75a341d9684b88d9c3a9a6b26027aca20000000000000000000000000ce0da71375dbb11bd275307e735768acf78d2843000000000000000000000000000000000000000000000000000000000000012c000000000000000000000000000000000000000000000000000000000001518000000000000000000000000000000000000000000000000000000000000850e800000000000000000000000000000000000000000000000000000000002994880000000000000000000000000000000000000000000000000000000000cfe6a80000000000000000000000000000000000000000000000000000000000000007",
        "nonce": "0x13f",
        "chainId": "0x279f"
      },
      "additionalContracts": [],
      "isFixedGasLimit": false
    },
    {
      "hash": "0x8c18d732bce53108192088ca0ac9d6ccd616dc5bfe7f7dd30a2fbdb34addbd68",
      "transactionType": "CALL",
      "contractName": null,
      "contractAddress": "0x98c6d2a3a39ff5a2803240f597eb4c8ce76d36ab",
      "function": "createExchange((address,address,address,uint256,uint256,uint256,((uint256),address,uint256,uint256,uint256)))",
      "arguments": [
        "(0x9E174bc09cEdaDc7a5e39Ba1142b6d95365182CB, 0xE3bdea6Cd6ed7aAFd5aCb1E43D8777714ba31acA, 0x49503Ffd8da325BfE52B8982A7f9c2E26643c276, 0, 0, 0, ((1000000000000000000000000), 0x812a10B8744A9aD8637e819899d8c33454fE8D20, 360, 1, 10000000000000000000000000))"
      ],
      "transaction": {
        "from": "0x56fd3f2bee130e9867942d0f463a16fbe49b8d81",
        "to": "0x98c6d2a3a39ff5a2803240f597eb4c8ce76d36ab",
        "gas": "0x7d30d",
        "value": "0x0",
        "input": "0xb08986910000000000000000000000009e174bc09cedadc7a5e39ba1142b6d95365182cb000000000000000000000000e3bdea6cd6ed7aafd5acb1e43d8777714ba31aca00000000000000000000000049503ffd8da325bfe52b8982a7f9c2e26643c27600000000000000000000000000000000000000000000000000000000000000000000000000000000000000000000000000000000000000000000000000000000000000000000000000000000000000000000000000000000000000000000000000000000000000000000000000000000000000000000d3c21bcecceda1000000000000000000000000000000812a10b8744a9ad8637e819899d8c33454fe8d2000000000000000000000000000000000000000000000000000000000000001680000000000000000000000000000000000000000000000000000000000000001000000000000000000000000000000000000000000084595161401484a000000",
        "nonce": "0x140",
        "chainId": "0x279f"
      },
      "additionalContracts": [],
      "isFixedGasLimit": false
    },
    {
      "hash": "0x9fb84f97137c901c5c78c89dd749252f9d598a634809769a70ee23188595006d",
      "transactionType": "CALL",
      "contractName": null,
      "contractAddress": "0x388f2c53e77ef33111383a363e0b5fd976b18e74",
      "function": "configureTradingLimit(bytes32,address,(uint32,uint32,int48,int48,int48,uint8))",
      "arguments": [
        "0x5117b12cd22b5f67b1898f500c9622236edbd651a4d1f16e1a64eb1c39da6280",
        "0x9E174bc09cEdaDc7a5e39Ba1142b6d95365182CB",
        "(300, 86400, 50000, 250000, 1250000, 7)"
      ],
      "transaction": {
        "from": "0x56fd3f2bee130e9867942d0f463a16fbe49b8d81",
        "to": "0x388f2c53e77ef33111383a363e0b5fd976b18e74",
        "gas": "0xeb89",
        "value": "0x0",
        "input": "0xa9b5aab35117b12cd22b5f67b1898f500c9622236edbd651a4d1f16e1a64eb1c39da62800000000000000000000000009e174bc09cedadc7a5e39ba1142b6d95365182cb000000000000000000000000000000000000000000000000000000000000012c0000000000000000000000000000000000000000000000000000000000015180000000000000000000000000000000000000000000000000000000000000c350000000000000000000000000000000000000000000000000000000000003d09000000000000000000000000000000000000000000000000000000000001312d00000000000000000000000000000000000000000000000000000000000000007",
        "nonce": "0x141",
        "chainId": "0x279f"
      },
      "additionalContracts": [],
      "isFixedGasLimit": false
    },
    {
      "hash": "0xa4b4c603006edba7255a3363ebb793d4ec25436dabe693e840d5b3fa147dc3cc",
      "transactionType": "CALL",
      "contractName": null,
      "contractAddress": "0x388f2c53e77ef33111383a363e0b5fd976b18e74",
      "function": "configureTradingLimit(bytes32,address,(uint32,uint32,int48,int48,int48,uint8))",
      "arguments": [
        "0x5117b12cd22b5f67b1898f500c9622236edbd651a4d1f16e1a64eb1c39da6280",
        "0xE3bdea6Cd6ed7aAFd5aCb1E43D8777714ba31acA",
        "(300, 86400, 596000, 2980000, 14900000, 7)"
      ],
      "transaction": {
        "from": "0x56fd3f2bee130e9867942d0f463a16fbe49b8d81",
        "to": "0x388f2c53e77ef33111383a363e0b5fd976b18e74",
        "gas": "0xf976",
        "value": "0x0",
        "input": "0xa9b5aab35117b12cd22b5f67b1898f500c9622236edbd651a4d1f16e1a64eb1c39da6280000000000000000000000000e3bdea6cd6ed7aafd5acb1e43d8777714ba31aca000000000000000000000000000000000000000000000000000000000000012c0000000000000000000000000000000000000000000000000000000000015180000000000000000000000000000000000000000000000000000000000009182000000000000000000000000000000000000000000000000000000000002d78a00000000000000000000000000000000000000000000000000000000000e35b200000000000000000000000000000000000000000000000000000000000000007",
        "nonce": "0x142",
        "chainId": "0x279f"
      },
      "additionalContracts": [],
      "isFixedGasLimit": false
    },
    {
      "hash": "0xb14ed0a253dfba05bde078a57705f4ff48f81196a1dc8276b8a9e2d3ecc99633",
      "transactionType": "CALL",
      "contractName": null,
      "contractAddress": "0x98c6d2a3a39ff5a2803240f597eb4c8ce76d36ab",
      "function": "createExchange((address,address,address,uint256,uint256,uint256,((uint256),address,uint256,uint256,uint256)))",
      "arguments": [
        "(0x9E174bc09cEdaDc7a5e39Ba1142b6d95365182CB, 0x823756e447E4db92fd3a52bc5E210c4701E6CebA, 0x49503Ffd8da325BfE52B8982A7f9c2E26643c276, 0, 0, 0, ((1000000000000000000000000), 0xD772efe6507B7D8cdC8C4d8870931439FBEeB929, 360, 1, 10000000000000000000000000))"
      ],
      "transaction": {
        "from": "0x56fd3f2bee130e9867942d0f463a16fbe49b8d81",
        "to": "0x98c6d2a3a39ff5a2803240f597eb4c8ce76d36ab",
        "gas": "0x7d30d",
        "value": "0x0",
        "input": "0xb08986910000000000000000000000009e174bc09cedadc7a5e39ba1142b6d95365182cb000000000000000000000000823756e447e4db92fd3a52bc5e210c4701e6ceba00000000000000000000000049503ffd8da325bfe52b8982a7f9c2e26643c27600000000000000000000000000000000000000000000000000000000000000000000000000000000000000000000000000000000000000000000000000000000000000000000000000000000000000000000000000000000000000000000000000000000000000000000000000000000000000000000d3c21bcecceda1000000000000000000000000000000d772efe6507b7d8cdc8c4d8870931439fbeeb92900000000000000000000000000000000000000000000000000000000000001680000000000000000000000000000000000000000000000000000000000000001000000000000000000000000000000000000000000084595161401484a000000",
        "nonce": "0x143",
        "chainId": "0x279f"
      },
      "additionalContracts": [],
      "isFixedGasLimit": false
    },
    {
      "hash": "0x53bb22e45c455d1483f960da2f6d2b619edcc25973aa0e2669875b4b359d6d9c",
      "transactionType": "CALL",
      "contractName": null,
      "contractAddress": "0x388f2c53e77ef33111383a363e0b5fd976b18e74",
      "function": "configureTradingLimit(bytes32,address,(uint32,uint32,int48,int48,int48,uint8))",
      "arguments": [
        "0x28b69af87fd76c2764c7e022f37b6ee3ad6e448ef4d51747e08cd60260d61fa3",
        "0x9E174bc09cEdaDc7a5e39Ba1142b6d95365182CB",
        "(300, 86400, 50000, 250000, 1250000, 7)"
      ],
      "transaction": {
        "from": "0x56fd3f2bee130e9867942d0f463a16fbe49b8d81",
        "to": "0x388f2c53e77ef33111383a363e0b5fd976b18e74",
        "gas": "0xeb89",
        "value": "0x0",
        "input": "0xa9b5aab328b69af87fd76c2764c7e022f37b6ee3ad6e448ef4d51747e08cd60260d61fa30000000000000000000000009e174bc09cedadc7a5e39ba1142b6d95365182cb000000000000000000000000000000000000000000000000000000000000012c0000000000000000000000000000000000000000000000000000000000015180000000000000000000000000000000000000000000000000000000000000c350000000000000000000000000000000000000000000000000000000000003d09000000000000000000000000000000000000000000000000000000000001312d00000000000000000000000000000000000000000000000000000000000000007",
        "nonce": "0x144",
        "chainId": "0x279f"
      },
      "additionalContracts": [],
      "isFixedGasLimit": false
    },
    {
      "hash": "0x16a5c69f4b7ce84f69bba2d722ab925014088cd163cced2d2f00a150835536a6",
      "transactionType": "CALL",
      "contractName": null,
      "contractAddress": "0x388f2c53e77ef33111383a363e0b5fd976b18e74",
      "function": "configureTradingLimit(bytes32,address,(uint32,uint32,int48,int48,int48,uint8))",
      "arguments": [
        "0x28b69af87fd76c2764c7e022f37b6ee3ad6e448ef4d51747e08cd60260d61fa3",
        "0x823756e447E4db92fd3a52bc5E210c4701E6CebA",
        "(300, 86400, 76599000, 382995000, 1914975000, 7)"
      ],
      "transaction": {
        "from": "0x56fd3f2bee130e9867942d0f463a16fbe49b8d81",
        "to": "0x388f2c53e77ef33111383a363e0b5fd976b18e74",
        "gas": "0xebcc",
        "value": "0x0",
        "input": "0xa9b5aab328b69af87fd76c2764c7e022f37b6ee3ad6e448ef4d51747e08cd60260d61fa3000000000000000000000000823756e447e4db92fd3a52bc5e210c4701e6ceba000000000000000000000000000000000000000000000000000000000000012c0000000000000000000000000000000000000000000000000000000000015180000000000000000000000000000000000000000000000000000000000490ced80000000000000000000000000000000000000000000000000000000016d40a3800000000000000000000000000000000000000000000000000000000722433180000000000000000000000000000000000000000000000000000000000000007",
        "nonce": "0x145",
        "chainId": "0x279f"
      },
      "additionalContracts": [],
      "isFixedGasLimit": false
    },
    {
      "hash": "0x6ac9a77f80326d11d0c2ad55207d2f67bd2adaa0cb3d7041ec1fb9d8408fc660",
      "transactionType": "CALL",
      "contractName": null,
      "contractAddress": "0x98c6d2a3a39ff5a2803240f597eb4c8ce76d36ab",
      "function": "createExchange((address,address,address,uint256,uint256,uint256,((uint256),address,uint256,uint256,uint256)))",
      "arguments": [
        "(0x9E174bc09cEdaDc7a5e39Ba1142b6d95365182CB, 0x66BFF13AfF22c31dF7cd53707e645C9736A6637a, 0x49503Ffd8da325BfE52B8982A7f9c2E26643c276, 0, 0, 0, ((1000000000000000000000000), 0xEF40371a602409F86f9aC4e37580C59dEE61199f, 360, 1, 10000000000000000000000000))"
      ],
      "transaction": {
        "from": "0x56fd3f2bee130e9867942d0f463a16fbe49b8d81",
        "to": "0x98c6d2a3a39ff5a2803240f597eb4c8ce76d36ab",
        "gas": "0x7d30d",
        "value": "0x0",
        "input": "0xb08986910000000000000000000000009e174bc09cedadc7a5e39ba1142b6d95365182cb00000000000000000000000066bff13aff22c31df7cd53707e645c9736a6637a00000000000000000000000049503ffd8da325bfe52b8982a7f9c2e26643c27600000000000000000000000000000000000000000000000000000000000000000000000000000000000000000000000000000000000000000000000000000000000000000000000000000000000000000000000000000000000000000000000000000000000000000000000000000000000000000000d3c21bcecceda1000000000000000000000000000000ef40371a602409f86f9ac4e37580c59dee61199f00000000000000000000000000000000000000000000000000000000000001680000000000000000000000000000000000000000000000000000000000000001000000000000000000000000000000000000000000084595161401484a000000",
        "nonce": "0x146",
        "chainId": "0x279f"
      },
      "additionalContracts": [],
      "isFixedGasLimit": false
    },
    {
      "hash": "0x03df0c8fa09dc001bbaf58318fbb9632b3f21f6f20a15851c725b15c19a75191",
      "transactionType": "CALL",
      "contractName": null,
      "contractAddress": "0x388f2c53e77ef33111383a363e0b5fd976b18e74",
      "function": "configureTradingLimit(bytes32,address,(uint32,uint32,int48,int48,int48,uint8))",
      "arguments": [
        "0x99903a787878c236d4fe73d0ea0c98064b57bc87f4bdc428a62e4592d30c19e0",
        "0x9E174bc09cEdaDc7a5e39Ba1142b6d95365182CB",
        "(300, 86400, 100000, 500000, 2500000, 7)"
      ],
      "transaction": {
        "from": "0x56fd3f2bee130e9867942d0f463a16fbe49b8d81",
        "to": "0x388f2c53e77ef33111383a363e0b5fd976b18e74",
        "gas": "0xf976",
        "value": "0x0",
        "input": "0xa9b5aab399903a787878c236d4fe73d0ea0c98064b57bc87f4bdc428a62e4592d30c19e00000000000000000000000009e174bc09cedadc7a5e39ba1142b6d95365182cb000000000000000000000000000000000000000000000000000000000000012c000000000000000000000000000000000000000000000000000000000001518000000000000000000000000000000000000000000000000000000000000186a0000000000000000000000000000000000000000000000000000000000007a12000000000000000000000000000000000000000000000000000000000002625a00000000000000000000000000000000000000000000000000000000000000007",
        "nonce": "0x147",
        "chainId": "0x279f"
      },
      "additionalContracts": [],
      "isFixedGasLimit": false
    },
    {
      "hash": "0xd0e89e9456844b7302572984db0f99dabba34e7e8647c35d5571a1c79d4b40df",
      "transactionType": "CALL",
      "contractName": null,
      "contractAddress": "0x388f2c53e77ef33111383a363e0b5fd976b18e74",
      "function": "configureTradingLimit(bytes32,address,(uint32,uint32,int48,int48,int48,uint8))",
      "arguments": [
        "0x99903a787878c236d4fe73d0ea0c98064b57bc87f4bdc428a62e4592d30c19e0",
        "0x66BFF13AfF22c31dF7cd53707e645C9736A6637a",
        "(300, 86400, 12921000, 64605000, 323025000, 7)"
      ],
      "transaction": {
        "from": "0x56fd3f2bee130e9867942d0f463a16fbe49b8d81",
        "to": "0x388f2c53e77ef33111383a363e0b5fd976b18e74",
        "gas": "0xf999",
        "value": "0x0",
        "input": "0xa9b5aab399903a787878c236d4fe73d0ea0c98064b57bc87f4bdc428a62e4592d30c19e000000000000000000000000066bff13aff22c31df7cd53707e645c9736a6637a000000000000000000000000000000000000000000000000000000000000012c00000000000000000000000000000000000000000000000000000000000151800000000000000000000000000000000000000000000000000000000000c528a80000000000000000000000000000000000000000000000000000000003d9cb48000000000000000000000000000000000000000000000000000000001340f8680000000000000000000000000000000000000000000000000000000000000007",
        "nonce": "0x148",
        "chainId": "0x279f"
      },
      "additionalContracts": [],
      "isFixedGasLimit": false
    },
    {
      "hash": "0x6b98f12733acd5d079eb64809bfd9e3ff5443b737bf895007ff2182988e100e9",
      "transactionType": "CALL",
      "contractName": null,
      "contractAddress": "0x98c6d2a3a39ff5a2803240f597eb4c8ce76d36ab",
      "function": "createExchange((address,address,address,uint256,uint256,uint256,((uint256),address,uint256,uint256,uint256)))",
      "arguments": [
        "(0x9E174bc09cEdaDc7a5e39Ba1142b6d95365182CB, 0xcDDb469d22f0A15bE11d0acDA962E2CaACd52706, 0x49503Ffd8da325BfE52B8982A7f9c2E26643c276, 0, 0, 0, ((1000000000000000000000000), 0xAA04d30cced09aE17815f88d1BCAE69A49fB160f, 360, 1, 10000000000000000000000000))"
      ],
      "transaction": {
        "from": "0x56fd3f2bee130e9867942d0f463a16fbe49b8d81",
        "to": "0x98c6d2a3a39ff5a2803240f597eb4c8ce76d36ab",
        "gas": "0x7d30d",
        "value": "0x0",
        "input": "0xb08986910000000000000000000000009e174bc09cedadc7a5e39ba1142b6d95365182cb000000000000000000000000cddb469d22f0a15be11d0acda962e2caacd5270600000000000000000000000049503ffd8da325bfe52b8982a7f9c2e26643c27600000000000000000000000000000000000000000000000000000000000000000000000000000000000000000000000000000000000000000000000000000000000000000000000000000000000000000000000000000000000000000000000000000000000000000000000000000000000000000000d3c21bcecceda1000000000000000000000000000000aa04d30cced09ae17815f88d1bcae69a49fb160f00000000000000000000000000000000000000000000000000000000000001680000000000000000000000000000000000000000000000000000000000000001000000000000000000000000000000000000000000084595161401484a000000",
        "nonce": "0x149",
        "chainId": "0x279f"
      },
      "additionalContracts": [],
      "isFixedGasLimit": false
    },
    {
      "hash": "0x9ff787765f78107b686041e42cb18da55e418c2b25f22e811cb21d0c051e8f6c",
      "transactionType": "CALL",
      "contractName": null,
      "contractAddress": "0x388f2c53e77ef33111383a363e0b5fd976b18e74",
      "function": "configureTradingLimit(bytes32,address,(uint32,uint32,int48,int48,int48,uint8))",
      "arguments": [
        "0x4033fa45bb2569f1011bb158dc7b3ecc5958f0773d5a600923f1e8afc86d8413",
        "0x9E174bc09cEdaDc7a5e39Ba1142b6d95365182CB",
        "(300, 86400, 100000, 500000, 2500000, 7)"
      ],
      "transaction": {
        "from": "0x56fd3f2bee130e9867942d0f463a16fbe49b8d81",
        "to": "0x388f2c53e77ef33111383a363e0b5fd976b18e74",
        "gas": "0xf976",
        "value": "0x0",
        "input": "0xa9b5aab34033fa45bb2569f1011bb158dc7b3ecc5958f0773d5a600923f1e8afc86d84130000000000000000000000009e174bc09cedadc7a5e39ba1142b6d95365182cb000000000000000000000000000000000000000000000000000000000000012c000000000000000000000000000000000000000000000000000000000001518000000000000000000000000000000000000000000000000000000000000186a0000000000000000000000000000000000000000000000000000000000007a12000000000000000000000000000000000000000000000000000000000002625a00000000000000000000000000000000000000000000000000000000000000007",
        "nonce": "0x14a",
        "chainId": "0x279f"
      },
      "additionalContracts": [],
      "isFixedGasLimit": false
    },
    {
      "hash": "0xe18ce255281ba5c3d62caff8d83bb6d449af349bb5abd1970765d6f533a005d7",
      "transactionType": "CALL",
      "contractName": null,
      "contractAddress": "0x388f2c53e77ef33111383a363e0b5fd976b18e74",
      "function": "configureTradingLimit(bytes32,address,(uint32,uint32,int48,int48,int48,uint8))",
      "arguments": [
        "0x4033fa45bb2569f1011bb158dc7b3ecc5958f0773d5a600923f1e8afc86d8413",
        "0xcDDb469d22f0A15bE11d0acDA962E2CaACd52706",
        "(300, 86400, 5740000, 28700000, 143500000, 7)"
      ],
      "transaction": {
        "from": "0x56fd3f2bee130e9867942d0f463a16fbe49b8d81",
        "to": "0x388f2c53e77ef33111383a363e0b5fd976b18e74",
        "gas": "0xf999",
        "value": "0x0",
        "input": "0xa9b5aab34033fa45bb2569f1011bb158dc7b3ecc5958f0773d5a600923f1e8afc86d8413000000000000000000000000cddb469d22f0a15be11d0acda962e2caacd52706000000000000000000000000000000000000000000000000000000000000012c000000000000000000000000000000000000000000000000000000000001518000000000000000000000000000000000000000000000000000000000005795e00000000000000000000000000000000000000000000000000000000001b5ed6000000000000000000000000000000000000000000000000000000000088da2e00000000000000000000000000000000000000000000000000000000000000007",
        "nonce": "0x14b",
        "chainId": "0x279f"
      },
      "additionalContracts": [],
      "isFixedGasLimit": false
    },
    {
      "hash": "0x52e4ec28759291e5062dada337bdbb1cdb3c80262c47d85906e47acacff36d6a",
      "transactionType": "CALL",
      "contractName": null,
      "contractAddress": "0x98c6d2a3a39ff5a2803240f597eb4c8ce76d36ab",
      "function": "createExchange((address,address,address,uint256,uint256,uint256,((uint256),address,uint256,uint256,uint256)))",
      "arguments": [
        "(0x9E174bc09cEdaDc7a5e39Ba1142b6d95365182CB, 0xecdb02E9ce57d3B7A523bB7bf539e9E5Ffac3329, 0x49503Ffd8da325BfE52B8982A7f9c2E26643c276, 0, 0, 0, ((1000000000000000000000000), 0xbB792783141ac5F51eeD9c922ACf86d21a059Ca8, 360, 1, 10000000000000000000000000))"
      ],
      "transaction": {
        "from": "0x56fd3f2bee130e9867942d0f463a16fbe49b8d81",
        "to": "0x98c6d2a3a39ff5a2803240f597eb4c8ce76d36ab",
        "gas": "0x7d30d",
        "value": "0x0",
        "input": "0xb08986910000000000000000000000009e174bc09cedadc7a5e39ba1142b6d95365182cb000000000000000000000000ecdb02e9ce57d3b7a523bb7bf539e9e5ffac332900000000000000000000000049503ffd8da325bfe52b8982a7f9c2e26643c27600000000000000000000000000000000000000000000000000000000000000000000000000000000000000000000000000000000000000000000000000000000000000000000000000000000000000000000000000000000000000000000000000000000000000000000000000000000000000000000d3c21bcecceda1000000000000000000000000000000bb792783141ac5f51eed9c922acf86d21a059ca800000000000000000000000000000000000000000000000000000000000001680000000000000000000000000000000000000000000000000000000000000001000000000000000000000000000000000000000000084595161401484a000000",
        "nonce": "0x14c",
        "chainId": "0x279f"
      },
      "additionalContracts": [],
      "isFixedGasLimit": false
    },
    {
      "hash": "0xc3ddcb6945885d948c25f9b4241deb095a6edde63d7703e964e3b9b9f97a3a7f",
      "transactionType": "CALL",
      "contractName": null,
      "contractAddress": "0x388f2c53e77ef33111383a363e0b5fd976b18e74",
      "function": "configureTradingLimit(bytes32,address,(uint32,uint32,int48,int48,int48,uint8))",
      "arguments": [
        "0xb947832f187a2fc262902bc762d0288b5dc4abb9df1d6c79129ba0a8dc5ed26d",
        "0x9E174bc09cEdaDc7a5e39Ba1142b6d95365182CB",
        "(300, 86400, 50000, 250000, 1250000, 7)"
      ],
      "transaction": {
        "from": "0x56fd3f2bee130e9867942d0f463a16fbe49b8d81",
        "to": "0x388f2c53e77ef33111383a363e0b5fd976b18e74",
        "gas": "0xeb89",
        "value": "0x0",
        "input": "0xa9b5aab3b947832f187a2fc262902bc762d0288b5dc4abb9df1d6c79129ba0a8dc5ed26d0000000000000000000000009e174bc09cedadc7a5e39ba1142b6d95365182cb000000000000000000000000000000000000000000000000000000000000012c0000000000000000000000000000000000000000000000000000000000015180000000000000000000000000000000000000000000000000000000000000c350000000000000000000000000000000000000000000000000000000000003d09000000000000000000000000000000000000000000000000000000000001312d00000000000000000000000000000000000000000000000000000000000000007",
        "nonce": "0x14d",
        "chainId": "0x279f"
      },
      "additionalContracts": [],
      "isFixedGasLimit": false
    },
    {
      "hash": "0xf9ab008c480a19187f177ae46dd45bf1cc1fdac5e1e713f7db48dc73ffdd09d8",
      "transactionType": "CALL",
      "contractName": null,
      "contractAddress": "0x388f2c53e77ef33111383a363e0b5fd976b18e74",
      "function": "configureTradingLimit(bytes32,address,(uint32,uint32,int48,int48,int48,uint8))",
      "arguments": [
        "0xb947832f187a2fc262902bc762d0288b5dc4abb9df1d6c79129ba0a8dc5ed26d",
        "0xecdb02E9ce57d3B7A523bB7bf539e9E5Ffac3329",
        "(300, 86400, 28023000, 140115000, 700575000, 7)"
      ],
      "transaction": {
        "from": "0x56fd3f2bee130e9867942d0f463a16fbe49b8d81",
        "to": "0x388f2c53e77ef33111383a363e0b5fd976b18e74",
        "gas": "0xebcc",
        "value": "0x0",
        "input": "0xa9b5aab3b947832f187a2fc262902bc762d0288b5dc4abb9df1d6c79129ba0a8dc5ed26d000000000000000000000000ecdb02e9ce57d3b7a523bb7bf539e9e5ffac3329000000000000000000000000000000000000000000000000000000000000012c00000000000000000000000000000000000000000000000000000000000151800000000000000000000000000000000000000000000000000000000001ab98d8000000000000000000000000000000000000000000000000000000000859fc380000000000000000000000000000000000000000000000000000000029c1ed180000000000000000000000000000000000000000000000000000000000000007",
        "nonce": "0x14e",
        "chainId": "0x279f"
      },
      "additionalContracts": [],
      "isFixedGasLimit": false
    }
  ],
  "receipts": [
    {
      "status": "0x1",
      "cumulativeGasUsed": "0x90631f",
      "logs": [
        {
          "address": "0x98c6d2a3a39ff5a2803240f597eb4c8ce76d36ab",
          "topics": [
            "0xb374789237d43aed0f75b4c50a45793fd70e354bb96eecd573f35f5d509d78a1",
            "0x1dd1d4a1c823d13a0b425f67f38f882c3369d05b67e9b3ba1d561d1d9443651e",
            "0x0000000000000000000000009e174bc09cedadc7a5e39ba1142b6d95365182cb",
            "0x000000000000000000000000f817257fed379853cde0fa4f97ab987181b1e5ea"
          ],
          "data": "0x00000000000000000000000049503ffd8da325bfe52b8982a7f9c2e26643c276",
          "blockHash": "0x83bd06c729393a589619007a2c2032b45f91c096f228e8012e9419c4eeb7ccbf",
          "blockNumber": "0x2261b23",
          "blockTimestamp": "0x68bff803",
          "transactionHash": "0x9f4cd4b5b7b2eb9f7683a12498155c3f31d61c4381bb14cf353fd53205e78fbe",
          "transactionIndex": "0x1a",
          "logIndex": "0x3b",
          "removed": false
        }
      ],
      "logsBloom": "0x08000000000000000000000000000000000000000000004000000000000040000000000000000000000000000000000000000000000000000000000000000000000000000000000000000000000000000000004000000000008000000000000000000000400000400000000000000000000000000000000400000000000000000000000000000000000080000000000000000000000800000000000000000000000000010000000000000000200010000000000000000000000000000000000000000000000000000000000000000000000000000000000000000000000000000000000000000000000000400000000000000000000000008000000000000000",
      "type": "0x2",
      "transactionHash": "0x9f4cd4b5b7b2eb9f7683a12498155c3f31d61c4381bb14cf353fd53205e78fbe",
      "transactionIndex": "0x1a",
      "blockHash": "0x83bd06c729393a589619007a2c2032b45f91c096f228e8012e9419c4eeb7ccbf",
      "blockNumber": "0x2261b23",
      "gasUsed": "0x89575",
      "effectiveGasPrice": "0xba43b7401",
      "from": "0x56fd3f2bee130e9867942d0f463a16fbe49b8d81",
      "to": "0x98c6d2a3a39ff5a2803240f597eb4c8ce76d36ab",
      "contractAddress": null
    },
    {
      "status": "0x1",
      "cumulativeGasUsed": "0x9ff3cd",
      "logs": [
        {
          "address": "0x388f2c53e77ef33111383a363e0b5fd976b18e74",
          "topics": [
            "0x1a082a1efaf1549c18917ddcb1f759680c29371609e24f4b946e93acf4ce5ad2"
          ],
          "data": "0x1dd1d4a1c823d13a0b425f67f38f882c3369d05b67e9b3ba1d561d1d9443651e0000000000000000000000009e174bc09cedadc7a5e39ba1142b6d95365182cb000000000000000000000000000000000000000000000000000000000000012c000000000000000000000000000000000000000000000000000000000001518000000000000000000000000000000000000000000000000000000000002625a000000000000000000000000000000000000000000000000000000000004c4b4000000000000000000000000000000000000000000000000000000000000000000000000000000000000000000000000000000000000000000000000000000003",
          "blockHash": "0x83bd06c729393a589619007a2c2032b45f91c096f228e8012e9419c4eeb7ccbf",
          "blockNumber": "0x2261b23",
          "blockTimestamp": "0x68bff803",
          "transactionHash": "0x74473e52413326dd01510c556e29c33b6acf672b8a81c225cf6c6f0522d76849",
          "transactionIndex": "0x21",
          "logIndex": "0x4b",
          "removed": false
        }
      ],
      "logsBloom": "0x00000000000000000000000000000000000000000002000000000000000000000000000000000000000000000000000000000000000000000000020000000000000000000000000000000000000000000000000000000000000000000000000000000000000000000000000000000000000000000000000000000000000000000000000000000000000000000000000000000000000000020000000000000000000000000000000000000000000000000000000000000000000000000000000000000000000000000000000000000000000000000040000000000000000000000000000000000000000000000000000000000000000010000010000000000000",
      "type": "0x2",
      "transactionHash": "0x74473e52413326dd01510c556e29c33b6acf672b8a81c225cf6c6f0522d76849",
      "transactionIndex": "0x21",
      "blockHash": "0x83bd06c729393a589619007a2c2032b45f91c096f228e8012e9419c4eeb7ccbf",
      "blockNumber": "0x2261b23",
      "gasUsed": "0xeada",
      "effectiveGasPrice": "0xba43b7401",
      "from": "0x56fd3f2bee130e9867942d0f463a16fbe49b8d81",
      "to": "0x388f2c53e77ef33111383a363e0b5fd976b18e74",
      "contractAddress": null
    },
    {
      "status": "0x1",
      "cumulativeGasUsed": "0xa7b2e9",
      "logs": [
        {
          "address": "0x98c6d2a3a39ff5a2803240f597eb4c8ce76d36ab",
          "topics": [
            "0xb374789237d43aed0f75b4c50a45793fd70e354bb96eecd573f35f5d509d78a1",
            "0x09c52cc74e3ab4c6a0fbdecf0b859ecc63ba2dbec3861bfc87495fdf80d71cd9",
            "0x0000000000000000000000009e174bc09cedadc7a5e39ba1142b6d95365182cb",
            "0x00000000000000000000000088b8e2161dedc77ef4ab7585569d2415a1c1055d"
          ],
          "data": "0x00000000000000000000000049503ffd8da325bfe52b8982a7f9c2e26643c276",
          "blockHash": "0x83bd06c729393a589619007a2c2032b45f91c096f228e8012e9419c4eeb7ccbf",
          "blockNumber": "0x2261b23",
          "blockTimestamp": "0x68bff803",
          "transactionHash": "0xcbabacb236da83a3f9270a38abfeb8952fd233cb74dd391b6c8e1364f7c3a07b",
          "transactionIndex": "0x22",
          "logIndex": "0x4c",
          "removed": false
        }
      ],
      "logsBloom": "0x00000000000000000000000000000000000000000000004000000000000040000000000000000000000000000000000000000000000000000000000000000000000000000000000000000000000000000000200000000000000000000000000000000000400000400000000000000000000000000000000400000000000000080000000000000000000000000000000000000000000800000000000000000000000000000008000000000000201000000000000000000000000000000000000000000000000000000020000000000000000000000000000000000000000000000000000000000000000000400000000000800000000000008000000000000000",
      "type": "0x2",
      "transactionHash": "0xcbabacb236da83a3f9270a38abfeb8952fd233cb74dd391b6c8e1364f7c3a07b",
      "transactionIndex": "0x22",
      "blockHash": "0x83bd06c729393a589619007a2c2032b45f91c096f228e8012e9419c4eeb7ccbf",
      "blockNumber": "0x2261b23",
      "gasUsed": "0x7bf1c",
      "effectiveGasPrice": "0xba43b7401",
      "from": "0x56fd3f2bee130e9867942d0f463a16fbe49b8d81",
      "to": "0x98c6d2a3a39ff5a2803240f597eb4c8ce76d36ab",
      "contractAddress": null
    },
    {
      "status": "0x1",
      "cumulativeGasUsed": "0xa89dc3",
      "logs": [
        {
          "address": "0x388f2c53e77ef33111383a363e0b5fd976b18e74",
          "topics": [
            "0x1a082a1efaf1549c18917ddcb1f759680c29371609e24f4b946e93acf4ce5ad2"
          ],
          "data": "0x09c52cc74e3ab4c6a0fbdecf0b859ecc63ba2dbec3861bfc87495fdf80d71cd90000000000000000000000009e174bc09cedadc7a5e39ba1142b6d95365182cb000000000000000000000000000000000000000000000000000000000000012c000000000000000000000000000000000000000000000000000000000001518000000000000000000000000000000000000000000000000000000000002625a000000000000000000000000000000000000000000000000000000000004c4b4000000000000000000000000000000000000000000000000000000000000000000000000000000000000000000000000000000000000000000000000000000003",
          "blockHash": "0x83bd06c729393a589619007a2c2032b45f91c096f228e8012e9419c4eeb7ccbf",
          "blockNumber": "0x2261b23",
          "blockTimestamp": "0x68bff803",
          "transactionHash": "0xdb4591573fe83b5d539c57fb2c67f8b7fbbbf5faffd30448b6df01bd9fe9fc65",
          "transactionIndex": "0x23",
          "logIndex": "0x4d",
          "removed": false
        }
      ],
      "logsBloom": "0x00000000000000000000000000000000000000000002000000000000000000000000000000000000000000000000000000000000000000000000020000000000000000000000000000000000000000000000000000000000000000000000000000000000000000000000000000000000000000000000000000000000000000000000000000000000000000000000000000000000000000020000000000000000000000000000000000000000000000000000000000000000000000000000000000000000000000000000000000000000000000000040000000000000000000000000000000000000000000000000000000000000000010000010000000000000",
      "type": "0x2",
      "transactionHash": "0xdb4591573fe83b5d539c57fb2c67f8b7fbbbf5faffd30448b6df01bd9fe9fc65",
      "transactionIndex": "0x23",
      "blockHash": "0x83bd06c729393a589619007a2c2032b45f91c096f228e8012e9419c4eeb7ccbf",
      "blockNumber": "0x2261b23",
      "gasUsed": "0xeada",
      "effectiveGasPrice": "0xba43b7401",
      "from": "0x56fd3f2bee130e9867942d0f463a16fbe49b8d81",
      "to": "0x388f2c53e77ef33111383a363e0b5fd976b18e74",
      "contractAddress": null
    },
    {
      "status": "0x1",
      "cumulativeGasUsed": "0xb0e6b6",
      "logs": [
        {
          "address": "0x98c6d2a3a39ff5a2803240f597eb4c8ce76d36ab",
          "topics": [
            "0xb374789237d43aed0f75b4c50a45793fd70e354bb96eecd573f35f5d509d78a1",
            "0x74347ad8b811b2ca1cfbc092ee1f48203e0add8c0c4c4760d66868b46a42af81",
            "0x0000000000000000000000009e174bc09cedadc7a5e39ba1142b6d95365182cb",
            "0x000000000000000000000000b5a31a69b58b3b3a61c8704b489f53d6b79016c4"
          ],
          "data": "0x00000000000000000000000049503ffd8da325bfe52b8982a7f9c2e26643c276",
          "blockHash": "0x83bd06c729393a589619007a2c2032b45f91c096f228e8012e9419c4eeb7ccbf",
          "blockNumber": "0x2261b23",
          "blockTimestamp": "0x68bff803",
          "transactionHash": "0x2f96d90a281c28ef5c2f471f0b5f097350793d60a3679f72c6de9c21dee3da9d",
          "transactionIndex": "0x24",
          "logIndex": "0x4e",
          "removed": false
        }
      ],
      "logsBloom": "0x00000000000000000000000000020000000000000000004000000000000040000000000000000000000000000000000000000000000000000020000000000000000000000000000001000000000400000000000000000000000000000000000000000000400000400000000000000000000000000000000400000000000000000000000000000000000000000000000000000000000800000000000000000000000000010000000000000000200000000000000000000000000000000000000000000000000000000000000000000000000000000000000000000000000000000000000000000000000000400000000000000000000000008000000400000000",
      "type": "0x2",
      "transactionHash": "0x2f96d90a281c28ef5c2f471f0b5f097350793d60a3679f72c6de9c21dee3da9d",
      "transactionIndex": "0x24",
      "blockHash": "0x83bd06c729393a589619007a2c2032b45f91c096f228e8012e9419c4eeb7ccbf",
      "blockNumber": "0x2261b23",
      "gasUsed": "0x848f3",
      "effectiveGasPrice": "0xba43b7401",
      "from": "0x56fd3f2bee130e9867942d0f463a16fbe49b8d81",
      "to": "0x98c6d2a3a39ff5a2803240f597eb4c8ce76d36ab",
      "contractAddress": null
    },
    {
      "status": "0x1",
      "cumulativeGasUsed": "0xb1e02c",
      "logs": [
        {
          "address": "0x388f2c53e77ef33111383a363e0b5fd976b18e74",
          "topics": [
            "0x1a082a1efaf1549c18917ddcb1f759680c29371609e24f4b946e93acf4ce5ad2"
          ],
          "data": "0x74347ad8b811b2ca1cfbc092ee1f48203e0add8c0c4c4760d66868b46a42af810000000000000000000000009e174bc09cedadc7a5e39ba1142b6d95365182cb000000000000000000000000000000000000000000000000000000000000012c000000000000000000000000000000000000000000000000000000000001518000000000000000000000000000000000000000000000000000000000000186a0000000000000000000000000000000000000000000000000000000000007a12000000000000000000000000000000000000000000000000000000000002625a00000000000000000000000000000000000000000000000000000000000000007",
          "blockHash": "0x83bd06c729393a589619007a2c2032b45f91c096f228e8012e9419c4eeb7ccbf",
          "blockNumber": "0x2261b23",
          "blockTimestamp": "0x68bff803",
          "transactionHash": "0x0dbd7296ab46ec5a99f219a444381de9c026caa6c98fbf522fb4b926297b30e3",
          "transactionIndex": "0x25",
          "logIndex": "0x4f",
          "removed": false
        }
      ],
      "logsBloom": "0x00000000000000000000000000000000000000000002000000000000000000000000000000000000000000000000000000000000000000000000020000000000000000000000000000000000000000000000000000000000000000000000000000000000000000000000000000000000000000000000000000000000000000000000000000000000000000000000000000000000000000020000000000000000000000000000000000000000000000000000000000000000000000000000000000000000000000000000000000000000000000000040000000000000000000000000000000000000000000000000000000000000000010000010000000000000",
      "type": "0x2",
      "transactionHash": "0x0dbd7296ab46ec5a99f219a444381de9c026caa6c98fbf522fb4b926297b30e3",
      "transactionIndex": "0x25",
      "blockHash": "0x83bd06c729393a589619007a2c2032b45f91c096f228e8012e9419c4eeb7ccbf",
      "blockNumber": "0x2261b23",
      "gasUsed": "0xf976",
      "effectiveGasPrice": "0xba43b7401",
      "from": "0x56fd3f2bee130e9867942d0f463a16fbe49b8d81",
      "to": "0x388f2c53e77ef33111383a363e0b5fd976b18e74",
      "contractAddress": null
    },
    {
      "status": "0x1",
      "cumulativeGasUsed": "0xb2d9a2",
      "logs": [
        {
          "address": "0x388f2c53e77ef33111383a363e0b5fd976b18e74",
          "topics": [
            "0x1a082a1efaf1549c18917ddcb1f759680c29371609e24f4b946e93acf4ce5ad2"
          ],
          "data": "0x74347ad8b811b2ca1cfbc092ee1f48203e0add8c0c4c4760d66868b46a42af81000000000000000000000000b5a31a69b58b3b3a61c8704b489f53d6b79016c4000000000000000000000000000000000000000000000000000000000000012c00000000000000000000000000000000000000000000000000000000000151800000000000000000000000000000000000000000000000000000000000014ff00000000000000000000000000000000000000000000000000000000000068fb0000000000000000000000000000000000000000000000000000000000020ce700000000000000000000000000000000000000000000000000000000000000007",
          "blockHash": "0x83bd06c729393a589619007a2c2032b45f91c096f228e8012e9419c4eeb7ccbf",
          "blockNumber": "0x2261b23",
          "blockTimestamp": "0x68bff803",
          "transactionHash": "0x67cd1f8cc67f966a9229bc4d6322ef517bc756c17bf4027581d460fdf55f4fe7",
          "transactionIndex": "0x26",
          "logIndex": "0x50",
          "removed": false
        }
      ],
      "logsBloom": "0x00000000000000000000000000000000000000000002000000000000000000000000000000000000000000000000000000000000000000000000020000000000000000000000000000000000000000000000000000000000000000000000000000000000000000000000000000000000000000000000000000000000000000000000000000000000000000000000000000000000000000020000000000000000000000000000000000000000000000000000000000000000000000000000000000000000000000000000000000000000000000000040000000000000000000000000000000000000000000000000000000000000000010000010000000000000",
      "type": "0x2",
      "transactionHash": "0x67cd1f8cc67f966a9229bc4d6322ef517bc756c17bf4027581d460fdf55f4fe7",
      "transactionIndex": "0x26",
      "blockHash": "0x83bd06c729393a589619007a2c2032b45f91c096f228e8012e9419c4eeb7ccbf",
      "blockNumber": "0x2261b23",
      "gasUsed": "0xf976",
      "effectiveGasPrice": "0xba43b7401",
      "from": "0x56fd3f2bee130e9867942d0f463a16fbe49b8d81",
      "to": "0x388f2c53e77ef33111383a363e0b5fd976b18e74",
      "contractAddress": null
    },
    {
      "status": "0x1",
      "cumulativeGasUsed": "0xbb2295",
      "logs": [
        {
          "address": "0x98c6d2a3a39ff5a2803240f597eb4c8ce76d36ab",
          "topics": [
            "0xb374789237d43aed0f75b4c50a45793fd70e354bb96eecd573f35f5d509d78a1",
            "0x7e31ac1ba139a9da37c7e0503e48eb7d3b9a74f348eddf98157d11cf13306a34",
            "0x0000000000000000000000009e174bc09cedadc7a5e39ba1142b6d95365182cb",
            "0x000000000000000000000000109902563daa6d404f9d30981d03d7070b96e1c8"
          ],
          "data": "0x00000000000000000000000049503ffd8da325bfe52b8982a7f9c2e26643c276",
          "blockHash": "0x83bd06c729393a589619007a2c2032b45f91c096f228e8012e9419c4eeb7ccbf",
          "blockNumber": "0x2261b23",
          "blockTimestamp": "0x68bff803",
          "transactionHash": "0xba844578c51675a853d3b97e5b4a955432a47aa7bdb5243aaaf5c33c9952eefa",
          "transactionIndex": "0x27",
          "logIndex": "0x51",
          "removed": false
        }
      ],
      "logsBloom": "0x00000000000000000000000000000000000000000000004000000000000140000000000000000000000000000000000000000000000000000000000000000000000000000000000000080000000000000000000000000000000000000000000000000000400800400000000800000000000000000000000400000000000000000000000000000000000000000000000000000000000800000000000000000000000000000000000000000000300000000000000000000000000000000000000000000000000000000000000000000000000000000000000008000000000000000000000000000000000000400000000000000000000000008000000000000000",
      "type": "0x2",
      "transactionHash": "0xba844578c51675a853d3b97e5b4a955432a47aa7bdb5243aaaf5c33c9952eefa",
      "transactionIndex": "0x27",
      "blockHash": "0x83bd06c729393a589619007a2c2032b45f91c096f228e8012e9419c4eeb7ccbf",
      "blockNumber": "0x2261b23",
      "gasUsed": "0x848f3",
      "effectiveGasPrice": "0xba43b7401",
      "from": "0x56fd3f2bee130e9867942d0f463a16fbe49b8d81",
      "to": "0x98c6d2a3a39ff5a2803240f597eb4c8ce76d36ab",
      "contractAddress": null
    },
    {
      "status": "0x1",
      "cumulativeGasUsed": "0xbc1c0b",
      "logs": [
        {
          "address": "0x388f2c53e77ef33111383a363e0b5fd976b18e74",
          "topics": [
            "0x1a082a1efaf1549c18917ddcb1f759680c29371609e24f4b946e93acf4ce5ad2"
          ],
          "data": "0x7e31ac1ba139a9da37c7e0503e48eb7d3b9a74f348eddf98157d11cf13306a340000000000000000000000009e174bc09cedadc7a5e39ba1142b6d95365182cb000000000000000000000000000000000000000000000000000000000000012c000000000000000000000000000000000000000000000000000000000001518000000000000000000000000000000000000000000000000000000000000186a0000000000000000000000000000000000000000000000000000000000007a12000000000000000000000000000000000000000000000000000000000002625a00000000000000000000000000000000000000000000000000000000000000007",
          "blockHash": "0x83bd06c729393a589619007a2c2032b45f91c096f228e8012e9419c4eeb7ccbf",
          "blockNumber": "0x2261b23",
          "blockTimestamp": "0x68bff803",
          "transactionHash": "0xf9a01af98ca367d03b1d28da5f9b6a89965eab355dbfe4caff9b5b0e8da1631a",
          "transactionIndex": "0x28",
          "logIndex": "0x52",
          "removed": false
        }
      ],
      "logsBloom": "0x00000000000000000000000000000000000000000002000000000000000000000000000000000000000000000000000000000000000000000000020000000000000000000000000000000000000000000000000000000000000000000000000000000000000000000000000000000000000000000000000000000000000000000000000000000000000000000000000000000000000000020000000000000000000000000000000000000000000000000000000000000000000000000000000000000000000000000000000000000000000000000040000000000000000000000000000000000000000000000000000000000000000010000010000000000000",
      "type": "0x2",
      "transactionHash": "0xf9a01af98ca367d03b1d28da5f9b6a89965eab355dbfe4caff9b5b0e8da1631a",
      "transactionIndex": "0x28",
      "blockHash": "0x83bd06c729393a589619007a2c2032b45f91c096f228e8012e9419c4eeb7ccbf",
      "blockNumber": "0x2261b23",
      "gasUsed": "0xf976",
      "effectiveGasPrice": "0xba43b7401",
      "from": "0x56fd3f2bee130e9867942d0f463a16fbe49b8d81",
      "to": "0x388f2c53e77ef33111383a363e0b5fd976b18e74",
      "contractAddress": null
    },
    {
      "status": "0x1",
      "cumulativeGasUsed": "0xbd1581",
      "logs": [
        {
          "address": "0x388f2c53e77ef33111383a363e0b5fd976b18e74",
          "topics": [
            "0x1a082a1efaf1549c18917ddcb1f759680c29371609e24f4b946e93acf4ce5ad2"
          ],
          "data": "0x7e31ac1ba139a9da37c7e0503e48eb7d3b9a74f348eddf98157d11cf13306a34000000000000000000000000109902563daa6d404f9d30981d03d7070b96e1c8000000000000000000000000000000000000000000000000000000000000012c0000000000000000000000000000000000000000000000000000000000015180000000000000000000000000000000000000000000000000000000000002599000000000000000000000000000000000000000000000000000000000000bbfd000000000000000000000000000000000000000000000000000000000003abf100000000000000000000000000000000000000000000000000000000000000007",
          "blockHash": "0x83bd06c729393a589619007a2c2032b45f91c096f228e8012e9419c4eeb7ccbf",
          "blockNumber": "0x2261b23",
          "blockTimestamp": "0x68bff803",
          "transactionHash": "0xb5eb1ea1e25034e3e32104baf57c8e9261aed0741260d0815cd7c3d7df4f906f",
          "transactionIndex": "0x29",
          "logIndex": "0x53",
          "removed": false
        }
      ],
      "logsBloom": "0x00000000000000000000000000000000000000000002000000000000000000000000000000000000000000000000000000000000000000000000020000000000000000000000000000000000000000000000000000000000000000000000000000000000000000000000000000000000000000000000000000000000000000000000000000000000000000000000000000000000000000020000000000000000000000000000000000000000000000000000000000000000000000000000000000000000000000000000000000000000000000000040000000000000000000000000000000000000000000000000000000000000000010000010000000000000",
      "type": "0x2",
      "transactionHash": "0xb5eb1ea1e25034e3e32104baf57c8e9261aed0741260d0815cd7c3d7df4f906f",
      "transactionIndex": "0x29",
      "blockHash": "0x83bd06c729393a589619007a2c2032b45f91c096f228e8012e9419c4eeb7ccbf",
      "blockNumber": "0x2261b23",
      "gasUsed": "0xf976",
      "effectiveGasPrice": "0xba43b7401",
      "from": "0x56fd3f2bee130e9867942d0f463a16fbe49b8d81",
      "to": "0x388f2c53e77ef33111383a363e0b5fd976b18e74",
      "contractAddress": null
    },
    {
      "status": "0x1",
      "cumulativeGasUsed": "0xc55e74",
      "logs": [
        {
          "address": "0x98c6d2a3a39ff5a2803240f597eb4c8ce76d36ab",
          "topics": [
            "0xb374789237d43aed0f75b4c50a45793fd70e354bb96eecd573f35f5d509d78a1",
            "0x3a741bff3e73215535b95af758343e59e523a59773b5420528f5e1b3a12de496",
            "0x0000000000000000000000009e174bc09cedadc7a5e39ba1142b6d95365182cb",
            "0x000000000000000000000000fdb9576d43148e523f5351de41e43a307a7d2956"
          ],
          "data": "0x00000000000000000000000049503ffd8da325bfe52b8982a7f9c2e26643c276",
          "blockHash": "0x83bd06c729393a589619007a2c2032b45f91c096f228e8012e9419c4eeb7ccbf",
          "blockNumber": "0x2261b23",
          "blockTimestamp": "0x68bff803",
          "transactionHash": "0x84e22e745b5ea8c093416d4043d86ee03bbd581c098a6d26ca2034ef333338be",
          "transactionIndex": "0x2a",
          "logIndex": "0x54",
          "removed": false
        }
      ],
      "logsBloom": "0x00000010000000000000000000000000000000000000004000000000000040000000000000000000000000000000001000000000000000000000000000000000000000000000000000000000000000000000000000000000000000000000000000000000400000400000000000000000000000000000000400000000000000000000000000000000000000000000000000000040000800000000000000000000000000000000000000000000200000000000000000000000000000000000000000000000000000002000000000000000000000000000000000000000000000000000000000000000000200400000000000000000000000008000000000000040",
      "type": "0x2",
      "transactionHash": "0x84e22e745b5ea8c093416d4043d86ee03bbd581c098a6d26ca2034ef333338be",
      "transactionIndex": "0x2a",
      "blockHash": "0x83bd06c729393a589619007a2c2032b45f91c096f228e8012e9419c4eeb7ccbf",
      "blockNumber": "0x2261b23",
      "gasUsed": "0x848f3",
      "effectiveGasPrice": "0xba43b7401",
      "from": "0x56fd3f2bee130e9867942d0f463a16fbe49b8d81",
      "to": "0x98c6d2a3a39ff5a2803240f597eb4c8ce76d36ab",
      "contractAddress": null
    },
    {
      "status": "0x1",
      "cumulativeGasUsed": "0xc657ea",
      "logs": [
        {
          "address": "0x388f2c53e77ef33111383a363e0b5fd976b18e74",
          "topics": [
            "0x1a082a1efaf1549c18917ddcb1f759680c29371609e24f4b946e93acf4ce5ad2"
          ],
          "data": "0x3a741bff3e73215535b95af758343e59e523a59773b5420528f5e1b3a12de4960000000000000000000000009e174bc09cedadc7a5e39ba1142b6d95365182cb000000000000000000000000000000000000000000000000000000000000012c000000000000000000000000000000000000000000000000000000000001518000000000000000000000000000000000000000000000000000000000000186a0000000000000000000000000000000000000000000000000000000000007a12000000000000000000000000000000000000000000000000000000000002625a00000000000000000000000000000000000000000000000000000000000000007",
          "blockHash": "0x83bd06c729393a589619007a2c2032b45f91c096f228e8012e9419c4eeb7ccbf",
          "blockNumber": "0x2261b23",
          "blockTimestamp": "0x68bff803",
          "transactionHash": "0x7d38b60297f1518d69e727e9d2c8e40655485dc29b32bdf13f6ecac8d27e6d0d",
          "transactionIndex": "0x2b",
          "logIndex": "0x55",
          "removed": false
        }
      ],
      "logsBloom": "0x00000000000000000000000000000000000000000002000000000000000000000000000000000000000000000000000000000000000000000000020000000000000000000000000000000000000000000000000000000000000000000000000000000000000000000000000000000000000000000000000000000000000000000000000000000000000000000000000000000000000000020000000000000000000000000000000000000000000000000000000000000000000000000000000000000000000000000000000000000000000000000040000000000000000000000000000000000000000000000000000000000000000010000010000000000000",
      "type": "0x2",
      "transactionHash": "0x7d38b60297f1518d69e727e9d2c8e40655485dc29b32bdf13f6ecac8d27e6d0d",
      "transactionIndex": "0x2b",
      "blockHash": "0x83bd06c729393a589619007a2c2032b45f91c096f228e8012e9419c4eeb7ccbf",
      "blockNumber": "0x2261b23",
      "gasUsed": "0xf976",
      "effectiveGasPrice": "0xba43b7401",
      "from": "0x56fd3f2bee130e9867942d0f463a16fbe49b8d81",
      "to": "0x388f2c53e77ef33111383a363e0b5fd976b18e74",
      "contractAddress": null
    },
    {
      "status": "0x1",
      "cumulativeGasUsed": "0xc75160",
      "logs": [
        {
          "address": "0x388f2c53e77ef33111383a363e0b5fd976b18e74",
          "topics": [
            "0x1a082a1efaf1549c18917ddcb1f759680c29371609e24f4b946e93acf4ce5ad2"
          ],
          "data": "0x3a741bff3e73215535b95af758343e59e523a59773b5420528f5e1b3a12de496000000000000000000000000fdb9576d43148e523f5351de41e43a307a7d2956000000000000000000000000000000000000000000000000000000000000012c00000000000000000000000000000000000000000000000000000000000151800000000000000000000000000000000000000000000000000000000000021b1000000000000000000000000000000000000000000000000000000000000a8750000000000000000000000000000000000000000000000000000000000034a4900000000000000000000000000000000000000000000000000000000000000007",
          "blockHash": "0x83bd06c729393a589619007a2c2032b45f91c096f228e8012e9419c4eeb7ccbf",
          "blockNumber": "0x2261b23",
          "blockTimestamp": "0x68bff803",
          "transactionHash": "0xf51257128941fd4c146fb323355cd3c62a03d0b1b06f9e05dc0729479ad05560",
          "transactionIndex": "0x2c",
          "logIndex": "0x56",
          "removed": false
        }
      ],
      "logsBloom": "0x00000000000000000000000000000000000000000002000000000000000000000000000000000000000000000000000000000000000000000000020000000000000000000000000000000000000000000000000000000000000000000000000000000000000000000000000000000000000000000000000000000000000000000000000000000000000000000000000000000000000000020000000000000000000000000000000000000000000000000000000000000000000000000000000000000000000000000000000000000000000000000040000000000000000000000000000000000000000000000000000000000000000010000010000000000000",
      "type": "0x2",
      "transactionHash": "0xf51257128941fd4c146fb323355cd3c62a03d0b1b06f9e05dc0729479ad05560",
      "transactionIndex": "0x2c",
      "blockHash": "0x83bd06c729393a589619007a2c2032b45f91c096f228e8012e9419c4eeb7ccbf",
      "blockNumber": "0x2261b23",
      "gasUsed": "0xf976",
      "effectiveGasPrice": "0xba43b7401",
      "from": "0x56fd3f2bee130e9867942d0f463a16fbe49b8d81",
      "to": "0x388f2c53e77ef33111383a363e0b5fd976b18e74",
      "contractAddress": null
    },
    {
      "status": "0x1",
      "cumulativeGasUsed": "0xcf9a53",
      "logs": [
        {
          "address": "0x98c6d2a3a39ff5a2803240f597eb4c8ce76d36ab",
          "topics": [
            "0xb374789237d43aed0f75b4c50a45793fd70e354bb96eecd573f35f5d509d78a1",
            "0x1e202f0a25ad85db6599f21e871274250e3f946c4b13ead6793c4d36d54b7680",
            "0x0000000000000000000000009e174bc09cedadc7a5e39ba1142b6d95365182cb",
            "0x000000000000000000000000af95a360ebae29ba1f9dc8b833b8a985df168a83"
          ],
          "data": "0x00000000000000000000000049503ffd8da325bfe52b8982a7f9c2e26643c276",
          "blockHash": "0x83bd06c729393a589619007a2c2032b45f91c096f228e8012e9419c4eeb7ccbf",
          "blockNumber": "0x2261b23",
          "blockTimestamp": "0x68bff803",
          "transactionHash": "0x6ff32684976f7ed6de4f627b6c68a1b2605aa79bf3b004d07f2ad2f21f382c01",
          "transactionIndex": "0x2d",
          "logIndex": "0x57",
          "removed": false
        }
      ],
      "logsBloom": "0x00000000000000000000000000000000000000000000004000000000000040000000000000000000000000000000000000000000000000000000000000000000000000000000000000000000000000000000000000000000000000000080000000000000400000400000000000000000000000000000000400000000000000000000000000000000000000000000000000000000000800000000004000000000000000000000000000000000200000080000000000000000000000000000000000000000004000080000002000000000000000000000000000000000000000000000000000000000000000400000000000000000000000008000000000000000",
      "type": "0x2",
      "transactionHash": "0x6ff32684976f7ed6de4f627b6c68a1b2605aa79bf3b004d07f2ad2f21f382c01",
      "transactionIndex": "0x2d",
      "blockHash": "0x83bd06c729393a589619007a2c2032b45f91c096f228e8012e9419c4eeb7ccbf",
      "blockNumber": "0x2261b23",
      "gasUsed": "0x848f3",
      "effectiveGasPrice": "0xba43b7401",
      "from": "0x56fd3f2bee130e9867942d0f463a16fbe49b8d81",
      "to": "0x98c6d2a3a39ff5a2803240f597eb4c8ce76d36ab",
      "contractAddress": null
    },
    {
      "status": "0x1",
      "cumulativeGasUsed": "0xd093c9",
      "logs": [
        {
          "address": "0x388f2c53e77ef33111383a363e0b5fd976b18e74",
          "topics": [
            "0x1a082a1efaf1549c18917ddcb1f759680c29371609e24f4b946e93acf4ce5ad2"
          ],
          "data": "0x1e202f0a25ad85db6599f21e871274250e3f946c4b13ead6793c4d36d54b76800000000000000000000000009e174bc09cedadc7a5e39ba1142b6d95365182cb000000000000000000000000000000000000000000000000000000000000012c000000000000000000000000000000000000000000000000000000000001518000000000000000000000000000000000000000000000000000000000000186a0000000000000000000000000000000000000000000000000000000000007a12000000000000000000000000000000000000000000000000000000000002625a00000000000000000000000000000000000000000000000000000000000000007",
          "blockHash": "0x83bd06c729393a589619007a2c2032b45f91c096f228e8012e9419c4eeb7ccbf",
          "blockNumber": "0x2261b23",
          "blockTimestamp": "0x68bff803",
          "transactionHash": "0xd6a7771d9d34a614a30b8fd4979ef5cde8f321b49d8ff9641a2f7de25e540768",
          "transactionIndex": "0x2e",
          "logIndex": "0x58",
          "removed": false
        }
      ],
      "logsBloom": "0x00000000000000000000000000000000000000000002000000000000000000000000000000000000000000000000000000000000000000000000020000000000000000000000000000000000000000000000000000000000000000000000000000000000000000000000000000000000000000000000000000000000000000000000000000000000000000000000000000000000000000020000000000000000000000000000000000000000000000000000000000000000000000000000000000000000000000000000000000000000000000000040000000000000000000000000000000000000000000000000000000000000000010000010000000000000",
      "type": "0x2",
      "transactionHash": "0xd6a7771d9d34a614a30b8fd4979ef5cde8f321b49d8ff9641a2f7de25e540768",
      "transactionIndex": "0x2e",
      "blockHash": "0x83bd06c729393a589619007a2c2032b45f91c096f228e8012e9419c4eeb7ccbf",
      "blockNumber": "0x2261b23",
      "gasUsed": "0xf976",
      "effectiveGasPrice": "0xba43b7401",
      "from": "0x56fd3f2bee130e9867942d0f463a16fbe49b8d81",
      "to": "0x388f2c53e77ef33111383a363e0b5fd976b18e74",
      "contractAddress": null
    },
    {
      "status": "0x1",
      "cumulativeGasUsed": "0x779478",
      "logs": [
        {
          "address": "0x388f2c53e77ef33111383a363e0b5fd976b18e74",
          "topics": [
            "0x1a082a1efaf1549c18917ddcb1f759680c29371609e24f4b946e93acf4ce5ad2"
          ],
          "data": "0x1e202f0a25ad85db6599f21e871274250e3f946c4b13ead6793c4d36d54b7680000000000000000000000000af95a360ebae29ba1f9dc8b833b8a985df168a83000000000000000000000000000000000000000000000000000000000000012c000000000000000000000000000000000000000000000000000000000001518000000000000000000000000000000000000000000000000000000000000124f8000000000000000000000000000000000000000000000000000000000005b8d800000000000000000000000000000000000000000000000000000000001c9c380000000000000000000000000000000000000000000000000000000000000007",
          "blockHash": "0x2349bc27dc2a30e9d5297c4d2f58e9d25fb6d6cc1c2454c046b5eae482f10d6a",
          "blockNumber": "0x2261b24",
          "blockTimestamp": "0x68bff803",
          "transactionHash": "0x7a2d3cac8cef1feb6211a81805b405c5801aa38af1b8460b9b393b2aa50ad51d",
          "transactionIndex": "0x21",
          "logIndex": "0x4a",
          "removed": false
        }
      ],
      "logsBloom": "0x00000000000000000000000000000000000000000002000000000000000000000000000000000000000000000000000000000000000000000000020000000000000000000000000000000000000000000000000000000000000000000000000000000000000000000000000000000000000000000000000000000000000000000000000000000000000000000000000000000000000000020000000000000000000000000000000000000000000000000000000000000000000000000000000000000000000000000000000000000000000000000040000000000000000000000000000000000000000000000000000000000000000010000010000000000000",
      "type": "0x2",
      "transactionHash": "0x7a2d3cac8cef1feb6211a81805b405c5801aa38af1b8460b9b393b2aa50ad51d",
      "transactionIndex": "0x21",
      "blockHash": "0x2349bc27dc2a30e9d5297c4d2f58e9d25fb6d6cc1c2454c046b5eae482f10d6a",
      "blockNumber": "0x2261b24",
      "gasUsed": "0xf976",
      "effectiveGasPrice": "0xba43b7401",
      "from": "0x56fd3f2bee130e9867942d0f463a16fbe49b8d81",
      "to": "0x388f2c53e77ef33111383a363e0b5fd976b18e74",
      "contractAddress": null
    },
    {
      "status": "0x1",
      "cumulativeGasUsed": "0x7fdd6b",
      "logs": [
        {
          "address": "0x98c6d2a3a39ff5a2803240f597eb4c8ce76d36ab",
          "topics": [
            "0xb374789237d43aed0f75b4c50a45793fd70e354bb96eecd573f35f5d509d78a1",
            "0xe8aecadc079c71e499fb1988f24806ea48e03b472829a165527bd80d856c3f7f",
            "0x0000000000000000000000009e174bc09cedadc7a5e39ba1142b6d95365182cb",
            "0x000000000000000000000000ce1b285691b40f54762d69c40b24ec4c95add3fc"
          ],
          "data": "0x00000000000000000000000049503ffd8da325bfe52b8982a7f9c2e26643c276",
          "blockHash": "0x2349bc27dc2a30e9d5297c4d2f58e9d25fb6d6cc1c2454c046b5eae482f10d6a",
          "blockNumber": "0x2261b24",
          "blockTimestamp": "0x68bff803",
          "transactionHash": "0xe8e0ef2eba6e2143fa533217a0380925e77875e4a972592cc3a59a9ed2ab8b0c",
          "transactionIndex": "0x22",
          "logIndex": "0x4b",
          "removed": false
        }
      ],
      "logsBloom": "0x00000000000000000000000000000000000000000000004000000000000040000000000000000000000000000000000000000000000000400000000000000800000000000000000000000000000000000000000000000000000000000000000000000000400000400000000000000000000000000000000400000000000000000000000000000000000000000000000000000000000800000000000000000000002000000000002000000000200000000000000000000000000000000000000000000000000000000000000000000000000000000000000000000000000000000000000000000000000000400000000000800000000000008000008000000000",
      "type": "0x2",
      "transactionHash": "0xe8e0ef2eba6e2143fa533217a0380925e77875e4a972592cc3a59a9ed2ab8b0c",
      "transactionIndex": "0x22",
      "blockHash": "0x2349bc27dc2a30e9d5297c4d2f58e9d25fb6d6cc1c2454c046b5eae482f10d6a",
      "blockNumber": "0x2261b24",
      "gasUsed": "0x848f3",
      "effectiveGasPrice": "0xba43b7401",
      "from": "0x56fd3f2bee130e9867942d0f463a16fbe49b8d81",
      "to": "0x98c6d2a3a39ff5a2803240f597eb4c8ce76d36ab",
      "contractAddress": null
    },
    {
      "status": "0x1",
      "cumulativeGasUsed": "0x80d6e1",
      "logs": [
        {
          "address": "0x388f2c53e77ef33111383a363e0b5fd976b18e74",
          "topics": [
            "0x1a082a1efaf1549c18917ddcb1f759680c29371609e24f4b946e93acf4ce5ad2"
          ],
          "data": "0xe8aecadc079c71e499fb1988f24806ea48e03b472829a165527bd80d856c3f7f0000000000000000000000009e174bc09cedadc7a5e39ba1142b6d95365182cb000000000000000000000000000000000000000000000000000000000000012c000000000000000000000000000000000000000000000000000000000001518000000000000000000000000000000000000000000000000000000000000186a0000000000000000000000000000000000000000000000000000000000007a12000000000000000000000000000000000000000000000000000000000002625a00000000000000000000000000000000000000000000000000000000000000007",
          "blockHash": "0x2349bc27dc2a30e9d5297c4d2f58e9d25fb6d6cc1c2454c046b5eae482f10d6a",
          "blockNumber": "0x2261b24",
          "blockTimestamp": "0x68bff803",
          "transactionHash": "0x87ed47288d46c6cfc1dc9ebec2132bfd7aef80431a99ff5a119bf0c12e767cb3",
          "transactionIndex": "0x23",
          "logIndex": "0x4c",
          "removed": false
        }
      ],
      "logsBloom": "0x00000000000000000000000000000000000000000002000000000000000000000000000000000000000000000000000000000000000000000000020000000000000000000000000000000000000000000000000000000000000000000000000000000000000000000000000000000000000000000000000000000000000000000000000000000000000000000000000000000000000000020000000000000000000000000000000000000000000000000000000000000000000000000000000000000000000000000000000000000000000000000040000000000000000000000000000000000000000000000000000000000000000010000010000000000000",
      "type": "0x2",
      "transactionHash": "0x87ed47288d46c6cfc1dc9ebec2132bfd7aef80431a99ff5a119bf0c12e767cb3",
      "transactionIndex": "0x23",
      "blockHash": "0x2349bc27dc2a30e9d5297c4d2f58e9d25fb6d6cc1c2454c046b5eae482f10d6a",
      "blockNumber": "0x2261b24",
      "gasUsed": "0xf976",
      "effectiveGasPrice": "0xba43b7401",
      "from": "0x56fd3f2bee130e9867942d0f463a16fbe49b8d81",
      "to": "0x388f2c53e77ef33111383a363e0b5fd976b18e74",
      "contractAddress": null
    },
    {
      "status": "0x1",
      "cumulativeGasUsed": "0x81c28b",
      "logs": [
        {
          "address": "0x388f2c53e77ef33111383a363e0b5fd976b18e74",
          "topics": [
            "0x1a082a1efaf1549c18917ddcb1f759680c29371609e24f4b946e93acf4ce5ad2"
          ],
          "data": "0xe8aecadc079c71e499fb1988f24806ea48e03b472829a165527bd80d856c3f7f000000000000000000000000ce1b285691b40f54762d69c40b24ec4c95add3fc000000000000000000000000000000000000000000000000000000000000012c000000000000000000000000000000000000000000000000000000000001518000000000000000000000000000000000000000000000000000000000001b09e000000000000000000000000000000000000000000000000000000000008731600000000000000000000000000000000000000000000000000000000002a3f6e00000000000000000000000000000000000000000000000000000000000000007",
          "blockHash": "0x2349bc27dc2a30e9d5297c4d2f58e9d25fb6d6cc1c2454c046b5eae482f10d6a",
          "blockNumber": "0x2261b24",
          "blockTimestamp": "0x68bff803",
          "transactionHash": "0x06261b1dd759af3479d5b5e129f99d1f65f901e59e9c995ceb2336ec95991e86",
          "transactionIndex": "0x24",
          "logIndex": "0x4d",
          "removed": false
        }
      ],
      "logsBloom": "0x00000000000000000000000000000000000000000002000000000000000000000000000000000000000000000000000000000000000000000000020000000000000000000000000000000000000000000000000000000000000000000000000000000000000000000000000000000000000000000000000000000000000000000000000000000000000000000000000000000000000000020000000000000000000000000000000000000000000000000000000000000000000000000000000000000000000000000000000000000000000000000040000000000000000000000000000000000000000000000000000000000000000010000010000000000000",
      "type": "0x2",
      "transactionHash": "0x06261b1dd759af3479d5b5e129f99d1f65f901e59e9c995ceb2336ec95991e86",
      "transactionIndex": "0x24",
      "blockHash": "0x2349bc27dc2a30e9d5297c4d2f58e9d25fb6d6cc1c2454c046b5eae482f10d6a",
      "blockNumber": "0x2261b24",
      "gasUsed": "0xebaa",
      "effectiveGasPrice": "0xba43b7401",
      "from": "0x56fd3f2bee130e9867942d0f463a16fbe49b8d81",
      "to": "0x388f2c53e77ef33111383a363e0b5fd976b18e74",
      "contractAddress": null
    },
    {
      "status": "0x1",
      "cumulativeGasUsed": "0x8a0b7e",
      "logs": [
        {
          "address": "0x98c6d2a3a39ff5a2803240f597eb4c8ce76d36ab",
          "topics": [
            "0xb374789237d43aed0f75b4c50a45793fd70e354bb96eecd573f35f5d509d78a1",
            "0xf57e4020771fd78df1d99034f5f503d8c4886e428030f6b187fe1745122a0b02",
            "0x0000000000000000000000009e174bc09cedadc7a5e39ba1142b6d95365182cb",
            "0x000000000000000000000000afd756571b850b833ec0a1a66a69db30af95ee94"
          ],
          "data": "0x00000000000000000000000049503ffd8da325bfe52b8982a7f9c2e26643c276",
          "blockHash": "0x2349bc27dc2a30e9d5297c4d2f58e9d25fb6d6cc1c2454c046b5eae482f10d6a",
          "blockNumber": "0x2261b24",
          "blockTimestamp": "0x68bff803",
          "transactionHash": "0x17a89aef949b8746d2ec95801c1420afa3c70b8e2558549567571c4b8bbf63f6",
          "transactionIndex": "0x25",
          "logIndex": "0x4e",
          "removed": false
        }
      ],
      "logsBloom": "0x00000000000000000000000000002000000000000000004000000000000040000000000000000010000000000010000000000000000000000000000000000000000000000000000000000080000000000000000000000000000000000000000000000000400000400000000000000000000000000000000400000000000000000000000000000000000000000000000000000000000800000000000000000000000000000000000004000000200000000000000000000000000000000000000000000000000000000000000000000000000000000000000000000000000000000000000000000000000000400000000000000000000000008000000000000000",
      "type": "0x2",
      "transactionHash": "0x17a89aef949b8746d2ec95801c1420afa3c70b8e2558549567571c4b8bbf63f6",
      "transactionIndex": "0x25",
      "blockHash": "0x2349bc27dc2a30e9d5297c4d2f58e9d25fb6d6cc1c2454c046b5eae482f10d6a",
      "blockNumber": "0x2261b24",
      "gasUsed": "0x848f3",
      "effectiveGasPrice": "0xba43b7401",
      "from": "0x56fd3f2bee130e9867942d0f463a16fbe49b8d81",
      "to": "0x98c6d2a3a39ff5a2803240f597eb4c8ce76d36ab",
      "contractAddress": null
    },
    {
      "status": "0x1",
      "cumulativeGasUsed": "0x8b04f4",
      "logs": [
        {
          "address": "0x388f2c53e77ef33111383a363e0b5fd976b18e74",
          "topics": [
            "0x1a082a1efaf1549c18917ddcb1f759680c29371609e24f4b946e93acf4ce5ad2"
          ],
          "data": "0xf57e4020771fd78df1d99034f5f503d8c4886e428030f6b187fe1745122a0b020000000000000000000000009e174bc09cedadc7a5e39ba1142b6d95365182cb000000000000000000000000000000000000000000000000000000000000012c000000000000000000000000000000000000000000000000000000000001518000000000000000000000000000000000000000000000000000000000000186a0000000000000000000000000000000000000000000000000000000000007a12000000000000000000000000000000000000000000000000000000000002625a00000000000000000000000000000000000000000000000000000000000000007",
          "blockHash": "0x2349bc27dc2a30e9d5297c4d2f58e9d25fb6d6cc1c2454c046b5eae482f10d6a",
          "blockNumber": "0x2261b24",
          "blockTimestamp": "0x68bff803",
          "transactionHash": "0x1dd827b8e815f39b1c1661e9a07e5d8bb88d7c12ed50a09f8942f88121f8c86c",
          "transactionIndex": "0x26",
          "logIndex": "0x4f",
          "removed": false
        }
      ],
      "logsBloom": "0x00000000000000000000000000000000000000000002000000000000000000000000000000000000000000000000000000000000000000000000020000000000000000000000000000000000000000000000000000000000000000000000000000000000000000000000000000000000000000000000000000000000000000000000000000000000000000000000000000000000000000020000000000000000000000000000000000000000000000000000000000000000000000000000000000000000000000000000000000000000000000000040000000000000000000000000000000000000000000000000000000000000000010000010000000000000",
      "type": "0x2",
      "transactionHash": "0x1dd827b8e815f39b1c1661e9a07e5d8bb88d7c12ed50a09f8942f88121f8c86c",
      "transactionIndex": "0x26",
      "blockHash": "0x2349bc27dc2a30e9d5297c4d2f58e9d25fb6d6cc1c2454c046b5eae482f10d6a",
      "blockNumber": "0x2261b24",
      "gasUsed": "0xf976",
      "effectiveGasPrice": "0xba43b7401",
      "from": "0x56fd3f2bee130e9867942d0f463a16fbe49b8d81",
      "to": "0x388f2c53e77ef33111383a363e0b5fd976b18e74",
      "contractAddress": null
    },
    {
      "status": "0x1",
      "cumulativeGasUsed": "0x8bfe6a",
      "logs": [
        {
          "address": "0x388f2c53e77ef33111383a363e0b5fd976b18e74",
          "topics": [
            "0x1a082a1efaf1549c18917ddcb1f759680c29371609e24f4b946e93acf4ce5ad2"
          ],
          "data": "0xf57e4020771fd78df1d99034f5f503d8c4886e428030f6b187fe1745122a0b02000000000000000000000000afd756571b850b833ec0a1a66a69db30af95ee94000000000000000000000000000000000000000000000000000000000000012c000000000000000000000000000000000000000000000000000000000001518000000000000000000000000000000000000000000000000000000000000138800000000000000000000000000000000000000000000000000000000000061a8000000000000000000000000000000000000000000000000000000000001e84800000000000000000000000000000000000000000000000000000000000000007",
          "blockHash": "0x2349bc27dc2a30e9d5297c4d2f58e9d25fb6d6cc1c2454c046b5eae482f10d6a",
          "blockNumber": "0x2261b24",
          "blockTimestamp": "0x68bff803",
          "transactionHash": "0xdc9641a0c475388a90f7a607ba7de2b9f455d28b06d4030505b01143ea493147",
          "transactionIndex": "0x27",
          "logIndex": "0x50",
          "removed": false
        }
      ],
      "logsBloom": "0x00000000000000000000000000000000000000000002000000000000000000000000000000000000000000000000000000000000000000000000020000000000000000000000000000000000000000000000000000000000000000000000000000000000000000000000000000000000000000000000000000000000000000000000000000000000000000000000000000000000000000020000000000000000000000000000000000000000000000000000000000000000000000000000000000000000000000000000000000000000000000000040000000000000000000000000000000000000000000000000000000000000000010000010000000000000",
      "type": "0x2",
      "transactionHash": "0xdc9641a0c475388a90f7a607ba7de2b9f455d28b06d4030505b01143ea493147",
      "transactionIndex": "0x27",
      "blockHash": "0x2349bc27dc2a30e9d5297c4d2f58e9d25fb6d6cc1c2454c046b5eae482f10d6a",
      "blockNumber": "0x2261b24",
      "gasUsed": "0xf976",
      "effectiveGasPrice": "0xba43b7401",
      "from": "0x56fd3f2bee130e9867942d0f463a16fbe49b8d81",
      "to": "0x388f2c53e77ef33111383a363e0b5fd976b18e74",
      "contractAddress": null
    },
    {
      "status": "0x1",
      "cumulativeGasUsed": "0x94475d",
      "logs": [
        {
          "address": "0x98c6d2a3a39ff5a2803240f597eb4c8ce76d36ab",
          "topics": [
            "0xb374789237d43aed0f75b4c50a45793fd70e354bb96eecd573f35f5d509d78a1",
            "0xe18089b08b31c64439612de898b855e9564a163c23b9f2af8047d8b137eb148a",
            "0x0000000000000000000000009e174bc09cedadc7a5e39ba1142b6d95365182cb",
            "0x000000000000000000000000ddcaf78d5bb0afe82ec022b7e58758ecc1c6f641"
          ],
          "data": "0x00000000000000000000000049503ffd8da325bfe52b8982a7f9c2e26643c276",
          "blockHash": "0x2349bc27dc2a30e9d5297c4d2f58e9d25fb6d6cc1c2454c046b5eae482f10d6a",
          "blockNumber": "0x2261b24",
          "blockTimestamp": "0x68bff803",
          "transactionHash": "0xa205f56904731cd7ea770e8d0d0dc669a1f6972af37451ccb3b815d523811d13",
          "transactionIndex": "0x28",
          "logIndex": "0x51",
          "removed": false
        }
      ],
      "logsBloom": "0x00000000000000000000000000000000000000000000004000000000000040000000000000000000000000000000000000000000000000000000000000002000000000000800000000000000000000000000000000000000000000000000000000000000400000400000000000000000000000000000000400000000000000000000000000000000000000000000000000000000000800000000000000000000000000000000000000001000200000000000000000000001000000000000000000000000000000000000000000000200000000000000080000000000000000000000000000000000000000400000000000000000000000008000000000000000",
      "type": "0x2",
      "transactionHash": "0xa205f56904731cd7ea770e8d0d0dc669a1f6972af37451ccb3b815d523811d13",
      "transactionIndex": "0x28",
      "blockHash": "0x2349bc27dc2a30e9d5297c4d2f58e9d25fb6d6cc1c2454c046b5eae482f10d6a",
      "blockNumber": "0x2261b24",
      "gasUsed": "0x848f3",
      "effectiveGasPrice": "0xba43b7401",
      "from": "0x56fd3f2bee130e9867942d0f463a16fbe49b8d81",
      "to": "0x98c6d2a3a39ff5a2803240f597eb4c8ce76d36ab",
      "contractAddress": null
    },
    {
      "status": "0x1",
      "cumulativeGasUsed": "0x9540d3",
      "logs": [
        {
          "address": "0x388f2c53e77ef33111383a363e0b5fd976b18e74",
          "topics": [
            "0x1a082a1efaf1549c18917ddcb1f759680c29371609e24f4b946e93acf4ce5ad2"
          ],
          "data": "0xe18089b08b31c64439612de898b855e9564a163c23b9f2af8047d8b137eb148a0000000000000000000000009e174bc09cedadc7a5e39ba1142b6d95365182cb000000000000000000000000000000000000000000000000000000000000012c000000000000000000000000000000000000000000000000000000000001518000000000000000000000000000000000000000000000000000000000000186a0000000000000000000000000000000000000000000000000000000000007a12000000000000000000000000000000000000000000000000000000000002625a00000000000000000000000000000000000000000000000000000000000000007",
          "blockHash": "0x2349bc27dc2a30e9d5297c4d2f58e9d25fb6d6cc1c2454c046b5eae482f10d6a",
          "blockNumber": "0x2261b24",
          "blockTimestamp": "0x68bff803",
          "transactionHash": "0x7a463d0a896ae160604575b880e0bf57899fbc18c83f8485a6db1dbe5123aeee",
          "transactionIndex": "0x29",
          "logIndex": "0x52",
          "removed": false
        }
      ],
      "logsBloom": "0x00000000000000000000000000000000000000000002000000000000000000000000000000000000000000000000000000000000000000000000020000000000000000000000000000000000000000000000000000000000000000000000000000000000000000000000000000000000000000000000000000000000000000000000000000000000000000000000000000000000000000020000000000000000000000000000000000000000000000000000000000000000000000000000000000000000000000000000000000000000000000000040000000000000000000000000000000000000000000000000000000000000000010000010000000000000",
      "type": "0x2",
      "transactionHash": "0x7a463d0a896ae160604575b880e0bf57899fbc18c83f8485a6db1dbe5123aeee",
      "transactionIndex": "0x29",
      "blockHash": "0x2349bc27dc2a30e9d5297c4d2f58e9d25fb6d6cc1c2454c046b5eae482f10d6a",
      "blockNumber": "0x2261b24",
      "gasUsed": "0xf976",
      "effectiveGasPrice": "0xba43b7401",
      "from": "0x56fd3f2bee130e9867942d0f463a16fbe49b8d81",
      "to": "0x388f2c53e77ef33111383a363e0b5fd976b18e74",
      "contractAddress": null
    },
    {
      "status": "0x1",
      "cumulativeGasUsed": "0x963a6c",
      "logs": [
        {
          "address": "0x388f2c53e77ef33111383a363e0b5fd976b18e74",
          "topics": [
            "0x1a082a1efaf1549c18917ddcb1f759680c29371609e24f4b946e93acf4ce5ad2"
          ],
          "data": "0xe18089b08b31c64439612de898b855e9564a163c23b9f2af8047d8b137eb148a000000000000000000000000ddcaf78d5bb0afe82ec022b7e58758ecc1c6f641000000000000000000000000000000000000000000000000000000000000012c00000000000000000000000000000000000000000000000000000000000151800000000000000000000000000000000000000000000000000000000000e35b20000000000000000000000000000000000000000000000000000000000470c7a0000000000000000000000000000000000000000000000000000000001633e6200000000000000000000000000000000000000000000000000000000000000007",
          "blockHash": "0x2349bc27dc2a30e9d5297c4d2f58e9d25fb6d6cc1c2454c046b5eae482f10d6a",
          "blockNumber": "0x2261b24",
          "blockTimestamp": "0x68bff803",
          "transactionHash": "0x523cb38d97a179214195b91b4557aede3f901437a7ab4e1eb94bbafea783ad84",
          "transactionIndex": "0x2a",
          "logIndex": "0x53",
          "removed": false
        }
      ],
      "logsBloom": "0x00000000000000000000000000000000000000000002000000000000000000000000000000000000000000000000000000000000000000000000020000000000000000000000000000000000000000000000000000000000000000000000000000000000000000000000000000000000000000000000000000000000000000000000000000000000000000000000000000000000000000020000000000000000000000000000000000000000000000000000000000000000000000000000000000000000000000000000000000000000000000000040000000000000000000000000000000000000000000000000000000000000000010000010000000000000",
      "type": "0x2",
      "transactionHash": "0x523cb38d97a179214195b91b4557aede3f901437a7ab4e1eb94bbafea783ad84",
      "transactionIndex": "0x2a",
      "blockHash": "0x2349bc27dc2a30e9d5297c4d2f58e9d25fb6d6cc1c2454c046b5eae482f10d6a",
      "blockNumber": "0x2261b24",
      "gasUsed": "0xf999",
      "effectiveGasPrice": "0xba43b7401",
      "from": "0x56fd3f2bee130e9867942d0f463a16fbe49b8d81",
      "to": "0x388f2c53e77ef33111383a363e0b5fd976b18e74",
      "contractAddress": null
    },
    {
      "status": "0x1",
      "cumulativeGasUsed": "0x9e835f",
      "logs": [
        {
          "address": "0x98c6d2a3a39ff5a2803240f597eb4c8ce76d36ab",
          "topics": [
            "0xb374789237d43aed0f75b4c50a45793fd70e354bb96eecd573f35f5d509d78a1",
            "0x34737a6b35a25ba8679874e532109434ce6dd0ac8c567a2095b9d0feff06d7b2",
            "0x0000000000000000000000009e174bc09cedadc7a5e39ba1142b6d95365182cb",
            "0x000000000000000000000000fbd6322586ae7c8f0776918e70b8eb169737ba57"
          ],
          "data": "0x00000000000000000000000049503ffd8da325bfe52b8982a7f9c2e26643c276",
          "blockHash": "0x2349bc27dc2a30e9d5297c4d2f58e9d25fb6d6cc1c2454c046b5eae482f10d6a",
          "blockNumber": "0x2261b24",
          "blockTimestamp": "0x68bff803",
          "transactionHash": "0x4384210c77193cccd28d946819505c15b7c56056028a5b8c73bcd02278f221ef",
          "transactionIndex": "0x2b",
          "logIndex": "0x54",
          "removed": false
        }
      ],
      "logsBloom": "0x00000000000000000000000000000000000000000000004000000000000041000000000000000000000000000000000000000000000000000000000000000000000000000000000000000000000000000000000000000000000000000000000000000000400000400000000000000000000000000000000400000000000000000000000000000000000000000000000000000000000810000000000000000000000000000000000000000000200000000000000000000000000000000000000000000000000000000000000000400000000000000000000000000000200000000000000000000000000000400000080000000000010000008000000000000000",
      "type": "0x2",
      "transactionHash": "0x4384210c77193cccd28d946819505c15b7c56056028a5b8c73bcd02278f221ef",
      "transactionIndex": "0x2b",
      "blockHash": "0x2349bc27dc2a30e9d5297c4d2f58e9d25fb6d6cc1c2454c046b5eae482f10d6a",
      "blockNumber": "0x2261b24",
      "gasUsed": "0x848f3",
      "effectiveGasPrice": "0xba43b7401",
      "from": "0x56fd3f2bee130e9867942d0f463a16fbe49b8d81",
      "to": "0x98c6d2a3a39ff5a2803240f597eb4c8ce76d36ab",
      "contractAddress": null
    },
    {
      "status": "0x1",
      "cumulativeGasUsed": "0x9f6ee8",
      "logs": [
        {
          "address": "0x388f2c53e77ef33111383a363e0b5fd976b18e74",
          "topics": [
            "0x1a082a1efaf1549c18917ddcb1f759680c29371609e24f4b946e93acf4ce5ad2"
          ],
          "data": "0x34737a6b35a25ba8679874e532109434ce6dd0ac8c567a2095b9d0feff06d7b20000000000000000000000009e174bc09cedadc7a5e39ba1142b6d95365182cb000000000000000000000000000000000000000000000000000000000000012c0000000000000000000000000000000000000000000000000000000000015180000000000000000000000000000000000000000000000000000000000000c350000000000000000000000000000000000000000000000000000000000003d09000000000000000000000000000000000000000000000000000000000001312d00000000000000000000000000000000000000000000000000000000000000007",
          "blockHash": "0x2349bc27dc2a30e9d5297c4d2f58e9d25fb6d6cc1c2454c046b5eae482f10d6a",
          "blockNumber": "0x2261b24",
          "blockTimestamp": "0x68bff803",
          "transactionHash": "0xecac9cc1c49356cf77444f10f25424c1cf3d7876576b1c55a1cb0f70e6228d9e",
          "transactionIndex": "0x2c",
          "logIndex": "0x55",
          "removed": false
        }
      ],
      "logsBloom": "0x00000000000000000000000000000000000000000002000000000000000000000000000000000000000000000000000000000000000000000000020000000000000000000000000000000000000000000000000000000000000000000000000000000000000000000000000000000000000000000000000000000000000000000000000000000000000000000000000000000000000000020000000000000000000000000000000000000000000000000000000000000000000000000000000000000000000000000000000000000000000000000040000000000000000000000000000000000000000000000000000000000000000010000010000000000000",
      "type": "0x2",
      "transactionHash": "0xecac9cc1c49356cf77444f10f25424c1cf3d7876576b1c55a1cb0f70e6228d9e",
      "transactionIndex": "0x2c",
      "blockHash": "0x2349bc27dc2a30e9d5297c4d2f58e9d25fb6d6cc1c2454c046b5eae482f10d6a",
      "blockNumber": "0x2261b24",
      "gasUsed": "0xeb89",
      "effectiveGasPrice": "0xba43b7401",
      "from": "0x56fd3f2bee130e9867942d0f463a16fbe49b8d81",
      "to": "0x388f2c53e77ef33111383a363e0b5fd976b18e74",
      "contractAddress": null
    },
    {
      "status": "0x1",
      "cumulativeGasUsed": "0xa068a4",
      "logs": [
        {
          "address": "0x388f2c53e77ef33111383a363e0b5fd976b18e74",
          "topics": [
            "0x1a082a1efaf1549c18917ddcb1f759680c29371609e24f4b946e93acf4ce5ad2"
          ],
          "data": "0x34737a6b35a25ba8679874e532109434ce6dd0ac8c567a2095b9d0feff06d7b2000000000000000000000000fbd6322586ae7c8f0776918e70b8eb169737ba57000000000000000000000000000000000000000000000000000000000000012c0000000000000000000000000000000000000000000000000000000000015180000000000000000000000000000000000000000000000000000000000bf733b0000000000000000000000000000000000000000000000000000000003bd40270000000000000000000000000000000000000000000000000000000012b240c300000000000000000000000000000000000000000000000000000000000000007",
          "blockHash": "0x2349bc27dc2a30e9d5297c4d2f58e9d25fb6d6cc1c2454c046b5eae482f10d6a",
          "blockNumber": "0x2261b24",
          "blockTimestamp": "0x68bff803",
          "transactionHash": "0xf5cda65257de40f508b25c69a22b0a80d75efd9762ba388c193ee0ac22c99618",
          "transactionIndex": "0x2d",
          "logIndex": "0x56",
          "removed": false
        }
      ],
      "logsBloom": "0x00000000000000000000000000000000000000000002000000000000000000000000000000000000000000000000000000000000000000000000020000000000000000000000000000000000000000000000000000000000000000000000000000000000000000000000000000000000000000000000000000000000000000000000000000000000000000000000000000000000000000020000000000000000000000000000000000000000000000000000000000000000000000000000000000000000000000000000000000000000000000000040000000000000000000000000000000000000000000000000000000000000000010000010000000000000",
      "type": "0x2",
      "transactionHash": "0xf5cda65257de40f508b25c69a22b0a80d75efd9762ba388c193ee0ac22c99618",
      "transactionIndex": "0x2d",
      "blockHash": "0x2349bc27dc2a30e9d5297c4d2f58e9d25fb6d6cc1c2454c046b5eae482f10d6a",
      "blockNumber": "0x2261b24",
      "gasUsed": "0xf9bc",
      "effectiveGasPrice": "0xba43b7401",
      "from": "0x56fd3f2bee130e9867942d0f463a16fbe49b8d81",
      "to": "0x388f2c53e77ef33111383a363e0b5fd976b18e74",
      "contractAddress": null
    },
    {
      "status": "0x1",
      "cumulativeGasUsed": "0xa8b197",
      "logs": [
        {
          "address": "0x98c6d2a3a39ff5a2803240f597eb4c8ce76d36ab",
          "topics": [
            "0xb374789237d43aed0f75b4c50a45793fd70e354bb96eecd573f35f5d509d78a1",
            "0xdb873c9488872f50c4047ab9ce46e8f75a341d9684b88d9c3a9a6b26027aca20",
            "0x0000000000000000000000009e174bc09cedadc7a5e39ba1142b6d95365182cb",
            "0x000000000000000000000000ce0da71375dbb11bd275307e735768acf78d2843"
          ],
          "data": "0x00000000000000000000000049503ffd8da325bfe52b8982a7f9c2e26643c276",
          "blockHash": "0x2349bc27dc2a30e9d5297c4d2f58e9d25fb6d6cc1c2454c046b5eae482f10d6a",
          "blockNumber": "0x2261b24",
          "blockTimestamp": "0x68bff803",
          "transactionHash": "0xeed0ffbf47305020db89bb800f4b21b83bfa012775c2f742ae4cc7a97d5a5e45",
          "transactionIndex": "0x2e",
          "logIndex": "0x57",
          "removed": false
        }
      ],
      "logsBloom": "0x00000000000000000020000000000000000000000000004000000000000040000000000000000000000004000000000000000000000000000000000000000000000000000000000000000000000000000000000000000000000000002000000000000000400000400000000000000000000000000000000400000000000000000000000000000000000000000000004000000000000800900000000000000000000000000000000000000000200000000000000000000000000000000000000000000000000000000000000000000000000000000000000000000000000000000000000000000000000000400000000000000000000000008000000000000000",
      "type": "0x2",
      "transactionHash": "0xeed0ffbf47305020db89bb800f4b21b83bfa012775c2f742ae4cc7a97d5a5e45",
      "transactionIndex": "0x2e",
      "blockHash": "0x2349bc27dc2a30e9d5297c4d2f58e9d25fb6d6cc1c2454c046b5eae482f10d6a",
      "blockNumber": "0x2261b24",
      "gasUsed": "0x848f3",
      "effectiveGasPrice": "0xba43b7401",
      "from": "0x56fd3f2bee130e9867942d0f463a16fbe49b8d81",
      "to": "0x98c6d2a3a39ff5a2803240f597eb4c8ce76d36ab",
      "contractAddress": null
    },
    {
      "status": "0x1",
      "cumulativeGasUsed": "0xa9ab0d",
      "logs": [
        {
          "address": "0x388f2c53e77ef33111383a363e0b5fd976b18e74",
          "topics": [
            "0x1a082a1efaf1549c18917ddcb1f759680c29371609e24f4b946e93acf4ce5ad2"
          ],
          "data": "0xdb873c9488872f50c4047ab9ce46e8f75a341d9684b88d9c3a9a6b26027aca200000000000000000000000009e174bc09cedadc7a5e39ba1142b6d95365182cb000000000000000000000000000000000000000000000000000000000000012c000000000000000000000000000000000000000000000000000000000001518000000000000000000000000000000000000000000000000000000000000186a0000000000000000000000000000000000000000000000000000000000007a12000000000000000000000000000000000000000000000000000000000002625a00000000000000000000000000000000000000000000000000000000000000007",
          "blockHash": "0x2349bc27dc2a30e9d5297c4d2f58e9d25fb6d6cc1c2454c046b5eae482f10d6a",
          "blockNumber": "0x2261b24",
          "blockTimestamp": "0x68bff803",
          "transactionHash": "0x40f9a882f8f4847dcd78fddadd6a5282316c519da3daea43e798ca2ac2c5cbea",
          "transactionIndex": "0x2f",
          "logIndex": "0x58",
          "removed": false
        }
      ],
      "logsBloom": "0x00000000000000000000000000000000000000000002000000000000000000000000000000000000000000000000000000000000000000000000020000000000000000000000000000000000000000000000000000000000000000000000000000000000000000000000000000000000000000000000000000000000000000000000000000000000000000000000000000000000000000020000000000000000000000000000000000000000000000000000000000000000000000000000000000000000000000000000000000000000000000000040000000000000000000000000000000000000000000000000000000000000000010000010000000000000",
      "type": "0x2",
      "transactionHash": "0x40f9a882f8f4847dcd78fddadd6a5282316c519da3daea43e798ca2ac2c5cbea",
      "transactionIndex": "0x2f",
      "blockHash": "0x2349bc27dc2a30e9d5297c4d2f58e9d25fb6d6cc1c2454c046b5eae482f10d6a",
      "blockNumber": "0x2261b24",
      "gasUsed": "0xf976",
      "effectiveGasPrice": "0xba43b7401",
      "from": "0x56fd3f2bee130e9867942d0f463a16fbe49b8d81",
      "to": "0x388f2c53e77ef33111383a363e0b5fd976b18e74",
      "contractAddress": null
    },
    {
      "status": "0x1",
      "cumulativeGasUsed": "0xaaa483",
      "logs": [
        {
          "address": "0x388f2c53e77ef33111383a363e0b5fd976b18e74",
          "topics": [
            "0x1a082a1efaf1549c18917ddcb1f759680c29371609e24f4b946e93acf4ce5ad2"
          ],
          "data": "0xdb873c9488872f50c4047ab9ce46e8f75a341d9684b88d9c3a9a6b26027aca20000000000000000000000000ce0da71375dbb11bd275307e735768acf78d2843000000000000000000000000000000000000000000000000000000000000012c000000000000000000000000000000000000000000000000000000000001518000000000000000000000000000000000000000000000000000000000000850e800000000000000000000000000000000000000000000000000000000002994880000000000000000000000000000000000000000000000000000000000cfe6a80000000000000000000000000000000000000000000000000000000000000007",
          "blockHash": "0x2349bc27dc2a30e9d5297c4d2f58e9d25fb6d6cc1c2454c046b5eae482f10d6a",
          "blockNumber": "0x2261b24",
          "blockTimestamp": "0x68bff803",
          "transactionHash": "0xe43c00c52398ec5cb4df194992b9a699e7466b830ece8c427622c0da4916cf0b",
          "transactionIndex": "0x30",
          "logIndex": "0x59",
          "removed": false
        }
      ],
      "logsBloom": "0x00000000000000000000000000000000000000000002000000000000000000000000000000000000000000000000000000000000000000000000020000000000000000000000000000000000000000000000000000000000000000000000000000000000000000000000000000000000000000000000000000000000000000000000000000000000000000000000000000000000000000020000000000000000000000000000000000000000000000000000000000000000000000000000000000000000000000000000000000000000000000000040000000000000000000000000000000000000000000000000000000000000000010000010000000000000",
      "type": "0x2",
      "transactionHash": "0xe43c00c52398ec5cb4df194992b9a699e7466b830ece8c427622c0da4916cf0b",
      "transactionIndex": "0x30",
      "blockHash": "0x2349bc27dc2a30e9d5297c4d2f58e9d25fb6d6cc1c2454c046b5eae482f10d6a",
      "blockNumber": "0x2261b24",
      "gasUsed": "0xf976",
      "effectiveGasPrice": "0xba43b7401",
      "from": "0x56fd3f2bee130e9867942d0f463a16fbe49b8d81",
      "to": "0x388f2c53e77ef33111383a363e0b5fd976b18e74",
      "contractAddress": null
    },
    {
      "status": "0x1",
      "cumulativeGasUsed": "0xb27790",
      "logs": [
        {
          "address": "0x98c6d2a3a39ff5a2803240f597eb4c8ce76d36ab",
          "topics": [
            "0xb374789237d43aed0f75b4c50a45793fd70e354bb96eecd573f35f5d509d78a1",
            "0x5117b12cd22b5f67b1898f500c9622236edbd651a4d1f16e1a64eb1c39da6280",
            "0x0000000000000000000000009e174bc09cedadc7a5e39ba1142b6d95365182cb",
            "0x000000000000000000000000e3bdea6cd6ed7aafd5acb1e43d8777714ba31aca"
          ],
          "data": "0x00000000000000000000000049503ffd8da325bfe52b8982a7f9c2e26643c276",
          "blockHash": "0x2349bc27dc2a30e9d5297c4d2f58e9d25fb6d6cc1c2454c046b5eae482f10d6a",
          "blockNumber": "0x2261b24",
          "blockTimestamp": "0x68bff803",
          "transactionHash": "0x8c18d732bce53108192088ca0ac9d6ccd616dc5bfe7f7dd30a2fbdb34addbd68",
          "transactionIndex": "0x31",
          "logIndex": "0x5a",
          "removed": false
        }
      ],
      "logsBloom": "0x00000000000000000000000000020000000000000000004000000000000040000000000000000000000000000000000000000000000000000000000000000000000400000000000000000000000000000000004000000000000000000000000000000200400000400000000000000000000000000000000400000000000000000000000000000000000000000000000000004000000800000000000000000000000000000000000000000000200000000000000000000000000000000000000000000000000000000000000000000000000000000000000000000000000000000000000000000000000000400000000000000000000000008400000000000000",
      "type": "0x2",
      "transactionHash": "0x8c18d732bce53108192088ca0ac9d6ccd616dc5bfe7f7dd30a2fbdb34addbd68",
      "transactionIndex": "0x31",
      "blockHash": "0x2349bc27dc2a30e9d5297c4d2f58e9d25fb6d6cc1c2454c046b5eae482f10d6a",
      "blockNumber": "0x2261b24",
      "gasUsed": "0x7d30d",
      "effectiveGasPrice": "0xba43b7401",
      "from": "0x56fd3f2bee130e9867942d0f463a16fbe49b8d81",
      "to": "0x98c6d2a3a39ff5a2803240f597eb4c8ce76d36ab",
      "contractAddress": null
    },
    {
      "status": "0x1",
      "cumulativeGasUsed": "0xb36319",
      "logs": [
        {
          "address": "0x388f2c53e77ef33111383a363e0b5fd976b18e74",
          "topics": [
            "0x1a082a1efaf1549c18917ddcb1f759680c29371609e24f4b946e93acf4ce5ad2"
          ],
          "data": "0x5117b12cd22b5f67b1898f500c9622236edbd651a4d1f16e1a64eb1c39da62800000000000000000000000009e174bc09cedadc7a5e39ba1142b6d95365182cb000000000000000000000000000000000000000000000000000000000000012c0000000000000000000000000000000000000000000000000000000000015180000000000000000000000000000000000000000000000000000000000000c350000000000000000000000000000000000000000000000000000000000003d09000000000000000000000000000000000000000000000000000000000001312d00000000000000000000000000000000000000000000000000000000000000007",
          "blockHash": "0x2349bc27dc2a30e9d5297c4d2f58e9d25fb6d6cc1c2454c046b5eae482f10d6a",
          "blockNumber": "0x2261b24",
          "blockTimestamp": "0x68bff803",
          "transactionHash": "0x9fb84f97137c901c5c78c89dd749252f9d598a634809769a70ee23188595006d",
          "transactionIndex": "0x32",
          "logIndex": "0x5b",
          "removed": false
        }
      ],
      "logsBloom": "0x00000000000000000000000000000000000000000002000000000000000000000000000000000000000000000000000000000000000000000000020000000000000000000000000000000000000000000000000000000000000000000000000000000000000000000000000000000000000000000000000000000000000000000000000000000000000000000000000000000000000000020000000000000000000000000000000000000000000000000000000000000000000000000000000000000000000000000000000000000000000000000040000000000000000000000000000000000000000000000000000000000000000010000010000000000000",
      "type": "0x2",
      "transactionHash": "0x9fb84f97137c901c5c78c89dd749252f9d598a634809769a70ee23188595006d",
      "transactionIndex": "0x32",
      "blockHash": "0x2349bc27dc2a30e9d5297c4d2f58e9d25fb6d6cc1c2454c046b5eae482f10d6a",
      "blockNumber": "0x2261b24",
      "gasUsed": "0xeb89",
      "effectiveGasPrice": "0xba43b7401",
      "from": "0x56fd3f2bee130e9867942d0f463a16fbe49b8d81",
      "to": "0x388f2c53e77ef33111383a363e0b5fd976b18e74",
      "contractAddress": null
    },
    {
      "status": "0x1",
      "cumulativeGasUsed": "0xb45c8f",
      "logs": [
        {
          "address": "0x388f2c53e77ef33111383a363e0b5fd976b18e74",
          "topics": [
            "0x1a082a1efaf1549c18917ddcb1f759680c29371609e24f4b946e93acf4ce5ad2"
          ],
          "data": "0x5117b12cd22b5f67b1898f500c9622236edbd651a4d1f16e1a64eb1c39da6280000000000000000000000000e3bdea6cd6ed7aafd5acb1e43d8777714ba31aca000000000000000000000000000000000000000000000000000000000000012c0000000000000000000000000000000000000000000000000000000000015180000000000000000000000000000000000000000000000000000000000009182000000000000000000000000000000000000000000000000000000000002d78a00000000000000000000000000000000000000000000000000000000000e35b200000000000000000000000000000000000000000000000000000000000000007",
          "blockHash": "0x2349bc27dc2a30e9d5297c4d2f58e9d25fb6d6cc1c2454c046b5eae482f10d6a",
          "blockNumber": "0x2261b24",
          "blockTimestamp": "0x68bff803",
          "transactionHash": "0xa4b4c603006edba7255a3363ebb793d4ec25436dabe693e840d5b3fa147dc3cc",
          "transactionIndex": "0x33",
          "logIndex": "0x5c",
          "removed": false
        }
      ],
      "logsBloom": "0x00000000000000000000000000000000000000000002000000000000000000000000000000000000000000000000000000000000000000000000020000000000000000000000000000000000000000000000000000000000000000000000000000000000000000000000000000000000000000000000000000000000000000000000000000000000000000000000000000000000000000020000000000000000000000000000000000000000000000000000000000000000000000000000000000000000000000000000000000000000000000000040000000000000000000000000000000000000000000000000000000000000000010000010000000000000",
      "type": "0x2",
      "transactionHash": "0xa4b4c603006edba7255a3363ebb793d4ec25436dabe693e840d5b3fa147dc3cc",
      "transactionIndex": "0x33",
      "blockHash": "0x2349bc27dc2a30e9d5297c4d2f58e9d25fb6d6cc1c2454c046b5eae482f10d6a",
      "blockNumber": "0x2261b24",
      "gasUsed": "0xf976",
      "effectiveGasPrice": "0xba43b7401",
      "from": "0x56fd3f2bee130e9867942d0f463a16fbe49b8d81",
      "to": "0x388f2c53e77ef33111383a363e0b5fd976b18e74",
      "contractAddress": null
    },
    {
      "status": "0x1",
      "cumulativeGasUsed": "0xbc2f9c",
      "logs": [
        {
          "address": "0x98c6d2a3a39ff5a2803240f597eb4c8ce76d36ab",
          "topics": [
            "0xb374789237d43aed0f75b4c50a45793fd70e354bb96eecd573f35f5d509d78a1",
            "0x28b69af87fd76c2764c7e022f37b6ee3ad6e448ef4d51747e08cd60260d61fa3",
            "0x0000000000000000000000009e174bc09cedadc7a5e39ba1142b6d95365182cb",
            "0x000000000000000000000000823756e447e4db92fd3a52bc5e210c4701e6ceba"
          ],
          "data": "0x00000000000000000000000049503ffd8da325bfe52b8982a7f9c2e26643c276",
          "blockHash": "0x2349bc27dc2a30e9d5297c4d2f58e9d25fb6d6cc1c2454c046b5eae482f10d6a",
          "blockNumber": "0x2261b24",
          "blockTimestamp": "0x68bff803",
          "transactionHash": "0xb14ed0a253dfba05bde078a57705f4ff48f81196a1dc8276b8a9e2d3ecc99633",
          "transactionIndex": "0x34",
          "logIndex": "0x5d",
          "removed": false
        }
      ],
      "logsBloom": "0x00000000000000000000000000000000000000040000004000000000000040000000000000000000000000000000000000000000000000000000000000000000000000100000000000000000000000000000000000040000000000000000000000000000400000400000000000000000000000000000000400000000000000000000000000000000100000000000000000000000000800100000000000000000000000000000000000000000200000000000000000000000000000000000000000000000000000000000000000000000000000000000000000000000000000000000000000000000000000400000000000000080000000008000000000000000",
      "type": "0x2",
      "transactionHash": "0xb14ed0a253dfba05bde078a57705f4ff48f81196a1dc8276b8a9e2d3ecc99633",
      "transactionIndex": "0x34",
      "blockHash": "0x2349bc27dc2a30e9d5297c4d2f58e9d25fb6d6cc1c2454c046b5eae482f10d6a",
      "blockNumber": "0x2261b24",
      "gasUsed": "0x7d30d",
      "effectiveGasPrice": "0xba43b7401",
      "from": "0x56fd3f2bee130e9867942d0f463a16fbe49b8d81",
      "to": "0x98c6d2a3a39ff5a2803240f597eb4c8ce76d36ab",
      "contractAddress": null
    },
    {
      "status": "0x1",
      "cumulativeGasUsed": "0xbd1b25",
      "logs": [
        {
          "address": "0x388f2c53e77ef33111383a363e0b5fd976b18e74",
          "topics": [
            "0x1a082a1efaf1549c18917ddcb1f759680c29371609e24f4b946e93acf4ce5ad2"
          ],
          "data": "0x28b69af87fd76c2764c7e022f37b6ee3ad6e448ef4d51747e08cd60260d61fa30000000000000000000000009e174bc09cedadc7a5e39ba1142b6d95365182cb000000000000000000000000000000000000000000000000000000000000012c0000000000000000000000000000000000000000000000000000000000015180000000000000000000000000000000000000000000000000000000000000c350000000000000000000000000000000000000000000000000000000000003d09000000000000000000000000000000000000000000000000000000000001312d00000000000000000000000000000000000000000000000000000000000000007",
          "blockHash": "0x2349bc27dc2a30e9d5297c4d2f58e9d25fb6d6cc1c2454c046b5eae482f10d6a",
          "blockNumber": "0x2261b24",
          "blockTimestamp": "0x68bff803",
          "transactionHash": "0x53bb22e45c455d1483f960da2f6d2b619edcc25973aa0e2669875b4b359d6d9c",
          "transactionIndex": "0x35",
          "logIndex": "0x5e",
          "removed": false
        }
      ],
      "logsBloom": "0x00000000000000000000000000000000000000000002000000000000000000000000000000000000000000000000000000000000000000000000020000000000000000000000000000000000000000000000000000000000000000000000000000000000000000000000000000000000000000000000000000000000000000000000000000000000000000000000000000000000000000020000000000000000000000000000000000000000000000000000000000000000000000000000000000000000000000000000000000000000000000000040000000000000000000000000000000000000000000000000000000000000000010000010000000000000",
      "type": "0x2",
      "transactionHash": "0x53bb22e45c455d1483f960da2f6d2b619edcc25973aa0e2669875b4b359d6d9c",
      "transactionIndex": "0x35",
      "blockHash": "0x2349bc27dc2a30e9d5297c4d2f58e9d25fb6d6cc1c2454c046b5eae482f10d6a",
      "blockNumber": "0x2261b24",
      "gasUsed": "0xeb89",
      "effectiveGasPrice": "0xba43b7401",
      "from": "0x56fd3f2bee130e9867942d0f463a16fbe49b8d81",
      "to": "0x388f2c53e77ef33111383a363e0b5fd976b18e74",
      "contractAddress": null
    },
    {
      "status": "0x1",
      "cumulativeGasUsed": "0xbe06f1",
      "logs": [
        {
          "address": "0x388f2c53e77ef33111383a363e0b5fd976b18e74",
          "topics": [
            "0x1a082a1efaf1549c18917ddcb1f759680c29371609e24f4b946e93acf4ce5ad2"
          ],
          "data": "0x28b69af87fd76c2764c7e022f37b6ee3ad6e448ef4d51747e08cd60260d61fa3000000000000000000000000823756e447e4db92fd3a52bc5e210c4701e6ceba000000000000000000000000000000000000000000000000000000000000012c0000000000000000000000000000000000000000000000000000000000015180000000000000000000000000000000000000000000000000000000000490ced80000000000000000000000000000000000000000000000000000000016d40a3800000000000000000000000000000000000000000000000000000000722433180000000000000000000000000000000000000000000000000000000000000007",
          "blockHash": "0x2349bc27dc2a30e9d5297c4d2f58e9d25fb6d6cc1c2454c046b5eae482f10d6a",
          "blockNumber": "0x2261b24",
          "blockTimestamp": "0x68bff803",
          "transactionHash": "0x16a5c69f4b7ce84f69bba2d722ab925014088cd163cced2d2f00a150835536a6",
          "transactionIndex": "0x36",
          "logIndex": "0x5f",
          "removed": false
        }
      ],
      "logsBloom": "0x00000000000000000000000000000000000000000002000000000000000000000000000000000000000000000000000000000000000000000000020000000000000000000000000000000000000000000000000000000000000000000000000000000000000000000000000000000000000000000000000000000000000000000000000000000000000000000000000000000000000000020000000000000000000000000000000000000000000000000000000000000000000000000000000000000000000000000000000000000000000000000040000000000000000000000000000000000000000000000000000000000000000010000010000000000000",
      "type": "0x2",
      "transactionHash": "0x16a5c69f4b7ce84f69bba2d722ab925014088cd163cced2d2f00a150835536a6",
      "transactionIndex": "0x36",
      "blockHash": "0x2349bc27dc2a30e9d5297c4d2f58e9d25fb6d6cc1c2454c046b5eae482f10d6a",
      "blockNumber": "0x2261b24",
      "gasUsed": "0xebcc",
      "effectiveGasPrice": "0xba43b7401",
      "from": "0x56fd3f2bee130e9867942d0f463a16fbe49b8d81",
      "to": "0x388f2c53e77ef33111383a363e0b5fd976b18e74",
      "contractAddress": null
    },
    {
      "status": "0x1",
      "cumulativeGasUsed": "0xc5d9fe",
      "logs": [
        {
          "address": "0x98c6d2a3a39ff5a2803240f597eb4c8ce76d36ab",
          "topics": [
            "0xb374789237d43aed0f75b4c50a45793fd70e354bb96eecd573f35f5d509d78a1",
            "0x99903a787878c236d4fe73d0ea0c98064b57bc87f4bdc428a62e4592d30c19e0",
            "0x0000000000000000000000009e174bc09cedadc7a5e39ba1142b6d95365182cb",
            "0x00000000000000000000000066bff13aff22c31df7cd53707e645c9736a6637a"
          ],
          "data": "0x00000000000000000000000049503ffd8da325bfe52b8982a7f9c2e26643c276",
          "blockHash": "0x2349bc27dc2a30e9d5297c4d2f58e9d25fb6d6cc1c2454c046b5eae482f10d6a",
          "blockNumber": "0x2261b24",
          "blockTimestamp": "0x68bff803",
          "transactionHash": "0x6ac9a77f80326d11d0c2ad55207d2f67bd2adaa0cb3d7041ec1fb9d8408fc660",
          "transactionIndex": "0x37",
          "logIndex": "0x60",
          "removed": false
        }
      ],
      "logsBloom": "0x00000000000000000000000000000000000000000000084008000000000040000000000000000000000000000010000000000000000000000000000001000000000000000000000004000000000000000000000000000000000000000000000000000000400000400000000000000000000000000000000400000000000000000000000000000000000000000000000000000000000800000000100000000000000000000000000000000000200000000000000000000000000000000000000000000000000000000000000000000000000000000000000000000000000000000000000000000000000000400000000000000000000000008000000000000000",
      "type": "0x2",
      "transactionHash": "0x6ac9a77f80326d11d0c2ad55207d2f67bd2adaa0cb3d7041ec1fb9d8408fc660",
      "transactionIndex": "0x37",
      "blockHash": "0x2349bc27dc2a30e9d5297c4d2f58e9d25fb6d6cc1c2454c046b5eae482f10d6a",
      "blockNumber": "0x2261b24",
      "gasUsed": "0x7d30d",
      "effectiveGasPrice": "0xba43b7401",
      "from": "0x56fd3f2bee130e9867942d0f463a16fbe49b8d81",
      "to": "0x98c6d2a3a39ff5a2803240f597eb4c8ce76d36ab",
      "contractAddress": null
    },
    {
      "status": "0x1",
      "cumulativeGasUsed": "0xc6d374",
      "logs": [
        {
          "address": "0x388f2c53e77ef33111383a363e0b5fd976b18e74",
          "topics": [
            "0x1a082a1efaf1549c18917ddcb1f759680c29371609e24f4b946e93acf4ce5ad2"
          ],
          "data": "0x99903a787878c236d4fe73d0ea0c98064b57bc87f4bdc428a62e4592d30c19e00000000000000000000000009e174bc09cedadc7a5e39ba1142b6d95365182cb000000000000000000000000000000000000000000000000000000000000012c000000000000000000000000000000000000000000000000000000000001518000000000000000000000000000000000000000000000000000000000000186a0000000000000000000000000000000000000000000000000000000000007a12000000000000000000000000000000000000000000000000000000000002625a00000000000000000000000000000000000000000000000000000000000000007",
          "blockHash": "0x2349bc27dc2a30e9d5297c4d2f58e9d25fb6d6cc1c2454c046b5eae482f10d6a",
          "blockNumber": "0x2261b24",
          "blockTimestamp": "0x68bff803",
          "transactionHash": "0x03df0c8fa09dc001bbaf58318fbb9632b3f21f6f20a15851c725b15c19a75191",
          "transactionIndex": "0x38",
          "logIndex": "0x61",
          "removed": false
        }
      ],
      "logsBloom": "0x00000000000000000000000000000000000000000002000000000000000000000000000000000000000000000000000000000000000000000000020000000000000000000000000000000000000000000000000000000000000000000000000000000000000000000000000000000000000000000000000000000000000000000000000000000000000000000000000000000000000000020000000000000000000000000000000000000000000000000000000000000000000000000000000000000000000000000000000000000000000000000040000000000000000000000000000000000000000000000000000000000000000010000010000000000000",
      "type": "0x2",
      "transactionHash": "0x03df0c8fa09dc001bbaf58318fbb9632b3f21f6f20a15851c725b15c19a75191",
      "transactionIndex": "0x38",
      "blockHash": "0x2349bc27dc2a30e9d5297c4d2f58e9d25fb6d6cc1c2454c046b5eae482f10d6a",
      "blockNumber": "0x2261b24",
      "gasUsed": "0xf976",
      "effectiveGasPrice": "0xba43b7401",
      "from": "0x56fd3f2bee130e9867942d0f463a16fbe49b8d81",
      "to": "0x388f2c53e77ef33111383a363e0b5fd976b18e74",
      "contractAddress": null
    },
    {
      "status": "0x1",
      "cumulativeGasUsed": "0xc7cd0d",
      "logs": [
        {
          "address": "0x388f2c53e77ef33111383a363e0b5fd976b18e74",
          "topics": [
            "0x1a082a1efaf1549c18917ddcb1f759680c29371609e24f4b946e93acf4ce5ad2"
          ],
          "data": "0x99903a787878c236d4fe73d0ea0c98064b57bc87f4bdc428a62e4592d30c19e000000000000000000000000066bff13aff22c31df7cd53707e645c9736a6637a000000000000000000000000000000000000000000000000000000000000012c00000000000000000000000000000000000000000000000000000000000151800000000000000000000000000000000000000000000000000000000000c528a80000000000000000000000000000000000000000000000000000000003d9cb48000000000000000000000000000000000000000000000000000000001340f8680000000000000000000000000000000000000000000000000000000000000007",
          "blockHash": "0x2349bc27dc2a30e9d5297c4d2f58e9d25fb6d6cc1c2454c046b5eae482f10d6a",
          "blockNumber": "0x2261b24",
          "blockTimestamp": "0x68bff803",
          "transactionHash": "0xd0e89e9456844b7302572984db0f99dabba34e7e8647c35d5571a1c79d4b40df",
          "transactionIndex": "0x39",
          "logIndex": "0x62",
          "removed": false
        }
      ],
      "logsBloom": "0x00000000000000000000000000000000000000000002000000000000000000000000000000000000000000000000000000000000000000000000020000000000000000000000000000000000000000000000000000000000000000000000000000000000000000000000000000000000000000000000000000000000000000000000000000000000000000000000000000000000000000020000000000000000000000000000000000000000000000000000000000000000000000000000000000000000000000000000000000000000000000000040000000000000000000000000000000000000000000000000000000000000000010000010000000000000",
      "type": "0x2",
      "transactionHash": "0xd0e89e9456844b7302572984db0f99dabba34e7e8647c35d5571a1c79d4b40df",
      "transactionIndex": "0x39",
      "blockHash": "0x2349bc27dc2a30e9d5297c4d2f58e9d25fb6d6cc1c2454c046b5eae482f10d6a",
      "blockNumber": "0x2261b24",
      "gasUsed": "0xf999",
      "effectiveGasPrice": "0xba43b7401",
      "from": "0x56fd3f2bee130e9867942d0f463a16fbe49b8d81",
      "to": "0x388f2c53e77ef33111383a363e0b5fd976b18e74",
      "contractAddress": null
    },
    {
      "status": "0x1",
      "cumulativeGasUsed": "0xcfa01a",
      "logs": [
        {
          "address": "0x98c6d2a3a39ff5a2803240f597eb4c8ce76d36ab",
          "topics": [
            "0xb374789237d43aed0f75b4c50a45793fd70e354bb96eecd573f35f5d509d78a1",
            "0x4033fa45bb2569f1011bb158dc7b3ecc5958f0773d5a600923f1e8afc86d8413",
            "0x0000000000000000000000009e174bc09cedadc7a5e39ba1142b6d95365182cb",
            "0x000000000000000000000000cddb469d22f0a15be11d0acda962e2caacd52706"
          ],
          "data": "0x00000000000000000000000049503ffd8da325bfe52b8982a7f9c2e26643c276",
          "blockHash": "0x2349bc27dc2a30e9d5297c4d2f58e9d25fb6d6cc1c2454c046b5eae482f10d6a",
          "blockNumber": "0x2261b24",
          "blockTimestamp": "0x68bff803",
          "transactionHash": "0x6b98f12733acd5d079eb64809bfd9e3ff5443b737bf895007ff2182988e100e9",
          "transactionIndex": "0x3a",
          "logIndex": "0x63",
          "removed": false
        }
      ],
      "logsBloom": "0x00000000000000000000040000000000000000000000004000000100000040000000000000000000000000000000000000000000000000000000000000000000000000000000000000000010000000000000000000000000000000000008000000000000400000400000000000000000000000000000000400000000000000000000000000000000000000000000000000000000000800000000000000000000000000000000000000000000200000000010000000000000000000000000000000000000000000000000000000000000000000000000000000000000000000000000000000000000000000400000000000000000000000008000000000000008",
      "type": "0x2",
      "transactionHash": "0x6b98f12733acd5d079eb64809bfd9e3ff5443b737bf895007ff2182988e100e9",
      "transactionIndex": "0x3a",
      "blockHash": "0x2349bc27dc2a30e9d5297c4d2f58e9d25fb6d6cc1c2454c046b5eae482f10d6a",
      "blockNumber": "0x2261b24",
      "gasUsed": "0x7d30d",
      "effectiveGasPrice": "0xba43b7401",
      "from": "0x56fd3f2bee130e9867942d0f463a16fbe49b8d81",
      "to": "0x98c6d2a3a39ff5a2803240f597eb4c8ce76d36ab",
      "contractAddress": null
    },
    {
      "status": "0x1",
      "cumulativeGasUsed": "0xd09990",
      "logs": [
        {
          "address": "0x388f2c53e77ef33111383a363e0b5fd976b18e74",
          "topics": [
            "0x1a082a1efaf1549c18917ddcb1f759680c29371609e24f4b946e93acf4ce5ad2"
          ],
          "data": "0x4033fa45bb2569f1011bb158dc7b3ecc5958f0773d5a600923f1e8afc86d84130000000000000000000000009e174bc09cedadc7a5e39ba1142b6d95365182cb000000000000000000000000000000000000000000000000000000000000012c000000000000000000000000000000000000000000000000000000000001518000000000000000000000000000000000000000000000000000000000000186a0000000000000000000000000000000000000000000000000000000000007a12000000000000000000000000000000000000000000000000000000000002625a00000000000000000000000000000000000000000000000000000000000000007",
          "blockHash": "0x2349bc27dc2a30e9d5297c4d2f58e9d25fb6d6cc1c2454c046b5eae482f10d6a",
          "blockNumber": "0x2261b24",
          "blockTimestamp": "0x68bff803",
          "transactionHash": "0x9ff787765f78107b686041e42cb18da55e418c2b25f22e811cb21d0c051e8f6c",
          "transactionIndex": "0x3b",
          "logIndex": "0x64",
          "removed": false
        }
      ],
      "logsBloom": "0x00000000000000000000000000000000000000000002000000000000000000000000000000000000000000000000000000000000000000000000020000000000000000000000000000000000000000000000000000000000000000000000000000000000000000000000000000000000000000000000000000000000000000000000000000000000000000000000000000000000000000020000000000000000000000000000000000000000000000000000000000000000000000000000000000000000000000000000000000000000000000000040000000000000000000000000000000000000000000000000000000000000000010000010000000000000",
      "type": "0x2",
      "transactionHash": "0x9ff787765f78107b686041e42cb18da55e418c2b25f22e811cb21d0c051e8f6c",
      "transactionIndex": "0x3b",
      "blockHash": "0x2349bc27dc2a30e9d5297c4d2f58e9d25fb6d6cc1c2454c046b5eae482f10d6a",
      "blockNumber": "0x2261b24",
      "gasUsed": "0xf976",
      "effectiveGasPrice": "0xba43b7401",
      "from": "0x56fd3f2bee130e9867942d0f463a16fbe49b8d81",
      "to": "0x388f2c53e77ef33111383a363e0b5fd976b18e74",
      "contractAddress": null
    },
    {
      "status": "0x1",
      "cumulativeGasUsed": "0xd19329",
      "logs": [
        {
          "address": "0x388f2c53e77ef33111383a363e0b5fd976b18e74",
          "topics": [
            "0x1a082a1efaf1549c18917ddcb1f759680c29371609e24f4b946e93acf4ce5ad2"
          ],
          "data": "0x4033fa45bb2569f1011bb158dc7b3ecc5958f0773d5a600923f1e8afc86d8413000000000000000000000000cddb469d22f0a15be11d0acda962e2caacd52706000000000000000000000000000000000000000000000000000000000000012c000000000000000000000000000000000000000000000000000000000001518000000000000000000000000000000000000000000000000000000000005795e00000000000000000000000000000000000000000000000000000000001b5ed6000000000000000000000000000000000000000000000000000000000088da2e00000000000000000000000000000000000000000000000000000000000000007",
          "blockHash": "0x2349bc27dc2a30e9d5297c4d2f58e9d25fb6d6cc1c2454c046b5eae482f10d6a",
          "blockNumber": "0x2261b24",
          "blockTimestamp": "0x68bff803",
          "transactionHash": "0xe18ce255281ba5c3d62caff8d83bb6d449af349bb5abd1970765d6f533a005d7",
          "transactionIndex": "0x3c",
          "logIndex": "0x65",
          "removed": false
        }
      ],
      "logsBloom": "0x00000000000000000000000000000000000000000002000000000000000000000000000000000000000000000000000000000000000000000000020000000000000000000000000000000000000000000000000000000000000000000000000000000000000000000000000000000000000000000000000000000000000000000000000000000000000000000000000000000000000000020000000000000000000000000000000000000000000000000000000000000000000000000000000000000000000000000000000000000000000000000040000000000000000000000000000000000000000000000000000000000000000010000010000000000000",
      "type": "0x2",
      "transactionHash": "0xe18ce255281ba5c3d62caff8d83bb6d449af349bb5abd1970765d6f533a005d7",
      "transactionIndex": "0x3c",
      "blockHash": "0x2349bc27dc2a30e9d5297c4d2f58e9d25fb6d6cc1c2454c046b5eae482f10d6a",
      "blockNumber": "0x2261b24",
      "gasUsed": "0xf999",
      "effectiveGasPrice": "0xba43b7401",
      "from": "0x56fd3f2bee130e9867942d0f463a16fbe49b8d81",
      "to": "0x388f2c53e77ef33111383a363e0b5fd976b18e74",
      "contractAddress": null
    },
    {
      "status": "0x1",
      "cumulativeGasUsed": "0xd96636",
      "logs": [
        {
          "address": "0x98c6d2a3a39ff5a2803240f597eb4c8ce76d36ab",
          "topics": [
            "0xb374789237d43aed0f75b4c50a45793fd70e354bb96eecd573f35f5d509d78a1",
            "0xb947832f187a2fc262902bc762d0288b5dc4abb9df1d6c79129ba0a8dc5ed26d",
            "0x0000000000000000000000009e174bc09cedadc7a5e39ba1142b6d95365182cb",
            "0x000000000000000000000000ecdb02e9ce57d3b7a523bb7bf539e9e5ffac3329"
          ],
          "data": "0x00000000000000000000000049503ffd8da325bfe52b8982a7f9c2e26643c276",
          "blockHash": "0x2349bc27dc2a30e9d5297c4d2f58e9d25fb6d6cc1c2454c046b5eae482f10d6a",
          "blockNumber": "0x2261b24",
          "blockTimestamp": "0x68bff803",
          "transactionHash": "0x52e4ec28759291e5062dada337bdbb1cdb3c80262c47d85906e47acacff36d6a",
          "transactionIndex": "0x3d",
          "logIndex": "0x66",
          "removed": false
        }
      ],
      "logsBloom": "0x00800000000000000000000000000000000000000000006000000000000040000000000000000000000000000000000000000000000000000000000000000000000000000000000000000000000000000000000000000000000000000100000000000000400000400000000000000000000000000000000400000000000000000000000000000000001000000000000000000000000800000000000000000000000000000000000000000000200000000000000000000000000000000000000000000000000000000000000000000000000000000000000000000000000000000000000000000000000000400000000000000080000000008000000000000080",
      "type": "0x2",
      "transactionHash": "0x52e4ec28759291e5062dada337bdbb1cdb3c80262c47d85906e47acacff36d6a",
      "transactionIndex": "0x3d",
      "blockHash": "0x2349bc27dc2a30e9d5297c4d2f58e9d25fb6d6cc1c2454c046b5eae482f10d6a",
      "blockNumber": "0x2261b24",
      "gasUsed": "0x7d30d",
      "effectiveGasPrice": "0xba43b7401",
      "from": "0x56fd3f2bee130e9867942d0f463a16fbe49b8d81",
      "to": "0x98c6d2a3a39ff5a2803240f597eb4c8ce76d36ab",
      "contractAddress": null
    },
    {
      "status": "0x1",
      "cumulativeGasUsed": "0xda51bf",
      "logs": [
        {
          "address": "0x388f2c53e77ef33111383a363e0b5fd976b18e74",
          "topics": [
            "0x1a082a1efaf1549c18917ddcb1f759680c29371609e24f4b946e93acf4ce5ad2"
          ],
          "data": "0xb947832f187a2fc262902bc762d0288b5dc4abb9df1d6c79129ba0a8dc5ed26d0000000000000000000000009e174bc09cedadc7a5e39ba1142b6d95365182cb000000000000000000000000000000000000000000000000000000000000012c0000000000000000000000000000000000000000000000000000000000015180000000000000000000000000000000000000000000000000000000000000c350000000000000000000000000000000000000000000000000000000000003d09000000000000000000000000000000000000000000000000000000000001312d00000000000000000000000000000000000000000000000000000000000000007",
          "blockHash": "0x2349bc27dc2a30e9d5297c4d2f58e9d25fb6d6cc1c2454c046b5eae482f10d6a",
          "blockNumber": "0x2261b24",
          "blockTimestamp": "0x68bff803",
          "transactionHash": "0xc3ddcb6945885d948c25f9b4241deb095a6edde63d7703e964e3b9b9f97a3a7f",
          "transactionIndex": "0x3e",
          "logIndex": "0x67",
          "removed": false
        }
      ],
      "logsBloom": "0x00000000000000000000000000000000000000000002000000000000000000000000000000000000000000000000000000000000000000000000020000000000000000000000000000000000000000000000000000000000000000000000000000000000000000000000000000000000000000000000000000000000000000000000000000000000000000000000000000000000000000020000000000000000000000000000000000000000000000000000000000000000000000000000000000000000000000000000000000000000000000000040000000000000000000000000000000000000000000000000000000000000000010000010000000000000",
      "type": "0x2",
      "transactionHash": "0xc3ddcb6945885d948c25f9b4241deb095a6edde63d7703e964e3b9b9f97a3a7f",
      "transactionIndex": "0x3e",
      "blockHash": "0x2349bc27dc2a30e9d5297c4d2f58e9d25fb6d6cc1c2454c046b5eae482f10d6a",
      "blockNumber": "0x2261b24",
      "gasUsed": "0xeb89",
      "effectiveGasPrice": "0xba43b7401",
      "from": "0x56fd3f2bee130e9867942d0f463a16fbe49b8d81",
      "to": "0x388f2c53e77ef33111383a363e0b5fd976b18e74",
      "contractAddress": null
    },
    {
      "status": "0x1",
      "cumulativeGasUsed": "0xdb3d8b",
      "logs": [
        {
          "address": "0x388f2c53e77ef33111383a363e0b5fd976b18e74",
          "topics": [
            "0x1a082a1efaf1549c18917ddcb1f759680c29371609e24f4b946e93acf4ce5ad2"
          ],
          "data": "0xb947832f187a2fc262902bc762d0288b5dc4abb9df1d6c79129ba0a8dc5ed26d000000000000000000000000ecdb02e9ce57d3b7a523bb7bf539e9e5ffac3329000000000000000000000000000000000000000000000000000000000000012c00000000000000000000000000000000000000000000000000000000000151800000000000000000000000000000000000000000000000000000000001ab98d8000000000000000000000000000000000000000000000000000000000859fc380000000000000000000000000000000000000000000000000000000029c1ed180000000000000000000000000000000000000000000000000000000000000007",
          "blockHash": "0x2349bc27dc2a30e9d5297c4d2f58e9d25fb6d6cc1c2454c046b5eae482f10d6a",
          "blockNumber": "0x2261b24",
          "blockTimestamp": "0x68bff803",
          "transactionHash": "0xf9ab008c480a19187f177ae46dd45bf1cc1fdac5e1e713f7db48dc73ffdd09d8",
          "transactionIndex": "0x3f",
          "logIndex": "0x68",
          "removed": false
        }
      ],
      "logsBloom": "0x00000000000000000000000000000000000000000002000000000000000000000000000000000000000000000000000000000000000000000000020000000000000000000000000000000000000000000000000000000000000000000000000000000000000000000000000000000000000000000000000000000000000000000000000000000000000000000000000000000000000000020000000000000000000000000000000000000000000000000000000000000000000000000000000000000000000000000000000000000000000000000040000000000000000000000000000000000000000000000000000000000000000010000010000000000000",
      "type": "0x2",
      "transactionHash": "0xf9ab008c480a19187f177ae46dd45bf1cc1fdac5e1e713f7db48dc73ffdd09d8",
      "transactionIndex": "0x3f",
      "blockHash": "0x2349bc27dc2a30e9d5297c4d2f58e9d25fb6d6cc1c2454c046b5eae482f10d6a",
      "blockNumber": "0x2261b24",
      "gasUsed": "0xebcc",
      "effectiveGasPrice": "0xba43b7401",
      "from": "0x56fd3f2bee130e9867942d0f463a16fbe49b8d81",
      "to": "0x388f2c53e77ef33111383a363e0b5fd976b18e74",
      "contractAddress": null
    }
  ],
  "libraries": [
    "node_modules/@celo/contracts/common/linkedlists/AddressSortedLinkedListWithMedian.sol:AddressSortedLinkedListWithMedian:0xcB985Be7a200D0075155AC2697D6D5F00267a11b"
  ],
  "pending": [],
  "returns": {},
  "timestamp": 1757411340276,
  "chain": 10143,
  "commit": "cf21763"
}