{
  "transactions": [
    {
      "hash": "0x343e601b6bbb130537f9c0bfdf8d720008525826f475df3b1d454cc08b6d5c52",
      "transactionType": "CALL",
      "contractName": null,
      "contractAddress": "0x2bc2d48735842924c508468c5a02580ad4f6d99a",
      "function": "removeCollateralAsset(address,uint256)",
      "arguments": [
        "0xCA53d9b72646B254d29EBeEb4c5cde7BB4bb59e0",
        "1"
      ],
      "transaction": {
        "from": "0x56fd3f2bee130e9867942d0f463a16fbe49b8d81",
        "to": "0x2bc2d48735842924c508468c5a02580ad4f6d99a",
        "gas": "0xe6e7",
        "value": "0x0",
        "input": "0x70022cb4000000000000000000000000ca53d9b72646b254d29ebeeb4c5cde7bb4bb59e00000000000000000000000000000000000000000000000000000000000000001",
        "nonce": "0x96e",
        "chainId": "0xaa044c"
      },
      "additionalContracts": [],
      "isFixedGasLimit": false
    },
    {
      "hash": "0x588ca4605ef856cec8c8d459927234666d532922d91ef15c260f4786ea36233f",
      "transactionType": "CALL",
      "contractName": null,
      "contractAddress": "0x2bc2d48735842924c508468c5a02580ad4f6d99a",
      "function": "removeCollateralAsset(address,uint256)",
      "arguments": [
        "0xBD63e46Be8eF8D89dFde3054E7b9ECAEb8Ad83e9",
        "0"
      ],
      "transaction": {
        "from": "0x56fd3f2bee130e9867942d0f463a16fbe49b8d81",
        "to": "0x2bc2d48735842924c508468c5a02580ad4f6d99a",
        "gas": "0xe6d7",
        "value": "0x0",
        "input": "0x70022cb4000000000000000000000000bd63e46be8ef8d89dfde3054e7b9ecaeb8ad83e90000000000000000000000000000000000000000000000000000000000000000",
        "nonce": "0x96f",
        "chainId": "0xaa044c"
      },
      "additionalContracts": [],
      "isFixedGasLimit": false
    },
    {
      "hash": "0xeea155bd176fe52fe0054e1ce31e6523331b2ae6e6b0161ab2857a92446431c7",
      "transactionType": "CALL",
      "contractName": null,
      "contractAddress": "0x2bc2d48735842924c508468c5a02580ad4f6d99a",
      "function": "addCollateralAsset(address)",
      "arguments": [
        "0x01C5C0122039549AD1493B8220cABEdD739BC44E"
      ],
      "transaction": {
        "from": "0x56fd3f2bee130e9867942d0f463a16fbe49b8d81",
        "to": "0x2bc2d48735842924c508468c5a02580ad4f6d99a",
        "gas": "0x1b028",
        "value": "0x0",
        "input": "0x965366f300000000000000000000000001c5c0122039549ad1493b8220cabedd739bc44e",
        "nonce": "0x970",
        "chainId": "0xaa044c"
      },
      "additionalContracts": [],
      "isFixedGasLimit": false
    },
    {
      "hash": "0x3c04b383c5263817b98ea66165cda19b1a738e43da9928c40a57a2b518290da9",
      "transactionType": "CALL",
      "contractName": null,
      "contractAddress": "0x2bc2d48735842924c508468c5a02580ad4f6d99a",
      "function": "addCollateralAsset(address)",
      "arguments": [
        "0xd077A400968890Eacc75cdc901F0356c943e4fDb"
      ],
      "transaction": {
        "from": "0x56fd3f2bee130e9867942d0f463a16fbe49b8d81",
        "to": "0x2bc2d48735842924c508468c5a02580ad4f6d99a",
        "gas": "0x1b017",
        "value": "0x0",
        "input": "0x965366f3000000000000000000000000d077a400968890eacc75cdc901f0356c943e4fdb",
        "nonce": "0x971",
        "chainId": "0xaa044c"
      },
      "additionalContracts": [],
      "isFixedGasLimit": false
    },
    {
      "hash": "0xa1edf27aae390c73e365406b6c18ccc82d25d1d1e0226a8155f6b2855c8edc73",
      "transactionType": "CALL",
      "contractName": null,
      "contractAddress": "0xecb3c656c131fcd9bb8d1d80898716bd684feb78",
      "function": "destroyExchange(bytes32,uint256)",
      "arguments": [
        "0xacc988382b66ee5456086643dcfd9a5ca43dd8f428f6ef22503d8b8013bcffd7",
        "0"
      ],
      "transaction": {
        "from": "0x56fd3f2bee130e9867942d0f463a16fbe49b8d81",
        "to": "0xecb3c656c131fcd9bb8d1d80898716bd684feb78",
        "gas": "0x1d61c",
        "value": "0x0",
        "input": "0xe46eb5b6acc988382b66ee5456086643dcfd9a5ca43dd8f428f6ef22503d8b8013bcffd70000000000000000000000000000000000000000000000000000000000000000",
        "nonce": "0x972",
        "chainId": "0xaa044c"
      },
      "additionalContracts": [],
      "isFixedGasLimit": false
    },
    {
      "hash": "0xfb7121c454c61786a68bda89ed37b52386d9e2718ec53f7d15aeb87d0e0adda9",
      "transactionType": "CALL",
      "contractName": null,
      "contractAddress": "0xecb3c656c131fcd9bb8d1d80898716bd684feb78",
      "function": "destroyExchange(bytes32,uint256)",
      "arguments": [
        "0x36e12d20b7a59b463a1a113caf338cbad9d64ee017548d00a791681f2fbf0763",
        "2"
      ],
      "transaction": {
        "from": "0x56fd3f2bee130e9867942d0f463a16fbe49b8d81",
        "to": "0xecb3c656c131fcd9bb8d1d80898716bd684feb78",
        "gas": "0x1d61c",
        "value": "0x0",
        "input": "0xe46eb5b636e12d20b7a59b463a1a113caf338cbad9d64ee017548d00a791681f2fbf07630000000000000000000000000000000000000000000000000000000000000002",
        "nonce": "0x973",
        "chainId": "0xaa044c"
      },
      "additionalContracts": [],
      "isFixedGasLimit": false
    },
    {
      "hash": "0xa1f106e24195a4dfbeb10bed571b2751b9ce2acdcb9ce07366e4b06de107a977",
      "transactionType": "CALL",
      "contractName": null,
      "contractAddress": "0xecb3c656c131fcd9bb8d1d80898716bd684feb78",
      "function": "createExchange((address,address,address,uint256,uint256,uint256,((uint256),address,uint256,uint256,uint256)))",
      "arguments": [
        "(0xdE9e4C3ce781b4bA68120d6261cbad65ce0aB00b, 0xd077A400968890Eacc75cdc901F0356c943e4fDb, 0x3b199d9EbEbe509bb711BfFb455c2d79102A9602, 12000000000000000000000000, 11996151394709549282399220, 1762442395, ((0), 0xE06C10C63377cD098b589c0b90314bFb55751558, 360, 1, 12000000000000000000000000))"
      ],
      "transaction": {
        "from": "0x56fd3f2bee130e9867942d0f463a16fbe49b8d81",
        "to": "0xecb3c656c131fcd9bb8d1d80898716bd684feb78",
        "gas": "0x8791f",
        "value": "0x0",
        "input": "0xb0898691000000000000000000000000de9e4c3ce781b4ba68120d6261cbad65ce0ab00b000000000000000000000000d077a400968890eacc75cdc901f0356c943e4fdb0000000000000000000000003b199d9ebebe509bb711bffb455c2d79102a960200000000000000000000000000000000000000000009ed194db19b238c00000000000000000000000000000000000000000000000009ec48ab90f24237ea93f400000000000000000000000000000000000000000000000000000000690cbc9b0000000000000000000000000000000000000000000000000000000000000000000000000000000000000000e06c10c63377cd098b589c0b90314bfb557515580000000000000000000000000000000000000000000000000000000000000168000000000000000000000000000000000000000000000000000000000000000100000000000000000000000000000000000000000009ed194db19b238c000000",
        "nonce": "0x974",
        "chainId": "0xaa044c"
      },
      "additionalContracts": [],
      "isFixedGasLimit": false
    },
    {
      "hash": "0xc950f9656f78b8b21a0876398a34af7e3386fe67019483126b522b21975c19a7",
      "transactionType": "CALL",
      "contractName": null,
      "contractAddress": "0xecb3c656c131fcd9bb8d1d80898716bd684feb78",
      "function": "createExchange((address,address,address,uint256,uint256,uint256,((uint256),address,uint256,uint256,uint256)))",
      "arguments": [
        "(0xdE9e4C3ce781b4bA68120d6261cbad65ce0aB00b, 0x01C5C0122039549AD1493B8220cABEdD739BC44E, 0x3b199d9EbEbe509bb711BfFb455c2d79102A9602, 12000000000000000000000000, 12001216563323024054948450, 1762354755, ((0), 0xA1A8003936862E7a15092A91898D69fa8bCE290c, 360, 1, 12000000000000000000000000))"
      ],
      "transaction": {
        "from": "0x56fd3f2bee130e9867942d0f463a16fbe49b8d81",
        "to": "0xecb3c656c131fcd9bb8d1d80898716bd684feb78",
        "gas": "0x8f7c6",
        "value": "0x0",
        "input": "0xb0898691000000000000000000000000de9e4c3ce781b4ba68120d6261cbad65ce0ab00b00000000000000000000000001c5c0122039549ad1493b8220cabedd739bc44e0000000000000000000000003b199d9ebebe509bb711bffb455c2d79102a960200000000000000000000000000000000000000000009ed194db19b238c00000000000000000000000000000000000000000000000009ed5b40e6c3cced98126200000000000000000000000000000000000000000000000000000000690b66430000000000000000000000000000000000000000000000000000000000000000000000000000000000000000a1a8003936862e7a15092a91898d69fa8bce290c0000000000000000000000000000000000000000000000000000000000000168000000000000000000000000000000000000000000000000000000000000000100000000000000000000000000000000000000000009ed194db19b238c000000",
        "nonce": "0x975",
        "chainId": "0xaa044c"
      },
      "additionalContracts": [],
      "isFixedGasLimit": false
    },
    {
      "hash": "0xd1319ff7d12366eeb7f135c91c5a79dba6e969e4db8b796084ff9b9f885acce9",
      "transactionType": "CALL",
      "contractName": null,
      "contractAddress": "0xb9ae2065142eb79b6c5eb1e8778f883fad6b07ba",
      "function": "configureTradingLimit(bytes32,address,(uint32,uint32,int48,int48,int48,uint8))",
      "arguments": [
        "0x773bcec109cee923b5e04706044fd9d6a5121b1a6a4c059c36fdbe5b845d4e9b",
        "0xdE9e4C3ce781b4bA68120d6261cbad65ce0aB00b",
        "(300, 86400, 2500000, 5000000, 0, 3)"
      ],
      "transaction": {
        "from": "0x56fd3f2bee130e9867942d0f463a16fbe49b8d81",
        "to": "0xb9ae2065142eb79b6c5eb1e8778f883fad6b07ba",
        "gas": "0x15639",
        "value": "0x0",
        "input": "0xa9b5aab3773bcec109cee923b5e04706044fd9d6a5121b1a6a4c059c36fdbe5b845d4e9b000000000000000000000000de9e4c3ce781b4ba68120d6261cbad65ce0ab00b000000000000000000000000000000000000000000000000000000000000012c000000000000000000000000000000000000000000000000000000000001518000000000000000000000000000000000000000000000000000000000002625a000000000000000000000000000000000000000000000000000000000004c4b4000000000000000000000000000000000000000000000000000000000000000000000000000000000000000000000000000000000000000000000000000000003",
        "nonce": "0x976",
        "chainId": "0xaa044c"
      },
      "additionalContracts": [],
      "isFixedGasLimit": false
    },
    {
      "hash": "0x807a3e2094578fe3a8adb3714189295bc18bc98a513e9b2ba71f758c367d94b7",
      "transactionType": "CALL",
      "contractName": null,
      "contractAddress": "0xb9ae2065142eb79b6c5eb1e8778f883fad6b07ba",
      "function": "configureTradingLimit(bytes32,address,(uint32,uint32,int48,int48,int48,uint8))",
      "arguments": [
        "0xacc988382b66ee5456086643dcfd9a5ca43dd8f428f6ef22503d8b8013bcffd7",
        "0xdE9e4C3ce781b4bA68120d6261cbad65ce0aB00b",
        "(300, 86400, 2500000, 5000000, 0, 3)"
      ],
      "transaction": {
        "from": "0x56fd3f2bee130e9867942d0f463a16fbe49b8d81",
        "to": "0xb9ae2065142eb79b6c5eb1e8778f883fad6b07ba",
        "gas": "0xf9f5",
        "value": "0x0",
        "input": "0xa9b5aab3acc988382b66ee5456086643dcfd9a5ca43dd8f428f6ef22503d8b8013bcffd7000000000000000000000000de9e4c3ce781b4ba68120d6261cbad65ce0ab00b000000000000000000000000000000000000000000000000000000000000012c000000000000000000000000000000000000000000000000000000000001518000000000000000000000000000000000000000000000000000000000002625a000000000000000000000000000000000000000000000000000000000004c4b4000000000000000000000000000000000000000000000000000000000000000000000000000000000000000000000000000000000000000000000000000000003",
        "nonce": "0x977",
        "chainId": "0xaa044c"
      },
      "additionalContracts": [],
      "isFixedGasLimit": false
    }
  ],
  "receipts": [
    {
      "status": "0x1",
      "cumulativeGasUsed": "0x15b00",
      "logs": [
        {
          "address": "0x2bc2d48735842924c508468c5a02580ad4f6d99a",
          "topics": [
            "0x4336391ada1af9dcb966fed43ebafa4404719b6d8e42c765ab28e3abc9a24e7a"
          ],
          "data": "0x000000000000000000000000ca53d9b72646b254d29ebeeb4c5cde7bb4bb59e0",
          "blockHash": "0xe7ea2783ed5796865ce7f7671f7f8688e533ffae1b36903f8e13608ff554cdef",
          "blockNumber": "0x8bbfd2",
          "transactionHash": "0x343e601b6bbb130537f9c0bfdf8d720008525826f475df3b1d454cc08b6d5c52",
          "transactionIndex": "0x1",
          "logIndex": "0x0",
          "removed": false
        }
      ],
      "logsBloom": "0x00000000000000000000000000000000000000000000000000000000000000000000000000000000000000000000000000800000000000000000000000000004000000000000000000000000000000000000000000000000000000000000000000000000000000000000000000000000000000000000000000000000000000000000000000000000000000000000008000000000000000020000000000000000000000000000000000000000000000000000000000000000000000000000000000020000000000400000000000000000000000000000000000000000000000000000000000000000000000000000000000000000000000000000000000000000",
      "type": "0x2",
      "transactionHash": "0x343e601b6bbb130537f9c0bfdf8d720008525826f475df3b1d454cc08b6d5c52",
      "transactionIndex": "0x1",
      "blockHash": "0xe7ea2783ed5796865ce7f7671f7f8688e533ffae1b36903f8e13608ff554cdef",
      "blockNumber": "0x8bbfd2",
      "gasUsed": "0xa72c",
      "effectiveGasPrice": "0x5d22cfc40",
      "from": "0x56fd3f2bee130e9867942d0f463a16fbe49b8d81",
      "to": "0x2bc2d48735842924c508468c5a02580ad4f6d99a",
      "contractAddress": null,
      "l1BaseFeeScalar": "0x0",
      "l1BlobBaseFee": "0x1",
      "l1BlobBaseFeeScalar": "0x0",
      "l1Fee": "0x0",
      "l1GasPrice": "0xa",
      "l1GasUsed": "0x640"
    },
    {
      "status": "0x1",
      "cumulativeGasUsed": "0x20220",
      "logs": [
        {
          "address": "0x2bc2d48735842924c508468c5a02580ad4f6d99a",
          "topics": [
            "0x4336391ada1af9dcb966fed43ebafa4404719b6d8e42c765ab28e3abc9a24e7a"
          ],
          "data": "0x000000000000000000000000bd63e46be8ef8d89dfde3054e7b9ecaeb8ad83e9",
          "blockHash": "0xe7ea2783ed5796865ce7f7671f7f8688e533ffae1b36903f8e13608ff554cdef",
          "blockNumber": "0x8bbfd2",
          "transactionHash": "0x588ca4605ef856cec8c8d459927234666d532922d91ef15c260f4786ea36233f",
          "transactionIndex": "0x2",
          "logIndex": "0x1",
          "removed": false
        }
      ],
      "logsBloom": "0x00000000000000000000000000000000000000000000000000000000000000000000000000000000000000000000000000800000000000000000000000000004000000000000000000000000000000000000000000000000000000000000000000000000000000000000000000000000000000000000000000000000000000000000000000000000000000000000008000000000000000020000000000000000000000000000000000000000000000000000000000000000000000000000000000020000000000400000000000000000000000000000000000000000000000000000000000000000000000000000000000000000000000000000000000000000",
      "type": "0x2",
      "transactionHash": "0x588ca4605ef856cec8c8d459927234666d532922d91ef15c260f4786ea36233f",
      "transactionIndex": "0x2",
      "blockHash": "0xe7ea2783ed5796865ce7f7671f7f8688e533ffae1b36903f8e13608ff554cdef",
      "blockNumber": "0x8bbfd2",
      "gasUsed": "0xa720",
      "effectiveGasPrice": "0x5d22cfc40",
      "from": "0x56fd3f2bee130e9867942d0f463a16fbe49b8d81",
      "to": "0x2bc2d48735842924c508468c5a02580ad4f6d99a",
      "contractAddress": null,
      "l1BaseFeeScalar": "0x0",
      "l1BlobBaseFee": "0x1",
      "l1BlobBaseFeeScalar": "0x0",
      "l1Fee": "0x0",
      "l1GasPrice": "0xa",
      "l1GasUsed": "0x640"
    },
    {
      "status": "0x1",
      "cumulativeGasUsed": "0x33b00",
      "logs": [
        {
          "address": "0x2bc2d48735842924c508468c5a02580ad4f6d99a",
          "topics": [
            "0x0c7515883121475b5d9289febf21a9de4ad53f18349a856d90c7acd6e099600b"
          ],
          "data": "0x00000000000000000000000001c5c0122039549ad1493b8220cabedd739bc44e",
          "blockHash": "0xe7ea2783ed5796865ce7f7671f7f8688e533ffae1b36903f8e13608ff554cdef",
          "blockNumber": "0x8bbfd2",
          "transactionHash": "0xeea155bd176fe52fe0054e1ce31e6523331b2ae6e6b0161ab2857a92446431c7",
          "transactionIndex": "0x3",
          "logIndex": "0x2",
          "removed": false
        }
      ],
      "logsBloom": "0x00000000000000000000000000000000000000000000000000000000000000000000000000000000000000000000000000000000000000000000000001000004000000000000000000000000000000000000000000000000000000000000040000000000000000000000000000000000000000000000000000000000000000000000000000000000000000000000008000000000000000000000000000000000000000000000000000000000000000000000000000000000080000000000000000000000000000400000000000000000000000000000000000000000000000000000000000000000000000000000000000000000000000000000000000000000",
      "type": "0x2",
      "transactionHash": "0xeea155bd176fe52fe0054e1ce31e6523331b2ae6e6b0161ab2857a92446431c7",
      "transactionIndex": "0x3",
      "blockHash": "0xe7ea2783ed5796865ce7f7671f7f8688e533ffae1b36903f8e13608ff554cdef",
      "blockNumber": "0x8bbfd2",
      "gasUsed": "0x138e0",
      "effectiveGasPrice": "0x5d22cfc40",
      "from": "0x56fd3f2bee130e9867942d0f463a16fbe49b8d81",
      "to": "0x2bc2d48735842924c508468c5a02580ad4f6d99a",
      "contractAddress": null,
      "l1BaseFeeScalar": "0x0",
      "l1BlobBaseFee": "0x1",
      "l1BlobBaseFeeScalar": "0x0",
      "l1Fee": "0x0",
      "l1GasPrice": "0xa",
      "l1GasUsed": "0x640"
    },
    {
      "status": "0x1",
      "cumulativeGasUsed": "0x473d4",
      "logs": [
        {
          "address": "0x2bc2d48735842924c508468c5a02580ad4f6d99a",
          "topics": [
            "0x0c7515883121475b5d9289febf21a9de4ad53f18349a856d90c7acd6e099600b"
          ],
          "data": "0x000000000000000000000000d077a400968890eacc75cdc901f0356c943e4fdb",
          "blockHash": "0xe7ea2783ed5796865ce7f7671f7f8688e533ffae1b36903f8e13608ff554cdef",
          "blockNumber": "0x8bbfd2",
          "transactionHash": "0x3c04b383c5263817b98ea66165cda19b1a738e43da9928c40a57a2b518290da9",
          "transactionIndex": "0x4",
          "logIndex": "0x3",
          "removed": false
        }
      ],
      "logsBloom": "0x00000000000000000000000000000000000000000000000000000000000000000000000000000000000000000000000000000000000000000000000001000004000000000000000000000000000000000000000000000000000000000000040000000000000000000000000000000000000000000000000000000000000000000000000000000000000000000000008000000000000000000000000000000000000000000000000000000000000000000000000000000000080000000000000000000000000000400000000000000000000000000000000000000000000000000000000000000000000000000000000000000000000000000000000000000000",
      "type": "0x2",
      "transactionHash": "0x3c04b383c5263817b98ea66165cda19b1a738e43da9928c40a57a2b518290da9",
      "transactionIndex": "0x4",
      "blockHash": "0xe7ea2783ed5796865ce7f7671f7f8688e533ffae1b36903f8e13608ff554cdef",
      "blockNumber": "0x8bbfd2",
      "gasUsed": "0x138d4",
      "effectiveGasPrice": "0x5d22cfc40",
      "from": "0x56fd3f2bee130e9867942d0f463a16fbe49b8d81",
      "to": "0x2bc2d48735842924c508468c5a02580ad4f6d99a",
      "contractAddress": null,
      "l1BaseFeeScalar": "0x0",
      "l1BlobBaseFee": "0x1",
      "l1BlobBaseFeeScalar": "0x0",
      "l1Fee": "0x0",
      "l1GasPrice": "0xa",
      "l1GasUsed": "0x640"
    },
    {
      "status": "0x1",
      "cumulativeGasUsed": "0x5b546",
      "logs": [
        {
          "address": "0xecb3c656c131fcd9bb8d1d80898716bd684feb78",
          "topics": [
            "0xadbbec6c203cb0248e89fe6d15ad651061a9d5203a1ab0273256e2b7decffa89",
            "0xacc988382b66ee5456086643dcfd9a5ca43dd8f428f6ef22503d8b8013bcffd7",
            "0x000000000000000000000000de9e4c3ce781b4ba68120d6261cbad65ce0ab00b",
            "0x000000000000000000000000bd63e46be8ef8d89dfde3054e7b9ecaeb8ad83e9"
          ],
          "data": "0x0000000000000000000000003b199d9ebebe509bb711bffb455c2d79102a9602",
          "blockHash": "0xe7ea2783ed5796865ce7f7671f7f8688e533ffae1b36903f8e13608ff554cdef",
          "blockNumber": "0x8bbfd2",
          "transactionHash": "0xa1edf27aae390c73e365406b6c18ccc82d25d1d1e0226a8155f6b2855c8edc73",
          "transactionIndex": "0x5",
          "logIndex": "0x4",
          "removed": false
        }
      ],
      "logsBloom": "0x00000000000000000000000000004000008008000000000000000000000000000100010000000000000000000000000000000000000000000000000000000000000000000000000000000000000000002000000000000000000000000000000000000000000002000000000000000000000000000000001000000000000000000000040000000000000000000000000000000000000000000800000000000000000000000000000000000000000000000000000000000800000000000000000000000000000000002000000000000000002000000000100000000000000000000000000000000000000040000000000000000000000000000000000000000000",
      "type": "0x2",
      "transactionHash": "0xa1edf27aae390c73e365406b6c18ccc82d25d1d1e0226a8155f6b2855c8edc73",
      "transactionIndex": "0x5",
      "blockHash": "0xe7ea2783ed5796865ce7f7671f7f8688e533ffae1b36903f8e13608ff554cdef",
      "blockNumber": "0x8bbfd2",
      "gasUsed": "0x14172",
      "effectiveGasPrice": "0x5d22cfc40",
      "from": "0x56fd3f2bee130e9867942d0f463a16fbe49b8d81",
      "to": "0xecb3c656c131fcd9bb8d1d80898716bd684feb78",
      "contractAddress": null,
      "l1BaseFeeScalar": "0x0",
      "l1BlobBaseFee": "0x1",
      "l1BlobBaseFeeScalar": "0x0",
      "l1Fee": "0x0",
      "l1GasPrice": "0xa",
      "l1GasUsed": "0x640"
    },
    {
      "status": "0x1",
      "cumulativeGasUsed": "0x6f6b8",
      "logs": [
        {
          "address": "0xecb3c656c131fcd9bb8d1d80898716bd684feb78",
          "topics": [
            "0xadbbec6c203cb0248e89fe6d15ad651061a9d5203a1ab0273256e2b7decffa89",
            "0x36e12d20b7a59b463a1a113caf338cbad9d64ee017548d00a791681f2fbf0763",
            "0x000000000000000000000000de9e4c3ce781b4ba68120d6261cbad65ce0ab00b",
            "0x000000000000000000000000ca53d9b72646b254d29ebeeb4c5cde7bb4bb59e0"
          ],
          "data": "0x0000000000000000000000003b199d9ebebe509bb711bffb455c2d79102a9602",
          "blockHash": "0xe7ea2783ed5796865ce7f7671f7f8688e533ffae1b36903f8e13608ff554cdef",
          "blockNumber": "0x8bbfd2",
          "transactionHash": "0xfb7121c454c61786a68bda89ed37b52386d9e2718ec53f7d15aeb87d0e0adda9",
          "transactionIndex": "0x6",
          "logIndex": "0x5",
          "removed": false
        }
      ],
      "logsBloom": "0x00000000000000000000000020004000008008000000000000000000000000000100010000000000000000000000000000000000000000000000000000000800000000000000000000000000000000002000000000000000000000000000000000000000000002000000000000000000000000000000000000000000000000010000040000000000000000000000000000000100000000000000000000000000000000000000080000000000000000000000000000000000000000000000000002000000000000000000000000000000000000000000100000000000000000000000000000000000000000000000000000000000000000000000000000000000",
      "type": "0x2",
      "transactionHash": "0xfb7121c454c61786a68bda89ed37b52386d9e2718ec53f7d15aeb87d0e0adda9",
      "transactionIndex": "0x6",
      "blockHash": "0xe7ea2783ed5796865ce7f7671f7f8688e533ffae1b36903f8e13608ff554cdef",
      "blockNumber": "0x8bbfd2",
      "gasUsed": "0x14172",
      "effectiveGasPrice": "0x5d22cfc40",
      "from": "0x56fd3f2bee130e9867942d0f463a16fbe49b8d81",
      "to": "0xecb3c656c131fcd9bb8d1d80898716bd684feb78",
      "contractAddress": null,
      "l1BaseFeeScalar": "0x0",
      "l1BlobBaseFee": "0x1",
      "l1BlobBaseFeeScalar": "0x0",
      "l1Fee": "0x0",
      "l1GasPrice": "0xa",
      "l1GasUsed": "0x640"
    },
    {
      "status": "0x1",
      "cumulativeGasUsed": "0xd1920",
      "logs": [
        {
          "address": "0xecb3c656c131fcd9bb8d1d80898716bd684feb78",
          "topics": [
            "0xb374789237d43aed0f75b4c50a45793fd70e354bb96eecd573f35f5d509d78a1",
            "0x773bcec109cee923b5e04706044fd9d6a5121b1a6a4c059c36fdbe5b845d4e9b",
            "0x000000000000000000000000de9e4c3ce781b4ba68120d6261cbad65ce0ab00b",
            "0x000000000000000000000000d077a400968890eacc75cdc901f0356c943e4fdb"
          ],
          "data": "0x0000000000000000000000003b199d9ebebe509bb711bffb455c2d79102a9602",
          "blockHash": "0xe7ea2783ed5796865ce7f7671f7f8688e533ffae1b36903f8e13608ff554cdef",
          "blockNumber": "0x8bbfd2",
          "transactionHash": "0xa1f106e24195a4dfbeb10bed571b2751b9ce2acdcb9ce07366e4b06de107a977",
          "transactionIndex": "0x7",
          "logIndex": "0x6",
          "removed": false
        }
      ],
      "logsBloom": "0x00000000000000000000004000000000000008000000004000000000000040000100010000000000000000000000000000000000000000000000000000000000000000000000000000000000000000002000000000000000000000000000002000000000000002000000000000000000000000000000000000000000000000000000000000000000000000000000000000000000000000000000002000000000001000000000000000000000000000000000000000000000000000000000000000100000000000000000000000000000000000000008100000000000000000000000000000000000000000000000000000000000000000008000000000000000",
      "type": "0x2",
      "transactionHash": "0xa1f106e24195a4dfbeb10bed571b2751b9ce2acdcb9ce07366e4b06de107a977",
      "transactionIndex": "0x7",
      "blockHash": "0xe7ea2783ed5796865ce7f7671f7f8688e533ffae1b36903f8e13608ff554cdef",
      "blockNumber": "0x8bbfd2",
      "gasUsed": "0x62268",
      "effectiveGasPrice": "0x5d22cfc40",
      "from": "0x56fd3f2bee130e9867942d0f463a16fbe49b8d81",
      "to": "0xecb3c656c131fcd9bb8d1d80898716bd684feb78",
      "contractAddress": null,
      "l1BaseFeeScalar": "0x0",
      "l1BlobBaseFee": "0x1",
      "l1BlobBaseFeeScalar": "0x0",
      "l1Fee": "0x0",
      "l1GasPrice": "0xa",
      "l1GasUsed": "0xcc2"
    },
    {
      "status": "0x1",
      "cumulativeGasUsed": "0x133ae3",
      "logs": [
        {
          "address": "0xecb3c656c131fcd9bb8d1d80898716bd684feb78",
          "topics": [
            "0xb374789237d43aed0f75b4c50a45793fd70e354bb96eecd573f35f5d509d78a1",
            "0xacc988382b66ee5456086643dcfd9a5ca43dd8f428f6ef22503d8b8013bcffd7",
            "0x000000000000000000000000de9e4c3ce781b4ba68120d6261cbad65ce0ab00b",
            "0x00000000000000000000000001c5c0122039549ad1493b8220cabedd739bc44e"
          ],
          "data": "0x0000000000000000000000003b199d9ebebe509bb711bffb455c2d79102a9602",
          "blockHash": "0xe7ea2783ed5796865ce7f7671f7f8688e533ffae1b36903f8e13608ff554cdef",
          "blockNumber": "0x8bbfd2",
          "transactionHash": "0xc950f9656f78b8b21a0876398a34af7e3386fe67019483126b522b21975c19a7",
          "transactionIndex": "0x8",
          "logIndex": "0x7",
          "removed": false
        }
      ],
      "logsBloom": "0x00000000000000000000000000000000000008000000004000000000000040000100010000000000000000000000000000000000000000000000000000000000000000000000000000000000000000002000000000200000000000000000000000000000000002000000000000000000000000000000000000000000000000000000000000000000000000000000000000000000000000000800000000000000000000000000000000000000000000000000000000000000000000000000000000000004000000000000000000000000002000000000100000000000000000000000000000000000000040000000000000000000000000008200000000000000",
      "type": "0x2",
      "transactionHash": "0xc950f9656f78b8b21a0876398a34af7e3386fe67019483126b522b21975c19a7",
      "transactionIndex": "0x8",
      "blockHash": "0xe7ea2783ed5796865ce7f7671f7f8688e533ffae1b36903f8e13608ff554cdef",
      "blockNumber": "0x8bbfd2",
      "gasUsed": "0x621c3",
      "effectiveGasPrice": "0x5d22cfc40",
      "from": "0x56fd3f2bee130e9867942d0f463a16fbe49b8d81",
      "to": "0xecb3c656c131fcd9bb8d1d80898716bd684feb78",
      "contractAddress": null,
      "l1BaseFeeScalar": "0x0",
      "l1BlobBaseFee": "0x1",
      "l1BlobBaseFeeScalar": "0x0",
      "l1Fee": "0x0",
      "l1GasPrice": "0xa",
      "l1GasUsed": "0xcb5"
    },
    {
      "status": "0x1",
      "cumulativeGasUsed": "0x1432a7",
      "logs": [
        {
          "address": "0xb9ae2065142eb79b6c5eb1e8778f883fad6b07ba",
          "topics": [
            "0x1a082a1efaf1549c18917ddcb1f759680c29371609e24f4b946e93acf4ce5ad2"
          ],
          "data": "0x773bcec109cee923b5e04706044fd9d6a5121b1a6a4c059c36fdbe5b845d4e9b000000000000000000000000de9e4c3ce781b4ba68120d6261cbad65ce0ab00b000000000000000000000000000000000000000000000000000000000000012c000000000000000000000000000000000000000000000000000000000001518000000000000000000000000000000000000000000000000000000000002625a000000000000000000000000000000000000000000000000000000000004c4b4000000000000000000000000000000000000000000000000000000000000000000000000000000000000000000000000000000000000000000000000000000003",
          "blockHash": "0xe7ea2783ed5796865ce7f7671f7f8688e533ffae1b36903f8e13608ff554cdef",
          "blockNumber": "0x8bbfd2",
          "transactionHash": "0xd1319ff7d12366eeb7f135c91c5a79dba6e969e4db8b796084ff9b9f885acce9",
          "transactionIndex": "0x9",
          "logIndex": "0x8",
          "removed": false
        }
      ],
      "logsBloom": "0x00080000000000000000000000000000000400000000000000000000000000000000000000000000000000000000000000000000000000000000020000000000000000000000000000000000000000000000000000000000000000000000000000000000000000000000000000000000000000000000000000000000000000000000000000000000000000000000000000000000000000000000000000000000000000000000000000000000000000000000000000000000000000000000000000000000000000000000000010000000000000000000000000000000000000000000000000000000000000000000000000000000000010000010000000000000",
      "type": "0x2",
      "transactionHash": "0xd1319ff7d12366eeb7f135c91c5a79dba6e969e4db8b796084ff9b9f885acce9",
      "transactionIndex": "0x9",
      "blockHash": "0xe7ea2783ed5796865ce7f7671f7f8688e533ffae1b36903f8e13608ff554cdef",
      "blockNumber": "0x8bbfd2",
      "gasUsed": "0xf7c4",
      "effectiveGasPrice": "0x5d22cfc40",
      "from": "0x56fd3f2bee130e9867942d0f463a16fbe49b8d81",
      "to": "0xb9ae2065142eb79b6c5eb1e8778f883fad6b07ba",
      "contractAddress": null,
      "l1BaseFeeScalar": "0x0",
      "l1BlobBaseFee": "0x1",
      "l1BlobBaseFeeScalar": "0x0",
      "l1Fee": "0x0",
      "l1GasPrice": "0xa",
      "l1GasUsed": "0x96a"
    },
    {
      "status": "0x1",
      "cumulativeGasUsed": "0x14e79f",
      "logs": [
        {
          "address": "0xb9ae2065142eb79b6c5eb1e8778f883fad6b07ba",
          "topics": [
            "0x1a082a1efaf1549c18917ddcb1f759680c29371609e24f4b946e93acf4ce5ad2"
          ],
          "data": "0xacc988382b66ee5456086643dcfd9a5ca43dd8f428f6ef22503d8b8013bcffd7000000000000000000000000de9e4c3ce781b4ba68120d6261cbad65ce0ab00b000000000000000000000000000000000000000000000000000000000000012c000000000000000000000000000000000000000000000000000000000001518000000000000000000000000000000000000000000000000000000000002625a000000000000000000000000000000000000000000000000000000000004c4b4000000000000000000000000000000000000000000000000000000000000000000000000000000000000000000000000000000000000000000000000000000003",
          "blockHash": "0xe7ea2783ed5796865ce7f7671f7f8688e533ffae1b36903f8e13608ff554cdef",
          "blockNumber": "0x8bbfd2",
          "transactionHash": "0x807a3e2094578fe3a8adb3714189295bc18bc98a513e9b2ba71f758c367d94b7",
          "transactionIndex": "0xa",
          "logIndex": "0x9",
          "removed": false
        }
      ],
      "logsBloom": "0x00080000000000000000000000000000000400000000000000000000000000000000000000000000000000000000000000000000000000000000020000000000000000000000000000000000000000000000000000000000000000000000000000000000000000000000000000000000000000000000000000000000000000000000000000000000000000000000000000000000000000000000000000000000000000000000000000000000000000000000000000000000000000000000000000000000000000000000000010000000000000000000000000000000000000000000000000000000000000000000000000000000000010000010000000000000",
      "type": "0x2",
      "transactionHash": "0x807a3e2094578fe3a8adb3714189295bc18bc98a513e9b2ba71f758c367d94b7",
      "transactionIndex": "0xa",
      "blockHash": "0xe7ea2783ed5796865ce7f7671f7f8688e533ffae1b36903f8e13608ff554cdef",
      "blockNumber": "0x8bbfd2",
      "gasUsed": "0xb4f8",
      "effectiveGasPrice": "0x5d22cfc40",
      "from": "0x56fd3f2bee130e9867942d0f463a16fbe49b8d81",
      "to": "0xb9ae2065142eb79b6c5eb1e8778f883fad6b07ba",
      "contractAddress": null,
      "l1BaseFeeScalar": "0x0",
      "l1BlobBaseFee": "0x1",
      "l1BlobBaseFeeScalar": "0x0",
      "l1Fee": "0x0",
      "l1GasPrice": "0xa",
      "l1GasUsed": "0x95c"
    }
  ],
  "libraries": [
    "node_modules/@celo/contracts/common/linkedlists/AddressSortedLinkedListWithMedian.sol:AddressSortedLinkedListWithMedian:0xf90B816Ea07eC3c6384656cd5B3249DA8fc3df6F"
  ],
  "pending": [],
  "returns": {},
  "timestamp": 1762442599349,
  "chain": 11142220,
  "commit": "35b2cc0"
}