{
  "transactions": [
    {
      "hash": "0x8bb888ed5513997dcabfb1d0f734383e0d8eca56360ee640a1ef2cbbec3973c1",
      "transactionType": "CALL",
      "contractName": null,
      "contractAddress": "0x02cad821a8ab80a417d682d38a4784ef7887711d",
      "function": "setExternalProvider(address)",
      "arguments": [
        "0xabcdE369CDdD1665E4EbD9214b8e9a595271272C"
      ],
      "transaction": {
        "from": "0x56fd3f2bee130e9867942d0f463a16fbe49b8d81",
        "to": "0x02cad821a8ab80a417d682d38a4784ef7887711d",
        "gas": "0x8d36",
        "value": "0x0",
        "input": "0xe3ac8226000000000000000000000000abcde369cddd1665e4ebd9214b8e9a595271272c",
        "nonce": "0x151",
        "chainId": "0x279f"
      },
      "additionalContracts": [],
      "isFixedGasLimit": false
    },
    {
      "hash": "0xd10d1ccb3eb21add82a3dd3fc2f92668d7a12baa103fce2992601482325b6525",
      "transactionType": "CALL",
      "contractName": null,
      "contractAddress": "0xc51c67ade4c6a37daa31eac104417705dfc810da",
      "function": "setExternalProvider(address)",
      "arguments": [
        "0xabcdE369CDdD1665E4EbD9214b8e9a595271272C"
      ],
      "transaction": {
        "from": "0x56fd3f2bee130e9867942d0f463a16fbe49b8d81",
        "to": "0xc51c67ade4c6a37daa31eac104417705dfc810da",
        "gas": "0x8d36",
        "value": "0x0",
        "input": "0xe3ac8226000000000000000000000000abcde369cddd1665e4ebd9214b8e9a595271272c",
        "nonce": "0x152",
        "chainId": "0x279f"
      },
      "additionalContracts": [],
      "isFixedGasLimit": false
    },
    {
      "hash": "0x1757230f50e506e78dcf6d3b413071edd480d116bc4bd6ab2d98446027bdc681",
      "transactionType": "CALL",
      "contractName": null,
      "contractAddress": "0x366609f8445b2b33d1e8a592e18eaaff89e8bedb",
      "function": "setExternalProvider(address)",
      "arguments": [
        "0xabcdE369CDdD1665E4EbD9214b8e9a595271272C"
      ],
      "transaction": {
        "from": "0x56fd3f2bee130e9867942d0f463a16fbe49b8d81",
        "to": "0x366609f8445b2b33d1e8a592e18eaaff89e8bedb",
        "gas": "0x8d36",
        "value": "0x0",
        "input": "0xe3ac8226000000000000000000000000abcde369cddd1665e4ebd9214b8e9a595271272c",
        "nonce": "0x153",
        "chainId": "0x279f"
      },
      "additionalContracts": [],
      "isFixedGasLimit": false
    },
    {
      "hash": "0x5384b14f4f98e4cf4da4cedd8c8b9c947b64ddc685ec3bdea26dbc130c9e1913",
      "transactionType": "CALL",
      "contractName": null,
      "contractAddress": "0x17117be87ae0bccb6b0923d096a20042185d8bc8",
      "function": "setExternalProvider(address)",
      "arguments": [
        "0xabcdE369CDdD1665E4EbD9214b8e9a595271272C"
      ],
      "transaction": {
        "from": "0x56fd3f2bee130e9867942d0f463a16fbe49b8d81",
        "to": "0x17117be87ae0bccb6b0923d096a20042185d8bc8",
        "gas": "0x8d36",
        "value": "0x0",
        "input": "0xe3ac8226000000000000000000000000abcde369cddd1665e4ebd9214b8e9a595271272c",
        "nonce": "0x154",
        "chainId": "0x279f"
      },
      "additionalContracts": [],
      "isFixedGasLimit": false
    },
    {
      "hash": "0x9c1792d7a8d65504904c9172b8bb2802165d178562668fcb204a80f2f8aa0cc7",
      "transactionType": "CALL",
      "contractName": null,
      "contractAddress": "0x6f9b5465802afde16934ece2462955bce857e365",
      "function": "setExternalProvider(address)",
      "arguments": [
        "0xabcdE369CDdD1665E4EbD9214b8e9a595271272C"
      ],
      "transaction": {
        "from": "0x56fd3f2bee130e9867942d0f463a16fbe49b8d81",
        "to": "0x6f9b5465802afde16934ece2462955bce857e365",
        "gas": "0x8d36",
        "value": "0x0",
        "input": "0xe3ac8226000000000000000000000000abcde369cddd1665e4ebd9214b8e9a595271272c",
        "nonce": "0x155",
        "chainId": "0x279f"
      },
      "additionalContracts": [],
      "isFixedGasLimit": false
    },
    {
      "hash": "0xd90f76acdffe606af4542938005bfd7bf591a16efc40427fff694bc397a93f22",
      "transactionType": "CALL",
      "contractName": "MockChainlinkAggregator",
      "contractAddress": "0xf48d1fe1754a918d0b91113298b5f3fbb9025060",
      "function": "setExternalProvider(address)",
      "arguments": [
        "0xabcdE369CDdD1665E4EbD9214b8e9a595271272C"
      ],
      "transaction": {
        "from": "0x56fd3f2bee130e9867942d0f463a16fbe49b8d81",
        "to": "0xf48d1fe1754a918d0b91113298b5f3fbb9025060",
        "gas": "0x8d36",
        "value": "0x0",
        "input": "0xe3ac8226000000000000000000000000abcde369cddd1665e4ebd9214b8e9a595271272c",
        "nonce": "0x156",
        "chainId": "0x279f"
      },
      "additionalContracts": [],
      "isFixedGasLimit": false
    },
    {
      "hash": "0x0df01abb8e494ffe7732252b432ebc095942ae39b390a79f191c06109d808db0",
      "transactionType": "CALL",
      "contractName": null,
      "contractAddress": "0x9b9fe8a5e206047fc442a46ea78d1a55ef9040f4",
      "function": "setExternalProvider(address)",
      "arguments": [
        "0xabcdE369CDdD1665E4EbD9214b8e9a595271272C"
      ],
      "transaction": {
        "from": "0x56fd3f2bee130e9867942d0f463a16fbe49b8d81",
        "to": "0x9b9fe8a5e206047fc442a46ea78d1a55ef9040f4",
        "gas": "0x8d36",
        "value": "0x0",
        "input": "0xe3ac8226000000000000000000000000abcde369cddd1665e4ebd9214b8e9a595271272c",
        "nonce": "0x157",
        "chainId": "0x279f"
      },
      "additionalContracts": [],
      "isFixedGasLimit": false
    },
    {
      "hash": "0xb20356a3641187fe97f781f7e42745ccb3476c6aeeded81f7363a53a798ce96f",
      "transactionType": "CALL",
      "contractName": null,
      "contractAddress": "0x6c3c523f4460f7658eccccfd39c76437ad19d742",
      "function": "setExternalProvider(address)",
      "arguments": [
        "0xabcdE369CDdD1665E4EbD9214b8e9a595271272C"
      ],
      "transaction": {
        "from": "0x56fd3f2bee130e9867942d0f463a16fbe49b8d81",
        "to": "0x6c3c523f4460f7658eccccfd39c76437ad19d742",
        "gas": "0x8d36",
        "value": "0x0",
        "input": "0xe3ac8226000000000000000000000000abcde369cddd1665e4ebd9214b8e9a595271272c",
        "nonce": "0x158",
        "chainId": "0x279f"
      },
      "additionalContracts": [],
      "isFixedGasLimit": false
    },
    {
      "hash": "0x5ae4bf68454b670f6c0b86e567ee00f29d67c93b77952c9c13b24a58d0be3c89",
      "transactionType": "CALL",
      "contractName": null,
      "contractAddress": "0xbed53c78968e50899bfb42b9edff8cccba3b85fb",
      "function": "setExternalProvider(address)",
      "arguments": [
        "0xabcdE369CDdD1665E4EbD9214b8e9a595271272C"
      ],
      "transaction": {
        "from": "0x56fd3f2bee130e9867942d0f463a16fbe49b8d81",
        "to": "0xbed53c78968e50899bfb42b9edff8cccba3b85fb",
        "gas": "0x8d36",
        "value": "0x0",
        "input": "0xe3ac8226000000000000000000000000abcde369cddd1665e4ebd9214b8e9a595271272c",
        "nonce": "0x159",
        "chainId": "0x279f"
      },
      "additionalContracts": [],
      "isFixedGasLimit": false
    },
    {
      "hash": "0xc89c65f9c8d026d7262ed606a6411e42e2a1215e3ebade5ea40480f222a168cf",
      "transactionType": "CALL",
      "contractName": null,
      "contractAddress": "0x8b31ea83776e31fc3d21e13594be1e1978db0d66",
      "function": "setExternalProvider(address)",
      "arguments": [
        "0xabcdE369CDdD1665E4EbD9214b8e9a595271272C"
      ],
      "transaction": {
        "from": "0x56fd3f2bee130e9867942d0f463a16fbe49b8d81",
        "to": "0x8b31ea83776e31fc3d21e13594be1e1978db0d66",
        "gas": "0x8d36",
        "value": "0x0",
        "input": "0xe3ac8226000000000000000000000000abcde369cddd1665e4ebd9214b8e9a595271272c",
        "nonce": "0x15a",
        "chainId": "0x279f"
      },
      "additionalContracts": [],
      "isFixedGasLimit": false
    },
    {
      "hash": "0x6e70bf23549eea012ac5028491a375127df3178b5068a2b167691f35392c534c",
      "transactionType": "CALL",
      "contractName": null,
      "contractAddress": "0xfb4caf2ce0488f955aaddd4272bedbffc0ac303a",
      "function": "setExternalProvider(address)",
      "arguments": [
        "0xabcdE369CDdD1665E4EbD9214b8e9a595271272C"
      ],
      "transaction": {
        "from": "0x56fd3f2bee130e9867942d0f463a16fbe49b8d81",
        "to": "0xfb4caf2ce0488f955aaddd4272bedbffc0ac303a",
        "gas": "0x8d36",
        "value": "0x0",
        "input": "0xe3ac8226000000000000000000000000abcde369cddd1665e4ebd9214b8e9a595271272c",
        "nonce": "0x15b",
        "chainId": "0x279f"
      },
      "additionalContracts": [],
      "isFixedGasLimit": false
    },
    {
      "hash": "0x38d61bee9d06967471bfe18cb12553f32fe1c0c846d92919bde8df58ce66b68d",
      "transactionType": "CALL",
      "contractName": null,
      "contractAddress": "0x55054ac67c8f1894ecef32e5d5e71a2204f42879",
      "function": "setExternalProvider(address)",
      "arguments": [
        "0xabcdE369CDdD1665E4EbD9214b8e9a595271272C"
      ],
      "transaction": {
        "from": "0x56fd3f2bee130e9867942d0f463a16fbe49b8d81",
        "to": "0x55054ac67c8f1894ecef32e5d5e71a2204f42879",
        "gas": "0x8d36",
        "value": "0x0",
        "input": "0xe3ac8226000000000000000000000000abcde369cddd1665e4ebd9214b8e9a595271272c",
        "nonce": "0x15c",
        "chainId": "0x279f"
      },
      "additionalContracts": [],
      "isFixedGasLimit": false
    },
    {
      "hash": "0x5ff198570a3d48ece311630ca541c6e9ee0a718d56fa9e9a28e5d92b2c4f3a05",
      "transactionType": "CALL",
      "contractName": "MockChainlinkAggregator",
      "contractAddress": "0x4dd4617060621e386df45b47c4cc2a1cf9dbd456",
      "function": "setExternalProvider(address)",
      "arguments": [
        "0xabcdE369CDdD1665E4EbD9214b8e9a595271272C"
      ],
      "transaction": {
        "from": "0x56fd3f2bee130e9867942d0f463a16fbe49b8d81",
        "to": "0x4dd4617060621e386df45b47c4cc2a1cf9dbd456",
        "gas": "0x8d36",
        "value": "0x0",
        "input": "0xe3ac8226000000000000000000000000abcde369cddd1665e4ebd9214b8e9a595271272c",
        "nonce": "0x15d",
        "chainId": "0x279f"
      },
      "additionalContracts": [],
      "isFixedGasLimit": false
    },
    {
      "hash": "0x86fd2b64844f8666ed63da653b79dc79f2e4d07b144bd601b4ed746703ebea95",
      "transactionType": "CALL",
      "contractName": "MockChainlinkAggregator",
      "contractAddress": "0x48b6bec66a57640f1d3957efb74e77a2ade70d31",
      "function": "setExternalProvider(address)",
      "arguments": [
        "0xabcdE369CDdD1665E4EbD9214b8e9a595271272C"
      ],
      "transaction": {
        "from": "0x56fd3f2bee130e9867942d0f463a16fbe49b8d81",
        "to": "0x48b6bec66a57640f1d3957efb74e77a2ade70d31",
        "gas": "0x8d36",
        "value": "0x0",
        "input": "0xe3ac8226000000000000000000000000abcde369cddd1665e4ebd9214b8e9a595271272c",
        "nonce": "0x15e",
        "chainId": "0x279f"
      },
      "additionalContracts": [],
      "isFixedGasLimit": false
    },
    {
      "hash": "0x4fda86e658f721f099f7a218a11a8f6577870b957791997f1ca4bd4900966b5b",
      "transactionType": "CALL",
      "contractName": "MockChainlinkAggregator",
      "contractAddress": "0x6bcc89071b3ee0b2927b6a6597b3add6379cc5f2",
      "function": "setExternalProvider(address)",
      "arguments": [
        "0xabcdE369CDdD1665E4EbD9214b8e9a595271272C"
      ],
      "transaction": {
        "from": "0x56fd3f2bee130e9867942d0f463a16fbe49b8d81",
        "to": "0x6bcc89071b3ee0b2927b6a6597b3add6379cc5f2",
        "gas": "0x8d36",
        "value": "0x0",
        "input": "0xe3ac8226000000000000000000000000abcde369cddd1665e4ebd9214b8e9a595271272c",
        "nonce": "0x15f",
        "chainId": "0x279f"
      },
      "additionalContracts": [],
      "isFixedGasLimit": false
    },
    {
      "hash": "0x30255bf280615869a69c392f75fa72fb019eaa72e05c7f8046f26b1d7063d289",
      "transactionType": "CALL",
      "contractName": "MockChainlinkAggregator",
      "contractAddress": "0xe202ed51731c182bfc189c8d0017977fffefd8bc",
      "function": "setExternalProvider(address)",
      "arguments": [
        "0xabcdE369CDdD1665E4EbD9214b8e9a595271272C"
      ],
      "transaction": {
        "from": "0x56fd3f2bee130e9867942d0f463a16fbe49b8d81",
        "to": "0xe202ed51731c182bfc189c8d0017977fffefd8bc",
        "gas": "0x8d36",
        "value": "0x0",
        "input": "0xe3ac8226000000000000000000000000abcde369cddd1665e4ebd9214b8e9a595271272c",
        "nonce": "0x160",
        "chainId": "0x279f"
      },
      "additionalContracts": [],
      "isFixedGasLimit": false
    },
    {
      "hash": "0x5d7249b63f83c3b32fb11df2b38dc9ee99dc521e3c6c06e5981944bf3b5ad105",
      "transactionType": "CALL",
      "contractName": "MockChainlinkAggregator",
      "contractAddress": "0x3a2f88440fcf8c86c2e81025d99048f33b090f2e",
      "function": "setExternalProvider(address)",
      "arguments": [
        "0xabcdE369CDdD1665E4EbD9214b8e9a595271272C"
      ],
      "transaction": {
        "from": "0x56fd3f2bee130e9867942d0f463a16fbe49b8d81",
        "to": "0x3a2f88440fcf8c86c2e81025d99048f33b090f2e",
        "gas": "0x8d36",
        "value": "0x0",
        "input": "0xe3ac8226000000000000000000000000abcde369cddd1665e4ebd9214b8e9a595271272c",
        "nonce": "0x161",
        "chainId": "0x279f"
      },
      "additionalContracts": [],
      "isFixedGasLimit": false
    }
  ],
  "receipts": [
    {
      "status": "0x1",
      "cumulativeGasUsed": "0x13c963f",
      "logs": [],
      "logsBloom": "0x00000000000000000000000000000000000000000000000000000000000000000000000000000000000000000000000000000000000000000000000000000000000000000000000000000000000000000000000000000000000000000000000000000000000000000000000000000000000000000000000000000000000000000000000000000000000000000000000000000000000000000000000000000000000000000000000000000000000000000000000000000000000000000000000000000000000000000000000000000000000000000000000000000000000000000000000000000000000000000000000000000000000000000000000000000000",
      "type": "0x2",
      "transactionHash": "0x8bb888ed5513997dcabfb1d0f734383e0d8eca56360ee640a1ef2cbbec3973c1",
      "transactionIndex": "0x5a",
      "blockHash": "0xcf1b66744beb07f2dfecbcd2fe3cf860bbaafefb862395091de249f1fbbe0c64",
      "blockNumber": "0x2264fa3",
      "gasUsed": "0x8d36",
      "effectiveGasPrice": "0xba43b7401",
      "from": "0x56fd3f2bee130e9867942d0f463a16fbe49b8d81",
      "to": "0x02cad821a8ab80a417d682d38a4784ef7887711d",
      "contractAddress": null
    },
    {
      "status": "0x1",
      "cumulativeGasUsed": "0x13d2375",
      "logs": [],
      "logsBloom": "0x00000000000000000000000000000000000000000000000000000000000000000000000000000000000000000000000000000000000000000000000000000000000000000000000000000000000000000000000000000000000000000000000000000000000000000000000000000000000000000000000000000000000000000000000000000000000000000000000000000000000000000000000000000000000000000000000000000000000000000000000000000000000000000000000000000000000000000000000000000000000000000000000000000000000000000000000000000000000000000000000000000000000000000000000000000000",
      "type": "0x2",
      "transactionHash": "0xd10d1ccb3eb21add82a3dd3fc2f92668d7a12baa103fce2992601482325b6525",
      "transactionIndex": "0x5b",
      "blockHash": "0xcf1b66744beb07f2dfecbcd2fe3cf860bbaafefb862395091de249f1fbbe0c64",
      "blockNumber": "0x2264fa3",
      "gasUsed": "0x8d36",
      "effectiveGasPrice": "0xba43b7401",
      "from": "0x56fd3f2bee130e9867942d0f463a16fbe49b8d81",
      "to": "0xc51c67ade4c6a37daa31eac104417705dfc810da",
      "contractAddress": null
    },
    {
      "status": "0x1",
      "cumulativeGasUsed": "0x13db0ab",
      "logs": [],
      "logsBloom": "0x00000000000000000000000000000000000000000000000000000000000000000000000000000000000000000000000000000000000000000000000000000000000000000000000000000000000000000000000000000000000000000000000000000000000000000000000000000000000000000000000000000000000000000000000000000000000000000000000000000000000000000000000000000000000000000000000000000000000000000000000000000000000000000000000000000000000000000000000000000000000000000000000000000000000000000000000000000000000000000000000000000000000000000000000000000000",
      "type": "0x2",
      "transactionHash": "0x1757230f50e506e78dcf6d3b413071edd480d116bc4bd6ab2d98446027bdc681",
      "transactionIndex": "0x5c",
      "blockHash": "0xcf1b66744beb07f2dfecbcd2fe3cf860bbaafefb862395091de249f1fbbe0c64",
      "blockNumber": "0x2264fa3",
      "gasUsed": "0x8d36",
      "effectiveGasPrice": "0xba43b7401",
      "from": "0x56fd3f2bee130e9867942d0f463a16fbe49b8d81",
      "to": "0x366609f8445b2b33d1e8a592e18eaaff89e8bedb",
      "contractAddress": null
    },
    {
      "status": "0x1",
      "cumulativeGasUsed": "0x13e3de1",
      "logs": [],
      "logsBloom": "0x00000000000000000000000000000000000000000000000000000000000000000000000000000000000000000000000000000000000000000000000000000000000000000000000000000000000000000000000000000000000000000000000000000000000000000000000000000000000000000000000000000000000000000000000000000000000000000000000000000000000000000000000000000000000000000000000000000000000000000000000000000000000000000000000000000000000000000000000000000000000000000000000000000000000000000000000000000000000000000000000000000000000000000000000000000000",
      "type": "0x2",
      "transactionHash": "0x5384b14f4f98e4cf4da4cedd8c8b9c947b64ddc685ec3bdea26dbc130c9e1913",
      "transactionIndex": "0x5d",
      "blockHash": "0xcf1b66744beb07f2dfecbcd2fe3cf860bbaafefb862395091de249f1fbbe0c64",
      "blockNumber": "0x2264fa3",
      "gasUsed": "0x8d36",
      "effectiveGasPrice": "0xba43b7401",
      "from": "0x56fd3f2bee130e9867942d0f463a16fbe49b8d81",
      "to": "0x17117be87ae0bccb6b0923d096a20042185d8bc8",
      "contractAddress": null
    },
    {
      "status": "0x1",
      "cumulativeGasUsed": "0x13ecb17",
      "logs": [],
      "logsBloom": "0x00000000000000000000000000000000000000000000000000000000000000000000000000000000000000000000000000000000000000000000000000000000000000000000000000000000000000000000000000000000000000000000000000000000000000000000000000000000000000000000000000000000000000000000000000000000000000000000000000000000000000000000000000000000000000000000000000000000000000000000000000000000000000000000000000000000000000000000000000000000000000000000000000000000000000000000000000000000000000000000000000000000000000000000000000000000",
      "type": "0x2",
      "transactionHash": "0x9c1792d7a8d65504904c9172b8bb2802165d178562668fcb204a80f2f8aa0cc7",
      "transactionIndex": "0x5e",
      "blockHash": "0xcf1b66744beb07f2dfecbcd2fe3cf860bbaafefb862395091de249f1fbbe0c64",
      "blockNumber": "0x2264fa3",
      "gasUsed": "0x8d36",
      "effectiveGasPrice": "0xba43b7401",
      "from": "0x56fd3f2bee130e9867942d0f463a16fbe49b8d81",
      "to": "0x6f9b5465802afde16934ece2462955bce857e365",
      "contractAddress": null
    },
    {
      "status": "0x1",
      "cumulativeGasUsed": "0x13f584d",
      "logs": [],
      "logsBloom": "0x00000000000000000000000000000000000000000000000000000000000000000000000000000000000000000000000000000000000000000000000000000000000000000000000000000000000000000000000000000000000000000000000000000000000000000000000000000000000000000000000000000000000000000000000000000000000000000000000000000000000000000000000000000000000000000000000000000000000000000000000000000000000000000000000000000000000000000000000000000000000000000000000000000000000000000000000000000000000000000000000000000000000000000000000000000000",
      "type": "0x2",
      "transactionHash": "0xd90f76acdffe606af4542938005bfd7bf591a16efc40427fff694bc397a93f22",
      "transactionIndex": "0x5f",
      "blockHash": "0xcf1b66744beb07f2dfecbcd2fe3cf860bbaafefb862395091de249f1fbbe0c64",
      "blockNumber": "0x2264fa3",
      "gasUsed": "0x8d36",
      "effectiveGasPrice": "0xba43b7401",
      "from": "0x56fd3f2bee130e9867942d0f463a16fbe49b8d81",
      "to": "0xf48d1fe1754a918d0b91113298b5f3fbb9025060",
      "contractAddress": null
    },
    {
      "status": "0x1",
      "cumulativeGasUsed": "0x13fe583",
      "logs": [],
      "logsBloom": "0x00000000000000000000000000000000000000000000000000000000000000000000000000000000000000000000000000000000000000000000000000000000000000000000000000000000000000000000000000000000000000000000000000000000000000000000000000000000000000000000000000000000000000000000000000000000000000000000000000000000000000000000000000000000000000000000000000000000000000000000000000000000000000000000000000000000000000000000000000000000000000000000000000000000000000000000000000000000000000000000000000000000000000000000000000000000",
      "type": "0x2",
      "transactionHash": "0x0df01abb8e494ffe7732252b432ebc095942ae39b390a79f191c06109d808db0",
      "transactionIndex": "0x60",
      "blockHash": "0xcf1b66744beb07f2dfecbcd2fe3cf860bbaafefb862395091de249f1fbbe0c64",
      "blockNumber": "0x2264fa3",
      "gasUsed": "0x8d36",
      "effectiveGasPrice": "0xba43b7401",
      "from": "0x56fd3f2bee130e9867942d0f463a16fbe49b8d81",
      "to": "0x9b9fe8a5e206047fc442a46ea78d1a55ef9040f4",
      "contractAddress": null
    },
    {
      "status": "0x1",
      "cumulativeGasUsed": "0x14072b9",
      "logs": [],
      "logsBloom": "0x00000000000000000000000000000000000000000000000000000000000000000000000000000000000000000000000000000000000000000000000000000000000000000000000000000000000000000000000000000000000000000000000000000000000000000000000000000000000000000000000000000000000000000000000000000000000000000000000000000000000000000000000000000000000000000000000000000000000000000000000000000000000000000000000000000000000000000000000000000000000000000000000000000000000000000000000000000000000000000000000000000000000000000000000000000000",
      "type": "0x2",
      "transactionHash": "0xb20356a3641187fe97f781f7e42745ccb3476c6aeeded81f7363a53a798ce96f",
      "transactionIndex": "0x61",
      "blockHash": "0xcf1b66744beb07f2dfecbcd2fe3cf860bbaafefb862395091de249f1fbbe0c64",
      "blockNumber": "0x2264fa3",
      "gasUsed": "0x8d36",
      "effectiveGasPrice": "0xba43b7401",
      "from": "0x56fd3f2bee130e9867942d0f463a16fbe49b8d81",
      "to": "0x6c3c523f4460f7658eccccfd39c76437ad19d742",
      "contractAddress": null
    },
    {
      "status": "0x1",
      "cumulativeGasUsed": "0x140ffef",
      "logs": [],
      "logsBloom": "0x00000000000000000000000000000000000000000000000000000000000000000000000000000000000000000000000000000000000000000000000000000000000000000000000000000000000000000000000000000000000000000000000000000000000000000000000000000000000000000000000000000000000000000000000000000000000000000000000000000000000000000000000000000000000000000000000000000000000000000000000000000000000000000000000000000000000000000000000000000000000000000000000000000000000000000000000000000000000000000000000000000000000000000000000000000000",
      "type": "0x2",
      "transactionHash": "0x5ae4bf68454b670f6c0b86e567ee00f29d67c93b77952c9c13b24a58d0be3c89",
      "transactionIndex": "0x62",
      "blockHash": "0xcf1b66744beb07f2dfecbcd2fe3cf860bbaafefb862395091de249f1fbbe0c64",
      "blockNumber": "0x2264fa3",
      "gasUsed": "0x8d36",
      "effectiveGasPrice": "0xba43b7401",
      "from": "0x56fd3f2bee130e9867942d0f463a16fbe49b8d81",
      "to": "0xbed53c78968e50899bfb42b9edff8cccba3b85fb",
      "contractAddress": null
    },
    {
      "status": "0x1",
      "cumulativeGasUsed": "0x1418d25",
      "logs": [],
      "logsBloom": "0x00000000000000000000000000000000000000000000000000000000000000000000000000000000000000000000000000000000000000000000000000000000000000000000000000000000000000000000000000000000000000000000000000000000000000000000000000000000000000000000000000000000000000000000000000000000000000000000000000000000000000000000000000000000000000000000000000000000000000000000000000000000000000000000000000000000000000000000000000000000000000000000000000000000000000000000000000000000000000000000000000000000000000000000000000000000",
      "type": "0x2",
      "transactionHash": "0xc89c65f9c8d026d7262ed606a6411e42e2a1215e3ebade5ea40480f222a168cf",
      "transactionIndex": "0x63",
      "blockHash": "0xcf1b66744beb07f2dfecbcd2fe3cf860bbaafefb862395091de249f1fbbe0c64",
      "blockNumber": "0x2264fa3",
      "gasUsed": "0x8d36",
      "effectiveGasPrice": "0xba43b7401",
      "from": "0x56fd3f2bee130e9867942d0f463a16fbe49b8d81",
      "to": "0x8b31ea83776e31fc3d21e13594be1e1978db0d66",
      "contractAddress": null
    },
    {
      "status": "0x1",
      "cumulativeGasUsed": "0x1421a5b",
      "logs": [],
      "logsBloom": "0x00000000000000000000000000000000000000000000000000000000000000000000000000000000000000000000000000000000000000000000000000000000000000000000000000000000000000000000000000000000000000000000000000000000000000000000000000000000000000000000000000000000000000000000000000000000000000000000000000000000000000000000000000000000000000000000000000000000000000000000000000000000000000000000000000000000000000000000000000000000000000000000000000000000000000000000000000000000000000000000000000000000000000000000000000000000",
      "type": "0x2",
      "transactionHash": "0x6e70bf23549eea012ac5028491a375127df3178b5068a2b167691f35392c534c",
      "transactionIndex": "0x64",
      "blockHash": "0xcf1b66744beb07f2dfecbcd2fe3cf860bbaafefb862395091de249f1fbbe0c64",
      "blockNumber": "0x2264fa3",
      "gasUsed": "0x8d36",
      "effectiveGasPrice": "0xba43b7401",
      "from": "0x56fd3f2bee130e9867942d0f463a16fbe49b8d81",
      "to": "0xfb4caf2ce0488f955aaddd4272bedbffc0ac303a",
      "contractAddress": null
    },
    {
      "status": "0x1",
      "cumulativeGasUsed": "0x142a791",
      "logs": [],
      "logsBloom": "0x00000000000000000000000000000000000000000000000000000000000000000000000000000000000000000000000000000000000000000000000000000000000000000000000000000000000000000000000000000000000000000000000000000000000000000000000000000000000000000000000000000000000000000000000000000000000000000000000000000000000000000000000000000000000000000000000000000000000000000000000000000000000000000000000000000000000000000000000000000000000000000000000000000000000000000000000000000000000000000000000000000000000000000000000000000000",
      "type": "0x2",
      "transactionHash": "0x38d61bee9d06967471bfe18cb12553f32fe1c0c846d92919bde8df58ce66b68d",
      "transactionIndex": "0x65",
      "blockHash": "0xcf1b66744beb07f2dfecbcd2fe3cf860bbaafefb862395091de249f1fbbe0c64",
      "blockNumber": "0x2264fa3",
      "gasUsed": "0x8d36",
      "effectiveGasPrice": "0xba43b7401",
      "from": "0x56fd3f2bee130e9867942d0f463a16fbe49b8d81",
      "to": "0x55054ac67c8f1894ecef32e5d5e71a2204f42879",
      "contractAddress": null
    },
    {
      "status": "0x1",
      "cumulativeGasUsed": "0x14334c7",
      "logs": [],
      "logsBloom": "0x00000000000000000000000000000000000000000000000000000000000000000000000000000000000000000000000000000000000000000000000000000000000000000000000000000000000000000000000000000000000000000000000000000000000000000000000000000000000000000000000000000000000000000000000000000000000000000000000000000000000000000000000000000000000000000000000000000000000000000000000000000000000000000000000000000000000000000000000000000000000000000000000000000000000000000000000000000000000000000000000000000000000000000000000000000000",
      "type": "0x2",
      "transactionHash": "0x5ff198570a3d48ece311630ca541c6e9ee0a718d56fa9e9a28e5d92b2c4f3a05",
      "transactionIndex": "0x66",
      "blockHash": "0xcf1b66744beb07f2dfecbcd2fe3cf860bbaafefb862395091de249f1fbbe0c64",
      "blockNumber": "0x2264fa3",
      "gasUsed": "0x8d36",
      "effectiveGasPrice": "0xba43b7401",
      "from": "0x56fd3f2bee130e9867942d0f463a16fbe49b8d81",
      "to": "0x4dd4617060621e386df45b47c4cc2a1cf9dbd456",
      "contractAddress": null
    },
    {
      "status": "0x1",
      "cumulativeGasUsed": "0x143c1fd",
      "logs": [],
      "logsBloom": "0x00000000000000000000000000000000000000000000000000000000000000000000000000000000000000000000000000000000000000000000000000000000000000000000000000000000000000000000000000000000000000000000000000000000000000000000000000000000000000000000000000000000000000000000000000000000000000000000000000000000000000000000000000000000000000000000000000000000000000000000000000000000000000000000000000000000000000000000000000000000000000000000000000000000000000000000000000000000000000000000000000000000000000000000000000000000",
      "type": "0x2",
      "transactionHash": "0x86fd2b64844f8666ed63da653b79dc79f2e4d07b144bd601b4ed746703ebea95",
      "transactionIndex": "0x67",
      "blockHash": "0xcf1b66744beb07f2dfecbcd2fe3cf860bbaafefb862395091de249f1fbbe0c64",
      "blockNumber": "0x2264fa3",
      "gasUsed": "0x8d36",
      "effectiveGasPrice": "0xba43b7401",
      "from": "0x56fd3f2bee130e9867942d0f463a16fbe49b8d81",
      "to": "0x48b6bec66a57640f1d3957efb74e77a2ade70d31",
      "contractAddress": null
    },
    {
      "status": "0x1",
      "cumulativeGasUsed": "0x1444f33",
      "logs": [],
      "logsBloom": "0x00000000000000000000000000000000000000000000000000000000000000000000000000000000000000000000000000000000000000000000000000000000000000000000000000000000000000000000000000000000000000000000000000000000000000000000000000000000000000000000000000000000000000000000000000000000000000000000000000000000000000000000000000000000000000000000000000000000000000000000000000000000000000000000000000000000000000000000000000000000000000000000000000000000000000000000000000000000000000000000000000000000000000000000000000000000",
      "type": "0x2",
      "transactionHash": "0x4fda86e658f721f099f7a218a11a8f6577870b957791997f1ca4bd4900966b5b",
      "transactionIndex": "0x68",
      "blockHash": "0xcf1b66744beb07f2dfecbcd2fe3cf860bbaafefb862395091de249f1fbbe0c64",
      "blockNumber": "0x2264fa3",
      "gasUsed": "0x8d36",
      "effectiveGasPrice": "0xba43b7401",
      "from": "0x56fd3f2bee130e9867942d0f463a16fbe49b8d81",
      "to": "0x6bcc89071b3ee0b2927b6a6597b3add6379cc5f2",
      "contractAddress": null
    },
    {
      "status": "0x1",
      "cumulativeGasUsed": "0x144dc69",
      "logs": [],
      "logsBloom": "0x00000000000000000000000000000000000000000000000000000000000000000000000000000000000000000000000000000000000000000000000000000000000000000000000000000000000000000000000000000000000000000000000000000000000000000000000000000000000000000000000000000000000000000000000000000000000000000000000000000000000000000000000000000000000000000000000000000000000000000000000000000000000000000000000000000000000000000000000000000000000000000000000000000000000000000000000000000000000000000000000000000000000000000000000000000000",
      "type": "0x2",
      "transactionHash": "0x30255bf280615869a69c392f75fa72fb019eaa72e05c7f8046f26b1d7063d289",
      "transactionIndex": "0x69",
      "blockHash": "0xcf1b66744beb07f2dfecbcd2fe3cf860bbaafefb862395091de249f1fbbe0c64",
      "blockNumber": "0x2264fa3",
      "gasUsed": "0x8d36",
      "effectiveGasPrice": "0xba43b7401",
      "from": "0x56fd3f2bee130e9867942d0f463a16fbe49b8d81",
      "to": "0xe202ed51731c182bfc189c8d0017977fffefd8bc",
      "contractAddress": null
    },
    {
      "status": "0x1",
      "cumulativeGasUsed": "0x145699f",
      "logs": [],
      "logsBloom": "0x00000000000000000000000000000000000000000000000000000000000000000000000000000000000000000000000000000000000000000000000000000000000000000000000000000000000000000000000000000000000000000000000000000000000000000000000000000000000000000000000000000000000000000000000000000000000000000000000000000000000000000000000000000000000000000000000000000000000000000000000000000000000000000000000000000000000000000000000000000000000000000000000000000000000000000000000000000000000000000000000000000000000000000000000000000000",
      "type": "0x2",
      "transactionHash": "0x5d7249b63f83c3b32fb11df2b38dc9ee99dc521e3c6c06e5981944bf3b5ad105",
      "transactionIndex": "0x6a",
      "blockHash": "0xcf1b66744beb07f2dfecbcd2fe3cf860bbaafefb862395091de249f1fbbe0c64",
      "blockNumber": "0x2264fa3",
      "gasUsed": "0x8d36",
      "effectiveGasPrice": "0xba43b7401",
      "from": "0x56fd3f2bee130e9867942d0f463a16fbe49b8d81",
      "to": "0x3a2f88440fcf8c86c2e81025d99048f33b090f2e",
      "contractAddress": null
    }
  ],
  "libraries": [
    "node_modules/@celo/contracts/common/linkedlists/AddressSortedLinkedListWithMedian.sol:AddressSortedLinkedListWithMedian:0xcB985Be7a200D0075155AC2697D6D5F00267a11b"
  ],
  "pending": [],
  "returns": {},
  "timestamp": 1757416937517,
  "chain": 10143,
  "commit": "cf21763"
}