{
  "transactions": [
    {
      "hash": "0xf9c88db3732f74720b4a8815f5395ac114591154c1793abf7f2b6bd78a7b9386",
      "transactionType": "CALL",
      "contractName": null,
      "contractAddress": "0x601566fd7d319d14daee362e15c2e8c3e5d3ef92",
      "function": "setExternalProvider(address)",
      "arguments": [
        "0xbF111982C39b661D1Cbc1621EB1450694Fae1D3f"
      ],
      "transaction": {
        "from": "0x2738f38fde510743e0c589415e0598c4cee6eaa7",
        "to": "0x601566fd7d319d14daee362e15c2e8c3e5d3ef92",
        "gas": "0xd1ea",
        "value": "0x0",
        "input": "0xe3ac8226000000000000000000000000bf111982c39b661d1cbc1621eb1450694fae1d3f",
        "nonce": "0x11b",
        "chainId": "0x279f"
      },
      "additionalContracts": [],
      "isFixedGasLimit": false
    },
    {
      "hash": "0x7cf3e37c7cb3be9ad5ebdafa25930d0b589ae48fbc7e88b440646598728e2bda",
      "transactionType": "CALL",
      "contractName": null,
      "contractAddress": "0x904bc5586697ef66b8b3c3189a8f059a4bd4f071",
      "function": "setExternalProvider(address)",
      "arguments": [
        "0xbF111982C39b661D1Cbc1621EB1450694Fae1D3f"
      ],
      "transaction": {
        "from": "0x2738f38fde510743e0c589415e0598c4cee6eaa7",
        "to": "0x904bc5586697ef66b8b3c3189a8f059a4bd4f071",
        "gas": "0xd1ea",
        "value": "0x0",
        "input": "0xe3ac8226000000000000000000000000bf111982c39b661d1cbc1621eb1450694fae1d3f",
        "nonce": "0x11c",
        "chainId": "0x279f"
      },
      "additionalContracts": [],
      "isFixedGasLimit": false
    }
  ],
  "receipts": [
    {
      "type": "0x2",
      "status": "0x1",
      "cumulativeGasUsed": "0x441e8",
      "logs": [],
      "logsBloom": "0x00000000000000000000000000000000000000000000000000000000000000000000000000000000000000000000000000000000000000000000000000000000000000000000000000000000000000000000000000000000000000000000000000000000000000000000000000000000000000000000000000000000000000000000000000000000000000000000000000000000000000000000000000000000000000000000000000000000000000000000000000000000000000000000000000000000000000000000000000000000000000000000000000000000000000000000000000000000000000000000000000000000000000000000000000000000",
      "transactionHash": "0xf9c88db3732f74720b4a8815f5395ac114591154c1793abf7f2b6bd78a7b9386",
      "transactionIndex": "0x2",
      "blockHash": "0xe8a833773880b0202d6282a865390654f247cf2ae788f068f82d930c9e5c6cda",
      "blockNumber": "0x13f4567",
      "gasUsed": "0xd1ea",
      "effectiveGasPrice": "0x1c7f9bc7ff",
      "from": "0x2738f38fde510743e0c589415e0598c4cee6eaa7",
      "to": "0x601566fd7d319d14daee362e15c2e8c3e5d3ef92",
      "contractAddress": null
    },
    {
      "type": "0x2",
      "status": "0x1",
      "cumulativeGasUsed": "0x4412b",
      "logs": [],
      "logsBloom": "0x00000000000000000000000000000000000000000000000000000000000000000000000000000000000000000000000000000000000000000000000000000000000000000000000000000000000000000000000000000000000000000000000000000000000000000000000000000000000000000000000000000000000000000000000000000000000000000000000000000000000000000000000000000000000000000000000000000000000000000000000000000000000000000000000000000000000000000000000000000000000000000000000000000000000000000000000000000000000000000000000000000000000000000000000000000000",
      "transactionHash": "0x7cf3e37c7cb3be9ad5ebdafa25930d0b589ae48fbc7e88b440646598728e2bda",
      "transactionIndex": "0x2",
      "blockHash": "0x555fa8823343a54d1ced40c40006e1ee3b33a0ffcbb74c59d58cfaa4ebf02f28",
      "blockNumber": "0x13f4568",
      "gasUsed": "0xd1ea",
      "effectiveGasPrice": "0x1c7f9bc7ff",
      "from": "0x2738f38fde510743e0c589415e0598c4cee6eaa7",
      "to": "0x904bc5586697ef66b8b3c3189a8f059a4bd4f071",
      "contractAddress": null
    }
  ],
  "libraries": [
    "lib/mento-core/node_modules/@celo/contracts/common/linkedlists/AddressSortedLinkedListWithMedian.sol:AddressSortedLinkedListWithMedian:0x8E1B1312EC92C9f8073296c4Cf1E60D31d228269"
  ],
  "pending": [],
  "returns": {},
  "timestamp": 1774365687747,
  "chain": 10143,
  "commit": "b3ec520"
}