{
  "transactions": [
    {
      "hash": "0x4aa76b1df2eeae547e2a51793bc9b32bc6bf21cd485ba0cb0d0ad1f7b3bf0ec5",
      "transactionType": "CALL",
      "contractName": null,
      "contractAddress": "0x32cb58b145d3f7e28c45ce4b2cc31fa94248b23f",
      "function": "execTransaction(address,uint256,bytes,uint8,uint256,uint256,uint256,address,address,bytes)",
      "arguments": [
        "0xba5Ed099633D3B313e4D5F7bdc1305d3c28ba5Ed",
        "0",
        "0x9c36a28632cb58b145d3f7e28c45ce4b2cc31fa94248b23f0091a5c814b5fccaf0aef1fe000000000000000000000000000000000000000000000000000000000000004000000000000000000000000000000000000000000000000000000000000009e6608060405234801561000f575f5ffd5b506040516109c63803806109c6833981810160405281019061003191906101d7565b805f73ffffffffffffffffffffffffffffffffffffffff168173ffffffffffffffffffffffffffffffffffffffff16036100a2575f6040517f1e4fbdf70000000000000000000000000000000000000000000000000000000081526004016100999190610211565b60405180910390fd5b6100b1816100b860201b60201c565b505061022a565b5f5f5f9054906101000a900473ffffffffffffffffffffffffffffffffffffffff169050815f5f6101000a81548173ffffffffffffffffffffffffffffffffffffffff021916908373ffffffffffffffffffffffffffffffffffffffff1602179055508173ffffffffffffffffffffffffffffffffffffffff168173ffffffffffffffffffffffffffffffffffffffff167f8be0079c531659141344cd1fd0a4f28419497f9722a3daafe3b4186f6b6457e060405160405180910390a35050565b5f5ffd5b5f73ffffffffffffffffffffffffffffffffffffffff82169050919050565b5f6101a68261017d565b9050919050565b6101b68161019c565b81146101c0575f5ffd5b50565b5f815190506101d1816101ad565b92915050565b5f602082840312156101ec576101eb610179565b5b5f6101f9848285016101c3565b91505092915050565b61020b8161019c565b82525050565b5f6020820190506102245f830184610202565b92915050565b61078f806102375f395ff3fe608060405260043610610049575f3560e01c8063715018a61461004d5780638da5cb5b146100635780639623609d1461008d578063ad3cb1cc146100a9578063f2fde38b146100d3575b5f5ffd5b348015610058575f5ffd5b506100616100fb565b005b34801561006e575f5ffd5b5061007761010e565b60405161008491906103f7565b60405180910390f35b6100a760048036038101906100a291906105c2565b610135565b005b3480156100b4575f5ffd5b506100bd6101ac565b6040516100ca919061068e565b60405180910390f35b3480156100de575f5ffd5b506100f960048036038101906100f491906106ae565b6101e5565b005b610103610269565b61010c5f6102f0565b565b5f5f5f9054906101000a900473ffffffffffffffffffffffffffffffffffffffff16905090565b61013d610269565b8273ffffffffffffffffffffffffffffffffffffffff16634f1ef2863484846040518463ffffffff1660e01b815260040161017992919061072b565b5f604051808303818588803b158015610190575f5ffd5b505af11580156101a2573d5f5f3e3d5ffd5b5050505050505050565b6040518060400160405280600581526020017f352e302e3000000000000000000000000000000000000000000000000000000081525081565b6101ed610269565b5f73ffffffffffffffffffffffffffffffffffffffff168173ffffffffffffffffffffffffffffffffffffffff160361025d575f6040517f1e4fbdf700000000000000000000000000000000000000000000000000000000815260040161025491906103f7565b60405180910390fd5b610266816102f0565b50565b6102716103b1565b73ffffffffffffffffffffffffffffffffffffffff1661028f61010e565b73ffffffffffffffffffffffffffffffffffffffff16146102ee576102b26103b1565b6040517f118cdaa70000000000000000000000000000000000000000000000000000000081526004016102e591906103f7565b60405180910390fd5b565b5f5f5f9054906101000a900473ffffffffffffffffffffffffffffffffffffffff169050815f5f6101000a81548173ffffffffffffffffffffffffffffffffffffffff021916908373ffffffffffffffffffffffffffffffffffffffff1602179055508173ffffffffffffffffffffffffffffffffffffffff168173ffffffffffffffffffffffffffffffffffffffff167f8be0079c531659141344cd1fd0a4f28419497f9722a3daafe3b4186f6b6457e060405160405180910390a35050565b5f33905090565b5f73ffffffffffffffffffffffffffffffffffffffff82169050919050565b5f6103e1826103b8565b9050919050565b6103f1816103d7565b82525050565b5f60208201905061040a5f8301846103e8565b92915050565b5f604051905090565b5f5ffd5b5f5ffd5b5f61042b826103d7565b9050919050565b61043b81610421565b8114610445575f5ffd5b50565b5f8135905061045681610432565b92915050565b610465816103d7565b811461046f575f5ffd5b50565b5f813590506104808161045c565b92915050565b5f5ffd5b5f5ffd5b5f601f19601f8301169050919050565b7f4e487b71000000000000000000000000000000000000000000000000000000005f52604160045260245ffd5b6104d48261048e565b810181811067ffffffffffffffff821117156104f3576104f261049e565b5b80604052505050565b5f610505610410565b905061051182826104cb565b919050565b5f67ffffffffffffffff8211156105305761052f61049e565b5b6105398261048e565b9050602081019050919050565b828183375f83830152505050565b5f61056661056184610516565b6104fc565b9050828152602081018484840111156105825761058161048a565b5b61058d848285610546565b509392505050565b5f82601f8301126105a9576105a8610486565b5b81356105b9848260208601610554565b91505092915050565b5f5f5f606084860312156105d9576105d8610419565b5b5f6105e686828701610448565b93505060206105f786828701610472565b925050604084013567ffffffffffffffff8111156106185761061761041d565b5b61062486828701610595565b9150509250925092565b5f81519050919050565b5f82825260208201905092915050565b8281835e5f83830152505050565b5f6106608261062e565b61066a8185610638565b935061067a818560208601610648565b6106838161048e565b840191505092915050565b5f6020820190508181035f8301526106a68184610656565b905092915050565b5f602082840312156106c3576106c2610419565b5b5f6106d084828501610472565b91505092915050565b5f81519050919050565b5f82825260208201905092915050565b5f6106fd826106d9565b61070781856106e3565b9350610717818560208601610648565b6107208161048e565b840191505092915050565b5f60408201905061073e5f8301856103e8565b818103602083015261075081846106f3565b9050939250505056fea264697066735822122084b2a27dd03109c37251b91cdb3eec2c9beae379ab73cfe4b4cdb46e2b9f6d5c64736f6c634300081e003300000000000000000000000032cb58b145d3f7e28c45ce4b2cc31fa94248b23f0000000000000000000000000000000000000000000000000000",
        "0",
        "0",
        "0",
        "0",
        "0x0000000000000000000000000000000000000000",
        "0x0000000000000000000000000000000000000000",
        "0x171608ee1346ec5c1455f9c1ded62f79faa0e306cc98c583b262b99fd827daf044b78eff485fe1ae2403651fcee258b4daf798c512b65d848375f670447669401b"
      ],
      "transaction": {
        "from": "0x56fd3f2bee130e9867942d0f463a16fbe49b8d81",
        "to": "0x32cb58b145d3f7e28c45ce4b2cc31fa94248b23f",
        "gas": "0xe07af",
        "value": "0x0",
        "input": "0x6a761202000000000000000000000000ba5ed099633d3b313e4d5f7bdc1305d3c28ba5ed000000000000000000000000000000000000000000000000000000000000000000000000000000000000000000000000000000000000000000000000000001400000000000000000000000000000000000000000000000000000000000000000000000000000000000000000000000000000000000000000000000000000000000000000000000000000000000000000000000000000000000000000000000000000000000000000000000000000000000000000000000000000000000000000000000000000000000000000000000000000000000000000000000000000000000000000000000000000000000000000000000000000000000000000000000000000000000000000000000000000000000000000000000000000000000000be00000000000000000000000000000000000000000000000000000000000000a649c36a28632cb58b145d3f7e28c45ce4b2cc31fa94248b23f0091a5c814b5fccaf0aef1fe000000000000000000000000000000000000000000000000000000000000004000000000000000000000000000000000000000000000000000000000000009e6608060405234801561000f575f5ffd5b506040516109c63803806109c6833981810160405281019061003191906101d7565b805f73ffffffffffffffffffffffffffffffffffffffff168173ffffffffffffffffffffffffffffffffffffffff16036100a2575f6040517f1e4fbdf70000000000000000000000000000000000000000000000000000000081526004016100999190610211565b60405180910390fd5b6100b1816100b860201b60201c565b505061022a565b5f5f5f9054906101000a900473ffffffffffffffffffffffffffffffffffffffff169050815f5f6101000a81548173ffffffffffffffffffffffffffffffffffffffff021916908373ffffffffffffffffffffffffffffffffffffffff1602179055508173ffffffffffffffffffffffffffffffffffffffff168173ffffffffffffffffffffffffffffffffffffffff167f8be0079c531659141344cd1fd0a4f28419497f9722a3daafe3b4186f6b6457e060405160405180910390a35050565b5f5ffd5b5f73ffffffffffffffffffffffffffffffffffffffff82169050919050565b5f6101a68261017d565b9050919050565b6101b68161019c565b81146101c0575f5ffd5b50565b5f815190506101d1816101ad565b92915050565b5f602082840312156101ec576101eb610179565b5b5f6101f9848285016101c3565b91505092915050565b61020b8161019c565b82525050565b5f6020820190506102245f830184610202565b92915050565b61078f806102375f395ff3fe608060405260043610610049575f3560e01c8063715018a61461004d5780638da5cb5b146100635780639623609d1461008d578063ad3cb1cc146100a9578063f2fde38b146100d3575b5f5ffd5b348015610058575f5ffd5b506100616100fb565b005b34801561006e575f5ffd5b5061007761010e565b60405161008491906103f7565b60405180910390f35b6100a760048036038101906100a291906105c2565b610135565b005b3480156100b4575f5ffd5b506100bd6101ac565b6040516100ca919061068e565b60405180910390f35b3480156100de575f5ffd5b506100f960048036038101906100f491906106ae565b6101e5565b005b610103610269565b61010c5f6102f0565b565b5f5f5f9054906101000a900473ffffffffffffffffffffffffffffffffffffffff16905090565b61013d610269565b8273ffffffffffffffffffffffffffffffffffffffff16634f1ef2863484846040518463ffffffff1660e01b815260040161017992919061072b565b5f604051808303818588803b158015610190575f5ffd5b505af11580156101a2573d5f5f3e3d5ffd5b5050505050505050565b6040518060400160405280600581526020017f352e302e3000000000000000000000000000000000000000000000000000000081525081565b6101ed610269565b5f73ffffffffffffffffffffffffffffffffffffffff168173ffffffffffffffffffffffffffffffffffffffff160361025d575f6040517f1e4fbdf700000000000000000000000000000000000000000000000000000000815260040161025491906103f7565b60405180910390fd5b610266816102f0565b50565b6102716103b1565b73ffffffffffffffffffffffffffffffffffffffff1661028f61010e565b73ffffffffffffffffffffffffffffffffffffffff16146102ee576102b26103b1565b6040517f118cdaa70000000000000000000000000000000000000000000000000000000081526004016102e591906103f7565b60405180910390fd5b565b5f5f5f9054906101000a900473ffffffffffffffffffffffffffffffffffffffff169050815f5f6101000a81548173ffffffffffffffffffffffffffffffffffffffff021916908373ffffffffffffffffffffffffffffffffffffffff1602179055508173ffffffffffffffffffffffffffffffffffffffff168173ffffffffffffffffffffffffffffffffffffffff167f8be0079c531659141344cd1fd0a4f28419497f9722a3daafe3b4186f6b6457e060405160405180910390a35050565b5f33905090565b5f73ffffffffffffffffffffffffffffffffffffffff82169050919050565b5f6103e1826103b8565b9050919050565b6103f1816103d7565b82525050565b5f60208201905061040a5f8301846103e8565b92915050565b5f604051905090565b5f5ffd5b5f5ffd5b5f61042b826103d7565b9050919050565b61043b81610421565b8114610445575f5ffd5b50565b5f8135905061045681610432565b92915050565b610465816103d7565b811461046f575f5ffd5b50565b5f813590506104808161045c565b92915050565b5f5ffd5b5f5ffd5b5f601f19601f8301169050919050565b7f4e487b71000000000000000000000000000000000000000000000000000000005f52604160045260245ffd5b6104d48261048e565b810181811067ffffffffffffffff821117156104f3576104f261049e565b5b80604052505050565b5f610505610410565b905061051182826104cb565b919050565b5f67ffffffffffffffff8211156105305761052f61049e565b5b6105398261048e565b9050602081019050919050565b828183375f83830152505050565b5f61056661056184610516565b6104fc565b9050828152602081018484840111156105825761058161048a565b5b61058d848285610546565b509392505050565b5f82601f8301126105a9576105a8610486565b5b81356105b9848260208601610554565b91505092915050565b5f5f5f606084860312156105d9576105d8610419565b5b5f6105e686828701610448565b93505060206105f786828701610472565b925050604084013567ffffffffffffffff8111156106185761061761041d565b5b61062486828701610595565b9150509250925092565b5f81519050919050565b5f82825260208201905092915050565b8281835e5f83830152505050565b5f6106608261062e565b61066a8185610638565b935061067a818560208601610648565b6106838161048e565b840191505092915050565b5f6020820190508181035f8301526106a68184610656565b905092915050565b5f602082840312156106c3576106c2610419565b5b5f6106d084828501610472565b91505092915050565b5f81519050919050565b5f82825260208201905092915050565b5f6106fd826106d9565b61070781856106e3565b9350610717818560208601610648565b6107208161048e565b840191505092915050565b5f60408201905061073e5f8301856103e8565b818103602083015261075081846106f3565b9050939250505056fea264697066735822122084b2a27dd03109c37251b91cdb3eec2c9beae379ab73cfe4b4cdb46e2b9f6d5c64736f6c634300081e003300000000000000000000000032cb58b145d3f7e28c45ce4b2cc31fa94248b23f0000000000000000000000000000000000000000000000000000000000000000000000000000000000000000000000000000000000000000000000000000000000000000000000000000000000000000000000000041171608ee1346ec5c1455f9c1ded62f79faa0e306cc98c583b262b99fd827daf044b78eff485fe1ae2403651fcee258b4daf798c512b65d848375f670447669401b00000000000000000000000000000000000000000000000000000000000000",
        "nonce": "0x1",
        "chainId": "0x2105"
      },
      "additionalContracts": [
        {
          "transactionType": "CREATE2",
          "address": "0x6dddf879f36c1aec146b7957632b25fc5e343973",
          "initCode": "0x67363d3d37363d34f03d5260086018f3"
        },
        {
          "transactionType": "CREATE",
          "address": "0x59c0c91e6b0efecf1453824d28450ca61f3d65b5",
          "initCode": "0x608060405234801561000f575f5ffd5b506040516109c63803806109c6833981810160405281019061003191906101d7565b805f73ffffffffffffffffffffffffffffffffffffffff168173ffffffffffffffffffffffffffffffffffffffff16036100a2575f6040517f1e4fbdf70000000000000000000000000000000000000000000000000000000081526004016100999190610211565b60405180910390fd5b6100b1816100b860201b60201c565b505061022a565b5f5f5f9054906101000a900473ffffffffffffffffffffffffffffffffffffffff169050815f5f6101000a81548173ffffffffffffffffffffffffffffffffffffffff021916908373ffffffffffffffffffffffffffffffffffffffff1602179055508173ffffffffffffffffffffffffffffffffffffffff168173ffffffffffffffffffffffffffffffffffffffff167f8be0079c531659141344cd1fd0a4f28419497f9722a3daafe3b4186f6b6457e060405160405180910390a35050565b5f5ffd5b5f73ffffffffffffffffffffffffffffffffffffffff82169050919050565b5f6101a68261017d565b9050919050565b6101b68161019c565b81146101c0575f5ffd5b50565b5f815190506101d1816101ad565b92915050565b5f602082840312156101ec576101eb610179565b5b5f6101f9848285016101c3565b91505092915050565b61020b8161019c565b82525050565b5f6020820190506102245f830184610202565b92915050565b61078f806102375f395ff3fe608060405260043610610049575f3560e01c8063715018a61461004d5780638da5cb5b146100635780639623609d1461008d578063ad3cb1cc146100a9578063f2fde38b146100d3575b5f5ffd5b348015610058575f5ffd5b506100616100fb565b005b34801561006e575f5ffd5b5061007761010e565b60405161008491906103f7565b60405180910390f35b6100a760048036038101906100a291906105c2565b610135565b005b3480156100b4575f5ffd5b506100bd6101ac565b6040516100ca919061068e565b60405180910390f35b3480156100de575f5ffd5b506100f960048036038101906100f491906106ae565b6101e5565b005b610103610269565b61010c5f6102f0565b565b5f5f5f9054906101000a900473ffffffffffffffffffffffffffffffffffffffff16905090565b61013d610269565b8273ffffffffffffffffffffffffffffffffffffffff16634f1ef2863484846040518463ffffffff1660e01b815260040161017992919061072b565b5f604051808303818588803b158015610190575f5ffd5b505af11580156101a2573d5f5f3e3d5ffd5b5050505050505050565b6040518060400160405280600581526020017f352e302e3000000000000000000000000000000000000000000000000000000081525081565b6101ed610269565b5f73ffffffffffffffffffffffffffffffffffffffff168173ffffffffffffffffffffffffffffffffffffffff160361025d575f6040517f1e4fbdf700000000000000000000000000000000000000000000000000000000815260040161025491906103f7565b60405180910390fd5b610266816102f0565b50565b6102716103b1565b73ffffffffffffffffffffffffffffffffffffffff1661028f61010e565b73ffffffffffffffffffffffffffffffffffffffff16146102ee576102b26103b1565b6040517f118cdaa70000000000000000000000000000000000000000000000000000000081526004016102e591906103f7565b60405180910390fd5b565b5f5f5f9054906101000a900473ffffffffffffffffffffffffffffffffffffffff169050815f5f6101000a81548173ffffffffffffffffffffffffffffffffffffffff021916908373ffffffffffffffffffffffffffffffffffffffff1602179055508173ffffffffffffffffffffffffffffffffffffffff168173ffffffffffffffffffffffffffffffffffffffff167f8be0079c531659141344cd1fd0a4f28419497f9722a3daafe3b4186f6b6457e060405160405180910390a35050565b5f33905090565b5f73ffffffffffffffffffffffffffffffffffffffff82169050919050565b5f6103e1826103b8565b9050919050565b6103f1816103d7565b82525050565b5f60208201905061040a5f8301846103e8565b92915050565b5f604051905090565b5f5ffd5b5f5ffd5b5f61042b826103d7565b9050919050565b61043b81610421565b8114610445575f5ffd5b50565b5f8135905061045681610432565b92915050565b610465816103d7565b811461046f575f5ffd5b50565b5f813590506104808161045c565b92915050565b5f5ffd5b5f5ffd5b5f601f19601f8301169050919050565b7f4e487b71000000000000000000000000000000000000000000000000000000005f52604160045260245ffd5b6104d48261048e565b810181811067ffffffffffffffff821117156104f3576104f261049e565b5b80604052505050565b5f610505610410565b905061051182826104cb565b919050565b5f67ffffffffffffffff8211156105305761052f61049e565b5b6105398261048e565b9050602081019050919050565b828183375f83830152505050565b5f61056661056184610516565b6104fc565b9050828152602081018484840111156105825761058161048a565b5b61058d848285610546565b509392505050565b5f82601f8301126105a9576105a8610486565b5b81356105b9848260208601610554565b91505092915050565b5f5f5f606084860312156105d9576105d8610419565b5b5f6105e686828701610448565b93505060206105f786828701610472565b925050604084013567ffffffffffffffff8111156106185761061761041d565b5b61062486828701610595565b9150509250925092565b5f81519050919050565b5f82825260208201905092915050565b8281835e5f83830152505050565b5f6106608261062e565b61066a8185610638565b935061067a818560208601610648565b6106838161048e565b840191505092915050565b5f6020820190508181035f8301526106a68184610656565b905092915050565b5f602082840312156106c3576106c2610419565b5b5f6106d084828501610472565b91505092915050565b5f81519050919050565b5f82825260208201905092915050565b5f6106fd826106d9565b61070781856106e3565b9350610717818560208601610648565b6107208161048e565b840191505092915050565b5f60408201905061073e5f8301856103e8565b818103602083015261075081846106f3565b9050939250505056fea264697066735822122084b2a27dd03109c37251b91cdb3eec2c9beae379ab73cfe4b4cdb46e2b9f6d5c64736f6c634300081e003300000000000000000000000032cb58b145d3f7e28c45ce4b2cc31fa94248b23f"
        }
      ],
      "isFixedGasLimit": false
    }
  ],
  "receipts": [
    {
      "status": "0x1",
      "cumulativeGasUsed": "0x997db",
      "logs": [
        {
          "address": "0x32cb58b145d3f7e28c45ce4b2cc31fa94248b23f",
          "topics": [
            "0x66753cd2356569ee081232e3be8909b950e0a76c1f8460c3a5e3c2be32b11bed"
          ],
          "data": "0x000000000000000000000000ba5ed099633d3b313e4d5f7bdc1305d3c28ba5ed000000000000000000000000000000000000000000000000000000000000000000000000000000000000000000000000000000000000000000000000000001600000000000000000000000000000000000000000000000000000000000000000000000000000000000000000000000000000000000000000000000000000000000000000000000000000000000000000000000000000000000000000000000000000000000000000000000000000000000000000000000000000000000000000000000000000000000000000000000000000000000000000000000000000000000000000000000000000000000000000000000000000000000000000000000000000000000000000000000000000000000000000000000000000000000000c000000000000000000000000000000000000000000000000000000000000000c800000000000000000000000000000000000000000000000000000000000000a649c36a28632cb58b145d3f7e28c45ce4b2cc31fa94248b23f0091a5c814b5fccaf0aef1fe000000000000000000000000000000000000000000000000000000000000004000000000000000000000000000000000000000000000000000000000000009e6608060405234801561000f575f5ffd5b506040516109c63803806109c6833981810160405281019061003191906101d7565b805f73ffffffffffffffffffffffffffffffffffffffff168173ffffffffffffffffffffffffffffffffffffffff16036100a2575f6040517f1e4fbdf70000000000000000000000000000000000000000000000000000000081526004016100999190610211565b60405180910390fd5b6100b1816100b860201b60201c565b505061022a565b5f5f5f9054906101000a900473ffffffffffffffffffffffffffffffffffffffff169050815f5f6101000a81548173ffffffffffffffffffffffffffffffffffffffff021916908373ffffffffffffffffffffffffffffffffffffffff1602179055508173ffffffffffffffffffffffffffffffffffffffff168173ffffffffffffffffffffffffffffffffffffffff167f8be0079c531659141344cd1fd0a4f28419497f9722a3daafe3b4186f6b6457e060405160405180910390a35050565b5f5ffd5b5f73ffffffffffffffffffffffffffffffffffffffff82169050919050565b5f6101a68261017d565b9050919050565b6101b68161019c565b81146101c0575f5ffd5b50565b5f815190506101d1816101ad565b92915050565b5f602082840312156101ec576101eb610179565b5b5f6101f9848285016101c3565b91505092915050565b61020b8161019c565b82525050565b5f6020820190506102245f830184610202565b92915050565b61078f806102375f395ff3fe608060405260043610610049575f3560e01c8063715018a61461004d5780638da5cb5b146100635780639623609d1461008d578063ad3cb1cc146100a9578063f2fde38b146100d3575b5f5ffd5b348015610058575f5ffd5b506100616100fb565b005b34801561006e575f5ffd5b5061007761010e565b60405161008491906103f7565b60405180910390f35b6100a760048036038101906100a291906105c2565b610135565b005b3480156100b4575f5ffd5b506100bd6101ac565b6040516100ca919061068e565b60405180910390f35b3480156100de575f5ffd5b506100f960048036038101906100f491906106ae565b6101e5565b005b610103610269565b61010c5f6102f0565b565b5f5f5f9054906101000a900473ffffffffffffffffffffffffffffffffffffffff16905090565b61013d610269565b8273ffffffffffffffffffffffffffffffffffffffff16634f1ef2863484846040518463ffffffff1660e01b815260040161017992919061072b565b5f604051808303818588803b158015610190575f5ffd5b505af11580156101a2573d5f5f3e3d5ffd5b5050505050505050565b6040518060400160405280600581526020017f352e302e3000000000000000000000000000000000000000000000000000000081525081565b6101ed610269565b5f73ffffffffffffffffffffffffffffffffffffffff168173ffffffffffffffffffffffffffffffffffffffff160361025d575f6040517f1e4fbdf700000000000000000000000000000000000000000000000000000000815260040161025491906103f7565b60405180910390fd5b610266816102f0565b50565b6102716103b1565b73ffffffffffffffffffffffffffffffffffffffff1661028f61010e565b73ffffffffffffffffffffffffffffffffffffffff16146102ee576102b26103b1565b6040517f118cdaa70000000000000000000000000000000000000000000000000000000081526004016102e591906103f7565b60405180910390fd5b565b5f5f5f9054906101000a900473ffffffffffffffffffffffffffffffffffffffff169050815f5f6101000a81548173ffffffffffffffffffffffffffffffffffffffff021916908373ffffffffffffffffffffffffffffffffffffffff1602179055508173ffffffffffffffffffffffffffffffffffffffff168173ffffffffffffffffffffffffffffffffffffffff167f8be0079c531659141344cd1fd0a4f28419497f9722a3daafe3b4186f6b6457e060405160405180910390a35050565b5f33905090565b5f73ffffffffffffffffffffffffffffffffffffffff82169050919050565b5f6103e1826103b8565b9050919050565b6103f1816103d7565b82525050565b5f60208201905061040a5f8301846103e8565b92915050565b5f604051905090565b5f5ffd5b5f5ffd5b5f61042b826103d7565b9050919050565b61043b81610421565b8114610445575f5ffd5b50565b5f8135905061045681610432565b92915050565b610465816103d7565b811461046f575f5ffd5b50565b5f813590506104808161045c565b92915050565b5f5ffd5b5f5ffd5b5f601f19601f8301169050919050565b7f4e487b71000000000000000000000000000000000000000000000000000000005f52604160045260245ffd5b6104d48261048e565b810181811067ffffffffffffffff821117156104f3576104f261049e565b5b80604052505050565b5f610505610410565b905061051182826104cb565b919050565b5f67ffffffffffffffff8211156105305761052f61049e565b5b6105398261048e565b9050602081019050919050565b828183375f83830152505050565b5f61056661056184610516565b6104fc565b9050828152602081018484840111156105825761058161048a565b5b61058d848285610546565b509392505050565b5f82601f8301126105a9576105a8610486565b5b81356105b9848260208601610554565b91505092915050565b5f5f5f606084860312156105d9576105d8610419565b5b5f6105e686828701610448565b93505060206105f786828701610472565b925050604084013567ffffffffffffffff8111156106185761061761041d565b5b61062486828701610595565b9150509250925092565b5f81519050919050565b5f82825260208201905092915050565b8281835e5f83830152505050565b5f6106608261062e565b61066a8185610638565b935061067a818560208601610648565b6106838161048e565b840191505092915050565b5f6020820190508181035f8301526106a68184610656565b905092915050565b5f602082840312156106c3576106c2610419565b5b5f6106d084828501610472565b91505092915050565b5f81519050919050565b5f82825260208201905092915050565b5f6106fd826106d9565b61070781856106e3565b9350610717818560208601610648565b6107208161048e565b840191505092915050565b5f60408201905061073e5f8301856103e8565b818103602083015261075081846106f3565b9050939250505056fea264697066735822122084b2a27dd03109c37251b91cdb3eec2c9beae379ab73cfe4b4cdb46e2b9f6d5c64736f6c634300081e003300000000000000000000000032cb58b145d3f7e28c45ce4b2cc31fa94248b23f0000000000000000000000000000000000000000000000000000000000000000000000000000000000000000000000000000000000000000000000000000000000000000000000000000000000000000000000000041171608ee1346ec5c1455f9c1ded62f79faa0e306cc98c583b262b99fd827daf044b78eff485fe1ae2403651fcee258b4daf798c512b65d848375f670447669401b000000000000000000000000000000000000000000000000000000000000000000000000000000000000000000000000000000000000000000000000000060000000000000000000000000000000000000000000000000000000000000000000000000000000000000000056fd3f2bee130e9867942d0f463a16fbe49b8d810000000000000000000000000000000000000000000000000000000000000001",
          "blockHash": "0x68ba7226daddb032d7fa57d36387746cccca9d2529001441fe7221a4ac7dfcee",
          "blockNumber": "0x203d3de",
          "transactionHash": "0x4aa76b1df2eeae547e2a51793bc9b32bc6bf21cd485ba0cb0d0ad1f7b3bf0ec5",
          "transactionIndex": "0x0",
          "logIndex": "0x0",
          "removed": false
        },
        {
          "address": "0xba5ed099633d3b313e4d5f7bdc1305d3c28ba5ed",
          "topics": [
            "0x2feea65dd4e9f9cbd86b74b7734210c59a1b2981b5b137bd0ee3e208200c9067",
            "0x0000000000000000000000006dddf879f36c1aec146b7957632b25fc5e343973",
            "0xa453f1709b25e0735b5313f2f804dc12fe5c50677b3172f83cb64d535d2001c7"
          ],
          "data": "0x",
          "blockHash": "0x68ba7226daddb032d7fa57d36387746cccca9d2529001441fe7221a4ac7dfcee",
          "blockNumber": "0x203d3de",
          "transactionHash": "0x4aa76b1df2eeae547e2a51793bc9b32bc6bf21cd485ba0cb0d0ad1f7b3bf0ec5",
          "transactionIndex": "0x0",
          "logIndex": "0x1",
          "removed": false
        },
        {
          "address": "0x59c0c91e6b0efecf1453824d28450ca61f3d65b5",
          "topics": [
            "0x8be0079c531659141344cd1fd0a4f28419497f9722a3daafe3b4186f6b6457e0",
            "0x0000000000000000000000000000000000000000000000000000000000000000",
            "0x00000000000000000000000032cb58b145d3f7e28c45ce4b2cc31fa94248b23f"
          ],
          "data": "0x",
          "blockHash": "0x68ba7226daddb032d7fa57d36387746cccca9d2529001441fe7221a4ac7dfcee",
          "blockNumber": "0x203d3de",
          "transactionHash": "0x4aa76b1df2eeae547e2a51793bc9b32bc6bf21cd485ba0cb0d0ad1f7b3bf0ec5",
          "transactionIndex": "0x0",
          "logIndex": "0x2",
          "removed": false
        },
        {
          "address": "0xba5ed099633d3b313e4d5f7bdc1305d3c28ba5ed",
          "topics": [
            "0x4db17dd5e4732fb6da34a148104a592783ca119a1e7bb8829eba6cbadef0b511",
            "0x00000000000000000000000059c0c91e6b0efecf1453824d28450ca61f3d65b5"
          ],
          "data": "0x",
          "blockHash": "0x68ba7226daddb032d7fa57d36387746cccca9d2529001441fe7221a4ac7dfcee",
          "blockNumber": "0x203d3de",
          "transactionHash": "0x4aa76b1df2eeae547e2a51793bc9b32bc6bf21cd485ba0cb0d0ad1f7b3bf0ec5",
          "transactionIndex": "0x0",
          "logIndex": "0x3",
          "removed": false
        },
        {
          "address": "0x32cb58b145d3f7e28c45ce4b2cc31fa94248b23f",
          "topics": [
            "0x442e715f626346e8c54381002da614f62bee8d27386535b2521ec8540898556e",
            "0x8710b0e27b1f954b26bdcfda31fbd39fa85f0f685316a9ea9f574c18550ac881"
          ],
          "data": "0x0000000000000000000000000000000000000000000000000000000000000000",
          "blockHash": "0x68ba7226daddb032d7fa57d36387746cccca9d2529001441fe7221a4ac7dfcee",
          "blockNumber": "0x203d3de",
          "transactionHash": "0x4aa76b1df2eeae547e2a51793bc9b32bc6bf21cd485ba0cb0d0ad1f7b3bf0ec5",
          "transactionIndex": "0x0",
          "logIndex": "0x4",
          "removed": false
        }
      ],
      "logsBloom": "0x00020000400000000000000000000000000000900000001000900000240000000000000000000000000008000000800000000000000004000000000800000000000100000000000000000800520000000001040000000000000000000000000200000000020000000000000000000800000000000020000000000000000000400000000000000000000000000000000000000000000000000000004000040000000000000400000000000000003004000008000000000000000000000000000000000000004000000200000000020000000000002000000008000000000020000000000040000200000000000000000000040000000000000800000000000000",
      "type": "0x2",
      "transactionHash": "0x4aa76b1df2eeae547e2a51793bc9b32bc6bf21cd485ba0cb0d0ad1f7b3bf0ec5",
      "transactionIndex": "0x0",
      "blockHash": "0x68ba7226daddb032d7fa57d36387746cccca9d2529001441fe7221a4ac7dfcee",
      "blockNumber": "0x203d3de",
      "gasUsed": "0x997db",
      "effectiveGasPrice": "0x3",
      "blobGasUsed": "0x0",
      "from": "0x56fd3f2bee130e9867942d0f463a16fbe49b8d81",
      "to": "0x32cb58b145d3f7e28c45ce4b2cc31fa94248b23f",
      "contractAddress": null
    }
  ],
  "libraries": [],
  "pending": [],
  "returns": {},
  "timestamp": 1754486468,
  "chain": 8453,
  "commit": "0b9461b"
}