{
  "transactions": [
    {
      "hash": "0x71ec1fd5e8298137d1a823444de6444c30cf7c292e295454036fcb2aee3efa18",
      "transactionType": "CALL",
      "contractName": null,
      "contractAddress": "0xba5ed099633d3b313e4d5f7bdc1305d3c28ba5ed",
      "function": "deployCreate3(bytes32,bytes)",
      "arguments": [
        "0x2738f38fde510743e0c589415e0598c4cee6eaa7008d5e7baedd5257a687219e",
        "0x6080604052348015600e575f5ffd5b506040516104e63803806104e6833981016040819052602b9160b4565b806001600160a01b038116605857604051631e4fbdf760e01b81525f600482015260240160405180910390fd5b605f816065565b505060df565b5f80546001600160a01b038381166001600160a01b0319831681178455604051919092169283917f8be0079c531659141344cd1fd0a4f28419497f9722a3daafe3b4186f6b6457e09190a35050565b5f6020828403121560c3575f5ffd5b81516001600160a01b038116811460d8575f5ffd5b9392505050565b6103fa806100ec5f395ff3fe608060405260043610610049575f3560e01c8063715018a61461004d5780638da5cb5b146100635780639623609d1461008e578063ad3cb1cc146100a1578063f2fde38b146100de575b5f5ffd5b348015610058575f5ffd5b506100616100fd565b005b34801561006e575f5ffd5b505f546040516001600160a01b0390911681526020015b60405180910390f35b61006161009c366004610260565b610110565b3480156100ac575f5ffd5b506100d1604051806040016040528060058152602001640352e302e360dc1b81525081565b6040516100859190610365565b3480156100e9575f5ffd5b506100616100f836600461037e565b61017b565b6101056101bd565b61010e5f6101e9565b565b6101186101bd565b60405163278f794360e11b81526001600160a01b03841690634f1ef2869034906101489086908690600401610399565b5f604051808303818588803b15801561015f575f5ffd5b505af1158015610171573d5f5f3e3d5ffd5b5050505050505050565b6101836101bd565b6001600160a01b0381166101b157604051631e4fbdf760e01b81525f60048201526024015b60405180910390fd5b6101ba816101e9565b50565b5f546001600160a01b0316331461010e5760405163118cdaa760e01b81523360048201526024016101a8565b5f80546001600160a01b038381166001600160a01b0319831681178455604051919092169283917f8be0079c531659141344cd1fd0a4f28419497f9722a3daafe3b4186f6b6457e09190a35050565b6001600160a01b03811681146101ba575f5ffd5b634e487b7160e01b5f52604160045260245ffd5b5f5f5f60608486031215610272575f5ffd5b833561027d81610238565b9250602084013561028d81610238565b9150604084013567ffffffffffffffff8111156102a8575f5ffd5b8401601f810186136102b8575f5ffd5b803567ffffffffffffffff8111156102d2576102d261024c565b604051601f8201601f19908116603f0116810167ffffffffffffffff811182821017156103015761030161024c565b604052818152828201602001881015610318575f5ffd5b816020840160208301375f602083830101528093505050509250925092565b5f81518084528060208401602086015e5f602082860101526020601f19601f83011685010191505092915050565b602081525f6103776020830184610337565b9392505050565b5f6020828403121561038e575f5ffd5b813561037781610238565b6001600160a01b03831681526040602082018190525f906103bc90830184610337565b94935050505056fea2646970667358221220f5f20021844ced4c35c6932d794aa58fb3294d87be39cbbdd92264d9472a3ae164736f6c634300082100330000000000000000000000002738f38fde510743e0c589415e0598c4cee6eaa7"
      ],
      "transaction": {
        "from": "0x2738f38fde510743e0c589415e0598c4cee6eaa7",
        "to": "0xba5ed099633d3b313e4d5f7bdc1305d3c28ba5ed",
        "gas": "0x716f7",
        "value": "0x0",
        "input": "0x9c36a2862738f38fde510743e0c589415e0598c4cee6eaa7008d5e7baedd5257a687219e000000000000000000000000000000000000000000000000000000000000004000000000000000000000000000000000000000000000000000000000000005066080604052348015600e575f5ffd5b506040516104e63803806104e6833981016040819052602b9160b4565b806001600160a01b038116605857604051631e4fbdf760e01b81525f600482015260240160405180910390fd5b605f816065565b505060df565b5f80546001600160a01b038381166001600160a01b0319831681178455604051919092169283917f8be0079c531659141344cd1fd0a4f28419497f9722a3daafe3b4186f6b6457e09190a35050565b5f6020828403121560c3575f5ffd5b81516001600160a01b038116811460d8575f5ffd5b9392505050565b6103fa806100ec5f395ff3fe608060405260043610610049575f3560e01c8063715018a61461004d5780638da5cb5b146100635780639623609d1461008e578063ad3cb1cc146100a1578063f2fde38b146100de575b5f5ffd5b348015610058575f5ffd5b506100616100fd565b005b34801561006e575f5ffd5b505f546040516001600160a01b0390911681526020015b60405180910390f35b61006161009c366004610260565b610110565b3480156100ac575f5ffd5b506100d1604051806040016040528060058152602001640352e302e360dc1b81525081565b6040516100859190610365565b3480156100e9575f5ffd5b506100616100f836600461037e565b61017b565b6101056101bd565b61010e5f6101e9565b565b6101186101bd565b60405163278f794360e11b81526001600160a01b03841690634f1ef2869034906101489086908690600401610399565b5f604051808303818588803b15801561015f575f5ffd5b505af1158015610171573d5f5f3e3d5ffd5b5050505050505050565b6101836101bd565b6001600160a01b0381166101b157604051631e4fbdf760e01b81525f60048201526024015b60405180910390fd5b6101ba816101e9565b50565b5f546001600160a01b0316331461010e5760405163118cdaa760e01b81523360048201526024016101a8565b5f80546001600160a01b038381166001600160a01b0319831681178455604051919092169283917f8be0079c531659141344cd1fd0a4f28419497f9722a3daafe3b4186f6b6457e09190a35050565b6001600160a01b03811681146101ba575f5ffd5b634e487b7160e01b5f52604160045260245ffd5b5f5f5f60608486031215610272575f5ffd5b833561027d81610238565b9250602084013561028d81610238565b9150604084013567ffffffffffffffff8111156102a8575f5ffd5b8401601f810186136102b8575f5ffd5b803567ffffffffffffffff8111156102d2576102d261024c565b604051601f8201601f19908116603f0116810167ffffffffffffffff811182821017156103015761030161024c565b604052818152828201602001881015610318575f5ffd5b816020840160208301375f602083830101528093505050509250925092565b5f81518084528060208401602086015e5f602082860101526020601f19601f83011685010191505092915050565b602081525f6103776020830184610337565b9392505050565b5f6020828403121561038e575f5ffd5b813561037781610238565b6001600160a01b03831681526040602082018190525f906103bc90830184610337565b94935050505056fea2646970667358221220f5f20021844ced4c35c6932d794aa58fb3294d87be39cbbdd92264d9472a3ae164736f6c634300082100330000000000000000000000002738f38fde510743e0c589415e0598c4cee6eaa70000000000000000000000000000000000000000000000000000",
        "nonce": "0x3f",
        "chainId": "0x279f"
      },
      "additionalContracts": [
        {
          "transactionType": "CREATE2",
          "contractName": null,
          "address": "0x6ef956455c2817a1ef38561cef54f2fbb9820ea3",
          "initCode": "0x67363d3d37363d34f03d5260086018f3"
        },
        {
          "transactionType": "CREATE",
          "contractName": "ProxyAdmin",
          "address": "0xaad8b67551086609d132178dff1dbe31b3c1c9c2",
          "initCode": "0x6080604052348015600e575f5ffd5b506040516104e63803806104e6833981016040819052602b9160b4565b806001600160a01b038116605857604051631e4fbdf760e01b81525f600482015260240160405180910390fd5b605f816065565b505060df565b5f80546001600160a01b038381166001600160a01b0319831681178455604051919092169283917f8be0079c531659141344cd1fd0a4f28419497f9722a3daafe3b4186f6b6457e09190a35050565b5f6020828403121560c3575f5ffd5b81516001600160a01b038116811460d8575f5ffd5b9392505050565b6103fa806100ec5f395ff3fe608060405260043610610049575f3560e01c8063715018a61461004d5780638da5cb5b146100635780639623609d1461008e578063ad3cb1cc146100a1578063f2fde38b146100de575b5f5ffd5b348015610058575f5ffd5b506100616100fd565b005b34801561006e575f5ffd5b505f546040516001600160a01b0390911681526020015b60405180910390f35b61006161009c366004610260565b610110565b3480156100ac575f5ffd5b506100d1604051806040016040528060058152602001640352e302e360dc1b81525081565b6040516100859190610365565b3480156100e9575f5ffd5b506100616100f836600461037e565b61017b565b6101056101bd565b61010e5f6101e9565b565b6101186101bd565b60405163278f794360e11b81526001600160a01b03841690634f1ef2869034906101489086908690600401610399565b5f604051808303818588803b15801561015f575f5ffd5b505af1158015610171573d5f5f3e3d5ffd5b5050505050505050565b6101836101bd565b6001600160a01b0381166101b157604051631e4fbdf760e01b81525f60048201526024015b60405180910390fd5b6101ba816101e9565b50565b5f546001600160a01b0316331461010e5760405163118cdaa760e01b81523360048201526024016101a8565b5f80546001600160a01b038381166001600160a01b0319831681178455604051919092169283917f8be0079c531659141344cd1fd0a4f28419497f9722a3daafe3b4186f6b6457e09190a35050565b6001600160a01b03811681146101ba575f5ffd5b634e487b7160e01b5f52604160045260245ffd5b5f5f5f60608486031215610272575f5ffd5b833561027d81610238565b9250602084013561028d81610238565b9150604084013567ffffffffffffffff8111156102a8575f5ffd5b8401601f810186136102b8575f5ffd5b803567ffffffffffffffff8111156102d2576102d261024c565b604051601f8201601f19908116603f0116810167ffffffffffffffff811182821017156103015761030161024c565b604052818152828201602001881015610318575f5ffd5b816020840160208301375f602083830101528093505050509250925092565b5f81518084528060208401602086015e5f602082860101526020601f19601f83011685010191505092915050565b602081525f6103776020830184610337565b9392505050565b5f6020828403121561038e575f5ffd5b813561037781610238565b6001600160a01b03831681526040602082018190525f906103bc90830184610337565b94935050505056fea2646970667358221220f5f20021844ced4c35c6932d794aa58fb3294d87be39cbbdd92264d9472a3ae164736f6c634300082100330000000000000000000000002738f38fde510743e0c589415e0598c4cee6eaa7"
        }
      ],
      "isFixedGasLimit": false
    }
  ],
  "receipts": [
    {
      "status": "0x1",
      "cumulativeGasUsed": "0x716f7",
      "logs": [
        {
          "address": "0xba5ed099633d3b313e4d5f7bdc1305d3c28ba5ed",
          "topics": [
            "0x2feea65dd4e9f9cbd86b74b7734210c59a1b2981b5b137bd0ee3e208200c9067",
            "0x0000000000000000000000006ef956455c2817a1ef38561cef54f2fbb9820ea3",
            "0x2588fa9716b1f4c275678edd542d9624ba975e95ecf280e1642c4df02019b46f"
          ],
          "data": "0x",
          "blockHash": "0xb22a1b3d709e3bc3b63eda7675991b20dee65f93007f22aadb465f561e121d5f",
          "blockNumber": "0x111a03a",
          "blockTimestamp": "0x69b04777",
          "transactionHash": "0x71ec1fd5e8298137d1a823444de6444c30cf7c292e295454036fcb2aee3efa18",
          "transactionIndex": "0x1",
          "logIndex": "0x1",
          "removed": false
        },
        {
          "address": "0xaad8b67551086609d132178dff1dbe31b3c1c9c2",
          "topics": [
            "0x8be0079c531659141344cd1fd0a4f28419497f9722a3daafe3b4186f6b6457e0",
            "0x0000000000000000000000000000000000000000000000000000000000000000",
            "0x0000000000000000000000002738f38fde510743e0c589415e0598c4cee6eaa7"
          ],
          "data": "0x",
          "blockHash": "0xb22a1b3d709e3bc3b63eda7675991b20dee65f93007f22aadb465f561e121d5f",
          "blockNumber": "0x111a03a",
          "blockTimestamp": "0x69b04777",
          "transactionHash": "0x71ec1fd5e8298137d1a823444de6444c30cf7c292e295454036fcb2aee3efa18",
          "transactionIndex": "0x1",
          "logIndex": "0x2",
          "removed": false
        },
        {
          "address": "0xba5ed099633d3b313e4d5f7bdc1305d3c28ba5ed",
          "topics": [
            "0x4db17dd5e4732fb6da34a148104a592783ca119a1e7bb8829eba6cbadef0b511",
            "0x000000000000000000000000aad8b67551086609d132178dff1dbe31b3c1c9c2"
          ],
          "data": "0x",
          "blockHash": "0xb22a1b3d709e3bc3b63eda7675991b20dee65f93007f22aadb465f561e121d5f",
          "blockNumber": "0x111a03a",
          "blockTimestamp": "0x69b04777",
          "transactionHash": "0x71ec1fd5e8298137d1a823444de6444c30cf7c292e295454036fcb2aee3efa18",
          "transactionIndex": "0x1",
          "logIndex": "0x3",
          "removed": false
        }
      ],
      "logsBloom": "0x00020000000000400000000000000000000400000000000000800000200000000000000000000000000000000000000000000800000004000000000000000000002000000000000000000000020000000001000100000000000000000000000000000000020000000000000000000800000000000420000000000000000000400000000000000000000000000100000000000000000000000000004000000010000080004000000000000000000000000000040000000000000000000000000000200800000000000200000000040000000000002000000000000000000020000000000000000200000040000000000000000000000000000000000000000000",
      "type": "0x2",
      "transactionHash": "0x71ec1fd5e8298137d1a823444de6444c30cf7c292e295454036fcb2aee3efa18",
      "transactionIndex": "0x1",
      "blockHash": "0xb22a1b3d709e3bc3b63eda7675991b20dee65f93007f22aadb465f561e121d5f",
      "blockNumber": "0x111a03a",
      "gasUsed": "0x716f7",
      "effectiveGasPrice": "0x18727cda00",
      "from": "0x2738f38fde510743e0c589415e0598c4cee6eaa7",
      "to": "0xba5ed099633d3b313e4d5f7bdc1305d3c28ba5ed",
      "contractAddress": null
    }
  ],
  "libraries": [
    "lib/mento-core/node_modules/@celo/contracts/common/linkedlists/AddressSortedLinkedListWithMedian.sol:AddressSortedLinkedListWithMedian:0x8E1B1312EC92C9f8073296c4Cf1E60D31d228269"
  ],
  "pending": [],
  "returns": {},
  "timestamp": 1773160311815,
  "chain": 10143,
  "commit": "ed817e1"
}