{
  "transactions": [
    {
      "hash": "0x2e4797906a30539bfbf6cd5cf017c232149c0c0e004ba900df2c3a4006ad8f74",
      "transactionType": "CALL",
      "contractName": null,
      "contractAddress": "0xfdff3fd0994fed8be208a7bee49970ea9707e687",
      "function": "execTransaction(address,uint256,bytes,uint8,uint256,uint256,uint256,address,address,bytes)",
      "arguments": [
        "0xA1dabEF33b3B82c7814B6D82A79e50F4AC44102B",
        "0",
        "0x8d80ff0a0000000000000000000000000000000000000000000000000000000000000020000000000000000000000000000000000000000000000000000000000000010b00b1683db4d2d74e951c54314f1bca1e8fbb299fe200000000000000000000000000000000000000000000000000000000000000000000000000000000000000000000000000000000000000000000000000000004b59589d1002604f6dafed5b6204868e15e89ca41c2d5f6d9c200000000000000000000000000000000000000000000000000000000000000000000000000000000000000000000000000000000000000000000000000000004b59589d100db8fc8c6daac8f73e21e9cc145440ab899d60e5500000000000000000000000000000000000000000000000000000000000000000000000000000000000000000000000000000000000000000000000000000004b59589d1000000000000000000000000000000000000000000",
        "1",
        "0",
        "0",
        "0",
        "0x0000000000000000000000000000000000000000",
        "0x0000000000000000000000000000000000000000",
        "0x540a14e8d06873411ec7517ca757181f6a2369dad3510021ea0053401d70082b3a95a3601ebe49b7e973e959de72fa668008e51dc85a43fe28ba3bc55ce497fc1b"
      ],
      "transaction": {
        "from": "0x2738f38fde510743e0c589415e0598c4cee6eaa7",
        "to": "0xfdff3fd0994fed8be208a7bee49970ea9707e687",
        "gas": "0x2d5e69",
        "value": "0x0",
        "input": "0x6a761202000000000000000000000000a1dabef33b3b82c7814b6d82a79e50f4ac44102b0000000000000000000000000000000000000000000000000000000000000000000000000000000000000000000000000000000000000000000000000000014000000000000000000000000000000000000000000000000000000000000000010000000000000000000000000000000000000000000000000000000000000000000000000000000000000000000000000000000000000000000000000000000000000000000000000000000000000000000000000000000000000000000000000000000000000000000000000000000000000000000000000000000000000000000000000000000000000000000000000000000000000000000000000000000000000000000000000000000000000000000000000000000000000000000002e000000000000000000000000000000000000000000000000000000000000001648d80ff0a0000000000000000000000000000000000000000000000000000000000000020000000000000000000000000000000000000000000000000000000000000010b00b1683db4d2d74e951c54314f1bca1e8fbb299fe200000000000000000000000000000000000000000000000000000000000000000000000000000000000000000000000000000000000000000000000000000004b59589d1002604f6dafed5b6204868e15e89ca41c2d5f6d9c200000000000000000000000000000000000000000000000000000000000000000000000000000000000000000000000000000000000000000000000000000004b59589d100db8fc8c6daac8f73e21e9cc145440ab899d60e5500000000000000000000000000000000000000000000000000000000000000000000000000000000000000000000000000000000000000000000000000000004b59589d1000000000000000000000000000000000000000000000000000000000000000000000000000000000000000000000000000000000000000000000000000000000000000000000000000000000000000041540a14e8d06873411ec7517ca757181f6a2369dad3510021ea0053401d70082b3a95a3601ebe49b7e973e959de72fa668008e51dc85a43fe28ba3bc55ce497fc1b00000000000000000000000000000000000000000000000000000000000000",
        "nonce": "0xbd",
        "chainId": "0x8f"
      },
      "additionalContracts": [],
      "isFixedGasLimit": false
    }
  ],
  "receipts": [
    {
      "status": "0x1",
      "cumulativeGasUsed": "0x44739f",
      "logs": [
        {
          "address": "0xfdff3fd0994fed8be208a7bee49970ea9707e687",
          "topics": [
            "0x66753cd2356569ee081232e3be8909b950e0a76c1f8460c3a5e3c2be32b11bed"
          ],
          "data": "0x000000000000000000000000a1dabef33b3b82c7814b6d82a79e50f4ac44102b000000000000000000000000000000000000000000000000000000000000000000000000000000000000000000000000000000000000000000000000000001600000000000000000000000000000000000000000000000000000000000000001000000000000000000000000000000000000000000000000000000000000000000000000000000000000000000000000000000000000000000000000000000000000000000000000000000000000000000000000000000000000000000000000000000000000000000000000000000000000000000000000000000000000000000000000000000000000000000000000000000000000000000000000000000000000000000000000000000000000000000000000000000000000000000000300000000000000000000000000000000000000000000000000000000000000038000000000000000000000000000000000000000000000000000000000000001648d80ff0a0000000000000000000000000000000000000000000000000000000000000020000000000000000000000000000000000000000000000000000000000000010b00b1683db4d2d74e951c54314f1bca1e8fbb299fe200000000000000000000000000000000000000000000000000000000000000000000000000000000000000000000000000000000000000000000000000000004b59589d1002604f6dafed5b6204868e15e89ca41c2d5f6d9c200000000000000000000000000000000000000000000000000000000000000000000000000000000000000000000000000000000000000000000000000000004b59589d100db8fc8c6daac8f73e21e9cc145440ab899d60e5500000000000000000000000000000000000000000000000000000000000000000000000000000000000000000000000000000000000000000000000000000004b59589d1000000000000000000000000000000000000000000000000000000000000000000000000000000000000000000000000000000000000000000000000000000000000000000000000000000000000000041540a14e8d06873411ec7517ca757181f6a2369dad3510021ea0053401d70082b3a95a3601ebe49b7e973e959de72fa668008e51dc85a43fe28ba3bc55ce497fc1b000000000000000000000000000000000000000000000000000000000000000000000000000000000000000000000000000000000000000000000000000060000000000000000000000000000000000000000000000000000000000000000f0000000000000000000000002738f38fde510743e0c589415e0598c4cee6eaa70000000000000000000000000000000000000000000000000000000000000001",
          "blockHash": "0x1b8d6943736ac4b133be78cecff62c50e81781f2605b11ad6ac6f6cefb301ad2",
          "blockNumber": "0x39efc66",
          "blockTimestamp": "0x69b191a2",
          "transactionHash": "0x2e4797906a30539bfbf6cd5cf017c232149c0c0e004ba900df2c3a4006ad8f74",
          "transactionIndex": "0x5",
          "logIndex": "0x14",
          "removed": false
        },
        {
          "address": "0x6f92c745346057a61b259579256159458a0a6a92",
          "topics": [
            "0x7cebb17173a9ed273d2b7538f64395c0ebf352ff743f1cf8ce66b437a6144213",
            "0x00000000000000000000000081a313ff894bfc6093d33b5514e34d7faa41b7ef",
            "0x000000000000000000000000b1683db4d2d74e951c54314f1bca1e8fbb299fe2"
          ],
          "data": "0x0000000000000000000000000000000000000000000000000000000069b191a200000000000000000000000000000000000000000000d3be55a2dfca724e0000",
          "blockHash": "0x1b8d6943736ac4b133be78cecff62c50e81781f2605b11ad6ac6f6cefb301ad2",
          "blockNumber": "0x39efc66",
          "blockTimestamp": "0x69b191a2",
          "transactionHash": "0x2e4797906a30539bfbf6cd5cf017c232149c0c0e004ba900df2c3a4006ad8f74",
          "transactionIndex": "0x5",
          "logIndex": "0x15",
          "removed": false
        },
        {
          "address": "0x6f92c745346057a61b259579256159458a0a6a92",
          "topics": [
            "0xa9981ebfc3b766a742486e898f54959b050a66006dbce1a4155c1f84a08bcf41",
            "0x00000000000000000000000081a313ff894bfc6093d33b5514e34d7faa41b7ef"
          ],
          "data": "0x00000000000000000000000000000000000000000000d3be55a2dfca724e0000",
          "blockHash": "0x1b8d6943736ac4b133be78cecff62c50e81781f2605b11ad6ac6f6cefb301ad2",
          "blockNumber": "0x39efc66",
          "blockTimestamp": "0x69b191a2",
          "transactionHash": "0x2e4797906a30539bfbf6cd5cf017c232149c0c0e004ba900df2c3a4006ad8f74",
          "transactionIndex": "0x5",
          "logIndex": "0x16",
          "removed": false
        },
        {
          "address": "0x9fc1e0d10fb38954da385b8b25ab2bbaf3241722",
          "topics": [
            "0xd45bd915ab99a070b980cdf13e671da6b79cc32e66eff6dc12c83a92071e6ab3",
            "0x00000000000000000000000081a313ff894bfc6093d33b5514e34d7faa41b7ef",
            "0x000000000000000000000000ca2e7563dfc30bc94687f3deacf682e1dbaffa13"
          ],
          "data": "0x",
          "blockHash": "0x1b8d6943736ac4b133be78cecff62c50e81781f2605b11ad6ac6f6cefb301ad2",
          "blockNumber": "0x39efc66",
          "blockTimestamp": "0x69b191a2",
          "transactionHash": "0x2e4797906a30539bfbf6cd5cf017c232149c0c0e004ba900df2c3a4006ad8f74",
          "transactionIndex": "0x5",
          "logIndex": "0x17",
          "removed": false
        },
        {
          "address": "0x6f92c745346057a61b259579256159458a0a6a92",
          "topics": [
            "0x7cebb17173a9ed273d2b7538f64395c0ebf352ff743f1cf8ce66b437a6144213",
            "0x000000000000000000000000f47172ce00522cc7db02109634a92ce866a15fcc",
            "0x0000000000000000000000002604f6dafed5b6204868e15e89ca41c2d5f6d9c2"
          ],
          "data": "0x0000000000000000000000000000000000000000000000000000000069b191a200000000000000000000000000000000000000000000d3c1e13e594968da0000",
          "blockHash": "0x1b8d6943736ac4b133be78cecff62c50e81781f2605b11ad6ac6f6cefb301ad2",
          "blockNumber": "0x39efc66",
          "blockTimestamp": "0x69b191a2",
          "transactionHash": "0x2e4797906a30539bfbf6cd5cf017c232149c0c0e004ba900df2c3a4006ad8f74",
          "transactionIndex": "0x5",
          "logIndex": "0x18",
          "removed": false
        },
        {
          "address": "0x6f92c745346057a61b259579256159458a0a6a92",
          "topics": [
            "0xa9981ebfc3b766a742486e898f54959b050a66006dbce1a4155c1f84a08bcf41",
            "0x000000000000000000000000f47172ce00522cc7db02109634a92ce866a15fcc"
          ],
          "data": "0x00000000000000000000000000000000000000000000d3c1e13e594968da0000",
          "blockHash": "0x1b8d6943736ac4b133be78cecff62c50e81781f2605b11ad6ac6f6cefb301ad2",
          "blockNumber": "0x39efc66",
          "blockTimestamp": "0x69b191a2",
          "transactionHash": "0x2e4797906a30539bfbf6cd5cf017c232149c0c0e004ba900df2c3a4006ad8f74",
          "transactionIndex": "0x5",
          "logIndex": "0x19",
          "removed": false
        },
        {
          "address": "0x9fc1e0d10fb38954da385b8b25ab2bbaf3241722",
          "topics": [
            "0xd45bd915ab99a070b980cdf13e671da6b79cc32e66eff6dc12c83a92071e6ab3",
            "0x000000000000000000000000f47172ce00522cc7db02109634a92ce866a15fcc",
            "0x000000000000000000000000ca2e7563dfc30bc94687f3deacf682e1dbaffa13"
          ],
          "data": "0x",
          "blockHash": "0x1b8d6943736ac4b133be78cecff62c50e81781f2605b11ad6ac6f6cefb301ad2",
          "blockNumber": "0x39efc66",
          "blockTimestamp": "0x69b191a2",
          "transactionHash": "0x2e4797906a30539bfbf6cd5cf017c232149c0c0e004ba900df2c3a4006ad8f74",
          "transactionIndex": "0x5",
          "logIndex": "0x1a",
          "removed": false
        },
        {
          "address": "0x6f92c745346057a61b259579256159458a0a6a92",
          "topics": [
            "0x7cebb17173a9ed273d2b7538f64395c0ebf352ff743f1cf8ce66b437a6144213",
            "0x000000000000000000000000ea4103a6a122fbe2cdb07a80d4d293be07bb29fa",
            "0x000000000000000000000000db8fc8c6daac8f73e21e9cc145440ab899d60e55"
          ],
          "data": "0x0000000000000000000000000000000000000000000000000000000069b191a2000000000000000000000000000000000000000000011bc18ba997b94d800000",
          "blockHash": "0x1b8d6943736ac4b133be78cecff62c50e81781f2605b11ad6ac6f6cefb301ad2",
          "blockNumber": "0x39efc66",
          "blockTimestamp": "0x69b191a2",
          "transactionHash": "0x2e4797906a30539bfbf6cd5cf017c232149c0c0e004ba900df2c3a4006ad8f74",
          "transactionIndex": "0x5",
          "logIndex": "0x1b",
          "removed": false
        },
        {
          "address": "0x6f92c745346057a61b259579256159458a0a6a92",
          "topics": [
            "0xa9981ebfc3b766a742486e898f54959b050a66006dbce1a4155c1f84a08bcf41",
            "0x000000000000000000000000ea4103a6a122fbe2cdb07a80d4d293be07bb29fa"
          ],
          "data": "0x000000000000000000000000000000000000000000011bc18ba997b94d800000",
          "blockHash": "0x1b8d6943736ac4b133be78cecff62c50e81781f2605b11ad6ac6f6cefb301ad2",
          "blockNumber": "0x39efc66",
          "blockTimestamp": "0x69b191a2",
          "transactionHash": "0x2e4797906a30539bfbf6cd5cf017c232149c0c0e004ba900df2c3a4006ad8f74",
          "transactionIndex": "0x5",
          "logIndex": "0x1c",
          "removed": false
        },
        {
          "address": "0xfdff3fd0994fed8be208a7bee49970ea9707e687",
          "topics": [
            "0x442e715f626346e8c54381002da614f62bee8d27386535b2521ec8540898556e",
            "0x8013f86e0a7cb2d15630b9d4a339aca65877e42b1f39b872288fbb177dae45d1"
          ],
          "data": "0x0000000000000000000000000000000000000000000000000000000000000000",
          "blockHash": "0x1b8d6943736ac4b133be78cecff62c50e81781f2605b11ad6ac6f6cefb301ad2",
          "blockNumber": "0x39efc66",
          "blockTimestamp": "0x69b191a2",
          "transactionHash": "0x2e4797906a30539bfbf6cd5cf017c232149c0c0e004ba900df2c3a4006ad8f74",
          "transactionIndex": "0x5",
          "logIndex": "0x1d",
          "removed": false
        }
      ],
      "logsBloom": "0x00800000408008000000000000000000000400000000000000000000040400000000000000000000000800000000000800000000000000000000000000100020800000200000000000000008040000000000040004000000400000000000000000000000000000000040000000008000000000000000000000800000000000000000000004000000400000000080000000000000000000000002000010000000004000800400000000000000000004000000008000000200000000000000000000800000000080000000000010020002000000000000000000000000000000200800000000000000000000000a00004000104000000000000000000000044000",
      "type": "0x2",
      "transactionHash": "0x2e4797906a30539bfbf6cd5cf017c232149c0c0e004ba900df2c3a4006ad8f74",
      "transactionIndex": "0x5",
      "blockHash": "0x1b8d6943736ac4b133be78cecff62c50e81781f2605b11ad6ac6f6cefb301ad2",
      "blockNumber": "0x39efc66",
      "gasUsed": "0x2d5e69",
      "effectiveGasPrice": "0x17bfac7c00",
      "from": "0x2738f38fde510743e0c589415e0598c4cee6eaa7",
      "to": "0xfdff3fd0994fed8be208a7bee49970ea9707e687",
      "contractAddress": null
    }
  ],
  "libraries": [
    "lib/mento-core/node_modules/@celo/contracts/common/linkedlists/AddressSortedLinkedListWithMedian.sol:AddressSortedLinkedListWithMedian:0x65052c55815F491094FD8F1D887d4B5C670abE3c",
    "lib/mento-stabletoken-ntt/evm/src/libraries/TransceiverStructs.sol:TransceiverStructs:0x7C2420401eB6bEB50501Fd5bc8b60DBfC2b0dEF0"
  ],
  "pending": [],
  "returns": {},
  "timestamp": 1773244836054,
  "chain": 143,
  "commit": "53d8ddd"
}