{
  "transactions": [
    {
      "hash": "0x352645745a1509b93fd18d846c1114a4ba8432e0e8296e3ed88d83cce39aa90c",
      "transactionType": "CALL",
      "contractName": null,
      "contractAddress": "0xfdff3fd0994fed8be208a7bee49970ea9707e687",
      "function": "execTransaction(address,uint256,bytes,uint8,uint256,uint256,uint256,address,address,bytes)",
      "arguments": [
        "0xA1dabEF33b3B82c7814B6D82A79e50F4AC44102B",
        "0",
        "0x8d80ff0a000000000000000000000000000000000000000000000000000000000000002000000000000000000000000000000000000000000000000000000000000000b200b1683db4d2d74e951c54314f1bca1e8fbb299fe200000000000000000000000000000000000000000000000000000000000000000000000000000000000000000000000000000000000000000000000000000004b59589d100db8fc8c6daac8f73e21e9cc145440ab899d60e5500000000000000000000000000000000000000000000000000000000000000000000000000000000000000000000000000000000000000000000000000000004b59589d10000000000000000000000000000",
        "1",
        "0",
        "0",
        "0",
        "0x0000000000000000000000000000000000000000",
        "0x0000000000000000000000000000000000000000",
        "0x9d5412391363e05486866bfcb2870708be2d1d2b8093d63282baa66bc8115bd7167081c28940a315d458b86d8cabfa6ae227e83c2c61f64a66f7f60e1b9405291c"
      ],
      "transaction": {
        "from": "0x2738f38fde510743e0c589415e0598c4cee6eaa7",
        "to": "0xfdff3fd0994fed8be208a7bee49970ea9707e687",
        "gas": "0x18c6c8",
        "value": "0x0",
        "input": "0x6a761202000000000000000000000000a1dabef33b3b82c7814b6d82a79e50f4ac44102b00000000000000000000000000000000000000000000000000000000000000000000000000000000000000000000000000000000000000000000000000000140000000000000000000000000000000000000000000000000000000000000000100000000000000000000000000000000000000000000000000000000000000000000000000000000000000000000000000000000000000000000000000000000000000000000000000000000000000000000000000000000000000000000000000000000000000000000000000000000000000000000000000000000000000000000000000000000000000000000000000000000000000000000000000000000000000000000000000000000000000000000000000000000000000000000028000000000000000000000000000000000000000000000000000000000000001048d80ff0a000000000000000000000000000000000000000000000000000000000000002000000000000000000000000000000000000000000000000000000000000000b200b1683db4d2d74e951c54314f1bca1e8fbb299fe200000000000000000000000000000000000000000000000000000000000000000000000000000000000000000000000000000000000000000000000000000004b59589d100db8fc8c6daac8f73e21e9cc145440ab899d60e5500000000000000000000000000000000000000000000000000000000000000000000000000000000000000000000000000000000000000000000000000000004b59589d100000000000000000000000000000000000000000000000000000000000000000000000000000000000000000000000000000000000000000000000000000000000000000000000000419d5412391363e05486866bfcb2870708be2d1d2b8093d63282baa66bc8115bd7167081c28940a315d458b86d8cabfa6ae227e83c2c61f64a66f7f60e1b9405291c00000000000000000000000000000000000000000000000000000000000000",
        "nonce": "0xc5",
        "chainId": "0x8f"
      },
      "additionalContracts": [],
      "isFixedGasLimit": false
    }
  ],
  "receipts": [
    {
      "status": "0x1",
      "cumulativeGasUsed": "0x18c6c8",
      "logs": [
        {
          "address": "0xfdff3fd0994fed8be208a7bee49970ea9707e687",
          "topics": [
            "0x66753cd2356569ee081232e3be8909b950e0a76c1f8460c3a5e3c2be32b11bed"
          ],
          "data": "0x000000000000000000000000a1dabef33b3b82c7814b6d82a79e50f4ac44102b0000000000000000000000000000000000000000000000000000000000000000000000000000000000000000000000000000000000000000000000000000016000000000000000000000000000000000000000000000000000000000000000010000000000000000000000000000000000000000000000000000000000000000000000000000000000000000000000000000000000000000000000000000000000000000000000000000000000000000000000000000000000000000000000000000000000000000000000000000000000000000000000000000000000000000000000000000000000000000000000000000000000000000000000000000000000000000000000000000000000000000000000000000000000000000000002a0000000000000000000000000000000000000000000000000000000000000032000000000000000000000000000000000000000000000000000000000000001048d80ff0a000000000000000000000000000000000000000000000000000000000000002000000000000000000000000000000000000000000000000000000000000000b200b1683db4d2d74e951c54314f1bca1e8fbb299fe200000000000000000000000000000000000000000000000000000000000000000000000000000000000000000000000000000000000000000000000000000004b59589d100db8fc8c6daac8f73e21e9cc145440ab899d60e5500000000000000000000000000000000000000000000000000000000000000000000000000000000000000000000000000000000000000000000000000000004b59589d100000000000000000000000000000000000000000000000000000000000000000000000000000000000000000000000000000000000000000000000000000000000000000000000000419d5412391363e05486866bfcb2870708be2d1d2b8093d63282baa66bc8115bd7167081c28940a315d458b86d8cabfa6ae227e83c2c61f64a66f7f60e1b9405291c00000000000000000000000000000000000000000000000000000000000000000000000000000000000000000000000000000000000000000000000000006000000000000000000000000000000000000000000000000000000000000000100000000000000000000000002738f38fde510743e0c589415e0598c4cee6eaa70000000000000000000000000000000000000000000000000000000000000001",
          "blockHash": "0x3884f14bf859591775db0654d348f074ffe81262cb4dd1254b56739ede795247",
          "blockNumber": "0x39f1b06",
          "blockTimestamp": "0x69b19de2",
          "transactionHash": "0x352645745a1509b93fd18d846c1114a4ba8432e0e8296e3ed88d83cce39aa90c",
          "transactionIndex": "0x1",
          "logIndex": "0x1",
          "removed": false
        },
        {
          "address": "0x6f92c745346057a61b259579256159458a0a6a92",
          "topics": [
            "0x7cebb17173a9ed273d2b7538f64395c0ebf352ff743f1cf8ce66b437a6144213",
            "0x00000000000000000000000081a313ff894bfc6093d33b5514e34d7faa41b7ef",
            "0x000000000000000000000000b1683db4d2d74e951c54314f1bca1e8fbb299fe2"
          ],
          "data": "0x0000000000000000000000000000000000000000000000000000000069b19de200000000000000000000000000000000000000000000d3c1c4eed0185b0e0000",
          "blockHash": "0x3884f14bf859591775db0654d348f074ffe81262cb4dd1254b56739ede795247",
          "blockNumber": "0x39f1b06",
          "blockTimestamp": "0x69b19de2",
          "transactionHash": "0x352645745a1509b93fd18d846c1114a4ba8432e0e8296e3ed88d83cce39aa90c",
          "transactionIndex": "0x1",
          "logIndex": "0x2",
          "removed": false
        },
        {
          "address": "0x6f92c745346057a61b259579256159458a0a6a92",
          "topics": [
            "0xa9981ebfc3b766a742486e898f54959b050a66006dbce1a4155c1f84a08bcf41",
            "0x00000000000000000000000081a313ff894bfc6093d33b5514e34d7faa41b7ef"
          ],
          "data": "0x00000000000000000000000000000000000000000000d3c1c4eed0185b0e0000",
          "blockHash": "0x3884f14bf859591775db0654d348f074ffe81262cb4dd1254b56739ede795247",
          "blockNumber": "0x39f1b06",
          "blockTimestamp": "0x69b19de2",
          "transactionHash": "0x352645745a1509b93fd18d846c1114a4ba8432e0e8296e3ed88d83cce39aa90c",
          "transactionIndex": "0x1",
          "logIndex": "0x3",
          "removed": false
        },
        {
          "address": "0x6f92c745346057a61b259579256159458a0a6a92",
          "topics": [
            "0x7cebb17173a9ed273d2b7538f64395c0ebf352ff743f1cf8ce66b437a6144213",
            "0x000000000000000000000000ea4103a6a122fbe2cdb07a80d4d293be07bb29fa",
            "0x000000000000000000000000db8fc8c6daac8f73e21e9cc145440ab899d60e55"
          ],
          "data": "0x0000000000000000000000000000000000000000000000000000000069b19de2000000000000000000000000000000000000000000011bda7b71e28a15300000",
          "blockHash": "0x3884f14bf859591775db0654d348f074ffe81262cb4dd1254b56739ede795247",
          "blockNumber": "0x39f1b06",
          "blockTimestamp": "0x69b19de2",
          "transactionHash": "0x352645745a1509b93fd18d846c1114a4ba8432e0e8296e3ed88d83cce39aa90c",
          "transactionIndex": "0x1",
          "logIndex": "0x4",
          "removed": false
        },
        {
          "address": "0x6f92c745346057a61b259579256159458a0a6a92",
          "topics": [
            "0xa9981ebfc3b766a742486e898f54959b050a66006dbce1a4155c1f84a08bcf41",
            "0x000000000000000000000000ea4103a6a122fbe2cdb07a80d4d293be07bb29fa"
          ],
          "data": "0x000000000000000000000000000000000000000000011bda7b71e28a15300000",
          "blockHash": "0x3884f14bf859591775db0654d348f074ffe81262cb4dd1254b56739ede795247",
          "blockNumber": "0x39f1b06",
          "blockTimestamp": "0x69b19de2",
          "transactionHash": "0x352645745a1509b93fd18d846c1114a4ba8432e0e8296e3ed88d83cce39aa90c",
          "transactionIndex": "0x1",
          "logIndex": "0x5",
          "removed": false
        },
        {
          "address": "0xfdff3fd0994fed8be208a7bee49970ea9707e687",
          "topics": [
            "0x442e715f626346e8c54381002da614f62bee8d27386535b2521ec8540898556e",
            "0xb583b28f28721741fb49ffe42694dbfecfb0c498a8b19af889192009b804db9b"
          ],
          "data": "0x0000000000000000000000000000000000000000000000000000000000000000",
          "blockHash": "0x3884f14bf859591775db0654d348f074ffe81262cb4dd1254b56739ede795247",
          "blockNumber": "0x39f1b06",
          "blockTimestamp": "0x69b19de2",
          "transactionHash": "0x352645745a1509b93fd18d846c1114a4ba8432e0e8296e3ed88d83cce39aa90c",
          "transactionIndex": "0x1",
          "logIndex": "0x6",
          "removed": false
        }
      ],
      "logsBloom": "0x00800000400008000000000000000000000000000000000000000000040000000000000000000000000800000000000800000000000000000000000000000020000000200000000000000008040000000000040004000000400000000000000000000000000000000040000000008000000008000000000000000000000000000000000000000000400000000000000000000000000000000000000000000000004000800400000000000000000004000000008000000200000000000000000000000000000000000000800000020002000010000000000000000000000000200000000000000000000000000a00000000000000000000000000000000044000",
      "type": "0x2",
      "transactionHash": "0x352645745a1509b93fd18d846c1114a4ba8432e0e8296e3ed88d83cce39aa90c",
      "transactionIndex": "0x1",
      "blockHash": "0x3884f14bf859591775db0654d348f074ffe81262cb4dd1254b56739ede795247",
      "blockNumber": "0x39f1b06",
      "gasUsed": "0x18c6c8",
      "effectiveGasPrice": "0x18727cda00",
      "from": "0x2738f38fde510743e0c589415e0598c4cee6eaa7",
      "to": "0xfdff3fd0994fed8be208a7bee49970ea9707e687",
      "contractAddress": null
    }
  ],
  "libraries": [
    "lib/mento-core/node_modules/@celo/contracts/common/linkedlists/AddressSortedLinkedListWithMedian.sol:AddressSortedLinkedListWithMedian:0x65052c55815F491094FD8F1D887d4B5C670abE3c",
    "lib/mento-stabletoken-ntt/evm/src/libraries/TransceiverStructs.sol:TransceiverStructs:0x7C2420401eB6bEB50501Fd5bc8b60DBfC2b0dEF0"
  ],
  "pending": [],
  "returns": {},
  "timestamp": 1773247971839,
  "chain": 143,
  "commit": "53d8ddd"
}