{
  "transactions": [
    {
      "hash": "0x9d50c21eb2bcf8ee197060d8e9f9334a244508a38d18e03491343d712f4450cd",
      "transactionType": "CALL",
      "contractName": null,
      "contractAddress": "0xfdff3fd0994fed8be208a7bee49970ea9707e687",
      "function": "execTransaction(address,uint256,bytes,uint8,uint256,uint256,uint256,address,address,bytes)",
      "arguments": [
        "0xA1dabEF33b3B82c7814B6D82A79e50F4AC44102B",
        "0",
        "0x8d80ff0a000000000000000000000000000000000000000000000000000000000000002000000000000000000000000000000000000000000000000000000000000000b2000fb76625e4f43b8183d7c899df13024cbe030b0d00000000000000000000000000000000000000000000000000000000000000000000000000000000000000000000000000000000000000000000000000000004b59589d1001de9678363193412264911ebcc797c54da09ecbf00000000000000000000000000000000000000000000000000000000000000000000000000000000000000000000000000000000000000000000000000000004b59589d10000000000000000000000000000",
        "1",
        "0",
        "0",
        "0",
        "0x0000000000000000000000000000000000000000",
        "0x0000000000000000000000000000000000000000",
        "0xbe1a8077339662573d21af9fd46bb261e361ab6f6c989b0878b956eecf68ea442125eb65a2006499218b5ed242ddac76afa97d3bad3ecd6cd11d131b086c06cd1c"
      ],
      "transaction": {
        "from": "0x2738f38fde510743e0c589415e0598c4cee6eaa7",
        "to": "0xfdff3fd0994fed8be208a7bee49970ea9707e687",
        "gas": "0x2aecb",
        "value": "0x0",
        "input": "0x6a761202000000000000000000000000a1dabef33b3b82c7814b6d82a79e50f4ac44102b00000000000000000000000000000000000000000000000000000000000000000000000000000000000000000000000000000000000000000000000000000140000000000000000000000000000000000000000000000000000000000000000100000000000000000000000000000000000000000000000000000000000000000000000000000000000000000000000000000000000000000000000000000000000000000000000000000000000000000000000000000000000000000000000000000000000000000000000000000000000000000000000000000000000000000000000000000000000000000000000000000000000000000000000000000000000000000000000000000000000000000000000000000000000000000000028000000000000000000000000000000000000000000000000000000000000001048d80ff0a000000000000000000000000000000000000000000000000000000000000002000000000000000000000000000000000000000000000000000000000000000b2000fb76625e4f43b8183d7c899df13024cbe030b0d00000000000000000000000000000000000000000000000000000000000000000000000000000000000000000000000000000000000000000000000000000004b59589d1001de9678363193412264911ebcc797c54da09ecbf00000000000000000000000000000000000000000000000000000000000000000000000000000000000000000000000000000000000000000000000000000004b59589d10000000000000000000000000000000000000000000000000000000000000000000000000000000000000000000000000000000000000000000000000000000000000000000000000041be1a8077339662573d21af9fd46bb261e361ab6f6c989b0878b956eecf68ea442125eb65a2006499218b5ed242ddac76afa97d3bad3ecd6cd11d131b086c06cd1c00000000000000000000000000000000000000000000000000000000000000",
        "nonce": "0xed",
        "chainId": "0x8f"
      },
      "additionalContracts": [],
      "isFixedGasLimit": false
    }
  ],
  "receipts": [
    {
      "type": "0x2",
      "status": "0x1",
      "cumulativeGasUsed": "0xbaf51",
      "logs": [
        {
          "address": "0xfdff3fd0994fed8be208a7bee49970ea9707e687",
          "topics": [
            "0x66753cd2356569ee081232e3be8909b950e0a76c1f8460c3a5e3c2be32b11bed"
          ],
          "data": "0x000000000000000000000000a1dabef33b3b82c7814b6d82a79e50f4ac44102b0000000000000000000000000000000000000000000000000000000000000000000000000000000000000000000000000000000000000000000000000000016000000000000000000000000000000000000000000000000000000000000000010000000000000000000000000000000000000000000000000000000000000000000000000000000000000000000000000000000000000000000000000000000000000000000000000000000000000000000000000000000000000000000000000000000000000000000000000000000000000000000000000000000000000000000000000000000000000000000000000000000000000000000000000000000000000000000000000000000000000000000000000000000000000000000002a0000000000000000000000000000000000000000000000000000000000000032000000000000000000000000000000000000000000000000000000000000001048d80ff0a000000000000000000000000000000000000000000000000000000000000002000000000000000000000000000000000000000000000000000000000000000b2000fb76625e4f43b8183d7c899df13024cbe030b0d00000000000000000000000000000000000000000000000000000000000000000000000000000000000000000000000000000000000000000000000000000004b59589d1001de9678363193412264911ebcc797c54da09ecbf00000000000000000000000000000000000000000000000000000000000000000000000000000000000000000000000000000000000000000000000000000004b59589d10000000000000000000000000000000000000000000000000000000000000000000000000000000000000000000000000000000000000000000000000000000000000000000000000041be1a8077339662573d21af9fd46bb261e361ab6f6c989b0878b956eecf68ea442125eb65a2006499218b5ed242ddac76afa97d3bad3ecd6cd11d131b086c06cd1c000000000000000000000000000000000000000000000000000000000000000000000000000000000000000000000000000000000000000000000000000060000000000000000000000000000000000000000000000000000000000000001e0000000000000000000000002738f38fde510743e0c589415e0598c4cee6eaa70000000000000000000000000000000000000000000000000000000000000001",
          "blockHash": "0x848c6f9d342db1350eab9c1622f753286ecb97ff5a11c8410a8b78a4cf57a8c0",
          "blockNumber": "0x4151e4b",
          "blockTimestamp": "0x69e0d4d5",
          "transactionHash": "0x9d50c21eb2bcf8ee197060d8e9f9334a244508a38d18e03491343d712f4450cd",
          "transactionIndex": "0x4",
          "logIndex": "0xc",
          "removed": false
        },
        {
          "address": "0xfdff3fd0994fed8be208a7bee49970ea9707e687",
          "topics": [
            "0x442e715f626346e8c54381002da614f62bee8d27386535b2521ec8540898556e",
            "0xf031193f670704860508a72263bfce11c5953eb74ea1f3c87614d6af364e659b"
          ],
          "data": "0x0000000000000000000000000000000000000000000000000000000000000000",
          "blockHash": "0x848c6f9d342db1350eab9c1622f753286ecb97ff5a11c8410a8b78a4cf57a8c0",
          "blockNumber": "0x4151e4b",
          "blockTimestamp": "0x69e0d4d5",
          "transactionHash": "0x9d50c21eb2bcf8ee197060d8e9f9334a244508a38d18e03491343d712f4450cd",
          "transactionIndex": "0x4",
          "logIndex": "0xd",
          "removed": false
        }
      ],
      "logsBloom": "0x00000000400000000000000000000000000000000000000000000000040000000000000000000000000000000008000000000000000000000000000000000000000000000000000000000000000000020000040000000000000000000000000000000000000000000000000000000000000000000000000000000000000000000000000000000000000000000000000000000000000000008000000000000000004000000400000000000000000004000000000000000000000000000000000000000000000000000000000000020000000000000000000000000000000000000000000000000000000000000200000000000000000000000000000000040000",
      "transactionHash": "0x9d50c21eb2bcf8ee197060d8e9f9334a244508a38d18e03491343d712f4450cd",
      "transactionIndex": "0x4",
      "blockHash": "0x848c6f9d342db1350eab9c1622f753286ecb97ff5a11c8410a8b78a4cf57a8c0",
      "blockNumber": "0x4151e4b",
      "gasUsed": "0x2aecb",
      "effectiveGasPrice": "0x17c0451280",
      "from": "0x2738f38fde510743e0c589415e0598c4cee6eaa7",
      "to": "0xfdff3fd0994fed8be208a7bee49970ea9707e687",
      "contractAddress": null
    }
  ],
  "libraries": [
    "lib/mento-core/node_modules/@celo/contracts/common/linkedlists/AddressSortedLinkedListWithMedian.sol:AddressSortedLinkedListWithMedian:0x65052c55815F491094FD8F1D887d4B5C670abE3c",
    "lib/mento-stabletoken-ntt/evm/src/libraries/TransceiverStructs.sol:TransceiverStructs:0x7C2420401eB6bEB50501Fd5bc8b60DBfC2b0dEF0"
  ],
  "pending": [],
  "returns": {},
  "timestamp": 1776342231412,
  "chain": 143,
  "commit": "45adbef"
}