{
  "transactions": [
    {
      "hash": "0xafd44559c7e6e4ae51f9b1f386388051f421db319bc6fbc0f367211bbd94295e",
      "transactionType": "CALL",
      "contractName": null,
      "contractAddress": "0x03cdf2966185eb0b980f2481ad386b8afdab4534",
      "function": "setReferenceValues(address[],uint256[])",
      "arguments": [
        "[0xA1A8003936862E7a15092A91898D69fa8bCE290c, 0xE06C10C63377cD098b589c0b90314bFb55751558, 0x26076B9702885d475ac8c3dB3Bd9F250Dc5A318B, 0x40dC8528167557353fdcD98548AB2139A670Dd0b]",
        "[1000000000000000000000000, 1000000000000000000000000, 1000000000000000000000000, 655957000000000000000000000]"
      ],
      "transaction": {
        "from": "0x56fd3f2bee130e9867942d0f463a16fbe49b8d81",
        "to": "0x03cdf2966185eb0b980f2481ad386b8afdab4534",
        "gas": "0xe8c5",
        "value": "0x0",
        "input": "0xe829902e000000000000000000000000000000000000000000000000000000000000004000000000000000000000000000000000000000000000000000000000000000e00000000000000000000000000000000000000000000000000000000000000004000000000000000000000000a1a8003936862e7a15092a91898d69fa8bce290c000000000000000000000000e06c10c63377cd098b589c0b90314bfb5575155800000000000000000000000026076b9702885d475ac8c3db3bd9f250dc5a318b00000000000000000000000040dc8528167557353fdcd98548ab2139a670dd0b000000000000000000000000000000000000000000000000000000000000000400000000000000000000000000000000000000000000d3c21bcecceda100000000000000000000000000000000000000000000000000d3c21bcecceda100000000000000000000000000000000000000000000000000d3c21bcecceda10000000000000000000000000000000000000000000000021e984c390cf0b02b200000",
        "nonce": "0x789",
        "chainId": "0xaa044c"
      },
      "additionalContracts": [],
      "isFixedGasLimit": false
    },
    {
      "hash": "0x7089ca311889b76a8c0b764fd975554a86d7da9d382527269fe71302d8ba1954",
      "transactionType": "CALL",
      "contractName": null,
      "contractAddress": "0xd29b4e743f7b84d63fbf9149b6d983df2ef5c952",
      "function": "setSmoothingFactor(address,uint256)",
      "arguments": [
        "0xC443D8C40D321B34f815eaC76a7620FB06F9E8a4",
        "1"
      ],
      "transaction": {
        "from": "0x56fd3f2bee130e9867942d0f463a16fbe49b8d81",
        "to": "0xd29b4e743f7b84d63fbf9149b6d983df2ef5c952",
        "gas": "0x97c3",
        "value": "0x0",
        "input": "0x3151e220000000000000000000000000c443d8c40d321b34f815eac76a7620fb06f9e8a40000000000000000000000000000000000000000000000000000000000000001",
        "nonce": "0x78a",
        "chainId": "0xaa044c"
      },
      "additionalContracts": [],
      "isFixedGasLimit": false
    },
    {
      "hash": "0x9762cb481284a5d5992b9da419525999d5d76a00b43ef0fff2563a52aa857615",
      "transactionType": "CALL",
      "contractName": null,
      "contractAddress": "0xd29b4e743f7b84d63fbf9149b6d983df2ef5c952",
      "function": "setSmoothingFactor(address,uint256)",
      "arguments": [
        "0x5D5a22116233BDb2a9C2977279cC348B8b8Ce917",
        "5000000000000000000000"
      ],
      "transaction": {
        "from": "0x56fd3f2bee130e9867942d0f463a16fbe49b8d81",
        "to": "0xd29b4e743f7b84d63fbf9149b6d983df2ef5c952",
        "gas": "0x9837",
        "value": "0x0",
        "input": "0x3151e2200000000000000000000000005d5a22116233bdb2a9c2977279cc348b8b8ce91700000000000000000000000000000000000000000000010f0cf064dd59200000",
        "nonce": "0x78b",
        "chainId": "0xaa044c"
      },
      "additionalContracts": [],
      "isFixedGasLimit": false
    },
    {
      "hash": "0x378cc751ac88456fb42d63e73e56dabbb6618a88c496473b49734c2f448d798d",
      "transactionType": "CALL",
      "contractName": null,
      "contractAddress": "0xd29b4e743f7b84d63fbf9149b6d983df2ef5c952",
      "function": "setSmoothingFactor(address,uint256)",
      "arguments": [
        "0xCE1213507c81576759181A2b795f3c9aE5ede6bd",
        "5000000000000000000000"
      ],
      "transaction": {
        "from": "0x56fd3f2bee130e9867942d0f463a16fbe49b8d81",
        "to": "0xd29b4e743f7b84d63fbf9149b6d983df2ef5c952",
        "gas": "0x9837",
        "value": "0x0",
        "input": "0x3151e220000000000000000000000000ce1213507c81576759181a2b795f3c9ae5ede6bd00000000000000000000000000000000000000000000010f0cf064dd59200000",
        "nonce": "0x78c",
        "chainId": "0xaa044c"
      },
      "additionalContracts": [],
      "isFixedGasLimit": false
    },
    {
      "hash": "0x6dd3db64e49becc9bfd795707ff994818ddb96b2ee9264170d1bcb33a2898482",
      "transactionType": "CALL",
      "contractName": null,
      "contractAddress": "0xd29b4e743f7b84d63fbf9149b6d983df2ef5c952",
      "function": "setSmoothingFactor(address,uint256)",
      "arguments": [
        "0xBBc9c6E41E2A402b12992875eDaa0162Ed990212",
        "5000000000000000000000"
      ],
      "transaction": {
        "from": "0x56fd3f2bee130e9867942d0f463a16fbe49b8d81",
        "to": "0xd29b4e743f7b84d63fbf9149b6d983df2ef5c952",
        "gas": "0x9837",
        "value": "0x0",
        "input": "0x3151e220000000000000000000000000bbc9c6e41e2a402b12992875edaa0162ed99021200000000000000000000000000000000000000000000010f0cf064dd59200000",
        "nonce": "0x78d",
        "chainId": "0xaa044c"
      },
      "additionalContracts": [],
      "isFixedGasLimit": false
    },
    {
      "hash": "0x5866df6460d17008e4fa39a8f2dca709467ea7d1c2124bc49351f264216e5919",
      "transactionType": "CALL",
      "contractName": null,
      "contractAddress": "0xd29b4e743f7b84d63fbf9149b6d983df2ef5c952",
      "function": "setSmoothingFactor(address,uint256)",
      "arguments": [
        "0xbAcEE37d31b9f022Ef5d232B9fD53F05a531c169",
        "5000000000000000000000"
      ],
      "transaction": {
        "from": "0x56fd3f2bee130e9867942d0f463a16fbe49b8d81",
        "to": "0xd29b4e743f7b84d63fbf9149b6d983df2ef5c952",
        "gas": "0x9837",
        "value": "0x0",
        "input": "0x3151e220000000000000000000000000bacee37d31b9f022ef5d232b9fd53f05a531c16900000000000000000000000000000000000000000000010f0cf064dd59200000",
        "nonce": "0x78e",
        "chainId": "0xaa044c"
      },
      "additionalContracts": [],
      "isFixedGasLimit": false
    },
    {
      "hash": "0x1b5aa2627b9be5c032cd93a9063a6c3ba72196eda9e0e93050047018a5352856",
      "transactionType": "CALL",
      "contractName": null,
      "contractAddress": "0xd29b4e743f7b84d63fbf9149b6d983df2ef5c952",
      "function": "setSmoothingFactor(address,uint256)",
      "arguments": [
        "0x341E2A8b5b52B54F1794DDbdD54e433746C65d60",
        "5000000000000000000000"
      ],
      "transaction": {
        "from": "0x56fd3f2bee130e9867942d0f463a16fbe49b8d81",
        "to": "0xd29b4e743f7b84d63fbf9149b6d983df2ef5c952",
        "gas": "0x9837",
        "value": "0x0",
        "input": "0x3151e220000000000000000000000000341e2a8b5b52b54f1794ddbdd54e433746c65d6000000000000000000000000000000000000000000000010f0cf064dd59200000",
        "nonce": "0x78f",
        "chainId": "0xaa044c"
      },
      "additionalContracts": [],
      "isFixedGasLimit": false
    },
    {
      "hash": "0xf1d5549c0845b83848ee6ea6d6d6bc8a60e79c154c0aed8d2ecabe319b34b5b5",
      "transactionType": "CALL",
      "contractName": null,
      "contractAddress": "0xd29b4e743f7b84d63fbf9149b6d983df2ef5c952",
      "function": "setSmoothingFactor(address,uint256)",
      "arguments": [
        "0x7149632514c5BAA315520Ab9d12556D9C67F15E0",
        "5000000000000000000000"
      ],
      "transaction": {
        "from": "0x56fd3f2bee130e9867942d0f463a16fbe49b8d81",
        "to": "0xd29b4e743f7b84d63fbf9149b6d983df2ef5c952",
        "gas": "0x9837",
        "value": "0x0",
        "input": "0x3151e2200000000000000000000000007149632514c5baa315520ab9d12556d9c67f15e000000000000000000000000000000000000000000000010f0cf064dd59200000",
        "nonce": "0x790",
        "chainId": "0xaa044c"
      },
      "additionalContracts": [],
      "isFixedGasLimit": false
    },
    {
      "hash": "0xb9388e8f583b5dca7f836d71085983e390a67df9fc87a2870e73ad7610635251",
      "transactionType": "CALL",
      "contractName": null,
      "contractAddress": "0xd29b4e743f7b84d63fbf9149b6d983df2ef5c952",
      "function": "setSmoothingFactor(address,uint256)",
      "arguments": [
        "0xbB776CD80Bab1E658A6a8685580751166145121F",
        "5000000000000000000000"
      ],
      "transaction": {
        "from": "0x56fd3f2bee130e9867942d0f463a16fbe49b8d81",
        "to": "0xd29b4e743f7b84d63fbf9149b6d983df2ef5c952",
        "gas": "0x9837",
        "value": "0x0",
        "input": "0x3151e220000000000000000000000000bb776cd80bab1e658a6a8685580751166145121f00000000000000000000000000000000000000000000010f0cf064dd59200000",
        "nonce": "0x791",
        "chainId": "0xaa044c"
      },
      "additionalContracts": [],
      "isFixedGasLimit": false
    },
    {
      "hash": "0x88b6dc0e08409c7db7397a1721f2bdf2a953ec3327a4e2a0bda912573caf6681",
      "transactionType": "CALL",
      "contractName": null,
      "contractAddress": "0xd29b4e743f7b84d63fbf9149b6d983df2ef5c952",
      "function": "setSmoothingFactor(address,uint256)",
      "arguments": [
        "0xAe5eEe6815b8529847955d19522858806Bca8217",
        "5000000000000000000000"
      ],
      "transaction": {
        "from": "0x56fd3f2bee130e9867942d0f463a16fbe49b8d81",
        "to": "0xd29b4e743f7b84d63fbf9149b6d983df2ef5c952",
        "gas": "0x9837",
        "value": "0x0",
        "input": "0x3151e220000000000000000000000000ae5eee6815b8529847955d19522858806bca821700000000000000000000000000000000000000000000010f0cf064dd59200000",
        "nonce": "0x792",
        "chainId": "0xaa044c"
      },
      "additionalContracts": [],
      "isFixedGasLimit": false
    },
    {
      "hash": "0xf37bfa19b062d12e635cade3ab73ba26cd26b50e31d440198c9d368a3edf94d6",
      "transactionType": "CALL",
      "contractName": null,
      "contractAddress": "0xd29b4e743f7b84d63fbf9149b6d983df2ef5c952",
      "function": "setSmoothingFactor(address,uint256)",
      "arguments": [
        "0x53F7dC47aB9273C2d83c2Df557F3FcF1e6A9Ee10",
        "5000000000000000000000"
      ],
      "transaction": {
        "from": "0x56fd3f2bee130e9867942d0f463a16fbe49b8d81",
        "to": "0xd29b4e743f7b84d63fbf9149b6d983df2ef5c952",
        "gas": "0x9837",
        "value": "0x0",
        "input": "0x3151e22000000000000000000000000053f7dc47ab9273c2d83c2df557f3fcf1e6a9ee1000000000000000000000000000000000000000000000010f0cf064dd59200000",
        "nonce": "0x793",
        "chainId": "0xaa044c"
      },
      "additionalContracts": [],
      "isFixedGasLimit": false
    },
    {
      "hash": "0xf8cb309a9ffdd8913b1e1abb6dc8175688810522805552b2faa25fc41be18b4f",
      "transactionType": "CALL",
      "contractName": null,
      "contractAddress": "0xd29b4e743f7b84d63fbf9149b6d983df2ef5c952",
      "function": "setSmoothingFactor(address,uint256)",
      "arguments": [
        "0xc9dbD89FCe5710C91c35Ed9af1dc93fA090A28B0",
        "5000000000000000000000"
      ],
      "transaction": {
        "from": "0x56fd3f2bee130e9867942d0f463a16fbe49b8d81",
        "to": "0xd29b4e743f7b84d63fbf9149b6d983df2ef5c952",
        "gas": "0x9837",
        "value": "0x0",
        "input": "0x3151e220000000000000000000000000c9dbd89fce5710c91c35ed9af1dc93fa090a28b000000000000000000000000000000000000000000000010f0cf064dd59200000",
        "nonce": "0x794",
        "chainId": "0xaa044c"
      },
      "additionalContracts": [],
      "isFixedGasLimit": false
    },
    {
      "hash": "0xd726bb64dba9ddf91ecf03e782e220dd0b208d7929b88bcfaf4720f1557ff51c",
      "transactionType": "CALL",
      "contractName": null,
      "contractAddress": "0xd29b4e743f7b84d63fbf9149b6d983df2ef5c952",
      "function": "setSmoothingFactor(address,uint256)",
      "arguments": [
        "0x864Ea534d6992F3721000cdB6585b11E7046D5ec",
        "5000000000000000000000"
      ],
      "transaction": {
        "from": "0x56fd3f2bee130e9867942d0f463a16fbe49b8d81",
        "to": "0xd29b4e743f7b84d63fbf9149b6d983df2ef5c952",
        "gas": "0x9826",
        "value": "0x0",
        "input": "0x3151e220000000000000000000000000864ea534d6992f3721000cdb6585b11e7046d5ec00000000000000000000000000000000000000000000010f0cf064dd59200000",
        "nonce": "0x795",
        "chainId": "0xaa044c"
      },
      "additionalContracts": [],
      "isFixedGasLimit": false
    },
    {
      "hash": "0x3d2be9a153d00c87c7dc0415b59f8865d378f55cbadea37acd279ab0281da9b4",
      "transactionType": "CALL",
      "contractName": null,
      "contractAddress": "0xd29b4e743f7b84d63fbf9149b6d983df2ef5c952",
      "function": "setSmoothingFactor(address,uint256)",
      "arguments": [
        "0x4F2746E21A13Ea9A8A832D929CDBf32ffC113A2C",
        "5000000000000000000000"
      ],
      "transaction": {
        "from": "0x56fd3f2bee130e9867942d0f463a16fbe49b8d81",
        "to": "0xd29b4e743f7b84d63fbf9149b6d983df2ef5c952",
        "gas": "0x9837",
        "value": "0x0",
        "input": "0x3151e2200000000000000000000000004f2746e21a13ea9a8a832d929cdbf32ffc113a2c00000000000000000000000000000000000000000000010f0cf064dd59200000",
        "nonce": "0x796",
        "chainId": "0xaa044c"
      },
      "additionalContracts": [],
      "isFixedGasLimit": false
    },
    {
      "hash": "0xd3980ce32561c87845a5809a022d1cd6fb780936714e2001512e13c2761004aa",
      "transactionType": "CALL",
      "contractName": null,
      "contractAddress": "0xd29b4e743f7b84d63fbf9149b6d983df2ef5c952",
      "function": "setSmoothingFactor(address,uint256)",
      "arguments": [
        "0x403EA4186ce479fF162636c37fDf4086bD286F8c",
        "5000000000000000000000"
      ],
      "transaction": {
        "from": "0x56fd3f2bee130e9867942d0f463a16fbe49b8d81",
        "to": "0xd29b4e743f7b84d63fbf9149b6d983df2ef5c952",
        "gas": "0x9837",
        "value": "0x0",
        "input": "0x3151e220000000000000000000000000403ea4186ce479ff162636c37fdf4086bd286f8c00000000000000000000000000000000000000000000010f0cf064dd59200000",
        "nonce": "0x797",
        "chainId": "0xaa044c"
      },
      "additionalContracts": [],
      "isFixedGasLimit": false
    },
    {
      "hash": "0x9d81aca5457c8827c975be463cb9c692ef151d1d7917390486c8e8291b37793c",
      "transactionType": "CALL",
      "contractName": null,
      "contractAddress": "0xd29b4e743f7b84d63fbf9149b6d983df2ef5c952",
      "function": "setSmoothingFactor(address,uint256)",
      "arguments": [
        "0xe7cDDEDC3dCA1674b70c347c814c8A9fCf8F68C9",
        "5000000000000000000000"
      ],
      "transaction": {
        "from": "0x56fd3f2bee130e9867942d0f463a16fbe49b8d81",
        "to": "0xd29b4e743f7b84d63fbf9149b6d983df2ef5c952",
        "gas": "0x9837",
        "value": "0x0",
        "input": "0x3151e220000000000000000000000000e7cddedc3dca1674b70c347c814c8a9fcf8f68c900000000000000000000000000000000000000000000010f0cf064dd59200000",
        "nonce": "0x798",
        "chainId": "0xaa044c"
      },
      "additionalContracts": [],
      "isFixedGasLimit": false
    },
    {
      "hash": "0xc821335837c9050a2e370a50b7ba1136be670a25b70a76ed570d0a5eeaa781a0",
      "transactionType": "CALL",
      "contractName": null,
      "contractAddress": "0x578bd46003b9d3fd4c3c3f47c98b329562a6a1de",
      "function": "toggleBreaker(address,address,bool)",
      "arguments": [
        "0xd29B4e743F7B84D63fBF9149B6D983DF2eF5C952",
        "0xC443D8C40D321B34f815eaC76a7620FB06F9E8a4",
        "true"
      ],
      "transaction": {
        "from": "0x56fd3f2bee130e9867942d0f463a16fbe49b8d81",
        "to": "0x578bd46003b9d3fd4c3c3f47c98b329562a6a1de",
        "gas": "0x29814",
        "value": "0x0",
        "input": "0x0c607146000000000000000000000000d29b4e743f7b84d63fbf9149b6d983df2ef5c952000000000000000000000000c443d8c40d321b34f815eac76a7620fb06f9e8a40000000000000000000000000000000000000000000000000000000000000001",
        "nonce": "0x799",
        "chainId": "0xaa044c"
      },
      "additionalContracts": [],
      "isFixedGasLimit": false
    },
    {
      "hash": "0x63913dfaf1e4fab216bde5e2aab89392e7af93ee07ab02f45503cd2331c4370b",
      "transactionType": "CALL",
      "contractName": null,
      "contractAddress": "0x578bd46003b9d3fd4c3c3f47c98b329562a6a1de",
      "function": "toggleBreaker(address,address,bool)",
      "arguments": [
        "0xd29B4e743F7B84D63fBF9149B6D983DF2eF5C952",
        "0x5D5a22116233BDb2a9C2977279cC348B8b8Ce917",
        "true"
      ],
      "transaction": {
        "from": "0x56fd3f2bee130e9867942d0f463a16fbe49b8d81",
        "to": "0x578bd46003b9d3fd4c3c3f47c98b329562a6a1de",
        "gas": "0x29814",
        "value": "0x0",
        "input": "0x0c607146000000000000000000000000d29b4e743f7b84d63fbf9149b6d983df2ef5c9520000000000000000000000005d5a22116233bdb2a9c2977279cc348b8b8ce9170000000000000000000000000000000000000000000000000000000000000001",
        "nonce": "0x79a",
        "chainId": "0xaa044c"
      },
      "additionalContracts": [],
      "isFixedGasLimit": false
    },
    {
      "hash": "0xb69661d0e40f090124a6ebafdfc8b340ea06cfc7034d423f9e5ed862d8bed508",
      "transactionType": "CALL",
      "contractName": null,
      "contractAddress": "0x578bd46003b9d3fd4c3c3f47c98b329562a6a1de",
      "function": "toggleBreaker(address,address,bool)",
      "arguments": [
        "0xd29B4e743F7B84D63fBF9149B6D983DF2eF5C952",
        "0xCE1213507c81576759181A2b795f3c9aE5ede6bd",
        "true"
      ],
      "transaction": {
        "from": "0x56fd3f2bee130e9867942d0f463a16fbe49b8d81",
        "to": "0x578bd46003b9d3fd4c3c3f47c98b329562a6a1de",
        "gas": "0x29814",
        "value": "0x0",
        "input": "0x0c607146000000000000000000000000d29b4e743f7b84d63fbf9149b6d983df2ef5c952000000000000000000000000ce1213507c81576759181a2b795f3c9ae5ede6bd0000000000000000000000000000000000000000000000000000000000000001",
        "nonce": "0x79b",
        "chainId": "0xaa044c"
      },
      "additionalContracts": [],
      "isFixedGasLimit": false
    },
    {
      "hash": "0xa14f4cf864115883f8f42afcc69195836122b3594ec6c485b70d1b511b70fd11",
      "transactionType": "CALL",
      "contractName": null,
      "contractAddress": "0x578bd46003b9d3fd4c3c3f47c98b329562a6a1de",
      "function": "toggleBreaker(address,address,bool)",
      "arguments": [
        "0xd29B4e743F7B84D63fBF9149B6D983DF2eF5C952",
        "0xBBc9c6E41E2A402b12992875eDaa0162Ed990212",
        "true"
      ],
      "transaction": {
        "from": "0x56fd3f2bee130e9867942d0f463a16fbe49b8d81",
        "to": "0x578bd46003b9d3fd4c3c3f47c98b329562a6a1de",
        "gas": "0x29814",
        "value": "0x0",
        "input": "0x0c607146000000000000000000000000d29b4e743f7b84d63fbf9149b6d983df2ef5c952000000000000000000000000bbc9c6e41e2a402b12992875edaa0162ed9902120000000000000000000000000000000000000000000000000000000000000001",
        "nonce": "0x79c",
        "chainId": "0xaa044c"
      },
      "additionalContracts": [],
      "isFixedGasLimit": false
    },
    {
      "hash": "0xec0fd5ccf2ff340cb915b129901364a11172bb14edd0cb5349e1afdf5858c093",
      "transactionType": "CALL",
      "contractName": null,
      "contractAddress": "0x578bd46003b9d3fd4c3c3f47c98b329562a6a1de",
      "function": "toggleBreaker(address,address,bool)",
      "arguments": [
        "0xd29B4e743F7B84D63fBF9149B6D983DF2eF5C952",
        "0xbAcEE37d31b9f022Ef5d232B9fD53F05a531c169",
        "true"
      ],
      "transaction": {
        "from": "0x56fd3f2bee130e9867942d0f463a16fbe49b8d81",
        "to": "0x578bd46003b9d3fd4c3c3f47c98b329562a6a1de",
        "gas": "0x29814",
        "value": "0x0",
        "input": "0x0c607146000000000000000000000000d29b4e743f7b84d63fbf9149b6d983df2ef5c952000000000000000000000000bacee37d31b9f022ef5d232b9fd53f05a531c1690000000000000000000000000000000000000000000000000000000000000001",
        "nonce": "0x79d",
        "chainId": "0xaa044c"
      },
      "additionalContracts": [],
      "isFixedGasLimit": false
    },
    {
      "hash": "0x0405145e9c7096bb2b132cf4922a15cbf83cdef262e330885df44585fda66bdd",
      "transactionType": "CALL",
      "contractName": null,
      "contractAddress": "0x578bd46003b9d3fd4c3c3f47c98b329562a6a1de",
      "function": "toggleBreaker(address,address,bool)",
      "arguments": [
        "0xd29B4e743F7B84D63fBF9149B6D983DF2eF5C952",
        "0x341E2A8b5b52B54F1794DDbdD54e433746C65d60",
        "true"
      ],
      "transaction": {
        "from": "0x56fd3f2bee130e9867942d0f463a16fbe49b8d81",
        "to": "0x578bd46003b9d3fd4c3c3f47c98b329562a6a1de",
        "gas": "0x29814",
        "value": "0x0",
        "input": "0x0c607146000000000000000000000000d29b4e743f7b84d63fbf9149b6d983df2ef5c952000000000000000000000000341e2a8b5b52b54f1794ddbdd54e433746c65d600000000000000000000000000000000000000000000000000000000000000001",
        "nonce": "0x79e",
        "chainId": "0xaa044c"
      },
      "additionalContracts": [],
      "isFixedGasLimit": false
    },
    {
      "hash": "0xf689c54c6dec8215412d5d153cb1e117ee5b5b5d46f127f522e4cb0077783dc6",
      "transactionType": "CALL",
      "contractName": null,
      "contractAddress": "0x578bd46003b9d3fd4c3c3f47c98b329562a6a1de",
      "function": "toggleBreaker(address,address,bool)",
      "arguments": [
        "0xd29B4e743F7B84D63fBF9149B6D983DF2eF5C952",
        "0x7149632514c5BAA315520Ab9d12556D9C67F15E0",
        "true"
      ],
      "transaction": {
        "from": "0x56fd3f2bee130e9867942d0f463a16fbe49b8d81",
        "to": "0x578bd46003b9d3fd4c3c3f47c98b329562a6a1de",
        "gas": "0x29814",
        "value": "0x0",
        "input": "0x0c607146000000000000000000000000d29b4e743f7b84d63fbf9149b6d983df2ef5c9520000000000000000000000007149632514c5baa315520ab9d12556d9c67f15e00000000000000000000000000000000000000000000000000000000000000001",
        "nonce": "0x79f",
        "chainId": "0xaa044c"
      },
      "additionalContracts": [],
      "isFixedGasLimit": false
    },
    {
      "hash": "0xcb93bfde316e317b88fea8d909a7d815b26ca7f13ffc1067ff61a1558c743b59",
      "transactionType": "CALL",
      "contractName": null,
      "contractAddress": "0x578bd46003b9d3fd4c3c3f47c98b329562a6a1de",
      "function": "toggleBreaker(address,address,bool)",
      "arguments": [
        "0xd29B4e743F7B84D63fBF9149B6D983DF2eF5C952",
        "0xbB776CD80Bab1E658A6a8685580751166145121F",
        "true"
      ],
      "transaction": {
        "from": "0x56fd3f2bee130e9867942d0f463a16fbe49b8d81",
        "to": "0x578bd46003b9d3fd4c3c3f47c98b329562a6a1de",
        "gas": "0x29814",
        "value": "0x0",
        "input": "0x0c607146000000000000000000000000d29b4e743f7b84d63fbf9149b6d983df2ef5c952000000000000000000000000bb776cd80bab1e658a6a8685580751166145121f0000000000000000000000000000000000000000000000000000000000000001",
        "nonce": "0x7a0",
        "chainId": "0xaa044c"
      },
      "additionalContracts": [],
      "isFixedGasLimit": false
    },
    {
      "hash": "0xfbebf22ce69c4ce06fb100c0be2b49d2de0d1bedb4671b465a644203caa1bb65",
      "transactionType": "CALL",
      "contractName": null,
      "contractAddress": "0x578bd46003b9d3fd4c3c3f47c98b329562a6a1de",
      "function": "toggleBreaker(address,address,bool)",
      "arguments": [
        "0xd29B4e743F7B84D63fBF9149B6D983DF2eF5C952",
        "0xAe5eEe6815b8529847955d19522858806Bca8217",
        "true"
      ],
      "transaction": {
        "from": "0x56fd3f2bee130e9867942d0f463a16fbe49b8d81",
        "to": "0x578bd46003b9d3fd4c3c3f47c98b329562a6a1de",
        "gas": "0x29814",
        "value": "0x0",
        "input": "0x0c607146000000000000000000000000d29b4e743f7b84d63fbf9149b6d983df2ef5c952000000000000000000000000ae5eee6815b8529847955d19522858806bca82170000000000000000000000000000000000000000000000000000000000000001",
        "nonce": "0x7a1",
        "chainId": "0xaa044c"
      },
      "additionalContracts": [],
      "isFixedGasLimit": false
    },
    {
      "hash": "0x5396b14ce007bc221c64b7c84cbe8eedc6b57909eaac5e0a7c2a3bd20ff0743f",
      "transactionType": "CALL",
      "contractName": null,
      "contractAddress": "0x578bd46003b9d3fd4c3c3f47c98b329562a6a1de",
      "function": "toggleBreaker(address,address,bool)",
      "arguments": [
        "0xd29B4e743F7B84D63fBF9149B6D983DF2eF5C952",
        "0x53F7dC47aB9273C2d83c2Df557F3FcF1e6A9Ee10",
        "true"
      ],
      "transaction": {
        "from": "0x56fd3f2bee130e9867942d0f463a16fbe49b8d81",
        "to": "0x578bd46003b9d3fd4c3c3f47c98b329562a6a1de",
        "gas": "0x29814",
        "value": "0x0",
        "input": "0x0c607146000000000000000000000000d29b4e743f7b84d63fbf9149b6d983df2ef5c95200000000000000000000000053f7dc47ab9273c2d83c2df557f3fcf1e6a9ee100000000000000000000000000000000000000000000000000000000000000001",
        "nonce": "0x7a2",
        "chainId": "0xaa044c"
      },
      "additionalContracts": [],
      "isFixedGasLimit": false
    },
    {
      "hash": "0x8ef20007e9eed87588eb6e345aee9527e97455175e5c7b6eef40fec7269bc5ec",
      "transactionType": "CALL",
      "contractName": null,
      "contractAddress": "0x578bd46003b9d3fd4c3c3f47c98b329562a6a1de",
      "function": "toggleBreaker(address,address,bool)",
      "arguments": [
        "0xd29B4e743F7B84D63fBF9149B6D983DF2eF5C952",
        "0xc9dbD89FCe5710C91c35Ed9af1dc93fA090A28B0",
        "true"
      ],
      "transaction": {
        "from": "0x56fd3f2bee130e9867942d0f463a16fbe49b8d81",
        "to": "0x578bd46003b9d3fd4c3c3f47c98b329562a6a1de",
        "gas": "0x29814",
        "value": "0x0",
        "input": "0x0c607146000000000000000000000000d29b4e743f7b84d63fbf9149b6d983df2ef5c952000000000000000000000000c9dbd89fce5710c91c35ed9af1dc93fa090a28b00000000000000000000000000000000000000000000000000000000000000001",
        "nonce": "0x7a3",
        "chainId": "0xaa044c"
      },
      "additionalContracts": [],
      "isFixedGasLimit": false
    },
    {
      "hash": "0x3d95b7c559af356c563c89edc528e254d74e91c255a3231c7c01adfdffe0cc6d",
      "transactionType": "CALL",
      "contractName": null,
      "contractAddress": "0x578bd46003b9d3fd4c3c3f47c98b329562a6a1de",
      "function": "toggleBreaker(address,address,bool)",
      "arguments": [
        "0xd29B4e743F7B84D63fBF9149B6D983DF2eF5C952",
        "0x864Ea534d6992F3721000cdB6585b11E7046D5ec",
        "true"
      ],
      "transaction": {
        "from": "0x56fd3f2bee130e9867942d0f463a16fbe49b8d81",
        "to": "0x578bd46003b9d3fd4c3c3f47c98b329562a6a1de",
        "gas": "0x2731f",
        "value": "0x0",
        "input": "0x0c607146000000000000000000000000d29b4e743f7b84d63fbf9149b6d983df2ef5c952000000000000000000000000864ea534d6992f3721000cdb6585b11e7046d5ec0000000000000000000000000000000000000000000000000000000000000001",
        "nonce": "0x7a4",
        "chainId": "0xaa044c"
      },
      "additionalContracts": [],
      "isFixedGasLimit": false
    },
    {
      "hash": "0x10ebdb3ec96a6deb813eb72f724754f378b29b3c4aaab1d5f81f7e2da7e42f58",
      "transactionType": "CALL",
      "contractName": null,
      "contractAddress": "0x578bd46003b9d3fd4c3c3f47c98b329562a6a1de",
      "function": "toggleBreaker(address,address,bool)",
      "arguments": [
        "0xd29B4e743F7B84D63fBF9149B6D983DF2eF5C952",
        "0x4F2746E21A13Ea9A8A832D929CDBf32ffC113A2C",
        "true"
      ],
      "transaction": {
        "from": "0x56fd3f2bee130e9867942d0f463a16fbe49b8d81",
        "to": "0x578bd46003b9d3fd4c3c3f47c98b329562a6a1de",
        "gas": "0x29814",
        "value": "0x0",
        "input": "0x0c607146000000000000000000000000d29b4e743f7b84d63fbf9149b6d983df2ef5c9520000000000000000000000004f2746e21a13ea9a8a832d929cdbf32ffc113a2c0000000000000000000000000000000000000000000000000000000000000001",
        "nonce": "0x7a5",
        "chainId": "0xaa044c"
      },
      "additionalContracts": [],
      "isFixedGasLimit": false
    },
    {
      "hash": "0x35ee9655be4608a459b6685a50dddff902f1a04e72a3e841315e133d0b7d92ba",
      "transactionType": "CALL",
      "contractName": null,
      "contractAddress": "0x578bd46003b9d3fd4c3c3f47c98b329562a6a1de",
      "function": "toggleBreaker(address,address,bool)",
      "arguments": [
        "0xd29B4e743F7B84D63fBF9149B6D983DF2eF5C952",
        "0x403EA4186ce479fF162636c37fDf4086bD286F8c",
        "true"
      ],
      "transaction": {
        "from": "0x56fd3f2bee130e9867942d0f463a16fbe49b8d81",
        "to": "0x578bd46003b9d3fd4c3c3f47c98b329562a6a1de",
        "gas": "0x29814",
        "value": "0x0",
        "input": "0x0c607146000000000000000000000000d29b4e743f7b84d63fbf9149b6d983df2ef5c952000000000000000000000000403ea4186ce479ff162636c37fdf4086bd286f8c0000000000000000000000000000000000000000000000000000000000000001",
        "nonce": "0x7a6",
        "chainId": "0xaa044c"
      },
      "additionalContracts": [],
      "isFixedGasLimit": false
    },
    {
      "hash": "0x84365e2493d462284c24d80e7b7d27c86f88942cd822cb54515d75c5640deffc",
      "transactionType": "CALL",
      "contractName": null,
      "contractAddress": "0x578bd46003b9d3fd4c3c3f47c98b329562a6a1de",
      "function": "toggleBreaker(address,address,bool)",
      "arguments": [
        "0xd29B4e743F7B84D63fBF9149B6D983DF2eF5C952",
        "0xe7cDDEDC3dCA1674b70c347c814c8A9fCf8F68C9",
        "true"
      ],
      "transaction": {
        "from": "0x56fd3f2bee130e9867942d0f463a16fbe49b8d81",
        "to": "0x578bd46003b9d3fd4c3c3f47c98b329562a6a1de",
        "gas": "0x29814",
        "value": "0x0",
        "input": "0x0c607146000000000000000000000000d29b4e743f7b84d63fbf9149b6d983df2ef5c952000000000000000000000000e7cddedc3dca1674b70c347c814c8a9fcf8f68c90000000000000000000000000000000000000000000000000000000000000001",
        "nonce": "0x7a7",
        "chainId": "0xaa044c"
      },
      "additionalContracts": [],
      "isFixedGasLimit": false
    },
    {
      "hash": "0xfd394a44781f71eec1646252c5ff0f8b9973962b4ea0d1b369819d1c6c6e2842",
      "transactionType": "CALL",
      "contractName": null,
      "contractAddress": "0xfaa7ca2b056e60f6733ae75aa0709140a6eafd20",
      "function": "setBreakerBox(address)",
      "arguments": [
        "0x578bD46003B9D3fd4c3C3f47c98B329562a6a1dE"
      ],
      "transaction": {
        "from": "0x56fd3f2bee130e9867942d0f463a16fbe49b8d81",
        "to": "0xfaa7ca2b056e60f6733ae75aa0709140a6eafd20",
        "gas": "0xbac0",
        "value": "0x0",
        "input": "0x040bbd35000000000000000000000000578bd46003b9d3fd4c3c3f47c98b329562a6a1de",
        "nonce": "0x7a8",
        "chainId": "0xaa044c"
      },
      "additionalContracts": [],
      "isFixedGasLimit": false
    },
    {
      "hash": "0x9edbcb633cc94e0a4ea7f3d61b25a63de46e7e1d69622a9387555da2ada019c5",
      "transactionType": "CALL",
      "contractName": null,
      "contractAddress": "0x578bd46003b9d3fd4c3c3f47c98b329562a6a1de",
      "function": "setRateFeedDependencies(address,address[])",
      "arguments": [
        "0xBBc9c6E41E2A402b12992875eDaa0162Ed990212",
        "[0x40dC8528167557353fdcD98548AB2139A670Dd0b]"
      ],
      "transaction": {
        "from": "0x56fd3f2bee130e9867942d0f463a16fbe49b8d81",
        "to": "0x578bd46003b9d3fd4c3c3f47c98b329562a6a1de",
        "gas": "0xbf6a",
        "value": "0x0",
        "input": "0x87efb0b5000000000000000000000000bbc9c6e41e2a402b12992875edaa0162ed9902120000000000000000000000000000000000000000000000000000000000000040000000000000000000000000000000000000000000000000000000000000000100000000000000000000000040dc8528167557353fdcd98548ab2139a670dd0b",
        "nonce": "0x7a9",
        "chainId": "0xaa044c"
      },
      "additionalContracts": [],
      "isFixedGasLimit": false
    }
  ],
  "receipts": [
    {
      "status": "0x1",
      "cumulativeGasUsed": "0x15c8a",
      "logs": [
        {
          "address": "0x03cdf2966185eb0b980f2481ad386b8afdab4534",
          "topics": [
            "0xa62a59cb391b90466127d5c2ae9c7cfb59877763680d974867d6abe0c4fd52cb"
          ],
          "data": "0x000000000000000000000000a1a8003936862e7a15092a91898d69fa8bce290c00000000000000000000000000000000000000000000d3c21bcecceda1000000",
          "blockHash": "0xbdca3c8ec700db66a2ef08300ca345a77b96a343002af2d820744bf5bb00133e",
          "blockNumber": "0x433198",
          "transactionHash": "0xafd44559c7e6e4ae51f9b1f386388051f421db319bc6fbc0f367211bbd94295e",
          "transactionIndex": "0x1",
          "logIndex": "0x0",
          "removed": false
        },
        {
          "address": "0x03cdf2966185eb0b980f2481ad386b8afdab4534",
          "topics": [
            "0xa62a59cb391b90466127d5c2ae9c7cfb59877763680d974867d6abe0c4fd52cb"
          ],
          "data": "0x000000000000000000000000e06c10c63377cd098b589c0b90314bfb5575155800000000000000000000000000000000000000000000d3c21bcecceda1000000",
          "blockHash": "0xbdca3c8ec700db66a2ef08300ca345a77b96a343002af2d820744bf5bb00133e",
          "blockNumber": "0x433198",
          "transactionHash": "0xafd44559c7e6e4ae51f9b1f386388051f421db319bc6fbc0f367211bbd94295e",
          "transactionIndex": "0x1",
          "logIndex": "0x1",
          "removed": false
        },
        {
          "address": "0x03cdf2966185eb0b980f2481ad386b8afdab4534",
          "topics": [
            "0xa62a59cb391b90466127d5c2ae9c7cfb59877763680d974867d6abe0c4fd52cb"
          ],
          "data": "0x00000000000000000000000026076b9702885d475ac8c3db3bd9f250dc5a318b00000000000000000000000000000000000000000000d3c21bcecceda1000000",
          "blockHash": "0xbdca3c8ec700db66a2ef08300ca345a77b96a343002af2d820744bf5bb00133e",
          "blockNumber": "0x433198",
          "transactionHash": "0xafd44559c7e6e4ae51f9b1f386388051f421db319bc6fbc0f367211bbd94295e",
          "transactionIndex": "0x1",
          "logIndex": "0x2",
          "removed": false
        },
        {
          "address": "0x03cdf2966185eb0b980f2481ad386b8afdab4534",
          "topics": [
            "0xa62a59cb391b90466127d5c2ae9c7cfb59877763680d974867d6abe0c4fd52cb"
          ],
          "data": "0x00000000000000000000000040dc8528167557353fdcd98548ab2139a670dd0b0000000000000000000000000000000000000000021e984c390cf0b02b200000",
          "blockHash": "0xbdca3c8ec700db66a2ef08300ca345a77b96a343002af2d820744bf5bb00133e",
          "blockNumber": "0x433198",
          "transactionHash": "0xafd44559c7e6e4ae51f9b1f386388051f421db319bc6fbc0f367211bbd94295e",
          "transactionIndex": "0x1",
          "logIndex": "0x3",
          "removed": false
        }
      ],
      "logsBloom": "0x00000000000000000000000000000000000000000000000000000000000000000000000002000000000000000000000000000000000000000000000000000000000000000000000000000000000000000000000000000000000000000000000000000000000000000002010000000000000000000000000000000000000000000000000000000000000000000000000000000000000000000000000000000000000000000000000000000000000000000000000000000000000000000000000000000000000000000000000000000000000000000000000000000100000000000000000000000000000000000000000000000000000004000000000040000000",
      "type": "0x2",
      "transactionHash": "0xafd44559c7e6e4ae51f9b1f386388051f421db319bc6fbc0f367211bbd94295e",
      "transactionIndex": "0x1",
      "blockHash": "0xbdca3c8ec700db66a2ef08300ca345a77b96a343002af2d820744bf5bb00133e",
      "blockNumber": "0x433198",
      "gasUsed": "0xa886",
      "effectiveGasPrice": "0x5d21dba01",
      "from": "0x56fd3f2bee130e9867942d0f463a16fbe49b8d81",
      "to": "0x03cdf2966185eb0b980f2481ad386b8afdab4534",
      "contractAddress": null,
      "l1BaseFeeScalar": "0x0",
      "l1BlobBaseFee": "0x2f5108f",
      "l1BlobBaseFeeScalar": "0x0",
      "l1Fee": "0x0",
      "l1GasPrice": "0x1eba",
      "l1GasUsed": "0xbec"
    },
    {
      "status": "0x1",
      "cumulativeGasUsed": "0x1ca6a",
      "logs": [
        {
          "address": "0xd29b4e743f7b84d63fbf9149b6d983df2ef5c952",
          "topics": [
            "0x6024a1181d4b6670f0122b1101b175bd17051e91a5b57e85972a9187c3f9721c"
          ],
          "data": "0x000000000000000000000000c443d8c40d321b34f815eac76a7620fb06f9e8a40000000000000000000000000000000000000000000000000000000000000001",
          "blockHash": "0xbdca3c8ec700db66a2ef08300ca345a77b96a343002af2d820744bf5bb00133e",
          "blockNumber": "0x433198",
          "transactionHash": "0x7089ca311889b76a8c0b764fd975554a86d7da9d382527269fe71302d8ba1954",
          "transactionIndex": "0x2",
          "logIndex": "0x4",
          "removed": false
        }
      ],
      "logsBloom": "0x00000000000000000000000000000000000000204000000000000000000000000000000000000000000000000000000000000000000000000000000000000000000000000000000000000000000000000000000000000000000000000000000000000000000000000000000000000000000000000000000000000000000000000000000000000000000000000000000000000000000000000000000000000000000000000010000000000000000000000000000000000000000000000000000000000002000000000000000000000000000000002000000000000000000100000000000000000000000000000000000000000000000000000000000000000000",
      "type": "0x2",
      "transactionHash": "0x7089ca311889b76a8c0b764fd975554a86d7da9d382527269fe71302d8ba1954",
      "transactionIndex": "0x2",
      "blockHash": "0xbdca3c8ec700db66a2ef08300ca345a77b96a343002af2d820744bf5bb00133e",
      "blockNumber": "0x433198",
      "gasUsed": "0x6de0",
      "effectiveGasPrice": "0x5d21dba01",
      "from": "0x56fd3f2bee130e9867942d0f463a16fbe49b8d81",
      "to": "0xd29b4e743f7b84d63fbf9149b6d983df2ef5c952",
      "contractAddress": null,
      "l1BaseFeeScalar": "0x0",
      "l1BlobBaseFee": "0x2f5108f",
      "l1BlobBaseFeeScalar": "0x0",
      "l1Fee": "0x0",
      "l1GasPrice": "0x1eba",
      "l1GasUsed": "0x640"
    },
    {
      "status": "0x1",
      "cumulativeGasUsed": "0x2389e",
      "logs": [
        {
          "address": "0xd29b4e743f7b84d63fbf9149b6d983df2ef5c952",
          "topics": [
            "0x6024a1181d4b6670f0122b1101b175bd17051e91a5b57e85972a9187c3f9721c"
          ],
          "data": "0x0000000000000000000000005d5a22116233bdb2a9c2977279cc348b8b8ce91700000000000000000000000000000000000000000000010f0cf064dd59200000",
          "blockHash": "0xbdca3c8ec700db66a2ef08300ca345a77b96a343002af2d820744bf5bb00133e",
          "blockNumber": "0x433198",
          "transactionHash": "0x9762cb481284a5d5992b9da419525999d5d76a00b43ef0fff2563a52aa857615",
          "transactionIndex": "0x3",
          "logIndex": "0x5",
          "removed": false
        }
      ],
      "logsBloom": "0x00000000000000000000000000000000000000204000000000000000000000000000000000000000000000000000000000000000000000000000000000000000000000000000000000000000000000000000000000000000000000000000000000000000000000000000000000000000000000000000000000000000000000000000000000000000000000000000000000000000000000000000000000000000000000000010000000000000000000000000000000000000000000000000000000000002000000000000000000000000000000002000000000000000000100000000000000000000000000000000000000000000000000000000000000000000",
      "type": "0x2",
      "transactionHash": "0x9762cb481284a5d5992b9da419525999d5d76a00b43ef0fff2563a52aa857615",
      "transactionIndex": "0x3",
      "blockHash": "0xbdca3c8ec700db66a2ef08300ca345a77b96a343002af2d820744bf5bb00133e",
      "blockNumber": "0x433198",
      "gasUsed": "0x6e34",
      "effectiveGasPrice": "0x5d21dba01",
      "from": "0x56fd3f2bee130e9867942d0f463a16fbe49b8d81",
      "to": "0xd29b4e743f7b84d63fbf9149b6d983df2ef5c952",
      "contractAddress": null,
      "l1BaseFeeScalar": "0x0",
      "l1BlobBaseFee": "0x2f5108f",
      "l1BlobBaseFeeScalar": "0x0",
      "l1Fee": "0x0",
      "l1GasPrice": "0x1eba",
      "l1GasUsed": "0x640"
    },
    {
      "status": "0x1",
      "cumulativeGasUsed": "0x2a6d2",
      "logs": [
        {
          "address": "0xd29b4e743f7b84d63fbf9149b6d983df2ef5c952",
          "topics": [
            "0x6024a1181d4b6670f0122b1101b175bd17051e91a5b57e85972a9187c3f9721c"
          ],
          "data": "0x000000000000000000000000ce1213507c81576759181a2b795f3c9ae5ede6bd00000000000000000000000000000000000000000000010f0cf064dd59200000",
          "blockHash": "0xbdca3c8ec700db66a2ef08300ca345a77b96a343002af2d820744bf5bb00133e",
          "blockNumber": "0x433198",
          "transactionHash": "0x378cc751ac88456fb42d63e73e56dabbb6618a88c496473b49734c2f448d798d",
          "transactionIndex": "0x4",
          "logIndex": "0x6",
          "removed": false
        }
      ],
      "logsBloom": "0x00000000000000000000000000000000000000204000000000000000000000000000000000000000000000000000000000000000000000000000000000000000000000000000000000000000000000000000000000000000000000000000000000000000000000000000000000000000000000000000000000000000000000000000000000000000000000000000000000000000000000000000000000000000000000000010000000000000000000000000000000000000000000000000000000000002000000000000000000000000000000002000000000000000000100000000000000000000000000000000000000000000000000000000000000000000",
      "type": "0x2",
      "transactionHash": "0x378cc751ac88456fb42d63e73e56dabbb6618a88c496473b49734c2f448d798d",
      "transactionIndex": "0x4",
      "blockHash": "0xbdca3c8ec700db66a2ef08300ca345a77b96a343002af2d820744bf5bb00133e",
      "blockNumber": "0x433198",
      "gasUsed": "0x6e34",
      "effectiveGasPrice": "0x5d21dba01",
      "from": "0x56fd3f2bee130e9867942d0f463a16fbe49b8d81",
      "to": "0xd29b4e743f7b84d63fbf9149b6d983df2ef5c952",
      "contractAddress": null,
      "l1BaseFeeScalar": "0x0",
      "l1BlobBaseFee": "0x2f5108f",
      "l1BlobBaseFeeScalar": "0x0",
      "l1Fee": "0x0",
      "l1GasPrice": "0x1eba",
      "l1GasUsed": "0x640"
    },
    {
      "status": "0x1",
      "cumulativeGasUsed": "0x31506",
      "logs": [
        {
          "address": "0xd29b4e743f7b84d63fbf9149b6d983df2ef5c952",
          "topics": [
            "0x6024a1181d4b6670f0122b1101b175bd17051e91a5b57e85972a9187c3f9721c"
          ],
          "data": "0x000000000000000000000000bbc9c6e41e2a402b12992875edaa0162ed99021200000000000000000000000000000000000000000000010f0cf064dd59200000",
          "blockHash": "0xbdca3c8ec700db66a2ef08300ca345a77b96a343002af2d820744bf5bb00133e",
          "blockNumber": "0x433198",
          "transactionHash": "0x6dd3db64e49becc9bfd795707ff994818ddb96b2ee9264170d1bcb33a2898482",
          "transactionIndex": "0x5",
          "logIndex": "0x7",
          "removed": false
        }
      ],
      "logsBloom": "0x00000000000000000000000000000000000000204000000000000000000000000000000000000000000000000000000000000000000000000000000000000000000000000000000000000000000000000000000000000000000000000000000000000000000000000000000000000000000000000000000000000000000000000000000000000000000000000000000000000000000000000000000000000000000000000010000000000000000000000000000000000000000000000000000000000002000000000000000000000000000000002000000000000000000100000000000000000000000000000000000000000000000000000000000000000000",
      "type": "0x2",
      "transactionHash": "0x6dd3db64e49becc9bfd795707ff994818ddb96b2ee9264170d1bcb33a2898482",
      "transactionIndex": "0x5",
      "blockHash": "0xbdca3c8ec700db66a2ef08300ca345a77b96a343002af2d820744bf5bb00133e",
      "blockNumber": "0x433198",
      "gasUsed": "0x6e34",
      "effectiveGasPrice": "0x5d21dba01",
      "from": "0x56fd3f2bee130e9867942d0f463a16fbe49b8d81",
      "to": "0xd29b4e743f7b84d63fbf9149b6d983df2ef5c952",
      "contractAddress": null,
      "l1BaseFeeScalar": "0x0",
      "l1BlobBaseFee": "0x2f5108f",
      "l1BlobBaseFeeScalar": "0x0",
      "l1Fee": "0x0",
      "l1GasPrice": "0x1eba",
      "l1GasUsed": "0x640"
    },
    {
      "status": "0x1",
      "cumulativeGasUsed": "0x3833a",
      "logs": [
        {
          "address": "0xd29b4e743f7b84d63fbf9149b6d983df2ef5c952",
          "topics": [
            "0x6024a1181d4b6670f0122b1101b175bd17051e91a5b57e85972a9187c3f9721c"
          ],
          "data": "0x000000000000000000000000bacee37d31b9f022ef5d232b9fd53f05a531c16900000000000000000000000000000000000000000000010f0cf064dd59200000",
          "blockHash": "0xbdca3c8ec700db66a2ef08300ca345a77b96a343002af2d820744bf5bb00133e",
          "blockNumber": "0x433198",
          "transactionHash": "0x5866df6460d17008e4fa39a8f2dca709467ea7d1c2124bc49351f264216e5919",
          "transactionIndex": "0x6",
          "logIndex": "0x8",
          "removed": false
        }
      ],
      "logsBloom": "0x00000000000000000000000000000000000000204000000000000000000000000000000000000000000000000000000000000000000000000000000000000000000000000000000000000000000000000000000000000000000000000000000000000000000000000000000000000000000000000000000000000000000000000000000000000000000000000000000000000000000000000000000000000000000000000010000000000000000000000000000000000000000000000000000000000002000000000000000000000000000000002000000000000000000100000000000000000000000000000000000000000000000000000000000000000000",
      "type": "0x2",
      "transactionHash": "0x5866df6460d17008e4fa39a8f2dca709467ea7d1c2124bc49351f264216e5919",
      "transactionIndex": "0x6",
      "blockHash": "0xbdca3c8ec700db66a2ef08300ca345a77b96a343002af2d820744bf5bb00133e",
      "blockNumber": "0x433198",
      "gasUsed": "0x6e34",
      "effectiveGasPrice": "0x5d21dba01",
      "from": "0x56fd3f2bee130e9867942d0f463a16fbe49b8d81",
      "to": "0xd29b4e743f7b84d63fbf9149b6d983df2ef5c952",
      "contractAddress": null,
      "l1BaseFeeScalar": "0x0",
      "l1BlobBaseFee": "0x2f5108f",
      "l1BlobBaseFeeScalar": "0x0",
      "l1Fee": "0x0",
      "l1GasPrice": "0x1eba",
      "l1GasUsed": "0x640"
    },
    {
      "status": "0x1",
      "cumulativeGasUsed": "0x3f16e",
      "logs": [
        {
          "address": "0xd29b4e743f7b84d63fbf9149b6d983df2ef5c952",
          "topics": [
            "0x6024a1181d4b6670f0122b1101b175bd17051e91a5b57e85972a9187c3f9721c"
          ],
          "data": "0x000000000000000000000000341e2a8b5b52b54f1794ddbdd54e433746c65d6000000000000000000000000000000000000000000000010f0cf064dd59200000",
          "blockHash": "0xbdca3c8ec700db66a2ef08300ca345a77b96a343002af2d820744bf5bb00133e",
          "blockNumber": "0x433198",
          "transactionHash": "0x1b5aa2627b9be5c032cd93a9063a6c3ba72196eda9e0e93050047018a5352856",
          "transactionIndex": "0x7",
          "logIndex": "0x9",
          "removed": false
        }
      ],
      "logsBloom": "0x00000000000000000000000000000000000000204000000000000000000000000000000000000000000000000000000000000000000000000000000000000000000000000000000000000000000000000000000000000000000000000000000000000000000000000000000000000000000000000000000000000000000000000000000000000000000000000000000000000000000000000000000000000000000000000010000000000000000000000000000000000000000000000000000000000002000000000000000000000000000000002000000000000000000100000000000000000000000000000000000000000000000000000000000000000000",
      "type": "0x2",
      "transactionHash": "0x1b5aa2627b9be5c032cd93a9063a6c3ba72196eda9e0e93050047018a5352856",
      "transactionIndex": "0x7",
      "blockHash": "0xbdca3c8ec700db66a2ef08300ca345a77b96a343002af2d820744bf5bb00133e",
      "blockNumber": "0x433198",
      "gasUsed": "0x6e34",
      "effectiveGasPrice": "0x5d21dba01",
      "from": "0x56fd3f2bee130e9867942d0f463a16fbe49b8d81",
      "to": "0xd29b4e743f7b84d63fbf9149b6d983df2ef5c952",
      "contractAddress": null,
      "l1BaseFeeScalar": "0x0",
      "l1BlobBaseFee": "0x2f5108f",
      "l1BlobBaseFeeScalar": "0x0",
      "l1Fee": "0x0",
      "l1GasPrice": "0x1eba",
      "l1GasUsed": "0x640"
    },
    {
      "status": "0x1",
      "cumulativeGasUsed": "0x45fa2",
      "logs": [
        {
          "address": "0xd29b4e743f7b84d63fbf9149b6d983df2ef5c952",
          "topics": [
            "0x6024a1181d4b6670f0122b1101b175bd17051e91a5b57e85972a9187c3f9721c"
          ],
          "data": "0x0000000000000000000000007149632514c5baa315520ab9d12556d9c67f15e000000000000000000000000000000000000000000000010f0cf064dd59200000",
          "blockHash": "0xbdca3c8ec700db66a2ef08300ca345a77b96a343002af2d820744bf5bb00133e",
          "blockNumber": "0x433198",
          "transactionHash": "0xf1d5549c0845b83848ee6ea6d6d6bc8a60e79c154c0aed8d2ecabe319b34b5b5",
          "transactionIndex": "0x8",
          "logIndex": "0xa",
          "removed": false
        }
      ],
      "logsBloom": "0x00000000000000000000000000000000000000204000000000000000000000000000000000000000000000000000000000000000000000000000000000000000000000000000000000000000000000000000000000000000000000000000000000000000000000000000000000000000000000000000000000000000000000000000000000000000000000000000000000000000000000000000000000000000000000000010000000000000000000000000000000000000000000000000000000000002000000000000000000000000000000002000000000000000000100000000000000000000000000000000000000000000000000000000000000000000",
      "type": "0x2",
      "transactionHash": "0xf1d5549c0845b83848ee6ea6d6d6bc8a60e79c154c0aed8d2ecabe319b34b5b5",
      "transactionIndex": "0x8",
      "blockHash": "0xbdca3c8ec700db66a2ef08300ca345a77b96a343002af2d820744bf5bb00133e",
      "blockNumber": "0x433198",
      "gasUsed": "0x6e34",
      "effectiveGasPrice": "0x5d21dba01",
      "from": "0x56fd3f2bee130e9867942d0f463a16fbe49b8d81",
      "to": "0xd29b4e743f7b84d63fbf9149b6d983df2ef5c952",
      "contractAddress": null,
      "l1BaseFeeScalar": "0x0",
      "l1BlobBaseFee": "0x2f5108f",
      "l1BlobBaseFeeScalar": "0x0",
      "l1Fee": "0x0",
      "l1GasPrice": "0x1eba",
      "l1GasUsed": "0x640"
    },
    {
      "status": "0x1",
      "cumulativeGasUsed": "0x4cdd6",
      "logs": [
        {
          "address": "0xd29b4e743f7b84d63fbf9149b6d983df2ef5c952",
          "topics": [
            "0x6024a1181d4b6670f0122b1101b175bd17051e91a5b57e85972a9187c3f9721c"
          ],
          "data": "0x000000000000000000000000bb776cd80bab1e658a6a8685580751166145121f00000000000000000000000000000000000000000000010f0cf064dd59200000",
          "blockHash": "0xbdca3c8ec700db66a2ef08300ca345a77b96a343002af2d820744bf5bb00133e",
          "blockNumber": "0x433198",
          "transactionHash": "0xb9388e8f583b5dca7f836d71085983e390a67df9fc87a2870e73ad7610635251",
          "transactionIndex": "0x9",
          "logIndex": "0xb",
          "removed": false
        }
      ],
      "logsBloom": "0x00000000000000000000000000000000000000204000000000000000000000000000000000000000000000000000000000000000000000000000000000000000000000000000000000000000000000000000000000000000000000000000000000000000000000000000000000000000000000000000000000000000000000000000000000000000000000000000000000000000000000000000000000000000000000000010000000000000000000000000000000000000000000000000000000000002000000000000000000000000000000002000000000000000000100000000000000000000000000000000000000000000000000000000000000000000",
      "type": "0x2",
      "transactionHash": "0xb9388e8f583b5dca7f836d71085983e390a67df9fc87a2870e73ad7610635251",
      "transactionIndex": "0x9",
      "blockHash": "0xbdca3c8ec700db66a2ef08300ca345a77b96a343002af2d820744bf5bb00133e",
      "blockNumber": "0x433198",
      "gasUsed": "0x6e34",
      "effectiveGasPrice": "0x5d21dba01",
      "from": "0x56fd3f2bee130e9867942d0f463a16fbe49b8d81",
      "to": "0xd29b4e743f7b84d63fbf9149b6d983df2ef5c952",
      "contractAddress": null,
      "l1BaseFeeScalar": "0x0",
      "l1BlobBaseFee": "0x2f5108f",
      "l1BlobBaseFeeScalar": "0x0",
      "l1Fee": "0x0",
      "l1GasPrice": "0x1eba",
      "l1GasUsed": "0x640"
    },
    {
      "status": "0x1",
      "cumulativeGasUsed": "0x53c0a",
      "logs": [
        {
          "address": "0xd29b4e743f7b84d63fbf9149b6d983df2ef5c952",
          "topics": [
            "0x6024a1181d4b6670f0122b1101b175bd17051e91a5b57e85972a9187c3f9721c"
          ],
          "data": "0x000000000000000000000000ae5eee6815b8529847955d19522858806bca821700000000000000000000000000000000000000000000010f0cf064dd59200000",
          "blockHash": "0xbdca3c8ec700db66a2ef08300ca345a77b96a343002af2d820744bf5bb00133e",
          "blockNumber": "0x433198",
          "transactionHash": "0x88b6dc0e08409c7db7397a1721f2bdf2a953ec3327a4e2a0bda912573caf6681",
          "transactionIndex": "0xa",
          "logIndex": "0xc",
          "removed": false
        }
      ],
      "logsBloom": "0x00000000000000000000000000000000000000204000000000000000000000000000000000000000000000000000000000000000000000000000000000000000000000000000000000000000000000000000000000000000000000000000000000000000000000000000000000000000000000000000000000000000000000000000000000000000000000000000000000000000000000000000000000000000000000000010000000000000000000000000000000000000000000000000000000000002000000000000000000000000000000002000000000000000000100000000000000000000000000000000000000000000000000000000000000000000",
      "type": "0x2",
      "transactionHash": "0x88b6dc0e08409c7db7397a1721f2bdf2a953ec3327a4e2a0bda912573caf6681",
      "transactionIndex": "0xa",
      "blockHash": "0xbdca3c8ec700db66a2ef08300ca345a77b96a343002af2d820744bf5bb00133e",
      "blockNumber": "0x433198",
      "gasUsed": "0x6e34",
      "effectiveGasPrice": "0x5d21dba01",
      "from": "0x56fd3f2bee130e9867942d0f463a16fbe49b8d81",
      "to": "0xd29b4e743f7b84d63fbf9149b6d983df2ef5c952",
      "contractAddress": null,
      "l1BaseFeeScalar": "0x0",
      "l1BlobBaseFee": "0x2f5108f",
      "l1BlobBaseFeeScalar": "0x0",
      "l1Fee": "0x0",
      "l1GasPrice": "0x1eba",
      "l1GasUsed": "0x640"
    },
    {
      "status": "0x1",
      "cumulativeGasUsed": "0x5aa3e",
      "logs": [
        {
          "address": "0xd29b4e743f7b84d63fbf9149b6d983df2ef5c952",
          "topics": [
            "0x6024a1181d4b6670f0122b1101b175bd17051e91a5b57e85972a9187c3f9721c"
          ],
          "data": "0x00000000000000000000000053f7dc47ab9273c2d83c2df557f3fcf1e6a9ee1000000000000000000000000000000000000000000000010f0cf064dd59200000",
          "blockHash": "0xbdca3c8ec700db66a2ef08300ca345a77b96a343002af2d820744bf5bb00133e",
          "blockNumber": "0x433198",
          "transactionHash": "0xf37bfa19b062d12e635cade3ab73ba26cd26b50e31d440198c9d368a3edf94d6",
          "transactionIndex": "0xb",
          "logIndex": "0xd",
          "removed": false
        }
      ],
      "logsBloom": "0x00000000000000000000000000000000000000204000000000000000000000000000000000000000000000000000000000000000000000000000000000000000000000000000000000000000000000000000000000000000000000000000000000000000000000000000000000000000000000000000000000000000000000000000000000000000000000000000000000000000000000000000000000000000000000000010000000000000000000000000000000000000000000000000000000000002000000000000000000000000000000002000000000000000000100000000000000000000000000000000000000000000000000000000000000000000",
      "type": "0x2",
      "transactionHash": "0xf37bfa19b062d12e635cade3ab73ba26cd26b50e31d440198c9d368a3edf94d6",
      "transactionIndex": "0xb",
      "blockHash": "0xbdca3c8ec700db66a2ef08300ca345a77b96a343002af2d820744bf5bb00133e",
      "blockNumber": "0x433198",
      "gasUsed": "0x6e34",
      "effectiveGasPrice": "0x5d21dba01",
      "from": "0x56fd3f2bee130e9867942d0f463a16fbe49b8d81",
      "to": "0xd29b4e743f7b84d63fbf9149b6d983df2ef5c952",
      "contractAddress": null,
      "l1BaseFeeScalar": "0x0",
      "l1BlobBaseFee": "0x2f5108f",
      "l1BlobBaseFeeScalar": "0x0",
      "l1Fee": "0x0",
      "l1GasPrice": "0x1eba",
      "l1GasUsed": "0x640"
    },
    {
      "status": "0x1",
      "cumulativeGasUsed": "0x61872",
      "logs": [
        {
          "address": "0xd29b4e743f7b84d63fbf9149b6d983df2ef5c952",
          "topics": [
            "0x6024a1181d4b6670f0122b1101b175bd17051e91a5b57e85972a9187c3f9721c"
          ],
          "data": "0x000000000000000000000000c9dbd89fce5710c91c35ed9af1dc93fa090a28b000000000000000000000000000000000000000000000010f0cf064dd59200000",
          "blockHash": "0xbdca3c8ec700db66a2ef08300ca345a77b96a343002af2d820744bf5bb00133e",
          "blockNumber": "0x433198",
          "transactionHash": "0xf8cb309a9ffdd8913b1e1abb6dc8175688810522805552b2faa25fc41be18b4f",
          "transactionIndex": "0xc",
          "logIndex": "0xe",
          "removed": false
        }
      ],
      "logsBloom": "0x00000000000000000000000000000000000000204000000000000000000000000000000000000000000000000000000000000000000000000000000000000000000000000000000000000000000000000000000000000000000000000000000000000000000000000000000000000000000000000000000000000000000000000000000000000000000000000000000000000000000000000000000000000000000000000010000000000000000000000000000000000000000000000000000000000002000000000000000000000000000000002000000000000000000100000000000000000000000000000000000000000000000000000000000000000000",
      "type": "0x2",
      "transactionHash": "0xf8cb309a9ffdd8913b1e1abb6dc8175688810522805552b2faa25fc41be18b4f",
      "transactionIndex": "0xc",
      "blockHash": "0xbdca3c8ec700db66a2ef08300ca345a77b96a343002af2d820744bf5bb00133e",
      "blockNumber": "0x433198",
      "gasUsed": "0x6e34",
      "effectiveGasPrice": "0x5d21dba01",
      "from": "0x56fd3f2bee130e9867942d0f463a16fbe49b8d81",
      "to": "0xd29b4e743f7b84d63fbf9149b6d983df2ef5c952",
      "contractAddress": null,
      "l1BaseFeeScalar": "0x0",
      "l1BlobBaseFee": "0x2f5108f",
      "l1BlobBaseFeeScalar": "0x0",
      "l1Fee": "0x0",
      "l1GasPrice": "0x1eba",
      "l1GasUsed": "0x640"
    },
    {
      "status": "0x1",
      "cumulativeGasUsed": "0x6869a",
      "logs": [
        {
          "address": "0xd29b4e743f7b84d63fbf9149b6d983df2ef5c952",
          "topics": [
            "0x6024a1181d4b6670f0122b1101b175bd17051e91a5b57e85972a9187c3f9721c"
          ],
          "data": "0x000000000000000000000000864ea534d6992f3721000cdb6585b11e7046d5ec00000000000000000000000000000000000000000000010f0cf064dd59200000",
          "blockHash": "0xbdca3c8ec700db66a2ef08300ca345a77b96a343002af2d820744bf5bb00133e",
          "blockNumber": "0x433198",
          "transactionHash": "0xd726bb64dba9ddf91ecf03e782e220dd0b208d7929b88bcfaf4720f1557ff51c",
          "transactionIndex": "0xd",
          "logIndex": "0xf",
          "removed": false
        }
      ],
      "logsBloom": "0x00000000000000000000000000000000000000204000000000000000000000000000000000000000000000000000000000000000000000000000000000000000000000000000000000000000000000000000000000000000000000000000000000000000000000000000000000000000000000000000000000000000000000000000000000000000000000000000000000000000000000000000000000000000000000000010000000000000000000000000000000000000000000000000000000000002000000000000000000000000000000002000000000000000000100000000000000000000000000000000000000000000000000000000000000000000",
      "type": "0x2",
      "transactionHash": "0xd726bb64dba9ddf91ecf03e782e220dd0b208d7929b88bcfaf4720f1557ff51c",
      "transactionIndex": "0xd",
      "blockHash": "0xbdca3c8ec700db66a2ef08300ca345a77b96a343002af2d820744bf5bb00133e",
      "blockNumber": "0x433198",
      "gasUsed": "0x6e28",
      "effectiveGasPrice": "0x5d21dba01",
      "from": "0x56fd3f2bee130e9867942d0f463a16fbe49b8d81",
      "to": "0xd29b4e743f7b84d63fbf9149b6d983df2ef5c952",
      "contractAddress": null,
      "l1BaseFeeScalar": "0x0",
      "l1BlobBaseFee": "0x2f5108f",
      "l1BlobBaseFeeScalar": "0x0",
      "l1Fee": "0x0",
      "l1GasPrice": "0x1eba",
      "l1GasUsed": "0x640"
    },
    {
      "status": "0x1",
      "cumulativeGasUsed": "0x6f4ce",
      "logs": [
        {
          "address": "0xd29b4e743f7b84d63fbf9149b6d983df2ef5c952",
          "topics": [
            "0x6024a1181d4b6670f0122b1101b175bd17051e91a5b57e85972a9187c3f9721c"
          ],
          "data": "0x0000000000000000000000004f2746e21a13ea9a8a832d929cdbf32ffc113a2c00000000000000000000000000000000000000000000010f0cf064dd59200000",
          "blockHash": "0xbdca3c8ec700db66a2ef08300ca345a77b96a343002af2d820744bf5bb00133e",
          "blockNumber": "0x433198",
          "transactionHash": "0x3d2be9a153d00c87c7dc0415b59f8865d378f55cbadea37acd279ab0281da9b4",
          "transactionIndex": "0xe",
          "logIndex": "0x10",
          "removed": false
        }
      ],
      "logsBloom": "0x00000000000000000000000000000000000000204000000000000000000000000000000000000000000000000000000000000000000000000000000000000000000000000000000000000000000000000000000000000000000000000000000000000000000000000000000000000000000000000000000000000000000000000000000000000000000000000000000000000000000000000000000000000000000000000010000000000000000000000000000000000000000000000000000000000002000000000000000000000000000000002000000000000000000100000000000000000000000000000000000000000000000000000000000000000000",
      "type": "0x2",
      "transactionHash": "0x3d2be9a153d00c87c7dc0415b59f8865d378f55cbadea37acd279ab0281da9b4",
      "transactionIndex": "0xe",
      "blockHash": "0xbdca3c8ec700db66a2ef08300ca345a77b96a343002af2d820744bf5bb00133e",
      "blockNumber": "0x433198",
      "gasUsed": "0x6e34",
      "effectiveGasPrice": "0x5d21dba01",
      "from": "0x56fd3f2bee130e9867942d0f463a16fbe49b8d81",
      "to": "0xd29b4e743f7b84d63fbf9149b6d983df2ef5c952",
      "contractAddress": null,
      "l1BaseFeeScalar": "0x0",
      "l1BlobBaseFee": "0x2f5108f",
      "l1BlobBaseFeeScalar": "0x0",
      "l1Fee": "0x0",
      "l1GasPrice": "0x1eba",
      "l1GasUsed": "0x640"
    },
    {
      "status": "0x1",
      "cumulativeGasUsed": "0x76302",
      "logs": [
        {
          "address": "0xd29b4e743f7b84d63fbf9149b6d983df2ef5c952",
          "topics": [
            "0x6024a1181d4b6670f0122b1101b175bd17051e91a5b57e85972a9187c3f9721c"
          ],
          "data": "0x000000000000000000000000403ea4186ce479ff162636c37fdf4086bd286f8c00000000000000000000000000000000000000000000010f0cf064dd59200000",
          "blockHash": "0xbdca3c8ec700db66a2ef08300ca345a77b96a343002af2d820744bf5bb00133e",
          "blockNumber": "0x433198",
          "transactionHash": "0xd3980ce32561c87845a5809a022d1cd6fb780936714e2001512e13c2761004aa",
          "transactionIndex": "0xf",
          "logIndex": "0x11",
          "removed": false
        }
      ],
      "logsBloom": "0x00000000000000000000000000000000000000204000000000000000000000000000000000000000000000000000000000000000000000000000000000000000000000000000000000000000000000000000000000000000000000000000000000000000000000000000000000000000000000000000000000000000000000000000000000000000000000000000000000000000000000000000000000000000000000000010000000000000000000000000000000000000000000000000000000000002000000000000000000000000000000002000000000000000000100000000000000000000000000000000000000000000000000000000000000000000",
      "type": "0x2",
      "transactionHash": "0xd3980ce32561c87845a5809a022d1cd6fb780936714e2001512e13c2761004aa",
      "transactionIndex": "0xf",
      "blockHash": "0xbdca3c8ec700db66a2ef08300ca345a77b96a343002af2d820744bf5bb00133e",
      "blockNumber": "0x433198",
      "gasUsed": "0x6e34",
      "effectiveGasPrice": "0x5d21dba01",
      "from": "0x56fd3f2bee130e9867942d0f463a16fbe49b8d81",
      "to": "0xd29b4e743f7b84d63fbf9149b6d983df2ef5c952",
      "contractAddress": null,
      "l1BaseFeeScalar": "0x0",
      "l1BlobBaseFee": "0x2f5108f",
      "l1BlobBaseFeeScalar": "0x0",
      "l1Fee": "0x0",
      "l1GasPrice": "0x1eba",
      "l1GasUsed": "0x640"
    },
    {
      "status": "0x1",
      "cumulativeGasUsed": "0x7d136",
      "logs": [
        {
          "address": "0xd29b4e743f7b84d63fbf9149b6d983df2ef5c952",
          "topics": [
            "0x6024a1181d4b6670f0122b1101b175bd17051e91a5b57e85972a9187c3f9721c"
          ],
          "data": "0x000000000000000000000000e7cddedc3dca1674b70c347c814c8a9fcf8f68c900000000000000000000000000000000000000000000010f0cf064dd59200000",
          "blockHash": "0xbdca3c8ec700db66a2ef08300ca345a77b96a343002af2d820744bf5bb00133e",
          "blockNumber": "0x433198",
          "transactionHash": "0x9d81aca5457c8827c975be463cb9c692ef151d1d7917390486c8e8291b37793c",
          "transactionIndex": "0x10",
          "logIndex": "0x12",
          "removed": false
        }
      ],
      "logsBloom": "0x00000000000000000000000000000000000000204000000000000000000000000000000000000000000000000000000000000000000000000000000000000000000000000000000000000000000000000000000000000000000000000000000000000000000000000000000000000000000000000000000000000000000000000000000000000000000000000000000000000000000000000000000000000000000000000010000000000000000000000000000000000000000000000000000000000002000000000000000000000000000000002000000000000000000100000000000000000000000000000000000000000000000000000000000000000000",
      "type": "0x2",
      "transactionHash": "0x9d81aca5457c8827c975be463cb9c692ef151d1d7917390486c8e8291b37793c",
      "transactionIndex": "0x10",
      "blockHash": "0xbdca3c8ec700db66a2ef08300ca345a77b96a343002af2d820744bf5bb00133e",
      "blockNumber": "0x433198",
      "gasUsed": "0x6e34",
      "effectiveGasPrice": "0x5d21dba01",
      "from": "0x56fd3f2bee130e9867942d0f463a16fbe49b8d81",
      "to": "0xd29b4e743f7b84d63fbf9149b6d983df2ef5c952",
      "contractAddress": null,
      "l1BaseFeeScalar": "0x0",
      "l1BlobBaseFee": "0x2f5108f",
      "l1BlobBaseFeeScalar": "0x0",
      "l1Fee": "0x0",
      "l1GasPrice": "0x1eba",
      "l1GasUsed": "0x640"
    },
    {
      "status": "0x1",
      "cumulativeGasUsed": "0x99749",
      "logs": [
        {
          "address": "0x578bd46003b9d3fd4c3c3f47c98b329562a6a1de",
          "topics": [
            "0x292d7648986a4abc017bc2a39852a675c1e325e24afd18fad659810792d5e405"
          ],
          "data": "0x000000000000000000000000d29b4e743f7b84d63fbf9149b6d983df2ef5c952000000000000000000000000c443d8c40d321b34f815eac76a7620fb06f9e8a40000000000000000000000000000000000000000000000000000000000000001",
          "blockHash": "0xbdca3c8ec700db66a2ef08300ca345a77b96a343002af2d820744bf5bb00133e",
          "blockNumber": "0x433198",
          "transactionHash": "0xc821335837c9050a2e370a50b7ba1136be670a25b70a76ed570d0a5eeaa781a0",
          "transactionIndex": "0x11",
          "logIndex": "0x13",
          "removed": false
        }
      ],
      "logsBloom": "0x00000000000000000000010000000000000000000000000000000000000000000000000000000000000000000000000000000008000000000000000000000000000000000000000000000000000000000000000000000000000000000000000000000000000000000000000000008000000200000000000000000000000000000000000000000000000000000000000000000000000000000000000000000000000000000000000000000000000000000000000000000000000000000000000000000000000000000000000000000000001000000000000000000000000000000000000000000000000000000000000000000000000000000000000010000000",
      "type": "0x2",
      "transactionHash": "0xc821335837c9050a2e370a50b7ba1136be670a25b70a76ed570d0a5eeaa781a0",
      "transactionIndex": "0x11",
      "blockHash": "0xbdca3c8ec700db66a2ef08300ca345a77b96a343002af2d820744bf5bb00133e",
      "blockNumber": "0x433198",
      "gasUsed": "0x1c613",
      "effectiveGasPrice": "0x5d21dba01",
      "from": "0x56fd3f2bee130e9867942d0f463a16fbe49b8d81",
      "to": "0x578bd46003b9d3fd4c3c3f47c98b329562a6a1de",
      "contractAddress": null,
      "l1BaseFeeScalar": "0x0",
      "l1BlobBaseFee": "0x2f5108f",
      "l1BlobBaseFeeScalar": "0x0",
      "l1Fee": "0x0",
      "l1GasPrice": "0x1eba",
      "l1GasUsed": "0x6a4"
    },
    {
      "status": "0x1",
      "cumulativeGasUsed": "0xb5d5c",
      "logs": [
        {
          "address": "0x578bd46003b9d3fd4c3c3f47c98b329562a6a1de",
          "topics": [
            "0x292d7648986a4abc017bc2a39852a675c1e325e24afd18fad659810792d5e405"
          ],
          "data": "0x000000000000000000000000d29b4e743f7b84d63fbf9149b6d983df2ef5c9520000000000000000000000005d5a22116233bdb2a9c2977279cc348b8b8ce9170000000000000000000000000000000000000000000000000000000000000001",
          "blockHash": "0xbdca3c8ec700db66a2ef08300ca345a77b96a343002af2d820744bf5bb00133e",
          "blockNumber": "0x433198",
          "transactionHash": "0x63913dfaf1e4fab216bde5e2aab89392e7af93ee07ab02f45503cd2331c4370b",
          "transactionIndex": "0x12",
          "logIndex": "0x14",
          "removed": false
        }
      ],
      "logsBloom": "0x00000000000000000000010000000000000000000000000000000000000000000000000000000000000000000000000000000008000000000000000000000000000000000000000000000000000000000000000000000000000000000000000000000000000000000000000000008000000200000000000000000000000000000000000000000000000000000000000000000000000000000000000000000000000000000000000000000000000000000000000000000000000000000000000000000000000000000000000000000000001000000000000000000000000000000000000000000000000000000000000000000000000000000000000010000000",
      "type": "0x2",
      "transactionHash": "0x63913dfaf1e4fab216bde5e2aab89392e7af93ee07ab02f45503cd2331c4370b",
      "transactionIndex": "0x12",
      "blockHash": "0xbdca3c8ec700db66a2ef08300ca345a77b96a343002af2d820744bf5bb00133e",
      "blockNumber": "0x433198",
      "gasUsed": "0x1c613",
      "effectiveGasPrice": "0x5d21dba01",
      "from": "0x56fd3f2bee130e9867942d0f463a16fbe49b8d81",
      "to": "0x578bd46003b9d3fd4c3c3f47c98b329562a6a1de",
      "contractAddress": null,
      "l1BaseFeeScalar": "0x0",
      "l1BlobBaseFee": "0x2f5108f",
      "l1BlobBaseFeeScalar": "0x0",
      "l1Fee": "0x0",
      "l1GasPrice": "0x1eba",
      "l1GasUsed": "0x6a4"
    },
    {
      "status": "0x1",
      "cumulativeGasUsed": "0x27a17",
      "logs": [
        {
          "address": "0x578bd46003b9d3fd4c3c3f47c98b329562a6a1de",
          "topics": [
            "0x292d7648986a4abc017bc2a39852a675c1e325e24afd18fad659810792d5e405"
          ],
          "data": "0x000000000000000000000000d29b4e743f7b84d63fbf9149b6d983df2ef5c952000000000000000000000000ce1213507c81576759181a2b795f3c9ae5ede6bd0000000000000000000000000000000000000000000000000000000000000001",
          "blockHash": "0x81d222f9d9af4a8ba51e42e3feb9ad3838b4713f8f8a628ea714a4b05bc92436",
          "blockNumber": "0x433199",
          "transactionHash": "0xb69661d0e40f090124a6ebafdfc8b340ea06cfc7034d423f9e5ed862d8bed508",
          "transactionIndex": "0x1",
          "logIndex": "0x0",
          "removed": false
        }
      ],
      "logsBloom": "0x00000000000000000000010000000000000000000000000000000000000000000000000000000000000000000000000000000008000000000000000000000000000000000000000000000000000000000000000000000000000000000000000000000000000000000000000000008000000200000000000000000000000000000000000000000000000000000000000000000000000000000000000000000000000000000000000000000000000000000000000000000000000000000000000000000000000000000000000000000000001000000000000000000000000000000000000000000000000000000000000000000000000000000000000010000000",
      "type": "0x2",
      "transactionHash": "0xb69661d0e40f090124a6ebafdfc8b340ea06cfc7034d423f9e5ed862d8bed508",
      "transactionIndex": "0x1",
      "blockHash": "0x81d222f9d9af4a8ba51e42e3feb9ad3838b4713f8f8a628ea714a4b05bc92436",
      "blockNumber": "0x433199",
      "gasUsed": "0x1c613",
      "effectiveGasPrice": "0x5d21dba01",
      "from": "0x56fd3f2bee130e9867942d0f463a16fbe49b8d81",
      "to": "0x578bd46003b9d3fd4c3c3f47c98b329562a6a1de",
      "contractAddress": null,
      "l1BaseFeeScalar": "0x0",
      "l1BlobBaseFee": "0x2f5108f",
      "l1BlobBaseFeeScalar": "0x0",
      "l1Fee": "0x0",
      "l1GasPrice": "0x1eba",
      "l1GasUsed": "0x6a4"
    },
    {
      "status": "0x1",
      "cumulativeGasUsed": "0x4402a",
      "logs": [
        {
          "address": "0x578bd46003b9d3fd4c3c3f47c98b329562a6a1de",
          "topics": [
            "0x292d7648986a4abc017bc2a39852a675c1e325e24afd18fad659810792d5e405"
          ],
          "data": "0x000000000000000000000000d29b4e743f7b84d63fbf9149b6d983df2ef5c952000000000000000000000000bbc9c6e41e2a402b12992875edaa0162ed9902120000000000000000000000000000000000000000000000000000000000000001",
          "blockHash": "0x81d222f9d9af4a8ba51e42e3feb9ad3838b4713f8f8a628ea714a4b05bc92436",
          "blockNumber": "0x433199",
          "transactionHash": "0xa14f4cf864115883f8f42afcc69195836122b3594ec6c485b70d1b511b70fd11",
          "transactionIndex": "0x2",
          "logIndex": "0x1",
          "removed": false
        }
      ],
      "logsBloom": "0x00000000000000000000010000000000000000000000000000000000000000000000000000000000000000000000000000000008000000000000000000000000000000000000000000000000000000000000000000000000000000000000000000000000000000000000000000008000000200000000000000000000000000000000000000000000000000000000000000000000000000000000000000000000000000000000000000000000000000000000000000000000000000000000000000000000000000000000000000000000001000000000000000000000000000000000000000000000000000000000000000000000000000000000000010000000",
      "type": "0x2",
      "transactionHash": "0xa14f4cf864115883f8f42afcc69195836122b3594ec6c485b70d1b511b70fd11",
      "transactionIndex": "0x2",
      "blockHash": "0x81d222f9d9af4a8ba51e42e3feb9ad3838b4713f8f8a628ea714a4b05bc92436",
      "blockNumber": "0x433199",
      "gasUsed": "0x1c613",
      "effectiveGasPrice": "0x5d21dba01",
      "from": "0x56fd3f2bee130e9867942d0f463a16fbe49b8d81",
      "to": "0x578bd46003b9d3fd4c3c3f47c98b329562a6a1de",
      "contractAddress": null,
      "l1BaseFeeScalar": "0x0",
      "l1BlobBaseFee": "0x2f5108f",
      "l1BlobBaseFeeScalar": "0x0",
      "l1Fee": "0x0",
      "l1GasPrice": "0x1eba",
      "l1GasUsed": "0x6a4"
    },
    {
      "status": "0x1",
      "cumulativeGasUsed": "0x6063d",
      "logs": [
        {
          "address": "0x578bd46003b9d3fd4c3c3f47c98b329562a6a1de",
          "topics": [
            "0x292d7648986a4abc017bc2a39852a675c1e325e24afd18fad659810792d5e405"
          ],
          "data": "0x000000000000000000000000d29b4e743f7b84d63fbf9149b6d983df2ef5c952000000000000000000000000bacee37d31b9f022ef5d232b9fd53f05a531c1690000000000000000000000000000000000000000000000000000000000000001",
          "blockHash": "0x81d222f9d9af4a8ba51e42e3feb9ad3838b4713f8f8a628ea714a4b05bc92436",
          "blockNumber": "0x433199",
          "transactionHash": "0xec0fd5ccf2ff340cb915b129901364a11172bb14edd0cb5349e1afdf5858c093",
          "transactionIndex": "0x3",
          "logIndex": "0x2",
          "removed": false
        }
      ],
      "logsBloom": "0x00000000000000000000010000000000000000000000000000000000000000000000000000000000000000000000000000000008000000000000000000000000000000000000000000000000000000000000000000000000000000000000000000000000000000000000000000008000000200000000000000000000000000000000000000000000000000000000000000000000000000000000000000000000000000000000000000000000000000000000000000000000000000000000000000000000000000000000000000000000001000000000000000000000000000000000000000000000000000000000000000000000000000000000000010000000",
      "type": "0x2",
      "transactionHash": "0xec0fd5ccf2ff340cb915b129901364a11172bb14edd0cb5349e1afdf5858c093",
      "transactionIndex": "0x3",
      "blockHash": "0x81d222f9d9af4a8ba51e42e3feb9ad3838b4713f8f8a628ea714a4b05bc92436",
      "blockNumber": "0x433199",
      "gasUsed": "0x1c613",
      "effectiveGasPrice": "0x5d21dba01",
      "from": "0x56fd3f2bee130e9867942d0f463a16fbe49b8d81",
      "to": "0x578bd46003b9d3fd4c3c3f47c98b329562a6a1de",
      "contractAddress": null,
      "l1BaseFeeScalar": "0x0",
      "l1BlobBaseFee": "0x2f5108f",
      "l1BlobBaseFeeScalar": "0x0",
      "l1Fee": "0x0",
      "l1GasPrice": "0x1eba",
      "l1GasUsed": "0x6a4"
    },
    {
      "status": "0x1",
      "cumulativeGasUsed": "0x7cc50",
      "logs": [
        {
          "address": "0x578bd46003b9d3fd4c3c3f47c98b329562a6a1de",
          "topics": [
            "0x292d7648986a4abc017bc2a39852a675c1e325e24afd18fad659810792d5e405"
          ],
          "data": "0x000000000000000000000000d29b4e743f7b84d63fbf9149b6d983df2ef5c952000000000000000000000000341e2a8b5b52b54f1794ddbdd54e433746c65d600000000000000000000000000000000000000000000000000000000000000001",
          "blockHash": "0x81d222f9d9af4a8ba51e42e3feb9ad3838b4713f8f8a628ea714a4b05bc92436",
          "blockNumber": "0x433199",
          "transactionHash": "0x0405145e9c7096bb2b132cf4922a15cbf83cdef262e330885df44585fda66bdd",
          "transactionIndex": "0x4",
          "logIndex": "0x3",
          "removed": false
        }
      ],
      "logsBloom": "0x00000000000000000000010000000000000000000000000000000000000000000000000000000000000000000000000000000008000000000000000000000000000000000000000000000000000000000000000000000000000000000000000000000000000000000000000000008000000200000000000000000000000000000000000000000000000000000000000000000000000000000000000000000000000000000000000000000000000000000000000000000000000000000000000000000000000000000000000000000000001000000000000000000000000000000000000000000000000000000000000000000000000000000000000010000000",
      "type": "0x2",
      "transactionHash": "0x0405145e9c7096bb2b132cf4922a15cbf83cdef262e330885df44585fda66bdd",
      "transactionIndex": "0x4",
      "blockHash": "0x81d222f9d9af4a8ba51e42e3feb9ad3838b4713f8f8a628ea714a4b05bc92436",
      "blockNumber": "0x433199",
      "gasUsed": "0x1c613",
      "effectiveGasPrice": "0x5d21dba01",
      "from": "0x56fd3f2bee130e9867942d0f463a16fbe49b8d81",
      "to": "0x578bd46003b9d3fd4c3c3f47c98b329562a6a1de",
      "contractAddress": null,
      "l1BaseFeeScalar": "0x0",
      "l1BlobBaseFee": "0x2f5108f",
      "l1BlobBaseFeeScalar": "0x0",
      "l1Fee": "0x0",
      "l1GasPrice": "0x1eba",
      "l1GasUsed": "0x6a4"
    },
    {
      "status": "0x1",
      "cumulativeGasUsed": "0x27a17",
      "logs": [
        {
          "address": "0x578bd46003b9d3fd4c3c3f47c98b329562a6a1de",
          "topics": [
            "0x292d7648986a4abc017bc2a39852a675c1e325e24afd18fad659810792d5e405"
          ],
          "data": "0x000000000000000000000000d29b4e743f7b84d63fbf9149b6d983df2ef5c9520000000000000000000000007149632514c5baa315520ab9d12556d9c67f15e00000000000000000000000000000000000000000000000000000000000000001",
          "blockHash": "0xf76f0efb7bd7628724174626103ef97938e7a1a48ec440c88308035a41e6dcb2",
          "blockNumber": "0x43319d",
          "transactionHash": "0xf689c54c6dec8215412d5d153cb1e117ee5b5b5d46f127f522e4cb0077783dc6",
          "transactionIndex": "0x1",
          "logIndex": "0x0",
          "removed": false
        }
      ],
      "logsBloom": "0x00000000000000000000010000000000000000000000000000000000000000000000000000000000000000000000000000000008000000000000000000000000000000000000000000000000000000000000000000000000000000000000000000000000000000000000000000008000000200000000000000000000000000000000000000000000000000000000000000000000000000000000000000000000000000000000000000000000000000000000000000000000000000000000000000000000000000000000000000000000001000000000000000000000000000000000000000000000000000000000000000000000000000000000000010000000",
      "type": "0x2",
      "transactionHash": "0xf689c54c6dec8215412d5d153cb1e117ee5b5b5d46f127f522e4cb0077783dc6",
      "transactionIndex": "0x1",
      "blockHash": "0xf76f0efb7bd7628724174626103ef97938e7a1a48ec440c88308035a41e6dcb2",
      "blockNumber": "0x43319d",
      "gasUsed": "0x1c613",
      "effectiveGasPrice": "0x5d21dba01",
      "from": "0x56fd3f2bee130e9867942d0f463a16fbe49b8d81",
      "to": "0x578bd46003b9d3fd4c3c3f47c98b329562a6a1de",
      "contractAddress": null,
      "l1BaseFeeScalar": "0x0",
      "l1BlobBaseFee": "0x2f5108f",
      "l1BlobBaseFeeScalar": "0x0",
      "l1Fee": "0x0",
      "l1GasPrice": "0x1eba",
      "l1GasUsed": "0x6a4"
    },
    {
      "status": "0x1",
      "cumulativeGasUsed": "0x4402a",
      "logs": [
        {
          "address": "0x578bd46003b9d3fd4c3c3f47c98b329562a6a1de",
          "topics": [
            "0x292d7648986a4abc017bc2a39852a675c1e325e24afd18fad659810792d5e405"
          ],
          "data": "0x000000000000000000000000d29b4e743f7b84d63fbf9149b6d983df2ef5c952000000000000000000000000bb776cd80bab1e658a6a8685580751166145121f0000000000000000000000000000000000000000000000000000000000000001",
          "blockHash": "0xf76f0efb7bd7628724174626103ef97938e7a1a48ec440c88308035a41e6dcb2",
          "blockNumber": "0x43319d",
          "transactionHash": "0xcb93bfde316e317b88fea8d909a7d815b26ca7f13ffc1067ff61a1558c743b59",
          "transactionIndex": "0x2",
          "logIndex": "0x1",
          "removed": false
        }
      ],
      "logsBloom": "0x00000000000000000000010000000000000000000000000000000000000000000000000000000000000000000000000000000008000000000000000000000000000000000000000000000000000000000000000000000000000000000000000000000000000000000000000000008000000200000000000000000000000000000000000000000000000000000000000000000000000000000000000000000000000000000000000000000000000000000000000000000000000000000000000000000000000000000000000000000000001000000000000000000000000000000000000000000000000000000000000000000000000000000000000010000000",
      "type": "0x2",
      "transactionHash": "0xcb93bfde316e317b88fea8d909a7d815b26ca7f13ffc1067ff61a1558c743b59",
      "transactionIndex": "0x2",
      "blockHash": "0xf76f0efb7bd7628724174626103ef97938e7a1a48ec440c88308035a41e6dcb2",
      "blockNumber": "0x43319d",
      "gasUsed": "0x1c613",
      "effectiveGasPrice": "0x5d21dba01",
      "from": "0x56fd3f2bee130e9867942d0f463a16fbe49b8d81",
      "to": "0x578bd46003b9d3fd4c3c3f47c98b329562a6a1de",
      "contractAddress": null,
      "l1BaseFeeScalar": "0x0",
      "l1BlobBaseFee": "0x2f5108f",
      "l1BlobBaseFeeScalar": "0x0",
      "l1Fee": "0x0",
      "l1GasPrice": "0x1eba",
      "l1GasUsed": "0x6a4"
    },
    {
      "status": "0x1",
      "cumulativeGasUsed": "0x6063d",
      "logs": [
        {
          "address": "0x578bd46003b9d3fd4c3c3f47c98b329562a6a1de",
          "topics": [
            "0x292d7648986a4abc017bc2a39852a675c1e325e24afd18fad659810792d5e405"
          ],
          "data": "0x000000000000000000000000d29b4e743f7b84d63fbf9149b6d983df2ef5c952000000000000000000000000ae5eee6815b8529847955d19522858806bca82170000000000000000000000000000000000000000000000000000000000000001",
          "blockHash": "0xf76f0efb7bd7628724174626103ef97938e7a1a48ec440c88308035a41e6dcb2",
          "blockNumber": "0x43319d",
          "transactionHash": "0xfbebf22ce69c4ce06fb100c0be2b49d2de0d1bedb4671b465a644203caa1bb65",
          "transactionIndex": "0x3",
          "logIndex": "0x2",
          "removed": false
        }
      ],
      "logsBloom": "0x00000000000000000000010000000000000000000000000000000000000000000000000000000000000000000000000000000008000000000000000000000000000000000000000000000000000000000000000000000000000000000000000000000000000000000000000000008000000200000000000000000000000000000000000000000000000000000000000000000000000000000000000000000000000000000000000000000000000000000000000000000000000000000000000000000000000000000000000000000000001000000000000000000000000000000000000000000000000000000000000000000000000000000000000010000000",
      "type": "0x2",
      "transactionHash": "0xfbebf22ce69c4ce06fb100c0be2b49d2de0d1bedb4671b465a644203caa1bb65",
      "transactionIndex": "0x3",
      "blockHash": "0xf76f0efb7bd7628724174626103ef97938e7a1a48ec440c88308035a41e6dcb2",
      "blockNumber": "0x43319d",
      "gasUsed": "0x1c613",
      "effectiveGasPrice": "0x5d21dba01",
      "from": "0x56fd3f2bee130e9867942d0f463a16fbe49b8d81",
      "to": "0x578bd46003b9d3fd4c3c3f47c98b329562a6a1de",
      "contractAddress": null,
      "l1BaseFeeScalar": "0x0",
      "l1BlobBaseFee": "0x2f5108f",
      "l1BlobBaseFeeScalar": "0x0",
      "l1Fee": "0x0",
      "l1GasPrice": "0x1eba",
      "l1GasUsed": "0x6a4"
    },
    {
      "status": "0x1",
      "cumulativeGasUsed": "0x7cc50",
      "logs": [
        {
          "address": "0x578bd46003b9d3fd4c3c3f47c98b329562a6a1de",
          "topics": [
            "0x292d7648986a4abc017bc2a39852a675c1e325e24afd18fad659810792d5e405"
          ],
          "data": "0x000000000000000000000000d29b4e743f7b84d63fbf9149b6d983df2ef5c95200000000000000000000000053f7dc47ab9273c2d83c2df557f3fcf1e6a9ee100000000000000000000000000000000000000000000000000000000000000001",
          "blockHash": "0xf76f0efb7bd7628724174626103ef97938e7a1a48ec440c88308035a41e6dcb2",
          "blockNumber": "0x43319d",
          "transactionHash": "0x5396b14ce007bc221c64b7c84cbe8eedc6b57909eaac5e0a7c2a3bd20ff0743f",
          "transactionIndex": "0x4",
          "logIndex": "0x3",
          "removed": false
        }
      ],
      "logsBloom": "0x00000000000000000000010000000000000000000000000000000000000000000000000000000000000000000000000000000008000000000000000000000000000000000000000000000000000000000000000000000000000000000000000000000000000000000000000000008000000200000000000000000000000000000000000000000000000000000000000000000000000000000000000000000000000000000000000000000000000000000000000000000000000000000000000000000000000000000000000000000000001000000000000000000000000000000000000000000000000000000000000000000000000000000000000010000000",
      "type": "0x2",
      "transactionHash": "0x5396b14ce007bc221c64b7c84cbe8eedc6b57909eaac5e0a7c2a3bd20ff0743f",
      "transactionIndex": "0x4",
      "blockHash": "0xf76f0efb7bd7628724174626103ef97938e7a1a48ec440c88308035a41e6dcb2",
      "blockNumber": "0x43319d",
      "gasUsed": "0x1c613",
      "effectiveGasPrice": "0x5d21dba01",
      "from": "0x56fd3f2bee130e9867942d0f463a16fbe49b8d81",
      "to": "0x578bd46003b9d3fd4c3c3f47c98b329562a6a1de",
      "contractAddress": null,
      "l1BaseFeeScalar": "0x0",
      "l1BlobBaseFee": "0x2f5108f",
      "l1BlobBaseFeeScalar": "0x0",
      "l1Fee": "0x0",
      "l1GasPrice": "0x1eba",
      "l1GasUsed": "0x6a4"
    },
    {
      "status": "0x1",
      "cumulativeGasUsed": "0x99263",
      "logs": [
        {
          "address": "0x578bd46003b9d3fd4c3c3f47c98b329562a6a1de",
          "topics": [
            "0x292d7648986a4abc017bc2a39852a675c1e325e24afd18fad659810792d5e405"
          ],
          "data": "0x000000000000000000000000d29b4e743f7b84d63fbf9149b6d983df2ef5c952000000000000000000000000c9dbd89fce5710c91c35ed9af1dc93fa090a28b00000000000000000000000000000000000000000000000000000000000000001",
          "blockHash": "0xf76f0efb7bd7628724174626103ef97938e7a1a48ec440c88308035a41e6dcb2",
          "blockNumber": "0x43319d",
          "transactionHash": "0x8ef20007e9eed87588eb6e345aee9527e97455175e5c7b6eef40fec7269bc5ec",
          "transactionIndex": "0x5",
          "logIndex": "0x4",
          "removed": false
        }
      ],
      "logsBloom": "0x00000000000000000000010000000000000000000000000000000000000000000000000000000000000000000000000000000008000000000000000000000000000000000000000000000000000000000000000000000000000000000000000000000000000000000000000000008000000200000000000000000000000000000000000000000000000000000000000000000000000000000000000000000000000000000000000000000000000000000000000000000000000000000000000000000000000000000000000000000000001000000000000000000000000000000000000000000000000000000000000000000000000000000000000010000000",
      "type": "0x2",
      "transactionHash": "0x8ef20007e9eed87588eb6e345aee9527e97455175e5c7b6eef40fec7269bc5ec",
      "transactionIndex": "0x5",
      "blockHash": "0xf76f0efb7bd7628724174626103ef97938e7a1a48ec440c88308035a41e6dcb2",
      "blockNumber": "0x43319d",
      "gasUsed": "0x1c613",
      "effectiveGasPrice": "0x5d21dba01",
      "from": "0x56fd3f2bee130e9867942d0f463a16fbe49b8d81",
      "to": "0x578bd46003b9d3fd4c3c3f47c98b329562a6a1de",
      "contractAddress": null,
      "l1BaseFeeScalar": "0x0",
      "l1BlobBaseFee": "0x2f5108f",
      "l1BlobBaseFeeScalar": "0x0",
      "l1Fee": "0x0",
      "l1GasPrice": "0x1eba",
      "l1GasUsed": "0x6a4"
    },
    {
      "status": "0x1",
      "cumulativeGasUsed": "0xb586a",
      "logs": [
        {
          "address": "0x578bd46003b9d3fd4c3c3f47c98b329562a6a1de",
          "topics": [
            "0x292d7648986a4abc017bc2a39852a675c1e325e24afd18fad659810792d5e405"
          ],
          "data": "0x000000000000000000000000d29b4e743f7b84d63fbf9149b6d983df2ef5c952000000000000000000000000864ea534d6992f3721000cdb6585b11e7046d5ec0000000000000000000000000000000000000000000000000000000000000001",
          "blockHash": "0xf76f0efb7bd7628724174626103ef97938e7a1a48ec440c88308035a41e6dcb2",
          "blockNumber": "0x43319d",
          "transactionHash": "0x3d95b7c559af356c563c89edc528e254d74e91c255a3231c7c01adfdffe0cc6d",
          "transactionIndex": "0x6",
          "logIndex": "0x5",
          "removed": false
        }
      ],
      "logsBloom": "0x00000000000000000000010000000000000000000000000000000000000000000000000000000000000000000000000000000008000000000000000000000000000000000000000000000000000000000000000000000000000000000000000000000000000000000000000000008000000200000000000000000000000000000000000000000000000000000000000000000000000000000000000000000000000000000000000000000000000000000000000000000000000000000000000000000000000000000000000000000000001000000000000000000000000000000000000000000000000000000000000000000000000000000000000010000000",
      "type": "0x2",
      "transactionHash": "0x3d95b7c559af356c563c89edc528e254d74e91c255a3231c7c01adfdffe0cc6d",
      "transactionIndex": "0x6",
      "blockHash": "0xf76f0efb7bd7628724174626103ef97938e7a1a48ec440c88308035a41e6dcb2",
      "blockNumber": "0x43319d",
      "gasUsed": "0x1c607",
      "effectiveGasPrice": "0x5d21dba01",
      "from": "0x56fd3f2bee130e9867942d0f463a16fbe49b8d81",
      "to": "0x578bd46003b9d3fd4c3c3f47c98b329562a6a1de",
      "contractAddress": null,
      "l1BaseFeeScalar": "0x0",
      "l1BlobBaseFee": "0x2f5108f",
      "l1BlobBaseFeeScalar": "0x0",
      "l1Fee": "0x0",
      "l1GasPrice": "0x1eba",
      "l1GasUsed": "0x6a4"
    },
    {
      "status": "0x1",
      "cumulativeGasUsed": "0xd1e7d",
      "logs": [
        {
          "address": "0x578bd46003b9d3fd4c3c3f47c98b329562a6a1de",
          "topics": [
            "0x292d7648986a4abc017bc2a39852a675c1e325e24afd18fad659810792d5e405"
          ],
          "data": "0x000000000000000000000000d29b4e743f7b84d63fbf9149b6d983df2ef5c9520000000000000000000000004f2746e21a13ea9a8a832d929cdbf32ffc113a2c0000000000000000000000000000000000000000000000000000000000000001",
          "blockHash": "0xf76f0efb7bd7628724174626103ef97938e7a1a48ec440c88308035a41e6dcb2",
          "blockNumber": "0x43319d",
          "transactionHash": "0x10ebdb3ec96a6deb813eb72f724754f378b29b3c4aaab1d5f81f7e2da7e42f58",
          "transactionIndex": "0x7",
          "logIndex": "0x6",
          "removed": false
        }
      ],
      "logsBloom": "0x00000000000000000000010000000000000000000000000000000000000000000000000000000000000000000000000000000008000000000000000000000000000000000000000000000000000000000000000000000000000000000000000000000000000000000000000000008000000200000000000000000000000000000000000000000000000000000000000000000000000000000000000000000000000000000000000000000000000000000000000000000000000000000000000000000000000000000000000000000000001000000000000000000000000000000000000000000000000000000000000000000000000000000000000010000000",
      "type": "0x2",
      "transactionHash": "0x10ebdb3ec96a6deb813eb72f724754f378b29b3c4aaab1d5f81f7e2da7e42f58",
      "transactionIndex": "0x7",
      "blockHash": "0xf76f0efb7bd7628724174626103ef97938e7a1a48ec440c88308035a41e6dcb2",
      "blockNumber": "0x43319d",
      "gasUsed": "0x1c613",
      "effectiveGasPrice": "0x5d21dba01",
      "from": "0x56fd3f2bee130e9867942d0f463a16fbe49b8d81",
      "to": "0x578bd46003b9d3fd4c3c3f47c98b329562a6a1de",
      "contractAddress": null,
      "l1BaseFeeScalar": "0x0",
      "l1BlobBaseFee": "0x2f5108f",
      "l1BlobBaseFeeScalar": "0x0",
      "l1Fee": "0x0",
      "l1GasPrice": "0x1eba",
      "l1GasUsed": "0x6a4"
    },
    {
      "status": "0x1",
      "cumulativeGasUsed": "0xee490",
      "logs": [
        {
          "address": "0x578bd46003b9d3fd4c3c3f47c98b329562a6a1de",
          "topics": [
            "0x292d7648986a4abc017bc2a39852a675c1e325e24afd18fad659810792d5e405"
          ],
          "data": "0x000000000000000000000000d29b4e743f7b84d63fbf9149b6d983df2ef5c952000000000000000000000000403ea4186ce479ff162636c37fdf4086bd286f8c0000000000000000000000000000000000000000000000000000000000000001",
          "blockHash": "0xf76f0efb7bd7628724174626103ef97938e7a1a48ec440c88308035a41e6dcb2",
          "blockNumber": "0x43319d",
          "transactionHash": "0x35ee9655be4608a459b6685a50dddff902f1a04e72a3e841315e133d0b7d92ba",
          "transactionIndex": "0x8",
          "logIndex": "0x7",
          "removed": false
        }
      ],
      "logsBloom": "0x00000000000000000000010000000000000000000000000000000000000000000000000000000000000000000000000000000008000000000000000000000000000000000000000000000000000000000000000000000000000000000000000000000000000000000000000000008000000200000000000000000000000000000000000000000000000000000000000000000000000000000000000000000000000000000000000000000000000000000000000000000000000000000000000000000000000000000000000000000000001000000000000000000000000000000000000000000000000000000000000000000000000000000000000010000000",
      "type": "0x2",
      "transactionHash": "0x35ee9655be4608a459b6685a50dddff902f1a04e72a3e841315e133d0b7d92ba",
      "transactionIndex": "0x8",
      "blockHash": "0xf76f0efb7bd7628724174626103ef97938e7a1a48ec440c88308035a41e6dcb2",
      "blockNumber": "0x43319d",
      "gasUsed": "0x1c613",
      "effectiveGasPrice": "0x5d21dba01",
      "from": "0x56fd3f2bee130e9867942d0f463a16fbe49b8d81",
      "to": "0x578bd46003b9d3fd4c3c3f47c98b329562a6a1de",
      "contractAddress": null,
      "l1BaseFeeScalar": "0x0",
      "l1BlobBaseFee": "0x2f5108f",
      "l1BlobBaseFeeScalar": "0x0",
      "l1Fee": "0x0",
      "l1GasPrice": "0x1eba",
      "l1GasUsed": "0x6a4"
    },
    {
      "status": "0x1",
      "cumulativeGasUsed": "0x10aaa3",
      "logs": [
        {
          "address": "0x578bd46003b9d3fd4c3c3f47c98b329562a6a1de",
          "topics": [
            "0x292d7648986a4abc017bc2a39852a675c1e325e24afd18fad659810792d5e405"
          ],
          "data": "0x000000000000000000000000d29b4e743f7b84d63fbf9149b6d983df2ef5c952000000000000000000000000e7cddedc3dca1674b70c347c814c8a9fcf8f68c90000000000000000000000000000000000000000000000000000000000000001",
          "blockHash": "0xf76f0efb7bd7628724174626103ef97938e7a1a48ec440c88308035a41e6dcb2",
          "blockNumber": "0x43319d",
          "transactionHash": "0x84365e2493d462284c24d80e7b7d27c86f88942cd822cb54515d75c5640deffc",
          "transactionIndex": "0x9",
          "logIndex": "0x8",
          "removed": false
        }
      ],
      "logsBloom": "0x00000000000000000000010000000000000000000000000000000000000000000000000000000000000000000000000000000008000000000000000000000000000000000000000000000000000000000000000000000000000000000000000000000000000000000000000000008000000200000000000000000000000000000000000000000000000000000000000000000000000000000000000000000000000000000000000000000000000000000000000000000000000000000000000000000000000000000000000000000000001000000000000000000000000000000000000000000000000000000000000000000000000000000000000010000000",
      "type": "0x2",
      "transactionHash": "0x84365e2493d462284c24d80e7b7d27c86f88942cd822cb54515d75c5640deffc",
      "transactionIndex": "0x9",
      "blockHash": "0xf76f0efb7bd7628724174626103ef97938e7a1a48ec440c88308035a41e6dcb2",
      "blockNumber": "0x43319d",
      "gasUsed": "0x1c613",
      "effectiveGasPrice": "0x5d21dba01",
      "from": "0x56fd3f2bee130e9867942d0f463a16fbe49b8d81",
      "to": "0x578bd46003b9d3fd4c3c3f47c98b329562a6a1de",
      "contractAddress": null,
      "l1BaseFeeScalar": "0x0",
      "l1BlobBaseFee": "0x2f5108f",
      "l1BlobBaseFeeScalar": "0x0",
      "l1Fee": "0x0",
      "l1GasPrice": "0x1eba",
      "l1GasUsed": "0x6a4"
    },
    {
      "status": "0x1",
      "cumulativeGasUsed": "0x133b6",
      "logs": [
        {
          "address": "0xfaa7ca2b056e60f6733ae75aa0709140a6eafd20",
          "topics": [
            "0x21921b3b46ef2c939e85d6a14410c6e3b9ce132b66e944357ff4f789f68e00e2",
            "0x000000000000000000000000578bd46003b9d3fd4c3c3f47c98b329562a6a1de"
          ],
          "data": "0x",
          "blockHash": "0xea3819245b7e37740163921b20be8fe167debac0d1d176f720c8464c356dcc52",
          "blockNumber": "0x43319e",
          "transactionHash": "0xfd394a44781f71eec1646252c5ff0f8b9973962b4ea0d1b369819d1c6c6e2842",
          "transactionIndex": "0x1",
          "logIndex": "0x0",
          "removed": false
        }
      ],
      "logsBloom": "0x00000000000002000000000000000000000000000020000040000000000000000000000000000000000000000000000000000000000000100000000000000000000000000000000000000000000000000000000000000000000000000000020000000000000000000000000000000000000000000000000000100000000000000000000000000000001000000000000000000000000000000000000000000000000200000000000000000000000000000000000000000000000000000000000000000000000000000000000000000000000000000000000000000000000000000000000000000000000000000000000000000000000000000000000040000000",
      "type": "0x2",
      "transactionHash": "0xfd394a44781f71eec1646252c5ff0f8b9973962b4ea0d1b369819d1c6c6e2842",
      "transactionIndex": "0x1",
      "blockHash": "0xea3819245b7e37740163921b20be8fe167debac0d1d176f720c8464c356dcc52",
      "blockNumber": "0x43319e",
      "gasUsed": "0x7fb2",
      "effectiveGasPrice": "0x5d21dba01",
      "from": "0x56fd3f2bee130e9867942d0f463a16fbe49b8d81",
      "to": "0xfaa7ca2b056e60f6733ae75aa0709140a6eafd20",
      "contractAddress": null,
      "l1BaseFeeScalar": "0x0",
      "l1BlobBaseFee": "0x2f5108f",
      "l1BlobBaseFeeScalar": "0x0",
      "l1Fee": "0x0",
      "l1GasPrice": "0x1eba",
      "l1GasUsed": "0x640"
    },
    {
      "status": "0x1",
      "cumulativeGasUsed": "0x1b698",
      "logs": [
        {
          "address": "0x578bd46003b9d3fd4c3c3f47c98b329562a6a1de",
          "topics": [
            "0x01ebc358c2c8d23692013d9ef4f803f9e0f60486a319faa591e1f84fd08fcd52",
            "0x000000000000000000000000bbc9c6e41e2a402b12992875edaa0162ed990212",
            "0x6e4203be8e01e11cb3553b0641bda0d60f19596a02cf479b6519042cbce5ac52"
          ],
          "data": "0x",
          "blockHash": "0xea3819245b7e37740163921b20be8fe167debac0d1d176f720c8464c356dcc52",
          "blockNumber": "0x43319e",
          "transactionHash": "0x9edbcb633cc94e0a4ea7f3d61b25a63de46e7e1d69622a9387555da2ada019c5",
          "transactionIndex": "0x2",
          "logIndex": "0x1",
          "removed": false
        }
      ],
      "logsBloom": "0x00000000000000000000010000000000000000000000000000000000000100000000000000000000000000000000000000000000000000000000000000004000000000000000000000000000000000000000000000000000000000000000000000000000000000000000000000000000000200000000000000000000000000000000000000000000000000000000000000010000200000000000000000000000000000000000000000000000000000000000200000000000000000000000000000000000000000000000000000000000000000000000000000000000000000000000000000000000000000100000000080000000004000000000000010400000",
      "type": "0x2",
      "transactionHash": "0x9edbcb633cc94e0a4ea7f3d61b25a63de46e7e1d69622a9387555da2ada019c5",
      "transactionIndex": "0x2",
      "blockHash": "0xea3819245b7e37740163921b20be8fe167debac0d1d176f720c8464c356dcc52",
      "blockNumber": "0x43319e",
      "gasUsed": "0x82e2",
      "effectiveGasPrice": "0x5d21dba01",
      "from": "0x56fd3f2bee130e9867942d0f463a16fbe49b8d81",
      "to": "0x578bd46003b9d3fd4c3c3f47c98b329562a6a1de",
      "contractAddress": null,
      "l1BaseFeeScalar": "0x0",
      "l1BlobBaseFee": "0x2f5108f",
      "l1BlobBaseFeeScalar": "0x0",
      "l1Fee": "0x0",
      "l1GasPrice": "0x1eba",
      "l1GasUsed": "0x710"
    }
  ],
  "libraries": [
    "node_modules/@celo/contracts/common/linkedlists/AddressSortedLinkedListWithMedian.sol:AddressSortedLinkedListWithMedian:0xf90B816Ea07eC3c6384656cd5B3249DA8fc3df6F"
  ],
  "pending": [],
  "returns": {},
  "timestamp": 1757687603214,
  "chain": 11142220,
  "commit": "48ea54d"
}