{
  "transactions": [
    {
      "hash": "0xef29bc7b5c03c91fa60a65f12733b7207a046503578c5fbe895a428db53ef3ee",
      "transactionType": "CALL",
      "contractName": null,
      "contractAddress": "0x03cdf2966185eb0b980f2481ad386b8afdab4534",
      "function": "setReferenceValues(address[],uint256[])",
      "arguments": [
        "[0xA1A8003936862E7a15092A91898D69fa8bCE290c, 0xE06C10C63377cD098b589c0b90314bFb55751558, 0x26076B9702885d475ac8c3dB3Bd9F250Dc5A318B, 0x40dC8528167557353fdcD98548AB2139A670Dd0b]",
        "[1000000000000000000000000, 1000000000000000000000000, 1000000000000000000000000, 655957000000000000000000000]"
      ],
      "transaction": {
        "from": "0x56fd3f2bee130e9867942d0f463a16fbe49b8d81",
        "to": "0x03cdf2966185eb0b980f2481ad386b8afdab4534",
        "gas": "0xe8c5",
        "value": "0x0",
        "input": "0xe829902e000000000000000000000000000000000000000000000000000000000000004000000000000000000000000000000000000000000000000000000000000000e00000000000000000000000000000000000000000000000000000000000000004000000000000000000000000a1a8003936862e7a15092a91898d69fa8bce290c000000000000000000000000e06c10c63377cd098b589c0b90314bfb5575155800000000000000000000000026076b9702885d475ac8c3db3bd9f250dc5a318b00000000000000000000000040dc8528167557353fdcd98548ab2139a670dd0b000000000000000000000000000000000000000000000000000000000000000400000000000000000000000000000000000000000000d3c21bcecceda100000000000000000000000000000000000000000000000000d3c21bcecceda100000000000000000000000000000000000000000000000000d3c21bcecceda10000000000000000000000000000000000000000000000021e984c390cf0b02b200000",
        "nonce": "0x7aa",
        "chainId": "0xaa044c"
      },
      "additionalContracts": [],
      "isFixedGasLimit": false
    },
    {
      "hash": "0xa71a58fef457470642daa64dc524a1d77dfcdc3340d20085a2a91d8c3ce93332",
      "transactionType": "CALL",
      "contractName": null,
      "contractAddress": "0xd29b4e743f7b84d63fbf9149b6d983df2ef5c952",
      "function": "setSmoothingFactor(address,uint256)",
      "arguments": [
        "0xC443D8C40D321B34f815eaC76a7620FB06F9E8a4",
        "1000000000000000000000000"
      ],
      "transaction": {
        "from": "0x56fd3f2bee130e9867942d0f463a16fbe49b8d81",
        "to": "0xd29b4e743f7b84d63fbf9149b6d983df2ef5c952",
        "gas": "0xa742",
        "value": "0x0",
        "input": "0x3151e220000000000000000000000000c443d8c40d321b34f815eac76a7620fb06f9e8a400000000000000000000000000000000000000000000d3c21bcecceda1000000",
        "nonce": "0x7ab",
        "chainId": "0xaa044c"
      },
      "additionalContracts": [],
      "isFixedGasLimit": false
    },
    {
      "hash": "0x75dabfbf7eeb5f3cdd009af124ea87d21233ce458bd2cfcb80fe70ba4d0b400d",
      "transactionType": "CALL",
      "contractName": null,
      "contractAddress": "0xd29b4e743f7b84d63fbf9149b6d983df2ef5c952",
      "function": "setSmoothingFactor(address,uint256)",
      "arguments": [
        "0x5D5a22116233BDb2a9C2977279cC348B8b8Ce917",
        "5000000000000000000000"
      ],
      "transaction": {
        "from": "0x56fd3f2bee130e9867942d0f463a16fbe49b8d81",
        "to": "0xd29b4e743f7b84d63fbf9149b6d983df2ef5c952",
        "gas": "0x9837",
        "value": "0x0",
        "input": "0x3151e2200000000000000000000000005d5a22116233bdb2a9c2977279cc348b8b8ce91700000000000000000000000000000000000000000000010f0cf064dd59200000",
        "nonce": "0x7ac",
        "chainId": "0xaa044c"
      },
      "additionalContracts": [],
      "isFixedGasLimit": false
    },
    {
      "hash": "0x36a5dc8cdf1f6d2f5eda4592a71e794ffa3785d61d3d7857399bcf1484bba677",
      "transactionType": "CALL",
      "contractName": null,
      "contractAddress": "0xd29b4e743f7b84d63fbf9149b6d983df2ef5c952",
      "function": "setSmoothingFactor(address,uint256)",
      "arguments": [
        "0xCE1213507c81576759181A2b795f3c9aE5ede6bd",
        "5000000000000000000000"
      ],
      "transaction": {
        "from": "0x56fd3f2bee130e9867942d0f463a16fbe49b8d81",
        "to": "0xd29b4e743f7b84d63fbf9149b6d983df2ef5c952",
        "gas": "0x9837",
        "value": "0x0",
        "input": "0x3151e220000000000000000000000000ce1213507c81576759181a2b795f3c9ae5ede6bd00000000000000000000000000000000000000000000010f0cf064dd59200000",
        "nonce": "0x7ad",
        "chainId": "0xaa044c"
      },
      "additionalContracts": [],
      "isFixedGasLimit": false
    },
    {
      "hash": "0x17d820f877d54cd4917ad0388c322abfca5d870658e5acc4f825524c422f7084",
      "transactionType": "CALL",
      "contractName": null,
      "contractAddress": "0xd29b4e743f7b84d63fbf9149b6d983df2ef5c952",
      "function": "setSmoothingFactor(address,uint256)",
      "arguments": [
        "0xBBc9c6E41E2A402b12992875eDaa0162Ed990212",
        "5000000000000000000000"
      ],
      "transaction": {
        "from": "0x56fd3f2bee130e9867942d0f463a16fbe49b8d81",
        "to": "0xd29b4e743f7b84d63fbf9149b6d983df2ef5c952",
        "gas": "0x9837",
        "value": "0x0",
        "input": "0x3151e220000000000000000000000000bbc9c6e41e2a402b12992875edaa0162ed99021200000000000000000000000000000000000000000000010f0cf064dd59200000",
        "nonce": "0x7ae",
        "chainId": "0xaa044c"
      },
      "additionalContracts": [],
      "isFixedGasLimit": false
    },
    {
      "hash": "0xbf96a7c4ed3e0a5d1562b48c5d1ec61b57ea21f57c41c905875553901769c257",
      "transactionType": "CALL",
      "contractName": null,
      "contractAddress": "0xd29b4e743f7b84d63fbf9149b6d983df2ef5c952",
      "function": "setSmoothingFactor(address,uint256)",
      "arguments": [
        "0xbAcEE37d31b9f022Ef5d232B9fD53F05a531c169",
        "5000000000000000000000"
      ],
      "transaction": {
        "from": "0x56fd3f2bee130e9867942d0f463a16fbe49b8d81",
        "to": "0xd29b4e743f7b84d63fbf9149b6d983df2ef5c952",
        "gas": "0x9837",
        "value": "0x0",
        "input": "0x3151e220000000000000000000000000bacee37d31b9f022ef5d232b9fd53f05a531c16900000000000000000000000000000000000000000000010f0cf064dd59200000",
        "nonce": "0x7af",
        "chainId": "0xaa044c"
      },
      "additionalContracts": [],
      "isFixedGasLimit": false
    },
    {
      "hash": "0xadb129c1e2243f8341f1691f77c0a31c38208323777e05e839fdc58b1b46d656",
      "transactionType": "CALL",
      "contractName": null,
      "contractAddress": "0xd29b4e743f7b84d63fbf9149b6d983df2ef5c952",
      "function": "setSmoothingFactor(address,uint256)",
      "arguments": [
        "0x341E2A8b5b52B54F1794DDbdD54e433746C65d60",
        "5000000000000000000000"
      ],
      "transaction": {
        "from": "0x56fd3f2bee130e9867942d0f463a16fbe49b8d81",
        "to": "0xd29b4e743f7b84d63fbf9149b6d983df2ef5c952",
        "gas": "0x9837",
        "value": "0x0",
        "input": "0x3151e220000000000000000000000000341e2a8b5b52b54f1794ddbdd54e433746c65d6000000000000000000000000000000000000000000000010f0cf064dd59200000",
        "nonce": "0x7b0",
        "chainId": "0xaa044c"
      },
      "additionalContracts": [],
      "isFixedGasLimit": false
    },
    {
      "hash": "0x3a71c89f3893a76e246c6551631a408356b1d4ee3d1b20631f34eec70b16eabd",
      "transactionType": "CALL",
      "contractName": null,
      "contractAddress": "0xd29b4e743f7b84d63fbf9149b6d983df2ef5c952",
      "function": "setSmoothingFactor(address,uint256)",
      "arguments": [
        "0x7149632514c5BAA315520Ab9d12556D9C67F15E0",
        "5000000000000000000000"
      ],
      "transaction": {
        "from": "0x56fd3f2bee130e9867942d0f463a16fbe49b8d81",
        "to": "0xd29b4e743f7b84d63fbf9149b6d983df2ef5c952",
        "gas": "0x9837",
        "value": "0x0",
        "input": "0x3151e2200000000000000000000000007149632514c5baa315520ab9d12556d9c67f15e000000000000000000000000000000000000000000000010f0cf064dd59200000",
        "nonce": "0x7b1",
        "chainId": "0xaa044c"
      },
      "additionalContracts": [],
      "isFixedGasLimit": false
    },
    {
      "hash": "0x32af196ef45c8e0b57dba7aa564317a5e496f03ffb9c7376b1eae049e4625b2e",
      "transactionType": "CALL",
      "contractName": null,
      "contractAddress": "0xd29b4e743f7b84d63fbf9149b6d983df2ef5c952",
      "function": "setSmoothingFactor(address,uint256)",
      "arguments": [
        "0xbB776CD80Bab1E658A6a8685580751166145121F",
        "5000000000000000000000"
      ],
      "transaction": {
        "from": "0x56fd3f2bee130e9867942d0f463a16fbe49b8d81",
        "to": "0xd29b4e743f7b84d63fbf9149b6d983df2ef5c952",
        "gas": "0x9837",
        "value": "0x0",
        "input": "0x3151e220000000000000000000000000bb776cd80bab1e658a6a8685580751166145121f00000000000000000000000000000000000000000000010f0cf064dd59200000",
        "nonce": "0x7b2",
        "chainId": "0xaa044c"
      },
      "additionalContracts": [],
      "isFixedGasLimit": false
    },
    {
      "hash": "0x8ebe4ac33985aec723d434c68409b2983bd43bae9f0068b70dff6143891d34ea",
      "transactionType": "CALL",
      "contractName": null,
      "contractAddress": "0xd29b4e743f7b84d63fbf9149b6d983df2ef5c952",
      "function": "setSmoothingFactor(address,uint256)",
      "arguments": [
        "0xAe5eEe6815b8529847955d19522858806Bca8217",
        "5000000000000000000000"
      ],
      "transaction": {
        "from": "0x56fd3f2bee130e9867942d0f463a16fbe49b8d81",
        "to": "0xd29b4e743f7b84d63fbf9149b6d983df2ef5c952",
        "gas": "0x9837",
        "value": "0x0",
        "input": "0x3151e220000000000000000000000000ae5eee6815b8529847955d19522858806bca821700000000000000000000000000000000000000000000010f0cf064dd59200000",
        "nonce": "0x7b3",
        "chainId": "0xaa044c"
      },
      "additionalContracts": [],
      "isFixedGasLimit": false
    },
    {
      "hash": "0xa2a89fc84d89446654688fd37d88fdd29c802eb1c1ab0d0924faeb39cf7d4778",
      "transactionType": "CALL",
      "contractName": null,
      "contractAddress": "0xd29b4e743f7b84d63fbf9149b6d983df2ef5c952",
      "function": "setSmoothingFactor(address,uint256)",
      "arguments": [
        "0x53F7dC47aB9273C2d83c2Df557F3FcF1e6A9Ee10",
        "5000000000000000000000"
      ],
      "transaction": {
        "from": "0x56fd3f2bee130e9867942d0f463a16fbe49b8d81",
        "to": "0xd29b4e743f7b84d63fbf9149b6d983df2ef5c952",
        "gas": "0x9837",
        "value": "0x0",
        "input": "0x3151e22000000000000000000000000053f7dc47ab9273c2d83c2df557f3fcf1e6a9ee1000000000000000000000000000000000000000000000010f0cf064dd59200000",
        "nonce": "0x7b4",
        "chainId": "0xaa044c"
      },
      "additionalContracts": [],
      "isFixedGasLimit": false
    },
    {
      "hash": "0x435a7e7643dd7779a707f993a10dc2fb503dc34056df01d76a341b03b602b566",
      "transactionType": "CALL",
      "contractName": null,
      "contractAddress": "0xd29b4e743f7b84d63fbf9149b6d983df2ef5c952",
      "function": "setSmoothingFactor(address,uint256)",
      "arguments": [
        "0xc9dbD89FCe5710C91c35Ed9af1dc93fA090A28B0",
        "5000000000000000000000"
      ],
      "transaction": {
        "from": "0x56fd3f2bee130e9867942d0f463a16fbe49b8d81",
        "to": "0xd29b4e743f7b84d63fbf9149b6d983df2ef5c952",
        "gas": "0x9837",
        "value": "0x0",
        "input": "0x3151e220000000000000000000000000c9dbd89fce5710c91c35ed9af1dc93fa090a28b000000000000000000000000000000000000000000000010f0cf064dd59200000",
        "nonce": "0x7b5",
        "chainId": "0xaa044c"
      },
      "additionalContracts": [],
      "isFixedGasLimit": false
    },
    {
      "hash": "0xbe5a0b6dee1f9eb05782fe8e154dc6c4414d00bd3deb1350c9a4b9ed0c437a96",
      "transactionType": "CALL",
      "contractName": null,
      "contractAddress": "0xd29b4e743f7b84d63fbf9149b6d983df2ef5c952",
      "function": "setSmoothingFactor(address,uint256)",
      "arguments": [
        "0x864Ea534d6992F3721000cdB6585b11E7046D5ec",
        "5000000000000000000000"
      ],
      "transaction": {
        "from": "0x56fd3f2bee130e9867942d0f463a16fbe49b8d81",
        "to": "0xd29b4e743f7b84d63fbf9149b6d983df2ef5c952",
        "gas": "0x9826",
        "value": "0x0",
        "input": "0x3151e220000000000000000000000000864ea534d6992f3721000cdb6585b11e7046d5ec00000000000000000000000000000000000000000000010f0cf064dd59200000",
        "nonce": "0x7b6",
        "chainId": "0xaa044c"
      },
      "additionalContracts": [],
      "isFixedGasLimit": false
    },
    {
      "hash": "0xb7a2471b7893c62417be3e842308289c2ebfea9810e60626190a2189f0906521",
      "transactionType": "CALL",
      "contractName": null,
      "contractAddress": "0xd29b4e743f7b84d63fbf9149b6d983df2ef5c952",
      "function": "setSmoothingFactor(address,uint256)",
      "arguments": [
        "0x4F2746E21A13Ea9A8A832D929CDBf32ffC113A2C",
        "5000000000000000000000"
      ],
      "transaction": {
        "from": "0x56fd3f2bee130e9867942d0f463a16fbe49b8d81",
        "to": "0xd29b4e743f7b84d63fbf9149b6d983df2ef5c952",
        "gas": "0x9837",
        "value": "0x0",
        "input": "0x3151e2200000000000000000000000004f2746e21a13ea9a8a832d929cdbf32ffc113a2c00000000000000000000000000000000000000000000010f0cf064dd59200000",
        "nonce": "0x7b7",
        "chainId": "0xaa044c"
      },
      "additionalContracts": [],
      "isFixedGasLimit": false
    },
    {
      "hash": "0xbde23ddd424e10d9d8c62fa81fbe532e4095a484822633da7cdcf066295eb968",
      "transactionType": "CALL",
      "contractName": null,
      "contractAddress": "0xd29b4e743f7b84d63fbf9149b6d983df2ef5c952",
      "function": "setSmoothingFactor(address,uint256)",
      "arguments": [
        "0x403EA4186ce479fF162636c37fDf4086bD286F8c",
        "5000000000000000000000"
      ],
      "transaction": {
        "from": "0x56fd3f2bee130e9867942d0f463a16fbe49b8d81",
        "to": "0xd29b4e743f7b84d63fbf9149b6d983df2ef5c952",
        "gas": "0x9837",
        "value": "0x0",
        "input": "0x3151e220000000000000000000000000403ea4186ce479ff162636c37fdf4086bd286f8c00000000000000000000000000000000000000000000010f0cf064dd59200000",
        "nonce": "0x7b8",
        "chainId": "0xaa044c"
      },
      "additionalContracts": [],
      "isFixedGasLimit": false
    },
    {
      "hash": "0x4f42d44c661cc8adf21bbf6023c443914f1c042950b8f6cc667eae286e0a1b8b",
      "transactionType": "CALL",
      "contractName": null,
      "contractAddress": "0xd29b4e743f7b84d63fbf9149b6d983df2ef5c952",
      "function": "setSmoothingFactor(address,uint256)",
      "arguments": [
        "0xe7cDDEDC3dCA1674b70c347c814c8A9fCf8F68C9",
        "5000000000000000000000"
      ],
      "transaction": {
        "from": "0x56fd3f2bee130e9867942d0f463a16fbe49b8d81",
        "to": "0xd29b4e743f7b84d63fbf9149b6d983df2ef5c952",
        "gas": "0x9837",
        "value": "0x0",
        "input": "0x3151e220000000000000000000000000e7cddedc3dca1674b70c347c814c8a9fcf8f68c900000000000000000000000000000000000000000000010f0cf064dd59200000",
        "nonce": "0x7b9",
        "chainId": "0xaa044c"
      },
      "additionalContracts": [],
      "isFixedGasLimit": false
    },
    {
      "hash": "0x43ecc1a1d2480905d16c96b1444bd8faec7242bd59f78492a94def0df409ee1b",
      "transactionType": "CALL",
      "contractName": null,
      "contractAddress": "0xfaa7ca2b056e60f6733ae75aa0709140a6eafd20",
      "function": "setBreakerBox(address)",
      "arguments": [
        "0x578bD46003B9D3fd4c3C3f47c98B329562a6a1dE"
      ],
      "transaction": {
        "from": "0x56fd3f2bee130e9867942d0f463a16fbe49b8d81",
        "to": "0xfaa7ca2b056e60f6733ae75aa0709140a6eafd20",
        "gas": "0xbac0",
        "value": "0x0",
        "input": "0x040bbd35000000000000000000000000578bd46003b9d3fd4c3c3f47c98b329562a6a1de",
        "nonce": "0x7ba",
        "chainId": "0xaa044c"
      },
      "additionalContracts": [],
      "isFixedGasLimit": false
    },
    {
      "hash": "0xf4cca9bbab4f949450e11127f948322178d9201bb4bf85fe04ce1fce4b1e0186",
      "transactionType": "CALL",
      "contractName": null,
      "contractAddress": "0x578bd46003b9d3fd4c3c3f47c98b329562a6a1de",
      "function": "setRateFeedDependencies(address,address[])",
      "arguments": [
        "0xBBc9c6E41E2A402b12992875eDaa0162Ed990212",
        "[0x40dC8528167557353fdcD98548AB2139A670Dd0b]"
      ],
      "transaction": {
        "from": "0x56fd3f2bee130e9867942d0f463a16fbe49b8d81",
        "to": "0x578bd46003b9d3fd4c3c3f47c98b329562a6a1de",
        "gas": "0xbf6a",
        "value": "0x0",
        "input": "0x87efb0b5000000000000000000000000bbc9c6e41e2a402b12992875edaa0162ed9902120000000000000000000000000000000000000000000000000000000000000040000000000000000000000000000000000000000000000000000000000000000100000000000000000000000040dc8528167557353fdcd98548ab2139a670dd0b",
        "nonce": "0x7bb",
        "chainId": "0xaa044c"
      },
      "additionalContracts": [],
      "isFixedGasLimit": false
    }
  ],
  "receipts": [
    {
      "status": "0x1",
      "cumulativeGasUsed": "0x15c96",
      "logs": [
        {
          "address": "0x03cdf2966185eb0b980f2481ad386b8afdab4534",
          "topics": [
            "0xa62a59cb391b90466127d5c2ae9c7cfb59877763680d974867d6abe0c4fd52cb"
          ],
          "data": "0x000000000000000000000000a1a8003936862e7a15092a91898d69fa8bce290c00000000000000000000000000000000000000000000d3c21bcecceda1000000",
          "blockHash": "0x60c070371b86b9913e74f9ca3636f102546cfc3aa8fe9d57cd18e22c3650d64b",
          "blockNumber": "0x4334c7",
          "transactionHash": "0xef29bc7b5c03c91fa60a65f12733b7207a046503578c5fbe895a428db53ef3ee",
          "transactionIndex": "0x1",
          "logIndex": "0x0",
          "removed": false
        },
        {
          "address": "0x03cdf2966185eb0b980f2481ad386b8afdab4534",
          "topics": [
            "0xa62a59cb391b90466127d5c2ae9c7cfb59877763680d974867d6abe0c4fd52cb"
          ],
          "data": "0x000000000000000000000000e06c10c63377cd098b589c0b90314bfb5575155800000000000000000000000000000000000000000000d3c21bcecceda1000000",
          "blockHash": "0x60c070371b86b9913e74f9ca3636f102546cfc3aa8fe9d57cd18e22c3650d64b",
          "blockNumber": "0x4334c7",
          "transactionHash": "0xef29bc7b5c03c91fa60a65f12733b7207a046503578c5fbe895a428db53ef3ee",
          "transactionIndex": "0x1",
          "logIndex": "0x1",
          "removed": false
        },
        {
          "address": "0x03cdf2966185eb0b980f2481ad386b8afdab4534",
          "topics": [
            "0xa62a59cb391b90466127d5c2ae9c7cfb59877763680d974867d6abe0c4fd52cb"
          ],
          "data": "0x00000000000000000000000026076b9702885d475ac8c3db3bd9f250dc5a318b00000000000000000000000000000000000000000000d3c21bcecceda1000000",
          "blockHash": "0x60c070371b86b9913e74f9ca3636f102546cfc3aa8fe9d57cd18e22c3650d64b",
          "blockNumber": "0x4334c7",
          "transactionHash": "0xef29bc7b5c03c91fa60a65f12733b7207a046503578c5fbe895a428db53ef3ee",
          "transactionIndex": "0x1",
          "logIndex": "0x2",
          "removed": false
        },
        {
          "address": "0x03cdf2966185eb0b980f2481ad386b8afdab4534",
          "topics": [
            "0xa62a59cb391b90466127d5c2ae9c7cfb59877763680d974867d6abe0c4fd52cb"
          ],
          "data": "0x00000000000000000000000040dc8528167557353fdcd98548ab2139a670dd0b0000000000000000000000000000000000000000021e984c390cf0b02b200000",
          "blockHash": "0x60c070371b86b9913e74f9ca3636f102546cfc3aa8fe9d57cd18e22c3650d64b",
          "blockNumber": "0x4334c7",
          "transactionHash": "0xef29bc7b5c03c91fa60a65f12733b7207a046503578c5fbe895a428db53ef3ee",
          "transactionIndex": "0x1",
          "logIndex": "0x3",
          "removed": false
        }
      ],
      "logsBloom": "0x00000000000000000000000000000000000000000000000000000000000000000000000002000000000000000000000000000000000000000000000000000000000000000000000000000000000000000000000000000000000000000000000000000000000000000002010000000000000000000000000000000000000000000000000000000000000000000000000000000000000000000000000000000000000000000000000000000000000000000000000000000000000000000000000000000000000000000000000000000000000000000000000000000100000000000000000000000000000000000000000000000000000004000000000040000000",
      "type": "0x2",
      "transactionHash": "0xef29bc7b5c03c91fa60a65f12733b7207a046503578c5fbe895a428db53ef3ee",
      "transactionIndex": "0x1",
      "blockHash": "0x60c070371b86b9913e74f9ca3636f102546cfc3aa8fe9d57cd18e22c3650d64b",
      "blockNumber": "0x4334c7",
      "gasUsed": "0xa886",
      "effectiveGasPrice": "0x5d21dba01",
      "from": "0x56fd3f2bee130e9867942d0f463a16fbe49b8d81",
      "to": "0x03cdf2966185eb0b980f2481ad386b8afdab4534",
      "contractAddress": null,
      "l1BaseFeeScalar": "0x0",
      "l1BlobBaseFee": "0x46117a6",
      "l1BlobBaseFeeScalar": "0x0",
      "l1Fee": "0x0",
      "l1GasPrice": "0x287b",
      "l1GasUsed": "0xbec"
    },
    {
      "status": "0x1",
      "cumulativeGasUsed": "0x1d5ae",
      "logs": [
        {
          "address": "0xd29b4e743f7b84d63fbf9149b6d983df2ef5c952",
          "topics": [
            "0x6024a1181d4b6670f0122b1101b175bd17051e91a5b57e85972a9187c3f9721c"
          ],
          "data": "0x000000000000000000000000c443d8c40d321b34f815eac76a7620fb06f9e8a400000000000000000000000000000000000000000000d3c21bcecceda1000000",
          "blockHash": "0x60c070371b86b9913e74f9ca3636f102546cfc3aa8fe9d57cd18e22c3650d64b",
          "blockNumber": "0x4334c7",
          "transactionHash": "0xa71a58fef457470642daa64dc524a1d77dfcdc3340d20085a2a91d8c3ce93332",
          "transactionIndex": "0x2",
          "logIndex": "0x4",
          "removed": false
        }
      ],
      "logsBloom": "0x00000000000000000000000000000000000000204000000000000000000000000000000000000000000000000000000000000000000000000000000000000000000000000000000000000000000000000000000000000000000000000000000000000000000000000000000000000000000000000000000000000000000000000000000000000000000000000000000000000000000000000000000000000000000000000010000000000000000000000000000000000000000000000000000000000002000000000000000000000000000000002000000000000000000100000000000000000000000000000000000000000000000000000000000000000000",
      "type": "0x2",
      "transactionHash": "0xa71a58fef457470642daa64dc524a1d77dfcdc3340d20085a2a91d8c3ce93332",
      "transactionIndex": "0x2",
      "blockHash": "0x60c070371b86b9913e74f9ca3636f102546cfc3aa8fe9d57cd18e22c3650d64b",
      "blockNumber": "0x4334c7",
      "gasUsed": "0x7918",
      "effectiveGasPrice": "0x5d21dba01",
      "from": "0x56fd3f2bee130e9867942d0f463a16fbe49b8d81",
      "to": "0xd29b4e743f7b84d63fbf9149b6d983df2ef5c952",
      "contractAddress": null,
      "l1BaseFeeScalar": "0x0",
      "l1BlobBaseFee": "0x46117a6",
      "l1BlobBaseFeeScalar": "0x0",
      "l1Fee": "0x0",
      "l1GasPrice": "0x287b",
      "l1GasUsed": "0x640"
    },
    {
      "status": "0x1",
      "cumulativeGasUsed": "0x243e2",
      "logs": [
        {
          "address": "0xd29b4e743f7b84d63fbf9149b6d983df2ef5c952",
          "topics": [
            "0x6024a1181d4b6670f0122b1101b175bd17051e91a5b57e85972a9187c3f9721c"
          ],
          "data": "0x0000000000000000000000005d5a22116233bdb2a9c2977279cc348b8b8ce91700000000000000000000000000000000000000000000010f0cf064dd59200000",
          "blockHash": "0x60c070371b86b9913e74f9ca3636f102546cfc3aa8fe9d57cd18e22c3650d64b",
          "blockNumber": "0x4334c7",
          "transactionHash": "0x75dabfbf7eeb5f3cdd009af124ea87d21233ce458bd2cfcb80fe70ba4d0b400d",
          "transactionIndex": "0x3",
          "logIndex": "0x5",
          "removed": false
        }
      ],
      "logsBloom": "0x00000000000000000000000000000000000000204000000000000000000000000000000000000000000000000000000000000000000000000000000000000000000000000000000000000000000000000000000000000000000000000000000000000000000000000000000000000000000000000000000000000000000000000000000000000000000000000000000000000000000000000000000000000000000000000010000000000000000000000000000000000000000000000000000000000002000000000000000000000000000000002000000000000000000100000000000000000000000000000000000000000000000000000000000000000000",
      "type": "0x2",
      "transactionHash": "0x75dabfbf7eeb5f3cdd009af124ea87d21233ce458bd2cfcb80fe70ba4d0b400d",
      "transactionIndex": "0x3",
      "blockHash": "0x60c070371b86b9913e74f9ca3636f102546cfc3aa8fe9d57cd18e22c3650d64b",
      "blockNumber": "0x4334c7",
      "gasUsed": "0x6e34",
      "effectiveGasPrice": "0x5d21dba01",
      "from": "0x56fd3f2bee130e9867942d0f463a16fbe49b8d81",
      "to": "0xd29b4e743f7b84d63fbf9149b6d983df2ef5c952",
      "contractAddress": null,
      "l1BaseFeeScalar": "0x0",
      "l1BlobBaseFee": "0x46117a6",
      "l1BlobBaseFeeScalar": "0x0",
      "l1Fee": "0x0",
      "l1GasPrice": "0x287b",
      "l1GasUsed": "0x640"
    },
    {
      "status": "0x1",
      "cumulativeGasUsed": "0x2b216",
      "logs": [
        {
          "address": "0xd29b4e743f7b84d63fbf9149b6d983df2ef5c952",
          "topics": [
            "0x6024a1181d4b6670f0122b1101b175bd17051e91a5b57e85972a9187c3f9721c"
          ],
          "data": "0x000000000000000000000000ce1213507c81576759181a2b795f3c9ae5ede6bd00000000000000000000000000000000000000000000010f0cf064dd59200000",
          "blockHash": "0x60c070371b86b9913e74f9ca3636f102546cfc3aa8fe9d57cd18e22c3650d64b",
          "blockNumber": "0x4334c7",
          "transactionHash": "0x36a5dc8cdf1f6d2f5eda4592a71e794ffa3785d61d3d7857399bcf1484bba677",
          "transactionIndex": "0x4",
          "logIndex": "0x6",
          "removed": false
        }
      ],
      "logsBloom": "0x00000000000000000000000000000000000000204000000000000000000000000000000000000000000000000000000000000000000000000000000000000000000000000000000000000000000000000000000000000000000000000000000000000000000000000000000000000000000000000000000000000000000000000000000000000000000000000000000000000000000000000000000000000000000000000010000000000000000000000000000000000000000000000000000000000002000000000000000000000000000000002000000000000000000100000000000000000000000000000000000000000000000000000000000000000000",
      "type": "0x2",
      "transactionHash": "0x36a5dc8cdf1f6d2f5eda4592a71e794ffa3785d61d3d7857399bcf1484bba677",
      "transactionIndex": "0x4",
      "blockHash": "0x60c070371b86b9913e74f9ca3636f102546cfc3aa8fe9d57cd18e22c3650d64b",
      "blockNumber": "0x4334c7",
      "gasUsed": "0x6e34",
      "effectiveGasPrice": "0x5d21dba01",
      "from": "0x56fd3f2bee130e9867942d0f463a16fbe49b8d81",
      "to": "0xd29b4e743f7b84d63fbf9149b6d983df2ef5c952",
      "contractAddress": null,
      "l1BaseFeeScalar": "0x0",
      "l1BlobBaseFee": "0x46117a6",
      "l1BlobBaseFeeScalar": "0x0",
      "l1Fee": "0x0",
      "l1GasPrice": "0x287b",
      "l1GasUsed": "0x640"
    },
    {
      "status": "0x1",
      "cumulativeGasUsed": "0x3204a",
      "logs": [
        {
          "address": "0xd29b4e743f7b84d63fbf9149b6d983df2ef5c952",
          "topics": [
            "0x6024a1181d4b6670f0122b1101b175bd17051e91a5b57e85972a9187c3f9721c"
          ],
          "data": "0x000000000000000000000000bbc9c6e41e2a402b12992875edaa0162ed99021200000000000000000000000000000000000000000000010f0cf064dd59200000",
          "blockHash": "0x60c070371b86b9913e74f9ca3636f102546cfc3aa8fe9d57cd18e22c3650d64b",
          "blockNumber": "0x4334c7",
          "transactionHash": "0x17d820f877d54cd4917ad0388c322abfca5d870658e5acc4f825524c422f7084",
          "transactionIndex": "0x5",
          "logIndex": "0x7",
          "removed": false
        }
      ],
      "logsBloom": "0x00000000000000000000000000000000000000204000000000000000000000000000000000000000000000000000000000000000000000000000000000000000000000000000000000000000000000000000000000000000000000000000000000000000000000000000000000000000000000000000000000000000000000000000000000000000000000000000000000000000000000000000000000000000000000000010000000000000000000000000000000000000000000000000000000000002000000000000000000000000000000002000000000000000000100000000000000000000000000000000000000000000000000000000000000000000",
      "type": "0x2",
      "transactionHash": "0x17d820f877d54cd4917ad0388c322abfca5d870658e5acc4f825524c422f7084",
      "transactionIndex": "0x5",
      "blockHash": "0x60c070371b86b9913e74f9ca3636f102546cfc3aa8fe9d57cd18e22c3650d64b",
      "blockNumber": "0x4334c7",
      "gasUsed": "0x6e34",
      "effectiveGasPrice": "0x5d21dba01",
      "from": "0x56fd3f2bee130e9867942d0f463a16fbe49b8d81",
      "to": "0xd29b4e743f7b84d63fbf9149b6d983df2ef5c952",
      "contractAddress": null,
      "l1BaseFeeScalar": "0x0",
      "l1BlobBaseFee": "0x46117a6",
      "l1BlobBaseFeeScalar": "0x0",
      "l1Fee": "0x0",
      "l1GasPrice": "0x287b",
      "l1GasUsed": "0x640"
    },
    {
      "status": "0x1",
      "cumulativeGasUsed": "0x38e7e",
      "logs": [
        {
          "address": "0xd29b4e743f7b84d63fbf9149b6d983df2ef5c952",
          "topics": [
            "0x6024a1181d4b6670f0122b1101b175bd17051e91a5b57e85972a9187c3f9721c"
          ],
          "data": "0x000000000000000000000000bacee37d31b9f022ef5d232b9fd53f05a531c16900000000000000000000000000000000000000000000010f0cf064dd59200000",
          "blockHash": "0x60c070371b86b9913e74f9ca3636f102546cfc3aa8fe9d57cd18e22c3650d64b",
          "blockNumber": "0x4334c7",
          "transactionHash": "0xbf96a7c4ed3e0a5d1562b48c5d1ec61b57ea21f57c41c905875553901769c257",
          "transactionIndex": "0x6",
          "logIndex": "0x8",
          "removed": false
        }
      ],
      "logsBloom": "0x00000000000000000000000000000000000000204000000000000000000000000000000000000000000000000000000000000000000000000000000000000000000000000000000000000000000000000000000000000000000000000000000000000000000000000000000000000000000000000000000000000000000000000000000000000000000000000000000000000000000000000000000000000000000000000010000000000000000000000000000000000000000000000000000000000002000000000000000000000000000000002000000000000000000100000000000000000000000000000000000000000000000000000000000000000000",
      "type": "0x2",
      "transactionHash": "0xbf96a7c4ed3e0a5d1562b48c5d1ec61b57ea21f57c41c905875553901769c257",
      "transactionIndex": "0x6",
      "blockHash": "0x60c070371b86b9913e74f9ca3636f102546cfc3aa8fe9d57cd18e22c3650d64b",
      "blockNumber": "0x4334c7",
      "gasUsed": "0x6e34",
      "effectiveGasPrice": "0x5d21dba01",
      "from": "0x56fd3f2bee130e9867942d0f463a16fbe49b8d81",
      "to": "0xd29b4e743f7b84d63fbf9149b6d983df2ef5c952",
      "contractAddress": null,
      "l1BaseFeeScalar": "0x0",
      "l1BlobBaseFee": "0x46117a6",
      "l1BlobBaseFeeScalar": "0x0",
      "l1Fee": "0x0",
      "l1GasPrice": "0x287b",
      "l1GasUsed": "0x640"
    },
    {
      "status": "0x1",
      "cumulativeGasUsed": "0x3fcb2",
      "logs": [
        {
          "address": "0xd29b4e743f7b84d63fbf9149b6d983df2ef5c952",
          "topics": [
            "0x6024a1181d4b6670f0122b1101b175bd17051e91a5b57e85972a9187c3f9721c"
          ],
          "data": "0x000000000000000000000000341e2a8b5b52b54f1794ddbdd54e433746c65d6000000000000000000000000000000000000000000000010f0cf064dd59200000",
          "blockHash": "0x60c070371b86b9913e74f9ca3636f102546cfc3aa8fe9d57cd18e22c3650d64b",
          "blockNumber": "0x4334c7",
          "transactionHash": "0xadb129c1e2243f8341f1691f77c0a31c38208323777e05e839fdc58b1b46d656",
          "transactionIndex": "0x7",
          "logIndex": "0x9",
          "removed": false
        }
      ],
      "logsBloom": "0x00000000000000000000000000000000000000204000000000000000000000000000000000000000000000000000000000000000000000000000000000000000000000000000000000000000000000000000000000000000000000000000000000000000000000000000000000000000000000000000000000000000000000000000000000000000000000000000000000000000000000000000000000000000000000000010000000000000000000000000000000000000000000000000000000000002000000000000000000000000000000002000000000000000000100000000000000000000000000000000000000000000000000000000000000000000",
      "type": "0x2",
      "transactionHash": "0xadb129c1e2243f8341f1691f77c0a31c38208323777e05e839fdc58b1b46d656",
      "transactionIndex": "0x7",
      "blockHash": "0x60c070371b86b9913e74f9ca3636f102546cfc3aa8fe9d57cd18e22c3650d64b",
      "blockNumber": "0x4334c7",
      "gasUsed": "0x6e34",
      "effectiveGasPrice": "0x5d21dba01",
      "from": "0x56fd3f2bee130e9867942d0f463a16fbe49b8d81",
      "to": "0xd29b4e743f7b84d63fbf9149b6d983df2ef5c952",
      "contractAddress": null,
      "l1BaseFeeScalar": "0x0",
      "l1BlobBaseFee": "0x46117a6",
      "l1BlobBaseFeeScalar": "0x0",
      "l1Fee": "0x0",
      "l1GasPrice": "0x287b",
      "l1GasUsed": "0x640"
    },
    {
      "status": "0x1",
      "cumulativeGasUsed": "0x46ae6",
      "logs": [
        {
          "address": "0xd29b4e743f7b84d63fbf9149b6d983df2ef5c952",
          "topics": [
            "0x6024a1181d4b6670f0122b1101b175bd17051e91a5b57e85972a9187c3f9721c"
          ],
          "data": "0x0000000000000000000000007149632514c5baa315520ab9d12556d9c67f15e000000000000000000000000000000000000000000000010f0cf064dd59200000",
          "blockHash": "0x60c070371b86b9913e74f9ca3636f102546cfc3aa8fe9d57cd18e22c3650d64b",
          "blockNumber": "0x4334c7",
          "transactionHash": "0x3a71c89f3893a76e246c6551631a408356b1d4ee3d1b20631f34eec70b16eabd",
          "transactionIndex": "0x8",
          "logIndex": "0xa",
          "removed": false
        }
      ],
      "logsBloom": "0x00000000000000000000000000000000000000204000000000000000000000000000000000000000000000000000000000000000000000000000000000000000000000000000000000000000000000000000000000000000000000000000000000000000000000000000000000000000000000000000000000000000000000000000000000000000000000000000000000000000000000000000000000000000000000000010000000000000000000000000000000000000000000000000000000000002000000000000000000000000000000002000000000000000000100000000000000000000000000000000000000000000000000000000000000000000",
      "type": "0x2",
      "transactionHash": "0x3a71c89f3893a76e246c6551631a408356b1d4ee3d1b20631f34eec70b16eabd",
      "transactionIndex": "0x8",
      "blockHash": "0x60c070371b86b9913e74f9ca3636f102546cfc3aa8fe9d57cd18e22c3650d64b",
      "blockNumber": "0x4334c7",
      "gasUsed": "0x6e34",
      "effectiveGasPrice": "0x5d21dba01",
      "from": "0x56fd3f2bee130e9867942d0f463a16fbe49b8d81",
      "to": "0xd29b4e743f7b84d63fbf9149b6d983df2ef5c952",
      "contractAddress": null,
      "l1BaseFeeScalar": "0x0",
      "l1BlobBaseFee": "0x46117a6",
      "l1BlobBaseFeeScalar": "0x0",
      "l1Fee": "0x0",
      "l1GasPrice": "0x287b",
      "l1GasUsed": "0x640"
    },
    {
      "status": "0x1",
      "cumulativeGasUsed": "0x4d91a",
      "logs": [
        {
          "address": "0xd29b4e743f7b84d63fbf9149b6d983df2ef5c952",
          "topics": [
            "0x6024a1181d4b6670f0122b1101b175bd17051e91a5b57e85972a9187c3f9721c"
          ],
          "data": "0x000000000000000000000000bb776cd80bab1e658a6a8685580751166145121f00000000000000000000000000000000000000000000010f0cf064dd59200000",
          "blockHash": "0x60c070371b86b9913e74f9ca3636f102546cfc3aa8fe9d57cd18e22c3650d64b",
          "blockNumber": "0x4334c7",
          "transactionHash": "0x32af196ef45c8e0b57dba7aa564317a5e496f03ffb9c7376b1eae049e4625b2e",
          "transactionIndex": "0x9",
          "logIndex": "0xb",
          "removed": false
        }
      ],
      "logsBloom": "0x00000000000000000000000000000000000000204000000000000000000000000000000000000000000000000000000000000000000000000000000000000000000000000000000000000000000000000000000000000000000000000000000000000000000000000000000000000000000000000000000000000000000000000000000000000000000000000000000000000000000000000000000000000000000000000010000000000000000000000000000000000000000000000000000000000002000000000000000000000000000000002000000000000000000100000000000000000000000000000000000000000000000000000000000000000000",
      "type": "0x2",
      "transactionHash": "0x32af196ef45c8e0b57dba7aa564317a5e496f03ffb9c7376b1eae049e4625b2e",
      "transactionIndex": "0x9",
      "blockHash": "0x60c070371b86b9913e74f9ca3636f102546cfc3aa8fe9d57cd18e22c3650d64b",
      "blockNumber": "0x4334c7",
      "gasUsed": "0x6e34",
      "effectiveGasPrice": "0x5d21dba01",
      "from": "0x56fd3f2bee130e9867942d0f463a16fbe49b8d81",
      "to": "0xd29b4e743f7b84d63fbf9149b6d983df2ef5c952",
      "contractAddress": null,
      "l1BaseFeeScalar": "0x0",
      "l1BlobBaseFee": "0x46117a6",
      "l1BlobBaseFeeScalar": "0x0",
      "l1Fee": "0x0",
      "l1GasPrice": "0x287b",
      "l1GasUsed": "0x640"
    },
    {
      "status": "0x1",
      "cumulativeGasUsed": "0x5474e",
      "logs": [
        {
          "address": "0xd29b4e743f7b84d63fbf9149b6d983df2ef5c952",
          "topics": [
            "0x6024a1181d4b6670f0122b1101b175bd17051e91a5b57e85972a9187c3f9721c"
          ],
          "data": "0x000000000000000000000000ae5eee6815b8529847955d19522858806bca821700000000000000000000000000000000000000000000010f0cf064dd59200000",
          "blockHash": "0x60c070371b86b9913e74f9ca3636f102546cfc3aa8fe9d57cd18e22c3650d64b",
          "blockNumber": "0x4334c7",
          "transactionHash": "0x8ebe4ac33985aec723d434c68409b2983bd43bae9f0068b70dff6143891d34ea",
          "transactionIndex": "0xa",
          "logIndex": "0xc",
          "removed": false
        }
      ],
      "logsBloom": "0x00000000000000000000000000000000000000204000000000000000000000000000000000000000000000000000000000000000000000000000000000000000000000000000000000000000000000000000000000000000000000000000000000000000000000000000000000000000000000000000000000000000000000000000000000000000000000000000000000000000000000000000000000000000000000000010000000000000000000000000000000000000000000000000000000000002000000000000000000000000000000002000000000000000000100000000000000000000000000000000000000000000000000000000000000000000",
      "type": "0x2",
      "transactionHash": "0x8ebe4ac33985aec723d434c68409b2983bd43bae9f0068b70dff6143891d34ea",
      "transactionIndex": "0xa",
      "blockHash": "0x60c070371b86b9913e74f9ca3636f102546cfc3aa8fe9d57cd18e22c3650d64b",
      "blockNumber": "0x4334c7",
      "gasUsed": "0x6e34",
      "effectiveGasPrice": "0x5d21dba01",
      "from": "0x56fd3f2bee130e9867942d0f463a16fbe49b8d81",
      "to": "0xd29b4e743f7b84d63fbf9149b6d983df2ef5c952",
      "contractAddress": null,
      "l1BaseFeeScalar": "0x0",
      "l1BlobBaseFee": "0x46117a6",
      "l1BlobBaseFeeScalar": "0x0",
      "l1Fee": "0x0",
      "l1GasPrice": "0x287b",
      "l1GasUsed": "0x640"
    },
    {
      "status": "0x1",
      "cumulativeGasUsed": "0x5b582",
      "logs": [
        {
          "address": "0xd29b4e743f7b84d63fbf9149b6d983df2ef5c952",
          "topics": [
            "0x6024a1181d4b6670f0122b1101b175bd17051e91a5b57e85972a9187c3f9721c"
          ],
          "data": "0x00000000000000000000000053f7dc47ab9273c2d83c2df557f3fcf1e6a9ee1000000000000000000000000000000000000000000000010f0cf064dd59200000",
          "blockHash": "0x60c070371b86b9913e74f9ca3636f102546cfc3aa8fe9d57cd18e22c3650d64b",
          "blockNumber": "0x4334c7",
          "transactionHash": "0xa2a89fc84d89446654688fd37d88fdd29c802eb1c1ab0d0924faeb39cf7d4778",
          "transactionIndex": "0xb",
          "logIndex": "0xd",
          "removed": false
        }
      ],
      "logsBloom": "0x00000000000000000000000000000000000000204000000000000000000000000000000000000000000000000000000000000000000000000000000000000000000000000000000000000000000000000000000000000000000000000000000000000000000000000000000000000000000000000000000000000000000000000000000000000000000000000000000000000000000000000000000000000000000000000010000000000000000000000000000000000000000000000000000000000002000000000000000000000000000000002000000000000000000100000000000000000000000000000000000000000000000000000000000000000000",
      "type": "0x2",
      "transactionHash": "0xa2a89fc84d89446654688fd37d88fdd29c802eb1c1ab0d0924faeb39cf7d4778",
      "transactionIndex": "0xb",
      "blockHash": "0x60c070371b86b9913e74f9ca3636f102546cfc3aa8fe9d57cd18e22c3650d64b",
      "blockNumber": "0x4334c7",
      "gasUsed": "0x6e34",
      "effectiveGasPrice": "0x5d21dba01",
      "from": "0x56fd3f2bee130e9867942d0f463a16fbe49b8d81",
      "to": "0xd29b4e743f7b84d63fbf9149b6d983df2ef5c952",
      "contractAddress": null,
      "l1BaseFeeScalar": "0x0",
      "l1BlobBaseFee": "0x46117a6",
      "l1BlobBaseFeeScalar": "0x0",
      "l1Fee": "0x0",
      "l1GasPrice": "0x287b",
      "l1GasUsed": "0x640"
    },
    {
      "status": "0x1",
      "cumulativeGasUsed": "0x623b6",
      "logs": [
        {
          "address": "0xd29b4e743f7b84d63fbf9149b6d983df2ef5c952",
          "topics": [
            "0x6024a1181d4b6670f0122b1101b175bd17051e91a5b57e85972a9187c3f9721c"
          ],
          "data": "0x000000000000000000000000c9dbd89fce5710c91c35ed9af1dc93fa090a28b000000000000000000000000000000000000000000000010f0cf064dd59200000",
          "blockHash": "0x60c070371b86b9913e74f9ca3636f102546cfc3aa8fe9d57cd18e22c3650d64b",
          "blockNumber": "0x4334c7",
          "transactionHash": "0x435a7e7643dd7779a707f993a10dc2fb503dc34056df01d76a341b03b602b566",
          "transactionIndex": "0xc",
          "logIndex": "0xe",
          "removed": false
        }
      ],
      "logsBloom": "0x00000000000000000000000000000000000000204000000000000000000000000000000000000000000000000000000000000000000000000000000000000000000000000000000000000000000000000000000000000000000000000000000000000000000000000000000000000000000000000000000000000000000000000000000000000000000000000000000000000000000000000000000000000000000000000010000000000000000000000000000000000000000000000000000000000002000000000000000000000000000000002000000000000000000100000000000000000000000000000000000000000000000000000000000000000000",
      "type": "0x2",
      "transactionHash": "0x435a7e7643dd7779a707f993a10dc2fb503dc34056df01d76a341b03b602b566",
      "transactionIndex": "0xc",
      "blockHash": "0x60c070371b86b9913e74f9ca3636f102546cfc3aa8fe9d57cd18e22c3650d64b",
      "blockNumber": "0x4334c7",
      "gasUsed": "0x6e34",
      "effectiveGasPrice": "0x5d21dba01",
      "from": "0x56fd3f2bee130e9867942d0f463a16fbe49b8d81",
      "to": "0xd29b4e743f7b84d63fbf9149b6d983df2ef5c952",
      "contractAddress": null,
      "l1BaseFeeScalar": "0x0",
      "l1BlobBaseFee": "0x46117a6",
      "l1BlobBaseFeeScalar": "0x0",
      "l1Fee": "0x0",
      "l1GasPrice": "0x287b",
      "l1GasUsed": "0x640"
    },
    {
      "status": "0x1",
      "cumulativeGasUsed": "0x691de",
      "logs": [
        {
          "address": "0xd29b4e743f7b84d63fbf9149b6d983df2ef5c952",
          "topics": [
            "0x6024a1181d4b6670f0122b1101b175bd17051e91a5b57e85972a9187c3f9721c"
          ],
          "data": "0x000000000000000000000000864ea534d6992f3721000cdb6585b11e7046d5ec00000000000000000000000000000000000000000000010f0cf064dd59200000",
          "blockHash": "0x60c070371b86b9913e74f9ca3636f102546cfc3aa8fe9d57cd18e22c3650d64b",
          "blockNumber": "0x4334c7",
          "transactionHash": "0xbe5a0b6dee1f9eb05782fe8e154dc6c4414d00bd3deb1350c9a4b9ed0c437a96",
          "transactionIndex": "0xd",
          "logIndex": "0xf",
          "removed": false
        }
      ],
      "logsBloom": "0x00000000000000000000000000000000000000204000000000000000000000000000000000000000000000000000000000000000000000000000000000000000000000000000000000000000000000000000000000000000000000000000000000000000000000000000000000000000000000000000000000000000000000000000000000000000000000000000000000000000000000000000000000000000000000000010000000000000000000000000000000000000000000000000000000000002000000000000000000000000000000002000000000000000000100000000000000000000000000000000000000000000000000000000000000000000",
      "type": "0x2",
      "transactionHash": "0xbe5a0b6dee1f9eb05782fe8e154dc6c4414d00bd3deb1350c9a4b9ed0c437a96",
      "transactionIndex": "0xd",
      "blockHash": "0x60c070371b86b9913e74f9ca3636f102546cfc3aa8fe9d57cd18e22c3650d64b",
      "blockNumber": "0x4334c7",
      "gasUsed": "0x6e28",
      "effectiveGasPrice": "0x5d21dba01",
      "from": "0x56fd3f2bee130e9867942d0f463a16fbe49b8d81",
      "to": "0xd29b4e743f7b84d63fbf9149b6d983df2ef5c952",
      "contractAddress": null,
      "l1BaseFeeScalar": "0x0",
      "l1BlobBaseFee": "0x46117a6",
      "l1BlobBaseFeeScalar": "0x0",
      "l1Fee": "0x0",
      "l1GasPrice": "0x287b",
      "l1GasUsed": "0x640"
    },
    {
      "status": "0x1",
      "cumulativeGasUsed": "0x70012",
      "logs": [
        {
          "address": "0xd29b4e743f7b84d63fbf9149b6d983df2ef5c952",
          "topics": [
            "0x6024a1181d4b6670f0122b1101b175bd17051e91a5b57e85972a9187c3f9721c"
          ],
          "data": "0x0000000000000000000000004f2746e21a13ea9a8a832d929cdbf32ffc113a2c00000000000000000000000000000000000000000000010f0cf064dd59200000",
          "blockHash": "0x60c070371b86b9913e74f9ca3636f102546cfc3aa8fe9d57cd18e22c3650d64b",
          "blockNumber": "0x4334c7",
          "transactionHash": "0xb7a2471b7893c62417be3e842308289c2ebfea9810e60626190a2189f0906521",
          "transactionIndex": "0xe",
          "logIndex": "0x10",
          "removed": false
        }
      ],
      "logsBloom": "0x00000000000000000000000000000000000000204000000000000000000000000000000000000000000000000000000000000000000000000000000000000000000000000000000000000000000000000000000000000000000000000000000000000000000000000000000000000000000000000000000000000000000000000000000000000000000000000000000000000000000000000000000000000000000000000010000000000000000000000000000000000000000000000000000000000002000000000000000000000000000000002000000000000000000100000000000000000000000000000000000000000000000000000000000000000000",
      "type": "0x2",
      "transactionHash": "0xb7a2471b7893c62417be3e842308289c2ebfea9810e60626190a2189f0906521",
      "transactionIndex": "0xe",
      "blockHash": "0x60c070371b86b9913e74f9ca3636f102546cfc3aa8fe9d57cd18e22c3650d64b",
      "blockNumber": "0x4334c7",
      "gasUsed": "0x6e34",
      "effectiveGasPrice": "0x5d21dba01",
      "from": "0x56fd3f2bee130e9867942d0f463a16fbe49b8d81",
      "to": "0xd29b4e743f7b84d63fbf9149b6d983df2ef5c952",
      "contractAddress": null,
      "l1BaseFeeScalar": "0x0",
      "l1BlobBaseFee": "0x46117a6",
      "l1BlobBaseFeeScalar": "0x0",
      "l1Fee": "0x0",
      "l1GasPrice": "0x287b",
      "l1GasUsed": "0x640"
    },
    {
      "status": "0x1",
      "cumulativeGasUsed": "0x76e46",
      "logs": [
        {
          "address": "0xd29b4e743f7b84d63fbf9149b6d983df2ef5c952",
          "topics": [
            "0x6024a1181d4b6670f0122b1101b175bd17051e91a5b57e85972a9187c3f9721c"
          ],
          "data": "0x000000000000000000000000403ea4186ce479ff162636c37fdf4086bd286f8c00000000000000000000000000000000000000000000010f0cf064dd59200000",
          "blockHash": "0x60c070371b86b9913e74f9ca3636f102546cfc3aa8fe9d57cd18e22c3650d64b",
          "blockNumber": "0x4334c7",
          "transactionHash": "0xbde23ddd424e10d9d8c62fa81fbe532e4095a484822633da7cdcf066295eb968",
          "transactionIndex": "0xf",
          "logIndex": "0x11",
          "removed": false
        }
      ],
      "logsBloom": "0x00000000000000000000000000000000000000204000000000000000000000000000000000000000000000000000000000000000000000000000000000000000000000000000000000000000000000000000000000000000000000000000000000000000000000000000000000000000000000000000000000000000000000000000000000000000000000000000000000000000000000000000000000000000000000000010000000000000000000000000000000000000000000000000000000000002000000000000000000000000000000002000000000000000000100000000000000000000000000000000000000000000000000000000000000000000",
      "type": "0x2",
      "transactionHash": "0xbde23ddd424e10d9d8c62fa81fbe532e4095a484822633da7cdcf066295eb968",
      "transactionIndex": "0xf",
      "blockHash": "0x60c070371b86b9913e74f9ca3636f102546cfc3aa8fe9d57cd18e22c3650d64b",
      "blockNumber": "0x4334c7",
      "gasUsed": "0x6e34",
      "effectiveGasPrice": "0x5d21dba01",
      "from": "0x56fd3f2bee130e9867942d0f463a16fbe49b8d81",
      "to": "0xd29b4e743f7b84d63fbf9149b6d983df2ef5c952",
      "contractAddress": null,
      "l1BaseFeeScalar": "0x0",
      "l1BlobBaseFee": "0x46117a6",
      "l1BlobBaseFeeScalar": "0x0",
      "l1Fee": "0x0",
      "l1GasPrice": "0x287b",
      "l1GasUsed": "0x640"
    },
    {
      "status": "0x1",
      "cumulativeGasUsed": "0x7dc7a",
      "logs": [
        {
          "address": "0xd29b4e743f7b84d63fbf9149b6d983df2ef5c952",
          "topics": [
            "0x6024a1181d4b6670f0122b1101b175bd17051e91a5b57e85972a9187c3f9721c"
          ],
          "data": "0x000000000000000000000000e7cddedc3dca1674b70c347c814c8a9fcf8f68c900000000000000000000000000000000000000000000010f0cf064dd59200000",
          "blockHash": "0x60c070371b86b9913e74f9ca3636f102546cfc3aa8fe9d57cd18e22c3650d64b",
          "blockNumber": "0x4334c7",
          "transactionHash": "0x4f42d44c661cc8adf21bbf6023c443914f1c042950b8f6cc667eae286e0a1b8b",
          "transactionIndex": "0x10",
          "logIndex": "0x12",
          "removed": false
        }
      ],
      "logsBloom": "0x00000000000000000000000000000000000000204000000000000000000000000000000000000000000000000000000000000000000000000000000000000000000000000000000000000000000000000000000000000000000000000000000000000000000000000000000000000000000000000000000000000000000000000000000000000000000000000000000000000000000000000000000000000000000000000010000000000000000000000000000000000000000000000000000000000002000000000000000000000000000000002000000000000000000100000000000000000000000000000000000000000000000000000000000000000000",
      "type": "0x2",
      "transactionHash": "0x4f42d44c661cc8adf21bbf6023c443914f1c042950b8f6cc667eae286e0a1b8b",
      "transactionIndex": "0x10",
      "blockHash": "0x60c070371b86b9913e74f9ca3636f102546cfc3aa8fe9d57cd18e22c3650d64b",
      "blockNumber": "0x4334c7",
      "gasUsed": "0x6e34",
      "effectiveGasPrice": "0x5d21dba01",
      "from": "0x56fd3f2bee130e9867942d0f463a16fbe49b8d81",
      "to": "0xd29b4e743f7b84d63fbf9149b6d983df2ef5c952",
      "contractAddress": null,
      "l1BaseFeeScalar": "0x0",
      "l1BlobBaseFee": "0x46117a6",
      "l1BlobBaseFeeScalar": "0x0",
      "l1Fee": "0x0",
      "l1GasPrice": "0x287b",
      "l1GasUsed": "0x640"
    },
    {
      "status": "0x1",
      "cumulativeGasUsed": "0x133c2",
      "logs": [
        {
          "address": "0xfaa7ca2b056e60f6733ae75aa0709140a6eafd20",
          "topics": [
            "0x21921b3b46ef2c939e85d6a14410c6e3b9ce132b66e944357ff4f789f68e00e2",
            "0x000000000000000000000000578bd46003b9d3fd4c3c3f47c98b329562a6a1de"
          ],
          "data": "0x",
          "blockHash": "0x1dd8fbbe1229f9dcf47c5f737d1ff001289e865d85036e96f9836c7a42a035c0",
          "blockNumber": "0x4334c8",
          "transactionHash": "0x43ecc1a1d2480905d16c96b1444bd8faec7242bd59f78492a94def0df409ee1b",
          "transactionIndex": "0x1",
          "logIndex": "0x0",
          "removed": false
        }
      ],
      "logsBloom": "0x00000000000002000000000000000000000000000020000040000000000000000000000000000000000000000000000000000000000000100000000000000000000000000000000000000000000000000000000000000000000000000000020000000000000000000000000000000000000000000000000000100000000000000000000000000000001000000000000000000000000000000000000000000000000200000000000000000000000000000000000000000000000000000000000000000000000000000000000000000000000000000000000000000000000000000000000000000000000000000000000000000000000000000000000040000000",
      "type": "0x2",
      "transactionHash": "0x43ecc1a1d2480905d16c96b1444bd8faec7242bd59f78492a94def0df409ee1b",
      "transactionIndex": "0x1",
      "blockHash": "0x1dd8fbbe1229f9dcf47c5f737d1ff001289e865d85036e96f9836c7a42a035c0",
      "blockNumber": "0x4334c8",
      "gasUsed": "0x7fb2",
      "effectiveGasPrice": "0x5d21dba01",
      "from": "0x56fd3f2bee130e9867942d0f463a16fbe49b8d81",
      "to": "0xfaa7ca2b056e60f6733ae75aa0709140a6eafd20",
      "contractAddress": null,
      "l1BaseFeeScalar": "0x0",
      "l1BlobBaseFee": "0x46117a6",
      "l1BlobBaseFeeScalar": "0x0",
      "l1Fee": "0x0",
      "l1GasPrice": "0x287b",
      "l1GasUsed": "0x640"
    },
    {
      "status": "0x1",
      "cumulativeGasUsed": "0x1b6a4",
      "logs": [
        {
          "address": "0x578bd46003b9d3fd4c3c3f47c98b329562a6a1de",
          "topics": [
            "0x01ebc358c2c8d23692013d9ef4f803f9e0f60486a319faa591e1f84fd08fcd52",
            "0x000000000000000000000000bbc9c6e41e2a402b12992875edaa0162ed990212",
            "0x6e4203be8e01e11cb3553b0641bda0d60f19596a02cf479b6519042cbce5ac52"
          ],
          "data": "0x",
          "blockHash": "0x1dd8fbbe1229f9dcf47c5f737d1ff001289e865d85036e96f9836c7a42a035c0",
          "blockNumber": "0x4334c8",
          "transactionHash": "0xf4cca9bbab4f949450e11127f948322178d9201bb4bf85fe04ce1fce4b1e0186",
          "transactionIndex": "0x2",
          "logIndex": "0x1",
          "removed": false
        }
      ],
      "logsBloom": "0x00000000000000000000010000000000000000000000000000000000000100000000000000000000000000000000000000000000000000000000000000004000000000000000000000000000000000000000000000000000000000000000000000000000000000000000000000000000000200000000000000000000000000000000000000000000000000000000000000010000200000000000000000000000000000000000000000000000000000000000200000000000000000000000000000000000000000000000000000000000000000000000000000000000000000000000000000000000000000100000000080000000004000000000000010400000",
      "type": "0x2",
      "transactionHash": "0xf4cca9bbab4f949450e11127f948322178d9201bb4bf85fe04ce1fce4b1e0186",
      "transactionIndex": "0x2",
      "blockHash": "0x1dd8fbbe1229f9dcf47c5f737d1ff001289e865d85036e96f9836c7a42a035c0",
      "blockNumber": "0x4334c8",
      "gasUsed": "0x82e2",
      "effectiveGasPrice": "0x5d21dba01",
      "from": "0x56fd3f2bee130e9867942d0f463a16fbe49b8d81",
      "to": "0x578bd46003b9d3fd4c3c3f47c98b329562a6a1de",
      "contractAddress": null,
      "l1BaseFeeScalar": "0x0",
      "l1BlobBaseFee": "0x46117a6",
      "l1BlobBaseFeeScalar": "0x0",
      "l1Fee": "0x0",
      "l1GasPrice": "0x287b",
      "l1GasUsed": "0x710"
    }
  ],
  "libraries": [
    "node_modules/@celo/contracts/common/linkedlists/AddressSortedLinkedListWithMedian.sol:AddressSortedLinkedListWithMedian:0xf90B816Ea07eC3c6384656cd5B3249DA8fc3df6F"
  ],
  "pending": [],
  "returns": {},
  "timestamp": 1757688412931,
  "chain": 11142220,
  "commit": "48ea54d"
}