{
  "transactions": [
    {
      "hash": "0xd1814639a1c83d130aa8f941f6953271ef4743a7047e318938018ccb87808d02",
      "transactionType": "CALL",
      "contractName": null,
      "contractAddress": "0xfaa7ca2b056e60f6733ae75aa0709140a6eafd20",
      "function": "setBreakerBox(address)",
      "arguments": [
        "0x578bD46003B9D3fd4c3C3f47c98B329562a6a1dE"
      ],
      "transaction": {
        "from": "0x56fd3f2bee130e9867942d0f463a16fbe49b8d81",
        "to": "0xfaa7ca2b056e60f6733ae75aa0709140a6eafd20",
        "gas": "0xbac0",
        "value": "0x0",
        "input": "0x040bbd35000000000000000000000000578bd46003b9d3fd4c3c3f47c98b329562a6a1de",
        "nonce": "0x75b",
        "chainId": "0xaa044c"
      },
      "additionalContracts": [],
      "isFixedGasLimit": false
    },
    {
      "hash": "0x5ec194fe3663447ccc8e0d015bf450d46a616943f352b39ee265325db64489af",
      "transactionType": "CALL",
      "contractName": null,
      "contractAddress": "0x578bd46003b9d3fd4c3c3f47c98b329562a6a1de",
      "function": "setRateFeedDependencies(address,address[])",
      "arguments": [
        "0xBBc9c6E41E2A402b12992875eDaa0162Ed990212",
        "[0x40dC8528167557353fdcD98548AB2139A670Dd0b]"
      ],
      "transaction": {
        "from": "0x56fd3f2bee130e9867942d0f463a16fbe49b8d81",
        "to": "0x578bd46003b9d3fd4c3c3f47c98b329562a6a1de",
        "gas": "0xbf6a",
        "value": "0x0",
        "input": "0x87efb0b5000000000000000000000000bbc9c6e41e2a402b12992875edaa0162ed9902120000000000000000000000000000000000000000000000000000000000000040000000000000000000000000000000000000000000000000000000000000000100000000000000000000000040dc8528167557353fdcd98548ab2139a670dd0b",
        "nonce": "0x75c",
        "chainId": "0xaa044c"
      },
      "additionalContracts": [],
      "isFixedGasLimit": false
    }
  ],
  "receipts": [
    {
      "status": "0x1",
      "cumulativeGasUsed": "0x13392",
      "logs": [
        {
          "address": "0xfaa7ca2b056e60f6733ae75aa0709140a6eafd20",
          "topics": [
            "0x21921b3b46ef2c939e85d6a14410c6e3b9ce132b66e944357ff4f789f68e00e2",
            "0x000000000000000000000000578bd46003b9d3fd4c3c3f47c98b329562a6a1de"
          ],
          "data": "0x",
          "blockHash": "0x8607ddbd6149f9c2efb743d3086d2719f94cfa608303f11486dc88b90cb8c022",
          "blockNumber": "0x42bcbb",
          "transactionHash": "0xd1814639a1c83d130aa8f941f6953271ef4743a7047e318938018ccb87808d02",
          "transactionIndex": "0x1",
          "logIndex": "0x0",
          "removed": false
        }
      ],
      "logsBloom": "0x00000000000002000000000000000000000000000020000040000000000000000000000000000000000000000000000000000000000000100000000000000000000000000000000000000000000000000000000000000000000000000000020000000000000000000000000000000000000000000000000000100000000000000000000000000000001000000000000000000000000000000000000000000000000200000000000000000000000000000000000000000000000000000000000000000000000000000000000000000000000000000000000000000000000000000000000000000000000000000000000000000000000000000000000040000000",
      "type": "0x2",
      "transactionHash": "0xd1814639a1c83d130aa8f941f6953271ef4743a7047e318938018ccb87808d02",
      "transactionIndex": "0x1",
      "blockHash": "0x8607ddbd6149f9c2efb743d3086d2719f94cfa608303f11486dc88b90cb8c022",
      "blockNumber": "0x42bcbb",
      "gasUsed": "0x7fb2",
      "effectiveGasPrice": "0x5d21dba01",
      "from": "0x56fd3f2bee130e9867942d0f463a16fbe49b8d81",
      "to": "0xfaa7ca2b056e60f6733ae75aa0709140a6eafd20",
      "contractAddress": null,
      "l1BaseFeeScalar": "0x0",
      "l1BlobBaseFee": "0x1",
      "l1BlobBaseFeeScalar": "0x0",
      "l1Fee": "0x0",
      "l1GasPrice": "0x34",
      "l1GasUsed": "0x640"
    },
    {
      "status": "0x1",
      "cumulativeGasUsed": "0x1b674",
      "logs": [
        {
          "address": "0x578bd46003b9d3fd4c3c3f47c98b329562a6a1de",
          "topics": [
            "0x01ebc358c2c8d23692013d9ef4f803f9e0f60486a319faa591e1f84fd08fcd52",
            "0x000000000000000000000000bbc9c6e41e2a402b12992875edaa0162ed990212",
            "0x6e4203be8e01e11cb3553b0641bda0d60f19596a02cf479b6519042cbce5ac52"
          ],
          "data": "0x",
          "blockHash": "0x8607ddbd6149f9c2efb743d3086d2719f94cfa608303f11486dc88b90cb8c022",
          "blockNumber": "0x42bcbb",
          "transactionHash": "0x5ec194fe3663447ccc8e0d015bf450d46a616943f352b39ee265325db64489af",
          "transactionIndex": "0x2",
          "logIndex": "0x1",
          "removed": false
        }
      ],
      "logsBloom": "0x00000000000000000000010000000000000000000000000000000000000100000000000000000000000000000000000000000000000000000000000000004000000000000000000000000000000000000000000000000000000000000000000000000000000000000000000000000000000200000000000000000000000000000000000000000000000000000000000000010000200000000000000000000000000000000000000000000000000000000000200000000000000000000000000000000000000000000000000000000000000000000000000000000000000000000000000000000000000000100000000080000000004000000000000010400000",
      "type": "0x2",
      "transactionHash": "0x5ec194fe3663447ccc8e0d015bf450d46a616943f352b39ee265325db64489af",
      "transactionIndex": "0x2",
      "blockHash": "0x8607ddbd6149f9c2efb743d3086d2719f94cfa608303f11486dc88b90cb8c022",
      "blockNumber": "0x42bcbb",
      "gasUsed": "0x82e2",
      "effectiveGasPrice": "0x5d21dba01",
      "from": "0x56fd3f2bee130e9867942d0f463a16fbe49b8d81",
      "to": "0x578bd46003b9d3fd4c3c3f47c98b329562a6a1de",
      "contractAddress": null,
      "l1BaseFeeScalar": "0x0",
      "l1BlobBaseFee": "0x1",
      "l1BlobBaseFeeScalar": "0x0",
      "l1Fee": "0x0",
      "l1GasPrice": "0x34",
      "l1GasUsed": "0x710"
    }
  ],
  "libraries": [
    "node_modules/@celo/contracts/common/linkedlists/AddressSortedLinkedListWithMedian.sol:AddressSortedLinkedListWithMedian:0xf90B816Ea07eC3c6384656cd5B3249DA8fc3df6F"
  ],
  "pending": [],
  "returns": {},
  "timestamp": 1757657680202,
  "chain": 11142220,
  "commit": "48ea54d"
}