{
  "transactions": [
    {
      "hash": "0x0c90ff3243ee95b122fd86690638ca8d1001af926dc783b8357261574e6be210",
      "transactionType": "CALL",
      "contractName": null,
      "contractAddress": "0x03cdf2966185eb0b980f2481ad386b8afdab4534",
      "function": "setReferenceValues(address[],uint256[])",
      "arguments": [
        "[0xA1A8003936862E7a15092A91898D69fa8bCE290c, 0xE06C10C63377cD098b589c0b90314bFb55751558, 0x26076B9702885d475ac8c3dB3Bd9F250Dc5A318B, 0x40dC8528167557353fdcD98548AB2139A670Dd0b]",
        "[1000000000000000000000000, 1000000000000000000000000, 1000000000000000000000000, 655957000000000000000000000]"
      ],
      "transaction": {
        "from": "0x56fd3f2bee130e9867942d0f463a16fbe49b8d81",
        "to": "0x03cdf2966185eb0b980f2481ad386b8afdab4534",
        "gas": "0xe8c5",
        "value": "0x0",
        "input": "0xe829902e000000000000000000000000000000000000000000000000000000000000004000000000000000000000000000000000000000000000000000000000000000e00000000000000000000000000000000000000000000000000000000000000004000000000000000000000000a1a8003936862e7a15092a91898d69fa8bce290c000000000000000000000000e06c10c63377cd098b589c0b90314bfb5575155800000000000000000000000026076b9702885d475ac8c3db3bd9f250dc5a318b00000000000000000000000040dc8528167557353fdcd98548ab2139a670dd0b000000000000000000000000000000000000000000000000000000000000000400000000000000000000000000000000000000000000d3c21bcecceda100000000000000000000000000000000000000000000000000d3c21bcecceda100000000000000000000000000000000000000000000000000d3c21bcecceda10000000000000000000000000000000000000000000000021e984c390cf0b02b200000",
        "nonce": "0x773",
        "chainId": "0xaa044c"
      },
      "additionalContracts": [],
      "isFixedGasLimit": false
    },
    {
      "hash": "0xa6b44ba5f7d85a29e17fa2a97fb805267b426b056f090712edfcd0c1d7096a3b",
      "transactionType": "CALL",
      "contractName": null,
      "contractAddress": "0xd29b4e743f7b84d63fbf9149b6d983df2ef5c952",
      "function": "setSmoothingFactor(address,uint256)",
      "arguments": [
        "0xC443D8C40D321B34f815eaC76a7620FB06F9E8a4",
        "1"
      ],
      "transaction": {
        "from": "0x56fd3f2bee130e9867942d0f463a16fbe49b8d81",
        "to": "0xd29b4e743f7b84d63fbf9149b6d983df2ef5c952",
        "gas": "0x97c3",
        "value": "0x0",
        "input": "0x3151e220000000000000000000000000c443d8c40d321b34f815eac76a7620fb06f9e8a40000000000000000000000000000000000000000000000000000000000000001",
        "nonce": "0x774",
        "chainId": "0xaa044c"
      },
      "additionalContracts": [],
      "isFixedGasLimit": false
    },
    {
      "hash": "0x4aed61cd4323de782a6dfe2f8e9467b66783d15a65e5524a1c887b07233f58fa",
      "transactionType": "CALL",
      "contractName": null,
      "contractAddress": "0xd29b4e743f7b84d63fbf9149b6d983df2ef5c952",
      "function": "setSmoothingFactor(address,uint256)",
      "arguments": [
        "0x5D5a22116233BDb2a9C2977279cC348B8b8Ce917",
        "5000000000000000000000"
      ],
      "transaction": {
        "from": "0x56fd3f2bee130e9867942d0f463a16fbe49b8d81",
        "to": "0xd29b4e743f7b84d63fbf9149b6d983df2ef5c952",
        "gas": "0x9837",
        "value": "0x0",
        "input": "0x3151e2200000000000000000000000005d5a22116233bdb2a9c2977279cc348b8b8ce91700000000000000000000000000000000000000000000010f0cf064dd59200000",
        "nonce": "0x775",
        "chainId": "0xaa044c"
      },
      "additionalContracts": [],
      "isFixedGasLimit": false
    },
    {
      "hash": "0xf1978e385da3c6d3559493937543dbba804cd77fd9d6afb0af9c8f7e4bc365bc",
      "transactionType": "CALL",
      "contractName": null,
      "contractAddress": "0xd29b4e743f7b84d63fbf9149b6d983df2ef5c952",
      "function": "setSmoothingFactor(address,uint256)",
      "arguments": [
        "0xCE1213507c81576759181A2b795f3c9aE5ede6bd",
        "5000000000000000000000"
      ],
      "transaction": {
        "from": "0x56fd3f2bee130e9867942d0f463a16fbe49b8d81",
        "to": "0xd29b4e743f7b84d63fbf9149b6d983df2ef5c952",
        "gas": "0x9837",
        "value": "0x0",
        "input": "0x3151e220000000000000000000000000ce1213507c81576759181a2b795f3c9ae5ede6bd00000000000000000000000000000000000000000000010f0cf064dd59200000",
        "nonce": "0x776",
        "chainId": "0xaa044c"
      },
      "additionalContracts": [],
      "isFixedGasLimit": false
    },
    {
      "hash": "0xd3ab22eb380709bca2cc37b624b7ca9d2e6935c2343e7032693197cd03e54012",
      "transactionType": "CALL",
      "contractName": null,
      "contractAddress": "0xd29b4e743f7b84d63fbf9149b6d983df2ef5c952",
      "function": "setSmoothingFactor(address,uint256)",
      "arguments": [
        "0xBBc9c6E41E2A402b12992875eDaa0162Ed990212",
        "5000000000000000000000"
      ],
      "transaction": {
        "from": "0x56fd3f2bee130e9867942d0f463a16fbe49b8d81",
        "to": "0xd29b4e743f7b84d63fbf9149b6d983df2ef5c952",
        "gas": "0x9837",
        "value": "0x0",
        "input": "0x3151e220000000000000000000000000bbc9c6e41e2a402b12992875edaa0162ed99021200000000000000000000000000000000000000000000010f0cf064dd59200000",
        "nonce": "0x777",
        "chainId": "0xaa044c"
      },
      "additionalContracts": [],
      "isFixedGasLimit": false
    },
    {
      "hash": "0x03701d5a56a012a8e2552c43fd18e4096c8a698a64f500e012f88a4ab1555f6a",
      "transactionType": "CALL",
      "contractName": null,
      "contractAddress": "0xd29b4e743f7b84d63fbf9149b6d983df2ef5c952",
      "function": "setSmoothingFactor(address,uint256)",
      "arguments": [
        "0xbAcEE37d31b9f022Ef5d232B9fD53F05a531c169",
        "5000000000000000000000"
      ],
      "transaction": {
        "from": "0x56fd3f2bee130e9867942d0f463a16fbe49b8d81",
        "to": "0xd29b4e743f7b84d63fbf9149b6d983df2ef5c952",
        "gas": "0x9837",
        "value": "0x0",
        "input": "0x3151e220000000000000000000000000bacee37d31b9f022ef5d232b9fd53f05a531c16900000000000000000000000000000000000000000000010f0cf064dd59200000",
        "nonce": "0x778",
        "chainId": "0xaa044c"
      },
      "additionalContracts": [],
      "isFixedGasLimit": false
    },
    {
      "hash": "0x87b130f6f24e52a8ded9884126cb4032f2576deffe550dd979f522f72278c8b1",
      "transactionType": "CALL",
      "contractName": null,
      "contractAddress": "0xd29b4e743f7b84d63fbf9149b6d983df2ef5c952",
      "function": "setSmoothingFactor(address,uint256)",
      "arguments": [
        "0x341E2A8b5b52B54F1794DDbdD54e433746C65d60",
        "5000000000000000000000"
      ],
      "transaction": {
        "from": "0x56fd3f2bee130e9867942d0f463a16fbe49b8d81",
        "to": "0xd29b4e743f7b84d63fbf9149b6d983df2ef5c952",
        "gas": "0x9837",
        "value": "0x0",
        "input": "0x3151e220000000000000000000000000341e2a8b5b52b54f1794ddbdd54e433746c65d6000000000000000000000000000000000000000000000010f0cf064dd59200000",
        "nonce": "0x779",
        "chainId": "0xaa044c"
      },
      "additionalContracts": [],
      "isFixedGasLimit": false
    },
    {
      "hash": "0xa6d137585768e3c4701b91a70730d21c9336a1320267675002f375e8bc59eed2",
      "transactionType": "CALL",
      "contractName": null,
      "contractAddress": "0xd29b4e743f7b84d63fbf9149b6d983df2ef5c952",
      "function": "setSmoothingFactor(address,uint256)",
      "arguments": [
        "0x7149632514c5BAA315520Ab9d12556D9C67F15E0",
        "5000000000000000000000"
      ],
      "transaction": {
        "from": "0x56fd3f2bee130e9867942d0f463a16fbe49b8d81",
        "to": "0xd29b4e743f7b84d63fbf9149b6d983df2ef5c952",
        "gas": "0x9837",
        "value": "0x0",
        "input": "0x3151e2200000000000000000000000007149632514c5baa315520ab9d12556d9c67f15e000000000000000000000000000000000000000000000010f0cf064dd59200000",
        "nonce": "0x77a",
        "chainId": "0xaa044c"
      },
      "additionalContracts": [],
      "isFixedGasLimit": false
    },
    {
      "hash": "0x4ade54059d43c2204a570b93c111402905f5d912c91165bc40c9f8a539441f5c",
      "transactionType": "CALL",
      "contractName": null,
      "contractAddress": "0xd29b4e743f7b84d63fbf9149b6d983df2ef5c952",
      "function": "setSmoothingFactor(address,uint256)",
      "arguments": [
        "0xbB776CD80Bab1E658A6a8685580751166145121F",
        "5000000000000000000000"
      ],
      "transaction": {
        "from": "0x56fd3f2bee130e9867942d0f463a16fbe49b8d81",
        "to": "0xd29b4e743f7b84d63fbf9149b6d983df2ef5c952",
        "gas": "0x9837",
        "value": "0x0",
        "input": "0x3151e220000000000000000000000000bb776cd80bab1e658a6a8685580751166145121f00000000000000000000000000000000000000000000010f0cf064dd59200000",
        "nonce": "0x77b",
        "chainId": "0xaa044c"
      },
      "additionalContracts": [],
      "isFixedGasLimit": false
    },
    {
      "hash": "0xe69233763481aed38ba6957050a21e7b1966a2a6ae05ffc703646c807e8cef16",
      "transactionType": "CALL",
      "contractName": null,
      "contractAddress": "0xd29b4e743f7b84d63fbf9149b6d983df2ef5c952",
      "function": "setSmoothingFactor(address,uint256)",
      "arguments": [
        "0xAe5eEe6815b8529847955d19522858806Bca8217",
        "5000000000000000000000"
      ],
      "transaction": {
        "from": "0x56fd3f2bee130e9867942d0f463a16fbe49b8d81",
        "to": "0xd29b4e743f7b84d63fbf9149b6d983df2ef5c952",
        "gas": "0x9837",
        "value": "0x0",
        "input": "0x3151e220000000000000000000000000ae5eee6815b8529847955d19522858806bca821700000000000000000000000000000000000000000000010f0cf064dd59200000",
        "nonce": "0x77c",
        "chainId": "0xaa044c"
      },
      "additionalContracts": [],
      "isFixedGasLimit": false
    },
    {
      "hash": "0x5b3e07856e0f4538e7ea781d5538abaecd62939804d2537a1e8fb106c26a684f",
      "transactionType": "CALL",
      "contractName": null,
      "contractAddress": "0xd29b4e743f7b84d63fbf9149b6d983df2ef5c952",
      "function": "setSmoothingFactor(address,uint256)",
      "arguments": [
        "0x53F7dC47aB9273C2d83c2Df557F3FcF1e6A9Ee10",
        "5000000000000000000000"
      ],
      "transaction": {
        "from": "0x56fd3f2bee130e9867942d0f463a16fbe49b8d81",
        "to": "0xd29b4e743f7b84d63fbf9149b6d983df2ef5c952",
        "gas": "0x9837",
        "value": "0x0",
        "input": "0x3151e22000000000000000000000000053f7dc47ab9273c2d83c2df557f3fcf1e6a9ee1000000000000000000000000000000000000000000000010f0cf064dd59200000",
        "nonce": "0x77d",
        "chainId": "0xaa044c"
      },
      "additionalContracts": [],
      "isFixedGasLimit": false
    },
    {
      "hash": "0x8479da4fd1fd652d35b4d3d760436372a02bfce5cc105affd5df5cdb34919bb5",
      "transactionType": "CALL",
      "contractName": null,
      "contractAddress": "0xd29b4e743f7b84d63fbf9149b6d983df2ef5c952",
      "function": "setSmoothingFactor(address,uint256)",
      "arguments": [
        "0xc9dbD89FCe5710C91c35Ed9af1dc93fA090A28B0",
        "5000000000000000000000"
      ],
      "transaction": {
        "from": "0x56fd3f2bee130e9867942d0f463a16fbe49b8d81",
        "to": "0xd29b4e743f7b84d63fbf9149b6d983df2ef5c952",
        "gas": "0x9837",
        "value": "0x0",
        "input": "0x3151e220000000000000000000000000c9dbd89fce5710c91c35ed9af1dc93fa090a28b000000000000000000000000000000000000000000000010f0cf064dd59200000",
        "nonce": "0x77e",
        "chainId": "0xaa044c"
      },
      "additionalContracts": [],
      "isFixedGasLimit": false
    },
    {
      "hash": "0xd4cc0cef801d125aaaccdbf593109f3b01844e6396be31b26153d4393adbb9a2",
      "transactionType": "CALL",
      "contractName": null,
      "contractAddress": "0xd29b4e743f7b84d63fbf9149b6d983df2ef5c952",
      "function": "setSmoothingFactor(address,uint256)",
      "arguments": [
        "0x864Ea534d6992F3721000cdB6585b11E7046D5ec",
        "5000000000000000000000"
      ],
      "transaction": {
        "from": "0x56fd3f2bee130e9867942d0f463a16fbe49b8d81",
        "to": "0xd29b4e743f7b84d63fbf9149b6d983df2ef5c952",
        "gas": "0x9826",
        "value": "0x0",
        "input": "0x3151e220000000000000000000000000864ea534d6992f3721000cdb6585b11e7046d5ec00000000000000000000000000000000000000000000010f0cf064dd59200000",
        "nonce": "0x77f",
        "chainId": "0xaa044c"
      },
      "additionalContracts": [],
      "isFixedGasLimit": false
    },
    {
      "hash": "0x97acfa95fd605048bda4bd4abe8a3c4f115ef1414fd88ccc22df3c7c6a0c7fc2",
      "transactionType": "CALL",
      "contractName": null,
      "contractAddress": "0xd29b4e743f7b84d63fbf9149b6d983df2ef5c952",
      "function": "setSmoothingFactor(address,uint256)",
      "arguments": [
        "0x4F2746E21A13Ea9A8A832D929CDBf32ffC113A2C",
        "5000000000000000000000"
      ],
      "transaction": {
        "from": "0x56fd3f2bee130e9867942d0f463a16fbe49b8d81",
        "to": "0xd29b4e743f7b84d63fbf9149b6d983df2ef5c952",
        "gas": "0x9837",
        "value": "0x0",
        "input": "0x3151e2200000000000000000000000004f2746e21a13ea9a8a832d929cdbf32ffc113a2c00000000000000000000000000000000000000000000010f0cf064dd59200000",
        "nonce": "0x780",
        "chainId": "0xaa044c"
      },
      "additionalContracts": [],
      "isFixedGasLimit": false
    },
    {
      "hash": "0x5df1506e613006377d99be695979b7ecc549d0e3bb681c305b1e288cf407e613",
      "transactionType": "CALL",
      "contractName": null,
      "contractAddress": "0xd29b4e743f7b84d63fbf9149b6d983df2ef5c952",
      "function": "setSmoothingFactor(address,uint256)",
      "arguments": [
        "0x403EA4186ce479fF162636c37fDf4086bD286F8c",
        "5000000000000000000000"
      ],
      "transaction": {
        "from": "0x56fd3f2bee130e9867942d0f463a16fbe49b8d81",
        "to": "0xd29b4e743f7b84d63fbf9149b6d983df2ef5c952",
        "gas": "0x9837",
        "value": "0x0",
        "input": "0x3151e220000000000000000000000000403ea4186ce479ff162636c37fdf4086bd286f8c00000000000000000000000000000000000000000000010f0cf064dd59200000",
        "nonce": "0x781",
        "chainId": "0xaa044c"
      },
      "additionalContracts": [],
      "isFixedGasLimit": false
    },
    {
      "hash": "0x6b0dcee19ee099fab991ae9068f8277bd5439c03e4bdbcd086e38a0c64f3fc89",
      "transactionType": "CALL",
      "contractName": null,
      "contractAddress": "0xd29b4e743f7b84d63fbf9149b6d983df2ef5c952",
      "function": "setSmoothingFactor(address,uint256)",
      "arguments": [
        "0xe7cDDEDC3dCA1674b70c347c814c8A9fCf8F68C9",
        "5000000000000000000000"
      ],
      "transaction": {
        "from": "0x56fd3f2bee130e9867942d0f463a16fbe49b8d81",
        "to": "0xd29b4e743f7b84d63fbf9149b6d983df2ef5c952",
        "gas": "0x9837",
        "value": "0x0",
        "input": "0x3151e220000000000000000000000000e7cddedc3dca1674b70c347c814c8a9fcf8f68c900000000000000000000000000000000000000000000010f0cf064dd59200000",
        "nonce": "0x782",
        "chainId": "0xaa044c"
      },
      "additionalContracts": [],
      "isFixedGasLimit": false
    },
    {
      "hash": "0x3f7d044eccb4fffd76fc51493254a92afc2face57f976e2dfdccdb4fdc62ff4a",
      "transactionType": "CALL",
      "contractName": null,
      "contractAddress": "0x578bd46003b9d3fd4c3c3f47c98b329562a6a1de",
      "function": "toggleBreaker(address,address,bool)",
      "arguments": [
        "0x03CDf2966185Eb0b980f2481Ad386B8aFdAB4534",
        "0xA1A8003936862E7a15092A91898D69fa8bCE290c",
        "true"
      ],
      "transaction": {
        "from": "0x56fd3f2bee130e9867942d0f463a16fbe49b8d81",
        "to": "0x578bd46003b9d3fd4c3c3f47c98b329562a6a1de",
        "gas": "0x236f6",
        "value": "0x0",
        "input": "0x0c60714600000000000000000000000003cdf2966185eb0b980f2481ad386b8afdab4534000000000000000000000000a1a8003936862e7a15092a91898d69fa8bce290c0000000000000000000000000000000000000000000000000000000000000001",
        "nonce": "0x783",
        "chainId": "0xaa044c"
      },
      "additionalContracts": [],
      "isFixedGasLimit": false
    },
    {
      "hash": "0xd2915ae16f1fae52f33bbf98b705ffe90ed5fe485ff4fa46ca25dacd29a432b3",
      "transactionType": "CALL",
      "contractName": null,
      "contractAddress": "0x578bd46003b9d3fd4c3c3f47c98b329562a6a1de",
      "function": "toggleBreaker(address,address,bool)",
      "arguments": [
        "0x03CDf2966185Eb0b980f2481Ad386B8aFdAB4534",
        "0xE06C10C63377cD098b589c0b90314bFb55751558",
        "true"
      ],
      "transaction": {
        "from": "0x56fd3f2bee130e9867942d0f463a16fbe49b8d81",
        "to": "0x578bd46003b9d3fd4c3c3f47c98b329562a6a1de",
        "gas": "0x21787",
        "value": "0x0",
        "input": "0x0c60714600000000000000000000000003cdf2966185eb0b980f2481ad386b8afdab4534000000000000000000000000e06c10c63377cd098b589c0b90314bfb557515580000000000000000000000000000000000000000000000000000000000000001",
        "nonce": "0x784",
        "chainId": "0xaa044c"
      },
      "additionalContracts": [],
      "isFixedGasLimit": false
    },
    {
      "hash": "0x7d1af5478b0b535c0d8c88214a930a4ff0229e94933e56de726e96f948930f52",
      "transactionType": "CALL",
      "contractName": null,
      "contractAddress": "0x578bd46003b9d3fd4c3c3f47c98b329562a6a1de",
      "function": "toggleBreaker(address,address,bool)",
      "arguments": [
        "0x03CDf2966185Eb0b980f2481Ad386B8aFdAB4534",
        "0x26076B9702885d475ac8c3dB3Bd9F250Dc5A318B",
        "true"
      ],
      "transaction": {
        "from": "0x56fd3f2bee130e9867942d0f463a16fbe49b8d81",
        "to": "0x578bd46003b9d3fd4c3c3f47c98b329562a6a1de",
        "gas": "0x21787",
        "value": "0x0",
        "input": "0x0c60714600000000000000000000000003cdf2966185eb0b980f2481ad386b8afdab453400000000000000000000000026076b9702885d475ac8c3db3bd9f250dc5a318b0000000000000000000000000000000000000000000000000000000000000001",
        "nonce": "0x785",
        "chainId": "0xaa044c"
      },
      "additionalContracts": [],
      "isFixedGasLimit": false
    },
    {
      "hash": "0xc51d9f9d474391e1edc5fe50b8f61f1c0e8b10adedce16d14be90d2d4989496b",
      "transactionType": "CALL",
      "contractName": null,
      "contractAddress": "0x578bd46003b9d3fd4c3c3f47c98b329562a6a1de",
      "function": "toggleBreaker(address,address,bool)",
      "arguments": [
        "0x03CDf2966185Eb0b980f2481Ad386B8aFdAB4534",
        "0x40dC8528167557353fdcD98548AB2139A670Dd0b",
        "true"
      ],
      "transaction": {
        "from": "0x56fd3f2bee130e9867942d0f463a16fbe49b8d81",
        "to": "0x578bd46003b9d3fd4c3c3f47c98b329562a6a1de",
        "gas": "0x21787",
        "value": "0x0",
        "input": "0x0c60714600000000000000000000000003cdf2966185eb0b980f2481ad386b8afdab453400000000000000000000000040dc8528167557353fdcd98548ab2139a670dd0b0000000000000000000000000000000000000000000000000000000000000001",
        "nonce": "0x786",
        "chainId": "0xaa044c"
      },
      "additionalContracts": [],
      "isFixedGasLimit": false
    },
    {
      "hash": "0x4318464763d137f6e9deb8c5c6cf7e581069cc994843c9438ab459c69d7b8d89",
      "transactionType": "CALL",
      "contractName": null,
      "contractAddress": "0xfaa7ca2b056e60f6733ae75aa0709140a6eafd20",
      "function": "setBreakerBox(address)",
      "arguments": [
        "0x578bD46003B9D3fd4c3C3f47c98B329562a6a1dE"
      ],
      "transaction": {
        "from": "0x56fd3f2bee130e9867942d0f463a16fbe49b8d81",
        "to": "0xfaa7ca2b056e60f6733ae75aa0709140a6eafd20",
        "gas": "0xbac0",
        "value": "0x0",
        "input": "0x040bbd35000000000000000000000000578bd46003b9d3fd4c3c3f47c98b329562a6a1de",
        "nonce": "0x787",
        "chainId": "0xaa044c"
      },
      "additionalContracts": [],
      "isFixedGasLimit": false
    },
    {
      "hash": "0xafc54fe1480abed857b80cd1129f1f793475afedc2c1a6acc9ab78ccca254281",
      "transactionType": "CALL",
      "contractName": null,
      "contractAddress": "0x578bd46003b9d3fd4c3c3f47c98b329562a6a1de",
      "function": "setRateFeedDependencies(address,address[])",
      "arguments": [
        "0xBBc9c6E41E2A402b12992875eDaa0162Ed990212",
        "[0x40dC8528167557353fdcD98548AB2139A670Dd0b]"
      ],
      "transaction": {
        "from": "0x56fd3f2bee130e9867942d0f463a16fbe49b8d81",
        "to": "0x578bd46003b9d3fd4c3c3f47c98b329562a6a1de",
        "gas": "0xbf6a",
        "value": "0x0",
        "input": "0x87efb0b5000000000000000000000000bbc9c6e41e2a402b12992875edaa0162ed9902120000000000000000000000000000000000000000000000000000000000000040000000000000000000000000000000000000000000000000000000000000000100000000000000000000000040dc8528167557353fdcd98548ab2139a670dd0b",
        "nonce": "0x788",
        "chainId": "0xaa044c"
      },
      "additionalContracts": [],
      "isFixedGasLimit": false
    }
  ],
  "receipts": [
    {
      "status": "0x1",
      "cumulativeGasUsed": "0x15c7e",
      "logs": [
        {
          "address": "0x03cdf2966185eb0b980f2481ad386b8afdab4534",
          "topics": [
            "0xa62a59cb391b90466127d5c2ae9c7cfb59877763680d974867d6abe0c4fd52cb"
          ],
          "data": "0x000000000000000000000000a1a8003936862e7a15092a91898d69fa8bce290c00000000000000000000000000000000000000000000d3c21bcecceda1000000",
          "blockHash": "0x93450ae3783cdcad13bcbbae3b596505143f4388719dd6e85520c0fc52abd874",
          "blockNumber": "0x430a4e",
          "transactionHash": "0x0c90ff3243ee95b122fd86690638ca8d1001af926dc783b8357261574e6be210",
          "transactionIndex": "0x1",
          "logIndex": "0x0",
          "removed": false
        },
        {
          "address": "0x03cdf2966185eb0b980f2481ad386b8afdab4534",
          "topics": [
            "0xa62a59cb391b90466127d5c2ae9c7cfb59877763680d974867d6abe0c4fd52cb"
          ],
          "data": "0x000000000000000000000000e06c10c63377cd098b589c0b90314bfb5575155800000000000000000000000000000000000000000000d3c21bcecceda1000000",
          "blockHash": "0x93450ae3783cdcad13bcbbae3b596505143f4388719dd6e85520c0fc52abd874",
          "blockNumber": "0x430a4e",
          "transactionHash": "0x0c90ff3243ee95b122fd86690638ca8d1001af926dc783b8357261574e6be210",
          "transactionIndex": "0x1",
          "logIndex": "0x1",
          "removed": false
        },
        {
          "address": "0x03cdf2966185eb0b980f2481ad386b8afdab4534",
          "topics": [
            "0xa62a59cb391b90466127d5c2ae9c7cfb59877763680d974867d6abe0c4fd52cb"
          ],
          "data": "0x00000000000000000000000026076b9702885d475ac8c3db3bd9f250dc5a318b00000000000000000000000000000000000000000000d3c21bcecceda1000000",
          "blockHash": "0x93450ae3783cdcad13bcbbae3b596505143f4388719dd6e85520c0fc52abd874",
          "blockNumber": "0x430a4e",
          "transactionHash": "0x0c90ff3243ee95b122fd86690638ca8d1001af926dc783b8357261574e6be210",
          "transactionIndex": "0x1",
          "logIndex": "0x2",
          "removed": false
        },
        {
          "address": "0x03cdf2966185eb0b980f2481ad386b8afdab4534",
          "topics": [
            "0xa62a59cb391b90466127d5c2ae9c7cfb59877763680d974867d6abe0c4fd52cb"
          ],
          "data": "0x00000000000000000000000040dc8528167557353fdcd98548ab2139a670dd0b0000000000000000000000000000000000000000021e984c390cf0b02b200000",
          "blockHash": "0x93450ae3783cdcad13bcbbae3b596505143f4388719dd6e85520c0fc52abd874",
          "blockNumber": "0x430a4e",
          "transactionHash": "0x0c90ff3243ee95b122fd86690638ca8d1001af926dc783b8357261574e6be210",
          "transactionIndex": "0x1",
          "logIndex": "0x3",
          "removed": false
        }
      ],
      "logsBloom": "0x00000000000000000000000000000000000000000000000000000000000000000000000002000000000000000000000000000000000000000000000000000000000000000000000000000000000000000000000000000000000000000000000000000000000000000002010000000000000000000000000000000000000000000000000000000000000000000000000000000000000000000000000000000000000000000000000000000000000000000000000000000000000000000000000000000000000000000000000000000000000000000000000000000100000000000000000000000000000000000000000000000000000004000000000040000000",
      "type": "0x2",
      "transactionHash": "0x0c90ff3243ee95b122fd86690638ca8d1001af926dc783b8357261574e6be210",
      "transactionIndex": "0x1",
      "blockHash": "0x93450ae3783cdcad13bcbbae3b596505143f4388719dd6e85520c0fc52abd874",
      "blockNumber": "0x430a4e",
      "gasUsed": "0xa886",
      "effectiveGasPrice": "0x5d21dba01",
      "from": "0x56fd3f2bee130e9867942d0f463a16fbe49b8d81",
      "to": "0x03cdf2966185eb0b980f2481ad386b8afdab4534",
      "contractAddress": null,
      "l1BaseFeeScalar": "0x0",
      "l1BlobBaseFee": "0x358",
      "l1BlobBaseFeeScalar": "0x0",
      "l1Fee": "0x0",
      "l1GasPrice": "0xb67",
      "l1GasUsed": "0xbec"
    },
    {
      "status": "0x1",
      "cumulativeGasUsed": "0x1ca5e",
      "logs": [
        {
          "address": "0xd29b4e743f7b84d63fbf9149b6d983df2ef5c952",
          "topics": [
            "0x6024a1181d4b6670f0122b1101b175bd17051e91a5b57e85972a9187c3f9721c"
          ],
          "data": "0x000000000000000000000000c443d8c40d321b34f815eac76a7620fb06f9e8a40000000000000000000000000000000000000000000000000000000000000001",
          "blockHash": "0x93450ae3783cdcad13bcbbae3b596505143f4388719dd6e85520c0fc52abd874",
          "blockNumber": "0x430a4e",
          "transactionHash": "0xa6b44ba5f7d85a29e17fa2a97fb805267b426b056f090712edfcd0c1d7096a3b",
          "transactionIndex": "0x2",
          "logIndex": "0x4",
          "removed": false
        }
      ],
      "logsBloom": "0x00000000000000000000000000000000000000204000000000000000000000000000000000000000000000000000000000000000000000000000000000000000000000000000000000000000000000000000000000000000000000000000000000000000000000000000000000000000000000000000000000000000000000000000000000000000000000000000000000000000000000000000000000000000000000000010000000000000000000000000000000000000000000000000000000000002000000000000000000000000000000002000000000000000000100000000000000000000000000000000000000000000000000000000000000000000",
      "type": "0x2",
      "transactionHash": "0xa6b44ba5f7d85a29e17fa2a97fb805267b426b056f090712edfcd0c1d7096a3b",
      "transactionIndex": "0x2",
      "blockHash": "0x93450ae3783cdcad13bcbbae3b596505143f4388719dd6e85520c0fc52abd874",
      "blockNumber": "0x430a4e",
      "gasUsed": "0x6de0",
      "effectiveGasPrice": "0x5d21dba01",
      "from": "0x56fd3f2bee130e9867942d0f463a16fbe49b8d81",
      "to": "0xd29b4e743f7b84d63fbf9149b6d983df2ef5c952",
      "contractAddress": null,
      "l1BaseFeeScalar": "0x0",
      "l1BlobBaseFee": "0x358",
      "l1BlobBaseFeeScalar": "0x0",
      "l1Fee": "0x0",
      "l1GasPrice": "0xb67",
      "l1GasUsed": "0x640"
    },
    {
      "status": "0x1",
      "cumulativeGasUsed": "0x23892",
      "logs": [
        {
          "address": "0xd29b4e743f7b84d63fbf9149b6d983df2ef5c952",
          "topics": [
            "0x6024a1181d4b6670f0122b1101b175bd17051e91a5b57e85972a9187c3f9721c"
          ],
          "data": "0x0000000000000000000000005d5a22116233bdb2a9c2977279cc348b8b8ce91700000000000000000000000000000000000000000000010f0cf064dd59200000",
          "blockHash": "0x93450ae3783cdcad13bcbbae3b596505143f4388719dd6e85520c0fc52abd874",
          "blockNumber": "0x430a4e",
          "transactionHash": "0x4aed61cd4323de782a6dfe2f8e9467b66783d15a65e5524a1c887b07233f58fa",
          "transactionIndex": "0x3",
          "logIndex": "0x5",
          "removed": false
        }
      ],
      "logsBloom": "0x00000000000000000000000000000000000000204000000000000000000000000000000000000000000000000000000000000000000000000000000000000000000000000000000000000000000000000000000000000000000000000000000000000000000000000000000000000000000000000000000000000000000000000000000000000000000000000000000000000000000000000000000000000000000000000010000000000000000000000000000000000000000000000000000000000002000000000000000000000000000000002000000000000000000100000000000000000000000000000000000000000000000000000000000000000000",
      "type": "0x2",
      "transactionHash": "0x4aed61cd4323de782a6dfe2f8e9467b66783d15a65e5524a1c887b07233f58fa",
      "transactionIndex": "0x3",
      "blockHash": "0x93450ae3783cdcad13bcbbae3b596505143f4388719dd6e85520c0fc52abd874",
      "blockNumber": "0x430a4e",
      "gasUsed": "0x6e34",
      "effectiveGasPrice": "0x5d21dba01",
      "from": "0x56fd3f2bee130e9867942d0f463a16fbe49b8d81",
      "to": "0xd29b4e743f7b84d63fbf9149b6d983df2ef5c952",
      "contractAddress": null,
      "l1BaseFeeScalar": "0x0",
      "l1BlobBaseFee": "0x358",
      "l1BlobBaseFeeScalar": "0x0",
      "l1Fee": "0x0",
      "l1GasPrice": "0xb67",
      "l1GasUsed": "0x640"
    },
    {
      "status": "0x1",
      "cumulativeGasUsed": "0x2a6c6",
      "logs": [
        {
          "address": "0xd29b4e743f7b84d63fbf9149b6d983df2ef5c952",
          "topics": [
            "0x6024a1181d4b6670f0122b1101b175bd17051e91a5b57e85972a9187c3f9721c"
          ],
          "data": "0x000000000000000000000000ce1213507c81576759181a2b795f3c9ae5ede6bd00000000000000000000000000000000000000000000010f0cf064dd59200000",
          "blockHash": "0x93450ae3783cdcad13bcbbae3b596505143f4388719dd6e85520c0fc52abd874",
          "blockNumber": "0x430a4e",
          "transactionHash": "0xf1978e385da3c6d3559493937543dbba804cd77fd9d6afb0af9c8f7e4bc365bc",
          "transactionIndex": "0x4",
          "logIndex": "0x6",
          "removed": false
        }
      ],
      "logsBloom": "0x00000000000000000000000000000000000000204000000000000000000000000000000000000000000000000000000000000000000000000000000000000000000000000000000000000000000000000000000000000000000000000000000000000000000000000000000000000000000000000000000000000000000000000000000000000000000000000000000000000000000000000000000000000000000000000010000000000000000000000000000000000000000000000000000000000002000000000000000000000000000000002000000000000000000100000000000000000000000000000000000000000000000000000000000000000000",
      "type": "0x2",
      "transactionHash": "0xf1978e385da3c6d3559493937543dbba804cd77fd9d6afb0af9c8f7e4bc365bc",
      "transactionIndex": "0x4",
      "blockHash": "0x93450ae3783cdcad13bcbbae3b596505143f4388719dd6e85520c0fc52abd874",
      "blockNumber": "0x430a4e",
      "gasUsed": "0x6e34",
      "effectiveGasPrice": "0x5d21dba01",
      "from": "0x56fd3f2bee130e9867942d0f463a16fbe49b8d81",
      "to": "0xd29b4e743f7b84d63fbf9149b6d983df2ef5c952",
      "contractAddress": null,
      "l1BaseFeeScalar": "0x0",
      "l1BlobBaseFee": "0x358",
      "l1BlobBaseFeeScalar": "0x0",
      "l1Fee": "0x0",
      "l1GasPrice": "0xb67",
      "l1GasUsed": "0x640"
    },
    {
      "status": "0x1",
      "cumulativeGasUsed": "0x314fa",
      "logs": [
        {
          "address": "0xd29b4e743f7b84d63fbf9149b6d983df2ef5c952",
          "topics": [
            "0x6024a1181d4b6670f0122b1101b175bd17051e91a5b57e85972a9187c3f9721c"
          ],
          "data": "0x000000000000000000000000bbc9c6e41e2a402b12992875edaa0162ed99021200000000000000000000000000000000000000000000010f0cf064dd59200000",
          "blockHash": "0x93450ae3783cdcad13bcbbae3b596505143f4388719dd6e85520c0fc52abd874",
          "blockNumber": "0x430a4e",
          "transactionHash": "0xd3ab22eb380709bca2cc37b624b7ca9d2e6935c2343e7032693197cd03e54012",
          "transactionIndex": "0x5",
          "logIndex": "0x7",
          "removed": false
        }
      ],
      "logsBloom": "0x00000000000000000000000000000000000000204000000000000000000000000000000000000000000000000000000000000000000000000000000000000000000000000000000000000000000000000000000000000000000000000000000000000000000000000000000000000000000000000000000000000000000000000000000000000000000000000000000000000000000000000000000000000000000000000010000000000000000000000000000000000000000000000000000000000002000000000000000000000000000000002000000000000000000100000000000000000000000000000000000000000000000000000000000000000000",
      "type": "0x2",
      "transactionHash": "0xd3ab22eb380709bca2cc37b624b7ca9d2e6935c2343e7032693197cd03e54012",
      "transactionIndex": "0x5",
      "blockHash": "0x93450ae3783cdcad13bcbbae3b596505143f4388719dd6e85520c0fc52abd874",
      "blockNumber": "0x430a4e",
      "gasUsed": "0x6e34",
      "effectiveGasPrice": "0x5d21dba01",
      "from": "0x56fd3f2bee130e9867942d0f463a16fbe49b8d81",
      "to": "0xd29b4e743f7b84d63fbf9149b6d983df2ef5c952",
      "contractAddress": null,
      "l1BaseFeeScalar": "0x0",
      "l1BlobBaseFee": "0x358",
      "l1BlobBaseFeeScalar": "0x0",
      "l1Fee": "0x0",
      "l1GasPrice": "0xb67",
      "l1GasUsed": "0x640"
    },
    {
      "status": "0x1",
      "cumulativeGasUsed": "0x3832e",
      "logs": [
        {
          "address": "0xd29b4e743f7b84d63fbf9149b6d983df2ef5c952",
          "topics": [
            "0x6024a1181d4b6670f0122b1101b175bd17051e91a5b57e85972a9187c3f9721c"
          ],
          "data": "0x000000000000000000000000bacee37d31b9f022ef5d232b9fd53f05a531c16900000000000000000000000000000000000000000000010f0cf064dd59200000",
          "blockHash": "0x93450ae3783cdcad13bcbbae3b596505143f4388719dd6e85520c0fc52abd874",
          "blockNumber": "0x430a4e",
          "transactionHash": "0x03701d5a56a012a8e2552c43fd18e4096c8a698a64f500e012f88a4ab1555f6a",
          "transactionIndex": "0x6",
          "logIndex": "0x8",
          "removed": false
        }
      ],
      "logsBloom": "0x00000000000000000000000000000000000000204000000000000000000000000000000000000000000000000000000000000000000000000000000000000000000000000000000000000000000000000000000000000000000000000000000000000000000000000000000000000000000000000000000000000000000000000000000000000000000000000000000000000000000000000000000000000000000000000010000000000000000000000000000000000000000000000000000000000002000000000000000000000000000000002000000000000000000100000000000000000000000000000000000000000000000000000000000000000000",
      "type": "0x2",
      "transactionHash": "0x03701d5a56a012a8e2552c43fd18e4096c8a698a64f500e012f88a4ab1555f6a",
      "transactionIndex": "0x6",
      "blockHash": "0x93450ae3783cdcad13bcbbae3b596505143f4388719dd6e85520c0fc52abd874",
      "blockNumber": "0x430a4e",
      "gasUsed": "0x6e34",
      "effectiveGasPrice": "0x5d21dba01",
      "from": "0x56fd3f2bee130e9867942d0f463a16fbe49b8d81",
      "to": "0xd29b4e743f7b84d63fbf9149b6d983df2ef5c952",
      "contractAddress": null,
      "l1BaseFeeScalar": "0x0",
      "l1BlobBaseFee": "0x358",
      "l1BlobBaseFeeScalar": "0x0",
      "l1Fee": "0x0",
      "l1GasPrice": "0xb67",
      "l1GasUsed": "0x640"
    },
    {
      "status": "0x1",
      "cumulativeGasUsed": "0x3f162",
      "logs": [
        {
          "address": "0xd29b4e743f7b84d63fbf9149b6d983df2ef5c952",
          "topics": [
            "0x6024a1181d4b6670f0122b1101b175bd17051e91a5b57e85972a9187c3f9721c"
          ],
          "data": "0x000000000000000000000000341e2a8b5b52b54f1794ddbdd54e433746c65d6000000000000000000000000000000000000000000000010f0cf064dd59200000",
          "blockHash": "0x93450ae3783cdcad13bcbbae3b596505143f4388719dd6e85520c0fc52abd874",
          "blockNumber": "0x430a4e",
          "transactionHash": "0x87b130f6f24e52a8ded9884126cb4032f2576deffe550dd979f522f72278c8b1",
          "transactionIndex": "0x7",
          "logIndex": "0x9",
          "removed": false
        }
      ],
      "logsBloom": "0x00000000000000000000000000000000000000204000000000000000000000000000000000000000000000000000000000000000000000000000000000000000000000000000000000000000000000000000000000000000000000000000000000000000000000000000000000000000000000000000000000000000000000000000000000000000000000000000000000000000000000000000000000000000000000000010000000000000000000000000000000000000000000000000000000000002000000000000000000000000000000002000000000000000000100000000000000000000000000000000000000000000000000000000000000000000",
      "type": "0x2",
      "transactionHash": "0x87b130f6f24e52a8ded9884126cb4032f2576deffe550dd979f522f72278c8b1",
      "transactionIndex": "0x7",
      "blockHash": "0x93450ae3783cdcad13bcbbae3b596505143f4388719dd6e85520c0fc52abd874",
      "blockNumber": "0x430a4e",
      "gasUsed": "0x6e34",
      "effectiveGasPrice": "0x5d21dba01",
      "from": "0x56fd3f2bee130e9867942d0f463a16fbe49b8d81",
      "to": "0xd29b4e743f7b84d63fbf9149b6d983df2ef5c952",
      "contractAddress": null,
      "l1BaseFeeScalar": "0x0",
      "l1BlobBaseFee": "0x358",
      "l1BlobBaseFeeScalar": "0x0",
      "l1Fee": "0x0",
      "l1GasPrice": "0xb67",
      "l1GasUsed": "0x640"
    },
    {
      "status": "0x1",
      "cumulativeGasUsed": "0x45f96",
      "logs": [
        {
          "address": "0xd29b4e743f7b84d63fbf9149b6d983df2ef5c952",
          "topics": [
            "0x6024a1181d4b6670f0122b1101b175bd17051e91a5b57e85972a9187c3f9721c"
          ],
          "data": "0x0000000000000000000000007149632514c5baa315520ab9d12556d9c67f15e000000000000000000000000000000000000000000000010f0cf064dd59200000",
          "blockHash": "0x93450ae3783cdcad13bcbbae3b596505143f4388719dd6e85520c0fc52abd874",
          "blockNumber": "0x430a4e",
          "transactionHash": "0xa6d137585768e3c4701b91a70730d21c9336a1320267675002f375e8bc59eed2",
          "transactionIndex": "0x8",
          "logIndex": "0xa",
          "removed": false
        }
      ],
      "logsBloom": "0x00000000000000000000000000000000000000204000000000000000000000000000000000000000000000000000000000000000000000000000000000000000000000000000000000000000000000000000000000000000000000000000000000000000000000000000000000000000000000000000000000000000000000000000000000000000000000000000000000000000000000000000000000000000000000000010000000000000000000000000000000000000000000000000000000000002000000000000000000000000000000002000000000000000000100000000000000000000000000000000000000000000000000000000000000000000",
      "type": "0x2",
      "transactionHash": "0xa6d137585768e3c4701b91a70730d21c9336a1320267675002f375e8bc59eed2",
      "transactionIndex": "0x8",
      "blockHash": "0x93450ae3783cdcad13bcbbae3b596505143f4388719dd6e85520c0fc52abd874",
      "blockNumber": "0x430a4e",
      "gasUsed": "0x6e34",
      "effectiveGasPrice": "0x5d21dba01",
      "from": "0x56fd3f2bee130e9867942d0f463a16fbe49b8d81",
      "to": "0xd29b4e743f7b84d63fbf9149b6d983df2ef5c952",
      "contractAddress": null,
      "l1BaseFeeScalar": "0x0",
      "l1BlobBaseFee": "0x358",
      "l1BlobBaseFeeScalar": "0x0",
      "l1Fee": "0x0",
      "l1GasPrice": "0xb67",
      "l1GasUsed": "0x640"
    },
    {
      "status": "0x1",
      "cumulativeGasUsed": "0x1222c",
      "logs": [
        {
          "address": "0xd29b4e743f7b84d63fbf9149b6d983df2ef5c952",
          "topics": [
            "0x6024a1181d4b6670f0122b1101b175bd17051e91a5b57e85972a9187c3f9721c"
          ],
          "data": "0x000000000000000000000000bb776cd80bab1e658a6a8685580751166145121f00000000000000000000000000000000000000000000010f0cf064dd59200000",
          "blockHash": "0x503c09e05c470e2c5a0d0670c55b014e871288ee4b020eaed7dc6f572afb80cc",
          "blockNumber": "0x430a4f",
          "transactionHash": "0x4ade54059d43c2204a570b93c111402905f5d912c91165bc40c9f8a539441f5c",
          "transactionIndex": "0x1",
          "logIndex": "0x0",
          "removed": false
        }
      ],
      "logsBloom": "0x00000000000000000000000000000000000000204000000000000000000000000000000000000000000000000000000000000000000000000000000000000000000000000000000000000000000000000000000000000000000000000000000000000000000000000000000000000000000000000000000000000000000000000000000000000000000000000000000000000000000000000000000000000000000000000010000000000000000000000000000000000000000000000000000000000002000000000000000000000000000000002000000000000000000100000000000000000000000000000000000000000000000000000000000000000000",
      "type": "0x2",
      "transactionHash": "0x4ade54059d43c2204a570b93c111402905f5d912c91165bc40c9f8a539441f5c",
      "transactionIndex": "0x1",
      "blockHash": "0x503c09e05c470e2c5a0d0670c55b014e871288ee4b020eaed7dc6f572afb80cc",
      "blockNumber": "0x430a4f",
      "gasUsed": "0x6e34",
      "effectiveGasPrice": "0x5d21dba01",
      "from": "0x56fd3f2bee130e9867942d0f463a16fbe49b8d81",
      "to": "0xd29b4e743f7b84d63fbf9149b6d983df2ef5c952",
      "contractAddress": null,
      "l1BaseFeeScalar": "0x0",
      "l1BlobBaseFee": "0x358",
      "l1BlobBaseFeeScalar": "0x0",
      "l1Fee": "0x0",
      "l1GasPrice": "0xb67",
      "l1GasUsed": "0x640"
    },
    {
      "status": "0x1",
      "cumulativeGasUsed": "0x19060",
      "logs": [
        {
          "address": "0xd29b4e743f7b84d63fbf9149b6d983df2ef5c952",
          "topics": [
            "0x6024a1181d4b6670f0122b1101b175bd17051e91a5b57e85972a9187c3f9721c"
          ],
          "data": "0x000000000000000000000000ae5eee6815b8529847955d19522858806bca821700000000000000000000000000000000000000000000010f0cf064dd59200000",
          "blockHash": "0x503c09e05c470e2c5a0d0670c55b014e871288ee4b020eaed7dc6f572afb80cc",
          "blockNumber": "0x430a4f",
          "transactionHash": "0xe69233763481aed38ba6957050a21e7b1966a2a6ae05ffc703646c807e8cef16",
          "transactionIndex": "0x2",
          "logIndex": "0x1",
          "removed": false
        }
      ],
      "logsBloom": "0x00000000000000000000000000000000000000204000000000000000000000000000000000000000000000000000000000000000000000000000000000000000000000000000000000000000000000000000000000000000000000000000000000000000000000000000000000000000000000000000000000000000000000000000000000000000000000000000000000000000000000000000000000000000000000000010000000000000000000000000000000000000000000000000000000000002000000000000000000000000000000002000000000000000000100000000000000000000000000000000000000000000000000000000000000000000",
      "type": "0x2",
      "transactionHash": "0xe69233763481aed38ba6957050a21e7b1966a2a6ae05ffc703646c807e8cef16",
      "transactionIndex": "0x2",
      "blockHash": "0x503c09e05c470e2c5a0d0670c55b014e871288ee4b020eaed7dc6f572afb80cc",
      "blockNumber": "0x430a4f",
      "gasUsed": "0x6e34",
      "effectiveGasPrice": "0x5d21dba01",
      "from": "0x56fd3f2bee130e9867942d0f463a16fbe49b8d81",
      "to": "0xd29b4e743f7b84d63fbf9149b6d983df2ef5c952",
      "contractAddress": null,
      "l1BaseFeeScalar": "0x0",
      "l1BlobBaseFee": "0x358",
      "l1BlobBaseFeeScalar": "0x0",
      "l1Fee": "0x0",
      "l1GasPrice": "0xb67",
      "l1GasUsed": "0x640"
    },
    {
      "status": "0x1",
      "cumulativeGasUsed": "0x1fe94",
      "logs": [
        {
          "address": "0xd29b4e743f7b84d63fbf9149b6d983df2ef5c952",
          "topics": [
            "0x6024a1181d4b6670f0122b1101b175bd17051e91a5b57e85972a9187c3f9721c"
          ],
          "data": "0x00000000000000000000000053f7dc47ab9273c2d83c2df557f3fcf1e6a9ee1000000000000000000000000000000000000000000000010f0cf064dd59200000",
          "blockHash": "0x503c09e05c470e2c5a0d0670c55b014e871288ee4b020eaed7dc6f572afb80cc",
          "blockNumber": "0x430a4f",
          "transactionHash": "0x5b3e07856e0f4538e7ea781d5538abaecd62939804d2537a1e8fb106c26a684f",
          "transactionIndex": "0x3",
          "logIndex": "0x2",
          "removed": false
        }
      ],
      "logsBloom": "0x00000000000000000000000000000000000000204000000000000000000000000000000000000000000000000000000000000000000000000000000000000000000000000000000000000000000000000000000000000000000000000000000000000000000000000000000000000000000000000000000000000000000000000000000000000000000000000000000000000000000000000000000000000000000000000010000000000000000000000000000000000000000000000000000000000002000000000000000000000000000000002000000000000000000100000000000000000000000000000000000000000000000000000000000000000000",
      "type": "0x2",
      "transactionHash": "0x5b3e07856e0f4538e7ea781d5538abaecd62939804d2537a1e8fb106c26a684f",
      "transactionIndex": "0x3",
      "blockHash": "0x503c09e05c470e2c5a0d0670c55b014e871288ee4b020eaed7dc6f572afb80cc",
      "blockNumber": "0x430a4f",
      "gasUsed": "0x6e34",
      "effectiveGasPrice": "0x5d21dba01",
      "from": "0x56fd3f2bee130e9867942d0f463a16fbe49b8d81",
      "to": "0xd29b4e743f7b84d63fbf9149b6d983df2ef5c952",
      "contractAddress": null,
      "l1BaseFeeScalar": "0x0",
      "l1BlobBaseFee": "0x358",
      "l1BlobBaseFeeScalar": "0x0",
      "l1Fee": "0x0",
      "l1GasPrice": "0xb67",
      "l1GasUsed": "0x640"
    },
    {
      "status": "0x1",
      "cumulativeGasUsed": "0x26cc8",
      "logs": [
        {
          "address": "0xd29b4e743f7b84d63fbf9149b6d983df2ef5c952",
          "topics": [
            "0x6024a1181d4b6670f0122b1101b175bd17051e91a5b57e85972a9187c3f9721c"
          ],
          "data": "0x000000000000000000000000c9dbd89fce5710c91c35ed9af1dc93fa090a28b000000000000000000000000000000000000000000000010f0cf064dd59200000",
          "blockHash": "0x503c09e05c470e2c5a0d0670c55b014e871288ee4b020eaed7dc6f572afb80cc",
          "blockNumber": "0x430a4f",
          "transactionHash": "0x8479da4fd1fd652d35b4d3d760436372a02bfce5cc105affd5df5cdb34919bb5",
          "transactionIndex": "0x4",
          "logIndex": "0x3",
          "removed": false
        }
      ],
      "logsBloom": "0x00000000000000000000000000000000000000204000000000000000000000000000000000000000000000000000000000000000000000000000000000000000000000000000000000000000000000000000000000000000000000000000000000000000000000000000000000000000000000000000000000000000000000000000000000000000000000000000000000000000000000000000000000000000000000000010000000000000000000000000000000000000000000000000000000000002000000000000000000000000000000002000000000000000000100000000000000000000000000000000000000000000000000000000000000000000",
      "type": "0x2",
      "transactionHash": "0x8479da4fd1fd652d35b4d3d760436372a02bfce5cc105affd5df5cdb34919bb5",
      "transactionIndex": "0x4",
      "blockHash": "0x503c09e05c470e2c5a0d0670c55b014e871288ee4b020eaed7dc6f572afb80cc",
      "blockNumber": "0x430a4f",
      "gasUsed": "0x6e34",
      "effectiveGasPrice": "0x5d21dba01",
      "from": "0x56fd3f2bee130e9867942d0f463a16fbe49b8d81",
      "to": "0xd29b4e743f7b84d63fbf9149b6d983df2ef5c952",
      "contractAddress": null,
      "l1BaseFeeScalar": "0x0",
      "l1BlobBaseFee": "0x358",
      "l1BlobBaseFeeScalar": "0x0",
      "l1Fee": "0x0",
      "l1GasPrice": "0xb67",
      "l1GasUsed": "0x640"
    },
    {
      "status": "0x1",
      "cumulativeGasUsed": "0x2daf0",
      "logs": [
        {
          "address": "0xd29b4e743f7b84d63fbf9149b6d983df2ef5c952",
          "topics": [
            "0x6024a1181d4b6670f0122b1101b175bd17051e91a5b57e85972a9187c3f9721c"
          ],
          "data": "0x000000000000000000000000864ea534d6992f3721000cdb6585b11e7046d5ec00000000000000000000000000000000000000000000010f0cf064dd59200000",
          "blockHash": "0x503c09e05c470e2c5a0d0670c55b014e871288ee4b020eaed7dc6f572afb80cc",
          "blockNumber": "0x430a4f",
          "transactionHash": "0xd4cc0cef801d125aaaccdbf593109f3b01844e6396be31b26153d4393adbb9a2",
          "transactionIndex": "0x5",
          "logIndex": "0x4",
          "removed": false
        }
      ],
      "logsBloom": "0x00000000000000000000000000000000000000204000000000000000000000000000000000000000000000000000000000000000000000000000000000000000000000000000000000000000000000000000000000000000000000000000000000000000000000000000000000000000000000000000000000000000000000000000000000000000000000000000000000000000000000000000000000000000000000000010000000000000000000000000000000000000000000000000000000000002000000000000000000000000000000002000000000000000000100000000000000000000000000000000000000000000000000000000000000000000",
      "type": "0x2",
      "transactionHash": "0xd4cc0cef801d125aaaccdbf593109f3b01844e6396be31b26153d4393adbb9a2",
      "transactionIndex": "0x5",
      "blockHash": "0x503c09e05c470e2c5a0d0670c55b014e871288ee4b020eaed7dc6f572afb80cc",
      "blockNumber": "0x430a4f",
      "gasUsed": "0x6e28",
      "effectiveGasPrice": "0x5d21dba01",
      "from": "0x56fd3f2bee130e9867942d0f463a16fbe49b8d81",
      "to": "0xd29b4e743f7b84d63fbf9149b6d983df2ef5c952",
      "contractAddress": null,
      "l1BaseFeeScalar": "0x0",
      "l1BlobBaseFee": "0x358",
      "l1BlobBaseFeeScalar": "0x0",
      "l1Fee": "0x0",
      "l1GasPrice": "0xb67",
      "l1GasUsed": "0x640"
    },
    {
      "status": "0x1",
      "cumulativeGasUsed": "0x34924",
      "logs": [
        {
          "address": "0xd29b4e743f7b84d63fbf9149b6d983df2ef5c952",
          "topics": [
            "0x6024a1181d4b6670f0122b1101b175bd17051e91a5b57e85972a9187c3f9721c"
          ],
          "data": "0x0000000000000000000000004f2746e21a13ea9a8a832d929cdbf32ffc113a2c00000000000000000000000000000000000000000000010f0cf064dd59200000",
          "blockHash": "0x503c09e05c470e2c5a0d0670c55b014e871288ee4b020eaed7dc6f572afb80cc",
          "blockNumber": "0x430a4f",
          "transactionHash": "0x97acfa95fd605048bda4bd4abe8a3c4f115ef1414fd88ccc22df3c7c6a0c7fc2",
          "transactionIndex": "0x6",
          "logIndex": "0x5",
          "removed": false
        }
      ],
      "logsBloom": "0x00000000000000000000000000000000000000204000000000000000000000000000000000000000000000000000000000000000000000000000000000000000000000000000000000000000000000000000000000000000000000000000000000000000000000000000000000000000000000000000000000000000000000000000000000000000000000000000000000000000000000000000000000000000000000000010000000000000000000000000000000000000000000000000000000000002000000000000000000000000000000002000000000000000000100000000000000000000000000000000000000000000000000000000000000000000",
      "type": "0x2",
      "transactionHash": "0x97acfa95fd605048bda4bd4abe8a3c4f115ef1414fd88ccc22df3c7c6a0c7fc2",
      "transactionIndex": "0x6",
      "blockHash": "0x503c09e05c470e2c5a0d0670c55b014e871288ee4b020eaed7dc6f572afb80cc",
      "blockNumber": "0x430a4f",
      "gasUsed": "0x6e34",
      "effectiveGasPrice": "0x5d21dba01",
      "from": "0x56fd3f2bee130e9867942d0f463a16fbe49b8d81",
      "to": "0xd29b4e743f7b84d63fbf9149b6d983df2ef5c952",
      "contractAddress": null,
      "l1BaseFeeScalar": "0x0",
      "l1BlobBaseFee": "0x358",
      "l1BlobBaseFeeScalar": "0x0",
      "l1Fee": "0x0",
      "l1GasPrice": "0xb67",
      "l1GasUsed": "0x640"
    },
    {
      "status": "0x1",
      "cumulativeGasUsed": "0x3b758",
      "logs": [
        {
          "address": "0xd29b4e743f7b84d63fbf9149b6d983df2ef5c952",
          "topics": [
            "0x6024a1181d4b6670f0122b1101b175bd17051e91a5b57e85972a9187c3f9721c"
          ],
          "data": "0x000000000000000000000000403ea4186ce479ff162636c37fdf4086bd286f8c00000000000000000000000000000000000000000000010f0cf064dd59200000",
          "blockHash": "0x503c09e05c470e2c5a0d0670c55b014e871288ee4b020eaed7dc6f572afb80cc",
          "blockNumber": "0x430a4f",
          "transactionHash": "0x5df1506e613006377d99be695979b7ecc549d0e3bb681c305b1e288cf407e613",
          "transactionIndex": "0x7",
          "logIndex": "0x6",
          "removed": false
        }
      ],
      "logsBloom": "0x00000000000000000000000000000000000000204000000000000000000000000000000000000000000000000000000000000000000000000000000000000000000000000000000000000000000000000000000000000000000000000000000000000000000000000000000000000000000000000000000000000000000000000000000000000000000000000000000000000000000000000000000000000000000000000010000000000000000000000000000000000000000000000000000000000002000000000000000000000000000000002000000000000000000100000000000000000000000000000000000000000000000000000000000000000000",
      "type": "0x2",
      "transactionHash": "0x5df1506e613006377d99be695979b7ecc549d0e3bb681c305b1e288cf407e613",
      "transactionIndex": "0x7",
      "blockHash": "0x503c09e05c470e2c5a0d0670c55b014e871288ee4b020eaed7dc6f572afb80cc",
      "blockNumber": "0x430a4f",
      "gasUsed": "0x6e34",
      "effectiveGasPrice": "0x5d21dba01",
      "from": "0x56fd3f2bee130e9867942d0f463a16fbe49b8d81",
      "to": "0xd29b4e743f7b84d63fbf9149b6d983df2ef5c952",
      "contractAddress": null,
      "l1BaseFeeScalar": "0x0",
      "l1BlobBaseFee": "0x358",
      "l1BlobBaseFeeScalar": "0x0",
      "l1Fee": "0x0",
      "l1GasPrice": "0xb67",
      "l1GasUsed": "0x640"
    },
    {
      "status": "0x1",
      "cumulativeGasUsed": "0x4258c",
      "logs": [
        {
          "address": "0xd29b4e743f7b84d63fbf9149b6d983df2ef5c952",
          "topics": [
            "0x6024a1181d4b6670f0122b1101b175bd17051e91a5b57e85972a9187c3f9721c"
          ],
          "data": "0x000000000000000000000000e7cddedc3dca1674b70c347c814c8a9fcf8f68c900000000000000000000000000000000000000000000010f0cf064dd59200000",
          "blockHash": "0x503c09e05c470e2c5a0d0670c55b014e871288ee4b020eaed7dc6f572afb80cc",
          "blockNumber": "0x430a4f",
          "transactionHash": "0x6b0dcee19ee099fab991ae9068f8277bd5439c03e4bdbcd086e38a0c64f3fc89",
          "transactionIndex": "0x8",
          "logIndex": "0x7",
          "removed": false
        }
      ],
      "logsBloom": "0x00000000000000000000000000000000000000204000000000000000000000000000000000000000000000000000000000000000000000000000000000000000000000000000000000000000000000000000000000000000000000000000000000000000000000000000000000000000000000000000000000000000000000000000000000000000000000000000000000000000000000000000000000000000000000000010000000000000000000000000000000000000000000000000000000000002000000000000000000000000000000002000000000000000000100000000000000000000000000000000000000000000000000000000000000000000",
      "type": "0x2",
      "transactionHash": "0x6b0dcee19ee099fab991ae9068f8277bd5439c03e4bdbcd086e38a0c64f3fc89",
      "transactionIndex": "0x8",
      "blockHash": "0x503c09e05c470e2c5a0d0670c55b014e871288ee4b020eaed7dc6f572afb80cc",
      "blockNumber": "0x430a4f",
      "gasUsed": "0x6e34",
      "effectiveGasPrice": "0x5d21dba01",
      "from": "0x56fd3f2bee130e9867942d0f463a16fbe49b8d81",
      "to": "0xd29b4e743f7b84d63fbf9149b6d983df2ef5c952",
      "contractAddress": null,
      "l1BaseFeeScalar": "0x0",
      "l1BlobBaseFee": "0x358",
      "l1BlobBaseFeeScalar": "0x0",
      "l1Fee": "0x0",
      "l1GasPrice": "0xb67",
      "l1GasUsed": "0x640"
    },
    {
      "status": "0x1",
      "cumulativeGasUsed": "0x5a937",
      "logs": [
        {
          "address": "0x578bd46003b9d3fd4c3c3f47c98b329562a6a1de",
          "topics": [
            "0x292d7648986a4abc017bc2a39852a675c1e325e24afd18fad659810792d5e405"
          ],
          "data": "0x00000000000000000000000003cdf2966185eb0b980f2481ad386b8afdab4534000000000000000000000000a1a8003936862e7a15092a91898d69fa8bce290c0000000000000000000000000000000000000000000000000000000000000001",
          "blockHash": "0x503c09e05c470e2c5a0d0670c55b014e871288ee4b020eaed7dc6f572afb80cc",
          "blockNumber": "0x430a4f",
          "transactionHash": "0x3f7d044eccb4fffd76fc51493254a92afc2face57f976e2dfdccdb4fdc62ff4a",
          "transactionIndex": "0x9",
          "logIndex": "0x8",
          "removed": false
        }
      ],
      "logsBloom": "0x00000000000000000000010000000000000000000000000000000000000000000000000000000000000000000000000000000008000000000000000000000000000000000000000000000000000000000000000000000000000000000000000000000000000000000000000000008000000200000000000000000000000000000000000000000000000000000000000000000000000000000000000000000000000000000000000000000000000000000000000000000000000000000000000000000000000000000000000000000000001000000000000000000000000000000000000000000000000000000000000000000000000000000000000010000000",
      "type": "0x2",
      "transactionHash": "0x3f7d044eccb4fffd76fc51493254a92afc2face57f976e2dfdccdb4fdc62ff4a",
      "transactionIndex": "0x9",
      "blockHash": "0x503c09e05c470e2c5a0d0670c55b014e871288ee4b020eaed7dc6f572afb80cc",
      "blockNumber": "0x430a4f",
      "gasUsed": "0x183ab",
      "effectiveGasPrice": "0x5d21dba01",
      "from": "0x56fd3f2bee130e9867942d0f463a16fbe49b8d81",
      "to": "0x578bd46003b9d3fd4c3c3f47c98b329562a6a1de",
      "contractAddress": null,
      "l1BaseFeeScalar": "0x0",
      "l1BlobBaseFee": "0x358",
      "l1BlobBaseFeeScalar": "0x0",
      "l1Fee": "0x0",
      "l1GasPrice": "0xb67",
      "l1GasUsed": "0x6a4"
    },
    {
      "status": "0x1",
      "cumulativeGasUsed": "0x72cee",
      "logs": [
        {
          "address": "0x578bd46003b9d3fd4c3c3f47c98b329562a6a1de",
          "topics": [
            "0x292d7648986a4abc017bc2a39852a675c1e325e24afd18fad659810792d5e405"
          ],
          "data": "0x00000000000000000000000003cdf2966185eb0b980f2481ad386b8afdab4534000000000000000000000000e06c10c63377cd098b589c0b90314bfb557515580000000000000000000000000000000000000000000000000000000000000001",
          "blockHash": "0x503c09e05c470e2c5a0d0670c55b014e871288ee4b020eaed7dc6f572afb80cc",
          "blockNumber": "0x430a4f",
          "transactionHash": "0xd2915ae16f1fae52f33bbf98b705ffe90ed5fe485ff4fa46ca25dacd29a432b3",
          "transactionIndex": "0xa",
          "logIndex": "0x9",
          "removed": false
        }
      ],
      "logsBloom": "0x00000000000000000000010000000000000000000000000000000000000000000000000000000000000000000000000000000008000000000000000000000000000000000000000000000000000000000000000000000000000000000000000000000000000000000000000000008000000200000000000000000000000000000000000000000000000000000000000000000000000000000000000000000000000000000000000000000000000000000000000000000000000000000000000000000000000000000000000000000000001000000000000000000000000000000000000000000000000000000000000000000000000000000000000010000000",
      "type": "0x2",
      "transactionHash": "0xd2915ae16f1fae52f33bbf98b705ffe90ed5fe485ff4fa46ca25dacd29a432b3",
      "transactionIndex": "0xa",
      "blockHash": "0x503c09e05c470e2c5a0d0670c55b014e871288ee4b020eaed7dc6f572afb80cc",
      "blockNumber": "0x430a4f",
      "gasUsed": "0x183b7",
      "effectiveGasPrice": "0x5d21dba01",
      "from": "0x56fd3f2bee130e9867942d0f463a16fbe49b8d81",
      "to": "0x578bd46003b9d3fd4c3c3f47c98b329562a6a1de",
      "contractAddress": null,
      "l1BaseFeeScalar": "0x0",
      "l1BlobBaseFee": "0x358",
      "l1BlobBaseFeeScalar": "0x0",
      "l1Fee": "0x0",
      "l1GasPrice": "0xb67",
      "l1GasUsed": "0x6a4"
    },
    {
      "status": "0x1",
      "cumulativeGasUsed": "0x8b0a5",
      "logs": [
        {
          "address": "0x578bd46003b9d3fd4c3c3f47c98b329562a6a1de",
          "topics": [
            "0x292d7648986a4abc017bc2a39852a675c1e325e24afd18fad659810792d5e405"
          ],
          "data": "0x00000000000000000000000003cdf2966185eb0b980f2481ad386b8afdab453400000000000000000000000026076b9702885d475ac8c3db3bd9f250dc5a318b0000000000000000000000000000000000000000000000000000000000000001",
          "blockHash": "0x503c09e05c470e2c5a0d0670c55b014e871288ee4b020eaed7dc6f572afb80cc",
          "blockNumber": "0x430a4f",
          "transactionHash": "0x7d1af5478b0b535c0d8c88214a930a4ff0229e94933e56de726e96f948930f52",
          "transactionIndex": "0xb",
          "logIndex": "0xa",
          "removed": false
        }
      ],
      "logsBloom": "0x00000000000000000000010000000000000000000000000000000000000000000000000000000000000000000000000000000008000000000000000000000000000000000000000000000000000000000000000000000000000000000000000000000000000000000000000000008000000200000000000000000000000000000000000000000000000000000000000000000000000000000000000000000000000000000000000000000000000000000000000000000000000000000000000000000000000000000000000000000000001000000000000000000000000000000000000000000000000000000000000000000000000000000000000010000000",
      "type": "0x2",
      "transactionHash": "0x7d1af5478b0b535c0d8c88214a930a4ff0229e94933e56de726e96f948930f52",
      "transactionIndex": "0xb",
      "blockHash": "0x503c09e05c470e2c5a0d0670c55b014e871288ee4b020eaed7dc6f572afb80cc",
      "blockNumber": "0x430a4f",
      "gasUsed": "0x183b7",
      "effectiveGasPrice": "0x5d21dba01",
      "from": "0x56fd3f2bee130e9867942d0f463a16fbe49b8d81",
      "to": "0x578bd46003b9d3fd4c3c3f47c98b329562a6a1de",
      "contractAddress": null,
      "l1BaseFeeScalar": "0x0",
      "l1BlobBaseFee": "0x358",
      "l1BlobBaseFeeScalar": "0x0",
      "l1Fee": "0x0",
      "l1GasPrice": "0xb67",
      "l1GasUsed": "0x6a4"
    },
    {
      "status": "0x1",
      "cumulativeGasUsed": "0xa345c",
      "logs": [
        {
          "address": "0x578bd46003b9d3fd4c3c3f47c98b329562a6a1de",
          "topics": [
            "0x292d7648986a4abc017bc2a39852a675c1e325e24afd18fad659810792d5e405"
          ],
          "data": "0x00000000000000000000000003cdf2966185eb0b980f2481ad386b8afdab453400000000000000000000000040dc8528167557353fdcd98548ab2139a670dd0b0000000000000000000000000000000000000000000000000000000000000001",
          "blockHash": "0x503c09e05c470e2c5a0d0670c55b014e871288ee4b020eaed7dc6f572afb80cc",
          "blockNumber": "0x430a4f",
          "transactionHash": "0xc51d9f9d474391e1edc5fe50b8f61f1c0e8b10adedce16d14be90d2d4989496b",
          "transactionIndex": "0xc",
          "logIndex": "0xb",
          "removed": false
        }
      ],
      "logsBloom": "0x00000000000000000000010000000000000000000000000000000000000000000000000000000000000000000000000000000008000000000000000000000000000000000000000000000000000000000000000000000000000000000000000000000000000000000000000000008000000200000000000000000000000000000000000000000000000000000000000000000000000000000000000000000000000000000000000000000000000000000000000000000000000000000000000000000000000000000000000000000000001000000000000000000000000000000000000000000000000000000000000000000000000000000000000010000000",
      "type": "0x2",
      "transactionHash": "0xc51d9f9d474391e1edc5fe50b8f61f1c0e8b10adedce16d14be90d2d4989496b",
      "transactionIndex": "0xc",
      "blockHash": "0x503c09e05c470e2c5a0d0670c55b014e871288ee4b020eaed7dc6f572afb80cc",
      "blockNumber": "0x430a4f",
      "gasUsed": "0x183b7",
      "effectiveGasPrice": "0x5d21dba01",
      "from": "0x56fd3f2bee130e9867942d0f463a16fbe49b8d81",
      "to": "0x578bd46003b9d3fd4c3c3f47c98b329562a6a1de",
      "contractAddress": null,
      "l1BaseFeeScalar": "0x0",
      "l1BlobBaseFee": "0x358",
      "l1BlobBaseFeeScalar": "0x0",
      "l1Fee": "0x0",
      "l1GasPrice": "0xb67",
      "l1GasUsed": "0x6a4"
    },
    {
      "status": "0x1",
      "cumulativeGasUsed": "0x133aa",
      "logs": [
        {
          "address": "0xfaa7ca2b056e60f6733ae75aa0709140a6eafd20",
          "topics": [
            "0x21921b3b46ef2c939e85d6a14410c6e3b9ce132b66e944357ff4f789f68e00e2",
            "0x000000000000000000000000578bd46003b9d3fd4c3c3f47c98b329562a6a1de"
          ],
          "data": "0x",
          "blockHash": "0xd13e95123524918edadc3b7d161e606c2cb64b5af30b7c9efebaa22a368c4cca",
          "blockNumber": "0x430a50",
          "transactionHash": "0x4318464763d137f6e9deb8c5c6cf7e581069cc994843c9438ab459c69d7b8d89",
          "transactionIndex": "0x1",
          "logIndex": "0x0",
          "removed": false
        }
      ],
      "logsBloom": "0x00000000000002000000000000000000000000000020000040000000000000000000000000000000000000000000000000000000000000100000000000000000000000000000000000000000000000000000000000000000000000000000020000000000000000000000000000000000000000000000000000100000000000000000000000000000001000000000000000000000000000000000000000000000000200000000000000000000000000000000000000000000000000000000000000000000000000000000000000000000000000000000000000000000000000000000000000000000000000000000000000000000000000000000000040000000",
      "type": "0x2",
      "transactionHash": "0x4318464763d137f6e9deb8c5c6cf7e581069cc994843c9438ab459c69d7b8d89",
      "transactionIndex": "0x1",
      "blockHash": "0xd13e95123524918edadc3b7d161e606c2cb64b5af30b7c9efebaa22a368c4cca",
      "blockNumber": "0x430a50",
      "gasUsed": "0x7fb2",
      "effectiveGasPrice": "0x5d21dba01",
      "from": "0x56fd3f2bee130e9867942d0f463a16fbe49b8d81",
      "to": "0xfaa7ca2b056e60f6733ae75aa0709140a6eafd20",
      "contractAddress": null,
      "l1BaseFeeScalar": "0x0",
      "l1BlobBaseFee": "0x358",
      "l1BlobBaseFeeScalar": "0x0",
      "l1Fee": "0x0",
      "l1GasPrice": "0xb67",
      "l1GasUsed": "0x640"
    },
    {
      "status": "0x1",
      "cumulativeGasUsed": "0x1b68c",
      "logs": [
        {
          "address": "0x578bd46003b9d3fd4c3c3f47c98b329562a6a1de",
          "topics": [
            "0x01ebc358c2c8d23692013d9ef4f803f9e0f60486a319faa591e1f84fd08fcd52",
            "0x000000000000000000000000bbc9c6e41e2a402b12992875edaa0162ed990212",
            "0x6e4203be8e01e11cb3553b0641bda0d60f19596a02cf479b6519042cbce5ac52"
          ],
          "data": "0x",
          "blockHash": "0xd13e95123524918edadc3b7d161e606c2cb64b5af30b7c9efebaa22a368c4cca",
          "blockNumber": "0x430a50",
          "transactionHash": "0xafc54fe1480abed857b80cd1129f1f793475afedc2c1a6acc9ab78ccca254281",
          "transactionIndex": "0x2",
          "logIndex": "0x1",
          "removed": false
        }
      ],
      "logsBloom": "0x00000000000000000000010000000000000000000000000000000000000100000000000000000000000000000000000000000000000000000000000000004000000000000000000000000000000000000000000000000000000000000000000000000000000000000000000000000000000200000000000000000000000000000000000000000000000000000000000000010000200000000000000000000000000000000000000000000000000000000000200000000000000000000000000000000000000000000000000000000000000000000000000000000000000000000000000000000000000000100000000080000000004000000000000010400000",
      "type": "0x2",
      "transactionHash": "0xafc54fe1480abed857b80cd1129f1f793475afedc2c1a6acc9ab78ccca254281",
      "transactionIndex": "0x2",
      "blockHash": "0xd13e95123524918edadc3b7d161e606c2cb64b5af30b7c9efebaa22a368c4cca",
      "blockNumber": "0x430a50",
      "gasUsed": "0x82e2",
      "effectiveGasPrice": "0x5d21dba01",
      "from": "0x56fd3f2bee130e9867942d0f463a16fbe49b8d81",
      "to": "0x578bd46003b9d3fd4c3c3f47c98b329562a6a1de",
      "contractAddress": null,
      "l1BaseFeeScalar": "0x0",
      "l1BlobBaseFee": "0x358",
      "l1BlobBaseFeeScalar": "0x0",
      "l1Fee": "0x0",
      "l1GasPrice": "0xb67",
      "l1GasUsed": "0x710"
    }
  ],
  "libraries": [
    "node_modules/@celo/contracts/common/linkedlists/AddressSortedLinkedListWithMedian.sol:AddressSortedLinkedListWithMedian:0xf90B816Ea07eC3c6384656cd5B3249DA8fc3df6F"
  ],
  "pending": [],
  "returns": {},
  "timestamp": 1757677543815,
  "chain": 11142220,
  "commit": "48ea54d"
}