{
  "transactions": [
    {
      "hash": "0x561b4dd0ba46688b83729c2d50c7ae0298ccc1f111a48f1c3d256790142f5c75",
      "transactionType": "CALL",
      "contractName": null,
      "contractAddress": "0xecb3c656c131fcd9bb8d1d80898716bd684feb78",
      "function": "setSpread(bytes32,uint256)",
      "arguments": [
        "0x0d739efbfc30f303e8d1976c213b4040850d1af40f174f4169b846f6fd3d2f20",
        "200000000000000000000"
      ],
      "transaction": {
        "from": "0x2738f38fde510743e0c589415e0598c4cee6eaa7",
        "to": "0xecb3c656c131fcd9bb8d1d80898716bd684feb78",
        "gas": "0xd32f",
        "value": "0x0",
        "input": "0xc5df620a0d739efbfc30f303e8d1976c213b4040850d1af40f174f4169b846f6fd3d2f2000000000000000000000000000000000000000000000000ad78ebc5ac6200000",
        "nonce": "0x2e1",
        "chainId": "0xaa044c"
      },
      "additionalContracts": [],
      "isFixedGasLimit": false
    },
    {
      "hash": "0x01a74656189203d10ca24f9726127b3def55dd1f0003babe4f1506b283996735",
      "transactionType": "CALL",
      "contractName": null,
      "contractAddress": "0xecb3c656c131fcd9bb8d1d80898716bd684feb78",
      "function": "setSpread(bytes32,uint256)",
      "arguments": [
        "0xacc988382b66ee5456086643dcfd9a5ca43dd8f428f6ef22503d8b8013bcffd7",
        "200000000000000000000"
      ],
      "transaction": {
        "from": "0x2738f38fde510743e0c589415e0598c4cee6eaa7",
        "to": "0xecb3c656c131fcd9bb8d1d80898716bd684feb78",
        "gas": "0xd32f",
        "value": "0x0",
        "input": "0xc5df620aacc988382b66ee5456086643dcfd9a5ca43dd8f428f6ef22503d8b8013bcffd700000000000000000000000000000000000000000000000ad78ebc5ac6200000",
        "nonce": "0x2e2",
        "chainId": "0xaa044c"
      },
      "additionalContracts": [],
      "isFixedGasLimit": false
    },
    {
      "hash": "0xd18d2ffe5d9974a85a3919ff5e5b430a77c9de4fd5c7757dd2a1acb86db06cb0",
      "transactionType": "CALL",
      "contractName": null,
      "contractAddress": "0xecb3c656c131fcd9bb8d1d80898716bd684feb78",
      "function": "setSpread(bytes32,uint256)",
      "arguments": [
        "0x773bcec109cee923b5e04706044fd9d6a5121b1a6a4c059c36fdbe5b845d4e9b",
        "200000000000000000000"
      ],
      "transaction": {
        "from": "0x2738f38fde510743e0c589415e0598c4cee6eaa7",
        "to": "0xecb3c656c131fcd9bb8d1d80898716bd684feb78",
        "gas": "0xd32f",
        "value": "0x0",
        "input": "0xc5df620a773bcec109cee923b5e04706044fd9d6a5121b1a6a4c059c36fdbe5b845d4e9b00000000000000000000000000000000000000000000000ad78ebc5ac6200000",
        "nonce": "0x2e3",
        "chainId": "0xaa044c"
      },
      "additionalContracts": [],
      "isFixedGasLimit": false
    },
    {
      "hash": "0x4af59664da2992ad8b84e40829516a33ecda7b3d1f21d2031b1429e79d8ae6d3",
      "transactionType": "CALL",
      "contractName": null,
      "contractAddress": "0xf1b77ffc1f71b21b6c69876cedaf82340803de75",
      "function": "setLPFee(uint256)",
      "arguments": [
        "1"
      ],
      "transaction": {
        "from": "0x2738f38fde510743e0c589415e0598c4cee6eaa7",
        "to": "0xf1b77ffc1f71b21b6c69876cedaf82340803de75",
        "gas": "0xd563",
        "value": "0x0",
        "input": "0x53cb6a5e0000000000000000000000000000000000000000000000000000000000000001",
        "nonce": "0x2e4",
        "chainId": "0xaa044c"
      },
      "additionalContracts": [],
      "isFixedGasLimit": false
    },
    {
      "hash": "0xc4b64ba1e62c10e5a2451a29ea0611bed66cb8ae566818827c657f6ef0a9f029",
      "transactionType": "CALL",
      "contractName": null,
      "contractAddress": "0xf1b77ffc1f71b21b6c69876cedaf82340803de75",
      "function": "setProtocolFee(uint256)",
      "arguments": [
        "1"
      ],
      "transaction": {
        "from": "0x2738f38fde510743e0c589415e0598c4cee6eaa7",
        "to": "0xf1b77ffc1f71b21b6c69876cedaf82340803de75",
        "gas": "0xe0d5",
        "value": "0x0",
        "input": "0x787dce3d0000000000000000000000000000000000000000000000000000000000000001",
        "nonce": "0x2e5",
        "chainId": "0xaa044c"
      },
      "additionalContracts": [],
      "isFixedGasLimit": false
    },
    {
      "hash": "0xcb81ddcef9e19eaddd4526fbc11da7dd099cc19e4e2ee10f71887c0bf2a3a4e3",
      "transactionType": "CALL",
      "contractName": null,
      "contractAddress": "0x7109e0a9b4623e90755b7e5c4e10f089e5bf8bdb",
      "function": "setLPFee(uint256)",
      "arguments": [
        "1"
      ],
      "transaction": {
        "from": "0x2738f38fde510743e0c589415e0598c4cee6eaa7",
        "to": "0x7109e0a9b4623e90755b7e5c4e10f089e5bf8bdb",
        "gas": "0xd563",
        "value": "0x0",
        "input": "0x53cb6a5e0000000000000000000000000000000000000000000000000000000000000001",
        "nonce": "0x2e6",
        "chainId": "0xaa044c"
      },
      "additionalContracts": [],
      "isFixedGasLimit": false
    },
    {
      "hash": "0xeb67e105bc65ad1f58eccd31a24b3e3238e1eb3a07fccc1a4a8e89af5b40084f",
      "transactionType": "CALL",
      "contractName": null,
      "contractAddress": "0x7109e0a9b4623e90755b7e5c4e10f089e5bf8bdb",
      "function": "setProtocolFee(uint256)",
      "arguments": [
        "1"
      ],
      "transaction": {
        "from": "0x2738f38fde510743e0c589415e0598c4cee6eaa7",
        "to": "0x7109e0a9b4623e90755b7e5c4e10f089e5bf8bdb",
        "gas": "0xe0d5",
        "value": "0x0",
        "input": "0x787dce3d0000000000000000000000000000000000000000000000000000000000000001",
        "nonce": "0x2e7",
        "chainId": "0xaa044c"
      },
      "additionalContracts": [],
      "isFixedGasLimit": false
    },
    {
      "hash": "0xfd72cacfc9684c1e669812c4772f0ea0e2c9df5f6b4fe97811dbb5b429289bca",
      "transactionType": "CALL",
      "contractName": null,
      "contractAddress": "0xd1a70f43b2a95384dd2a7d7b259293328b3974f8",
      "function": "setLPFee(uint256)",
      "arguments": [
        "1"
      ],
      "transaction": {
        "from": "0x2738f38fde510743e0c589415e0598c4cee6eaa7",
        "to": "0xd1a70f43b2a95384dd2a7d7b259293328b3974f8",
        "gas": "0xd563",
        "value": "0x0",
        "input": "0x53cb6a5e0000000000000000000000000000000000000000000000000000000000000001",
        "nonce": "0x2e8",
        "chainId": "0xaa044c"
      },
      "additionalContracts": [],
      "isFixedGasLimit": false
    },
    {
      "hash": "0xf2c881b992875c8e1cc2a8ecef6f05909e491f442853c61e2e86add39d6517ba",
      "transactionType": "CALL",
      "contractName": null,
      "contractAddress": "0xd1a70f43b2a95384dd2a7d7b259293328b3974f8",
      "function": "setProtocolFee(uint256)",
      "arguments": [
        "1"
      ],
      "transaction": {
        "from": "0x2738f38fde510743e0c589415e0598c4cee6eaa7",
        "to": "0xd1a70f43b2a95384dd2a7d7b259293328b3974f8",
        "gas": "0xe0d5",
        "value": "0x0",
        "input": "0x787dce3d0000000000000000000000000000000000000000000000000000000000000001",
        "nonce": "0x2e9",
        "chainId": "0xaa044c"
      },
      "additionalContracts": [],
      "isFixedGasLimit": false
    }
  ],
  "receipts": [
    {
      "type": "0x2",
      "status": "0x1",
      "cumulativeGasUsed": "0x18fe7",
      "logs": [
        {
          "address": "0xecb3c656c131fcd9bb8d1d80898716bd684feb78",
          "topics": [
            "0xd543777ec8c7717f747583b4011aee3b898ca0b5bc6c32144b7d4887eb62c74e",
            "0x0d739efbfc30f303e8d1976c213b4040850d1af40f174f4169b846f6fd3d2f20"
          ],
          "data": "0x00000000000000000000000000000000000000000000000ad78ebc5ac6200000",
          "blockHash": "0x736cc6576475a8f16a890d1bff7ad217d6f732c69a2123fbca9fc19ade124228",
          "blockNumber": "0x16fbd1c",
          "blockTimestamp": "0x69f0bab0",
          "transactionHash": "0x561b4dd0ba46688b83729c2d50c7ae0298ccc1f111a48f1c3d256790142f5c75",
          "transactionIndex": "0x1",
          "logIndex": "0x0",
          "removed": false
        }
      ],
      "logsBloom": "0x40000000000000000000000000000000000008000000000000000000000000000000020000000000000000000000000000000000000000000000000000000000800000000000000000000000000000002000000000000000000000002000000000000000000000000000000000000000000000000000000000000000000000000000000000000000000000000000000000000000000000000000000000000000000000000200000000000000000000000000000000000000000000000000000000000000000000000000000000000002000000000000100000000000000000000000000000000000000000000000000000000000000000000000000000000000",
      "transactionHash": "0x561b4dd0ba46688b83729c2d50c7ae0298ccc1f111a48f1c3d256790142f5c75",
      "transactionIndex": "0x1",
      "blockHash": "0x736cc6576475a8f16a890d1bff7ad217d6f732c69a2123fbca9fc19ade124228",
      "blockNumber": "0x16fbd1c",
      "gasUsed": "0x98e5",
      "effectiveGasPrice": "0xba43b7401",
      "blobGasUsed": "0x64",
      "from": "0x2738f38fde510743e0c589415e0598c4cee6eaa7",
      "to": "0xecb3c656c131fcd9bb8d1d80898716bd684feb78",
      "contractAddress": null
    },
    {
      "type": "0x2",
      "status": "0x1",
      "cumulativeGasUsed": "0x14d1b",
      "logs": [
        {
          "address": "0xecb3c656c131fcd9bb8d1d80898716bd684feb78",
          "topics": [
            "0xd543777ec8c7717f747583b4011aee3b898ca0b5bc6c32144b7d4887eb62c74e",
            "0xacc988382b66ee5456086643dcfd9a5ca43dd8f428f6ef22503d8b8013bcffd7"
          ],
          "data": "0x00000000000000000000000000000000000000000000000ad78ebc5ac6200000",
          "blockHash": "0x1c870ec568014566826f715012832e547f8e144a9378aec9f56899eebf7150e6",
          "blockNumber": "0x16fbd20",
          "blockTimestamp": "0x69f0bab4",
          "transactionHash": "0x01a74656189203d10ca24f9726127b3def55dd1f0003babe4f1506b283996735",
          "transactionIndex": "0x1",
          "logIndex": "0x0",
          "removed": false
        }
      ],
      "logsBloom": "0x00000000000000000000000000000000000008000000000000000000000000000000000000000000000000000000000000000000000000000000000000000000800000000000000000000000000000002000000000000000000000002000000000000000000000000000000000000000000000000000000000000000000000000000000000000000000000000000000000000000000000000800000000000000000000000000000000000000000000000000000000000000000000000000000000000000000000000000000000000002002000000000100000000000000000000000000000000000000040000000000000000000000000000000000000000000",
      "transactionHash": "0x01a74656189203d10ca24f9726127b3def55dd1f0003babe4f1506b283996735",
      "transactionIndex": "0x1",
      "blockHash": "0x1c870ec568014566826f715012832e547f8e144a9378aec9f56899eebf7150e6",
      "blockNumber": "0x16fbd20",
      "gasUsed": "0x98e5",
      "effectiveGasPrice": "0xba43b7401",
      "blobGasUsed": "0x64",
      "from": "0x2738f38fde510743e0c589415e0598c4cee6eaa7",
      "to": "0xecb3c656c131fcd9bb8d1d80898716bd684feb78",
      "contractAddress": null
    },
    {
      "type": "0x2",
      "status": "0x1",
      "cumulativeGasUsed": "0x14d1b",
      "logs": [
        {
          "address": "0xecb3c656c131fcd9bb8d1d80898716bd684feb78",
          "topics": [
            "0xd543777ec8c7717f747583b4011aee3b898ca0b5bc6c32144b7d4887eb62c74e",
            "0x773bcec109cee923b5e04706044fd9d6a5121b1a6a4c059c36fdbe5b845d4e9b"
          ],
          "data": "0x00000000000000000000000000000000000000000000000ad78ebc5ac6200000",
          "blockHash": "0xebe5a2bd2b6fa25463778e6494febc42b3097b8746a220453fdd263442c8448e",
          "blockNumber": "0x16fbd23",
          "blockTimestamp": "0x69f0bab7",
          "transactionHash": "0xd18d2ffe5d9974a85a3919ff5e5b430a77c9de4fd5c7757dd2a1acb86db06cb0",
          "transactionIndex": "0x1",
          "logIndex": "0x0",
          "removed": false
        }
      ],
      "logsBloom": "0x00000000000000000000004000000000000008000000000000000000000000000000000000000000000000000000000000000000000000000000000000000000800000000000000000000000000000002000000000000000000000002000000000000000000000000000000000000000000000000000000000000000000000000000000000000000000000000000000000000000000000000000002000000000001000000000000000000000000000000000000000000000000000000000000000000000000000000000000000000002000000000000100000000000000000000000000000000000000000000000000000000000000000000000000000000000",
      "transactionHash": "0xd18d2ffe5d9974a85a3919ff5e5b430a77c9de4fd5c7757dd2a1acb86db06cb0",
      "transactionIndex": "0x1",
      "blockHash": "0xebe5a2bd2b6fa25463778e6494febc42b3097b8746a220453fdd263442c8448e",
      "blockNumber": "0x16fbd23",
      "gasUsed": "0x98e5",
      "effectiveGasPrice": "0xba43b7401",
      "blobGasUsed": "0x64",
      "from": "0x2738f38fde510743e0c589415e0598c4cee6eaa7",
      "to": "0xecb3c656c131fcd9bb8d1d80898716bd684feb78",
      "contractAddress": null
    },
    {
      "type": "0x2",
      "status": "0x1",
      "cumulativeGasUsed": "0x14eb4",
      "logs": [
        {
          "address": "0xf1b77ffc1f71b21b6c69876cedaf82340803de75",
          "topics": [
            "0xb5d5dda8af4f1e40a5cc4aa66c39ca5aac7f90947261313b07527eb3bdd98bc7"
          ],
          "data": "0x00000000000000000000000000000000000000000000000000000000000000030000000000000000000000000000000000000000000000000000000000000001",
          "blockHash": "0x476f93a8a5595c474b1e3a9f381abb0729994262f87a6cbe987b95880152e2c7",
          "blockNumber": "0x16fbd26",
          "blockTimestamp": "0x69f0baba",
          "transactionHash": "0x4af59664da2992ad8b84e40829516a33ecda7b3d1f21d2031b1429e79d8ae6d3",
          "transactionIndex": "0x1",
          "logIndex": "0x0",
          "removed": false
        }
      ],
      "logsBloom": "0x00000000000000000000000000000000000000000000000000000000000000000000000000000000000000000000800000000000000000000000000000000000000000000000000000000000004000000000040000000000000000000000000000000000000000000000000000000000000000000000000000000000000000000000000000000000000000000000000000000000000000000000000000000000000000000000000000000000000000000000000800000000000000000000000000000000000000000000000000000000000000000000000000000000000000000000000000000000000000000000000000000080000000000000000000000000",
      "transactionHash": "0x4af59664da2992ad8b84e40829516a33ecda7b3d1f21d2031b1429e79d8ae6d3",
      "transactionIndex": "0x1",
      "blockHash": "0x476f93a8a5595c474b1e3a9f381abb0729994262f87a6cbe987b95880152e2c7",
      "blockNumber": "0x16fbd26",
      "gasUsed": "0x9a7e",
      "effectiveGasPrice": "0xba43b7401",
      "blobGasUsed": "0x64",
      "from": "0x2738f38fde510743e0c589415e0598c4cee6eaa7",
      "to": "0xf1b77ffc1f71b21b6c69876cedaf82340803de75",
      "contractAddress": null
    },
    {
      "type": "0x2",
      "status": "0x1",
      "cumulativeGasUsed": "0x156fd",
      "logs": [
        {
          "address": "0xf1b77ffc1f71b21b6c69876cedaf82340803de75",
          "topics": [
            "0xb404cac19fb1cbeff98d325795b08886e3cd8fe8cb1a2f193aac66f13fb239c3"
          ],
          "data": "0x00000000000000000000000000000000000000000000000000000000000000020000000000000000000000000000000000000000000000000000000000000001",
          "blockHash": "0x3fa3726928d4ec62ad3501c608efe09e8dbca7e423197d65999da9bb5ec19abe",
          "blockNumber": "0x16fbd29",
          "blockTimestamp": "0x69f0babd",
          "transactionHash": "0xc4b64ba1e62c10e5a2451a29ea0611bed66cb8ae566818827c657f6ef0a9f029",
          "transactionIndex": "0x1",
          "logIndex": "0x0",
          "removed": false
        }
      ],
      "logsBloom": "0x00000000000000000000000000000020000000000000000000000000000000000000000000000000000000000000800000000000000000000000000000000000000000000000000000000000004000000000000000000000004000000000000000000000000000000000000000000000000000000000000000000000000000000000000000000000000000000000000000000000000000000000000000000000000000000000000000000000000000000000000800000000000000000000000000000000000000000000000000000000000000000000000020000000000000000000000000000000000000000000000000000000000000000000000000000000",
      "transactionHash": "0xc4b64ba1e62c10e5a2451a29ea0611bed66cb8ae566818827c657f6ef0a9f029",
      "transactionIndex": "0x1",
      "blockHash": "0x3fa3726928d4ec62ad3501c608efe09e8dbca7e423197d65999da9bb5ec19abe",
      "blockNumber": "0x16fbd29",
      "gasUsed": "0xa2c7",
      "effectiveGasPrice": "0xba43b7401",
      "blobGasUsed": "0x64",
      "from": "0x2738f38fde510743e0c589415e0598c4cee6eaa7",
      "to": "0xf1b77ffc1f71b21b6c69876cedaf82340803de75",
      "contractAddress": null
    },
    {
      "type": "0x2",
      "status": "0x1",
      "cumulativeGasUsed": "0x14eb4",
      "logs": [
        {
          "address": "0x7109e0a9b4623e90755b7e5c4e10f089e5bf8bdb",
          "topics": [
            "0xb5d5dda8af4f1e40a5cc4aa66c39ca5aac7f90947261313b07527eb3bdd98bc7"
          ],
          "data": "0x00000000000000000000000000000000000000000000000000000000000000030000000000000000000000000000000000000000000000000000000000000001",
          "blockHash": "0x68778062543b4dbb2dce01fb367b226e7b16f8fa614f5590109910bd3f8660e6",
          "blockNumber": "0x16fbd2c",
          "blockTimestamp": "0x69f0bac0",
          "transactionHash": "0xcb81ddcef9e19eaddd4526fbc11da7dd099cc19e4e2ee10f71887c0bf2a3a4e3",
          "transactionIndex": "0x1",
          "logIndex": "0x0",
          "removed": false
        }
      ],
      "logsBloom": "0x00000000000000000000000000000000000000000000000000000000000000000000000000000000000000000000000000000000000000000000000000008004000000000000000000000000000000000000040000000000000000000040000000000000000000000000000000000000000000000000000000000000000000000000000000000000000000000000000000000000000000000000000000000000000000000000000000000000000000000000000000000000000000000000000000000000000000000000000000000000000000000000000000000000000000000000000000000000000000000000000000000080000000000000000000000000",
      "transactionHash": "0xcb81ddcef9e19eaddd4526fbc11da7dd099cc19e4e2ee10f71887c0bf2a3a4e3",
      "transactionIndex": "0x1",
      "blockHash": "0x68778062543b4dbb2dce01fb367b226e7b16f8fa614f5590109910bd3f8660e6",
      "blockNumber": "0x16fbd2c",
      "gasUsed": "0x9a7e",
      "effectiveGasPrice": "0xba43b7401",
      "blobGasUsed": "0x64",
      "from": "0x2738f38fde510743e0c589415e0598c4cee6eaa7",
      "to": "0x7109e0a9b4623e90755b7e5c4e10f089e5bf8bdb",
      "contractAddress": null
    },
    {
      "type": "0x2",
      "status": "0x1",
      "cumulativeGasUsed": "0x156fd",
      "logs": [
        {
          "address": "0x7109e0a9b4623e90755b7e5c4e10f089e5bf8bdb",
          "topics": [
            "0xb404cac19fb1cbeff98d325795b08886e3cd8fe8cb1a2f193aac66f13fb239c3"
          ],
          "data": "0x00000000000000000000000000000000000000000000000000000000000000020000000000000000000000000000000000000000000000000000000000000001",
          "blockHash": "0x1d8475f04e8c3d8a769de94387427c376ed0eb05e35e12778ceec60cd1ce99d7",
          "blockNumber": "0x16fbd2f",
          "blockTimestamp": "0x69f0bac3",
          "transactionHash": "0xeb67e105bc65ad1f58eccd31a24b3e3238e1eb3a07fccc1a4a8e89af5b40084f",
          "transactionIndex": "0x1",
          "logIndex": "0x0",
          "removed": false
        }
      ],
      "logsBloom": "0x00000000000000000000000000000020000000000000000000000000000000000000000000000000000000000000000000000000000000000000000000008004000000000000000000000000000000000000000000000000004000000040000000000000000000000000000000000000000000000000000000000000000000000000000000000000000000000000000000000000000000000000000000000000000000000000000000000000000000000000000000000000000000000000000000000000000000000000000000000000000000000000000020000000000000000000000000000000000000000000000000000000000000000000000000000000",
      "transactionHash": "0xeb67e105bc65ad1f58eccd31a24b3e3238e1eb3a07fccc1a4a8e89af5b40084f",
      "transactionIndex": "0x1",
      "blockHash": "0x1d8475f04e8c3d8a769de94387427c376ed0eb05e35e12778ceec60cd1ce99d7",
      "blockNumber": "0x16fbd2f",
      "gasUsed": "0xa2c7",
      "effectiveGasPrice": "0xba43b7401",
      "blobGasUsed": "0x64",
      "from": "0x2738f38fde510743e0c589415e0598c4cee6eaa7",
      "to": "0x7109e0a9b4623e90755b7e5c4e10f089e5bf8bdb",
      "contractAddress": null
    },
    {
      "type": "0x2",
      "status": "0x1",
      "cumulativeGasUsed": "0x14eb4",
      "logs": [
        {
          "address": "0xd1a70f43b2a95384dd2a7d7b259293328b3974f8",
          "topics": [
            "0xb5d5dda8af4f1e40a5cc4aa66c39ca5aac7f90947261313b07527eb3bdd98bc7"
          ],
          "data": "0x00000000000000000000000000000000000000000000000000000000000000030000000000000000000000000000000000000000000000000000000000000001",
          "blockHash": "0x94dfb6297b405fcdb0f8bda29f809d3e30f892dc13d18ceb860321b8db5f09ae",
          "blockNumber": "0x16fbd32",
          "blockTimestamp": "0x69f0bac6",
          "transactionHash": "0xfd72cacfc9684c1e669812c4772f0ea0e2c9df5f6b4fe97811dbb5b429289bca",
          "transactionIndex": "0x1",
          "logIndex": "0x0",
          "removed": false
        }
      ],
      "logsBloom": "0x00000000000000000000000000000000000000000000000000000000000000000000000000080000000000000000000000000000000000000000000000000000000000002000000000000000000000000000040000000000000000000000000010000000000000000000000000000000000000000000000000000000000000000000000000000000000000000000000000000000000000000000000000000000000000000000000000000000000000000000000000000000000000000000000000000000000000000000000000000000000000000000000000000000000000000000000000000000000000000000000000000080000000000000000000000000",
      "transactionHash": "0xfd72cacfc9684c1e669812c4772f0ea0e2c9df5f6b4fe97811dbb5b429289bca",
      "transactionIndex": "0x1",
      "blockHash": "0x94dfb6297b405fcdb0f8bda29f809d3e30f892dc13d18ceb860321b8db5f09ae",
      "blockNumber": "0x16fbd32",
      "gasUsed": "0x9a7e",
      "effectiveGasPrice": "0xba43b7401",
      "blobGasUsed": "0x64",
      "from": "0x2738f38fde510743e0c589415e0598c4cee6eaa7",
      "to": "0xd1a70f43b2a95384dd2a7d7b259293328b3974f8",
      "contractAddress": null
    },
    {
      "type": "0x2",
      "status": "0x1",
      "cumulativeGasUsed": "0x156fd",
      "logs": [
        {
          "address": "0xd1a70f43b2a95384dd2a7d7b259293328b3974f8",
          "topics": [
            "0xb404cac19fb1cbeff98d325795b08886e3cd8fe8cb1a2f193aac66f13fb239c3"
          ],
          "data": "0x00000000000000000000000000000000000000000000000000000000000000020000000000000000000000000000000000000000000000000000000000000001",
          "blockHash": "0x637e4a70ee70e80a79bae1d970a630c8450b16d8cb908bfe561a30e6fe843d7a",
          "blockNumber": "0x16fbd35",
          "blockTimestamp": "0x69f0bac9",
          "transactionHash": "0xf2c881b992875c8e1cc2a8ecef6f05909e491f442853c61e2e86add39d6517ba",
          "transactionIndex": "0x1",
          "logIndex": "0x0",
          "removed": false
        }
      ],
      "logsBloom": "0x00000000000000000000000000000020000000000000000000000000000000000000000000080000000000000000000000000000000000000000000000000000000000002000000000000000000000000000000000000000004000000000000010000000000000000000000000000000000000000000000000000000000000000000000000000000000000000000000000000000000000000000000000000000000000000000000000000000000000000000000000000000000000000000000000000000000000000000000000000000000000000000000020000000000000000000000000000000000000000000000000000000000000000000000000000000",
      "transactionHash": "0xf2c881b992875c8e1cc2a8ecef6f05909e491f442853c61e2e86add39d6517ba",
      "transactionIndex": "0x1",
      "blockHash": "0x637e4a70ee70e80a79bae1d970a630c8450b16d8cb908bfe561a30e6fe843d7a",
      "blockNumber": "0x16fbd35",
      "gasUsed": "0xa2c7",
      "effectiveGasPrice": "0xba43b7401",
      "blobGasUsed": "0x64",
      "from": "0x2738f38fde510743e0c589415e0598c4cee6eaa7",
      "to": "0xd1a70f43b2a95384dd2a7d7b259293328b3974f8",
      "contractAddress": null
    }
  ],
  "libraries": [
    "node_modules/@celo/contracts/common/linkedlists/AddressSortedLinkedListWithMedian.sol:AddressSortedLinkedListWithMedian:0xf90B816Ea07eC3c6384656cd5B3249DA8fc3df6F"
  ],
  "pending": [],
  "returns": {},
  "timestamp": 1777384137703,
  "chain": 11142220,
  "commit": "0dac0af"
}