{
  "transactions": [
    {
      "hash": "0x0d2c57f018b0f6fc14573e34f84ff3107b0b954a607cc7bc3eb3306d3a8d8498",
      "transactionType": "CALL",
      "contractName": null,
      "contractAddress": "0xecb3c656c131fcd9bb8d1d80898716bd684feb78",
      "function": "destroyExchange(bytes32,uint256)",
      "arguments": [
        "0x6c369bfb1598b2f7718671221bc524c84874ad1ed7ba02a61121e7a06722e2ce",
        "8"
      ],
      "transaction": {
        "from": "0x2738f38fde510743e0c589415e0598c4cee6eaa7",
        "to": "0xecb3c656c131fcd9bb8d1d80898716bd684feb78",
        "value": "0x0",
        "input": "0xe46eb5b66c369bfb1598b2f7718671221bc524c84874ad1ed7ba02a61121e7a06722e2ce0000000000000000000000000000000000000000000000000000000000000008",
        "nonce": "0xd9",
        "chainId": "0xaa044c"
      },
      "additionalContracts": [],
      "isFixedGasLimit": false
    },
    {
      "hash": "0x84c642b5636f5e01dc87416dd6e3b175f46cfa381a3301d755e4823041938dc6",
      "transactionType": "CALL",
      "contractName": null,
      "contractAddress": "0x85f5181abdbf0e1814fc4358582ae07b8eba3af3",
      "function": "setMinter(address,bool)",
      "arguments": [
        "0xB9Ae2065142EB79b6c5EB1E8778F883fad6B07Ba",
        "false"
      ],
      "transaction": {
        "from": "0x2738f38fde510743e0c589415e0598c4cee6eaa7",
        "to": "0x85f5181abdbf0e1814fc4358582ae07b8eba3af3",
        "value": "0x0",
        "input": "0xcf456ae7000000000000000000000000b9ae2065142eb79b6c5eb1e8778f883fad6b07ba0000000000000000000000000000000000000000000000000000000000000000",
        "nonce": "0xda",
        "chainId": "0xaa044c"
      },
      "additionalContracts": [],
      "isFixedGasLimit": false
    },
    {
      "hash": "0x55127a7f6121ec12903a9934d7c4f65269d0d5ed6193bad4dc6ec6c89829f957",
      "transactionType": "CALL",
      "contractName": null,
      "contractAddress": "0x85f5181abdbf0e1814fc4358582ae07b8eba3af3",
      "function": "setBurner(address,bool)",
      "arguments": [
        "0xB9Ae2065142EB79b6c5EB1E8778F883fad6B07Ba",
        "false"
      ],
      "transaction": {
        "from": "0x2738f38fde510743e0c589415e0598c4cee6eaa7",
        "to": "0x85f5181abdbf0e1814fc4358582ae07b8eba3af3",
        "value": "0x0",
        "input": "0x0d895ee1000000000000000000000000b9ae2065142eb79b6c5eb1e8778f883fad6b07ba0000000000000000000000000000000000000000000000000000000000000000",
        "nonce": "0xdb",
        "chainId": "0xaa044c"
      },
      "additionalContracts": [],
      "isFixedGasLimit": false
    },
    {
      "hash": "0x20687a02e24d39b0e3a3809adf8aa2ea84b2518692991c3d46a40ae44346634c",
      "transactionType": "CALL",
      "contractName": null,
      "contractAddress": "0x85f5181abdbf0e1814fc4358582ae07b8eba3af3",
      "function": "setMinter(address,bool)",
      "arguments": [
        "0x7fCd2F75Ed661E76f969E6D0347a93028a099d6D",
        "true"
      ],
      "transaction": {
        "from": "0x2738f38fde510743e0c589415e0598c4cee6eaa7",
        "to": "0x85f5181abdbf0e1814fc4358582ae07b8eba3af3",
        "value": "0x0",
        "input": "0xcf456ae70000000000000000000000007fcd2f75ed661e76f969e6d0347a93028a099d6d0000000000000000000000000000000000000000000000000000000000000001",
        "nonce": "0xdc",
        "chainId": "0xaa044c"
      },
      "additionalContracts": [],
      "isFixedGasLimit": false
    },
    {
      "hash": "0xbafc2f163a83300bc3b7b4bda1b9437babb8e5d440c7bfa4862092185b896510",
      "transactionType": "CALL",
      "contractName": null,
      "contractAddress": "0x85f5181abdbf0e1814fc4358582ae07b8eba3af3",
      "function": "setMinter(address,bool)",
      "arguments": [
        "0x50651599c8A778732C34d1C181EEB05Ff2Ef9d73",
        "true"
      ],
      "transaction": {
        "from": "0x2738f38fde510743e0c589415e0598c4cee6eaa7",
        "to": "0x85f5181abdbf0e1814fc4358582ae07b8eba3af3",
        "value": "0x0",
        "input": "0xcf456ae700000000000000000000000050651599c8a778732c34d1c181eeb05ff2ef9d730000000000000000000000000000000000000000000000000000000000000001",
        "nonce": "0xdd",
        "chainId": "0xaa044c"
      },
      "additionalContracts": [],
      "isFixedGasLimit": false
    },
    {
      "hash": "0xdc5aa8c9b9eb6d4b3648136376cd597f12754c36deb98c38f23ef4dc1f6a16c8",
      "transactionType": "CALL",
      "contractName": null,
      "contractAddress": "0x85f5181abdbf0e1814fc4358582ae07b8eba3af3",
      "function": "setBurner(address,bool)",
      "arguments": [
        "0xc674b6562eaf4E40056aad628E398F58cA0b2B91",
        "true"
      ],
      "transaction": {
        "from": "0x2738f38fde510743e0c589415e0598c4cee6eaa7",
        "to": "0x85f5181abdbf0e1814fc4358582ae07b8eba3af3",
        "value": "0x0",
        "input": "0x0d895ee1000000000000000000000000c674b6562eaf4e40056aad628e398f58ca0b2b910000000000000000000000000000000000000000000000000000000000000001",
        "nonce": "0xde",
        "chainId": "0xaa044c"
      },
      "additionalContracts": [],
      "isFixedGasLimit": false
    },
    {
      "hash": "0xe7c2a21bed64c05e5f5526512593a71e10d39dc90a5d3e695ba12c14c5af7168",
      "transactionType": "CALL",
      "contractName": null,
      "contractAddress": "0x85f5181abdbf0e1814fc4358582ae07b8eba3af3",
      "function": "setBurner(address,bool)",
      "arguments": [
        "0x7fCd2F75Ed661E76f969E6D0347a93028a099d6D",
        "true"
      ],
      "transaction": {
        "from": "0x2738f38fde510743e0c589415e0598c4cee6eaa7",
        "to": "0x85f5181abdbf0e1814fc4358582ae07b8eba3af3",
        "value": "0x0",
        "input": "0x0d895ee10000000000000000000000007fcd2f75ed661e76f969e6d0347a93028a099d6d0000000000000000000000000000000000000000000000000000000000000001",
        "nonce": "0xdf",
        "chainId": "0xaa044c"
      },
      "additionalContracts": [],
      "isFixedGasLimit": false
    },
    {
      "hash": "0xbbff5fc12d532f06fba608953fecf9ffce866cdfe9f37abbb36d1ea30319bf45",
      "transactionType": "CALL",
      "contractName": null,
      "contractAddress": "0x85f5181abdbf0e1814fc4358582ae07b8eba3af3",
      "function": "setBurner(address,bool)",
      "arguments": [
        "0x3ADFF16949513480E051F451748Ee8B801731c46",
        "true"
      ],
      "transaction": {
        "from": "0x2738f38fde510743e0c589415e0598c4cee6eaa7",
        "to": "0x85f5181abdbf0e1814fc4358582ae07b8eba3af3",
        "value": "0x0",
        "input": "0x0d895ee10000000000000000000000003adff16949513480e051f451748ee8b801731c460000000000000000000000000000000000000000000000000000000000000001",
        "nonce": "0xe0",
        "chainId": "0xaa044c"
      },
      "additionalContracts": [],
      "isFixedGasLimit": false
    },
    {
      "hash": "0x9c90628678108d62f0468fda4eb27bb466b9ef60c6a32867b8ff9eac1ecde483",
      "transactionType": "CALL",
      "contractName": null,
      "contractAddress": "0x85f5181abdbf0e1814fc4358582ae07b8eba3af3",
      "function": "setBurner(address,bool)",
      "arguments": [
        "0x31f4fE29B8104969209C0474A40FCa79170Ee53e",
        "true"
      ],
      "transaction": {
        "from": "0x2738f38fde510743e0c589415e0598c4cee6eaa7",
        "to": "0x85f5181abdbf0e1814fc4358582ae07b8eba3af3",
        "value": "0x0",
        "input": "0x0d895ee100000000000000000000000031f4fe29b8104969209c0474a40fca79170ee53e0000000000000000000000000000000000000000000000000000000000000001",
        "nonce": "0xe1",
        "chainId": "0xaa044c"
      },
      "additionalContracts": [],
      "isFixedGasLimit": false
    },
    {
      "hash": "0x17e40322c334500712ba9f4174ab95e83a8f316c13f9f007d7da42f35e1f63a0",
      "transactionType": "CALL",
      "contractName": null,
      "contractAddress": "0x85f5181abdbf0e1814fc4358582ae07b8eba3af3",
      "function": "setOperator(address,bool)",
      "arguments": [
        "0x31f4fE29B8104969209C0474A40FCa79170Ee53e",
        "true"
      ],
      "transaction": {
        "from": "0x2738f38fde510743e0c589415e0598c4cee6eaa7",
        "to": "0x85f5181abdbf0e1814fc4358582ae07b8eba3af3",
        "value": "0x0",
        "input": "0x558a729700000000000000000000000031f4fe29b8104969209c0474a40fca79170ee53e0000000000000000000000000000000000000000000000000000000000000001",
        "nonce": "0xe2",
        "chainId": "0xaa044c"
      },
      "additionalContracts": [],
      "isFixedGasLimit": false
    },
    {
      "hash": "0x584db9308660a6d3041d8ddd28b7d294611759fb1a8c65d4968a4c2957f7505f",
      "transactionType": "CALL",
      "contractName": null,
      "contractAddress": "0x550d9ecb4c373510b8a41f5fb7d98e9e1c51a07e",
      "function": "setLiquidityStrategy(address,bool)",
      "arguments": [
        "0x065AE7D4e207C8f4dca112D0B79E668cc7e93e03",
        "true"
      ],
      "transaction": {
        "from": "0x2738f38fde510743e0c589415e0598c4cee6eaa7",
        "to": "0x550d9ecb4c373510b8a41f5fb7d98e9e1c51a07e",
        "value": "0x0",
        "input": "0xcce441a3000000000000000000000000065ae7d4e207c8f4dca112d0b79e668cc7e93e030000000000000000000000000000000000000000000000000000000000000001",
        "nonce": "0xe3",
        "chainId": "0xaa044c"
      },
      "additionalContracts": [],
      "isFixedGasLimit": false
    },
    {
      "hash": "0xff29385cc515561232b1087a1811b658c8ccfaa9ca5e6b9bbe49bfd083415dba",
      "transactionType": "CALL",
      "contractName": null,
      "contractAddress": "0x065ae7d4e207c8f4dca112d0b79e668cc7e93e03",
      "function": "addPool((address,address,uint32,address,uint64,uint64,uint64,uint64),(address,address,uint16,uint16))",
      "arguments": [
        "(0x550D9EcB4C373510b8A41f5fB7D98E9E1c51A07e, 0x85F5181Abdbf0e1814Fc4358582Ae07b8eBA3aF3, 300, 0x2738F38Fde510743e0c589415E0598C4ceE6eAa7, 500000000000000, 0, 500000000000000, 0)",
        "(0x31f4fE29B8104969209C0474A40FCa79170Ee53e, 0xc674b6562eaf4E40056aad628E398F58cA0b2B91, 2000, 500)"
      ],
      "transaction": {
        "from": "0x2738f38fde510743e0c589415e0598c4cee6eaa7",
        "to": "0x065ae7d4e207c8f4dca112d0b79e668cc7e93e03",
        "value": "0x0",
        "input": "0xe8356cb1000000000000000000000000550d9ecb4c373510b8a41f5fb7d98e9e1c51a07e00000000000000000000000085f5181abdbf0e1814fc4358582ae07b8eba3af3000000000000000000000000000000000000000000000000000000000000012c0000000000000000000000002738f38fde510743e0c589415e0598c4cee6eaa70000000000000000000000000000000000000000000000000001c6bf5263400000000000000000000000000000000000000000000000000000000000000000000000000000000000000000000000000000000000000000000001c6bf52634000000000000000000000000000000000000000000000000000000000000000000000000000000000000000000031f4fe29b8104969209c0474a40fca79170ee53e000000000000000000000000c674b6562eaf4e40056aad628e398f58ca0b2b9100000000000000000000000000000000000000000000000000000000000007d000000000000000000000000000000000000000000000000000000000000001f4",
        "nonce": "0xe4",
        "chainId": "0xaa044c"
      },
      "additionalContracts": [],
      "isFixedGasLimit": false
    },
    {
      "hash": "0x56d6ca9fabbd2d0c97fd044bba30e2f25ba8934719eb0c3052c2afb6426f5387",
      "transactionType": "CALL",
      "contractName": null,
      "contractAddress": "0xba5ed099633d3b313e4d5f7bdc1305d3c28ba5ed",
      "function": "deployCreate3(bytes32,bytes)",
      "arguments": [
        "0x2738f38fde510743e0c589415e0598c4cee6eaa700371d6e86478e5f0cef8a81",
        "0x608060405234801562000010575f80fd5b506040516200179838038062001798833981016040819052620000339162000267565b6200003e3362000120565b6001600160a01b0382166200009a5760405162461bcd60e51b815260206004820152601d60248201527f496e76616c696420726573657276652074726f7665206d616e6167657200000060448201526064015b60405180910390fd5b6001600160a01b038116620000f25760405162461bcd60e51b815260206004820152601560248201527f496e76616c696420696e697469616c206f776e65720000000000000000000000604482015260640162000091565b600180546001600160a01b0319166001600160a01b03841617905562000118816200016f565b50506200029d565b5f80546001600160a01b038381166001600160a01b0319831681178455604051919092169283917f8be0079c531659141344cd1fd0a4f28419497f9722a3daafe3b4186f6b6457e09190a35050565b62000179620001ee565b6001600160a01b038116620001e05760405162461bcd60e51b815260206004820152602660248201527f4f776e61626c653a206e6577206f776e657220697320746865207a65726f206160448201526564647265737360d01b606482015260840162000091565b620001eb8162000120565b50565b5f546001600160a01b03163314620002495760405162461bcd60e51b815260206004820181905260248201527f4f776e61626c653a2063616c6c6572206973206e6f7420746865206f776e6572604482015260640162000091565b565b80516001600160a01b038116811462000262575f80fd5b919050565b5f806040838503121562000279575f80fd5b62000284836200024b565b915062000294602084016200024b565b90509250929050565b6114ed80620002ab5f395ff3fe608060405260043610610087575f3560e01c80638da5cb5b116100575780638da5cb5b1461011f578063a20baee61461013b578063bfed8a8f14610156578063f2fde38b14610175578063f940e38514610194575f80fd5b8063077e01171461009257806316d3bfbb146100ce5780632431e84f146100f3578063715018a614610109575f80fd5b3661008e57005b5f80fd5b34801561009d575f80fd5b506001546100b1906001600160a01b031681565b6040516001600160a01b0390911681526020015b60405180910390f35b3480156100d9575f80fd5b506100e56301e1338081565b6040519081526020016100c5565b3480156100fe575f80fd5b506100e562093a8081565b348015610114575f80fd5b5061011d6101b3565b005b34801561012a575f80fd5b505f546001600160a01b03166100b1565b348015610146575f80fd5b506100e5670de0b6b3a764000081565b348015610161575f80fd5b506100e5610170366004611365565b6101c6565b348015610180575f80fd5b5061011d61018f366004611397565b610597565b34801561019f575f80fd5b5061011d6101ae3660046113b9565b610610565b6101bb61078a565b6101c45f6107e3565b565b5f6101cf61078a565b5f846001600160a01b031663048c661d6040518163ffffffff1660e01b8152600401602060405180830381865afa15801561020c573d5f803e3d5ffd5b505050506040513d601f19601f8201168201806040525081019061023091906113f0565b6001600160a01b031663458e8e6b6040518163ffffffff1660e01b8152600401602060405180830381865afa15801561026b573d5f803e3d5ffd5b505050506040513d601f19601f8201168201806040525081019061028f91906113f0565b905061029c858286610832565b5f856001600160a01b031663630afce56040518163ffffffff1660e01b8152600401602060405180830381865afa1580156102d9573d5f803e3d5ffd5b505050506040513d601f19601f820116820180604052508101906102fd91906113f0565b90505f816001600160a01b03166318160ddd6040518163ffffffff1660e01b8152600401602060405180830381865afa15801561033c573d5f803e3d5ffd5b505050506040513d601f19601f82011682018060405250810190610360919061140b565b90505f81116103b65760405162461bcd60e51b815260206004820152601860248201527f4e6f206578697374696e67206465627420746f206261636b000000000000000060448201526064015b60405180910390fd5b5f6103c388888885610c92565b9050876001600160a01b03166377553ad46040518163ffffffff1660e01b8152600401602060405180830381865afa158015610401573d5f803e3d5ffd5b505050506040513d601f19601f8201168201806040525081019061042591906113f0565b600154604051634e5c85d360e11b81526001600160a01b0391821660048201525f6024820181905260448201859052606482018690526084820181905260a4820181905260c482018a90525f1960e483015261010482018190526101248201819052610144820152911690639cb90ba690610164016020604051808303815f875af11580156104b6573d5f803e3d5ffd5b505050506040513d601f19601f820116820180604052508101906104da919061140b565b604051630852cd8d60e31b8152600481018490529095506001600160a01b038416906342966c68906024016020604051808303815f875af1158015610521573d5f803e3d5ffd5b505050506040513d601f19601f820116820180604052508101906105459190611422565b50604080518381526020810183905286916001600160a01b038b16917f9f6aa3c522783fd3e83c888a4d0c5452e521fb7518cec88c8468b56cec4665a9910160405180910390a3505050509392505050565b61059f61078a565b6001600160a01b0381166106045760405162461bcd60e51b815260206004820152602660248201527f4f776e61626c653a206e6577206f776e657220697320746865207a65726f206160448201526564647265737360d01b60648201526084016103ad565b61060d816107e3565b50565b61061861078a565b6001600160a01b0381166106625760405162461bcd60e51b8152602060048201526011602482015270125b9d985b1a59081c9958da5c1a595b9d607a1b60448201526064016103ad565b6040516370a0823160e01b81523060048201525f906001600160a01b038416906370a0823190602401602060405180830381865afa1580156106a6573d5f803e3d5ffd5b505050506040513d601f19601f820116820180604052508101906106ca919061140b565b90505f81116107145760405162461bcd60e51b81526020600482015260166024820152754e6f2062616c616e636520746f20776974686472617760501b60448201526064016103ad565b60405163a9059cbb60e01b81526001600160a01b0383811660048301526024820183905284169063a9059cbb906044016020604051808303815f875af1158015610760573d5f803e3d5ffd5b505050506040513d601f19601f820116820180604052508101906107849190611422565b50505050565b5f546001600160a01b031633146101c45760405162461bcd60e51b815260206004820181905260248201527f4f776e61626c653a2063616c6c6572206973206e6f7420746865206f776e657260448201526064016103ad565b5f80546001600160a01b038381166001600160a01b0319831681178455604051919092169283917f8be0079c531659141344cd1fd0a4f28419497f9722a3daafe3b4186f6b6457e09190a35050565b826001600160a01b03166331b8c9466040518163ffffffff1660e01b8152600401602060405180830381865afa15801561086e573d5f803e3d5ffd5b505050506040513d601f19601f8201168201806040525081019061089291906113f0565b6040516355138f0d60e11b81523060048201526001600160a01b03919091169063aa271e1a90602401602060405180830381865afa1580156108d6573d5f803e3d5ffd5b505050506040513d601f19601f820116820180604052508101906108fa9190611422565b6109465760405162461bcd60e51b815260206004820181905260248201527f4e6f742061206d696e746572206f6e20636f6c6c61746572616c20746f6b656e60448201526064016103ad565b826001600160a01b031663630afce56040518163ffffffff1660e01b8152600401602060405180830381865afa158015610982573d5f803e3d5ffd5b505050506040513d601f19601f820116820180604052508101906109a691906113f0565b60405163219a30a560e11b81523060048201526001600160a01b039190911690634334614a90602401602060405180830381865afa1580156109ea573d5f803e3d5ffd5b505050506040513d601f19601f82011682018060405250810190610a0e9190611422565b610a5a5760405162461bcd60e51b815260206004820152601a60248201527f4e6f742061206275726e6572206f6e206465627420746f6b656e00000000000060448201526064016103ad565b816001600160a01b0316635733d58f6040518163ffffffff1660e01b8152600401602060405180830381865afa158015610a96573d5f803e3d5ffd5b505050506040513d601f19601f82011682018060405250810190610aba919061140b565b8111610b085760405162461bcd60e51b815260206004820152601b60248201527f4352206d7573742062652067726561746572207468616e20434352000000000060448201526064016103ad565b5f826001600160a01b0316635397951f6040518163ffffffff1660e01b8152600401602060405180830381865afa158015610b45573d5f803e3d5ffd5b505050506040513d601f19601f82011682018060405250810190610b69919061140b565b905080846001600160a01b031663c91d59fe6040518163ffffffff1660e01b8152600401602060405180830381865afa158015610ba8573d5f803e3d5ffd5b505050506040513d601f19601f82011682018060405250810190610bcc91906113f0565b6040516370a0823160e01b81523060048201526001600160a01b0391909116906370a0823190602401602060405180830381865afa158015610c10573d5f803e3d5ffd5b505050506040513d601f19601f82011682018060405250810190610c34919061140b565b10156107845760405162461bcd60e51b815260206004820152602760248201527f496e73756666696369656e742067617320746f6b656e20666f7220636f6d70656044820152663739b0ba34b7b760c91b60648201526084016103ad565b5f80856001600160a01b031663741bef1a6040518163ffffffff1660e01b8152600401602060405180830381865afa158015610cd0573d5f803e3d5ffd5b505050506040513d601f19601f82011682018060405250810190610cf491906113f0565b6001600160a01b0316630fdb11cf6040518163ffffffff1660e01b81526004016020604051808303815f875af1158015610d30573d5f803e3d5ffd5b505050506040513d601f19601f82011682018060405250810190610d54919061140b565b9050610dc2858486848a6001600160a01b0316637f7dde4a6040518163ffffffff1660e01b8152600401602060405180830381865afa158015610d99573d5f803e3d5ffd5b505050506040513d601f19601f82011682018060405250810190610dbd91906113f0565b61116b565b91505f866001600160a01b03166331b8c9466040518163ffffffff1660e01b8152600401602060405180830381865afa158015610e01573d5f803e3d5ffd5b505050506040513d601f19601f82011682018060405250810190610e2591906113f0565b90505f876001600160a01b03166377553ad46040518163ffffffff1660e01b8152600401602060405180830381865afa158015610e64573d5f803e3d5ffd5b505050506040513d601f19601f82011682018060405250810190610e8891906113f0565b6040516340c10f1960e01b8152306004820152602481018690529091506001600160a01b038316906340c10f19906044016020604051808303815f875af1158015610ed5573d5f803e3d5ffd5b505050506040513d601f19601f82011682018060405250810190610ef99190611422565b5060405163095ea7b360e01b81526001600160a01b0382811660048301526024820186905283169063095ea7b3906044016020604051808303815f875af1158015610f46573d5f803e3d5ffd5b505050506040513d601f19601f82011682018060405250810190610f6a9190611422565b505f886001600160a01b031663048c661d6040518163ffffffff1660e01b8152600401602060405180830381865afa158015610fa8573d5f803e3d5ffd5b505050506040513d601f19601f82011682018060405250810190610fcc91906113f0565b6001600160a01b031663458e8e6b6040518163ffffffff1660e01b8152600401602060405180830381865afa158015611007573d5f803e3d5ffd5b505050506040513d601f19601f8201168201806040525081019061102b91906113f0565b6001600160a01b0316635397951f6040518163ffffffff1660e01b8152600401602060405180830381865afa158015611066573d5f803e3d5ffd5b505050506040513d601f19601f8201168201806040525081019061108a919061140b565b9050886001600160a01b031663c91d59fe6040518163ffffffff1660e01b8152600401602060405180830381865afa1580156110c8573d5f803e3d5ffd5b505050506040513d601f19601f820116820180604052508101906110ec91906113f0565b60405163095ea7b360e01b81526001600160a01b03848116600483015260248201849052919091169063095ea7b3906044016020604051808303815f875af115801561113a573d5f803e3d5ffd5b505050506040513d601f19601f8201168201806040525081019061115e9190611422565b5050505050949350505050565b5f806111788387876111bf565b90505f6111858288611455565b905084600181611195848c61146e565b61119f9190611455565b6111a99190611485565b6111b39190611498565b98975050505050505050565b5f6112186040518061018001604052805f81526020015f81526020015f81526020015f81526020015f81526020015f81526020015f81526020015f81526020015f81526020015f81526020015f81526020015f81525090565b60808101849052611229838561146e565b60c08201908152604080516385fe37a360e01b81528351600482015260208401516024820152908301516044820152606083015160648201526080830151608482015260a083015160a4820152905160c482015260e082015160e48201526101008201516101048201526101208201516101248201526101408201516101448201526101608201516101648201525f906001600160a01b038716906385fe37a39061018401602060405180830381865afa1580156112e9573d5f803e3d5ffd5b505050506040513d601f19601f8201168201806040525081019061130d919061140b565b9050611325670de0b6b3a76400006301e1338061146e565b62093a80611333838861146e565b61133d919061146e565b6113479190611498565b9695505050505050565b6001600160a01b038116811461060d575f80fd5b5f805f60608486031215611377575f80fd5b833561138281611351565b95602085013595506040909401359392505050565b5f602082840312156113a7575f80fd5b81356113b281611351565b9392505050565b5f80604083850312156113ca575f80fd5b82356113d581611351565b915060208301356113e581611351565b809150509250929050565b5f60208284031215611400575f80fd5b81516113b281611351565b5f6020828403121561141b575f80fd5b5051919050565b5f60208284031215611432575f80fd5b815180151581146113b2575f80fd5b634e487b7160e01b5f52601160045260245ffd5b8082018082111561146857611468611441565b92915050565b808202811582820484141761146857611468611441565b8181038181111561146857611468611441565b5f826114b257634e487b7160e01b5f52601260045260245ffd5b50049056fea2646970667358221220bf815529dd2010c0563d781844ce2888c19efd1b330021aedcfa5c61b8a4fb0c64736f6c634300081800330000000000000000000000002738f38fde510743e0c589415e0598c4cee6eaa70000000000000000000000002738f38fde510743e0c589415e0598c4cee6eaa7"
      ],
      "transaction": {
        "from": "0x2738f38fde510743e0c589415e0598c4cee6eaa7",
        "to": "0xba5ed099633d3b313e4d5f7bdc1305d3c28ba5ed",
        "value": "0x0",
        "input": "0x9c36a2862738f38fde510743e0c589415e0598c4cee6eaa700371d6e86478e5f0cef8a81000000000000000000000000000000000000000000000000000000000000004000000000000000000000000000000000000000000000000000000000000017d8608060405234801562000010575f80fd5b506040516200179838038062001798833981016040819052620000339162000267565b6200003e3362000120565b6001600160a01b0382166200009a5760405162461bcd60e51b815260206004820152601d60248201527f496e76616c696420726573657276652074726f7665206d616e6167657200000060448201526064015b60405180910390fd5b6001600160a01b038116620000f25760405162461bcd60e51b815260206004820152601560248201527f496e76616c696420696e697469616c206f776e65720000000000000000000000604482015260640162000091565b600180546001600160a01b0319166001600160a01b03841617905562000118816200016f565b50506200029d565b5f80546001600160a01b038381166001600160a01b0319831681178455604051919092169283917f8be0079c531659141344cd1fd0a4f28419497f9722a3daafe3b4186f6b6457e09190a35050565b62000179620001ee565b6001600160a01b038116620001e05760405162461bcd60e51b815260206004820152602660248201527f4f776e61626c653a206e6577206f776e657220697320746865207a65726f206160448201526564647265737360d01b606482015260840162000091565b620001eb8162000120565b50565b5f546001600160a01b03163314620002495760405162461bcd60e51b815260206004820181905260248201527f4f776e61626c653a2063616c6c6572206973206e6f7420746865206f776e6572604482015260640162000091565b565b80516001600160a01b038116811462000262575f80fd5b919050565b5f806040838503121562000279575f80fd5b62000284836200024b565b915062000294602084016200024b565b90509250929050565b6114ed80620002ab5f395ff3fe608060405260043610610087575f3560e01c80638da5cb5b116100575780638da5cb5b1461011f578063a20baee61461013b578063bfed8a8f14610156578063f2fde38b14610175578063f940e38514610194575f80fd5b8063077e01171461009257806316d3bfbb146100ce5780632431e84f146100f3578063715018a614610109575f80fd5b3661008e57005b5f80fd5b34801561009d575f80fd5b506001546100b1906001600160a01b031681565b6040516001600160a01b0390911681526020015b60405180910390f35b3480156100d9575f80fd5b506100e56301e1338081565b6040519081526020016100c5565b3480156100fe575f80fd5b506100e562093a8081565b348015610114575f80fd5b5061011d6101b3565b005b34801561012a575f80fd5b505f546001600160a01b03166100b1565b348015610146575f80fd5b506100e5670de0b6b3a764000081565b348015610161575f80fd5b506100e5610170366004611365565b6101c6565b348015610180575f80fd5b5061011d61018f366004611397565b610597565b34801561019f575f80fd5b5061011d6101ae3660046113b9565b610610565b6101bb61078a565b6101c45f6107e3565b565b5f6101cf61078a565b5f846001600160a01b031663048c661d6040518163ffffffff1660e01b8152600401602060405180830381865afa15801561020c573d5f803e3d5ffd5b505050506040513d601f19601f8201168201806040525081019061023091906113f0565b6001600160a01b031663458e8e6b6040518163ffffffff1660e01b8152600401602060405180830381865afa15801561026b573d5f803e3d5ffd5b505050506040513d601f19601f8201168201806040525081019061028f91906113f0565b905061029c858286610832565b5f856001600160a01b031663630afce56040518163ffffffff1660e01b8152600401602060405180830381865afa1580156102d9573d5f803e3d5ffd5b505050506040513d601f19601f820116820180604052508101906102fd91906113f0565b90505f816001600160a01b03166318160ddd6040518163ffffffff1660e01b8152600401602060405180830381865afa15801561033c573d5f803e3d5ffd5b505050506040513d601f19601f82011682018060405250810190610360919061140b565b90505f81116103b65760405162461bcd60e51b815260206004820152601860248201527f4e6f206578697374696e67206465627420746f206261636b000000000000000060448201526064015b60405180910390fd5b5f6103c388888885610c92565b9050876001600160a01b03166377553ad46040518163ffffffff1660e01b8152600401602060405180830381865afa158015610401573d5f803e3d5ffd5b505050506040513d601f19601f8201168201806040525081019061042591906113f0565b600154604051634e5c85d360e11b81526001600160a01b0391821660048201525f6024820181905260448201859052606482018690526084820181905260a4820181905260c482018a90525f1960e483015261010482018190526101248201819052610144820152911690639cb90ba690610164016020604051808303815f875af11580156104b6573d5f803e3d5ffd5b505050506040513d601f19601f820116820180604052508101906104da919061140b565b604051630852cd8d60e31b8152600481018490529095506001600160a01b038416906342966c68906024016020604051808303815f875af1158015610521573d5f803e3d5ffd5b505050506040513d601f19601f820116820180604052508101906105459190611422565b50604080518381526020810183905286916001600160a01b038b16917f9f6aa3c522783fd3e83c888a4d0c5452e521fb7518cec88c8468b56cec4665a9910160405180910390a3505050509392505050565b61059f61078a565b6001600160a01b0381166106045760405162461bcd60e51b815260206004820152602660248201527f4f776e61626c653a206e6577206f776e657220697320746865207a65726f206160448201526564647265737360d01b60648201526084016103ad565b61060d816107e3565b50565b61061861078a565b6001600160a01b0381166106625760405162461bcd60e51b8152602060048201526011602482015270125b9d985b1a59081c9958da5c1a595b9d607a1b60448201526064016103ad565b6040516370a0823160e01b81523060048201525f906001600160a01b038416906370a0823190602401602060405180830381865afa1580156106a6573d5f803e3d5ffd5b505050506040513d601f19601f820116820180604052508101906106ca919061140b565b90505f81116107145760405162461bcd60e51b81526020600482015260166024820152754e6f2062616c616e636520746f20776974686472617760501b60448201526064016103ad565b60405163a9059cbb60e01b81526001600160a01b0383811660048301526024820183905284169063a9059cbb906044016020604051808303815f875af1158015610760573d5f803e3d5ffd5b505050506040513d601f19601f820116820180604052508101906107849190611422565b50505050565b5f546001600160a01b031633146101c45760405162461bcd60e51b815260206004820181905260248201527f4f776e61626c653a2063616c6c6572206973206e6f7420746865206f776e657260448201526064016103ad565b5f80546001600160a01b038381166001600160a01b0319831681178455604051919092169283917f8be0079c531659141344cd1fd0a4f28419497f9722a3daafe3b4186f6b6457e09190a35050565b826001600160a01b03166331b8c9466040518163ffffffff1660e01b8152600401602060405180830381865afa15801561086e573d5f803e3d5ffd5b505050506040513d601f19601f8201168201806040525081019061089291906113f0565b6040516355138f0d60e11b81523060048201526001600160a01b03919091169063aa271e1a90602401602060405180830381865afa1580156108d6573d5f803e3d5ffd5b505050506040513d601f19601f820116820180604052508101906108fa9190611422565b6109465760405162461bcd60e51b815260206004820181905260248201527f4e6f742061206d696e746572206f6e20636f6c6c61746572616c20746f6b656e60448201526064016103ad565b826001600160a01b031663630afce56040518163ffffffff1660e01b8152600401602060405180830381865afa158015610982573d5f803e3d5ffd5b505050506040513d601f19601f820116820180604052508101906109a691906113f0565b60405163219a30a560e11b81523060048201526001600160a01b039190911690634334614a90602401602060405180830381865afa1580156109ea573d5f803e3d5ffd5b505050506040513d601f19601f82011682018060405250810190610a0e9190611422565b610a5a5760405162461bcd60e51b815260206004820152601a60248201527f4e6f742061206275726e6572206f6e206465627420746f6b656e00000000000060448201526064016103ad565b816001600160a01b0316635733d58f6040518163ffffffff1660e01b8152600401602060405180830381865afa158015610a96573d5f803e3d5ffd5b505050506040513d601f19601f82011682018060405250810190610aba919061140b565b8111610b085760405162461bcd60e51b815260206004820152601b60248201527f4352206d7573742062652067726561746572207468616e20434352000000000060448201526064016103ad565b5f826001600160a01b0316635397951f6040518163ffffffff1660e01b8152600401602060405180830381865afa158015610b45573d5f803e3d5ffd5b505050506040513d601f19601f82011682018060405250810190610b69919061140b565b905080846001600160a01b031663c91d59fe6040518163ffffffff1660e01b8152600401602060405180830381865afa158015610ba8573d5f803e3d5ffd5b505050506040513d601f19601f82011682018060405250810190610bcc91906113f0565b6040516370a0823160e01b81523060048201526001600160a01b0391909116906370a0823190602401602060405180830381865afa158015610c10573d5f803e3d5ffd5b505050506040513d601f19601f82011682018060405250810190610c34919061140b565b10156107845760405162461bcd60e51b815260206004820152602760248201527f496e73756666696369656e742067617320746f6b656e20666f7220636f6d70656044820152663739b0ba34b7b760c91b60648201526084016103ad565b5f80856001600160a01b031663741bef1a6040518163ffffffff1660e01b8152600401602060405180830381865afa158015610cd0573d5f803e3d5ffd5b505050506040513d601f19601f82011682018060405250810190610cf491906113f0565b6001600160a01b0316630fdb11cf6040518163ffffffff1660e01b81526004016020604051808303815f875af1158015610d30573d5f803e3d5ffd5b505050506040513d601f19601f82011682018060405250810190610d54919061140b565b9050610dc2858486848a6001600160a01b0316637f7dde4a6040518163ffffffff1660e01b8152600401602060405180830381865afa158015610d99573d5f803e3d5ffd5b505050506040513d601f19601f82011682018060405250810190610dbd91906113f0565b61116b565b91505f866001600160a01b03166331b8c9466040518163ffffffff1660e01b8152600401602060405180830381865afa158015610e01573d5f803e3d5ffd5b505050506040513d601f19601f82011682018060405250810190610e2591906113f0565b90505f876001600160a01b03166377553ad46040518163ffffffff1660e01b8152600401602060405180830381865afa158015610e64573d5f803e3d5ffd5b505050506040513d601f19601f82011682018060405250810190610e8891906113f0565b6040516340c10f1960e01b8152306004820152602481018690529091506001600160a01b038316906340c10f19906044016020604051808303815f875af1158015610ed5573d5f803e3d5ffd5b505050506040513d601f19601f82011682018060405250810190610ef99190611422565b5060405163095ea7b360e01b81526001600160a01b0382811660048301526024820186905283169063095ea7b3906044016020604051808303815f875af1158015610f46573d5f803e3d5ffd5b505050506040513d601f19601f82011682018060405250810190610f6a9190611422565b505f886001600160a01b031663048c661d6040518163ffffffff1660e01b8152600401602060405180830381865afa158015610fa8573d5f803e3d5ffd5b505050506040513d601f19601f82011682018060405250810190610fcc91906113f0565b6001600160a01b031663458e8e6b6040518163ffffffff1660e01b8152600401602060405180830381865afa158015611007573d5f803e3d5ffd5b505050506040513d601f19601f8201168201806040525081019061102b91906113f0565b6001600160a01b0316635397951f6040518163ffffffff1660e01b8152600401602060405180830381865afa158015611066573d5f803e3d5ffd5b505050506040513d601f19601f8201168201806040525081019061108a919061140b565b9050886001600160a01b031663c91d59fe6040518163ffffffff1660e01b8152600401602060405180830381865afa1580156110c8573d5f803e3d5ffd5b505050506040513d601f19601f820116820180604052508101906110ec91906113f0565b60405163095ea7b360e01b81526001600160a01b03848116600483015260248201849052919091169063095ea7b3906044016020604051808303815f875af115801561113a573d5f803e3d5ffd5b505050506040513d601f19601f8201168201806040525081019061115e9190611422565b5050505050949350505050565b5f806111788387876111bf565b90505f6111858288611455565b905084600181611195848c61146e565b61119f9190611455565b6111a99190611485565b6111b39190611498565b98975050505050505050565b5f6112186040518061018001604052805f81526020015f81526020015f81526020015f81526020015f81526020015f81526020015f81526020015f81526020015f81526020015f81526020015f81526020015f81525090565b60808101849052611229838561146e565b60c08201908152604080516385fe37a360e01b81528351600482015260208401516024820152908301516044820152606083015160648201526080830151608482015260a083015160a4820152905160c482015260e082015160e48201526101008201516101048201526101208201516101248201526101408201516101448201526101608201516101648201525f906001600160a01b038716906385fe37a39061018401602060405180830381865afa1580156112e9573d5f803e3d5ffd5b505050506040513d601f19601f8201168201806040525081019061130d919061140b565b9050611325670de0b6b3a76400006301e1338061146e565b62093a80611333838861146e565b61133d919061146e565b6113479190611498565b9695505050505050565b6001600160a01b038116811461060d575f80fd5b5f805f60608486031215611377575f80fd5b833561138281611351565b95602085013595506040909401359392505050565b5f602082840312156113a7575f80fd5b81356113b281611351565b9392505050565b5f80604083850312156113ca575f80fd5b82356113d581611351565b915060208301356113e581611351565b809150509250929050565b5f60208284031215611400575f80fd5b81516113b281611351565b5f6020828403121561141b575f80fd5b5051919050565b5f60208284031215611432575f80fd5b815180151581146113b2575f80fd5b634e487b7160e01b5f52601160045260245ffd5b8082018082111561146857611468611441565b92915050565b808202811582820484141761146857611468611441565b8181038181111561146857611468611441565b5f826114b257634e487b7160e01b5f52601260045260245ffd5b50049056fea2646970667358221220bf815529dd2010c0563d781844ce2888c19efd1b330021aedcfa5c61b8a4fb0c64736f6c634300081800330000000000000000000000002738f38fde510743e0c589415e0598c4cee6eaa70000000000000000000000002738f38fde510743e0c589415e0598c4cee6eaa70000000000000000",
        "nonce": "0xe5",
        "chainId": "0xaa044c"
      },
      "additionalContracts": [],
      "isFixedGasLimit": false
    },
    {
      "hash": "0x71a8e256c5990a8bc5ff29df7f544ad9d63441481eb5118ee80df6aa54c75d9c",
      "transactionType": "CALL",
      "contractName": null,
      "contractAddress": "0x78ee16e1b0e6103b4a00db42178a99a6d681d539",
      "function": "setRateFeedID(address)",
      "arguments": [
        "0xAe5eEe6815b8529847955d19522858806Bca8217"
      ],
      "transaction": {
        "from": "0x2738f38fde510743e0c589415e0598c4cee6eaa7",
        "to": "0x78ee16e1b0e6103b4a00db42178a99a6d681d539",
        "value": "0x0",
        "input": "0x42459c7b000000000000000000000000ae5eee6815b8529847955d19522858806bca8217",
        "nonce": "0xe6",
        "chainId": "0xaa044c"
      },
      "additionalContracts": [],
      "isFixedGasLimit": false
    },
    {
      "hash": "0x51701ed3cb2f0eda2f531fe35a5930c3f79a917db7f45794c53bffef2a129996",
      "transactionType": "CALL",
      "contractName": null,
      "contractAddress": "0xde9e4c3ce781b4ba68120d6261cbad65ce0ab00b",
      "function": "setMinter(address,bool)",
      "arguments": [
        "0xf179d705706CD959884E40B1eA21C95EC84D9E14",
        "true"
      ],
      "transaction": {
        "from": "0x2738f38fde510743e0c589415e0598c4cee6eaa7",
        "to": "0xde9e4c3ce781b4ba68120d6261cbad65ce0ab00b",
        "value": "0x0",
        "input": "0xcf456ae7000000000000000000000000f179d705706cd959884e40b1ea21c95ec84d9e140000000000000000000000000000000000000000000000000000000000000001",
        "nonce": "0xe7",
        "chainId": "0xaa044c"
      },
      "additionalContracts": [],
      "isFixedGasLimit": false
    },
    {
      "hash": "0x9e8485eaf5d9611647922917f3484686ace1712fe0d37be769c2e53fa8d2daac",
      "transactionType": "CALL",
      "contractName": null,
      "contractAddress": "0x85f5181abdbf0e1814fc4358582ae07b8eba3af3",
      "function": "setBurner(address,bool)",
      "arguments": [
        "0xf179d705706CD959884E40B1eA21C95EC84D9E14",
        "true"
      ],
      "transaction": {
        "from": "0x2738f38fde510743e0c589415e0598c4cee6eaa7",
        "to": "0x85f5181abdbf0e1814fc4358582ae07b8eba3af3",
        "value": "0x0",
        "input": "0x0d895ee1000000000000000000000000f179d705706cd959884e40b1ea21c95ec84d9e140000000000000000000000000000000000000000000000000000000000000001",
        "nonce": "0xe8",
        "chainId": "0xaa044c"
      },
      "additionalContracts": [],
      "isFixedGasLimit": false
    },
    {
      "hash": "0xd4ba95938af19e422adb7b31c1fa61ec3b67e0a288df59f66f1753d8d8f8a7a6",
      "transactionType": "CALL",
      "contractName": null,
      "contractAddress": "0x471ece3750da237f93b8e339c536989b8978a438",
      "function": "transfer(address,uint256)",
      "arguments": [
        "0xf179d705706CD959884E40B1eA21C95EC84D9E14",
        "1000000000000000000"
      ],
      "transaction": {
        "from": "0x2738f38fde510743e0c589415e0598c4cee6eaa7",
        "to": "0x471ece3750da237f93b8e339c536989b8978a438",
        "value": "0x0",
        "input": "0xa9059cbb000000000000000000000000f179d705706cd959884e40b1ea21c95ec84d9e140000000000000000000000000000000000000000000000000de0b6b3a7640000",
        "nonce": "0xe9",
        "chainId": "0xaa044c"
      },
      "additionalContracts": [],
      "isFixedGasLimit": false
    },
    {
      "hash": "0xb1ebc491c85230bc0ef23a4b5d5bda9c2b9bcbc3de615fd7ea1d54ea6ee28706",
      "transactionType": "CALL",
      "contractName": "ReserveTroveFactory",
      "contractAddress": "0xf179d705706cd959884e40b1ea21c95ec84d9e14",
      "function": "createReserveTrove(address,uint256,uint256)",
      "arguments": [
        "0x8b33D626E8d79388889d404fBC515Ed131c9508e",
        "1700000000000000000",
        "30000000000000000"
      ],
      "transaction": {
        "from": "0x2738f38fde510743e0c589415e0598c4cee6eaa7",
        "to": "0xf179d705706cd959884e40b1ea21c95ec84d9e14",
        "value": "0x0",
        "input": "0xbfed8a8f0000000000000000000000008b33d626e8d79388889d404fbc515ed131c9508e00000000000000000000000000000000000000000000000017979cfe362a0000000000000000000000000000000000000000000000000000006a94d74f430000",
        "nonce": "0xea",
        "chainId": "0xaa044c"
      },
      "additionalContracts": [],
      "isFixedGasLimit": false
    },
    {
      "hash": "0x6ee82a2449cd1a5739df37058c5fd09b3661b9979c449a0876b7347d9f6d988b",
      "transactionType": "CALL",
      "contractName": null,
      "contractAddress": "0xde9e4c3ce781b4ba68120d6261cbad65ce0ab00b",
      "function": "setMinter(address,bool)",
      "arguments": [
        "0xf179d705706CD959884E40B1eA21C95EC84D9E14",
        "false"
      ],
      "transaction": {
        "from": "0x2738f38fde510743e0c589415e0598c4cee6eaa7",
        "to": "0xde9e4c3ce781b4ba68120d6261cbad65ce0ab00b",
        "value": "0x0",
        "input": "0xcf456ae7000000000000000000000000f179d705706cd959884e40b1ea21c95ec84d9e140000000000000000000000000000000000000000000000000000000000000000",
        "nonce": "0xeb",
        "chainId": "0xaa044c"
      },
      "additionalContracts": [],
      "isFixedGasLimit": false
    },
    {
      "hash": "0x1ccb224891175ea3d5943e00955de7363f6a6ccbeb1ae03766ab94672ed1010a",
      "transactionType": "CALL",
      "contractName": null,
      "contractAddress": "0x85f5181abdbf0e1814fc4358582ae07b8eba3af3",
      "function": "setBurner(address,bool)",
      "arguments": [
        "0xf179d705706CD959884E40B1eA21C95EC84D9E14",
        "false"
      ],
      "transaction": {
        "from": "0x2738f38fde510743e0c589415e0598c4cee6eaa7",
        "to": "0x85f5181abdbf0e1814fc4358582ae07b8eba3af3",
        "value": "0x0",
        "input": "0x0d895ee1000000000000000000000000f179d705706cd959884e40b1ea21c95ec84d9e140000000000000000000000000000000000000000000000000000000000000000",
        "nonce": "0xec",
        "chainId": "0xaa044c"
      },
      "additionalContracts": [],
      "isFixedGasLimit": false
    }
  ],
  "receipts": [
    {
      "status": "0x1",
      "cumulativeGasUsed": "0x1fe28",
      "logs": [
        {
          "address": "0xecb3c656c131fcd9bb8d1d80898716bd684feb78",
          "topics": [
            "0xadbbec6c203cb0248e89fe6d15ad651061a9d5203a1ab0273256e2b7decffa89",
            "0x6c369bfb1598b2f7718671221bc524c84874ad1ed7ba02a61121e7a06722e2ce",
            "0x000000000000000000000000de9e4c3ce781b4ba68120d6261cbad65ce0ab00b",
            "0x00000000000000000000000085f5181abdbf0e1814fc4358582ae07b8eba3af3"
          ],
          "data": "0x0000000000000000000000003b199d9ebebe509bb711bffb455c2d79102a9602",
          "blockHash": "0x4d975a57144bf5c33747386e8cafd62ae484badede5a228a4c00c1e88891602d",
          "blockNumber": "0x124d551",
          "transactionHash": "0x0d2c57f018b0f6fc14573e34f84ff3107b0b954a607cc7bc3eb3306d3a8d8498",
          "transactionIndex": "0x1",
          "logIndex": "0x0",
          "removed": false
        }
      ],
      "logsBloom": "0x00000000000000000000000000404000008008000000000000000000000000000100010000000000000000000000000000000200000000000000000000000000000002100000000000000000000000002000000000000000000000000000004000000000000002000000000000080000000000000000000000000000000000000000040000000000000000000000000000000000000000000000000000000000000000000000000000000000000000000000000000000000000000000000000000000000000000000000000000000000000000000000100000000000000000000000000000000000000000000000000000000000000000000000000000000000",
      "type": "0x2",
      "transactionHash": "0x0d2c57f018b0f6fc14573e34f84ff3107b0b954a607cc7bc3eb3306d3a8d8498",
      "transactionIndex": "0x1",
      "blockHash": "0x4d975a57144bf5c33747386e8cafd62ae484badede5a228a4c00c1e88891602d",
      "blockNumber": "0x124d551",
      "gasUsed": "0x14a3c",
      "effectiveGasPrice": "0x5d21dba01",
      "from": "0x2738f38fde510743e0c589415e0598c4cee6eaa7",
      "to": "0xecb3c656c131fcd9bb8d1d80898716bd684feb78",
      "contractAddress": null,
      "l1BaseFeeScalar": "0x0",
      "l1BlobBaseFee": "0x1",
      "l1BlobBaseFeeScalar": "0x0",
      "l1Fee": "0x0",
      "l1GasPrice": "0xb",
      "l1GasUsed": "0x640"
    },
    {
      "status": "0x1",
      "cumulativeGasUsed": "0x12e13",
      "logs": [
        {
          "address": "0x85f5181abdbf0e1814fc4358582ae07b8eba3af3",
          "topics": [
            "0xb21afb9ce9be0a676f8f317ff0ca072fb89a4f8ce2d1b6fe80f8755c14f1cb19",
            "0x000000000000000000000000b9ae2065142eb79b6c5eb1e8778f883fad6b07ba"
          ],
          "data": "0x0000000000000000000000000000000000000000000000000000000000000000",
          "blockHash": "0x4c3ab19ae560a458b3865ba0812834c31f24420af55504e2456261486d29e0d7",
          "blockNumber": "0x124d556",
          "transactionHash": "0x84c642b5636f5e01dc87416dd6e3b175f46cfa381a3301d755e4823041938dc6",
          "transactionIndex": "0x1",
          "logIndex": "0x0",
          "removed": false
        }
      ],
      "logsBloom": "0x00020000000000000000000000000000000000000000000000000000000000000000000000000008000000000000000000000000000000040000000000000080000000800000000000000000000000000000000000000000000000000000000000000000000000000000000000000000000000000000000000000000000000000000010000000000800000000000000000000000000000000000200000000000000000000000000000000000000000000000000000000000000000000010000000000000000000000000000000000000000000000000000000000000000000000000000000000000000000000000000000000000000000000000000000000000",
      "type": "0x2",
      "transactionHash": "0x84c642b5636f5e01dc87416dd6e3b175f46cfa381a3301d755e4823041938dc6",
      "transactionIndex": "0x1",
      "blockHash": "0x4c3ab19ae560a458b3865ba0812834c31f24420af55504e2456261486d29e0d7",
      "blockNumber": "0x124d556",
      "gasUsed": "0x7a27",
      "effectiveGasPrice": "0x5d21dba01",
      "from": "0x2738f38fde510743e0c589415e0598c4cee6eaa7",
      "to": "0x85f5181abdbf0e1814fc4358582ae07b8eba3af3",
      "contractAddress": null,
      "l1BaseFeeScalar": "0x0",
      "l1BlobBaseFee": "0x1",
      "l1BlobBaseFeeScalar": "0x0",
      "l1Fee": "0x0",
      "l1GasPrice": "0xb",
      "l1GasUsed": "0x640"
    },
    {
      "status": "0x1",
      "cumulativeGasUsed": "0x12e37",
      "logs": [
        {
          "address": "0x85f5181abdbf0e1814fc4358582ae07b8eba3af3",
          "topics": [
            "0xf0e5abe4ab32ea692e3889b4c146fd4ddae5f17bb40ab4feba97fb67a2d4de0f",
            "0x000000000000000000000000b9ae2065142eb79b6c5eb1e8778f883fad6b07ba"
          ],
          "data": "0x0000000000000000000000000000000000000000000000000000000000000000",
          "blockHash": "0xd8cd906d9aea9e868cdf96f41fe04312ba785302d7b02cf013cc818367f14d81",
          "blockNumber": "0x124d55b",
          "transactionHash": "0x55127a7f6121ec12903a9934d7c4f65269d0d5ed6193bad4dc6ec6c89829f957",
          "transactionIndex": "0x1",
          "logIndex": "0x0",
          "removed": false
        }
      ],
      "logsBloom": "0x00020000000000000000000000000000000000000000000000000000000000000000000000000008000000000000000000000000040000000000000000000000100000800000000000000000000000000000000020000000000000000000000000000000000000000000000000000000000000000000000000000000000000000000010000000000800000000000000000000000000000000000000000000000000000000000000000000000000000000000000000000000000000000010000000000000000000000000000000000000000000000000000000000000000000000000000000000000000000000000000000000000000000000000000000000000",
      "type": "0x2",
      "transactionHash": "0x55127a7f6121ec12903a9934d7c4f65269d0d5ed6193bad4dc6ec6c89829f957",
      "transactionIndex": "0x1",
      "blockHash": "0xd8cd906d9aea9e868cdf96f41fe04312ba785302d7b02cf013cc818367f14d81",
      "blockNumber": "0x124d55b",
      "gasUsed": "0x7a4b",
      "effectiveGasPrice": "0x5d21dba01",
      "from": "0x2738f38fde510743e0c589415e0598c4cee6eaa7",
      "to": "0x85f5181abdbf0e1814fc4358582ae07b8eba3af3",
      "contractAddress": null,
      "l1BaseFeeScalar": "0x0",
      "l1BlobBaseFee": "0x1",
      "l1BlobBaseFeeScalar": "0x0",
      "l1Fee": "0x0",
      "l1GasPrice": "0xb",
      "l1GasUsed": "0x640"
    },
    {
      "status": "0x1",
      "cumulativeGasUsed": "0x12cc92",
      "logs": [
        {
          "address": "0x85f5181abdbf0e1814fc4358582ae07b8eba3af3",
          "topics": [
            "0xb21afb9ce9be0a676f8f317ff0ca072fb89a4f8ce2d1b6fe80f8755c14f1cb19",
            "0x0000000000000000000000007fcd2f75ed661e76f969e6d0347a93028a099d6d"
          ],
          "data": "0x0000000000000000000000000000000000000000000000000000000000000001",
          "blockHash": "0x1b4f2cb49321c1fc80f6b3ae13787a26cc2364fc343355d13c4b382bec799203",
          "blockNumber": "0x124d561",
          "transactionHash": "0x20687a02e24d39b0e3a3809adf8aa2ea84b2518692991c3d46a40ae44346634c",
          "transactionIndex": "0x7",
          "logIndex": "0x6",
          "removed": false
        }
      ],
      "logsBloom": "0x00000000000000000000000000000000000000000000000000000000000000000000000000000000000000000000000000000000000000040000000000000080000000800000000000000000000000000000000000000000000000000000000000000000000000000000000000000000000000000000000000000000000000000000010000000000800000000001000000000000000000000000200000000000000000000000000000000000000000000000000000000000000000000000000080000000000000000000000000000000000000000000000000000000000000000000000000000000000000000000000000000000000000000000000100000000",
      "type": "0x2",
      "transactionHash": "0x20687a02e24d39b0e3a3809adf8aa2ea84b2518692991c3d46a40ae44346634c",
      "transactionIndex": "0x7",
      "blockHash": "0x1b4f2cb49321c1fc80f6b3ae13787a26cc2364fc343355d13c4b382bec799203",
      "blockNumber": "0x124d561",
      "gasUsed": "0xcfbf",
      "effectiveGasPrice": "0x5d21dba01",
      "from": "0x2738f38fde510743e0c589415e0598c4cee6eaa7",
      "to": "0x85f5181abdbf0e1814fc4358582ae07b8eba3af3",
      "contractAddress": null,
      "l1BaseFeeScalar": "0x0",
      "l1BlobBaseFee": "0x1",
      "l1BlobBaseFeeScalar": "0x0",
      "l1Fee": "0x0",
      "l1GasPrice": "0xb",
      "l1GasUsed": "0x640"
    },
    {
      "status": "0x1",
      "cumulativeGasUsed": "0x183ab",
      "logs": [
        {
          "address": "0x85f5181abdbf0e1814fc4358582ae07b8eba3af3",
          "topics": [
            "0xb21afb9ce9be0a676f8f317ff0ca072fb89a4f8ce2d1b6fe80f8755c14f1cb19",
            "0x00000000000000000000000050651599c8a778732c34d1c181eeb05ff2ef9d73"
          ],
          "data": "0x0000000000000000000000000000000000000000000000000000000000000001",
          "blockHash": "0x16605a328b44739fe14e2a02bfee247b7648cc09d3964e8d9ac6536cf945203d",
          "blockNumber": "0x124d567",
          "transactionHash": "0xbafc2f163a83300bc3b7b4bda1b9437babb8e5d440c7bfa4862092185b896510",
          "transactionIndex": "0x1",
          "logIndex": "0x0",
          "removed": false
        }
      ],
      "logsBloom": "0x00000000000000000000000000000000000002000000000000000000000000000000000000000000000000000000000000000000000000040000000004000080000000800000000000000000000000000000000000000000000000000000000000000000000000000000000000000000000000000000000000000000000000000000010000000000800000000000000000000000000000000000200000000000000000000000000000000000000000000000000000000000000000000000000001000000000000000000000000000000000000000000000000000000000000000000000000000000000000000000000000000000000000000000000000000000",
      "type": "0x2",
      "transactionHash": "0xbafc2f163a83300bc3b7b4bda1b9437babb8e5d440c7bfa4862092185b896510",
      "transactionIndex": "0x1",
      "blockHash": "0x16605a328b44739fe14e2a02bfee247b7648cc09d3964e8d9ac6536cf945203d",
      "blockNumber": "0x124d567",
      "gasUsed": "0xcfbf",
      "effectiveGasPrice": "0x5d21dba01",
      "from": "0x2738f38fde510743e0c589415e0598c4cee6eaa7",
      "to": "0x85f5181abdbf0e1814fc4358582ae07b8eba3af3",
      "contractAddress": null,
      "l1BaseFeeScalar": "0x0",
      "l1BlobBaseFee": "0x1",
      "l1BlobBaseFeeScalar": "0x0",
      "l1Fee": "0x0",
      "l1GasPrice": "0xb",
      "l1GasUsed": "0x640"
    },
    {
      "status": "0x1",
      "cumulativeGasUsed": "0x183cf",
      "logs": [
        {
          "address": "0x85f5181abdbf0e1814fc4358582ae07b8eba3af3",
          "topics": [
            "0xf0e5abe4ab32ea692e3889b4c146fd4ddae5f17bb40ab4feba97fb67a2d4de0f",
            "0x000000000000000000000000c674b6562eaf4e40056aad628e398f58ca0b2b91"
          ],
          "data": "0x0000000000000000000000000000000000000000000000000000000000000001",
          "blockHash": "0x1f2a63bb6de7ca86c8887ca960ff218762932a0765577f0323d63d9a8d3b81ef",
          "blockNumber": "0x124d56d",
          "transactionHash": "0xdc5aa8c9b9eb6d4b3648136376cd597f12754c36deb98c38f23ef4dc1f6a16c8",
          "transactionIndex": "0x1",
          "logIndex": "0x0",
          "removed": false
        }
      ],
      "logsBloom": "0x00000000000000000000000800000000000000000040000000000000000000000000000000000000000000000000000000000000040000000000000000000000100000800000000000000000000000000000000020000000000000000000000000000000000000000000000000000000000000000000000000000000000000000000010000000000800000000000000000000000000000000000000000000000000000000000000000000000002000000000000000000000000000000000000000000000000000000000000000000000000000000000000000000000000000000000000000000000000000000000000000000000000000000000000000000000",
      "type": "0x2",
      "transactionHash": "0xdc5aa8c9b9eb6d4b3648136376cd597f12754c36deb98c38f23ef4dc1f6a16c8",
      "transactionIndex": "0x1",
      "blockHash": "0x1f2a63bb6de7ca86c8887ca960ff218762932a0765577f0323d63d9a8d3b81ef",
      "blockNumber": "0x124d56d",
      "gasUsed": "0xcfe3",
      "effectiveGasPrice": "0x5d21dba01",
      "from": "0x2738f38fde510743e0c589415e0598c4cee6eaa7",
      "to": "0x85f5181abdbf0e1814fc4358582ae07b8eba3af3",
      "contractAddress": null,
      "l1BaseFeeScalar": "0x0",
      "l1BlobBaseFee": "0x1",
      "l1BlobBaseFeeScalar": "0x0",
      "l1Fee": "0x0",
      "l1GasPrice": "0xb",
      "l1GasUsed": "0x640"
    },
    {
      "status": "0x1",
      "cumulativeGasUsed": "0x233d2",
      "logs": [
        {
          "address": "0x85f5181abdbf0e1814fc4358582ae07b8eba3af3",
          "topics": [
            "0xf0e5abe4ab32ea692e3889b4c146fd4ddae5f17bb40ab4feba97fb67a2d4de0f",
            "0x0000000000000000000000007fcd2f75ed661e76f969e6d0347a93028a099d6d"
          ],
          "data": "0x0000000000000000000000000000000000000000000000000000000000000001",
          "blockHash": "0xb32410ffe11249f356e38713a6ddf0939271c22a0a6b7549844d21e1581bf3cc",
          "blockNumber": "0x124d573",
          "transactionHash": "0xe7c2a21bed64c05e5f5526512593a71e10d39dc90a5d3e695ba12c14c5af7168",
          "transactionIndex": "0x2",
          "logIndex": "0x1",
          "removed": false
        }
      ],
      "logsBloom": "0x00000000000000000000000000000000000000000000000000000000000000000000000000000000000000000000000000000000040000000000000000000000100000800000000000000000000000000000000020000000000000000000000000000000000000000000000000000000000000000000000000000000000000000000010000000000800000000001000000000000000000000000000000000000000000000000000000000000000000000000000000000000000000000000000080000000000000000000000000000000000000000000000000000000000000000000000000000000000000000000000000000000000000000000000100000000",
      "type": "0x2",
      "transactionHash": "0xe7c2a21bed64c05e5f5526512593a71e10d39dc90a5d3e695ba12c14c5af7168",
      "transactionIndex": "0x2",
      "blockHash": "0xb32410ffe11249f356e38713a6ddf0939271c22a0a6b7549844d21e1581bf3cc",
      "blockNumber": "0x124d573",
      "gasUsed": "0xcfe3",
      "effectiveGasPrice": "0x5d21dba01",
      "from": "0x2738f38fde510743e0c589415e0598c4cee6eaa7",
      "to": "0x85f5181abdbf0e1814fc4358582ae07b8eba3af3",
      "contractAddress": null,
      "l1BaseFeeScalar": "0x0",
      "l1BlobBaseFee": "0x1",
      "l1BlobBaseFeeScalar": "0x0",
      "l1Fee": "0x0",
      "l1GasPrice": "0xb",
      "l1GasUsed": "0x640"
    },
    {
      "status": "0x1",
      "cumulativeGasUsed": "0x183cf",
      "logs": [
        {
          "address": "0x85f5181abdbf0e1814fc4358582ae07b8eba3af3",
          "topics": [
            "0xf0e5abe4ab32ea692e3889b4c146fd4ddae5f17bb40ab4feba97fb67a2d4de0f",
            "0x0000000000000000000000003adff16949513480e051f451748ee8b801731c46"
          ],
          "data": "0x0000000000000000000000000000000000000000000000000000000000000001",
          "blockHash": "0x0eca1c631fefb590c1f243e3e99ade4672b75e3e08b92bf7afc96b859196cc1a",
          "blockNumber": "0x124d579",
          "transactionHash": "0xbbff5fc12d532f06fba608953fecf9ffce866cdfe9f37abbb36d1ea30319bf45",
          "transactionIndex": "0x1",
          "logIndex": "0x0",
          "removed": false
        }
      ],
      "logsBloom": "0x00000000000000000000000000000000000000000000000000000000000000000000000000000000000000000001000000004000040000000000000000000000100000800000000000000000000000000000000020000000000000000000000000000000000000000000000000000000000000000000000000000000000000000000010000000000800000000000000000000000000000000000000000000000000000000000000000000000000000000000000000000000000000000000000000000000000000000000000000000000000000000000000000000000000000000000000000000000000000000000000000000000000200000000000000000000",
      "type": "0x2",
      "transactionHash": "0xbbff5fc12d532f06fba608953fecf9ffce866cdfe9f37abbb36d1ea30319bf45",
      "transactionIndex": "0x1",
      "blockHash": "0x0eca1c631fefb590c1f243e3e99ade4672b75e3e08b92bf7afc96b859196cc1a",
      "blockNumber": "0x124d579",
      "gasUsed": "0xcfe3",
      "effectiveGasPrice": "0x5d21dba01",
      "from": "0x2738f38fde510743e0c589415e0598c4cee6eaa7",
      "to": "0x85f5181abdbf0e1814fc4358582ae07b8eba3af3",
      "contractAddress": null,
      "l1BaseFeeScalar": "0x0",
      "l1BlobBaseFee": "0x1",
      "l1BlobBaseFeeScalar": "0x0",
      "l1Fee": "0x0",
      "l1GasPrice": "0xb",
      "l1GasUsed": "0x640"
    },
    {
      "status": "0x1",
      "cumulativeGasUsed": "0x183cf",
      "logs": [
        {
          "address": "0x85f5181abdbf0e1814fc4358582ae07b8eba3af3",
          "topics": [
            "0xf0e5abe4ab32ea692e3889b4c146fd4ddae5f17bb40ab4feba97fb67a2d4de0f",
            "0x00000000000000000000000031f4fe29b8104969209c0474a40fca79170ee53e"
          ],
          "data": "0x0000000000000000000000000000000000000000000000000000000000000001",
          "blockHash": "0xecaff472c4734f45bd407359f44dbd2b8811fbabe4c49fb3c2da26f119d80066",
          "blockNumber": "0x124d57f",
          "transactionHash": "0x9c90628678108d62f0468fda4eb27bb466b9ef60c6a32867b8ff9eac1ecde483",
          "transactionIndex": "0x1",
          "logIndex": "0x0",
          "removed": false
        }
      ],
      "logsBloom": "0x00000000000000000000000000000000000000000000000000000000000000000000000000000000000000000000000000000000040000000000000000000000100000800000000000000000000000000004000020000000000000000000000000000000000000000000000000000000000000000000000000000000000000000000010000000000800000000000000000000000000000400000000000000000000000000000000000000000000000000000000000000000000000000008000000000000000000000000000000000000000000000000000000000000000000000000000000000000000000000000000000000000000000000000000000000000",
      "type": "0x2",
      "transactionHash": "0x9c90628678108d62f0468fda4eb27bb466b9ef60c6a32867b8ff9eac1ecde483",
      "transactionIndex": "0x1",
      "blockHash": "0xecaff472c4734f45bd407359f44dbd2b8811fbabe4c49fb3c2da26f119d80066",
      "blockNumber": "0x124d57f",
      "gasUsed": "0xcfe3",
      "effectiveGasPrice": "0x5d21dba01",
      "from": "0x2738f38fde510743e0c589415e0598c4cee6eaa7",
      "to": "0x85f5181abdbf0e1814fc4358582ae07b8eba3af3",
      "contractAddress": null,
      "l1BaseFeeScalar": "0x0",
      "l1BlobBaseFee": "0x1",
      "l1BlobBaseFeeScalar": "0x0",
      "l1Fee": "0x0",
      "l1GasPrice": "0xb",
      "l1GasUsed": "0x640"
    },
    {
      "status": "0x1",
      "cumulativeGasUsed": "0x183c2",
      "logs": [
        {
          "address": "0x85f5181abdbf0e1814fc4358582ae07b8eba3af3",
          "topics": [
            "0x966c160e1c4dbc7df8d69af4ace01e9297c3cf016397b7914971f2fbfa32672d",
            "0x00000000000000000000000031f4fe29b8104969209c0474a40fca79170ee53e"
          ],
          "data": "0x0000000000000000000000000000000000000000000000000000000000000001",
          "blockHash": "0x30be107b5b11a531c2b81541148b4324a9f5ab52521a603805b64c6420cfd3e8",
          "blockNumber": "0x124d585",
          "transactionHash": "0x17e40322c334500712ba9f4174ab95e83a8f316c13f9f007d7da42f35e1f63a0",
          "transactionIndex": "0x1",
          "logIndex": "0x0",
          "removed": false
        }
      ],
      "logsBloom": "0x00000000000000000000100000000000000000000000000000000000000000000000000000000000000000000000000000000000000000000000000000000000000000800000000000000000000000000004000000000000000000000000000000000000000000000000000000000000020000000000000000000000000000000000010000000000800000000000000000000000000000400000000000000000000000000000000000000000000000000000000000000000000000000008000000000000000000000000000000000000000000000000000000000000000000000000000000000000000000100000000000000000000000000000000000000000",
      "type": "0x2",
      "transactionHash": "0x17e40322c334500712ba9f4174ab95e83a8f316c13f9f007d7da42f35e1f63a0",
      "transactionIndex": "0x1",
      "blockHash": "0x30be107b5b11a531c2b81541148b4324a9f5ab52521a603805b64c6420cfd3e8",
      "blockNumber": "0x124d585",
      "gasUsed": "0xcfd6",
      "effectiveGasPrice": "0x5d21dba01",
      "from": "0x2738f38fde510743e0c589415e0598c4cee6eaa7",
      "to": "0x85f5181abdbf0e1814fc4358582ae07b8eba3af3",
      "contractAddress": null,
      "l1BaseFeeScalar": "0x0",
      "l1BlobBaseFee": "0x1",
      "l1BlobBaseFeeScalar": "0x0",
      "l1Fee": "0x0",
      "l1GasPrice": "0xb",
      "l1GasUsed": "0x640"
    },
    {
      "status": "0x1",
      "cumulativeGasUsed": "0x18b39",
      "logs": [
        {
          "address": "0x550d9ecb4c373510b8a41f5fb7d98e9e1c51a07e",
          "topics": [
            "0x133037347700fe9a7e5fffb139c832853fc52536035550fc6bc3b3f6207fd875",
            "0x000000000000000000000000065ae7d4e207c8f4dca112d0b79e668cc7e93e03"
          ],
          "data": "0x0000000000000000000000000000000000000000000000000000000000000001",
          "blockHash": "0x9cb5309261981bbfbd589796fd17db4eb9b86dcebe8e7709c8ac037d6650a2ff",
          "blockNumber": "0x124d58b",
          "transactionHash": "0x584db9308660a6d3041d8ddd28b7d294611759fb1a8c65d4968a4c2957f7505f",
          "transactionIndex": "0x1",
          "logIndex": "0x0",
          "removed": false
        }
      ],
      "logsBloom": "0x00000000000000000000000010000000000000000000000000000000000000000000000000000000000000000000000000040000000008000000000000000000000000000000000000000000000000000000000000000000000000000000000000000000000000004000000000000000000000000000000000000000000000000000000000000000000000000000000000000000000000000000000000000000000000000000000000000000000000000000000000000080000000000000000000000000000000000000000000000000000000000000002000000000000000800001000000000000000000000000000000000000000000000000000000000004",
      "type": "0x2",
      "transactionHash": "0x584db9308660a6d3041d8ddd28b7d294611759fb1a8c65d4968a4c2957f7505f",
      "transactionIndex": "0x1",
      "blockHash": "0x9cb5309261981bbfbd589796fd17db4eb9b86dcebe8e7709c8ac037d6650a2ff",
      "blockNumber": "0x124d58b",
      "gasUsed": "0xd74d",
      "effectiveGasPrice": "0x5d21dba01",
      "from": "0x2738f38fde510743e0c589415e0598c4cee6eaa7",
      "to": "0x550d9ecb4c373510b8a41f5fb7d98e9e1c51a07e",
      "contractAddress": null,
      "l1BaseFeeScalar": "0x0",
      "l1BlobBaseFee": "0x1",
      "l1BlobBaseFeeScalar": "0x0",
      "l1Fee": "0x0",
      "l1GasPrice": "0xb",
      "l1GasUsed": "0x640"
    },
    {
      "status": "0x1",
      "cumulativeGasUsed": "0x3e73d",
      "logs": [
        {
          "address": "0x065ae7d4e207c8f4dca112d0b79e668cc7e93e03",
          "topics": [
            "0x5865b763d2fcaa2023d34f5622fec93cfc34b82e8625c1e622b9a6cb47a69239",
            "0x000000000000000000000000550d9ecb4c373510b8a41f5fb7d98e9e1c51a07e"
          ],
          "data": "0x000000000000000000000000550d9ecb4c373510b8a41f5fb7d98e9e1c51a07e00000000000000000000000085f5181abdbf0e1814fc4358582ae07b8eba3af3000000000000000000000000000000000000000000000000000000000000012c0000000000000000000000002738f38fde510743e0c589415e0598c4cee6eaa70000000000000000000000000000000000000000000000000001c6bf5263400000000000000000000000000000000000000000000000000000000000000000000000000000000000000000000000000000000000000000000001c6bf526340000000000000000000000000000000000000000000000000000000000000000000",
          "blockHash": "0x68fc59983ab797811d6bd42e03d27545ea2a9acec43d8b2720cc7b25d077657c",
          "blockNumber": "0x124d591",
          "transactionHash": "0xff29385cc515561232b1087a1811b658c8ccfaa9ca5e6b9bbe49bfd083415dba",
          "transactionIndex": "0x1",
          "logIndex": "0x0",
          "removed": false
        }
      ],
      "logsBloom": "0x00000000000001000000000000000000000400000000000000000000000000000000000000000000000000000000000000800000000000000000000000000000000000000000000000000000000000000000000000000000000080000000000000000000000000000000000000000004000000000100000000000000000000000000000000010000000000000000000000000000000000000000000000000000000000000000000000000000000000000000000000000000000000000000000000000000000000000000000000000000000000000000002000000000000000000000000000000000000000000000000000000000000000000000000000080000",
      "type": "0x2",
      "transactionHash": "0xff29385cc515561232b1087a1811b658c8ccfaa9ca5e6b9bbe49bfd083415dba",
      "transactionIndex": "0x1",
      "blockHash": "0x68fc59983ab797811d6bd42e03d27545ea2a9acec43d8b2720cc7b25d077657c",
      "blockNumber": "0x124d591",
      "gasUsed": "0x33351",
      "effectiveGasPrice": "0x5d21dba01",
      "from": "0x2738f38fde510743e0c589415e0598c4cee6eaa7",
      "to": "0x065ae7d4e207c8f4dca112d0b79e668cc7e93e03",
      "contractAddress": null,
      "l1BaseFeeScalar": "0x0",
      "l1BlobBaseFee": "0x1",
      "l1BlobBaseFeeScalar": "0x0",
      "l1Fee": "0x0",
      "l1GasPrice": "0xb",
      "l1GasUsed": "0xc72"
    },
    {
      "status": "0x1",
      "cumulativeGasUsed": "0x14ef6c",
      "logs": [
        {
          "address": "0xba5ed099633d3b313e4d5f7bdc1305d3c28ba5ed",
          "topics": [
            "0x2feea65dd4e9f9cbd86b74b7734210c59a1b2981b5b137bd0ee3e208200c9067",
            "0x00000000000000000000000005287363b3c3257f7dee0779dd3d1f53417a929f",
            "0x49a04b7b347aa242701d177b70b3ed7e680d5a43abe9228a99faef81a393ab8d"
          ],
          "data": "0x",
          "blockHash": "0xe55ae4051575a20a7d2cc3d6b5f96ff7f54eb3c63ccd6feb03c38af608551836",
          "blockNumber": "0x124d598",
          "transactionHash": "0x56d6ca9fabbd2d0c97fd044bba30e2f25ba8934719eb0c3052c2afb6426f5387",
          "transactionIndex": "0x1",
          "logIndex": "0x0",
          "removed": false
        },
        {
          "address": "0xf179d705706cd959884e40b1ea21c95ec84d9e14",
          "topics": [
            "0x8be0079c531659141344cd1fd0a4f28419497f9722a3daafe3b4186f6b6457e0",
            "0x0000000000000000000000000000000000000000000000000000000000000000",
            "0x00000000000000000000000005287363b3c3257f7dee0779dd3d1f53417a929f"
          ],
          "data": "0x",
          "blockHash": "0xe55ae4051575a20a7d2cc3d6b5f96ff7f54eb3c63ccd6feb03c38af608551836",
          "blockNumber": "0x124d598",
          "transactionHash": "0x56d6ca9fabbd2d0c97fd044bba30e2f25ba8934719eb0c3052c2afb6426f5387",
          "transactionIndex": "0x1",
          "logIndex": "0x1",
          "removed": false
        },
        {
          "address": "0xf179d705706cd959884e40b1ea21c95ec84d9e14",
          "topics": [
            "0x8be0079c531659141344cd1fd0a4f28419497f9722a3daafe3b4186f6b6457e0",
            "0x00000000000000000000000005287363b3c3257f7dee0779dd3d1f53417a929f",
            "0x0000000000000000000000002738f38fde510743e0c589415e0598c4cee6eaa7"
          ],
          "data": "0x",
          "blockHash": "0xe55ae4051575a20a7d2cc3d6b5f96ff7f54eb3c63ccd6feb03c38af608551836",
          "blockNumber": "0x124d598",
          "transactionHash": "0x56d6ca9fabbd2d0c97fd044bba30e2f25ba8934719eb0c3052c2afb6426f5387",
          "transactionIndex": "0x1",
          "logIndex": "0x2",
          "removed": false
        },
        {
          "address": "0xba5ed099633d3b313e4d5f7bdc1305d3c28ba5ed",
          "topics": [
            "0x4db17dd5e4732fb6da34a148104a592783ca119a1e7bb8829eba6cbadef0b511",
            "0x000000000000000000000000f179d705706cd959884e40b1ea21c95ec84d9e14"
          ],
          "data": "0x",
          "blockHash": "0xe55ae4051575a20a7d2cc3d6b5f96ff7f54eb3c63ccd6feb03c38af608551836",
          "blockNumber": "0x124d598",
          "transactionHash": "0x56d6ca9fabbd2d0c97fd044bba30e2f25ba8934719eb0c3052c2afb6426f5387",
          "transactionIndex": "0x1",
          "logIndex": "0x3",
          "removed": false
        }
      ],
      "logsBloom": "0x00021000000004000000000000000000000008000000000000800000200000000000000010040000000000000000000000000000000004000000000000000010002000000000000000000000020000000001000000000000000000000000000000000000020000000000000000000800000000000020000000000000000000400000000000000000000000000000000000000000000000000000004000400010000000000000002000000000000000000000000000000000000000000000420000000800000000000200000000000000000000002000000000000000000020000000000004000200000000000000000000000000000000000000000000002000",
      "type": "0x2",
      "transactionHash": "0x56d6ca9fabbd2d0c97fd044bba30e2f25ba8934719eb0c3052c2afb6426f5387",
      "transactionIndex": "0x1",
      "blockHash": "0xe55ae4051575a20a7d2cc3d6b5f96ff7f54eb3c63ccd6feb03c38af608551836",
      "blockNumber": "0x124d598",
      "gasUsed": "0x143b80",
      "effectiveGasPrice": "0x5d21dba01",
      "from": "0x2738f38fde510743e0c589415e0598c4cee6eaa7",
      "to": "0xba5ed099633d3b313e4d5f7bdc1305d3c28ba5ed",
      "contractAddress": null,
      "l1BaseFeeScalar": "0x0",
      "l1BlobBaseFee": "0x1",
      "l1BlobBaseFeeScalar": "0x0",
      "l1Fee": "0x0",
      "l1GasPrice": "0xb",
      "l1GasUsed": "0xa031"
    },
    {
      "status": "0x1",
      "cumulativeGasUsed": "0xf7850",
      "logs": [
        {
          "address": "0x78ee16e1b0e6103b4a00db42178a99a6d681d539",
          "topics": [
            "0x7e0a6614158456b5ff78485738c59d16f2be04a2d3943e66ea440c438a53cbff",
            "0x000000000000000000000000ae5eee6815b8529847955d19522858806bca8217",
            "0x000000000000000000000000ae5eee6815b8529847955d19522858806bca8217"
          ],
          "data": "0x",
          "blockHash": "0xd21d1e52911eec6428287c5a97907a59d7cfaa87ce41db8a7c07bdd24e2f2393",
          "blockNumber": "0x124d59d",
          "transactionHash": "0x71a8e256c5990a8bc5ff29df7f544ad9d63441481eb5118ee80df6aa54c75d9c",
          "transactionIndex": "0x6",
          "logIndex": "0x5",
          "removed": false
        }
      ],
      "logsBloom": "0x00000000000000000000000000000000000000000000000000000000000000000000000000000000000000000000000000000000000000000000080000000000000000000000008000000000000000000400000000000000000000000000000000000000000000000000000020000000000000000000000000000000000000000000000000000000000000000000000000000000000000000000000000000000000000000000000000000000000000000000000000000000000800000800000000000000000000000000000000000000000000000000000000000000000000000000000000100000000000000000400000080000000000000000000000000000",
      "type": "0x2",
      "transactionHash": "0x71a8e256c5990a8bc5ff29df7f544ad9d63441481eb5118ee80df6aa54c75d9c",
      "transactionIndex": "0x6",
      "blockHash": "0xd21d1e52911eec6428287c5a97907a59d7cfaa87ce41db8a7c07bdd24e2f2393",
      "blockNumber": "0x124d59d",
      "gasUsed": "0x7ffc",
      "effectiveGasPrice": "0x5d21dba01",
      "from": "0x2738f38fde510743e0c589415e0598c4cee6eaa7",
      "to": "0x78ee16e1b0e6103b4a00db42178a99a6d681d539",
      "contractAddress": null,
      "l1BaseFeeScalar": "0x0",
      "l1BlobBaseFee": "0x1",
      "l1BlobBaseFeeScalar": "0x0",
      "l1Fee": "0x0",
      "l1GasPrice": "0xa",
      "l1GasUsed": "0x640"
    },
    {
      "status": "0x1",
      "cumulativeGasUsed": "0x49c53",
      "logs": [
        {
          "address": "0xde9e4c3ce781b4ba68120d6261cbad65ce0ab00b",
          "topics": [
            "0xb21afb9ce9be0a676f8f317ff0ca072fb89a4f8ce2d1b6fe80f8755c14f1cb19",
            "0x000000000000000000000000f179d705706cd959884e40b1ea21c95ec84d9e14"
          ],
          "data": "0x0000000000000000000000000000000000000000000000000000000000000001",
          "blockHash": "0x8c5db88c904c2b232127c4e946977c02152c2d8b1f4923788f0ef410a8a199ab",
          "blockNumber": "0x124d5a3",
          "transactionHash": "0x51701ed3cb2f0eda2f531fe35a5930c3f79a917db7f45794c53bffef2a129996",
          "transactionIndex": "0x2",
          "logIndex": "0x1",
          "removed": false
        }
      ],
      "logsBloom": "0x00000000000000000000000000000000000000000000000000000000000000000000000000000000000000000000000000000040000000040000000000000080000000000000000000000000000000000000000000000008000000000000000000000000000000000000000000000000000000000000000000000000000000000000000000000000000000000000000000000000000000000000200000000000000000000000002000000000000000000000000000000000000000000000400000000000000000000000000000000000000000000000000000000000800000000000000004000000000000000000000000000000000000000000000000000000",
      "type": "0x2",
      "transactionHash": "0x51701ed3cb2f0eda2f531fe35a5930c3f79a917db7f45794c53bffef2a129996",
      "transactionIndex": "0x2",
      "blockHash": "0x8c5db88c904c2b232127c4e946977c02152c2d8b1f4923788f0ef410a8a199ab",
      "blockNumber": "0x124d5a3",
      "gasUsed": "0xcfbf",
      "effectiveGasPrice": "0x5d21dba01",
      "from": "0x2738f38fde510743e0c589415e0598c4cee6eaa7",
      "to": "0xde9e4c3ce781b4ba68120d6261cbad65ce0ab00b",
      "contractAddress": null,
      "l1BaseFeeScalar": "0x0",
      "l1BlobBaseFee": "0x1",
      "l1BlobBaseFeeScalar": "0x0",
      "l1Fee": "0x0",
      "l1GasPrice": "0xa",
      "l1GasUsed": "0x640"
    },
    {
      "status": "0x1",
      "cumulativeGasUsed": "0x18e9b",
      "logs": [
        {
          "address": "0x85f5181abdbf0e1814fc4358582ae07b8eba3af3",
          "topics": [
            "0xf0e5abe4ab32ea692e3889b4c146fd4ddae5f17bb40ab4feba97fb67a2d4de0f",
            "0x000000000000000000000000f179d705706cd959884e40b1ea21c95ec84d9e14"
          ],
          "data": "0x0000000000000000000000000000000000000000000000000000000000000001",
          "blockHash": "0x09759f09f505c5a52ea7030ac6a0deb9b2e4f028a0bf480ff0953ae2e946b087",
          "blockNumber": "0x124d5a8",
          "transactionHash": "0x9e8485eaf5d9611647922917f3484686ace1712fe0d37be769c2e53fa8d2daac",
          "transactionIndex": "0x1",
          "logIndex": "0x0",
          "removed": false
        }
      ],
      "logsBloom": "0x00000000000000000000000000000000000000000000000000000000000000000000000000000000000000000000000000000000040000000000000000000000100000800000000000000000000000000000000020000000000000000000000000000000000000000000000000000000000000000000000000000000000000000000010000000000800000000000000000000000000000000000000000000000000000000000002000000000000000000000000000000000000000000000400000000000000000000000000000000000000000000000000000000000000000000000000004000000000000000000000000000000000000000000000000000000",
      "type": "0x2",
      "transactionHash": "0x9e8485eaf5d9611647922917f3484686ace1712fe0d37be769c2e53fa8d2daac",
      "transactionIndex": "0x1",
      "blockHash": "0x09759f09f505c5a52ea7030ac6a0deb9b2e4f028a0bf480ff0953ae2e946b087",
      "blockNumber": "0x124d5a8",
      "gasUsed": "0xcfe3",
      "effectiveGasPrice": "0x5d21dba01",
      "from": "0x2738f38fde510743e0c589415e0598c4cee6eaa7",
      "to": "0x85f5181abdbf0e1814fc4358582ae07b8eba3af3",
      "contractAddress": null,
      "l1BaseFeeScalar": "0x0",
      "l1BlobBaseFee": "0x1",
      "l1BlobBaseFeeScalar": "0x0",
      "l1Fee": "0x0",
      "l1GasPrice": "0xa",
      "l1GasUsed": "0x640"
    },
    {
      "status": "0x1",
      "cumulativeGasUsed": "0x15832",
      "logs": [
        {
          "address": "0x471ece3750da237f93b8e339c536989b8978a438",
          "topics": [
            "0xddf252ad1be2c89b69c2b068fc378daa952ba7f163c4a11628f55a4df523b3ef",
            "0x0000000000000000000000002738f38fde510743e0c589415e0598c4cee6eaa7",
            "0x000000000000000000000000f179d705706cd959884e40b1ea21c95ec84d9e14"
          ],
          "data": "0x0000000000000000000000000000000000000000000000000de0b6b3a7640000",
          "blockHash": "0xcc05bca681252cb809c99d5825a4074ec986aee89120a6fbac35d2af6bd60f17",
          "blockNumber": "0x124d5ad",
          "transactionHash": "0xd4ba95938af19e422adb7b31c1fa61ec3b67e0a288df59f66f1753d8d8f8a7a6",
          "transactionIndex": "0x1",
          "logIndex": "0x0",
          "removed": false
        }
      ],
      "logsBloom": "0x00000000000000000000000000000000000000000000000000000000000000000000000000000000000100000000000000000000000000000000000000000000002000000000000000000008000000000000000000000000000000000000000000000000000000000000000040000000000000000000000000000010000000000000000000000000000000000000000000000000000000000000000000000010000000000000002000000000000000000000000000000000000000000000400000000802000000000000000000000000000000000000000000000000000000000000000004000000000000000000000000000000000000000000000004000000",
      "type": "0x2",
      "transactionHash": "0xd4ba95938af19e422adb7b31c1fa61ec3b67e0a288df59f66f1753d8d8f8a7a6",
      "transactionIndex": "0x1",
      "blockHash": "0xcc05bca681252cb809c99d5825a4074ec986aee89120a6fbac35d2af6bd60f17",
      "blockNumber": "0x124d5ad",
      "gasUsed": "0x996e",
      "effectiveGasPrice": "0x5d21dba01",
      "from": "0x2738f38fde510743e0c589415e0598c4cee6eaa7",
      "to": "0x471ece3750da237f93b8e339c536989b8978a438",
      "contractAddress": null,
      "l1BaseFeeScalar": "0x0",
      "l1BlobBaseFee": "0x1",
      "l1BlobBaseFeeScalar": "0x0",
      "l1Fee": "0x0",
      "l1GasPrice": "0xa",
      "l1GasUsed": "0x640"
    },
    {
      "status": "0x1",
      "cumulativeGasUsed": "0xe70df",
      "logs": [
        {
          "address": "0xde9e4c3ce781b4ba68120d6261cbad65ce0ab00b",
          "topics": [
            "0xddf252ad1be2c89b69c2b068fc378daa952ba7f163c4a11628f55a4df523b3ef",
            "0x0000000000000000000000000000000000000000000000000000000000000000",
            "0x000000000000000000000000f179d705706cd959884e40b1ea21c95ec84d9e14"
          ],
          "data": "0x000000000000000000000000000000000000000000001e958e1cebd928c066ac",
          "blockHash": "0x80d936dbdf805c4d593243733dfefc78bc9818e82341b085c59495c11434ff8d",
          "blockNumber": "0x124d5b3",
          "transactionHash": "0xb1ebc491c85230bc0ef23a4b5d5bda9c2b9bcbc3de615fd7ea1d54ea6ee28706",
          "transactionIndex": "0x1",
          "logIndex": "0x0",
          "removed": false
        },
        {
          "address": "0xde9e4c3ce781b4ba68120d6261cbad65ce0ab00b",
          "topics": [
            "0x8c5be1e5ebec7d5bd14f71427d1e84f3dd0314c0f7b2291e5b200ac8c7c3b925",
            "0x000000000000000000000000f179d705706cd959884e40b1ea21c95ec84d9e14",
            "0x0000000000000000000000007fcd2f75ed661e76f969e6d0347a93028a099d6d"
          ],
          "data": "0x000000000000000000000000000000000000000000001e958e1cebd928c066ac",
          "blockHash": "0x80d936dbdf805c4d593243733dfefc78bc9818e82341b085c59495c11434ff8d",
          "blockNumber": "0x124d5b3",
          "transactionHash": "0xb1ebc491c85230bc0ef23a4b5d5bda9c2b9bcbc3de615fd7ea1d54ea6ee28706",
          "transactionIndex": "0x1",
          "logIndex": "0x1",
          "removed": false
        },
        {
          "address": "0x471ece3750da237f93b8e339c536989b8978a438",
          "topics": [
            "0x8c5be1e5ebec7d5bd14f71427d1e84f3dd0314c0f7b2291e5b200ac8c7c3b925",
            "0x000000000000000000000000f179d705706cd959884e40b1ea21c95ec84d9e14",
            "0x0000000000000000000000007fcd2f75ed661e76f969e6d0347a93028a099d6d"
          ],
          "data": "0x0000000000000000000000000000000000000000000000000de0b6b3a7640000",
          "blockHash": "0x80d936dbdf805c4d593243733dfefc78bc9818e82341b085c59495c11434ff8d",
          "blockNumber": "0x124d5b3",
          "transactionHash": "0xb1ebc491c85230bc0ef23a4b5d5bda9c2b9bcbc3de615fd7ea1d54ea6ee28706",
          "transactionIndex": "0x1",
          "logIndex": "0x2",
          "removed": false
        },
        {
          "address": "0x7fcd2f75ed661e76f969e6d0347a93028a099d6d",
          "topics": [
            "0x3942babd464ceb1c7d319f75245a8cd41334592b45507f072e7020e63c22a8dc",
            "0x25cbc463c51b5fc5f7c67821d86c0f89937636973226a37446e54d82e18841e5"
          ],
          "data": "0x0000000000000000000000000000000000000000000000000000000000000000",
          "blockHash": "0x80d936dbdf805c4d593243733dfefc78bc9818e82341b085c59495c11434ff8d",
          "blockNumber": "0x124d5b3",
          "transactionHash": "0xb1ebc491c85230bc0ef23a4b5d5bda9c2b9bcbc3de615fd7ea1d54ea6ee28706",
          "transactionIndex": "0x1",
          "logIndex": "0x3",
          "removed": false
        },
        {
          "address": "0x7fcd2f75ed661e76f969e6d0347a93028a099d6d",
          "topics": [
            "0x649442545e0f313a6d8087b19bc47bd2bd9b63f79d23a773446e00d2ea01d169",
            "0x25cbc463c51b5fc5f7c67821d86c0f89937636973226a37446e54d82e18841e5"
          ],
          "data": "0x00000000000000000000000000000000000000000000000000000000000000000000000000000000000000000000000000000000000000000000000000000000",
          "blockHash": "0x80d936dbdf805c4d593243733dfefc78bc9818e82341b085c59495c11434ff8d",
          "blockNumber": "0x124d5b3",
          "transactionHash": "0xb1ebc491c85230bc0ef23a4b5d5bda9c2b9bcbc3de615fd7ea1d54ea6ee28706",
          "transactionIndex": "0x1",
          "logIndex": "0x4",
          "removed": false
        },
        {
          "address": "0x85f5181abdbf0e1814fc4358582ae07b8eba3af3",
          "topics": [
            "0xddf252ad1be2c89b69c2b068fc378daa952ba7f163c4a11628f55a4df523b3ef",
            "0x0000000000000000000000000000000000000000000000000000000000000000",
            "0x0000000000000000000000002738f38fde510743e0c589415e0598c4cee6eaa7"
          ],
          "data": "0x0000000000000000000000000000000000000000000000007da7c78827e89fac",
          "blockHash": "0x80d936dbdf805c4d593243733dfefc78bc9818e82341b085c59495c11434ff8d",
          "blockNumber": "0x124d5b3",
          "transactionHash": "0xb1ebc491c85230bc0ef23a4b5d5bda9c2b9bcbc3de615fd7ea1d54ea6ee28706",
          "transactionIndex": "0x1",
          "logIndex": "0x5",
          "removed": false
        },
        {
          "address": "0x85f5181abdbf0e1814fc4358582ae07b8eba3af3",
          "topics": [
            "0xddf252ad1be2c89b69c2b068fc378daa952ba7f163c4a11628f55a4df523b3ef",
            "0x0000000000000000000000000000000000000000000000000000000000000000",
            "0x00000000000000000000000031f4fe29b8104969209c0474a40fca79170ee53e"
          ],
          "data": "0x00000000000000000000000000000000000000000000000178f7569877b9df02",
          "blockHash": "0x80d936dbdf805c4d593243733dfefc78bc9818e82341b085c59495c11434ff8d",
          "blockNumber": "0x124d5b3",
          "transactionHash": "0xb1ebc491c85230bc0ef23a4b5d5bda9c2b9bcbc3de615fd7ea1d54ea6ee28706",
          "transactionIndex": "0x1",
          "logIndex": "0x6",
          "removed": false
        },
        {
          "address": "0xde9e4c3ce781b4ba68120d6261cbad65ce0ab00b",
          "topics": [
            "0x8c5be1e5ebec7d5bd14f71427d1e84f3dd0314c0f7b2291e5b200ac8c7c3b925",
            "0x000000000000000000000000f179d705706cd959884e40b1ea21c95ec84d9e14",
            "0x0000000000000000000000007fcd2f75ed661e76f969e6d0347a93028a099d6d"
          ],
          "data": "0x0000000000000000000000000000000000000000000000000000000000000000",
          "blockHash": "0x80d936dbdf805c4d593243733dfefc78bc9818e82341b085c59495c11434ff8d",
          "blockNumber": "0x124d5b3",
          "transactionHash": "0xb1ebc491c85230bc0ef23a4b5d5bda9c2b9bcbc3de615fd7ea1d54ea6ee28706",
          "transactionIndex": "0x1",
          "logIndex": "0x7",
          "removed": false
        },
        {
          "address": "0xde9e4c3ce781b4ba68120d6261cbad65ce0ab00b",
          "topics": [
            "0xddf252ad1be2c89b69c2b068fc378daa952ba7f163c4a11628f55a4df523b3ef",
            "0x000000000000000000000000f179d705706cd959884e40b1ea21c95ec84d9e14",
            "0x00000000000000000000000050651599c8a778732c34d1c181eeb05ff2ef9d73"
          ],
          "data": "0x000000000000000000000000000000000000000000001e958e1cebd928c066ac",
          "blockHash": "0x80d936dbdf805c4d593243733dfefc78bc9818e82341b085c59495c11434ff8d",
          "blockNumber": "0x124d5b3",
          "transactionHash": "0xb1ebc491c85230bc0ef23a4b5d5bda9c2b9bcbc3de615fd7ea1d54ea6ee28706",
          "transactionIndex": "0x1",
          "logIndex": "0x8",
          "removed": false
        },
        {
          "address": "0x50651599c8a778732c34d1c181eeb05ff2ef9d73",
          "topics": [
            "0x9bbe217b4113a0fc957e51f8db99c9989f520e3c6bcca7a8e12c6316eaf995bf"
          ],
          "data": "0x000000000000000000000000000000000000000000001e958e1cebd928c066ac",
          "blockHash": "0x80d936dbdf805c4d593243733dfefc78bc9818e82341b085c59495c11434ff8d",
          "blockNumber": "0x124d5b3",
          "transactionHash": "0xb1ebc491c85230bc0ef23a4b5d5bda9c2b9bcbc3de615fd7ea1d54ea6ee28706",
          "transactionIndex": "0x1",
          "logIndex": "0x9",
          "removed": false
        },
        {
          "address": "0x85f5181abdbf0e1814fc4358582ae07b8eba3af3",
          "topics": [
            "0xddf252ad1be2c89b69c2b068fc378daa952ba7f163c4a11628f55a4df523b3ef",
            "0x0000000000000000000000000000000000000000000000000000000000000000",
            "0x000000000000000000000000f179d705706cd959884e40b1ea21c95ec84d9e14"
          ],
          "data": "0x000000000000000000000000000000000000000000000d548420ede066ad3d21",
          "blockHash": "0x80d936dbdf805c4d593243733dfefc78bc9818e82341b085c59495c11434ff8d",
          "blockNumber": "0x124d5b3",
          "transactionHash": "0xb1ebc491c85230bc0ef23a4b5d5bda9c2b9bcbc3de615fd7ea1d54ea6ee28706",
          "transactionIndex": "0x1",
          "logIndex": "0xa",
          "removed": false
        },
        {
          "address": "0x471ece3750da237f93b8e339c536989b8978a438",
          "topics": [
            "0xddf252ad1be2c89b69c2b068fc378daa952ba7f163c4a11628f55a4df523b3ef",
            "0x000000000000000000000000f179d705706cd959884e40b1ea21c95ec84d9e14",
            "0x000000000000000000000000cf0349baffbeeb9f5c8871338415613610dc321e"
          ],
          "data": "0x0000000000000000000000000000000000000000000000000de0b6b3a7640000",
          "blockHash": "0x80d936dbdf805c4d593243733dfefc78bc9818e82341b085c59495c11434ff8d",
          "blockNumber": "0x124d5b3",
          "transactionHash": "0xb1ebc491c85230bc0ef23a4b5d5bda9c2b9bcbc3de615fd7ea1d54ea6ee28706",
          "transactionIndex": "0x1",
          "logIndex": "0xb",
          "removed": false
        },
        {
          "address": "0x25b721ca74e6d0c2e3b9fd755cd2148a35cf1e84",
          "topics": [
            "0xddf252ad1be2c89b69c2b068fc378daa952ba7f163c4a11628f55a4df523b3ef",
            "0x0000000000000000000000000000000000000000000000000000000000000000",
            "0x0000000000000000000000002738f38fde510743e0c589415e0598c4cee6eaa7",
            "0x25cbc463c51b5fc5f7c67821d86c0f89937636973226a37446e54d82e18841e5"
          ],
          "data": "0x",
          "blockHash": "0x80d936dbdf805c4d593243733dfefc78bc9818e82341b085c59495c11434ff8d",
          "blockNumber": "0x124d5b3",
          "transactionHash": "0xb1ebc491c85230bc0ef23a4b5d5bda9c2b9bcbc3de615fd7ea1d54ea6ee28706",
          "transactionIndex": "0x1",
          "logIndex": "0xc",
          "removed": false
        },
        {
          "address": "0x3adff16949513480e051f451748ee8b801731c46",
          "topics": [
            "0x0fba2673863b12c7b8463f3fa2f9b0cb1d534c573cdec5b5d895ee00d6ce6f5e",
            "0x25cbc463c51b5fc5f7c67821d86c0f89937636973226a37446e54d82e18841e5"
          ],
          "data": "0x000000000000000000000000000000000000000000000d567ac00c01064fbbcf000000000000000000000000000000000000000000001e958e1cebd928c066ac000000000000000000000000000000000000000000001e958e1cebd928c066ac000000000000000000000000000000000000000000000000006a94d74f43000000000000000000000000000000000000000000000000000000000000000000000000000000000000000000000000000000000000000000000000000000000000",
          "blockHash": "0x80d936dbdf805c4d593243733dfefc78bc9818e82341b085c59495c11434ff8d",
          "blockNumber": "0x124d5b3",
          "transactionHash": "0xb1ebc491c85230bc0ef23a4b5d5bda9c2b9bcbc3de615fd7ea1d54ea6ee28706",
          "transactionIndex": "0x1",
          "logIndex": "0xd",
          "removed": false
        },
        {
          "address": "0x3adff16949513480e051f451748ee8b801731c46",
          "topics": [
            "0x962110f281c1213763cd97a546b337b3cbfd25a31ea9723e9d8b7376ba45da1a",
            "0x25cbc463c51b5fc5f7c67821d86c0f89937636973226a37446e54d82e18841e5"
          ],
          "data": "0x0000000000000000000000000000000000000000000000000000000000000000000000000000000000000000000000000000000000000000006a94d74f4300000000000000000000000000000000000000000000000000000000000000000000000000000000000000000000000000000000000000000001f69f1e209fa27eae000000000000000000000000000000000000000000000d548420ede066ad3d210000000000000000000000000000000000000000000000000000000000000000000000000000000000000000000000000000000000001e958e1cebd928c066ac",
          "blockHash": "0x80d936dbdf805c4d593243733dfefc78bc9818e82341b085c59495c11434ff8d",
          "blockNumber": "0x124d5b3",
          "transactionHash": "0xb1ebc491c85230bc0ef23a4b5d5bda9c2b9bcbc3de615fd7ea1d54ea6ee28706",
          "transactionIndex": "0x1",
          "logIndex": "0xe",
          "removed": false
        },
        {
          "address": "0x85f5181abdbf0e1814fc4358582ae07b8eba3af3",
          "topics": [
            "0xddf252ad1be2c89b69c2b068fc378daa952ba7f163c4a11628f55a4df523b3ef",
            "0x000000000000000000000000f179d705706cd959884e40b1ea21c95ec84d9e14",
            "0x0000000000000000000000000000000000000000000000000000000000000000"
          ],
          "data": "0x000000000000000000000000000000000000000000000d548420ede066ad3d21",
          "blockHash": "0x80d936dbdf805c4d593243733dfefc78bc9818e82341b085c59495c11434ff8d",
          "blockNumber": "0x124d5b3",
          "transactionHash": "0xb1ebc491c85230bc0ef23a4b5d5bda9c2b9bcbc3de615fd7ea1d54ea6ee28706",
          "transactionIndex": "0x1",
          "logIndex": "0xf",
          "removed": false
        },
        {
          "address": "0xf179d705706cd959884e40b1ea21c95ec84d9e14",
          "topics": [
            "0x9f6aa3c522783fd3e83c888a4d0c5452e521fb7518cec88c8468b56cec4665a9",
            "0x0000000000000000000000008b33d626e8d79388889d404fbc515ed131c9508e",
            "0x25cbc463c51b5fc5f7c67821d86c0f89937636973226a37446e54d82e18841e5"
          ],
          "data": "0x000000000000000000000000000000000000000000000d548420ede066ad3d21000000000000000000000000000000000000000000001e958e1cebd928c066ac",
          "blockHash": "0x80d936dbdf805c4d593243733dfefc78bc9818e82341b085c59495c11434ff8d",
          "blockNumber": "0x124d5b3",
          "transactionHash": "0xb1ebc491c85230bc0ef23a4b5d5bda9c2b9bcbc3de615fd7ea1d54ea6ee28706",
          "transactionIndex": "0x1",
          "logIndex": "0x10",
          "removed": false
        }
      ],
      "logsBloom": "0x00001020000000020000000000000040000012000000080010000000000000000000000000200080002100000000400000000040000000000000000004200000002000800000000004000008000000000004000400000008000000900000000000010000020000000000000040000c00000000000000208000000010008000000200010108000000800000000001000000000002000000400000000000000010020000000000002000000000000000002000080000008000000000004008420081000802000000000000000000000000000000000000900000020000800020100010000004000800000200000040000000000000880000000000000104002000",
      "type": "0x2",
      "transactionHash": "0xb1ebc491c85230bc0ef23a4b5d5bda9c2b9bcbc3de615fd7ea1d54ea6ee28706",
      "transactionIndex": "0x1",
      "blockHash": "0x80d936dbdf805c4d593243733dfefc78bc9818e82341b085c59495c11434ff8d",
      "blockNumber": "0x124d5b3",
      "gasUsed": "0xdb21b",
      "effectiveGasPrice": "0x5d21dba01",
      "from": "0x2738f38fde510743e0c589415e0598c4cee6eaa7",
      "to": "0xf179d705706cd959884e40b1ea21c95ec84d9e14",
      "contractAddress": null,
      "l1BaseFeeScalar": "0x0",
      "l1BlobBaseFee": "0x1",
      "l1BlobBaseFeeScalar": "0x0",
      "l1Fee": "0x0",
      "l1GasPrice": "0xc",
      "l1GasUsed": "0x654"
    },
    {
      "status": "0x1",
      "cumulativeGasUsed": "0x138eb",
      "logs": [
        {
          "address": "0xde9e4c3ce781b4ba68120d6261cbad65ce0ab00b",
          "topics": [
            "0xb21afb9ce9be0a676f8f317ff0ca072fb89a4f8ce2d1b6fe80f8755c14f1cb19",
            "0x000000000000000000000000f179d705706cd959884e40b1ea21c95ec84d9e14"
          ],
          "data": "0x0000000000000000000000000000000000000000000000000000000000000000",
          "blockHash": "0x53342567e370ea21b63c1a359674c3a674af3b71a46766449fad8cbba20e70c0",
          "blockNumber": "0x124d5b8",
          "transactionHash": "0x6ee82a2449cd1a5739df37058c5fd09b3661b9979c449a0876b7347d9f6d988b",
          "transactionIndex": "0x1",
          "logIndex": "0x0",
          "removed": false
        }
      ],
      "logsBloom": "0x00000000000000000000000000000000000000000000000000000000000000000000000000000000000000000000000000000040000000040000000000000080000000000000000000000000000000000000000000000008000000000000000000000000000000000000000000000000000000000000000000000000000000000000000000000000000000000000000000000000000000000000200000000000000000000000002000000000000000000000000000000000000000000000400000000000000000000000000000000000000000000000000000000000800000000000000004000000000000000000000000000000000000000000000000000000",
      "type": "0x2",
      "transactionHash": "0x6ee82a2449cd1a5739df37058c5fd09b3661b9979c449a0876b7347d9f6d988b",
      "transactionIndex": "0x1",
      "blockHash": "0x53342567e370ea21b63c1a359674c3a674af3b71a46766449fad8cbba20e70c0",
      "blockNumber": "0x124d5b8",
      "gasUsed": "0x7a27",
      "effectiveGasPrice": "0x5d21dba01",
      "from": "0x2738f38fde510743e0c589415e0598c4cee6eaa7",
      "to": "0xde9e4c3ce781b4ba68120d6261cbad65ce0ab00b",
      "contractAddress": null,
      "l1BaseFeeScalar": "0x0",
      "l1BlobBaseFee": "0x1",
      "l1BlobBaseFeeScalar": "0x0",
      "l1Fee": "0x0",
      "l1GasPrice": "0xb",
      "l1GasUsed": "0x640"
    },
    {
      "status": "0x1",
      "cumulativeGasUsed": "0x12e2b",
      "logs": [
        {
          "address": "0x85f5181abdbf0e1814fc4358582ae07b8eba3af3",
          "topics": [
            "0xf0e5abe4ab32ea692e3889b4c146fd4ddae5f17bb40ab4feba97fb67a2d4de0f",
            "0x000000000000000000000000f179d705706cd959884e40b1ea21c95ec84d9e14"
          ],
          "data": "0x0000000000000000000000000000000000000000000000000000000000000000",
          "blockHash": "0x553ffe32a5e424eea4c334971618e78cfc75c5bfd37211aa5b9cec44e8cdcf0e",
          "blockNumber": "0x124d5bd",
          "transactionHash": "0x1ccb224891175ea3d5943e00955de7363f6a6ccbeb1ae03766ab94672ed1010a",
          "transactionIndex": "0x1",
          "logIndex": "0x0",
          "removed": false
        }
      ],
      "logsBloom": "0x00000000000000000000000000000000000000000000000000000000000000000000000000000000000000000000000000000000040000000000000000000000100000800000000000000000000000000000000020000000000000000000000000000000000000000000000000000000000000000000000000000000000000000000010000000000800000000000000000000000000000000000000000000000000000000000002000000000000000000000000000000000000000000000400000000000000000000000000000000000000000000000000000000000000000000000000004000000000000000000000000000000000000000000000000000000",
      "type": "0x2",
      "transactionHash": "0x1ccb224891175ea3d5943e00955de7363f6a6ccbeb1ae03766ab94672ed1010a",
      "transactionIndex": "0x1",
      "blockHash": "0x553ffe32a5e424eea4c334971618e78cfc75c5bfd37211aa5b9cec44e8cdcf0e",
      "blockNumber": "0x124d5bd",
      "gasUsed": "0x7a4b",
      "effectiveGasPrice": "0x5d21dba01",
      "from": "0x2738f38fde510743e0c589415e0598c4cee6eaa7",
      "to": "0x85f5181abdbf0e1814fc4358582ae07b8eba3af3",
      "contractAddress": null,
      "l1BaseFeeScalar": "0x0",
      "l1BlobBaseFee": "0x1",
      "l1BlobBaseFeeScalar": "0x0",
      "l1Fee": "0x0",
      "l1GasPrice": "0xb",
      "l1GasUsed": "0x640"
    }
  ],
  "libraries": [
    "node_modules/@celo/contracts/common/linkedlists/AddressSortedLinkedListWithMedian.sol:AddressSortedLinkedListWithMedian:0xf90B816Ea07eC3c6384656cd5B3249DA8fc3df6F"
  ],
  "pending": [],
  "returns": {},
  "timestamp": 1772475217563,
  "chain": 11142220,
  "commit": "b2dfffb"
}