{
  "transactions": [
    {
      "hash": "0xbe528a215d4d3bc5f4c1b8c5a8068aa95a3a9c29cc75f422f242ec93c7b21e7d",
      "transactionType": "CALL",
      "contractName": null,
      "contractAddress": "0xecb3c656c131fcd9bb8d1d80898716bd684feb78",
      "function": "destroyExchange(bytes32,uint256)",
      "arguments": [
        "0x7c3b41fbd140c6fb54ff9f8f7b7b0c954606682d44ed5e56b0080f40faaf652c",
        "11"
      ],
      "transaction": {
        "from": "0x2738f38fde510743e0c589415e0598c4cee6eaa7",
        "to": "0xecb3c656c131fcd9bb8d1d80898716bd684feb78",
        "gas": "0x1c821",
        "value": "0x0",
        "input": "0xe46eb5b67c3b41fbd140c6fb54ff9f8f7b7b0c954606682d44ed5e56b0080f40faaf652c000000000000000000000000000000000000000000000000000000000000000b",
        "nonce": "0x2c4",
        "chainId": "0xaa044c"
      },
      "additionalContracts": [],
      "isFixedGasLimit": false
    },
    {
      "hash": "0x255ccdee1514e3b7e05e62321f203288a7a858b59f0e3c43f285ea7f1ff15cd5",
      "transactionType": "CALL",
      "contractName": null,
      "contractAddress": "0x85bee67d435a39f7467a8a9de34a5b73d25df426",
      "function": "setMinter(address,bool)",
      "arguments": [
        "0xB9Ae2065142EB79b6c5EB1E8778F883fad6B07Ba",
        "false"
      ],
      "transaction": {
        "from": "0x2738f38fde510743e0c589415e0598c4cee6eaa7",
        "to": "0x85bee67d435a39f7467a8a9de34a5b73d25df426",
        "gas": "0xb2ab",
        "value": "0x0",
        "input": "0xcf456ae7000000000000000000000000b9ae2065142eb79b6c5eb1e8778f883fad6b07ba0000000000000000000000000000000000000000000000000000000000000000",
        "nonce": "0x2c5",
        "chainId": "0xaa044c"
      },
      "additionalContracts": [],
      "isFixedGasLimit": false
    },
    {
      "hash": "0x22c9940d01bd86d99c28e918c887ed1ede2338a5c8b8c98952983d02ab49a9b2",
      "transactionType": "CALL",
      "contractName": null,
      "contractAddress": "0x85bee67d435a39f7467a8a9de34a5b73d25df426",
      "function": "setBurner(address,bool)",
      "arguments": [
        "0xB9Ae2065142EB79b6c5EB1E8778F883fad6B07Ba",
        "false"
      ],
      "transaction": {
        "from": "0x2738f38fde510743e0c589415e0598c4cee6eaa7",
        "to": "0x85bee67d435a39f7467a8a9de34a5b73d25df426",
        "gas": "0xa8ef",
        "value": "0x0",
        "input": "0x0d895ee1000000000000000000000000b9ae2065142eb79b6c5eb1e8778f883fad6b07ba0000000000000000000000000000000000000000000000000000000000000000",
        "nonce": "0x2c6",
        "chainId": "0xaa044c"
      },
      "additionalContracts": [],
      "isFixedGasLimit": false
    },
    {
      "hash": "0x57b86c51b27a85c1cd03dcbe6bfc30e2f4eeb4ee3dec4bb3795b5b04ec45d75f",
      "transactionType": "CALL",
      "contractName": null,
      "contractAddress": "0x85bee67d435a39f7467a8a9de34a5b73d25df426",
      "function": "setMinter(address,bool)",
      "arguments": [
        "0x6EECDE8082e2C6039fEa88a66fb71145C216BbFD",
        "true"
      ],
      "transaction": {
        "from": "0x2738f38fde510743e0c589415e0598c4cee6eaa7",
        "to": "0x85bee67d435a39f7467a8a9de34a5b73d25df426",
        "gas": "0x12fd9",
        "value": "0x0",
        "input": "0xcf456ae70000000000000000000000006eecde8082e2c6039fea88a66fb71145c216bbfd0000000000000000000000000000000000000000000000000000000000000001",
        "nonce": "0x2c7",
        "chainId": "0xaa044c"
      },
      "additionalContracts": [],
      "isFixedGasLimit": false
    },
    {
      "hash": "0xc3b1d6b153d84d106ac345419837b51c0c6fe5fdce77ec30f003250d36281faf",
      "transactionType": "CALL",
      "contractName": null,
      "contractAddress": "0x85bee67d435a39f7467a8a9de34a5b73d25df426",
      "function": "setMinter(address,bool)",
      "arguments": [
        "0xC2839d42690cF4eBcB31A77F874Ecc3eaFCe1d82",
        "true"
      ],
      "transaction": {
        "from": "0x2738f38fde510743e0c589415e0598c4cee6eaa7",
        "to": "0x85bee67d435a39f7467a8a9de34a5b73d25df426",
        "gas": "0x12fd9",
        "value": "0x0",
        "input": "0xcf456ae7000000000000000000000000c2839d42690cf4ebcb31a77f874ecc3eafce1d820000000000000000000000000000000000000000000000000000000000000001",
        "nonce": "0x2c8",
        "chainId": "0xaa044c"
      },
      "additionalContracts": [],
      "isFixedGasLimit": false
    },
    {
      "hash": "0x120c41870fe49f51215eaa6780f8fe23b847fb4654490d18cf5db08c901df55e",
      "transactionType": "CALL",
      "contractName": null,
      "contractAddress": "0x85bee67d435a39f7467a8a9de34a5b73d25df426",
      "function": "setBurner(address,bool)",
      "arguments": [
        "0x32972DC362f19DB51EFbf329C0648b26a5f92d80",
        "true"
      ],
      "transaction": {
        "from": "0x2738f38fde510743e0c589415e0598c4cee6eaa7",
        "to": "0x85bee67d435a39f7467a8a9de34a5b73d25df426",
        "gas": "0x11f29",
        "value": "0x0",
        "input": "0x0d895ee100000000000000000000000032972dc362f19db51efbf329c0648b26a5f92d800000000000000000000000000000000000000000000000000000000000000001",
        "nonce": "0x2c9",
        "chainId": "0xaa044c"
      },
      "additionalContracts": [],
      "isFixedGasLimit": false
    },
    {
      "hash": "0x3dfc7703fe2e49167b1bcc1061b9303e58208f7f0c41f48e5decdd26bd135efa",
      "transactionType": "CALL",
      "contractName": null,
      "contractAddress": "0x85bee67d435a39f7467a8a9de34a5b73d25df426",
      "function": "setBurner(address,bool)",
      "arguments": [
        "0x6EECDE8082e2C6039fEa88a66fb71145C216BbFD",
        "true"
      ],
      "transaction": {
        "from": "0x2738f38fde510743e0c589415e0598c4cee6eaa7",
        "to": "0x85bee67d435a39f7467a8a9de34a5b73d25df426",
        "gas": "0x11f29",
        "value": "0x0",
        "input": "0x0d895ee10000000000000000000000006eecde8082e2c6039fea88a66fb71145c216bbfd0000000000000000000000000000000000000000000000000000000000000001",
        "nonce": "0x2ca",
        "chainId": "0xaa044c"
      },
      "additionalContracts": [],
      "isFixedGasLimit": false
    },
    {
      "hash": "0x99968c4771eb1b9ceb6535ffb8201e74ef592b9fbd9fc6dd4cf70546d073e92d",
      "transactionType": "CALL",
      "contractName": null,
      "contractAddress": "0x85bee67d435a39f7467a8a9de34a5b73d25df426",
      "function": "setBurner(address,bool)",
      "arguments": [
        "0xED54259166ebBfE72083fc37Ee2a00e922fBa84d",
        "true"
      ],
      "transaction": {
        "from": "0x2738f38fde510743e0c589415e0598c4cee6eaa7",
        "to": "0x85bee67d435a39f7467a8a9de34a5b73d25df426",
        "gas": "0x12ffc",
        "value": "0x0",
        "input": "0x0d895ee1000000000000000000000000ed54259166ebbfe72083fc37ee2a00e922fba84d0000000000000000000000000000000000000000000000000000000000000001",
        "nonce": "0x2cb",
        "chainId": "0xaa044c"
      },
      "additionalContracts": [],
      "isFixedGasLimit": false
    },
    {
      "hash": "0x03dd31dcfce6171180c19c596494d559ccc6cf7f356d094db312bdba7fb7276d",
      "transactionType": "CALL",
      "contractName": null,
      "contractAddress": "0x85bee67d435a39f7467a8a9de34a5b73d25df426",
      "function": "setBurner(address,bool)",
      "arguments": [
        "0x61af6D7f1ACEa32e8971F6ACb76236eb53367aD5",
        "true"
      ],
      "transaction": {
        "from": "0x2738f38fde510743e0c589415e0598c4cee6eaa7",
        "to": "0x85bee67d435a39f7467a8a9de34a5b73d25df426",
        "gas": "0x11f29",
        "value": "0x0",
        "input": "0x0d895ee100000000000000000000000061af6d7f1acea32e8971f6acb76236eb53367ad50000000000000000000000000000000000000000000000000000000000000001",
        "nonce": "0x2cc",
        "chainId": "0xaa044c"
      },
      "additionalContracts": [],
      "isFixedGasLimit": false
    },
    {
      "hash": "0xdf1974bb3a7d6fbc6b5dc3b58d8560973572ea0055252dc0547d217927216e71",
      "transactionType": "CALL",
      "contractName": null,
      "contractAddress": "0x85bee67d435a39f7467a8a9de34a5b73d25df426",
      "function": "setOperator(address,bool)",
      "arguments": [
        "0x61af6D7f1ACEa32e8971F6ACb76236eb53367aD5",
        "true"
      ],
      "transaction": {
        "from": "0x2738f38fde510743e0c589415e0598c4cee6eaa7",
        "to": "0x85bee67d435a39f7467a8a9de34a5b73d25df426",
        "gas": "0x12ffb",
        "value": "0x0",
        "input": "0x558a729700000000000000000000000061af6d7f1acea32e8971f6acb76236eb53367ad50000000000000000000000000000000000000000000000000000000000000001",
        "nonce": "0x2cd",
        "chainId": "0xaa044c"
      },
      "additionalContracts": [],
      "isFixedGasLimit": false
    },
    {
      "hash": "0x5507e5819ef413b87392e9d636b769066c80e93c13d5e26b42211778f8c855ca",
      "transactionType": "CALL",
      "contractName": null,
      "contractAddress": "0xfd5295e75ffea02780b0e2638d9fabb0316fd4e0",
      "function": "setLiquidityStrategy(address,bool)",
      "arguments": [
        "0x065AE7D4e207C8f4dca112D0B79E668cc7e93e03",
        "true"
      ],
      "transaction": {
        "from": "0x2738f38fde510743e0c589415e0598c4cee6eaa7",
        "to": "0xfd5295e75ffea02780b0e2638d9fabb0316fd4e0",
        "gas": "0x12961",
        "value": "0x0",
        "input": "0xcce441a3000000000000000000000000065ae7d4e207c8f4dca112d0b79e668cc7e93e030000000000000000000000000000000000000000000000000000000000000001",
        "nonce": "0x2ce",
        "chainId": "0xaa044c"
      },
      "additionalContracts": [],
      "isFixedGasLimit": false
    },
    {
      "hash": "0xc2833abfec03528de9f8e4e61d85f1874d03d68094a33ef2d9f5f86901c80832",
      "transactionType": "CALL",
      "contractName": "TransparentUpgradeableProxy",
      "contractAddress": "0x065ae7d4e207c8f4dca112d0b79e668cc7e93e03",
      "function": null,
      "arguments": null,
      "transaction": {
        "from": "0x2738f38fde510743e0c589415e0598c4cee6eaa7",
        "to": "0x065ae7d4e207c8f4dca112d0b79e668cc7e93e03",
        "gas": "0x40f6a",
        "value": "0x0",
        "input": "0xe8356cb1000000000000000000000000fd5295e75ffea02780b0e2638d9fabb0316fd4e000000000000000000000000085bee67d435a39f7467a8a9de34a5b73d25df426000000000000000000000000000000000000000000000000000000000000012c0000000000000000000000002738f38fde510743e0c589415e0598c4cee6eaa70000000000000000000000000000000000000000000000000001c6bf5263400000000000000000000000000000000000000000000000000000000000000000000000000000000000000000000000000000000000000000000001c6bf52634000000000000000000000000000000000000000000000000000000000000000000000000000000000000000000061af6d7f1acea32e8971f6acb76236eb53367ad500000000000000000000000032972dc362f19db51efbf329c0648b26a5f92d8000000000000000000000000000000000000000000000000000000000000007d000000000000000000000000000000000000000000000000000000000000001f4",
        "nonce": "0x2cf",
        "chainId": "0xaa044c"
      },
      "additionalContracts": [],
      "isFixedGasLimit": false
    },
    {
      "hash": "0xfff94dabf4bb51763184b2ba48ebbbc64c1cfda4a0c75952c41a16e3a9406229",
      "transactionType": "CALL",
      "contractName": null,
      "contractAddress": "0xed2ae3d1af45956d5fcfb519a998e91b8cd3546b",
      "function": "setRateFeedID(address)",
      "arguments": [
        "0x403EA4186ce479fF162636c37fDf4086bD286F8c"
      ],
      "transaction": {
        "from": "0x2738f38fde510743e0c589415e0598c4cee6eaa7",
        "to": "0xed2ae3d1af45956d5fcfb519a998e91b8cd3546b",
        "gas": "0xb0c6",
        "value": "0x0",
        "input": "0x42459c7b000000000000000000000000403ea4186ce479ff162636c37fdf4086bd286f8c",
        "nonce": "0x2d0",
        "chainId": "0xaa044c"
      },
      "additionalContracts": [],
      "isFixedGasLimit": false
    },
    {
      "hash": "0xfd7e056381fd5972c5bad103935259f49fc28d8f6950af032c36fde1fbc5f10d",
      "transactionType": "CALL",
      "contractName": null,
      "contractAddress": "0xde9e4c3ce781b4ba68120d6261cbad65ce0ab00b",
      "function": "setMinter(address,bool)",
      "arguments": [
        "0xf179d705706CD959884E40B1eA21C95EC84D9E14",
        "true"
      ],
      "transaction": {
        "from": "0x2738f38fde510743e0c589415e0598c4cee6eaa7",
        "to": "0xde9e4c3ce781b4ba68120d6261cbad65ce0ab00b",
        "gas": "0x12fd9",
        "value": "0x0",
        "input": "0xcf456ae7000000000000000000000000f179d705706cd959884e40b1ea21c95ec84d9e140000000000000000000000000000000000000000000000000000000000000001",
        "nonce": "0x2d1",
        "chainId": "0xaa044c"
      },
      "additionalContracts": [],
      "isFixedGasLimit": false
    },
    {
      "hash": "0x80a7db41da487666beefd4e826abad0ae822dc1b3b74bb1846b9ade5cd951344",
      "transactionType": "CALL",
      "contractName": null,
      "contractAddress": "0x85bee67d435a39f7467a8a9de34a5b73d25df426",
      "function": "setBurner(address,bool)",
      "arguments": [
        "0xf179d705706CD959884E40B1eA21C95EC84D9E14",
        "true"
      ],
      "transaction": {
        "from": "0x2738f38fde510743e0c589415e0598c4cee6eaa7",
        "to": "0x85bee67d435a39f7467a8a9de34a5b73d25df426",
        "gas": "0x11f29",
        "value": "0x0",
        "input": "0x0d895ee1000000000000000000000000f179d705706cd959884e40b1ea21c95ec84d9e140000000000000000000000000000000000000000000000000000000000000001",
        "nonce": "0x2d2",
        "chainId": "0xaa044c"
      },
      "additionalContracts": [],
      "isFixedGasLimit": false
    },
    {
      "hash": "0xe43e40bdd20abe437701570d041325fd54fc6852da2689b83a7c2f784898daf0",
      "transactionType": "CALL",
      "contractName": null,
      "contractAddress": "0x471ece3750da237f93b8e339c536989b8978a438",
      "function": "transfer(address,uint256)",
      "arguments": [
        "0xf179d705706CD959884E40B1eA21C95EC84D9E14",
        "1000000000000000000"
      ],
      "transaction": {
        "from": "0x2738f38fde510743e0c589415e0598c4cee6eaa7",
        "to": "0x471ece3750da237f93b8e339c536989b8978a438",
        "gas": "0xd3eb",
        "value": "0x0",
        "input": "0xa9059cbb000000000000000000000000f179d705706cd959884e40b1ea21c95ec84d9e140000000000000000000000000000000000000000000000000de0b6b3a7640000",
        "nonce": "0x2d3",
        "chainId": "0xaa044c"
      },
      "additionalContracts": [],
      "isFixedGasLimit": false
    },
    {
      "hash": "0x123c6345fb2c7290d9f1bfe7d4cbd83524acbd5c78d50f113c30a41446c5df73",
      "transactionType": "CALL",
      "contractName": "ReserveTroveFactory",
      "contractAddress": "0xf179d705706cd959884e40b1ea21c95ec84d9e14",
      "function": "createReserveTrove(address,uint256,uint256)",
      "arguments": [
        "0x812e5ccEC5E55B81F4270898FDF1C916e3a284Fb",
        "1600000000000000000",
        "30000000000000000"
      ],
      "transaction": {
        "from": "0x2738f38fde510743e0c589415e0598c4cee6eaa7",
        "to": "0xf179d705706cd959884e40b1ea21c95ec84d9e14",
        "gas": "0x133348",
        "value": "0x0",
        "input": "0xbfed8a8f000000000000000000000000812e5ccec5e55b81f4270898fdf1c916e3a284fb00000000000000000000000000000000000000000000000016345785d8a00000000000000000000000000000000000000000000000000000006a94d74f430000",
        "nonce": "0x2d4",
        "chainId": "0xaa044c"
      },
      "additionalContracts": [],
      "isFixedGasLimit": false
    },
    {
      "hash": "0xa1acfe74544e77b5d09964088b0bc28ece5cdc5c651e3d0457659cc381cc7bef",
      "transactionType": "CALL",
      "contractName": null,
      "contractAddress": "0xde9e4c3ce781b4ba68120d6261cbad65ce0ab00b",
      "function": "setMinter(address,bool)",
      "arguments": [
        "0xf179d705706CD959884E40B1eA21C95EC84D9E14",
        "false"
      ],
      "transaction": {
        "from": "0x2738f38fde510743e0c589415e0598c4cee6eaa7",
        "to": "0xde9e4c3ce781b4ba68120d6261cbad65ce0ab00b",
        "gas": "0xb2ab",
        "value": "0x0",
        "input": "0xcf456ae7000000000000000000000000f179d705706cd959884e40b1ea21c95ec84d9e140000000000000000000000000000000000000000000000000000000000000000",
        "nonce": "0x2d5",
        "chainId": "0xaa044c"
      },
      "additionalContracts": [],
      "isFixedGasLimit": false
    },
    {
      "hash": "0xf946e8fb6cf72971f554b0639aca4c09e78f4e66705a0c172f5c26c411957924",
      "transactionType": "CALL",
      "contractName": null,
      "contractAddress": "0x85bee67d435a39f7467a8a9de34a5b73d25df426",
      "function": "setBurner(address,bool)",
      "arguments": [
        "0xf179d705706CD959884E40B1eA21C95EC84D9E14",
        "false"
      ],
      "transaction": {
        "from": "0x2738f38fde510743e0c589415e0598c4cee6eaa7",
        "to": "0x85bee67d435a39f7467a8a9de34a5b73d25df426",
        "gas": "0xa8ef",
        "value": "0x0",
        "input": "0x0d895ee1000000000000000000000000f179d705706cd959884e40b1ea21c95ec84d9e140000000000000000000000000000000000000000000000000000000000000000",
        "nonce": "0x2d6",
        "chainId": "0xaa044c"
      },
      "additionalContracts": [],
      "isFixedGasLimit": false
    }
  ],
  "receipts": [
    {
      "type": "0x2",
      "status": "0x1",
      "cumulativeGasUsed": "0x1fe72",
      "logs": [
        {
          "address": "0xecb3c656c131fcd9bb8d1d80898716bd684feb78",
          "topics": [
            "0xadbbec6c203cb0248e89fe6d15ad651061a9d5203a1ab0273256e2b7decffa89",
            "0x7c3b41fbd140c6fb54ff9f8f7b7b0c954606682d44ed5e56b0080f40faaf652c",
            "0x000000000000000000000000de9e4c3ce781b4ba68120d6261cbad65ce0ab00b",
            "0x00000000000000000000000085bee67d435a39f7467a8a9de34a5b73d25df426"
          ],
          "data": "0x0000000000000000000000003b199d9ebebe509bb711bffb455c2d79102a9602",
          "blockHash": "0xe7b6b53cb7601e9b50d4efbb04f3eaf72466fdd7857574bcd1dd05dc837c550a",
          "blockNumber": "0x169399f",
          "blockTimestamp": "0x69ea3733",
          "transactionHash": "0xbe528a215d4d3bc5f4c1b8c5a8068aa95a3a9c29cc75f422f242ec93c7b21e7d",
          "transactionIndex": "0x1",
          "logIndex": "0x0",
          "removed": false
        }
      ],
      "logsBloom": "0x00000000000000000000000000004000008008000000000000000000000000000100010000000000000000000000000000000000000000000000000000000000000000000000000000000000000000002000000020000000000000000000000000000000000002000000001000000000000000000000000000000004000000000000040000000000000000000000000000000000000000000000000000000000000000000000000000000000004000000000000000000000000000000000000000000000000000000001000000000000000000000000100000000000000001000000000000000000000000000000000000000000000000000000000000000000",
      "transactionHash": "0xbe528a215d4d3bc5f4c1b8c5a8068aa95a3a9c29cc75f422f242ec93c7b21e7d",
      "transactionIndex": "0x1",
      "blockHash": "0xe7b6b53cb7601e9b50d4efbb04f3eaf72466fdd7857574bcd1dd05dc837c550a",
      "blockNumber": "0x169399f",
      "gasUsed": "0x14a3c",
      "effectiveGasPrice": "0xc48251f80",
      "blobGasUsed": "0x64",
      "from": "0x2738f38fde510743e0c589415e0598c4cee6eaa7",
      "to": "0xecb3c656c131fcd9bb8d1d80898716bd684feb78",
      "contractAddress": null
    },
    {
      "type": "0x2",
      "status": "0x1",
      "cumulativeGasUsed": "0x12e61",
      "logs": [
        {
          "address": "0x85bee67d435a39f7467a8a9de34a5b73d25df426",
          "topics": [
            "0xb21afb9ce9be0a676f8f317ff0ca072fb89a4f8ce2d1b6fe80f8755c14f1cb19",
            "0x000000000000000000000000b9ae2065142eb79b6c5eb1e8778f883fad6b07ba"
          ],
          "data": "0x0000000000000000000000000000000000000000000000000000000000000000",
          "blockHash": "0xf3900d17531e1157716695dc92faf36a4777a0f9fbfb9a82a1eed91bf4ffc738",
          "blockNumber": "0x16939a2",
          "blockTimestamp": "0x69ea3736",
          "transactionHash": "0x255ccdee1514e3b7e05e62321f203288a7a858b59f0e3c43f285ea7f1ff15cd5",
          "transactionIndex": "0x1",
          "logIndex": "0x0",
          "removed": false
        }
      ],
      "logsBloom": "0x00020000000000000000000000000000000000000000000000000000000000000000000000000008000000000000000000000000000000040000000000000080000000080000000000000000000000000000000000000000000000000000000000000000000000000000000000000000000000000000040000000000000000000000000000000000000000000000000000000000000000000000200000000000000000000000000000000000000000000000000000000000000000000010000000000080000000000000000000000000000000000000000000000000000000000000000000000000000000000000000000000000000000000000000000000000",
      "transactionHash": "0x255ccdee1514e3b7e05e62321f203288a7a858b59f0e3c43f285ea7f1ff15cd5",
      "transactionIndex": "0x1",
      "blockHash": "0xf3900d17531e1157716695dc92faf36a4777a0f9fbfb9a82a1eed91bf4ffc738",
      "blockNumber": "0x16939a2",
      "gasUsed": "0x7a2b",
      "effectiveGasPrice": "0xc48251f80",
      "blobGasUsed": "0x64",
      "from": "0x2738f38fde510743e0c589415e0598c4cee6eaa7",
      "to": "0x85bee67d435a39f7467a8a9de34a5b73d25df426",
      "contractAddress": null
    },
    {
      "type": "0x2",
      "status": "0x1",
      "cumulativeGasUsed": "0x12e85",
      "logs": [
        {
          "address": "0x85bee67d435a39f7467a8a9de34a5b73d25df426",
          "topics": [
            "0xf0e5abe4ab32ea692e3889b4c146fd4ddae5f17bb40ab4feba97fb67a2d4de0f",
            "0x000000000000000000000000b9ae2065142eb79b6c5eb1e8778f883fad6b07ba"
          ],
          "data": "0x0000000000000000000000000000000000000000000000000000000000000000",
          "blockHash": "0x329b04e48693275616c259485c85c1fe9d892aa4d517f37d50119ede2b105207",
          "blockNumber": "0x16939a4",
          "blockTimestamp": "0x69ea3738",
          "transactionHash": "0x22c9940d01bd86d99c28e918c887ed1ede2338a5c8b8c98952983d02ab49a9b2",
          "transactionIndex": "0x1",
          "logIndex": "0x0",
          "removed": false
        }
      ],
      "logsBloom": "0x00020000000000000000000000000000000000000000000000000000000000000000000000000008000000000000000000000000040000000000000000000000100000080000000000000000000000000000000020000000000000000000000000000000000000000000000000000000000000000000040000000000000000000000000000000000000000000000000000000000000000000000000000000000000000000000000000000000000000000000000000000000000000000010000000000080000000000000000000000000000000000000000000000000000000000000000000000000000000000000000000000000000000000000000000000000",
      "transactionHash": "0x22c9940d01bd86d99c28e918c887ed1ede2338a5c8b8c98952983d02ab49a9b2",
      "transactionIndex": "0x1",
      "blockHash": "0x329b04e48693275616c259485c85c1fe9d892aa4d517f37d50119ede2b105207",
      "blockNumber": "0x16939a4",
      "gasUsed": "0x7a4f",
      "effectiveGasPrice": "0xc48251f80",
      "blobGasUsed": "0x64",
      "from": "0x2738f38fde510743e0c589415e0598c4cee6eaa7",
      "to": "0x85bee67d435a39f7467a8a9de34a5b73d25df426",
      "contractAddress": null
    },
    {
      "type": "0x2",
      "status": "0x1",
      "cumulativeGasUsed": "0x5a7ab",
      "logs": [
        {
          "address": "0x85bee67d435a39f7467a8a9de34a5b73d25df426",
          "topics": [
            "0xb21afb9ce9be0a676f8f317ff0ca072fb89a4f8ce2d1b6fe80f8755c14f1cb19",
            "0x0000000000000000000000006eecde8082e2c6039fea88a66fb71145c216bbfd"
          ],
          "data": "0x0000000000000000000000000000000000000000000000000000000000000001",
          "blockHash": "0x21593a55f35562ccb6e8d0bd7eaac54a00be39751339270f697f7690ca885a14",
          "blockNumber": "0x16939a6",
          "blockTimestamp": "0x69ea373a",
          "transactionHash": "0x57b86c51b27a85c1cd03dcbe6bfc30e2f4eeb4ee3dec4bb3795b5b04ec45d75f",
          "transactionIndex": "0x2",
          "logIndex": "0x7",
          "removed": false
        }
      ],
      "logsBloom": "0x00000000000000000000000000000000000000000000000000000000000000000000000000000000000000000000000000000000000000040000000000000080000000080000000000000000000000000000000000000000000000000000000000000001000000000000000000000000000000000000040000000000000000000000000000000000000000000000000000000000000000000000200000000000000000000000000000000000000000000000000000000000000000000000000000000080000000000000000000000000000000000000000000000000000000000000000000000000000000000000000010000000000000000000000000080000",
      "transactionHash": "0x57b86c51b27a85c1cd03dcbe6bfc30e2f4eeb4ee3dec4bb3795b5b04ec45d75f",
      "transactionIndex": "0x2",
      "blockHash": "0x21593a55f35562ccb6e8d0bd7eaac54a00be39751339270f697f7690ca885a14",
      "blockNumber": "0x16939a6",
      "gasUsed": "0xcfc3",
      "effectiveGasPrice": "0xc48251f80",
      "blobGasUsed": "0x64",
      "from": "0x2738f38fde510743e0c589415e0598c4cee6eaa7",
      "to": "0x85bee67d435a39f7467a8a9de34a5b73d25df426",
      "contractAddress": null
    },
    {
      "type": "0x2",
      "status": "0x1",
      "cumulativeGasUsed": "0x183f9",
      "logs": [
        {
          "address": "0x85bee67d435a39f7467a8a9de34a5b73d25df426",
          "topics": [
            "0xb21afb9ce9be0a676f8f317ff0ca072fb89a4f8ce2d1b6fe80f8755c14f1cb19",
            "0x000000000000000000000000c2839d42690cf4ebcb31a77f874ecc3eafce1d82"
          ],
          "data": "0x0000000000000000000000000000000000000000000000000000000000000001",
          "blockHash": "0xa63f0e3e3add9a11d7da41c14918f10ff3cf813d9f3b3d71e9c1d98dee90cccd",
          "blockNumber": "0x16939a8",
          "blockTimestamp": "0x69ea373c",
          "transactionHash": "0xc3b1d6b153d84d106ac345419837b51c0c6fe5fdce77ec30f003250d36281faf",
          "transactionIndex": "0x1",
          "logIndex": "0x0",
          "removed": false
        }
      ],
      "logsBloom": "0x00000000000000000000000000000000000000000001000000000000000000000000000000000000000000000000000000000000000000040000000000000080000000080000002000000000000000000000000000000000000000000000000000000000000000000000000000000000000000000000040000000000000000000000000000000000000000000000000000000000000000000000200000000000000000000000000000000000000000000000000000000000000000000000000000000080000000000000000000000000000000000000000000000000000000000000000000000000000000000000100000000000000000000000000000000000",
      "transactionHash": "0xc3b1d6b153d84d106ac345419837b51c0c6fe5fdce77ec30f003250d36281faf",
      "transactionIndex": "0x1",
      "blockHash": "0xa63f0e3e3add9a11d7da41c14918f10ff3cf813d9f3b3d71e9c1d98dee90cccd",
      "blockNumber": "0x16939a8",
      "gasUsed": "0xcfc3",
      "effectiveGasPrice": "0xc48251f80",
      "blobGasUsed": "0x64",
      "from": "0x2738f38fde510743e0c589415e0598c4cee6eaa7",
      "to": "0x85bee67d435a39f7467a8a9de34a5b73d25df426",
      "contractAddress": null
    },
    {
      "type": "0x2",
      "status": "0x1",
      "cumulativeGasUsed": "0x1841d",
      "logs": [
        {
          "address": "0x85bee67d435a39f7467a8a9de34a5b73d25df426",
          "topics": [
            "0xf0e5abe4ab32ea692e3889b4c146fd4ddae5f17bb40ab4feba97fb67a2d4de0f",
            "0x00000000000000000000000032972dc362f19db51efbf329c0648b26a5f92d80"
          ],
          "data": "0x0000000000000000000000000000000000000000000000000000000000000001",
          "blockHash": "0x53ff00de843f0700b7d8a5260b83a89ce2f4dfd16c7e9015c6b9e4f704848647",
          "blockNumber": "0x16939aa",
          "blockTimestamp": "0x69ea373e",
          "transactionHash": "0x120c41870fe49f51215eaa6780f8fe23b847fb4654490d18cf5db08c901df55e",
          "transactionIndex": "0x1",
          "logIndex": "0x0",
          "removed": false
        }
      ],
      "logsBloom": "0x00000000000000000000000000000000000000000000000200000000000000000000000000000000000000000000000000000000040000000000000000000000100000080000000200000000000000000000000020000000000000000000000000000100000000000000000000000000000000000000040000000000000000000000000000000000000000000000000000000000000000000000000000000000000000000000000000000000000000000000000000000000000000000000000000000080000000000000000000000000000000000000000000000000000000000000000000000000000000000000000000000000000000000000000000000000",
      "transactionHash": "0x120c41870fe49f51215eaa6780f8fe23b847fb4654490d18cf5db08c901df55e",
      "transactionIndex": "0x1",
      "blockHash": "0x53ff00de843f0700b7d8a5260b83a89ce2f4dfd16c7e9015c6b9e4f704848647",
      "blockNumber": "0x16939aa",
      "gasUsed": "0xcfe7",
      "effectiveGasPrice": "0xc48251f80",
      "blobGasUsed": "0x64",
      "from": "0x2738f38fde510743e0c589415e0598c4cee6eaa7",
      "to": "0x85bee67d435a39f7467a8a9de34a5b73d25df426",
      "contractAddress": null
    },
    {
      "type": "0x2",
      "status": "0x1",
      "cumulativeGasUsed": "0x1841d",
      "logs": [
        {
          "address": "0x85bee67d435a39f7467a8a9de34a5b73d25df426",
          "topics": [
            "0xf0e5abe4ab32ea692e3889b4c146fd4ddae5f17bb40ab4feba97fb67a2d4de0f",
            "0x0000000000000000000000006eecde8082e2c6039fea88a66fb71145c216bbfd"
          ],
          "data": "0x0000000000000000000000000000000000000000000000000000000000000001",
          "blockHash": "0x699b4f5efa337e7228a2d78f93f68fde78715bf11851626d7a8eecb08752220c",
          "blockNumber": "0x16939ad",
          "blockTimestamp": "0x69ea3741",
          "transactionHash": "0x3dfc7703fe2e49167b1bcc1061b9303e58208f7f0c41f48e5decdd26bd135efa",
          "transactionIndex": "0x1",
          "logIndex": "0x0",
          "removed": false
        }
      ],
      "logsBloom": "0x00000000000000000000000000000000000000000000000000000000000000000000000000000000000000000000000000000000040000000000000000000000100000080000000000000000000000000000000020000000000000000000000000000001000000000000000000000000000000000000040000000000000000000000000000000000000000000000000000000000000000000000000000000000000000000000000000000000000000000000000000000000000000000000000000000080000000000000000000000000000000000000000000000000000000000000000000000000000000000000000010000000000000000000000000080000",
      "transactionHash": "0x3dfc7703fe2e49167b1bcc1061b9303e58208f7f0c41f48e5decdd26bd135efa",
      "transactionIndex": "0x1",
      "blockHash": "0x699b4f5efa337e7228a2d78f93f68fde78715bf11851626d7a8eecb08752220c",
      "blockNumber": "0x16939ad",
      "gasUsed": "0xcfe7",
      "effectiveGasPrice": "0xc48251f80",
      "blobGasUsed": "0x64",
      "from": "0x2738f38fde510743e0c589415e0598c4cee6eaa7",
      "to": "0x85bee67d435a39f7467a8a9de34a5b73d25df426",
      "contractAddress": null
    },
    {
      "type": "0x2",
      "status": "0x1",
      "cumulativeGasUsed": "0x18411",
      "logs": [
        {
          "address": "0x85bee67d435a39f7467a8a9de34a5b73d25df426",
          "topics": [
            "0xf0e5abe4ab32ea692e3889b4c146fd4ddae5f17bb40ab4feba97fb67a2d4de0f",
            "0x000000000000000000000000ed54259166ebbfe72083fc37ee2a00e922fba84d"
          ],
          "data": "0x0000000000000000000000000000000000000000000000000000000000000001",
          "blockHash": "0x9465a8374df3187e68d4e7e24a88472cda625e587e4bd1b82ccf8d8486aee079",
          "blockNumber": "0x16939b0",
          "blockTimestamp": "0x69ea3744",
          "transactionHash": "0x99968c4771eb1b9ceb6535ffb8201e74ef592b9fbd9fc6dd4cf70546d073e92d",
          "transactionIndex": "0x1",
          "logIndex": "0x0",
          "removed": false
        }
      ],
      "logsBloom": "0x00000000000000000000000000000000000000000000000000000000000000000000000000000000000010000000000000000000040000000000000000000000100000080000000000000000000000000000000020000000000000000000000000000000000000000000000000000000000000000000040000000000000000000000000000000000400000000000000000000000000000000000000000000000000000000000000000000000000000000000000000000000000000000000000000000080200000000000000000000000000000000000000000000000000000000000000000000000000000000000000000000000000000000000000000000000",
      "transactionHash": "0x99968c4771eb1b9ceb6535ffb8201e74ef592b9fbd9fc6dd4cf70546d073e92d",
      "transactionIndex": "0x1",
      "blockHash": "0x9465a8374df3187e68d4e7e24a88472cda625e587e4bd1b82ccf8d8486aee079",
      "blockNumber": "0x16939b0",
      "gasUsed": "0xcfdb",
      "effectiveGasPrice": "0xc48251f80",
      "blobGasUsed": "0x64",
      "from": "0x2738f38fde510743e0c589415e0598c4cee6eaa7",
      "to": "0x85bee67d435a39f7467a8a9de34a5b73d25df426",
      "contractAddress": null
    },
    {
      "type": "0x2",
      "status": "0x1",
      "cumulativeGasUsed": "0x1841d",
      "logs": [
        {
          "address": "0x85bee67d435a39f7467a8a9de34a5b73d25df426",
          "topics": [
            "0xf0e5abe4ab32ea692e3889b4c146fd4ddae5f17bb40ab4feba97fb67a2d4de0f",
            "0x00000000000000000000000061af6d7f1acea32e8971f6acb76236eb53367ad5"
          ],
          "data": "0x0000000000000000000000000000000000000000000000000000000000000001",
          "blockHash": "0x20e63899ce080f78124ccda956be5200ac4b54ee4648eff5f8c0c226bd51133b",
          "blockNumber": "0x16939b2",
          "blockTimestamp": "0x69ea3746",
          "transactionHash": "0x03dd31dcfce6171180c19c596494d559ccc6cf7f356d094db312bdba7fb7276d",
          "transactionIndex": "0x1",
          "logIndex": "0x0",
          "removed": false
        }
      ],
      "logsBloom": "0x00000000000000000000000000000000000000000000000000000000000008000000000000000000000000000000000000000000040000000000000000000000100000080000000000000000000000000000000020000000000000000000000000000000000000080000000000000000000000000000040000000000000000000000000000000000000000000000000000000000000000000000000000000000000000000000000000000000000000000000000000000000000000000000000000000080000000000000000000000000000000000000000000000000000000000000000000000000002000000000000000000000000000000000000000000000",
      "transactionHash": "0x03dd31dcfce6171180c19c596494d559ccc6cf7f356d094db312bdba7fb7276d",
      "transactionIndex": "0x1",
      "blockHash": "0x20e63899ce080f78124ccda956be5200ac4b54ee4648eff5f8c0c226bd51133b",
      "blockNumber": "0x16939b2",
      "gasUsed": "0xcfe7",
      "effectiveGasPrice": "0xc48251f80",
      "blobGasUsed": "0x64",
      "from": "0x2738f38fde510743e0c589415e0598c4cee6eaa7",
      "to": "0x85bee67d435a39f7467a8a9de34a5b73d25df426",
      "contractAddress": null
    },
    {
      "type": "0x2",
      "status": "0x1",
      "cumulativeGasUsed": "0x18410",
      "logs": [
        {
          "address": "0x85bee67d435a39f7467a8a9de34a5b73d25df426",
          "topics": [
            "0x966c160e1c4dbc7df8d69af4ace01e9297c3cf016397b7914971f2fbfa32672d",
            "0x00000000000000000000000061af6d7f1acea32e8971f6acb76236eb53367ad5"
          ],
          "data": "0x0000000000000000000000000000000000000000000000000000000000000001",
          "blockHash": "0x438251492ba9e84a79523c7263dcccf73a496c2a196b2a3652eac6a9bf6b5285",
          "blockNumber": "0x16939b5",
          "blockTimestamp": "0x69ea3749",
          "transactionHash": "0xdf1974bb3a7d6fbc6b5dc3b58d8560973572ea0055252dc0547d217927216e71",
          "transactionIndex": "0x1",
          "logIndex": "0x0",
          "removed": false
        }
      ],
      "logsBloom": "0x00000000000000000000100000000000000000000000000000000000000008000000000000000000000000000000000000000000000000000000000000000000000000080000000000000000000000000000000000000000000000000000000000000000000000080000000000000000020000000000040000000000000000000000000000000000000000000000000000000000000000000000000000000000000000000000000000000000000000000000000000000000000000000000000000000080000000000000000000000000000000000000000000000000000000000000000000000000002000100000000000000000000000000000000000000000",
      "transactionHash": "0xdf1974bb3a7d6fbc6b5dc3b58d8560973572ea0055252dc0547d217927216e71",
      "transactionIndex": "0x1",
      "blockHash": "0x438251492ba9e84a79523c7263dcccf73a496c2a196b2a3652eac6a9bf6b5285",
      "blockNumber": "0x16939b5",
      "gasUsed": "0xcfda",
      "effectiveGasPrice": "0xc48251f80",
      "blobGasUsed": "0x64",
      "from": "0x2738f38fde510743e0c589415e0598c4cee6eaa7",
      "to": "0x85bee67d435a39f7467a8a9de34a5b73d25df426",
      "contractAddress": null
    },
    {
      "type": "0x2",
      "status": "0x1",
      "cumulativeGasUsed": "0x18b83",
      "logs": [
        {
          "address": "0xfd5295e75ffea02780b0e2638d9fabb0316fd4e0",
          "topics": [
            "0x133037347700fe9a7e5fffb139c832853fc52536035550fc6bc3b3f6207fd875",
            "0x000000000000000000000000065ae7d4e207c8f4dca112d0b79e668cc7e93e03"
          ],
          "data": "0x0000000000000000000000000000000000000000000000000000000000000001",
          "blockHash": "0x8f32f81990f85cb2ded771e7c3dadc373339c15b204e4088c9ff8cb3667111e9",
          "blockNumber": "0x16939b8",
          "blockTimestamp": "0x69ea374c",
          "transactionHash": "0x5507e5819ef413b87392e9d636b769066c80e93c13d5e26b42211778f8c855ca",
          "transactionIndex": "0x1",
          "logIndex": "0x0",
          "removed": false
        }
      ],
      "logsBloom": "0x00000000000000000000000010000000000000000000000000000000000000000000000000010000000000000000000000000000000008000000000000000000000000000000000000000000000000000000000000000000000000000000000000000000000000004000000000000000000000000000000000000000000000000000000000000000000000000000000000000000000000000000000000000000000000000000000000000000000100000000000000000000000000000000000000000000000000000000000000000000000000000000000000000000000000800001000000000000000000000000000000002000000000000000000000000004",
      "transactionHash": "0x5507e5819ef413b87392e9d636b769066c80e93c13d5e26b42211778f8c855ca",
      "transactionIndex": "0x1",
      "blockHash": "0x8f32f81990f85cb2ded771e7c3dadc373339c15b204e4088c9ff8cb3667111e9",
      "blockNumber": "0x16939b8",
      "gasUsed": "0xd74d",
      "effectiveGasPrice": "0xc48251f80",
      "blobGasUsed": "0x64",
      "from": "0x2738f38fde510743e0c589415e0598c4cee6eaa7",
      "to": "0xfd5295e75ffea02780b0e2638d9fabb0316fd4e0",
      "contractAddress": null
    },
    {
      "type": "0x2",
      "status": "0x1",
      "cumulativeGasUsed": "0x3a4bb",
      "logs": [
        {
          "address": "0x065ae7d4e207c8f4dca112d0b79e668cc7e93e03",
          "topics": [
            "0x5865b763d2fcaa2023d34f5622fec93cfc34b82e8625c1e622b9a6cb47a69239",
            "0x000000000000000000000000fd5295e75ffea02780b0e2638d9fabb0316fd4e0"
          ],
          "data": "0x000000000000000000000000fd5295e75ffea02780b0e2638d9fabb0316fd4e000000000000000000000000085bee67d435a39f7467a8a9de34a5b73d25df426000000000000000000000000000000000000000000000000000000000000012c0000000000000000000000002738f38fde510743e0c589415e0598c4cee6eaa70000000000000000000000000000000000000000000000000001c6bf5263400000000000000000000000000000000000000000000000000000000000000000000000000000000000000000000000000000000000000000000001c6bf526340000000000000000000000000000000000000000000000000000000000000000000",
          "blockHash": "0x8007c7524af4d09dec9cf1ac4a916d5560c4cefeec7f3c17bf0b7c9db2acb3b2",
          "blockNumber": "0x16939bb",
          "blockTimestamp": "0x69ea374f",
          "transactionHash": "0xc2833abfec03528de9f8e4e61d85f1874d03d68094a33ef2d9f5f86901c80832",
          "transactionIndex": "0x1",
          "logIndex": "0x0",
          "removed": false
        }
      ],
      "logsBloom": "0x00000000000001000000000000000200000400000000000000000000000000000000000000000000000000000000000000000000000000000000000000000000000000000000000000000000000000000000000000000000000080000000000000000000000000000000000000000004000000000000000000000000000000000000000000000000000000000000000000000000000000000000000000000000000000000000000800000000000000000000000000000000000000000000000000000000000000000000000000000000000000000000002000000000000000000000000000000008000000000000000000000000000000000000000000080000",
      "transactionHash": "0xc2833abfec03528de9f8e4e61d85f1874d03d68094a33ef2d9f5f86901c80832",
      "transactionIndex": "0x1",
      "blockHash": "0x8007c7524af4d09dec9cf1ac4a916d5560c4cefeec7f3c17bf0b7c9db2acb3b2",
      "blockNumber": "0x16939bb",
      "gasUsed": "0x2f085",
      "effectiveGasPrice": "0xc48251f80",
      "blobGasUsed": "0xcb",
      "from": "0x2738f38fde510743e0c589415e0598c4cee6eaa7",
      "to": "0x065ae7d4e207c8f4dca112d0b79e668cc7e93e03",
      "contractAddress": null
    },
    {
      "type": "0x2",
      "status": "0x1",
      "cumulativeGasUsed": "0x13432",
      "logs": [
        {
          "address": "0xed2ae3d1af45956d5fcfb519a998e91b8cd3546b",
          "topics": [
            "0x7e0a6614158456b5ff78485738c59d16f2be04a2d3943e66ea440c438a53cbff",
            "0x000000000000000000000000403ea4186ce479ff162636c37fdf4086bd286f8c",
            "0x000000000000000000000000403ea4186ce479ff162636c37fdf4086bd286f8c"
          ],
          "data": "0x",
          "blockHash": "0x0e28f3e1ef4b0c6b95de74b09dc1b174dafc81646cc291f21f2c3b7bf6c4ad41",
          "blockNumber": "0x16939bd",
          "blockTimestamp": "0x69ea3751",
          "transactionHash": "0xfff94dabf4bb51763184b2ba48ebbbc64c1cfda4a0c75952c41a16e3a9406229",
          "transactionIndex": "0x1",
          "logIndex": "0x0",
          "removed": false
        }
      ],
      "logsBloom": "0x00000000000000000000000000000000000000000000000000000000000000000000000000000000000000000000000000000000000000000000080000000000020000000000000000000000000000000000000000000000000000000000000000000000000000000000000000000000000000000000000000000000000000000000000000000000000000000000000000000000000000000000000000000000000000000000000000000000000000000080000000000200000800000000000000000004000000000000004000000000000000000000000000000000000000000000002000000000000000000000400000000000000000000000000000000000",
      "transactionHash": "0xfff94dabf4bb51763184b2ba48ebbbc64c1cfda4a0c75952c41a16e3a9406229",
      "transactionIndex": "0x1",
      "blockHash": "0x0e28f3e1ef4b0c6b95de74b09dc1b174dafc81646cc291f21f2c3b7bf6c4ad41",
      "blockNumber": "0x16939bd",
      "gasUsed": "0x7ffc",
      "effectiveGasPrice": "0xc48251f80",
      "blobGasUsed": "0x64",
      "from": "0x2738f38fde510743e0c589415e0598c4cee6eaa7",
      "to": "0xed2ae3d1af45956d5fcfb519a998e91b8cd3546b",
      "contractAddress": null
    },
    {
      "type": "0x2",
      "status": "0x1",
      "cumulativeGasUsed": "0x183f9",
      "logs": [
        {
          "address": "0xde9e4c3ce781b4ba68120d6261cbad65ce0ab00b",
          "topics": [
            "0xb21afb9ce9be0a676f8f317ff0ca072fb89a4f8ce2d1b6fe80f8755c14f1cb19",
            "0x000000000000000000000000f179d705706cd959884e40b1ea21c95ec84d9e14"
          ],
          "data": "0x0000000000000000000000000000000000000000000000000000000000000001",
          "blockHash": "0x2c88b928ea90caac67ce2810455a0c0662e9b852ce60656428918f6f6478c9cc",
          "blockNumber": "0x16939c0",
          "blockTimestamp": "0x69ea3754",
          "transactionHash": "0xfd7e056381fd5972c5bad103935259f49fc28d8f6950af032c36fde1fbc5f10d",
          "transactionIndex": "0x1",
          "logIndex": "0x0",
          "removed": false
        }
      ],
      "logsBloom": "0x00000000000000000000000000000000000000000000000000000000000000000000000000000000000000000000000000000040000000040000000000000080000000000000000000000000000000000000000000000008000000000000000000000000000000000000000000000000000000000000000000000000000000000000000000000000000000000000000000000000000000000000200000000000000000000000002000000000000000000000000000000000000000000000400000000000000000000000000000000000000000000000000000000000800000000000000004000000000000000000000000000000000000000000000000000000",
      "transactionHash": "0xfd7e056381fd5972c5bad103935259f49fc28d8f6950af032c36fde1fbc5f10d",
      "transactionIndex": "0x1",
      "blockHash": "0x2c88b928ea90caac67ce2810455a0c0662e9b852ce60656428918f6f6478c9cc",
      "blockNumber": "0x16939c0",
      "gasUsed": "0xcfc3",
      "effectiveGasPrice": "0xc48251f80",
      "blobGasUsed": "0x64",
      "from": "0x2738f38fde510743e0c589415e0598c4cee6eaa7",
      "to": "0xde9e4c3ce781b4ba68120d6261cbad65ce0ab00b",
      "contractAddress": null
    },
    {
      "type": "0x2",
      "status": "0x1",
      "cumulativeGasUsed": "0x1841d",
      "logs": [
        {
          "address": "0x85bee67d435a39f7467a8a9de34a5b73d25df426",
          "topics": [
            "0xf0e5abe4ab32ea692e3889b4c146fd4ddae5f17bb40ab4feba97fb67a2d4de0f",
            "0x000000000000000000000000f179d705706cd959884e40b1ea21c95ec84d9e14"
          ],
          "data": "0x0000000000000000000000000000000000000000000000000000000000000001",
          "blockHash": "0x59e015b2ea4d227b173687892d26a06193fa5145d8e6cfb6cff08b6c4f4f6f34",
          "blockNumber": "0x16939c2",
          "blockTimestamp": "0x69ea3756",
          "transactionHash": "0x80a7db41da487666beefd4e826abad0ae822dc1b3b74bb1846b9ade5cd951344",
          "transactionIndex": "0x1",
          "logIndex": "0x0",
          "removed": false
        }
      ],
      "logsBloom": "0x00000000000000000000000000000000000000000000000000000000000000000000000000000000000000000000000000000000040000000000000000000000100000080000000000000000000000000000000020000000000000000000000000000000000000000000000000000000000000000000040000000000000000000000000000000000000000000000000000000000000000000000000000000000000000000000002000000000000000000000000000000000000000000000400000000080000000000000000000000000000000000000000000000000000000000000000004000000000000000000000000000000000000000000000000000000",
      "transactionHash": "0x80a7db41da487666beefd4e826abad0ae822dc1b3b74bb1846b9ade5cd951344",
      "transactionIndex": "0x1",
      "blockHash": "0x59e015b2ea4d227b173687892d26a06193fa5145d8e6cfb6cff08b6c4f4f6f34",
      "blockNumber": "0x16939c2",
      "gasUsed": "0xcfe7",
      "effectiveGasPrice": "0xc48251f80",
      "blobGasUsed": "0x64",
      "from": "0x2738f38fde510743e0c589415e0598c4cee6eaa7",
      "to": "0x85bee67d435a39f7467a8a9de34a5b73d25df426",
      "contractAddress": null
    },
    {
      "type": "0x2",
      "status": "0x1",
      "cumulativeGasUsed": "0x14da4",
      "logs": [
        {
          "address": "0x471ece3750da237f93b8e339c536989b8978a438",
          "topics": [
            "0xddf252ad1be2c89b69c2b068fc378daa952ba7f163c4a11628f55a4df523b3ef",
            "0x0000000000000000000000002738f38fde510743e0c589415e0598c4cee6eaa7",
            "0x000000000000000000000000f179d705706cd959884e40b1ea21c95ec84d9e14"
          ],
          "data": "0x0000000000000000000000000000000000000000000000000de0b6b3a7640000",
          "blockHash": "0x32e5d7d1fd63db2c36111ea52466d7b5cdf71b11275754f86ce17aa04f40312d",
          "blockNumber": "0x16939c5",
          "blockTimestamp": "0x69ea3759",
          "transactionHash": "0xe43e40bdd20abe437701570d041325fd54fc6852da2689b83a7c2f784898daf0",
          "transactionIndex": "0x1",
          "logIndex": "0x0",
          "removed": false
        }
      ],
      "logsBloom": "0x00000000000000000000000000000000000000000000000000000000000000000000000000000000000100000000000000000000000000000000000000000000002000000000000000000008000000000000000000000000000000000000000000000000000000000000000040000000000000000000000000000010000000000000000000000000000000000000000000000000000000000000000000000010000000000000002000000000000000000000000000000000000000000000400000000802000000000000000000000000000000000000000000000000000000000000000004000000000000000000000000000000000000000000000004000000",
      "transactionHash": "0xe43e40bdd20abe437701570d041325fd54fc6852da2689b83a7c2f784898daf0",
      "transactionIndex": "0x1",
      "blockHash": "0x32e5d7d1fd63db2c36111ea52466d7b5cdf71b11275754f86ce17aa04f40312d",
      "blockNumber": "0x16939c5",
      "gasUsed": "0x996e",
      "effectiveGasPrice": "0xc48251f80",
      "blobGasUsed": "0x64",
      "from": "0x2738f38fde510743e0c589415e0598c4cee6eaa7",
      "to": "0x471ece3750da237f93b8e339c536989b8978a438",
      "contractAddress": null
    },
    {
      "type": "0x2",
      "status": "0x1",
      "cumulativeGasUsed": "0xe9aca",
      "logs": [
        {
          "address": "0xde9e4c3ce781b4ba68120d6261cbad65ce0ab00b",
          "topics": [
            "0xddf252ad1be2c89b69c2b068fc378daa952ba7f163c4a11628f55a4df523b3ef",
            "0x0000000000000000000000000000000000000000000000000000000000000000",
            "0x000000000000000000000000f179d705706cd959884e40b1ea21c95ec84d9e14"
          ],
          "data": "0x0000000000000000000000000000000000000000000000db767bb7b51bded695",
          "blockHash": "0x21779739ad91b9fb354ad4973b3262855d4e6fd03fb5c3c36497decd67117287",
          "blockNumber": "0x16939c7",
          "blockTimestamp": "0x69ea375b",
          "transactionHash": "0x123c6345fb2c7290d9f1bfe7d4cbd83524acbd5c78d50f113c30a41446c5df73",
          "transactionIndex": "0x1",
          "logIndex": "0x0",
          "removed": false
        },
        {
          "address": "0xde9e4c3ce781b4ba68120d6261cbad65ce0ab00b",
          "topics": [
            "0x8c5be1e5ebec7d5bd14f71427d1e84f3dd0314c0f7b2291e5b200ac8c7c3b925",
            "0x000000000000000000000000f179d705706cd959884e40b1ea21c95ec84d9e14",
            "0x0000000000000000000000006eecde8082e2c6039fea88a66fb71145c216bbfd"
          ],
          "data": "0x0000000000000000000000000000000000000000000000db767bb7b51bded695",
          "blockHash": "0x21779739ad91b9fb354ad4973b3262855d4e6fd03fb5c3c36497decd67117287",
          "blockNumber": "0x16939c7",
          "blockTimestamp": "0x69ea375b",
          "transactionHash": "0x123c6345fb2c7290d9f1bfe7d4cbd83524acbd5c78d50f113c30a41446c5df73",
          "transactionIndex": "0x1",
          "logIndex": "0x1",
          "removed": false
        },
        {
          "address": "0x471ece3750da237f93b8e339c536989b8978a438",
          "topics": [
            "0x8c5be1e5ebec7d5bd14f71427d1e84f3dd0314c0f7b2291e5b200ac8c7c3b925",
            "0x000000000000000000000000f179d705706cd959884e40b1ea21c95ec84d9e14",
            "0x0000000000000000000000006eecde8082e2c6039fea88a66fb71145c216bbfd"
          ],
          "data": "0x0000000000000000000000000000000000000000000000000de0b6b3a7640000",
          "blockHash": "0x21779739ad91b9fb354ad4973b3262855d4e6fd03fb5c3c36497decd67117287",
          "blockNumber": "0x16939c7",
          "blockTimestamp": "0x69ea375b",
          "transactionHash": "0x123c6345fb2c7290d9f1bfe7d4cbd83524acbd5c78d50f113c30a41446c5df73",
          "transactionIndex": "0x1",
          "logIndex": "0x2",
          "removed": false
        },
        {
          "address": "0x6eecde8082e2c6039fea88a66fb71145c216bbfd",
          "topics": [
            "0x3942babd464ceb1c7d319f75245a8cd41334592b45507f072e7020e63c22a8dc",
            "0x25cbc463c51b5fc5f7c67821d86c0f89937636973226a37446e54d82e18841e5"
          ],
          "data": "0x0000000000000000000000000000000000000000000000000000000000000000",
          "blockHash": "0x21779739ad91b9fb354ad4973b3262855d4e6fd03fb5c3c36497decd67117287",
          "blockNumber": "0x16939c7",
          "blockTimestamp": "0x69ea375b",
          "transactionHash": "0x123c6345fb2c7290d9f1bfe7d4cbd83524acbd5c78d50f113c30a41446c5df73",
          "transactionIndex": "0x1",
          "logIndex": "0x3",
          "removed": false
        },
        {
          "address": "0x6eecde8082e2c6039fea88a66fb71145c216bbfd",
          "topics": [
            "0x649442545e0f313a6d8087b19bc47bd2bd9b63f79d23a773446e00d2ea01d169",
            "0x25cbc463c51b5fc5f7c67821d86c0f89937636973226a37446e54d82e18841e5"
          ],
          "data": "0x00000000000000000000000000000000000000000000000000000000000000000000000000000000000000000000000000000000000000000000000000000000",
          "blockHash": "0x21779739ad91b9fb354ad4973b3262855d4e6fd03fb5c3c36497decd67117287",
          "blockNumber": "0x16939c7",
          "blockTimestamp": "0x69ea375b",
          "transactionHash": "0x123c6345fb2c7290d9f1bfe7d4cbd83524acbd5c78d50f113c30a41446c5df73",
          "transactionIndex": "0x1",
          "logIndex": "0x4",
          "removed": false
        },
        {
          "address": "0x85bee67d435a39f7467a8a9de34a5b73d25df426",
          "topics": [
            "0xddf252ad1be2c89b69c2b068fc378daa952ba7f163c4a11628f55a4df523b3ef",
            "0x0000000000000000000000000000000000000000000000000000000000000000",
            "0x0000000000000000000000002738f38fde510743e0c589415e0598c4cee6eaa7"
          ],
          "data": "0x00000000000000000000000000000000000000000000000324c5f47a1366a14c",
          "blockHash": "0x21779739ad91b9fb354ad4973b3262855d4e6fd03fb5c3c36497decd67117287",
          "blockNumber": "0x16939c7",
          "blockTimestamp": "0x69ea375b",
          "transactionHash": "0x123c6345fb2c7290d9f1bfe7d4cbd83524acbd5c78d50f113c30a41446c5df73",
          "transactionIndex": "0x1",
          "logIndex": "0x5",
          "removed": false
        },
        {
          "address": "0x85bee67d435a39f7467a8a9de34a5b73d25df426",
          "topics": [
            "0xddf252ad1be2c89b69c2b068fc378daa952ba7f163c4a11628f55a4df523b3ef",
            "0x0000000000000000000000000000000000000000000000000000000000000000",
            "0x00000000000000000000000061af6d7f1acea32e8971f6acb76236eb53367ad5"
          ],
          "data": "0x0000000000000000000000000000000000000000000000096e51dd6e3a33e3e4",
          "blockHash": "0x21779739ad91b9fb354ad4973b3262855d4e6fd03fb5c3c36497decd67117287",
          "blockNumber": "0x16939c7",
          "blockTimestamp": "0x69ea375b",
          "transactionHash": "0x123c6345fb2c7290d9f1bfe7d4cbd83524acbd5c78d50f113c30a41446c5df73",
          "transactionIndex": "0x1",
          "logIndex": "0x6",
          "removed": false
        },
        {
          "address": "0xde9e4c3ce781b4ba68120d6261cbad65ce0ab00b",
          "topics": [
            "0x8c5be1e5ebec7d5bd14f71427d1e84f3dd0314c0f7b2291e5b200ac8c7c3b925",
            "0x000000000000000000000000f179d705706cd959884e40b1ea21c95ec84d9e14",
            "0x0000000000000000000000006eecde8082e2c6039fea88a66fb71145c216bbfd"
          ],
          "data": "0x0000000000000000000000000000000000000000000000000000000000000000",
          "blockHash": "0x21779739ad91b9fb354ad4973b3262855d4e6fd03fb5c3c36497decd67117287",
          "blockNumber": "0x16939c7",
          "blockTimestamp": "0x69ea375b",
          "transactionHash": "0x123c6345fb2c7290d9f1bfe7d4cbd83524acbd5c78d50f113c30a41446c5df73",
          "transactionIndex": "0x1",
          "logIndex": "0x7",
          "removed": false
        },
        {
          "address": "0xde9e4c3ce781b4ba68120d6261cbad65ce0ab00b",
          "topics": [
            "0xddf252ad1be2c89b69c2b068fc378daa952ba7f163c4a11628f55a4df523b3ef",
            "0x000000000000000000000000f179d705706cd959884e40b1ea21c95ec84d9e14",
            "0x000000000000000000000000c2839d42690cf4ebcb31a77f874ecc3eafce1d82"
          ],
          "data": "0x0000000000000000000000000000000000000000000000db767bb7b51bded695",
          "blockHash": "0x21779739ad91b9fb354ad4973b3262855d4e6fd03fb5c3c36497decd67117287",
          "blockNumber": "0x16939c7",
          "blockTimestamp": "0x69ea375b",
          "transactionHash": "0x123c6345fb2c7290d9f1bfe7d4cbd83524acbd5c78d50f113c30a41446c5df73",
          "transactionIndex": "0x1",
          "logIndex": "0x8",
          "removed": false
        },
        {
          "address": "0xc2839d42690cf4ebcb31a77f874ecc3eafce1d82",
          "topics": [
            "0x9bbe217b4113a0fc957e51f8db99c9989f520e3c6bcca7a8e12c6316eaf995bf"
          ],
          "data": "0x0000000000000000000000000000000000000000000000db767bb7b51bded695",
          "blockHash": "0x21779739ad91b9fb354ad4973b3262855d4e6fd03fb5c3c36497decd67117287",
          "blockNumber": "0x16939c7",
          "blockTimestamp": "0x69ea375b",
          "transactionHash": "0x123c6345fb2c7290d9f1bfe7d4cbd83524acbd5c78d50f113c30a41446c5df73",
          "transactionIndex": "0x1",
          "logIndex": "0x9",
          "removed": false
        },
        {
          "address": "0x85bee67d435a39f7467a8a9de34a5b73d25df426",
          "topics": [
            "0xddf252ad1be2c89b69c2b068fc378daa952ba7f163c4a11628f55a4df523b3ef",
            "0x0000000000000000000000000000000000000000000000000000000000000000",
            "0x000000000000000000000000f179d705706cd959884e40b1ea21c95ec84d9e14"
          ],
          "data": "0x00000000000000000000000000000000000000000000555fd24ba10437c59ec6",
          "blockHash": "0x21779739ad91b9fb354ad4973b3262855d4e6fd03fb5c3c36497decd67117287",
          "blockNumber": "0x16939c7",
          "blockTimestamp": "0x69ea375b",
          "transactionHash": "0x123c6345fb2c7290d9f1bfe7d4cbd83524acbd5c78d50f113c30a41446c5df73",
          "transactionIndex": "0x1",
          "logIndex": "0xa",
          "removed": false
        },
        {
          "address": "0x471ece3750da237f93b8e339c536989b8978a438",
          "topics": [
            "0xddf252ad1be2c89b69c2b068fc378daa952ba7f163c4a11628f55a4df523b3ef",
            "0x000000000000000000000000f179d705706cd959884e40b1ea21c95ec84d9e14",
            "0x000000000000000000000000c837c62ed126ba699dc1c18da2b1d1026874a731"
          ],
          "data": "0x0000000000000000000000000000000000000000000000000de0b6b3a7640000",
          "blockHash": "0x21779739ad91b9fb354ad4973b3262855d4e6fd03fb5c3c36497decd67117287",
          "blockNumber": "0x16939c7",
          "blockTimestamp": "0x69ea375b",
          "transactionHash": "0x123c6345fb2c7290d9f1bfe7d4cbd83524acbd5c78d50f113c30a41446c5df73",
          "transactionIndex": "0x1",
          "logIndex": "0xb",
          "removed": false
        },
        {
          "address": "0x051185ef61089606cbbe693eba4671245d381ec3",
          "topics": [
            "0xddf252ad1be2c89b69c2b068fc378daa952ba7f163c4a11628f55a4df523b3ef",
            "0x0000000000000000000000000000000000000000000000000000000000000000",
            "0x0000000000000000000000002738f38fde510743e0c589415e0598c4cee6eaa7",
            "0x25cbc463c51b5fc5f7c67821d86c0f89937636973226a37446e54d82e18841e5"
          ],
          "data": "0x",
          "blockHash": "0x21779739ad91b9fb354ad4973b3262855d4e6fd03fb5c3c36497decd67117287",
          "blockNumber": "0x16939c7",
          "blockTimestamp": "0x69ea375b",
          "transactionHash": "0x123c6345fb2c7290d9f1bfe7d4cbd83524acbd5c78d50f113c30a41446c5df73",
          "transactionIndex": "0x1",
          "logIndex": "0xc",
          "removed": false
        },
        {
          "address": "0xed54259166ebbfe72083fc37ee2a00e922fba84d",
          "topics": [
            "0x0fba2673863b12c7b8463f3fa2f9b0cb1d534c573cdec5b5d895ee00d6ce6f5e",
            "0x25cbc463c51b5fc5f7c67821d86c0f89937636973226a37446e54d82e18841e5"
          ],
          "data": "0x00000000000000000000000000000000000000000000556c656372ec856023f60000000000000000000000000000000000000000000000db767bb7b51bded6950000000000000000000000000000000000000000000000db767bb7b51bded695000000000000000000000000000000000000000000000000006a94d74f43000000000000000000000000000000000000000000000000000000000000000000000000000000000000000000000000000000000000000000000000000000000000",
          "blockHash": "0x21779739ad91b9fb354ad4973b3262855d4e6fd03fb5c3c36497decd67117287",
          "blockNumber": "0x16939c7",
          "blockTimestamp": "0x69ea375b",
          "transactionHash": "0x123c6345fb2c7290d9f1bfe7d4cbd83524acbd5c78d50f113c30a41446c5df73",
          "transactionIndex": "0x1",
          "logIndex": "0xd",
          "removed": false
        },
        {
          "address": "0xed54259166ebbfe72083fc37ee2a00e922fba84d",
          "topics": [
            "0x962110f281c1213763cd97a546b337b3cbfd25a31ea9723e9d8b7376ba45da1a",
            "0x25cbc463c51b5fc5f7c67821d86c0f89937636973226a37446e54d82e18841e5"
          ],
          "data": "0x0000000000000000000000000000000000000000000000000000000000000000000000000000000000000000000000000000000000000000006a94d74f430000000000000000000000000000000000000000000000000000000000000000000000000000000000000000000000000000000000000000000c9317d1e84d9a853000000000000000000000000000000000000000000000555fd24ba10437c59ec600000000000000000000000000000000000000000000000000000000000000000000000000000000000000000000000000000000000000db767bb7b51bded695",
          "blockHash": "0x21779739ad91b9fb354ad4973b3262855d4e6fd03fb5c3c36497decd67117287",
          "blockNumber": "0x16939c7",
          "blockTimestamp": "0x69ea375b",
          "transactionHash": "0x123c6345fb2c7290d9f1bfe7d4cbd83524acbd5c78d50f113c30a41446c5df73",
          "transactionIndex": "0x1",
          "logIndex": "0xe",
          "removed": false
        },
        {
          "address": "0x85bee67d435a39f7467a8a9de34a5b73d25df426",
          "topics": [
            "0xddf252ad1be2c89b69c2b068fc378daa952ba7f163c4a11628f55a4df523b3ef",
            "0x000000000000000000000000f179d705706cd959884e40b1ea21c95ec84d9e14",
            "0x0000000000000000000000000000000000000000000000000000000000000000"
          ],
          "data": "0x00000000000000000000000000000000000000000000555fd24ba10437c59ec6",
          "blockHash": "0x21779739ad91b9fb354ad4973b3262855d4e6fd03fb5c3c36497decd67117287",
          "blockNumber": "0x16939c7",
          "blockTimestamp": "0x69ea375b",
          "transactionHash": "0x123c6345fb2c7290d9f1bfe7d4cbd83524acbd5c78d50f113c30a41446c5df73",
          "transactionIndex": "0x1",
          "logIndex": "0xf",
          "removed": false
        },
        {
          "address": "0xf179d705706cd959884e40b1ea21c95ec84d9e14",
          "topics": [
            "0x9f6aa3c522783fd3e83c888a4d0c5452e521fb7518cec88c8468b56cec4665a9",
            "0x000000000000000000000000812e5ccec5e55b81f4270898fdf1c916e3a284fb",
            "0x25cbc463c51b5fc5f7c67821d86c0f89937636973226a37446e54d82e18841e5"
          ],
          "data": "0x00000000000000000000000000000000000000000000555fd24ba10437c59ec60000000000000000000000000000000000000000000000db767bb7b51bded695",
          "blockHash": "0x21779739ad91b9fb354ad4973b3262855d4e6fd03fb5c3c36497decd67117287",
          "blockNumber": "0x16939c7",
          "blockTimestamp": "0x69ea375b",
          "transactionHash": "0x123c6345fb2c7290d9f1bfe7d4cbd83524acbd5c78d50f113c30a41446c5df73",
          "transactionIndex": "0x1",
          "logIndex": "0x10",
          "removed": false
        }
      ],
      "logsBloom": "0x002010200000000000000000000000c00040100000010000100000000000880000008000000002000001000000000010000000400000000000000000042000000020000800000020040000080000000000000004000000080000008000000000000000010200000800000000400008000000000000002480000000100080001002400000000000000000000000000000000000000000000000000020000020100200000000000020000000000000000001000a0000008000000080004000420000000882000000000000000000000000000000000040000000020000800020000010000004000000002200010042100010000000880000000000000004082000",
      "transactionHash": "0x123c6345fb2c7290d9f1bfe7d4cbd83524acbd5c78d50f113c30a41446c5df73",
      "transactionIndex": "0x1",
      "blockHash": "0x21779739ad91b9fb354ad4973b3262855d4e6fd03fb5c3c36497decd67117287",
      "blockNumber": "0x16939c7",
      "gasUsed": "0xde694",
      "effectiveGasPrice": "0xc48251f80",
      "blobGasUsed": "0x69",
      "from": "0x2738f38fde510743e0c589415e0598c4cee6eaa7",
      "to": "0xf179d705706cd959884e40b1ea21c95ec84d9e14",
      "contractAddress": null
    },
    {
      "type": "0x2",
      "status": "0x1",
      "cumulativeGasUsed": "0x12e61",
      "logs": [
        {
          "address": "0xde9e4c3ce781b4ba68120d6261cbad65ce0ab00b",
          "topics": [
            "0xb21afb9ce9be0a676f8f317ff0ca072fb89a4f8ce2d1b6fe80f8755c14f1cb19",
            "0x000000000000000000000000f179d705706cd959884e40b1ea21c95ec84d9e14"
          ],
          "data": "0x0000000000000000000000000000000000000000000000000000000000000000",
          "blockHash": "0xc5823527b9c28f65ec40f7621b8a6b51db8f37af9b03ae8494d39cb3df856e44",
          "blockNumber": "0x16939c9",
          "blockTimestamp": "0x69ea375d",
          "transactionHash": "0xa1acfe74544e77b5d09964088b0bc28ece5cdc5c651e3d0457659cc381cc7bef",
          "transactionIndex": "0x1",
          "logIndex": "0x0",
          "removed": false
        }
      ],
      "logsBloom": "0x00000000000000000000000000000000000000000000000000000000000000000000000000000000000000000000000000000040000000040000000000000080000000000000000000000000000000000000000000000008000000000000000000000000000000000000000000000000000000000000000000000000000000000000000000000000000000000000000000000000000000000000200000000000000000000000002000000000000000000000000000000000000000000000400000000000000000000000000000000000000000000000000000000000800000000000000004000000000000000000000000000000000000000000000000000000",
      "transactionHash": "0xa1acfe74544e77b5d09964088b0bc28ece5cdc5c651e3d0457659cc381cc7bef",
      "transactionIndex": "0x1",
      "blockHash": "0xc5823527b9c28f65ec40f7621b8a6b51db8f37af9b03ae8494d39cb3df856e44",
      "blockNumber": "0x16939c9",
      "gasUsed": "0x7a2b",
      "effectiveGasPrice": "0xc48251f80",
      "blobGasUsed": "0x64",
      "from": "0x2738f38fde510743e0c589415e0598c4cee6eaa7",
      "to": "0xde9e4c3ce781b4ba68120d6261cbad65ce0ab00b",
      "contractAddress": null
    },
    {
      "type": "0x2",
      "status": "0x1",
      "cumulativeGasUsed": "0x12e85",
      "logs": [
        {
          "address": "0x85bee67d435a39f7467a8a9de34a5b73d25df426",
          "topics": [
            "0xf0e5abe4ab32ea692e3889b4c146fd4ddae5f17bb40ab4feba97fb67a2d4de0f",
            "0x000000000000000000000000f179d705706cd959884e40b1ea21c95ec84d9e14"
          ],
          "data": "0x0000000000000000000000000000000000000000000000000000000000000000",
          "blockHash": "0xfdd126dcd069bdee05ce6e7b82ad78a80534c56af8c50b62a2265ce32f48eb45",
          "blockNumber": "0x16939cc",
          "blockTimestamp": "0x69ea3760",
          "transactionHash": "0xf946e8fb6cf72971f554b0639aca4c09e78f4e66705a0c172f5c26c411957924",
          "transactionIndex": "0x1",
          "logIndex": "0x0",
          "removed": false
        }
      ],
      "logsBloom": "0x00000000000000000000000000000000000000000000000000000000000000000000000000000000000000000000000000000000040000000000000000000000100000080000000000000000000000000000000020000000000000000000000000000000000000000000000000000000000000000000040000000000000000000000000000000000000000000000000000000000000000000000000000000000000000000000002000000000000000000000000000000000000000000000400000000080000000000000000000000000000000000000000000000000000000000000000004000000000000000000000000000000000000000000000000000000",
      "transactionHash": "0xf946e8fb6cf72971f554b0639aca4c09e78f4e66705a0c172f5c26c411957924",
      "transactionIndex": "0x1",
      "blockHash": "0xfdd126dcd069bdee05ce6e7b82ad78a80534c56af8c50b62a2265ce32f48eb45",
      "blockNumber": "0x16939cc",
      "gasUsed": "0x7a4f",
      "effectiveGasPrice": "0xc48251f80",
      "blobGasUsed": "0x64",
      "from": "0x2738f38fde510743e0c589415e0598c4cee6eaa7",
      "to": "0x85bee67d435a39f7467a8a9de34a5b73d25df426",
      "contractAddress": null
    }
  ],
  "libraries": [
    "node_modules/@celo/contracts/common/linkedlists/AddressSortedLinkedListWithMedian.sol:AddressSortedLinkedListWithMedian:0xf90B816Ea07eC3c6384656cd5B3249DA8fc3df6F"
  ],
  "pending": [],
  "returns": {},
  "timestamp": 1776957280984,
  "chain": 11142220,
  "commit": "10de51a"
}