{
  "transactions": [
    {
      "hash": "0xb5aabfe2f8cf298e9bfb60ea4880a2cb9c8c434a7227309b0a0319cfdcac0417",
      "transactionType": "CALL",
      "contractName": null,
      "contractAddress": "0xecb3c656c131fcd9bb8d1d80898716bd684feb78",
      "function": "destroyExchange(bytes32,uint256)",
      "arguments": [
        "0x3ddbc61433314a4b7d3cbb56a001fc4cc0f1d52d64338336d5f2083a580ce4fc",
        "10"
      ],
      "transaction": {
        "from": "0x2738f38fde510743e0c589415e0598c4cee6eaa7",
        "to": "0xecb3c656c131fcd9bb8d1d80898716bd684feb78",
        "gas": "0x1c821",
        "value": "0x0",
        "input": "0xe46eb5b63ddbc61433314a4b7d3cbb56a001fc4cc0f1d52d64338336d5f2083a580ce4fc000000000000000000000000000000000000000000000000000000000000000a",
        "nonce": "0x2b1",
        "chainId": "0xaa044c"
      },
      "additionalContracts": [],
      "isFixedGasLimit": false
    },
    {
      "hash": "0xb481cdcfc5e5c47f2b69346a8e191b8db9e5144e0d787c922779ab01375cec92",
      "transactionType": "CALL",
      "contractName": null,
      "contractAddress": "0x284e9b7b623eae866914b7fa0eb720c2bb3c2980",
      "function": "setMinter(address,bool)",
      "arguments": [
        "0xB9Ae2065142EB79b6c5EB1E8778F883fad6B07Ba",
        "false"
      ],
      "transaction": {
        "from": "0x2738f38fde510743e0c589415e0598c4cee6eaa7",
        "to": "0x284e9b7b623eae866914b7fa0eb720c2bb3c2980",
        "gas": "0xb2ab",
        "value": "0x0",
        "input": "0xcf456ae7000000000000000000000000b9ae2065142eb79b6c5eb1e8778f883fad6b07ba0000000000000000000000000000000000000000000000000000000000000000",
        "nonce": "0x2b2",
        "chainId": "0xaa044c"
      },
      "additionalContracts": [],
      "isFixedGasLimit": false
    },
    {
      "hash": "0x658f327b7c6348f847380612168ce8495c239b0f5c3c7314b10dafa37615bcef",
      "transactionType": "CALL",
      "contractName": null,
      "contractAddress": "0x284e9b7b623eae866914b7fa0eb720c2bb3c2980",
      "function": "setBurner(address,bool)",
      "arguments": [
        "0xB9Ae2065142EB79b6c5EB1E8778F883fad6B07Ba",
        "false"
      ],
      "transaction": {
        "from": "0x2738f38fde510743e0c589415e0598c4cee6eaa7",
        "to": "0x284e9b7b623eae866914b7fa0eb720c2bb3c2980",
        "gas": "0xa8ef",
        "value": "0x0",
        "input": "0x0d895ee1000000000000000000000000b9ae2065142eb79b6c5eb1e8778f883fad6b07ba0000000000000000000000000000000000000000000000000000000000000000",
        "nonce": "0x2b3",
        "chainId": "0xaa044c"
      },
      "additionalContracts": [],
      "isFixedGasLimit": false
    },
    {
      "hash": "0x7725e3f5d54e7d3ac15768e2c78a9ca0b8fd43394984aaf3e377d65cd1f3f225",
      "transactionType": "CALL",
      "contractName": null,
      "contractAddress": "0x284e9b7b623eae866914b7fa0eb720c2bb3c2980",
      "function": "setMinter(address,bool)",
      "arguments": [
        "0x4f21869fcd5813184d324872cb732f4Eb8e9F5aB",
        "true"
      ],
      "transaction": {
        "from": "0x2738f38fde510743e0c589415e0598c4cee6eaa7",
        "to": "0x284e9b7b623eae866914b7fa0eb720c2bb3c2980",
        "gas": "0x12fd9",
        "value": "0x0",
        "input": "0xcf456ae70000000000000000000000004f21869fcd5813184d324872cb732f4eb8e9f5ab0000000000000000000000000000000000000000000000000000000000000001",
        "nonce": "0x2b4",
        "chainId": "0xaa044c"
      },
      "additionalContracts": [],
      "isFixedGasLimit": false
    },
    {
      "hash": "0x3f7649c42becbaf884ee0c2767c28d55e9a152539263e6de9f5e95f78c92f327",
      "transactionType": "CALL",
      "contractName": null,
      "contractAddress": "0x284e9b7b623eae866914b7fa0eb720c2bb3c2980",
      "function": "setMinter(address,bool)",
      "arguments": [
        "0x69B32DA57d04c23f7e58a9D8caA22095C9671954",
        "true"
      ],
      "transaction": {
        "from": "0x2738f38fde510743e0c589415e0598c4cee6eaa7",
        "to": "0x284e9b7b623eae866914b7fa0eb720c2bb3c2980",
        "gas": "0x12fd9",
        "value": "0x0",
        "input": "0xcf456ae700000000000000000000000069b32da57d04c23f7e58a9d8caa22095c96719540000000000000000000000000000000000000000000000000000000000000001",
        "nonce": "0x2b5",
        "chainId": "0xaa044c"
      },
      "additionalContracts": [],
      "isFixedGasLimit": false
    },
    {
      "hash": "0xf99ae89f84225ff878512e30a3e5be8daccd62e9a1449236bfcadbec6a8c2d3c",
      "transactionType": "CALL",
      "contractName": null,
      "contractAddress": "0x284e9b7b623eae866914b7fa0eb720c2bb3c2980",
      "function": "setBurner(address,bool)",
      "arguments": [
        "0xfCCC67DD7F46d0f9B94f564137bB1a85a9999874",
        "true"
      ],
      "transaction": {
        "from": "0x2738f38fde510743e0c589415e0598c4cee6eaa7",
        "to": "0x284e9b7b623eae866914b7fa0eb720c2bb3c2980",
        "gas": "0x11f29",
        "value": "0x0",
        "input": "0x0d895ee1000000000000000000000000fccc67dd7f46d0f9b94f564137bb1a85a99998740000000000000000000000000000000000000000000000000000000000000001",
        "nonce": "0x2b6",
        "chainId": "0xaa044c"
      },
      "additionalContracts": [],
      "isFixedGasLimit": false
    },
    {
      "hash": "0x5bbf18f5f268a9358456502f482e0bc681cfe0e9d84ae0872b661ad4ed691cb7",
      "transactionType": "CALL",
      "contractName": null,
      "contractAddress": "0x284e9b7b623eae866914b7fa0eb720c2bb3c2980",
      "function": "setBurner(address,bool)",
      "arguments": [
        "0x4f21869fcd5813184d324872cb732f4Eb8e9F5aB",
        "true"
      ],
      "transaction": {
        "from": "0x2738f38fde510743e0c589415e0598c4cee6eaa7",
        "to": "0x284e9b7b623eae866914b7fa0eb720c2bb3c2980",
        "gas": "0x11f29",
        "value": "0x0",
        "input": "0x0d895ee10000000000000000000000004f21869fcd5813184d324872cb732f4eb8e9f5ab0000000000000000000000000000000000000000000000000000000000000001",
        "nonce": "0x2b7",
        "chainId": "0xaa044c"
      },
      "additionalContracts": [],
      "isFixedGasLimit": false
    },
    {
      "hash": "0x4e85f682580571a1ddf52f06987d2084dad52bc614bec010b1563e0543be9d1a",
      "transactionType": "CALL",
      "contractName": null,
      "contractAddress": "0x284e9b7b623eae866914b7fa0eb720c2bb3c2980",
      "function": "setBurner(address,bool)",
      "arguments": [
        "0xC21dC07Ec1707D315A7eFF31A6556E628E43a3F8",
        "true"
      ],
      "transaction": {
        "from": "0x2738f38fde510743e0c589415e0598c4cee6eaa7",
        "to": "0x284e9b7b623eae866914b7fa0eb720c2bb3c2980",
        "gas": "0x11f29",
        "value": "0x0",
        "input": "0x0d895ee1000000000000000000000000c21dc07ec1707d315a7eff31a6556e628e43a3f80000000000000000000000000000000000000000000000000000000000000001",
        "nonce": "0x2b8",
        "chainId": "0xaa044c"
      },
      "additionalContracts": [],
      "isFixedGasLimit": false
    },
    {
      "hash": "0xd0e03c484f444e71c0764fd6f1ae5e7f3b46df23e9b5b09fbaa870623a28ad87",
      "transactionType": "CALL",
      "contractName": null,
      "contractAddress": "0x284e9b7b623eae866914b7fa0eb720c2bb3c2980",
      "function": "setBurner(address,bool)",
      "arguments": [
        "0xAEaFEbC8EF593b6D5e93742aD50040484B55a7Ea",
        "true"
      ],
      "transaction": {
        "from": "0x2738f38fde510743e0c589415e0598c4cee6eaa7",
        "to": "0x284e9b7b623eae866914b7fa0eb720c2bb3c2980",
        "gas": "0x12ffc",
        "value": "0x0",
        "input": "0x0d895ee1000000000000000000000000aeafebc8ef593b6d5e93742ad50040484b55a7ea0000000000000000000000000000000000000000000000000000000000000001",
        "nonce": "0x2b9",
        "chainId": "0xaa044c"
      },
      "additionalContracts": [],
      "isFixedGasLimit": false
    },
    {
      "hash": "0x4bf1a97584fff620190ab38909c08f9c2d748219dca6de313cb007d69da7be2c",
      "transactionType": "CALL",
      "contractName": null,
      "contractAddress": "0x284e9b7b623eae866914b7fa0eb720c2bb3c2980",
      "function": "setOperator(address,bool)",
      "arguments": [
        "0xAEaFEbC8EF593b6D5e93742aD50040484B55a7Ea",
        "true"
      ],
      "transaction": {
        "from": "0x2738f38fde510743e0c589415e0598c4cee6eaa7",
        "to": "0x284e9b7b623eae866914b7fa0eb720c2bb3c2980",
        "gas": "0x11f06",
        "value": "0x0",
        "input": "0x558a7297000000000000000000000000aeafebc8ef593b6d5e93742ad50040484b55a7ea0000000000000000000000000000000000000000000000000000000000000001",
        "nonce": "0x2ba",
        "chainId": "0xaa044c"
      },
      "additionalContracts": [],
      "isFixedGasLimit": false
    },
    {
      "hash": "0x2ad9c1ef96c7ef945c3669070be76743081f18e610d04256c9a691a43e2bd11f",
      "transactionType": "CALL",
      "contractName": null,
      "contractAddress": "0x938a21b1f301206abb4e15340782b89ef7d83c9c",
      "function": "setLiquidityStrategy(address,bool)",
      "arguments": [
        "0x065AE7D4e207C8f4dca112D0B79E668cc7e93e03",
        "true"
      ],
      "transaction": {
        "from": "0x2738f38fde510743e0c589415e0598c4cee6eaa7",
        "to": "0x938a21b1f301206abb4e15340782b89ef7d83c9c",
        "gas": "0x12961",
        "value": "0x0",
        "input": "0xcce441a3000000000000000000000000065ae7d4e207c8f4dca112d0b79e668cc7e93e030000000000000000000000000000000000000000000000000000000000000001",
        "nonce": "0x2bb",
        "chainId": "0xaa044c"
      },
      "additionalContracts": [],
      "isFixedGasLimit": false
    },
    {
      "hash": "0xfca823e675d75e457fc4662ceeb2918094dcc85f7ec6e7fedd2cceea61c3425b",
      "transactionType": "CALL",
      "contractName": null,
      "contractAddress": "0x065ae7d4e207c8f4dca112d0b79e668cc7e93e03",
      "function": "addPool((address,address,uint32,address,uint64,uint64,uint64,uint64),(address,address,uint16,uint16))",
      "arguments": [
        "(0x938A21b1f301206aBB4e15340782b89EF7D83c9c, 0x284E9b7B623eAE866914b7FA0eB720C2Bb3C2980, 300, 0x2738F38Fde510743e0c589415E0598C4ceE6eAa7, 500000000000000, 0, 500000000000000, 0)",
        "(0xAEaFEbC8EF593b6D5e93742aD50040484B55a7Ea, 0xfCCC67DD7F46d0f9B94f564137bB1a85a9999874, 2000, 500)"
      ],
      "transaction": {
        "from": "0x2738f38fde510743e0c589415e0598c4cee6eaa7",
        "to": "0x065ae7d4e207c8f4dca112d0b79e668cc7e93e03",
        "gas": "0x44c7d",
        "value": "0x0",
        "input": "0xe8356cb1000000000000000000000000938a21b1f301206abb4e15340782b89ef7d83c9c000000000000000000000000284e9b7b623eae866914b7fa0eb720c2bb3c2980000000000000000000000000000000000000000000000000000000000000012c0000000000000000000000002738f38fde510743e0c589415e0598c4cee6eaa70000000000000000000000000000000000000000000000000001c6bf5263400000000000000000000000000000000000000000000000000000000000000000000000000000000000000000000000000000000000000000000001c6bf526340000000000000000000000000000000000000000000000000000000000000000000000000000000000000000000aeafebc8ef593b6d5e93742ad50040484b55a7ea000000000000000000000000fccc67dd7f46d0f9b94f564137bb1a85a999987400000000000000000000000000000000000000000000000000000000000007d000000000000000000000000000000000000000000000000000000000000001f4",
        "nonce": "0x2bc",
        "chainId": "0xaa044c"
      },
      "additionalContracts": [],
      "isFixedGasLimit": false
    },
    {
      "hash": "0x9da660f4793d1c4ba7b7c0e94891554bc572eaffdbcf3616a66b63beac06a753",
      "transactionType": "CALL",
      "contractName": null,
      "contractAddress": "0xf3218ddb3f1a61cccdfc5c0e0acfed0c09c61f0b",
      "function": "setRateFeedID(address)",
      "arguments": [
        "0x4F2746E21A13Ea9A8A832D929CDBf32ffC113A2C"
      ],
      "transaction": {
        "from": "0x2738f38fde510743e0c589415e0598c4cee6eaa7",
        "to": "0xf3218ddb3f1a61cccdfc5c0e0acfed0c09c61f0b",
        "gas": "0xb0c6",
        "value": "0x0",
        "input": "0x42459c7b0000000000000000000000004f2746e21a13ea9a8a832d929cdbf32ffc113a2c",
        "nonce": "0x2bd",
        "chainId": "0xaa044c"
      },
      "additionalContracts": [],
      "isFixedGasLimit": false
    },
    {
      "hash": "0x8c38e0e69e7b762e4e1747ac40e17cb92338355b4c38d9b260448b8dc3e70ad8",
      "transactionType": "CALL",
      "contractName": null,
      "contractAddress": "0xde9e4c3ce781b4ba68120d6261cbad65ce0ab00b",
      "function": "setMinter(address,bool)",
      "arguments": [
        "0xf179d705706CD959884E40B1eA21C95EC84D9E14",
        "true"
      ],
      "transaction": {
        "from": "0x2738f38fde510743e0c589415e0598c4cee6eaa7",
        "to": "0xde9e4c3ce781b4ba68120d6261cbad65ce0ab00b",
        "gas": "0x12fd9",
        "value": "0x0",
        "input": "0xcf456ae7000000000000000000000000f179d705706cd959884e40b1ea21c95ec84d9e140000000000000000000000000000000000000000000000000000000000000001",
        "nonce": "0x2be",
        "chainId": "0xaa044c"
      },
      "additionalContracts": [],
      "isFixedGasLimit": false
    },
    {
      "hash": "0x409aeb50a7758be7b0c43b7c875bdb1d38e179a1617245140f4bd97edd79c168",
      "transactionType": "CALL",
      "contractName": null,
      "contractAddress": "0x284e9b7b623eae866914b7fa0eb720c2bb3c2980",
      "function": "setBurner(address,bool)",
      "arguments": [
        "0xf179d705706CD959884E40B1eA21C95EC84D9E14",
        "true"
      ],
      "transaction": {
        "from": "0x2738f38fde510743e0c589415e0598c4cee6eaa7",
        "to": "0x284e9b7b623eae866914b7fa0eb720c2bb3c2980",
        "gas": "0x11f29",
        "value": "0x0",
        "input": "0x0d895ee1000000000000000000000000f179d705706cd959884e40b1ea21c95ec84d9e140000000000000000000000000000000000000000000000000000000000000001",
        "nonce": "0x2bf",
        "chainId": "0xaa044c"
      },
      "additionalContracts": [],
      "isFixedGasLimit": false
    },
    {
      "hash": "0xead4fb21abe34e20439b22e266819948b9fbb13601b1774140300f2470c38545",
      "transactionType": "CALL",
      "contractName": null,
      "contractAddress": "0x471ece3750da237f93b8e339c536989b8978a438",
      "function": "transfer(address,uint256)",
      "arguments": [
        "0xf179d705706CD959884E40B1eA21C95EC84D9E14",
        "1000000000000000000"
      ],
      "transaction": {
        "from": "0x2738f38fde510743e0c589415e0598c4cee6eaa7",
        "to": "0x471ece3750da237f93b8e339c536989b8978a438",
        "gas": "0xd3eb",
        "value": "0x0",
        "input": "0xa9059cbb000000000000000000000000f179d705706cd959884e40b1ea21c95ec84d9e140000000000000000000000000000000000000000000000000de0b6b3a7640000",
        "nonce": "0x2c0",
        "chainId": "0xaa044c"
      },
      "additionalContracts": [],
      "isFixedGasLimit": false
    },
    {
      "hash": "0x6263791d22da0048c31ff52fc7dfc6bcc304593c5f863b1711a6d7f20690564d",
      "transactionType": "CALL",
      "contractName": "ReserveTroveFactory",
      "contractAddress": "0xf179d705706cd959884e40b1ea21c95ec84d9e14",
      "function": "createReserveTrove(address,uint256,uint256)",
      "arguments": [
        "0x1e3CCCC62cEBd9Bf2a26Ba512E3abee086816c58",
        "1600000000000000000",
        "30000000000000000"
      ],
      "transaction": {
        "from": "0x2738f38fde510743e0c589415e0598c4cee6eaa7",
        "to": "0xf179d705706cd959884e40b1ea21c95ec84d9e14",
        "gas": "0x133348",
        "value": "0x0",
        "input": "0xbfed8a8f0000000000000000000000001e3cccc62cebd9bf2a26ba512e3abee086816c5800000000000000000000000000000000000000000000000016345785d8a00000000000000000000000000000000000000000000000000000006a94d74f430000",
        "nonce": "0x2c1",
        "chainId": "0xaa044c"
      },
      "additionalContracts": [],
      "isFixedGasLimit": false
    },
    {
      "hash": "0x01b71bae400c2ba15ac1ab5ab50f2e2cfbbc72466826902d8ace0518993556be",
      "transactionType": "CALL",
      "contractName": null,
      "contractAddress": "0xde9e4c3ce781b4ba68120d6261cbad65ce0ab00b",
      "function": "setMinter(address,bool)",
      "arguments": [
        "0xf179d705706CD959884E40B1eA21C95EC84D9E14",
        "false"
      ],
      "transaction": {
        "from": "0x2738f38fde510743e0c589415e0598c4cee6eaa7",
        "to": "0xde9e4c3ce781b4ba68120d6261cbad65ce0ab00b",
        "gas": "0xb2ab",
        "value": "0x0",
        "input": "0xcf456ae7000000000000000000000000f179d705706cd959884e40b1ea21c95ec84d9e140000000000000000000000000000000000000000000000000000000000000000",
        "nonce": "0x2c2",
        "chainId": "0xaa044c"
      },
      "additionalContracts": [],
      "isFixedGasLimit": false
    },
    {
      "hash": "0x533da4fbe371c3342327e33d1ca17f5bca91a3b8bc21b21188018fa59fd9290b",
      "transactionType": "CALL",
      "contractName": null,
      "contractAddress": "0x284e9b7b623eae866914b7fa0eb720c2bb3c2980",
      "function": "setBurner(address,bool)",
      "arguments": [
        "0xf179d705706CD959884E40B1eA21C95EC84D9E14",
        "false"
      ],
      "transaction": {
        "from": "0x2738f38fde510743e0c589415e0598c4cee6eaa7",
        "to": "0x284e9b7b623eae866914b7fa0eb720c2bb3c2980",
        "gas": "0xa8ef",
        "value": "0x0",
        "input": "0x0d895ee1000000000000000000000000f179d705706cd959884e40b1ea21c95ec84d9e140000000000000000000000000000000000000000000000000000000000000000",
        "nonce": "0x2c3",
        "chainId": "0xaa044c"
      },
      "additionalContracts": [],
      "isFixedGasLimit": false
    }
  ],
  "receipts": [
    {
      "type": "0x2",
      "status": "0x1",
      "cumulativeGasUsed": "0x1fe66",
      "logs": [
        {
          "address": "0xecb3c656c131fcd9bb8d1d80898716bd684feb78",
          "topics": [
            "0xadbbec6c203cb0248e89fe6d15ad651061a9d5203a1ab0273256e2b7decffa89",
            "0x3ddbc61433314a4b7d3cbb56a001fc4cc0f1d52d64338336d5f2083a580ce4fc",
            "0x000000000000000000000000de9e4c3ce781b4ba68120d6261cbad65ce0ab00b",
            "0x000000000000000000000000284e9b7b623eae866914b7fa0eb720c2bb3c2980"
          ],
          "data": "0x0000000000000000000000003b199d9ebebe509bb711bffb455c2d79102a9602",
          "blockHash": "0x1ad3d055d1df841ca0ffbe9a2272b8e0186e21585e6d6fa8f82b1247bd41235e",
          "blockNumber": "0x1693347",
          "blockTimestamp": "0x69ea30db",
          "transactionHash": "0xb5aabfe2f8cf298e9bfb60ea4880a2cb9c8c434a7227309b0a0319cfdcac0417",
          "transactionIndex": "0x1",
          "logIndex": "0x0",
          "removed": false
        }
      ],
      "logsBloom": "0x000000000000000000000000010040000080080000000000000000000000000001000100000000000000000000000000000000000000000000000000000000000000000000000000000000000000000020000000000000000000000000000000000000000000020000000000000000000000000000000000000002000040000000000c0000000000000000000000000000000000000000000000000000000000000000000000800000000000000000000000000000000000000000000000000000000000000000100000000000000000000000000000100000000000000000000000000000000000000000000000000000000000000000000000000000000000",
      "transactionHash": "0xb5aabfe2f8cf298e9bfb60ea4880a2cb9c8c434a7227309b0a0319cfdcac0417",
      "transactionIndex": "0x1",
      "blockHash": "0x1ad3d055d1df841ca0ffbe9a2272b8e0186e21585e6d6fa8f82b1247bd41235e",
      "blockNumber": "0x1693347",
      "gasUsed": "0x14a3c",
      "effectiveGasPrice": "0xba43b7401",
      "blobGasUsed": "0x64",
      "from": "0x2738f38fde510743e0c589415e0598c4cee6eaa7",
      "to": "0xecb3c656c131fcd9bb8d1d80898716bd684feb78",
      "contractAddress": null
    },
    {
      "type": "0x2",
      "status": "0x1",
      "cumulativeGasUsed": "0x12e55",
      "logs": [
        {
          "address": "0x284e9b7b623eae866914b7fa0eb720c2bb3c2980",
          "topics": [
            "0xb21afb9ce9be0a676f8f317ff0ca072fb89a4f8ce2d1b6fe80f8755c14f1cb19",
            "0x000000000000000000000000b9ae2065142eb79b6c5eb1e8778f883fad6b07ba"
          ],
          "data": "0x0000000000000000000000000000000000000000000000000000000000000000",
          "blockHash": "0x43d8f70aa3c32bd090544441b05efce9e022a68283c05511a41cda98cdb0cf50",
          "blockNumber": "0x169334a",
          "blockTimestamp": "0x69ea30de",
          "transactionHash": "0xb481cdcfc5e5c47f2b69346a8e191b8db9e5144e0d787c922779ab01375cec92",
          "transactionIndex": "0x1",
          "logIndex": "0x0",
          "removed": false
        }
      ],
      "logsBloom": "0x00020000000000000000000000000000000000000000000000000000000000000020000000000008000000000000000000000000000000040000000000000080000000000000000000000000000000000000000000000000000000000000000000000000000000000000000000000000000000000000000000000000000000000000000000000000000000000000000000000000800000000000200000000000000000000000000000000000000000000000000000000000000000000010000000000000000000000000000000000000000000000000000000000000000000000000000020000000000000000000000000000000000000000000000000000000",
      "transactionHash": "0xb481cdcfc5e5c47f2b69346a8e191b8db9e5144e0d787c922779ab01375cec92",
      "transactionIndex": "0x1",
      "blockHash": "0x43d8f70aa3c32bd090544441b05efce9e022a68283c05511a41cda98cdb0cf50",
      "blockNumber": "0x169334a",
      "gasUsed": "0x7a2b",
      "effectiveGasPrice": "0xba43b7401",
      "blobGasUsed": "0x64",
      "from": "0x2738f38fde510743e0c589415e0598c4cee6eaa7",
      "to": "0x284e9b7b623eae866914b7fa0eb720c2bb3c2980",
      "contractAddress": null
    },
    {
      "type": "0x2",
      "status": "0x1",
      "cumulativeGasUsed": "0x12e79",
      "logs": [
        {
          "address": "0x284e9b7b623eae866914b7fa0eb720c2bb3c2980",
          "topics": [
            "0xf0e5abe4ab32ea692e3889b4c146fd4ddae5f17bb40ab4feba97fb67a2d4de0f",
            "0x000000000000000000000000b9ae2065142eb79b6c5eb1e8778f883fad6b07ba"
          ],
          "data": "0x0000000000000000000000000000000000000000000000000000000000000000",
          "blockHash": "0x71c410333377e0e987fa830cdc5dee4e41ebb0d9fe11fd7879adf43766304f37",
          "blockNumber": "0x169334d",
          "blockTimestamp": "0x69ea30e1",
          "transactionHash": "0x658f327b7c6348f847380612168ce8495c239b0f5c3c7314b10dafa37615bcef",
          "transactionIndex": "0x1",
          "logIndex": "0x0",
          "removed": false
        }
      ],
      "logsBloom": "0x00020000000000000000000000000000000000000000000000000000000000000020000000000008000000000000000000000000040000000000000000000000100000000000000000000000000000000000000020000000000000000000000000000000000000000000000000000000000000000000000000000000000000000000000000000000000000000000000000000000800000000000000000000000000000000000000000000000000000000000000000000000000000000010000000000000000000000000000000000000000000000000000000000000000000000000000020000000000000000000000000000000000000000000000000000000",
      "transactionHash": "0x658f327b7c6348f847380612168ce8495c239b0f5c3c7314b10dafa37615bcef",
      "transactionIndex": "0x1",
      "blockHash": "0x71c410333377e0e987fa830cdc5dee4e41ebb0d9fe11fd7879adf43766304f37",
      "blockNumber": "0x169334d",
      "gasUsed": "0x7a4f",
      "effectiveGasPrice": "0xba43b7401",
      "blobGasUsed": "0x64",
      "from": "0x2738f38fde510743e0c589415e0598c4cee6eaa7",
      "to": "0x284e9b7b623eae866914b7fa0eb720c2bb3c2980",
      "contractAddress": null
    },
    {
      "type": "0x2",
      "status": "0x1",
      "cumulativeGasUsed": "0x3a881",
      "logs": [
        {
          "address": "0x284e9b7b623eae866914b7fa0eb720c2bb3c2980",
          "topics": [
            "0xb21afb9ce9be0a676f8f317ff0ca072fb89a4f8ce2d1b6fe80f8755c14f1cb19",
            "0x0000000000000000000000004f21869fcd5813184d324872cb732f4eb8e9f5ab"
          ],
          "data": "0x0000000000000000000000000000000000000000000000000000000000000001",
          "blockHash": "0xc7ce21d2f74ae65ff3003c98f673806644415504507726e1bffd3dd3ac5cf154",
          "blockNumber": "0x169334f",
          "blockTimestamp": "0x69ea30e3",
          "transactionHash": "0x7725e3f5d54e7d3ac15768e2c78a9ca0b8fd43394984aaf3e377d65cd1f3f225",
          "transactionIndex": "0x2",
          "logIndex": "0x3",
          "removed": false
        }
      ],
      "logsBloom": "0x000000000000000000000001000000000000000000000000000000000000000000200000000000000080000000000000000000000000000400000000000000c0000000000000000000000000000000000000000000000000000000000000000000000000000000000000000000000000000000000000000000000000000000000000000000000000000000000000000000000000800000000000200000000000000000000000000000000000000000000000000000000000000000000000000000000000000000000000000000000000000000000000000000000000000000000000000020000000000000000000000000000000000000000000000000000000",
      "transactionHash": "0x7725e3f5d54e7d3ac15768e2c78a9ca0b8fd43394984aaf3e377d65cd1f3f225",
      "transactionIndex": "0x2",
      "blockHash": "0xc7ce21d2f74ae65ff3003c98f673806644415504507726e1bffd3dd3ac5cf154",
      "blockNumber": "0x169334f",
      "gasUsed": "0xcfc3",
      "effectiveGasPrice": "0xba43b7401",
      "blobGasUsed": "0x64",
      "from": "0x2738f38fde510743e0c589415e0598c4cee6eaa7",
      "to": "0x284e9b7b623eae866914b7fa0eb720c2bb3c2980",
      "contractAddress": null
    },
    {
      "type": "0x2",
      "status": "0x1",
      "cumulativeGasUsed": "0x183ed",
      "logs": [
        {
          "address": "0x284e9b7b623eae866914b7fa0eb720c2bb3c2980",
          "topics": [
            "0xb21afb9ce9be0a676f8f317ff0ca072fb89a4f8ce2d1b6fe80f8755c14f1cb19",
            "0x00000000000000000000000069b32da57d04c23f7e58a9d8caa22095c9671954"
          ],
          "data": "0x0000000000000000000000000000000000000000000000000000000000000001",
          "blockHash": "0x04d8695eb4cd834cfe009621ada9f83bba3d3f8250205f9fc1157ba973637510",
          "blockNumber": "0x1693352",
          "blockTimestamp": "0x69ea30e6",
          "transactionHash": "0x3f7649c42becbaf884ee0c2767c28d55e9a152539263e6de9f5e95f78c92f327",
          "transactionIndex": "0x1",
          "logIndex": "0x0",
          "removed": false
        }
      ],
      "logsBloom": "0x00000000000000000800000000000000000000000000020000000000000000000020000000000000000000000000000000000000000020040000000000000080000000000000000000000000000000000000000000000000000000000000000000000000000000000000000000000000000000000000000000000000000000000000000000000000000000000000000000000000800000000000200000000000000000000000000000000000000000000000000000000000000000000000000000000000000000000000000000000000000000000000000000000000000000000000000020000000000000000000000000000000000000000000000000000000",
      "transactionHash": "0x3f7649c42becbaf884ee0c2767c28d55e9a152539263e6de9f5e95f78c92f327",
      "transactionIndex": "0x1",
      "blockHash": "0x04d8695eb4cd834cfe009621ada9f83bba3d3f8250205f9fc1157ba973637510",
      "blockNumber": "0x1693352",
      "gasUsed": "0xcfc3",
      "effectiveGasPrice": "0xba43b7401",
      "blobGasUsed": "0x64",
      "from": "0x2738f38fde510743e0c589415e0598c4cee6eaa7",
      "to": "0x284e9b7b623eae866914b7fa0eb720c2bb3c2980",
      "contractAddress": null
    },
    {
      "type": "0x2",
      "status": "0x1",
      "cumulativeGasUsed": "0x18411",
      "logs": [
        {
          "address": "0x284e9b7b623eae866914b7fa0eb720c2bb3c2980",
          "topics": [
            "0xf0e5abe4ab32ea692e3889b4c146fd4ddae5f17bb40ab4feba97fb67a2d4de0f",
            "0x000000000000000000000000fccc67dd7f46d0f9b94f564137bb1a85a9999874"
          ],
          "data": "0x0000000000000000000000000000000000000000000000000000000000000001",
          "blockHash": "0xd741fc745fb01f1994321011926689fab7bb42df6b2dfb739dd623fb46908d42",
          "blockNumber": "0x1693354",
          "blockTimestamp": "0x69ea30e8",
          "transactionHash": "0xf99ae89f84225ff878512e30a3e5be8daccd62e9a1449236bfcadbec6a8c2d3c",
          "transactionIndex": "0x1",
          "logIndex": "0x0",
          "removed": false
        }
      ],
      "logsBloom": "0x00000000000000000000000000000000000000000000000000000000000000000020000000000000000000000000000000000000040000000000000000000000100000000000000000000000000000000000000020000000000000000000000000000000000000000000000000000000000000000000000000000000000000000000000000000020000010000000000000000000800000000000000000000000000000000000000000000000000000000000000000000000000000000000000000000000000000010000000000000000000000000000000000000000000000000000000020000000000000000000000000000000000000000000000000000000",
      "transactionHash": "0xf99ae89f84225ff878512e30a3e5be8daccd62e9a1449236bfcadbec6a8c2d3c",
      "transactionIndex": "0x1",
      "blockHash": "0xd741fc745fb01f1994321011926689fab7bb42df6b2dfb739dd623fb46908d42",
      "blockNumber": "0x1693354",
      "gasUsed": "0xcfe7",
      "effectiveGasPrice": "0xba43b7401",
      "blobGasUsed": "0x64",
      "from": "0x2738f38fde510743e0c589415e0598c4cee6eaa7",
      "to": "0x284e9b7b623eae866914b7fa0eb720c2bb3c2980",
      "contractAddress": null
    },
    {
      "type": "0x2",
      "status": "0x1",
      "cumulativeGasUsed": "0x9ff96",
      "logs": [
        {
          "address": "0x284e9b7b623eae866914b7fa0eb720c2bb3c2980",
          "topics": [
            "0xf0e5abe4ab32ea692e3889b4c146fd4ddae5f17bb40ab4feba97fb67a2d4de0f",
            "0x0000000000000000000000004f21869fcd5813184d324872cb732f4eb8e9f5ab"
          ],
          "data": "0x0000000000000000000000000000000000000000000000000000000000000001",
          "blockHash": "0x248dfc4f7410747e1dcfe051ef7f265130491e880689bb84e328b7a767a060b9",
          "blockNumber": "0x1693357",
          "blockTimestamp": "0x69ea30eb",
          "transactionHash": "0x5bbf18f5f268a9358456502f482e0bc681cfe0e9d84ae0872b661ad4ed691cb7",
          "transactionIndex": "0x4",
          "logIndex": "0x3",
          "removed": false
        }
      ],
      "logsBloom": "0x00000000000000000000000100000000000000000000000000000000000000000020000000000000008000000000000000000000040000000000000000000040100000000000000000000000000000000000000020000000000000000000000000000000000000000000000000000000000000000000000000000000000000000000000000000000000000000000000000000000800000000000000000000000000000000000000000000000000000000000000000000000000000000000000000000000000000000000000000000000000000000000000000000000000000000000000020000000000000000000000000000000000000000000000000000000",
      "transactionHash": "0x5bbf18f5f268a9358456502f482e0bc681cfe0e9d84ae0872b661ad4ed691cb7",
      "transactionIndex": "0x4",
      "blockHash": "0x248dfc4f7410747e1dcfe051ef7f265130491e880689bb84e328b7a767a060b9",
      "blockNumber": "0x1693357",
      "gasUsed": "0xcfe7",
      "effectiveGasPrice": "0xba43b7401",
      "blobGasUsed": "0x64",
      "from": "0x2738f38fde510743e0c589415e0598c4cee6eaa7",
      "to": "0x284e9b7b623eae866914b7fa0eb720c2bb3c2980",
      "contractAddress": null
    },
    {
      "type": "0x2",
      "status": "0x1",
      "cumulativeGasUsed": "0x13474d",
      "logs": [
        {
          "address": "0x284e9b7b623eae866914b7fa0eb720c2bb3c2980",
          "topics": [
            "0xf0e5abe4ab32ea692e3889b4c146fd4ddae5f17bb40ab4feba97fb67a2d4de0f",
            "0x000000000000000000000000c21dc07ec1707d315a7eff31a6556e628e43a3f8"
          ],
          "data": "0x0000000000000000000000000000000000000000000000000000000000000001",
          "blockHash": "0x58db66b3cc0b3fec7a796774d841cca3a6112221fa3c285822ad0c0091ca397a",
          "blockNumber": "0x1693359",
          "blockTimestamp": "0x69ea30ed",
          "transactionHash": "0x4e85f682580571a1ddf52f06987d2084dad52bc614bec010b1563e0543be9d1a",
          "transactionIndex": "0x7",
          "logIndex": "0x6",
          "removed": false
        }
      ],
      "logsBloom": "0x00000000000000000000000000000000000000000000800000000000000000000020000000000000000000000000000000000000040000000000000000000000100000000000000000000000000000000000000020000000000000000000000000000000000000000000000000000000000000000000000000000000000000000000000000000000000001000000000000000000800000000000000000000000000000000000000000000000000000000000000000000000000000000000000000000000000000000000000000000080000000000000000000000000000000000000000020000000000000000000000000000000000000000000000000000000",
      "transactionHash": "0x4e85f682580571a1ddf52f06987d2084dad52bc614bec010b1563e0543be9d1a",
      "transactionIndex": "0x7",
      "blockHash": "0x58db66b3cc0b3fec7a796774d841cca3a6112221fa3c285822ad0c0091ca397a",
      "blockNumber": "0x1693359",
      "gasUsed": "0xcfe7",
      "effectiveGasPrice": "0xba43b7401",
      "blobGasUsed": "0x64",
      "from": "0x2738f38fde510743e0c589415e0598c4cee6eaa7",
      "to": "0x284e9b7b623eae866914b7fa0eb720c2bb3c2980",
      "contractAddress": null
    },
    {
      "type": "0x2",
      "status": "0x1",
      "cumulativeGasUsed": "0x6d171",
      "logs": [
        {
          "address": "0x284e9b7b623eae866914b7fa0eb720c2bb3c2980",
          "topics": [
            "0xf0e5abe4ab32ea692e3889b4c146fd4ddae5f17bb40ab4feba97fb67a2d4de0f",
            "0x000000000000000000000000aeafebc8ef593b6d5e93742ad50040484b55a7ea"
          ],
          "data": "0x0000000000000000000000000000000000000000000000000000000000000001",
          "blockHash": "0x3a4e0820933ec5615ecaba00e19265d5eecc5b82c6d6c57f4430f436b2d5c3ed",
          "blockNumber": "0x169335c",
          "blockTimestamp": "0x69ea30f0",
          "transactionHash": "0xd0e03c484f444e71c0764fd6f1ae5e7f3b46df23e9b5b09fbaa870623a28ad87",
          "transactionIndex": "0x3",
          "logIndex": "0x2",
          "removed": false
        }
      ],
      "logsBloom": "0x00000000000000000000000000000000000000000000000000000000000000000020000000000000000000000000000000000000040000000000000000000000100000000000000000000000000000000000000020000000000020000000000000000000000000000000000000000000000000000000000000000000001000000000000000000000000000000000000000000000800000000000000000000000000000000000000000200000000000000000000000000000000000000000000000000000000000000000000000000000000000000000000000000000000000000000000020000000000000000000000000000000000000000000000000000000",
      "transactionHash": "0xd0e03c484f444e71c0764fd6f1ae5e7f3b46df23e9b5b09fbaa870623a28ad87",
      "transactionIndex": "0x3",
      "blockHash": "0x3a4e0820933ec5615ecaba00e19265d5eecc5b82c6d6c57f4430f436b2d5c3ed",
      "blockNumber": "0x169335c",
      "gasUsed": "0xcfdb",
      "effectiveGasPrice": "0xba43b7401",
      "blobGasUsed": "0x64",
      "from": "0x2738f38fde510743e0c589415e0598c4cee6eaa7",
      "to": "0x284e9b7b623eae866914b7fa0eb720c2bb3c2980",
      "contractAddress": null
    },
    {
      "type": "0x2",
      "status": "0x1",
      "cumulativeGasUsed": "0xa4f0a",
      "logs": [
        {
          "address": "0x284e9b7b623eae866914b7fa0eb720c2bb3c2980",
          "topics": [
            "0x966c160e1c4dbc7df8d69af4ace01e9297c3cf016397b7914971f2fbfa32672d",
            "0x000000000000000000000000aeafebc8ef593b6d5e93742ad50040484b55a7ea"
          ],
          "data": "0x0000000000000000000000000000000000000000000000000000000000000001",
          "blockHash": "0x178eddcb4122e6c9d8ce99d4840909e04c5848f6361294f6ed056ae5a38e347d",
          "blockNumber": "0x169335f",
          "blockTimestamp": "0x69ea30f3",
          "transactionHash": "0x4bf1a97584fff620190ab38909c08f9c2d748219dca6de313cb007d69da7be2c",
          "transactionIndex": "0x4",
          "logIndex": "0x3",
          "removed": false
        }
      ],
      "logsBloom": "0x00000000000000000000100000000000000000000000000000000000000000000020000000000000000000000000000000000000000000000000000000000000000000000000000000000000000000000000000000000000000020000000000000000000000000000000000000000000020000000000000000000000001000000000000000000000000000000000000000000000800000000000000000000000000000000000000000200000000000000000000000000000000000000000000000000000000000000000000000000000000000000000000000000000000000000000000020000000000000100000000000000000000000000000000000000000",
      "transactionHash": "0x4bf1a97584fff620190ab38909c08f9c2d748219dca6de313cb007d69da7be2c",
      "transactionIndex": "0x4",
      "blockHash": "0x178eddcb4122e6c9d8ce99d4840909e04c5848f6361294f6ed056ae5a38e347d",
      "blockNumber": "0x169335f",
      "gasUsed": "0xcfce",
      "effectiveGasPrice": "0xba43b7401",
      "blobGasUsed": "0x64",
      "from": "0x2738f38fde510743e0c589415e0598c4cee6eaa7",
      "to": "0x284e9b7b623eae866914b7fa0eb720c2bb3c2980",
      "contractAddress": null
    },
    {
      "type": "0x2",
      "status": "0x1",
      "cumulativeGasUsed": "0x18b77",
      "logs": [
        {
          "address": "0x938a21b1f301206abb4e15340782b89ef7d83c9c",
          "topics": [
            "0x133037347700fe9a7e5fffb139c832853fc52536035550fc6bc3b3f6207fd875",
            "0x000000000000000000000000065ae7d4e207c8f4dca112d0b79e668cc7e93e03"
          ],
          "data": "0x0000000000000000000000000000000000000000000000000000000000000001",
          "blockHash": "0x6f6695b2d74e6a86b0acd7633cc10783bf1fa0520e20223110907bedc4d3b5d4",
          "blockNumber": "0x1693361",
          "blockTimestamp": "0x69ea30f5",
          "transactionHash": "0x2ad9c1ef96c7ef945c3669070be76743081f18e610d04256c9a691a43e2bd11f",
          "transactionIndex": "0x1",
          "logIndex": "0x0",
          "removed": false
        }
      ],
      "logsBloom": "0x00000000000000000000000010000000000000000000000000000000000000000000000000000002000000000000000000000000000008000000000000000000000000000000000000000000000000000000000000000000000000000000000000000000000000004000000000000000000000000000000000000000000000000000000000000000000000000000000000000000000000000000000000000000000000000080000000000000000000000000000000000000000000000000000000000000000000000000000000000000000000000000000100000000000000800001000000000000000000000000000000000000000000000000000000000004",
      "transactionHash": "0x2ad9c1ef96c7ef945c3669070be76743081f18e610d04256c9a691a43e2bd11f",
      "transactionIndex": "0x1",
      "blockHash": "0x6f6695b2d74e6a86b0acd7633cc10783bf1fa0520e20223110907bedc4d3b5d4",
      "blockNumber": "0x1693361",
      "gasUsed": "0xd74d",
      "effectiveGasPrice": "0xba43b7401",
      "blobGasUsed": "0x64",
      "from": "0x2738f38fde510743e0c589415e0598c4cee6eaa7",
      "to": "0x938a21b1f301206abb4e15340782b89ef7d83c9c",
      "contractAddress": null
    },
    {
      "type": "0x2",
      "status": "0x1",
      "cumulativeGasUsed": "0x3a4a3",
      "logs": [
        {
          "address": "0x065ae7d4e207c8f4dca112d0b79e668cc7e93e03",
          "topics": [
            "0x5865b763d2fcaa2023d34f5622fec93cfc34b82e8625c1e622b9a6cb47a69239",
            "0x000000000000000000000000938a21b1f301206abb4e15340782b89ef7d83c9c"
          ],
          "data": "0x000000000000000000000000938a21b1f301206abb4e15340782b89ef7d83c9c000000000000000000000000284e9b7b623eae866914b7fa0eb720c2bb3c2980000000000000000000000000000000000000000000000000000000000000012c0000000000000000000000002738f38fde510743e0c589415e0598c4cee6eaa70000000000000000000000000000000000000000000000000001c6bf5263400000000000000000000000000000000000000000000000000000000000000000000000000000000000000000000000000000000000000000000001c6bf526340000000000000000000000000000000000000000000000000000000000000000000",
          "blockHash": "0x548c9751675595f93a63adf9eac474cdf58c242b34cdb60be2269d189cbcece2",
          "blockNumber": "0x1693363",
          "blockTimestamp": "0x69ea30f7",
          "transactionHash": "0xfca823e675d75e457fc4662ceeb2918094dcc85f7ec6e7fedd2cceea61c3425b",
          "transactionIndex": "0x1",
          "logIndex": "0x0",
          "removed": false
        }
      ],
      "logsBloom": "0x00000000000001000000000000000000000400000000000000000000000000000000000000000000000000000000000000000000000000000000000000000000000000000000000000000000000000000000000400000000000080000000000000000000000000000000000000000004000000000000000000000000000000000000000000000000000000000000000000000000000000000000000000000000000000000000000000000000000000000000000000000000000000000000000000000000000000000000000000000000000000000000002000000000000000008000000000000000000000000000020000000000000000000000000000080000",
      "transactionHash": "0xfca823e675d75e457fc4662ceeb2918094dcc85f7ec6e7fedd2cceea61c3425b",
      "transactionIndex": "0x1",
      "blockHash": "0x548c9751675595f93a63adf9eac474cdf58c242b34cdb60be2269d189cbcece2",
      "blockNumber": "0x1693363",
      "gasUsed": "0x2f079",
      "effectiveGasPrice": "0xba43b7401",
      "blobGasUsed": "0xc7",
      "from": "0x2738f38fde510743e0c589415e0598c4cee6eaa7",
      "to": "0x065ae7d4e207c8f4dca112d0b79e668cc7e93e03",
      "contractAddress": null
    },
    {
      "type": "0x2",
      "status": "0x1",
      "cumulativeGasUsed": "0x13426",
      "logs": [
        {
          "address": "0xf3218ddb3f1a61cccdfc5c0e0acfed0c09c61f0b",
          "topics": [
            "0x7e0a6614158456b5ff78485738c59d16f2be04a2d3943e66ea440c438a53cbff",
            "0x0000000000000000000000004f2746e21a13ea9a8a832d929cdbf32ffc113a2c",
            "0x0000000000000000000000004f2746e21a13ea9a8a832d929cdbf32ffc113a2c"
          ],
          "data": "0x",
          "blockHash": "0x50d0162e3c53bc435b7d312de96e5e57622efaf081eaf27c2672485e9b680a63",
          "blockNumber": "0x1693365",
          "blockTimestamp": "0x69ea30f9",
          "transactionHash": "0x9da660f4793d1c4ba7b7c0e94891554bc572eaffdbcf3616a66b63beac06a753",
          "transactionIndex": "0x1",
          "logIndex": "0x0",
          "removed": false
        }
      ],
      "logsBloom": "0x00000000000000000000000000000000000000000000000000000000000004000000000000000000000000000000000000000000000000000000080000000000000000000000000000000000000000000000000000000000000000000400000000000000000000000000800000000000000000000000000000000000000000000000000000000000000000000000000000000000000000000000000000000000000000000000000000000000200000000000000000000000000800000000000000000000000000000000000000000000000000000000100000000000000000000000000000000000000000000000400000000000000000080000000000000000",
      "transactionHash": "0x9da660f4793d1c4ba7b7c0e94891554bc572eaffdbcf3616a66b63beac06a753",
      "transactionIndex": "0x1",
      "blockHash": "0x50d0162e3c53bc435b7d312de96e5e57622efaf081eaf27c2672485e9b680a63",
      "blockNumber": "0x1693365",
      "gasUsed": "0x7ffc",
      "effectiveGasPrice": "0xba43b7401",
      "blobGasUsed": "0x64",
      "from": "0x2738f38fde510743e0c589415e0598c4cee6eaa7",
      "to": "0xf3218ddb3f1a61cccdfc5c0e0acfed0c09c61f0b",
      "contractAddress": null
    },
    {
      "type": "0x2",
      "status": "0x1",
      "cumulativeGasUsed": "0x183ed",
      "logs": [
        {
          "address": "0xde9e4c3ce781b4ba68120d6261cbad65ce0ab00b",
          "topics": [
            "0xb21afb9ce9be0a676f8f317ff0ca072fb89a4f8ce2d1b6fe80f8755c14f1cb19",
            "0x000000000000000000000000f179d705706cd959884e40b1ea21c95ec84d9e14"
          ],
          "data": "0x0000000000000000000000000000000000000000000000000000000000000001",
          "blockHash": "0x8d0610fe190a3a55415747cc568040c0ed51ab78af6d9fe1bcb9d103e2fdb12c",
          "blockNumber": "0x1693368",
          "blockTimestamp": "0x69ea30fc",
          "transactionHash": "0x8c38e0e69e7b762e4e1747ac40e17cb92338355b4c38d9b260448b8dc3e70ad8",
          "transactionIndex": "0x1",
          "logIndex": "0x0",
          "removed": false
        }
      ],
      "logsBloom": "0x00000000000000000000000000000000000000000000000000000000000000000000000000000000000000000000000000000040000000040000000000000080000000000000000000000000000000000000000000000008000000000000000000000000000000000000000000000000000000000000000000000000000000000000000000000000000000000000000000000000000000000000200000000000000000000000002000000000000000000000000000000000000000000000400000000000000000000000000000000000000000000000000000000000800000000000000004000000000000000000000000000000000000000000000000000000",
      "transactionHash": "0x8c38e0e69e7b762e4e1747ac40e17cb92338355b4c38d9b260448b8dc3e70ad8",
      "transactionIndex": "0x1",
      "blockHash": "0x8d0610fe190a3a55415747cc568040c0ed51ab78af6d9fe1bcb9d103e2fdb12c",
      "blockNumber": "0x1693368",
      "gasUsed": "0xcfc3",
      "effectiveGasPrice": "0xba43b7401",
      "blobGasUsed": "0x64",
      "from": "0x2738f38fde510743e0c589415e0598c4cee6eaa7",
      "to": "0xde9e4c3ce781b4ba68120d6261cbad65ce0ab00b",
      "contractAddress": null
    },
    {
      "type": "0x2",
      "status": "0x1",
      "cumulativeGasUsed": "0x18411",
      "logs": [
        {
          "address": "0x284e9b7b623eae866914b7fa0eb720c2bb3c2980",
          "topics": [
            "0xf0e5abe4ab32ea692e3889b4c146fd4ddae5f17bb40ab4feba97fb67a2d4de0f",
            "0x000000000000000000000000f179d705706cd959884e40b1ea21c95ec84d9e14"
          ],
          "data": "0x0000000000000000000000000000000000000000000000000000000000000001",
          "blockHash": "0xe940cf534f6c770f83922ca18d5ffd72f1dedb1e43b8f4ae4fba2056d34bc631",
          "blockNumber": "0x169336a",
          "blockTimestamp": "0x69ea30fe",
          "transactionHash": "0x409aeb50a7758be7b0c43b7c875bdb1d38e179a1617245140f4bd97edd79c168",
          "transactionIndex": "0x1",
          "logIndex": "0x0",
          "removed": false
        }
      ],
      "logsBloom": "0x00000000000000000000000000000000000000000000000000000000000000000020000000000000000000000000000000000000040000000000000000000000100000000000000000000000000000000000000020000000000000000000000000000000000000000000000000000000000000000000000000000000000000000000000000000000000000000000000000000000800000000000000000000000000000000000002000000000000000000000000000000000000000000000400000000000000000000000000000000000000000000000000000000000000000000000000024000000000000000000000000000000000000000000000000000000",
      "transactionHash": "0x409aeb50a7758be7b0c43b7c875bdb1d38e179a1617245140f4bd97edd79c168",
      "transactionIndex": "0x1",
      "blockHash": "0xe940cf534f6c770f83922ca18d5ffd72f1dedb1e43b8f4ae4fba2056d34bc631",
      "blockNumber": "0x169336a",
      "gasUsed": "0xcfe7",
      "effectiveGasPrice": "0xba43b7401",
      "blobGasUsed": "0x64",
      "from": "0x2738f38fde510743e0c589415e0598c4cee6eaa7",
      "to": "0x284e9b7b623eae866914b7fa0eb720c2bb3c2980",
      "contractAddress": null
    },
    {
      "type": "0x2",
      "status": "0x1",
      "cumulativeGasUsed": "0x14d98",
      "logs": [
        {
          "address": "0x471ece3750da237f93b8e339c536989b8978a438",
          "topics": [
            "0xddf252ad1be2c89b69c2b068fc378daa952ba7f163c4a11628f55a4df523b3ef",
            "0x0000000000000000000000002738f38fde510743e0c589415e0598c4cee6eaa7",
            "0x000000000000000000000000f179d705706cd959884e40b1ea21c95ec84d9e14"
          ],
          "data": "0x0000000000000000000000000000000000000000000000000de0b6b3a7640000",
          "blockHash": "0x50bab898c0a377fb0aa5a3273e838684ca0d21aacbe1afe388562d131e5df584",
          "blockNumber": "0x169336d",
          "blockTimestamp": "0x69ea3101",
          "transactionHash": "0xead4fb21abe34e20439b22e266819948b9fbb13601b1774140300f2470c38545",
          "transactionIndex": "0x1",
          "logIndex": "0x0",
          "removed": false
        }
      ],
      "logsBloom": "0x00000000000000000000000000000000000000000000000000000000000000000000000000000000000100000000000000000000000000000000000000000000002000000000000000000008000000000000000000000000000000000000000000000000000000000000000040000000000000000000000000000010000000000000000000000000000000000000000000000000000000000000000000000010000000000000002000000000000000000000000000000000000000000000400000000802000000000000000000000000000000000000000000000000000000000000000004000000000000000000000000000000000000000000000004000000",
      "transactionHash": "0xead4fb21abe34e20439b22e266819948b9fbb13601b1774140300f2470c38545",
      "transactionIndex": "0x1",
      "blockHash": "0x50bab898c0a377fb0aa5a3273e838684ca0d21aacbe1afe388562d131e5df584",
      "blockNumber": "0x169336d",
      "gasUsed": "0x996e",
      "effectiveGasPrice": "0xba43b7401",
      "blobGasUsed": "0x64",
      "from": "0x2738f38fde510743e0c589415e0598c4cee6eaa7",
      "to": "0x471ece3750da237f93b8e339c536989b8978a438",
      "contractAddress": null
    },
    {
      "type": "0x2",
      "status": "0x1",
      "cumulativeGasUsed": "0xe9abe",
      "logs": [
        {
          "address": "0xde9e4c3ce781b4ba68120d6261cbad65ce0ab00b",
          "topics": [
            "0xddf252ad1be2c89b69c2b068fc378daa952ba7f163c4a11628f55a4df523b3ef",
            "0x0000000000000000000000000000000000000000000000000000000000000000",
            "0x000000000000000000000000f179d705706cd959884e40b1ea21c95ec84d9e14"
          ],
          "data": "0x00000000000000000000000000000000000000000000036692befb2720f7770a",
          "blockHash": "0x86327c3060742a0af40876060178b2ad7ecab32ddd7135e5116b60ce6ee00b55",
          "blockNumber": "0x1693370",
          "blockTimestamp": "0x69ea3104",
          "transactionHash": "0x6263791d22da0048c31ff52fc7dfc6bcc304593c5f863b1711a6d7f20690564d",
          "transactionIndex": "0x1",
          "logIndex": "0x0",
          "removed": false
        },
        {
          "address": "0xde9e4c3ce781b4ba68120d6261cbad65ce0ab00b",
          "topics": [
            "0x8c5be1e5ebec7d5bd14f71427d1e84f3dd0314c0f7b2291e5b200ac8c7c3b925",
            "0x000000000000000000000000f179d705706cd959884e40b1ea21c95ec84d9e14",
            "0x0000000000000000000000004f21869fcd5813184d324872cb732f4eb8e9f5ab"
          ],
          "data": "0x00000000000000000000000000000000000000000000036692befb2720f7770a",
          "blockHash": "0x86327c3060742a0af40876060178b2ad7ecab32ddd7135e5116b60ce6ee00b55",
          "blockNumber": "0x1693370",
          "blockTimestamp": "0x69ea3104",
          "transactionHash": "0x6263791d22da0048c31ff52fc7dfc6bcc304593c5f863b1711a6d7f20690564d",
          "transactionIndex": "0x1",
          "logIndex": "0x1",
          "removed": false
        },
        {
          "address": "0x471ece3750da237f93b8e339c536989b8978a438",
          "topics": [
            "0x8c5be1e5ebec7d5bd14f71427d1e84f3dd0314c0f7b2291e5b200ac8c7c3b925",
            "0x000000000000000000000000f179d705706cd959884e40b1ea21c95ec84d9e14",
            "0x0000000000000000000000004f21869fcd5813184d324872cb732f4eb8e9f5ab"
          ],
          "data": "0x0000000000000000000000000000000000000000000000000de0b6b3a7640000",
          "blockHash": "0x86327c3060742a0af40876060178b2ad7ecab32ddd7135e5116b60ce6ee00b55",
          "blockNumber": "0x1693370",
          "blockTimestamp": "0x69ea3104",
          "transactionHash": "0x6263791d22da0048c31ff52fc7dfc6bcc304593c5f863b1711a6d7f20690564d",
          "transactionIndex": "0x1",
          "logIndex": "0x2",
          "removed": false
        },
        {
          "address": "0x4f21869fcd5813184d324872cb732f4eb8e9f5ab",
          "topics": [
            "0x3942babd464ceb1c7d319f75245a8cd41334592b45507f072e7020e63c22a8dc",
            "0x25cbc463c51b5fc5f7c67821d86c0f89937636973226a37446e54d82e18841e5"
          ],
          "data": "0x0000000000000000000000000000000000000000000000000000000000000000",
          "blockHash": "0x86327c3060742a0af40876060178b2ad7ecab32ddd7135e5116b60ce6ee00b55",
          "blockNumber": "0x1693370",
          "blockTimestamp": "0x69ea3104",
          "transactionHash": "0x6263791d22da0048c31ff52fc7dfc6bcc304593c5f863b1711a6d7f20690564d",
          "transactionIndex": "0x1",
          "logIndex": "0x3",
          "removed": false
        },
        {
          "address": "0x4f21869fcd5813184d324872cb732f4eb8e9f5ab",
          "topics": [
            "0x649442545e0f313a6d8087b19bc47bd2bd9b63f79d23a773446e00d2ea01d169",
            "0x25cbc463c51b5fc5f7c67821d86c0f89937636973226a37446e54d82e18841e5"
          ],
          "data": "0x00000000000000000000000000000000000000000000000000000000000000000000000000000000000000000000000000000000000000000000000000000000",
          "blockHash": "0x86327c3060742a0af40876060178b2ad7ecab32ddd7135e5116b60ce6ee00b55",
          "blockNumber": "0x1693370",
          "blockTimestamp": "0x69ea3104",
          "transactionHash": "0x6263791d22da0048c31ff52fc7dfc6bcc304593c5f863b1711a6d7f20690564d",
          "transactionIndex": "0x1",
          "logIndex": "0x4",
          "removed": false
        },
        {
          "address": "0x284e9b7b623eae866914b7fa0eb720c2bb3c2980",
          "topics": [
            "0xddf252ad1be2c89b69c2b068fc378daa952ba7f163c4a11628f55a4df523b3ef",
            "0x0000000000000000000000000000000000000000000000000000000000000000",
            "0x0000000000000000000000002738f38fde510743e0c589415e0598c4cee6eaa7"
          ],
          "data": "0x0000000000000000000000000000000000000000000000000fb5c9a10fa2760c",
          "blockHash": "0x86327c3060742a0af40876060178b2ad7ecab32ddd7135e5116b60ce6ee00b55",
          "blockNumber": "0x1693370",
          "blockTimestamp": "0x69ea3104",
          "transactionHash": "0x6263791d22da0048c31ff52fc7dfc6bcc304593c5f863b1711a6d7f20690564d",
          "transactionIndex": "0x1",
          "logIndex": "0x5",
          "removed": false
        },
        {
          "address": "0x284e9b7b623eae866914b7fa0eb720c2bb3c2980",
          "topics": [
            "0xddf252ad1be2c89b69c2b068fc378daa952ba7f163c4a11628f55a4df523b3ef",
            "0x0000000000000000000000000000000000000000000000000000000000000000",
            "0x000000000000000000000000aeafebc8ef593b6d5e93742ad50040484b55a7ea"
          ],
          "data": "0x0000000000000000000000000000000000000000000000002f215ce32ee76223",
          "blockHash": "0x86327c3060742a0af40876060178b2ad7ecab32ddd7135e5116b60ce6ee00b55",
          "blockNumber": "0x1693370",
          "blockTimestamp": "0x69ea3104",
          "transactionHash": "0x6263791d22da0048c31ff52fc7dfc6bcc304593c5f863b1711a6d7f20690564d",
          "transactionIndex": "0x1",
          "logIndex": "0x6",
          "removed": false
        },
        {
          "address": "0xde9e4c3ce781b4ba68120d6261cbad65ce0ab00b",
          "topics": [
            "0x8c5be1e5ebec7d5bd14f71427d1e84f3dd0314c0f7b2291e5b200ac8c7c3b925",
            "0x000000000000000000000000f179d705706cd959884e40b1ea21c95ec84d9e14",
            "0x0000000000000000000000004f21869fcd5813184d324872cb732f4eb8e9f5ab"
          ],
          "data": "0x0000000000000000000000000000000000000000000000000000000000000000",
          "blockHash": "0x86327c3060742a0af40876060178b2ad7ecab32ddd7135e5116b60ce6ee00b55",
          "blockNumber": "0x1693370",
          "blockTimestamp": "0x69ea3104",
          "transactionHash": "0x6263791d22da0048c31ff52fc7dfc6bcc304593c5f863b1711a6d7f20690564d",
          "transactionIndex": "0x1",
          "logIndex": "0x7",
          "removed": false
        },
        {
          "address": "0xde9e4c3ce781b4ba68120d6261cbad65ce0ab00b",
          "topics": [
            "0xddf252ad1be2c89b69c2b068fc378daa952ba7f163c4a11628f55a4df523b3ef",
            "0x000000000000000000000000f179d705706cd959884e40b1ea21c95ec84d9e14",
            "0x00000000000000000000000069b32da57d04c23f7e58a9d8caa22095c9671954"
          ],
          "data": "0x00000000000000000000000000000000000000000000036692befb2720f7770a",
          "blockHash": "0x86327c3060742a0af40876060178b2ad7ecab32ddd7135e5116b60ce6ee00b55",
          "blockNumber": "0x1693370",
          "blockTimestamp": "0x69ea3104",
          "transactionHash": "0x6263791d22da0048c31ff52fc7dfc6bcc304593c5f863b1711a6d7f20690564d",
          "transactionIndex": "0x1",
          "logIndex": "0x8",
          "removed": false
        },
        {
          "address": "0x69b32da57d04c23f7e58a9d8caa22095c9671954",
          "topics": [
            "0x9bbe217b4113a0fc957e51f8db99c9989f520e3c6bcca7a8e12c6316eaf995bf"
          ],
          "data": "0x00000000000000000000000000000000000000000000036692befb2720f7770a",
          "blockHash": "0x86327c3060742a0af40876060178b2ad7ecab32ddd7135e5116b60ce6ee00b55",
          "blockNumber": "0x1693370",
          "blockTimestamp": "0x69ea3104",
          "transactionHash": "0x6263791d22da0048c31ff52fc7dfc6bcc304593c5f863b1711a6d7f20690564d",
          "transactionIndex": "0x1",
          "logIndex": "0x9",
          "removed": false
        },
        {
          "address": "0x284e9b7b623eae866914b7fa0eb720c2bb3c2980",
          "topics": [
            "0xddf252ad1be2c89b69c2b068fc378daa952ba7f163c4a11628f55a4df523b3ef",
            "0x0000000000000000000000000000000000000000000000000000000000000000",
            "0x000000000000000000000000f179d705706cd959884e40b1ea21c95ec84d9e14"
          ],
          "data": "0x0000000000000000000000000000000000000000000001aaa6a799dd2c139609",
          "blockHash": "0x86327c3060742a0af40876060178b2ad7ecab32ddd7135e5116b60ce6ee00b55",
          "blockNumber": "0x1693370",
          "blockTimestamp": "0x69ea3104",
          "transactionHash": "0x6263791d22da0048c31ff52fc7dfc6bcc304593c5f863b1711a6d7f20690564d",
          "transactionIndex": "0x1",
          "logIndex": "0xa",
          "removed": false
        },
        {
          "address": "0x471ece3750da237f93b8e339c536989b8978a438",
          "topics": [
            "0xddf252ad1be2c89b69c2b068fc378daa952ba7f163c4a11628f55a4df523b3ef",
            "0x000000000000000000000000f179d705706cd959884e40b1ea21c95ec84d9e14",
            "0x000000000000000000000000a7f8ed78399f542864616eb075a62da47b712867"
          ],
          "data": "0x0000000000000000000000000000000000000000000000000de0b6b3a7640000",
          "blockHash": "0x86327c3060742a0af40876060178b2ad7ecab32ddd7135e5116b60ce6ee00b55",
          "blockNumber": "0x1693370",
          "blockTimestamp": "0x69ea3104",
          "transactionHash": "0x6263791d22da0048c31ff52fc7dfc6bcc304593c5f863b1711a6d7f20690564d",
          "transactionIndex": "0x1",
          "logIndex": "0xb",
          "removed": false
        },
        {
          "address": "0x14cb2385825f2e9329db9a72bfb41f5d85185e6e",
          "topics": [
            "0xddf252ad1be2c89b69c2b068fc378daa952ba7f163c4a11628f55a4df523b3ef",
            "0x0000000000000000000000000000000000000000000000000000000000000000",
            "0x0000000000000000000000002738f38fde510743e0c589415e0598c4cee6eaa7",
            "0x25cbc463c51b5fc5f7c67821d86c0f89937636973226a37446e54d82e18841e5"
          ],
          "data": "0x",
          "blockHash": "0x86327c3060742a0af40876060178b2ad7ecab32ddd7135e5116b60ce6ee00b55",
          "blockNumber": "0x1693370",
          "blockTimestamp": "0x69ea3104",
          "transactionHash": "0x6263791d22da0048c31ff52fc7dfc6bcc304593c5f863b1711a6d7f20690564d",
          "transactionIndex": "0x1",
          "logIndex": "0xc",
          "removed": false
        },
        {
          "address": "0xc21dc07ec1707d315a7eff31a6556e628e43a3f8",
          "topics": [
            "0x0fba2673863b12c7b8463f3fa2f9b0cb1d534c573cdec5b5d895ee00d6ce6f5e",
            "0x25cbc463c51b5fc5f7c67821d86c0f89937636973226a37446e54d82e18841e5"
          ],
          "data": "0x0000000000000000000000000000000000000000000001aae57ec0616a9d6e3800000000000000000000000000000000000000000000036692befb2720f7770a00000000000000000000000000000000000000000000036692befb2720f7770a000000000000000000000000000000000000000000000000006a94d74f43000000000000000000000000000000000000000000000000000000000000000000000000000000000000000000000000000000000000000000000000000000000000",
          "blockHash": "0x86327c3060742a0af40876060178b2ad7ecab32ddd7135e5116b60ce6ee00b55",
          "blockNumber": "0x1693370",
          "blockTimestamp": "0x69ea3104",
          "transactionHash": "0x6263791d22da0048c31ff52fc7dfc6bcc304593c5f863b1711a6d7f20690564d",
          "transactionIndex": "0x1",
          "logIndex": "0xd",
          "removed": false
        },
        {
          "address": "0xc21dc07ec1707d315a7eff31a6556e628e43a3f8",
          "topics": [
            "0x962110f281c1213763cd97a546b337b3cbfd25a31ea9723e9d8b7376ba45da1a",
            "0x25cbc463c51b5fc5f7c67821d86c0f89937636973226a37446e54d82e18841e5"
          ],
          "data": "0x0000000000000000000000000000000000000000000000000000000000000000000000000000000000000000000000000000000000000000006a94d74f43000000000000000000000000000000000000000000000000000000000000000000000000000000000000000000000000000000000000000000003ed726843e89d82f0000000000000000000000000000000000000000000001aaa6a799dd2c139609000000000000000000000000000000000000000000000000000000000000000000000000000000000000000000000000000000000000036692befb2720f7770a",
          "blockHash": "0x86327c3060742a0af40876060178b2ad7ecab32ddd7135e5116b60ce6ee00b55",
          "blockNumber": "0x1693370",
          "blockTimestamp": "0x69ea3104",
          "transactionHash": "0x6263791d22da0048c31ff52fc7dfc6bcc304593c5f863b1711a6d7f20690564d",
          "transactionIndex": "0x1",
          "logIndex": "0xe",
          "removed": false
        },
        {
          "address": "0x284e9b7b623eae866914b7fa0eb720c2bb3c2980",
          "topics": [
            "0xddf252ad1be2c89b69c2b068fc378daa952ba7f163c4a11628f55a4df523b3ef",
            "0x000000000000000000000000f179d705706cd959884e40b1ea21c95ec84d9e14",
            "0x0000000000000000000000000000000000000000000000000000000000000000"
          ],
          "data": "0x0000000000000000000000000000000000000000000001aaa6a799dd2c139609",
          "blockHash": "0x86327c3060742a0af40876060178b2ad7ecab32ddd7135e5116b60ce6ee00b55",
          "blockNumber": "0x1693370",
          "blockTimestamp": "0x69ea3104",
          "transactionHash": "0x6263791d22da0048c31ff52fc7dfc6bcc304593c5f863b1711a6d7f20690564d",
          "transactionIndex": "0x1",
          "logIndex": "0xf",
          "removed": false
        },
        {
          "address": "0xf179d705706cd959884e40b1ea21c95ec84d9e14",
          "topics": [
            "0x9f6aa3c522783fd3e83c888a4d0c5452e521fb7518cec88c8468b56cec4665a9",
            "0x0000000000000000000000001e3cccc62cebd9bf2a26ba512e3abee086816c58",
            "0x25cbc463c51b5fc5f7c67821d86c0f89937636973226a37446e54d82e18841e5"
          ],
          "data": "0x0000000000000000000000000000000000000000000001aaa6a799dd2c13960900000000000000000000000000000000000000000000036692befb2720f7770a",
          "blockHash": "0x86327c3060742a0af40876060178b2ad7ecab32ddd7135e5116b60ce6ee00b55",
          "blockNumber": "0x1693370",
          "blockTimestamp": "0x69ea3104",
          "transactionHash": "0x6263791d22da0048c31ff52fc7dfc6bcc304593c5f863b1711a6d7f20690564d",
          "transactionIndex": "0x1",
          "logIndex": "0x10",
          "removed": false
        }
      ],
      "logsBloom": "0x00001020000400000800000100000040000010000000020010000100004000000020000000000000088100000000000000000040000020000000000004200040002008000040000004000008000000002000000400000008000020800000000000000000020000000000000040000800000000000000208000000010209000000200000000000000000000000000000000000000800000000000000000100010020000000400002000200000000000080000080000008000000000004000420000000802000000000000400000000000000000000000000000020000800020000010000024000000000240000040000000010000880400110000000004002000",
      "transactionHash": "0x6263791d22da0048c31ff52fc7dfc6bcc304593c5f863b1711a6d7f20690564d",
      "transactionIndex": "0x1",
      "blockHash": "0x86327c3060742a0af40876060178b2ad7ecab32ddd7135e5116b60ce6ee00b55",
      "blockNumber": "0x1693370",
      "gasUsed": "0xde694",
      "effectiveGasPrice": "0xba43b7401",
      "blobGasUsed": "0x66",
      "from": "0x2738f38fde510743e0c589415e0598c4cee6eaa7",
      "to": "0xf179d705706cd959884e40b1ea21c95ec84d9e14",
      "contractAddress": null
    },
    {
      "type": "0x2",
      "status": "0x1",
      "cumulativeGasUsed": "0x12e55",
      "logs": [
        {
          "address": "0xde9e4c3ce781b4ba68120d6261cbad65ce0ab00b",
          "topics": [
            "0xb21afb9ce9be0a676f8f317ff0ca072fb89a4f8ce2d1b6fe80f8755c14f1cb19",
            "0x000000000000000000000000f179d705706cd959884e40b1ea21c95ec84d9e14"
          ],
          "data": "0x0000000000000000000000000000000000000000000000000000000000000000",
          "blockHash": "0x35e48ec328d928887d72430ff55341e2ff32d2b54bc26d79796e84f8930fe403",
          "blockNumber": "0x1693372",
          "blockTimestamp": "0x69ea3106",
          "transactionHash": "0x01b71bae400c2ba15ac1ab5ab50f2e2cfbbc72466826902d8ace0518993556be",
          "transactionIndex": "0x1",
          "logIndex": "0x0",
          "removed": false
        }
      ],
      "logsBloom": "0x00000000000000000000000000000000000000000000000000000000000000000000000000000000000000000000000000000040000000040000000000000080000000000000000000000000000000000000000000000008000000000000000000000000000000000000000000000000000000000000000000000000000000000000000000000000000000000000000000000000000000000000200000000000000000000000002000000000000000000000000000000000000000000000400000000000000000000000000000000000000000000000000000000000800000000000000004000000000000000000000000000000000000000000000000000000",
      "transactionHash": "0x01b71bae400c2ba15ac1ab5ab50f2e2cfbbc72466826902d8ace0518993556be",
      "transactionIndex": "0x1",
      "blockHash": "0x35e48ec328d928887d72430ff55341e2ff32d2b54bc26d79796e84f8930fe403",
      "blockNumber": "0x1693372",
      "gasUsed": "0x7a2b",
      "effectiveGasPrice": "0xba43b7401",
      "blobGasUsed": "0x64",
      "from": "0x2738f38fde510743e0c589415e0598c4cee6eaa7",
      "to": "0xde9e4c3ce781b4ba68120d6261cbad65ce0ab00b",
      "contractAddress": null
    },
    {
      "type": "0x2",
      "status": "0x1",
      "cumulativeGasUsed": "0x12e79",
      "logs": [
        {
          "address": "0x284e9b7b623eae866914b7fa0eb720c2bb3c2980",
          "topics": [
            "0xf0e5abe4ab32ea692e3889b4c146fd4ddae5f17bb40ab4feba97fb67a2d4de0f",
            "0x000000000000000000000000f179d705706cd959884e40b1ea21c95ec84d9e14"
          ],
          "data": "0x0000000000000000000000000000000000000000000000000000000000000000",
          "blockHash": "0xb120b0f7230361448f7301e26d12d01f5e9e585e6a160b6b67375562f9998466",
          "blockNumber": "0x1693374",
          "blockTimestamp": "0x69ea3108",
          "transactionHash": "0x533da4fbe371c3342327e33d1ca17f5bca91a3b8bc21b21188018fa59fd9290b",
          "transactionIndex": "0x1",
          "logIndex": "0x0",
          "removed": false
        }
      ],
      "logsBloom": "0x00000000000000000000000000000000000000000000000000000000000000000020000000000000000000000000000000000000040000000000000000000000100000000000000000000000000000000000000020000000000000000000000000000000000000000000000000000000000000000000000000000000000000000000000000000000000000000000000000000000800000000000000000000000000000000000002000000000000000000000000000000000000000000000400000000000000000000000000000000000000000000000000000000000000000000000000024000000000000000000000000000000000000000000000000000000",
      "transactionHash": "0x533da4fbe371c3342327e33d1ca17f5bca91a3b8bc21b21188018fa59fd9290b",
      "transactionIndex": "0x1",
      "blockHash": "0xb120b0f7230361448f7301e26d12d01f5e9e585e6a160b6b67375562f9998466",
      "blockNumber": "0x1693374",
      "gasUsed": "0x7a4f",
      "effectiveGasPrice": "0xba43b7401",
      "blobGasUsed": "0x64",
      "from": "0x2738f38fde510743e0c589415e0598c4cee6eaa7",
      "to": "0x284e9b7b623eae866914b7fa0eb720c2bb3c2980",
      "contractAddress": null
    }
  ],
  "libraries": [
    "node_modules/@celo/contracts/common/linkedlists/AddressSortedLinkedListWithMedian.sol:AddressSortedLinkedListWithMedian:0xf90B816Ea07eC3c6384656cd5B3249DA8fc3df6F"
  ],
  "pending": [],
  "returns": {},
  "timestamp": 1776955656560,
  "chain": 11142220,
  "commit": "273ee36"
}