{
  "transactions": [
    {
      "hash": "0x2203333c25817cfd8605d726faa5b26100d5a3b1a2b4201b2ddca4726f30683e",
      "transactionType": "CALL",
      "contractName": null,
      "contractAddress": "0x32cb58b145d3f7e28c45ce4b2cc31fa94248b23f",
      "function": "execTransaction(address,uint256,bytes,uint8,uint256,uint256,uint256,address,address,bytes)",
      "arguments": [
        "0xba5Ed099633D3B313e4D5F7bdc1305d3c28ba5Ed",
        "0",
        "0x9c36a28632cb58b145d3f7e28c45ce4b2cc31fa94248b23f0091a5c814b5fccaf0aef1fe000000000000000000000000000000000000000000000000000000000000004000000000000000000000000000000000000000000000000000000000000005066080604052348015600e575f5ffd5b506040516104e63803806104e6833981016040819052602b9160b4565b806001600160a01b038116605857604051631e4fbdf760e01b81525f600482015260240160405180910390fd5b605f816065565b505060df565b5f80546001600160a01b038381166001600160a01b0319831681178455604051919092169283917f8be0079c531659141344cd1fd0a4f28419497f9722a3daafe3b4186f6b6457e09190a35050565b5f6020828403121560c3575f5ffd5b81516001600160a01b038116811460d8575f5ffd5b9392505050565b6103fa806100ec5f395ff3fe608060405260043610610049575f3560e01c8063715018a61461004d5780638da5cb5b146100635780639623609d1461008e578063ad3cb1cc146100a1578063f2fde38b146100de575b5f5ffd5b348015610058575f5ffd5b506100616100fd565b005b34801561006e575f5ffd5b505f546040516001600160a01b0390911681526020015b60405180910390f35b61006161009c366004610260565b610110565b3480156100ac575f5ffd5b506100d1604051806040016040528060058152602001640352e302e360dc1b81525081565b6040516100859190610365565b3480156100e9575f5ffd5b506100616100f836600461037e565b61017b565b6101056101bd565b61010e5f6101e9565b565b6101186101bd565b60405163278f794360e11b81526001600160a01b03841690634f1ef2869034906101489086908690600401610399565b5f604051808303818588803b15801561015f575f5ffd5b505af1158015610171573d5f5f3e3d5ffd5b5050505050505050565b6101836101bd565b6001600160a01b0381166101b157604051631e4fbdf760e01b81525f60048201526024015b60405180910390fd5b6101ba816101e9565b50565b5f546001600160a01b0316331461010e5760405163118cdaa760e01b81523360048201526024016101a8565b5f80546001600160a01b038381166001600160a01b0319831681178455604051919092169283917f8be0079c531659141344cd1fd0a4f28419497f9722a3daafe3b4186f6b6457e09190a35050565b6001600160a01b03811681146101ba575f5ffd5b634e487b7160e01b5f52604160045260245ffd5b5f5f5f60608486031215610272575f5ffd5b833561027d81610238565b9250602084013561028d81610238565b9150604084013567ffffffffffffffff8111156102a8575f5ffd5b8401601f810186136102b8575f5ffd5b803567ffffffffffffffff8111156102d2576102d261024c565b604051601f8201601f19908116603f0116810167ffffffffffffffff811182821017156103015761030161024c565b604052818152828201602001881015610318575f5ffd5b816020840160208301375f602083830101528093505050509250925092565b5f81518084528060208401602086015e5f602082860101526020601f19601f83011685010191505092915050565b602081525f6103776020830184610337565b9392505050565b5f6020828403121561038e575f5ffd5b813561037781610238565b6001600160a01b03831681526040602082018190525f906103bc90830184610337565b94935050505056fea2646970667358221220c2e78b540180d57eb721e6b1f0384dfdcf9ebdeb4edf3596b1892925878fd8fa64736f6c634300081e003300000000000000000000000032cb58b145d3f7e28c45ce4b2cc31fa94248b23f0000000000000000000000000000000000000000000000000000",
        "0",
        "0",
        "0",
        "0",
        "0x0000000000000000000000000000000000000000",
        "0x0000000000000000000000000000000000000000",
        "0x92cd5d1add78b12166abdfeb7d354c086a676bbdf7acc8f62146942a7610280c7ff4b00039109669d7f81e6477762651af93f36992f6282b2243696c445e42f21c"
      ],
      "transaction": {
        "from": "0x56fd3f2bee130e9867942d0f463a16fbe49b8d81",
        "to": "0x32cb58b145d3f7e28c45ce4b2cc31fa94248b23f",
        "gas": "0x933bc",
        "value": "0x0",
        "input": "0x6a761202000000000000000000000000ba5ed099633d3b313e4d5f7bdc1305d3c28ba5ed00000000000000000000000000000000000000000000000000000000000000000000000000000000000000000000000000000000000000000000000000000140000000000000000000000000000000000000000000000000000000000000000000000000000000000000000000000000000000000000000000000000000000000000000000000000000000000000000000000000000000000000000000000000000000000000000000000000000000000000000000000000000000000000000000000000000000000000000000000000000000000000000000000000000000000000000000000000000000000000000000000000000000000000000000000000000000000000000000000000000000000000000000000000000000000000070000000000000000000000000000000000000000000000000000000000000005849c36a28632cb58b145d3f7e28c45ce4b2cc31fa94248b23f0091a5c814b5fccaf0aef1fe000000000000000000000000000000000000000000000000000000000000004000000000000000000000000000000000000000000000000000000000000005066080604052348015600e575f5ffd5b506040516104e63803806104e6833981016040819052602b9160b4565b806001600160a01b038116605857604051631e4fbdf760e01b81525f600482015260240160405180910390fd5b605f816065565b505060df565b5f80546001600160a01b038381166001600160a01b0319831681178455604051919092169283917f8be0079c531659141344cd1fd0a4f28419497f9722a3daafe3b4186f6b6457e09190a35050565b5f6020828403121560c3575f5ffd5b81516001600160a01b038116811460d8575f5ffd5b9392505050565b6103fa806100ec5f395ff3fe608060405260043610610049575f3560e01c8063715018a61461004d5780638da5cb5b146100635780639623609d1461008e578063ad3cb1cc146100a1578063f2fde38b146100de575b5f5ffd5b348015610058575f5ffd5b506100616100fd565b005b34801561006e575f5ffd5b505f546040516001600160a01b0390911681526020015b60405180910390f35b61006161009c366004610260565b610110565b3480156100ac575f5ffd5b506100d1604051806040016040528060058152602001640352e302e360dc1b81525081565b6040516100859190610365565b3480156100e9575f5ffd5b506100616100f836600461037e565b61017b565b6101056101bd565b61010e5f6101e9565b565b6101186101bd565b60405163278f794360e11b81526001600160a01b03841690634f1ef2869034906101489086908690600401610399565b5f604051808303818588803b15801561015f575f5ffd5b505af1158015610171573d5f5f3e3d5ffd5b5050505050505050565b6101836101bd565b6001600160a01b0381166101b157604051631e4fbdf760e01b81525f60048201526024015b60405180910390fd5b6101ba816101e9565b50565b5f546001600160a01b0316331461010e5760405163118cdaa760e01b81523360048201526024016101a8565b5f80546001600160a01b038381166001600160a01b0319831681178455604051919092169283917f8be0079c531659141344cd1fd0a4f28419497f9722a3daafe3b4186f6b6457e09190a35050565b6001600160a01b03811681146101ba575f5ffd5b634e487b7160e01b5f52604160045260245ffd5b5f5f5f60608486031215610272575f5ffd5b833561027d81610238565b9250602084013561028d81610238565b9150604084013567ffffffffffffffff8111156102a8575f5ffd5b8401601f810186136102b8575f5ffd5b803567ffffffffffffffff8111156102d2576102d261024c565b604051601f8201601f19908116603f0116810167ffffffffffffffff811182821017156103015761030161024c565b604052818152828201602001881015610318575f5ffd5b816020840160208301375f602083830101528093505050509250925092565b5f81518084528060208401602086015e5f602082860101526020601f19601f83011685010191505092915050565b602081525f6103776020830184610337565b9392505050565b5f6020828403121561038e575f5ffd5b813561037781610238565b6001600160a01b03831681526040602082018190525f906103bc90830184610337565b94935050505056fea2646970667358221220c2e78b540180d57eb721e6b1f0384dfdcf9ebdeb4edf3596b1892925878fd8fa64736f6c634300081e003300000000000000000000000032cb58b145d3f7e28c45ce4b2cc31fa94248b23f000000000000000000000000000000000000000000000000000000000000000000000000000000000000000000000000000000000000000000000000000000000000000000000000000000000000000000000000004192cd5d1add78b12166abdfeb7d354c086a676bbdf7acc8f62146942a7610280c7ff4b00039109669d7f81e6477762651af93f36992f6282b2243696c445e42f21c00000000000000000000000000000000000000000000000000000000000000",
        "nonce": "0x1",
        "chainId": "0x2105"
      },
      "additionalContracts": [
        {
          "transactionType": "CREATE2",
          "address": "0x6dddf879f36c1aec146b7957632b25fc5e343973",
          "initCode": "0x67363d3d37363d34f03d5260086018f3"
        },
        {
          "transactionType": "CREATE",
          "address": "0x59c0c91e6b0efecf1453824d28450ca61f3d65b5",
          "initCode": "0x6080604052348015600e575f5ffd5b506040516104e63803806104e6833981016040819052602b9160b4565b806001600160a01b038116605857604051631e4fbdf760e01b81525f600482015260240160405180910390fd5b605f816065565b505060df565b5f80546001600160a01b038381166001600160a01b0319831681178455604051919092169283917f8be0079c531659141344cd1fd0a4f28419497f9722a3daafe3b4186f6b6457e09190a35050565b5f6020828403121560c3575f5ffd5b81516001600160a01b038116811460d8575f5ffd5b9392505050565b6103fa806100ec5f395ff3fe608060405260043610610049575f3560e01c8063715018a61461004d5780638da5cb5b146100635780639623609d1461008e578063ad3cb1cc146100a1578063f2fde38b146100de575b5f5ffd5b348015610058575f5ffd5b506100616100fd565b005b34801561006e575f5ffd5b505f546040516001600160a01b0390911681526020015b60405180910390f35b61006161009c366004610260565b610110565b3480156100ac575f5ffd5b506100d1604051806040016040528060058152602001640352e302e360dc1b81525081565b6040516100859190610365565b3480156100e9575f5ffd5b506100616100f836600461037e565b61017b565b6101056101bd565b61010e5f6101e9565b565b6101186101bd565b60405163278f794360e11b81526001600160a01b03841690634f1ef2869034906101489086908690600401610399565b5f604051808303818588803b15801561015f575f5ffd5b505af1158015610171573d5f5f3e3d5ffd5b5050505050505050565b6101836101bd565b6001600160a01b0381166101b157604051631e4fbdf760e01b81525f60048201526024015b60405180910390fd5b6101ba816101e9565b50565b5f546001600160a01b0316331461010e5760405163118cdaa760e01b81523360048201526024016101a8565b5f80546001600160a01b038381166001600160a01b0319831681178455604051919092169283917f8be0079c531659141344cd1fd0a4f28419497f9722a3daafe3b4186f6b6457e09190a35050565b6001600160a01b03811681146101ba575f5ffd5b634e487b7160e01b5f52604160045260245ffd5b5f5f5f60608486031215610272575f5ffd5b833561027d81610238565b9250602084013561028d81610238565b9150604084013567ffffffffffffffff8111156102a8575f5ffd5b8401601f810186136102b8575f5ffd5b803567ffffffffffffffff8111156102d2576102d261024c565b604051601f8201601f19908116603f0116810167ffffffffffffffff811182821017156103015761030161024c565b604052818152828201602001881015610318575f5ffd5b816020840160208301375f602083830101528093505050509250925092565b5f81518084528060208401602086015e5f602082860101526020601f19601f83011685010191505092915050565b602081525f6103776020830184610337565b9392505050565b5f6020828403121561038e575f5ffd5b813561037781610238565b6001600160a01b03831681526040602082018190525f906103bc90830184610337565b94935050505056fea2646970667358221220c2e78b540180d57eb721e6b1f0384dfdcf9ebdeb4edf3596b1892925878fd8fa64736f6c634300081e003300000000000000000000000032cb58b145d3f7e28c45ce4b2cc31fa94248b23f"
        }
      ],
      "isFixedGasLimit": false
    }
  ],
  "receipts": [
    {
      "status": "0x1",
      "cumulativeGasUsed": "0x64ac3",
      "logs": [
        {
          "address": "0x32cb58b145d3f7e28c45ce4b2cc31fa94248b23f",
          "topics": [
            "0x66753cd2356569ee081232e3be8909b950e0a76c1f8460c3a5e3c2be32b11bed"
          ],
          "data": "0x000000000000000000000000ba5ed099633d3b313e4d5f7bdc1305d3c28ba5ed00000000000000000000000000000000000000000000000000000000000000000000000000000000000000000000000000000000000000000000000000000160000000000000000000000000000000000000000000000000000000000000000000000000000000000000000000000000000000000000000000000000000000000000000000000000000000000000000000000000000000000000000000000000000000000000000000000000000000000000000000000000000000000000000000000000000000000000000000000000000000000000000000000000000000000000000000000000000000000000000000000000000000000000000000000000000000000000000000000000000000000000000000000000000000000000072000000000000000000000000000000000000000000000000000000000000007a000000000000000000000000000000000000000000000000000000000000005849c36a28632cb58b145d3f7e28c45ce4b2cc31fa94248b23f0091a5c814b5fccaf0aef1fe000000000000000000000000000000000000000000000000000000000000004000000000000000000000000000000000000000000000000000000000000005066080604052348015600e575f5ffd5b506040516104e63803806104e6833981016040819052602b9160b4565b806001600160a01b038116605857604051631e4fbdf760e01b81525f600482015260240160405180910390fd5b605f816065565b505060df565b5f80546001600160a01b038381166001600160a01b0319831681178455604051919092169283917f8be0079c531659141344cd1fd0a4f28419497f9722a3daafe3b4186f6b6457e09190a35050565b5f6020828403121560c3575f5ffd5b81516001600160a01b038116811460d8575f5ffd5b9392505050565b6103fa806100ec5f395ff3fe608060405260043610610049575f3560e01c8063715018a61461004d5780638da5cb5b146100635780639623609d1461008e578063ad3cb1cc146100a1578063f2fde38b146100de575b5f5ffd5b348015610058575f5ffd5b506100616100fd565b005b34801561006e575f5ffd5b505f546040516001600160a01b0390911681526020015b60405180910390f35b61006161009c366004610260565b610110565b3480156100ac575f5ffd5b506100d1604051806040016040528060058152602001640352e302e360dc1b81525081565b6040516100859190610365565b3480156100e9575f5ffd5b506100616100f836600461037e565b61017b565b6101056101bd565b61010e5f6101e9565b565b6101186101bd565b60405163278f794360e11b81526001600160a01b03841690634f1ef2869034906101489086908690600401610399565b5f604051808303818588803b15801561015f575f5ffd5b505af1158015610171573d5f5f3e3d5ffd5b5050505050505050565b6101836101bd565b6001600160a01b0381166101b157604051631e4fbdf760e01b81525f60048201526024015b60405180910390fd5b6101ba816101e9565b50565b5f546001600160a01b0316331461010e5760405163118cdaa760e01b81523360048201526024016101a8565b5f80546001600160a01b038381166001600160a01b0319831681178455604051919092169283917f8be0079c531659141344cd1fd0a4f28419497f9722a3daafe3b4186f6b6457e09190a35050565b6001600160a01b03811681146101ba575f5ffd5b634e487b7160e01b5f52604160045260245ffd5b5f5f5f60608486031215610272575f5ffd5b833561027d81610238565b9250602084013561028d81610238565b9150604084013567ffffffffffffffff8111156102a8575f5ffd5b8401601f810186136102b8575f5ffd5b803567ffffffffffffffff8111156102d2576102d261024c565b604051601f8201601f19908116603f0116810167ffffffffffffffff811182821017156103015761030161024c565b604052818152828201602001881015610318575f5ffd5b816020840160208301375f602083830101528093505050509250925092565b5f81518084528060208401602086015e5f602082860101526020601f19601f83011685010191505092915050565b602081525f6103776020830184610337565b9392505050565b5f6020828403121561038e575f5ffd5b813561037781610238565b6001600160a01b03831681526040602082018190525f906103bc90830184610337565b94935050505056fea2646970667358221220c2e78b540180d57eb721e6b1f0384dfdcf9ebdeb4edf3596b1892925878fd8fa64736f6c634300081e003300000000000000000000000032cb58b145d3f7e28c45ce4b2cc31fa94248b23f000000000000000000000000000000000000000000000000000000000000000000000000000000000000000000000000000000000000000000000000000000000000000000000000000000000000000000000000004192cd5d1add78b12166abdfeb7d354c086a676bbdf7acc8f62146942a7610280c7ff4b00039109669d7f81e6477762651af93f36992f6282b2243696c445e42f21c000000000000000000000000000000000000000000000000000000000000000000000000000000000000000000000000000000000000000000000000000060000000000000000000000000000000000000000000000000000000000000000000000000000000000000000056fd3f2bee130e9867942d0f463a16fbe49b8d810000000000000000000000000000000000000000000000000000000000000001",
          "blockHash": "0xde4eedbb6c513249c110ff7c7ce391fdc623bc5e3554c6b01704908b1aca6e95",
          "blockNumber": "0x203d3d9",
          "transactionHash": "0x2203333c25817cfd8605d726faa5b26100d5a3b1a2b4201b2ddca4726f30683e",
          "transactionIndex": "0x0",
          "logIndex": "0x0",
          "removed": false
        },
        {
          "address": "0xba5ed099633d3b313e4d5f7bdc1305d3c28ba5ed",
          "topics": [
            "0x2feea65dd4e9f9cbd86b74b7734210c59a1b2981b5b137bd0ee3e208200c9067",
            "0x0000000000000000000000006dddf879f36c1aec146b7957632b25fc5e343973",
            "0xa453f1709b25e0735b5313f2f804dc12fe5c50677b3172f83cb64d535d2001c7"
          ],
          "data": "0x",
          "blockHash": "0xde4eedbb6c513249c110ff7c7ce391fdc623bc5e3554c6b01704908b1aca6e95",
          "blockNumber": "0x203d3d9",
          "transactionHash": "0x2203333c25817cfd8605d726faa5b26100d5a3b1a2b4201b2ddca4726f30683e",
          "transactionIndex": "0x0",
          "logIndex": "0x1",
          "removed": false
        },
        {
          "address": "0x59c0c91e6b0efecf1453824d28450ca61f3d65b5",
          "topics": [
            "0x8be0079c531659141344cd1fd0a4f28419497f9722a3daafe3b4186f6b6457e0",
            "0x0000000000000000000000000000000000000000000000000000000000000000",
            "0x00000000000000000000000032cb58b145d3f7e28c45ce4b2cc31fa94248b23f"
          ],
          "data": "0x",
          "blockHash": "0xde4eedbb6c513249c110ff7c7ce391fdc623bc5e3554c6b01704908b1aca6e95",
          "blockNumber": "0x203d3d9",
          "transactionHash": "0x2203333c25817cfd8605d726faa5b26100d5a3b1a2b4201b2ddca4726f30683e",
          "transactionIndex": "0x0",
          "logIndex": "0x2",
          "removed": false
        },
        {
          "address": "0xba5ed099633d3b313e4d5f7bdc1305d3c28ba5ed",
          "topics": [
            "0x4db17dd5e4732fb6da34a148104a592783ca119a1e7bb8829eba6cbadef0b511",
            "0x00000000000000000000000059c0c91e6b0efecf1453824d28450ca61f3d65b5"
          ],
          "data": "0x",
          "blockHash": "0xde4eedbb6c513249c110ff7c7ce391fdc623bc5e3554c6b01704908b1aca6e95",
          "blockNumber": "0x203d3d9",
          "transactionHash": "0x2203333c25817cfd8605d726faa5b26100d5a3b1a2b4201b2ddca4726f30683e",
          "transactionIndex": "0x0",
          "logIndex": "0x3",
          "removed": false
        },
        {
          "address": "0x32cb58b145d3f7e28c45ce4b2cc31fa94248b23f",
          "topics": [
            "0x442e715f626346e8c54381002da614f62bee8d27386535b2521ec8540898556e",
            "0xcb911c018fd76d67ca67f47aac2d728d4cd408485d94ef7cf0031808a4c1661f"
          ],
          "data": "0x0000000000000000000000000000000000000000000000000000000000000000",
          "blockHash": "0xde4eedbb6c513249c110ff7c7ce391fdc623bc5e3554c6b01704908b1aca6e95",
          "blockNumber": "0x203d3d9",
          "transactionHash": "0x2203333c25817cfd8605d726faa5b26100d5a3b1a2b4201b2ddca4726f30683e",
          "transactionIndex": "0x0",
          "logIndex": "0x4",
          "removed": false
        }
      ],
      "logsBloom": "0x00020000400000000000000040000100000000900000000000900000240000000000000000000000000000000000800000000000000004000000000800000000000100000000000000000810520000000001040000000000000000000000000200000000020000000000000000000800000000000020000000000000000000400000000000000000000000000000000000000000000000000000004000040000000000000400000000000000003004000008000000000000000000000000000000000000004000000200000000020000000000002000000008000000000020000000000000000200000000000000000000040000000000000800000000000000",
      "type": "0x2",
      "transactionHash": "0x2203333c25817cfd8605d726faa5b26100d5a3b1a2b4201b2ddca4726f30683e",
      "transactionIndex": "0x0",
      "blockHash": "0xde4eedbb6c513249c110ff7c7ce391fdc623bc5e3554c6b01704908b1aca6e95",
      "blockNumber": "0x203d3d9",
      "gasUsed": "0x64ac3",
      "effectiveGasPrice": "0x7b913",
      "blobGasUsed": "0x0",
      "from": "0x56fd3f2bee130e9867942d0f463a16fbe49b8d81",
      "to": "0x32cb58b145d3f7e28c45ce4b2cc31fa94248b23f",
      "contractAddress": null
    }
  ],
  "libraries": [],
  "pending": [],
  "returns": {},
  "timestamp": 1754559616,
  "chain": 8453,
  "commit": "0b9461b"
}