{
  "transactions": [
    {
      "hash": "0xdb5a1f150fe30933eec39805cda3371df58147d06afd56e1ca80782c5802c090",
      "transactionType": "CALL",
      "contractName": null,
      "contractAddress": "0x377755da4994c2cfe21b39bbce7211eab6f5fcc1",
      "function": "setMinter(address,bool)",
      "arguments": [
        "0x2738F38Fde510743e0c589415E0598C4ceE6eAa7",
        "true"
      ],
      "transaction": {
        "from": "0x2738f38fde510743e0c589415e0598c4cee6eaa7",
        "to": "0x377755da4994c2cfe21b39bbce7211eab6f5fcc1",
        "gas": "0x19218",
        "value": "0x0",
        "input": "0xcf456ae70000000000000000000000002738f38fde510743e0c589415e0598c4cee6eaa70000000000000000000000000000000000000000000000000000000000000001",
        "data": "0xcf456ae70000000000000000000000002738f38fde510743e0c589415e0598c4cee6eaa70000000000000000000000000000000000000000000000000000000000000001",
        "nonce": "0x16f",
        "chainId": "0x279f"
      },
      "additionalContracts": [],
      "isFixedGasLimit": false
    },
    {
      "hash": "0x9489a8f40ae4e294ad58f1d493203217960889dd2fa9cd8386ea6af7526cde92",
      "transactionType": "CALL",
      "contractName": null,
      "contractAddress": "0x377755da4994c2cfe21b39bbce7211eab6f5fcc1",
      "function": "mint(address,uint256)",
      "arguments": [
        "0x2738F38Fde510743e0c589415E0598C4ceE6eAa7",
        "1000000000000000000000000"
      ],
      "transaction": {
        "from": "0x2738f38fde510743e0c589415e0598c4cee6eaa7",
        "to": "0x377755da4994c2cfe21b39bbce7211eab6f5fcc1",
        "gas": "0x1afa2",
        "value": "0x0",
        "input": "0x40c10f190000000000000000000000002738f38fde510743e0c589415e0598c4cee6eaa700000000000000000000000000000000000000000000d3c21bcecceda1000000",
        "data": "0x40c10f190000000000000000000000002738f38fde510743e0c589415e0598c4cee6eaa700000000000000000000000000000000000000000000d3c21bcecceda1000000",
        "nonce": "0x170",
        "chainId": "0x279f"
      },
      "additionalContracts": [],
      "isFixedGasLimit": false
    },
    {
      "hash": "0x59ba1a8012ea6fef4a85732857a25a982249f0a751a1f9a6e6403a02c17a492c",
      "transactionType": "CALL",
      "contractName": null,
      "contractAddress": "0x377755da4994c2cfe21b39bbce7211eab6f5fcc1",
      "function": "setMinter(address,bool)",
      "arguments": [
        "0x2738F38Fde510743e0c589415E0598C4ceE6eAa7",
        "false"
      ],
      "transaction": {
        "from": "0x2738f38fde510743e0c589415e0598c4cee6eaa7",
        "to": "0x377755da4994c2cfe21b39bbce7211eab6f5fcc1",
        "gas": "0x130b9",
        "value": "0x0",
        "input": "0xcf456ae70000000000000000000000002738f38fde510743e0c589415e0598c4cee6eaa70000000000000000000000000000000000000000000000000000000000000000",
        "data": "0xcf456ae70000000000000000000000002738f38fde510743e0c589415e0598c4cee6eaa70000000000000000000000000000000000000000000000000000000000000000",
        "nonce": "0x171",
        "chainId": "0x279f"
      },
      "additionalContracts": [],
      "isFixedGasLimit": false
    }
  ],
  "receipts": [
    {
      "type": "0x2",
      "status": "0x1",
      "cumulativeGasUsed": "0x50194",
      "logs": [
        {
          "address": "0x377755da4994c2cfe21b39bbce7211eab6f5fcc1",
          "topics": [
            "0xb21afb9ce9be0a676f8f317ff0ca072fb89a4f8ce2d1b6fe80f8755c14f1cb19",
            "0x0000000000000000000000002738f38fde510743e0c589415e0598c4cee6eaa7"
          ],
          "data": "0x0000000000000000000000000000000000000000000000000000000000000001",
          "blockHash": "0xccb935bfda3dd1858560a4d3daad4b47804e879c232bbb2a322016fe1fb5b743",
          "blockNumber": "0x1a40437",
          "blockTimestamp": "0x69eb788d",
          "transactionHash": "0xdb5a1f150fe30933eec39805cda3371df58147d06afd56e1ca80782c5802c090",
          "transactionIndex": "0x2",
          "logIndex": "0x5",
          "removed": false
        }
      ],
      "logsBloom": "0x00000000000000000000000000000000000000000000000000000000000000000000000000000000000000000000000000000000000000040000000000000080002000000000000000000000000000000000000000000000000000000000000000000000000000000000000000000000000000000000000000000000000000000000000000000000000000000000000000000000000000000000200000000010080000000000000000000080000000000000000000000000000000000000000000000800000000000000000000000000000000000000000000000000000000000000000000000000000000000000000000000000000000400000000000000000",
      "transactionHash": "0xdb5a1f150fe30933eec39805cda3371df58147d06afd56e1ca80782c5802c090",
      "transactionIndex": "0x2",
      "blockHash": "0xccb935bfda3dd1858560a4d3daad4b47804e879c232bbb2a322016fe1fb5b743",
      "blockNumber": "0x1a40437",
      "gasUsed": "0x19218",
      "effectiveGasPrice": "0x1c7f9bc7ff",
      "from": "0x2738f38fde510743e0c589415e0598c4cee6eaa7",
      "to": "0x377755da4994c2cfe21b39bbce7211eab6f5fcc1",
      "contractAddress": null
    },
    {
      "type": "0x2",
      "status": "0x1",
      "cumulativeGasUsed": "0x5996e",
      "logs": [
        {
          "address": "0x377755da4994c2cfe21b39bbce7211eab6f5fcc1",
          "topics": [
            "0xddf252ad1be2c89b69c2b068fc378daa952ba7f163c4a11628f55a4df523b3ef",
            "0x0000000000000000000000000000000000000000000000000000000000000000",
            "0x0000000000000000000000002738f38fde510743e0c589415e0598c4cee6eaa7"
          ],
          "data": "0x00000000000000000000000000000000000000000000d3c21bcecceda1000000",
          "blockHash": "0x19e31ec8a9490d171ef5efd22e28102f0f5ddd24812c52fbc7ae571b1229ce53",
          "blockNumber": "0x1a40439",
          "blockTimestamp": "0x69eb788e",
          "transactionHash": "0x9489a8f40ae4e294ad58f1d493203217960889dd2fa9cd8386ea6af7526cde92",
          "transactionIndex": "0x2",
          "logIndex": "0x5",
          "removed": false
        }
      ],
      "logsBloom": "0x00000000000000000000000000000000000000000000000000000000000000000000000000000000000000000000000000000000000000000000000000000000002000000000000000000008000000000000000000000000000000000000000000000000020000000000000000000800000000000000000000000010000000000000000000000000000000000000000000000000000000000000000000000010080000000000000000000080000000000000000000000000000000000000000000000802000000000000000000000000000000000000000000000000000020000000000000000000000000000000000000000000000000400000000000000000",
      "transactionHash": "0x9489a8f40ae4e294ad58f1d493203217960889dd2fa9cd8386ea6af7526cde92",
      "transactionIndex": "0x2",
      "blockHash": "0x19e31ec8a9490d171ef5efd22e28102f0f5ddd24812c52fbc7ae571b1229ce53",
      "blockNumber": "0x1a40439",
      "gasUsed": "0x229c6",
      "effectiveGasPrice": "0x1c7f9bc7ff",
      "from": "0x2738f38fde510743e0c589415e0598c4cee6eaa7",
      "to": "0x377755da4994c2cfe21b39bbce7211eab6f5fcc1",
      "contractAddress": null
    },
    {
      "type": "0x2",
      "status": "0x1",
      "cumulativeGasUsed": "0x138a5a",
      "logs": [
        {
          "address": "0x377755da4994c2cfe21b39bbce7211eab6f5fcc1",
          "topics": [
            "0xb21afb9ce9be0a676f8f317ff0ca072fb89a4f8ce2d1b6fe80f8755c14f1cb19",
            "0x0000000000000000000000002738f38fde510743e0c589415e0598c4cee6eaa7"
          ],
          "data": "0x0000000000000000000000000000000000000000000000000000000000000000",
          "blockHash": "0x0e8e340228a052f9b2dc9dbcc00c6eab7d69c20456d326e95d08e5a9ed352934",
          "blockNumber": "0x1a4043b",
          "blockTimestamp": "0x69eb788e",
          "transactionHash": "0x59ba1a8012ea6fef4a85732857a25a982249f0a751a1f9a6e6403a02c17a492c",
          "transactionIndex": "0x2",
          "logIndex": "0xc",
          "removed": false
        }
      ],
      "logsBloom": "0x00000000000000000000000000000000000000000000000000000000000000000000000000000000000000000000000000000000000000040000000000000080002000000000000000000000000000000000000000000000000000000000000000000000000000000000000000000000000000000000000000000000000000000000000000000000000000000000000000000000000000000000200000000010080000000000000000000080000000000000000000000000000000000000000000000800000000000000000000000000000000000000000000000000000000000000000000000000000000000000000000000000000000400000000000000000",
      "transactionHash": "0x59ba1a8012ea6fef4a85732857a25a982249f0a751a1f9a6e6403a02c17a492c",
      "transactionIndex": "0x2",
      "blockHash": "0x0e8e340228a052f9b2dc9dbcc00c6eab7d69c20456d326e95d08e5a9ed352934",
      "blockNumber": "0x1a4043b",
      "gasUsed": "0x13ada",
      "effectiveGasPrice": "0x1c7f9bc7ff",
      "from": "0x2738f38fde510743e0c589415e0598c4cee6eaa7",
      "to": "0x377755da4994c2cfe21b39bbce7211eab6f5fcc1",
      "contractAddress": null
    }
  ],
  "libraries": [
    "lib/mento-core/node_modules/@celo/contracts/common/linkedlists/AddressSortedLinkedListWithMedian.sol:AddressSortedLinkedListWithMedian:0x8E1B1312EC92C9f8073296c4Cf1E60D31d228269"
  ],
  "pending": [],
  "returns": {},
  "timestamp": 1777039503102,
  "chain": 10143,
  "commit": "97e8091"
}