{
  "transactions": [
    {
      "hash": "0xe6573a0fd0cc9e6c817e22a26dac001dc6ddfddb15725a6d96ee611e8f1051f8",
      "transactionType": "CALL",
      "contractName": null,
      "contractAddress": "0xcd8f6950359795eb4688ac18d1e9bb88fa111eee",
      "function": "setMinter(address,bool)",
      "arguments": [
        "0x2738F38Fde510743e0c589415E0598C4ceE6eAa7",
        "true"
      ],
      "transaction": {
        "from": "0x2738f38fde510743e0c589415e0598c4cee6eaa7",
        "to": "0xcd8f6950359795eb4688ac18d1e9bb88fa111eee",
        "gas": "0x19218",
        "value": "0x0",
        "input": "0xcf456ae70000000000000000000000002738f38fde510743e0c589415e0598c4cee6eaa70000000000000000000000000000000000000000000000000000000000000001",
        "data": "0xcf456ae70000000000000000000000002738f38fde510743e0c589415e0598c4cee6eaa70000000000000000000000000000000000000000000000000000000000000001",
        "nonce": "0x16a",
        "chainId": "0x279f"
      },
      "additionalContracts": [],
      "isFixedGasLimit": false
    },
    {
      "hash": "0xb4f56ccde80e12db48072f2e018c78886ed2bc364240883dc00481082732ce98",
      "transactionType": "CALL",
      "contractName": null,
      "contractAddress": "0xcd8f6950359795eb4688ac18d1e9bb88fa111eee",
      "function": "mint(address,uint256)",
      "arguments": [
        "0x2738F38Fde510743e0c589415E0598C4ceE6eAa7",
        "1000000000000000000000000"
      ],
      "transaction": {
        "from": "0x2738f38fde510743e0c589415e0598c4cee6eaa7",
        "to": "0xcd8f6950359795eb4688ac18d1e9bb88fa111eee",
        "gas": "0x1afa2",
        "value": "0x0",
        "input": "0x40c10f190000000000000000000000002738f38fde510743e0c589415e0598c4cee6eaa700000000000000000000000000000000000000000000d3c21bcecceda1000000",
        "data": "0x40c10f190000000000000000000000002738f38fde510743e0c589415e0598c4cee6eaa700000000000000000000000000000000000000000000d3c21bcecceda1000000",
        "nonce": "0x16b",
        "chainId": "0x279f"
      },
      "additionalContracts": [],
      "isFixedGasLimit": false
    },
    {
      "hash": "0xcefda1b78be4a76128527d8ef64f69294a579cb6694e0a8ab4f5f6840be0bed7",
      "transactionType": "CALL",
      "contractName": null,
      "contractAddress": "0xcd8f6950359795eb4688ac18d1e9bb88fa111eee",
      "function": "setMinter(address,bool)",
      "arguments": [
        "0x2738F38Fde510743e0c589415E0598C4ceE6eAa7",
        "false"
      ],
      "transaction": {
        "from": "0x2738f38fde510743e0c589415e0598c4cee6eaa7",
        "to": "0xcd8f6950359795eb4688ac18d1e9bb88fa111eee",
        "gas": "0x130b9",
        "value": "0x0",
        "input": "0xcf456ae70000000000000000000000002738f38fde510743e0c589415e0598c4cee6eaa70000000000000000000000000000000000000000000000000000000000000000",
        "data": "0xcf456ae70000000000000000000000002738f38fde510743e0c589415e0598c4cee6eaa70000000000000000000000000000000000000000000000000000000000000000",
        "nonce": "0x16c",
        "chainId": "0x279f"
      },
      "additionalContracts": [],
      "isFixedGasLimit": false
    }
  ],
  "receipts": [
    {
      "type": "0x2",
      "status": "0x1",
      "cumulativeGasUsed": "0x5017c",
      "logs": [
        {
          "address": "0xcd8f6950359795eb4688ac18d1e9bb88fa111eee",
          "topics": [
            "0xb21afb9ce9be0a676f8f317ff0ca072fb89a4f8ce2d1b6fe80f8755c14f1cb19",
            "0x0000000000000000000000002738f38fde510743e0c589415e0598c4cee6eaa7"
          ],
          "data": "0x0000000000000000000000000000000000000000000000000000000000000001",
          "blockHash": "0x70586ea621bed2bfe0e735096940d6485afb878843d7d7d2c5f0f66d82623b08",
          "blockNumber": "0x1a40401",
          "blockTimestamp": "0x69eb7877",
          "transactionHash": "0xe6573a0fd0cc9e6c817e22a26dac001dc6ddfddb15725a6d96ee611e8f1051f8",
          "transactionIndex": "0x2",
          "logIndex": "0x5",
          "removed": false
        }
      ],
      "logsBloom": "0x00000000000000000000000000000000000000000000000000000000000000000000000000000000000000000000000000000000000000040000000000000080002000000000000000000000000000000000000000000000000000000000000000000000000000000000000000000000000000000000000000000000000000000000000000000000000000000000000000000100000000000000200000000010000000000000000000000000000000000000000000100000000000000000000000000800000000000000000040000000000000000000000000000000000000000000000000000000000000000000000000000000000000000000000000000000",
      "transactionHash": "0xe6573a0fd0cc9e6c817e22a26dac001dc6ddfddb15725a6d96ee611e8f1051f8",
      "transactionIndex": "0x2",
      "blockHash": "0x70586ea621bed2bfe0e735096940d6485afb878843d7d7d2c5f0f66d82623b08",
      "blockNumber": "0x1a40401",
      "gasUsed": "0x19218",
      "effectiveGasPrice": "0x1a790c50ff",
      "from": "0x2738f38fde510743e0c589415e0598c4cee6eaa7",
      "to": "0xcd8f6950359795eb4688ac18d1e9bb88fa111eee",
      "contractAddress": null
    },
    {
      "type": "0x2",
      "status": "0x1",
      "cumulativeGasUsed": "0x5999d",
      "logs": [
        {
          "address": "0xcd8f6950359795eb4688ac18d1e9bb88fa111eee",
          "topics": [
            "0xddf252ad1be2c89b69c2b068fc378daa952ba7f163c4a11628f55a4df523b3ef",
            "0x0000000000000000000000000000000000000000000000000000000000000000",
            "0x0000000000000000000000002738f38fde510743e0c589415e0598c4cee6eaa7"
          ],
          "data": "0x00000000000000000000000000000000000000000000d3c21bcecceda1000000",
          "blockHash": "0x47d5f5c695eeceee2f968fccfe6d5381b62c96302dad01da6295d901c13d67a0",
          "blockNumber": "0x1a40403",
          "blockTimestamp": "0x69eb7878",
          "transactionHash": "0xb4f56ccde80e12db48072f2e018c78886ed2bc364240883dc00481082732ce98",
          "transactionIndex": "0x2",
          "logIndex": "0x5",
          "removed": false
        }
      ],
      "logsBloom": "0x00000000000000000000000000000000000000000000000000000000000000000000000000000000000000000000000000000000000000000000000000000000002000000000000000000008000000000000000000000000000000000000000000000000020000000000000000000800000000000000000000000010000000000000000000000000000000000000000000000100000000000000000000000010000000000000000000000000000000000000000000100000000000000000000000000802000000000000000040000000000000000000000000000000000020000000000000000000000000000000000000000000000000000000000000000000",
      "transactionHash": "0xb4f56ccde80e12db48072f2e018c78886ed2bc364240883dc00481082732ce98",
      "transactionIndex": "0x2",
      "blockHash": "0x47d5f5c695eeceee2f968fccfe6d5381b62c96302dad01da6295d901c13d67a0",
      "blockNumber": "0x1a40403",
      "gasUsed": "0x229c6",
      "effectiveGasPrice": "0x1a790c50ff",
      "from": "0x2738f38fde510743e0c589415e0598c4cee6eaa7",
      "to": "0xcd8f6950359795eb4688ac18d1e9bb88fa111eee",
      "contractAddress": null
    },
    {
      "type": "0x2",
      "status": "0x1",
      "cumulativeGasUsed": "0x4aa9f",
      "logs": [
        {
          "address": "0xcd8f6950359795eb4688ac18d1e9bb88fa111eee",
          "topics": [
            "0xb21afb9ce9be0a676f8f317ff0ca072fb89a4f8ce2d1b6fe80f8755c14f1cb19",
            "0x0000000000000000000000002738f38fde510743e0c589415e0598c4cee6eaa7"
          ],
          "data": "0x0000000000000000000000000000000000000000000000000000000000000000",
          "blockHash": "0x465577bb8e4bc0c13479dbec7c53cd938fe56d61484fdee7e385c86e1a58e35b",
          "blockNumber": "0x1a40405",
          "blockTimestamp": "0x69eb7879",
          "transactionHash": "0xcefda1b78be4a76128527d8ef64f69294a579cb6694e0a8ab4f5f6840be0bed7",
          "transactionIndex": "0x2",
          "logIndex": "0x5",
          "removed": false
        }
      ],
      "logsBloom": "0x00000000000000000000000000000000000000000000000000000000000000000000000000000000000000000000000000000000000000040000000000000080002000000000000000000000000000000000000000000000000000000000000000000000000000000000000000000000000000000000000000000000000000000000000000000000000000000000000000000100000000000000200000000010000000000000000000000000000000000000000000100000000000000000000000000800000000000000000040000000000000000000000000000000000000000000000000000000000000000000000000000000000000000000000000000000",
      "transactionHash": "0xcefda1b78be4a76128527d8ef64f69294a579cb6694e0a8ab4f5f6840be0bed7",
      "transactionIndex": "0x2",
      "blockHash": "0x465577bb8e4bc0c13479dbec7c53cd938fe56d61484fdee7e385c86e1a58e35b",
      "blockNumber": "0x1a40405",
      "gasUsed": "0x13ada",
      "effectiveGasPrice": "0x1a790c50ff",
      "from": "0x2738f38fde510743e0c589415e0598c4cee6eaa7",
      "to": "0xcd8f6950359795eb4688ac18d1e9bb88fa111eee",
      "contractAddress": null
    }
  ],
  "libraries": [
    "lib/mento-core/node_modules/@celo/contracts/common/linkedlists/AddressSortedLinkedListWithMedian.sol:AddressSortedLinkedListWithMedian:0x8E1B1312EC92C9f8073296c4Cf1E60D31d228269"
  ],
  "pending": [],
  "returns": {},
  "timestamp": 1777039481316,
  "chain": 10143,
  "commit": "97e8091"
}