{
  "transactions": [
    {
      "hash": "0x1ef823c01ddbbe57843818b0e9c62b637ea80d04474d76f665c62d5d6b239514",
      "transactionType": "CALL",
      "contractName": null,
      "contractAddress": "0xfdff3fd0994fed8be208a7bee49970ea9707e687",
      "function": "execTransaction(address,uint256,bytes,uint8,uint256,uint256,uint256,address,address,bytes)",
      "arguments": [
        "0x363b8CEf44f88cE7B41B8576FC493A3c5946951F",
        "0",
        "0xf2fde38b00000000000000000000000058099b74f4acd642da77b4b7966b4138ec5ba458",
        "0",
        "0",
        "0",
        "0",
        "0x0000000000000000000000000000000000000000",
        "0x0000000000000000000000000000000000000000",
        "0x775b752adc3284a3f5a27e3f09c16256ce7f570e401f6c6b20e015697b7efa236c9daba1df9646d57263ba0aec52fa70bb452a8c0dcb4ca9b79a57b41e4cad371b"
      ],
      "transaction": {
        "from": "0x2738f38fde510743e0c589415e0598c4cee6eaa7",
        "to": "0xfdff3fd0994fed8be208a7bee49970ea9707e687",
        "gas": "0x16e27",
        "value": "0x0",
        "input": "0x6a761202000000000000000000000000363b8cef44f88ce7b41b8576fc493a3c5946951f0000000000000000000000000000000000000000000000000000000000000000000000000000000000000000000000000000000000000000000000000000014000000000000000000000000000000000000000000000000000000000000000000000000000000000000000000000000000000000000000000000000000000000000000000000000000000000000000000000000000000000000000000000000000000000000000000000000000000000000000000000000000000000000000000000000000000000000000000000000000000000000000000000000000000000000000000000000000000000000000000000000000000000000000000000000000000000000000000000000000000000000000000000000000000000000001a00000000000000000000000000000000000000000000000000000000000000024f2fde38b00000000000000000000000058099b74f4acd642da77b4b7966b4138ec5ba458000000000000000000000000000000000000000000000000000000000000000000000000000000000000000000000000000000000000000000000041775b752adc3284a3f5a27e3f09c16256ce7f570e401f6c6b20e015697b7efa236c9daba1df9646d57263ba0aec52fa70bb452a8c0dcb4ca9b79a57b41e4cad371b00000000000000000000000000000000000000000000000000000000000000",
        "nonce": "0x169",
        "chainId": "0xa4ec"
      },
      "additionalContracts": [],
      "isFixedGasLimit": false
    }
  ],
  "receipts": [
    {
      "type": "0x2",
      "status": "0x1",
      "cumulativeGasUsed": "0x3182e1",
      "logs": [
        {
          "address": "0xfdff3fd0994fed8be208a7bee49970ea9707e687",
          "topics": [
            "0x66753cd2356569ee081232e3be8909b950e0a76c1f8460c3a5e3c2be32b11bed"
          ],
          "data": "0x000000000000000000000000363b8cef44f88ce7b41b8576fc493a3c5946951f0000000000000000000000000000000000000000000000000000000000000000000000000000000000000000000000000000000000000000000000000000016000000000000000000000000000000000000000000000000000000000000000000000000000000000000000000000000000000000000000000000000000000000000000000000000000000000000000000000000000000000000000000000000000000000000000000000000000000000000000000000000000000000000000000000000000000000000000000000000000000000000000000000000000000000000000000000000000000000000000000000000000000000000000000000000000000000000000000000000000000000000000000000000000000000000001c000000000000000000000000000000000000000000000000000000000000002400000000000000000000000000000000000000000000000000000000000000024f2fde38b00000000000000000000000058099b74f4acd642da77b4b7966b4138ec5ba458000000000000000000000000000000000000000000000000000000000000000000000000000000000000000000000000000000000000000000000041775b752adc3284a3f5a27e3f09c16256ce7f570e401f6c6b20e015697b7efa236c9daba1df9646d57263ba0aec52fa70bb452a8c0dcb4ca9b79a57b41e4cad371b000000000000000000000000000000000000000000000000000000000000000000000000000000000000000000000000000000000000000000000000000060000000000000000000000000000000000000000000000000000000000000001f0000000000000000000000002738f38fde510743e0c589415e0598c4cee6eaa70000000000000000000000000000000000000000000000000000000000000001",
          "blockHash": "0xbde07966b38560c56e7cf2503814c5aa044050dd9ee0adbbd7b24b176f07caeb",
          "blockNumber": "0x3aa73dd",
          "transactionHash": "0x1ef823c01ddbbe57843818b0e9c62b637ea80d04474d76f665c62d5d6b239514",
          "transactionIndex": "0x10",
          "logIndex": "0x109",
          "removed": false
        },
        {
          "address": "0x363b8cef44f88ce7b41b8576fc493a3c5946951f",
          "topics": [
            "0x8be0079c531659141344cd1fd0a4f28419497f9722a3daafe3b4186f6b6457e0",
            "0x000000000000000000000000fdff3fd0994fed8be208a7bee49970ea9707e687",
            "0x00000000000000000000000058099b74f4acd642da77b4b7966b4138ec5ba458"
          ],
          "data": "0x",
          "blockHash": "0xbde07966b38560c56e7cf2503814c5aa044050dd9ee0adbbd7b24b176f07caeb",
          "blockNumber": "0x3aa73dd",
          "transactionHash": "0x1ef823c01ddbbe57843818b0e9c62b637ea80d04474d76f665c62d5d6b239514",
          "transactionIndex": "0x10",
          "logIndex": "0x10a",
          "removed": false
        },
        {
          "address": "0xfdff3fd0994fed8be208a7bee49970ea9707e687",
          "topics": [
            "0x442e715f626346e8c54381002da614f62bee8d27386535b2521ec8540898556e",
            "0x7f0af902021ae943fd3593679c8782dd83fb5056e1ba3b2ece1d114ef59e7a2c"
          ],
          "data": "0x0000000000000000000000000000000000000000000000000000000000000000",
          "blockHash": "0xbde07966b38560c56e7cf2503814c5aa044050dd9ee0adbbd7b24b176f07caeb",
          "blockNumber": "0x3aa73dd",
          "transactionHash": "0x1ef823c01ddbbe57843818b0e9c62b637ea80d04474d76f665c62d5d6b239514",
          "transactionIndex": "0x10",
          "logIndex": "0x10b",
          "removed": false
        }
      ],
      "logsBloom": "0x00000000400000000000000000800100000010000000000000800000040200000000000000000000000000000000000000000008000000000000000000000000000000040000000000000000000000000001040000000000000000000000000000000000000000000000010000000000010000000000000000000000000000400000000000000000000000000000000000000000000000000000000000000000005000000400000000000000000104000000000000000000000000000000000000000000000000000000000000020000000000000000000000000000000000000008000000000000000000000300000000000000000000000000000000040000",
      "transactionHash": "0x1ef823c01ddbbe57843818b0e9c62b637ea80d04474d76f665c62d5d6b239514",
      "transactionIndex": "0x10",
      "blockHash": "0xbde07966b38560c56e7cf2503814c5aa044050dd9ee0adbbd7b24b176f07caeb",
      "blockNumber": "0x3aa73dd",
      "gasUsed": "0x10917",
      "effectiveGasPrice": "0x5d22e82de",
      "from": "0x2738f38fde510743e0c589415e0598c4cee6eaa7",
      "to": "0xfdff3fd0994fed8be208a7bee49970ea9707e687",
      "contractAddress": null
    }
  ],
  "libraries": [
    "lib/mento-stabletoken-ntt/evm/src/libraries/TransceiverStructs.sol:TransceiverStructs:0x7C2420401eB6bEB50501Fd5bc8b60DBfC2b0dEF0"
  ],
  "pending": [],
  "returns": {},
  "timestamp": 1773403189115,
  "chain": 42220,
  "commit": "6e4b5f0"
}