{
  "transactions": [
    {
      "hash": "0xa65dc1065da90455d2f013273409893e701b47955980ce8f011857e20af26c9c",
      "transactionType": "CALL",
      "contractName": null,
      "contractAddress": "0xfdff3fd0994fed8be208a7bee49970ea9707e687",
      "function": "execTransaction(address,uint256,bytes,uint8,uint256,uint256,uint256,address,address,bytes)",
      "arguments": [
        "0x30FCd4fd891f7dE98606bF97cB8654f7bA33C4e7",
        "0",
        "0xf2fde38b00000000000000000000000058099b74f4acd642da77b4b7966b4138ec5ba458",
        "0",
        "0",
        "0",
        "0",
        "0x0000000000000000000000000000000000000000",
        "0x0000000000000000000000000000000000000000",
        "0xf4ab2a52a6a128fe1209f59e2802d16bb4507cfbb1c7e54fea7fd77949e149b36f7f3101532cd44c366a4096b5cb3d52b30ee17a8f3fbcae3e8083ad2435d9a01c"
      ],
      "transaction": {
        "from": "0x2738f38fde510743e0c589415e0598c4cee6eaa7",
        "to": "0xfdff3fd0994fed8be208a7bee49970ea9707e687",
        "gas": "0x16e27",
        "value": "0x0",
        "input": "0x6a76120200000000000000000000000030fcd4fd891f7de98606bf97cb8654f7ba33c4e70000000000000000000000000000000000000000000000000000000000000000000000000000000000000000000000000000000000000000000000000000014000000000000000000000000000000000000000000000000000000000000000000000000000000000000000000000000000000000000000000000000000000000000000000000000000000000000000000000000000000000000000000000000000000000000000000000000000000000000000000000000000000000000000000000000000000000000000000000000000000000000000000000000000000000000000000000000000000000000000000000000000000000000000000000000000000000000000000000000000000000000000000000000000000000000001a00000000000000000000000000000000000000000000000000000000000000024f2fde38b00000000000000000000000058099b74f4acd642da77b4b7966b4138ec5ba458000000000000000000000000000000000000000000000000000000000000000000000000000000000000000000000000000000000000000000000041f4ab2a52a6a128fe1209f59e2802d16bb4507cfbb1c7e54fea7fd77949e149b36f7f3101532cd44c366a4096b5cb3d52b30ee17a8f3fbcae3e8083ad2435d9a01c00000000000000000000000000000000000000000000000000000000000000",
        "nonce": "0x168",
        "chainId": "0xa4ec"
      },
      "additionalContracts": [],
      "isFixedGasLimit": false
    }
  ],
  "receipts": [
    {
      "type": "0x2",
      "status": "0x1",
      "cumulativeGasUsed": "0x28c7bb",
      "logs": [
        {
          "address": "0xfdff3fd0994fed8be208a7bee49970ea9707e687",
          "topics": [
            "0x66753cd2356569ee081232e3be8909b950e0a76c1f8460c3a5e3c2be32b11bed"
          ],
          "data": "0x00000000000000000000000030fcd4fd891f7de98606bf97cb8654f7ba33c4e70000000000000000000000000000000000000000000000000000000000000000000000000000000000000000000000000000000000000000000000000000016000000000000000000000000000000000000000000000000000000000000000000000000000000000000000000000000000000000000000000000000000000000000000000000000000000000000000000000000000000000000000000000000000000000000000000000000000000000000000000000000000000000000000000000000000000000000000000000000000000000000000000000000000000000000000000000000000000000000000000000000000000000000000000000000000000000000000000000000000000000000000000000000000000000000001c000000000000000000000000000000000000000000000000000000000000002400000000000000000000000000000000000000000000000000000000000000024f2fde38b00000000000000000000000058099b74f4acd642da77b4b7966b4138ec5ba458000000000000000000000000000000000000000000000000000000000000000000000000000000000000000000000000000000000000000000000041f4ab2a52a6a128fe1209f59e2802d16bb4507cfbb1c7e54fea7fd77949e149b36f7f3101532cd44c366a4096b5cb3d52b30ee17a8f3fbcae3e8083ad2435d9a01c000000000000000000000000000000000000000000000000000000000000000000000000000000000000000000000000000000000000000000000000000060000000000000000000000000000000000000000000000000000000000000001e0000000000000000000000002738f38fde510743e0c589415e0598c4cee6eaa70000000000000000000000000000000000000000000000000000000000000001",
          "blockHash": "0x4909951e35bbef05f6a204ccde6e6092f8ab4ef569ccc90487d4b642e35e013b",
          "blockNumber": "0x3aa73d5",
          "transactionHash": "0xa65dc1065da90455d2f013273409893e701b47955980ce8f011857e20af26c9c",
          "transactionIndex": "0x12",
          "logIndex": "0x49",
          "removed": false
        },
        {
          "address": "0x30fcd4fd891f7de98606bf97cb8654f7ba33c4e7",
          "topics": [
            "0x8be0079c531659141344cd1fd0a4f28419497f9722a3daafe3b4186f6b6457e0",
            "0x000000000000000000000000fdff3fd0994fed8be208a7bee49970ea9707e687",
            "0x00000000000000000000000058099b74f4acd642da77b4b7966b4138ec5ba458"
          ],
          "data": "0x",
          "blockHash": "0x4909951e35bbef05f6a204ccde6e6092f8ab4ef569ccc90487d4b642e35e013b",
          "blockNumber": "0x3aa73d5",
          "transactionHash": "0xa65dc1065da90455d2f013273409893e701b47955980ce8f011857e20af26c9c",
          "transactionIndex": "0x12",
          "logIndex": "0x4a",
          "removed": false
        },
        {
          "address": "0xfdff3fd0994fed8be208a7bee49970ea9707e687",
          "topics": [
            "0x442e715f626346e8c54381002da614f62bee8d27386535b2521ec8540898556e",
            "0x4bcd907e9860955e131bb3b13fedaf63278ef0943d14c61bf7460bdeffe9a687"
          ],
          "data": "0x0000000000000000000000000000000000000000000000000000000000000000",
          "blockHash": "0x4909951e35bbef05f6a204ccde6e6092f8ab4ef569ccc90487d4b642e35e013b",
          "blockNumber": "0x3aa73d5",
          "transactionHash": "0xa65dc1065da90455d2f013273409893e701b47955980ce8f011857e20af26c9c",
          "transactionIndex": "0x12",
          "logIndex": "0x4b",
          "removed": false
        }
      ],
      "logsBloom": "0x00000000400000000000000000800100000010000000000000800000040000000000000000000008000000000000000000000008000000000000000000080000000000000000000000000000000000000001040000000000000000000000000000000000000000400000010000000000000000000000000000020000000000400000000000000000000000000000000000000000000000000000000000000000004000000400000000000800000004000000000000000000000040000000000000000000000000000000000000020000000000000000000000000000000000000000000000000000000000000300000000000000000000000000000000040000",
      "transactionHash": "0xa65dc1065da90455d2f013273409893e701b47955980ce8f011857e20af26c9c",
      "transactionIndex": "0x12",
      "blockHash": "0x4909951e35bbef05f6a204ccde6e6092f8ab4ef569ccc90487d4b642e35e013b",
      "blockNumber": "0x3aa73d5",
      "gasUsed": "0x10917",
      "effectiveGasPrice": "0x5d22e82de",
      "from": "0x2738f38fde510743e0c589415e0598c4cee6eaa7",
      "to": "0xfdff3fd0994fed8be208a7bee49970ea9707e687",
      "contractAddress": null
    }
  ],
  "libraries": [
    "lib/mento-stabletoken-ntt/evm/src/libraries/TransceiverStructs.sol:TransceiverStructs:0x7C2420401eB6bEB50501Fd5bc8b60DBfC2b0dEF0"
  ],
  "pending": [],
  "returns": {},
  "timestamp": 1773403181047,
  "chain": 42220,
  "commit": "6e4b5f0"
}