{
  "transactions": [
    {
      "hash": "0xf6b6e2c49ff072efa3a04fcf0cb35e0727db169fa6e2c60f9b24cbb0a7f143fe",
      "transactionType": "CALL",
      "contractName": null,
      "contractAddress": "0xfdff3fd0994fed8be208a7bee49970ea9707e687",
      "function": "execTransaction(address,uint256,bytes,uint8,uint256,uint256,uint256,address,address,bytes)",
      "arguments": [
        "0xABbf9c253Bc39CE7BB010bC90de5283f2431a659",
        "0",
        "0xf2fde38b00000000000000000000000058099b74f4acd642da77b4b7966b4138ec5ba458",
        "0",
        "0",
        "0",
        "0",
        "0x0000000000000000000000000000000000000000",
        "0x0000000000000000000000000000000000000000",
        "0x6178c9356068ed6b5775a65a169b70fabe3e514d9172a0e642e0a661c331c39f1bb9fcd3b070d913a5fbed080c3401d828d5102d19025db9b0c9fe4a7643c5171c"
      ],
      "transaction": {
        "from": "0x2738f38fde510743e0c589415e0598c4cee6eaa7",
        "to": "0xfdff3fd0994fed8be208a7bee49970ea9707e687",
        "gas": "0x16e27",
        "value": "0x0",
        "input": "0x6a761202000000000000000000000000abbf9c253bc39ce7bb010bc90de5283f2431a6590000000000000000000000000000000000000000000000000000000000000000000000000000000000000000000000000000000000000000000000000000014000000000000000000000000000000000000000000000000000000000000000000000000000000000000000000000000000000000000000000000000000000000000000000000000000000000000000000000000000000000000000000000000000000000000000000000000000000000000000000000000000000000000000000000000000000000000000000000000000000000000000000000000000000000000000000000000000000000000000000000000000000000000000000000000000000000000000000000000000000000000000000000000000000000000001a00000000000000000000000000000000000000000000000000000000000000024f2fde38b00000000000000000000000058099b74f4acd642da77b4b7966b4138ec5ba4580000000000000000000000000000000000000000000000000000000000000000000000000000000000000000000000000000000000000000000000416178c9356068ed6b5775a65a169b70fabe3e514d9172a0e642e0a661c331c39f1bb9fcd3b070d913a5fbed080c3401d828d5102d19025db9b0c9fe4a7643c5171c00000000000000000000000000000000000000000000000000000000000000",
        "nonce": "0x167",
        "chainId": "0xa4ec"
      },
      "additionalContracts": [],
      "isFixedGasLimit": false
    }
  ],
  "receipts": [
    {
      "type": "0x2",
      "status": "0x1",
      "cumulativeGasUsed": "0xc253f",
      "logs": [
        {
          "address": "0xfdff3fd0994fed8be208a7bee49970ea9707e687",
          "topics": [
            "0x66753cd2356569ee081232e3be8909b950e0a76c1f8460c3a5e3c2be32b11bed"
          ],
          "data": "0x000000000000000000000000abbf9c253bc39ce7bb010bc90de5283f2431a6590000000000000000000000000000000000000000000000000000000000000000000000000000000000000000000000000000000000000000000000000000016000000000000000000000000000000000000000000000000000000000000000000000000000000000000000000000000000000000000000000000000000000000000000000000000000000000000000000000000000000000000000000000000000000000000000000000000000000000000000000000000000000000000000000000000000000000000000000000000000000000000000000000000000000000000000000000000000000000000000000000000000000000000000000000000000000000000000000000000000000000000000000000000000000000000001c000000000000000000000000000000000000000000000000000000000000002400000000000000000000000000000000000000000000000000000000000000024f2fde38b00000000000000000000000058099b74f4acd642da77b4b7966b4138ec5ba4580000000000000000000000000000000000000000000000000000000000000000000000000000000000000000000000000000000000000000000000416178c9356068ed6b5775a65a169b70fabe3e514d9172a0e642e0a661c331c39f1bb9fcd3b070d913a5fbed080c3401d828d5102d19025db9b0c9fe4a7643c5171c000000000000000000000000000000000000000000000000000000000000000000000000000000000000000000000000000000000000000000000000000060000000000000000000000000000000000000000000000000000000000000001d0000000000000000000000002738f38fde510743e0c589415e0598c4cee6eaa70000000000000000000000000000000000000000000000000000000000000001",
          "blockHash": "0x6cd1f493feff6e6e34688a7c0a5259a3de865d0d5acfd6d169179f09ea5a33c0",
          "blockNumber": "0x3aa73cd",
          "transactionHash": "0xf6b6e2c49ff072efa3a04fcf0cb35e0727db169fa6e2c60f9b24cbb0a7f143fe",
          "transactionIndex": "0x6",
          "logIndex": "0x13",
          "removed": false
        },
        {
          "address": "0xabbf9c253bc39ce7bb010bc90de5283f2431a659",
          "topics": [
            "0x8be0079c531659141344cd1fd0a4f28419497f9722a3daafe3b4186f6b6457e0",
            "0x000000000000000000000000fdff3fd0994fed8be208a7bee49970ea9707e687",
            "0x00000000000000000000000058099b74f4acd642da77b4b7966b4138ec5ba458"
          ],
          "data": "0x",
          "blockHash": "0x6cd1f493feff6e6e34688a7c0a5259a3de865d0d5acfd6d169179f09ea5a33c0",
          "blockNumber": "0x3aa73cd",
          "transactionHash": "0xf6b6e2c49ff072efa3a04fcf0cb35e0727db169fa6e2c60f9b24cbb0a7f143fe",
          "transactionIndex": "0x6",
          "logIndex": "0x14",
          "removed": false
        },
        {
          "address": "0xfdff3fd0994fed8be208a7bee49970ea9707e687",
          "topics": [
            "0x442e715f626346e8c54381002da614f62bee8d27386535b2521ec8540898556e",
            "0x08dfb8ee302782a6413909d52fb6870ce119be51abe7765bd34414715b9a0c53"
          ],
          "data": "0x0000000000000000000000000000000000000000000000000000000000000000",
          "blockHash": "0x6cd1f493feff6e6e34688a7c0a5259a3de865d0d5acfd6d169179f09ea5a33c0",
          "blockNumber": "0x3aa73cd",
          "transactionHash": "0xf6b6e2c49ff072efa3a04fcf0cb35e0727db169fa6e2c60f9b24cbb0a7f143fe",
          "transactionIndex": "0x6",
          "logIndex": "0x15",
          "removed": false
        }
      ],
      "logsBloom": "0x00000000400000000000000000800100000010000000000000800000040000008000100000000000000000000000000000000008000000000000000000000000000000000000002000000000000000000001040000000000000000000000000000000000000000000000010000000000000000000000000000000000000000400000000000000000000000000000000000000000000000000000000000000000004000000400000000000000000004001000000000000000000000000000000000000000000000000000000000020002000000000000000000000000000000000000000000000000000000000300000000000000000000000000000080040000",
      "transactionHash": "0xf6b6e2c49ff072efa3a04fcf0cb35e0727db169fa6e2c60f9b24cbb0a7f143fe",
      "transactionIndex": "0x6",
      "blockHash": "0x6cd1f493feff6e6e34688a7c0a5259a3de865d0d5acfd6d169179f09ea5a33c0",
      "blockNumber": "0x3aa73cd",
      "gasUsed": "0x10917",
      "effectiveGasPrice": "0x5d22e82de",
      "from": "0x2738f38fde510743e0c589415e0598c4cee6eaa7",
      "to": "0xfdff3fd0994fed8be208a7bee49970ea9707e687",
      "contractAddress": null
    }
  ],
  "libraries": [
    "lib/mento-stabletoken-ntt/evm/src/libraries/TransceiverStructs.sol:TransceiverStructs:0x7C2420401eB6bEB50501Fd5bc8b60DBfC2b0dEF0"
  ],
  "pending": [],
  "returns": {},
  "timestamp": 1773403172594,
  "chain": 42220,
  "commit": "6e4b5f0"
}