{
  "transactions": [
    {
      "hash": "0x11cc47fa75e9476cb226e135b703dc41362dbb05cf7394946ebe896ad1f5c155",
      "transactionType": "CALL",
      "contractName": null,
      "contractAddress": "0xfdff3fd0994fed8be208a7bee49970ea9707e687",
      "function": "execTransaction(address,uint256,bytes,uint8,uint256,uint256,uint256,address,address,bytes)",
      "arguments": [
        "0x5e86369C605d72Cc294Bf85f79d0D18Cc8856132",
        "0",
        "0xf2fde38b00000000000000000000000058099b74f4acd642da77b4b7966b4138ec5ba458",
        "0",
        "0",
        "0",
        "0",
        "0x0000000000000000000000000000000000000000",
        "0x0000000000000000000000000000000000000000",
        "0xee9f5d9070940beab208cfdd6fb72c6791f7d067ad239fcf42fc8ab25494646449f37ca371da07a3d01b2379a760af3eb69f6db9f4db63d289ef862e416d754c1b"
      ],
      "transaction": {
        "from": "0x2738f38fde510743e0c589415e0598c4cee6eaa7",
        "to": "0xfdff3fd0994fed8be208a7bee49970ea9707e687",
        "gas": "0x16e27",
        "value": "0x0",
        "input": "0x6a7612020000000000000000000000005e86369c605d72cc294bf85f79d0d18cc88561320000000000000000000000000000000000000000000000000000000000000000000000000000000000000000000000000000000000000000000000000000014000000000000000000000000000000000000000000000000000000000000000000000000000000000000000000000000000000000000000000000000000000000000000000000000000000000000000000000000000000000000000000000000000000000000000000000000000000000000000000000000000000000000000000000000000000000000000000000000000000000000000000000000000000000000000000000000000000000000000000000000000000000000000000000000000000000000000000000000000000000000000000000000000000000000001a00000000000000000000000000000000000000000000000000000000000000024f2fde38b00000000000000000000000058099b74f4acd642da77b4b7966b4138ec5ba458000000000000000000000000000000000000000000000000000000000000000000000000000000000000000000000000000000000000000000000041ee9f5d9070940beab208cfdd6fb72c6791f7d067ad239fcf42fc8ab25494646449f37ca371da07a3d01b2379a760af3eb69f6db9f4db63d289ef862e416d754c1b00000000000000000000000000000000000000000000000000000000000000",
        "nonce": "0x166",
        "chainId": "0xa4ec"
      },
      "additionalContracts": [],
      "isFixedGasLimit": false
    }
  ],
  "receipts": [
    {
      "type": "0x2",
      "status": "0x1",
      "cumulativeGasUsed": "0xd1171",
      "logs": [
        {
          "address": "0xfdff3fd0994fed8be208a7bee49970ea9707e687",
          "topics": [
            "0x66753cd2356569ee081232e3be8909b950e0a76c1f8460c3a5e3c2be32b11bed"
          ],
          "data": "0x0000000000000000000000005e86369c605d72cc294bf85f79d0d18cc88561320000000000000000000000000000000000000000000000000000000000000000000000000000000000000000000000000000000000000000000000000000016000000000000000000000000000000000000000000000000000000000000000000000000000000000000000000000000000000000000000000000000000000000000000000000000000000000000000000000000000000000000000000000000000000000000000000000000000000000000000000000000000000000000000000000000000000000000000000000000000000000000000000000000000000000000000000000000000000000000000000000000000000000000000000000000000000000000000000000000000000000000000000000000000000000000001c000000000000000000000000000000000000000000000000000000000000002400000000000000000000000000000000000000000000000000000000000000024f2fde38b00000000000000000000000058099b74f4acd642da77b4b7966b4138ec5ba458000000000000000000000000000000000000000000000000000000000000000000000000000000000000000000000000000000000000000000000041ee9f5d9070940beab208cfdd6fb72c6791f7d067ad239fcf42fc8ab25494646449f37ca371da07a3d01b2379a760af3eb69f6db9f4db63d289ef862e416d754c1b000000000000000000000000000000000000000000000000000000000000000000000000000000000000000000000000000000000000000000000000000060000000000000000000000000000000000000000000000000000000000000001c0000000000000000000000002738f38fde510743e0c589415e0598c4cee6eaa70000000000000000000000000000000000000000000000000000000000000001",
          "blockHash": "0x382bb31b61af1a02bc19452e81405dc4e3bfd9ee7a57efd2036a095469fb9633",
          "blockNumber": "0x3aa73c5",
          "transactionHash": "0x11cc47fa75e9476cb226e135b703dc41362dbb05cf7394946ebe896ad1f5c155",
          "transactionIndex": "0x6",
          "logIndex": "0x13",
          "removed": false
        },
        {
          "address": "0x5e86369c605d72cc294bf85f79d0d18cc8856132",
          "topics": [
            "0x8be0079c531659141344cd1fd0a4f28419497f9722a3daafe3b4186f6b6457e0",
            "0x000000000000000000000000fdff3fd0994fed8be208a7bee49970ea9707e687",
            "0x00000000000000000000000058099b74f4acd642da77b4b7966b4138ec5ba458"
          ],
          "data": "0x",
          "blockHash": "0x382bb31b61af1a02bc19452e81405dc4e3bfd9ee7a57efd2036a095469fb9633",
          "blockNumber": "0x3aa73c5",
          "transactionHash": "0x11cc47fa75e9476cb226e135b703dc41362dbb05cf7394946ebe896ad1f5c155",
          "transactionIndex": "0x6",
          "logIndex": "0x14",
          "removed": false
        },
        {
          "address": "0xfdff3fd0994fed8be208a7bee49970ea9707e687",
          "topics": [
            "0x442e715f626346e8c54381002da614f62bee8d27386535b2521ec8540898556e",
            "0x1b983b142a5e258e56ca841a1056653ac597b046491ee0d32c3373719455b701"
          ],
          "data": "0x0000000000000000000000000000000000000000000000000000000000000000",
          "blockHash": "0x382bb31b61af1a02bc19452e81405dc4e3bfd9ee7a57efd2036a095469fb9633",
          "blockNumber": "0x3aa73c5",
          "transactionHash": "0x11cc47fa75e9476cb226e135b703dc41362dbb05cf7394946ebe896ad1f5c155",
          "transactionIndex": "0x6",
          "logIndex": "0x15",
          "removed": false
        }
      ],
      "logsBloom": "0x00000000400000000000000000800100000010000000000000800000040000000000000000000000000000000000000000400008000000000000000000000000000000000000000000000000000000000001040080000000000000000000000000000000000000002000010000000000000000000000000000000000000000400000000000000000000000000000100000000000000000000000000000000000004000000400000000000000000004000000000000000000000000000000000000000000000000000000000000020004000000000000000000000040000000000000000000000000000000000300000000000000000000000000000000040000",
      "transactionHash": "0x11cc47fa75e9476cb226e135b703dc41362dbb05cf7394946ebe896ad1f5c155",
      "transactionIndex": "0x6",
      "blockHash": "0x382bb31b61af1a02bc19452e81405dc4e3bfd9ee7a57efd2036a095469fb9633",
      "blockNumber": "0x3aa73c5",
      "gasUsed": "0x10917",
      "effectiveGasPrice": "0x5d22e82de",
      "from": "0x2738f38fde510743e0c589415e0598c4cee6eaa7",
      "to": "0xfdff3fd0994fed8be208a7bee49970ea9707e687",
      "contractAddress": null
    }
  ],
  "libraries": [
    "lib/mento-stabletoken-ntt/evm/src/libraries/TransceiverStructs.sol:TransceiverStructs:0x7C2420401eB6bEB50501Fd5bc8b60DBfC2b0dEF0"
  ],
  "pending": [],
  "returns": {},
  "timestamp": 1773403164916,
  "chain": 42220,
  "commit": "6e4b5f0"
}