{
  "transactions": [
    {
      "hash": "0x7d6c20a440fa79e551ecd941a1062450eb416b0591cf6428b5ce4a44a33a76a0",
      "transactionType": "CALL",
      "contractName": null,
      "contractAddress": "0xfdff3fd0994fed8be208a7bee49970ea9707e687",
      "function": "execTransaction(address,uint256,bytes,uint8,uint256,uint256,uint256,address,address,bytes)",
      "arguments": [
        "0x9beACcE6eC3066f96345e6e15ab6263FB63E9150",
        "0",
        "0xf2fde38b00000000000000000000000058099b74f4acd642da77b4b7966b4138ec5ba458",
        "0",
        "0",
        "0",
        "0",
        "0x0000000000000000000000000000000000000000",
        "0x0000000000000000000000000000000000000000",
        "0x8d2f5e345dae855e52c5c1ce30b1de1fa9d0dd929db256d1353260750088f847571b1d0cc5f041e8ec75e2a4f145f97245ab4670ec394af56a5a9ad5047ae70c1c"
      ],
      "transaction": {
        "from": "0x2738f38fde510743e0c589415e0598c4cee6eaa7",
        "to": "0xfdff3fd0994fed8be208a7bee49970ea9707e687",
        "gas": "0x1839f",
        "value": "0x0",
        "input": "0x6a7612020000000000000000000000009beacce6ec3066f96345e6e15ab6263fb63e91500000000000000000000000000000000000000000000000000000000000000000000000000000000000000000000000000000000000000000000000000000014000000000000000000000000000000000000000000000000000000000000000000000000000000000000000000000000000000000000000000000000000000000000000000000000000000000000000000000000000000000000000000000000000000000000000000000000000000000000000000000000000000000000000000000000000000000000000000000000000000000000000000000000000000000000000000000000000000000000000000000000000000000000000000000000000000000000000000000000000000000000000000000000000000000000001a00000000000000000000000000000000000000000000000000000000000000024f2fde38b00000000000000000000000058099b74f4acd642da77b4b7966b4138ec5ba4580000000000000000000000000000000000000000000000000000000000000000000000000000000000000000000000000000000000000000000000418d2f5e345dae855e52c5c1ce30b1de1fa9d0dd929db256d1353260750088f847571b1d0cc5f041e8ec75e2a4f145f97245ab4670ec394af56a5a9ad5047ae70c1c00000000000000000000000000000000000000000000000000000000000000",
        "nonce": "0x165",
        "chainId": "0xa4ec"
      },
      "additionalContracts": [],
      "isFixedGasLimit": false
    }
  ],
  "receipts": [
    {
      "type": "0x2",
      "status": "0x1",
      "cumulativeGasUsed": "0x9760f",
      "logs": [
        {
          "address": "0xfdff3fd0994fed8be208a7bee49970ea9707e687",
          "topics": [
            "0x66753cd2356569ee081232e3be8909b950e0a76c1f8460c3a5e3c2be32b11bed"
          ],
          "data": "0x0000000000000000000000009beacce6ec3066f96345e6e15ab6263fb63e91500000000000000000000000000000000000000000000000000000000000000000000000000000000000000000000000000000000000000000000000000000016000000000000000000000000000000000000000000000000000000000000000000000000000000000000000000000000000000000000000000000000000000000000000000000000000000000000000000000000000000000000000000000000000000000000000000000000000000000000000000000000000000000000000000000000000000000000000000000000000000000000000000000000000000000000000000000000000000000000000000000000000000000000000000000000000000000000000000000000000000000000000000000000000000000000001c000000000000000000000000000000000000000000000000000000000000002400000000000000000000000000000000000000000000000000000000000000024f2fde38b00000000000000000000000058099b74f4acd642da77b4b7966b4138ec5ba4580000000000000000000000000000000000000000000000000000000000000000000000000000000000000000000000000000000000000000000000418d2f5e345dae855e52c5c1ce30b1de1fa9d0dd929db256d1353260750088f847571b1d0cc5f041e8ec75e2a4f145f97245ab4670ec394af56a5a9ad5047ae70c1c000000000000000000000000000000000000000000000000000000000000000000000000000000000000000000000000000000000000000000000000000060000000000000000000000000000000000000000000000000000000000000001b0000000000000000000000002738f38fde510743e0c589415e0598c4cee6eaa70000000000000000000000000000000000000000000000000000000000000001",
          "blockHash": "0xa7bb19463bb16e9ca50886a75532a0fcd0e69c3ba7b9ed71475c3bcf37d02312",
          "blockNumber": "0x3aa73bd",
          "transactionHash": "0x7d6c20a440fa79e551ecd941a1062450eb416b0591cf6428b5ce4a44a33a76a0",
          "transactionIndex": "0x5",
          "logIndex": "0xa",
          "removed": false
        },
        {
          "address": "0x9beacce6ec3066f96345e6e15ab6263fb63e9150",
          "topics": [
            "0x8be0079c531659141344cd1fd0a4f28419497f9722a3daafe3b4186f6b6457e0",
            "0x000000000000000000000000fdff3fd0994fed8be208a7bee49970ea9707e687",
            "0x00000000000000000000000058099b74f4acd642da77b4b7966b4138ec5ba458"
          ],
          "data": "0x",
          "blockHash": "0xa7bb19463bb16e9ca50886a75532a0fcd0e69c3ba7b9ed71475c3bcf37d02312",
          "blockNumber": "0x3aa73bd",
          "transactionHash": "0x7d6c20a440fa79e551ecd941a1062450eb416b0591cf6428b5ce4a44a33a76a0",
          "transactionIndex": "0x5",
          "logIndex": "0xb",
          "removed": false
        },
        {
          "address": "0xfdff3fd0994fed8be208a7bee49970ea9707e687",
          "topics": [
            "0x442e715f626346e8c54381002da614f62bee8d27386535b2521ec8540898556e",
            "0xde8587446410861ce50087a122ed80dfc42cf1390d1e74ea4b059304090898ee"
          ],
          "data": "0x0000000000000000000000000000000000000000000000000000000000000000",
          "blockHash": "0xa7bb19463bb16e9ca50886a75532a0fcd0e69c3ba7b9ed71475c3bcf37d02312",
          "blockNumber": "0x3aa73bd",
          "transactionHash": "0x7d6c20a440fa79e551ecd941a1062450eb416b0591cf6428b5ce4a44a33a76a0",
          "transactionIndex": "0x5",
          "logIndex": "0xc",
          "removed": false
        }
      ],
      "logsBloom": "0x00000000400000000000000000800100000010000000000000800000040000000000000000000000000000000000000000000008000000000000000000000000008000000000000000000000000000000001040000000000000000000000000000000000000000002000010000000000000000000000000000000000000000400000000000000000000000000000000000000000000000000000000000000000004000000400000100000000000004000000000000000000000100000000000000000000000000400000000000020000000000000000000800000000000000000000000000000000000000000300000000000000000000000000000000040000",
      "transactionHash": "0x7d6c20a440fa79e551ecd941a1062450eb416b0591cf6428b5ce4a44a33a76a0",
      "transactionIndex": "0x5",
      "blockHash": "0xa7bb19463bb16e9ca50886a75532a0fcd0e69c3ba7b9ed71475c3bcf37d02312",
      "blockNumber": "0x3aa73bd",
      "gasUsed": "0x1090b",
      "effectiveGasPrice": "0x5d22e82de",
      "from": "0x2738f38fde510743e0c589415e0598c4cee6eaa7",
      "to": "0xfdff3fd0994fed8be208a7bee49970ea9707e687",
      "contractAddress": null
    }
  ],
  "libraries": [
    "lib/mento-stabletoken-ntt/evm/src/libraries/TransceiverStructs.sol:TransceiverStructs:0x7C2420401eB6bEB50501Fd5bc8b60DBfC2b0dEF0"
  ],
  "pending": [],
  "returns": {},
  "timestamp": 1773403156648,
  "chain": 42220,
  "commit": "6e4b5f0"
}