{
  "transactions": [
    {
      "hash": "0x549ad4b8c79e066383db36956281bb1ade895d9986912eec3e64d8ef7c6de9a0",
      "transactionType": "CALL",
      "contractName": null,
      "contractAddress": "0xfdff3fd0994fed8be208a7bee49970ea9707e687",
      "function": "execTransaction(address,uint256,bytes,uint8,uint256,uint256,uint256,address,address,bytes)",
      "arguments": [
        "0xbA6F1EED14f21bCc247C48313fd375F5614a24EE",
        "0",
        "0xf2fde38b00000000000000000000000058099b74f4acd642da77b4b7966b4138ec5ba458",
        "0",
        "0",
        "0",
        "0",
        "0x0000000000000000000000000000000000000000",
        "0x0000000000000000000000000000000000000000",
        "0x18e174fbb87b35afb3d808ddd17b209db73de3702f632ee7a0bca05a1fb37b8443567f8c0bb9d042b016ec08ba087c6f68246c6882e26ad3b98b78d904a8b7651c"
      ],
      "transaction": {
        "from": "0x2738f38fde510743e0c589415e0598c4cee6eaa7",
        "to": "0xfdff3fd0994fed8be208a7bee49970ea9707e687",
        "gas": "0x16e27",
        "value": "0x0",
        "input": "0x6a761202000000000000000000000000ba6f1eed14f21bcc247c48313fd375f5614a24ee0000000000000000000000000000000000000000000000000000000000000000000000000000000000000000000000000000000000000000000000000000014000000000000000000000000000000000000000000000000000000000000000000000000000000000000000000000000000000000000000000000000000000000000000000000000000000000000000000000000000000000000000000000000000000000000000000000000000000000000000000000000000000000000000000000000000000000000000000000000000000000000000000000000000000000000000000000000000000000000000000000000000000000000000000000000000000000000000000000000000000000000000000000000000000000000001a00000000000000000000000000000000000000000000000000000000000000024f2fde38b00000000000000000000000058099b74f4acd642da77b4b7966b4138ec5ba45800000000000000000000000000000000000000000000000000000000000000000000000000000000000000000000000000000000000000000000004118e174fbb87b35afb3d808ddd17b209db73de3702f632ee7a0bca05a1fb37b8443567f8c0bb9d042b016ec08ba087c6f68246c6882e26ad3b98b78d904a8b7651c00000000000000000000000000000000000000000000000000000000000000",
        "nonce": "0x164",
        "chainId": "0xa4ec"
      },
      "additionalContracts": [],
      "isFixedGasLimit": false
    }
  ],
  "receipts": [
    {
      "type": "0x2",
      "status": "0x1",
      "cumulativeGasUsed": "0x203fde",
      "logs": [
        {
          "address": "0xfdff3fd0994fed8be208a7bee49970ea9707e687",
          "topics": [
            "0x66753cd2356569ee081232e3be8909b950e0a76c1f8460c3a5e3c2be32b11bed"
          ],
          "data": "0x000000000000000000000000ba6f1eed14f21bcc247c48313fd375f5614a24ee0000000000000000000000000000000000000000000000000000000000000000000000000000000000000000000000000000000000000000000000000000016000000000000000000000000000000000000000000000000000000000000000000000000000000000000000000000000000000000000000000000000000000000000000000000000000000000000000000000000000000000000000000000000000000000000000000000000000000000000000000000000000000000000000000000000000000000000000000000000000000000000000000000000000000000000000000000000000000000000000000000000000000000000000000000000000000000000000000000000000000000000000000000000000000000000001c000000000000000000000000000000000000000000000000000000000000002400000000000000000000000000000000000000000000000000000000000000024f2fde38b00000000000000000000000058099b74f4acd642da77b4b7966b4138ec5ba45800000000000000000000000000000000000000000000000000000000000000000000000000000000000000000000000000000000000000000000004118e174fbb87b35afb3d808ddd17b209db73de3702f632ee7a0bca05a1fb37b8443567f8c0bb9d042b016ec08ba087c6f68246c6882e26ad3b98b78d904a8b7651c000000000000000000000000000000000000000000000000000000000000000000000000000000000000000000000000000000000000000000000000000060000000000000000000000000000000000000000000000000000000000000001a0000000000000000000000002738f38fde510743e0c589415e0598c4cee6eaa70000000000000000000000000000000000000000000000000000000000000001",
          "blockHash": "0xf98ff4f341f3343bcaf513325d4b7cfa55dd1df6f90c89ff7acf66886d0003cc",
          "blockNumber": "0x3aa73b5",
          "transactionHash": "0x549ad4b8c79e066383db36956281bb1ade895d9986912eec3e64d8ef7c6de9a0",
          "transactionIndex": "0x8",
          "logIndex": "0xde",
          "removed": false
        },
        {
          "address": "0xba6f1eed14f21bcc247c48313fd375f5614a24ee",
          "topics": [
            "0x8be0079c531659141344cd1fd0a4f28419497f9722a3daafe3b4186f6b6457e0",
            "0x000000000000000000000000fdff3fd0994fed8be208a7bee49970ea9707e687",
            "0x00000000000000000000000058099b74f4acd642da77b4b7966b4138ec5ba458"
          ],
          "data": "0x",
          "blockHash": "0xf98ff4f341f3343bcaf513325d4b7cfa55dd1df6f90c89ff7acf66886d0003cc",
          "blockNumber": "0x3aa73b5",
          "transactionHash": "0x549ad4b8c79e066383db36956281bb1ade895d9986912eec3e64d8ef7c6de9a0",
          "transactionIndex": "0x8",
          "logIndex": "0xdf",
          "removed": false
        },
        {
          "address": "0xfdff3fd0994fed8be208a7bee49970ea9707e687",
          "topics": [
            "0x442e715f626346e8c54381002da614f62bee8d27386535b2521ec8540898556e",
            "0x885245062ee041cdcdbef5fc41c2a4e15e56e0f8b999180cbcf99f6d7c8326ef"
          ],
          "data": "0x0000000000000000000000000000000000000000000000000000000000000000",
          "blockHash": "0xf98ff4f341f3343bcaf513325d4b7cfa55dd1df6f90c89ff7acf66886d0003cc",
          "blockNumber": "0x3aa73b5",
          "transactionHash": "0x549ad4b8c79e066383db36956281bb1ade895d9986912eec3e64d8ef7c6de9a0",
          "transactionIndex": "0x8",
          "logIndex": "0xe0",
          "removed": false
        }
      ],
      "logsBloom": "0x00000000400000000000000000800100000010000000000000800000040000000000000000000000000000000000000000000008000000000000000000000000000200000000000000000000000000000001040000000000000000000000000000000000000000000000010000000000000000000000000000000000000000400000000000000000000000000008000000000000000000000000000200000000004000000400000000000000000004000000000000000000000000000000000000000000100000000000000000020000000008000000000000000000000000000000000000000000000000000300000000010000000000000000000000040000",
      "transactionHash": "0x549ad4b8c79e066383db36956281bb1ade895d9986912eec3e64d8ef7c6de9a0",
      "transactionIndex": "0x8",
      "blockHash": "0xf98ff4f341f3343bcaf513325d4b7cfa55dd1df6f90c89ff7acf66886d0003cc",
      "blockNumber": "0x3aa73b5",
      "gasUsed": "0x10917",
      "effectiveGasPrice": "0x5d22e82de",
      "from": "0x2738f38fde510743e0c589415e0598c4cee6eaa7",
      "to": "0xfdff3fd0994fed8be208a7bee49970ea9707e687",
      "contractAddress": null
    }
  ],
  "libraries": [
    "lib/mento-stabletoken-ntt/evm/src/libraries/TransceiverStructs.sol:TransceiverStructs:0x7C2420401eB6bEB50501Fd5bc8b60DBfC2b0dEF0"
  ],
  "pending": [],
  "returns": {},
  "timestamp": 1773403148339,
  "chain": 42220,
  "commit": "6e4b5f0"
}