{
  "transactions": [
    {
      "hash": "0x9457e01aba5446fd7b2cd2300fd7cf81931a1242dd1fc4bc71ab720fb78ced3a",
      "transactionType": "CALL",
      "contractName": null,
      "contractAddress": "0x04de554e875c9797dc4cebd834a9e99fa8fd5df9",
      "function": "setMinter(address,bool)",
      "arguments": [
        "0x2738F38Fde510743e0c589415E0598C4ceE6eAa7",
        "true"
      ],
      "transaction": {
        "from": "0x2738f38fde510743e0c589415e0598c4cee6eaa7",
        "to": "0x04de554e875c9797dc4cebd834a9e99fa8fd5df9",
        "gas": "0x19218",
        "value": "0x0",
        "input": "0xcf456ae70000000000000000000000002738f38fde510743e0c589415e0598c4cee6eaa70000000000000000000000000000000000000000000000000000000000000001",
        "nonce": "0x2c",
        "chainId": "0x279f"
      },
      "additionalContracts": [],
      "isFixedGasLimit": false
    },
    {
      "hash": "0xffbc05726dc54b7fdee8f76f4892b83d1c14e54e849ca399e4f86fb20fd7c2ec",
      "transactionType": "CALL",
      "contractName": null,
      "contractAddress": "0x04de554e875c9797dc4cebd834a9e99fa8fd5df9",
      "function": "mint(address,uint256)",
      "arguments": [
        "0x2738F38Fde510743e0c589415E0598C4ceE6eAa7",
        "1000000000000000000000000"
      ],
      "transaction": {
        "from": "0x2738f38fde510743e0c589415e0598c4cee6eaa7",
        "to": "0x04de554e875c9797dc4cebd834a9e99fa8fd5df9",
        "gas": "0x1afa2",
        "value": "0x0",
        "input": "0x40c10f190000000000000000000000002738f38fde510743e0c589415e0598c4cee6eaa700000000000000000000000000000000000000000000d3c21bcecceda1000000",
        "nonce": "0x2d",
        "chainId": "0x279f"
      },
      "additionalContracts": [],
      "isFixedGasLimit": false
    },
    {
      "hash": "0x92674fdf214f3fa0b988902aa979d092621e248c2f93752cb0e122a92fb667ca",
      "transactionType": "CALL",
      "contractName": null,
      "contractAddress": "0x04de554e875c9797dc4cebd834a9e99fa8fd5df9",
      "function": "setMinter(address,bool)",
      "arguments": [
        "0x2738F38Fde510743e0c589415E0598C4ceE6eAa7",
        "false"
      ],
      "transaction": {
        "from": "0x2738f38fde510743e0c589415e0598c4cee6eaa7",
        "to": "0x04de554e875c9797dc4cebd834a9e99fa8fd5df9",
        "gas": "0x130b9",
        "value": "0x0",
        "input": "0xcf456ae70000000000000000000000002738f38fde510743e0c589415e0598c4cee6eaa70000000000000000000000000000000000000000000000000000000000000000",
        "nonce": "0x2e",
        "chainId": "0x279f"
      },
      "additionalContracts": [],
      "isFixedGasLimit": false
    }
  ],
  "receipts": [
    {
      "status": "0x1",
      "cumulativeGasUsed": "0x612c5",
      "logs": [
        {
          "address": "0x04de554e875c9797dc4cebd834a9e99fa8fd5df9",
          "topics": [
            "0xb21afb9ce9be0a676f8f317ff0ca072fb89a4f8ce2d1b6fe80f8755c14f1cb19",
            "0x0000000000000000000000002738f38fde510743e0c589415e0598c4cee6eaa7"
          ],
          "data": "0x0000000000000000000000000000000000000000000000000000000000000001",
          "blockHash": "0x269d29e76552bbe59bbd74ae8e3eeade00cc5efc10fce14933f06c3090d35a9a",
          "blockNumber": "0x1119f62",
          "blockTimestamp": "0x69b0471e",
          "transactionHash": "0x9457e01aba5446fd7b2cd2300fd7cf81931a1242dd1fc4bc71ab720fb78ced3a",
          "transactionIndex": "0x4",
          "logIndex": "0x7",
          "removed": false
        }
      ],
      "logsBloom": "0x00000000000000000000000000000000000000008000000000000000000000000000000000000000000000000000000000000000000000040000000000000080002000000000000000001000000000000000000000000000000000000000000000000000000000000000000000000000000000000000000000000000000000000000000000000000000000000000000000000000000000000000200000000010000000000000000000000000000000000000000000000000000000000000000000000800000000000000000000000000000000000000000000000000000000000000000000000080000000000000000000000000000000000000000000000000",
      "type": "0x2",
      "transactionHash": "0x9457e01aba5446fd7b2cd2300fd7cf81931a1242dd1fc4bc71ab720fb78ced3a",
      "transactionIndex": "0x4",
      "blockHash": "0x269d29e76552bbe59bbd74ae8e3eeade00cc5efc10fce14933f06c3090d35a9a",
      "blockNumber": "0x1119f62",
      "gasUsed": "0x19218",
      "effectiveGasPrice": "0x17fb474601",
      "from": "0x2738f38fde510743e0c589415e0598c4cee6eaa7",
      "to": "0x04de554e875c9797dc4cebd834a9e99fa8fd5df9",
      "contractAddress": null
    },
    {
      "status": "0x1",
      "cumulativeGasUsed": "0x621d7",
      "logs": [
        {
          "address": "0x04de554e875c9797dc4cebd834a9e99fa8fd5df9",
          "topics": [
            "0xddf252ad1be2c89b69c2b068fc378daa952ba7f163c4a11628f55a4df523b3ef",
            "0x0000000000000000000000000000000000000000000000000000000000000000",
            "0x0000000000000000000000002738f38fde510743e0c589415e0598c4cee6eaa7"
          ],
          "data": "0x00000000000000000000000000000000000000000000d3c21bcecceda1000000",
          "blockHash": "0xcda09ea75b45c7ca60eba0696c018fc50317b65a2f7aeec7b5ae648382bc8e30",
          "blockNumber": "0x1119f66",
          "blockTimestamp": "0x69b0471f",
          "transactionHash": "0xffbc05726dc54b7fdee8f76f4892b83d1c14e54e849ca399e4f86fb20fd7c2ec",
          "transactionIndex": "0x3",
          "logIndex": "0x6",
          "removed": false
        }
      ],
      "logsBloom": "0x00000000000000000000000000000000000000008000000000000000000000000000000000000000000000000000000000000000000000000000000000000000002000000000000000001008000000000000000000000000000000000000000000000000020000000000000000000800000000000000000000000010000000000000000000000000000000000000000000000000000000000000000000000010000000000000000000000000000000000000000000000000000000000000000000000802000000000000000000000000000000000000000000000000000020000000000000000080000000000000000000000000000000000000000000000000",
      "type": "0x2",
      "transactionHash": "0xffbc05726dc54b7fdee8f76f4892b83d1c14e54e849ca399e4f86fb20fd7c2ec",
      "transactionIndex": "0x3",
      "blockHash": "0xcda09ea75b45c7ca60eba0696c018fc50317b65a2f7aeec7b5ae648382bc8e30",
      "blockNumber": "0x1119f66",
      "gasUsed": "0x229c6",
      "effectiveGasPrice": "0x17fb474601",
      "from": "0x2738f38fde510743e0c589415e0598c4cee6eaa7",
      "to": "0x04de554e875c9797dc4cebd834a9e99fa8fd5df9",
      "contractAddress": null
    },
    {
      "status": "0x1",
      "cumulativeGasUsed": "0x5bb5a",
      "logs": [
        {
          "address": "0x04de554e875c9797dc4cebd834a9e99fa8fd5df9",
          "topics": [
            "0xb21afb9ce9be0a676f8f317ff0ca072fb89a4f8ce2d1b6fe80f8755c14f1cb19",
            "0x0000000000000000000000002738f38fde510743e0c589415e0598c4cee6eaa7"
          ],
          "data": "0x0000000000000000000000000000000000000000000000000000000000000000",
          "blockHash": "0x1c404adecaa1c7023b92cdde1389c63a2d573141f28f84cd41b66651fe29dac0",
          "blockNumber": "0x1119f67",
          "blockTimestamp": "0x69b04720",
          "transactionHash": "0x92674fdf214f3fa0b988902aa979d092621e248c2f93752cb0e122a92fb667ca",
          "transactionIndex": "0x4",
          "logIndex": "0x7",
          "removed": false
        }
      ],
      "logsBloom": "0x00000000000000000000000000000000000000008000000000000000000000000000000000000000000000000000000000000000000000040000000000000080002000000000000000001000000000000000000000000000000000000000000000000000000000000000000000000000000000000000000000000000000000000000000000000000000000000000000000000000000000000000200000000010000000000000000000000000000000000000000000000000000000000000000000000800000000000000000000000000000000000000000000000000000000000000000000000080000000000000000000000000000000000000000000000000",
      "type": "0x2",
      "transactionHash": "0x92674fdf214f3fa0b988902aa979d092621e248c2f93752cb0e122a92fb667ca",
      "transactionIndex": "0x4",
      "blockHash": "0x1c404adecaa1c7023b92cdde1389c63a2d573141f28f84cd41b66651fe29dac0",
      "blockNumber": "0x1119f67",
      "gasUsed": "0x13ada",
      "effectiveGasPrice": "0x17fb474601",
      "from": "0x2738f38fde510743e0c589415e0598c4cee6eaa7",
      "to": "0x04de554e875c9797dc4cebd834a9e99fa8fd5df9",
      "contractAddress": null
    }
  ],
  "libraries": [],
  "pending": [],
  "returns": {},
  "timestamp": 1773160226057,
  "chain": 10143,
  "commit": "ed817e1"
}