{
  "transactions": [
    {
      "hash": "0xf36daf1d43eb23d3e8c6c3be5bf9eb1cf161a40821659ce577b7bb1d5ff6d776",
      "transactionType": "CALL",
      "contractName": null,
      "contractAddress": "0x5ecc03111ad2a78f981a108759bc73bae2ab31bc",
      "function": "setMinter(address,bool)",
      "arguments": [
        "0x2738F38Fde510743e0c589415E0598C4ceE6eAa7",
        "true"
      ],
      "transaction": {
        "from": "0x2738f38fde510743e0c589415e0598c4cee6eaa7",
        "to": "0x5ecc03111ad2a78f981a108759bc73bae2ab31bc",
        "gas": "0x19218",
        "value": "0x0",
        "input": "0xcf456ae70000000000000000000000002738f38fde510743e0c589415e0598c4cee6eaa70000000000000000000000000000000000000000000000000000000000000001",
        "nonce": "0x32",
        "chainId": "0x279f"
      },
      "additionalContracts": [],
      "isFixedGasLimit": false
    },
    {
      "hash": "0x689aa7d60f889c3198720c9ac56a7f41e34ef629a4df78648758610cf47cd209",
      "transactionType": "CALL",
      "contractName": null,
      "contractAddress": "0x5ecc03111ad2a78f981a108759bc73bae2ab31bc",
      "function": "mint(address,uint256)",
      "arguments": [
        "0x2738F38Fde510743e0c589415E0598C4ceE6eAa7",
        "1000000000000000000000000"
      ],
      "transaction": {
        "from": "0x2738f38fde510743e0c589415e0598c4cee6eaa7",
        "to": "0x5ecc03111ad2a78f981a108759bc73bae2ab31bc",
        "gas": "0x1afa2",
        "value": "0x0",
        "input": "0x40c10f190000000000000000000000002738f38fde510743e0c589415e0598c4cee6eaa700000000000000000000000000000000000000000000d3c21bcecceda1000000",
        "nonce": "0x33",
        "chainId": "0x279f"
      },
      "additionalContracts": [],
      "isFixedGasLimit": false
    },
    {
      "hash": "0x62c4b7f3a7bccbcbd4840ab8906c917c54e2476f6f93e359a268bed329ffacbe",
      "transactionType": "CALL",
      "contractName": null,
      "contractAddress": "0x5ecc03111ad2a78f981a108759bc73bae2ab31bc",
      "function": "setMinter(address,bool)",
      "arguments": [
        "0x2738F38Fde510743e0c589415E0598C4ceE6eAa7",
        "false"
      ],
      "transaction": {
        "from": "0x2738f38fde510743e0c589415e0598c4cee6eaa7",
        "to": "0x5ecc03111ad2a78f981a108759bc73bae2ab31bc",
        "gas": "0x130b9",
        "value": "0x0",
        "input": "0xcf456ae70000000000000000000000002738f38fde510743e0c589415e0598c4cee6eaa70000000000000000000000000000000000000000000000000000000000000000",
        "nonce": "0x34",
        "chainId": "0x279f"
      },
      "additionalContracts": [],
      "isFixedGasLimit": false
    }
  ],
  "receipts": [
    {
      "status": "0x1",
      "cumulativeGasUsed": "0x1a72ed",
      "logs": [
        {
          "address": "0x5ecc03111ad2a78f981a108759bc73bae2ab31bc",
          "topics": [
            "0xb21afb9ce9be0a676f8f317ff0ca072fb89a4f8ce2d1b6fe80f8755c14f1cb19",
            "0x0000000000000000000000002738f38fde510743e0c589415e0598c4cee6eaa7"
          ],
          "data": "0x0000000000000000000000000000000000000000000000000000000000000001",
          "blockHash": "0x2df6dbdebacf6a2c3de33219e1e10ec0c591d9681f64fde0d6f10191e1351a14",
          "blockNumber": "0x1119f7f",
          "blockTimestamp": "0x69b0472a",
          "transactionHash": "0xf36daf1d43eb23d3e8c6c3be5bf9eb1cf161a40821659ce577b7bb1d5ff6d776",
          "transactionIndex": "0x9",
          "logIndex": "0x1e",
          "removed": false
        }
      ],
      "logsBloom": "0x00000000000000000000000000000000000000000000000000000000000000000000000000000000000000000000000000000000000000040000000000000080002000000000000004000000000000000000000000000000000000000000000000000000000000000000000000000000000000000000000000000000000000000000000000000000000000000000000000000000000000000000200000000010000000000000000000000000000000001000000000000000000000000200000000000800000000000000000000000000000000000000000000000000000000000000000000000000000000000000000000000000000000000000000000000000",
      "type": "0x2",
      "transactionHash": "0xf36daf1d43eb23d3e8c6c3be5bf9eb1cf161a40821659ce577b7bb1d5ff6d776",
      "transactionIndex": "0x9",
      "blockHash": "0x2df6dbdebacf6a2c3de33219e1e10ec0c591d9681f64fde0d6f10191e1351a14",
      "blockNumber": "0x1119f7f",
      "gasUsed": "0x19218",
      "effectiveGasPrice": "0x17fb474601",
      "from": "0x2738f38fde510743e0c589415e0598c4cee6eaa7",
      "to": "0x5ecc03111ad2a78f981a108759bc73bae2ab31bc",
      "contractAddress": null
    },
    {
      "status": "0x1",
      "cumulativeGasUsed": "0x21f246",
      "logs": [
        {
          "address": "0x5ecc03111ad2a78f981a108759bc73bae2ab31bc",
          "topics": [
            "0xddf252ad1be2c89b69c2b068fc378daa952ba7f163c4a11628f55a4df523b3ef",
            "0x0000000000000000000000000000000000000000000000000000000000000000",
            "0x0000000000000000000000002738f38fde510743e0c589415e0598c4cee6eaa7"
          ],
          "data": "0x00000000000000000000000000000000000000000000d3c21bcecceda1000000",
          "blockHash": "0x4e4d2340973b546581d14bff332a6cfaf80617704760bd392b15f143b12f16f8",
          "blockNumber": "0x1119f81",
          "blockTimestamp": "0x69b0472c",
          "transactionHash": "0x689aa7d60f889c3198720c9ac56a7f41e34ef629a4df78648758610cf47cd209",
          "transactionIndex": "0x7",
          "logIndex": "0x15",
          "removed": false
        }
      ],
      "logsBloom": "0x00000000000000000000000000000000000000000000000000000000000000000000000000000000000000000000000000000000000000000000000000000000002000000000000004000008000000000000000000000000000000000000000000000000020000000000000000000800000000000000000000000010000000000000000000000000000000000000000000000000000000000000000000000010000000000000000000000000000000001000000000000000000000000200000000000802000000000000000000000000000000000000000000000000000020000000000000000000000000000000000000000000000000000000000000000000",
      "type": "0x2",
      "transactionHash": "0x689aa7d60f889c3198720c9ac56a7f41e34ef629a4df78648758610cf47cd209",
      "transactionIndex": "0x7",
      "blockHash": "0x4e4d2340973b546581d14bff332a6cfaf80617704760bd392b15f143b12f16f8",
      "blockNumber": "0x1119f81",
      "gasUsed": "0x229c6",
      "effectiveGasPrice": "0x17fb474601",
      "from": "0x2738f38fde510743e0c589415e0598c4cee6eaa7",
      "to": "0x5ecc03111ad2a78f981a108759bc73bae2ab31bc",
      "contractAddress": null
    },
    {
      "status": "0x1",
      "cumulativeGasUsed": "0x9dd6a",
      "logs": [
        {
          "address": "0x5ecc03111ad2a78f981a108759bc73bae2ab31bc",
          "topics": [
            "0xb21afb9ce9be0a676f8f317ff0ca072fb89a4f8ce2d1b6fe80f8755c14f1cb19",
            "0x0000000000000000000000002738f38fde510743e0c589415e0598c4cee6eaa7"
          ],
          "data": "0x0000000000000000000000000000000000000000000000000000000000000000",
          "blockHash": "0x2b14be98cc5d1adef54e593873047af690e3f4be82d26253fc031f53c2407da8",
          "blockNumber": "0x1119f86",
          "blockTimestamp": "0x69b0472e",
          "transactionHash": "0x62c4b7f3a7bccbcbd4840ab8906c917c54e2476f6f93e359a268bed329ffacbe",
          "transactionIndex": "0x6",
          "logIndex": "0xd",
          "removed": false
        }
      ],
      "logsBloom": "0x00000000000000000000000000000000000000000000000000000000000000000000000000000000000000000000000000000000000000040000000000000080002000000000000004000000000000000000000000000000000000000000000000000000000000000000000000000000000000000000000000000000000000000000000000000000000000000000000000000000000000000000200000000010000000000000000000000000000000001000000000000000000000000200000000000800000000000000000000000000000000000000000000000000000000000000000000000000000000000000000000000000000000000000000000000000",
      "type": "0x2",
      "transactionHash": "0x62c4b7f3a7bccbcbd4840ab8906c917c54e2476f6f93e359a268bed329ffacbe",
      "transactionIndex": "0x6",
      "blockHash": "0x2b14be98cc5d1adef54e593873047af690e3f4be82d26253fc031f53c2407da8",
      "blockNumber": "0x1119f86",
      "gasUsed": "0x13ada",
      "effectiveGasPrice": "0x17fb474601",
      "from": "0x2738f38fde510743e0c589415e0598c4cee6eaa7",
      "to": "0x5ecc03111ad2a78f981a108759bc73bae2ab31bc",
      "contractAddress": null
    }
  ],
  "libraries": [],
  "pending": [],
  "returns": {},
  "timestamp": 1773160239674,
  "chain": 10143,
  "commit": "ed817e1"
}