{
  "transactions": [
    {
      "hash": "0xf2c391701937a01cd9748d5431928c22fed6da73e48f058dc898124001380e8b",
      "transactionType": "CALL",
      "contractName": null,
      "contractAddress": "0x32cb58b145d3f7e28c45ce4b2cc31fa94248b23f",
      "function": "execTransaction(address,uint256,bytes,uint8,uint256,uint256,uint256,address,address,bytes)",
      "arguments": [
        "0x40A2aCCbd92BCA938b02010E17A5b8929b49130D",
        "0",
        "0x8d80ff0a000000000000000000000000000000000000000000000000000000000000002000000000000000000000000000000000000000000000000000000000000003120011625bea35264a0df5c89e89a849cc47f83059b300000000000000000000000000000000000000000000000000000000000000000000000000000000000000000000000000000000000000000000000000000164b0898691000000000000000000000000a65a2853fe883df11c4ba1fcdfed99b7b00f0b78000000000000000000000000833589fcd6edb6e08f4c7c32d4f71b54bda029130000000000000000000000002722bbaac5b16a06cba4591a392a70e5a9274947000000000000000000000000000000000000000000000000000000000000000000000000000000000000000000000000000000000000000000000000000000000000000000000000000000000000000000000000000000000000000000000000000000000000000000000000000000000000000000000a968163f0a57b40000000000000000000000000000081a313ff894bfc6093d33b5514e34d7faa41b7ef0000000000000000000000000000000000000000000000000000000000015180000000000000000000000000000000000000000000000000000000000000000100000000000000000000000000000000000000000000d3c21bcecceda1000000004740ad3e0052d3e792b3db3368317402bab90f8700000000000000000000000000000000000000000000000000000000000000000000000000000000000000000000000000000000000000000000000000000104a9b5aab3e5d5c4df8b33337e9163fb01f3fd1c1cb3f8182a54ff181a94f9d3ebfc4f2abf000000000000000000000000a65a2853fe883df11c4ba1fcdfed99b7b00f0b78000000000000000000000000000000000000000000000000000000000000012c000000000000000000000000000000000000000000000000000000000001518000000000000000000000000000000000000000000000000000000000000186a000000000000000000000000000000000000000000000000000000000000f4240000000000000000000000000000000000000000000000000000000000000000000000000000000000000000000000000000000000000000000000000000000030000000000000000000000000000",
        "1",
        "0",
        "0",
        "0",
        "0x0000000000000000000000000000000000000000",
        "0x0000000000000000000000000000000000000000",
        "0x3c7f5f5eb9e44eb5e0aede3a451a1e95ec9766a7acf8d80d8c16873b2572a3e51c3881df97df72baead9b11bfc1279274cbcfa6f794c87d945828952334a8a891b"
      ],
      "transaction": {
        "from": "0x56fd3f2bee130e9867942d0f463a16fbe49b8d81",
        "to": "0x32cb58b145d3f7e28c45ce4b2cc31fa94248b23f",
        "gas": "0xb4a1e",
        "value": "0x0",
        "input": "0x6a76120200000000000000000000000040a2accbd92bca938b02010e17a5b8929b49130d0000000000000000000000000000000000000000000000000000000000000000000000000000000000000000000000000000000000000000000000000000014000000000000000000000000000000000000000000000000000000000000000010000000000000000000000000000000000000000000000000000000000000000000000000000000000000000000000000000000000000000000000000000000000000000000000000000000000000000000000000000000000000000000000000000000000000000000000000000000000000000000000000000000000000000000000000000000000000000000000000000000000000000000000000000000000000000000000000000000000000000000000000000000000000000000004e000000000000000000000000000000000000000000000000000000000000003648d80ff0a000000000000000000000000000000000000000000000000000000000000002000000000000000000000000000000000000000000000000000000000000003120011625bea35264a0df5c89e89a849cc47f83059b300000000000000000000000000000000000000000000000000000000000000000000000000000000000000000000000000000000000000000000000000000164b0898691000000000000000000000000a65a2853fe883df11c4ba1fcdfed99b7b00f0b78000000000000000000000000833589fcd6edb6e08f4c7c32d4f71b54bda029130000000000000000000000002722bbaac5b16a06cba4591a392a70e5a9274947000000000000000000000000000000000000000000000000000000000000000000000000000000000000000000000000000000000000000000000000000000000000000000000000000000000000000000000000000000000000000000000000000000000000000000000000000000000000000000000a968163f0a57b40000000000000000000000000000081a313ff894bfc6093d33b5514e34d7faa41b7ef0000000000000000000000000000000000000000000000000000000000015180000000000000000000000000000000000000000000000000000000000000000100000000000000000000000000000000000000000000d3c21bcecceda1000000004740ad3e0052d3e792b3db3368317402bab90f8700000000000000000000000000000000000000000000000000000000000000000000000000000000000000000000000000000000000000000000000000000104a9b5aab3e5d5c4df8b33337e9163fb01f3fd1c1cb3f8182a54ff181a94f9d3ebfc4f2abf000000000000000000000000a65a2853fe883df11c4ba1fcdfed99b7b00f0b78000000000000000000000000000000000000000000000000000000000000012c000000000000000000000000000000000000000000000000000000000001518000000000000000000000000000000000000000000000000000000000000186a000000000000000000000000000000000000000000000000000000000000f42400000000000000000000000000000000000000000000000000000000000000000000000000000000000000000000000000000000000000000000000000000000300000000000000000000000000000000000000000000000000000000000000000000000000000000000000000000000000000000000000000000000000000000000000000000000000413c7f5f5eb9e44eb5e0aede3a451a1e95ec9766a7acf8d80d8c16873b2572a3e51c3881df97df72baead9b11bfc1279274cbcfa6f794c87d945828952334a8a891b00000000000000000000000000000000000000000000000000000000000000",
        "nonce": "0xd",
        "chainId": "0x2105"
      },
      "additionalContracts": [],
      "isFixedGasLimit": false
    }
  ],
  "receipts": [
    {
      "status": "0x1",
      "cumulativeGasUsed": "0x82c65",
      "logs": [
        {
          "address": "0x32cb58b145d3f7e28c45ce4b2cc31fa94248b23f",
          "topics": [
            "0x66753cd2356569ee081232e3be8909b950e0a76c1f8460c3a5e3c2be32b11bed"
          ],
          "data": "0x00000000000000000000000040a2accbd92bca938b02010e17a5b8929b49130d000000000000000000000000000000000000000000000000000000000000000000000000000000000000000000000000000000000000000000000000000001600000000000000000000000000000000000000000000000000000000000000001000000000000000000000000000000000000000000000000000000000000000000000000000000000000000000000000000000000000000000000000000000000000000000000000000000000000000000000000000000000000000000000000000000000000000000000000000000000000000000000000000000000000000000000000000000000000000000000000000000000000000000000000000000000000000000000000000000000000000000000000000000000000000000000500000000000000000000000000000000000000000000000000000000000000058000000000000000000000000000000000000000000000000000000000000003648d80ff0a000000000000000000000000000000000000000000000000000000000000002000000000000000000000000000000000000000000000000000000000000003120011625bea35264a0df5c89e89a849cc47f83059b300000000000000000000000000000000000000000000000000000000000000000000000000000000000000000000000000000000000000000000000000000164b0898691000000000000000000000000a65a2853fe883df11c4ba1fcdfed99b7b00f0b78000000000000000000000000833589fcd6edb6e08f4c7c32d4f71b54bda029130000000000000000000000002722bbaac5b16a06cba4591a392a70e5a9274947000000000000000000000000000000000000000000000000000000000000000000000000000000000000000000000000000000000000000000000000000000000000000000000000000000000000000000000000000000000000000000000000000000000000000000000000000000000000000000000a968163f0a57b40000000000000000000000000000081a313ff894bfc6093d33b5514e34d7faa41b7ef0000000000000000000000000000000000000000000000000000000000015180000000000000000000000000000000000000000000000000000000000000000100000000000000000000000000000000000000000000d3c21bcecceda1000000004740ad3e0052d3e792b3db3368317402bab90f8700000000000000000000000000000000000000000000000000000000000000000000000000000000000000000000000000000000000000000000000000000104a9b5aab3e5d5c4df8b33337e9163fb01f3fd1c1cb3f8182a54ff181a94f9d3ebfc4f2abf000000000000000000000000a65a2853fe883df11c4ba1fcdfed99b7b00f0b78000000000000000000000000000000000000000000000000000000000000012c000000000000000000000000000000000000000000000000000000000001518000000000000000000000000000000000000000000000000000000000000186a000000000000000000000000000000000000000000000000000000000000f42400000000000000000000000000000000000000000000000000000000000000000000000000000000000000000000000000000000000000000000000000000000300000000000000000000000000000000000000000000000000000000000000000000000000000000000000000000000000000000000000000000000000000000000000000000000000413c7f5f5eb9e44eb5e0aede3a451a1e95ec9766a7acf8d80d8c16873b2572a3e51c3881df97df72baead9b11bfc1279274cbcfa6f794c87d945828952334a8a891b000000000000000000000000000000000000000000000000000000000000000000000000000000000000000000000000000000000000000000000000000060000000000000000000000000000000000000000000000000000000000000000b00000000000000000000000056fd3f2bee130e9867942d0f463a16fbe49b8d810000000000000000000000000000000000000000000000000000000000000001",
          "blockHash": "0xce4071394f3ccc6e77fc2c7c32efdbfdd09115386ad0bdab2dbd1af3cc409991",
          "blockNumber": "0x20a30e5",
          "transactionHash": "0xf2c391701937a01cd9748d5431928c22fed6da73e48f058dc898124001380e8b",
          "transactionIndex": "0x0",
          "logIndex": "0x0",
          "removed": false
        },
        {
          "address": "0x11625bea35264a0df5c89e89a849cc47f83059b3",
          "topics": [
            "0xb374789237d43aed0f75b4c50a45793fd70e354bb96eecd573f35f5d509d78a1",
            "0xe5d5c4df8b33337e9163fb01f3fd1c1cb3f8182a54ff181a94f9d3ebfc4f2abf",
            "0x000000000000000000000000a65a2853fe883df11c4ba1fcdfed99b7b00f0b78",
            "0x000000000000000000000000833589fcd6edb6e08f4c7c32d4f71b54bda02913"
          ],
          "data": "0x0000000000000000000000002722bbaac5b16a06cba4591a392a70e5a9274947",
          "blockHash": "0xce4071394f3ccc6e77fc2c7c32efdbfdd09115386ad0bdab2dbd1af3cc409991",
          "blockNumber": "0x20a30e5",
          "transactionHash": "0xf2c391701937a01cd9748d5431928c22fed6da73e48f058dc898124001380e8b",
          "transactionIndex": "0x0",
          "logIndex": "0x1",
          "removed": false
        },
        {
          "address": "0x4740ad3e0052d3e792b3db3368317402bab90f87",
          "topics": [
            "0x1a082a1efaf1549c18917ddcb1f759680c29371609e24f4b946e93acf4ce5ad2"
          ],
          "data": "0xe5d5c4df8b33337e9163fb01f3fd1c1cb3f8182a54ff181a94f9d3ebfc4f2abf000000000000000000000000a65a2853fe883df11c4ba1fcdfed99b7b00f0b78000000000000000000000000000000000000000000000000000000000000012c000000000000000000000000000000000000000000000000000000000001518000000000000000000000000000000000000000000000000000000000000186a000000000000000000000000000000000000000000000000000000000000f424000000000000000000000000000000000000000000000000000000000000000000000000000000000000000000000000000000000000000000000000000000003",
          "blockHash": "0xce4071394f3ccc6e77fc2c7c32efdbfdd09115386ad0bdab2dbd1af3cc409991",
          "blockNumber": "0x20a30e5",
          "transactionHash": "0xf2c391701937a01cd9748d5431928c22fed6da73e48f058dc898124001380e8b",
          "transactionIndex": "0x0",
          "logIndex": "0x2",
          "removed": false
        },
        {
          "address": "0x32cb58b145d3f7e28c45ce4b2cc31fa94248b23f",
          "topics": [
            "0x442e715f626346e8c54381002da614f62bee8d27386535b2521ec8540898556e",
            "0x6e10a10c398d9b9e6191786e01e1422661680b3a4904600cbc7ac755c5819269"
          ],
          "data": "0x0000000000000000000000000000000000000000000000000000000000000000",
          "blockHash": "0xce4071394f3ccc6e77fc2c7c32efdbfdd09115386ad0bdab2dbd1af3cc409991",
          "blockNumber": "0x20a30e5",
          "transactionHash": "0xf2c391701937a01cd9748d5431928c22fed6da73e48f058dc898124001380e8b",
          "transactionIndex": "0x0",
          "logIndex": "0x3",
          "removed": false
        }
      ],
      "logsBloom": "0x00000000400000000000000000000000000000000000004000000000040040000100000000000000000000000000000000800000000000000000020000000000000000000000040000000000100000000000040000000000000000000000000200000000000000000000000000000000010000000000000001000000000002000000000000000000400000000000000000000000000000000000000000000000000000000400000000000000000004000008000008000000000000000000000000800000000000000000000000020000000000000000000000000040000000420000000000000000010000000000040000000008000010808090080000000000",
      "type": "0x2",
      "transactionHash": "0xf2c391701937a01cd9748d5431928c22fed6da73e48f058dc898124001380e8b",
      "transactionIndex": "0x0",
      "blockHash": "0xce4071394f3ccc6e77fc2c7c32efdbfdd09115386ad0bdab2dbd1af3cc409991",
      "blockNumber": "0x20a30e5",
      "gasUsed": "0x82c65",
      "effectiveGasPrice": "0xf4241",
      "blobGasUsed": "0x0",
      "from": "0x56fd3f2bee130e9867942d0f463a16fbe49b8d81",
      "to": "0x32cb58b145d3f7e28c45ce4b2cc31fa94248b23f",
      "contractAddress": null
    }
  ],
  "libraries": [
    "lib/mento-core/node_modules/@celo/contracts/common/linkedlists/AddressSortedLinkedListWithMedian.sol:AddressSortedLinkedListWithMedian:0x4A3c2363729321997D943faA4291460fC08c8D56"
  ],
  "pending": [],
  "returns": {},
  "timestamp": 1755234381,
  "chain": 8453,
  "commit": "604343a"
}