{
  "transactions": [
    {
      "hash": "0xade03f7ce483d43baa45d63917832e3d92fefe8b4d62e9d10bce712fe92b6ea9",
      "transactionType": "CALL",
      "contractName": null,
      "contractAddress": "0x32cb58b145d3f7e28c45ce4b2cc31fa94248b23f",
      "function": "execTransaction(address,uint256,bytes,uint8,uint256,uint256,uint256,address,address,bytes)",
      "arguments": [
        "0x40A2aCCbd92BCA938b02010E17A5b8929b49130D",
        "0",
        "0x8d80ff0a000000000000000000000000000000000000000000000000000000000000002000000000000000000000000000000000000000000000000000000000000006240011625bea35264a0df5c89e89a849cc47f83059b300000000000000000000000000000000000000000000000000000000000000000000000000000000000000000000000000000000000000000000000000000164b0898691000000000000000000000000c59d19ff6ff11d7a4725d5125af8ea11f73ad5e10000000000000000000000006089e544bbd880529947c7a39865548815cf41f00000000000000000000000002722bbaac5b16a06cba4591a392a70e5a927494700000000000000000000000000000000000000000000000000000000000000000000000000000000000000000000000000000000000000000000000000000000000000000000000000000000000000000000000000000000000000000000000000000000000000000000000000000000000000000000001b1ae4d6e2ef50000000000000000000000000000081a313ff894bfc6093d33b5514e34d7faa41b7ef000000000000000000000000000000000000000000000000000000000000012c000000000000000000000000000000000000000000000000000000000000000100000000000000000000000000000000000000000009ed194db19b238c000000004740ad3e0052d3e792b3db3368317402bab90f8700000000000000000000000000000000000000000000000000000000000000000000000000000000000000000000000000000000000000000000000000000104a9b5aab33de090ec85aede9f99732eacb5852d5b6915e4436177cfc2777958c3301f6f3d000000000000000000000000c59d19ff6ff11d7a4725d5125af8ea11f73ad5e1000000000000000000000000000000000000000000000000000000000000012c000000000000000000000000000000000000000000000000000000000001518000000000000000000000000000000000000000000000000000000000000186a000000000000000000000000000000000000000000000000000000000000f4240000000000000000000000000000000000000000000000000000000000000000000000000000000000000000000000000000000000000000000000000000000030011625bea35264a0df5c89e89a849cc47f83059b300000000000000000000000000000000000000000000000000000000000000000000000000000000000000000000000000000000000000000000000000000164b0898691000000000000000000000000c59d19ff6ff11d7a4725d5125af8ea11f73ad5e1000000000000000000000000c312f0fc984934571ae873639fbfc9f469e956130000000000000000000000002722bbaac5b16a06cba4591a392a70e5a927494700000000000000000000000000000000000000000000000000000000000000000000000000000000000000000000000000000000000000000000000000000000000000000000000000000000000000000000000000000000000000000000000000000000000000000000000000000000000000000000001b1ae4d6e2ef50000000000000000000000000000081a313ff894bfc6093d33b5514e34d7faa41b7ef000000000000000000000000000000000000000000000000000000000002a300000000000000000000000000000000000000000000000000000000000000000100000000000000000000000000000000000000000000d3c21bcecceda1000000004740ad3e0052d3e792b3db3368317402bab90f8700000000000000000000000000000000000000000000000000000000000000000000000000000000000000000000000000000000000000000000000000000104a9b5aab3cbab05eac17cd1c677ad80ae2668b5397956b9e253e496fc14c38dfaec49cf44000000000000000000000000c59d19ff6ff11d7a4725d5125af8ea11f73ad5e1000000000000000000000000000000000000000000000000000000000000012c000000000000000000000000000000000000000000000000000000000001518000000000000000000000000000000000000000000000000000000000000186a000000000000000000000000000000000000000000000000000000000000f42400000000000000000000000000000000000000000000000000000000000000000000000000000000000000000000000000000000000000000000000000000000300000000000000000000000000000000000000000000000000000000",
        "1",
        "0",
        "0",
        "0",
        "0x0000000000000000000000000000000000000000",
        "0x0000000000000000000000000000000000000000",
        "0xdbcde53a15298b424cddb1ea23012170816783d99bbc4bd53d306646868b26ba6066e8583426812d1af3ce80a28301bbb20fb0f10c0ff755acda5a68b4a722c81c"
      ],
      "transaction": {
        "from": "0x56fd3f2bee130e9867942d0f463a16fbe49b8d81",
        "to": "0x32cb58b145d3f7e28c45ce4b2cc31fa94248b23f",
        "gas": "0x12a0b8",
        "value": "0x0",
        "input": "0x6a76120200000000000000000000000040a2accbd92bca938b02010e17a5b8929b49130d00000000000000000000000000000000000000000000000000000000000000000000000000000000000000000000000000000000000000000000000000000140000000000000000000000000000000000000000000000000000000000000000100000000000000000000000000000000000000000000000000000000000000000000000000000000000000000000000000000000000000000000000000000000000000000000000000000000000000000000000000000000000000000000000000000000000000000000000000000000000000000000000000000000000000000000000000000000000000000000000000000000000000000000000000000000000000000000000000000000000000000000000000000000000000000000080000000000000000000000000000000000000000000000000000000000000006848d80ff0a000000000000000000000000000000000000000000000000000000000000002000000000000000000000000000000000000000000000000000000000000006240011625bea35264a0df5c89e89a849cc47f83059b300000000000000000000000000000000000000000000000000000000000000000000000000000000000000000000000000000000000000000000000000000164b0898691000000000000000000000000c59d19ff6ff11d7a4725d5125af8ea11f73ad5e10000000000000000000000006089e544bbd880529947c7a39865548815cf41f00000000000000000000000002722bbaac5b16a06cba4591a392a70e5a927494700000000000000000000000000000000000000000000000000000000000000000000000000000000000000000000000000000000000000000000000000000000000000000000000000000000000000000000000000000000000000000000000000000000000000000000000000000000000000000000001b1ae4d6e2ef50000000000000000000000000000081a313ff894bfc6093d33b5514e34d7faa41b7ef000000000000000000000000000000000000000000000000000000000000012c000000000000000000000000000000000000000000000000000000000000000100000000000000000000000000000000000000000009ed194db19b238c000000004740ad3e0052d3e792b3db3368317402bab90f8700000000000000000000000000000000000000000000000000000000000000000000000000000000000000000000000000000000000000000000000000000104a9b5aab33de090ec85aede9f99732eacb5852d5b6915e4436177cfc2777958c3301f6f3d000000000000000000000000c59d19ff6ff11d7a4725d5125af8ea11f73ad5e1000000000000000000000000000000000000000000000000000000000000012c000000000000000000000000000000000000000000000000000000000001518000000000000000000000000000000000000000000000000000000000000186a000000000000000000000000000000000000000000000000000000000000f4240000000000000000000000000000000000000000000000000000000000000000000000000000000000000000000000000000000000000000000000000000000030011625bea35264a0df5c89e89a849cc47f83059b300000000000000000000000000000000000000000000000000000000000000000000000000000000000000000000000000000000000000000000000000000164b0898691000000000000000000000000c59d19ff6ff11d7a4725d5125af8ea11f73ad5e1000000000000000000000000c312f0fc984934571ae873639fbfc9f469e956130000000000000000000000002722bbaac5b16a06cba4591a392a70e5a927494700000000000000000000000000000000000000000000000000000000000000000000000000000000000000000000000000000000000000000000000000000000000000000000000000000000000000000000000000000000000000000000000000000000000000000000000000000000000000000000001b1ae4d6e2ef50000000000000000000000000000081a313ff894bfc6093d33b5514e34d7faa41b7ef000000000000000000000000000000000000000000000000000000000002a300000000000000000000000000000000000000000000000000000000000000000100000000000000000000000000000000000000000000d3c21bcecceda1000000004740ad3e0052d3e792b3db3368317402bab90f8700000000000000000000000000000000000000000000000000000000000000000000000000000000000000000000000000000000000000000000000000000104a9b5aab3cbab05eac17cd1c677ad80ae2668b5397956b9e253e496fc14c38dfaec49cf44000000000000000000000000c59d19ff6ff11d7a4725d5125af8ea11f73ad5e1000000000000000000000000000000000000000000000000000000000000012c000000000000000000000000000000000000000000000000000000000001518000000000000000000000000000000000000000000000000000000000000186a000000000000000000000000000000000000000000000000000000000000f42400000000000000000000000000000000000000000000000000000000000000000000000000000000000000000000000000000000000000000000000000000000300000000000000000000000000000000000000000000000000000000000000000000000000000000000000000000000000000000000000000000000000000000000000000000000000000000000000000000000000000041dbcde53a15298b424cddb1ea23012170816783d99bbc4bd53d306646868b26ba6066e8583426812d1af3ce80a28301bbb20fb0f10c0ff755acda5a68b4a722c81c00000000000000000000000000000000000000000000000000000000000000",
        "nonce": "0x10",
        "chainId": "0x2105"
      },
      "additionalContracts": [],
      "isFixedGasLimit": false
    }
  ],
  "receipts": [
    {
      "status": "0x1",
      "cumulativeGasUsed": "0xd7c78",
      "logs": [
        {
          "address": "0x32cb58b145d3f7e28c45ce4b2cc31fa94248b23f",
          "topics": [
            "0x66753cd2356569ee081232e3be8909b950e0a76c1f8460c3a5e3c2be32b11bed"
          ],
          "data": "0x00000000000000000000000040a2accbd92bca938b02010e17a5b8929b49130d00000000000000000000000000000000000000000000000000000000000000000000000000000000000000000000000000000000000000000000000000000160000000000000000000000000000000000000000000000000000000000000000100000000000000000000000000000000000000000000000000000000000000000000000000000000000000000000000000000000000000000000000000000000000000000000000000000000000000000000000000000000000000000000000000000000000000000000000000000000000000000000000000000000000000000000000000000000000000000000000000000000000000000000000000000000000000000000000000000000000000000000000000000000000000000000082000000000000000000000000000000000000000000000000000000000000008a000000000000000000000000000000000000000000000000000000000000006848d80ff0a000000000000000000000000000000000000000000000000000000000000002000000000000000000000000000000000000000000000000000000000000006240011625bea35264a0df5c89e89a849cc47f83059b300000000000000000000000000000000000000000000000000000000000000000000000000000000000000000000000000000000000000000000000000000164b0898691000000000000000000000000c59d19ff6ff11d7a4725d5125af8ea11f73ad5e10000000000000000000000006089e544bbd880529947c7a39865548815cf41f00000000000000000000000002722bbaac5b16a06cba4591a392a70e5a927494700000000000000000000000000000000000000000000000000000000000000000000000000000000000000000000000000000000000000000000000000000000000000000000000000000000000000000000000000000000000000000000000000000000000000000000000000000000000000000000001b1ae4d6e2ef50000000000000000000000000000081a313ff894bfc6093d33b5514e34d7faa41b7ef000000000000000000000000000000000000000000000000000000000000012c000000000000000000000000000000000000000000000000000000000000000100000000000000000000000000000000000000000009ed194db19b238c000000004740ad3e0052d3e792b3db3368317402bab90f8700000000000000000000000000000000000000000000000000000000000000000000000000000000000000000000000000000000000000000000000000000104a9b5aab33de090ec85aede9f99732eacb5852d5b6915e4436177cfc2777958c3301f6f3d000000000000000000000000c59d19ff6ff11d7a4725d5125af8ea11f73ad5e1000000000000000000000000000000000000000000000000000000000000012c000000000000000000000000000000000000000000000000000000000001518000000000000000000000000000000000000000000000000000000000000186a000000000000000000000000000000000000000000000000000000000000f4240000000000000000000000000000000000000000000000000000000000000000000000000000000000000000000000000000000000000000000000000000000030011625bea35264a0df5c89e89a849cc47f83059b300000000000000000000000000000000000000000000000000000000000000000000000000000000000000000000000000000000000000000000000000000164b0898691000000000000000000000000c59d19ff6ff11d7a4725d5125af8ea11f73ad5e1000000000000000000000000c312f0fc984934571ae873639fbfc9f469e956130000000000000000000000002722bbaac5b16a06cba4591a392a70e5a927494700000000000000000000000000000000000000000000000000000000000000000000000000000000000000000000000000000000000000000000000000000000000000000000000000000000000000000000000000000000000000000000000000000000000000000000000000000000000000000000001b1ae4d6e2ef50000000000000000000000000000081a313ff894bfc6093d33b5514e34d7faa41b7ef000000000000000000000000000000000000000000000000000000000002a300000000000000000000000000000000000000000000000000000000000000000100000000000000000000000000000000000000000000d3c21bcecceda1000000004740ad3e0052d3e792b3db3368317402bab90f8700000000000000000000000000000000000000000000000000000000000000000000000000000000000000000000000000000000000000000000000000000104a9b5aab3cbab05eac17cd1c677ad80ae2668b5397956b9e253e496fc14c38dfaec49cf44000000000000000000000000c59d19ff6ff11d7a4725d5125af8ea11f73ad5e1000000000000000000000000000000000000000000000000000000000000012c000000000000000000000000000000000000000000000000000000000001518000000000000000000000000000000000000000000000000000000000000186a000000000000000000000000000000000000000000000000000000000000f42400000000000000000000000000000000000000000000000000000000000000000000000000000000000000000000000000000000000000000000000000000000300000000000000000000000000000000000000000000000000000000000000000000000000000000000000000000000000000000000000000000000000000000000000000000000000000000000000000000000000000041dbcde53a15298b424cddb1ea23012170816783d99bbc4bd53d306646868b26ba6066e8583426812d1af3ce80a28301bbb20fb0f10c0ff755acda5a68b4a722c81c000000000000000000000000000000000000000000000000000000000000000000000000000000000000000000000000000000000000000000000000000060000000000000000000000000000000000000000000000000000000000000000f00000000000000000000000056fd3f2bee130e9867942d0f463a16fbe49b8d810000000000000000000000000000000000000000000000000000000000000001",
          "blockHash": "0x871a8ca17730a41b437f58573973ef2c43e9acb82d9bdf1133275839d5d80416",
          "blockNumber": "0x215a3b3",
          "transactionHash": "0xade03f7ce483d43baa45d63917832e3d92fefe8b4d62e9d10bce712fe92b6ea9",
          "transactionIndex": "0x0",
          "logIndex": "0x0",
          "removed": false
        },
        {
          "address": "0x11625bea35264a0df5c89e89a849cc47f83059b3",
          "topics": [
            "0xb374789237d43aed0f75b4c50a45793fd70e354bb96eecd573f35f5d509d78a1",
            "0x3de090ec85aede9f99732eacb5852d5b6915e4436177cfc2777958c3301f6f3d",
            "0x000000000000000000000000c59d19ff6ff11d7a4725d5125af8ea11f73ad5e1",
            "0x0000000000000000000000006089e544bbd880529947c7a39865548815cf41f0"
          ],
          "data": "0x0000000000000000000000002722bbaac5b16a06cba4591a392a70e5a9274947",
          "blockHash": "0x871a8ca17730a41b437f58573973ef2c43e9acb82d9bdf1133275839d5d80416",
          "blockNumber": "0x215a3b3",
          "transactionHash": "0xade03f7ce483d43baa45d63917832e3d92fefe8b4d62e9d10bce712fe92b6ea9",
          "transactionIndex": "0x0",
          "logIndex": "0x1",
          "removed": false
        },
        {
          "address": "0x4740ad3e0052d3e792b3db3368317402bab90f87",
          "topics": [
            "0x1a082a1efaf1549c18917ddcb1f759680c29371609e24f4b946e93acf4ce5ad2"
          ],
          "data": "0x3de090ec85aede9f99732eacb5852d5b6915e4436177cfc2777958c3301f6f3d000000000000000000000000c59d19ff6ff11d7a4725d5125af8ea11f73ad5e1000000000000000000000000000000000000000000000000000000000000012c000000000000000000000000000000000000000000000000000000000001518000000000000000000000000000000000000000000000000000000000000186a000000000000000000000000000000000000000000000000000000000000f424000000000000000000000000000000000000000000000000000000000000000000000000000000000000000000000000000000000000000000000000000000003",
          "blockHash": "0x871a8ca17730a41b437f58573973ef2c43e9acb82d9bdf1133275839d5d80416",
          "blockNumber": "0x215a3b3",
          "transactionHash": "0xade03f7ce483d43baa45d63917832e3d92fefe8b4d62e9d10bce712fe92b6ea9",
          "transactionIndex": "0x0",
          "logIndex": "0x2",
          "removed": false
        },
        {
          "address": "0x11625bea35264a0df5c89e89a849cc47f83059b3",
          "topics": [
            "0xb374789237d43aed0f75b4c50a45793fd70e354bb96eecd573f35f5d509d78a1",
            "0xcbab05eac17cd1c677ad80ae2668b5397956b9e253e496fc14c38dfaec49cf44",
            "0x000000000000000000000000c59d19ff6ff11d7a4725d5125af8ea11f73ad5e1",
            "0x000000000000000000000000c312f0fc984934571ae873639fbfc9f469e95613"
          ],
          "data": "0x0000000000000000000000002722bbaac5b16a06cba4591a392a70e5a9274947",
          "blockHash": "0x871a8ca17730a41b437f58573973ef2c43e9acb82d9bdf1133275839d5d80416",
          "blockNumber": "0x215a3b3",
          "transactionHash": "0xade03f7ce483d43baa45d63917832e3d92fefe8b4d62e9d10bce712fe92b6ea9",
          "transactionIndex": "0x0",
          "logIndex": "0x3",
          "removed": false
        },
        {
          "address": "0x4740ad3e0052d3e792b3db3368317402bab90f87",
          "topics": [
            "0x1a082a1efaf1549c18917ddcb1f759680c29371609e24f4b946e93acf4ce5ad2"
          ],
          "data": "0xcbab05eac17cd1c677ad80ae2668b5397956b9e253e496fc14c38dfaec49cf44000000000000000000000000c59d19ff6ff11d7a4725d5125af8ea11f73ad5e1000000000000000000000000000000000000000000000000000000000000012c000000000000000000000000000000000000000000000000000000000001518000000000000000000000000000000000000000000000000000000000000186a000000000000000000000000000000000000000000000000000000000000f424000000000000000000000000000000000000000000000000000000000000000000000000000000000000000000000000000000000000000000000000000000003",
          "blockHash": "0x871a8ca17730a41b437f58573973ef2c43e9acb82d9bdf1133275839d5d80416",
          "blockNumber": "0x215a3b3",
          "transactionHash": "0xade03f7ce483d43baa45d63917832e3d92fefe8b4d62e9d10bce712fe92b6ea9",
          "transactionIndex": "0x0",
          "logIndex": "0x4",
          "removed": false
        },
        {
          "address": "0x32cb58b145d3f7e28c45ce4b2cc31fa94248b23f",
          "topics": [
            "0x442e715f626346e8c54381002da614f62bee8d27386535b2521ec8540898556e",
            "0x1deb3802ec93874632f22902ac387e8347a449194efe26b410c52c2136a4dcb8"
          ],
          "data": "0x0000000000000000000000000000000000000000000000000000000000000000",
          "blockHash": "0x871a8ca17730a41b437f58573973ef2c43e9acb82d9bdf1133275839d5d80416",
          "blockNumber": "0x215a3b3",
          "transactionHash": "0xade03f7ce483d43baa45d63917832e3d92fefe8b4d62e9d10bce712fe92b6ea9",
          "transactionIndex": "0x0",
          "logIndex": "0x5",
          "removed": false
        }
      ],
      "logsBloom": "0x00080002400000000000000000000000000000000000004000000000040040000000000000000010000000000000000000800000000000000000020000000000000000000000000000000000100000020002040000000000000002000000020200000000000000000000000000000090000000000000000000000000000000200000000020000000000000000001000000000000000000000000000000000000000000000402000000000000000004000008000008000000000000000000000044000000000000000000008000020000000000000000000000000000000000000000000000000000014001000000040000000008000010008090000000000000",
      "type": "0x2",
      "transactionHash": "0xade03f7ce483d43baa45d63917832e3d92fefe8b4d62e9d10bce712fe92b6ea9",
      "transactionIndex": "0x0",
      "blockHash": "0x871a8ca17730a41b437f58573973ef2c43e9acb82d9bdf1133275839d5d80416",
      "blockNumber": "0x215a3b3",
      "gasUsed": "0xd7c78",
      "effectiveGasPrice": "0x553e9",
      "blobGasUsed": "0x0",
      "from": "0x56fd3f2bee130e9867942d0f463a16fbe49b8d81",
      "to": "0x32cb58b145d3f7e28c45ce4b2cc31fa94248b23f",
      "contractAddress": null
    }
  ],
  "libraries": [
    "node_modules/@celo/contracts/common/linkedlists/AddressSortedLinkedListWithMedian.sol:AddressSortedLinkedListWithMedian:0x498FB531985aD936f1A98813F92625084a67d02F"
  ],
  "pending": [],
  "returns": {},
  "timestamp": 1756802368171,
  "chain": 8453,
  "commit": "eb7c3cd"
}