{
  "transactions": [
    {
      "hash": "0xed250ff5814dfab75ddb505ad50895629c1be6bcb5b21d397e150108815e4de1",
      "transactionType": "CALL",
      "contractName": null,
      "contractAddress": "0x32cb58b145d3f7e28c45ce4b2cc31fa94248b23f",
      "function": "execTransaction(address,uint256,bytes,uint8,uint256,uint256,uint256,address,address,bytes)",
      "arguments": [
        "0x40A2aCCbd92BCA938b02010E17A5b8929b49130D",
        "0",
        "0x8d80ff0a000000000000000000000000000000000000000000000000000000000000002000000000000000000000000000000000000000000000000000000000000003120011625bea35264a0df5c89e89a849cc47f83059b300000000000000000000000000000000000000000000000000000000000000000000000000000000000000000000000000000000000000000000000000000164b0898691000000000000000000000000c59d19ff6ff11d7a4725d5125af8ea11f73ad5e10000000000000000000000006089e544bbd880529947c7a39865548815cf41f00000000000000000000000002722bbaac5b16a06cba4591a392a70e5a927494700000000000000000000000000000000000000000000000000000000000000000000000000000000000000000000000000000000000000000000000000000000000000000000000000000000000000000000000000000000000000000000000000000000000000000000000000000000000000000000001b1ae4d6e2ef500000000000000000000000000000a1a8003936862e7a15092a91898d69fa8bce290c000000000000000000000000000000000000000000000000000000000002a300000000000000000000000000000000000000000000000000000000000000000100000000000000000000000000000000000000000000d3c21bcecceda1000000004740ad3e0052d3e792b3db3368317402bab90f8700000000000000000000000000000000000000000000000000000000000000000000000000000000000000000000000000000000000000000000000000000104a9b5aab33de090ec85aede9f99732eacb5852d5b6915e4436177cfc2777958c3301f6f3d000000000000000000000000c59d19ff6ff11d7a4725d5125af8ea11f73ad5e1000000000000000000000000000000000000000000000000000000000000012c000000000000000000000000000000000000000000000000000000000001518000000000000000000000000000000000000000000000000000000000000186a000000000000000000000000000000000000000000000000000000000000f4240000000000000000000000000000000000000000000000000000000000000000000000000000000000000000000000000000000000000000000000000000000030000000000000000000000000000",
        "1",
        "0",
        "0",
        "0",
        "0x0000000000000000000000000000000000000000",
        "0x0000000000000000000000000000000000000000",
        "0x3c20d613bf2988025796c28d6321b764a8e44c68d4c70d4c7f907a86f1d8dc3120f01314675d696bf1d9c577507eb62cf7e520d5985ae5a99bf572f145f3f7b61b"
      ],
      "transaction": {
        "from": "0x56fd3f2bee130e9867942d0f463a16fbe49b8d81",
        "to": "0x32cb58b145d3f7e28c45ce4b2cc31fa94248b23f",
        "gas": "0xb13bc",
        "value": "0x0",
        "input": "0x6a76120200000000000000000000000040a2accbd92bca938b02010e17a5b8929b49130d0000000000000000000000000000000000000000000000000000000000000000000000000000000000000000000000000000000000000000000000000000014000000000000000000000000000000000000000000000000000000000000000010000000000000000000000000000000000000000000000000000000000000000000000000000000000000000000000000000000000000000000000000000000000000000000000000000000000000000000000000000000000000000000000000000000000000000000000000000000000000000000000000000000000000000000000000000000000000000000000000000000000000000000000000000000000000000000000000000000000000000000000000000000000000000000004e000000000000000000000000000000000000000000000000000000000000003648d80ff0a000000000000000000000000000000000000000000000000000000000000002000000000000000000000000000000000000000000000000000000000000003120011625bea35264a0df5c89e89a849cc47f83059b300000000000000000000000000000000000000000000000000000000000000000000000000000000000000000000000000000000000000000000000000000164b0898691000000000000000000000000c59d19ff6ff11d7a4725d5125af8ea11f73ad5e10000000000000000000000006089e544bbd880529947c7a39865548815cf41f00000000000000000000000002722bbaac5b16a06cba4591a392a70e5a927494700000000000000000000000000000000000000000000000000000000000000000000000000000000000000000000000000000000000000000000000000000000000000000000000000000000000000000000000000000000000000000000000000000000000000000000000000000000000000000000001b1ae4d6e2ef500000000000000000000000000000a1a8003936862e7a15092a91898d69fa8bce290c000000000000000000000000000000000000000000000000000000000002a300000000000000000000000000000000000000000000000000000000000000000100000000000000000000000000000000000000000000d3c21bcecceda1000000004740ad3e0052d3e792b3db3368317402bab90f8700000000000000000000000000000000000000000000000000000000000000000000000000000000000000000000000000000000000000000000000000000104a9b5aab33de090ec85aede9f99732eacb5852d5b6915e4436177cfc2777958c3301f6f3d000000000000000000000000c59d19ff6ff11d7a4725d5125af8ea11f73ad5e1000000000000000000000000000000000000000000000000000000000000012c000000000000000000000000000000000000000000000000000000000001518000000000000000000000000000000000000000000000000000000000000186a000000000000000000000000000000000000000000000000000000000000f42400000000000000000000000000000000000000000000000000000000000000000000000000000000000000000000000000000000000000000000000000000000300000000000000000000000000000000000000000000000000000000000000000000000000000000000000000000000000000000000000000000000000000000000000000000000000413c20d613bf2988025796c28d6321b764a8e44c68d4c70d4c7f907a86f1d8dc3120f01314675d696bf1d9c577507eb62cf7e520d5985ae5a99bf572f145f3f7b61b00000000000000000000000000000000000000000000000000000000000000",
        "nonce": "0xf",
        "chainId": "0x2105"
      },
      "additionalContracts": [],
      "isFixedGasLimit": false
    }
  ],
  "receipts": [
    {
      "status": "0x1",
      "cumulativeGasUsed": "0x80506",
      "logs": [
        {
          "address": "0x32cb58b145d3f7e28c45ce4b2cc31fa94248b23f",
          "topics": [
            "0x66753cd2356569ee081232e3be8909b950e0a76c1f8460c3a5e3c2be32b11bed"
          ],
          "data": "0x00000000000000000000000040a2accbd92bca938b02010e17a5b8929b49130d000000000000000000000000000000000000000000000000000000000000000000000000000000000000000000000000000000000000000000000000000001600000000000000000000000000000000000000000000000000000000000000001000000000000000000000000000000000000000000000000000000000000000000000000000000000000000000000000000000000000000000000000000000000000000000000000000000000000000000000000000000000000000000000000000000000000000000000000000000000000000000000000000000000000000000000000000000000000000000000000000000000000000000000000000000000000000000000000000000000000000000000000000000000000000000000500000000000000000000000000000000000000000000000000000000000000058000000000000000000000000000000000000000000000000000000000000003648d80ff0a000000000000000000000000000000000000000000000000000000000000002000000000000000000000000000000000000000000000000000000000000003120011625bea35264a0df5c89e89a849cc47f83059b300000000000000000000000000000000000000000000000000000000000000000000000000000000000000000000000000000000000000000000000000000164b0898691000000000000000000000000c59d19ff6ff11d7a4725d5125af8ea11f73ad5e10000000000000000000000006089e544bbd880529947c7a39865548815cf41f00000000000000000000000002722bbaac5b16a06cba4591a392a70e5a927494700000000000000000000000000000000000000000000000000000000000000000000000000000000000000000000000000000000000000000000000000000000000000000000000000000000000000000000000000000000000000000000000000000000000000000000000000000000000000000000001b1ae4d6e2ef500000000000000000000000000000a1a8003936862e7a15092a91898d69fa8bce290c000000000000000000000000000000000000000000000000000000000002a300000000000000000000000000000000000000000000000000000000000000000100000000000000000000000000000000000000000000d3c21bcecceda1000000004740ad3e0052d3e792b3db3368317402bab90f8700000000000000000000000000000000000000000000000000000000000000000000000000000000000000000000000000000000000000000000000000000104a9b5aab33de090ec85aede9f99732eacb5852d5b6915e4436177cfc2777958c3301f6f3d000000000000000000000000c59d19ff6ff11d7a4725d5125af8ea11f73ad5e1000000000000000000000000000000000000000000000000000000000000012c000000000000000000000000000000000000000000000000000000000001518000000000000000000000000000000000000000000000000000000000000186a000000000000000000000000000000000000000000000000000000000000f42400000000000000000000000000000000000000000000000000000000000000000000000000000000000000000000000000000000000000000000000000000000300000000000000000000000000000000000000000000000000000000000000000000000000000000000000000000000000000000000000000000000000000000000000000000000000413c20d613bf2988025796c28d6321b764a8e44c68d4c70d4c7f907a86f1d8dc3120f01314675d696bf1d9c577507eb62cf7e520d5985ae5a99bf572f145f3f7b61b000000000000000000000000000000000000000000000000000000000000000000000000000000000000000000000000000000000000000000000000000060000000000000000000000000000000000000000000000000000000000000000e00000000000000000000000056fd3f2bee130e9867942d0f463a16fbe49b8d810000000000000000000000000000000000000000000000000000000000000001",
          "blockHash": "0x108d3fa66feec69aea9c7035d179b08989aa8375cd7e8e922506d2c2fbab2455",
          "blockNumber": "0x2137d3c",
          "transactionHash": "0xed250ff5814dfab75ddb505ad50895629c1be6bcb5b21d397e150108815e4de1",
          "transactionIndex": "0x0",
          "logIndex": "0x0",
          "removed": false
        },
        {
          "address": "0x11625bea35264a0df5c89e89a849cc47f83059b3",
          "topics": [
            "0xb374789237d43aed0f75b4c50a45793fd70e354bb96eecd573f35f5d509d78a1",
            "0x3de090ec85aede9f99732eacb5852d5b6915e4436177cfc2777958c3301f6f3d",
            "0x000000000000000000000000c59d19ff6ff11d7a4725d5125af8ea11f73ad5e1",
            "0x0000000000000000000000006089e544bbd880529947c7a39865548815cf41f0"
          ],
          "data": "0x0000000000000000000000002722bbaac5b16a06cba4591a392a70e5a9274947",
          "blockHash": "0x108d3fa66feec69aea9c7035d179b08989aa8375cd7e8e922506d2c2fbab2455",
          "blockNumber": "0x2137d3c",
          "transactionHash": "0xed250ff5814dfab75ddb505ad50895629c1be6bcb5b21d397e150108815e4de1",
          "transactionIndex": "0x0",
          "logIndex": "0x1",
          "removed": false
        },
        {
          "address": "0x4740ad3e0052d3e792b3db3368317402bab90f87",
          "topics": [
            "0x1a082a1efaf1549c18917ddcb1f759680c29371609e24f4b946e93acf4ce5ad2"
          ],
          "data": "0x3de090ec85aede9f99732eacb5852d5b6915e4436177cfc2777958c3301f6f3d000000000000000000000000c59d19ff6ff11d7a4725d5125af8ea11f73ad5e1000000000000000000000000000000000000000000000000000000000000012c000000000000000000000000000000000000000000000000000000000001518000000000000000000000000000000000000000000000000000000000000186a000000000000000000000000000000000000000000000000000000000000f424000000000000000000000000000000000000000000000000000000000000000000000000000000000000000000000000000000000000000000000000000000003",
          "blockHash": "0x108d3fa66feec69aea9c7035d179b08989aa8375cd7e8e922506d2c2fbab2455",
          "blockNumber": "0x2137d3c",
          "transactionHash": "0xed250ff5814dfab75ddb505ad50895629c1be6bcb5b21d397e150108815e4de1",
          "transactionIndex": "0x0",
          "logIndex": "0x2",
          "removed": false
        },
        {
          "address": "0x32cb58b145d3f7e28c45ce4b2cc31fa94248b23f",
          "topics": [
            "0x442e715f626346e8c54381002da614f62bee8d27386535b2521ec8540898556e",
            "0x917ab8061a4b777a1684494240062af64904d0b3cf3380eb40c04d5b84664a76"
          ],
          "data": "0x0000000000000000000000000000000000000000000000000000000000000000",
          "blockHash": "0x108d3fa66feec69aea9c7035d179b08989aa8375cd7e8e922506d2c2fbab2455",
          "blockNumber": "0x2137d3c",
          "transactionHash": "0xed250ff5814dfab75ddb505ad50895629c1be6bcb5b21d397e150108815e4de1",
          "transactionIndex": "0x0",
          "logIndex": "0x3",
          "removed": false
        }
      ],
      "logsBloom": "0x00080000400000000000000000000000000000000000004000000000040040000000000000000010000000000000000000800000000000010000020000000000000000000000000000000000100000000002040000000000000002000000000200000000000000000000000000000090000000000000000004000000000000200000000000000000000000000000000000000000000000000000000000000000000000000400000000000000000004000008000008000000000000000000000000000020000000000000000000020000000000000000000000000000000000000000000000000000014001000000040000000008000010008090000000000000",
      "type": "0x2",
      "transactionHash": "0xed250ff5814dfab75ddb505ad50895629c1be6bcb5b21d397e150108815e4de1",
      "transactionIndex": "0x0",
      "blockHash": "0x108d3fa66feec69aea9c7035d179b08989aa8375cd7e8e922506d2c2fbab2455",
      "blockNumber": "0x2137d3c",
      "gasUsed": "0x80506",
      "effectiveGasPrice": "0xedd8b",
      "blobGasUsed": "0x0",
      "from": "0x56fd3f2bee130e9867942d0f463a16fbe49b8d81",
      "to": "0x32cb58b145d3f7e28c45ce4b2cc31fa94248b23f",
      "contractAddress": null
    }
  ],
  "libraries": [
    "node_modules/@celo/contracts/common/linkedlists/AddressSortedLinkedListWithMedian.sol:AddressSortedLinkedListWithMedian:0x498FB531985aD936f1A98813F92625084a67d02F"
  ],
  "pending": [],
  "returns": {},
  "timestamp": 1756453096008,
  "chain": 8453,
  "commit": "eb7c3cd"
}