{
  "transactions": [
    {
      "hash": "0xd2f80cef6504a28d0bb280f233895f9a0c5ba23d65c205e59a73692ffb1cb0ee",
      "transactionType": "CALL",
      "contractName": null,
      "contractAddress": "0x32cb58b145d3f7e28c45ce4b2cc31fa94248b23f",
      "function": "execTransaction(address,uint256,bytes,uint8,uint256,uint256,uint256,address,address,bytes)",
      "arguments": [
        "0x40A2aCCbd92BCA938b02010E17A5b8929b49130D",
        "0",
        "0x8d80ff0a000000000000000000000000000000000000000000000000000000000000002000000000000000000000000000000000000000000000000000000000000003120011625bea35264a0df5c89e89a849cc47f83059b300000000000000000000000000000000000000000000000000000000000000000000000000000000000000000000000000000000000000000000000000000164b0898691000000000000000000000000a65a2853fe883df11c4ba1fcdfed99b7b00f0b78000000000000000000000000833589fcd6edb6e08f4c7c32d4f71b54bda029130000000000000000000000002722bbaac5b16a06cba4591a392a70e5a927494700000000000000000000000000000000000000000000000000000000000000000000000000000000000000000000000000000000000000000000000000000000000000000000000000000000000000000000000000000000000000000000000000000000000000000000000000000000000000000000001b1ae4d6e2ef50000000000000000000000000000081a313ff894bfc6093d33b5514e34d7faa41b7ef000000000000000000000000000000000000000000000000000000000002a300000000000000000000000000000000000000000000000000000000000000000100000000000000000000000000000000000000000000d3c21bcecceda1000000004740ad3e0052d3e792b3db3368317402bab90f8700000000000000000000000000000000000000000000000000000000000000000000000000000000000000000000000000000000000000000000000000000104a9b5aab3e5d5c4df8b33337e9163fb01f3fd1c1cb3f8182a54ff181a94f9d3ebfc4f2abf000000000000000000000000a65a2853fe883df11c4ba1fcdfed99b7b00f0b78000000000000000000000000000000000000000000000000000000000000012c000000000000000000000000000000000000000000000000000000000001518000000000000000000000000000000000000000000000000000000000000186a000000000000000000000000000000000000000000000000000000000000f4240000000000000000000000000000000000000000000000000000000000000000000000000000000000000000000000000000000000000000000000000000000030000000000000000000000000000",
        "1",
        "0",
        "0",
        "0",
        "0x0000000000000000000000000000000000000000",
        "0x0000000000000000000000000000000000000000",
        "0xd1ca859c7da4bef321b5357681ff98992fc4a3caedb0fc3f63857000ddbfc92b574c74d7f8f5d3f66b89582f3428b54d2b0ca2de2dc2e399a308b5239ba349dd1c"
      ],
      "transaction": {
        "from": "0x56fd3f2bee130e9867942d0f463a16fbe49b8d81",
        "to": "0x32cb58b145d3f7e28c45ce4b2cc31fa94248b23f",
        "gas": "0xbf3eb",
        "value": "0x0",
        "input": "0x6a76120200000000000000000000000040a2accbd92bca938b02010e17a5b8929b49130d0000000000000000000000000000000000000000000000000000000000000000000000000000000000000000000000000000000000000000000000000000014000000000000000000000000000000000000000000000000000000000000000010000000000000000000000000000000000000000000000000000000000000000000000000000000000000000000000000000000000000000000000000000000000000000000000000000000000000000000000000000000000000000000000000000000000000000000000000000000000000000000000000000000000000000000000000000000000000000000000000000000000000000000000000000000000000000000000000000000000000000000000000000000000000000000004e000000000000000000000000000000000000000000000000000000000000003648d80ff0a000000000000000000000000000000000000000000000000000000000000002000000000000000000000000000000000000000000000000000000000000003120011625bea35264a0df5c89e89a849cc47f83059b300000000000000000000000000000000000000000000000000000000000000000000000000000000000000000000000000000000000000000000000000000164b0898691000000000000000000000000a65a2853fe883df11c4ba1fcdfed99b7b00f0b78000000000000000000000000833589fcd6edb6e08f4c7c32d4f71b54bda029130000000000000000000000002722bbaac5b16a06cba4591a392a70e5a927494700000000000000000000000000000000000000000000000000000000000000000000000000000000000000000000000000000000000000000000000000000000000000000000000000000000000000000000000000000000000000000000000000000000000000000000000000000000000000000000001b1ae4d6e2ef50000000000000000000000000000081a313ff894bfc6093d33b5514e34d7faa41b7ef000000000000000000000000000000000000000000000000000000000002a300000000000000000000000000000000000000000000000000000000000000000100000000000000000000000000000000000000000000d3c21bcecceda1000000004740ad3e0052d3e792b3db3368317402bab90f8700000000000000000000000000000000000000000000000000000000000000000000000000000000000000000000000000000000000000000000000000000104a9b5aab3e5d5c4df8b33337e9163fb01f3fd1c1cb3f8182a54ff181a94f9d3ebfc4f2abf000000000000000000000000a65a2853fe883df11c4ba1fcdfed99b7b00f0b78000000000000000000000000000000000000000000000000000000000000012c000000000000000000000000000000000000000000000000000000000001518000000000000000000000000000000000000000000000000000000000000186a000000000000000000000000000000000000000000000000000000000000f4240000000000000000000000000000000000000000000000000000000000000000000000000000000000000000000000000000000000000000000000000000000030000000000000000000000000000000000000000000000000000000000000000000000000000000000000000000000000000000000000000000000000000000000000000000000000041d1ca859c7da4bef321b5357681ff98992fc4a3caedb0fc3f63857000ddbfc92b574c74d7f8f5d3f66b89582f3428b54d2b0ca2de2dc2e399a308b5239ba349dd1c00000000000000000000000000000000000000000000000000000000000000",
        "nonce": "0xe",
        "chainId": "0x2105"
      },
      "additionalContracts": [],
      "isFixedGasLimit": false
    }
  ],
  "receipts": [
    {
      "status": "0x1",
      "cumulativeGasUsed": "0x82c41",
      "logs": [
        {
          "address": "0x32cb58b145d3f7e28c45ce4b2cc31fa94248b23f",
          "topics": [
            "0x66753cd2356569ee081232e3be8909b950e0a76c1f8460c3a5e3c2be32b11bed"
          ],
          "data": "0x00000000000000000000000040a2accbd92bca938b02010e17a5b8929b49130d000000000000000000000000000000000000000000000000000000000000000000000000000000000000000000000000000000000000000000000000000001600000000000000000000000000000000000000000000000000000000000000001000000000000000000000000000000000000000000000000000000000000000000000000000000000000000000000000000000000000000000000000000000000000000000000000000000000000000000000000000000000000000000000000000000000000000000000000000000000000000000000000000000000000000000000000000000000000000000000000000000000000000000000000000000000000000000000000000000000000000000000000000000000000000000000500000000000000000000000000000000000000000000000000000000000000058000000000000000000000000000000000000000000000000000000000000003648d80ff0a000000000000000000000000000000000000000000000000000000000000002000000000000000000000000000000000000000000000000000000000000003120011625bea35264a0df5c89e89a849cc47f83059b300000000000000000000000000000000000000000000000000000000000000000000000000000000000000000000000000000000000000000000000000000164b0898691000000000000000000000000a65a2853fe883df11c4ba1fcdfed99b7b00f0b78000000000000000000000000833589fcd6edb6e08f4c7c32d4f71b54bda029130000000000000000000000002722bbaac5b16a06cba4591a392a70e5a927494700000000000000000000000000000000000000000000000000000000000000000000000000000000000000000000000000000000000000000000000000000000000000000000000000000000000000000000000000000000000000000000000000000000000000000000000000000000000000000000001b1ae4d6e2ef50000000000000000000000000000081a313ff894bfc6093d33b5514e34d7faa41b7ef000000000000000000000000000000000000000000000000000000000002a300000000000000000000000000000000000000000000000000000000000000000100000000000000000000000000000000000000000000d3c21bcecceda1000000004740ad3e0052d3e792b3db3368317402bab90f8700000000000000000000000000000000000000000000000000000000000000000000000000000000000000000000000000000000000000000000000000000104a9b5aab3e5d5c4df8b33337e9163fb01f3fd1c1cb3f8182a54ff181a94f9d3ebfc4f2abf000000000000000000000000a65a2853fe883df11c4ba1fcdfed99b7b00f0b78000000000000000000000000000000000000000000000000000000000000012c000000000000000000000000000000000000000000000000000000000001518000000000000000000000000000000000000000000000000000000000000186a000000000000000000000000000000000000000000000000000000000000f4240000000000000000000000000000000000000000000000000000000000000000000000000000000000000000000000000000000000000000000000000000000030000000000000000000000000000000000000000000000000000000000000000000000000000000000000000000000000000000000000000000000000000000000000000000000000041d1ca859c7da4bef321b5357681ff98992fc4a3caedb0fc3f63857000ddbfc92b574c74d7f8f5d3f66b89582f3428b54d2b0ca2de2dc2e399a308b5239ba349dd1c000000000000000000000000000000000000000000000000000000000000000000000000000000000000000000000000000000000000000000000000000060000000000000000000000000000000000000000000000000000000000000000d00000000000000000000000056fd3f2bee130e9867942d0f463a16fbe49b8d810000000000000000000000000000000000000000000000000000000000000001",
          "blockHash": "0x0c73152295073f7d6dbee0d80066ee130da3d88af1a56e654a8d4a862ab8af0d",
          "blockNumber": "0x2123e22",
          "transactionHash": "0xd2f80cef6504a28d0bb280f233895f9a0c5ba23d65c205e59a73692ffb1cb0ee",
          "transactionIndex": "0x0",
          "logIndex": "0x0",
          "removed": false
        },
        {
          "address": "0x11625bea35264a0df5c89e89a849cc47f83059b3",
          "topics": [
            "0xb374789237d43aed0f75b4c50a45793fd70e354bb96eecd573f35f5d509d78a1",
            "0xe5d5c4df8b33337e9163fb01f3fd1c1cb3f8182a54ff181a94f9d3ebfc4f2abf",
            "0x000000000000000000000000a65a2853fe883df11c4ba1fcdfed99b7b00f0b78",
            "0x000000000000000000000000833589fcd6edb6e08f4c7c32d4f71b54bda02913"
          ],
          "data": "0x0000000000000000000000002722bbaac5b16a06cba4591a392a70e5a9274947",
          "blockHash": "0x0c73152295073f7d6dbee0d80066ee130da3d88af1a56e654a8d4a862ab8af0d",
          "blockNumber": "0x2123e22",
          "transactionHash": "0xd2f80cef6504a28d0bb280f233895f9a0c5ba23d65c205e59a73692ffb1cb0ee",
          "transactionIndex": "0x0",
          "logIndex": "0x1",
          "removed": false
        },
        {
          "address": "0x4740ad3e0052d3e792b3db3368317402bab90f87",
          "topics": [
            "0x1a082a1efaf1549c18917ddcb1f759680c29371609e24f4b946e93acf4ce5ad2"
          ],
          "data": "0xe5d5c4df8b33337e9163fb01f3fd1c1cb3f8182a54ff181a94f9d3ebfc4f2abf000000000000000000000000a65a2853fe883df11c4ba1fcdfed99b7b00f0b78000000000000000000000000000000000000000000000000000000000000012c000000000000000000000000000000000000000000000000000000000001518000000000000000000000000000000000000000000000000000000000000186a000000000000000000000000000000000000000000000000000000000000f424000000000000000000000000000000000000000000000000000000000000000000000000000000000000000000000000000000000000000000000000000000003",
          "blockHash": "0x0c73152295073f7d6dbee0d80066ee130da3d88af1a56e654a8d4a862ab8af0d",
          "blockNumber": "0x2123e22",
          "transactionHash": "0xd2f80cef6504a28d0bb280f233895f9a0c5ba23d65c205e59a73692ffb1cb0ee",
          "transactionIndex": "0x0",
          "logIndex": "0x2",
          "removed": false
        },
        {
          "address": "0x32cb58b145d3f7e28c45ce4b2cc31fa94248b23f",
          "topics": [
            "0x442e715f626346e8c54381002da614f62bee8d27386535b2521ec8540898556e",
            "0xd041d8a4e5cbfaeda9ce0d62c9b7b98028d3629efab4563491a92eb6f52aacd0"
          ],
          "data": "0x0000000000000000000000000000000000000000000000000000000000000000",
          "blockHash": "0x0c73152295073f7d6dbee0d80066ee130da3d88af1a56e654a8d4a862ab8af0d",
          "blockNumber": "0x2123e22",
          "transactionHash": "0xd2f80cef6504a28d0bb280f233895f9a0c5ba23d65c205e59a73692ffb1cb0ee",
          "transactionIndex": "0x0",
          "logIndex": "0x3",
          "removed": false
        }
      ],
      "logsBloom": "0x00000000480000000000000000000000000000000000004000000000040040000100000000000000000000000000000000800000000000000000020000000000000000000000040000000000100000000000040000000000000000000000000200000000000000000000000000000000010000000000000001000000000000000000000000000000400000000000000000000000000000000000000000000000000000000400000000000000000004000008000008000004000000000000000000800000000000000000000000020000000000000000000000000040000000120000000000000000010000000000040000000008000010808090000000000000",
      "type": "0x2",
      "transactionHash": "0xd2f80cef6504a28d0bb280f233895f9a0c5ba23d65c205e59a73692ffb1cb0ee",
      "transactionIndex": "0x0",
      "blockHash": "0x0c73152295073f7d6dbee0d80066ee130da3d88af1a56e654a8d4a862ab8af0d",
      "blockNumber": "0x2123e22",
      "gasUsed": "0x82c41",
      "effectiveGasPrice": "0xf3f5e",
      "blobGasUsed": "0x0",
      "from": "0x56fd3f2bee130e9867942d0f463a16fbe49b8d81",
      "to": "0x32cb58b145d3f7e28c45ce4b2cc31fa94248b23f",
      "contractAddress": null
    }
  ],
  "libraries": [
    "node_modules/@celo/contracts/common/linkedlists/AddressSortedLinkedListWithMedian.sol:AddressSortedLinkedListWithMedian:0x498FB531985aD936f1A98813F92625084a67d02F"
  ],
  "pending": [],
  "returns": {},
  "timestamp": 1756373770126,
  "chain": 8453,
  "commit": "eb7c3cd"
}