{
  "transactions": [
    {
      "hash": "0xf81535e07b1ba08e8e24257c8f8f7d251fa1410b309812b44e7a8fd7d24d7e29",
      "transactionType": "CALL",
      "contractName": null,
      "contractAddress": "0x938c5ad8c25259f581d09175eb8ab662ef2d86da",
      "function": "setExternalProvider(address)",
      "arguments": [
        "0xabcdE369CDdD1665E4EbD9214b8e9a595271272C"
      ],
      "transaction": {
        "from": "0x56fd3f2bee130e9867942d0f463a16fbe49b8d81",
        "to": "0x938c5ad8c25259f581d09175eb8ab662ef2d86da",
        "gas": "0x8d36",
        "value": "0x0",
        "input": "0xe3ac8226000000000000000000000000abcde369cddd1665e4ebd9214b8e9a595271272c",
        "nonce": "0x48f",
        "chainId": "0xaa044c"
      },
      "additionalContracts": [],
      "isFixedGasLimit": false
    },
    {
      "hash": "0xa9cc285dfbbf23c592e34691d6176478a856e056665f0831a58396d771a8ef83",
      "transactionType": "CALL",
      "contractName": null,
      "contractAddress": "0x938c5ad8c25259f581d09175eb8ab662ef2d86da",
      "function": "report(int256,uint256)",
      "arguments": [
        "99980043",
        "1757000482"
      ],
      "transaction": {
        "from": "0x56fd3f2bee130e9867942d0f463a16fbe49b8d81",
        "to": "0x938c5ad8c25259f581d09175eb8ab662ef2d86da",
        "gas": "0xb6a5",
        "value": "0x0",
        "input": "0x0f3d249d0000000000000000000000000000000000000000000000000000000005f5930b0000000000000000000000000000000000000000000000000000000068b9b322",
        "nonce": "0x490",
        "chainId": "0xaa044c"
      },
      "additionalContracts": [],
      "isFixedGasLimit": false
    },
    {
      "hash": "0x9b9b05594291256110e06a01d748a864b5231289eb7383d6aef8528d2ca9ddbe",
      "transactionType": "CALL",
      "contractName": null,
      "contractAddress": "0xc28486a83b7f57e556f710b6d1e603c02d42c202",
      "function": "setExternalProvider(address)",
      "arguments": [
        "0xabcdE369CDdD1665E4EbD9214b8e9a595271272C"
      ],
      "transaction": {
        "from": "0x56fd3f2bee130e9867942d0f463a16fbe49b8d81",
        "to": "0xc28486a83b7f57e556f710b6d1e603c02d42c202",
        "gas": "0x8d36",
        "value": "0x0",
        "input": "0xe3ac8226000000000000000000000000abcde369cddd1665e4ebd9214b8e9a595271272c",
        "nonce": "0x491",
        "chainId": "0xaa044c"
      },
      "additionalContracts": [],
      "isFixedGasLimit": false
    },
    {
      "hash": "0x276ec4cc9feac3ed3ba892af7e9e39e8b9ccb5643f6dbc27514d3cacbb1f07d3",
      "transactionType": "CALL",
      "contractName": null,
      "contractAddress": "0xc28486a83b7f57e556f710b6d1e603c02d42c202",
      "function": "report(int256,uint256)",
      "arguments": [
        "100004000",
        "1757000482"
      ],
      "transaction": {
        "from": "0x56fd3f2bee130e9867942d0f463a16fbe49b8d81",
        "to": "0xc28486a83b7f57e556f710b6d1e603c02d42c202",
        "gas": "0xb6a5",
        "value": "0x0",
        "input": "0x0f3d249d0000000000000000000000000000000000000000000000000000000005f5f0a00000000000000000000000000000000000000000000000000000000068b9b322",
        "nonce": "0x492",
        "chainId": "0xaa044c"
      },
      "additionalContracts": [],
      "isFixedGasLimit": false
    },
    {
      "hash": "0xad0657309e79f624b1e242a8e28ecaa19ea75eb166477837ca3146135b1f03aa",
      "transactionType": "CALL",
      "contractName": null,
      "contractAddress": "0xd06068261abda6014666ad24c4d0fbe5eeba610f",
      "function": "setExternalProvider(address)",
      "arguments": [
        "0xabcdE369CDdD1665E4EbD9214b8e9a595271272C"
      ],
      "transaction": {
        "from": "0x56fd3f2bee130e9867942d0f463a16fbe49b8d81",
        "to": "0xd06068261abda6014666ad24c4d0fbe5eeba610f",
        "gas": "0x8d36",
        "value": "0x0",
        "input": "0xe3ac8226000000000000000000000000abcde369cddd1665e4ebd9214b8e9a595271272c",
        "nonce": "0x493",
        "chainId": "0xaa044c"
      },
      "additionalContracts": [],
      "isFixedGasLimit": false
    },
    {
      "hash": "0x24d400951c727f6aa3e88c5028a445c6706958932929d22c1071a88ee5c7f358",
      "transactionType": "CALL",
      "contractName": null,
      "contractAddress": "0xd06068261abda6014666ad24c4d0fbe5eeba610f",
      "function": "report(int256,uint256)",
      "arguments": [
        "116419575",
        "1757000482"
      ],
      "transaction": {
        "from": "0x56fd3f2bee130e9867942d0f463a16fbe49b8d81",
        "to": "0xd06068261abda6014666ad24c4d0fbe5eeba610f",
        "gas": "0xb6a5",
        "value": "0x0",
        "input": "0x0f3d249d0000000000000000000000000000000000000000000000000000000006f06bf70000000000000000000000000000000000000000000000000000000068b9b322",
        "nonce": "0x494",
        "chainId": "0xaa044c"
      },
      "additionalContracts": [],
      "isFixedGasLimit": false
    },
    {
      "hash": "0x1343ab9c4074631df48999b578df2b1966d4d12ccf6dd1726384d74eb0ea7723",
      "transactionType": "CALL",
      "contractName": null,
      "contractAddress": "0x53637ee07fa3c04eb12a2aaa632c06a657178ebc",
      "function": "setExternalProvider(address)",
      "arguments": [
        "0xabcdE369CDdD1665E4EbD9214b8e9a595271272C"
      ],
      "transaction": {
        "from": "0x56fd3f2bee130e9867942d0f463a16fbe49b8d81",
        "to": "0x53637ee07fa3c04eb12a2aaa632c06a657178ebc",
        "gas": "0x8d36",
        "value": "0x0",
        "input": "0xe3ac8226000000000000000000000000abcde369cddd1665e4ebd9214b8e9a595271272c",
        "nonce": "0x495",
        "chainId": "0xaa044c"
      },
      "additionalContracts": [],
      "isFixedGasLimit": false
    },
    {
      "hash": "0xa7b3785fc510f91118456bced69473c328443d35f1fabad25b6db284008c2f48",
      "transactionType": "CALL",
      "contractName": null,
      "contractAddress": "0x53637ee07fa3c04eb12a2aaa632c06a657178ebc",
      "function": "report(int256,uint256)",
      "arguments": [
        "28709223",
        "1757000482"
      ],
      "transaction": {
        "from": "0x56fd3f2bee130e9867942d0f463a16fbe49b8d81",
        "to": "0x53637ee07fa3c04eb12a2aaa632c06a657178ebc",
        "gas": "0xb6a5",
        "value": "0x0",
        "input": "0x0f3d249d0000000000000000000000000000000000000000000000000000000001b611670000000000000000000000000000000000000000000000000000000068b9b322",
        "nonce": "0x496",
        "chainId": "0xaa044c"
      },
      "additionalContracts": [],
      "isFixedGasLimit": false
    },
    {
      "hash": "0xa61ffb92b375fd3d1d03b180be19e2fd6503227a567fe1b686f661f22fda5db8",
      "transactionType": "CALL",
      "contractName": null,
      "contractAddress": "0xba5ed099633d3b313e4d5f7bdc1305d3c28ba5ed",
      "function": "deployCreate3(bytes32,bytes)",
      "arguments": [
        "0x56fd3f2bee130e9867942d0f463a16fbe49b8d81008c8d750e08ecb349b06310",
        "0x608060405234801561000f575f5ffd5b5060405161095838038061095883398101604081905261002e9161011c565b806001600160a01b03811661005c57604051631e4fbdf760e01b81525f600482015260240160405180910390fd5b6100658161008e565b5060016100728482610270565b50506002805460ff191660ff929092169190911790555061032a565b5f80546001600160a01b038381166001600160a01b0319831681178455604051919092169283917f8be0079c531659141344cd1fd0a4f28419497f9722a3daafe3b4186f6b6457e09190a35050565b634e487b7160e01b5f52604160045260245ffd5b805160ff81168114610101575f5ffd5b919050565b80516001600160a01b0381168114610101575f5ffd5b5f5f5f6060848603121561012e575f5ffd5b83516001600160401b03811115610143575f5ffd5b8401601f81018613610153575f5ffd5b80516001600160401b0381111561016c5761016c6100dd565b604051601f8201601f19908116603f011681016001600160401b038111828210171561019a5761019a6100dd565b6040528181528282016020018810156101b1575f5ffd5b8160208401602083015e5f602083830101528095505050506101d5602085016100f1565b91506101e360408501610106565b90509250925092565b600181811c9082168061020057607f821691505b60208210810361021e57634e487b7160e01b5f52602260045260245ffd5b50919050565b601f82111561026b57805f5260205f20601f840160051c810160208510156102495750805b601f840160051c820191505b81811015610268575f8155600101610255565b50505b505050565b81516001600160401b03811115610289576102896100dd565b61029d8161029784546101ec565b84610224565b6020601f8211600181146102cf575f83156102b85750848201515b5f19600385901b1c1916600184901b178455610268565b5f84815260208120601f198516915b828110156102fe57878501518255602094850194600190920191016102de565b508482101561031b57868401515f19600387901b60f8161c191681555b50505050600190811b01905550565b610621806103375f395ff3fe608060405234801561000f575f5ffd5b50600436106100e5575f3560e01c80638da5cb5b11610088578063e1e244d811610063578063e1e244d8146101ca578063e3ac8226146101d3578063f2fde38b146101e6578063feaf968c146101f9575f5ffd5b80638da5cb5b1461019057806399213cd8146101a0578063d0b06f5d146101b3575f5ffd5b8063705b9154116100c3578063705b915414610135578063715018a6146101605780637284e416146101685780637a1395aa1461017d575f5ffd5b80630f3d249d146100e9578063313ce567146100fe578063368f186214610122575b5f5ffd5b6100fc6100f73660046104a4565b61022d565b005b60025461010b9060ff1681565b60405160ff90911681526020015b60405180910390f35b6100fc6101303660046104c4565b61027f565b600554610148906001600160a01b031681565b6040516001600160a01b039091168152602001610119565b6100fc6102c2565b6101706102d5565b60405161011991906104db565b6100fc61018b366004610510565b610361565b5f546001600160a01b0316610148565b6100fc6101ae3660046104c4565b61037f565b6101bc60045481565b604051908152602001610119565b6101bc60035481565b6100fc6101e1366004610537565b6103c2565b6100fc6101f4366004610537565b6103ec565b600354600454604080515f80825260208201949094529081018390526060810191909152608081019190915260a001610119565b5f546001600160a01b031633148061024f57506005546001600160a01b031633145b6102745760405162461bcd60e51b815260040161026b9061055d565b60405180910390fd5b600391909155600455565b5f546001600160a01b03163314806102a157506005546001600160a01b031633145b6102bd5760405162461bcd60e51b815260040161026b9061055d565b600455565b6102ca610429565b6102d35f610455565b565b600180546102e2906105b3565b80601f016020809104026020016040519081016040528092919081815260200182805461030e906105b3565b80156103595780601f1061033057610100808354040283529160200191610359565b820191905f5260205f20905b81548152906001019060200180831161033c57829003601f168201915b505050505081565b610369610429565b6002805460ff191660ff92909216919091179055565b5f546001600160a01b03163314806103a157506005546001600160a01b031633145b6103bd5760405162461bcd60e51b815260040161026b9061055d565b600355565b6103ca610429565b600580546001600160a01b0319166001600160a01b0392909216919091179055565b6103f4610429565b6001600160a01b03811661041d57604051631e4fbdf760e01b81525f600482015260240161026b565b61042681610455565b50565b5f546001600160a01b031633146102d35760405163118cdaa760e01b815233600482015260240161026b565b5f80546001600160a01b038381166001600160a01b0319831681178455604051919092169283917f8be0079c531659141344cd1fd0a4f28419497f9722a3daafe3b4186f6b6457e09190a35050565b5f5f604083850312156104b5575f5ffd5b50508035926020909101359150565b5f602082840312156104d4575f5ffd5b5035919050565b602081525f82518060208401528060208501604085015e5f604082850101526040601f19601f83011684010191505092915050565b5f60208284031215610520575f5ffd5b813560ff81168114610530575f5ffd5b9392505050565b5f60208284031215610547575f5ffd5b81356001600160a01b0381168114610530575f5ffd5b60208082526036908201527f4f6e6c79206f776e6572206f722065787465726e616c2070726f76696465722060408201527531b0b71031b0b636103a3434b990333ab731ba34b7b760511b606082015260800190565b600181811c908216806105c757607f821691505b6020821081036105e557634e487b7160e01b5f52602260045260245ffd5b5091905056fea2646970667358221220d76494bf45c05fd374bfc8d259c50cace3b643c9f5c062e5d564e78cdc67c9ec64736f6c634300081e00330000000000000000000000000000000000000000000000000000000000000060000000000000000000000000000000000000000000000000000000000000000800000000000000000000000056fd3f2bee130e9867942d0f463a16fbe49b8d8100000000000000000000000000000000000000000000000000000000000000074554482f55534400000000000000000000000000000000000000000000000000"
      ],
      "transaction": {
        "from": "0x56fd3f2bee130e9867942d0f463a16fbe49b8d81",
        "to": "0xba5ed099633d3b313e4d5f7bdc1305d3c28ba5ed",
        "gas": "0xba2aa",
        "value": "0x0",
        "input": "0x9c36a28656fd3f2bee130e9867942d0f463a16fbe49b8d81008c8d750e08ecb349b06310000000000000000000000000000000000000000000000000000000000000004000000000000000000000000000000000000000000000000000000000000009f8608060405234801561000f575f5ffd5b5060405161095838038061095883398101604081905261002e9161011c565b806001600160a01b03811661005c57604051631e4fbdf760e01b81525f600482015260240160405180910390fd5b6100658161008e565b5060016100728482610270565b50506002805460ff191660ff929092169190911790555061032a565b5f80546001600160a01b038381166001600160a01b0319831681178455604051919092169283917f8be0079c531659141344cd1fd0a4f28419497f9722a3daafe3b4186f6b6457e09190a35050565b634e487b7160e01b5f52604160045260245ffd5b805160ff81168114610101575f5ffd5b919050565b80516001600160a01b0381168114610101575f5ffd5b5f5f5f6060848603121561012e575f5ffd5b83516001600160401b03811115610143575f5ffd5b8401601f81018613610153575f5ffd5b80516001600160401b0381111561016c5761016c6100dd565b604051601f8201601f19908116603f011681016001600160401b038111828210171561019a5761019a6100dd565b6040528181528282016020018810156101b1575f5ffd5b8160208401602083015e5f602083830101528095505050506101d5602085016100f1565b91506101e360408501610106565b90509250925092565b600181811c9082168061020057607f821691505b60208210810361021e57634e487b7160e01b5f52602260045260245ffd5b50919050565b601f82111561026b57805f5260205f20601f840160051c810160208510156102495750805b601f840160051c820191505b81811015610268575f8155600101610255565b50505b505050565b81516001600160401b03811115610289576102896100dd565b61029d8161029784546101ec565b84610224565b6020601f8211600181146102cf575f83156102b85750848201515b5f19600385901b1c1916600184901b178455610268565b5f84815260208120601f198516915b828110156102fe57878501518255602094850194600190920191016102de565b508482101561031b57868401515f19600387901b60f8161c191681555b50505050600190811b01905550565b610621806103375f395ff3fe608060405234801561000f575f5ffd5b50600436106100e5575f3560e01c80638da5cb5b11610088578063e1e244d811610063578063e1e244d8146101ca578063e3ac8226146101d3578063f2fde38b146101e6578063feaf968c146101f9575f5ffd5b80638da5cb5b1461019057806399213cd8146101a0578063d0b06f5d146101b3575f5ffd5b8063705b9154116100c3578063705b915414610135578063715018a6146101605780637284e416146101685780637a1395aa1461017d575f5ffd5b80630f3d249d146100e9578063313ce567146100fe578063368f186214610122575b5f5ffd5b6100fc6100f73660046104a4565b61022d565b005b60025461010b9060ff1681565b60405160ff90911681526020015b60405180910390f35b6100fc6101303660046104c4565b61027f565b600554610148906001600160a01b031681565b6040516001600160a01b039091168152602001610119565b6100fc6102c2565b6101706102d5565b60405161011991906104db565b6100fc61018b366004610510565b610361565b5f546001600160a01b0316610148565b6100fc6101ae3660046104c4565b61037f565b6101bc60045481565b604051908152602001610119565b6101bc60035481565b6100fc6101e1366004610537565b6103c2565b6100fc6101f4366004610537565b6103ec565b600354600454604080515f80825260208201949094529081018390526060810191909152608081019190915260a001610119565b5f546001600160a01b031633148061024f57506005546001600160a01b031633145b6102745760405162461bcd60e51b815260040161026b9061055d565b60405180910390fd5b600391909155600455565b5f546001600160a01b03163314806102a157506005546001600160a01b031633145b6102bd5760405162461bcd60e51b815260040161026b9061055d565b600455565b6102ca610429565b6102d35f610455565b565b600180546102e2906105b3565b80601f016020809104026020016040519081016040528092919081815260200182805461030e906105b3565b80156103595780601f1061033057610100808354040283529160200191610359565b820191905f5260205f20905b81548152906001019060200180831161033c57829003601f168201915b505050505081565b610369610429565b6002805460ff191660ff92909216919091179055565b5f546001600160a01b03163314806103a157506005546001600160a01b031633145b6103bd5760405162461bcd60e51b815260040161026b9061055d565b600355565b6103ca610429565b600580546001600160a01b0319166001600160a01b0392909216919091179055565b6103f4610429565b6001600160a01b03811661041d57604051631e4fbdf760e01b81525f600482015260240161026b565b61042681610455565b50565b5f546001600160a01b031633146102d35760405163118cdaa760e01b815233600482015260240161026b565b5f80546001600160a01b038381166001600160a01b0319831681178455604051919092169283917f8be0079c531659141344cd1fd0a4f28419497f9722a3daafe3b4186f6b6457e09190a35050565b5f5f604083850312156104b5575f5ffd5b50508035926020909101359150565b5f602082840312156104d4575f5ffd5b5035919050565b602081525f82518060208401528060208501604085015e5f604082850101526040601f19601f83011684010191505092915050565b5f60208284031215610520575f5ffd5b813560ff81168114610530575f5ffd5b9392505050565b5f60208284031215610547575f5ffd5b81356001600160a01b0381168114610530575f5ffd5b60208082526036908201527f4f6e6c79206f776e6572206f722065787465726e616c2070726f76696465722060408201527531b0b71031b0b636103a3434b990333ab731ba34b7b760511b606082015260800190565b600181811c908216806105c757607f821691505b6020821081036105e557634e487b7160e01b5f52602260045260245ffd5b5091905056fea2646970667358221220d76494bf45c05fd374bfc8d259c50cace3b643c9f5c062e5d564e78cdc67c9ec64736f6c634300081e00330000000000000000000000000000000000000000000000000000000000000060000000000000000000000000000000000000000000000000000000000000000800000000000000000000000056fd3f2bee130e9867942d0f463a16fbe49b8d8100000000000000000000000000000000000000000000000000000000000000074554482f555344000000000000000000000000000000000000000000000000000000000000000000",
        "nonce": "0x497",
        "chainId": "0xaa044c"
      },
      "additionalContracts": [
        {
          "transactionType": "CREATE2",
          "address": "0xe6016609e06d8187aa31981b5c76907587c597ac",
          "initCode": "0x67363d3d37363d34f03d5260086018f3"
        },
        {
          "transactionType": "CREATE",
          "address": "0xfd4bef0c73635d0bbfff57ed1e987374bee2252d",
          "initCode": "0x608060405234801561000f575f5ffd5b5060405161095838038061095883398101604081905261002e9161011c565b806001600160a01b03811661005c57604051631e4fbdf760e01b81525f600482015260240160405180910390fd5b6100658161008e565b5060016100728482610270565b50506002805460ff191660ff929092169190911790555061032a565b5f80546001600160a01b038381166001600160a01b0319831681178455604051919092169283917f8be0079c531659141344cd1fd0a4f28419497f9722a3daafe3b4186f6b6457e09190a35050565b634e487b7160e01b5f52604160045260245ffd5b805160ff81168114610101575f5ffd5b919050565b80516001600160a01b0381168114610101575f5ffd5b5f5f5f6060848603121561012e575f5ffd5b83516001600160401b03811115610143575f5ffd5b8401601f81018613610153575f5ffd5b80516001600160401b0381111561016c5761016c6100dd565b604051601f8201601f19908116603f011681016001600160401b038111828210171561019a5761019a6100dd565b6040528181528282016020018810156101b1575f5ffd5b8160208401602083015e5f602083830101528095505050506101d5602085016100f1565b91506101e360408501610106565b90509250925092565b600181811c9082168061020057607f821691505b60208210810361021e57634e487b7160e01b5f52602260045260245ffd5b50919050565b601f82111561026b57805f5260205f20601f840160051c810160208510156102495750805b601f840160051c820191505b81811015610268575f8155600101610255565b50505b505050565b81516001600160401b03811115610289576102896100dd565b61029d8161029784546101ec565b84610224565b6020601f8211600181146102cf575f83156102b85750848201515b5f19600385901b1c1916600184901b178455610268565b5f84815260208120601f198516915b828110156102fe57878501518255602094850194600190920191016102de565b508482101561031b57868401515f19600387901b60f8161c191681555b50505050600190811b01905550565b610621806103375f395ff3fe608060405234801561000f575f5ffd5b50600436106100e5575f3560e01c80638da5cb5b11610088578063e1e244d811610063578063e1e244d8146101ca578063e3ac8226146101d3578063f2fde38b146101e6578063feaf968c146101f9575f5ffd5b80638da5cb5b1461019057806399213cd8146101a0578063d0b06f5d146101b3575f5ffd5b8063705b9154116100c3578063705b915414610135578063715018a6146101605780637284e416146101685780637a1395aa1461017d575f5ffd5b80630f3d249d146100e9578063313ce567146100fe578063368f186214610122575b5f5ffd5b6100fc6100f73660046104a4565b61022d565b005b60025461010b9060ff1681565b60405160ff90911681526020015b60405180910390f35b6100fc6101303660046104c4565b61027f565b600554610148906001600160a01b031681565b6040516001600160a01b039091168152602001610119565b6100fc6102c2565b6101706102d5565b60405161011991906104db565b6100fc61018b366004610510565b610361565b5f546001600160a01b0316610148565b6100fc6101ae3660046104c4565b61037f565b6101bc60045481565b604051908152602001610119565b6101bc60035481565b6100fc6101e1366004610537565b6103c2565b6100fc6101f4366004610537565b6103ec565b600354600454604080515f80825260208201949094529081018390526060810191909152608081019190915260a001610119565b5f546001600160a01b031633148061024f57506005546001600160a01b031633145b6102745760405162461bcd60e51b815260040161026b9061055d565b60405180910390fd5b600391909155600455565b5f546001600160a01b03163314806102a157506005546001600160a01b031633145b6102bd5760405162461bcd60e51b815260040161026b9061055d565b600455565b6102ca610429565b6102d35f610455565b565b600180546102e2906105b3565b80601f016020809104026020016040519081016040528092919081815260200182805461030e906105b3565b80156103595780601f1061033057610100808354040283529160200191610359565b820191905f5260205f20905b81548152906001019060200180831161033c57829003601f168201915b505050505081565b610369610429565b6002805460ff191660ff92909216919091179055565b5f546001600160a01b03163314806103a157506005546001600160a01b031633145b6103bd5760405162461bcd60e51b815260040161026b9061055d565b600355565b6103ca610429565b600580546001600160a01b0319166001600160a01b0392909216919091179055565b6103f4610429565b6001600160a01b03811661041d57604051631e4fbdf760e01b81525f600482015260240161026b565b61042681610455565b50565b5f546001600160a01b031633146102d35760405163118cdaa760e01b815233600482015260240161026b565b5f80546001600160a01b038381166001600160a01b0319831681178455604051919092169283917f8be0079c531659141344cd1fd0a4f28419497f9722a3daafe3b4186f6b6457e09190a35050565b5f5f604083850312156104b5575f5ffd5b50508035926020909101359150565b5f602082840312156104d4575f5ffd5b5035919050565b602081525f82518060208401528060208501604085015e5f604082850101526040601f19601f83011684010191505092915050565b5f60208284031215610520575f5ffd5b813560ff81168114610530575f5ffd5b9392505050565b5f60208284031215610547575f5ffd5b81356001600160a01b0381168114610530575f5ffd5b60208082526036908201527f4f6e6c79206f776e6572206f722065787465726e616c2070726f76696465722060408201527531b0b71031b0b636103a3434b990333ab731ba34b7b760511b606082015260800190565b600181811c908216806105c757607f821691505b6020821081036105e557634e487b7160e01b5f52602260045260245ffd5b5091905056fea2646970667358221220d76494bf45c05fd374bfc8d259c50cace3b643c9f5c062e5d564e78cdc67c9ec64736f6c634300081e00330000000000000000000000000000000000000000000000000000000000000060000000000000000000000000000000000000000000000000000000000000000800000000000000000000000056fd3f2bee130e9867942d0f463a16fbe49b8d8100000000000000000000000000000000000000000000000000000000000000074554482f55534400000000000000000000000000000000000000000000000000"
        }
      ],
      "isFixedGasLimit": false
    },
    {
      "hash": "0xca271e54c23c5b2469453b65fc489543cbc22729d1186b1d953f4e6e611c8c00",
      "transactionType": "CALL",
      "contractName": "MockChainlinkAggregator",
      "contractAddress": "0xfd4bef0c73635d0bbfff57ed1e987374bee2252d",
      "function": "setExternalProvider(address)",
      "arguments": [
        "0xabcdE369CDdD1665E4EbD9214b8e9a595271272C"
      ],
      "transaction": {
        "from": "0x56fd3f2bee130e9867942d0f463a16fbe49b8d81",
        "to": "0xfd4bef0c73635d0bbfff57ed1e987374bee2252d",
        "gas": "0x10735",
        "value": "0x0",
        "input": "0xe3ac8226000000000000000000000000abcde369cddd1665e4ebd9214b8e9a595271272c",
        "nonce": "0x498",
        "chainId": "0xaa044c"
      },
      "additionalContracts": [],
      "isFixedGasLimit": false
    },
    {
      "hash": "0xd12e3d7c7bba142291b5e0f9edc8da634c4baf38ee04c6d912d27c0531a91d13",
      "transactionType": "CALL",
      "contractName": "MockChainlinkAggregator",
      "contractAddress": "0xfd4bef0c73635d0bbfff57ed1e987374bee2252d",
      "function": "report(int256,uint256)",
      "arguments": [
        "430434477495",
        "1757000482"
      ],
      "transaction": {
        "from": "0x56fd3f2bee130e9867942d0f463a16fbe49b8d81",
        "to": "0xfd4bef0c73635d0bbfff57ed1e987374bee2252d",
        "gas": "0x16f3d",
        "value": "0x0",
        "input": "0x0f3d249d0000000000000000000000000000000000000000000000000000006437e4e5b70000000000000000000000000000000000000000000000000000000068b9b322",
        "nonce": "0x499",
        "chainId": "0xaa044c"
      },
      "additionalContracts": [],
      "isFixedGasLimit": false
    },
    {
      "hash": "0x6ebf0b32c8489d3d451c37e2e5fd3b41934ffe7b8c3ed728e1a14b1966c2877f",
      "transactionType": "CALL",
      "contractName": null,
      "contractAddress": "0xa3976ebf31f404d6ae5741727e28ef04c54705bc",
      "function": "setExternalProvider(address)",
      "arguments": [
        "0xabcdE369CDdD1665E4EbD9214b8e9a595271272C"
      ],
      "transaction": {
        "from": "0x56fd3f2bee130e9867942d0f463a16fbe49b8d81",
        "to": "0xa3976ebf31f404d6ae5741727e28ef04c54705bc",
        "gas": "0x8d36",
        "value": "0x0",
        "input": "0xe3ac8226000000000000000000000000abcde369cddd1665e4ebd9214b8e9a595271272c",
        "nonce": "0x49a",
        "chainId": "0xaa044c"
      },
      "additionalContracts": [],
      "isFixedGasLimit": false
    },
    {
      "hash": "0x96e9cf37f83d39599ca763cf1f883e3384f220d9d78d9422232560304e597033",
      "transactionType": "CALL",
      "contractName": null,
      "contractAddress": "0xa3976ebf31f404d6ae5741727e28ef04c54705bc",
      "function": "report(int256,uint256)",
      "arguments": [
        "116419575",
        "1757000482"
      ],
      "transaction": {
        "from": "0x56fd3f2bee130e9867942d0f463a16fbe49b8d81",
        "to": "0xa3976ebf31f404d6ae5741727e28ef04c54705bc",
        "gas": "0xb6a5",
        "value": "0x0",
        "input": "0x0f3d249d0000000000000000000000000000000000000000000000000000000006f06bf70000000000000000000000000000000000000000000000000000000068b9b322",
        "nonce": "0x49b",
        "chainId": "0xaa044c"
      },
      "additionalContracts": [],
      "isFixedGasLimit": false
    },
    {
      "hash": "0x6847780c708a54e20a081c5c8009b65930df7f7b79e3a518548e4619ed42af96",
      "transactionType": "CALL",
      "contractName": null,
      "contractAddress": "0x970be29cd19a3fb5941f7bb63d4fd9c9f2bed570",
      "function": "setExternalProvider(address)",
      "arguments": [
        "0xabcdE369CDdD1665E4EbD9214b8e9a595271272C"
      ],
      "transaction": {
        "from": "0x56fd3f2bee130e9867942d0f463a16fbe49b8d81",
        "to": "0x970be29cd19a3fb5941f7bb63d4fd9c9f2bed570",
        "gas": "0x8d36",
        "value": "0x0",
        "input": "0xe3ac8226000000000000000000000000abcde369cddd1665e4ebd9214b8e9a595271272c",
        "nonce": "0x49c",
        "chainId": "0xaa044c"
      },
      "additionalContracts": [],
      "isFixedGasLimit": false
    },
    {
      "hash": "0x9c07c72ed8ecb75cd931d087c4c06c335abe5f53a5a0f1dcbe3b13947210795e",
      "transactionType": "CALL",
      "contractName": null,
      "contractAddress": "0x970be29cd19a3fb5941f7bb63d4fd9c9f2bed570",
      "function": "report(int256,uint256)",
      "arguments": [
        "18310658",
        "1757000482"
      ],
      "transaction": {
        "from": "0x56fd3f2bee130e9867942d0f463a16fbe49b8d81",
        "to": "0x970be29cd19a3fb5941f7bb63d4fd9c9f2bed570",
        "gas": "0xb6a5",
        "value": "0x0",
        "input": "0x0f3d249d00000000000000000000000000000000000000000000000000000000011766020000000000000000000000000000000000000000000000000000000068b9b322",
        "nonce": "0x49d",
        "chainId": "0xaa044c"
      },
      "additionalContracts": [],
      "isFixedGasLimit": false
    },
    {
      "hash": "0xc5f7a22e6cdbeb009b963ab8d00086c7cf9874dc7a078c91fa2c73944e85c5a6",
      "transactionType": "CALL",
      "contractName": null,
      "contractAddress": "0x412367045452edff6e6d382b711e8f7e678db3df",
      "function": "setExternalProvider(address)",
      "arguments": [
        "0xabcdE369CDdD1665E4EbD9214b8e9a595271272C"
      ],
      "transaction": {
        "from": "0x56fd3f2bee130e9867942d0f463a16fbe49b8d81",
        "to": "0x412367045452edff6e6d382b711e8f7e678db3df",
        "gas": "0x8d36",
        "value": "0x0",
        "input": "0xe3ac8226000000000000000000000000abcde369cddd1665e4ebd9214b8e9a595271272c",
        "nonce": "0x49e",
        "chainId": "0xaa044c"
      },
      "additionalContracts": [],
      "isFixedGasLimit": false
    },
    {
      "hash": "0xf46fa9f59944139e3dd60289484204adc729e8479e0f76cd04e5bd083b0e216e",
      "transactionType": "CALL",
      "contractName": null,
      "contractAddress": "0x412367045452edff6e6d382b711e8f7e678db3df",
      "function": "report(int256,uint256)",
      "arguments": [
        "1775788894216255",
        "1757000482"
      ],
      "transaction": {
        "from": "0x56fd3f2bee130e9867942d0f463a16fbe49b8d81",
        "to": "0x412367045452edff6e6d382b711e8f7e678db3df",
        "gas": "0xb6d7",
        "value": "0x0",
        "input": "0x0f3d249d00000000000000000000000000000000000000000000000000064f12123c603f0000000000000000000000000000000000000000000000000000000068b9b322",
        "nonce": "0x49f",
        "chainId": "0xaa044c"
      },
      "additionalContracts": [],
      "isFixedGasLimit": false
    },
    {
      "hash": "0x1e65cdae04d3037a4f3d8f96dc6ce8c46eab96b2ec5264b8f5fcf20ee6c04ad1",
      "transactionType": "CALL",
      "contractName": null,
      "contractAddress": "0xe8148b4e27e4136980d39abfb64be7e434b025e6",
      "function": "setExternalProvider(address)",
      "arguments": [
        "0xabcdE369CDdD1665E4EbD9214b8e9a595271272C"
      ],
      "transaction": {
        "from": "0x56fd3f2bee130e9867942d0f463a16fbe49b8d81",
        "to": "0xe8148b4e27e4136980d39abfb64be7e434b025e6",
        "gas": "0x8d36",
        "value": "0x0",
        "input": "0xe3ac8226000000000000000000000000abcde369cddd1665e4ebd9214b8e9a595271272c",
        "nonce": "0x4a0",
        "chainId": "0xaa044c"
      },
      "additionalContracts": [],
      "isFixedGasLimit": false
    },
    {
      "hash": "0x06cf20482fe5c69bcf8fd9121918627e20f2e294a45b1a6fe465dcb3d9252e2a",
      "transactionType": "CALL",
      "contractName": null,
      "contractAddress": "0xe8148b4e27e4136980d39abfb64be7e434b025e6",
      "function": "report(int256,uint256)",
      "arguments": [
        "7722007722007722",
        "1757000482"
      ],
      "transaction": {
        "from": "0x56fd3f2bee130e9867942d0f463a16fbe49b8d81",
        "to": "0xe8148b4e27e4136980d39abfb64be7e434b025e6",
        "gas": "0xb6d7",
        "value": "0x0",
        "input": "0x0f3d249d000000000000000000000000000000000000000000000000001b6f2007391caa0000000000000000000000000000000000000000000000000000000068b9b322",
        "nonce": "0x4a1",
        "chainId": "0xaa044c"
      },
      "additionalContracts": [],
      "isFixedGasLimit": false
    },
    {
      "hash": "0x41ea64f5894197b322c633b8755f968a7dc7f39e9ac0f6f598f197fdbef7c3a1",
      "transactionType": "CALL",
      "contractName": null,
      "contractAddress": "0xeef88fed534b0b25000e8667cd30740e00fd3cd2",
      "function": "setExternalProvider(address)",
      "arguments": [
        "0xabcdE369CDdD1665E4EbD9214b8e9a595271272C"
      ],
      "transaction": {
        "from": "0x56fd3f2bee130e9867942d0f463a16fbe49b8d81",
        "to": "0xeef88fed534b0b25000e8667cd30740e00fd3cd2",
        "gas": "0x8d36",
        "value": "0x0",
        "input": "0xe3ac8226000000000000000000000000abcde369cddd1665e4ebd9214b8e9a595271272c",
        "nonce": "0x4a2",
        "chainId": "0xaa044c"
      },
      "additionalContracts": [],
      "isFixedGasLimit": false
    },
    {
      "hash": "0x961256d0e9962912530248cd76282de49b9fa0fc31d4bd20f840b939785c5e4d",
      "transactionType": "CALL",
      "contractName": null,
      "contractAddress": "0xeef88fed534b0b25000e8667cd30740e00fd3cd2",
      "function": "report(int256,uint256)",
      "arguments": [
        "1751068",
        "1757000482"
      ],
      "transaction": {
        "from": "0x56fd3f2bee130e9867942d0f463a16fbe49b8d81",
        "to": "0xeef88fed534b0b25000e8667cd30740e00fd3cd2",
        "gas": "0xb695",
        "value": "0x0",
        "input": "0x0f3d249d00000000000000000000000000000000000000000000000000000000001ab81c0000000000000000000000000000000000000000000000000000000068b9b322",
        "nonce": "0x4a3",
        "chainId": "0xaa044c"
      },
      "additionalContracts": [],
      "isFixedGasLimit": false
    },
    {
      "hash": "0x4003c12c6bb44d31f4309c9b13f423d7964b4448a3a266e86bde90423849e5d6",
      "transactionType": "CALL",
      "contractName": null,
      "contractAddress": "0xb30d8d162f6a4d63f138b4288234fc014bcc4596",
      "function": "setExternalProvider(address)",
      "arguments": [
        "0xabcdE369CDdD1665E4EbD9214b8e9a595271272C"
      ],
      "transaction": {
        "from": "0x56fd3f2bee130e9867942d0f463a16fbe49b8d81",
        "to": "0xb30d8d162f6a4d63f138b4288234fc014bcc4596",
        "gas": "0x8d36",
        "value": "0x0",
        "input": "0xe3ac8226000000000000000000000000abcde369cddd1665e4ebd9214b8e9a595271272c",
        "nonce": "0x4a4",
        "chainId": "0xaa044c"
      },
      "additionalContracts": [],
      "isFixedGasLimit": false
    },
    {
      "hash": "0xb2bef2c9ddc1abedb95e18e85b2409d7d053068abe5a1b3e6de19e82e5d81eba",
      "transactionType": "CALL",
      "contractName": null,
      "contractAddress": "0xb30d8d162f6a4d63f138b4288234fc014bcc4596",
      "function": "report(int256,uint256)",
      "arguments": [
        "25014",
        "1757000482"
      ],
      "transaction": {
        "from": "0x56fd3f2bee130e9867942d0f463a16fbe49b8d81",
        "to": "0xb30d8d162f6a4d63f138b4288234fc014bcc4596",
        "gas": "0xb684",
        "value": "0x0",
        "input": "0x0f3d249d00000000000000000000000000000000000000000000000000000000000061b60000000000000000000000000000000000000000000000000000000068b9b322",
        "nonce": "0x4a5",
        "chainId": "0xaa044c"
      },
      "additionalContracts": [],
      "isFixedGasLimit": false
    },
    {
      "hash": "0x46a41f80aa10d31e7ce5b28f190ff3ff2b02b19844499f29cd7314da7df55851",
      "transactionType": "CALL",
      "contractName": null,
      "contractAddress": "0xf49ac847023ca5acc108cd1a89b51b844c7abbd8",
      "function": "setExternalProvider(address)",
      "arguments": [
        "0xabcdE369CDdD1665E4EbD9214b8e9a595271272C"
      ],
      "transaction": {
        "from": "0x56fd3f2bee130e9867942d0f463a16fbe49b8d81",
        "to": "0xf49ac847023ca5acc108cd1a89b51b844c7abbd8",
        "gas": "0x8d36",
        "value": "0x0",
        "input": "0xe3ac8226000000000000000000000000abcde369cddd1665e4ebd9214b8e9a595271272c",
        "nonce": "0x4a6",
        "chainId": "0xaa044c"
      },
      "additionalContracts": [],
      "isFixedGasLimit": false
    },
    {
      "hash": "0xa7baf710d8283324ff5c63571c83b467dcf961ab90d5b621149f2d07991c0c66",
      "transactionType": "CALL",
      "contractName": null,
      "contractAddress": "0xf49ac847023ca5acc108cd1a89b51b844c7abbd8",
      "function": "report(int256,uint256)",
      "arguments": [
        "8298755",
        "1757000482"
      ],
      "transaction": {
        "from": "0x56fd3f2bee130e9867942d0f463a16fbe49b8d81",
        "to": "0xf49ac847023ca5acc108cd1a89b51b844c7abbd8",
        "gas": "0xb695",
        "value": "0x0",
        "input": "0x0f3d249d00000000000000000000000000000000000000000000000000000000007ea1030000000000000000000000000000000000000000000000000000000068b9b322",
        "nonce": "0x4a7",
        "chainId": "0xaa044c"
      },
      "additionalContracts": [],
      "isFixedGasLimit": false
    },
    {
      "hash": "0x67f0ef84ee44e7c0858602d16055adfbebcaa01e4b033d911a7aaf4665999bfd",
      "transactionType": "CALL",
      "contractName": null,
      "contractAddress": "0x274c387475e9567fdd4f127364e4a1c775341855",
      "function": "setExternalProvider(address)",
      "arguments": [
        "0xabcdE369CDdD1665E4EbD9214b8e9a595271272C"
      ],
      "transaction": {
        "from": "0x56fd3f2bee130e9867942d0f463a16fbe49b8d81",
        "to": "0x274c387475e9567fdd4f127364e4a1c775341855",
        "gas": "0x8d36",
        "value": "0x0",
        "input": "0xe3ac8226000000000000000000000000abcde369cddd1665e4ebd9214b8e9a595271272c",
        "nonce": "0x4a8",
        "chainId": "0xaa044c"
      },
      "additionalContracts": [],
      "isFixedGasLimit": false
    },
    {
      "hash": "0x69100bb9799734b1f92dee700c0faaaf366888a61d5b955a7c29c3e6570526b5",
      "transactionType": "CALL",
      "contractName": null,
      "contractAddress": "0x274c387475e9567fdd4f127364e4a1c775341855",
      "function": "report(int256,uint256)",
      "arguments": [
        "134322000",
        "1757000482"
      ],
      "transaction": {
        "from": "0x56fd3f2bee130e9867942d0f463a16fbe49b8d81",
        "to": "0x274c387475e9567fdd4f127364e4a1c775341855",
        "gas": "0xb6a5",
        "value": "0x0",
        "input": "0x0f3d249d00000000000000000000000000000000000000000000000000000000080197500000000000000000000000000000000000000000000000000000000068b9b322",
        "nonce": "0x4a9",
        "chainId": "0xaa044c"
      },
      "additionalContracts": [],
      "isFixedGasLimit": false
    },
    {
      "hash": "0x14e5268cd4a2c1e5bf75658d3be1fa09f3e6159dc528fff7fa7f250cbc1bd302",
      "transactionType": "CALL",
      "contractName": null,
      "contractAddress": "0x5497ddcfca202d2c570b18c855c1ba8a5c04254a",
      "function": "setExternalProvider(address)",
      "arguments": [
        "0xabcdE369CDdD1665E4EbD9214b8e9a595271272C"
      ],
      "transaction": {
        "from": "0x56fd3f2bee130e9867942d0f463a16fbe49b8d81",
        "to": "0x5497ddcfca202d2c570b18c855c1ba8a5c04254a",
        "gas": "0x8d36",
        "value": "0x0",
        "input": "0xe3ac8226000000000000000000000000abcde369cddd1665e4ebd9214b8e9a595271272c",
        "nonce": "0x4aa",
        "chainId": "0xaa044c"
      },
      "additionalContracts": [],
      "isFixedGasLimit": false
    },
    {
      "hash": "0xcba535d4e8c31610ed9c9d3ef62449914a03d9df692a689f936f3b72ea01762c",
      "transactionType": "CALL",
      "contractName": null,
      "contractAddress": "0x5497ddcfca202d2c570b18c855c1ba8a5c04254a",
      "function": "report(int256,uint256)",
      "arguments": [
        "5624107",
        "1757000482"
      ],
      "transaction": {
        "from": "0x56fd3f2bee130e9867942d0f463a16fbe49b8d81",
        "to": "0x5497ddcfca202d2c570b18c855c1ba8a5c04254a",
        "gas": "0xb695",
        "value": "0x0",
        "input": "0x0f3d249d000000000000000000000000000000000000000000000000000000000055d12b0000000000000000000000000000000000000000000000000000000068b9b322",
        "nonce": "0x4ab",
        "chainId": "0xaa044c"
      },
      "additionalContracts": [],
      "isFixedGasLimit": false
    },
    {
      "hash": "0xa3f79f9dca062537d23ac756b8a6abb4acc855955c0197f65d15b169d9cfdb18",
      "transactionType": "CALL",
      "contractName": null,
      "contractAddress": "0xf9840e5058b6ff709c4fe20cfa0d4f05ea925f71",
      "function": "setExternalProvider(address)",
      "arguments": [
        "0xabcdE369CDdD1665E4EbD9214b8e9a595271272C"
      ],
      "transaction": {
        "from": "0x56fd3f2bee130e9867942d0f463a16fbe49b8d81",
        "to": "0xf9840e5058b6ff709c4fe20cfa0d4f05ea925f71",
        "gas": "0x8d36",
        "value": "0x0",
        "input": "0xe3ac8226000000000000000000000000abcde369cddd1665e4ebd9214b8e9a595271272c",
        "nonce": "0x4ac",
        "chainId": "0xaa044c"
      },
      "additionalContracts": [],
      "isFixedGasLimit": false
    },
    {
      "hash": "0x63ef43d2ecf25745560cff1cb6ea1872430a315161204b098eb9333b20e664ef",
      "transactionType": "CALL",
      "contractName": null,
      "contractAddress": "0xf9840e5058b6ff709c4fe20cfa0d4f05ea925f71",
      "function": "report(int256,uint256)",
      "arguments": [
        "72267389",
        "1757000482"
      ],
      "transaction": {
        "from": "0x56fd3f2bee130e9867942d0f463a16fbe49b8d81",
        "to": "0xf9840e5058b6ff709c4fe20cfa0d4f05ea925f71",
        "gas": "0xb6a5",
        "value": "0x0",
        "input": "0x0f3d249d00000000000000000000000000000000000000000000000000000000044eb67d0000000000000000000000000000000000000000000000000000000068b9b322",
        "nonce": "0x4ad",
        "chainId": "0xaa044c"
      },
      "additionalContracts": [],
      "isFixedGasLimit": false
    },
    {
      "hash": "0x8440903650f288dad5efb894ea0c02aefd9cb2096fe38ec64b7865d9ee2fc04f",
      "transactionType": "CALL",
      "contractName": null,
      "contractAddress": "0x82aae3609210b24902d24165db40a48db5b88f4c",
      "function": "setExternalProvider(address)",
      "arguments": [
        "0xabcdE369CDdD1665E4EbD9214b8e9a595271272C"
      ],
      "transaction": {
        "from": "0x56fd3f2bee130e9867942d0f463a16fbe49b8d81",
        "to": "0x82aae3609210b24902d24165db40a48db5b88f4c",
        "gas": "0x8d36",
        "value": "0x0",
        "input": "0xe3ac8226000000000000000000000000abcde369cddd1665e4ebd9214b8e9a595271272c",
        "nonce": "0x4ae",
        "chainId": "0xaa044c"
      },
      "additionalContracts": [],
      "isFixedGasLimit": false
    },
    {
      "hash": "0xe9731d157b446bf4bc6096b95b0e9f1f2f7d1783e9d5f4bfc17cd864bf7c571d",
      "transactionType": "CALL",
      "contractName": null,
      "contractAddress": "0x82aae3609210b24902d24165db40a48db5b88f4c",
      "function": "report(int256,uint256)",
      "arguments": [
        "65087000",
        "1757000482"
      ],
      "transaction": {
        "from": "0x56fd3f2bee130e9867942d0f463a16fbe49b8d81",
        "to": "0x82aae3609210b24902d24165db40a48db5b88f4c",
        "gas": "0xb6a5",
        "value": "0x0",
        "input": "0x0f3d249d0000000000000000000000000000000000000000000000000000000003e126180000000000000000000000000000000000000000000000000000000068b9b322",
        "nonce": "0x4af",
        "chainId": "0xaa044c"
      },
      "additionalContracts": [],
      "isFixedGasLimit": false
    },
    {
      "hash": "0x2d993601da802354513b80744dad45c03c4cf2d02b4bd547d86640d3d26a4976",
      "transactionType": "CALL",
      "contractName": null,
      "contractAddress": "0x433393112dd71f2457985bdce6966d6d4618101a",
      "function": "setExternalProvider(address)",
      "arguments": [
        "0xabcdE369CDdD1665E4EbD9214b8e9a595271272C"
      ],
      "transaction": {
        "from": "0x56fd3f2bee130e9867942d0f463a16fbe49b8d81",
        "to": "0x433393112dd71f2457985bdce6966d6d4618101a",
        "gas": "0x8d36",
        "value": "0x0",
        "input": "0xe3ac8226000000000000000000000000abcde369cddd1665e4ebd9214b8e9a595271272c",
        "nonce": "0x4b0",
        "chainId": "0xaa044c"
      },
      "additionalContracts": [],
      "isFixedGasLimit": false
    },
    {
      "hash": "0x847defcdf9bc7c2ae413fde36a5b9c00cbf2c35354f8a028d1bf749693edf624",
      "transactionType": "CALL",
      "contractName": null,
      "contractAddress": "0x433393112dd71f2457985bdce6966d6d4618101a",
      "function": "report(int256,uint256)",
      "arguments": [
        "124057165",
        "1757000482"
      ],
      "transaction": {
        "from": "0x56fd3f2bee130e9867942d0f463a16fbe49b8d81",
        "to": "0x433393112dd71f2457985bdce6966d6d4618101a",
        "gas": "0xb6a5",
        "value": "0x0",
        "input": "0x0f3d249d000000000000000000000000000000000000000000000000000000000764f64d0000000000000000000000000000000000000000000000000000000068b9b322",
        "nonce": "0x4b1",
        "chainId": "0xaa044c"
      },
      "additionalContracts": [],
      "isFixedGasLimit": false
    },
    {
      "hash": "0x9b17f6c04be1310c95270647346675fdbfeb4078fd2b9b073a7d0ea6b57f9555",
      "transactionType": "CALL",
      "contractName": null,
      "contractAddress": "0xcf0413f1a412ebf8a55dbd1c9371d9d802e8a9d4",
      "function": "setExternalProvider(address)",
      "arguments": [
        "0xabcdE369CDdD1665E4EbD9214b8e9a595271272C"
      ],
      "transaction": {
        "from": "0x56fd3f2bee130e9867942d0f463a16fbe49b8d81",
        "to": "0xcf0413f1a412ebf8a55dbd1c9371d9d802e8a9d4",
        "gas": "0x8d36",
        "value": "0x0",
        "input": "0xe3ac8226000000000000000000000000abcde369cddd1665e4ebd9214b8e9a595271272c",
        "nonce": "0x4b2",
        "chainId": "0xaa044c"
      },
      "additionalContracts": [],
      "isFixedGasLimit": false
    },
    {
      "hash": "0xbb0bcd219ef7cfb8b8d564577e5a0bfba5c48701899a54bef09c54efac4fb533",
      "transactionType": "CALL",
      "contractName": null,
      "contractAddress": "0xcf0413f1a412ebf8a55dbd1c9371d9d802e8a9d4",
      "function": "report(int256,uint256)",
      "arguments": [
        "672626",
        "1757000482"
      ],
      "transaction": {
        "from": "0x56fd3f2bee130e9867942d0f463a16fbe49b8d81",
        "to": "0xcf0413f1a412ebf8a55dbd1c9371d9d802e8a9d4",
        "gas": "0xb695",
        "value": "0x0",
        "input": "0x0f3d249d00000000000000000000000000000000000000000000000000000000000a43720000000000000000000000000000000000000000000000000000000068b9b322",
        "nonce": "0x4b3",
        "chainId": "0xaa044c"
      },
      "additionalContracts": [],
      "isFixedGasLimit": false
    },
    {
      "hash": "0x565e337130eca21063bcbeb64053a8a1ba515536cf0b4e2d2f225f53ab5d71ab",
      "transactionType": "CALL",
      "contractName": null,
      "contractAddress": "0x6ea7d1c9ee6172820879c80c44b69b549dad7088",
      "function": "setExternalProvider(address)",
      "arguments": [
        "0xabcdE369CDdD1665E4EbD9214b8e9a595271272C"
      ],
      "transaction": {
        "from": "0x56fd3f2bee130e9867942d0f463a16fbe49b8d81",
        "to": "0x6ea7d1c9ee6172820879c80c44b69b549dad7088",
        "gas": "0x8d36",
        "value": "0x0",
        "input": "0xe3ac8226000000000000000000000000abcde369cddd1665e4ebd9214b8e9a595271272c",
        "nonce": "0x4b4",
        "chainId": "0xaa044c"
      },
      "additionalContracts": [],
      "isFixedGasLimit": false
    },
    {
      "hash": "0x8ff3a1ac84c8ed03f86072b59a80c203730f5182e8cedd0495b174a6e04b2e29",
      "transactionType": "CALL",
      "contractName": null,
      "contractAddress": "0x6ea7d1c9ee6172820879c80c44b69b549dad7088",
      "function": "report(int256,uint256)",
      "arguments": [
        "655192069555190",
        "1757000482"
      ],
      "transaction": {
        "from": "0x56fd3f2bee130e9867942d0f463a16fbe49b8d81",
        "to": "0x6ea7d1c9ee6172820879c80c44b69b549dad7088",
        "gas": "0xb6d7",
        "value": "0x0",
        "input": "0x0f3d249d000000000000000000000000000000000000000000000000000253e4ca90c3f60000000000000000000000000000000000000000000000000000000068b9b322",
        "nonce": "0x4b5",
        "chainId": "0xaa044c"
      },
      "additionalContracts": [],
      "isFixedGasLimit": false
    }
  ],
  "receipts": [
    {
      "status": "0x1",
      "cumulativeGasUsed": "0x11a41",
      "logs": [],
      "logsBloom": "0x00000000000000000000000000000000000000000000000000000000000000000000000000000000000000000000000000000000000000000000000000000000000000000000000000000000000000000000000000000000000000000000000000000000000000000000000000000000000000000000000000000000000000000000000000000000000000000000000000000000000000000000000000000000000000000000000000000000000000000000000000000000000000000000000000000000000000000000000000000000000000000000000000000000000000000000000000000000000000000000000000000000000000000000000000000000",
      "type": "0x2",
      "transactionHash": "0xf81535e07b1ba08e8e24257c8f8f7d251fa1410b309812b44e7a8fd7d24d7e29",
      "transactionIndex": "0x1",
      "blockHash": "0x923e2c7d44820fca350420ff4358fef6ee1ed7796bd3b0600896854a6bd73def",
      "blockNumber": "0x38b5ba",
      "gasUsed": "0x663d",
      "effectiveGasPrice": "0x5d21dba01",
      "from": "0x56fd3f2bee130e9867942d0f463a16fbe49b8d81",
      "to": "0x938c5ad8c25259f581d09175eb8ab662ef2d86da",
      "contractAddress": null,
      "l1BaseFeeScalar": "0x0",
      "l1BlobBaseFee": "0x23",
      "l1BlobBaseFeeScalar": "0x0",
      "l1Fee": "0x0",
      "l1GasPrice": "0x2477e9",
      "l1GasUsed": "0x640"
    },
    {
      "status": "0x1",
      "cumulativeGasUsed": "0x19e7d",
      "logs": [],
      "logsBloom": "0x00000000000000000000000000000000000000000000000000000000000000000000000000000000000000000000000000000000000000000000000000000000000000000000000000000000000000000000000000000000000000000000000000000000000000000000000000000000000000000000000000000000000000000000000000000000000000000000000000000000000000000000000000000000000000000000000000000000000000000000000000000000000000000000000000000000000000000000000000000000000000000000000000000000000000000000000000000000000000000000000000000000000000000000000000000000",
      "type": "0x2",
      "transactionHash": "0xa9cc285dfbbf23c592e34691d6176478a856e056665f0831a58396d771a8ef83",
      "transactionIndex": "0x2",
      "blockHash": "0x923e2c7d44820fca350420ff4358fef6ee1ed7796bd3b0600896854a6bd73def",
      "blockNumber": "0x38b5ba",
      "gasUsed": "0x843c",
      "effectiveGasPrice": "0x5d21dba01",
      "from": "0x56fd3f2bee130e9867942d0f463a16fbe49b8d81",
      "to": "0x938c5ad8c25259f581d09175eb8ab662ef2d86da",
      "contractAddress": null,
      "l1BaseFeeScalar": "0x0",
      "l1BlobBaseFee": "0x23",
      "l1BlobBaseFeeScalar": "0x0",
      "l1Fee": "0x0",
      "l1GasPrice": "0x2477e9",
      "l1GasUsed": "0x640"
    },
    {
      "status": "0x1",
      "cumulativeGasUsed": "0x204ba",
      "logs": [],
      "logsBloom": "0x00000000000000000000000000000000000000000000000000000000000000000000000000000000000000000000000000000000000000000000000000000000000000000000000000000000000000000000000000000000000000000000000000000000000000000000000000000000000000000000000000000000000000000000000000000000000000000000000000000000000000000000000000000000000000000000000000000000000000000000000000000000000000000000000000000000000000000000000000000000000000000000000000000000000000000000000000000000000000000000000000000000000000000000000000000000",
      "type": "0x2",
      "transactionHash": "0x9b9b05594291256110e06a01d748a864b5231289eb7383d6aef8528d2ca9ddbe",
      "transactionIndex": "0x3",
      "blockHash": "0x923e2c7d44820fca350420ff4358fef6ee1ed7796bd3b0600896854a6bd73def",
      "blockNumber": "0x38b5ba",
      "gasUsed": "0x663d",
      "effectiveGasPrice": "0x5d21dba01",
      "from": "0x56fd3f2bee130e9867942d0f463a16fbe49b8d81",
      "to": "0xc28486a83b7f57e556f710b6d1e603c02d42c202",
      "contractAddress": null,
      "l1BaseFeeScalar": "0x0",
      "l1BlobBaseFee": "0x23",
      "l1BlobBaseFeeScalar": "0x0",
      "l1Fee": "0x0",
      "l1GasPrice": "0x2477e9",
      "l1GasUsed": "0x640"
    },
    {
      "status": "0x1",
      "cumulativeGasUsed": "0x288f6",
      "logs": [],
      "logsBloom": "0x00000000000000000000000000000000000000000000000000000000000000000000000000000000000000000000000000000000000000000000000000000000000000000000000000000000000000000000000000000000000000000000000000000000000000000000000000000000000000000000000000000000000000000000000000000000000000000000000000000000000000000000000000000000000000000000000000000000000000000000000000000000000000000000000000000000000000000000000000000000000000000000000000000000000000000000000000000000000000000000000000000000000000000000000000000000",
      "type": "0x2",
      "transactionHash": "0x276ec4cc9feac3ed3ba892af7e9e39e8b9ccb5643f6dbc27514d3cacbb1f07d3",
      "transactionIndex": "0x4",
      "blockHash": "0x923e2c7d44820fca350420ff4358fef6ee1ed7796bd3b0600896854a6bd73def",
      "blockNumber": "0x38b5ba",
      "gasUsed": "0x843c",
      "effectiveGasPrice": "0x5d21dba01",
      "from": "0x56fd3f2bee130e9867942d0f463a16fbe49b8d81",
      "to": "0xc28486a83b7f57e556f710b6d1e603c02d42c202",
      "contractAddress": null,
      "l1BaseFeeScalar": "0x0",
      "l1BlobBaseFee": "0x23",
      "l1BlobBaseFeeScalar": "0x0",
      "l1Fee": "0x0",
      "l1GasPrice": "0x2477e9",
      "l1GasUsed": "0x640"
    },
    {
      "status": "0x1",
      "cumulativeGasUsed": "0x2ef33",
      "logs": [],
      "logsBloom": "0x00000000000000000000000000000000000000000000000000000000000000000000000000000000000000000000000000000000000000000000000000000000000000000000000000000000000000000000000000000000000000000000000000000000000000000000000000000000000000000000000000000000000000000000000000000000000000000000000000000000000000000000000000000000000000000000000000000000000000000000000000000000000000000000000000000000000000000000000000000000000000000000000000000000000000000000000000000000000000000000000000000000000000000000000000000000",
      "type": "0x2",
      "transactionHash": "0xad0657309e79f624b1e242a8e28ecaa19ea75eb166477837ca3146135b1f03aa",
      "transactionIndex": "0x5",
      "blockHash": "0x923e2c7d44820fca350420ff4358fef6ee1ed7796bd3b0600896854a6bd73def",
      "blockNumber": "0x38b5ba",
      "gasUsed": "0x663d",
      "effectiveGasPrice": "0x5d21dba01",
      "from": "0x56fd3f2bee130e9867942d0f463a16fbe49b8d81",
      "to": "0xd06068261abda6014666ad24c4d0fbe5eeba610f",
      "contractAddress": null,
      "l1BaseFeeScalar": "0x0",
      "l1BlobBaseFee": "0x23",
      "l1BlobBaseFeeScalar": "0x0",
      "l1Fee": "0x0",
      "l1GasPrice": "0x2477e9",
      "l1GasUsed": "0x640"
    },
    {
      "status": "0x1",
      "cumulativeGasUsed": "0x3736f",
      "logs": [],
      "logsBloom": "0x00000000000000000000000000000000000000000000000000000000000000000000000000000000000000000000000000000000000000000000000000000000000000000000000000000000000000000000000000000000000000000000000000000000000000000000000000000000000000000000000000000000000000000000000000000000000000000000000000000000000000000000000000000000000000000000000000000000000000000000000000000000000000000000000000000000000000000000000000000000000000000000000000000000000000000000000000000000000000000000000000000000000000000000000000000000",
      "type": "0x2",
      "transactionHash": "0x24d400951c727f6aa3e88c5028a445c6706958932929d22c1071a88ee5c7f358",
      "transactionIndex": "0x6",
      "blockHash": "0x923e2c7d44820fca350420ff4358fef6ee1ed7796bd3b0600896854a6bd73def",
      "blockNumber": "0x38b5ba",
      "gasUsed": "0x843c",
      "effectiveGasPrice": "0x5d21dba01",
      "from": "0x56fd3f2bee130e9867942d0f463a16fbe49b8d81",
      "to": "0xd06068261abda6014666ad24c4d0fbe5eeba610f",
      "contractAddress": null,
      "l1BaseFeeScalar": "0x0",
      "l1BlobBaseFee": "0x23",
      "l1BlobBaseFeeScalar": "0x0",
      "l1Fee": "0x0",
      "l1GasPrice": "0x2477e9",
      "l1GasUsed": "0x640"
    },
    {
      "status": "0x1",
      "cumulativeGasUsed": "0x3d9ac",
      "logs": [],
      "logsBloom": "0x00000000000000000000000000000000000000000000000000000000000000000000000000000000000000000000000000000000000000000000000000000000000000000000000000000000000000000000000000000000000000000000000000000000000000000000000000000000000000000000000000000000000000000000000000000000000000000000000000000000000000000000000000000000000000000000000000000000000000000000000000000000000000000000000000000000000000000000000000000000000000000000000000000000000000000000000000000000000000000000000000000000000000000000000000000000",
      "type": "0x2",
      "transactionHash": "0x1343ab9c4074631df48999b578df2b1966d4d12ccf6dd1726384d74eb0ea7723",
      "transactionIndex": "0x7",
      "blockHash": "0x923e2c7d44820fca350420ff4358fef6ee1ed7796bd3b0600896854a6bd73def",
      "blockNumber": "0x38b5ba",
      "gasUsed": "0x663d",
      "effectiveGasPrice": "0x5d21dba01",
      "from": "0x56fd3f2bee130e9867942d0f463a16fbe49b8d81",
      "to": "0x53637ee07fa3c04eb12a2aaa632c06a657178ebc",
      "contractAddress": null,
      "l1BaseFeeScalar": "0x0",
      "l1BlobBaseFee": "0x23",
      "l1BlobBaseFeeScalar": "0x0",
      "l1Fee": "0x0",
      "l1GasPrice": "0x2477e9",
      "l1GasUsed": "0x640"
    },
    {
      "status": "0x1",
      "cumulativeGasUsed": "0x45de8",
      "logs": [],
      "logsBloom": "0x00000000000000000000000000000000000000000000000000000000000000000000000000000000000000000000000000000000000000000000000000000000000000000000000000000000000000000000000000000000000000000000000000000000000000000000000000000000000000000000000000000000000000000000000000000000000000000000000000000000000000000000000000000000000000000000000000000000000000000000000000000000000000000000000000000000000000000000000000000000000000000000000000000000000000000000000000000000000000000000000000000000000000000000000000000000",
      "type": "0x2",
      "transactionHash": "0xa7b3785fc510f91118456bced69473c328443d35f1fabad25b6db284008c2f48",
      "transactionIndex": "0x8",
      "blockHash": "0x923e2c7d44820fca350420ff4358fef6ee1ed7796bd3b0600896854a6bd73def",
      "blockNumber": "0x38b5ba",
      "gasUsed": "0x843c",
      "effectiveGasPrice": "0x5d21dba01",
      "from": "0x56fd3f2bee130e9867942d0f463a16fbe49b8d81",
      "to": "0x53637ee07fa3c04eb12a2aaa632c06a657178ebc",
      "contractAddress": null,
      "l1BaseFeeScalar": "0x0",
      "l1BlobBaseFee": "0x23",
      "l1BlobBaseFeeScalar": "0x0",
      "l1Fee": "0x0",
      "l1GasPrice": "0x2477e9",
      "l1GasUsed": "0x640"
    },
    {
      "status": "0x1",
      "cumulativeGasUsed": "0xc529a",
      "logs": [
        {
          "address": "0xba5ed099633d3b313e4d5f7bdc1305d3c28ba5ed",
          "topics": [
            "0x2feea65dd4e9f9cbd86b74b7734210c59a1b2981b5b137bd0ee3e208200c9067",
            "0x000000000000000000000000e6016609e06d8187aa31981b5c76907587c597ac",
            "0xacc6024eae9869d6468ad5f2bcd30317b586cbebf4f207c6a1e9b93549a08e63"
          ],
          "data": "0x",
          "blockHash": "0x923e2c7d44820fca350420ff4358fef6ee1ed7796bd3b0600896854a6bd73def",
          "blockNumber": "0x38b5ba",
          "transactionHash": "0xa61ffb92b375fd3d1d03b180be19e2fd6503227a567fe1b686f661f22fda5db8",
          "transactionIndex": "0x9",
          "logIndex": "0x0",
          "removed": false
        },
        {
          "address": "0xfd4bef0c73635d0bbfff57ed1e987374bee2252d",
          "topics": [
            "0x8be0079c531659141344cd1fd0a4f28419497f9722a3daafe3b4186f6b6457e0",
            "0x0000000000000000000000000000000000000000000000000000000000000000",
            "0x00000000000000000000000056fd3f2bee130e9867942d0f463a16fbe49b8d81"
          ],
          "data": "0x",
          "blockHash": "0x923e2c7d44820fca350420ff4358fef6ee1ed7796bd3b0600896854a6bd73def",
          "blockNumber": "0x38b5ba",
          "transactionHash": "0xa61ffb92b375fd3d1d03b180be19e2fd6503227a567fe1b686f661f22fda5db8",
          "transactionIndex": "0x9",
          "logIndex": "0x1",
          "removed": false
        },
        {
          "address": "0xba5ed099633d3b313e4d5f7bdc1305d3c28ba5ed",
          "topics": [
            "0x4db17dd5e4732fb6da34a148104a592783ca119a1e7bb8829eba6cbadef0b511",
            "0x000000000000000000000000fd4bef0c73635d0bbfff57ed1e987374bee2252d"
          ],
          "data": "0x",
          "blockHash": "0x923e2c7d44820fca350420ff4358fef6ee1ed7796bd3b0600896854a6bd73def",
          "blockNumber": "0x38b5ba",
          "transactionHash": "0xa61ffb92b375fd3d1d03b180be19e2fd6503227a567fe1b686f661f22fda5db8",
          "transactionIndex": "0x9",
          "logIndex": "0x2",
          "removed": false
        }
      ],
      "logsBloom": "0x00020000000000000000000000000000000000000008000020800000200400000000000000000000000000000000010000000000000004000000000000400000000000000000000000000000020000000005000000000000000000000000000000000000120000000000000000000800000000000020000000000000008002400000000010000000000000000000000000000000000000000000004000000000000000000000000000000000000000000000010000000000000000000000000000000000000000002200000000000000000000002000000000000000000020000004000000000200000000000000000040000000000000000000000000000000",
      "type": "0x2",
      "transactionHash": "0xa61ffb92b375fd3d1d03b180be19e2fd6503227a567fe1b686f661f22fda5db8",
      "transactionIndex": "0x9",
      "blockHash": "0x923e2c7d44820fca350420ff4358fef6ee1ed7796bd3b0600896854a6bd73def",
      "blockNumber": "0x38b5ba",
      "gasUsed": "0x7f4b2",
      "effectiveGasPrice": "0x5d21dba01",
      "from": "0x56fd3f2bee130e9867942d0f463a16fbe49b8d81",
      "to": "0xba5ed099633d3b313e4d5f7bdc1305d3c28ba5ed",
      "contractAddress": null,
      "l1BaseFeeScalar": "0x0",
      "l1BlobBaseFee": "0x23",
      "l1BlobBaseFeeScalar": "0x0",
      "l1Fee": "0x0",
      "l1GasPrice": "0x2477e9",
      "l1GasUsed": "0x6447"
    },
    {
      "status": "0x1",
      "cumulativeGasUsed": "0xd0693",
      "logs": [],
      "logsBloom": "0x00000000000000000000000000000000000000000000000000000000000000000000000000000000000000000000000000000000000000000000000000000000000000000000000000000000000000000000000000000000000000000000000000000000000000000000000000000000000000000000000000000000000000000000000000000000000000000000000000000000000000000000000000000000000000000000000000000000000000000000000000000000000000000000000000000000000000000000000000000000000000000000000000000000000000000000000000000000000000000000000000000000000000000000000000000000",
      "type": "0x2",
      "transactionHash": "0xca271e54c23c5b2469453b65fc489543cbc22729d1186b1d953f4e6e611c8c00",
      "transactionIndex": "0xa",
      "blockHash": "0x923e2c7d44820fca350420ff4358fef6ee1ed7796bd3b0600896854a6bd73def",
      "blockNumber": "0x38b5ba",
      "gasUsed": "0xb3f9",
      "effectiveGasPrice": "0x5d21dba01",
      "from": "0x56fd3f2bee130e9867942d0f463a16fbe49b8d81",
      "to": "0xfd4bef0c73635d0bbfff57ed1e987374bee2252d",
      "contractAddress": null,
      "l1BaseFeeScalar": "0x0",
      "l1BlobBaseFee": "0x23",
      "l1BlobBaseFeeScalar": "0x0",
      "l1Fee": "0x0",
      "l1GasPrice": "0x2477e9",
      "l1GasUsed": "0x640"
    },
    {
      "status": "0x1",
      "cumulativeGasUsed": "0xe1073",
      "logs": [],
      "logsBloom": "0x00000000000000000000000000000000000000000000000000000000000000000000000000000000000000000000000000000000000000000000000000000000000000000000000000000000000000000000000000000000000000000000000000000000000000000000000000000000000000000000000000000000000000000000000000000000000000000000000000000000000000000000000000000000000000000000000000000000000000000000000000000000000000000000000000000000000000000000000000000000000000000000000000000000000000000000000000000000000000000000000000000000000000000000000000000000",
      "type": "0x2",
      "transactionHash": "0xd12e3d7c7bba142291b5e0f9edc8da634c4baf38ee04c6d912d27c0531a91d13",
      "transactionIndex": "0xb",
      "blockHash": "0x923e2c7d44820fca350420ff4358fef6ee1ed7796bd3b0600896854a6bd73def",
      "blockNumber": "0x38b5ba",
      "gasUsed": "0x109e0",
      "effectiveGasPrice": "0x5d21dba01",
      "from": "0x56fd3f2bee130e9867942d0f463a16fbe49b8d81",
      "to": "0xfd4bef0c73635d0bbfff57ed1e987374bee2252d",
      "contractAddress": null,
      "l1BaseFeeScalar": "0x0",
      "l1BlobBaseFee": "0x23",
      "l1BlobBaseFeeScalar": "0x0",
      "l1Fee": "0x0",
      "l1GasPrice": "0x2477e9",
      "l1GasUsed": "0x640"
    },
    {
      "status": "0x1",
      "cumulativeGasUsed": "0x11a41",
      "logs": [],
      "logsBloom": "0x00000000000000000000000000000000000000000000000000000000000000000000000000000000000000000000000000000000000000000000000000000000000000000000000000000000000000000000000000000000000000000000000000000000000000000000000000000000000000000000000000000000000000000000000000000000000000000000000000000000000000000000000000000000000000000000000000000000000000000000000000000000000000000000000000000000000000000000000000000000000000000000000000000000000000000000000000000000000000000000000000000000000000000000000000000000",
      "type": "0x2",
      "transactionHash": "0x6ebf0b32c8489d3d451c37e2e5fd3b41934ffe7b8c3ed728e1a14b1966c2877f",
      "transactionIndex": "0x1",
      "blockHash": "0xd5bce592fb532c504d513e6d34f46123463b0494c7515a48505f78a96ea0f6d6",
      "blockNumber": "0x38b5bb",
      "gasUsed": "0x663d",
      "effectiveGasPrice": "0x5d21dba01",
      "from": "0x56fd3f2bee130e9867942d0f463a16fbe49b8d81",
      "to": "0xa3976ebf31f404d6ae5741727e28ef04c54705bc",
      "contractAddress": null,
      "l1BaseFeeScalar": "0x0",
      "l1BlobBaseFee": "0x23",
      "l1BlobBaseFeeScalar": "0x0",
      "l1Fee": "0x0",
      "l1GasPrice": "0x2477e9",
      "l1GasUsed": "0x640"
    },
    {
      "status": "0x1",
      "cumulativeGasUsed": "0x19e7d",
      "logs": [],
      "logsBloom": "0x00000000000000000000000000000000000000000000000000000000000000000000000000000000000000000000000000000000000000000000000000000000000000000000000000000000000000000000000000000000000000000000000000000000000000000000000000000000000000000000000000000000000000000000000000000000000000000000000000000000000000000000000000000000000000000000000000000000000000000000000000000000000000000000000000000000000000000000000000000000000000000000000000000000000000000000000000000000000000000000000000000000000000000000000000000000",
      "type": "0x2",
      "transactionHash": "0x96e9cf37f83d39599ca763cf1f883e3384f220d9d78d9422232560304e597033",
      "transactionIndex": "0x2",
      "blockHash": "0xd5bce592fb532c504d513e6d34f46123463b0494c7515a48505f78a96ea0f6d6",
      "blockNumber": "0x38b5bb",
      "gasUsed": "0x843c",
      "effectiveGasPrice": "0x5d21dba01",
      "from": "0x56fd3f2bee130e9867942d0f463a16fbe49b8d81",
      "to": "0xa3976ebf31f404d6ae5741727e28ef04c54705bc",
      "contractAddress": null,
      "l1BaseFeeScalar": "0x0",
      "l1BlobBaseFee": "0x23",
      "l1BlobBaseFeeScalar": "0x0",
      "l1Fee": "0x0",
      "l1GasPrice": "0x2477e9",
      "l1GasUsed": "0x640"
    },
    {
      "status": "0x1",
      "cumulativeGasUsed": "0x204ba",
      "logs": [],
      "logsBloom": "0x00000000000000000000000000000000000000000000000000000000000000000000000000000000000000000000000000000000000000000000000000000000000000000000000000000000000000000000000000000000000000000000000000000000000000000000000000000000000000000000000000000000000000000000000000000000000000000000000000000000000000000000000000000000000000000000000000000000000000000000000000000000000000000000000000000000000000000000000000000000000000000000000000000000000000000000000000000000000000000000000000000000000000000000000000000000",
      "type": "0x2",
      "transactionHash": "0x6847780c708a54e20a081c5c8009b65930df7f7b79e3a518548e4619ed42af96",
      "transactionIndex": "0x3",
      "blockHash": "0xd5bce592fb532c504d513e6d34f46123463b0494c7515a48505f78a96ea0f6d6",
      "blockNumber": "0x38b5bb",
      "gasUsed": "0x663d",
      "effectiveGasPrice": "0x5d21dba01",
      "from": "0x56fd3f2bee130e9867942d0f463a16fbe49b8d81",
      "to": "0x970be29cd19a3fb5941f7bb63d4fd9c9f2bed570",
      "contractAddress": null,
      "l1BaseFeeScalar": "0x0",
      "l1BlobBaseFee": "0x23",
      "l1BlobBaseFeeScalar": "0x0",
      "l1Fee": "0x0",
      "l1GasPrice": "0x2477e9",
      "l1GasUsed": "0x640"
    },
    {
      "status": "0x1",
      "cumulativeGasUsed": "0x288f6",
      "logs": [],
      "logsBloom": "0x00000000000000000000000000000000000000000000000000000000000000000000000000000000000000000000000000000000000000000000000000000000000000000000000000000000000000000000000000000000000000000000000000000000000000000000000000000000000000000000000000000000000000000000000000000000000000000000000000000000000000000000000000000000000000000000000000000000000000000000000000000000000000000000000000000000000000000000000000000000000000000000000000000000000000000000000000000000000000000000000000000000000000000000000000000000",
      "type": "0x2",
      "transactionHash": "0x9c07c72ed8ecb75cd931d087c4c06c335abe5f53a5a0f1dcbe3b13947210795e",
      "transactionIndex": "0x4",
      "blockHash": "0xd5bce592fb532c504d513e6d34f46123463b0494c7515a48505f78a96ea0f6d6",
      "blockNumber": "0x38b5bb",
      "gasUsed": "0x843c",
      "effectiveGasPrice": "0x5d21dba01",
      "from": "0x56fd3f2bee130e9867942d0f463a16fbe49b8d81",
      "to": "0x970be29cd19a3fb5941f7bb63d4fd9c9f2bed570",
      "contractAddress": null,
      "l1BaseFeeScalar": "0x0",
      "l1BlobBaseFee": "0x23",
      "l1BlobBaseFeeScalar": "0x0",
      "l1Fee": "0x0",
      "l1GasPrice": "0x2477e9",
      "l1GasUsed": "0x640"
    },
    {
      "status": "0x1",
      "cumulativeGasUsed": "0x2ef33",
      "logs": [],
      "logsBloom": "0x00000000000000000000000000000000000000000000000000000000000000000000000000000000000000000000000000000000000000000000000000000000000000000000000000000000000000000000000000000000000000000000000000000000000000000000000000000000000000000000000000000000000000000000000000000000000000000000000000000000000000000000000000000000000000000000000000000000000000000000000000000000000000000000000000000000000000000000000000000000000000000000000000000000000000000000000000000000000000000000000000000000000000000000000000000000",
      "type": "0x2",
      "transactionHash": "0xc5f7a22e6cdbeb009b963ab8d00086c7cf9874dc7a078c91fa2c73944e85c5a6",
      "transactionIndex": "0x5",
      "blockHash": "0xd5bce592fb532c504d513e6d34f46123463b0494c7515a48505f78a96ea0f6d6",
      "blockNumber": "0x38b5bb",
      "gasUsed": "0x663d",
      "effectiveGasPrice": "0x5d21dba01",
      "from": "0x56fd3f2bee130e9867942d0f463a16fbe49b8d81",
      "to": "0x412367045452edff6e6d382b711e8f7e678db3df",
      "contractAddress": null,
      "l1BaseFeeScalar": "0x0",
      "l1BlobBaseFee": "0x23",
      "l1BlobBaseFeeScalar": "0x0",
      "l1Fee": "0x0",
      "l1GasPrice": "0x2477e9",
      "l1GasUsed": "0x640"
    },
    {
      "status": "0x1",
      "cumulativeGasUsed": "0x37393",
      "logs": [],
      "logsBloom": "0x00000000000000000000000000000000000000000000000000000000000000000000000000000000000000000000000000000000000000000000000000000000000000000000000000000000000000000000000000000000000000000000000000000000000000000000000000000000000000000000000000000000000000000000000000000000000000000000000000000000000000000000000000000000000000000000000000000000000000000000000000000000000000000000000000000000000000000000000000000000000000000000000000000000000000000000000000000000000000000000000000000000000000000000000000000000",
      "type": "0x2",
      "transactionHash": "0xf46fa9f59944139e3dd60289484204adc729e8479e0f76cd04e5bd083b0e216e",
      "transactionIndex": "0x6",
      "blockHash": "0xd5bce592fb532c504d513e6d34f46123463b0494c7515a48505f78a96ea0f6d6",
      "blockNumber": "0x38b5bb",
      "gasUsed": "0x8460",
      "effectiveGasPrice": "0x5d21dba01",
      "from": "0x56fd3f2bee130e9867942d0f463a16fbe49b8d81",
      "to": "0x412367045452edff6e6d382b711e8f7e678db3df",
      "contractAddress": null,
      "l1BaseFeeScalar": "0x0",
      "l1BlobBaseFee": "0x23",
      "l1BlobBaseFeeScalar": "0x0",
      "l1Fee": "0x0",
      "l1GasPrice": "0x2477e9",
      "l1GasUsed": "0x640"
    },
    {
      "status": "0x1",
      "cumulativeGasUsed": "0x3d9d0",
      "logs": [],
      "logsBloom": "0x00000000000000000000000000000000000000000000000000000000000000000000000000000000000000000000000000000000000000000000000000000000000000000000000000000000000000000000000000000000000000000000000000000000000000000000000000000000000000000000000000000000000000000000000000000000000000000000000000000000000000000000000000000000000000000000000000000000000000000000000000000000000000000000000000000000000000000000000000000000000000000000000000000000000000000000000000000000000000000000000000000000000000000000000000000000",
      "type": "0x2",
      "transactionHash": "0x1e65cdae04d3037a4f3d8f96dc6ce8c46eab96b2ec5264b8f5fcf20ee6c04ad1",
      "transactionIndex": "0x7",
      "blockHash": "0xd5bce592fb532c504d513e6d34f46123463b0494c7515a48505f78a96ea0f6d6",
      "blockNumber": "0x38b5bb",
      "gasUsed": "0x663d",
      "effectiveGasPrice": "0x5d21dba01",
      "from": "0x56fd3f2bee130e9867942d0f463a16fbe49b8d81",
      "to": "0xe8148b4e27e4136980d39abfb64be7e434b025e6",
      "contractAddress": null,
      "l1BaseFeeScalar": "0x0",
      "l1BlobBaseFee": "0x23",
      "l1BlobBaseFeeScalar": "0x0",
      "l1Fee": "0x0",
      "l1GasPrice": "0x2477e9",
      "l1GasUsed": "0x640"
    },
    {
      "status": "0x1",
      "cumulativeGasUsed": "0x45e30",
      "logs": [],
      "logsBloom": "0x00000000000000000000000000000000000000000000000000000000000000000000000000000000000000000000000000000000000000000000000000000000000000000000000000000000000000000000000000000000000000000000000000000000000000000000000000000000000000000000000000000000000000000000000000000000000000000000000000000000000000000000000000000000000000000000000000000000000000000000000000000000000000000000000000000000000000000000000000000000000000000000000000000000000000000000000000000000000000000000000000000000000000000000000000000000",
      "type": "0x2",
      "transactionHash": "0x06cf20482fe5c69bcf8fd9121918627e20f2e294a45b1a6fe465dcb3d9252e2a",
      "transactionIndex": "0x8",
      "blockHash": "0xd5bce592fb532c504d513e6d34f46123463b0494c7515a48505f78a96ea0f6d6",
      "blockNumber": "0x38b5bb",
      "gasUsed": "0x8460",
      "effectiveGasPrice": "0x5d21dba01",
      "from": "0x56fd3f2bee130e9867942d0f463a16fbe49b8d81",
      "to": "0xe8148b4e27e4136980d39abfb64be7e434b025e6",
      "contractAddress": null,
      "l1BaseFeeScalar": "0x0",
      "l1BlobBaseFee": "0x23",
      "l1BlobBaseFeeScalar": "0x0",
      "l1Fee": "0x0",
      "l1GasPrice": "0x2477e9",
      "l1GasUsed": "0x640"
    },
    {
      "status": "0x1",
      "cumulativeGasUsed": "0x4c46d",
      "logs": [],
      "logsBloom": "0x00000000000000000000000000000000000000000000000000000000000000000000000000000000000000000000000000000000000000000000000000000000000000000000000000000000000000000000000000000000000000000000000000000000000000000000000000000000000000000000000000000000000000000000000000000000000000000000000000000000000000000000000000000000000000000000000000000000000000000000000000000000000000000000000000000000000000000000000000000000000000000000000000000000000000000000000000000000000000000000000000000000000000000000000000000000",
      "type": "0x2",
      "transactionHash": "0x41ea64f5894197b322c633b8755f968a7dc7f39e9ac0f6f598f197fdbef7c3a1",
      "transactionIndex": "0x9",
      "blockHash": "0xd5bce592fb532c504d513e6d34f46123463b0494c7515a48505f78a96ea0f6d6",
      "blockNumber": "0x38b5bb",
      "gasUsed": "0x663d",
      "effectiveGasPrice": "0x5d21dba01",
      "from": "0x56fd3f2bee130e9867942d0f463a16fbe49b8d81",
      "to": "0xeef88fed534b0b25000e8667cd30740e00fd3cd2",
      "contractAddress": null,
      "l1BaseFeeScalar": "0x0",
      "l1BlobBaseFee": "0x23",
      "l1BlobBaseFeeScalar": "0x0",
      "l1Fee": "0x0",
      "l1GasPrice": "0x2477e9",
      "l1GasUsed": "0x640"
    },
    {
      "status": "0x1",
      "cumulativeGasUsed": "0x5489d",
      "logs": [],
      "logsBloom": "0x00000000000000000000000000000000000000000000000000000000000000000000000000000000000000000000000000000000000000000000000000000000000000000000000000000000000000000000000000000000000000000000000000000000000000000000000000000000000000000000000000000000000000000000000000000000000000000000000000000000000000000000000000000000000000000000000000000000000000000000000000000000000000000000000000000000000000000000000000000000000000000000000000000000000000000000000000000000000000000000000000000000000000000000000000000000",
      "type": "0x2",
      "transactionHash": "0x961256d0e9962912530248cd76282de49b9fa0fc31d4bd20f840b939785c5e4d",
      "transactionIndex": "0xa",
      "blockHash": "0xd5bce592fb532c504d513e6d34f46123463b0494c7515a48505f78a96ea0f6d6",
      "blockNumber": "0x38b5bb",
      "gasUsed": "0x8430",
      "effectiveGasPrice": "0x5d21dba01",
      "from": "0x56fd3f2bee130e9867942d0f463a16fbe49b8d81",
      "to": "0xeef88fed534b0b25000e8667cd30740e00fd3cd2",
      "contractAddress": null,
      "l1BaseFeeScalar": "0x0",
      "l1BlobBaseFee": "0x23",
      "l1BlobBaseFeeScalar": "0x0",
      "l1Fee": "0x0",
      "l1GasPrice": "0x2477e9",
      "l1GasUsed": "0x640"
    },
    {
      "status": "0x1",
      "cumulativeGasUsed": "0x5aeda",
      "logs": [],
      "logsBloom": "0x00000000000000000000000000000000000000000000000000000000000000000000000000000000000000000000000000000000000000000000000000000000000000000000000000000000000000000000000000000000000000000000000000000000000000000000000000000000000000000000000000000000000000000000000000000000000000000000000000000000000000000000000000000000000000000000000000000000000000000000000000000000000000000000000000000000000000000000000000000000000000000000000000000000000000000000000000000000000000000000000000000000000000000000000000000000",
      "type": "0x2",
      "transactionHash": "0x4003c12c6bb44d31f4309c9b13f423d7964b4448a3a266e86bde90423849e5d6",
      "transactionIndex": "0xb",
      "blockHash": "0xd5bce592fb532c504d513e6d34f46123463b0494c7515a48505f78a96ea0f6d6",
      "blockNumber": "0x38b5bb",
      "gasUsed": "0x663d",
      "effectiveGasPrice": "0x5d21dba01",
      "from": "0x56fd3f2bee130e9867942d0f463a16fbe49b8d81",
      "to": "0xb30d8d162f6a4d63f138b4288234fc014bcc4596",
      "contractAddress": null,
      "l1BaseFeeScalar": "0x0",
      "l1BlobBaseFee": "0x23",
      "l1BlobBaseFeeScalar": "0x0",
      "l1Fee": "0x0",
      "l1GasPrice": "0x2477e9",
      "l1GasUsed": "0x640"
    },
    {
      "status": "0x1",
      "cumulativeGasUsed": "0x632fe",
      "logs": [],
      "logsBloom": "0x00000000000000000000000000000000000000000000000000000000000000000000000000000000000000000000000000000000000000000000000000000000000000000000000000000000000000000000000000000000000000000000000000000000000000000000000000000000000000000000000000000000000000000000000000000000000000000000000000000000000000000000000000000000000000000000000000000000000000000000000000000000000000000000000000000000000000000000000000000000000000000000000000000000000000000000000000000000000000000000000000000000000000000000000000000000",
      "type": "0x2",
      "transactionHash": "0xb2bef2c9ddc1abedb95e18e85b2409d7d053068abe5a1b3e6de19e82e5d81eba",
      "transactionIndex": "0xc",
      "blockHash": "0xd5bce592fb532c504d513e6d34f46123463b0494c7515a48505f78a96ea0f6d6",
      "blockNumber": "0x38b5bb",
      "gasUsed": "0x8424",
      "effectiveGasPrice": "0x5d21dba01",
      "from": "0x56fd3f2bee130e9867942d0f463a16fbe49b8d81",
      "to": "0xb30d8d162f6a4d63f138b4288234fc014bcc4596",
      "contractAddress": null,
      "l1BaseFeeScalar": "0x0",
      "l1BlobBaseFee": "0x23",
      "l1BlobBaseFeeScalar": "0x0",
      "l1Fee": "0x0",
      "l1GasPrice": "0x2477e9",
      "l1GasUsed": "0x640"
    },
    {
      "status": "0x1",
      "cumulativeGasUsed": "0x6993b",
      "logs": [],
      "logsBloom": "0x00000000000000000000000000000000000000000000000000000000000000000000000000000000000000000000000000000000000000000000000000000000000000000000000000000000000000000000000000000000000000000000000000000000000000000000000000000000000000000000000000000000000000000000000000000000000000000000000000000000000000000000000000000000000000000000000000000000000000000000000000000000000000000000000000000000000000000000000000000000000000000000000000000000000000000000000000000000000000000000000000000000000000000000000000000000",
      "type": "0x2",
      "transactionHash": "0x46a41f80aa10d31e7ce5b28f190ff3ff2b02b19844499f29cd7314da7df55851",
      "transactionIndex": "0xd",
      "blockHash": "0xd5bce592fb532c504d513e6d34f46123463b0494c7515a48505f78a96ea0f6d6",
      "blockNumber": "0x38b5bb",
      "gasUsed": "0x663d",
      "effectiveGasPrice": "0x5d21dba01",
      "from": "0x56fd3f2bee130e9867942d0f463a16fbe49b8d81",
      "to": "0xf49ac847023ca5acc108cd1a89b51b844c7abbd8",
      "contractAddress": null,
      "l1BaseFeeScalar": "0x0",
      "l1BlobBaseFee": "0x23",
      "l1BlobBaseFeeScalar": "0x0",
      "l1Fee": "0x0",
      "l1GasPrice": "0x2477e9",
      "l1GasUsed": "0x640"
    },
    {
      "status": "0x1",
      "cumulativeGasUsed": "0x71d6b",
      "logs": [],
      "logsBloom": "0x00000000000000000000000000000000000000000000000000000000000000000000000000000000000000000000000000000000000000000000000000000000000000000000000000000000000000000000000000000000000000000000000000000000000000000000000000000000000000000000000000000000000000000000000000000000000000000000000000000000000000000000000000000000000000000000000000000000000000000000000000000000000000000000000000000000000000000000000000000000000000000000000000000000000000000000000000000000000000000000000000000000000000000000000000000000",
      "type": "0x2",
      "transactionHash": "0xa7baf710d8283324ff5c63571c83b467dcf961ab90d5b621149f2d07991c0c66",
      "transactionIndex": "0xe",
      "blockHash": "0xd5bce592fb532c504d513e6d34f46123463b0494c7515a48505f78a96ea0f6d6",
      "blockNumber": "0x38b5bb",
      "gasUsed": "0x8430",
      "effectiveGasPrice": "0x5d21dba01",
      "from": "0x56fd3f2bee130e9867942d0f463a16fbe49b8d81",
      "to": "0xf49ac847023ca5acc108cd1a89b51b844c7abbd8",
      "contractAddress": null,
      "l1BaseFeeScalar": "0x0",
      "l1BlobBaseFee": "0x23",
      "l1BlobBaseFeeScalar": "0x0",
      "l1Fee": "0x0",
      "l1GasPrice": "0x2477e9",
      "l1GasUsed": "0x640"
    },
    {
      "status": "0x1",
      "cumulativeGasUsed": "0x783a8",
      "logs": [],
      "logsBloom": "0x00000000000000000000000000000000000000000000000000000000000000000000000000000000000000000000000000000000000000000000000000000000000000000000000000000000000000000000000000000000000000000000000000000000000000000000000000000000000000000000000000000000000000000000000000000000000000000000000000000000000000000000000000000000000000000000000000000000000000000000000000000000000000000000000000000000000000000000000000000000000000000000000000000000000000000000000000000000000000000000000000000000000000000000000000000000",
      "type": "0x2",
      "transactionHash": "0x67f0ef84ee44e7c0858602d16055adfbebcaa01e4b033d911a7aaf4665999bfd",
      "transactionIndex": "0xf",
      "blockHash": "0xd5bce592fb532c504d513e6d34f46123463b0494c7515a48505f78a96ea0f6d6",
      "blockNumber": "0x38b5bb",
      "gasUsed": "0x663d",
      "effectiveGasPrice": "0x5d21dba01",
      "from": "0x56fd3f2bee130e9867942d0f463a16fbe49b8d81",
      "to": "0x274c387475e9567fdd4f127364e4a1c775341855",
      "contractAddress": null,
      "l1BaseFeeScalar": "0x0",
      "l1BlobBaseFee": "0x23",
      "l1BlobBaseFeeScalar": "0x0",
      "l1Fee": "0x0",
      "l1GasPrice": "0x2477e9",
      "l1GasUsed": "0x640"
    },
    {
      "status": "0x1",
      "cumulativeGasUsed": "0x807e4",
      "logs": [],
      "logsBloom": "0x00000000000000000000000000000000000000000000000000000000000000000000000000000000000000000000000000000000000000000000000000000000000000000000000000000000000000000000000000000000000000000000000000000000000000000000000000000000000000000000000000000000000000000000000000000000000000000000000000000000000000000000000000000000000000000000000000000000000000000000000000000000000000000000000000000000000000000000000000000000000000000000000000000000000000000000000000000000000000000000000000000000000000000000000000000000",
      "type": "0x2",
      "transactionHash": "0x69100bb9799734b1f92dee700c0faaaf366888a61d5b955a7c29c3e6570526b5",
      "transactionIndex": "0x10",
      "blockHash": "0xd5bce592fb532c504d513e6d34f46123463b0494c7515a48505f78a96ea0f6d6",
      "blockNumber": "0x38b5bb",
      "gasUsed": "0x843c",
      "effectiveGasPrice": "0x5d21dba01",
      "from": "0x56fd3f2bee130e9867942d0f463a16fbe49b8d81",
      "to": "0x274c387475e9567fdd4f127364e4a1c775341855",
      "contractAddress": null,
      "l1BaseFeeScalar": "0x0",
      "l1BlobBaseFee": "0x23",
      "l1BlobBaseFeeScalar": "0x0",
      "l1Fee": "0x0",
      "l1GasPrice": "0x2477e9",
      "l1GasUsed": "0x640"
    },
    {
      "status": "0x1",
      "cumulativeGasUsed": "0x86e21",
      "logs": [],
      "logsBloom": "0x00000000000000000000000000000000000000000000000000000000000000000000000000000000000000000000000000000000000000000000000000000000000000000000000000000000000000000000000000000000000000000000000000000000000000000000000000000000000000000000000000000000000000000000000000000000000000000000000000000000000000000000000000000000000000000000000000000000000000000000000000000000000000000000000000000000000000000000000000000000000000000000000000000000000000000000000000000000000000000000000000000000000000000000000000000000",
      "type": "0x2",
      "transactionHash": "0x14e5268cd4a2c1e5bf75658d3be1fa09f3e6159dc528fff7fa7f250cbc1bd302",
      "transactionIndex": "0x11",
      "blockHash": "0xd5bce592fb532c504d513e6d34f46123463b0494c7515a48505f78a96ea0f6d6",
      "blockNumber": "0x38b5bb",
      "gasUsed": "0x663d",
      "effectiveGasPrice": "0x5d21dba01",
      "from": "0x56fd3f2bee130e9867942d0f463a16fbe49b8d81",
      "to": "0x5497ddcfca202d2c570b18c855c1ba8a5c04254a",
      "contractAddress": null,
      "l1BaseFeeScalar": "0x0",
      "l1BlobBaseFee": "0x23",
      "l1BlobBaseFeeScalar": "0x0",
      "l1Fee": "0x0",
      "l1GasPrice": "0x2477e9",
      "l1GasUsed": "0x640"
    },
    {
      "status": "0x1",
      "cumulativeGasUsed": "0x8f251",
      "logs": [],
      "logsBloom": "0x00000000000000000000000000000000000000000000000000000000000000000000000000000000000000000000000000000000000000000000000000000000000000000000000000000000000000000000000000000000000000000000000000000000000000000000000000000000000000000000000000000000000000000000000000000000000000000000000000000000000000000000000000000000000000000000000000000000000000000000000000000000000000000000000000000000000000000000000000000000000000000000000000000000000000000000000000000000000000000000000000000000000000000000000000000000",
      "type": "0x2",
      "transactionHash": "0xcba535d4e8c31610ed9c9d3ef62449914a03d9df692a689f936f3b72ea01762c",
      "transactionIndex": "0x12",
      "blockHash": "0xd5bce592fb532c504d513e6d34f46123463b0494c7515a48505f78a96ea0f6d6",
      "blockNumber": "0x38b5bb",
      "gasUsed": "0x8430",
      "effectiveGasPrice": "0x5d21dba01",
      "from": "0x56fd3f2bee130e9867942d0f463a16fbe49b8d81",
      "to": "0x5497ddcfca202d2c570b18c855c1ba8a5c04254a",
      "contractAddress": null,
      "l1BaseFeeScalar": "0x0",
      "l1BlobBaseFee": "0x23",
      "l1BlobBaseFeeScalar": "0x0",
      "l1Fee": "0x0",
      "l1GasPrice": "0x2477e9",
      "l1GasUsed": "0x640"
    },
    {
      "status": "0x1",
      "cumulativeGasUsed": "0x9588e",
      "logs": [],
      "logsBloom": "0x00000000000000000000000000000000000000000000000000000000000000000000000000000000000000000000000000000000000000000000000000000000000000000000000000000000000000000000000000000000000000000000000000000000000000000000000000000000000000000000000000000000000000000000000000000000000000000000000000000000000000000000000000000000000000000000000000000000000000000000000000000000000000000000000000000000000000000000000000000000000000000000000000000000000000000000000000000000000000000000000000000000000000000000000000000000",
      "type": "0x2",
      "transactionHash": "0xa3f79f9dca062537d23ac756b8a6abb4acc855955c0197f65d15b169d9cfdb18",
      "transactionIndex": "0x13",
      "blockHash": "0xd5bce592fb532c504d513e6d34f46123463b0494c7515a48505f78a96ea0f6d6",
      "blockNumber": "0x38b5bb",
      "gasUsed": "0x663d",
      "effectiveGasPrice": "0x5d21dba01",
      "from": "0x56fd3f2bee130e9867942d0f463a16fbe49b8d81",
      "to": "0xf9840e5058b6ff709c4fe20cfa0d4f05ea925f71",
      "contractAddress": null,
      "l1BaseFeeScalar": "0x0",
      "l1BlobBaseFee": "0x23",
      "l1BlobBaseFeeScalar": "0x0",
      "l1Fee": "0x0",
      "l1GasPrice": "0x2477e9",
      "l1GasUsed": "0x640"
    },
    {
      "status": "0x1",
      "cumulativeGasUsed": "0x9dcca",
      "logs": [],
      "logsBloom": "0x00000000000000000000000000000000000000000000000000000000000000000000000000000000000000000000000000000000000000000000000000000000000000000000000000000000000000000000000000000000000000000000000000000000000000000000000000000000000000000000000000000000000000000000000000000000000000000000000000000000000000000000000000000000000000000000000000000000000000000000000000000000000000000000000000000000000000000000000000000000000000000000000000000000000000000000000000000000000000000000000000000000000000000000000000000000",
      "type": "0x2",
      "transactionHash": "0x63ef43d2ecf25745560cff1cb6ea1872430a315161204b098eb9333b20e664ef",
      "transactionIndex": "0x14",
      "blockHash": "0xd5bce592fb532c504d513e6d34f46123463b0494c7515a48505f78a96ea0f6d6",
      "blockNumber": "0x38b5bb",
      "gasUsed": "0x843c",
      "effectiveGasPrice": "0x5d21dba01",
      "from": "0x56fd3f2bee130e9867942d0f463a16fbe49b8d81",
      "to": "0xf9840e5058b6ff709c4fe20cfa0d4f05ea925f71",
      "contractAddress": null,
      "l1BaseFeeScalar": "0x0",
      "l1BlobBaseFee": "0x23",
      "l1BlobBaseFeeScalar": "0x0",
      "l1Fee": "0x0",
      "l1GasPrice": "0x2477e9",
      "l1GasUsed": "0x640"
    },
    {
      "status": "0x1",
      "cumulativeGasUsed": "0xa4307",
      "logs": [],
      "logsBloom": "0x00000000000000000000000000000000000000000000000000000000000000000000000000000000000000000000000000000000000000000000000000000000000000000000000000000000000000000000000000000000000000000000000000000000000000000000000000000000000000000000000000000000000000000000000000000000000000000000000000000000000000000000000000000000000000000000000000000000000000000000000000000000000000000000000000000000000000000000000000000000000000000000000000000000000000000000000000000000000000000000000000000000000000000000000000000000",
      "type": "0x2",
      "transactionHash": "0x8440903650f288dad5efb894ea0c02aefd9cb2096fe38ec64b7865d9ee2fc04f",
      "transactionIndex": "0x15",
      "blockHash": "0xd5bce592fb532c504d513e6d34f46123463b0494c7515a48505f78a96ea0f6d6",
      "blockNumber": "0x38b5bb",
      "gasUsed": "0x663d",
      "effectiveGasPrice": "0x5d21dba01",
      "from": "0x56fd3f2bee130e9867942d0f463a16fbe49b8d81",
      "to": "0x82aae3609210b24902d24165db40a48db5b88f4c",
      "contractAddress": null,
      "l1BaseFeeScalar": "0x0",
      "l1BlobBaseFee": "0x23",
      "l1BlobBaseFeeScalar": "0x0",
      "l1Fee": "0x0",
      "l1GasPrice": "0x2477e9",
      "l1GasUsed": "0x640"
    },
    {
      "status": "0x1",
      "cumulativeGasUsed": "0xac743",
      "logs": [],
      "logsBloom": "0x00000000000000000000000000000000000000000000000000000000000000000000000000000000000000000000000000000000000000000000000000000000000000000000000000000000000000000000000000000000000000000000000000000000000000000000000000000000000000000000000000000000000000000000000000000000000000000000000000000000000000000000000000000000000000000000000000000000000000000000000000000000000000000000000000000000000000000000000000000000000000000000000000000000000000000000000000000000000000000000000000000000000000000000000000000000",
      "type": "0x2",
      "transactionHash": "0xe9731d157b446bf4bc6096b95b0e9f1f2f7d1783e9d5f4bfc17cd864bf7c571d",
      "transactionIndex": "0x16",
      "blockHash": "0xd5bce592fb532c504d513e6d34f46123463b0494c7515a48505f78a96ea0f6d6",
      "blockNumber": "0x38b5bb",
      "gasUsed": "0x843c",
      "effectiveGasPrice": "0x5d21dba01",
      "from": "0x56fd3f2bee130e9867942d0f463a16fbe49b8d81",
      "to": "0x82aae3609210b24902d24165db40a48db5b88f4c",
      "contractAddress": null,
      "l1BaseFeeScalar": "0x0",
      "l1BlobBaseFee": "0x23",
      "l1BlobBaseFeeScalar": "0x0",
      "l1Fee": "0x0",
      "l1GasPrice": "0x2477e9",
      "l1GasUsed": "0x640"
    },
    {
      "status": "0x1",
      "cumulativeGasUsed": "0xb2d80",
      "logs": [],
      "logsBloom": "0x00000000000000000000000000000000000000000000000000000000000000000000000000000000000000000000000000000000000000000000000000000000000000000000000000000000000000000000000000000000000000000000000000000000000000000000000000000000000000000000000000000000000000000000000000000000000000000000000000000000000000000000000000000000000000000000000000000000000000000000000000000000000000000000000000000000000000000000000000000000000000000000000000000000000000000000000000000000000000000000000000000000000000000000000000000000",
      "type": "0x2",
      "transactionHash": "0x2d993601da802354513b80744dad45c03c4cf2d02b4bd547d86640d3d26a4976",
      "transactionIndex": "0x17",
      "blockHash": "0xd5bce592fb532c504d513e6d34f46123463b0494c7515a48505f78a96ea0f6d6",
      "blockNumber": "0x38b5bb",
      "gasUsed": "0x663d",
      "effectiveGasPrice": "0x5d21dba01",
      "from": "0x56fd3f2bee130e9867942d0f463a16fbe49b8d81",
      "to": "0x433393112dd71f2457985bdce6966d6d4618101a",
      "contractAddress": null,
      "l1BaseFeeScalar": "0x0",
      "l1BlobBaseFee": "0x23",
      "l1BlobBaseFeeScalar": "0x0",
      "l1Fee": "0x0",
      "l1GasPrice": "0x2477e9",
      "l1GasUsed": "0x640"
    },
    {
      "status": "0x1",
      "cumulativeGasUsed": "0xbb1bc",
      "logs": [],
      "logsBloom": "0x00000000000000000000000000000000000000000000000000000000000000000000000000000000000000000000000000000000000000000000000000000000000000000000000000000000000000000000000000000000000000000000000000000000000000000000000000000000000000000000000000000000000000000000000000000000000000000000000000000000000000000000000000000000000000000000000000000000000000000000000000000000000000000000000000000000000000000000000000000000000000000000000000000000000000000000000000000000000000000000000000000000000000000000000000000000",
      "type": "0x2",
      "transactionHash": "0x847defcdf9bc7c2ae413fde36a5b9c00cbf2c35354f8a028d1bf749693edf624",
      "transactionIndex": "0x18",
      "blockHash": "0xd5bce592fb532c504d513e6d34f46123463b0494c7515a48505f78a96ea0f6d6",
      "blockNumber": "0x38b5bb",
      "gasUsed": "0x843c",
      "effectiveGasPrice": "0x5d21dba01",
      "from": "0x56fd3f2bee130e9867942d0f463a16fbe49b8d81",
      "to": "0x433393112dd71f2457985bdce6966d6d4618101a",
      "contractAddress": null,
      "l1BaseFeeScalar": "0x0",
      "l1BlobBaseFee": "0x23",
      "l1BlobBaseFeeScalar": "0x0",
      "l1Fee": "0x0",
      "l1GasPrice": "0x2477e9",
      "l1GasUsed": "0x640"
    },
    {
      "status": "0x1",
      "cumulativeGasUsed": "0xc17f9",
      "logs": [],
      "logsBloom": "0x00000000000000000000000000000000000000000000000000000000000000000000000000000000000000000000000000000000000000000000000000000000000000000000000000000000000000000000000000000000000000000000000000000000000000000000000000000000000000000000000000000000000000000000000000000000000000000000000000000000000000000000000000000000000000000000000000000000000000000000000000000000000000000000000000000000000000000000000000000000000000000000000000000000000000000000000000000000000000000000000000000000000000000000000000000000",
      "type": "0x2",
      "transactionHash": "0x9b17f6c04be1310c95270647346675fdbfeb4078fd2b9b073a7d0ea6b57f9555",
      "transactionIndex": "0x19",
      "blockHash": "0xd5bce592fb532c504d513e6d34f46123463b0494c7515a48505f78a96ea0f6d6",
      "blockNumber": "0x38b5bb",
      "gasUsed": "0x663d",
      "effectiveGasPrice": "0x5d21dba01",
      "from": "0x56fd3f2bee130e9867942d0f463a16fbe49b8d81",
      "to": "0xcf0413f1a412ebf8a55dbd1c9371d9d802e8a9d4",
      "contractAddress": null,
      "l1BaseFeeScalar": "0x0",
      "l1BlobBaseFee": "0x23",
      "l1BlobBaseFeeScalar": "0x0",
      "l1Fee": "0x0",
      "l1GasPrice": "0x2477e9",
      "l1GasUsed": "0x640"
    },
    {
      "status": "0x1",
      "cumulativeGasUsed": "0xc9c29",
      "logs": [],
      "logsBloom": "0x00000000000000000000000000000000000000000000000000000000000000000000000000000000000000000000000000000000000000000000000000000000000000000000000000000000000000000000000000000000000000000000000000000000000000000000000000000000000000000000000000000000000000000000000000000000000000000000000000000000000000000000000000000000000000000000000000000000000000000000000000000000000000000000000000000000000000000000000000000000000000000000000000000000000000000000000000000000000000000000000000000000000000000000000000000000",
      "type": "0x2",
      "transactionHash": "0xbb0bcd219ef7cfb8b8d564577e5a0bfba5c48701899a54bef09c54efac4fb533",
      "transactionIndex": "0x1a",
      "blockHash": "0xd5bce592fb532c504d513e6d34f46123463b0494c7515a48505f78a96ea0f6d6",
      "blockNumber": "0x38b5bb",
      "gasUsed": "0x8430",
      "effectiveGasPrice": "0x5d21dba01",
      "from": "0x56fd3f2bee130e9867942d0f463a16fbe49b8d81",
      "to": "0xcf0413f1a412ebf8a55dbd1c9371d9d802e8a9d4",
      "contractAddress": null,
      "l1BaseFeeScalar": "0x0",
      "l1BlobBaseFee": "0x23",
      "l1BlobBaseFeeScalar": "0x0",
      "l1Fee": "0x0",
      "l1GasPrice": "0x2477e9",
      "l1GasUsed": "0x640"
    },
    {
      "status": "0x1",
      "cumulativeGasUsed": "0xd0266",
      "logs": [],
      "logsBloom": "0x00000000000000000000000000000000000000000000000000000000000000000000000000000000000000000000000000000000000000000000000000000000000000000000000000000000000000000000000000000000000000000000000000000000000000000000000000000000000000000000000000000000000000000000000000000000000000000000000000000000000000000000000000000000000000000000000000000000000000000000000000000000000000000000000000000000000000000000000000000000000000000000000000000000000000000000000000000000000000000000000000000000000000000000000000000000",
      "type": "0x2",
      "transactionHash": "0x565e337130eca21063bcbeb64053a8a1ba515536cf0b4e2d2f225f53ab5d71ab",
      "transactionIndex": "0x1b",
      "blockHash": "0xd5bce592fb532c504d513e6d34f46123463b0494c7515a48505f78a96ea0f6d6",
      "blockNumber": "0x38b5bb",
      "gasUsed": "0x663d",
      "effectiveGasPrice": "0x5d21dba01",
      "from": "0x56fd3f2bee130e9867942d0f463a16fbe49b8d81",
      "to": "0x6ea7d1c9ee6172820879c80c44b69b549dad7088",
      "contractAddress": null,
      "l1BaseFeeScalar": "0x0",
      "l1BlobBaseFee": "0x23",
      "l1BlobBaseFeeScalar": "0x0",
      "l1Fee": "0x0",
      "l1GasPrice": "0x2477e9",
      "l1GasUsed": "0x640"
    },
    {
      "status": "0x1",
      "cumulativeGasUsed": "0xd86c6",
      "logs": [],
      "logsBloom": "0x00000000000000000000000000000000000000000000000000000000000000000000000000000000000000000000000000000000000000000000000000000000000000000000000000000000000000000000000000000000000000000000000000000000000000000000000000000000000000000000000000000000000000000000000000000000000000000000000000000000000000000000000000000000000000000000000000000000000000000000000000000000000000000000000000000000000000000000000000000000000000000000000000000000000000000000000000000000000000000000000000000000000000000000000000000000",
      "type": "0x2",
      "transactionHash": "0x8ff3a1ac84c8ed03f86072b59a80c203730f5182e8cedd0495b174a6e04b2e29",
      "transactionIndex": "0x1c",
      "blockHash": "0xd5bce592fb532c504d513e6d34f46123463b0494c7515a48505f78a96ea0f6d6",
      "blockNumber": "0x38b5bb",
      "gasUsed": "0x8460",
      "effectiveGasPrice": "0x5d21dba01",
      "from": "0x56fd3f2bee130e9867942d0f463a16fbe49b8d81",
      "to": "0x6ea7d1c9ee6172820879c80c44b69b549dad7088",
      "contractAddress": null,
      "l1BaseFeeScalar": "0x0",
      "l1BlobBaseFee": "0x23",
      "l1BlobBaseFeeScalar": "0x0",
      "l1Fee": "0x0",
      "l1GasPrice": "0x2477e9",
      "l1GasUsed": "0x640"
    }
  ],
  "libraries": [
    "node_modules/@celo/contracts/common/linkedlists/AddressSortedLinkedListWithMedian.sol:AddressSortedLinkedListWithMedian:0x7d980668cf20B58214E20a85ab9b67aA9a5e717E"
  ],
  "pending": [],
  "returns": {},
  "timestamp": 1757000528920,
  "chain": 11142220,
  "commit": "cf21763"
}