{
  "transactions": [
    {
      "hash": "0x4522ed1a9ff16130efa137e5b2dc7a761b6795abd535cd8f92d4749de9c71b8b",
      "transactionType": "CALL",
      "contractName": null,
      "contractAddress": "0xf5922fcd1513525b11bca9b1daab4014ca602552",
      "function": "setExternalProvider(address)",
      "arguments": [
        "0xabcdE369CDdD1665E4EbD9214b8e9a595271272C"
      ],
      "transaction": {
        "from": "0x56fd3f2bee130e9867942d0f463a16fbe49b8d81",
        "to": "0xf5922fcd1513525b11bca9b1daab4014ca602552",
        "gas": "0x8d36",
        "value": "0x0",
        "input": "0xe3ac8226000000000000000000000000abcde369cddd1665e4ebd9214b8e9a595271272c",
        "nonce": "0x67a",
        "chainId": "0xaa044c"
      },
      "additionalContracts": [],
      "isFixedGasLimit": false
    },
    {
      "hash": "0x1e9b9ff9e08478c31cc8020a94fef6f3ec4027e6b9b63727849635ba9273908d",
      "transactionType": "CALL",
      "contractName": null,
      "contractAddress": "0xf5922fcd1513525b11bca9b1daab4014ca602552",
      "function": "report(int256,uint256)",
      "arguments": [
        "99989863",
        "1757655853"
      ],
      "transaction": {
        "from": "0x56fd3f2bee130e9867942d0f463a16fbe49b8d81",
        "to": "0xf5922fcd1513525b11bca9b1daab4014ca602552",
        "gas": "0xb6a5",
        "value": "0x0",
        "input": "0x0f3d249d0000000000000000000000000000000000000000000000000000000005f5b9670000000000000000000000000000000000000000000000000000000068c3b32d",
        "nonce": "0x67b",
        "chainId": "0xaa044c"
      },
      "additionalContracts": [],
      "isFixedGasLimit": false
    },
    {
      "hash": "0x8086c18ea62f8261f4d5684e2ba09f414ff5c904ab5a19d92569ac5b28572af7",
      "transactionType": "CALL",
      "contractName": null,
      "contractAddress": "0x3fd706c98ff4f1688a4bb1c9bb01f5f6d58b9ea1",
      "function": "setExternalProvider(address)",
      "arguments": [
        "0xabcdE369CDdD1665E4EbD9214b8e9a595271272C"
      ],
      "transaction": {
        "from": "0x56fd3f2bee130e9867942d0f463a16fbe49b8d81",
        "to": "0x3fd706c98ff4f1688a4bb1c9bb01f5f6d58b9ea1",
        "gas": "0x8d36",
        "value": "0x0",
        "input": "0xe3ac8226000000000000000000000000abcde369cddd1665e4ebd9214b8e9a595271272c",
        "nonce": "0x67c",
        "chainId": "0xaa044c"
      },
      "additionalContracts": [],
      "isFixedGasLimit": false
    },
    {
      "hash": "0x644c5e6c270e86e924d345d3670fbb41f4e4a4efabd79f3aeedc592a4e146d78",
      "transactionType": "CALL",
      "contractName": null,
      "contractAddress": "0x3fd706c98ff4f1688a4bb1c9bb01f5f6d58b9ea1",
      "function": "report(int256,uint256)",
      "arguments": [
        "100032082",
        "1757655853"
      ],
      "transaction": {
        "from": "0x56fd3f2bee130e9867942d0f463a16fbe49b8d81",
        "to": "0x3fd706c98ff4f1688a4bb1c9bb01f5f6d58b9ea1",
        "gas": "0xb6a5",
        "value": "0x0",
        "input": "0x0f3d249d0000000000000000000000000000000000000000000000000000000005f65e520000000000000000000000000000000000000000000000000000000068c3b32d",
        "nonce": "0x67d",
        "chainId": "0xaa044c"
      },
      "additionalContracts": [],
      "isFixedGasLimit": false
    },
    {
      "hash": "0x061d0d262d92d8e164ce9c99b6a6f3455a81894eeedb95be2a3d864a4f27c7fe",
      "transactionType": "CALL",
      "contractName": null,
      "contractAddress": "0x3c8d67d0baaa85d831684b407b5a8bdaeeea49bd",
      "function": "setExternalProvider(address)",
      "arguments": [
        "0xabcdE369CDdD1665E4EbD9214b8e9a595271272C"
      ],
      "transaction": {
        "from": "0x56fd3f2bee130e9867942d0f463a16fbe49b8d81",
        "to": "0x3c8d67d0baaa85d831684b407b5a8bdaeeea49bd",
        "gas": "0x8d36",
        "value": "0x0",
        "input": "0xe3ac8226000000000000000000000000abcde369cddd1665e4ebd9214b8e9a595271272c",
        "nonce": "0x67e",
        "chainId": "0xaa044c"
      },
      "additionalContracts": [],
      "isFixedGasLimit": false
    },
    {
      "hash": "0xd9b3f144d99817d9889e31bca0fcc848b7a075d3a3f82fcee2dc2ef9d5d92da6",
      "transactionType": "CALL",
      "contractName": null,
      "contractAddress": "0x3c8d67d0baaa85d831684b407b5a8bdaeeea49bd",
      "function": "report(int256,uint256)",
      "arguments": [
        "117268112",
        "1757655853"
      ],
      "transaction": {
        "from": "0x56fd3f2bee130e9867942d0f463a16fbe49b8d81",
        "to": "0x3c8d67d0baaa85d831684b407b5a8bdaeeea49bd",
        "gas": "0xb6a5",
        "value": "0x0",
        "input": "0x0f3d249d0000000000000000000000000000000000000000000000000000000006fd5e900000000000000000000000000000000000000000000000000000000068c3b32d",
        "nonce": "0x67f",
        "chainId": "0xaa044c"
      },
      "additionalContracts": [],
      "isFixedGasLimit": false
    },
    {
      "hash": "0x22d94248e0b42479a15d03e89137498fa77343d843a13d94a56da8cbc8f34409",
      "transactionType": "CALL",
      "contractName": null,
      "contractAddress": "0x275eaa7a22589e89997814abcbecdcf0ac7b8912",
      "function": "setExternalProvider(address)",
      "arguments": [
        "0xabcdE369CDdD1665E4EbD9214b8e9a595271272C"
      ],
      "transaction": {
        "from": "0x56fd3f2bee130e9867942d0f463a16fbe49b8d81",
        "to": "0x275eaa7a22589e89997814abcbecdcf0ac7b8912",
        "gas": "0x8d36",
        "value": "0x0",
        "input": "0xe3ac8226000000000000000000000000abcde369cddd1665e4ebd9214b8e9a595271272c",
        "nonce": "0x680",
        "chainId": "0xaa044c"
      },
      "additionalContracts": [],
      "isFixedGasLimit": false
    },
    {
      "hash": "0x81cba2b9c5bf0a1717757b015d00c52cb491f9d1836569216b42b22217b5f4a2",
      "transactionType": "CALL",
      "contractName": null,
      "contractAddress": "0x275eaa7a22589e89997814abcbecdcf0ac7b8912",
      "function": "report(int256,uint256)",
      "arguments": [
        "31427578",
        "1757655853"
      ],
      "transaction": {
        "from": "0x56fd3f2bee130e9867942d0f463a16fbe49b8d81",
        "to": "0x275eaa7a22589e89997814abcbecdcf0ac7b8912",
        "gas": "0xb6a5",
        "value": "0x0",
        "input": "0x0f3d249d0000000000000000000000000000000000000000000000000000000001df8bfa0000000000000000000000000000000000000000000000000000000068c3b32d",
        "nonce": "0x681",
        "chainId": "0xaa044c"
      },
      "additionalContracts": [],
      "isFixedGasLimit": false
    },
    {
      "hash": "0xf9621c7c94cb2ac4bf3ef21d48bb049d70da6d8ee4ca43a74e8b2114d4fdcece",
      "transactionType": "CALL",
      "contractName": null,
      "contractAddress": "0x7917d6c20272085ad41c2340c36ef0d8523e110e",
      "function": "setExternalProvider(address)",
      "arguments": [
        "0xabcdE369CDdD1665E4EbD9214b8e9a595271272C"
      ],
      "transaction": {
        "from": "0x56fd3f2bee130e9867942d0f463a16fbe49b8d81",
        "to": "0x7917d6c20272085ad41c2340c36ef0d8523e110e",
        "gas": "0x8d36",
        "value": "0x0",
        "input": "0xe3ac8226000000000000000000000000abcde369cddd1665e4ebd9214b8e9a595271272c",
        "nonce": "0x682",
        "chainId": "0xaa044c"
      },
      "additionalContracts": [],
      "isFixedGasLimit": false
    },
    {
      "hash": "0x64dcf33a3c1f867e4a6985f710a0a8fa805c5bc7329c191db0f85aa36990747b",
      "transactionType": "CALL",
      "contractName": null,
      "contractAddress": "0x7917d6c20272085ad41c2340c36ef0d8523e110e",
      "function": "report(int256,uint256)",
      "arguments": [
        "452303291663",
        "1757655853"
      ],
      "transaction": {
        "from": "0x56fd3f2bee130e9867942d0f463a16fbe49b8d81",
        "to": "0x7917d6c20272085ad41c2340c36ef0d8523e110e",
        "gas": "0xb6b6",
        "value": "0x0",
        "input": "0x0f3d249d000000000000000000000000000000000000000000000000000000694f60850f0000000000000000000000000000000000000000000000000000000068c3b32d",
        "nonce": "0x683",
        "chainId": "0xaa044c"
      },
      "additionalContracts": [],
      "isFixedGasLimit": false
    },
    {
      "hash": "0xfd0d14feeb0a228f6c2284da42745f132db9f87b02d5fdacc7fd40b8ca3ad634",
      "transactionType": "CALL",
      "contractName": null,
      "contractAddress": "0x6e55b9be545add377ebb7bcda03ceb5819d650a6",
      "function": "setExternalProvider(address)",
      "arguments": [
        "0xabcdE369CDdD1665E4EbD9214b8e9a595271272C"
      ],
      "transaction": {
        "from": "0x56fd3f2bee130e9867942d0f463a16fbe49b8d81",
        "to": "0x6e55b9be545add377ebb7bcda03ceb5819d650a6",
        "gas": "0x8d36",
        "value": "0x0",
        "input": "0xe3ac8226000000000000000000000000abcde369cddd1665e4ebd9214b8e9a595271272c",
        "nonce": "0x684",
        "chainId": "0xaa044c"
      },
      "additionalContracts": [],
      "isFixedGasLimit": false
    },
    {
      "hash": "0xb6059f2db44fe43284ce259730d64b49c6ebbce87ff6a35f58da62919a69097f",
      "transactionType": "CALL",
      "contractName": null,
      "contractAddress": "0x6e55b9be545add377ebb7bcda03ceb5819d650a6",
      "function": "report(int256,uint256)",
      "arguments": [
        "117268112",
        "1757655853"
      ],
      "transaction": {
        "from": "0x56fd3f2bee130e9867942d0f463a16fbe49b8d81",
        "to": "0x6e55b9be545add377ebb7bcda03ceb5819d650a6",
        "gas": "0xb6a5",
        "value": "0x0",
        "input": "0x0f3d249d0000000000000000000000000000000000000000000000000000000006fd5e900000000000000000000000000000000000000000000000000000000068c3b32d",
        "nonce": "0x685",
        "chainId": "0xaa044c"
      },
      "additionalContracts": [],
      "isFixedGasLimit": false
    },
    {
      "hash": "0x6943e06f5b974caa8118cbd585767300c5874812bf9b2d1c90dbea7af02fb47a",
      "transactionType": "CALL",
      "contractName": null,
      "contractAddress": "0xf7ab72be610821eccee45f78c490c71356ecab27",
      "function": "setExternalProvider(address)",
      "arguments": [
        "0xabcdE369CDdD1665E4EbD9214b8e9a595271272C"
      ],
      "transaction": {
        "from": "0x56fd3f2bee130e9867942d0f463a16fbe49b8d81",
        "to": "0xf7ab72be610821eccee45f78c490c71356ecab27",
        "gas": "0x8d36",
        "value": "0x0",
        "input": "0xe3ac8226000000000000000000000000abcde369cddd1665e4ebd9214b8e9a595271272c",
        "nonce": "0x686",
        "chainId": "0xaa044c"
      },
      "additionalContracts": [],
      "isFixedGasLimit": false
    },
    {
      "hash": "0xb958cf85ab6acc62a5a1f9fe69aa2fa5aa79ffdf9baab8f5f116578ec2cdb5f1",
      "transactionType": "CALL",
      "contractName": null,
      "contractAddress": "0xf7ab72be610821eccee45f78c490c71356ecab27",
      "function": "report(int256,uint256)",
      "arguments": [
        "18555974",
        "1757655853"
      ],
      "transaction": {
        "from": "0x56fd3f2bee130e9867942d0f463a16fbe49b8d81",
        "to": "0xf7ab72be610821eccee45f78c490c71356ecab27",
        "gas": "0xb6a5",
        "value": "0x0",
        "input": "0x0f3d249d00000000000000000000000000000000000000000000000000000000011b24460000000000000000000000000000000000000000000000000000000068c3b32d",
        "nonce": "0x687",
        "chainId": "0xaa044c"
      },
      "additionalContracts": [],
      "isFixedGasLimit": false
    },
    {
      "hash": "0x44a4b1847c3b320779ba2b78a372d66e8c495130361d3257e77e84d77765a251",
      "transactionType": "CALL",
      "contractName": null,
      "contractAddress": "0x76291e7933851fc64c874a30218d5d92978340a7",
      "function": "setExternalProvider(address)",
      "arguments": [
        "0xabcdE369CDdD1665E4EbD9214b8e9a595271272C"
      ],
      "transaction": {
        "from": "0x56fd3f2bee130e9867942d0f463a16fbe49b8d81",
        "to": "0x76291e7933851fc64c874a30218d5d92978340a7",
        "gas": "0x8d36",
        "value": "0x0",
        "input": "0xe3ac8226000000000000000000000000abcde369cddd1665e4ebd9214b8e9a595271272c",
        "nonce": "0x688",
        "chainId": "0xaa044c"
      },
      "additionalContracts": [],
      "isFixedGasLimit": false
    },
    {
      "hash": "0xb4310880b07cb340f0260436a9f11b0a17439f55a6447af87c789b38e1b17013",
      "transactionType": "CALL",
      "contractName": null,
      "contractAddress": "0x76291e7933851fc64c874a30218d5d92978340a7",
      "function": "report(int256,uint256)",
      "arguments": [
        "1785650512481697",
        "1757655853"
      ],
      "transaction": {
        "from": "0x56fd3f2bee130e9867942d0f463a16fbe49b8d81",
        "to": "0x76291e7933851fc64c874a30218d5d92978340a7",
        "gas": "0xb6d7",
        "value": "0x0",
        "input": "0x0f3d249d0000000000000000000000000000000000000000000000000006580a287d4da10000000000000000000000000000000000000000000000000000000068c3b32d",
        "nonce": "0x689",
        "chainId": "0xaa044c"
      },
      "additionalContracts": [],
      "isFixedGasLimit": false
    },
    {
      "hash": "0xe7309e860899329fd7c84ed5d619ed3a5544f89cd9d103af70d39ef46b878e3e",
      "transactionType": "CALL",
      "contractName": null,
      "contractAddress": "0x00e406495a36311dc4b30dfecb140ee4a70118c7",
      "function": "setExternalProvider(address)",
      "arguments": [
        "0xabcdE369CDdD1665E4EbD9214b8e9a595271272C"
      ],
      "transaction": {
        "from": "0x56fd3f2bee130e9867942d0f463a16fbe49b8d81",
        "to": "0x00e406495a36311dc4b30dfecb140ee4a70118c7",
        "gas": "0x8d36",
        "value": "0x0",
        "input": "0xe3ac8226000000000000000000000000abcde369cddd1665e4ebd9214b8e9a595271272c",
        "nonce": "0x68a",
        "chainId": "0xaa044c"
      },
      "additionalContracts": [],
      "isFixedGasLimit": false
    },
    {
      "hash": "0x80a6d60c012d5476a979a25d8993f620553aa684036e2bfbfc45a158892d3531",
      "transactionType": "CALL",
      "contractName": null,
      "contractAddress": "0x00e406495a36311dc4b30dfecb140ee4a70118c7",
      "function": "report(int256,uint256)",
      "arguments": [
        "7761481179666278",
        "1757655853"
      ],
      "transaction": {
        "from": "0x56fd3f2bee130e9867942d0f463a16fbe49b8d81",
        "to": "0x00e406495a36311dc4b30dfecb140ee4a70118c7",
        "gas": "0xb6d7",
        "value": "0x0",
        "input": "0x0f3d249d000000000000000000000000000000000000000000000000001b9306a8a517660000000000000000000000000000000000000000000000000000000068c3b32d",
        "nonce": "0x68b",
        "chainId": "0xaa044c"
      },
      "additionalContracts": [],
      "isFixedGasLimit": false
    },
    {
      "hash": "0xcd4864353b3e060d80b381cce5f34a1fcf42074cf1ac04557fc66f79556edb6e",
      "transactionType": "CALL",
      "contractName": null,
      "contractAddress": "0xcb7c39239880b0773475900b1f0b529a1714ae5e",
      "function": "setExternalProvider(address)",
      "arguments": [
        "0xabcdE369CDdD1665E4EbD9214b8e9a595271272C"
      ],
      "transaction": {
        "from": "0x56fd3f2bee130e9867942d0f463a16fbe49b8d81",
        "to": "0xcb7c39239880b0773475900b1f0b529a1714ae5e",
        "gas": "0x8d36",
        "value": "0x0",
        "input": "0xe3ac8226000000000000000000000000abcde369cddd1665e4ebd9214b8e9a595271272c",
        "nonce": "0x68c",
        "chainId": "0xaa044c"
      },
      "additionalContracts": [],
      "isFixedGasLimit": false
    },
    {
      "hash": "0xd8d03babe97323af7d63a56ae94f838c90bc20adae8baa0eaa640407ec7212e5",
      "transactionType": "CALL",
      "contractName": null,
      "contractAddress": "0xcb7c39239880b0773475900b1f0b529a1714ae5e",
      "function": "report(int256,uint256)",
      "arguments": [
        "1751611",
        "1757655853"
      ],
      "transaction": {
        "from": "0x56fd3f2bee130e9867942d0f463a16fbe49b8d81",
        "to": "0xcb7c39239880b0773475900b1f0b529a1714ae5e",
        "gas": "0xb695",
        "value": "0x0",
        "input": "0x0f3d249d00000000000000000000000000000000000000000000000000000000001aba3b0000000000000000000000000000000000000000000000000000000068c3b32d",
        "nonce": "0x68d",
        "chainId": "0xaa044c"
      },
      "additionalContracts": [],
      "isFixedGasLimit": false
    },
    {
      "hash": "0x654b182f0e135837b7370cc416769e194301468b2afc4b5592648c0cadad4956",
      "transactionType": "CALL",
      "contractName": null,
      "contractAddress": "0xff40c3c48ed8e25ac63dd92cc9a328da890c3930",
      "function": "setExternalProvider(address)",
      "arguments": [
        "0xabcdE369CDdD1665E4EbD9214b8e9a595271272C"
      ],
      "transaction": {
        "from": "0x56fd3f2bee130e9867942d0f463a16fbe49b8d81",
        "to": "0xff40c3c48ed8e25ac63dd92cc9a328da890c3930",
        "gas": "0x8d36",
        "value": "0x0",
        "input": "0xe3ac8226000000000000000000000000abcde369cddd1665e4ebd9214b8e9a595271272c",
        "nonce": "0x68e",
        "chainId": "0xaa044c"
      },
      "additionalContracts": [],
      "isFixedGasLimit": false
    },
    {
      "hash": "0xf76b3c9ca84ae9dd91dafa9ae89f0aef3b28dfe6dac71cf44d28d831e5885fa0",
      "transactionType": "CALL",
      "contractName": null,
      "contractAddress": "0xff40c3c48ed8e25ac63dd92cc9a328da890c3930",
      "function": "report(int256,uint256)",
      "arguments": [
        "25647",
        "1757655853"
      ],
      "transaction": {
        "from": "0x56fd3f2bee130e9867942d0f463a16fbe49b8d81",
        "to": "0xff40c3c48ed8e25ac63dd92cc9a328da890c3930",
        "gas": "0xb684",
        "value": "0x0",
        "input": "0x0f3d249d000000000000000000000000000000000000000000000000000000000000642f0000000000000000000000000000000000000000000000000000000068c3b32d",
        "nonce": "0x68f",
        "chainId": "0xaa044c"
      },
      "additionalContracts": [],
      "isFixedGasLimit": false
    },
    {
      "hash": "0x39b61648f80a7ab47fd804c694fd6c7857a1d7e6d55a6429b5346dcdbcf059fb",
      "transactionType": "CALL",
      "contractName": null,
      "contractAddress": "0xf6d0f39f5087fbead36233b979d34a90618f6b20",
      "function": "setExternalProvider(address)",
      "arguments": [
        "0xabcdE369CDdD1665E4EbD9214b8e9a595271272C"
      ],
      "transaction": {
        "from": "0x56fd3f2bee130e9867942d0f463a16fbe49b8d81",
        "to": "0xf6d0f39f5087fbead36233b979d34a90618f6b20",
        "gas": "0x8d36",
        "value": "0x0",
        "input": "0xe3ac8226000000000000000000000000abcde369cddd1665e4ebd9214b8e9a595271272c",
        "nonce": "0x690",
        "chainId": "0xaa044c"
      },
      "additionalContracts": [],
      "isFixedGasLimit": false
    },
    {
      "hash": "0x15bc94d6b2e3a7fc172ed4b4ec6533a4502255cc7d6afe15a7cc8f2fb91db406",
      "transactionType": "CALL",
      "contractName": null,
      "contractAddress": "0xf6d0f39f5087fbead36233b979d34a90618f6b20",
      "function": "report(int256,uint256)",
      "arguments": [
        "8214564",
        "1757655853"
      ],
      "transaction": {
        "from": "0x56fd3f2bee130e9867942d0f463a16fbe49b8d81",
        "to": "0xf6d0f39f5087fbead36233b979d34a90618f6b20",
        "gas": "0xb695",
        "value": "0x0",
        "input": "0x0f3d249d00000000000000000000000000000000000000000000000000000000007d58240000000000000000000000000000000000000000000000000000000068c3b32d",
        "nonce": "0x691",
        "chainId": "0xaa044c"
      },
      "additionalContracts": [],
      "isFixedGasLimit": false
    },
    {
      "hash": "0xdec040346e32021b5ab1551e54de46d2ea603d41cd0b8714cc81e85b02e82765",
      "transactionType": "CALL",
      "contractName": null,
      "contractAddress": "0x9b6ea7621eec8ece34dd0c4a87041962b435a185",
      "function": "setExternalProvider(address)",
      "arguments": [
        "0xabcdE369CDdD1665E4EbD9214b8e9a595271272C"
      ],
      "transaction": {
        "from": "0x56fd3f2bee130e9867942d0f463a16fbe49b8d81",
        "to": "0x9b6ea7621eec8ece34dd0c4a87041962b435a185",
        "gas": "0x8d36",
        "value": "0x0",
        "input": "0xe3ac8226000000000000000000000000abcde369cddd1665e4ebd9214b8e9a595271272c",
        "nonce": "0x692",
        "chainId": "0xaa044c"
      },
      "additionalContracts": [],
      "isFixedGasLimit": false
    },
    {
      "hash": "0xdbd02307e3bc6ad47958628facb66288371b1b5a539cf9131b5b869690dd8b7a",
      "transactionType": "CALL",
      "contractName": null,
      "contractAddress": "0x9b6ea7621eec8ece34dd0c4a87041962b435a185",
      "function": "report(int256,uint256)",
      "arguments": [
        "135576000",
        "1757655853"
      ],
      "transaction": {
        "from": "0x56fd3f2bee130e9867942d0f463a16fbe49b8d81",
        "to": "0x9b6ea7621eec8ece34dd0c4a87041962b435a185",
        "gas": "0xb6a5",
        "value": "0x0",
        "input": "0x0f3d249d000000000000000000000000000000000000000000000000000000000814b9c00000000000000000000000000000000000000000000000000000000068c3b32d",
        "nonce": "0x693",
        "chainId": "0xaa044c"
      },
      "additionalContracts": [],
      "isFixedGasLimit": false
    },
    {
      "hash": "0xab0a98b8db5ac9ae195d0af13c15442b98eeef75c5824c650f47eeb77891915b",
      "transactionType": "CALL",
      "contractName": null,
      "contractAddress": "0x5c9a1c3835a3dd7618a9dbb0ee1325d853fd7d3d",
      "function": "setExternalProvider(address)",
      "arguments": [
        "0xabcdE369CDdD1665E4EbD9214b8e9a595271272C"
      ],
      "transaction": {
        "from": "0x56fd3f2bee130e9867942d0f463a16fbe49b8d81",
        "to": "0x5c9a1c3835a3dd7618a9dbb0ee1325d853fd7d3d",
        "gas": "0x8d36",
        "value": "0x0",
        "input": "0xe3ac8226000000000000000000000000abcde369cddd1665e4ebd9214b8e9a595271272c",
        "nonce": "0x694",
        "chainId": "0xaa044c"
      },
      "additionalContracts": [],
      "isFixedGasLimit": false
    },
    {
      "hash": "0x1043b292a80b95b59163d977c753c9adc5f42cc623013f6ccebae905fdfa9371",
      "transactionType": "CALL",
      "contractName": null,
      "contractAddress": "0x5c9a1c3835a3dd7618a9dbb0ee1325d853fd7d3d",
      "function": "report(int256,uint256)",
      "arguments": [
        "5757654",
        "1757655853"
      ],
      "transaction": {
        "from": "0x56fd3f2bee130e9867942d0f463a16fbe49b8d81",
        "to": "0x5c9a1c3835a3dd7618a9dbb0ee1325d853fd7d3d",
        "gas": "0xb695",
        "value": "0x0",
        "input": "0x0f3d249d000000000000000000000000000000000000000000000000000000000057dad60000000000000000000000000000000000000000000000000000000068c3b32d",
        "nonce": "0x695",
        "chainId": "0xaa044c"
      },
      "additionalContracts": [],
      "isFixedGasLimit": false
    },
    {
      "hash": "0x93e872170304ed284fc745b5805deee20e0683887bca685bf414e69d42e20c4f",
      "transactionType": "CALL",
      "contractName": null,
      "contractAddress": "0xa5f93481c20a6e0f6360aaf80b8693179dcc6c9b",
      "function": "setExternalProvider(address)",
      "arguments": [
        "0xabcdE369CDdD1665E4EbD9214b8e9a595271272C"
      ],
      "transaction": {
        "from": "0x56fd3f2bee130e9867942d0f463a16fbe49b8d81",
        "to": "0xa5f93481c20a6e0f6360aaf80b8693179dcc6c9b",
        "gas": "0x8d36",
        "value": "0x0",
        "input": "0xe3ac8226000000000000000000000000abcde369cddd1665e4ebd9214b8e9a595271272c",
        "nonce": "0x696",
        "chainId": "0xaa044c"
      },
      "additionalContracts": [],
      "isFixedGasLimit": false
    },
    {
      "hash": "0x6a93440996ba98a34f3c5e301c5d61604d58424e67e7fd7f6d9d298b6ce706f0",
      "transactionType": "CALL",
      "contractName": null,
      "contractAddress": "0xa5f93481c20a6e0f6360aaf80b8693179dcc6c9b",
      "function": "report(int256,uint256)",
      "arguments": [
        "72258512",
        "1757655853"
      ],
      "transaction": {
        "from": "0x56fd3f2bee130e9867942d0f463a16fbe49b8d81",
        "to": "0xa5f93481c20a6e0f6360aaf80b8693179dcc6c9b",
        "gas": "0xb6a5",
        "value": "0x0",
        "input": "0x0f3d249d00000000000000000000000000000000000000000000000000000000044e93d00000000000000000000000000000000000000000000000000000000068c3b32d",
        "nonce": "0x697",
        "chainId": "0xaa044c"
      },
      "additionalContracts": [],
      "isFixedGasLimit": false
    },
    {
      "hash": "0xc60aebcd4dfb13f2fba5294c026bd4bd93e10e592f916429dbe58462e92ad854",
      "transactionType": "CALL",
      "contractName": null,
      "contractAddress": "0x94d96baef28145235fa66758b0b121bed0ee1361",
      "function": "setExternalProvider(address)",
      "arguments": [
        "0xabcdE369CDdD1665E4EbD9214b8e9a595271272C"
      ],
      "transaction": {
        "from": "0x56fd3f2bee130e9867942d0f463a16fbe49b8d81",
        "to": "0x94d96baef28145235fa66758b0b121bed0ee1361",
        "gas": "0x8d36",
        "value": "0x0",
        "input": "0xe3ac8226000000000000000000000000abcde369cddd1665e4ebd9214b8e9a595271272c",
        "nonce": "0x698",
        "chainId": "0xaa044c"
      },
      "additionalContracts": [],
      "isFixedGasLimit": false
    },
    {
      "hash": "0x28032e6ac117272a3ee81b530fa01efdcebe52c4c68fc8d11b66a3d02918b85a",
      "transactionType": "CALL",
      "contractName": null,
      "contractAddress": "0x94d96baef28145235fa66758b0b121bed0ee1361",
      "function": "report(int256,uint256)",
      "arguments": [
        "66594000",
        "1757655853"
      ],
      "transaction": {
        "from": "0x56fd3f2bee130e9867942d0f463a16fbe49b8d81",
        "to": "0x94d96baef28145235fa66758b0b121bed0ee1361",
        "gas": "0xb6a5",
        "value": "0x0",
        "input": "0x0f3d249d0000000000000000000000000000000000000000000000000000000003f824d00000000000000000000000000000000000000000000000000000000068c3b32d",
        "nonce": "0x699",
        "chainId": "0xaa044c"
      },
      "additionalContracts": [],
      "isFixedGasLimit": false
    },
    {
      "hash": "0xd9065297f0e02e849a81328c158cfa8ca929a50036cb4476479f01b68ed35c2c",
      "transactionType": "CALL",
      "contractName": null,
      "contractAddress": "0xdf23f723e9f8033d650a7e7fbf8759233be6c1b4",
      "function": "setExternalProvider(address)",
      "arguments": [
        "0xabcdE369CDdD1665E4EbD9214b8e9a595271272C"
      ],
      "transaction": {
        "from": "0x56fd3f2bee130e9867942d0f463a16fbe49b8d81",
        "to": "0xdf23f723e9f8033d650a7e7fbf8759233be6c1b4",
        "gas": "0x8d36",
        "value": "0x0",
        "input": "0xe3ac8226000000000000000000000000abcde369cddd1665e4ebd9214b8e9a595271272c",
        "nonce": "0x69a",
        "chainId": "0xaa044c"
      },
      "additionalContracts": [],
      "isFixedGasLimit": false
    },
    {
      "hash": "0x551cd920c67ad6f749627afdfd0cd9c947afcc1201fb32add1f1a9e2b592eb7b",
      "transactionType": "CALL",
      "contractName": null,
      "contractAddress": "0xdf23f723e9f8033d650a7e7fbf8759233be6c1b4",
      "function": "report(int256,uint256)",
      "arguments": [
        "125542973",
        "1757655853"
      ],
      "transaction": {
        "from": "0x56fd3f2bee130e9867942d0f463a16fbe49b8d81",
        "to": "0xdf23f723e9f8033d650a7e7fbf8759233be6c1b4",
        "gas": "0xb6a5",
        "value": "0x0",
        "input": "0x0f3d249d00000000000000000000000000000000000000000000000000000000077ba23d0000000000000000000000000000000000000000000000000000000068c3b32d",
        "nonce": "0x69b",
        "chainId": "0xaa044c"
      },
      "additionalContracts": [],
      "isFixedGasLimit": false
    },
    {
      "hash": "0x26bfc33e00e9bbe4467c5ce349dbec0542621a6c0d61887ab09c57f803254e0c",
      "transactionType": "CALL",
      "contractName": null,
      "contractAddress": "0x7948b896a3d40b5f992dee730c96c49c25124e81",
      "function": "setExternalProvider(address)",
      "arguments": [
        "0xabcdE369CDdD1665E4EbD9214b8e9a595271272C"
      ],
      "transaction": {
        "from": "0x56fd3f2bee130e9867942d0f463a16fbe49b8d81",
        "to": "0x7948b896a3d40b5f992dee730c96c49c25124e81",
        "gas": "0x8d36",
        "value": "0x0",
        "input": "0xe3ac8226000000000000000000000000abcde369cddd1665e4ebd9214b8e9a595271272c",
        "nonce": "0x69c",
        "chainId": "0xaa044c"
      },
      "additionalContracts": [],
      "isFixedGasLimit": false
    },
    {
      "hash": "0xa152f33fff0eca30fb74243c56c43015921c453fde2e28e7463c4d6c92292cc9",
      "transactionType": "CALL",
      "contractName": null,
      "contractAddress": "0x7948b896a3d40b5f992dee730c96c49c25124e81",
      "function": "report(int256,uint256)",
      "arguments": [
        "678506",
        "1757655853"
      ],
      "transaction": {
        "from": "0x56fd3f2bee130e9867942d0f463a16fbe49b8d81",
        "to": "0x7948b896a3d40b5f992dee730c96c49c25124e81",
        "gas": "0xb695",
        "value": "0x0",
        "input": "0x0f3d249d00000000000000000000000000000000000000000000000000000000000a5a6a0000000000000000000000000000000000000000000000000000000068c3b32d",
        "nonce": "0x69d",
        "chainId": "0xaa044c"
      },
      "additionalContracts": [],
      "isFixedGasLimit": false
    },
    {
      "hash": "0x70dcc4286ac999ad6d197442773035e5ea64a9386b1fd00e4cc6f1262b2e14f3",
      "transactionType": "CALL",
      "contractName": null,
      "contractAddress": "0x6545030396e3e8430eadfdda4c6a0330ae8377d8",
      "function": "setExternalProvider(address)",
      "arguments": [
        "0xabcdE369CDdD1665E4EbD9214b8e9a595271272C"
      ],
      "transaction": {
        "from": "0x56fd3f2bee130e9867942d0f463a16fbe49b8d81",
        "to": "0x6545030396e3e8430eadfdda4c6a0330ae8377d8",
        "gas": "0x8d36",
        "value": "0x0",
        "input": "0xe3ac8226000000000000000000000000abcde369cddd1665e4ebd9214b8e9a595271272c",
        "nonce": "0x69e",
        "chainId": "0xaa044c"
      },
      "additionalContracts": [],
      "isFixedGasLimit": false
    },
    {
      "hash": "0x8edb7750c0b322dea51460cc833059a9252f5b1124419d36070b4a8106ebcc92",
      "transactionType": "CALL",
      "contractName": null,
      "contractAddress": "0x6545030396e3e8430eadfdda4c6a0330ae8377d8",
      "function": "report(int256,uint256)",
      "arguments": [
        "666080515812751",
        "1757655853"
      ],
      "transaction": {
        "from": "0x56fd3f2bee130e9867942d0f463a16fbe49b8d81",
        "to": "0x6545030396e3e8430eadfdda4c6a0330ae8377d8",
        "gas": "0xb6d7",
        "value": "0x0",
        "input": "0x0f3d249d00000000000000000000000000000000000000000000000000025dcbf4896d8f0000000000000000000000000000000000000000000000000000000068c3b32d",
        "nonce": "0x69f",
        "chainId": "0xaa044c"
      },
      "additionalContracts": [],
      "isFixedGasLimit": false
    }
  ],
  "receipts": [
    {
      "status": "0x1",
      "cumulativeGasUsed": "0x11a1d",
      "logs": [],
      "logsBloom": "0x00000000000000000000000000000000000000000000000000000000000000000000000000000000000000000000000000000000000000000000000000000000000000000000000000000000000000000000000000000000000000000000000000000000000000000000000000000000000000000000000000000000000000000000000000000000000000000000000000000000000000000000000000000000000000000000000000000000000000000000000000000000000000000000000000000000000000000000000000000000000000000000000000000000000000000000000000000000000000000000000000000000000000000000000000000000",
      "type": "0x2",
      "transactionHash": "0x4522ed1a9ff16130efa137e5b2dc7a761b6795abd535cd8f92d4749de9c71b8b",
      "transactionIndex": "0x1",
      "blockHash": "0xc3c3d855eef2ba08322876e003d3cef4f3a61d81f4842cc8b1c6425a4382f8aa",
      "blockNumber": "0x42b5c4",
      "gasUsed": "0x663d",
      "effectiveGasPrice": "0x5d21dba01",
      "from": "0x56fd3f2bee130e9867942d0f463a16fbe49b8d81",
      "to": "0xf5922fcd1513525b11bca9b1daab4014ca602552",
      "contractAddress": null,
      "l1BaseFeeScalar": "0x0",
      "l1BlobBaseFee": "0x1",
      "l1BlobBaseFeeScalar": "0x0",
      "l1Fee": "0x0",
      "l1GasPrice": "0x2f",
      "l1GasUsed": "0x640"
    },
    {
      "status": "0x1",
      "cumulativeGasUsed": "0x19e59",
      "logs": [],
      "logsBloom": "0x00000000000000000000000000000000000000000000000000000000000000000000000000000000000000000000000000000000000000000000000000000000000000000000000000000000000000000000000000000000000000000000000000000000000000000000000000000000000000000000000000000000000000000000000000000000000000000000000000000000000000000000000000000000000000000000000000000000000000000000000000000000000000000000000000000000000000000000000000000000000000000000000000000000000000000000000000000000000000000000000000000000000000000000000000000000",
      "type": "0x2",
      "transactionHash": "0x1e9b9ff9e08478c31cc8020a94fef6f3ec4027e6b9b63727849635ba9273908d",
      "transactionIndex": "0x2",
      "blockHash": "0xc3c3d855eef2ba08322876e003d3cef4f3a61d81f4842cc8b1c6425a4382f8aa",
      "blockNumber": "0x42b5c4",
      "gasUsed": "0x843c",
      "effectiveGasPrice": "0x5d21dba01",
      "from": "0x56fd3f2bee130e9867942d0f463a16fbe49b8d81",
      "to": "0xf5922fcd1513525b11bca9b1daab4014ca602552",
      "contractAddress": null,
      "l1BaseFeeScalar": "0x0",
      "l1BlobBaseFee": "0x1",
      "l1BlobBaseFeeScalar": "0x0",
      "l1Fee": "0x0",
      "l1GasPrice": "0x2f",
      "l1GasUsed": "0x640"
    },
    {
      "status": "0x1",
      "cumulativeGasUsed": "0x20496",
      "logs": [],
      "logsBloom": "0x00000000000000000000000000000000000000000000000000000000000000000000000000000000000000000000000000000000000000000000000000000000000000000000000000000000000000000000000000000000000000000000000000000000000000000000000000000000000000000000000000000000000000000000000000000000000000000000000000000000000000000000000000000000000000000000000000000000000000000000000000000000000000000000000000000000000000000000000000000000000000000000000000000000000000000000000000000000000000000000000000000000000000000000000000000000",
      "type": "0x2",
      "transactionHash": "0x8086c18ea62f8261f4d5684e2ba09f414ff5c904ab5a19d92569ac5b28572af7",
      "transactionIndex": "0x3",
      "blockHash": "0xc3c3d855eef2ba08322876e003d3cef4f3a61d81f4842cc8b1c6425a4382f8aa",
      "blockNumber": "0x42b5c4",
      "gasUsed": "0x663d",
      "effectiveGasPrice": "0x5d21dba01",
      "from": "0x56fd3f2bee130e9867942d0f463a16fbe49b8d81",
      "to": "0x3fd706c98ff4f1688a4bb1c9bb01f5f6d58b9ea1",
      "contractAddress": null,
      "l1BaseFeeScalar": "0x0",
      "l1BlobBaseFee": "0x1",
      "l1BlobBaseFeeScalar": "0x0",
      "l1Fee": "0x0",
      "l1GasPrice": "0x2f",
      "l1GasUsed": "0x640"
    },
    {
      "status": "0x1",
      "cumulativeGasUsed": "0x288d2",
      "logs": [],
      "logsBloom": "0x00000000000000000000000000000000000000000000000000000000000000000000000000000000000000000000000000000000000000000000000000000000000000000000000000000000000000000000000000000000000000000000000000000000000000000000000000000000000000000000000000000000000000000000000000000000000000000000000000000000000000000000000000000000000000000000000000000000000000000000000000000000000000000000000000000000000000000000000000000000000000000000000000000000000000000000000000000000000000000000000000000000000000000000000000000000",
      "type": "0x2",
      "transactionHash": "0x644c5e6c270e86e924d345d3670fbb41f4e4a4efabd79f3aeedc592a4e146d78",
      "transactionIndex": "0x4",
      "blockHash": "0xc3c3d855eef2ba08322876e003d3cef4f3a61d81f4842cc8b1c6425a4382f8aa",
      "blockNumber": "0x42b5c4",
      "gasUsed": "0x843c",
      "effectiveGasPrice": "0x5d21dba01",
      "from": "0x56fd3f2bee130e9867942d0f463a16fbe49b8d81",
      "to": "0x3fd706c98ff4f1688a4bb1c9bb01f5f6d58b9ea1",
      "contractAddress": null,
      "l1BaseFeeScalar": "0x0",
      "l1BlobBaseFee": "0x1",
      "l1BlobBaseFeeScalar": "0x0",
      "l1Fee": "0x0",
      "l1GasPrice": "0x2f",
      "l1GasUsed": "0x640"
    },
    {
      "status": "0x1",
      "cumulativeGasUsed": "0x2ef0f",
      "logs": [],
      "logsBloom": "0x00000000000000000000000000000000000000000000000000000000000000000000000000000000000000000000000000000000000000000000000000000000000000000000000000000000000000000000000000000000000000000000000000000000000000000000000000000000000000000000000000000000000000000000000000000000000000000000000000000000000000000000000000000000000000000000000000000000000000000000000000000000000000000000000000000000000000000000000000000000000000000000000000000000000000000000000000000000000000000000000000000000000000000000000000000000",
      "type": "0x2",
      "transactionHash": "0x061d0d262d92d8e164ce9c99b6a6f3455a81894eeedb95be2a3d864a4f27c7fe",
      "transactionIndex": "0x5",
      "blockHash": "0xc3c3d855eef2ba08322876e003d3cef4f3a61d81f4842cc8b1c6425a4382f8aa",
      "blockNumber": "0x42b5c4",
      "gasUsed": "0x663d",
      "effectiveGasPrice": "0x5d21dba01",
      "from": "0x56fd3f2bee130e9867942d0f463a16fbe49b8d81",
      "to": "0x3c8d67d0baaa85d831684b407b5a8bdaeeea49bd",
      "contractAddress": null,
      "l1BaseFeeScalar": "0x0",
      "l1BlobBaseFee": "0x1",
      "l1BlobBaseFeeScalar": "0x0",
      "l1Fee": "0x0",
      "l1GasPrice": "0x2f",
      "l1GasUsed": "0x640"
    },
    {
      "status": "0x1",
      "cumulativeGasUsed": "0x3734b",
      "logs": [],
      "logsBloom": "0x00000000000000000000000000000000000000000000000000000000000000000000000000000000000000000000000000000000000000000000000000000000000000000000000000000000000000000000000000000000000000000000000000000000000000000000000000000000000000000000000000000000000000000000000000000000000000000000000000000000000000000000000000000000000000000000000000000000000000000000000000000000000000000000000000000000000000000000000000000000000000000000000000000000000000000000000000000000000000000000000000000000000000000000000000000000",
      "type": "0x2",
      "transactionHash": "0xd9b3f144d99817d9889e31bca0fcc848b7a075d3a3f82fcee2dc2ef9d5d92da6",
      "transactionIndex": "0x6",
      "blockHash": "0xc3c3d855eef2ba08322876e003d3cef4f3a61d81f4842cc8b1c6425a4382f8aa",
      "blockNumber": "0x42b5c4",
      "gasUsed": "0x843c",
      "effectiveGasPrice": "0x5d21dba01",
      "from": "0x56fd3f2bee130e9867942d0f463a16fbe49b8d81",
      "to": "0x3c8d67d0baaa85d831684b407b5a8bdaeeea49bd",
      "contractAddress": null,
      "l1BaseFeeScalar": "0x0",
      "l1BlobBaseFee": "0x1",
      "l1BlobBaseFeeScalar": "0x0",
      "l1Fee": "0x0",
      "l1GasPrice": "0x2f",
      "l1GasUsed": "0x640"
    },
    {
      "status": "0x1",
      "cumulativeGasUsed": "0x3d988",
      "logs": [],
      "logsBloom": "0x00000000000000000000000000000000000000000000000000000000000000000000000000000000000000000000000000000000000000000000000000000000000000000000000000000000000000000000000000000000000000000000000000000000000000000000000000000000000000000000000000000000000000000000000000000000000000000000000000000000000000000000000000000000000000000000000000000000000000000000000000000000000000000000000000000000000000000000000000000000000000000000000000000000000000000000000000000000000000000000000000000000000000000000000000000000",
      "type": "0x2",
      "transactionHash": "0x22d94248e0b42479a15d03e89137498fa77343d843a13d94a56da8cbc8f34409",
      "transactionIndex": "0x7",
      "blockHash": "0xc3c3d855eef2ba08322876e003d3cef4f3a61d81f4842cc8b1c6425a4382f8aa",
      "blockNumber": "0x42b5c4",
      "gasUsed": "0x663d",
      "effectiveGasPrice": "0x5d21dba01",
      "from": "0x56fd3f2bee130e9867942d0f463a16fbe49b8d81",
      "to": "0x275eaa7a22589e89997814abcbecdcf0ac7b8912",
      "contractAddress": null,
      "l1BaseFeeScalar": "0x0",
      "l1BlobBaseFee": "0x1",
      "l1BlobBaseFeeScalar": "0x0",
      "l1Fee": "0x0",
      "l1GasPrice": "0x2f",
      "l1GasUsed": "0x640"
    },
    {
      "status": "0x1",
      "cumulativeGasUsed": "0x45dc4",
      "logs": [],
      "logsBloom": "0x00000000000000000000000000000000000000000000000000000000000000000000000000000000000000000000000000000000000000000000000000000000000000000000000000000000000000000000000000000000000000000000000000000000000000000000000000000000000000000000000000000000000000000000000000000000000000000000000000000000000000000000000000000000000000000000000000000000000000000000000000000000000000000000000000000000000000000000000000000000000000000000000000000000000000000000000000000000000000000000000000000000000000000000000000000000",
      "type": "0x2",
      "transactionHash": "0x81cba2b9c5bf0a1717757b015d00c52cb491f9d1836569216b42b22217b5f4a2",
      "transactionIndex": "0x8",
      "blockHash": "0xc3c3d855eef2ba08322876e003d3cef4f3a61d81f4842cc8b1c6425a4382f8aa",
      "blockNumber": "0x42b5c4",
      "gasUsed": "0x843c",
      "effectiveGasPrice": "0x5d21dba01",
      "from": "0x56fd3f2bee130e9867942d0f463a16fbe49b8d81",
      "to": "0x275eaa7a22589e89997814abcbecdcf0ac7b8912",
      "contractAddress": null,
      "l1BaseFeeScalar": "0x0",
      "l1BlobBaseFee": "0x1",
      "l1BlobBaseFeeScalar": "0x0",
      "l1Fee": "0x0",
      "l1GasPrice": "0x2f",
      "l1GasUsed": "0x640"
    },
    {
      "status": "0x1",
      "cumulativeGasUsed": "0x4c401",
      "logs": [],
      "logsBloom": "0x00000000000000000000000000000000000000000000000000000000000000000000000000000000000000000000000000000000000000000000000000000000000000000000000000000000000000000000000000000000000000000000000000000000000000000000000000000000000000000000000000000000000000000000000000000000000000000000000000000000000000000000000000000000000000000000000000000000000000000000000000000000000000000000000000000000000000000000000000000000000000000000000000000000000000000000000000000000000000000000000000000000000000000000000000000000",
      "type": "0x2",
      "transactionHash": "0xf9621c7c94cb2ac4bf3ef21d48bb049d70da6d8ee4ca43a74e8b2114d4fdcece",
      "transactionIndex": "0x9",
      "blockHash": "0xc3c3d855eef2ba08322876e003d3cef4f3a61d81f4842cc8b1c6425a4382f8aa",
      "blockNumber": "0x42b5c4",
      "gasUsed": "0x663d",
      "effectiveGasPrice": "0x5d21dba01",
      "from": "0x56fd3f2bee130e9867942d0f463a16fbe49b8d81",
      "to": "0x7917d6c20272085ad41c2340c36ef0d8523e110e",
      "contractAddress": null,
      "l1BaseFeeScalar": "0x0",
      "l1BlobBaseFee": "0x1",
      "l1BlobBaseFeeScalar": "0x0",
      "l1Fee": "0x0",
      "l1GasPrice": "0x2f",
      "l1GasUsed": "0x640"
    },
    {
      "status": "0x1",
      "cumulativeGasUsed": "0x54849",
      "logs": [],
      "logsBloom": "0x00000000000000000000000000000000000000000000000000000000000000000000000000000000000000000000000000000000000000000000000000000000000000000000000000000000000000000000000000000000000000000000000000000000000000000000000000000000000000000000000000000000000000000000000000000000000000000000000000000000000000000000000000000000000000000000000000000000000000000000000000000000000000000000000000000000000000000000000000000000000000000000000000000000000000000000000000000000000000000000000000000000000000000000000000000000",
      "type": "0x2",
      "transactionHash": "0x64dcf33a3c1f867e4a6985f710a0a8fa805c5bc7329c191db0f85aa36990747b",
      "transactionIndex": "0xa",
      "blockHash": "0xc3c3d855eef2ba08322876e003d3cef4f3a61d81f4842cc8b1c6425a4382f8aa",
      "blockNumber": "0x42b5c4",
      "gasUsed": "0x8448",
      "effectiveGasPrice": "0x5d21dba01",
      "from": "0x56fd3f2bee130e9867942d0f463a16fbe49b8d81",
      "to": "0x7917d6c20272085ad41c2340c36ef0d8523e110e",
      "contractAddress": null,
      "l1BaseFeeScalar": "0x0",
      "l1BlobBaseFee": "0x1",
      "l1BlobBaseFeeScalar": "0x0",
      "l1Fee": "0x0",
      "l1GasPrice": "0x2f",
      "l1GasUsed": "0x640"
    },
    {
      "status": "0x1",
      "cumulativeGasUsed": "0x5ae86",
      "logs": [],
      "logsBloom": "0x00000000000000000000000000000000000000000000000000000000000000000000000000000000000000000000000000000000000000000000000000000000000000000000000000000000000000000000000000000000000000000000000000000000000000000000000000000000000000000000000000000000000000000000000000000000000000000000000000000000000000000000000000000000000000000000000000000000000000000000000000000000000000000000000000000000000000000000000000000000000000000000000000000000000000000000000000000000000000000000000000000000000000000000000000000000",
      "type": "0x2",
      "transactionHash": "0xfd0d14feeb0a228f6c2284da42745f132db9f87b02d5fdacc7fd40b8ca3ad634",
      "transactionIndex": "0xb",
      "blockHash": "0xc3c3d855eef2ba08322876e003d3cef4f3a61d81f4842cc8b1c6425a4382f8aa",
      "blockNumber": "0x42b5c4",
      "gasUsed": "0x663d",
      "effectiveGasPrice": "0x5d21dba01",
      "from": "0x56fd3f2bee130e9867942d0f463a16fbe49b8d81",
      "to": "0x6e55b9be545add377ebb7bcda03ceb5819d650a6",
      "contractAddress": null,
      "l1BaseFeeScalar": "0x0",
      "l1BlobBaseFee": "0x1",
      "l1BlobBaseFeeScalar": "0x0",
      "l1Fee": "0x0",
      "l1GasPrice": "0x2f",
      "l1GasUsed": "0x640"
    },
    {
      "status": "0x1",
      "cumulativeGasUsed": "0x632c2",
      "logs": [],
      "logsBloom": "0x00000000000000000000000000000000000000000000000000000000000000000000000000000000000000000000000000000000000000000000000000000000000000000000000000000000000000000000000000000000000000000000000000000000000000000000000000000000000000000000000000000000000000000000000000000000000000000000000000000000000000000000000000000000000000000000000000000000000000000000000000000000000000000000000000000000000000000000000000000000000000000000000000000000000000000000000000000000000000000000000000000000000000000000000000000000",
      "type": "0x2",
      "transactionHash": "0xb6059f2db44fe43284ce259730d64b49c6ebbce87ff6a35f58da62919a69097f",
      "transactionIndex": "0xc",
      "blockHash": "0xc3c3d855eef2ba08322876e003d3cef4f3a61d81f4842cc8b1c6425a4382f8aa",
      "blockNumber": "0x42b5c4",
      "gasUsed": "0x843c",
      "effectiveGasPrice": "0x5d21dba01",
      "from": "0x56fd3f2bee130e9867942d0f463a16fbe49b8d81",
      "to": "0x6e55b9be545add377ebb7bcda03ceb5819d650a6",
      "contractAddress": null,
      "l1BaseFeeScalar": "0x0",
      "l1BlobBaseFee": "0x1",
      "l1BlobBaseFeeScalar": "0x0",
      "l1Fee": "0x0",
      "l1GasPrice": "0x2f",
      "l1GasUsed": "0x640"
    },
    {
      "status": "0x1",
      "cumulativeGasUsed": "0x698ff",
      "logs": [],
      "logsBloom": "0x00000000000000000000000000000000000000000000000000000000000000000000000000000000000000000000000000000000000000000000000000000000000000000000000000000000000000000000000000000000000000000000000000000000000000000000000000000000000000000000000000000000000000000000000000000000000000000000000000000000000000000000000000000000000000000000000000000000000000000000000000000000000000000000000000000000000000000000000000000000000000000000000000000000000000000000000000000000000000000000000000000000000000000000000000000000",
      "type": "0x2",
      "transactionHash": "0x6943e06f5b974caa8118cbd585767300c5874812bf9b2d1c90dbea7af02fb47a",
      "transactionIndex": "0xd",
      "blockHash": "0xc3c3d855eef2ba08322876e003d3cef4f3a61d81f4842cc8b1c6425a4382f8aa",
      "blockNumber": "0x42b5c4",
      "gasUsed": "0x663d",
      "effectiveGasPrice": "0x5d21dba01",
      "from": "0x56fd3f2bee130e9867942d0f463a16fbe49b8d81",
      "to": "0xf7ab72be610821eccee45f78c490c71356ecab27",
      "contractAddress": null,
      "l1BaseFeeScalar": "0x0",
      "l1BlobBaseFee": "0x1",
      "l1BlobBaseFeeScalar": "0x0",
      "l1Fee": "0x0",
      "l1GasPrice": "0x2f",
      "l1GasUsed": "0x640"
    },
    {
      "status": "0x1",
      "cumulativeGasUsed": "0x71d3b",
      "logs": [],
      "logsBloom": "0x00000000000000000000000000000000000000000000000000000000000000000000000000000000000000000000000000000000000000000000000000000000000000000000000000000000000000000000000000000000000000000000000000000000000000000000000000000000000000000000000000000000000000000000000000000000000000000000000000000000000000000000000000000000000000000000000000000000000000000000000000000000000000000000000000000000000000000000000000000000000000000000000000000000000000000000000000000000000000000000000000000000000000000000000000000000",
      "type": "0x2",
      "transactionHash": "0xb958cf85ab6acc62a5a1f9fe69aa2fa5aa79ffdf9baab8f5f116578ec2cdb5f1",
      "transactionIndex": "0xe",
      "blockHash": "0xc3c3d855eef2ba08322876e003d3cef4f3a61d81f4842cc8b1c6425a4382f8aa",
      "blockNumber": "0x42b5c4",
      "gasUsed": "0x843c",
      "effectiveGasPrice": "0x5d21dba01",
      "from": "0x56fd3f2bee130e9867942d0f463a16fbe49b8d81",
      "to": "0xf7ab72be610821eccee45f78c490c71356ecab27",
      "contractAddress": null,
      "l1BaseFeeScalar": "0x0",
      "l1BlobBaseFee": "0x1",
      "l1BlobBaseFeeScalar": "0x0",
      "l1Fee": "0x0",
      "l1GasPrice": "0x2f",
      "l1GasUsed": "0x640"
    },
    {
      "status": "0x1",
      "cumulativeGasUsed": "0x11a1d",
      "logs": [],
      "logsBloom": "0x00000000000000000000000000000000000000000000000000000000000000000000000000000000000000000000000000000000000000000000000000000000000000000000000000000000000000000000000000000000000000000000000000000000000000000000000000000000000000000000000000000000000000000000000000000000000000000000000000000000000000000000000000000000000000000000000000000000000000000000000000000000000000000000000000000000000000000000000000000000000000000000000000000000000000000000000000000000000000000000000000000000000000000000000000000000",
      "type": "0x2",
      "transactionHash": "0x44a4b1847c3b320779ba2b78a372d66e8c495130361d3257e77e84d77765a251",
      "transactionIndex": "0x1",
      "blockHash": "0x6e60a18ad82479af97131baac3717be080e5015bc9d0d63f86a34bf8b46e2483",
      "blockNumber": "0x42b5c5",
      "gasUsed": "0x663d",
      "effectiveGasPrice": "0x5d21dba01",
      "from": "0x56fd3f2bee130e9867942d0f463a16fbe49b8d81",
      "to": "0x76291e7933851fc64c874a30218d5d92978340a7",
      "contractAddress": null,
      "l1BaseFeeScalar": "0x0",
      "l1BlobBaseFee": "0x1",
      "l1BlobBaseFeeScalar": "0x0",
      "l1Fee": "0x0",
      "l1GasPrice": "0x2f",
      "l1GasUsed": "0x640"
    },
    {
      "status": "0x1",
      "cumulativeGasUsed": "0x19e7d",
      "logs": [],
      "logsBloom": "0x00000000000000000000000000000000000000000000000000000000000000000000000000000000000000000000000000000000000000000000000000000000000000000000000000000000000000000000000000000000000000000000000000000000000000000000000000000000000000000000000000000000000000000000000000000000000000000000000000000000000000000000000000000000000000000000000000000000000000000000000000000000000000000000000000000000000000000000000000000000000000000000000000000000000000000000000000000000000000000000000000000000000000000000000000000000",
      "type": "0x2",
      "transactionHash": "0xb4310880b07cb340f0260436a9f11b0a17439f55a6447af87c789b38e1b17013",
      "transactionIndex": "0x2",
      "blockHash": "0x6e60a18ad82479af97131baac3717be080e5015bc9d0d63f86a34bf8b46e2483",
      "blockNumber": "0x42b5c5",
      "gasUsed": "0x8460",
      "effectiveGasPrice": "0x5d21dba01",
      "from": "0x56fd3f2bee130e9867942d0f463a16fbe49b8d81",
      "to": "0x76291e7933851fc64c874a30218d5d92978340a7",
      "contractAddress": null,
      "l1BaseFeeScalar": "0x0",
      "l1BlobBaseFee": "0x1",
      "l1BlobBaseFeeScalar": "0x0",
      "l1Fee": "0x0",
      "l1GasPrice": "0x2f",
      "l1GasUsed": "0x640"
    },
    {
      "status": "0x1",
      "cumulativeGasUsed": "0x204ba",
      "logs": [],
      "logsBloom": "0x00000000000000000000000000000000000000000000000000000000000000000000000000000000000000000000000000000000000000000000000000000000000000000000000000000000000000000000000000000000000000000000000000000000000000000000000000000000000000000000000000000000000000000000000000000000000000000000000000000000000000000000000000000000000000000000000000000000000000000000000000000000000000000000000000000000000000000000000000000000000000000000000000000000000000000000000000000000000000000000000000000000000000000000000000000000",
      "type": "0x2",
      "transactionHash": "0xe7309e860899329fd7c84ed5d619ed3a5544f89cd9d103af70d39ef46b878e3e",
      "transactionIndex": "0x3",
      "blockHash": "0x6e60a18ad82479af97131baac3717be080e5015bc9d0d63f86a34bf8b46e2483",
      "blockNumber": "0x42b5c5",
      "gasUsed": "0x663d",
      "effectiveGasPrice": "0x5d21dba01",
      "from": "0x56fd3f2bee130e9867942d0f463a16fbe49b8d81",
      "to": "0x00e406495a36311dc4b30dfecb140ee4a70118c7",
      "contractAddress": null,
      "l1BaseFeeScalar": "0x0",
      "l1BlobBaseFee": "0x1",
      "l1BlobBaseFeeScalar": "0x0",
      "l1Fee": "0x0",
      "l1GasPrice": "0x2f",
      "l1GasUsed": "0x640"
    },
    {
      "status": "0x1",
      "cumulativeGasUsed": "0x2891a",
      "logs": [],
      "logsBloom": "0x00000000000000000000000000000000000000000000000000000000000000000000000000000000000000000000000000000000000000000000000000000000000000000000000000000000000000000000000000000000000000000000000000000000000000000000000000000000000000000000000000000000000000000000000000000000000000000000000000000000000000000000000000000000000000000000000000000000000000000000000000000000000000000000000000000000000000000000000000000000000000000000000000000000000000000000000000000000000000000000000000000000000000000000000000000000",
      "type": "0x2",
      "transactionHash": "0x80a6d60c012d5476a979a25d8993f620553aa684036e2bfbfc45a158892d3531",
      "transactionIndex": "0x4",
      "blockHash": "0x6e60a18ad82479af97131baac3717be080e5015bc9d0d63f86a34bf8b46e2483",
      "blockNumber": "0x42b5c5",
      "gasUsed": "0x8460",
      "effectiveGasPrice": "0x5d21dba01",
      "from": "0x56fd3f2bee130e9867942d0f463a16fbe49b8d81",
      "to": "0x00e406495a36311dc4b30dfecb140ee4a70118c7",
      "contractAddress": null,
      "l1BaseFeeScalar": "0x0",
      "l1BlobBaseFee": "0x1",
      "l1BlobBaseFeeScalar": "0x0",
      "l1Fee": "0x0",
      "l1GasPrice": "0x2f",
      "l1GasUsed": "0x640"
    },
    {
      "status": "0x1",
      "cumulativeGasUsed": "0x2ef57",
      "logs": [],
      "logsBloom": "0x00000000000000000000000000000000000000000000000000000000000000000000000000000000000000000000000000000000000000000000000000000000000000000000000000000000000000000000000000000000000000000000000000000000000000000000000000000000000000000000000000000000000000000000000000000000000000000000000000000000000000000000000000000000000000000000000000000000000000000000000000000000000000000000000000000000000000000000000000000000000000000000000000000000000000000000000000000000000000000000000000000000000000000000000000000000",
      "type": "0x2",
      "transactionHash": "0xcd4864353b3e060d80b381cce5f34a1fcf42074cf1ac04557fc66f79556edb6e",
      "transactionIndex": "0x5",
      "blockHash": "0x6e60a18ad82479af97131baac3717be080e5015bc9d0d63f86a34bf8b46e2483",
      "blockNumber": "0x42b5c5",
      "gasUsed": "0x663d",
      "effectiveGasPrice": "0x5d21dba01",
      "from": "0x56fd3f2bee130e9867942d0f463a16fbe49b8d81",
      "to": "0xcb7c39239880b0773475900b1f0b529a1714ae5e",
      "contractAddress": null,
      "l1BaseFeeScalar": "0x0",
      "l1BlobBaseFee": "0x1",
      "l1BlobBaseFeeScalar": "0x0",
      "l1Fee": "0x0",
      "l1GasPrice": "0x2f",
      "l1GasUsed": "0x640"
    },
    {
      "status": "0x1",
      "cumulativeGasUsed": "0x37387",
      "logs": [],
      "logsBloom": "0x00000000000000000000000000000000000000000000000000000000000000000000000000000000000000000000000000000000000000000000000000000000000000000000000000000000000000000000000000000000000000000000000000000000000000000000000000000000000000000000000000000000000000000000000000000000000000000000000000000000000000000000000000000000000000000000000000000000000000000000000000000000000000000000000000000000000000000000000000000000000000000000000000000000000000000000000000000000000000000000000000000000000000000000000000000000",
      "type": "0x2",
      "transactionHash": "0xd8d03babe97323af7d63a56ae94f838c90bc20adae8baa0eaa640407ec7212e5",
      "transactionIndex": "0x6",
      "blockHash": "0x6e60a18ad82479af97131baac3717be080e5015bc9d0d63f86a34bf8b46e2483",
      "blockNumber": "0x42b5c5",
      "gasUsed": "0x8430",
      "effectiveGasPrice": "0x5d21dba01",
      "from": "0x56fd3f2bee130e9867942d0f463a16fbe49b8d81",
      "to": "0xcb7c39239880b0773475900b1f0b529a1714ae5e",
      "contractAddress": null,
      "l1BaseFeeScalar": "0x0",
      "l1BlobBaseFee": "0x1",
      "l1BlobBaseFeeScalar": "0x0",
      "l1Fee": "0x0",
      "l1GasPrice": "0x2f",
      "l1GasUsed": "0x640"
    },
    {
      "status": "0x1",
      "cumulativeGasUsed": "0x3d9c4",
      "logs": [],
      "logsBloom": "0x00000000000000000000000000000000000000000000000000000000000000000000000000000000000000000000000000000000000000000000000000000000000000000000000000000000000000000000000000000000000000000000000000000000000000000000000000000000000000000000000000000000000000000000000000000000000000000000000000000000000000000000000000000000000000000000000000000000000000000000000000000000000000000000000000000000000000000000000000000000000000000000000000000000000000000000000000000000000000000000000000000000000000000000000000000000",
      "type": "0x2",
      "transactionHash": "0x654b182f0e135837b7370cc416769e194301468b2afc4b5592648c0cadad4956",
      "transactionIndex": "0x7",
      "blockHash": "0x6e60a18ad82479af97131baac3717be080e5015bc9d0d63f86a34bf8b46e2483",
      "blockNumber": "0x42b5c5",
      "gasUsed": "0x663d",
      "effectiveGasPrice": "0x5d21dba01",
      "from": "0x56fd3f2bee130e9867942d0f463a16fbe49b8d81",
      "to": "0xff40c3c48ed8e25ac63dd92cc9a328da890c3930",
      "contractAddress": null,
      "l1BaseFeeScalar": "0x0",
      "l1BlobBaseFee": "0x1",
      "l1BlobBaseFeeScalar": "0x0",
      "l1Fee": "0x0",
      "l1GasPrice": "0x2f",
      "l1GasUsed": "0x640"
    },
    {
      "status": "0x1",
      "cumulativeGasUsed": "0x45de8",
      "logs": [],
      "logsBloom": "0x00000000000000000000000000000000000000000000000000000000000000000000000000000000000000000000000000000000000000000000000000000000000000000000000000000000000000000000000000000000000000000000000000000000000000000000000000000000000000000000000000000000000000000000000000000000000000000000000000000000000000000000000000000000000000000000000000000000000000000000000000000000000000000000000000000000000000000000000000000000000000000000000000000000000000000000000000000000000000000000000000000000000000000000000000000000",
      "type": "0x2",
      "transactionHash": "0xf76b3c9ca84ae9dd91dafa9ae89f0aef3b28dfe6dac71cf44d28d831e5885fa0",
      "transactionIndex": "0x8",
      "blockHash": "0x6e60a18ad82479af97131baac3717be080e5015bc9d0d63f86a34bf8b46e2483",
      "blockNumber": "0x42b5c5",
      "gasUsed": "0x8424",
      "effectiveGasPrice": "0x5d21dba01",
      "from": "0x56fd3f2bee130e9867942d0f463a16fbe49b8d81",
      "to": "0xff40c3c48ed8e25ac63dd92cc9a328da890c3930",
      "contractAddress": null,
      "l1BaseFeeScalar": "0x0",
      "l1BlobBaseFee": "0x1",
      "l1BlobBaseFeeScalar": "0x0",
      "l1Fee": "0x0",
      "l1GasPrice": "0x2f",
      "l1GasUsed": "0x640"
    },
    {
      "status": "0x1",
      "cumulativeGasUsed": "0x4c425",
      "logs": [],
      "logsBloom": "0x00000000000000000000000000000000000000000000000000000000000000000000000000000000000000000000000000000000000000000000000000000000000000000000000000000000000000000000000000000000000000000000000000000000000000000000000000000000000000000000000000000000000000000000000000000000000000000000000000000000000000000000000000000000000000000000000000000000000000000000000000000000000000000000000000000000000000000000000000000000000000000000000000000000000000000000000000000000000000000000000000000000000000000000000000000000",
      "type": "0x2",
      "transactionHash": "0x39b61648f80a7ab47fd804c694fd6c7857a1d7e6d55a6429b5346dcdbcf059fb",
      "transactionIndex": "0x9",
      "blockHash": "0x6e60a18ad82479af97131baac3717be080e5015bc9d0d63f86a34bf8b46e2483",
      "blockNumber": "0x42b5c5",
      "gasUsed": "0x663d",
      "effectiveGasPrice": "0x5d21dba01",
      "from": "0x56fd3f2bee130e9867942d0f463a16fbe49b8d81",
      "to": "0xf6d0f39f5087fbead36233b979d34a90618f6b20",
      "contractAddress": null,
      "l1BaseFeeScalar": "0x0",
      "l1BlobBaseFee": "0x1",
      "l1BlobBaseFeeScalar": "0x0",
      "l1Fee": "0x0",
      "l1GasPrice": "0x2f",
      "l1GasUsed": "0x640"
    },
    {
      "status": "0x1",
      "cumulativeGasUsed": "0x54855",
      "logs": [],
      "logsBloom": "0x00000000000000000000000000000000000000000000000000000000000000000000000000000000000000000000000000000000000000000000000000000000000000000000000000000000000000000000000000000000000000000000000000000000000000000000000000000000000000000000000000000000000000000000000000000000000000000000000000000000000000000000000000000000000000000000000000000000000000000000000000000000000000000000000000000000000000000000000000000000000000000000000000000000000000000000000000000000000000000000000000000000000000000000000000000000",
      "type": "0x2",
      "transactionHash": "0x15bc94d6b2e3a7fc172ed4b4ec6533a4502255cc7d6afe15a7cc8f2fb91db406",
      "transactionIndex": "0xa",
      "blockHash": "0x6e60a18ad82479af97131baac3717be080e5015bc9d0d63f86a34bf8b46e2483",
      "blockNumber": "0x42b5c5",
      "gasUsed": "0x8430",
      "effectiveGasPrice": "0x5d21dba01",
      "from": "0x56fd3f2bee130e9867942d0f463a16fbe49b8d81",
      "to": "0xf6d0f39f5087fbead36233b979d34a90618f6b20",
      "contractAddress": null,
      "l1BaseFeeScalar": "0x0",
      "l1BlobBaseFee": "0x1",
      "l1BlobBaseFeeScalar": "0x0",
      "l1Fee": "0x0",
      "l1GasPrice": "0x2f",
      "l1GasUsed": "0x640"
    },
    {
      "status": "0x1",
      "cumulativeGasUsed": "0x11a1d",
      "logs": [],
      "logsBloom": "0x00000000000000000000000000000000000000000000000000000000000000000000000000000000000000000000000000000000000000000000000000000000000000000000000000000000000000000000000000000000000000000000000000000000000000000000000000000000000000000000000000000000000000000000000000000000000000000000000000000000000000000000000000000000000000000000000000000000000000000000000000000000000000000000000000000000000000000000000000000000000000000000000000000000000000000000000000000000000000000000000000000000000000000000000000000000",
      "type": "0x2",
      "transactionHash": "0xdec040346e32021b5ab1551e54de46d2ea603d41cd0b8714cc81e85b02e82765",
      "transactionIndex": "0x1",
      "blockHash": "0xfc8c6c993bf96f434d9921cecf0714f7642d5cccb6b45244e412d87e4c24ff60",
      "blockNumber": "0x42b5c6",
      "gasUsed": "0x663d",
      "effectiveGasPrice": "0x5d21dba01",
      "from": "0x56fd3f2bee130e9867942d0f463a16fbe49b8d81",
      "to": "0x9b6ea7621eec8ece34dd0c4a87041962b435a185",
      "contractAddress": null,
      "l1BaseFeeScalar": "0x0",
      "l1BlobBaseFee": "0x1",
      "l1BlobBaseFeeScalar": "0x0",
      "l1Fee": "0x0",
      "l1GasPrice": "0x2f",
      "l1GasUsed": "0x640"
    },
    {
      "status": "0x1",
      "cumulativeGasUsed": "0x19e59",
      "logs": [],
      "logsBloom": "0x00000000000000000000000000000000000000000000000000000000000000000000000000000000000000000000000000000000000000000000000000000000000000000000000000000000000000000000000000000000000000000000000000000000000000000000000000000000000000000000000000000000000000000000000000000000000000000000000000000000000000000000000000000000000000000000000000000000000000000000000000000000000000000000000000000000000000000000000000000000000000000000000000000000000000000000000000000000000000000000000000000000000000000000000000000000",
      "type": "0x2",
      "transactionHash": "0xdbd02307e3bc6ad47958628facb66288371b1b5a539cf9131b5b869690dd8b7a",
      "transactionIndex": "0x2",
      "blockHash": "0xfc8c6c993bf96f434d9921cecf0714f7642d5cccb6b45244e412d87e4c24ff60",
      "blockNumber": "0x42b5c6",
      "gasUsed": "0x843c",
      "effectiveGasPrice": "0x5d21dba01",
      "from": "0x56fd3f2bee130e9867942d0f463a16fbe49b8d81",
      "to": "0x9b6ea7621eec8ece34dd0c4a87041962b435a185",
      "contractAddress": null,
      "l1BaseFeeScalar": "0x0",
      "l1BlobBaseFee": "0x1",
      "l1BlobBaseFeeScalar": "0x0",
      "l1Fee": "0x0",
      "l1GasPrice": "0x2f",
      "l1GasUsed": "0x640"
    },
    {
      "status": "0x1",
      "cumulativeGasUsed": "0x20496",
      "logs": [],
      "logsBloom": "0x00000000000000000000000000000000000000000000000000000000000000000000000000000000000000000000000000000000000000000000000000000000000000000000000000000000000000000000000000000000000000000000000000000000000000000000000000000000000000000000000000000000000000000000000000000000000000000000000000000000000000000000000000000000000000000000000000000000000000000000000000000000000000000000000000000000000000000000000000000000000000000000000000000000000000000000000000000000000000000000000000000000000000000000000000000000",
      "type": "0x2",
      "transactionHash": "0xab0a98b8db5ac9ae195d0af13c15442b98eeef75c5824c650f47eeb77891915b",
      "transactionIndex": "0x3",
      "blockHash": "0xfc8c6c993bf96f434d9921cecf0714f7642d5cccb6b45244e412d87e4c24ff60",
      "blockNumber": "0x42b5c6",
      "gasUsed": "0x663d",
      "effectiveGasPrice": "0x5d21dba01",
      "from": "0x56fd3f2bee130e9867942d0f463a16fbe49b8d81",
      "to": "0x5c9a1c3835a3dd7618a9dbb0ee1325d853fd7d3d",
      "contractAddress": null,
      "l1BaseFeeScalar": "0x0",
      "l1BlobBaseFee": "0x1",
      "l1BlobBaseFeeScalar": "0x0",
      "l1Fee": "0x0",
      "l1GasPrice": "0x2f",
      "l1GasUsed": "0x640"
    },
    {
      "status": "0x1",
      "cumulativeGasUsed": "0x13810",
      "logs": [],
      "logsBloom": "0x00000000000000000000000000000000000000000000000000000000000000000000000000000000000000000000000000000000000000000000000000000000000000000000000000000000000000000000000000000000000000000000000000000000000000000000000000000000000000000000000000000000000000000000000000000000000000000000000000000000000000000000000000000000000000000000000000000000000000000000000000000000000000000000000000000000000000000000000000000000000000000000000000000000000000000000000000000000000000000000000000000000000000000000000000000000",
      "type": "0x2",
      "transactionHash": "0x1043b292a80b95b59163d977c753c9adc5f42cc623013f6ccebae905fdfa9371",
      "transactionIndex": "0x1",
      "blockHash": "0x233b35e1e20d8d57ac9067c0d8d11fcf52b03281c037a520061e15ab46f54a05",
      "blockNumber": "0x42b5c7",
      "gasUsed": "0x8430",
      "effectiveGasPrice": "0x5d21dba01",
      "from": "0x56fd3f2bee130e9867942d0f463a16fbe49b8d81",
      "to": "0x5c9a1c3835a3dd7618a9dbb0ee1325d853fd7d3d",
      "contractAddress": null,
      "l1BaseFeeScalar": "0x0",
      "l1BlobBaseFee": "0x1",
      "l1BlobBaseFeeScalar": "0x0",
      "l1Fee": "0x0",
      "l1GasPrice": "0x2f",
      "l1GasUsed": "0x640"
    },
    {
      "status": "0x1",
      "cumulativeGasUsed": "0x19e4d",
      "logs": [],
      "logsBloom": "0x00000000000000000000000000000000000000000000000000000000000000000000000000000000000000000000000000000000000000000000000000000000000000000000000000000000000000000000000000000000000000000000000000000000000000000000000000000000000000000000000000000000000000000000000000000000000000000000000000000000000000000000000000000000000000000000000000000000000000000000000000000000000000000000000000000000000000000000000000000000000000000000000000000000000000000000000000000000000000000000000000000000000000000000000000000000",
      "type": "0x2",
      "transactionHash": "0x93e872170304ed284fc745b5805deee20e0683887bca685bf414e69d42e20c4f",
      "transactionIndex": "0x2",
      "blockHash": "0x233b35e1e20d8d57ac9067c0d8d11fcf52b03281c037a520061e15ab46f54a05",
      "blockNumber": "0x42b5c7",
      "gasUsed": "0x663d",
      "effectiveGasPrice": "0x5d21dba01",
      "from": "0x56fd3f2bee130e9867942d0f463a16fbe49b8d81",
      "to": "0xa5f93481c20a6e0f6360aaf80b8693179dcc6c9b",
      "contractAddress": null,
      "l1BaseFeeScalar": "0x0",
      "l1BlobBaseFee": "0x1",
      "l1BlobBaseFeeScalar": "0x0",
      "l1Fee": "0x0",
      "l1GasPrice": "0x2f",
      "l1GasUsed": "0x640"
    },
    {
      "status": "0x1",
      "cumulativeGasUsed": "0x1381c",
      "logs": [],
      "logsBloom": "0x00000000000000000000000000000000000000000000000000000000000000000000000000000000000000000000000000000000000000000000000000000000000000000000000000000000000000000000000000000000000000000000000000000000000000000000000000000000000000000000000000000000000000000000000000000000000000000000000000000000000000000000000000000000000000000000000000000000000000000000000000000000000000000000000000000000000000000000000000000000000000000000000000000000000000000000000000000000000000000000000000000000000000000000000000000000",
      "type": "0x2",
      "transactionHash": "0x6a93440996ba98a34f3c5e301c5d61604d58424e67e7fd7f6d9d298b6ce706f0",
      "transactionIndex": "0x1",
      "blockHash": "0x65b262b299f3d05ce5dac1b851a2a81e152949983a90ab9060352e99833b284f",
      "blockNumber": "0x42b5c9",
      "gasUsed": "0x843c",
      "effectiveGasPrice": "0x5d21dba01",
      "from": "0x56fd3f2bee130e9867942d0f463a16fbe49b8d81",
      "to": "0xa5f93481c20a6e0f6360aaf80b8693179dcc6c9b",
      "contractAddress": null,
      "l1BaseFeeScalar": "0x0",
      "l1BlobBaseFee": "0x1",
      "l1BlobBaseFeeScalar": "0x0",
      "l1Fee": "0x0",
      "l1GasPrice": "0x2f",
      "l1GasUsed": "0x640"
    },
    {
      "status": "0x1",
      "cumulativeGasUsed": "0x19e59",
      "logs": [],
      "logsBloom": "0x00000000000000000000000000000000000000000000000000000000000000000000000000000000000000000000000000000000000000000000000000000000000000000000000000000000000000000000000000000000000000000000000000000000000000000000000000000000000000000000000000000000000000000000000000000000000000000000000000000000000000000000000000000000000000000000000000000000000000000000000000000000000000000000000000000000000000000000000000000000000000000000000000000000000000000000000000000000000000000000000000000000000000000000000000000000",
      "type": "0x2",
      "transactionHash": "0xc60aebcd4dfb13f2fba5294c026bd4bd93e10e592f916429dbe58462e92ad854",
      "transactionIndex": "0x2",
      "blockHash": "0x65b262b299f3d05ce5dac1b851a2a81e152949983a90ab9060352e99833b284f",
      "blockNumber": "0x42b5c9",
      "gasUsed": "0x663d",
      "effectiveGasPrice": "0x5d21dba01",
      "from": "0x56fd3f2bee130e9867942d0f463a16fbe49b8d81",
      "to": "0x94d96baef28145235fa66758b0b121bed0ee1361",
      "contractAddress": null,
      "l1BaseFeeScalar": "0x0",
      "l1BlobBaseFee": "0x1",
      "l1BlobBaseFeeScalar": "0x0",
      "l1Fee": "0x0",
      "l1GasPrice": "0x2f",
      "l1GasUsed": "0x640"
    },
    {
      "status": "0x1",
      "cumulativeGasUsed": "0x22295",
      "logs": [],
      "logsBloom": "0x00000000000000000000000000000000000000000000000000000000000000000000000000000000000000000000000000000000000000000000000000000000000000000000000000000000000000000000000000000000000000000000000000000000000000000000000000000000000000000000000000000000000000000000000000000000000000000000000000000000000000000000000000000000000000000000000000000000000000000000000000000000000000000000000000000000000000000000000000000000000000000000000000000000000000000000000000000000000000000000000000000000000000000000000000000000",
      "type": "0x2",
      "transactionHash": "0x28032e6ac117272a3ee81b530fa01efdcebe52c4c68fc8d11b66a3d02918b85a",
      "transactionIndex": "0x3",
      "blockHash": "0x65b262b299f3d05ce5dac1b851a2a81e152949983a90ab9060352e99833b284f",
      "blockNumber": "0x42b5c9",
      "gasUsed": "0x843c",
      "effectiveGasPrice": "0x5d21dba01",
      "from": "0x56fd3f2bee130e9867942d0f463a16fbe49b8d81",
      "to": "0x94d96baef28145235fa66758b0b121bed0ee1361",
      "contractAddress": null,
      "l1BaseFeeScalar": "0x0",
      "l1BlobBaseFee": "0x1",
      "l1BlobBaseFeeScalar": "0x0",
      "l1Fee": "0x0",
      "l1GasPrice": "0x2f",
      "l1GasUsed": "0x640"
    },
    {
      "status": "0x1",
      "cumulativeGasUsed": "0x288d2",
      "logs": [],
      "logsBloom": "0x00000000000000000000000000000000000000000000000000000000000000000000000000000000000000000000000000000000000000000000000000000000000000000000000000000000000000000000000000000000000000000000000000000000000000000000000000000000000000000000000000000000000000000000000000000000000000000000000000000000000000000000000000000000000000000000000000000000000000000000000000000000000000000000000000000000000000000000000000000000000000000000000000000000000000000000000000000000000000000000000000000000000000000000000000000000",
      "type": "0x2",
      "transactionHash": "0xd9065297f0e02e849a81328c158cfa8ca929a50036cb4476479f01b68ed35c2c",
      "transactionIndex": "0x4",
      "blockHash": "0x65b262b299f3d05ce5dac1b851a2a81e152949983a90ab9060352e99833b284f",
      "blockNumber": "0x42b5c9",
      "gasUsed": "0x663d",
      "effectiveGasPrice": "0x5d21dba01",
      "from": "0x56fd3f2bee130e9867942d0f463a16fbe49b8d81",
      "to": "0xdf23f723e9f8033d650a7e7fbf8759233be6c1b4",
      "contractAddress": null,
      "l1BaseFeeScalar": "0x0",
      "l1BlobBaseFee": "0x1",
      "l1BlobBaseFeeScalar": "0x0",
      "l1Fee": "0x0",
      "l1GasPrice": "0x2f",
      "l1GasUsed": "0x640"
    },
    {
      "status": "0x1",
      "cumulativeGasUsed": "0x1381c",
      "logs": [],
      "logsBloom": "0x00000000000000000000000000000000000000000000000000000000000000000000000000000000000000000000000000000000000000000000000000000000000000000000000000000000000000000000000000000000000000000000000000000000000000000000000000000000000000000000000000000000000000000000000000000000000000000000000000000000000000000000000000000000000000000000000000000000000000000000000000000000000000000000000000000000000000000000000000000000000000000000000000000000000000000000000000000000000000000000000000000000000000000000000000000000",
      "type": "0x2",
      "transactionHash": "0x551cd920c67ad6f749627afdfd0cd9c947afcc1201fb32add1f1a9e2b592eb7b",
      "transactionIndex": "0x1",
      "blockHash": "0xdabb7fbccdb26d2398821d5a79706c8f667a2702a3390c636c84662a3286cb01",
      "blockNumber": "0x42b5ca",
      "gasUsed": "0x843c",
      "effectiveGasPrice": "0x5d21dba01",
      "from": "0x56fd3f2bee130e9867942d0f463a16fbe49b8d81",
      "to": "0xdf23f723e9f8033d650a7e7fbf8759233be6c1b4",
      "contractAddress": null,
      "l1BaseFeeScalar": "0x0",
      "l1BlobBaseFee": "0x1",
      "l1BlobBaseFeeScalar": "0x0",
      "l1Fee": "0x0",
      "l1GasPrice": "0x2f",
      "l1GasUsed": "0x640"
    },
    {
      "status": "0x1",
      "cumulativeGasUsed": "0x19e59",
      "logs": [],
      "logsBloom": "0x00000000000000000000000000000000000000000000000000000000000000000000000000000000000000000000000000000000000000000000000000000000000000000000000000000000000000000000000000000000000000000000000000000000000000000000000000000000000000000000000000000000000000000000000000000000000000000000000000000000000000000000000000000000000000000000000000000000000000000000000000000000000000000000000000000000000000000000000000000000000000000000000000000000000000000000000000000000000000000000000000000000000000000000000000000000",
      "type": "0x2",
      "transactionHash": "0x26bfc33e00e9bbe4467c5ce349dbec0542621a6c0d61887ab09c57f803254e0c",
      "transactionIndex": "0x2",
      "blockHash": "0xdabb7fbccdb26d2398821d5a79706c8f667a2702a3390c636c84662a3286cb01",
      "blockNumber": "0x42b5ca",
      "gasUsed": "0x663d",
      "effectiveGasPrice": "0x5d21dba01",
      "from": "0x56fd3f2bee130e9867942d0f463a16fbe49b8d81",
      "to": "0x7948b896a3d40b5f992dee730c96c49c25124e81",
      "contractAddress": null,
      "l1BaseFeeScalar": "0x0",
      "l1BlobBaseFee": "0x1",
      "l1BlobBaseFeeScalar": "0x0",
      "l1Fee": "0x0",
      "l1GasPrice": "0x2f",
      "l1GasUsed": "0x640"
    },
    {
      "status": "0x1",
      "cumulativeGasUsed": "0x13810",
      "logs": [],
      "logsBloom": "0x00000000000000000000000000000000000000000000000000000000000000000000000000000000000000000000000000000000000000000000000000000000000000000000000000000000000000000000000000000000000000000000000000000000000000000000000000000000000000000000000000000000000000000000000000000000000000000000000000000000000000000000000000000000000000000000000000000000000000000000000000000000000000000000000000000000000000000000000000000000000000000000000000000000000000000000000000000000000000000000000000000000000000000000000000000000",
      "type": "0x2",
      "transactionHash": "0xa152f33fff0eca30fb74243c56c43015921c453fde2e28e7463c4d6c92292cc9",
      "transactionIndex": "0x1",
      "blockHash": "0x3de0c9b7f9775be01dfe0fd3e8330417c666a11c3a934a9724bbcf3b01e91c18",
      "blockNumber": "0x42b5cb",
      "gasUsed": "0x8430",
      "effectiveGasPrice": "0x5d21dba01",
      "from": "0x56fd3f2bee130e9867942d0f463a16fbe49b8d81",
      "to": "0x7948b896a3d40b5f992dee730c96c49c25124e81",
      "contractAddress": null,
      "l1BaseFeeScalar": "0x0",
      "l1BlobBaseFee": "0x1",
      "l1BlobBaseFeeScalar": "0x0",
      "l1Fee": "0x0",
      "l1GasPrice": "0x2f",
      "l1GasUsed": "0x640"
    },
    {
      "status": "0x1",
      "cumulativeGasUsed": "0x19e4d",
      "logs": [],
      "logsBloom": "0x00000000000000000000000000000000000000000000000000000000000000000000000000000000000000000000000000000000000000000000000000000000000000000000000000000000000000000000000000000000000000000000000000000000000000000000000000000000000000000000000000000000000000000000000000000000000000000000000000000000000000000000000000000000000000000000000000000000000000000000000000000000000000000000000000000000000000000000000000000000000000000000000000000000000000000000000000000000000000000000000000000000000000000000000000000000",
      "type": "0x2",
      "transactionHash": "0x70dcc4286ac999ad6d197442773035e5ea64a9386b1fd00e4cc6f1262b2e14f3",
      "transactionIndex": "0x2",
      "blockHash": "0x3de0c9b7f9775be01dfe0fd3e8330417c666a11c3a934a9724bbcf3b01e91c18",
      "blockNumber": "0x42b5cb",
      "gasUsed": "0x663d",
      "effectiveGasPrice": "0x5d21dba01",
      "from": "0x56fd3f2bee130e9867942d0f463a16fbe49b8d81",
      "to": "0x6545030396e3e8430eadfdda4c6a0330ae8377d8",
      "contractAddress": null,
      "l1BaseFeeScalar": "0x0",
      "l1BlobBaseFee": "0x1",
      "l1BlobBaseFeeScalar": "0x0",
      "l1Fee": "0x0",
      "l1GasPrice": "0x2f",
      "l1GasUsed": "0x640"
    },
    {
      "status": "0x1",
      "cumulativeGasUsed": "0x222ad",
      "logs": [],
      "logsBloom": "0x00000000000000000000000000000000000000000000000000000000000000000000000000000000000000000000000000000000000000000000000000000000000000000000000000000000000000000000000000000000000000000000000000000000000000000000000000000000000000000000000000000000000000000000000000000000000000000000000000000000000000000000000000000000000000000000000000000000000000000000000000000000000000000000000000000000000000000000000000000000000000000000000000000000000000000000000000000000000000000000000000000000000000000000000000000000",
      "type": "0x2",
      "transactionHash": "0x8edb7750c0b322dea51460cc833059a9252f5b1124419d36070b4a8106ebcc92",
      "transactionIndex": "0x3",
      "blockHash": "0x3de0c9b7f9775be01dfe0fd3e8330417c666a11c3a934a9724bbcf3b01e91c18",
      "blockNumber": "0x42b5cb",
      "gasUsed": "0x8460",
      "effectiveGasPrice": "0x5d21dba01",
      "from": "0x56fd3f2bee130e9867942d0f463a16fbe49b8d81",
      "to": "0x6545030396e3e8430eadfdda4c6a0330ae8377d8",
      "contractAddress": null,
      "l1BaseFeeScalar": "0x0",
      "l1BlobBaseFee": "0x1",
      "l1BlobBaseFeeScalar": "0x0",
      "l1Fee": "0x0",
      "l1GasPrice": "0x2f",
      "l1GasUsed": "0x640"
    }
  ],
  "libraries": [
    "node_modules/@celo/contracts/common/linkedlists/AddressSortedLinkedListWithMedian.sol:AddressSortedLinkedListWithMedian:0xf90B816Ea07eC3c6384656cd5B3249DA8fc3df6F"
  ],
  "pending": [],
  "returns": {},
  "timestamp": 1757655906046,
  "chain": 11142220,
  "commit": "90cc8d0"
}