{
  "transactions": [
    {
      "hash": "0x9f3f941ad921361698b93559b7e4d125495034a6506edbf2371147a4e1f7293d",
      "transactionType": "CALL",
      "contractName": null,
      "contractAddress": "0x712959a392488f3eae92c7d2d66517fc3ec829d0",
      "function": "setExternalProvider(address)",
      "arguments": [
        "0x0000000000000000000000000000000000000000"
      ],
      "transaction": {
        "from": "0x56fd3f2bee130e9867942d0f463a16fbe49b8d81",
        "to": "0x712959a392488f3eae92c7d2d66517fc3ec829d0",
        "gas": "0x8bea",
        "value": "0x0",
        "input": "0xe3ac82260000000000000000000000000000000000000000000000000000000000000000",
        "nonce": "0x165",
        "chainId": "0xaa044c"
      },
      "additionalContracts": [],
      "isFixedGasLimit": false
    },
    {
      "hash": "0x0f725978ef2d5f70648f69b85961466f2c73da6bfe9b8d905528879ba7814310",
      "transactionType": "CALL",
      "contractName": null,
      "contractAddress": "0x712959a392488f3eae92c7d2d66517fc3ec829d0",
      "function": "report(int256,uint256)",
      "arguments": [
        "99985000",
        "1756979037"
      ],
      "transaction": {
        "from": "0x56fd3f2bee130e9867942d0f463a16fbe49b8d81",
        "to": "0x712959a392488f3eae92c7d2d66517fc3ec829d0",
        "gas": "0xb6a5",
        "value": "0x0",
        "input": "0x0f3d249d0000000000000000000000000000000000000000000000000000000005f5a6680000000000000000000000000000000000000000000000000000000068b95f5d",
        "nonce": "0x166",
        "chainId": "0xaa044c"
      },
      "additionalContracts": [],
      "isFixedGasLimit": false
    },
    {
      "hash": "0x71d0fd83b707664d1d257a720b2961cd55c07360bcb1b9b8dd777eb4c959ccec",
      "transactionType": "CALL",
      "contractName": null,
      "contractAddress": "0xb130563ad59b4367de850eb71b6839eade134b05",
      "function": "setExternalProvider(address)",
      "arguments": [
        "0x0000000000000000000000000000000000000000"
      ],
      "transaction": {
        "from": "0x56fd3f2bee130e9867942d0f463a16fbe49b8d81",
        "to": "0xb130563ad59b4367de850eb71b6839eade134b05",
        "gas": "0x8bea",
        "value": "0x0",
        "input": "0xe3ac82260000000000000000000000000000000000000000000000000000000000000000",
        "nonce": "0x167",
        "chainId": "0xaa044c"
      },
      "additionalContracts": [],
      "isFixedGasLimit": false
    },
    {
      "hash": "0x3dff41dacba9651eb1c34cccb6b13e8d8d19ab27532ca13e3e9ae5db51f09ba2",
      "transactionType": "CALL",
      "contractName": null,
      "contractAddress": "0xb130563ad59b4367de850eb71b6839eade134b05",
      "function": "report(int256,uint256)",
      "arguments": [
        "100022180",
        "1756979037"
      ],
      "transaction": {
        "from": "0x56fd3f2bee130e9867942d0f463a16fbe49b8d81",
        "to": "0xb130563ad59b4367de850eb71b6839eade134b05",
        "gas": "0xb6a5",
        "value": "0x0",
        "input": "0x0f3d249d0000000000000000000000000000000000000000000000000000000005f637a40000000000000000000000000000000000000000000000000000000068b95f5d",
        "nonce": "0x168",
        "chainId": "0xaa044c"
      },
      "additionalContracts": [],
      "isFixedGasLimit": false
    },
    {
      "hash": "0xb0537b766d879499a2270a3252f381d8e7fdabeb9a16788818b297ebf9f1d816",
      "transactionType": "CALL",
      "contractName": null,
      "contractAddress": "0xba5ed099633d3b313e4d5f7bdc1305d3c28ba5ed",
      "function": "deployCreate3(bytes32,bytes)",
      "arguments": [
        "0x56fd3f2bee130e9867942d0f463a16fbe49b8d8100bffbbe77045f29390e95a7",
        "0x608060405234801561000f575f5ffd5b5060405161095838038061095883398101604081905261002e9161011c565b806001600160a01b03811661005c57604051631e4fbdf760e01b81525f600482015260240160405180910390fd5b6100658161008e565b5060016100728482610270565b50506002805460ff191660ff929092169190911790555061032a565b5f80546001600160a01b038381166001600160a01b0319831681178455604051919092169283917f8be0079c531659141344cd1fd0a4f28419497f9722a3daafe3b4186f6b6457e09190a35050565b634e487b7160e01b5f52604160045260245ffd5b805160ff81168114610101575f5ffd5b919050565b80516001600160a01b0381168114610101575f5ffd5b5f5f5f6060848603121561012e575f5ffd5b83516001600160401b03811115610143575f5ffd5b8401601f81018613610153575f5ffd5b80516001600160401b0381111561016c5761016c6100dd565b604051601f8201601f19908116603f011681016001600160401b038111828210171561019a5761019a6100dd565b6040528181528282016020018810156101b1575f5ffd5b8160208401602083015e5f602083830101528095505050506101d5602085016100f1565b91506101e360408501610106565b90509250925092565b600181811c9082168061020057607f821691505b60208210810361021e57634e487b7160e01b5f52602260045260245ffd5b50919050565b601f82111561026b57805f5260205f20601f840160051c810160208510156102495750805b601f840160051c820191505b81811015610268575f8155600101610255565b50505b505050565b81516001600160401b03811115610289576102896100dd565b61029d8161029784546101ec565b84610224565b6020601f8211600181146102cf575f83156102b85750848201515b5f19600385901b1c1916600184901b178455610268565b5f84815260208120601f198516915b828110156102fe57878501518255602094850194600190920191016102de565b508482101561031b57868401515f19600387901b60f8161c191681555b50505050600190811b01905550565b610621806103375f395ff3fe608060405234801561000f575f5ffd5b50600436106100e5575f3560e01c80638da5cb5b11610088578063e1e244d811610063578063e1e244d8146101ca578063e3ac8226146101d3578063f2fde38b146101e6578063feaf968c146101f9575f5ffd5b80638da5cb5b1461019057806399213cd8146101a0578063d0b06f5d146101b3575f5ffd5b8063705b9154116100c3578063705b915414610135578063715018a6146101605780637284e416146101685780637a1395aa1461017d575f5ffd5b80630f3d249d146100e9578063313ce567146100fe578063368f186214610122575b5f5ffd5b6100fc6100f73660046104a4565b61022d565b005b60025461010b9060ff1681565b60405160ff90911681526020015b60405180910390f35b6100fc6101303660046104c4565b61027f565b600554610148906001600160a01b031681565b6040516001600160a01b039091168152602001610119565b6100fc6102c2565b6101706102d5565b60405161011991906104db565b6100fc61018b366004610510565b610361565b5f546001600160a01b0316610148565b6100fc6101ae3660046104c4565b61037f565b6101bc60045481565b604051908152602001610119565b6101bc60035481565b6100fc6101e1366004610537565b6103c2565b6100fc6101f4366004610537565b6103ec565b600354600454604080515f80825260208201949094529081018390526060810191909152608081019190915260a001610119565b5f546001600160a01b031633148061024f57506005546001600160a01b031633145b6102745760405162461bcd60e51b815260040161026b9061055d565b60405180910390fd5b600391909155600455565b5f546001600160a01b03163314806102a157506005546001600160a01b031633145b6102bd5760405162461bcd60e51b815260040161026b9061055d565b600455565b6102ca610429565b6102d35f610455565b565b600180546102e2906105b3565b80601f016020809104026020016040519081016040528092919081815260200182805461030e906105b3565b80156103595780601f1061033057610100808354040283529160200191610359565b820191905f5260205f20905b81548152906001019060200180831161033c57829003601f168201915b505050505081565b610369610429565b6002805460ff191660ff92909216919091179055565b5f546001600160a01b03163314806103a157506005546001600160a01b031633145b6103bd5760405162461bcd60e51b815260040161026b9061055d565b600355565b6103ca610429565b600580546001600160a01b0319166001600160a01b0392909216919091179055565b6103f4610429565b6001600160a01b03811661041d57604051631e4fbdf760e01b81525f600482015260240161026b565b61042681610455565b50565b5f546001600160a01b031633146102d35760405163118cdaa760e01b815233600482015260240161026b565b5f80546001600160a01b038381166001600160a01b0319831681178455604051919092169283917f8be0079c531659141344cd1fd0a4f28419497f9722a3daafe3b4186f6b6457e09190a35050565b5f5f604083850312156104b5575f5ffd5b50508035926020909101359150565b5f602082840312156104d4575f5ffd5b5035919050565b602081525f82518060208401528060208501604085015e5f604082850101526040601f19601f83011684010191505092915050565b5f60208284031215610520575f5ffd5b813560ff81168114610530575f5ffd5b9392505050565b5f60208284031215610547575f5ffd5b81356001600160a01b0381168114610530575f5ffd5b60208082526036908201527f4f6e6c79206f776e6572206f722065787465726e616c2070726f76696465722060408201527531b0b71031b0b636103a3434b990333ab731ba34b7b760511b606082015260800190565b600181811c908216806105c757607f821691505b6020821081036105e557634e487b7160e01b5f52602260045260245ffd5b5091905056fea2646970667358221220d5c98424b16e17d09397d518393b861fa563b6ca0f43e1719fe95b97676bd0b464736f6c634300081e00330000000000000000000000000000000000000000000000000000000000000060000000000000000000000000000000000000000000000000000000000000000800000000000000000000000056fd3f2bee130e9867942d0f463a16fbe49b8d810000000000000000000000000000000000000000000000000000000000000008455552432f555344000000000000000000000000000000000000000000000000"
      ],
      "transaction": {
        "from": "0x56fd3f2bee130e9867942d0f463a16fbe49b8d81",
        "to": "0xba5ed099633d3b313e4d5f7bdc1305d3c28ba5ed",
        "gas": "0xafd3e",
        "value": "0x0",
        "input": "0x9c36a28656fd3f2bee130e9867942d0f463a16fbe49b8d8100bffbbe77045f29390e95a7000000000000000000000000000000000000000000000000000000000000004000000000000000000000000000000000000000000000000000000000000009f8608060405234801561000f575f5ffd5b5060405161095838038061095883398101604081905261002e9161011c565b806001600160a01b03811661005c57604051631e4fbdf760e01b81525f600482015260240160405180910390fd5b6100658161008e565b5060016100728482610270565b50506002805460ff191660ff929092169190911790555061032a565b5f80546001600160a01b038381166001600160a01b0319831681178455604051919092169283917f8be0079c531659141344cd1fd0a4f28419497f9722a3daafe3b4186f6b6457e09190a35050565b634e487b7160e01b5f52604160045260245ffd5b805160ff81168114610101575f5ffd5b919050565b80516001600160a01b0381168114610101575f5ffd5b5f5f5f6060848603121561012e575f5ffd5b83516001600160401b03811115610143575f5ffd5b8401601f81018613610153575f5ffd5b80516001600160401b0381111561016c5761016c6100dd565b604051601f8201601f19908116603f011681016001600160401b038111828210171561019a5761019a6100dd565b6040528181528282016020018810156101b1575f5ffd5b8160208401602083015e5f602083830101528095505050506101d5602085016100f1565b91506101e360408501610106565b90509250925092565b600181811c9082168061020057607f821691505b60208210810361021e57634e487b7160e01b5f52602260045260245ffd5b50919050565b601f82111561026b57805f5260205f20601f840160051c810160208510156102495750805b601f840160051c820191505b81811015610268575f8155600101610255565b50505b505050565b81516001600160401b03811115610289576102896100dd565b61029d8161029784546101ec565b84610224565b6020601f8211600181146102cf575f83156102b85750848201515b5f19600385901b1c1916600184901b178455610268565b5f84815260208120601f198516915b828110156102fe57878501518255602094850194600190920191016102de565b508482101561031b57868401515f19600387901b60f8161c191681555b50505050600190811b01905550565b610621806103375f395ff3fe608060405234801561000f575f5ffd5b50600436106100e5575f3560e01c80638da5cb5b11610088578063e1e244d811610063578063e1e244d8146101ca578063e3ac8226146101d3578063f2fde38b146101e6578063feaf968c146101f9575f5ffd5b80638da5cb5b1461019057806399213cd8146101a0578063d0b06f5d146101b3575f5ffd5b8063705b9154116100c3578063705b915414610135578063715018a6146101605780637284e416146101685780637a1395aa1461017d575f5ffd5b80630f3d249d146100e9578063313ce567146100fe578063368f186214610122575b5f5ffd5b6100fc6100f73660046104a4565b61022d565b005b60025461010b9060ff1681565b60405160ff90911681526020015b60405180910390f35b6100fc6101303660046104c4565b61027f565b600554610148906001600160a01b031681565b6040516001600160a01b039091168152602001610119565b6100fc6102c2565b6101706102d5565b60405161011991906104db565b6100fc61018b366004610510565b610361565b5f546001600160a01b0316610148565b6100fc6101ae3660046104c4565b61037f565b6101bc60045481565b604051908152602001610119565b6101bc60035481565b6100fc6101e1366004610537565b6103c2565b6100fc6101f4366004610537565b6103ec565b600354600454604080515f80825260208201949094529081018390526060810191909152608081019190915260a001610119565b5f546001600160a01b031633148061024f57506005546001600160a01b031633145b6102745760405162461bcd60e51b815260040161026b9061055d565b60405180910390fd5b600391909155600455565b5f546001600160a01b03163314806102a157506005546001600160a01b031633145b6102bd5760405162461bcd60e51b815260040161026b9061055d565b600455565b6102ca610429565b6102d35f610455565b565b600180546102e2906105b3565b80601f016020809104026020016040519081016040528092919081815260200182805461030e906105b3565b80156103595780601f1061033057610100808354040283529160200191610359565b820191905f5260205f20905b81548152906001019060200180831161033c57829003601f168201915b505050505081565b610369610429565b6002805460ff191660ff92909216919091179055565b5f546001600160a01b03163314806103a157506005546001600160a01b031633145b6103bd5760405162461bcd60e51b815260040161026b9061055d565b600355565b6103ca610429565b600580546001600160a01b0319166001600160a01b0392909216919091179055565b6103f4610429565b6001600160a01b03811661041d57604051631e4fbdf760e01b81525f600482015260240161026b565b61042681610455565b50565b5f546001600160a01b031633146102d35760405163118cdaa760e01b815233600482015260240161026b565b5f80546001600160a01b038381166001600160a01b0319831681178455604051919092169283917f8be0079c531659141344cd1fd0a4f28419497f9722a3daafe3b4186f6b6457e09190a35050565b5f5f604083850312156104b5575f5ffd5b50508035926020909101359150565b5f602082840312156104d4575f5ffd5b5035919050565b602081525f82518060208401528060208501604085015e5f604082850101526040601f19601f83011684010191505092915050565b5f60208284031215610520575f5ffd5b813560ff81168114610530575f5ffd5b9392505050565b5f60208284031215610547575f5ffd5b81356001600160a01b0381168114610530575f5ffd5b60208082526036908201527f4f6e6c79206f776e6572206f722065787465726e616c2070726f76696465722060408201527531b0b71031b0b636103a3434b990333ab731ba34b7b760511b606082015260800190565b600181811c908216806105c757607f821691505b6020821081036105e557634e487b7160e01b5f52602260045260245ffd5b5091905056fea2646970667358221220d5c98424b16e17d09397d518393b861fa563b6ca0f43e1719fe95b97676bd0b464736f6c634300081e00330000000000000000000000000000000000000000000000000000000000000060000000000000000000000000000000000000000000000000000000000000000800000000000000000000000056fd3f2bee130e9867942d0f463a16fbe49b8d810000000000000000000000000000000000000000000000000000000000000008455552432f5553440000000000000000000000000000000000000000000000000000000000000000",
        "nonce": "0x169",
        "chainId": "0xaa044c"
      },
      "additionalContracts": [
        {
          "transactionType": "CREATE2",
          "address": "0x7e4536378f79ce99933109bba4c2eb1a321b04d4",
          "initCode": "0x67363d3d37363d34f03d5260086018f3"
        },
        {
          "transactionType": "CREATE",
          "address": "0xa0a403b75580072a8e486f82253a407ba9bae0cb",
          "initCode": "0x608060405234801561000f575f5ffd5b5060405161095838038061095883398101604081905261002e9161011c565b806001600160a01b03811661005c57604051631e4fbdf760e01b81525f600482015260240160405180910390fd5b6100658161008e565b5060016100728482610270565b50506002805460ff191660ff929092169190911790555061032a565b5f80546001600160a01b038381166001600160a01b0319831681178455604051919092169283917f8be0079c531659141344cd1fd0a4f28419497f9722a3daafe3b4186f6b6457e09190a35050565b634e487b7160e01b5f52604160045260245ffd5b805160ff81168114610101575f5ffd5b919050565b80516001600160a01b0381168114610101575f5ffd5b5f5f5f6060848603121561012e575f5ffd5b83516001600160401b03811115610143575f5ffd5b8401601f81018613610153575f5ffd5b80516001600160401b0381111561016c5761016c6100dd565b604051601f8201601f19908116603f011681016001600160401b038111828210171561019a5761019a6100dd565b6040528181528282016020018810156101b1575f5ffd5b8160208401602083015e5f602083830101528095505050506101d5602085016100f1565b91506101e360408501610106565b90509250925092565b600181811c9082168061020057607f821691505b60208210810361021e57634e487b7160e01b5f52602260045260245ffd5b50919050565b601f82111561026b57805f5260205f20601f840160051c810160208510156102495750805b601f840160051c820191505b81811015610268575f8155600101610255565b50505b505050565b81516001600160401b03811115610289576102896100dd565b61029d8161029784546101ec565b84610224565b6020601f8211600181146102cf575f83156102b85750848201515b5f19600385901b1c1916600184901b178455610268565b5f84815260208120601f198516915b828110156102fe57878501518255602094850194600190920191016102de565b508482101561031b57868401515f19600387901b60f8161c191681555b50505050600190811b01905550565b610621806103375f395ff3fe608060405234801561000f575f5ffd5b50600436106100e5575f3560e01c80638da5cb5b11610088578063e1e244d811610063578063e1e244d8146101ca578063e3ac8226146101d3578063f2fde38b146101e6578063feaf968c146101f9575f5ffd5b80638da5cb5b1461019057806399213cd8146101a0578063d0b06f5d146101b3575f5ffd5b8063705b9154116100c3578063705b915414610135578063715018a6146101605780637284e416146101685780637a1395aa1461017d575f5ffd5b80630f3d249d146100e9578063313ce567146100fe578063368f186214610122575b5f5ffd5b6100fc6100f73660046104a4565b61022d565b005b60025461010b9060ff1681565b60405160ff90911681526020015b60405180910390f35b6100fc6101303660046104c4565b61027f565b600554610148906001600160a01b031681565b6040516001600160a01b039091168152602001610119565b6100fc6102c2565b6101706102d5565b60405161011991906104db565b6100fc61018b366004610510565b610361565b5f546001600160a01b0316610148565b6100fc6101ae3660046104c4565b61037f565b6101bc60045481565b604051908152602001610119565b6101bc60035481565b6100fc6101e1366004610537565b6103c2565b6100fc6101f4366004610537565b6103ec565b600354600454604080515f80825260208201949094529081018390526060810191909152608081019190915260a001610119565b5f546001600160a01b031633148061024f57506005546001600160a01b031633145b6102745760405162461bcd60e51b815260040161026b9061055d565b60405180910390fd5b600391909155600455565b5f546001600160a01b03163314806102a157506005546001600160a01b031633145b6102bd5760405162461bcd60e51b815260040161026b9061055d565b600455565b6102ca610429565b6102d35f610455565b565b600180546102e2906105b3565b80601f016020809104026020016040519081016040528092919081815260200182805461030e906105b3565b80156103595780601f1061033057610100808354040283529160200191610359565b820191905f5260205f20905b81548152906001019060200180831161033c57829003601f168201915b505050505081565b610369610429565b6002805460ff191660ff92909216919091179055565b5f546001600160a01b03163314806103a157506005546001600160a01b031633145b6103bd5760405162461bcd60e51b815260040161026b9061055d565b600355565b6103ca610429565b600580546001600160a01b0319166001600160a01b0392909216919091179055565b6103f4610429565b6001600160a01b03811661041d57604051631e4fbdf760e01b81525f600482015260240161026b565b61042681610455565b50565b5f546001600160a01b031633146102d35760405163118cdaa760e01b815233600482015260240161026b565b5f80546001600160a01b038381166001600160a01b0319831681178455604051919092169283917f8be0079c531659141344cd1fd0a4f28419497f9722a3daafe3b4186f6b6457e09190a35050565b5f5f604083850312156104b5575f5ffd5b50508035926020909101359150565b5f602082840312156104d4575f5ffd5b5035919050565b602081525f82518060208401528060208501604085015e5f604082850101526040601f19601f83011684010191505092915050565b5f60208284031215610520575f5ffd5b813560ff81168114610530575f5ffd5b9392505050565b5f60208284031215610547575f5ffd5b81356001600160a01b0381168114610530575f5ffd5b60208082526036908201527f4f6e6c79206f776e6572206f722065787465726e616c2070726f76696465722060408201527531b0b71031b0b636103a3434b990333ab731ba34b7b760511b606082015260800190565b600181811c908216806105c757607f821691505b6020821081036105e557634e487b7160e01b5f52602260045260245ffd5b5091905056fea2646970667358221220d5c98424b16e17d09397d518393b861fa563b6ca0f43e1719fe95b97676bd0b464736f6c634300081e00330000000000000000000000000000000000000000000000000000000000000060000000000000000000000000000000000000000000000000000000000000000800000000000000000000000056fd3f2bee130e9867942d0f463a16fbe49b8d810000000000000000000000000000000000000000000000000000000000000008455552432f555344000000000000000000000000000000000000000000000000"
        }
      ],
      "isFixedGasLimit": false
    },
    {
      "hash": "0x97e1b46e0381a54e53e4ff3df14e158a74dd5128e388daf360e65e56ccb99d92",
      "transactionType": "CALL",
      "contractName": "MockChainlinkAggregator",
      "contractAddress": "0xa0a403b75580072a8e486f82253a407ba9bae0cb",
      "function": "setExternalProvider(address)",
      "arguments": [
        "0x0000000000000000000000000000000000000000"
      ],
      "transaction": {
        "from": "0x56fd3f2bee130e9867942d0f463a16fbe49b8d81",
        "to": "0xa0a403b75580072a8e486f82253a407ba9bae0cb",
        "gas": "0x8bea",
        "value": "0x0",
        "input": "0xe3ac82260000000000000000000000000000000000000000000000000000000000000000",
        "nonce": "0x16a",
        "chainId": "0xaa044c"
      },
      "additionalContracts": [],
      "isFixedGasLimit": false
    },
    {
      "hash": "0x1ac4e2c29ef779f0a8ed6854ef0a57021564c2068d95d9ef616c20fb5409edec",
      "transactionType": "CALL",
      "contractName": "MockChainlinkAggregator",
      "contractAddress": "0xa0a403b75580072a8e486f82253a407ba9bae0cb",
      "function": "report(int256,uint256)",
      "arguments": [
        "116453991",
        "1756979037"
      ],
      "transaction": {
        "from": "0x56fd3f2bee130e9867942d0f463a16fbe49b8d81",
        "to": "0xa0a403b75580072a8e486f82253a407ba9bae0cb",
        "gas": "0x16f2c",
        "value": "0x0",
        "input": "0x0f3d249d0000000000000000000000000000000000000000000000000000000006f0f2670000000000000000000000000000000000000000000000000000000068b95f5d",
        "nonce": "0x16b",
        "chainId": "0xaa044c"
      },
      "additionalContracts": [],
      "isFixedGasLimit": false
    },
    {
      "hash": "0x75b798a85c897f5be7ed449f7c0e6e39e52f7de2b9ef24768c9e7c9219666b13",
      "transactionType": "CALL",
      "contractName": null,
      "contractAddress": "0x5995fb71215c9ea02753092aacf47885bfa1a988",
      "function": "setExternalProvider(address)",
      "arguments": [
        "0x0000000000000000000000000000000000000000"
      ],
      "transaction": {
        "from": "0x56fd3f2bee130e9867942d0f463a16fbe49b8d81",
        "to": "0x5995fb71215c9ea02753092aacf47885bfa1a988",
        "gas": "0x8bea",
        "value": "0x0",
        "input": "0xe3ac82260000000000000000000000000000000000000000000000000000000000000000",
        "nonce": "0x16c",
        "chainId": "0xaa044c"
      },
      "additionalContracts": [],
      "isFixedGasLimit": false
    },
    {
      "hash": "0x77ef916457b9d1bf9f0adcf1396ff57961930fb20c660bd8a7b139c78ae7be0b",
      "transactionType": "CALL",
      "contractName": null,
      "contractAddress": "0x5995fb71215c9ea02753092aacf47885bfa1a988",
      "function": "report(int256,uint256)",
      "arguments": [
        "28869919",
        "1756979037"
      ],
      "transaction": {
        "from": "0x56fd3f2bee130e9867942d0f463a16fbe49b8d81",
        "to": "0x5995fb71215c9ea02753092aacf47885bfa1a988",
        "gas": "0xb6a5",
        "value": "0x0",
        "input": "0x0f3d249d0000000000000000000000000000000000000000000000000000000001b8851f0000000000000000000000000000000000000000000000000000000068b95f5d",
        "nonce": "0x16d",
        "chainId": "0xaa044c"
      },
      "additionalContracts": [],
      "isFixedGasLimit": false
    },
    {
      "hash": "0xd5efc9f9a49e579d2ac5a102f3b7f935ffcf399df8db218cc184c8a92ffe8c19",
      "transactionType": "CALL",
      "contractName": null,
      "contractAddress": "0x44a7e7d4de5a4d6f5db9d174943214b926fd07d1",
      "function": "setExternalProvider(address)",
      "arguments": [
        "0x0000000000000000000000000000000000000000"
      ],
      "transaction": {
        "from": "0x56fd3f2bee130e9867942d0f463a16fbe49b8d81",
        "to": "0x44a7e7d4de5a4d6f5db9d174943214b926fd07d1",
        "gas": "0x8bea",
        "value": "0x0",
        "input": "0xe3ac82260000000000000000000000000000000000000000000000000000000000000000",
        "nonce": "0x16e",
        "chainId": "0xaa044c"
      },
      "additionalContracts": [],
      "isFixedGasLimit": false
    },
    {
      "hash": "0x538e5f5e06f9ea16d88c48e39941f227c37a606534e44285984104124e005693",
      "transactionType": "CALL",
      "contractName": null,
      "contractAddress": "0x44a7e7d4de5a4d6f5db9d174943214b926fd07d1",
      "function": "report(int256,uint256)",
      "arguments": [
        "116453991",
        "1756979037"
      ],
      "transaction": {
        "from": "0x56fd3f2bee130e9867942d0f463a16fbe49b8d81",
        "to": "0x44a7e7d4de5a4d6f5db9d174943214b926fd07d1",
        "gas": "0xb6a5",
        "value": "0x0",
        "input": "0x0f3d249d0000000000000000000000000000000000000000000000000000000006f0f2670000000000000000000000000000000000000000000000000000000068b95f5d",
        "nonce": "0x16f",
        "chainId": "0xaa044c"
      },
      "additionalContracts": [],
      "isFixedGasLimit": false
    },
    {
      "hash": "0xb3c8bcb3e69927ab22963f5739b84f1eda4bb52986ddd55b07ebe402f5f7a62a",
      "transactionType": "CALL",
      "contractName": null,
      "contractAddress": "0xe30f631aac9762059c67135095c7d520221a0868",
      "function": "setExternalProvider(address)",
      "arguments": [
        "0x0000000000000000000000000000000000000000"
      ],
      "transaction": {
        "from": "0x56fd3f2bee130e9867942d0f463a16fbe49b8d81",
        "to": "0xe30f631aac9762059c67135095c7d520221a0868",
        "gas": "0x8bea",
        "value": "0x0",
        "input": "0xe3ac82260000000000000000000000000000000000000000000000000000000000000000",
        "nonce": "0x170",
        "chainId": "0xaa044c"
      },
      "additionalContracts": [],
      "isFixedGasLimit": false
    },
    {
      "hash": "0x87f9e0525f956563ea28ed71e3605b79d5eb414639d041552fcb492577274e19",
      "transactionType": "CALL",
      "contractName": null,
      "contractAddress": "0xe30f631aac9762059c67135095c7d520221a0868",
      "function": "report(int256,uint256)",
      "arguments": [
        "18336780",
        "1756979037"
      ],
      "transaction": {
        "from": "0x56fd3f2bee130e9867942d0f463a16fbe49b8d81",
        "to": "0xe30f631aac9762059c67135095c7d520221a0868",
        "gas": "0xb6a5",
        "value": "0x0",
        "input": "0x0f3d249d000000000000000000000000000000000000000000000000000000000117cc0c0000000000000000000000000000000000000000000000000000000068b95f5d",
        "nonce": "0x171",
        "chainId": "0xaa044c"
      },
      "additionalContracts": [],
      "isFixedGasLimit": false
    },
    {
      "hash": "0xeb9c470a1473edf832f34b591c2e4edd65db1642245a0bfb50f50c6d421d02f8",
      "transactionType": "CALL",
      "contractName": null,
      "contractAddress": "0xf364db584bc3b55df019044de85993c47e1b145a",
      "function": "setExternalProvider(address)",
      "arguments": [
        "0x0000000000000000000000000000000000000000"
      ],
      "transaction": {
        "from": "0x56fd3f2bee130e9867942d0f463a16fbe49b8d81",
        "to": "0xf364db584bc3b55df019044de85993c47e1b145a",
        "gas": "0x8bea",
        "value": "0x0",
        "input": "0xe3ac82260000000000000000000000000000000000000000000000000000000000000000",
        "nonce": "0x172",
        "chainId": "0xaa044c"
      },
      "additionalContracts": [],
      "isFixedGasLimit": false
    },
    {
      "hash": "0x0f5603542cf3acedabf115034886262fff5c34ccbf4064e9c95765eafd47c1c9",
      "transactionType": "CALL",
      "contractName": null,
      "contractAddress": "0xf364db584bc3b55df019044de85993c47e1b145a",
      "function": "report(int256,uint256)",
      "arguments": [
        "1773683328352239",
        "1756979037"
      ],
      "transaction": {
        "from": "0x56fd3f2bee130e9867942d0f463a16fbe49b8d81",
        "to": "0xf364db584bc3b55df019044de85993c47e1b145a",
        "gas": "0xa7bc",
        "value": "0x0",
        "input": "0x0f3d249d00000000000000000000000000000000000000000000000000064d27d4baffef0000000000000000000000000000000000000000000000000000000068b95f5d",
        "nonce": "0x173",
        "chainId": "0xaa044c"
      },
      "additionalContracts": [],
      "isFixedGasLimit": false
    },
    {
      "hash": "0x257c3690ea9306b4b8854cf49955d9cc3269adae49fe102d82b2f9ee817f7d62",
      "transactionType": "CALL",
      "contractName": null,
      "contractAddress": "0x0d1a55b9a06fe8aa48eb87251fbd959d121ea843",
      "function": "setExternalProvider(address)",
      "arguments": [
        "0x0000000000000000000000000000000000000000"
      ],
      "transaction": {
        "from": "0x56fd3f2bee130e9867942d0f463a16fbe49b8d81",
        "to": "0x0d1a55b9a06fe8aa48eb87251fbd959d121ea843",
        "gas": "0x8bea",
        "value": "0x0",
        "input": "0xe3ac82260000000000000000000000000000000000000000000000000000000000000000",
        "nonce": "0x174",
        "chainId": "0xaa044c"
      },
      "additionalContracts": [],
      "isFixedGasLimit": false
    },
    {
      "hash": "0x350e49d81c5ebfe3b6e2969596b0479a0f2b132d4ff016cd9ca8e676863a2056",
      "transactionType": "CALL",
      "contractName": null,
      "contractAddress": "0x0d1a55b9a06fe8aa48eb87251fbd959d121ea843",
      "function": "report(int256,uint256)",
      "arguments": [
        "7743205749235911",
        "1756979037"
      ],
      "transaction": {
        "from": "0x56fd3f2bee130e9867942d0f463a16fbe49b8d81",
        "to": "0x0d1a55b9a06fe8aa48eb87251fbd959d121ea843",
        "gas": "0xb6d7",
        "value": "0x0",
        "input": "0x0f3d249d000000000000000000000000000000000000000000000000001b8267941b20c70000000000000000000000000000000000000000000000000000000068b95f5d",
        "nonce": "0x175",
        "chainId": "0xaa044c"
      },
      "additionalContracts": [],
      "isFixedGasLimit": false
    },
    {
      "hash": "0xf129b81d221e922a67830e2652a8964637ecbf1a77ba7924f700b3342df601d3",
      "transactionType": "CALL",
      "contractName": null,
      "contractAddress": "0x7a2f69a58f0dae429cc6de1e6fcb6260041c7464",
      "function": "setExternalProvider(address)",
      "arguments": [
        "0x0000000000000000000000000000000000000000"
      ],
      "transaction": {
        "from": "0x56fd3f2bee130e9867942d0f463a16fbe49b8d81",
        "to": "0x7a2f69a58f0dae429cc6de1e6fcb6260041c7464",
        "gas": "0x8bea",
        "value": "0x0",
        "input": "0xe3ac82260000000000000000000000000000000000000000000000000000000000000000",
        "nonce": "0x176",
        "chainId": "0xaa044c"
      },
      "additionalContracts": [],
      "isFixedGasLimit": false
    },
    {
      "hash": "0xb967f29a2f455f99ea803bf10c25a0b24942b4d98ef56153798f2604b9cb026a",
      "transactionType": "CALL",
      "contractName": null,
      "contractAddress": "0x7a2f69a58f0dae429cc6de1e6fcb6260041c7464",
      "function": "report(int256,uint256)",
      "arguments": [
        "1750730",
        "1756979037"
      ],
      "transaction": {
        "from": "0x56fd3f2bee130e9867942d0f463a16fbe49b8d81",
        "to": "0x7a2f69a58f0dae429cc6de1e6fcb6260041c7464",
        "gas": "0xb695",
        "value": "0x0",
        "input": "0x0f3d249d00000000000000000000000000000000000000000000000000000000001ab6ca0000000000000000000000000000000000000000000000000000000068b95f5d",
        "nonce": "0x177",
        "chainId": "0xaa044c"
      },
      "additionalContracts": [],
      "isFixedGasLimit": false
    },
    {
      "hash": "0xda3a88f35bb8ff34dd87aed7d22c483ce96ae099b4b1ba60eef6959ed1e58348",
      "transactionType": "CALL",
      "contractName": null,
      "contractAddress": "0x97fd9624af571a5291d6b5aa0f7db7de8b5e0398",
      "function": "setExternalProvider(address)",
      "arguments": [
        "0x0000000000000000000000000000000000000000"
      ],
      "transaction": {
        "from": "0x56fd3f2bee130e9867942d0f463a16fbe49b8d81",
        "to": "0x97fd9624af571a5291d6b5aa0f7db7de8b5e0398",
        "gas": "0x8bea",
        "value": "0x0",
        "input": "0xe3ac82260000000000000000000000000000000000000000000000000000000000000000",
        "nonce": "0x178",
        "chainId": "0xaa044c"
      },
      "additionalContracts": [],
      "isFixedGasLimit": false
    },
    {
      "hash": "0x2cf80209a34ad3afbb65e127b088bc4087ed9adf950e65b1513f593a50a235ca",
      "transactionType": "CALL",
      "contractName": null,
      "contractAddress": "0x97fd9624af571a5291d6b5aa0f7db7de8b5e0398",
      "function": "report(int256,uint256)",
      "arguments": [
        "24975",
        "1756979037"
      ],
      "transaction": {
        "from": "0x56fd3f2bee130e9867942d0f463a16fbe49b8d81",
        "to": "0x97fd9624af571a5291d6b5aa0f7db7de8b5e0398",
        "gas": "0xa769",
        "value": "0x0",
        "input": "0x0f3d249d000000000000000000000000000000000000000000000000000000000000618f0000000000000000000000000000000000000000000000000000000068b95f5d",
        "nonce": "0x179",
        "chainId": "0xaa044c"
      },
      "additionalContracts": [],
      "isFixedGasLimit": false
    },
    {
      "hash": "0xcec95de046464902456b9147f0b351bcddcd7bd082baad213b6c0c29d61f5645",
      "transactionType": "CALL",
      "contractName": null,
      "contractAddress": "0x04a1e7bbd987a7f86ca10ea36023884e45e46bd7",
      "function": "setExternalProvider(address)",
      "arguments": [
        "0x0000000000000000000000000000000000000000"
      ],
      "transaction": {
        "from": "0x56fd3f2bee130e9867942d0f463a16fbe49b8d81",
        "to": "0x04a1e7bbd987a7f86ca10ea36023884e45e46bd7",
        "gas": "0x8bea",
        "value": "0x0",
        "input": "0xe3ac82260000000000000000000000000000000000000000000000000000000000000000",
        "nonce": "0x17a",
        "chainId": "0xaa044c"
      },
      "additionalContracts": [],
      "isFixedGasLimit": false
    },
    {
      "hash": "0x1c42f5dcca76b56b8bd082a14827a447f5e4342e658f32c7df803406f3792671",
      "transactionType": "CALL",
      "contractName": null,
      "contractAddress": "0x04a1e7bbd987a7f86ca10ea36023884e45e46bd7",
      "function": "report(int256,uint256)",
      "arguments": [
        "8304544",
        "1756979037"
      ],
      "transaction": {
        "from": "0x56fd3f2bee130e9867942d0f463a16fbe49b8d81",
        "to": "0x04a1e7bbd987a7f86ca10ea36023884e45e46bd7",
        "gas": "0xa77a",
        "value": "0x0",
        "input": "0x0f3d249d00000000000000000000000000000000000000000000000000000000007eb7a00000000000000000000000000000000000000000000000000000000068b95f5d",
        "nonce": "0x17b",
        "chainId": "0xaa044c"
      },
      "additionalContracts": [],
      "isFixedGasLimit": false
    },
    {
      "hash": "0xb993597b477f48c69285c1b17914ad993b9b382a048272ad4583e9df5a362c24",
      "transactionType": "CALL",
      "contractName": null,
      "contractAddress": "0x56029056ccc623115d05473cee7d1aacac830185",
      "function": "setExternalProvider(address)",
      "arguments": [
        "0x0000000000000000000000000000000000000000"
      ],
      "transaction": {
        "from": "0x56fd3f2bee130e9867942d0f463a16fbe49b8d81",
        "to": "0x56029056ccc623115d05473cee7d1aacac830185",
        "gas": "0x8bea",
        "value": "0x0",
        "input": "0xe3ac82260000000000000000000000000000000000000000000000000000000000000000",
        "nonce": "0x17c",
        "chainId": "0xaa044c"
      },
      "additionalContracts": [],
      "isFixedGasLimit": false
    },
    {
      "hash": "0x863108bcdef9bc61118dc59cfacf802e4e218df57d920af289c5f00935744852",
      "transactionType": "CALL",
      "contractName": null,
      "contractAddress": "0x56029056ccc623115d05473cee7d1aacac830185",
      "function": "report(int256,uint256)",
      "arguments": [
        "134365000",
        "1756979037"
      ],
      "transaction": {
        "from": "0x56fd3f2bee130e9867942d0f463a16fbe49b8d81",
        "to": "0x56029056ccc623115d05473cee7d1aacac830185",
        "gas": "0xb6a5",
        "value": "0x0",
        "input": "0x0f3d249d0000000000000000000000000000000000000000000000000000000008023f480000000000000000000000000000000000000000000000000000000068b95f5d",
        "nonce": "0x17d",
        "chainId": "0xaa044c"
      },
      "additionalContracts": [],
      "isFixedGasLimit": false
    },
    {
      "hash": "0xe0d3093290c343e10dcc86d5371017adb3f44b5f740d2e66907134648b4fff76",
      "transactionType": "CALL",
      "contractName": null,
      "contractAddress": "0x1d866336d9c2f1c9737aca853347838e0a9e0559",
      "function": "setExternalProvider(address)",
      "arguments": [
        "0x0000000000000000000000000000000000000000"
      ],
      "transaction": {
        "from": "0x56fd3f2bee130e9867942d0f463a16fbe49b8d81",
        "to": "0x1d866336d9c2f1c9737aca853347838e0a9e0559",
        "gas": "0x8bea",
        "value": "0x0",
        "input": "0xe3ac82260000000000000000000000000000000000000000000000000000000000000000",
        "nonce": "0x17e",
        "chainId": "0xaa044c"
      },
      "additionalContracts": [],
      "isFixedGasLimit": false
    },
    {
      "hash": "0xda1e8817b81de4ae5a11f29662da9202f41afc1c19d4743558cce43c243d8890",
      "transactionType": "CALL",
      "contractName": null,
      "contractAddress": "0x1d866336d9c2f1c9737aca853347838e0a9e0559",
      "function": "report(int256,uint256)",
      "arguments": [
        "5618356",
        "1756979037"
      ],
      "transaction": {
        "from": "0x56fd3f2bee130e9867942d0f463a16fbe49b8d81",
        "to": "0x1d866336d9c2f1c9737aca853347838e0a9e0559",
        "gas": "0xb695",
        "value": "0x0",
        "input": "0x0f3d249d000000000000000000000000000000000000000000000000000000000055bab40000000000000000000000000000000000000000000000000000000068b95f5d",
        "nonce": "0x17f",
        "chainId": "0xaa044c"
      },
      "additionalContracts": [],
      "isFixedGasLimit": false
    },
    {
      "hash": "0xbc0ece19c9418b6584276a03656ba4891702e9072813e207edc1b625c37f241f",
      "transactionType": "CALL",
      "contractName": null,
      "contractAddress": "0x8c947e599bea1f0469d5e2633a6e030910336d11",
      "function": "setExternalProvider(address)",
      "arguments": [
        "0x0000000000000000000000000000000000000000"
      ],
      "transaction": {
        "from": "0x56fd3f2bee130e9867942d0f463a16fbe49b8d81",
        "to": "0x8c947e599bea1f0469d5e2633a6e030910336d11",
        "gas": "0x8bea",
        "value": "0x0",
        "input": "0xe3ac82260000000000000000000000000000000000000000000000000000000000000000",
        "nonce": "0x180",
        "chainId": "0xaa044c"
      },
      "additionalContracts": [],
      "isFixedGasLimit": false
    },
    {
      "hash": "0x2001b41b50bc0aaaffe30b21e9fc6370a0bf7117decda99c97084450f69cebe7",
      "transactionType": "CALL",
      "contractName": null,
      "contractAddress": "0x8c947e599bea1f0469d5e2633a6e030910336d11",
      "function": "report(int256,uint256)",
      "arguments": [
        "72365969",
        "1756979037"
      ],
      "transaction": {
        "from": "0x56fd3f2bee130e9867942d0f463a16fbe49b8d81",
        "to": "0x8c947e599bea1f0469d5e2633a6e030910336d11",
        "gas": "0xb6a5",
        "value": "0x0",
        "input": "0x0f3d249d00000000000000000000000000000000000000000000000000000000045037910000000000000000000000000000000000000000000000000000000068b95f5d",
        "nonce": "0x181",
        "chainId": "0xaa044c"
      },
      "additionalContracts": [],
      "isFixedGasLimit": false
    },
    {
      "hash": "0xdea3b2810d9eed2577392881fb1e833f3533b78c01d2a1c9b500298e4e6e75ff",
      "transactionType": "CALL",
      "contractName": null,
      "contractAddress": "0xdee315fc7023de5a99fbc68a1ca6c0266a897b17",
      "function": "setExternalProvider(address)",
      "arguments": [
        "0x0000000000000000000000000000000000000000"
      ],
      "transaction": {
        "from": "0x56fd3f2bee130e9867942d0f463a16fbe49b8d81",
        "to": "0xdee315fc7023de5a99fbc68a1ca6c0266a897b17",
        "gas": "0x8bea",
        "value": "0x0",
        "input": "0xe3ac82260000000000000000000000000000000000000000000000000000000000000000",
        "nonce": "0x182",
        "chainId": "0xaa044c"
      },
      "additionalContracts": [],
      "isFixedGasLimit": false
    },
    {
      "hash": "0xd82e68d8eac595d6999a0f30c09b2214ddb3d2f3470359bdae084a3e98cd39d0",
      "transactionType": "CALL",
      "contractName": null,
      "contractAddress": "0xdee315fc7023de5a99fbc68a1ca6c0266a897b17",
      "function": "report(int256,uint256)",
      "arguments": [
        "65206000",
        "1756979037"
      ],
      "transaction": {
        "from": "0x56fd3f2bee130e9867942d0f463a16fbe49b8d81",
        "to": "0xdee315fc7023de5a99fbc68a1ca6c0266a897b17",
        "gas": "0xb6a5",
        "value": "0x0",
        "input": "0x0f3d249d0000000000000000000000000000000000000000000000000000000003e2f6f00000000000000000000000000000000000000000000000000000000068b95f5d",
        "nonce": "0x183",
        "chainId": "0xaa044c"
      },
      "additionalContracts": [],
      "isFixedGasLimit": false
    },
    {
      "hash": "0x98c68294f0b2e80d11ccb49cf4e9aecc517c34af95a8703f2c71a7eded25ed39",
      "transactionType": "CALL",
      "contractName": null,
      "contractAddress": "0x703691155cd4006ed14361023ec35599cfb33a19",
      "function": "setExternalProvider(address)",
      "arguments": [
        "0x0000000000000000000000000000000000000000"
      ],
      "transaction": {
        "from": "0x56fd3f2bee130e9867942d0f463a16fbe49b8d81",
        "to": "0x703691155cd4006ed14361023ec35599cfb33a19",
        "gas": "0x8bea",
        "value": "0x0",
        "input": "0xe3ac82260000000000000000000000000000000000000000000000000000000000000000",
        "nonce": "0x184",
        "chainId": "0xaa044c"
      },
      "additionalContracts": [],
      "isFixedGasLimit": false
    },
    {
      "hash": "0x3af80a94520055f594f7351c55fec8ee4724f7eeefb6676cdbe8aed10dec80d0",
      "transactionType": "CALL",
      "contractName": null,
      "contractAddress": "0x703691155cd4006ed14361023ec35599cfb33a19",
      "function": "report(int256,uint256)",
      "arguments": [
        "124205087",
        "1756979037"
      ],
      "transaction": {
        "from": "0x56fd3f2bee130e9867942d0f463a16fbe49b8d81",
        "to": "0x703691155cd4006ed14361023ec35599cfb33a19",
        "gas": "0xb6a5",
        "value": "0x0",
        "input": "0x0f3d249d000000000000000000000000000000000000000000000000000000000767381f0000000000000000000000000000000000000000000000000000000068b95f5d",
        "nonce": "0x185",
        "chainId": "0xaa044c"
      },
      "additionalContracts": [],
      "isFixedGasLimit": false
    },
    {
      "hash": "0xedef8b298263564c87243bde800a845c3905619e4bc04c39fef8d1e453f843b7",
      "transactionType": "CALL",
      "contractName": null,
      "contractAddress": "0x8003d6ea2954e8fa12c420e189777b2a7d989653",
      "function": "setExternalProvider(address)",
      "arguments": [
        "0x0000000000000000000000000000000000000000"
      ],
      "transaction": {
        "from": "0x56fd3f2bee130e9867942d0f463a16fbe49b8d81",
        "to": "0x8003d6ea2954e8fa12c420e189777b2a7d989653",
        "gas": "0x8bea",
        "value": "0x0",
        "input": "0xe3ac82260000000000000000000000000000000000000000000000000000000000000000",
        "nonce": "0x186",
        "chainId": "0xaa044c"
      },
      "additionalContracts": [],
      "isFixedGasLimit": false
    },
    {
      "hash": "0xb774e828021f0a4e17efc4a6552f72c8a8278eb574134616bb15afad65f91d55",
      "transactionType": "CALL",
      "contractName": null,
      "contractAddress": "0x8003d6ea2954e8fa12c420e189777b2a7d989653",
      "function": "report(int256,uint256)",
      "arguments": [
        "674176",
        "1756979037"
      ],
      "transaction": {
        "from": "0x56fd3f2bee130e9867942d0f463a16fbe49b8d81",
        "to": "0x8003d6ea2954e8fa12c420e189777b2a7d989653",
        "gas": "0xb695",
        "value": "0x0",
        "input": "0x0f3d249d00000000000000000000000000000000000000000000000000000000000a49800000000000000000000000000000000000000000000000000000000068b95f5d",
        "nonce": "0x187",
        "chainId": "0xaa044c"
      },
      "additionalContracts": [],
      "isFixedGasLimit": false
    },
    {
      "hash": "0x7984d1422af3629d75f0c02857677a3eb452864474e98e3e86b4e7202c8433a0",
      "transactionType": "CALL",
      "contractName": null,
      "contractAddress": "0x5db4a1e964ce93f994ff56aaf96b39de73f073da",
      "function": "setExternalProvider(address)",
      "arguments": [
        "0x0000000000000000000000000000000000000000"
      ],
      "transaction": {
        "from": "0x56fd3f2bee130e9867942d0f463a16fbe49b8d81",
        "to": "0x5db4a1e964ce93f994ff56aaf96b39de73f073da",
        "gas": "0x8bea",
        "value": "0x0",
        "input": "0xe3ac82260000000000000000000000000000000000000000000000000000000000000000",
        "nonce": "0x188",
        "chainId": "0xaa044c"
      },
      "additionalContracts": [],
      "isFixedGasLimit": false
    },
    {
      "hash": "0x9141407641794ab0e118d95d2603f3c8fe97d959b7b918f3a879d456a5190ff8",
      "transactionType": "CALL",
      "contractName": null,
      "contractAddress": "0x5db4a1e964ce93f994ff56aaf96b39de73f073da",
      "function": "report(int256,uint256)",
      "arguments": [
        "654450261780104",
        "1756979037"
      ],
      "transaction": {
        "from": "0x56fd3f2bee130e9867942d0f463a16fbe49b8d81",
        "to": "0x5db4a1e964ce93f994ff56aaf96b39de73f073da",
        "gas": "0xa7bc",
        "value": "0x0",
        "input": "0x0f3d249d00000000000000000000000000000000000000000000000000025338136066880000000000000000000000000000000000000000000000000000000068b95f5d",
        "nonce": "0x189",
        "chainId": "0xaa044c"
      },
      "additionalContracts": [],
      "isFixedGasLimit": false
    }
  ],
  "receipts": [
    {
      "status": "0x1",
      "cumulativeGasUsed": "0x12f25",
      "logs": [],
      "logsBloom": "0x00000000000000000000000000000000000000000000000000000000000000000000000000000000000000000000000000000000000000000000000000000000000000000000000000000000000000000000000000000000000000000000000000000000000000000000000000000000000000000000000000000000000000000000000000000000000000000000000000000000000000000000000000000000000000000000000000000000000000000000000000000000000000000000000000000000000000000000000000000000000000000000000000000000000000000000000000000000000000000000000000000000000000000000000000000000",
      "type": "0x2",
      "transactionHash": "0x9f3f941ad921361698b93559b7e4d125495034a6506edbf2371147a4e1f7293d",
      "transactionIndex": "0x1",
      "blockHash": "0x4a6a9314664183c571555e18e77c3faf8bbaa7bcce62437180b17b7865c2eb59",
      "blockNumber": "0x3861fb",
      "gasUsed": "0x654d",
      "effectiveGasPrice": "0x5d21dba01",
      "from": "0x56fd3f2bee130e9867942d0f463a16fbe49b8d81",
      "to": "0x712959a392488f3eae92c7d2d66517fc3ec829d0",
      "contractAddress": null,
      "l1BaseFeeScalar": "0x0",
      "l1BlobBaseFee": "0x1",
      "l1BlobBaseFeeScalar": "0x0",
      "l1Fee": "0x0",
      "l1GasPrice": "0x7fd2c211",
      "l1GasUsed": "0x640"
    },
    {
      "status": "0x1",
      "cumulativeGasUsed": "0x1b361",
      "logs": [],
      "logsBloom": "0x00000000000000000000000000000000000000000000000000000000000000000000000000000000000000000000000000000000000000000000000000000000000000000000000000000000000000000000000000000000000000000000000000000000000000000000000000000000000000000000000000000000000000000000000000000000000000000000000000000000000000000000000000000000000000000000000000000000000000000000000000000000000000000000000000000000000000000000000000000000000000000000000000000000000000000000000000000000000000000000000000000000000000000000000000000000",
      "type": "0x2",
      "transactionHash": "0x0f725978ef2d5f70648f69b85961466f2c73da6bfe9b8d905528879ba7814310",
      "transactionIndex": "0x2",
      "blockHash": "0x4a6a9314664183c571555e18e77c3faf8bbaa7bcce62437180b17b7865c2eb59",
      "blockNumber": "0x3861fb",
      "gasUsed": "0x843c",
      "effectiveGasPrice": "0x5d21dba01",
      "from": "0x56fd3f2bee130e9867942d0f463a16fbe49b8d81",
      "to": "0x712959a392488f3eae92c7d2d66517fc3ec829d0",
      "contractAddress": null,
      "l1BaseFeeScalar": "0x0",
      "l1BlobBaseFee": "0x1",
      "l1BlobBaseFeeScalar": "0x0",
      "l1Fee": "0x0",
      "l1GasPrice": "0x7fd2c211",
      "l1GasUsed": "0x640"
    },
    {
      "status": "0x1",
      "cumulativeGasUsed": "0x218ae",
      "logs": [],
      "logsBloom": "0x00000000000000000000000000000000000000000000000000000000000000000000000000000000000000000000000000000000000000000000000000000000000000000000000000000000000000000000000000000000000000000000000000000000000000000000000000000000000000000000000000000000000000000000000000000000000000000000000000000000000000000000000000000000000000000000000000000000000000000000000000000000000000000000000000000000000000000000000000000000000000000000000000000000000000000000000000000000000000000000000000000000000000000000000000000000",
      "type": "0x2",
      "transactionHash": "0x71d0fd83b707664d1d257a720b2961cd55c07360bcb1b9b8dd777eb4c959ccec",
      "transactionIndex": "0x3",
      "blockHash": "0x4a6a9314664183c571555e18e77c3faf8bbaa7bcce62437180b17b7865c2eb59",
      "blockNumber": "0x3861fb",
      "gasUsed": "0x654d",
      "effectiveGasPrice": "0x5d21dba01",
      "from": "0x56fd3f2bee130e9867942d0f463a16fbe49b8d81",
      "to": "0xb130563ad59b4367de850eb71b6839eade134b05",
      "contractAddress": null,
      "l1BaseFeeScalar": "0x0",
      "l1BlobBaseFee": "0x1",
      "l1BlobBaseFeeScalar": "0x0",
      "l1Fee": "0x0",
      "l1GasPrice": "0x7fd2c211",
      "l1GasUsed": "0x640"
    },
    {
      "status": "0x1",
      "cumulativeGasUsed": "0x29cea",
      "logs": [],
      "logsBloom": "0x00000000000000000000000000000000000000000000000000000000000000000000000000000000000000000000000000000000000000000000000000000000000000000000000000000000000000000000000000000000000000000000000000000000000000000000000000000000000000000000000000000000000000000000000000000000000000000000000000000000000000000000000000000000000000000000000000000000000000000000000000000000000000000000000000000000000000000000000000000000000000000000000000000000000000000000000000000000000000000000000000000000000000000000000000000000",
      "type": "0x2",
      "transactionHash": "0x3dff41dacba9651eb1c34cccb6b13e8d8d19ab27532ca13e3e9ae5db51f09ba2",
      "transactionIndex": "0x4",
      "blockHash": "0x4a6a9314664183c571555e18e77c3faf8bbaa7bcce62437180b17b7865c2eb59",
      "blockNumber": "0x3861fb",
      "gasUsed": "0x843c",
      "effectiveGasPrice": "0x5d21dba01",
      "from": "0x56fd3f2bee130e9867942d0f463a16fbe49b8d81",
      "to": "0xb130563ad59b4367de850eb71b6839eade134b05",
      "contractAddress": null,
      "l1BaseFeeScalar": "0x0",
      "l1BlobBaseFee": "0x1",
      "l1BlobBaseFeeScalar": "0x0",
      "l1Fee": "0x0",
      "l1GasPrice": "0x7fd2c211",
      "l1GasUsed": "0x640"
    },
    {
      "status": "0x1",
      "cumulativeGasUsed": "0xa91a8",
      "logs": [
        {
          "address": "0xba5ed099633d3b313e4d5f7bdc1305d3c28ba5ed",
          "topics": [
            "0x2feea65dd4e9f9cbd86b74b7734210c59a1b2981b5b137bd0ee3e208200c9067",
            "0x0000000000000000000000007e4536378f79ce99933109bba4c2eb1a321b04d4",
            "0x6fc2884d06a181d35fe14f0fd1389332f248be46e2b4b00b12fae61722afbccc"
          ],
          "data": "0x",
          "blockHash": "0x4a6a9314664183c571555e18e77c3faf8bbaa7bcce62437180b17b7865c2eb59",
          "blockNumber": "0x3861fb",
          "transactionHash": "0xb0537b766d879499a2270a3252f381d8e7fdabeb9a16788818b297ebf9f1d816",
          "transactionIndex": "0x5",
          "logIndex": "0x0",
          "removed": false
        },
        {
          "address": "0xa0a403b75580072a8e486f82253a407ba9bae0cb",
          "topics": [
            "0x8be0079c531659141344cd1fd0a4f28419497f9722a3daafe3b4186f6b6457e0",
            "0x0000000000000000000000000000000000000000000000000000000000000000",
            "0x00000000000000000000000056fd3f2bee130e9867942d0f463a16fbe49b8d81"
          ],
          "data": "0x",
          "blockHash": "0x4a6a9314664183c571555e18e77c3faf8bbaa7bcce62437180b17b7865c2eb59",
          "blockNumber": "0x3861fb",
          "transactionHash": "0xb0537b766d879499a2270a3252f381d8e7fdabeb9a16788818b297ebf9f1d816",
          "transactionIndex": "0x5",
          "logIndex": "0x1",
          "removed": false
        },
        {
          "address": "0xba5ed099633d3b313e4d5f7bdc1305d3c28ba5ed",
          "topics": [
            "0x4db17dd5e4732fb6da34a148104a592783ca119a1e7bb8829eba6cbadef0b511",
            "0x000000000000000000000000a0a403b75580072a8e486f82253a407ba9bae0cb"
          ],
          "data": "0x",
          "blockHash": "0x4a6a9314664183c571555e18e77c3faf8bbaa7bcce62437180b17b7865c2eb59",
          "blockNumber": "0x3861fb",
          "transactionHash": "0xb0537b766d879499a2270a3252f381d8e7fdabeb9a16788818b297ebf9f1d816",
          "transactionIndex": "0x5",
          "logIndex": "0x2",
          "removed": false
        }
      ],
      "logsBloom": "0x00020000008000000000000800000000000000000000000020800000200000100008000000000000000000000004010000000000000004000000000000000000000800000000000000000000020000000001000000000000000000000000000000000000020000000000000000000800000000000020000400000000000000400000000000000000000200000000000000000000000000000000004000000000000000000000000000008000000000000000000000000000000000000000000000000000000000000200000000000000000000002000000000000000000020000004000004000200000000020008000000000000000000000000000000000000",
      "type": "0x2",
      "transactionHash": "0xb0537b766d879499a2270a3252f381d8e7fdabeb9a16788818b297ebf9f1d816",
      "transactionIndex": "0x5",
      "blockHash": "0x4a6a9314664183c571555e18e77c3faf8bbaa7bcce62437180b17b7865c2eb59",
      "blockNumber": "0x3861fb",
      "gasUsed": "0x7f4be",
      "effectiveGasPrice": "0x5d21dba01",
      "from": "0x56fd3f2bee130e9867942d0f463a16fbe49b8d81",
      "to": "0xba5ed099633d3b313e4d5f7bdc1305d3c28ba5ed",
      "contractAddress": null,
      "l1BaseFeeScalar": "0x0",
      "l1BlobBaseFee": "0x1",
      "l1BlobBaseFeeScalar": "0x0",
      "l1Fee": "0x0",
      "l1GasPrice": "0x7fd2c211",
      "l1GasUsed": "0x6455"
    },
    {
      "status": "0x1",
      "cumulativeGasUsed": "0xaf6f5",
      "logs": [],
      "logsBloom": "0x00000000000000000000000000000000000000000000000000000000000000000000000000000000000000000000000000000000000000000000000000000000000000000000000000000000000000000000000000000000000000000000000000000000000000000000000000000000000000000000000000000000000000000000000000000000000000000000000000000000000000000000000000000000000000000000000000000000000000000000000000000000000000000000000000000000000000000000000000000000000000000000000000000000000000000000000000000000000000000000000000000000000000000000000000000000",
      "type": "0x2",
      "transactionHash": "0x97e1b46e0381a54e53e4ff3df14e158a74dd5128e388daf360e65e56ccb99d92",
      "transactionIndex": "0x6",
      "blockHash": "0x4a6a9314664183c571555e18e77c3faf8bbaa7bcce62437180b17b7865c2eb59",
      "blockNumber": "0x3861fb",
      "gasUsed": "0x654d",
      "effectiveGasPrice": "0x5d21dba01",
      "from": "0x56fd3f2bee130e9867942d0f463a16fbe49b8d81",
      "to": "0xa0a403b75580072a8e486f82253a407ba9bae0cb",
      "contractAddress": null,
      "l1BaseFeeScalar": "0x0",
      "l1BlobBaseFee": "0x1",
      "l1BlobBaseFeeScalar": "0x0",
      "l1Fee": "0x0",
      "l1GasPrice": "0x7fd2c211",
      "l1GasUsed": "0x640"
    },
    {
      "status": "0x1",
      "cumulativeGasUsed": "0xc00c9",
      "logs": [],
      "logsBloom": "0x00000000000000000000000000000000000000000000000000000000000000000000000000000000000000000000000000000000000000000000000000000000000000000000000000000000000000000000000000000000000000000000000000000000000000000000000000000000000000000000000000000000000000000000000000000000000000000000000000000000000000000000000000000000000000000000000000000000000000000000000000000000000000000000000000000000000000000000000000000000000000000000000000000000000000000000000000000000000000000000000000000000000000000000000000000000",
      "type": "0x2",
      "transactionHash": "0x1ac4e2c29ef779f0a8ed6854ef0a57021564c2068d95d9ef616c20fb5409edec",
      "transactionIndex": "0x7",
      "blockHash": "0x4a6a9314664183c571555e18e77c3faf8bbaa7bcce62437180b17b7865c2eb59",
      "blockNumber": "0x3861fb",
      "gasUsed": "0x109d4",
      "effectiveGasPrice": "0x5d21dba01",
      "from": "0x56fd3f2bee130e9867942d0f463a16fbe49b8d81",
      "to": "0xa0a403b75580072a8e486f82253a407ba9bae0cb",
      "contractAddress": null,
      "l1BaseFeeScalar": "0x0",
      "l1BlobBaseFee": "0x1",
      "l1BlobBaseFeeScalar": "0x0",
      "l1Fee": "0x0",
      "l1GasPrice": "0x7fd2c211",
      "l1GasUsed": "0x640"
    },
    {
      "status": "0x1",
      "cumulativeGasUsed": "0xc6616",
      "logs": [],
      "logsBloom": "0x00000000000000000000000000000000000000000000000000000000000000000000000000000000000000000000000000000000000000000000000000000000000000000000000000000000000000000000000000000000000000000000000000000000000000000000000000000000000000000000000000000000000000000000000000000000000000000000000000000000000000000000000000000000000000000000000000000000000000000000000000000000000000000000000000000000000000000000000000000000000000000000000000000000000000000000000000000000000000000000000000000000000000000000000000000000",
      "type": "0x2",
      "transactionHash": "0x75b798a85c897f5be7ed449f7c0e6e39e52f7de2b9ef24768c9e7c9219666b13",
      "transactionIndex": "0x8",
      "blockHash": "0x4a6a9314664183c571555e18e77c3faf8bbaa7bcce62437180b17b7865c2eb59",
      "blockNumber": "0x3861fb",
      "gasUsed": "0x654d",
      "effectiveGasPrice": "0x5d21dba01",
      "from": "0x56fd3f2bee130e9867942d0f463a16fbe49b8d81",
      "to": "0x5995fb71215c9ea02753092aacf47885bfa1a988",
      "contractAddress": null,
      "l1BaseFeeScalar": "0x0",
      "l1BlobBaseFee": "0x1",
      "l1BlobBaseFeeScalar": "0x0",
      "l1Fee": "0x0",
      "l1GasPrice": "0x7fd2c211",
      "l1GasUsed": "0x640"
    },
    {
      "status": "0x1",
      "cumulativeGasUsed": "0xcea52",
      "logs": [],
      "logsBloom": "0x00000000000000000000000000000000000000000000000000000000000000000000000000000000000000000000000000000000000000000000000000000000000000000000000000000000000000000000000000000000000000000000000000000000000000000000000000000000000000000000000000000000000000000000000000000000000000000000000000000000000000000000000000000000000000000000000000000000000000000000000000000000000000000000000000000000000000000000000000000000000000000000000000000000000000000000000000000000000000000000000000000000000000000000000000000000",
      "type": "0x2",
      "transactionHash": "0x77ef916457b9d1bf9f0adcf1396ff57961930fb20c660bd8a7b139c78ae7be0b",
      "transactionIndex": "0x9",
      "blockHash": "0x4a6a9314664183c571555e18e77c3faf8bbaa7bcce62437180b17b7865c2eb59",
      "blockNumber": "0x3861fb",
      "gasUsed": "0x843c",
      "effectiveGasPrice": "0x5d21dba01",
      "from": "0x56fd3f2bee130e9867942d0f463a16fbe49b8d81",
      "to": "0x5995fb71215c9ea02753092aacf47885bfa1a988",
      "contractAddress": null,
      "l1BaseFeeScalar": "0x0",
      "l1BlobBaseFee": "0x1",
      "l1BlobBaseFeeScalar": "0x0",
      "l1Fee": "0x0",
      "l1GasPrice": "0x7fd2c211",
      "l1GasUsed": "0x640"
    },
    {
      "status": "0x1",
      "cumulativeGasUsed": "0xd4f9f",
      "logs": [],
      "logsBloom": "0x00000000000000000000000000000000000000000000000000000000000000000000000000000000000000000000000000000000000000000000000000000000000000000000000000000000000000000000000000000000000000000000000000000000000000000000000000000000000000000000000000000000000000000000000000000000000000000000000000000000000000000000000000000000000000000000000000000000000000000000000000000000000000000000000000000000000000000000000000000000000000000000000000000000000000000000000000000000000000000000000000000000000000000000000000000000",
      "type": "0x2",
      "transactionHash": "0xd5efc9f9a49e579d2ac5a102f3b7f935ffcf399df8db218cc184c8a92ffe8c19",
      "transactionIndex": "0xa",
      "blockHash": "0x4a6a9314664183c571555e18e77c3faf8bbaa7bcce62437180b17b7865c2eb59",
      "blockNumber": "0x3861fb",
      "gasUsed": "0x654d",
      "effectiveGasPrice": "0x5d21dba01",
      "from": "0x56fd3f2bee130e9867942d0f463a16fbe49b8d81",
      "to": "0x44a7e7d4de5a4d6f5db9d174943214b926fd07d1",
      "contractAddress": null,
      "l1BaseFeeScalar": "0x0",
      "l1BlobBaseFee": "0x1",
      "l1BlobBaseFeeScalar": "0x0",
      "l1Fee": "0x0",
      "l1GasPrice": "0x7fd2c211",
      "l1GasUsed": "0x640"
    },
    {
      "status": "0x1",
      "cumulativeGasUsed": "0xdd3db",
      "logs": [],
      "logsBloom": "0x00000000000000000000000000000000000000000000000000000000000000000000000000000000000000000000000000000000000000000000000000000000000000000000000000000000000000000000000000000000000000000000000000000000000000000000000000000000000000000000000000000000000000000000000000000000000000000000000000000000000000000000000000000000000000000000000000000000000000000000000000000000000000000000000000000000000000000000000000000000000000000000000000000000000000000000000000000000000000000000000000000000000000000000000000000000",
      "type": "0x2",
      "transactionHash": "0x538e5f5e06f9ea16d88c48e39941f227c37a606534e44285984104124e005693",
      "transactionIndex": "0xb",
      "blockHash": "0x4a6a9314664183c571555e18e77c3faf8bbaa7bcce62437180b17b7865c2eb59",
      "blockNumber": "0x3861fb",
      "gasUsed": "0x843c",
      "effectiveGasPrice": "0x5d21dba01",
      "from": "0x56fd3f2bee130e9867942d0f463a16fbe49b8d81",
      "to": "0x44a7e7d4de5a4d6f5db9d174943214b926fd07d1",
      "contractAddress": null,
      "l1BaseFeeScalar": "0x0",
      "l1BlobBaseFee": "0x1",
      "l1BlobBaseFeeScalar": "0x0",
      "l1Fee": "0x0",
      "l1GasPrice": "0x7fd2c211",
      "l1GasUsed": "0x640"
    },
    {
      "status": "0x1",
      "cumulativeGasUsed": "0xe3928",
      "logs": [],
      "logsBloom": "0x00000000000000000000000000000000000000000000000000000000000000000000000000000000000000000000000000000000000000000000000000000000000000000000000000000000000000000000000000000000000000000000000000000000000000000000000000000000000000000000000000000000000000000000000000000000000000000000000000000000000000000000000000000000000000000000000000000000000000000000000000000000000000000000000000000000000000000000000000000000000000000000000000000000000000000000000000000000000000000000000000000000000000000000000000000000",
      "type": "0x2",
      "transactionHash": "0xb3c8bcb3e69927ab22963f5739b84f1eda4bb52986ddd55b07ebe402f5f7a62a",
      "transactionIndex": "0xc",
      "blockHash": "0x4a6a9314664183c571555e18e77c3faf8bbaa7bcce62437180b17b7865c2eb59",
      "blockNumber": "0x3861fb",
      "gasUsed": "0x654d",
      "effectiveGasPrice": "0x5d21dba01",
      "from": "0x56fd3f2bee130e9867942d0f463a16fbe49b8d81",
      "to": "0xe30f631aac9762059c67135095c7d520221a0868",
      "contractAddress": null,
      "l1BaseFeeScalar": "0x0",
      "l1BlobBaseFee": "0x1",
      "l1BlobBaseFeeScalar": "0x0",
      "l1Fee": "0x0",
      "l1GasPrice": "0x7fd2c211",
      "l1GasUsed": "0x640"
    },
    {
      "status": "0x1",
      "cumulativeGasUsed": "0xebd64",
      "logs": [],
      "logsBloom": "0x00000000000000000000000000000000000000000000000000000000000000000000000000000000000000000000000000000000000000000000000000000000000000000000000000000000000000000000000000000000000000000000000000000000000000000000000000000000000000000000000000000000000000000000000000000000000000000000000000000000000000000000000000000000000000000000000000000000000000000000000000000000000000000000000000000000000000000000000000000000000000000000000000000000000000000000000000000000000000000000000000000000000000000000000000000000",
      "type": "0x2",
      "transactionHash": "0x87f9e0525f956563ea28ed71e3605b79d5eb414639d041552fcb492577274e19",
      "transactionIndex": "0xd",
      "blockHash": "0x4a6a9314664183c571555e18e77c3faf8bbaa7bcce62437180b17b7865c2eb59",
      "blockNumber": "0x3861fb",
      "gasUsed": "0x843c",
      "effectiveGasPrice": "0x5d21dba01",
      "from": "0x56fd3f2bee130e9867942d0f463a16fbe49b8d81",
      "to": "0xe30f631aac9762059c67135095c7d520221a0868",
      "contractAddress": null,
      "l1BaseFeeScalar": "0x0",
      "l1BlobBaseFee": "0x1",
      "l1BlobBaseFeeScalar": "0x0",
      "l1Fee": "0x0",
      "l1GasPrice": "0x7fd2c211",
      "l1GasUsed": "0x640"
    },
    {
      "status": "0x1",
      "cumulativeGasUsed": "0xf22b1",
      "logs": [],
      "logsBloom": "0x00000000000000000000000000000000000000000000000000000000000000000000000000000000000000000000000000000000000000000000000000000000000000000000000000000000000000000000000000000000000000000000000000000000000000000000000000000000000000000000000000000000000000000000000000000000000000000000000000000000000000000000000000000000000000000000000000000000000000000000000000000000000000000000000000000000000000000000000000000000000000000000000000000000000000000000000000000000000000000000000000000000000000000000000000000000",
      "type": "0x2",
      "transactionHash": "0xeb9c470a1473edf832f34b591c2e4edd65db1642245a0bfb50f50c6d421d02f8",
      "transactionIndex": "0xe",
      "blockHash": "0x4a6a9314664183c571555e18e77c3faf8bbaa7bcce62437180b17b7865c2eb59",
      "blockNumber": "0x3861fb",
      "gasUsed": "0x654d",
      "effectiveGasPrice": "0x5d21dba01",
      "from": "0x56fd3f2bee130e9867942d0f463a16fbe49b8d81",
      "to": "0xf364db584bc3b55df019044de85993c47e1b145a",
      "contractAddress": null,
      "l1BaseFeeScalar": "0x0",
      "l1BlobBaseFee": "0x1",
      "l1BlobBaseFeeScalar": "0x0",
      "l1Fee": "0x0",
      "l1GasPrice": "0x7fd2c211",
      "l1GasUsed": "0x640"
    },
    {
      "status": "0x1",
      "cumulativeGasUsed": "0xf9c21",
      "logs": [],
      "logsBloom": "0x00000000000000000000000000000000000000000000000000000000000000000000000000000000000000000000000000000000000000000000000000000000000000000000000000000000000000000000000000000000000000000000000000000000000000000000000000000000000000000000000000000000000000000000000000000000000000000000000000000000000000000000000000000000000000000000000000000000000000000000000000000000000000000000000000000000000000000000000000000000000000000000000000000000000000000000000000000000000000000000000000000000000000000000000000000000",
      "type": "0x2",
      "transactionHash": "0x0f5603542cf3acedabf115034886262fff5c34ccbf4064e9c95765eafd47c1c9",
      "transactionIndex": "0xf",
      "blockHash": "0x4a6a9314664183c571555e18e77c3faf8bbaa7bcce62437180b17b7865c2eb59",
      "blockNumber": "0x3861fb",
      "gasUsed": "0x7970",
      "effectiveGasPrice": "0x5d21dba01",
      "from": "0x56fd3f2bee130e9867942d0f463a16fbe49b8d81",
      "to": "0xf364db584bc3b55df019044de85993c47e1b145a",
      "contractAddress": null,
      "l1BaseFeeScalar": "0x0",
      "l1BlobBaseFee": "0x1",
      "l1BlobBaseFeeScalar": "0x0",
      "l1Fee": "0x0",
      "l1GasPrice": "0x7fd2c211",
      "l1GasUsed": "0x640"
    },
    {
      "status": "0x1",
      "cumulativeGasUsed": "0x10016e",
      "logs": [],
      "logsBloom": "0x00000000000000000000000000000000000000000000000000000000000000000000000000000000000000000000000000000000000000000000000000000000000000000000000000000000000000000000000000000000000000000000000000000000000000000000000000000000000000000000000000000000000000000000000000000000000000000000000000000000000000000000000000000000000000000000000000000000000000000000000000000000000000000000000000000000000000000000000000000000000000000000000000000000000000000000000000000000000000000000000000000000000000000000000000000000",
      "type": "0x2",
      "transactionHash": "0x257c3690ea9306b4b8854cf49955d9cc3269adae49fe102d82b2f9ee817f7d62",
      "transactionIndex": "0x10",
      "blockHash": "0x4a6a9314664183c571555e18e77c3faf8bbaa7bcce62437180b17b7865c2eb59",
      "blockNumber": "0x3861fb",
      "gasUsed": "0x654d",
      "effectiveGasPrice": "0x5d21dba01",
      "from": "0x56fd3f2bee130e9867942d0f463a16fbe49b8d81",
      "to": "0x0d1a55b9a06fe8aa48eb87251fbd959d121ea843",
      "contractAddress": null,
      "l1BaseFeeScalar": "0x0",
      "l1BlobBaseFee": "0x1",
      "l1BlobBaseFeeScalar": "0x0",
      "l1Fee": "0x0",
      "l1GasPrice": "0x7fd2c211",
      "l1GasUsed": "0x640"
    },
    {
      "status": "0x1",
      "cumulativeGasUsed": "0x1085ce",
      "logs": [],
      "logsBloom": "0x00000000000000000000000000000000000000000000000000000000000000000000000000000000000000000000000000000000000000000000000000000000000000000000000000000000000000000000000000000000000000000000000000000000000000000000000000000000000000000000000000000000000000000000000000000000000000000000000000000000000000000000000000000000000000000000000000000000000000000000000000000000000000000000000000000000000000000000000000000000000000000000000000000000000000000000000000000000000000000000000000000000000000000000000000000000",
      "type": "0x2",
      "transactionHash": "0x350e49d81c5ebfe3b6e2969596b0479a0f2b132d4ff016cd9ca8e676863a2056",
      "transactionIndex": "0x11",
      "blockHash": "0x4a6a9314664183c571555e18e77c3faf8bbaa7bcce62437180b17b7865c2eb59",
      "blockNumber": "0x3861fb",
      "gasUsed": "0x8460",
      "effectiveGasPrice": "0x5d21dba01",
      "from": "0x56fd3f2bee130e9867942d0f463a16fbe49b8d81",
      "to": "0x0d1a55b9a06fe8aa48eb87251fbd959d121ea843",
      "contractAddress": null,
      "l1BaseFeeScalar": "0x0",
      "l1BlobBaseFee": "0x1",
      "l1BlobBaseFeeScalar": "0x0",
      "l1Fee": "0x0",
      "l1GasPrice": "0x7fd2c211",
      "l1GasUsed": "0x640"
    },
    {
      "status": "0x1",
      "cumulativeGasUsed": "0x10eb1b",
      "logs": [],
      "logsBloom": "0x00000000000000000000000000000000000000000000000000000000000000000000000000000000000000000000000000000000000000000000000000000000000000000000000000000000000000000000000000000000000000000000000000000000000000000000000000000000000000000000000000000000000000000000000000000000000000000000000000000000000000000000000000000000000000000000000000000000000000000000000000000000000000000000000000000000000000000000000000000000000000000000000000000000000000000000000000000000000000000000000000000000000000000000000000000000",
      "type": "0x2",
      "transactionHash": "0xf129b81d221e922a67830e2652a8964637ecbf1a77ba7924f700b3342df601d3",
      "transactionIndex": "0x12",
      "blockHash": "0x4a6a9314664183c571555e18e77c3faf8bbaa7bcce62437180b17b7865c2eb59",
      "blockNumber": "0x3861fb",
      "gasUsed": "0x654d",
      "effectiveGasPrice": "0x5d21dba01",
      "from": "0x56fd3f2bee130e9867942d0f463a16fbe49b8d81",
      "to": "0x7a2f69a58f0dae429cc6de1e6fcb6260041c7464",
      "contractAddress": null,
      "l1BaseFeeScalar": "0x0",
      "l1BlobBaseFee": "0x1",
      "l1BlobBaseFeeScalar": "0x0",
      "l1Fee": "0x0",
      "l1GasPrice": "0x7fd2c211",
      "l1GasUsed": "0x640"
    },
    {
      "status": "0x1",
      "cumulativeGasUsed": "0x116f4b",
      "logs": [],
      "logsBloom": "0x00000000000000000000000000000000000000000000000000000000000000000000000000000000000000000000000000000000000000000000000000000000000000000000000000000000000000000000000000000000000000000000000000000000000000000000000000000000000000000000000000000000000000000000000000000000000000000000000000000000000000000000000000000000000000000000000000000000000000000000000000000000000000000000000000000000000000000000000000000000000000000000000000000000000000000000000000000000000000000000000000000000000000000000000000000000",
      "type": "0x2",
      "transactionHash": "0xb967f29a2f455f99ea803bf10c25a0b24942b4d98ef56153798f2604b9cb026a",
      "transactionIndex": "0x13",
      "blockHash": "0x4a6a9314664183c571555e18e77c3faf8bbaa7bcce62437180b17b7865c2eb59",
      "blockNumber": "0x3861fb",
      "gasUsed": "0x8430",
      "effectiveGasPrice": "0x5d21dba01",
      "from": "0x56fd3f2bee130e9867942d0f463a16fbe49b8d81",
      "to": "0x7a2f69a58f0dae429cc6de1e6fcb6260041c7464",
      "contractAddress": null,
      "l1BaseFeeScalar": "0x0",
      "l1BlobBaseFee": "0x1",
      "l1BlobBaseFeeScalar": "0x0",
      "l1Fee": "0x0",
      "l1GasPrice": "0x7fd2c211",
      "l1GasUsed": "0x640"
    },
    {
      "status": "0x1",
      "cumulativeGasUsed": "0x11d498",
      "logs": [],
      "logsBloom": "0x00000000000000000000000000000000000000000000000000000000000000000000000000000000000000000000000000000000000000000000000000000000000000000000000000000000000000000000000000000000000000000000000000000000000000000000000000000000000000000000000000000000000000000000000000000000000000000000000000000000000000000000000000000000000000000000000000000000000000000000000000000000000000000000000000000000000000000000000000000000000000000000000000000000000000000000000000000000000000000000000000000000000000000000000000000000",
      "type": "0x2",
      "transactionHash": "0xda3a88f35bb8ff34dd87aed7d22c483ce96ae099b4b1ba60eef6959ed1e58348",
      "transactionIndex": "0x14",
      "blockHash": "0x4a6a9314664183c571555e18e77c3faf8bbaa7bcce62437180b17b7865c2eb59",
      "blockNumber": "0x3861fb",
      "gasUsed": "0x654d",
      "effectiveGasPrice": "0x5d21dba01",
      "from": "0x56fd3f2bee130e9867942d0f463a16fbe49b8d81",
      "to": "0x97fd9624af571a5291d6b5aa0f7db7de8b5e0398",
      "contractAddress": null,
      "l1BaseFeeScalar": "0x0",
      "l1BlobBaseFee": "0x1",
      "l1BlobBaseFeeScalar": "0x0",
      "l1Fee": "0x0",
      "l1GasPrice": "0x7fd2c211",
      "l1GasUsed": "0x640"
    },
    {
      "status": "0x1",
      "cumulativeGasUsed": "0x124dcc",
      "logs": [],
      "logsBloom": "0x00000000000000000000000000000000000000000000000000000000000000000000000000000000000000000000000000000000000000000000000000000000000000000000000000000000000000000000000000000000000000000000000000000000000000000000000000000000000000000000000000000000000000000000000000000000000000000000000000000000000000000000000000000000000000000000000000000000000000000000000000000000000000000000000000000000000000000000000000000000000000000000000000000000000000000000000000000000000000000000000000000000000000000000000000000000",
      "type": "0x2",
      "transactionHash": "0x2cf80209a34ad3afbb65e127b088bc4087ed9adf950e65b1513f593a50a235ca",
      "transactionIndex": "0x15",
      "blockHash": "0x4a6a9314664183c571555e18e77c3faf8bbaa7bcce62437180b17b7865c2eb59",
      "blockNumber": "0x3861fb",
      "gasUsed": "0x7934",
      "effectiveGasPrice": "0x5d21dba01",
      "from": "0x56fd3f2bee130e9867942d0f463a16fbe49b8d81",
      "to": "0x97fd9624af571a5291d6b5aa0f7db7de8b5e0398",
      "contractAddress": null,
      "l1BaseFeeScalar": "0x0",
      "l1BlobBaseFee": "0x1",
      "l1BlobBaseFeeScalar": "0x0",
      "l1Fee": "0x0",
      "l1GasPrice": "0x7fd2c211",
      "l1GasUsed": "0x640"
    },
    {
      "status": "0x1",
      "cumulativeGasUsed": "0x12b319",
      "logs": [],
      "logsBloom": "0x00000000000000000000000000000000000000000000000000000000000000000000000000000000000000000000000000000000000000000000000000000000000000000000000000000000000000000000000000000000000000000000000000000000000000000000000000000000000000000000000000000000000000000000000000000000000000000000000000000000000000000000000000000000000000000000000000000000000000000000000000000000000000000000000000000000000000000000000000000000000000000000000000000000000000000000000000000000000000000000000000000000000000000000000000000000",
      "type": "0x2",
      "transactionHash": "0xcec95de046464902456b9147f0b351bcddcd7bd082baad213b6c0c29d61f5645",
      "transactionIndex": "0x16",
      "blockHash": "0x4a6a9314664183c571555e18e77c3faf8bbaa7bcce62437180b17b7865c2eb59",
      "blockNumber": "0x3861fb",
      "gasUsed": "0x654d",
      "effectiveGasPrice": "0x5d21dba01",
      "from": "0x56fd3f2bee130e9867942d0f463a16fbe49b8d81",
      "to": "0x04a1e7bbd987a7f86ca10ea36023884e45e46bd7",
      "contractAddress": null,
      "l1BaseFeeScalar": "0x0",
      "l1BlobBaseFee": "0x1",
      "l1BlobBaseFeeScalar": "0x0",
      "l1Fee": "0x0",
      "l1GasPrice": "0x7fd2c211",
      "l1GasUsed": "0x640"
    },
    {
      "status": "0x1",
      "cumulativeGasUsed": "0x132c59",
      "logs": [],
      "logsBloom": "0x00000000000000000000000000000000000000000000000000000000000000000000000000000000000000000000000000000000000000000000000000000000000000000000000000000000000000000000000000000000000000000000000000000000000000000000000000000000000000000000000000000000000000000000000000000000000000000000000000000000000000000000000000000000000000000000000000000000000000000000000000000000000000000000000000000000000000000000000000000000000000000000000000000000000000000000000000000000000000000000000000000000000000000000000000000000",
      "type": "0x2",
      "transactionHash": "0x1c42f5dcca76b56b8bd082a14827a447f5e4342e658f32c7df803406f3792671",
      "transactionIndex": "0x17",
      "blockHash": "0x4a6a9314664183c571555e18e77c3faf8bbaa7bcce62437180b17b7865c2eb59",
      "blockNumber": "0x3861fb",
      "gasUsed": "0x7940",
      "effectiveGasPrice": "0x5d21dba01",
      "from": "0x56fd3f2bee130e9867942d0f463a16fbe49b8d81",
      "to": "0x04a1e7bbd987a7f86ca10ea36023884e45e46bd7",
      "contractAddress": null,
      "l1BaseFeeScalar": "0x0",
      "l1BlobBaseFee": "0x1",
      "l1BlobBaseFeeScalar": "0x0",
      "l1Fee": "0x0",
      "l1GasPrice": "0x7fd2c211",
      "l1GasUsed": "0x640"
    },
    {
      "status": "0x1",
      "cumulativeGasUsed": "0x1391a6",
      "logs": [],
      "logsBloom": "0x00000000000000000000000000000000000000000000000000000000000000000000000000000000000000000000000000000000000000000000000000000000000000000000000000000000000000000000000000000000000000000000000000000000000000000000000000000000000000000000000000000000000000000000000000000000000000000000000000000000000000000000000000000000000000000000000000000000000000000000000000000000000000000000000000000000000000000000000000000000000000000000000000000000000000000000000000000000000000000000000000000000000000000000000000000000",
      "type": "0x2",
      "transactionHash": "0xb993597b477f48c69285c1b17914ad993b9b382a048272ad4583e9df5a362c24",
      "transactionIndex": "0x18",
      "blockHash": "0x4a6a9314664183c571555e18e77c3faf8bbaa7bcce62437180b17b7865c2eb59",
      "blockNumber": "0x3861fb",
      "gasUsed": "0x654d",
      "effectiveGasPrice": "0x5d21dba01",
      "from": "0x56fd3f2bee130e9867942d0f463a16fbe49b8d81",
      "to": "0x56029056ccc623115d05473cee7d1aacac830185",
      "contractAddress": null,
      "l1BaseFeeScalar": "0x0",
      "l1BlobBaseFee": "0x1",
      "l1BlobBaseFeeScalar": "0x0",
      "l1Fee": "0x0",
      "l1GasPrice": "0x7fd2c211",
      "l1GasUsed": "0x640"
    },
    {
      "status": "0x1",
      "cumulativeGasUsed": "0x1415e2",
      "logs": [],
      "logsBloom": "0x00000000000000000000000000000000000000000000000000000000000000000000000000000000000000000000000000000000000000000000000000000000000000000000000000000000000000000000000000000000000000000000000000000000000000000000000000000000000000000000000000000000000000000000000000000000000000000000000000000000000000000000000000000000000000000000000000000000000000000000000000000000000000000000000000000000000000000000000000000000000000000000000000000000000000000000000000000000000000000000000000000000000000000000000000000000",
      "type": "0x2",
      "transactionHash": "0x863108bcdef9bc61118dc59cfacf802e4e218df57d920af289c5f00935744852",
      "transactionIndex": "0x19",
      "blockHash": "0x4a6a9314664183c571555e18e77c3faf8bbaa7bcce62437180b17b7865c2eb59",
      "blockNumber": "0x3861fb",
      "gasUsed": "0x843c",
      "effectiveGasPrice": "0x5d21dba01",
      "from": "0x56fd3f2bee130e9867942d0f463a16fbe49b8d81",
      "to": "0x56029056ccc623115d05473cee7d1aacac830185",
      "contractAddress": null,
      "l1BaseFeeScalar": "0x0",
      "l1BlobBaseFee": "0x1",
      "l1BlobBaseFeeScalar": "0x0",
      "l1Fee": "0x0",
      "l1GasPrice": "0x7fd2c211",
      "l1GasUsed": "0x640"
    },
    {
      "status": "0x1",
      "cumulativeGasUsed": "0x147b2f",
      "logs": [],
      "logsBloom": "0x00000000000000000000000000000000000000000000000000000000000000000000000000000000000000000000000000000000000000000000000000000000000000000000000000000000000000000000000000000000000000000000000000000000000000000000000000000000000000000000000000000000000000000000000000000000000000000000000000000000000000000000000000000000000000000000000000000000000000000000000000000000000000000000000000000000000000000000000000000000000000000000000000000000000000000000000000000000000000000000000000000000000000000000000000000000",
      "type": "0x2",
      "transactionHash": "0xe0d3093290c343e10dcc86d5371017adb3f44b5f740d2e66907134648b4fff76",
      "transactionIndex": "0x1a",
      "blockHash": "0x4a6a9314664183c571555e18e77c3faf8bbaa7bcce62437180b17b7865c2eb59",
      "blockNumber": "0x3861fb",
      "gasUsed": "0x654d",
      "effectiveGasPrice": "0x5d21dba01",
      "from": "0x56fd3f2bee130e9867942d0f463a16fbe49b8d81",
      "to": "0x1d866336d9c2f1c9737aca853347838e0a9e0559",
      "contractAddress": null,
      "l1BaseFeeScalar": "0x0",
      "l1BlobBaseFee": "0x1",
      "l1BlobBaseFeeScalar": "0x0",
      "l1Fee": "0x0",
      "l1GasPrice": "0x7fd2c211",
      "l1GasUsed": "0x640"
    },
    {
      "status": "0x1",
      "cumulativeGasUsed": "0x14ff5f",
      "logs": [],
      "logsBloom": "0x00000000000000000000000000000000000000000000000000000000000000000000000000000000000000000000000000000000000000000000000000000000000000000000000000000000000000000000000000000000000000000000000000000000000000000000000000000000000000000000000000000000000000000000000000000000000000000000000000000000000000000000000000000000000000000000000000000000000000000000000000000000000000000000000000000000000000000000000000000000000000000000000000000000000000000000000000000000000000000000000000000000000000000000000000000000",
      "type": "0x2",
      "transactionHash": "0xda1e8817b81de4ae5a11f29662da9202f41afc1c19d4743558cce43c243d8890",
      "transactionIndex": "0x1b",
      "blockHash": "0x4a6a9314664183c571555e18e77c3faf8bbaa7bcce62437180b17b7865c2eb59",
      "blockNumber": "0x3861fb",
      "gasUsed": "0x8430",
      "effectiveGasPrice": "0x5d21dba01",
      "from": "0x56fd3f2bee130e9867942d0f463a16fbe49b8d81",
      "to": "0x1d866336d9c2f1c9737aca853347838e0a9e0559",
      "contractAddress": null,
      "l1BaseFeeScalar": "0x0",
      "l1BlobBaseFee": "0x1",
      "l1BlobBaseFeeScalar": "0x0",
      "l1Fee": "0x0",
      "l1GasPrice": "0x7fd2c211",
      "l1GasUsed": "0x640"
    },
    {
      "status": "0x1",
      "cumulativeGasUsed": "0x12f25",
      "logs": [],
      "logsBloom": "0x00000000000000000000000000000000000000000000000000000000000000000000000000000000000000000000000000000000000000000000000000000000000000000000000000000000000000000000000000000000000000000000000000000000000000000000000000000000000000000000000000000000000000000000000000000000000000000000000000000000000000000000000000000000000000000000000000000000000000000000000000000000000000000000000000000000000000000000000000000000000000000000000000000000000000000000000000000000000000000000000000000000000000000000000000000000",
      "type": "0x2",
      "transactionHash": "0xbc0ece19c9418b6584276a03656ba4891702e9072813e207edc1b625c37f241f",
      "transactionIndex": "0x1",
      "blockHash": "0x53d324abc17bdf4255450a173ec728f1ec12c985b1c3142f37e2d3ee94436ad9",
      "blockNumber": "0x3861fc",
      "gasUsed": "0x654d",
      "effectiveGasPrice": "0x5d21dba01",
      "from": "0x56fd3f2bee130e9867942d0f463a16fbe49b8d81",
      "to": "0x8c947e599bea1f0469d5e2633a6e030910336d11",
      "contractAddress": null,
      "l1BaseFeeScalar": "0x0",
      "l1BlobBaseFee": "0x1",
      "l1BlobBaseFeeScalar": "0x0",
      "l1Fee": "0x0",
      "l1GasPrice": "0x7e0945d7",
      "l1GasUsed": "0x640"
    },
    {
      "status": "0x1",
      "cumulativeGasUsed": "0x1b361",
      "logs": [],
      "logsBloom": "0x00000000000000000000000000000000000000000000000000000000000000000000000000000000000000000000000000000000000000000000000000000000000000000000000000000000000000000000000000000000000000000000000000000000000000000000000000000000000000000000000000000000000000000000000000000000000000000000000000000000000000000000000000000000000000000000000000000000000000000000000000000000000000000000000000000000000000000000000000000000000000000000000000000000000000000000000000000000000000000000000000000000000000000000000000000000",
      "type": "0x2",
      "transactionHash": "0x2001b41b50bc0aaaffe30b21e9fc6370a0bf7117decda99c97084450f69cebe7",
      "transactionIndex": "0x2",
      "blockHash": "0x53d324abc17bdf4255450a173ec728f1ec12c985b1c3142f37e2d3ee94436ad9",
      "blockNumber": "0x3861fc",
      "gasUsed": "0x843c",
      "effectiveGasPrice": "0x5d21dba01",
      "from": "0x56fd3f2bee130e9867942d0f463a16fbe49b8d81",
      "to": "0x8c947e599bea1f0469d5e2633a6e030910336d11",
      "contractAddress": null,
      "l1BaseFeeScalar": "0x0",
      "l1BlobBaseFee": "0x1",
      "l1BlobBaseFeeScalar": "0x0",
      "l1Fee": "0x0",
      "l1GasPrice": "0x7e0945d7",
      "l1GasUsed": "0x640"
    },
    {
      "status": "0x1",
      "cumulativeGasUsed": "0x218ae",
      "logs": [],
      "logsBloom": "0x00000000000000000000000000000000000000000000000000000000000000000000000000000000000000000000000000000000000000000000000000000000000000000000000000000000000000000000000000000000000000000000000000000000000000000000000000000000000000000000000000000000000000000000000000000000000000000000000000000000000000000000000000000000000000000000000000000000000000000000000000000000000000000000000000000000000000000000000000000000000000000000000000000000000000000000000000000000000000000000000000000000000000000000000000000000",
      "type": "0x2",
      "transactionHash": "0xdea3b2810d9eed2577392881fb1e833f3533b78c01d2a1c9b500298e4e6e75ff",
      "transactionIndex": "0x3",
      "blockHash": "0x53d324abc17bdf4255450a173ec728f1ec12c985b1c3142f37e2d3ee94436ad9",
      "blockNumber": "0x3861fc",
      "gasUsed": "0x654d",
      "effectiveGasPrice": "0x5d21dba01",
      "from": "0x56fd3f2bee130e9867942d0f463a16fbe49b8d81",
      "to": "0xdee315fc7023de5a99fbc68a1ca6c0266a897b17",
      "contractAddress": null,
      "l1BaseFeeScalar": "0x0",
      "l1BlobBaseFee": "0x1",
      "l1BlobBaseFeeScalar": "0x0",
      "l1Fee": "0x0",
      "l1GasPrice": "0x7e0945d7",
      "l1GasUsed": "0x640"
    },
    {
      "status": "0x1",
      "cumulativeGasUsed": "0x29cea",
      "logs": [],
      "logsBloom": "0x00000000000000000000000000000000000000000000000000000000000000000000000000000000000000000000000000000000000000000000000000000000000000000000000000000000000000000000000000000000000000000000000000000000000000000000000000000000000000000000000000000000000000000000000000000000000000000000000000000000000000000000000000000000000000000000000000000000000000000000000000000000000000000000000000000000000000000000000000000000000000000000000000000000000000000000000000000000000000000000000000000000000000000000000000000000",
      "type": "0x2",
      "transactionHash": "0xd82e68d8eac595d6999a0f30c09b2214ddb3d2f3470359bdae084a3e98cd39d0",
      "transactionIndex": "0x4",
      "blockHash": "0x53d324abc17bdf4255450a173ec728f1ec12c985b1c3142f37e2d3ee94436ad9",
      "blockNumber": "0x3861fc",
      "gasUsed": "0x843c",
      "effectiveGasPrice": "0x5d21dba01",
      "from": "0x56fd3f2bee130e9867942d0f463a16fbe49b8d81",
      "to": "0xdee315fc7023de5a99fbc68a1ca6c0266a897b17",
      "contractAddress": null,
      "l1BaseFeeScalar": "0x0",
      "l1BlobBaseFee": "0x1",
      "l1BlobBaseFeeScalar": "0x0",
      "l1Fee": "0x0",
      "l1GasPrice": "0x7e0945d7",
      "l1GasUsed": "0x640"
    },
    {
      "status": "0x1",
      "cumulativeGasUsed": "0x30237",
      "logs": [],
      "logsBloom": "0x00000000000000000000000000000000000000000000000000000000000000000000000000000000000000000000000000000000000000000000000000000000000000000000000000000000000000000000000000000000000000000000000000000000000000000000000000000000000000000000000000000000000000000000000000000000000000000000000000000000000000000000000000000000000000000000000000000000000000000000000000000000000000000000000000000000000000000000000000000000000000000000000000000000000000000000000000000000000000000000000000000000000000000000000000000000",
      "type": "0x2",
      "transactionHash": "0x98c68294f0b2e80d11ccb49cf4e9aecc517c34af95a8703f2c71a7eded25ed39",
      "transactionIndex": "0x5",
      "blockHash": "0x53d324abc17bdf4255450a173ec728f1ec12c985b1c3142f37e2d3ee94436ad9",
      "blockNumber": "0x3861fc",
      "gasUsed": "0x654d",
      "effectiveGasPrice": "0x5d21dba01",
      "from": "0x56fd3f2bee130e9867942d0f463a16fbe49b8d81",
      "to": "0x703691155cd4006ed14361023ec35599cfb33a19",
      "contractAddress": null,
      "l1BaseFeeScalar": "0x0",
      "l1BlobBaseFee": "0x1",
      "l1BlobBaseFeeScalar": "0x0",
      "l1Fee": "0x0",
      "l1GasPrice": "0x7e0945d7",
      "l1GasUsed": "0x640"
    },
    {
      "status": "0x1",
      "cumulativeGasUsed": "0x38673",
      "logs": [],
      "logsBloom": "0x00000000000000000000000000000000000000000000000000000000000000000000000000000000000000000000000000000000000000000000000000000000000000000000000000000000000000000000000000000000000000000000000000000000000000000000000000000000000000000000000000000000000000000000000000000000000000000000000000000000000000000000000000000000000000000000000000000000000000000000000000000000000000000000000000000000000000000000000000000000000000000000000000000000000000000000000000000000000000000000000000000000000000000000000000000000",
      "type": "0x2",
      "transactionHash": "0x3af80a94520055f594f7351c55fec8ee4724f7eeefb6676cdbe8aed10dec80d0",
      "transactionIndex": "0x6",
      "blockHash": "0x53d324abc17bdf4255450a173ec728f1ec12c985b1c3142f37e2d3ee94436ad9",
      "blockNumber": "0x3861fc",
      "gasUsed": "0x843c",
      "effectiveGasPrice": "0x5d21dba01",
      "from": "0x56fd3f2bee130e9867942d0f463a16fbe49b8d81",
      "to": "0x703691155cd4006ed14361023ec35599cfb33a19",
      "contractAddress": null,
      "l1BaseFeeScalar": "0x0",
      "l1BlobBaseFee": "0x1",
      "l1BlobBaseFeeScalar": "0x0",
      "l1Fee": "0x0",
      "l1GasPrice": "0x7e0945d7",
      "l1GasUsed": "0x640"
    },
    {
      "status": "0x1",
      "cumulativeGasUsed": "0x3ebc0",
      "logs": [],
      "logsBloom": "0x00000000000000000000000000000000000000000000000000000000000000000000000000000000000000000000000000000000000000000000000000000000000000000000000000000000000000000000000000000000000000000000000000000000000000000000000000000000000000000000000000000000000000000000000000000000000000000000000000000000000000000000000000000000000000000000000000000000000000000000000000000000000000000000000000000000000000000000000000000000000000000000000000000000000000000000000000000000000000000000000000000000000000000000000000000000",
      "type": "0x2",
      "transactionHash": "0xedef8b298263564c87243bde800a845c3905619e4bc04c39fef8d1e453f843b7",
      "transactionIndex": "0x7",
      "blockHash": "0x53d324abc17bdf4255450a173ec728f1ec12c985b1c3142f37e2d3ee94436ad9",
      "blockNumber": "0x3861fc",
      "gasUsed": "0x654d",
      "effectiveGasPrice": "0x5d21dba01",
      "from": "0x56fd3f2bee130e9867942d0f463a16fbe49b8d81",
      "to": "0x8003d6ea2954e8fa12c420e189777b2a7d989653",
      "contractAddress": null,
      "l1BaseFeeScalar": "0x0",
      "l1BlobBaseFee": "0x1",
      "l1BlobBaseFeeScalar": "0x0",
      "l1Fee": "0x0",
      "l1GasPrice": "0x7e0945d7",
      "l1GasUsed": "0x640"
    },
    {
      "status": "0x1",
      "cumulativeGasUsed": "0x46ff0",
      "logs": [],
      "logsBloom": "0x00000000000000000000000000000000000000000000000000000000000000000000000000000000000000000000000000000000000000000000000000000000000000000000000000000000000000000000000000000000000000000000000000000000000000000000000000000000000000000000000000000000000000000000000000000000000000000000000000000000000000000000000000000000000000000000000000000000000000000000000000000000000000000000000000000000000000000000000000000000000000000000000000000000000000000000000000000000000000000000000000000000000000000000000000000000",
      "type": "0x2",
      "transactionHash": "0xb774e828021f0a4e17efc4a6552f72c8a8278eb574134616bb15afad65f91d55",
      "transactionIndex": "0x8",
      "blockHash": "0x53d324abc17bdf4255450a173ec728f1ec12c985b1c3142f37e2d3ee94436ad9",
      "blockNumber": "0x3861fc",
      "gasUsed": "0x8430",
      "effectiveGasPrice": "0x5d21dba01",
      "from": "0x56fd3f2bee130e9867942d0f463a16fbe49b8d81",
      "to": "0x8003d6ea2954e8fa12c420e189777b2a7d989653",
      "contractAddress": null,
      "l1BaseFeeScalar": "0x0",
      "l1BlobBaseFee": "0x1",
      "l1BlobBaseFeeScalar": "0x0",
      "l1Fee": "0x0",
      "l1GasPrice": "0x7e0945d7",
      "l1GasUsed": "0x640"
    },
    {
      "status": "0x1",
      "cumulativeGasUsed": "0x4d53d",
      "logs": [],
      "logsBloom": "0x00000000000000000000000000000000000000000000000000000000000000000000000000000000000000000000000000000000000000000000000000000000000000000000000000000000000000000000000000000000000000000000000000000000000000000000000000000000000000000000000000000000000000000000000000000000000000000000000000000000000000000000000000000000000000000000000000000000000000000000000000000000000000000000000000000000000000000000000000000000000000000000000000000000000000000000000000000000000000000000000000000000000000000000000000000000",
      "type": "0x2",
      "transactionHash": "0x7984d1422af3629d75f0c02857677a3eb452864474e98e3e86b4e7202c8433a0",
      "transactionIndex": "0x9",
      "blockHash": "0x53d324abc17bdf4255450a173ec728f1ec12c985b1c3142f37e2d3ee94436ad9",
      "blockNumber": "0x3861fc",
      "gasUsed": "0x654d",
      "effectiveGasPrice": "0x5d21dba01",
      "from": "0x56fd3f2bee130e9867942d0f463a16fbe49b8d81",
      "to": "0x5db4a1e964ce93f994ff56aaf96b39de73f073da",
      "contractAddress": null,
      "l1BaseFeeScalar": "0x0",
      "l1BlobBaseFee": "0x1",
      "l1BlobBaseFeeScalar": "0x0",
      "l1Fee": "0x0",
      "l1GasPrice": "0x7e0945d7",
      "l1GasUsed": "0x640"
    },
    {
      "status": "0x1",
      "cumulativeGasUsed": "0x54ead",
      "logs": [],
      "logsBloom": "0x00000000000000000000000000000000000000000000000000000000000000000000000000000000000000000000000000000000000000000000000000000000000000000000000000000000000000000000000000000000000000000000000000000000000000000000000000000000000000000000000000000000000000000000000000000000000000000000000000000000000000000000000000000000000000000000000000000000000000000000000000000000000000000000000000000000000000000000000000000000000000000000000000000000000000000000000000000000000000000000000000000000000000000000000000000000",
      "type": "0x2",
      "transactionHash": "0x9141407641794ab0e118d95d2603f3c8fe97d959b7b918f3a879d456a5190ff8",
      "transactionIndex": "0xa",
      "blockHash": "0x53d324abc17bdf4255450a173ec728f1ec12c985b1c3142f37e2d3ee94436ad9",
      "blockNumber": "0x3861fc",
      "gasUsed": "0x7970",
      "effectiveGasPrice": "0x5d21dba01",
      "from": "0x56fd3f2bee130e9867942d0f463a16fbe49b8d81",
      "to": "0x5db4a1e964ce93f994ff56aaf96b39de73f073da",
      "contractAddress": null,
      "l1BaseFeeScalar": "0x0",
      "l1BlobBaseFee": "0x1",
      "l1BlobBaseFeeScalar": "0x0",
      "l1Fee": "0x0",
      "l1GasPrice": "0x7e0945d7",
      "l1GasUsed": "0x640"
    }
  ],
  "libraries": [
    "node_modules/@celo/contracts/common/linkedlists/AddressSortedLinkedListWithMedian.sol:AddressSortedLinkedListWithMedian:0x1aD9B2599975E8CDF5629aFaBA8852269f1A1364"
  ],
  "pending": [],
  "returns": {},
  "timestamp": 1756979089781,
  "chain": 11142220,
  "commit": "7dc8151"
}