{
  "transactions": [
    {
      "hash": "0xf1801b32a7f9fc69c3ae1be160aa976fe111eaaa9f55bee51c71ec63402ecc63",
      "transactionType": "CALL",
      "contractName": null,
      "contractAddress": "0x32cb58b145d3f7e28c45ce4b2cc31fa94248b23f",
      "function": "execTransaction(address,uint256,bytes,uint8,uint256,uint256,uint256,address,address,bytes)",
      "arguments": [
        "0xba5Ed099633D3B313e4D5F7bdc1305d3c28ba5Ed",
        "0",
        "0x9c36a28632cb58b145d3f7e28c45ce4b2cc31fa94248b23f00b8724107317c009f0e171e000000000000000000000000000000000000000000000000000000000000004000000000000000000000000000000000000000000000000000000000000002b66080604052348015600e575f5ffd5b505f5f81905550610294806100225f395ff3fe608060405234801561000f575f5ffd5b506004361061004a575f3560e01c806306661abd1461004e5780632baeceb71461006c578063a87d942c14610076578063d09de08a14610094575b5f5ffd5b61005661009e565b604051610063919061013a565b60405180910390f35b6100746100a3565b005b61007e610100565b60405161008b919061013a565b60405180910390f35b61009c610108565b005b5f5481565b5f5f54116100e6576040517f08c379a00000000000000000000000000000000000000000000000000000000081526004016100dd906101ad565b60405180910390fd5b60015f5f8282546100f791906101f8565b92505081905550565b5f5f54905090565b60015f5f828254610119919061022b565b92505081905550565b5f819050919050565b61013481610122565b82525050565b5f60208201905061014d5f83018461012b565b92915050565b5f82825260208201905092915050565b7f436f756e7465722063616e277420676f2062656c6f77203000000000000000005f82015250565b5f610197601883610153565b91506101a282610163565b602082019050919050565b5f6020820190508181035f8301526101c48161018b565b9050919050565b7f4e487b71000000000000000000000000000000000000000000000000000000005f52601160045260245ffd5b5f61020282610122565b915061020d83610122565b9250828203905081811115610225576102246101cb565b5b92915050565b5f61023582610122565b915061024083610122565b9250828201905080821115610258576102576101cb565b5b9291505056fea26469706673582212203c1a76e195382e14025ed69fac3f27b49b001bce48d3d1adf265a7fc7de44b9264736f6c634300081e003300000000000000000000",
        "0",
        "0",
        "0",
        "0",
        "0x0000000000000000000000000000000000000000",
        "0x0000000000000000000000000000000000000000",
        "0x439ea13696ad6ae625bb6175d1054f0a148058cc9b2162e928c359ae0621a23a14a27ab1abd79d3fae73945b6096a270e6da0fe5efa76580953dcb3011979a921b"
      ],
      "transaction": {
        "from": "0x56fd3f2bee130e9867942d0f463a16fbe49b8d81",
        "to": "0x32cb58b145d3f7e28c45ce4b2cc31fa94248b23f",
        "gas": "0x65c91",
        "value": "0x0",
        "input": "0x6a761202000000000000000000000000ba5ed099633d3b313e4d5f7bdc1305d3c28ba5ed0000000000000000000000000000000000000000000000000000000000000000000000000000000000000000000000000000000000000000000000000000014000000000000000000000000000000000000000000000000000000000000000000000000000000000000000000000000000000000000000000000000000000000000000000000000000000000000000000000000000000000000000000000000000000000000000000000000000000000000000000000000000000000000000000000000000000000000000000000000000000000000000000000000000000000000000000000000000000000000000000000000000000000000000000000000000000000000000000000000000000000000000000000000000000000000004a000000000000000000000000000000000000000000000000000000000000003249c36a28632cb58b145d3f7e28c45ce4b2cc31fa94248b23f00b8724107317c009f0e171e000000000000000000000000000000000000000000000000000000000000004000000000000000000000000000000000000000000000000000000000000002b66080604052348015600e575f5ffd5b505f5f81905550610294806100225f395ff3fe608060405234801561000f575f5ffd5b506004361061004a575f3560e01c806306661abd1461004e5780632baeceb71461006c578063a87d942c14610076578063d09de08a14610094575b5f5ffd5b61005661009e565b604051610063919061013a565b60405180910390f35b6100746100a3565b005b61007e610100565b60405161008b919061013a565b60405180910390f35b61009c610108565b005b5f5481565b5f5f54116100e6576040517f08c379a00000000000000000000000000000000000000000000000000000000081526004016100dd906101ad565b60405180910390fd5b60015f5f8282546100f791906101f8565b92505081905550565b5f5f54905090565b60015f5f828254610119919061022b565b92505081905550565b5f819050919050565b61013481610122565b82525050565b5f60208201905061014d5f83018461012b565b92915050565b5f82825260208201905092915050565b7f436f756e7465722063616e277420676f2062656c6f77203000000000000000005f82015250565b5f610197601883610153565b91506101a282610163565b602082019050919050565b5f6020820190508181035f8301526101c48161018b565b9050919050565b7f4e487b71000000000000000000000000000000000000000000000000000000005f52601160045260245ffd5b5f61020282610122565b915061020d83610122565b9250828203905081811115610225576102246101cb565b5b92915050565b5f61023582610122565b915061024083610122565b9250828201905080821115610258576102576101cb565b5b9291505056fea26469706673582212203c1a76e195382e14025ed69fac3f27b49b001bce48d3d1adf265a7fc7de44b9264736f6c634300081e003300000000000000000000000000000000000000000000000000000000000000000000000000000000000000000000000000000000000000000000000000000000000000000041439ea13696ad6ae625bb6175d1054f0a148058cc9b2162e928c359ae0621a23a14a27ab1abd79d3fae73945b6096a270e6da0fe5efa76580953dcb3011979a921b00000000000000000000000000000000000000000000000000000000000000",
        "nonce": "0x1",
        "chainId": "0x2105"
      },
      "additionalContracts": [
        {
          "transactionType": "CREATE2",
          "address": "0x1e17fa52aff9f68cd0ed77f2e1f8d4ed647f70f3",
          "initCode": "0x67363d3d37363d34f03d5260086018f3"
        },
        {
          "transactionType": "CREATE",
          "address": "0x0b7e07021dfdd656712c12689d3163300f3e8c53",
          "initCode": "0x6080604052348015600e575f5ffd5b505f5f81905550610294806100225f395ff3fe608060405234801561000f575f5ffd5b506004361061004a575f3560e01c806306661abd1461004e5780632baeceb71461006c578063a87d942c14610076578063d09de08a14610094575b5f5ffd5b61005661009e565b604051610063919061013a565b60405180910390f35b6100746100a3565b005b61007e610100565b60405161008b919061013a565b60405180910390f35b61009c610108565b005b5f5481565b5f5f54116100e6576040517f08c379a00000000000000000000000000000000000000000000000000000000081526004016100dd906101ad565b60405180910390fd5b60015f5f8282546100f791906101f8565b92505081905550565b5f5f54905090565b60015f5f828254610119919061022b565b92505081905550565b5f819050919050565b61013481610122565b82525050565b5f60208201905061014d5f83018461012b565b92915050565b5f82825260208201905092915050565b7f436f756e7465722063616e277420676f2062656c6f77203000000000000000005f82015250565b5f610197601883610153565b91506101a282610163565b602082019050919050565b5f6020820190508181035f8301526101c48161018b565b9050919050565b7f4e487b71000000000000000000000000000000000000000000000000000000005f52601160045260245ffd5b5f61020282610122565b915061020d83610122565b9250828203905081811115610225576102246101cb565b5b92915050565b5f61023582610122565b915061024083610122565b9250828201905080821115610258576102576101cb565b5b9291505056fea26469706673582212203c1a76e195382e14025ed69fac3f27b49b001bce48d3d1adf265a7fc7de44b9264736f6c634300081e0033"
        }
      ],
      "isFixedGasLimit": false
    }
  ],
  "receipts": [
    {
      "status": "0x1",
      "cumulativeGasUsed": "0x49b0f",
      "logs": [
        {
          "address": "0x32cb58b145d3f7e28c45ce4b2cc31fa94248b23f",
          "topics": [
            "0x66753cd2356569ee081232e3be8909b950e0a76c1f8460c3a5e3c2be32b11bed"
          ],
          "data": "0x000000000000000000000000ba5ed099633d3b313e4d5f7bdc1305d3c28ba5ed0000000000000000000000000000000000000000000000000000000000000000000000000000000000000000000000000000000000000000000000000000016000000000000000000000000000000000000000000000000000000000000000000000000000000000000000000000000000000000000000000000000000000000000000000000000000000000000000000000000000000000000000000000000000000000000000000000000000000000000000000000000000000000000000000000000000000000000000000000000000000000000000000000000000000000000000000000000000000000000000000000000000000000000000000000000000000000000000000000000000000000000000000000000000000000000004c0000000000000000000000000000000000000000000000000000000000000054000000000000000000000000000000000000000000000000000000000000003249c36a28632cb58b145d3f7e28c45ce4b2cc31fa94248b23f00b8724107317c009f0e171e000000000000000000000000000000000000000000000000000000000000004000000000000000000000000000000000000000000000000000000000000002b66080604052348015600e575f5ffd5b505f5f81905550610294806100225f395ff3fe608060405234801561000f575f5ffd5b506004361061004a575f3560e01c806306661abd1461004e5780632baeceb71461006c578063a87d942c14610076578063d09de08a14610094575b5f5ffd5b61005661009e565b604051610063919061013a565b60405180910390f35b6100746100a3565b005b61007e610100565b60405161008b919061013a565b60405180910390f35b61009c610108565b005b5f5481565b5f5f54116100e6576040517f08c379a00000000000000000000000000000000000000000000000000000000081526004016100dd906101ad565b60405180910390fd5b60015f5f8282546100f791906101f8565b92505081905550565b5f5f54905090565b60015f5f828254610119919061022b565b92505081905550565b5f819050919050565b61013481610122565b82525050565b5f60208201905061014d5f83018461012b565b92915050565b5f82825260208201905092915050565b7f436f756e7465722063616e277420676f2062656c6f77203000000000000000005f82015250565b5f610197601883610153565b91506101a282610163565b602082019050919050565b5f6020820190508181035f8301526101c48161018b565b9050919050565b7f4e487b71000000000000000000000000000000000000000000000000000000005f52601160045260245ffd5b5f61020282610122565b915061020d83610122565b9250828203905081811115610225576102246101cb565b5b92915050565b5f61023582610122565b915061024083610122565b9250828201905080821115610258576102576101cb565b5b9291505056fea26469706673582212203c1a76e195382e14025ed69fac3f27b49b001bce48d3d1adf265a7fc7de44b9264736f6c634300081e003300000000000000000000000000000000000000000000000000000000000000000000000000000000000000000000000000000000000000000000000000000000000000000041439ea13696ad6ae625bb6175d1054f0a148058cc9b2162e928c359ae0621a23a14a27ab1abd79d3fae73945b6096a270e6da0fe5efa76580953dcb3011979a921b000000000000000000000000000000000000000000000000000000000000000000000000000000000000000000000000000000000000000000000000000060000000000000000000000000000000000000000000000000000000000000000000000000000000000000000056fd3f2bee130e9867942d0f463a16fbe49b8d810000000000000000000000000000000000000000000000000000000000000001",
          "blockHash": "0x54edc8b04d6143d21e5abe4074729b59866c4da09ab755cc7c06f12599dff916",
          "blockNumber": "0x203d3de",
          "transactionHash": "0xf1801b32a7f9fc69c3ae1be160aa976fe111eaaa9f55bee51c71ec63402ecc63",
          "transactionIndex": "0x0",
          "logIndex": "0x0",
          "removed": false
        },
        {
          "address": "0xba5ed099633d3b313e4d5f7bdc1305d3c28ba5ed",
          "topics": [
            "0x2feea65dd4e9f9cbd86b74b7734210c59a1b2981b5b137bd0ee3e208200c9067",
            "0x0000000000000000000000001e17fa52aff9f68cd0ed77f2e1f8d4ed647f70f3",
            "0x86e4c827c708b0abb983f18df90c3de728a4fd90566086d55c1640d61c457e79"
          ],
          "data": "0x",
          "blockHash": "0x54edc8b04d6143d21e5abe4074729b59866c4da09ab755cc7c06f12599dff916",
          "blockNumber": "0x203d3de",
          "transactionHash": "0xf1801b32a7f9fc69c3ae1be160aa976fe111eaaa9f55bee51c71ec63402ecc63",
          "transactionIndex": "0x0",
          "logIndex": "0x1",
          "removed": false
        },
        {
          "address": "0xba5ed099633d3b313e4d5f7bdc1305d3c28ba5ed",
          "topics": [
            "0x4db17dd5e4732fb6da34a148104a592783ca119a1e7bb8829eba6cbadef0b511",
            "0x0000000000000000000000000b7e07021dfdd656712c12689d3163300f3e8c53"
          ],
          "data": "0x",
          "blockHash": "0x54edc8b04d6143d21e5abe4074729b59866c4da09ab755cc7c06f12599dff916",
          "blockNumber": "0x203d3de",
          "transactionHash": "0xf1801b32a7f9fc69c3ae1be160aa976fe111eaaa9f55bee51c71ec63402ecc63",
          "transactionIndex": "0x0",
          "logIndex": "0x2",
          "removed": false
        },
        {
          "address": "0x32cb58b145d3f7e28c45ce4b2cc31fa94248b23f",
          "topics": [
            "0x442e715f626346e8c54381002da614f62bee8d27386535b2521ec8540898556e",
            "0x0f5660dc54d2045040ba9d41925b03585dd01988690c3505ea8c3fb5d8bc1a39"
          ],
          "data": "0x0000000000000000000000000000000000000000000000000000000000000000",
          "blockHash": "0x54edc8b04d6143d21e5abe4074729b59866c4da09ab755cc7c06f12599dff916",
          "blockNumber": "0x203d3de",
          "transactionHash": "0xf1801b32a7f9fc69c3ae1be160aa976fe111eaaa9f55bee51c71ec63402ecc63",
          "transactionIndex": "0x0",
          "logIndex": "0x3",
          "removed": false
        }
      ],
      "logsBloom": "0x00020000400000000000000001000000000000000000000000000000340000000000000000000000000000000000000000000000000004000040000000000000000000000000000000000200120000000000040000000000000000000000000200000000000000000000000000000000000000000020000000800000000001000000000000000000000000001000000000000000000000000000004000000000000000000400000000000000000004000008000100000000000000000000000000000000000000000200000000020000000000002000000000000000080000000000000000000200000000000000000000100000000000000000000400000000",
      "type": "0x2",
      "transactionHash": "0xf1801b32a7f9fc69c3ae1be160aa976fe111eaaa9f55bee51c71ec63402ecc63",
      "transactionIndex": "0x0",
      "blockHash": "0x54edc8b04d6143d21e5abe4074729b59866c4da09ab755cc7c06f12599dff916",
      "blockNumber": "0x203d3de",
      "gasUsed": "0x49b0f",
      "effectiveGasPrice": "0x3",
      "blobGasUsed": "0x0",
      "from": "0x56fd3f2bee130e9867942d0f463a16fbe49b8d81",
      "to": "0x32cb58b145d3f7e28c45ce4b2cc31fa94248b23f",
      "contractAddress": null
    }
  ],
  "libraries": [],
  "pending": [],
  "returns": {},
  "timestamp": 1754468149,
  "chain": 8453,
  "commit": "0b9461b"
}