{
  "transactions": [
    {
      "hash": "0xddac9ae006075966cfbab66745be85224c4981bc3666cb7fd4f2b7419fae1c15",
      "transactionType": "CALL",
      "contractName": null,
      "contractAddress": "0x85ed9ac57827132b8f60938f3165bc139e1f53cd",
      "function": "setTokenReportExpiry(address,uint256)",
      "arguments": [
        "0x81a313Ff894BFC6093d33b5514E34D7FAA41B7eF",
        "3720"
      ],
      "transaction": {
        "from": "0x2738f38fde510743e0c589415e0598c4cee6eaa7",
        "to": "0x85ed9ac57827132b8f60938f3165bc139e1f53cd",
        "gas": "0x191b0",
        "value": "0x0",
        "input": "0xfc20935d00000000000000000000000081a313ff894bfc6093d33b5514e34d7faa41b7ef0000000000000000000000000000000000000000000000000000000000000e88",
        "nonce": "0x121",
        "chainId": "0x279f"
      },
      "additionalContracts": [],
      "isFixedGasLimit": false
    },
    {
      "hash": "0xba0fc37472d438c9e253abc2790da0d272142c053eb361151d35395707027a57",
      "transactionType": "CALL",
      "contractName": null,
      "contractAddress": "0x85ed9ac57827132b8f60938f3165bc139e1f53cd",
      "function": "setTokenReportExpiry(address,uint256)",
      "arguments": [
        "0xf47172cE00522Cc7dB02109634A92CE866a15FCC",
        "3720"
      ],
      "transaction": {
        "from": "0x2738f38fde510743e0c589415e0598c4cee6eaa7",
        "to": "0x85ed9ac57827132b8f60938f3165bc139e1f53cd",
        "gas": "0x191a1",
        "value": "0x0",
        "input": "0xfc20935d000000000000000000000000f47172ce00522cc7db02109634a92ce866a15fcc0000000000000000000000000000000000000000000000000000000000000e88",
        "nonce": "0x122",
        "chainId": "0x279f"
      },
      "additionalContracts": [],
      "isFixedGasLimit": false
    },
    {
      "hash": "0xa7f1c7b8cf3d3ac706e63773b7cc90c42f06e0217c07ca1da707fe3bfe71dbab",
      "transactionType": "CALL",
      "contractName": null,
      "contractAddress": "0x438f17f0be93db19f210e91663cf6cf4ead93b4e",
      "function": "deployRelayer(address,string,uint256,(address,bool)[])",
      "arguments": [
        "0xAc414205651F4a62B614b6BE9e5318a182C33EB0",
        "USDT/USD",
        "0",
        "[(0x601566Fd7d319d14DAee362e15c2E8c3e5d3eF92, false)]"
      ],
      "transaction": {
        "from": "0x2738f38fde510743e0c589415e0598c4cee6eaa7",
        "to": "0x438f17f0be93db19f210e91663cf6cf4ead93b4e",
        "gas": "0x18c3d3",
        "value": "0x0",
        "input": "0x472a1111000000000000000000000000ac414205651f4a62b614b6be9e5318a182c33eb00000000000000000000000000000000000000000000000000000000000000080000000000000000000000000000000000000000000000000000000000000000000000000000000000000000000000000000000000000000000000000000000c00000000000000000000000000000000000000000000000000000000000000008555344542f5553440000000000000000000000000000000000000000000000000000000000000000000000000000000000000000000000000000000000000001000000000000000000000000601566fd7d319d14daee362e15c2e8c3e5d3ef920000000000000000000000000000000000000000000000000000000000000000",
        "nonce": "0x123",
        "chainId": "0x279f"
      },
      "additionalContracts": [
        {
          "transactionType": "CREATE2",
          "contractName": "ChainlinkRelayerV1",
          "address": "0x10d98f3777ce2a80fa2175c5641fbb2c15c00a98",
          "initCode": "0x6102006040523480156200001257600080fd5b5060405162001be538038062001be58339810160408190526200003591620004c7565b6001600160a01b03808616608052831660a0526101e082905260006200005c858262000664565b5080516101c08190526000036200008657604051635a0a2c5160e11b815260040160405180910390fd5b60046101c0511115620000ac57604051633be17a5360e21b815260040160405180910390fd5b60016101c051118015620000be575081155b80620000d857506101c0516001148015620000d857508115155b15620000f657604051626a65eb60e01b815260040160405180910390fd5b60408051600480825260a08201909252600091816020015b60408051808201909152600080825260208201528152602001906001900390816200010e57905050905060005b8251811015620001ec5760006001600160a01b031683828151811062000165576200016562000730565b6020026020010151600001516001600160a01b031603620001995760405163029a68ed60e41b815260040160405180910390fd5b828181518110620001ae57620001ae62000730565b6020026020010151828281518110620001cb57620001cb62000730565b60200260200101819052508080620001e39062000746565b9150506200013b565b508060008151811062000203576200020362000730565b6020908102919091010151516001600160a01b031660c05280518190600190811062000233576200023362000730565b6020908102919091010151516001600160a01b031660e05280518190600290811062000263576200026362000730565b6020908102919091010151516001600160a01b03166101005280518190600390811062000294576200029462000730565b6020908102919091010151516001600160a01b03166101205280518190600090620002c357620002c362000730565b60200260200101516020015115156101408115158152505080600181518110620002f157620002f162000730565b602002602001015160200151151561016081151581525050806002815181106200031f576200031f62000730565b602002602001015160200151151561018081151581525050806003815181106200034d576200034d62000730565b602090810291909101810151015115156101a052506200076e945050505050565b80516001600160a01b03811681146200038657600080fd5b919050565b634e487b7160e01b600052604160045260246000fd5b604080519081016001600160401b0381118282101715620003c657620003c66200038b565b60405290565b604051601f8201601f191681016001600160401b0381118282101715620003f757620003f76200038b565b604052919050565b600082601f8301126200041157600080fd5b815160206001600160401b038211156200042f576200042f6200038b565b6200043f818360051b01620003cc565b82815260069290921b840181019181810190868411156200045f57600080fd5b8286015b84811015620004bc57604081890312156200047e5760008081fd5b62000488620003a1565b62000493826200036e565b8152848201518015158114620004a95760008081fd5b8186015283529183019160400162000463565b509695505050505050565b600080600080600060a08688031215620004e057600080fd5b620004eb866200036e565b602087810151919650906001600160401b03808211156200050b57600080fd5b818901915089601f8301126200052057600080fd5b8151818111156200053557620005356200038b565b62000549601f8201601f19168501620003cc565b8181528b858386010111156200055e57600080fd5b60005b828110156200057e57848101860151828201870152850162000561565b50600085838301015280985050506200059a60408a016200036e565b9550606089015194506080890151925080831115620005b857600080fd5b5050620005c888828901620003ff565b9150509295509295909350565b600181811c90821680620005ea57607f821691505b6020821081036200060b57634e487b7160e01b600052602260045260246000fd5b50919050565b601f8211156200065f57600081815260208120601f850160051c810160208610156200063a5750805b601f850160051c820191505b818110156200065b5782815560010162000646565b5050505b505050565b81516001600160401b038111156200068057620006806200038b565b6200069881620006918454620005d5565b8462000611565b602080601f831160018114620006d05760008415620006b75750858301515b600019600386901b1c1916600185901b1785556200065b565b600085815260208120601f198616915b828110156200070157888601518255948401946001909101908401620006e0565b5085821015620007205787850151600019600388901b60f8161c191681555b5050505050600190811b01905550565b634e487b7160e01b600052603260045260246000fd5b6000600182016200076757634e487b7160e01b600052601160045260246000fd5b5060010190565b60805160a05160c05160e05161010051610120516101405161016051610180516101a0516101c0516101e0516113786200086d6000396000818160b0015261020e0152600081816103ec015281816104ed01528181610594015261063b0152600061069c015260006105f50152600061054e015260006104a70152600061066d015260006105c60152600061051f01526000610478015260008181606c0152818161014c015281816107ff015281816108c2015281816109d701528181610bf40152610c9401526000818160fa0152818161026d015281816107d4015281816108950152818161099a01528181610bb50152610c6501526113786000f3fe608060405234801561001057600080fd5b50600436106100625760003560e01c8063132e8aa71461006757806321b8929e146100ab5780637ee7f7d1146100e0578063a1bd91da146100f5578063b59589d11461011c578063e6f4c86514610126575b600080fd5b61008e7f000000000000000000000000000000000000000000000000000000000000000081565b6040516001600160a01b0390911681526020015b60405180910390f35b6100d27f000000000000000000000000000000000000000000000000000000000000000081565b6040519081526020016100a2565b6100e861013b565b6040516100a29190610e74565b61008e7f000000000000000000000000000000000000000000000000000000000000000081565b61012461014a565b005b61012e61035a565b6040516100a29190610ece565b60606101456103e8565b905090565b7f000000000000000000000000000000000000000000000000000000000000000060006101756103e8565b905060008061019d8360008151811061019057610190610f1c565b60200260200101516106e2565b90925090508080600060015b865181101561020b576101c787828151811061019057610190610f1c565b955091506101d586836107a7565b95508385106101e457836101e6565b845b93508285116101f557826101f7565b845b92508061020381610f48565b9150506101a9565b507f00000000000000000000000000000000000000000000000000000000000000006102378484610f61565b1115610256576040516314a2741560e21b815260040160405180910390fd5b6040516301c6d23f60e21b81526001600160a01b037f0000000000000000000000000000000000000000000000000000000000000000811660048301526000919089169063071b48fc90602401602060405180830381865afa1580156102c0573d6000803e3d6000fd5b505050506040513d601f19601f820116820180604052508101906102e49190610f74565b90506000811180156102f65750808311155b15610314576040516360bae0d760e11b815260040160405180910390fd5b61031d836107bd565b1561033b5760405163a3644e9f60e01b815260040160405180910390fd5b61035061034b620f424088610f8d565b61087e565b5050505050505050565b6000805461036790610fa4565b80601f016020809104026020016040519081016040528092919081815260200182805461039390610fa4565b80156103e05780601f106103b5576101008083540402835291602001916103e0565b820191906000526020600020905b8154815290600101906020018083116103c357829003601f168201915b505050505081565b60607f000000000000000000000000000000000000000000000000000000000000000067ffffffffffffffff81111561042357610423610fde565b60405190808252806020026020018201604052801561046857816020015b60408051808201909152600080825260208201528152602001906001900390816104415790505b50905060405180604001604052807f00000000000000000000000000000000000000000000000000000000000000006001600160a01b031681526020017f00000000000000000000000000000000000000000000000000000000000000001515815250816000815181106104de576104de610f1c565b602002602001018190525060017f000000000000000000000000000000000000000000000000000000000000000011156106df5760405180604001604052807f00000000000000000000000000000000000000000000000000000000000000006001600160a01b031681526020017f000000000000000000000000000000000000000000000000000000000000000015158152508160018151811061058557610585610f1c565b602002602001018190525060027f000000000000000000000000000000000000000000000000000000000000000011156106df5760405180604001604052807f00000000000000000000000000000000000000000000000000000000000000006001600160a01b031681526020017f000000000000000000000000000000000000000000000000000000000000000015158152508160028151811061062c5761062c610f1c565b602002602001018190525060037f000000000000000000000000000000000000000000000000000000000000000011156106df5760405180604001604052807f00000000000000000000000000000000000000000000000000000000000000006001600160a01b031681526020017f00000000000000000000000000000000000000000000000000000000000000001515815250816003815181106106d3576106d3610f1c565b60200260200101819052505b90565b60008060008084600001516001600160a01b031663feaf968c6040518163ffffffff1660e01b815260040160a060405180830381865afa15801561072a573d6000803e3d6000fd5b505050506040513d601f19601f8201168201806040525081019061074e9190611013565b50935050925050600082136107755760405162bfc92160e01b815260040160405180910390fd5b6000610785838760000151610cfc565b905085602001511561079d5761079a81610d93565b90505b9590945092505050565b60006107b66106df8484610dba565b9392505050565b604051636deb679960e01b81526001600160a01b037f0000000000000000000000000000000000000000000000000000000000000000811660048301526000917f000000000000000000000000000000000000000000000000000000000000000090911690636deb679990602401602060405180830381865afa158015610848573d6000803e3d6000fd5b505050506040513d601f19601f8201168201806040525081019061086c9190610f74565b6108768342610f61565b101592915050565b6040516302f55b6160e01b81526001600160a01b037f00000000000000000000000000000000000000000000000000000000000000008116600483015260009182917f000000000000000000000000000000000000000000000000000000000000000016906302f55b61906024016000604051808303816000875af115801561090b573d6000803e3d6000fd5b505050506040513d6000823e601f3d908101601f191682016040526109339190810190611123565b508151919350915080158061097e575080600114801561097e5750306001600160a01b03168360008151811061096b5761096b610f1c565b60200260200101516001600160a01b0316145b15610a2f5760405163203941d160e21b81526001600160a01b037f0000000000000000000000000000000000000000000000000000000000000000811660048301526024820186905260006044830181905260648301527f000000000000000000000000000000000000000000000000000000000000000016906380e5074490608401600060405180830381600087803b158015610a1b57600080fd5b505af1158015610350573d6000803e3d6000fd5b6002811180610aad5750806002148015610a755750306001600160a01b031683600081518110610a6157610a61610f1c565b60200260200101516001600160a01b031614155b8015610aad5750306001600160a01b031683600181518110610a9957610a99610f1c565b60200260200101516001600160a01b031614155b15610acb576040516336bce81360e11b815260040160405180910390fd5b6000808260011480610b095750306001600160a01b031685600081518110610af557610af5610f1c565b60200260200101516001600160a01b031614155b15610b4d5784600081518110610b2157610b21610f1c565b6020026020010151915083600081518110610b3e57610b3e610f1c565b60200260200101519050610b88565b84600181518110610b6057610b60610f1c565b6020026020010151915083600181518110610b7d57610b7d610f1c565b602002602001015190505b60008087831015610b9b57839150610b9e565b50825b60405163203941d160e21b81526001600160a01b037f000000000000000000000000000000000000000000000000000000000000000081166004830152602482018a9052838116604483015282811660648301527f000000000000000000000000000000000000000000000000000000000000000016906380e5074490608401600060405180830381600087803b158015610c3857600080fd5b505af1158015610c4c573d6000803e3d6000fd5b505060405163dd34ca3b60e01b81526001600160a01b037f000000000000000000000000000000000000000000000000000000000000000081166004830152600160248301527f000000000000000000000000000000000000000000000000000000000000000016925063dd34ca3b9150604401600060405180830381600087803b158015610cda57600080fd5b505af1158015610cee573d6000803e3d6000fd5b505050505050505050505050565b600080826001600160a01b031663313ce5676040518163ffffffff1660e01b8152600401602060405180830381865afa158015610d3d573d6000803e3d6000fd5b505050506040513d601f19601f82011682018060405250810190610d619190611219565b60ff169050610d89610d74826012610f61565b610d7f90600a611320565b6106df9086610f8d565b9150505b92915050565b6000610d8d826ec097ce7bc90715b34b9f100000000081610db657610db661132c565b0490565b6000808060001984860984860292508281108382030391505080600003610dee5750670de0b6b3a764000090049050610d8d565b670de0b6b3a76400008110610e2457604051635173648d60e01b8152600481018690526024810185905260440160405180910390fd5b6000670de0b6b3a764000085870962040000818503049310909103600160ee1b02919091177faccb18165bd6fe31ae1cf318dc5b51eee0e1ba569b88cd74c1773b91fac106690291505092915050565b602080825282518282018190526000919060409081850190868401855b82811015610ec157815180516001600160a01b031685528601511515868501529284019290850190600101610e91565b5091979650505050505050565b600060208083528351808285015260005b81811015610efb57858101830151858201604001528201610edf565b506000604082860101526040601f19601f8301168501019250505092915050565b634e487b7160e01b600052603260045260246000fd5b634e487b7160e01b600052601160045260246000fd5b600060018201610f5a57610f5a610f32565b5060010190565b81810381811115610d8d57610d8d610f32565b600060208284031215610f8657600080fd5b5051919050565b8082028115828204841417610d8d57610d8d610f32565b600181811c90821680610fb857607f821691505b602082108103610fd857634e487b7160e01b600052602260045260246000fd5b50919050565b634e487b7160e01b600052604160045260246000fd5b805169ffffffffffffffffffff8116811461100e57600080fd5b919050565b600080600080600060a0868803121561102b57600080fd5b61103486610ff4565b945060208601519350604086015192506060860151915061105760808701610ff4565b90509295509295909350565b604051601f8201601f1916810167ffffffffffffffff8111828210171561108c5761108c610fde565b604052919050565b600067ffffffffffffffff8211156110ae576110ae610fde565b5060051b60200190565b600082601f8301126110c957600080fd5b815160206110de6110d983611094565b611063565b82815260059290921b840181019181810190868411156110fd57600080fd5b8286015b848110156111185780518352918301918301611101565b509695505050505050565b60008060006060848603121561113857600080fd5b835167ffffffffffffffff8082111561115057600080fd5b818601915086601f83011261116457600080fd5b815160206111746110d983611094565b82815260059290921b8401810191818101908a84111561119357600080fd5b948201945b838610156111c75785516001600160a01b03811681146111b85760008081fd5b82529482019490820190611198565b918901519197509093505050808211156111e057600080fd5b6111ec878388016110b8565b9350604086015191508082111561120257600080fd5b5061120f868287016110b8565b9150509250925092565b60006020828403121561122b57600080fd5b815160ff811681146107b657600080fd5b600181815b8085111561127757816000190482111561125d5761125d610f32565b8085161561126a57918102915b93841c9390800290611241565b509250929050565b60008261128e57506001610d8d565b8161129b57506000610d8d565b81600181146112b157600281146112bb576112d7565b6001915050610d8d565b60ff8411156112cc576112cc610f32565b50506001821b610d8d565b5060208310610133831016604e8410600b84101617156112fa575081810a610d8d565b611304838361123c565b806000190482111561131857611318610f32565b029392505050565b60006107b6838361127f565b634e487b7160e01b600052601260045260246000fdfea26469706673582212206a4d2424bfe467687386602b1132336e752eb51342ed3344f5f20c5e9d765ab164736f6c63430008130033000000000000000000000000ac414205651f4a62b614b6be9e5318a182c33eb000000000000000000000000000000000000000000000000000000000000000a000000000000000000000000085ed9ac57827132b8f60938f3165bc139e1f53cd000000000000000000000000000000000000000000000000000000000000000000000000000000000000000000000000000000000000000000000000000000e00000000000000000000000000000000000000000000000000000000000000008555344542f5553440000000000000000000000000000000000000000000000000000000000000000000000000000000000000000000000000000000000000001000000000000000000000000601566fd7d319d14daee362e15c2e8c3e5d3ef920000000000000000000000000000000000000000000000000000000000000000"
        }
      ],
      "isFixedGasLimit": false
    },
    {
      "hash": "0xa55bb39c08418dff1eebe9f15aa56880d291d97efaa48befe8bbc02640ae529e",
      "transactionType": "CALL",
      "contractName": null,
      "contractAddress": "0x85ed9ac57827132b8f60938f3165bc139e1f53cd",
      "function": "addOracle(address,address)",
      "arguments": [
        "0xAc414205651F4a62B614b6BE9e5318a182C33EB0",
        "0x10D98F3777Ce2a80fA2175C5641fBB2c15c00A98"
      ],
      "transaction": {
        "from": "0x2738f38fde510743e0c589415e0598c4cee6eaa7",
        "to": "0x85ed9ac57827132b8f60938f3165bc139e1f53cd",
        "gas": "0x2bac5",
        "value": "0x0",
        "input": "0xf0ca4adb000000000000000000000000ac414205651f4a62b614b6be9e5318a182c33eb000000000000000000000000010d98f3777ce2a80fa2175c5641fbb2c15c00a98",
        "nonce": "0x124",
        "chainId": "0x279f"
      },
      "additionalContracts": [],
      "isFixedGasLimit": false
    },
    {
      "hash": "0xfb731f99016e3a35d52cbad81315d4a8473fe578d12f6306f2d057fbced8fdf5",
      "transactionType": "CALL",
      "contractName": null,
      "contractAddress": "0x85ed9ac57827132b8f60938f3165bc139e1f53cd",
      "function": "setTokenReportExpiry(address,uint256)",
      "arguments": [
        "0xAc414205651F4a62B614b6BE9e5318a182C33EB0",
        "3720"
      ],
      "transaction": {
        "from": "0x2738f38fde510743e0c589415e0598c4cee6eaa7",
        "to": "0x85ed9ac57827132b8f60938f3165bc139e1f53cd",
        "gas": "0x191b0",
        "value": "0x0",
        "input": "0xfc20935d000000000000000000000000ac414205651f4a62b614b6be9e5318a182c33eb00000000000000000000000000000000000000000000000000000000000000e88",
        "nonce": "0x125",
        "chainId": "0x279f"
      },
      "additionalContracts": [],
      "isFixedGasLimit": false
    },
    {
      "hash": "0x80ba1299e486035ed0e1743e49c45e6f7570c2c86d01e7da32bb420ef03c64cc",
      "transactionType": "CALL",
      "contractName": null,
      "contractAddress": "0x438f17f0be93db19f210e91663cf6cf4ead93b4e",
      "function": "deployRelayer(address,string,uint256,(address,bool)[])",
      "arguments": [
        "0xEc57482AA55e3ad026C315A0e4A692B776C318cA",
        "EUR/USD",
        "0",
        "[(0x904Bc5586697EF66b8B3c3189A8f059a4BD4f071, false)]"
      ],
      "transaction": {
        "from": "0x2738f38fde510743e0c589415e0598c4cee6eaa7",
        "to": "0x438f17f0be93db19f210e91663cf6cf4ead93b4e",
        "gas": "0x18c3c2",
        "value": "0x0",
        "input": "0x472a1111000000000000000000000000ec57482aa55e3ad026c315a0e4a692b776c318ca0000000000000000000000000000000000000000000000000000000000000080000000000000000000000000000000000000000000000000000000000000000000000000000000000000000000000000000000000000000000000000000000c000000000000000000000000000000000000000000000000000000000000000074555522f555344000000000000000000000000000000000000000000000000000000000000000000000000000000000000000000000000000000000000000001000000000000000000000000904bc5586697ef66b8b3c3189a8f059a4bd4f0710000000000000000000000000000000000000000000000000000000000000000",
        "nonce": "0x126",
        "chainId": "0x279f"
      },
      "additionalContracts": [
        {
          "transactionType": "CREATE2",
          "contractName": "ChainlinkRelayerV1",
          "address": "0x8220032e2d3541a9d3f88b2c7247301027f2bc27",
          "initCode": "0x6102006040523480156200001257600080fd5b5060405162001be538038062001be58339810160408190526200003591620004c7565b6001600160a01b03808616608052831660a0526101e082905260006200005c858262000664565b5080516101c08190526000036200008657604051635a0a2c5160e11b815260040160405180910390fd5b60046101c0511115620000ac57604051633be17a5360e21b815260040160405180910390fd5b60016101c051118015620000be575081155b80620000d857506101c0516001148015620000d857508115155b15620000f657604051626a65eb60e01b815260040160405180910390fd5b60408051600480825260a08201909252600091816020015b60408051808201909152600080825260208201528152602001906001900390816200010e57905050905060005b8251811015620001ec5760006001600160a01b031683828151811062000165576200016562000730565b6020026020010151600001516001600160a01b031603620001995760405163029a68ed60e41b815260040160405180910390fd5b828181518110620001ae57620001ae62000730565b6020026020010151828281518110620001cb57620001cb62000730565b60200260200101819052508080620001e39062000746565b9150506200013b565b508060008151811062000203576200020362000730565b6020908102919091010151516001600160a01b031660c05280518190600190811062000233576200023362000730565b6020908102919091010151516001600160a01b031660e05280518190600290811062000263576200026362000730565b6020908102919091010151516001600160a01b03166101005280518190600390811062000294576200029462000730565b6020908102919091010151516001600160a01b03166101205280518190600090620002c357620002c362000730565b60200260200101516020015115156101408115158152505080600181518110620002f157620002f162000730565b602002602001015160200151151561016081151581525050806002815181106200031f576200031f62000730565b602002602001015160200151151561018081151581525050806003815181106200034d576200034d62000730565b602090810291909101810151015115156101a052506200076e945050505050565b80516001600160a01b03811681146200038657600080fd5b919050565b634e487b7160e01b600052604160045260246000fd5b604080519081016001600160401b0381118282101715620003c657620003c66200038b565b60405290565b604051601f8201601f191681016001600160401b0381118282101715620003f757620003f76200038b565b604052919050565b600082601f8301126200041157600080fd5b815160206001600160401b038211156200042f576200042f6200038b565b6200043f818360051b01620003cc565b82815260069290921b840181019181810190868411156200045f57600080fd5b8286015b84811015620004bc57604081890312156200047e5760008081fd5b62000488620003a1565b62000493826200036e565b8152848201518015158114620004a95760008081fd5b8186015283529183019160400162000463565b509695505050505050565b600080600080600060a08688031215620004e057600080fd5b620004eb866200036e565b602087810151919650906001600160401b03808211156200050b57600080fd5b818901915089601f8301126200052057600080fd5b8151818111156200053557620005356200038b565b62000549601f8201601f19168501620003cc565b8181528b858386010111156200055e57600080fd5b60005b828110156200057e57848101860151828201870152850162000561565b50600085838301015280985050506200059a60408a016200036e565b9550606089015194506080890151925080831115620005b857600080fd5b5050620005c888828901620003ff565b9150509295509295909350565b600181811c90821680620005ea57607f821691505b6020821081036200060b57634e487b7160e01b600052602260045260246000fd5b50919050565b601f8211156200065f57600081815260208120601f850160051c810160208610156200063a5750805b601f850160051c820191505b818110156200065b5782815560010162000646565b5050505b505050565b81516001600160401b038111156200068057620006806200038b565b6200069881620006918454620005d5565b8462000611565b602080601f831160018114620006d05760008415620006b75750858301515b600019600386901b1c1916600185901b1785556200065b565b600085815260208120601f198616915b828110156200070157888601518255948401946001909101908401620006e0565b5085821015620007205787850151600019600388901b60f8161c191681555b5050505050600190811b01905550565b634e487b7160e01b600052603260045260246000fd5b6000600182016200076757634e487b7160e01b600052601160045260246000fd5b5060010190565b60805160a05160c05160e05161010051610120516101405161016051610180516101a0516101c0516101e0516113786200086d6000396000818160b0015261020e0152600081816103ec015281816104ed01528181610594015261063b0152600061069c015260006105f50152600061054e015260006104a70152600061066d015260006105c60152600061051f01526000610478015260008181606c0152818161014c015281816107ff015281816108c2015281816109d701528181610bf40152610c9401526000818160fa0152818161026d015281816107d4015281816108950152818161099a01528181610bb50152610c6501526113786000f3fe608060405234801561001057600080fd5b50600436106100625760003560e01c8063132e8aa71461006757806321b8929e146100ab5780637ee7f7d1146100e0578063a1bd91da146100f5578063b59589d11461011c578063e6f4c86514610126575b600080fd5b61008e7f000000000000000000000000000000000000000000000000000000000000000081565b6040516001600160a01b0390911681526020015b60405180910390f35b6100d27f000000000000000000000000000000000000000000000000000000000000000081565b6040519081526020016100a2565b6100e861013b565b6040516100a29190610e74565b61008e7f000000000000000000000000000000000000000000000000000000000000000081565b61012461014a565b005b61012e61035a565b6040516100a29190610ece565b60606101456103e8565b905090565b7f000000000000000000000000000000000000000000000000000000000000000060006101756103e8565b905060008061019d8360008151811061019057610190610f1c565b60200260200101516106e2565b90925090508080600060015b865181101561020b576101c787828151811061019057610190610f1c565b955091506101d586836107a7565b95508385106101e457836101e6565b845b93508285116101f557826101f7565b845b92508061020381610f48565b9150506101a9565b507f00000000000000000000000000000000000000000000000000000000000000006102378484610f61565b1115610256576040516314a2741560e21b815260040160405180910390fd5b6040516301c6d23f60e21b81526001600160a01b037f0000000000000000000000000000000000000000000000000000000000000000811660048301526000919089169063071b48fc90602401602060405180830381865afa1580156102c0573d6000803e3d6000fd5b505050506040513d601f19601f820116820180604052508101906102e49190610f74565b90506000811180156102f65750808311155b15610314576040516360bae0d760e11b815260040160405180910390fd5b61031d836107bd565b1561033b5760405163a3644e9f60e01b815260040160405180910390fd5b61035061034b620f424088610f8d565b61087e565b5050505050505050565b6000805461036790610fa4565b80601f016020809104026020016040519081016040528092919081815260200182805461039390610fa4565b80156103e05780601f106103b5576101008083540402835291602001916103e0565b820191906000526020600020905b8154815290600101906020018083116103c357829003601f168201915b505050505081565b60607f000000000000000000000000000000000000000000000000000000000000000067ffffffffffffffff81111561042357610423610fde565b60405190808252806020026020018201604052801561046857816020015b60408051808201909152600080825260208201528152602001906001900390816104415790505b50905060405180604001604052807f00000000000000000000000000000000000000000000000000000000000000006001600160a01b031681526020017f00000000000000000000000000000000000000000000000000000000000000001515815250816000815181106104de576104de610f1c565b602002602001018190525060017f000000000000000000000000000000000000000000000000000000000000000011156106df5760405180604001604052807f00000000000000000000000000000000000000000000000000000000000000006001600160a01b031681526020017f000000000000000000000000000000000000000000000000000000000000000015158152508160018151811061058557610585610f1c565b602002602001018190525060027f000000000000000000000000000000000000000000000000000000000000000011156106df5760405180604001604052807f00000000000000000000000000000000000000000000000000000000000000006001600160a01b031681526020017f000000000000000000000000000000000000000000000000000000000000000015158152508160028151811061062c5761062c610f1c565b602002602001018190525060037f000000000000000000000000000000000000000000000000000000000000000011156106df5760405180604001604052807f00000000000000000000000000000000000000000000000000000000000000006001600160a01b031681526020017f00000000000000000000000000000000000000000000000000000000000000001515815250816003815181106106d3576106d3610f1c565b60200260200101819052505b90565b60008060008084600001516001600160a01b031663feaf968c6040518163ffffffff1660e01b815260040160a060405180830381865afa15801561072a573d6000803e3d6000fd5b505050506040513d601f19601f8201168201806040525081019061074e9190611013565b50935050925050600082136107755760405162bfc92160e01b815260040160405180910390fd5b6000610785838760000151610cfc565b905085602001511561079d5761079a81610d93565b90505b9590945092505050565b60006107b66106df8484610dba565b9392505050565b604051636deb679960e01b81526001600160a01b037f0000000000000000000000000000000000000000000000000000000000000000811660048301526000917f000000000000000000000000000000000000000000000000000000000000000090911690636deb679990602401602060405180830381865afa158015610848573d6000803e3d6000fd5b505050506040513d601f19601f8201168201806040525081019061086c9190610f74565b6108768342610f61565b101592915050565b6040516302f55b6160e01b81526001600160a01b037f00000000000000000000000000000000000000000000000000000000000000008116600483015260009182917f000000000000000000000000000000000000000000000000000000000000000016906302f55b61906024016000604051808303816000875af115801561090b573d6000803e3d6000fd5b505050506040513d6000823e601f3d908101601f191682016040526109339190810190611123565b508151919350915080158061097e575080600114801561097e5750306001600160a01b03168360008151811061096b5761096b610f1c565b60200260200101516001600160a01b0316145b15610a2f5760405163203941d160e21b81526001600160a01b037f0000000000000000000000000000000000000000000000000000000000000000811660048301526024820186905260006044830181905260648301527f000000000000000000000000000000000000000000000000000000000000000016906380e5074490608401600060405180830381600087803b158015610a1b57600080fd5b505af1158015610350573d6000803e3d6000fd5b6002811180610aad5750806002148015610a755750306001600160a01b031683600081518110610a6157610a61610f1c565b60200260200101516001600160a01b031614155b8015610aad5750306001600160a01b031683600181518110610a9957610a99610f1c565b60200260200101516001600160a01b031614155b15610acb576040516336bce81360e11b815260040160405180910390fd5b6000808260011480610b095750306001600160a01b031685600081518110610af557610af5610f1c565b60200260200101516001600160a01b031614155b15610b4d5784600081518110610b2157610b21610f1c565b6020026020010151915083600081518110610b3e57610b3e610f1c565b60200260200101519050610b88565b84600181518110610b6057610b60610f1c565b6020026020010151915083600181518110610b7d57610b7d610f1c565b602002602001015190505b60008087831015610b9b57839150610b9e565b50825b60405163203941d160e21b81526001600160a01b037f000000000000000000000000000000000000000000000000000000000000000081166004830152602482018a9052838116604483015282811660648301527f000000000000000000000000000000000000000000000000000000000000000016906380e5074490608401600060405180830381600087803b158015610c3857600080fd5b505af1158015610c4c573d6000803e3d6000fd5b505060405163dd34ca3b60e01b81526001600160a01b037f000000000000000000000000000000000000000000000000000000000000000081166004830152600160248301527f000000000000000000000000000000000000000000000000000000000000000016925063dd34ca3b9150604401600060405180830381600087803b158015610cda57600080fd5b505af1158015610cee573d6000803e3d6000fd5b505050505050505050505050565b600080826001600160a01b031663313ce5676040518163ffffffff1660e01b8152600401602060405180830381865afa158015610d3d573d6000803e3d6000fd5b505050506040513d601f19601f82011682018060405250810190610d619190611219565b60ff169050610d89610d74826012610f61565b610d7f90600a611320565b6106df9086610f8d565b9150505b92915050565b6000610d8d826ec097ce7bc90715b34b9f100000000081610db657610db661132c565b0490565b6000808060001984860984860292508281108382030391505080600003610dee5750670de0b6b3a764000090049050610d8d565b670de0b6b3a76400008110610e2457604051635173648d60e01b8152600481018690526024810185905260440160405180910390fd5b6000670de0b6b3a764000085870962040000818503049310909103600160ee1b02919091177faccb18165bd6fe31ae1cf318dc5b51eee0e1ba569b88cd74c1773b91fac106690291505092915050565b602080825282518282018190526000919060409081850190868401855b82811015610ec157815180516001600160a01b031685528601511515868501529284019290850190600101610e91565b5091979650505050505050565b600060208083528351808285015260005b81811015610efb57858101830151858201604001528201610edf565b506000604082860101526040601f19601f8301168501019250505092915050565b634e487b7160e01b600052603260045260246000fd5b634e487b7160e01b600052601160045260246000fd5b600060018201610f5a57610f5a610f32565b5060010190565b81810381811115610d8d57610d8d610f32565b600060208284031215610f8657600080fd5b5051919050565b8082028115828204841417610d8d57610d8d610f32565b600181811c90821680610fb857607f821691505b602082108103610fd857634e487b7160e01b600052602260045260246000fd5b50919050565b634e487b7160e01b600052604160045260246000fd5b805169ffffffffffffffffffff8116811461100e57600080fd5b919050565b600080600080600060a0868803121561102b57600080fd5b61103486610ff4565b945060208601519350604086015192506060860151915061105760808701610ff4565b90509295509295909350565b604051601f8201601f1916810167ffffffffffffffff8111828210171561108c5761108c610fde565b604052919050565b600067ffffffffffffffff8211156110ae576110ae610fde565b5060051b60200190565b600082601f8301126110c957600080fd5b815160206110de6110d983611094565b611063565b82815260059290921b840181019181810190868411156110fd57600080fd5b8286015b848110156111185780518352918301918301611101565b509695505050505050565b60008060006060848603121561113857600080fd5b835167ffffffffffffffff8082111561115057600080fd5b818601915086601f83011261116457600080fd5b815160206111746110d983611094565b82815260059290921b8401810191818101908a84111561119357600080fd5b948201945b838610156111c75785516001600160a01b03811681146111b85760008081fd5b82529482019490820190611198565b918901519197509093505050808211156111e057600080fd5b6111ec878388016110b8565b9350604086015191508082111561120257600080fd5b5061120f868287016110b8565b9150509250925092565b60006020828403121561122b57600080fd5b815160ff811681146107b657600080fd5b600181815b8085111561127757816000190482111561125d5761125d610f32565b8085161561126a57918102915b93841c9390800290611241565b509250929050565b60008261128e57506001610d8d565b8161129b57506000610d8d565b81600181146112b157600281146112bb576112d7565b6001915050610d8d565b60ff8411156112cc576112cc610f32565b50506001821b610d8d565b5060208310610133831016604e8410600b84101617156112fa575081810a610d8d565b611304838361123c565b806000190482111561131857611318610f32565b029392505050565b60006107b6838361127f565b634e487b7160e01b600052601260045260246000fdfea26469706673582212206a4d2424bfe467687386602b1132336e752eb51342ed3344f5f20c5e9d765ab164736f6c63430008130033000000000000000000000000ec57482aa55e3ad026c315a0e4a692b776c318ca00000000000000000000000000000000000000000000000000000000000000a000000000000000000000000085ed9ac57827132b8f60938f3165bc139e1f53cd000000000000000000000000000000000000000000000000000000000000000000000000000000000000000000000000000000000000000000000000000000e000000000000000000000000000000000000000000000000000000000000000074555522f555344000000000000000000000000000000000000000000000000000000000000000000000000000000000000000000000000000000000000000001000000000000000000000000904bc5586697ef66b8b3c3189a8f059a4bd4f0710000000000000000000000000000000000000000000000000000000000000000"
        }
      ],
      "isFixedGasLimit": false
    },
    {
      "hash": "0x149bc997617427ec48eaab8090d21eca8fa4f665789220c4c7a66d25807f4384",
      "transactionType": "CALL",
      "contractName": null,
      "contractAddress": "0x85ed9ac57827132b8f60938f3165bc139e1f53cd",
      "function": "addOracle(address,address)",
      "arguments": [
        "0xEc57482AA55e3ad026C315A0e4A692B776C318cA",
        "0x8220032E2d3541a9D3f88B2C7247301027f2Bc27"
      ],
      "transaction": {
        "from": "0x2738f38fde510743e0c589415e0598c4cee6eaa7",
        "to": "0x85ed9ac57827132b8f60938f3165bc139e1f53cd",
        "gas": "0x2bac5",
        "value": "0x0",
        "input": "0xf0ca4adb000000000000000000000000ec57482aa55e3ad026c315a0e4a692b776c318ca0000000000000000000000008220032e2d3541a9d3f88b2c7247301027f2bc27",
        "nonce": "0x127",
        "chainId": "0x279f"
      },
      "additionalContracts": [],
      "isFixedGasLimit": false
    },
    {
      "hash": "0x39d1b9467a54ad39a323361aab42a5de00c59a27f27b06dc99e4c4bc4954421a",
      "transactionType": "CALL",
      "contractName": null,
      "contractAddress": "0x88869e30609d2c0e4032463d713328c6f541878e",
      "function": "addRateFeed(address)",
      "arguments": [
        "0xAc414205651F4a62B614b6BE9e5318a182C33EB0"
      ],
      "transaction": {
        "from": "0x2738f38fde510743e0c589415e0598c4cee6eaa7",
        "to": "0x88869e30609d2c0e4032463d713328c6f541878e",
        "gas": "0x1e6a1",
        "value": "0x0",
        "input": "0x09833c3e000000000000000000000000ac414205651f4a62b614b6be9e5318a182c33eb0",
        "nonce": "0x128",
        "chainId": "0x279f"
      },
      "additionalContracts": [],
      "isFixedGasLimit": false
    },
    {
      "hash": "0x7010112588589e25b6c1f7af0a6e1f2d89d0e3722c29870a863b0bf915c837a1",
      "transactionType": "CALL",
      "contractName": null,
      "contractAddress": "0x88869e30609d2c0e4032463d713328c6f541878e",
      "function": "addRateFeed(address)",
      "arguments": [
        "0xEc57482AA55e3ad026C315A0e4A692B776C318cA"
      ],
      "transaction": {
        "from": "0x2738f38fde510743e0c589415e0598c4cee6eaa7",
        "to": "0x88869e30609d2c0e4032463d713328c6f541878e",
        "gas": "0x1e6a1",
        "value": "0x0",
        "input": "0x09833c3e000000000000000000000000ec57482aa55e3ad026c315a0e4a692b776c318ca",
        "nonce": "0x129",
        "chainId": "0x279f"
      },
      "additionalContracts": [],
      "isFixedGasLimit": false
    },
    {
      "hash": "0xf2fe4ed7f2666be7b8060bae401998c5f56ab88be9fb64035de156e790839720",
      "transactionType": "CALL",
      "contractName": null,
      "contractAddress": "0x88869e30609d2c0e4032463d713328c6f541878e",
      "function": "toggleBreaker(address,address,bool)",
      "arguments": [
        "0xbbD0D093F5F11D16D4456FBd6229c9a3b70B8Aaf",
        "0xAc414205651F4a62B614b6BE9e5318a182C33EB0",
        "true"
      ],
      "transaction": {
        "from": "0x2738f38fde510743e0c589415e0598c4cee6eaa7",
        "to": "0x88869e30609d2c0e4032463d713328c6f541878e",
        "gas": "0x21047",
        "value": "0x0",
        "input": "0x0c607146000000000000000000000000bbd0d093f5f11d16d4456fbd6229c9a3b70b8aaf000000000000000000000000ac414205651f4a62b614b6be9e5318a182c33eb00000000000000000000000000000000000000000000000000000000000000001",
        "nonce": "0x12a",
        "chainId": "0x279f"
      },
      "additionalContracts": [],
      "isFixedGasLimit": false
    },
    {
      "hash": "0x50fa50003ff86b4cacb1f5ee491beb503012728150a362041f13109b567fcb3e",
      "transactionType": "CALL",
      "contractName": null,
      "contractAddress": "0xbbd0d093f5f11d16d4456fbd6229c9a3b70b8aaf",
      "function": "setRateChangeThresholds(address[],uint256[])",
      "arguments": [
        "[0xAc414205651F4a62B614b6BE9e5318a182C33EB0]",
        "[1500000000000000000000]"
      ],
      "transaction": {
        "from": "0x2738f38fde510743e0c589415e0598c4cee6eaa7",
        "to": "0xbbd0d093f5f11d16d4456fbd6229c9a3b70b8aaf",
        "gas": "0x13da5",
        "value": "0x0",
        "input": "0x020323dd000000000000000000000000000000000000000000000000000000000000004000000000000000000000000000000000000000000000000000000000000000800000000000000000000000000000000000000000000000000000000000000001000000000000000000000000ac414205651f4a62b614b6be9e5318a182c33eb0000000000000000000000000000000000000000000000000000000000000000100000000000000000000000000000000000000000000005150ae84a8cdf00000",
        "nonce": "0x12b",
        "chainId": "0x279f"
      },
      "additionalContracts": [],
      "isFixedGasLimit": false
    },
    {
      "hash": "0x0d7f2e4fa28e04ec562f81ba7110437bc0ab1dbd64927930395b2543c5e9d289",
      "transactionType": "CALL",
      "contractName": null,
      "contractAddress": "0xbbd0d093f5f11d16d4456fbd6229c9a3b70b8aaf",
      "function": "setCooldownTimes(address[],uint256[])",
      "arguments": [
        "[0xAc414205651F4a62B614b6BE9e5318a182C33EB0]",
        "[1]"
      ],
      "transaction": {
        "from": "0x2738f38fde510743e0c589415e0598c4cee6eaa7",
        "to": "0xbbd0d093f5f11d16d4456fbd6229c9a3b70b8aaf",
        "gas": "0x13b47",
        "value": "0x0",
        "input": "0x6cac543a000000000000000000000000000000000000000000000000000000000000004000000000000000000000000000000000000000000000000000000000000000800000000000000000000000000000000000000000000000000000000000000001000000000000000000000000ac414205651f4a62b614b6be9e5318a182c33eb000000000000000000000000000000000000000000000000000000000000000010000000000000000000000000000000000000000000000000000000000000001",
        "nonce": "0x12c",
        "chainId": "0x279f"
      },
      "additionalContracts": [],
      "isFixedGasLimit": false
    },
    {
      "hash": "0x8373fa755ddc41c16d718758ef0cbfe7af8f182fcf5a385db0276f15c0ed43c2",
      "transactionType": "CALL",
      "contractName": null,
      "contractAddress": "0xbbd0d093f5f11d16d4456fbd6229c9a3b70b8aaf",
      "function": "setReferenceValues(address[],uint256[])",
      "arguments": [
        "[0xAc414205651F4a62B614b6BE9e5318a182C33EB0]",
        "[1000000000000000000000000]"
      ],
      "transaction": {
        "from": "0x2738f38fde510743e0c589415e0598c4cee6eaa7",
        "to": "0xbbd0d093f5f11d16d4456fbd6229c9a3b70b8aaf",
        "gas": "0x13a45",
        "value": "0x0",
        "input": "0xe829902e000000000000000000000000000000000000000000000000000000000000004000000000000000000000000000000000000000000000000000000000000000800000000000000000000000000000000000000000000000000000000000000001000000000000000000000000ac414205651f4a62b614b6be9e5318a182c33eb0000000000000000000000000000000000000000000000000000000000000000100000000000000000000000000000000000000000000d3c21bcecceda1000000",
        "nonce": "0x12d",
        "chainId": "0x279f"
      },
      "additionalContracts": [],
      "isFixedGasLimit": false
    },
    {
      "hash": "0x78a6aa7c2a5364dea6a6b1973128d3ec36190a19364116568973cd5c6425b7f6",
      "transactionType": "CALL",
      "contractName": null,
      "contractAddress": "0x88869e30609d2c0e4032463d713328c6f541878e",
      "function": "toggleBreaker(address,address,bool)",
      "arguments": [
        "0xf923C884F319b8866F67C5719A80E5cB4D0FAF2c",
        "0xEc57482AA55e3ad026C315A0e4A692B776C318cA",
        "true"
      ],
      "transaction": {
        "from": "0x2738f38fde510743e0c589415e0598c4cee6eaa7",
        "to": "0x88869e30609d2c0e4032463d713328c6f541878e",
        "gas": "0x23f82",
        "value": "0x0",
        "input": "0x0c607146000000000000000000000000f923c884f319b8866f67c5719a80e5cb4d0faf2c000000000000000000000000ec57482aa55e3ad026c315a0e4a692b776c318ca0000000000000000000000000000000000000000000000000000000000000001",
        "nonce": "0x12e",
        "chainId": "0x279f"
      },
      "additionalContracts": [],
      "isFixedGasLimit": false
    },
    {
      "hash": "0x04ecf2e0a33577be9abb7252cde9b1868be649c094978927e9c7f928e2c9c8ab",
      "transactionType": "CALL",
      "contractName": null,
      "contractAddress": "0xf923c884f319b8866f67c5719a80e5cb4d0faf2c",
      "function": "setRateChangeThresholds(address[],uint256[])",
      "arguments": [
        "[0xEc57482AA55e3ad026C315A0e4A692B776C318cA]",
        "[40000000000000000000000]"
      ],
      "transaction": {
        "from": "0x2738f38fde510743e0c589415e0598c4cee6eaa7",
        "to": "0xf923c884f319b8866f67c5719a80e5cb4d0faf2c",
        "gas": "0x13da5",
        "value": "0x0",
        "input": "0x020323dd000000000000000000000000000000000000000000000000000000000000004000000000000000000000000000000000000000000000000000000000000000800000000000000000000000000000000000000000000000000000000000000001000000000000000000000000ec57482aa55e3ad026c315a0e4a692b776c318ca0000000000000000000000000000000000000000000000000000000000000001000000000000000000000000000000000000000000000878678326eac9000000",
        "nonce": "0x12f",
        "chainId": "0x279f"
      },
      "additionalContracts": [],
      "isFixedGasLimit": false
    },
    {
      "hash": "0x82ef3e8f28ec1eb45ee425177175bd1b0de894e016838ed1e44411cf9ced3b82",
      "transactionType": "CALL",
      "contractName": null,
      "contractAddress": "0xf923c884f319b8866f67c5719a80e5cb4d0faf2c",
      "function": "setCooldownTime(address[],uint256[])",
      "arguments": [
        "[0xEc57482AA55e3ad026C315A0e4A692B776C318cA]",
        "[900]"
      ],
      "transaction": {
        "from": "0x2738f38fde510743e0c589415e0598c4cee6eaa7",
        "to": "0xf923c884f319b8866f67c5719a80e5cb4d0faf2c",
        "gas": "0x13bad",
        "value": "0x0",
        "input": "0x4e510e88000000000000000000000000000000000000000000000000000000000000004000000000000000000000000000000000000000000000000000000000000000800000000000000000000000000000000000000000000000000000000000000001000000000000000000000000ec57482aa55e3ad026c315a0e4a692b776c318ca00000000000000000000000000000000000000000000000000000000000000010000000000000000000000000000000000000000000000000000000000000384",
        "nonce": "0x130",
        "chainId": "0x279f"
      },
      "additionalContracts": [],
      "isFixedGasLimit": false
    },
    {
      "hash": "0xd4a037cd7a0996d1c13d5ca8ab6c1bcfd115ccbace1e283552fa31e468363eec",
      "transactionType": "CALL",
      "contractName": null,
      "contractAddress": "0xf923c884f319b8866f67c5719a80e5cb4d0faf2c",
      "function": "setSmoothingFactor(address,uint256)",
      "arguments": [
        "0xEc57482AA55e3ad026C315A0e4A692B776C318cA",
        "5000000000000000000000"
      ],
      "transaction": {
        "from": "0x2738f38fde510743e0c589415e0598c4cee6eaa7",
        "to": "0xf923c884f319b8866f67c5719a80e5cb4d0faf2c",
        "gas": "0x13548",
        "value": "0x0",
        "input": "0x3151e220000000000000000000000000ec57482aa55e3ad026c315a0e4a692b776c318ca00000000000000000000000000000000000000000000010f0cf064dd59200000",
        "nonce": "0x131",
        "chainId": "0x279f"
      },
      "additionalContracts": [],
      "isFixedGasLimit": false
    },
    {
      "hash": "0x5e341fcd402fed633fb48ead30ee5006a3651d49332a1c5248ef46cc59fa9ae0",
      "transactionType": "CALL",
      "contractName": null,
      "contractAddress": "0x88869e30609d2c0e4032463d713328c6f541878e",
      "function": "toggleBreaker(address,address,bool)",
      "arguments": [
        "0x99C968Bf5972C11442654b989B7eAD0237cA654B",
        "0xEc57482AA55e3ad026C315A0e4A692B776C318cA",
        "true"
      ],
      "transaction": {
        "from": "0x2738f38fde510743e0c589415e0598c4cee6eaa7",
        "to": "0x88869e30609d2c0e4032463d713328c6f541878e",
        "gas": "0x26295",
        "value": "0x0",
        "input": "0x0c60714600000000000000000000000099c968bf5972c11442654b989b7ead0237ca654b000000000000000000000000ec57482aa55e3ad026c315a0e4a692b776c318ca0000000000000000000000000000000000000000000000000000000000000001",
        "nonce": "0x132",
        "chainId": "0x279f"
      },
      "additionalContracts": [],
      "isFixedGasLimit": false
    }
  ],
  "receipts": [
    {
      "type": "0x2",
      "status": "0x1",
      "cumulativeGasUsed": "0x299fa4",
      "logs": [
        {
          "address": "0x85ed9ac57827132b8f60938f3165bc139e1f53cd",
          "topics": [
            "0xf8324c8592dfd9991ee3e717351afe0a964605257959e3d99b0eb3d45bff9422"
          ],
          "data": "0x00000000000000000000000081a313ff894bfc6093d33b5514e34d7faa41b7ef0000000000000000000000000000000000000000000000000000000000000e88",
          "blockHash": "0x13b97718e9e2f106367e3981570725c6304bac84a3fdbe6662fa8441931c0d8e",
          "blockNumber": "0x14219e8",
          "blockTimestamp": "0x69c3cfa2",
          "transactionHash": "0xddac9ae006075966cfbab66745be85224c4981bc3666cb7fd4f2b7419fae1c15",
          "transactionIndex": "0x4",
          "logIndex": "0x1b",
          "removed": false
        }
      ],
      "logsBloom": "0x02000000000000000000000000000000000000000000000000000020000000000000000000000000000000000000000000000000000000000000000000000000000000000000000000000000000100000000000000000000000000000000000000000000000000000000000000000000000000000000000000000000000000000000000000000000000000000000000000000000000000000000000020000000000000000000000000000000000000000000000000000000000000000000000000000000000000004000000000000000000000000000000000000000000000000000010000000000000000000000000000000000000000000000000000000000",
      "transactionHash": "0xddac9ae006075966cfbab66745be85224c4981bc3666cb7fd4f2b7419fae1c15",
      "transactionIndex": "0x4",
      "blockHash": "0x13b97718e9e2f106367e3981570725c6304bac84a3fdbe6662fa8441931c0d8e",
      "blockNumber": "0x14219e8",
      "gasUsed": "0x191b0",
      "effectiveGasPrice": "0x1a3d718700",
      "from": "0x2738f38fde510743e0c589415e0598c4cee6eaa7",
      "to": "0x85ed9ac57827132b8f60938f3165bc139e1f53cd",
      "contractAddress": null
    },
    {
      "type": "0x2",
      "status": "0x1",
      "cumulativeGasUsed": "0x175015",
      "logs": [
        {
          "address": "0x85ed9ac57827132b8f60938f3165bc139e1f53cd",
          "topics": [
            "0xf8324c8592dfd9991ee3e717351afe0a964605257959e3d99b0eb3d45bff9422"
          ],
          "data": "0x000000000000000000000000f47172ce00522cc7db02109634a92ce866a15fcc0000000000000000000000000000000000000000000000000000000000000e88",
          "blockHash": "0xf028cba7926b0abc2ee0bff04042f29a10a51224e2b931e43a2362e93cadd4ed",
          "blockNumber": "0x14219ed",
          "blockTimestamp": "0x69c3cfa4",
          "transactionHash": "0xba0fc37472d438c9e253abc2790da0d272142c053eb361151d35395707027a57",
          "transactionIndex": "0x3",
          "logIndex": "0x10",
          "removed": false
        }
      ],
      "logsBloom": "0x02000000000000000000000000000000000000000000000000000020000000000000000000000000000000000000000000000000000000000000000000000000000000000000000000000000000100000000000000000000000000000000000000000000000000000000000000000000000000000000000000000000000000000000000000000000000000000000000000000000000000000000000020000000000000000000000000000000000000000000000000000000000000000000000000000000000000004000000000000000000000000000000000000000000000000000010000000000000000000000000000000000000000000000000000000000",
      "transactionHash": "0xba0fc37472d438c9e253abc2790da0d272142c053eb361151d35395707027a57",
      "transactionIndex": "0x3",
      "blockHash": "0xf028cba7926b0abc2ee0bff04042f29a10a51224e2b931e43a2362e93cadd4ed",
      "blockNumber": "0x14219ed",
      "gasUsed": "0x191a1",
      "effectiveGasPrice": "0x1a3d718700",
      "from": "0x2738f38fde510743e0c589415e0598c4cee6eaa7",
      "to": "0x85ed9ac57827132b8f60938f3165bc139e1f53cd",
      "contractAddress": null
    },
    {
      "type": "0x2",
      "status": "0x1",
      "cumulativeGasUsed": "0x2e82b5",
      "logs": [
        {
          "address": "0x438f17f0be93db19f210e91663cf6cf4ead93b4e",
          "topics": [
            "0xa293edbc5018bd43c95bab416b1cb297eb58222c3471c76b3b87051f720acb05",
            "0x00000000000000000000000010d98f3777ce2a80fa2175c5641fbb2c15c00a98",
            "0x000000000000000000000000ac414205651f4a62b614b6be9e5318a182c33eb0"
          ],
          "data": "0x000000000000000000000000000000000000000000000000000000000000004000000000000000000000000000000000000000000000000000000000000000800000000000000000000000000000000000000000000000000000000000000008555344542f5553440000000000000000000000000000000000000000000000000000000000000000000000000000000000000000000000000000000000000001000000000000000000000000601566fd7d319d14daee362e15c2e8c3e5d3ef920000000000000000000000000000000000000000000000000000000000000000",
          "blockHash": "0x7da8f112e8aef3af62b5d86be3043452b1bedd14fb82535162e99c5bc2ff167f",
          "blockNumber": "0x14219f2",
          "blockTimestamp": "0x69c3cfa6",
          "transactionHash": "0xa7f1c7b8cf3d3ac706e63773b7cc90c42f06e0217c07ca1da707fe3bfe71dbab",
          "transactionIndex": "0x3",
          "logIndex": "0x10",
          "removed": false
        }
      ],
      "logsBloom": "0x00080000000000000000000000000000000000000000000000000000000000000000000000000000000000000000000000000020000000000000000008000000000000000000000000000000000000000000000000000000400000000000000000000000000000000000400000000000000000000000001000000000000000010000000000000000000000000000000000000000000000000000000000000000000010000000000000000000000000008000000000000000000000000000000000100000000000000000000000000000000000000000000000000000000000000000000000000000000020000000000000000000008000000000000000000000",
      "transactionHash": "0xa7f1c7b8cf3d3ac706e63773b7cc90c42f06e0217c07ca1da707fe3bfe71dbab",
      "transactionIndex": "0x3",
      "blockHash": "0x7da8f112e8aef3af62b5d86be3043452b1bedd14fb82535162e99c5bc2ff167f",
      "blockNumber": "0x14219f2",
      "gasUsed": "0x18c3d3",
      "effectiveGasPrice": "0x1a3d718700",
      "from": "0x2738f38fde510743e0c589415e0598c4cee6eaa7",
      "to": "0x438f17f0be93db19f210e91663cf6cf4ead93b4e",
      "contractAddress": null
    },
    {
      "type": "0x2",
      "status": "0x1",
      "cumulativeGasUsed": "0x3d1975",
      "logs": [
        {
          "address": "0x85ed9ac57827132b8f60938f3165bc139e1f53cd",
          "topics": [
            "0x828d2be040dede7698182e08dfa8bfbd663c879aee772509c4a2bd961d0ed43f",
            "0x000000000000000000000000ac414205651f4a62b614b6be9e5318a182c33eb0",
            "0x00000000000000000000000010d98f3777ce2a80fa2175c5641fbb2c15c00a98"
          ],
          "data": "0x",
          "blockHash": "0xa420dcfa7be0ccfb8d62519aa893aca75a3160de7ab463ba3977e6fa47cbca15",
          "blockNumber": "0x14219f6",
          "blockTimestamp": "0x69c3cfa7",
          "transactionHash": "0xa55bb39c08418dff1eebe9f15aa56880d291d97efaa48befe8bbc02640ae529e",
          "transactionIndex": "0x5",
          "logIndex": "0x26",
          "removed": false
        }
      ],
      "logsBloom": "0x00080000000000000000000000000000000000000000000000000020000000000000000000000000000000000000000000000000000000000000000008000000000000000000000000004000000100000000000000000000000000000000000000000000001000000000400000000000000000000000001000000000000000000000000000000000000000000000000000000000000040000000000000000000000000000000000000000000000000000000000000000000000000000000000000000000000000000000000000000000000000000000000000000000000000000000010000000000000020000000000000000000008000000000000000000000",
      "transactionHash": "0xa55bb39c08418dff1eebe9f15aa56880d291d97efaa48befe8bbc02640ae529e",
      "transactionIndex": "0x5",
      "blockHash": "0xa420dcfa7be0ccfb8d62519aa893aca75a3160de7ab463ba3977e6fa47cbca15",
      "blockNumber": "0x14219f6",
      "gasUsed": "0x2bac5",
      "effectiveGasPrice": "0x1a3d718700",
      "from": "0x2738f38fde510743e0c589415e0598c4cee6eaa7",
      "to": "0x85ed9ac57827132b8f60938f3165bc139e1f53cd",
      "contractAddress": null
    },
    {
      "type": "0x2",
      "status": "0x1",
      "cumulativeGasUsed": "0x5009e",
      "logs": [
        {
          "address": "0x85ed9ac57827132b8f60938f3165bc139e1f53cd",
          "topics": [
            "0xf8324c8592dfd9991ee3e717351afe0a964605257959e3d99b0eb3d45bff9422"
          ],
          "data": "0x000000000000000000000000ac414205651f4a62b614b6be9e5318a182c33eb00000000000000000000000000000000000000000000000000000000000000e88",
          "blockHash": "0x82c631f404e76508533dd4806ecc2139941eb0a1813230cc75677d2fbf17abc6",
          "blockNumber": "0x14219f7",
          "blockTimestamp": "0x69c3cfa8",
          "transactionHash": "0xfb731f99016e3a35d52cbad81315d4a8473fe578d12f6306f2d057fbced8fdf5",
          "transactionIndex": "0x2",
          "logIndex": "0x5",
          "removed": false
        }
      ],
      "logsBloom": "0x02000000000000000000000000000000000000000000000000000020000000000000000000000000000000000000000000000000000000000000000000000000000000000000000000000000000100000000000000000000000000000000000000000000000000000000000000000000000000000000000000000000000000000000000000000000000000000000000000000000000000000000000020000000000000000000000000000000000000000000000000000000000000000000000000000000000000004000000000000000000000000000000000000000000000000000010000000000000000000000000000000000000000000000000000000000",
      "transactionHash": "0xfb731f99016e3a35d52cbad81315d4a8473fe578d12f6306f2d057fbced8fdf5",
      "transactionIndex": "0x2",
      "blockHash": "0x82c631f404e76508533dd4806ecc2139941eb0a1813230cc75677d2fbf17abc6",
      "blockNumber": "0x14219f7",
      "gasUsed": "0x191b0",
      "effectiveGasPrice": "0x1a3d718700",
      "from": "0x2738f38fde510743e0c589415e0598c4cee6eaa7",
      "to": "0x85ed9ac57827132b8f60938f3165bc139e1f53cd",
      "contractAddress": null
    },
    {
      "type": "0x2",
      "status": "0x1",
      "cumulativeGasUsed": "0x1c33e1",
      "logs": [
        {
          "address": "0x438f17f0be93db19f210e91663cf6cf4ead93b4e",
          "topics": [
            "0xa293edbc5018bd43c95bab416b1cb297eb58222c3471c76b3b87051f720acb05",
            "0x0000000000000000000000008220032e2d3541a9d3f88b2c7247301027f2bc27",
            "0x000000000000000000000000ec57482aa55e3ad026c315a0e4a692b776c318ca"
          ],
          "data": "0x0000000000000000000000000000000000000000000000000000000000000040000000000000000000000000000000000000000000000000000000000000008000000000000000000000000000000000000000000000000000000000000000074555522f555344000000000000000000000000000000000000000000000000000000000000000000000000000000000000000000000000000000000000000001000000000000000000000000904bc5586697ef66b8b3c3189a8f059a4bd4f0710000000000000000000000000000000000000000000000000000000000000000",
          "blockHash": "0x06e7c1ea75496627065e841f482bb1c5ed537bc879d1da34418ca53bdd8475aa",
          "blockNumber": "0x14219fb",
          "blockTimestamp": "0x69c3cfa9",
          "transactionHash": "0x80ba1299e486035ed0e1743e49c45e6f7570c2c86d01e7da32bb420ef03c64cc",
          "transactionIndex": "0x2",
          "logIndex": "0x5",
          "removed": false
        }
      ],
      "logsBloom": "0x00000000000000000000000000000000000000000000000000000000000000000000000000000000000000000000000000000020000000000100800000000000000000001000000000000000000000000000000000010000400000000000000000000000000000000000000000000000000000000000000000000000000000010200000000000000000000000000000000000000000000000000000000000000000010000000000000000000000000008000000000000000000000000000000000100000000000000000000000008000000000000000000000000000000000000000000000000000000000000000000000000000000000000000000000000000",
      "transactionHash": "0x80ba1299e486035ed0e1743e49c45e6f7570c2c86d01e7da32bb420ef03c64cc",
      "transactionIndex": "0x2",
      "blockHash": "0x06e7c1ea75496627065e841f482bb1c5ed537bc879d1da34418ca53bdd8475aa",
      "blockNumber": "0x14219fb",
      "gasUsed": "0x18c3c2",
      "effectiveGasPrice": "0x1a3d718700",
      "from": "0x2738f38fde510743e0c589415e0598c4cee6eaa7",
      "to": "0x438f17f0be93db19f210e91663cf6cf4ead93b4e",
      "contractAddress": null
    },
    {
      "type": "0x2",
      "status": "0x1",
      "cumulativeGasUsed": "0x3d181c",
      "logs": [
        {
          "address": "0x85ed9ac57827132b8f60938f3165bc139e1f53cd",
          "topics": [
            "0x828d2be040dede7698182e08dfa8bfbd663c879aee772509c4a2bd961d0ed43f",
            "0x000000000000000000000000ec57482aa55e3ad026c315a0e4a692b776c318ca",
            "0x0000000000000000000000008220032e2d3541a9d3f88b2c7247301027f2bc27"
          ],
          "data": "0x",
          "blockHash": "0x16dade7c615be670da710d4c6b7d52cfc666241520d25f682b2908e7f2275797",
          "blockNumber": "0x1421a00",
          "blockTimestamp": "0x69c3cfab",
          "transactionHash": "0x149bc997617427ec48eaab8090d21eca8fa4f665789220c4c7a66d25807f4384",
          "transactionIndex": "0x5",
          "logIndex": "0x26",
          "removed": false
        }
      ],
      "logsBloom": "0x00000000000000000000000000000000000000000000000000000020000000000000000000000000000000000000000000000000000000000100800000000000000000001000000000004000000100000000000000010000000000000000000000000000001000000000000000000000000000000000000000000000000000000200000000000000000000000000000000000000000040000000000000000000000000000000000000000000000000000000000000000000000000000000000000000000000000000000000000008000000000000000000000000000000000000000010000000000000000000000000000000000000000000000000000000000",
      "transactionHash": "0x149bc997617427ec48eaab8090d21eca8fa4f665789220c4c7a66d25807f4384",
      "transactionIndex": "0x5",
      "blockHash": "0x16dade7c615be670da710d4c6b7d52cfc666241520d25f682b2908e7f2275797",
      "blockNumber": "0x1421a00",
      "gasUsed": "0x2bac5",
      "effectiveGasPrice": "0x1a3d718700",
      "from": "0x2738f38fde510743e0c589415e0598c4cee6eaa7",
      "to": "0x85ed9ac57827132b8f60938f3165bc139e1f53cd",
      "contractAddress": null
    },
    {
      "type": "0x2",
      "status": "0x1",
      "cumulativeGasUsed": "0x27aeb3",
      "logs": [
        {
          "address": "0x88869e30609d2c0e4032463d713328c6f541878e",
          "topics": [
            "0xa1bccd87833fab06528ad8412cd349ff6ec2f1b851f48592a05ff995e4e7347d",
            "0x000000000000000000000000ac414205651f4a62b614b6be9e5318a182c33eb0"
          ],
          "data": "0x",
          "blockHash": "0xc47771ab18fa398435e0c1866d928411d865352a34eb65fdd70bf654d6b8c6e1",
          "blockNumber": "0x1421a04",
          "blockTimestamp": "0x69c3cfad",
          "transactionHash": "0x39d1b9467a54ad39a323361aab42a5de00c59a27f27b06dc99e4c4bc4954421a",
          "transactionIndex": "0x3",
          "logIndex": "0x17",
          "removed": false
        }
      ],
      "logsBloom": "0x00000000000000000000000000000000000000000000000000000000000000000000000000000000000000010000000000000000000000000000200008000000000000000000000000000000000000000000000000000000000000000000000000000000000000000000400000000000000000000000000000000000000000000000010000800000000000000000000000000000000000000000000000040000200000000000000000000000000000000000000000000000000000000000000000000000000000000000000000000000000000000000000000000000000000000000000000000000000000000000000000000000008000000000000000000000",
      "transactionHash": "0x39d1b9467a54ad39a323361aab42a5de00c59a27f27b06dc99e4c4bc4954421a",
      "transactionIndex": "0x3",
      "blockHash": "0xc47771ab18fa398435e0c1866d928411d865352a34eb65fdd70bf654d6b8c6e1",
      "blockNumber": "0x1421a04",
      "gasUsed": "0x30fb3",
      "effectiveGasPrice": "0x1a3d718700",
      "from": "0x2738f38fde510743e0c589415e0598c4cee6eaa7",
      "to": "0x88869e30609d2c0e4032463d713328c6f541878e",
      "contractAddress": null
    },
    {
      "type": "0x2",
      "status": "0x1",
      "cumulativeGasUsed": "0x4fbc85",
      "logs": [
        {
          "address": "0x88869e30609d2c0e4032463d713328c6f541878e",
          "topics": [
            "0xa1bccd87833fab06528ad8412cd349ff6ec2f1b851f48592a05ff995e4e7347d",
            "0x000000000000000000000000ec57482aa55e3ad026c315a0e4a692b776c318ca"
          ],
          "data": "0x",
          "blockHash": "0x15c050f924a25cdc04d4de38273b7e32e8b93a9ca9c7bcc21126aed8aaba4317",
          "blockNumber": "0x1421a09",
          "blockTimestamp": "0x69c3cfaf",
          "transactionHash": "0x7010112588589e25b6c1f7af0a6e1f2d89d0e3722c29870a863b0bf915c837a1",
          "transactionIndex": "0x6",
          "logIndex": "0x31",
          "removed": false
        }
      ],
      "logsBloom": "0x00000000000000000000000000000000000000000000000000000000000000000000000000000000000000010000000000000000000000000000a00000000000000000001000000000000000000000000000000000000000000000000000000000000000000000000000000000000000000000000000000000000000000000000200010000800000000000000000000000000000000000000000000000040000200000000000000000000000000000000000000000000000000000000000000000000000000000000000000000000000000000000000000000000000000000000000000000000000000000000000000000000000000000000000000000000000",
      "transactionHash": "0x7010112588589e25b6c1f7af0a6e1f2d89d0e3722c29870a863b0bf915c837a1",
      "transactionIndex": "0x6",
      "blockHash": "0x15c050f924a25cdc04d4de38273b7e32e8b93a9ca9c7bcc21126aed8aaba4317",
      "blockNumber": "0x1421a09",
      "gasUsed": "0x30fb3",
      "effectiveGasPrice": "0x1a3d718700",
      "from": "0x2738f38fde510743e0c589415e0598c4cee6eaa7",
      "to": "0x88869e30609d2c0e4032463d713328c6f541878e",
      "contractAddress": null
    },
    {
      "type": "0x2",
      "status": "0x1",
      "cumulativeGasUsed": "0x2cac13",
      "logs": [
        {
          "address": "0x88869e30609d2c0e4032463d713328c6f541878e",
          "topics": [
            "0x292d7648986a4abc017bc2a39852a675c1e325e24afd18fad659810792d5e405"
          ],
          "data": "0x000000000000000000000000bbd0d093f5f11d16d4456fbd6229c9a3b70b8aaf000000000000000000000000ac414205651f4a62b614b6be9e5318a182c33eb00000000000000000000000000000000000000000000000000000000000000001",
          "blockHash": "0x630003ed393b6cc2065473239e12db684e7a60d61348b41cc2062fa7d8e54b9b",
          "blockNumber": "0x1421a0d",
          "blockTimestamp": "0x69c3cfb1",
          "transactionHash": "0xf2fe4ed7f2666be7b8060bae401998c5f56ab88be9fb64035de156e790839720",
          "transactionIndex": "0x4",
          "logIndex": "0x1b",
          "removed": false
        }
      ],
      "logsBloom": "0x00000000000000000000000000000000000000000000000000000000000000000000000000000000000000010000000000000008000000000000200000000000000000000000000000000000000000000000000000000000000000000000000000000000000000000000000000008000000000000000000000000000000000000000000000800000000000000000000000000000000000000000000000000000000000000000000000000000000000000000000000000000000000000000000000000000000000000000000000000000001000000000000000000000000000000000000000000000000000000000000000000000000000000000000000000000",
      "transactionHash": "0xf2fe4ed7f2666be7b8060bae401998c5f56ab88be9fb64035de156e790839720",
      "transactionIndex": "0x4",
      "blockHash": "0x630003ed393b6cc2065473239e12db684e7a60d61348b41cc2062fa7d8e54b9b",
      "blockNumber": "0x1421a0d",
      "gasUsed": "0x49e4a",
      "effectiveGasPrice": "0x1a3d718700",
      "from": "0x2738f38fde510743e0c589415e0598c4cee6eaa7",
      "to": "0x88869e30609d2c0e4032463d713328c6f541878e",
      "contractAddress": null
    },
    {
      "type": "0x2",
      "status": "0x1",
      "cumulativeGasUsed": "0x16fc29",
      "logs": [
        {
          "address": "0xbbd0d093f5f11d16d4456fbd6229c9a3b70b8aaf",
          "topics": [
            "0xb4610b016800a84a54beff5837e8c18d5deb15ebe20fc28f30b55fb7f183a339"
          ],
          "data": "0x000000000000000000000000ac414205651f4a62b614b6be9e5318a182c33eb000000000000000000000000000000000000000000000005150ae84a8cdf00000",
          "blockHash": "0x17be18931710b5403513ed44a4485eb2f02833f1eb313ac851c365797c730b20",
          "blockNumber": "0x1421a12",
          "blockTimestamp": "0x69c3cfb3",
          "transactionHash": "0x50fa50003ff86b4cacb1f5ee491beb503012728150a362041f13109b567fcb3e",
          "transactionIndex": "0x3",
          "logIndex": "0x10",
          "removed": false
        }
      ],
      "logsBloom": "0x00000000000000000000000000000000000000020000000000000000000000000000000000000000000000000000000000000000000000000000000000000000000000000000000000000000000000000000000000000000000000000000000000000000000000000000000000000000000000000000000000000000000000000000000000000000000000000000000000000000000000000000000000000000000000000000000000000000000000000000000000100000000000000000000000000001000000000000000000000000000000040008000000000000000000000100000000000000000000000000000000000000000000000000000000000000",
      "transactionHash": "0x50fa50003ff86b4cacb1f5ee491beb503012728150a362041f13109b567fcb3e",
      "transactionIndex": "0x3",
      "blockHash": "0x17be18931710b5403513ed44a4485eb2f02833f1eb313ac851c365797c730b20",
      "blockNumber": "0x1421a12",
      "gasUsed": "0x13da5",
      "effectiveGasPrice": "0x1a3d718700",
      "from": "0x2738f38fde510743e0c589415e0598c4cee6eaa7",
      "to": "0xbbd0d093f5f11d16d4456fbd6229c9a3b70b8aaf",
      "contractAddress": null
    },
    {
      "type": "0x2",
      "status": "0x1",
      "cumulativeGasUsed": "0x3b9919",
      "logs": [
        {
          "address": "0xbbd0d093f5f11d16d4456fbd6229c9a3b70b8aaf",
          "topics": [
            "0x1b2e9cb68f822fa2031c648b0d701fdd3f5330d9c60f3e9f0ca3a5c9e2f6285c"
          ],
          "data": "0x000000000000000000000000ac414205651f4a62b614b6be9e5318a182c33eb00000000000000000000000000000000000000000000000000000000000000001",
          "blockHash": "0xc32788a0ca41ad4367f729a24876f9507f6c8866a1a9982a32db8ef7eaf80c65",
          "blockNumber": "0x1421a16",
          "blockTimestamp": "0x69c3cfb4",
          "transactionHash": "0x0d7f2e4fa28e04ec562f81ba7110437bc0ab1dbd64927930395b2543c5e9d289",
          "transactionIndex": "0x5",
          "logIndex": "0x26",
          "removed": false
        }
      ],
      "logsBloom": "0x00000000000000000000000000100000000000021000000000000000000000000000000000000000000000000040000000000000000000000000000000000000000000000000000000000000000000000000000000000000000000000000000000000000000000000000000000000000000000000000000000000000000000000000000000000000000000000000000000000000000000000000000000000000000000000000000000000000000000000000000000000000000000000000000000000000000000000000000000000000000000040000000000000000000000000100000000000000000000000000000000000000000000000000000000000000",
      "transactionHash": "0x0d7f2e4fa28e04ec562f81ba7110437bc0ab1dbd64927930395b2543c5e9d289",
      "transactionIndex": "0x5",
      "blockHash": "0xc32788a0ca41ad4367f729a24876f9507f6c8866a1a9982a32db8ef7eaf80c65",
      "blockNumber": "0x1421a16",
      "gasUsed": "0x13b47",
      "effectiveGasPrice": "0x1a3d718700",
      "from": "0x2738f38fde510743e0c589415e0598c4cee6eaa7",
      "to": "0xbbd0d093f5f11d16d4456fbd6229c9a3b70b8aaf",
      "contractAddress": null
    },
    {
      "type": "0x2",
      "status": "0x1",
      "cumulativeGasUsed": "0x87e2ce",
      "logs": [
        {
          "address": "0xbbd0d093f5f11d16d4456fbd6229c9a3b70b8aaf",
          "topics": [
            "0xa62a59cb391b90466127d5c2ae9c7cfb59877763680d974867d6abe0c4fd52cb"
          ],
          "data": "0x000000000000000000000000ac414205651f4a62b614b6be9e5318a182c33eb000000000000000000000000000000000000000000000d3c21bcecceda1000000",
          "blockHash": "0xe56da005e8cf21c5051db384a35af52c1c52bc2790069d159f0975c7c39dd52b",
          "blockNumber": "0x1421a17",
          "blockTimestamp": "0x69c3cfb5",
          "transactionHash": "0x8373fa755ddc41c16d718758ef0cbfe7af8f182fcf5a385db0276f15c0ed43c2",
          "transactionIndex": "0x6",
          "logIndex": "0x26",
          "removed": false
        }
      ],
      "logsBloom": "0x00000000000000000000000000000000000000020000000000000000000000000000000002000000000000000000000000000000000000000000000000000000000000000000000000000000000000000000000000000000000000000000000000000000000000000002000000000000000000000000000000000000000000000000000000000000000000000000000000000000000000000000000000000000000000000000000000000000000000000000000000000000000000000000000000000000000000000000000000000000000000040000000000000100000000000100000000000000000000000000000000000000000000000000000000000000",
      "transactionHash": "0x8373fa755ddc41c16d718758ef0cbfe7af8f182fcf5a385db0276f15c0ed43c2",
      "transactionIndex": "0x6",
      "blockHash": "0xe56da005e8cf21c5051db384a35af52c1c52bc2790069d159f0975c7c39dd52b",
      "blockNumber": "0x1421a17",
      "gasUsed": "0x13a45",
      "effectiveGasPrice": "0x1a3d718700",
      "from": "0x2738f38fde510743e0c589415e0598c4cee6eaa7",
      "to": "0xbbd0d093f5f11d16d4456fbd6229c9a3b70b8aaf",
      "contractAddress": null
    },
    {
      "type": "0x2",
      "status": "0x1",
      "cumulativeGasUsed": "0x1d1d14",
      "logs": [
        {
          "address": "0x88869e30609d2c0e4032463d713328c6f541878e",
          "topics": [
            "0x292d7648986a4abc017bc2a39852a675c1e325e24afd18fad659810792d5e405"
          ],
          "data": "0x000000000000000000000000f923c884f319b8866f67c5719a80e5cb4d0faf2c000000000000000000000000ec57482aa55e3ad026c315a0e4a692b776c318ca0000000000000000000000000000000000000000000000000000000000000001",
          "blockHash": "0x2dc7e24344f096c2c17b8df785fbfb09dc7ecfb285c564d35419f33ce928714f",
          "blockNumber": "0x1421a1b",
          "blockTimestamp": "0x69c3cfb6",
          "transactionHash": "0x78a6aa7c2a5364dea6a6b1973128d3ec36190a19364116568973cd5c6425b7f6",
          "transactionIndex": "0x4",
          "logIndex": "0x14",
          "removed": false
        }
      ],
      "logsBloom": "0x00000000000000000000000000000000000000000000000000000000000000000000000000000000000000010000000000000008000000000000200000000000000000000000000000000000000000000000000000000000000000000000000000000000000000000000000000008000000000000000000000000000000000000000000000800000000000000000000000000000000000000000000000000000000000000000000000000000000000000000000000000000000000000000000000000000000000000000000000000000001000000000000000000000000000000000000000000000000000000000000000000000000000000000000000000000",
      "transactionHash": "0x78a6aa7c2a5364dea6a6b1973128d3ec36190a19364116568973cd5c6425b7f6",
      "transactionIndex": "0x4",
      "blockHash": "0x2dc7e24344f096c2c17b8df785fbfb09dc7ecfb285c564d35419f33ce928714f",
      "blockNumber": "0x1421a1b",
      "gasUsed": "0x4cb79",
      "effectiveGasPrice": "0x1a3d718700",
      "from": "0x2738f38fde510743e0c589415e0598c4cee6eaa7",
      "to": "0x88869e30609d2c0e4032463d713328c6f541878e",
      "contractAddress": null
    },
    {
      "type": "0x2",
      "status": "0x1",
      "cumulativeGasUsed": "0x73f38",
      "logs": [
        {
          "address": "0xf923c884f319b8866f67c5719a80e5cb4d0faf2c",
          "topics": [
            "0xb4610b016800a84a54beff5837e8c18d5deb15ebe20fc28f30b55fb7f183a339"
          ],
          "data": "0x000000000000000000000000ec57482aa55e3ad026c315a0e4a692b776c318ca000000000000000000000000000000000000000000000878678326eac9000000",
          "blockHash": "0xd65cece0ac7935d26bf668955a9fbf191a7e680ce3f4468fe9fedd2192945fd4",
          "blockNumber": "0x1421a20",
          "blockTimestamp": "0x69c3cfb8",
          "transactionHash": "0x04ecf2e0a33577be9abb7252cde9b1868be649c094978927e9c7f928e2c9c8ab",
          "transactionIndex": "0x3",
          "logIndex": "0x9",
          "removed": false
        }
      ],
      "logsBloom": "0x00000000000000000000000000000000200000000000000000000000000000000000000000000000000000000000000000000000000000000000000000000000000000000000000000000000000000000000000000000000000000000000000000000000000000000000000000000000000000000000000000000000000000000000000000000000000000000000000000000000000000000000000000200000000000000000000000000000000000000000000000100000000000000000000000000001000000000000000000000000000000000008800000000000000000000000000000000000000000000000000000000000000000000000000000000000",
      "transactionHash": "0x04ecf2e0a33577be9abb7252cde9b1868be649c094978927e9c7f928e2c9c8ab",
      "transactionIndex": "0x3",
      "blockHash": "0xd65cece0ac7935d26bf668955a9fbf191a7e680ce3f4468fe9fedd2192945fd4",
      "blockNumber": "0x1421a20",
      "gasUsed": "0x13da5",
      "effectiveGasPrice": "0x1a3d718700",
      "from": "0x2738f38fde510743e0c589415e0598c4cee6eaa7",
      "to": "0xf923c884f319b8866f67c5719a80e5cb4d0faf2c",
      "contractAddress": null
    },
    {
      "type": "0x2",
      "status": "0x1",
      "cumulativeGasUsed": "0x3b9a23",
      "logs": [
        {
          "address": "0xf923c884f319b8866f67c5719a80e5cb4d0faf2c",
          "topics": [
            "0x1b2e9cb68f822fa2031c648b0d701fdd3f5330d9c60f3e9f0ca3a5c9e2f6285c"
          ],
          "data": "0x000000000000000000000000ec57482aa55e3ad026c315a0e4a692b776c318ca0000000000000000000000000000000000000000000000000000000000000384",
          "blockHash": "0xdbf1ea209c683a7d3816a3d0d55731d6107368d0924bef00fd57b7b320da21a0",
          "blockNumber": "0x1421a24",
          "blockTimestamp": "0x69c3cfba",
          "transactionHash": "0x82ef3e8f28ec1eb45ee425177175bd1b0de894e016838ed1e44411cf9ced3b82",
          "transactionIndex": "0x5",
          "logIndex": "0x26",
          "removed": false
        }
      ],
      "logsBloom": "0x00000000000000000000000000100000200000001000000000000000000000000000000000000000000000000040000000000000000000000000000000000000000000000000000000000000000000000000000000000000000000000000000000000000000000000000000000000000000000000000000000000000000000000000000000000000000000000000000000000000000000000000000000200000000000000000000000000000000000000000000000000000000000000000000000000000000000000000000000000000000000000000800000000000000000000000000000000000000000000000000000000000000000000000000000000000",
      "transactionHash": "0x82ef3e8f28ec1eb45ee425177175bd1b0de894e016838ed1e44411cf9ced3b82",
      "transactionIndex": "0x5",
      "blockHash": "0xdbf1ea209c683a7d3816a3d0d55731d6107368d0924bef00fd57b7b320da21a0",
      "blockNumber": "0x1421a24",
      "gasUsed": "0x13bad",
      "effectiveGasPrice": "0x1a3d718700",
      "from": "0x2738f38fde510743e0c589415e0598c4cee6eaa7",
      "to": "0xf923c884f319b8866f67c5719a80e5cb4d0faf2c",
      "contractAddress": null
    },
    {
      "type": "0x2",
      "status": "0x1",
      "cumulativeGasUsed": "0x16f375",
      "logs": [
        {
          "address": "0xf923c884f319b8866f67c5719a80e5cb4d0faf2c",
          "topics": [
            "0x6024a1181d4b6670f0122b1101b175bd17051e91a5b57e85972a9187c3f9721c"
          ],
          "data": "0x000000000000000000000000ec57482aa55e3ad026c315a0e4a692b776c318ca00000000000000000000000000000000000000000000010f0cf064dd59200000",
          "blockHash": "0x3d5298712370a0692f56e1a6a0c6f69ee9e4bad3d6caf97a509d69b44b7eb5dc",
          "blockNumber": "0x1421a28",
          "blockTimestamp": "0x69c3cfbc",
          "transactionHash": "0xd4a037cd7a0996d1c13d5ca8ab6c1bcfd115ccbace1e283552fa31e468363eec",
          "transactionIndex": "0x3",
          "logIndex": "0x10",
          "removed": false
        }
      ],
      "logsBloom": "0x00000000000000000000000000000000200000204000000000000000000000000000000000000000000000000000000000000000000000000000000000000000000000000000000000000000000000000000000000000000000000000000000000000000000000000000000000000000000000000000000000000000000000000000000000000000000000000000000000000000000000000000000000200000000000000010000000000000000000000000000000000000000000000000000000000000000000000000000000000000000000000000800000000000000000000000000000000000000000000000000000000000000000000000000000000000",
      "transactionHash": "0xd4a037cd7a0996d1c13d5ca8ab6c1bcfd115ccbace1e283552fa31e468363eec",
      "transactionIndex": "0x3",
      "blockHash": "0x3d5298712370a0692f56e1a6a0c6f69ee9e4bad3d6caf97a509d69b44b7eb5dc",
      "blockNumber": "0x1421a28",
      "gasUsed": "0x13548",
      "effectiveGasPrice": "0x1a3d718700",
      "from": "0x2738f38fde510743e0c589415e0598c4cee6eaa7",
      "to": "0xf923c884f319b8866f67c5719a80e5cb4d0faf2c",
      "contractAddress": null
    },
    {
      "type": "0x2",
      "status": "0x1",
      "cumulativeGasUsed": "0x2d3f9f",
      "logs": [
        {
          "address": "0x88869e30609d2c0e4032463d713328c6f541878e",
          "topics": [
            "0x292d7648986a4abc017bc2a39852a675c1e325e24afd18fad659810792d5e405"
          ],
          "data": "0x00000000000000000000000099c968bf5972c11442654b989b7ead0237ca654b000000000000000000000000ec57482aa55e3ad026c315a0e4a692b776c318ca0000000000000000000000000000000000000000000000000000000000000001",
          "blockHash": "0x3b2b9bc5e6f6dbedd0627b8509231bc80069ab2451f7139385dd9dc53352bd83",
          "blockNumber": "0x1421a29",
          "blockTimestamp": "0x69c3cfbc",
          "transactionHash": "0x5e341fcd402fed633fb48ead30ee5006a3651d49332a1c5248ef46cc59fa9ae0",
          "transactionIndex": "0x4",
          "logIndex": "0x1b",
          "removed": false
        }
      ],
      "logsBloom": "0x00000000000000000000000000000000000000000000000000000000000000000000000000000000000000010000000000000008000000000000200000000000000000000000000000000000000000000000000000000000000000000000000000000000000000000000000000008000000000000000000000000000000000000000000000800000000000000000000000000000000000000000000000000000000000000000000000000000000000000000000000000000000000000000000000000000000000000000000000000000001000000000000000000000000000000000000000000000000000000000000000000000000000000000000000000000",
      "transactionHash": "0x5e341fcd402fed633fb48ead30ee5006a3651d49332a1c5248ef46cc59fa9ae0",
      "transactionIndex": "0x4",
      "blockHash": "0x3b2b9bc5e6f6dbedd0627b8509231bc80069ab2451f7139385dd9dc53352bd83",
      "blockNumber": "0x1421a29",
      "gasUsed": "0x53167",
      "effectiveGasPrice": "0x1a3d718700",
      "from": "0x2738f38fde510743e0c589415e0598c4cee6eaa7",
      "to": "0x88869e30609d2c0e4032463d713328c6f541878e",
      "contractAddress": null
    }
  ],
  "libraries": [
    "lib/mento-core/node_modules/@celo/contracts/common/linkedlists/AddressSortedLinkedListWithMedian.sol:AddressSortedLinkedListWithMedian:0x8E1B1312EC92C9f8073296c4Cf1E60D31d228269"
  ],
  "pending": [],
  "returns": {},
  "timestamp": 1774440381789,
  "chain": 10143,
  "commit": "7041277"
}