{
  "transactions": [
    {
      "hash": "0x30dc0a3f063750f2d117207f237fd79f7bb33c9cb5deccc94373bf0cb66076cd",
      "transactionType": "CALL",
      "contractName": null,
      "contractAddress": "0x502e67d3fe9302a5e4ec1cfcddbd6f34f9b9484b",
      "function": "mint(address,uint256)",
      "arguments": [
        "0x2738F38Fde510743e0c589415E0598C4ceE6eAa7",
        "10000000000000000000000000"
      ],
      "transaction": {
        "from": "0x2738f38fde510743e0c589415e0598c4cee6eaa7",
        "to": "0x502e67d3fe9302a5e4ec1cfcddbd6f34f9b9484b",
        "gas": "0xb933",
        "value": "0x0",
        "input": "0x40c10f190000000000000000000000002738f38fde510743e0c589415e0598c4cee6eaa7000000000000000000000000000000000000000000084595161401484a000000",
        "nonce": "0xd3",
        "chainId": "0x279f"
      },
      "additionalContracts": [],
      "isFixedGasLimit": false
    },
    {
      "hash": "0x2c986a94f90a81f3e61f30c7fd689b26220840a2c69ed9644c87c00efab331e9",
      "transactionType": "CALL",
      "contractName": null,
      "contractAddress": "0x04de554e875c9797dc4cebd834a9e99fa8fd5df9",
      "function": "setMinter(address,bool)",
      "arguments": [
        "0x2738F38Fde510743e0c589415E0598C4ceE6eAa7",
        "true"
      ],
      "transaction": {
        "from": "0x2738f38fde510743e0c589415e0598c4cee6eaa7",
        "to": "0x04de554e875c9797dc4cebd834a9e99fa8fd5df9",
        "gas": "0x10e1b",
        "value": "0x0",
        "input": "0xcf456ae70000000000000000000000002738f38fde510743e0c589415e0598c4cee6eaa70000000000000000000000000000000000000000000000000000000000000001",
        "nonce": "0xd4",
        "chainId": "0x279f"
      },
      "additionalContracts": [],
      "isFixedGasLimit": false
    },
    {
      "hash": "0x7fb7613a54f5687b2c8b44cc28d2bd521276e52de29c05efeead4056f54283da",
      "transactionType": "CALL",
      "contractName": null,
      "contractAddress": "0x04de554e875c9797dc4cebd834a9e99fa8fd5df9",
      "function": "mint(address,uint256)",
      "arguments": [
        "0x2738F38Fde510743e0c589415E0598C4ceE6eAa7",
        "10000000000000000000000000"
      ],
      "transaction": {
        "from": "0x2738f38fde510743e0c589415e0598c4cee6eaa7",
        "to": "0x04de554e875c9797dc4cebd834a9e99fa8fd5df9",
        "gas": "0xdf31",
        "value": "0x0",
        "input": "0x40c10f190000000000000000000000002738f38fde510743e0c589415e0598c4cee6eaa7000000000000000000000000000000000000000000084595161401484a000000",
        "nonce": "0xd5",
        "chainId": "0x279f"
      },
      "additionalContracts": [],
      "isFixedGasLimit": false
    },
    {
      "hash": "0x411086648e0c02f6ffdc4bf4e59b358b56dec6857bb091dffce600330bf56173",
      "transactionType": "CALL",
      "contractName": null,
      "contractAddress": "0x5ecc03111ad2a78f981a108759bc73bae2ab31bc",
      "function": "setMinter(address,bool)",
      "arguments": [
        "0x2738F38Fde510743e0c589415E0598C4ceE6eAa7",
        "true"
      ],
      "transaction": {
        "from": "0x2738f38fde510743e0c589415e0598c4cee6eaa7",
        "to": "0x5ecc03111ad2a78f981a108759bc73bae2ab31bc",
        "gas": "0x10e1b",
        "value": "0x0",
        "input": "0xcf456ae70000000000000000000000002738f38fde510743e0c589415e0598c4cee6eaa70000000000000000000000000000000000000000000000000000000000000001",
        "nonce": "0xd6",
        "chainId": "0x279f"
      },
      "additionalContracts": [],
      "isFixedGasLimit": false
    },
    {
      "hash": "0x86091e1bd82bc6d6730fd648202cf97ed9c7789855663db811b86d855d300303",
      "transactionType": "CALL",
      "contractName": null,
      "contractAddress": "0x5ecc03111ad2a78f981a108759bc73bae2ab31bc",
      "function": "mint(address,uint256)",
      "arguments": [
        "0x2738F38Fde510743e0c589415E0598C4ceE6eAa7",
        "10000000000000000000000000"
      ],
      "transaction": {
        "from": "0x2738f38fde510743e0c589415e0598c4cee6eaa7",
        "to": "0x5ecc03111ad2a78f981a108759bc73bae2ab31bc",
        "gas": "0xdf31",
        "value": "0x0",
        "input": "0x40c10f190000000000000000000000002738f38fde510743e0c589415e0598c4cee6eaa7000000000000000000000000000000000000000000084595161401484a000000",
        "nonce": "0xd7",
        "chainId": "0x279f"
      },
      "additionalContracts": [],
      "isFixedGasLimit": false
    }
  ],
  "receipts": [
    {
      "type": "0x2",
      "status": "0x1",
      "cumulativeGasUsed": "0x8e76",
      "logs": [
        {
          "address": "0x502e67d3fe9302a5e4ec1cfcddbd6f34f9b9484b",
          "topics": [
            "0xddf252ad1be2c89b69c2b068fc378daa952ba7f163c4a11628f55a4df523b3ef",
            "0x0000000000000000000000000000000000000000000000000000000000000000",
            "0x0000000000000000000000002738f38fde510743e0c589415e0598c4cee6eaa7"
          ],
          "data": "0x000000000000000000000000000000000000000000084595161401484a000000",
          "blockHash": "0x979109afdd60ce1186a62e25b80d7f78d1a9353e55a78b743d91eabaeb0f6518",
          "blockNumber": "0x11e816d",
          "blockTimestamp": "0x69b57e90",
          "transactionHash": "0x30dc0a3f063750f2d117207f237fd79f7bb33c9cb5deccc94373bf0cb66076cd",
          "transactionIndex": "0x0",
          "logIndex": "0x0",
          "removed": false
        }
      ],
      "logsBloom": "0x00000000200000000000000000000000000000000000000000000000000000000000000040000000000000000000000000000000000000000000200000000000002000000000000000000008000000000000000000000000000000000000000000000000020000000000000000000800000000000000000000000010000000000000000000000000000000000000000000000000000000000000000000000010000000000000000000000000000000000000000000000000000000000000000000000802000000000000000000000000000000000000000000000000000020000000000000000000000000000000000000000000000000000000000000000000",
      "transactionHash": "0x30dc0a3f063750f2d117207f237fd79f7bb33c9cb5deccc94373bf0cb66076cd",
      "transactionIndex": "0x0",
      "blockHash": "0x979109afdd60ce1186a62e25b80d7f78d1a9353e55a78b743d91eabaeb0f6518",
      "blockNumber": "0x11e816d",
      "gasUsed": "0x8e76",
      "effectiveGasPrice": "0x1513e5cfc3",
      "blobGasPrice": "0x1",
      "from": "0x2738f38fde510743e0c589415e0598c4cee6eaa7",
      "to": "0x502e67d3fe9302a5e4ec1cfcddbd6f34f9b9484b",
      "contractAddress": null
    },
    {
      "type": "0x2",
      "status": "0x1",
      "cumulativeGasUsed": "0xce49",
      "logs": [
        {
          "address": "0x04de554e875c9797dc4cebd834a9e99fa8fd5df9",
          "topics": [
            "0xb21afb9ce9be0a676f8f317ff0ca072fb89a4f8ce2d1b6fe80f8755c14f1cb19",
            "0x0000000000000000000000002738f38fde510743e0c589415e0598c4cee6eaa7"
          ],
          "data": "0x0000000000000000000000000000000000000000000000000000000000000001",
          "blockHash": "0xa422c84cccf4487050c730eab8c2266bb6d35505157b6c4f87e22928a4202109",
          "blockNumber": "0x11e816e",
          "blockTimestamp": "0x69b57e90",
          "transactionHash": "0x2c986a94f90a81f3e61f30c7fd689b26220840a2c69ed9644c87c00efab331e9",
          "transactionIndex": "0x0",
          "logIndex": "0x0",
          "removed": false
        }
      ],
      "logsBloom": "0x00000000000000000000000000000000000000008000000000000000000000000000000000000000000000000000000000000000000000040000000000000080002000000000000000001000000000000000000000000000000000000000000000000000000000000000000000000000000000000000000000000000000000000000000000000000000000000000000000000000000000000000200000000010000000000000000000000000000000000000000000000000000000000000000000000800000000000000000000000000000000000000000000000000000000000000000000000080000000000000000000000000000000000000000000000000",
      "transactionHash": "0x2c986a94f90a81f3e61f30c7fd689b26220840a2c69ed9644c87c00efab331e9",
      "transactionIndex": "0x0",
      "blockHash": "0xa422c84cccf4487050c730eab8c2266bb6d35505157b6c4f87e22928a4202109",
      "blockNumber": "0x11e816e",
      "gasUsed": "0xce49",
      "effectiveGasPrice": "0x1288000438",
      "blobGasPrice": "0x1",
      "from": "0x2738f38fde510743e0c589415e0598c4cee6eaa7",
      "to": "0x04de554e875c9797dc4cebd834a9e99fa8fd5df9",
      "contractAddress": null
    },
    {
      "type": "0x2",
      "status": "0x1",
      "cumulativeGasUsed": "0xa197",
      "logs": [
        {
          "address": "0x04de554e875c9797dc4cebd834a9e99fa8fd5df9",
          "topics": [
            "0xddf252ad1be2c89b69c2b068fc378daa952ba7f163c4a11628f55a4df523b3ef",
            "0x0000000000000000000000000000000000000000000000000000000000000000",
            "0x0000000000000000000000002738f38fde510743e0c589415e0598c4cee6eaa7"
          ],
          "data": "0x000000000000000000000000000000000000000000084595161401484a000000",
          "blockHash": "0xd80a7c927ee260fff6f26c7662bd4656af3e54d6ee8bb0aa1ea1fb35f779c4e8",
          "blockNumber": "0x11e816f",
          "blockTimestamp": "0x69b57e90",
          "transactionHash": "0x7fb7613a54f5687b2c8b44cc28d2bd521276e52de29c05efeead4056f54283da",
          "transactionIndex": "0x0",
          "logIndex": "0x0",
          "removed": false
        }
      ],
      "logsBloom": "0x00000000000000000000000000000000000000008000000000000000000000000000000000000000000000000000000000000000000000000000000000000000002000000000000000001008000000000000000000000000000000000000000000000000020000000000000000000800000000000000000000000010000000000000000000000000000000000000000000000000000000000000000000000010000000000000000000000000000000000000000000000000000000000000000000000802000000000000000000000000000000000000000000000000000020000000000000000080000000000000000000000000000000000000000000000000",
      "transactionHash": "0x7fb7613a54f5687b2c8b44cc28d2bd521276e52de29c05efeead4056f54283da",
      "transactionIndex": "0x0",
      "blockHash": "0xd80a7c927ee260fff6f26c7662bd4656af3e54d6ee8bb0aa1ea1fb35f779c4e8",
      "blockNumber": "0x11e816f",
      "gasUsed": "0xa197",
      "effectiveGasPrice": "0x104da734f5",
      "blobGasPrice": "0x1",
      "from": "0x2738f38fde510743e0c589415e0598c4cee6eaa7",
      "to": "0x04de554e875c9797dc4cebd834a9e99fa8fd5df9",
      "contractAddress": null
    },
    {
      "type": "0x2",
      "status": "0x1",
      "cumulativeGasUsed": "0xce49",
      "logs": [
        {
          "address": "0x5ecc03111ad2a78f981a108759bc73bae2ab31bc",
          "topics": [
            "0xb21afb9ce9be0a676f8f317ff0ca072fb89a4f8ce2d1b6fe80f8755c14f1cb19",
            "0x0000000000000000000000002738f38fde510743e0c589415e0598c4cee6eaa7"
          ],
          "data": "0x0000000000000000000000000000000000000000000000000000000000000001",
          "blockHash": "0x86c68d7f2bac7d51a0c7b6123a37e0557bc1a9248062880c2195a7ef3592f8a7",
          "blockNumber": "0x11e8170",
          "blockTimestamp": "0x69b57e90",
          "transactionHash": "0x411086648e0c02f6ffdc4bf4e59b358b56dec6857bb091dffce600330bf56173",
          "transactionIndex": "0x0",
          "logIndex": "0x0",
          "removed": false
        }
      ],
      "logsBloom": "0x00000000000000000000000000000000000000000000000000000000000000000000000000000000000000000000000000000000000000040000000000000080002000000000000004000000000000000000000000000000000000000000000000000000000000000000000000000000000000000000000000000000000000000000000000000000000000000000000000000000000000000000200000000010000000000000000000000000000000001000000000000000000000000200000000000800000000000000000000000000000000000000000000000000000000000000000000000000000000000000000000000000000000000000000000000000",
      "transactionHash": "0x411086648e0c02f6ffdc4bf4e59b358b56dec6857bb091dffce600330bf56173",
      "transactionIndex": "0x0",
      "blockHash": "0x86c68d7f2bac7d51a0c7b6123a37e0557bc1a9248062880c2195a7ef3592f8a7",
      "blockNumber": "0x11e8170",
      "gasUsed": "0xce49",
      "effectiveGasPrice": "0xe5a813bbd",
      "blobGasPrice": "0x1",
      "from": "0x2738f38fde510743e0c589415e0598c4cee6eaa7",
      "to": "0x5ecc03111ad2a78f981a108759bc73bae2ab31bc",
      "contractAddress": null
    },
    {
      "type": "0x2",
      "status": "0x1",
      "cumulativeGasUsed": "0xa197",
      "logs": [
        {
          "address": "0x5ecc03111ad2a78f981a108759bc73bae2ab31bc",
          "topics": [
            "0xddf252ad1be2c89b69c2b068fc378daa952ba7f163c4a11628f55a4df523b3ef",
            "0x0000000000000000000000000000000000000000000000000000000000000000",
            "0x0000000000000000000000002738f38fde510743e0c589415e0598c4cee6eaa7"
          ],
          "data": "0x000000000000000000000000000000000000000000084595161401484a000000",
          "blockHash": "0x7346fc51c2feb38e9fd8a92efdc07b81c3dd62677afb516a28f0ce2d60ff392d",
          "blockNumber": "0x11e8171",
          "blockTimestamp": "0x69b57e90",
          "transactionHash": "0x86091e1bd82bc6d6730fd648202cf97ed9c7789855663db811b86d855d300303",
          "transactionIndex": "0x0",
          "logIndex": "0x0",
          "removed": false
        }
      ],
      "logsBloom": "0x00000000000000000000000000000000000000000000000000000000000000000000000000000000000000000000000000000000000000000000000000000000002000000000000004000008000000000000000000000000000000000000000000000000020000000000000000000800000000000000000000000010000000000000000000000000000000000000000000000000000000000000000000000010000000000000000000000000000000001000000000000000000000000200000000000802000000000000000000000000000000000000000000000000000020000000000000000000000000000000000000000000000000000000000000000000",
      "transactionHash": "0x86091e1bd82bc6d6730fd648202cf97ed9c7789855663db811b86d855d300303",
      "transactionIndex": "0x0",
      "blockHash": "0x7346fc51c2feb38e9fd8a92efdc07b81c3dd62677afb516a28f0ce2d60ff392d",
      "blockNumber": "0x11e8171",
      "gasUsed": "0xa197",
      "effectiveGasPrice": "0xca5c632c7",
      "blobGasPrice": "0x1",
      "from": "0x2738f38fde510743e0c589415e0598c4cee6eaa7",
      "to": "0x5ecc03111ad2a78f981a108759bc73bae2ab31bc",
      "contractAddress": null
    }
  ],
  "libraries": [
    "lib/mento-core/node_modules/@celo/contracts/common/linkedlists/AddressSortedLinkedListWithMedian.sol:AddressSortedLinkedListWithMedian:0x8E1B1312EC92C9f8073296c4Cf1E60D31d228269"
  ],
  "pending": [],
  "returns": {},
  "timestamp": 1773502096650,
  "chain": 10143,
  "commit": "ce72afd"
}