{
  "transactions": [
    {
      "hash": "0x30dc0a3f063750f2d117207f237fd79f7bb33c9cb5deccc94373bf0cb66076cd",
      "transactionType": "CALL",
      "contractName": null,
      "contractAddress": "0x502e67d3fe9302a5e4ec1cfcddbd6f34f9b9484b",
      "function": "mint(address,uint256)",
      "arguments": [
        "0x2738F38Fde510743e0c589415E0598C4ceE6eAa7",
        "10000000000000000000000000"
      ],
      "transaction": {
        "from": "0x2738f38fde510743e0c589415e0598c4cee6eaa7",
        "to": "0x502e67d3fe9302a5e4ec1cfcddbd6f34f9b9484b",
        "gas": "0xb933",
        "value": "0x0",
        "input": "0x40c10f190000000000000000000000002738f38fde510743e0c589415e0598c4cee6eaa7000000000000000000000000000000000000000000084595161401484a000000",
        "nonce": "0xd3",
        "chainId": "0x279f"
      },
      "additionalContracts": [],
      "isFixedGasLimit": false
    },
    {
      "hash": "0x2c986a94f90a81f3e61f30c7fd689b26220840a2c69ed9644c87c00efab331e9",
      "transactionType": "CALL",
      "contractName": "TransparentUpgradeableProxy",
      "contractAddress": "0x04de554e875c9797dc4cebd834a9e99fa8fd5df9",
      "function": null,
      "arguments": null,
      "transaction": {
        "from": "0x2738f38fde510743e0c589415e0598c4cee6eaa7",
        "to": "0x04de554e875c9797dc4cebd834a9e99fa8fd5df9",
        "gas": "0x10e1b",
        "value": "0x0",
        "input": "0xcf456ae70000000000000000000000002738f38fde510743e0c589415e0598c4cee6eaa70000000000000000000000000000000000000000000000000000000000000001",
        "nonce": "0xd4",
        "chainId": "0x279f"
      },
      "additionalContracts": [],
      "isFixedGasLimit": false
    },
    {
      "hash": "0x7fb7613a54f5687b2c8b44cc28d2bd521276e52de29c05efeead4056f54283da",
      "transactionType": "CALL",
      "contractName": "TransparentUpgradeableProxy",
      "contractAddress": "0x04de554e875c9797dc4cebd834a9e99fa8fd5df9",
      "function": null,
      "arguments": null,
      "transaction": {
        "from": "0x2738f38fde510743e0c589415e0598c4cee6eaa7",
        "to": "0x04de554e875c9797dc4cebd834a9e99fa8fd5df9",
        "gas": "0xdf31",
        "value": "0x0",
        "input": "0x40c10f190000000000000000000000002738f38fde510743e0c589415e0598c4cee6eaa7000000000000000000000000000000000000000000084595161401484a000000",
        "nonce": "0xd5",
        "chainId": "0x279f"
      },
      "additionalContracts": [],
      "isFixedGasLimit": false
    },
    {
      "hash": "0x411086648e0c02f6ffdc4bf4e59b358b56dec6857bb091dffce600330bf56173",
      "transactionType": "CALL",
      "contractName": "TransparentUpgradeableProxy",
      "contractAddress": "0x5ecc03111ad2a78f981a108759bc73bae2ab31bc",
      "function": null,
      "arguments": null,
      "transaction": {
        "from": "0x2738f38fde510743e0c589415e0598c4cee6eaa7",
        "to": "0x5ecc03111ad2a78f981a108759bc73bae2ab31bc",
        "gas": "0x10e1b",
        "value": "0x0",
        "input": "0xcf456ae70000000000000000000000002738f38fde510743e0c589415e0598c4cee6eaa70000000000000000000000000000000000000000000000000000000000000001",
        "nonce": "0xd6",
        "chainId": "0x279f"
      },
      "additionalContracts": [],
      "isFixedGasLimit": false
    },
    {
      "hash": "0x86091e1bd82bc6d6730fd648202cf97ed9c7789855663db811b86d855d300303",
      "transactionType": "CALL",
      "contractName": "TransparentUpgradeableProxy",
      "contractAddress": "0x5ecc03111ad2a78f981a108759bc73bae2ab31bc",
      "function": null,
      "arguments": null,
      "transaction": {
        "from": "0x2738f38fde510743e0c589415e0598c4cee6eaa7",
        "to": "0x5ecc03111ad2a78f981a108759bc73bae2ab31bc",
        "gas": "0xdf31",
        "value": "0x0",
        "input": "0x40c10f190000000000000000000000002738f38fde510743e0c589415e0598c4cee6eaa7000000000000000000000000000000000000000000084595161401484a000000",
        "nonce": "0xd7",
        "chainId": "0x279f"
      },
      "additionalContracts": [],
      "isFixedGasLimit": false
    }
  ],
  "receipts": [
    {
      "type": "0x2",
      "status": "0x1",
      "cumulativeGasUsed": "0x8e76",
      "logs": [
        {
          "address": "0x502e67d3fe9302a5e4ec1cfcddbd6f34f9b9484b",
          "topics": [
            "0xddf252ad1be2c89b69c2b068fc378daa952ba7f163c4a11628f55a4df523b3ef",
            "0x0000000000000000000000000000000000000000000000000000000000000000",
            "0x0000000000000000000000002738f38fde510743e0c589415e0598c4cee6eaa7"
          ],
          "data": "0x000000000000000000000000000000000000000000084595161401484a000000",
          "blockHash": "0xbdca73ca03f1b20562e8a3844e1237a3bf80f69d24c067b6df9a5720a8ffc454",
          "blockNumber": "0x11e838b",
          "blockTimestamp": "0x69b57f51",
          "transactionHash": "0x30dc0a3f063750f2d117207f237fd79f7bb33c9cb5deccc94373bf0cb66076cd",
          "transactionIndex": "0x0",
          "logIndex": "0x0",
          "removed": false
        }
      ],
      "logsBloom": "0x00000000200000000000000000000000000000000000000000000000000000000000000040000000000000000000000000000000000000000000200000000000002000000000000000000008000000000000000000000000000000000000000000000000020000000000000000000800000000000000000000000010000000000000000000000000000000000000000000000000000000000000000000000010000000000000000000000000000000000000000000000000000000000000000000000802000000000000000000000000000000000000000000000000000020000000000000000000000000000000000000000000000000000000000000000000",
      "transactionHash": "0x30dc0a3f063750f2d117207f237fd79f7bb33c9cb5deccc94373bf0cb66076cd",
      "transactionIndex": "0x0",
      "blockHash": "0xbdca73ca03f1b20562e8a3844e1237a3bf80f69d24c067b6df9a5720a8ffc454",
      "blockNumber": "0x11e838b",
      "gasUsed": "0x8e76",
      "effectiveGasPrice": "0x1513e581a3",
      "blobGasPrice": "0x1",
      "from": "0x2738f38fde510743e0c589415e0598c4cee6eaa7",
      "to": "0x502e67d3fe9302a5e4ec1cfcddbd6f34f9b9484b",
      "contractAddress": null
    },
    {
      "type": "0x2",
      "status": "0x1",
      "cumulativeGasUsed": "0xce49",
      "logs": [
        {
          "address": "0x04de554e875c9797dc4cebd834a9e99fa8fd5df9",
          "topics": [
            "0xb21afb9ce9be0a676f8f317ff0ca072fb89a4f8ce2d1b6fe80f8755c14f1cb19",
            "0x0000000000000000000000002738f38fde510743e0c589415e0598c4cee6eaa7"
          ],
          "data": "0x0000000000000000000000000000000000000000000000000000000000000001",
          "blockHash": "0x06a9092ab8e3b92fd995bfca6c8c50a3331dcd0288c5c1bb884dc0fd5c359e18",
          "blockNumber": "0x11e838c",
          "blockTimestamp": "0x69b57f51",
          "transactionHash": "0x2c986a94f90a81f3e61f30c7fd689b26220840a2c69ed9644c87c00efab331e9",
          "transactionIndex": "0x0",
          "logIndex": "0x0",
          "removed": false
        }
      ],
      "logsBloom": "0x00000000000000000000000000000000000000008000000000000000000000000000000000000000000000000000000000000000000000040000000000000080002000000000000000001000000000000000000000000000000000000000000000000000000000000000000000000000000000000000000000000000000000000000000000000000000000000000000000000000000000000000200000000010000000000000000000000000000000000000000000000000000000000000000000000800000000000000000000000000000000000000000000000000000000000000000000000080000000000000000000000000000000000000000000000000",
      "transactionHash": "0x2c986a94f90a81f3e61f30c7fd689b26220840a2c69ed9644c87c00efab331e9",
      "transactionIndex": "0x0",
      "blockHash": "0x06a9092ab8e3b92fd995bfca6c8c50a3331dcd0288c5c1bb884dc0fd5c359e18",
      "blockNumber": "0x11e838c",
      "gasUsed": "0xce49",
      "effectiveGasPrice": "0x1287ffbfdb",
      "blobGasPrice": "0x1",
      "from": "0x2738f38fde510743e0c589415e0598c4cee6eaa7",
      "to": "0x04de554e875c9797dc4cebd834a9e99fa8fd5df9",
      "contractAddress": null
    },
    {
      "type": "0x2",
      "status": "0x1",
      "cumulativeGasUsed": "0xa197",
      "logs": [
        {
          "address": "0x04de554e875c9797dc4cebd834a9e99fa8fd5df9",
          "topics": [
            "0xddf252ad1be2c89b69c2b068fc378daa952ba7f163c4a11628f55a4df523b3ef",
            "0x0000000000000000000000000000000000000000000000000000000000000000",
            "0x0000000000000000000000002738f38fde510743e0c589415e0598c4cee6eaa7"
          ],
          "data": "0x000000000000000000000000000000000000000000084595161401484a000000",
          "blockHash": "0xd1e8445c3dcf56d1c46f1fec2eddd3ed6b92bb8992643fe4423dd98e3d339115",
          "blockNumber": "0x11e838d",
          "blockTimestamp": "0x69b57f51",
          "transactionHash": "0x7fb7613a54f5687b2c8b44cc28d2bd521276e52de29c05efeead4056f54283da",
          "transactionIndex": "0x0",
          "logIndex": "0x0",
          "removed": false
        }
      ],
      "logsBloom": "0x00000000000000000000000000000000000000008000000000000000000000000000000000000000000000000000000000000000000000000000000000000000002000000000000000001008000000000000000000000000000000000000000000000000020000000000000000000800000000000000000000000010000000000000000000000000000000000000000000000000000000000000000000000010000000000000000000000000000000000000000000000000000000000000000000000802000000000000000000000000000000000000000000000000000020000000000000000080000000000000000000000000000000000000000000000000",
      "transactionHash": "0x7fb7613a54f5687b2c8b44cc28d2bd521276e52de29c05efeead4056f54283da",
      "transactionIndex": "0x0",
      "blockHash": "0xd1e8445c3dcf56d1c46f1fec2eddd3ed6b92bb8992643fe4423dd98e3d339115",
      "blockNumber": "0x11e838d",
      "gasUsed": "0xa197",
      "effectiveGasPrice": "0x104da6f922",
      "blobGasPrice": "0x1",
      "from": "0x2738f38fde510743e0c589415e0598c4cee6eaa7",
      "to": "0x04de554e875c9797dc4cebd834a9e99fa8fd5df9",
      "contractAddress": null
    },
    {
      "type": "0x2",
      "status": "0x1",
      "cumulativeGasUsed": "0xce49",
      "logs": [
        {
          "address": "0x5ecc03111ad2a78f981a108759bc73bae2ab31bc",
          "topics": [
            "0xb21afb9ce9be0a676f8f317ff0ca072fb89a4f8ce2d1b6fe80f8755c14f1cb19",
            "0x0000000000000000000000002738f38fde510743e0c589415e0598c4cee6eaa7"
          ],
          "data": "0x0000000000000000000000000000000000000000000000000000000000000001",
          "blockHash": "0x3e861928a869de36e25f3c224bfaeaece919b4de35f5f71535513772796c530f",
          "blockNumber": "0x11e838e",
          "blockTimestamp": "0x69b57f51",
          "transactionHash": "0x411086648e0c02f6ffdc4bf4e59b358b56dec6857bb091dffce600330bf56173",
          "transactionIndex": "0x0",
          "logIndex": "0x0",
          "removed": false
        }
      ],
      "logsBloom": "0x00000000000000000000000000000000000000000000000000000000000000000000000000000000000000000000000000000000000000040000000000000080002000000000000004000000000000000000000000000000000000000000000000000000000000000000000000000000000000000000000000000000000000000000000000000000000000000000000000000000000000000000200000000010000000000000000000000000000000001000000000000000000000000200000000000800000000000000000000000000000000000000000000000000000000000000000000000000000000000000000000000000000000000000000000000000",
      "transactionHash": "0x411086648e0c02f6ffdc4bf4e59b358b56dec6857bb091dffce600330bf56173",
      "transactionIndex": "0x0",
      "blockHash": "0x3e861928a869de36e25f3c224bfaeaece919b4de35f5f71535513772796c530f",
      "blockNumber": "0x11e838e",
      "gasUsed": "0xce49",
      "effectiveGasPrice": "0xe5a810764",
      "blobGasPrice": "0x1",
      "from": "0x2738f38fde510743e0c589415e0598c4cee6eaa7",
      "to": "0x5ecc03111ad2a78f981a108759bc73bae2ab31bc",
      "contractAddress": null
    },
    {
      "type": "0x2",
      "status": "0x1",
      "cumulativeGasUsed": "0xa197",
      "logs": [
        {
          "address": "0x5ecc03111ad2a78f981a108759bc73bae2ab31bc",
          "topics": [
            "0xddf252ad1be2c89b69c2b068fc378daa952ba7f163c4a11628f55a4df523b3ef",
            "0x0000000000000000000000000000000000000000000000000000000000000000",
            "0x0000000000000000000000002738f38fde510743e0c589415e0598c4cee6eaa7"
          ],
          "data": "0x000000000000000000000000000000000000000000084595161401484a000000",
          "blockHash": "0x222188abd20236f366d708ad2e6a91b11000f52aa833b7d7ea30b3c86e6733e2",
          "blockNumber": "0x11e838f",
          "blockTimestamp": "0x69b57f51",
          "transactionHash": "0x86091e1bd82bc6d6730fd648202cf97ed9c7789855663db811b86d855d300303",
          "transactionIndex": "0x0",
          "logIndex": "0x0",
          "removed": false
        }
      ],
      "logsBloom": "0x00000000000000000000000000000000000000000000000000000000000000000000000000000000000000000000000000000000000000000000000000000000002000000000000004000008000000000000000000000000000000000000000000000000020000000000000000000800000000000000000000000010000000000000000000000000000000000000000000000000000000000000000000000010000000000000000000000000000000001000000000000000000000000200000000000802000000000000000000000000000000000000000000000000000020000000000000000000000000000000000000000000000000000000000000000000",
      "transactionHash": "0x86091e1bd82bc6d6730fd648202cf97ed9c7789855663db811b86d855d300303",
      "transactionIndex": "0x0",
      "blockHash": "0x222188abd20236f366d708ad2e6a91b11000f52aa833b7d7ea30b3c86e6733e2",
      "blockNumber": "0x11e838f",
      "gasUsed": "0xa197",
      "effectiveGasPrice": "0xca5c604f8",
      "blobGasPrice": "0x1",
      "from": "0x2738f38fde510743e0c589415e0598c4cee6eaa7",
      "to": "0x5ecc03111ad2a78f981a108759bc73bae2ab31bc",
      "contractAddress": null
    }
  ],
  "libraries": [
    "lib/mento-core/node_modules/@celo/contracts/common/linkedlists/AddressSortedLinkedListWithMedian.sol:AddressSortedLinkedListWithMedian:0x8E1B1312EC92C9f8073296c4Cf1E60D31d228269"
  ],
  "pending": [],
  "returns": {},
  "timestamp": 1773502289488,
  "chain": 10143,
  "commit": "ce72afd"
}