{
  "transactions": [
    {
      "hash": "0xee17f9910f9ef55e2538573d4600f99228df10782823df39cf5bee47aec9494e",
      "transactionType": "CALL",
      "contractName": null,
      "contractAddress": "0xba5ed099633d3b313e4d5f7bdc1305d3c28ba5ed",
      "function": "deployCreate3(bytes32,bytes)",
      "arguments": [
        "0x56fd3f2bee130e9867942d0f463a16fbe49b8d81000ce45a60fc8622c9fd0f3a",
        "0x608060405234801561000f575f5ffd5b50604051610c81380380610c8183398101604081905261002e9161017a565b808383600361003d8382610283565b50600461004a8282610283565b5050506001600160a01b03811661007a57604051631e4fbdf760e01b81525f600482015260240160405180910390fd5b6100838161008c565b5050505061033d565b600580546001600160a01b038381166001600160a01b0319831681179093556040519116919082907f8be0079c531659141344cd1fd0a4f28419497f9722a3daafe3b4186f6b6457e0905f90a35050565b634e487b7160e01b5f52604160045260245ffd5b5f82601f830112610100575f5ffd5b81516001600160401b03811115610119576101196100dd565b604051601f8201601f19908116603f011681016001600160401b0381118282101715610147576101476100dd565b60405281815283820160200185101561015e575f5ffd5b8160208501602083015e5f918101602001919091529392505050565b5f5f5f6060848603121561018c575f5ffd5b83516001600160401b038111156101a1575f5ffd5b6101ad868287016100f1565b602086015190945090506001600160401b038111156101ca575f5ffd5b6101d6868287016100f1565b604086015190935090506001600160a01b03811681146101f4575f5ffd5b809150509250925092565b600181811c9082168061021357607f821691505b60208210810361023157634e487b7160e01b5f52602260045260245ffd5b50919050565b601f82111561027e57805f5260205f20601f840160051c8101602085101561025c5750805b601f840160051c820191505b8181101561027b575f8155600101610268565b50505b505050565b81516001600160401b0381111561029c5761029c6100dd565b6102b0816102aa84546101ff565b84610237565b6020601f8211600181146102e2575f83156102cb5750848201515b5f19600385901b1c1916600184901b17845561027b565b5f84815260208120601f198516915b8281101561031157878501518255602094850194600190920191016102f1565b508482101561032e57868401515f19600387901b60f8161c191681555b50505050600190811b01905550565b6109378061034a5f395ff3fe608060405234801561000f575f5ffd5b50600436106100f0575f3560e01c806370a082311161009357806395d89b411161006357806395d89b41146101ef578063a9059cbb146101f7578063dd62ed3e1461020a578063f2fde38b14610242575f5ffd5b806370a0823114610191578063715018a6146101b957806379cc6790146101c15780638da5cb5b146101d4575f5ffd5b806323b872dd116100ce57806323b872dd14610147578063313ce5671461015a57806340c10f191461016957806342966c681461017e575f5ffd5b806306fdde03146100f4578063095ea7b31461011257806318160ddd14610135575b5f5ffd5b6100fc610255565b6040516101099190610790565b60405180910390f35b6101256101203660046107e0565b6102e5565b6040519015158152602001610109565b6002545b604051908152602001610109565b610125610155366004610808565b6102fe565b60405160128152602001610109565b61017c6101773660046107e0565b610321565b005b61017c61018c366004610842565b610337565b61013961019f366004610859565b6001600160a01b03165f9081526020819052604090205490565b61017c610344565b61017c6101cf3660046107e0565b610357565b6005546040516001600160a01b039091168152602001610109565b6100fc61036c565b6101256102053660046107e0565b61037b565b610139610218366004610879565b6001600160a01b039182165f90815260016020908152604080832093909416825291909152205490565b61017c610250366004610859565b610388565b606060038054610264906108aa565b80601f0160208091040260200160405190810160405280929190818152602001828054610290906108aa565b80156102db5780601f106102b2576101008083540402835291602001916102db565b820191905f5260205f20905b8154815290600101906020018083116102be57829003601f168201915b5050505050905090565b5f336102f28185856103c7565b60019150505b92915050565b5f3361030b8582856103d9565b610316858585610455565b506001949350505050565b6103296104b2565b61033382826104df565b5050565b6103413382610513565b50565b61034c6104b2565b6103555f610547565b565b6103628233836103d9565b6103338282610513565b606060048054610264906108aa565b5f336102f2818585610455565b6103906104b2565b6001600160a01b0381166103be57604051631e4fbdf760e01b81525f60048201526024015b60405180910390fd5b61034181610547565b6103d48383836001610598565b505050565b6001600160a01b038381165f908152600160209081526040808320938616835292905220545f1981101561044f578181101561044157604051637dc7a0d960e11b81526001600160a01b038416600482015260248101829052604481018390526064016103b5565b61044f84848484035f610598565b50505050565b6001600160a01b03831661047e57604051634b637e8f60e11b81525f60048201526024016103b5565b6001600160a01b0382166104a75760405163ec442f0560e01b81525f60048201526024016103b5565b6103d483838361066a565b6005546001600160a01b031633146103555760405163118cdaa760e01b81523360048201526024016103b5565b6001600160a01b0382166105085760405163ec442f0560e01b81525f60048201526024016103b5565b6103335f838361066a565b6001600160a01b03821661053c57604051634b637e8f60e11b81525f60048201526024016103b5565b610333825f8361066a565b600580546001600160a01b038381166001600160a01b0319831681179093556040519116919082907f8be0079c531659141344cd1fd0a4f28419497f9722a3daafe3b4186f6b6457e0905f90a35050565b6001600160a01b0384166105c15760405163e602df0560e01b81525f60048201526024016103b5565b6001600160a01b0383166105ea57604051634a1406b160e11b81525f60048201526024016103b5565b6001600160a01b038085165f908152600160209081526040808320938716835292905220829055801561044f57826001600160a01b0316846001600160a01b03167f8c5be1e5ebec7d5bd14f71427d1e84f3dd0314c0f7b2291e5b200ac8c7c3b9258460405161065c91815260200190565b60405180910390a350505050565b6001600160a01b038316610694578060025f82825461068991906108e2565b909155506107049050565b6001600160a01b0383165f90815260208190526040902054818110156106e65760405163391434e360e21b81526001600160a01b038516600482015260248101829052604481018390526064016103b5565b6001600160a01b0384165f9081526020819052604090209082900390555b6001600160a01b0382166107205760028054829003905561073e565b6001600160a01b0382165f9081526020819052604090208054820190555b816001600160a01b0316836001600160a01b03167fddf252ad1be2c89b69c2b068fc378daa952ba7f163c4a11628f55a4df523b3ef8360405161078391815260200190565b60405180910390a3505050565b602081525f82518060208401528060208501604085015e5f604082850101526040601f19601f83011684010191505092915050565b80356001600160a01b03811681146107db575f5ffd5b919050565b5f5f604083850312156107f1575f5ffd5b6107fa836107c5565b946020939093013593505050565b5f5f5f6060848603121561081a575f5ffd5b610823846107c5565b9250610831602085016107c5565b929592945050506040919091013590565b5f60208284031215610852575f5ffd5b5035919050565b5f60208284031215610869575f5ffd5b610872826107c5565b9392505050565b5f5f6040838503121561088a575f5ffd5b610893836107c5565b91506108a1602084016107c5565b90509250929050565b600181811c908216806108be57607f821691505b6020821081036108dc57634e487b7160e01b5f52602260045260245ffd5b50919050565b808201808211156102f857634e487b7160e01b5f52601160045260245ffdfea2646970667358221220c05b3e780c274c8206be588aabb8a314af6bf4defba67e688862c9dc6fc677ab64736f6c634300081e0033000000000000000000000000000000000000000000000000000000000000006000000000000000000000000000000000000000000000000000000000000000a000000000000000000000000056fd3f2bee130e9867942d0f463a16fbe49b8d81000000000000000000000000000000000000000000000000000000000000000f4d656e746f204d6f636b2055534443000000000000000000000000000000000000000000000000000000000000000000000000000000000000000000000000045553444300000000000000000000000000000000000000000000000000000000"
      ],
      "transaction": {
        "from": "0x56fd3f2bee130e9867942d0f463a16fbe49b8d81",
        "to": "0xba5ed099633d3b313e4d5f7bdc1305d3c28ba5ed",
        "gas": "0xeac23",
        "value": "0x0",
        "input": "0x9c36a28656fd3f2bee130e9867942d0f463a16fbe49b8d81000ce45a60fc8622c9fd0f3a00000000000000000000000000000000000000000000000000000000000000400000000000000000000000000000000000000000000000000000000000000d61608060405234801561000f575f5ffd5b50604051610c81380380610c8183398101604081905261002e9161017a565b808383600361003d8382610283565b50600461004a8282610283565b5050506001600160a01b03811661007a57604051631e4fbdf760e01b81525f600482015260240160405180910390fd5b6100838161008c565b5050505061033d565b600580546001600160a01b038381166001600160a01b0319831681179093556040519116919082907f8be0079c531659141344cd1fd0a4f28419497f9722a3daafe3b4186f6b6457e0905f90a35050565b634e487b7160e01b5f52604160045260245ffd5b5f82601f830112610100575f5ffd5b81516001600160401b03811115610119576101196100dd565b604051601f8201601f19908116603f011681016001600160401b0381118282101715610147576101476100dd565b60405281815283820160200185101561015e575f5ffd5b8160208501602083015e5f918101602001919091529392505050565b5f5f5f6060848603121561018c575f5ffd5b83516001600160401b038111156101a1575f5ffd5b6101ad868287016100f1565b602086015190945090506001600160401b038111156101ca575f5ffd5b6101d6868287016100f1565b604086015190935090506001600160a01b03811681146101f4575f5ffd5b809150509250925092565b600181811c9082168061021357607f821691505b60208210810361023157634e487b7160e01b5f52602260045260245ffd5b50919050565b601f82111561027e57805f5260205f20601f840160051c8101602085101561025c5750805b601f840160051c820191505b8181101561027b575f8155600101610268565b50505b505050565b81516001600160401b0381111561029c5761029c6100dd565b6102b0816102aa84546101ff565b84610237565b6020601f8211600181146102e2575f83156102cb5750848201515b5f19600385901b1c1916600184901b17845561027b565b5f84815260208120601f198516915b8281101561031157878501518255602094850194600190920191016102f1565b508482101561032e57868401515f19600387901b60f8161c191681555b50505050600190811b01905550565b6109378061034a5f395ff3fe608060405234801561000f575f5ffd5b50600436106100f0575f3560e01c806370a082311161009357806395d89b411161006357806395d89b41146101ef578063a9059cbb146101f7578063dd62ed3e1461020a578063f2fde38b14610242575f5ffd5b806370a0823114610191578063715018a6146101b957806379cc6790146101c15780638da5cb5b146101d4575f5ffd5b806323b872dd116100ce57806323b872dd14610147578063313ce5671461015a57806340c10f191461016957806342966c681461017e575f5ffd5b806306fdde03146100f4578063095ea7b31461011257806318160ddd14610135575b5f5ffd5b6100fc610255565b6040516101099190610790565b60405180910390f35b6101256101203660046107e0565b6102e5565b6040519015158152602001610109565b6002545b604051908152602001610109565b610125610155366004610808565b6102fe565b60405160128152602001610109565b61017c6101773660046107e0565b610321565b005b61017c61018c366004610842565b610337565b61013961019f366004610859565b6001600160a01b03165f9081526020819052604090205490565b61017c610344565b61017c6101cf3660046107e0565b610357565b6005546040516001600160a01b039091168152602001610109565b6100fc61036c565b6101256102053660046107e0565b61037b565b610139610218366004610879565b6001600160a01b039182165f90815260016020908152604080832093909416825291909152205490565b61017c610250366004610859565b610388565b606060038054610264906108aa565b80601f0160208091040260200160405190810160405280929190818152602001828054610290906108aa565b80156102db5780601f106102b2576101008083540402835291602001916102db565b820191905f5260205f20905b8154815290600101906020018083116102be57829003601f168201915b5050505050905090565b5f336102f28185856103c7565b60019150505b92915050565b5f3361030b8582856103d9565b610316858585610455565b506001949350505050565b6103296104b2565b61033382826104df565b5050565b6103413382610513565b50565b61034c6104b2565b6103555f610547565b565b6103628233836103d9565b6103338282610513565b606060048054610264906108aa565b5f336102f2818585610455565b6103906104b2565b6001600160a01b0381166103be57604051631e4fbdf760e01b81525f60048201526024015b60405180910390fd5b61034181610547565b6103d48383836001610598565b505050565b6001600160a01b038381165f908152600160209081526040808320938616835292905220545f1981101561044f578181101561044157604051637dc7a0d960e11b81526001600160a01b038416600482015260248101829052604481018390526064016103b5565b61044f84848484035f610598565b50505050565b6001600160a01b03831661047e57604051634b637e8f60e11b81525f60048201526024016103b5565b6001600160a01b0382166104a75760405163ec442f0560e01b81525f60048201526024016103b5565b6103d483838361066a565b6005546001600160a01b031633146103555760405163118cdaa760e01b81523360048201526024016103b5565b6001600160a01b0382166105085760405163ec442f0560e01b81525f60048201526024016103b5565b6103335f838361066a565b6001600160a01b03821661053c57604051634b637e8f60e11b81525f60048201526024016103b5565b610333825f8361066a565b600580546001600160a01b038381166001600160a01b0319831681179093556040519116919082907f8be0079c531659141344cd1fd0a4f28419497f9722a3daafe3b4186f6b6457e0905f90a35050565b6001600160a01b0384166105c15760405163e602df0560e01b81525f60048201526024016103b5565b6001600160a01b0383166105ea57604051634a1406b160e11b81525f60048201526024016103b5565b6001600160a01b038085165f908152600160209081526040808320938716835292905220829055801561044f57826001600160a01b0316846001600160a01b03167f8c5be1e5ebec7d5bd14f71427d1e84f3dd0314c0f7b2291e5b200ac8c7c3b9258460405161065c91815260200190565b60405180910390a350505050565b6001600160a01b038316610694578060025f82825461068991906108e2565b909155506107049050565b6001600160a01b0383165f90815260208190526040902054818110156106e65760405163391434e360e21b81526001600160a01b038516600482015260248101829052604481018390526064016103b5565b6001600160a01b0384165f9081526020819052604090209082900390555b6001600160a01b0382166107205760028054829003905561073e565b6001600160a01b0382165f9081526020819052604090208054820190555b816001600160a01b0316836001600160a01b03167fddf252ad1be2c89b69c2b068fc378daa952ba7f163c4a11628f55a4df523b3ef8360405161078391815260200190565b60405180910390a3505050565b602081525f82518060208401528060208501604085015e5f604082850101526040601f19601f83011684010191505092915050565b80356001600160a01b03811681146107db575f5ffd5b919050565b5f5f604083850312156107f1575f5ffd5b6107fa836107c5565b946020939093013593505050565b5f5f5f6060848603121561081a575f5ffd5b610823846107c5565b9250610831602085016107c5565b929592945050506040919091013590565b5f60208284031215610852575f5ffd5b5035919050565b5f60208284031215610869575f5ffd5b610872826107c5565b9392505050565b5f5f6040838503121561088a575f5ffd5b610893836107c5565b91506108a1602084016107c5565b90509250929050565b600181811c908216806108be57607f821691505b6020821081036108dc57634e487b7160e01b5f52602260045260245ffd5b50919050565b808201808211156102f857634e487b7160e01b5f52601160045260245ffdfea2646970667358221220c05b3e780c274c8206be588aabb8a314af6bf4defba67e688862c9dc6fc677ab64736f6c634300081e0033000000000000000000000000000000000000000000000000000000000000006000000000000000000000000000000000000000000000000000000000000000a000000000000000000000000056fd3f2bee130e9867942d0f463a16fbe49b8d81000000000000000000000000000000000000000000000000000000000000000f4d656e746f204d6f636b205553444300000000000000000000000000000000000000000000000000000000000000000000000000000000000000000000000004555344430000000000000000000000000000000000000000000000000000000000000000000000000000000000000000000000000000000000000000000000",
        "nonce": "0x568",
        "chainId": "0xaa044c"
      },
      "additionalContracts": [
        {
          "transactionType": "CREATE2",
          "address": "0x3df6c1dc280b1e328ec38703f80ce5e32606d131",
          "initCode": "0x67363d3d37363d34f03d5260086018f3"
        },
        {
          "transactionType": "CREATE",
          "address": "0x7d6bbd89b2f2a37b66fcf0f51b6dba1cf57cfefa",
          "initCode": "0x608060405234801561000f575f5ffd5b50604051610c81380380610c8183398101604081905261002e9161017a565b808383600361003d8382610283565b50600461004a8282610283565b5050506001600160a01b03811661007a57604051631e4fbdf760e01b81525f600482015260240160405180910390fd5b6100838161008c565b5050505061033d565b600580546001600160a01b038381166001600160a01b0319831681179093556040519116919082907f8be0079c531659141344cd1fd0a4f28419497f9722a3daafe3b4186f6b6457e0905f90a35050565b634e487b7160e01b5f52604160045260245ffd5b5f82601f830112610100575f5ffd5b81516001600160401b03811115610119576101196100dd565b604051601f8201601f19908116603f011681016001600160401b0381118282101715610147576101476100dd565b60405281815283820160200185101561015e575f5ffd5b8160208501602083015e5f918101602001919091529392505050565b5f5f5f6060848603121561018c575f5ffd5b83516001600160401b038111156101a1575f5ffd5b6101ad868287016100f1565b602086015190945090506001600160401b038111156101ca575f5ffd5b6101d6868287016100f1565b604086015190935090506001600160a01b03811681146101f4575f5ffd5b809150509250925092565b600181811c9082168061021357607f821691505b60208210810361023157634e487b7160e01b5f52602260045260245ffd5b50919050565b601f82111561027e57805f5260205f20601f840160051c8101602085101561025c5750805b601f840160051c820191505b8181101561027b575f8155600101610268565b50505b505050565b81516001600160401b0381111561029c5761029c6100dd565b6102b0816102aa84546101ff565b84610237565b6020601f8211600181146102e2575f83156102cb5750848201515b5f19600385901b1c1916600184901b17845561027b565b5f84815260208120601f198516915b8281101561031157878501518255602094850194600190920191016102f1565b508482101561032e57868401515f19600387901b60f8161c191681555b50505050600190811b01905550565b6109378061034a5f395ff3fe608060405234801561000f575f5ffd5b50600436106100f0575f3560e01c806370a082311161009357806395d89b411161006357806395d89b41146101ef578063a9059cbb146101f7578063dd62ed3e1461020a578063f2fde38b14610242575f5ffd5b806370a0823114610191578063715018a6146101b957806379cc6790146101c15780638da5cb5b146101d4575f5ffd5b806323b872dd116100ce57806323b872dd14610147578063313ce5671461015a57806340c10f191461016957806342966c681461017e575f5ffd5b806306fdde03146100f4578063095ea7b31461011257806318160ddd14610135575b5f5ffd5b6100fc610255565b6040516101099190610790565b60405180910390f35b6101256101203660046107e0565b6102e5565b6040519015158152602001610109565b6002545b604051908152602001610109565b610125610155366004610808565b6102fe565b60405160128152602001610109565b61017c6101773660046107e0565b610321565b005b61017c61018c366004610842565b610337565b61013961019f366004610859565b6001600160a01b03165f9081526020819052604090205490565b61017c610344565b61017c6101cf3660046107e0565b610357565b6005546040516001600160a01b039091168152602001610109565b6100fc61036c565b6101256102053660046107e0565b61037b565b610139610218366004610879565b6001600160a01b039182165f90815260016020908152604080832093909416825291909152205490565b61017c610250366004610859565b610388565b606060038054610264906108aa565b80601f0160208091040260200160405190810160405280929190818152602001828054610290906108aa565b80156102db5780601f106102b2576101008083540402835291602001916102db565b820191905f5260205f20905b8154815290600101906020018083116102be57829003601f168201915b5050505050905090565b5f336102f28185856103c7565b60019150505b92915050565b5f3361030b8582856103d9565b610316858585610455565b506001949350505050565b6103296104b2565b61033382826104df565b5050565b6103413382610513565b50565b61034c6104b2565b6103555f610547565b565b6103628233836103d9565b6103338282610513565b606060048054610264906108aa565b5f336102f2818585610455565b6103906104b2565b6001600160a01b0381166103be57604051631e4fbdf760e01b81525f60048201526024015b60405180910390fd5b61034181610547565b6103d48383836001610598565b505050565b6001600160a01b038381165f908152600160209081526040808320938616835292905220545f1981101561044f578181101561044157604051637dc7a0d960e11b81526001600160a01b038416600482015260248101829052604481018390526064016103b5565b61044f84848484035f610598565b50505050565b6001600160a01b03831661047e57604051634b637e8f60e11b81525f60048201526024016103b5565b6001600160a01b0382166104a75760405163ec442f0560e01b81525f60048201526024016103b5565b6103d483838361066a565b6005546001600160a01b031633146103555760405163118cdaa760e01b81523360048201526024016103b5565b6001600160a01b0382166105085760405163ec442f0560e01b81525f60048201526024016103b5565b6103335f838361066a565b6001600160a01b03821661053c57604051634b637e8f60e11b81525f60048201526024016103b5565b610333825f8361066a565b600580546001600160a01b038381166001600160a01b0319831681179093556040519116919082907f8be0079c531659141344cd1fd0a4f28419497f9722a3daafe3b4186f6b6457e0905f90a35050565b6001600160a01b0384166105c15760405163e602df0560e01b81525f60048201526024016103b5565b6001600160a01b0383166105ea57604051634a1406b160e11b81525f60048201526024016103b5565b6001600160a01b038085165f908152600160209081526040808320938716835292905220829055801561044f57826001600160a01b0316846001600160a01b03167f8c5be1e5ebec7d5bd14f71427d1e84f3dd0314c0f7b2291e5b200ac8c7c3b9258460405161065c91815260200190565b60405180910390a350505050565b6001600160a01b038316610694578060025f82825461068991906108e2565b909155506107049050565b6001600160a01b0383165f90815260208190526040902054818110156106e65760405163391434e360e21b81526001600160a01b038516600482015260248101829052604481018390526064016103b5565b6001600160a01b0384165f9081526020819052604090209082900390555b6001600160a01b0382166107205760028054829003905561073e565b6001600160a01b0382165f9081526020819052604090208054820190555b816001600160a01b0316836001600160a01b03167fddf252ad1be2c89b69c2b068fc378daa952ba7f163c4a11628f55a4df523b3ef8360405161078391815260200190565b60405180910390a3505050565b602081525f82518060208401528060208501604085015e5f604082850101526040601f19601f83011684010191505092915050565b80356001600160a01b03811681146107db575f5ffd5b919050565b5f5f604083850312156107f1575f5ffd5b6107fa836107c5565b946020939093013593505050565b5f5f5f6060848603121561081a575f5ffd5b610823846107c5565b9250610831602085016107c5565b929592945050506040919091013590565b5f60208284031215610852575f5ffd5b5035919050565b5f60208284031215610869575f5ffd5b610872826107c5565b9392505050565b5f5f6040838503121561088a575f5ffd5b610893836107c5565b91506108a1602084016107c5565b90509250929050565b600181811c908216806108be57607f821691505b6020821081036108dc57634e487b7160e01b5f52602260045260245ffd5b50919050565b808201808211156102f857634e487b7160e01b5f52601160045260245ffdfea2646970667358221220c05b3e780c274c8206be588aabb8a314af6bf4defba67e688862c9dc6fc677ab64736f6c634300081e0033000000000000000000000000000000000000000000000000000000000000006000000000000000000000000000000000000000000000000000000000000000a000000000000000000000000056fd3f2bee130e9867942d0f463a16fbe49b8d81000000000000000000000000000000000000000000000000000000000000000f4d656e746f204d6f636b2055534443000000000000000000000000000000000000000000000000000000000000000000000000000000000000000000000000045553444300000000000000000000000000000000000000000000000000000000"
        }
      ],
      "isFixedGasLimit": false
    },
    {
      "hash": "0x0df5cc696290b34fc0b2ecf94d700560594b1ccc6141fbe0e2164b54db0957aa",
      "transactionType": "CALL",
      "contractName": "MockERC20",
      "contractAddress": "0x7d6bbd89b2f2a37b66fcf0f51b6dba1cf57cfefa",
      "function": "mint(address,uint256)",
      "arguments": [
        "0x56fD3F2bEE130e9867942D0F463a16fBE49B8d81",
        "1000000000000000000000000"
      ],
      "transaction": {
        "from": "0x56fd3f2bee130e9867942d0f463a16fbe49b8d81",
        "to": "0x7d6bbd89b2f2a37b66fcf0f51b6dba1cf57cfefa",
        "gas": "0x193a9",
        "value": "0x0",
        "input": "0x40c10f1900000000000000000000000056fd3f2bee130e9867942d0f463a16fbe49b8d8100000000000000000000000000000000000000000000d3c21bcecceda1000000",
        "nonce": "0x569",
        "chainId": "0xaa044c"
      },
      "additionalContracts": [],
      "isFixedGasLimit": false
    },
    {
      "hash": "0x0e203e70f2fd405797b16c80d95c2fe6307b8f4ecccc05489cfff1b8575bce1f",
      "transactionType": "CALL",
      "contractName": null,
      "contractAddress": "0xba5ed099633d3b313e4d5f7bdc1305d3c28ba5ed",
      "function": "deployCreate3(bytes32,bytes)",
      "arguments": [
        "0x56fd3f2bee130e9867942d0f463a16fbe49b8d8100b0e6f3e86bf96c38ada69c",
        "0x608060405234801561000f575f5ffd5b50604051610c81380380610c8183398101604081905261002e9161017a565b808383600361003d8382610283565b50600461004a8282610283565b5050506001600160a01b03811661007a57604051631e4fbdf760e01b81525f600482015260240160405180910390fd5b6100838161008c565b5050505061033d565b600580546001600160a01b038381166001600160a01b0319831681179093556040519116919082907f8be0079c531659141344cd1fd0a4f28419497f9722a3daafe3b4186f6b6457e0905f90a35050565b634e487b7160e01b5f52604160045260245ffd5b5f82601f830112610100575f5ffd5b81516001600160401b03811115610119576101196100dd565b604051601f8201601f19908116603f011681016001600160401b0381118282101715610147576101476100dd565b60405281815283820160200185101561015e575f5ffd5b8160208501602083015e5f918101602001919091529392505050565b5f5f5f6060848603121561018c575f5ffd5b83516001600160401b038111156101a1575f5ffd5b6101ad868287016100f1565b602086015190945090506001600160401b038111156101ca575f5ffd5b6101d6868287016100f1565b604086015190935090506001600160a01b03811681146101f4575f5ffd5b809150509250925092565b600181811c9082168061021357607f821691505b60208210810361023157634e487b7160e01b5f52602260045260245ffd5b50919050565b601f82111561027e57805f5260205f20601f840160051c8101602085101561025c5750805b601f840160051c820191505b8181101561027b575f8155600101610268565b50505b505050565b81516001600160401b0381111561029c5761029c6100dd565b6102b0816102aa84546101ff565b84610237565b6020601f8211600181146102e2575f83156102cb5750848201515b5f19600385901b1c1916600184901b17845561027b565b5f84815260208120601f198516915b8281101561031157878501518255602094850194600190920191016102f1565b508482101561032e57868401515f19600387901b60f8161c191681555b50505050600190811b01905550565b6109378061034a5f395ff3fe608060405234801561000f575f5ffd5b50600436106100f0575f3560e01c806370a082311161009357806395d89b411161006357806395d89b41146101ef578063a9059cbb146101f7578063dd62ed3e1461020a578063f2fde38b14610242575f5ffd5b806370a0823114610191578063715018a6146101b957806379cc6790146101c15780638da5cb5b146101d4575f5ffd5b806323b872dd116100ce57806323b872dd14610147578063313ce5671461015a57806340c10f191461016957806342966c681461017e575f5ffd5b806306fdde03146100f4578063095ea7b31461011257806318160ddd14610135575b5f5ffd5b6100fc610255565b6040516101099190610790565b60405180910390f35b6101256101203660046107e0565b6102e5565b6040519015158152602001610109565b6002545b604051908152602001610109565b610125610155366004610808565b6102fe565b60405160128152602001610109565b61017c6101773660046107e0565b610321565b005b61017c61018c366004610842565b610337565b61013961019f366004610859565b6001600160a01b03165f9081526020819052604090205490565b61017c610344565b61017c6101cf3660046107e0565b610357565b6005546040516001600160a01b039091168152602001610109565b6100fc61036c565b6101256102053660046107e0565b61037b565b610139610218366004610879565b6001600160a01b039182165f90815260016020908152604080832093909416825291909152205490565b61017c610250366004610859565b610388565b606060038054610264906108aa565b80601f0160208091040260200160405190810160405280929190818152602001828054610290906108aa565b80156102db5780601f106102b2576101008083540402835291602001916102db565b820191905f5260205f20905b8154815290600101906020018083116102be57829003601f168201915b5050505050905090565b5f336102f28185856103c7565b60019150505b92915050565b5f3361030b8582856103d9565b610316858585610455565b506001949350505050565b6103296104b2565b61033382826104df565b5050565b6103413382610513565b50565b61034c6104b2565b6103555f610547565b565b6103628233836103d9565b6103338282610513565b606060048054610264906108aa565b5f336102f2818585610455565b6103906104b2565b6001600160a01b0381166103be57604051631e4fbdf760e01b81525f60048201526024015b60405180910390fd5b61034181610547565b6103d48383836001610598565b505050565b6001600160a01b038381165f908152600160209081526040808320938616835292905220545f1981101561044f578181101561044157604051637dc7a0d960e11b81526001600160a01b038416600482015260248101829052604481018390526064016103b5565b61044f84848484035f610598565b50505050565b6001600160a01b03831661047e57604051634b637e8f60e11b81525f60048201526024016103b5565b6001600160a01b0382166104a75760405163ec442f0560e01b81525f60048201526024016103b5565b6103d483838361066a565b6005546001600160a01b031633146103555760405163118cdaa760e01b81523360048201526024016103b5565b6001600160a01b0382166105085760405163ec442f0560e01b81525f60048201526024016103b5565b6103335f838361066a565b6001600160a01b03821661053c57604051634b637e8f60e11b81525f60048201526024016103b5565b610333825f8361066a565b600580546001600160a01b038381166001600160a01b0319831681179093556040519116919082907f8be0079c531659141344cd1fd0a4f28419497f9722a3daafe3b4186f6b6457e0905f90a35050565b6001600160a01b0384166105c15760405163e602df0560e01b81525f60048201526024016103b5565b6001600160a01b0383166105ea57604051634a1406b160e11b81525f60048201526024016103b5565b6001600160a01b038085165f908152600160209081526040808320938716835292905220829055801561044f57826001600160a01b0316846001600160a01b03167f8c5be1e5ebec7d5bd14f71427d1e84f3dd0314c0f7b2291e5b200ac8c7c3b9258460405161065c91815260200190565b60405180910390a350505050565b6001600160a01b038316610694578060025f82825461068991906108e2565b909155506107049050565b6001600160a01b0383165f90815260208190526040902054818110156106e65760405163391434e360e21b81526001600160a01b038516600482015260248101829052604481018390526064016103b5565b6001600160a01b0384165f9081526020819052604090209082900390555b6001600160a01b0382166107205760028054829003905561073e565b6001600160a01b0382165f9081526020819052604090208054820190555b816001600160a01b0316836001600160a01b03167fddf252ad1be2c89b69c2b068fc378daa952ba7f163c4a11628f55a4df523b3ef8360405161078391815260200190565b60405180910390a3505050565b602081525f82518060208401528060208501604085015e5f604082850101526040601f19601f83011684010191505092915050565b80356001600160a01b03811681146107db575f5ffd5b919050565b5f5f604083850312156107f1575f5ffd5b6107fa836107c5565b946020939093013593505050565b5f5f5f6060848603121561081a575f5ffd5b610823846107c5565b9250610831602085016107c5565b929592945050506040919091013590565b5f60208284031215610852575f5ffd5b5035919050565b5f60208284031215610869575f5ffd5b610872826107c5565b9392505050565b5f5f6040838503121561088a575f5ffd5b610893836107c5565b91506108a1602084016107c5565b90509250929050565b600181811c908216806108be57607f821691505b6020821081036108dc57634e487b7160e01b5f52602260045260245ffd5b50919050565b808201808211156102f857634e487b7160e01b5f52601160045260245ffdfea2646970667358221220c05b3e780c274c8206be588aabb8a314af6bf4defba67e688862c9dc6fc677ab64736f6c634300081e0033000000000000000000000000000000000000000000000000000000000000006000000000000000000000000000000000000000000000000000000000000000a000000000000000000000000056fd3f2bee130e9867942d0f463a16fbe49b8d81000000000000000000000000000000000000000000000000000000000000000f4d656e746f204d6f636b2055534454000000000000000000000000000000000000000000000000000000000000000000000000000000000000000000000000045553445400000000000000000000000000000000000000000000000000000000"
      ],
      "transaction": {
        "from": "0x56fd3f2bee130e9867942d0f463a16fbe49b8d81",
        "to": "0xba5ed099633d3b313e4d5f7bdc1305d3c28ba5ed",
        "gas": "0xeac23",
        "value": "0x0",
        "input": "0x9c36a28656fd3f2bee130e9867942d0f463a16fbe49b8d8100b0e6f3e86bf96c38ada69c00000000000000000000000000000000000000000000000000000000000000400000000000000000000000000000000000000000000000000000000000000d61608060405234801561000f575f5ffd5b50604051610c81380380610c8183398101604081905261002e9161017a565b808383600361003d8382610283565b50600461004a8282610283565b5050506001600160a01b03811661007a57604051631e4fbdf760e01b81525f600482015260240160405180910390fd5b6100838161008c565b5050505061033d565b600580546001600160a01b038381166001600160a01b0319831681179093556040519116919082907f8be0079c531659141344cd1fd0a4f28419497f9722a3daafe3b4186f6b6457e0905f90a35050565b634e487b7160e01b5f52604160045260245ffd5b5f82601f830112610100575f5ffd5b81516001600160401b03811115610119576101196100dd565b604051601f8201601f19908116603f011681016001600160401b0381118282101715610147576101476100dd565b60405281815283820160200185101561015e575f5ffd5b8160208501602083015e5f918101602001919091529392505050565b5f5f5f6060848603121561018c575f5ffd5b83516001600160401b038111156101a1575f5ffd5b6101ad868287016100f1565b602086015190945090506001600160401b038111156101ca575f5ffd5b6101d6868287016100f1565b604086015190935090506001600160a01b03811681146101f4575f5ffd5b809150509250925092565b600181811c9082168061021357607f821691505b60208210810361023157634e487b7160e01b5f52602260045260245ffd5b50919050565b601f82111561027e57805f5260205f20601f840160051c8101602085101561025c5750805b601f840160051c820191505b8181101561027b575f8155600101610268565b50505b505050565b81516001600160401b0381111561029c5761029c6100dd565b6102b0816102aa84546101ff565b84610237565b6020601f8211600181146102e2575f83156102cb5750848201515b5f19600385901b1c1916600184901b17845561027b565b5f84815260208120601f198516915b8281101561031157878501518255602094850194600190920191016102f1565b508482101561032e57868401515f19600387901b60f8161c191681555b50505050600190811b01905550565b6109378061034a5f395ff3fe608060405234801561000f575f5ffd5b50600436106100f0575f3560e01c806370a082311161009357806395d89b411161006357806395d89b41146101ef578063a9059cbb146101f7578063dd62ed3e1461020a578063f2fde38b14610242575f5ffd5b806370a0823114610191578063715018a6146101b957806379cc6790146101c15780638da5cb5b146101d4575f5ffd5b806323b872dd116100ce57806323b872dd14610147578063313ce5671461015a57806340c10f191461016957806342966c681461017e575f5ffd5b806306fdde03146100f4578063095ea7b31461011257806318160ddd14610135575b5f5ffd5b6100fc610255565b6040516101099190610790565b60405180910390f35b6101256101203660046107e0565b6102e5565b6040519015158152602001610109565b6002545b604051908152602001610109565b610125610155366004610808565b6102fe565b60405160128152602001610109565b61017c6101773660046107e0565b610321565b005b61017c61018c366004610842565b610337565b61013961019f366004610859565b6001600160a01b03165f9081526020819052604090205490565b61017c610344565b61017c6101cf3660046107e0565b610357565b6005546040516001600160a01b039091168152602001610109565b6100fc61036c565b6101256102053660046107e0565b61037b565b610139610218366004610879565b6001600160a01b039182165f90815260016020908152604080832093909416825291909152205490565b61017c610250366004610859565b610388565b606060038054610264906108aa565b80601f0160208091040260200160405190810160405280929190818152602001828054610290906108aa565b80156102db5780601f106102b2576101008083540402835291602001916102db565b820191905f5260205f20905b8154815290600101906020018083116102be57829003601f168201915b5050505050905090565b5f336102f28185856103c7565b60019150505b92915050565b5f3361030b8582856103d9565b610316858585610455565b506001949350505050565b6103296104b2565b61033382826104df565b5050565b6103413382610513565b50565b61034c6104b2565b6103555f610547565b565b6103628233836103d9565b6103338282610513565b606060048054610264906108aa565b5f336102f2818585610455565b6103906104b2565b6001600160a01b0381166103be57604051631e4fbdf760e01b81525f60048201526024015b60405180910390fd5b61034181610547565b6103d48383836001610598565b505050565b6001600160a01b038381165f908152600160209081526040808320938616835292905220545f1981101561044f578181101561044157604051637dc7a0d960e11b81526001600160a01b038416600482015260248101829052604481018390526064016103b5565b61044f84848484035f610598565b50505050565b6001600160a01b03831661047e57604051634b637e8f60e11b81525f60048201526024016103b5565b6001600160a01b0382166104a75760405163ec442f0560e01b81525f60048201526024016103b5565b6103d483838361066a565b6005546001600160a01b031633146103555760405163118cdaa760e01b81523360048201526024016103b5565b6001600160a01b0382166105085760405163ec442f0560e01b81525f60048201526024016103b5565b6103335f838361066a565b6001600160a01b03821661053c57604051634b637e8f60e11b81525f60048201526024016103b5565b610333825f8361066a565b600580546001600160a01b038381166001600160a01b0319831681179093556040519116919082907f8be0079c531659141344cd1fd0a4f28419497f9722a3daafe3b4186f6b6457e0905f90a35050565b6001600160a01b0384166105c15760405163e602df0560e01b81525f60048201526024016103b5565b6001600160a01b0383166105ea57604051634a1406b160e11b81525f60048201526024016103b5565b6001600160a01b038085165f908152600160209081526040808320938716835292905220829055801561044f57826001600160a01b0316846001600160a01b03167f8c5be1e5ebec7d5bd14f71427d1e84f3dd0314c0f7b2291e5b200ac8c7c3b9258460405161065c91815260200190565b60405180910390a350505050565b6001600160a01b038316610694578060025f82825461068991906108e2565b909155506107049050565b6001600160a01b0383165f90815260208190526040902054818110156106e65760405163391434e360e21b81526001600160a01b038516600482015260248101829052604481018390526064016103b5565b6001600160a01b0384165f9081526020819052604090209082900390555b6001600160a01b0382166107205760028054829003905561073e565b6001600160a01b0382165f9081526020819052604090208054820190555b816001600160a01b0316836001600160a01b03167fddf252ad1be2c89b69c2b068fc378daa952ba7f163c4a11628f55a4df523b3ef8360405161078391815260200190565b60405180910390a3505050565b602081525f82518060208401528060208501604085015e5f604082850101526040601f19601f83011684010191505092915050565b80356001600160a01b03811681146107db575f5ffd5b919050565b5f5f604083850312156107f1575f5ffd5b6107fa836107c5565b946020939093013593505050565b5f5f5f6060848603121561081a575f5ffd5b610823846107c5565b9250610831602085016107c5565b929592945050506040919091013590565b5f60208284031215610852575f5ffd5b5035919050565b5f60208284031215610869575f5ffd5b610872826107c5565b9392505050565b5f5f6040838503121561088a575f5ffd5b610893836107c5565b91506108a1602084016107c5565b90509250929050565b600181811c908216806108be57607f821691505b6020821081036108dc57634e487b7160e01b5f52602260045260245ffd5b50919050565b808201808211156102f857634e487b7160e01b5f52601160045260245ffdfea2646970667358221220c05b3e780c274c8206be588aabb8a314af6bf4defba67e688862c9dc6fc677ab64736f6c634300081e0033000000000000000000000000000000000000000000000000000000000000006000000000000000000000000000000000000000000000000000000000000000a000000000000000000000000056fd3f2bee130e9867942d0f463a16fbe49b8d81000000000000000000000000000000000000000000000000000000000000000f4d656e746f204d6f636b205553445400000000000000000000000000000000000000000000000000000000000000000000000000000000000000000000000004555344540000000000000000000000000000000000000000000000000000000000000000000000000000000000000000000000000000000000000000000000",
        "nonce": "0x56a",
        "chainId": "0xaa044c"
      },
      "additionalContracts": [
        {
          "transactionType": "CREATE2",
          "address": "0x62f07fb9f7fb057dd1d6933210ab438e87a24ff1",
          "initCode": "0x67363d3d37363d34f03d5260086018f3"
        },
        {
          "transactionType": "CREATE",
          "address": "0x0de4cb6060ee8ec4a4c657a8789335e22e684091",
          "initCode": "0x608060405234801561000f575f5ffd5b50604051610c81380380610c8183398101604081905261002e9161017a565b808383600361003d8382610283565b50600461004a8282610283565b5050506001600160a01b03811661007a57604051631e4fbdf760e01b81525f600482015260240160405180910390fd5b6100838161008c565b5050505061033d565b600580546001600160a01b038381166001600160a01b0319831681179093556040519116919082907f8be0079c531659141344cd1fd0a4f28419497f9722a3daafe3b4186f6b6457e0905f90a35050565b634e487b7160e01b5f52604160045260245ffd5b5f82601f830112610100575f5ffd5b81516001600160401b03811115610119576101196100dd565b604051601f8201601f19908116603f011681016001600160401b0381118282101715610147576101476100dd565b60405281815283820160200185101561015e575f5ffd5b8160208501602083015e5f918101602001919091529392505050565b5f5f5f6060848603121561018c575f5ffd5b83516001600160401b038111156101a1575f5ffd5b6101ad868287016100f1565b602086015190945090506001600160401b038111156101ca575f5ffd5b6101d6868287016100f1565b604086015190935090506001600160a01b03811681146101f4575f5ffd5b809150509250925092565b600181811c9082168061021357607f821691505b60208210810361023157634e487b7160e01b5f52602260045260245ffd5b50919050565b601f82111561027e57805f5260205f20601f840160051c8101602085101561025c5750805b601f840160051c820191505b8181101561027b575f8155600101610268565b50505b505050565b81516001600160401b0381111561029c5761029c6100dd565b6102b0816102aa84546101ff565b84610237565b6020601f8211600181146102e2575f83156102cb5750848201515b5f19600385901b1c1916600184901b17845561027b565b5f84815260208120601f198516915b8281101561031157878501518255602094850194600190920191016102f1565b508482101561032e57868401515f19600387901b60f8161c191681555b50505050600190811b01905550565b6109378061034a5f395ff3fe608060405234801561000f575f5ffd5b50600436106100f0575f3560e01c806370a082311161009357806395d89b411161006357806395d89b41146101ef578063a9059cbb146101f7578063dd62ed3e1461020a578063f2fde38b14610242575f5ffd5b806370a0823114610191578063715018a6146101b957806379cc6790146101c15780638da5cb5b146101d4575f5ffd5b806323b872dd116100ce57806323b872dd14610147578063313ce5671461015a57806340c10f191461016957806342966c681461017e575f5ffd5b806306fdde03146100f4578063095ea7b31461011257806318160ddd14610135575b5f5ffd5b6100fc610255565b6040516101099190610790565b60405180910390f35b6101256101203660046107e0565b6102e5565b6040519015158152602001610109565b6002545b604051908152602001610109565b610125610155366004610808565b6102fe565b60405160128152602001610109565b61017c6101773660046107e0565b610321565b005b61017c61018c366004610842565b610337565b61013961019f366004610859565b6001600160a01b03165f9081526020819052604090205490565b61017c610344565b61017c6101cf3660046107e0565b610357565b6005546040516001600160a01b039091168152602001610109565b6100fc61036c565b6101256102053660046107e0565b61037b565b610139610218366004610879565b6001600160a01b039182165f90815260016020908152604080832093909416825291909152205490565b61017c610250366004610859565b610388565b606060038054610264906108aa565b80601f0160208091040260200160405190810160405280929190818152602001828054610290906108aa565b80156102db5780601f106102b2576101008083540402835291602001916102db565b820191905f5260205f20905b8154815290600101906020018083116102be57829003601f168201915b5050505050905090565b5f336102f28185856103c7565b60019150505b92915050565b5f3361030b8582856103d9565b610316858585610455565b506001949350505050565b6103296104b2565b61033382826104df565b5050565b6103413382610513565b50565b61034c6104b2565b6103555f610547565b565b6103628233836103d9565b6103338282610513565b606060048054610264906108aa565b5f336102f2818585610455565b6103906104b2565b6001600160a01b0381166103be57604051631e4fbdf760e01b81525f60048201526024015b60405180910390fd5b61034181610547565b6103d48383836001610598565b505050565b6001600160a01b038381165f908152600160209081526040808320938616835292905220545f1981101561044f578181101561044157604051637dc7a0d960e11b81526001600160a01b038416600482015260248101829052604481018390526064016103b5565b61044f84848484035f610598565b50505050565b6001600160a01b03831661047e57604051634b637e8f60e11b81525f60048201526024016103b5565b6001600160a01b0382166104a75760405163ec442f0560e01b81525f60048201526024016103b5565b6103d483838361066a565b6005546001600160a01b031633146103555760405163118cdaa760e01b81523360048201526024016103b5565b6001600160a01b0382166105085760405163ec442f0560e01b81525f60048201526024016103b5565b6103335f838361066a565b6001600160a01b03821661053c57604051634b637e8f60e11b81525f60048201526024016103b5565b610333825f8361066a565b600580546001600160a01b038381166001600160a01b0319831681179093556040519116919082907f8be0079c531659141344cd1fd0a4f28419497f9722a3daafe3b4186f6b6457e0905f90a35050565b6001600160a01b0384166105c15760405163e602df0560e01b81525f60048201526024016103b5565b6001600160a01b0383166105ea57604051634a1406b160e11b81525f60048201526024016103b5565b6001600160a01b038085165f908152600160209081526040808320938716835292905220829055801561044f57826001600160a01b0316846001600160a01b03167f8c5be1e5ebec7d5bd14f71427d1e84f3dd0314c0f7b2291e5b200ac8c7c3b9258460405161065c91815260200190565b60405180910390a350505050565b6001600160a01b038316610694578060025f82825461068991906108e2565b909155506107049050565b6001600160a01b0383165f90815260208190526040902054818110156106e65760405163391434e360e21b81526001600160a01b038516600482015260248101829052604481018390526064016103b5565b6001600160a01b0384165f9081526020819052604090209082900390555b6001600160a01b0382166107205760028054829003905561073e565b6001600160a01b0382165f9081526020819052604090208054820190555b816001600160a01b0316836001600160a01b03167fddf252ad1be2c89b69c2b068fc378daa952ba7f163c4a11628f55a4df523b3ef8360405161078391815260200190565b60405180910390a3505050565b602081525f82518060208401528060208501604085015e5f604082850101526040601f19601f83011684010191505092915050565b80356001600160a01b03811681146107db575f5ffd5b919050565b5f5f604083850312156107f1575f5ffd5b6107fa836107c5565b946020939093013593505050565b5f5f5f6060848603121561081a575f5ffd5b610823846107c5565b9250610831602085016107c5565b929592945050506040919091013590565b5f60208284031215610852575f5ffd5b5035919050565b5f60208284031215610869575f5ffd5b610872826107c5565b9392505050565b5f5f6040838503121561088a575f5ffd5b610893836107c5565b91506108a1602084016107c5565b90509250929050565b600181811c908216806108be57607f821691505b6020821081036108dc57634e487b7160e01b5f52602260045260245ffd5b50919050565b808201808211156102f857634e487b7160e01b5f52601160045260245ffdfea2646970667358221220c05b3e780c274c8206be588aabb8a314af6bf4defba67e688862c9dc6fc677ab64736f6c634300081e0033000000000000000000000000000000000000000000000000000000000000006000000000000000000000000000000000000000000000000000000000000000a000000000000000000000000056fd3f2bee130e9867942d0f463a16fbe49b8d81000000000000000000000000000000000000000000000000000000000000000f4d656e746f204d6f636b2055534454000000000000000000000000000000000000000000000000000000000000000000000000000000000000000000000000045553445400000000000000000000000000000000000000000000000000000000"
        }
      ],
      "isFixedGasLimit": false
    },
    {
      "hash": "0x5ec38fc80d5521e5c0c72bdb793c233dde603c1cf880540ce162737fcf5c2fdb",
      "transactionType": "CALL",
      "contractName": "MockERC20",
      "contractAddress": "0x0de4cb6060ee8ec4a4c657a8789335e22e684091",
      "function": "mint(address,uint256)",
      "arguments": [
        "0x56fD3F2bEE130e9867942D0F463a16fBE49B8d81",
        "1000000000000000000000000"
      ],
      "transaction": {
        "from": "0x56fd3f2bee130e9867942d0f463a16fbe49b8d81",
        "to": "0x0de4cb6060ee8ec4a4c657a8789335e22e684091",
        "gas": "0x193a9",
        "value": "0x0",
        "input": "0x40c10f1900000000000000000000000056fd3f2bee130e9867942d0f463a16fbe49b8d8100000000000000000000000000000000000000000000d3c21bcecceda1000000",
        "nonce": "0x56b",
        "chainId": "0xaa044c"
      },
      "additionalContracts": [],
      "isFixedGasLimit": false
    },
    {
      "hash": "0x9055fa0beafb293248ff86ecd632831499dbe48554080013dc1881a9125350bb",
      "transactionType": "CALL",
      "contractName": null,
      "contractAddress": "0xba5ed099633d3b313e4d5f7bdc1305d3c28ba5ed",
      "function": "deployCreate3(bytes32,bytes)",
      "arguments": [
        "0x56fd3f2bee130e9867942d0f463a16fbe49b8d8100ea70ae71de3f59faac593c",
        "0x608060405234801561000f575f5ffd5b50604051610c81380380610c8183398101604081905261002e9161017a565b808383600361003d8382610283565b50600461004a8282610283565b5050506001600160a01b03811661007a57604051631e4fbdf760e01b81525f600482015260240160405180910390fd5b6100838161008c565b5050505061033d565b600580546001600160a01b038381166001600160a01b0319831681179093556040519116919082907f8be0079c531659141344cd1fd0a4f28419497f9722a3daafe3b4186f6b6457e0905f90a35050565b634e487b7160e01b5f52604160045260245ffd5b5f82601f830112610100575f5ffd5b81516001600160401b03811115610119576101196100dd565b604051601f8201601f19908116603f011681016001600160401b0381118282101715610147576101476100dd565b60405281815283820160200185101561015e575f5ffd5b8160208501602083015e5f918101602001919091529392505050565b5f5f5f6060848603121561018c575f5ffd5b83516001600160401b038111156101a1575f5ffd5b6101ad868287016100f1565b602086015190945090506001600160401b038111156101ca575f5ffd5b6101d6868287016100f1565b604086015190935090506001600160a01b03811681146101f4575f5ffd5b809150509250925092565b600181811c9082168061021357607f821691505b60208210810361023157634e487b7160e01b5f52602260045260245ffd5b50919050565b601f82111561027e57805f5260205f20601f840160051c8101602085101561025c5750805b601f840160051c820191505b8181101561027b575f8155600101610268565b50505b505050565b81516001600160401b0381111561029c5761029c6100dd565b6102b0816102aa84546101ff565b84610237565b6020601f8211600181146102e2575f83156102cb5750848201515b5f19600385901b1c1916600184901b17845561027b565b5f84815260208120601f198516915b8281101561031157878501518255602094850194600190920191016102f1565b508482101561032e57868401515f19600387901b60f8161c191681555b50505050600190811b01905550565b6109378061034a5f395ff3fe608060405234801561000f575f5ffd5b50600436106100f0575f3560e01c806370a082311161009357806395d89b411161006357806395d89b41146101ef578063a9059cbb146101f7578063dd62ed3e1461020a578063f2fde38b14610242575f5ffd5b806370a0823114610191578063715018a6146101b957806379cc6790146101c15780638da5cb5b146101d4575f5ffd5b806323b872dd116100ce57806323b872dd14610147578063313ce5671461015a57806340c10f191461016957806342966c681461017e575f5ffd5b806306fdde03146100f4578063095ea7b31461011257806318160ddd14610135575b5f5ffd5b6100fc610255565b6040516101099190610790565b60405180910390f35b6101256101203660046107e0565b6102e5565b6040519015158152602001610109565b6002545b604051908152602001610109565b610125610155366004610808565b6102fe565b60405160128152602001610109565b61017c6101773660046107e0565b610321565b005b61017c61018c366004610842565b610337565b61013961019f366004610859565b6001600160a01b03165f9081526020819052604090205490565b61017c610344565b61017c6101cf3660046107e0565b610357565b6005546040516001600160a01b039091168152602001610109565b6100fc61036c565b6101256102053660046107e0565b61037b565b610139610218366004610879565b6001600160a01b039182165f90815260016020908152604080832093909416825291909152205490565b61017c610250366004610859565b610388565b606060038054610264906108aa565b80601f0160208091040260200160405190810160405280929190818152602001828054610290906108aa565b80156102db5780601f106102b2576101008083540402835291602001916102db565b820191905f5260205f20905b8154815290600101906020018083116102be57829003601f168201915b5050505050905090565b5f336102f28185856103c7565b60019150505b92915050565b5f3361030b8582856103d9565b610316858585610455565b506001949350505050565b6103296104b2565b61033382826104df565b5050565b6103413382610513565b50565b61034c6104b2565b6103555f610547565b565b6103628233836103d9565b6103338282610513565b606060048054610264906108aa565b5f336102f2818585610455565b6103906104b2565b6001600160a01b0381166103be57604051631e4fbdf760e01b81525f60048201526024015b60405180910390fd5b61034181610547565b6103d48383836001610598565b505050565b6001600160a01b038381165f908152600160209081526040808320938616835292905220545f1981101561044f578181101561044157604051637dc7a0d960e11b81526001600160a01b038416600482015260248101829052604481018390526064016103b5565b61044f84848484035f610598565b50505050565b6001600160a01b03831661047e57604051634b637e8f60e11b81525f60048201526024016103b5565b6001600160a01b0382166104a75760405163ec442f0560e01b81525f60048201526024016103b5565b6103d483838361066a565b6005546001600160a01b031633146103555760405163118cdaa760e01b81523360048201526024016103b5565b6001600160a01b0382166105085760405163ec442f0560e01b81525f60048201526024016103b5565b6103335f838361066a565b6001600160a01b03821661053c57604051634b637e8f60e11b81525f60048201526024016103b5565b610333825f8361066a565b600580546001600160a01b038381166001600160a01b0319831681179093556040519116919082907f8be0079c531659141344cd1fd0a4f28419497f9722a3daafe3b4186f6b6457e0905f90a35050565b6001600160a01b0384166105c15760405163e602df0560e01b81525f60048201526024016103b5565b6001600160a01b0383166105ea57604051634a1406b160e11b81525f60048201526024016103b5565b6001600160a01b038085165f908152600160209081526040808320938716835292905220829055801561044f57826001600160a01b0316846001600160a01b03167f8c5be1e5ebec7d5bd14f71427d1e84f3dd0314c0f7b2291e5b200ac8c7c3b9258460405161065c91815260200190565b60405180910390a350505050565b6001600160a01b038316610694578060025f82825461068991906108e2565b909155506107049050565b6001600160a01b0383165f90815260208190526040902054818110156106e65760405163391434e360e21b81526001600160a01b038516600482015260248101829052604481018390526064016103b5565b6001600160a01b0384165f9081526020819052604090209082900390555b6001600160a01b0382166107205760028054829003905561073e565b6001600160a01b0382165f9081526020819052604090208054820190555b816001600160a01b0316836001600160a01b03167fddf252ad1be2c89b69c2b068fc378daa952ba7f163c4a11628f55a4df523b3ef8360405161078391815260200190565b60405180910390a3505050565b602081525f82518060208401528060208501604085015e5f604082850101526040601f19601f83011684010191505092915050565b80356001600160a01b03811681146107db575f5ffd5b919050565b5f5f604083850312156107f1575f5ffd5b6107fa836107c5565b946020939093013593505050565b5f5f5f6060848603121561081a575f5ffd5b610823846107c5565b9250610831602085016107c5565b929592945050506040919091013590565b5f60208284031215610852575f5ffd5b5035919050565b5f60208284031215610869575f5ffd5b610872826107c5565b9392505050565b5f5f6040838503121561088a575f5ffd5b610893836107c5565b91506108a1602084016107c5565b90509250929050565b600181811c908216806108be57607f821691505b6020821081036108dc57634e487b7160e01b5f52602260045260245ffd5b50919050565b808201808211156102f857634e487b7160e01b5f52601160045260245ffdfea2646970667358221220c05b3e780c274c8206be588aabb8a314af6bf4defba67e688862c9dc6fc677ab64736f6c634300081e0033000000000000000000000000000000000000000000000000000000000000006000000000000000000000000000000000000000000000000000000000000000a000000000000000000000000056fd3f2bee130e9867942d0f463a16fbe49b8d8100000000000000000000000000000000000000000000000000000000000000124d656e746f204d6f636b2061786c555344430000000000000000000000000000000000000000000000000000000000000000000000000000000000000000000761786c5553444300000000000000000000000000000000000000000000000000"
      ],
      "transaction": {
        "from": "0x56fd3f2bee130e9867942d0f463a16fbe49b8d81",
        "to": "0xba5ed099633d3b313e4d5f7bdc1305d3c28ba5ed",
        "gas": "0xeac85",
        "value": "0x0",
        "input": "0x9c36a28656fd3f2bee130e9867942d0f463a16fbe49b8d8100ea70ae71de3f59faac593c00000000000000000000000000000000000000000000000000000000000000400000000000000000000000000000000000000000000000000000000000000d61608060405234801561000f575f5ffd5b50604051610c81380380610c8183398101604081905261002e9161017a565b808383600361003d8382610283565b50600461004a8282610283565b5050506001600160a01b03811661007a57604051631e4fbdf760e01b81525f600482015260240160405180910390fd5b6100838161008c565b5050505061033d565b600580546001600160a01b038381166001600160a01b0319831681179093556040519116919082907f8be0079c531659141344cd1fd0a4f28419497f9722a3daafe3b4186f6b6457e0905f90a35050565b634e487b7160e01b5f52604160045260245ffd5b5f82601f830112610100575f5ffd5b81516001600160401b03811115610119576101196100dd565b604051601f8201601f19908116603f011681016001600160401b0381118282101715610147576101476100dd565b60405281815283820160200185101561015e575f5ffd5b8160208501602083015e5f918101602001919091529392505050565b5f5f5f6060848603121561018c575f5ffd5b83516001600160401b038111156101a1575f5ffd5b6101ad868287016100f1565b602086015190945090506001600160401b038111156101ca575f5ffd5b6101d6868287016100f1565b604086015190935090506001600160a01b03811681146101f4575f5ffd5b809150509250925092565b600181811c9082168061021357607f821691505b60208210810361023157634e487b7160e01b5f52602260045260245ffd5b50919050565b601f82111561027e57805f5260205f20601f840160051c8101602085101561025c5750805b601f840160051c820191505b8181101561027b575f8155600101610268565b50505b505050565b81516001600160401b0381111561029c5761029c6100dd565b6102b0816102aa84546101ff565b84610237565b6020601f8211600181146102e2575f83156102cb5750848201515b5f19600385901b1c1916600184901b17845561027b565b5f84815260208120601f198516915b8281101561031157878501518255602094850194600190920191016102f1565b508482101561032e57868401515f19600387901b60f8161c191681555b50505050600190811b01905550565b6109378061034a5f395ff3fe608060405234801561000f575f5ffd5b50600436106100f0575f3560e01c806370a082311161009357806395d89b411161006357806395d89b41146101ef578063a9059cbb146101f7578063dd62ed3e1461020a578063f2fde38b14610242575f5ffd5b806370a0823114610191578063715018a6146101b957806379cc6790146101c15780638da5cb5b146101d4575f5ffd5b806323b872dd116100ce57806323b872dd14610147578063313ce5671461015a57806340c10f191461016957806342966c681461017e575f5ffd5b806306fdde03146100f4578063095ea7b31461011257806318160ddd14610135575b5f5ffd5b6100fc610255565b6040516101099190610790565b60405180910390f35b6101256101203660046107e0565b6102e5565b6040519015158152602001610109565b6002545b604051908152602001610109565b610125610155366004610808565b6102fe565b60405160128152602001610109565b61017c6101773660046107e0565b610321565b005b61017c61018c366004610842565b610337565b61013961019f366004610859565b6001600160a01b03165f9081526020819052604090205490565b61017c610344565b61017c6101cf3660046107e0565b610357565b6005546040516001600160a01b039091168152602001610109565b6100fc61036c565b6101256102053660046107e0565b61037b565b610139610218366004610879565b6001600160a01b039182165f90815260016020908152604080832093909416825291909152205490565b61017c610250366004610859565b610388565b606060038054610264906108aa565b80601f0160208091040260200160405190810160405280929190818152602001828054610290906108aa565b80156102db5780601f106102b2576101008083540402835291602001916102db565b820191905f5260205f20905b8154815290600101906020018083116102be57829003601f168201915b5050505050905090565b5f336102f28185856103c7565b60019150505b92915050565b5f3361030b8582856103d9565b610316858585610455565b506001949350505050565b6103296104b2565b61033382826104df565b5050565b6103413382610513565b50565b61034c6104b2565b6103555f610547565b565b6103628233836103d9565b6103338282610513565b606060048054610264906108aa565b5f336102f2818585610455565b6103906104b2565b6001600160a01b0381166103be57604051631e4fbdf760e01b81525f60048201526024015b60405180910390fd5b61034181610547565b6103d48383836001610598565b505050565b6001600160a01b038381165f908152600160209081526040808320938616835292905220545f1981101561044f578181101561044157604051637dc7a0d960e11b81526001600160a01b038416600482015260248101829052604481018390526064016103b5565b61044f84848484035f610598565b50505050565b6001600160a01b03831661047e57604051634b637e8f60e11b81525f60048201526024016103b5565b6001600160a01b0382166104a75760405163ec442f0560e01b81525f60048201526024016103b5565b6103d483838361066a565b6005546001600160a01b031633146103555760405163118cdaa760e01b81523360048201526024016103b5565b6001600160a01b0382166105085760405163ec442f0560e01b81525f60048201526024016103b5565b6103335f838361066a565b6001600160a01b03821661053c57604051634b637e8f60e11b81525f60048201526024016103b5565b610333825f8361066a565b600580546001600160a01b038381166001600160a01b0319831681179093556040519116919082907f8be0079c531659141344cd1fd0a4f28419497f9722a3daafe3b4186f6b6457e0905f90a35050565b6001600160a01b0384166105c15760405163e602df0560e01b81525f60048201526024016103b5565b6001600160a01b0383166105ea57604051634a1406b160e11b81525f60048201526024016103b5565b6001600160a01b038085165f908152600160209081526040808320938716835292905220829055801561044f57826001600160a01b0316846001600160a01b03167f8c5be1e5ebec7d5bd14f71427d1e84f3dd0314c0f7b2291e5b200ac8c7c3b9258460405161065c91815260200190565b60405180910390a350505050565b6001600160a01b038316610694578060025f82825461068991906108e2565b909155506107049050565b6001600160a01b0383165f90815260208190526040902054818110156106e65760405163391434e360e21b81526001600160a01b038516600482015260248101829052604481018390526064016103b5565b6001600160a01b0384165f9081526020819052604090209082900390555b6001600160a01b0382166107205760028054829003905561073e565b6001600160a01b0382165f9081526020819052604090208054820190555b816001600160a01b0316836001600160a01b03167fddf252ad1be2c89b69c2b068fc378daa952ba7f163c4a11628f55a4df523b3ef8360405161078391815260200190565b60405180910390a3505050565b602081525f82518060208401528060208501604085015e5f604082850101526040601f19601f83011684010191505092915050565b80356001600160a01b03811681146107db575f5ffd5b919050565b5f5f604083850312156107f1575f5ffd5b6107fa836107c5565b946020939093013593505050565b5f5f5f6060848603121561081a575f5ffd5b610823846107c5565b9250610831602085016107c5565b929592945050506040919091013590565b5f60208284031215610852575f5ffd5b5035919050565b5f60208284031215610869575f5ffd5b610872826107c5565b9392505050565b5f5f6040838503121561088a575f5ffd5b610893836107c5565b91506108a1602084016107c5565b90509250929050565b600181811c908216806108be57607f821691505b6020821081036108dc57634e487b7160e01b5f52602260045260245ffd5b50919050565b808201808211156102f857634e487b7160e01b5f52601160045260245ffdfea2646970667358221220c05b3e780c274c8206be588aabb8a314af6bf4defba67e688862c9dc6fc677ab64736f6c634300081e0033000000000000000000000000000000000000000000000000000000000000006000000000000000000000000000000000000000000000000000000000000000a000000000000000000000000056fd3f2bee130e9867942d0f463a16fbe49b8d8100000000000000000000000000000000000000000000000000000000000000124d656e746f204d6f636b2061786c555344430000000000000000000000000000000000000000000000000000000000000000000000000000000000000000000761786c555344430000000000000000000000000000000000000000000000000000000000000000000000000000000000000000000000000000000000000000",
        "nonce": "0x56c",
        "chainId": "0xaa044c"
      },
      "additionalContracts": [
        {
          "transactionType": "CREATE2",
          "address": "0x7ae35c0b53e6fa9a1d900d76aa0e4e2a403bc3fc",
          "initCode": "0x67363d3d37363d34f03d5260086018f3"
        },
        {
          "transactionType": "CREATE",
          "address": "0xab35bdafe3942d0b2393921e0944627dd08494d3",
          "initCode": "0x608060405234801561000f575f5ffd5b50604051610c81380380610c8183398101604081905261002e9161017a565b808383600361003d8382610283565b50600461004a8282610283565b5050506001600160a01b03811661007a57604051631e4fbdf760e01b81525f600482015260240160405180910390fd5b6100838161008c565b5050505061033d565b600580546001600160a01b038381166001600160a01b0319831681179093556040519116919082907f8be0079c531659141344cd1fd0a4f28419497f9722a3daafe3b4186f6b6457e0905f90a35050565b634e487b7160e01b5f52604160045260245ffd5b5f82601f830112610100575f5ffd5b81516001600160401b03811115610119576101196100dd565b604051601f8201601f19908116603f011681016001600160401b0381118282101715610147576101476100dd565b60405281815283820160200185101561015e575f5ffd5b8160208501602083015e5f918101602001919091529392505050565b5f5f5f6060848603121561018c575f5ffd5b83516001600160401b038111156101a1575f5ffd5b6101ad868287016100f1565b602086015190945090506001600160401b038111156101ca575f5ffd5b6101d6868287016100f1565b604086015190935090506001600160a01b03811681146101f4575f5ffd5b809150509250925092565b600181811c9082168061021357607f821691505b60208210810361023157634e487b7160e01b5f52602260045260245ffd5b50919050565b601f82111561027e57805f5260205f20601f840160051c8101602085101561025c5750805b601f840160051c820191505b8181101561027b575f8155600101610268565b50505b505050565b81516001600160401b0381111561029c5761029c6100dd565b6102b0816102aa84546101ff565b84610237565b6020601f8211600181146102e2575f83156102cb5750848201515b5f19600385901b1c1916600184901b17845561027b565b5f84815260208120601f198516915b8281101561031157878501518255602094850194600190920191016102f1565b508482101561032e57868401515f19600387901b60f8161c191681555b50505050600190811b01905550565b6109378061034a5f395ff3fe608060405234801561000f575f5ffd5b50600436106100f0575f3560e01c806370a082311161009357806395d89b411161006357806395d89b41146101ef578063a9059cbb146101f7578063dd62ed3e1461020a578063f2fde38b14610242575f5ffd5b806370a0823114610191578063715018a6146101b957806379cc6790146101c15780638da5cb5b146101d4575f5ffd5b806323b872dd116100ce57806323b872dd14610147578063313ce5671461015a57806340c10f191461016957806342966c681461017e575f5ffd5b806306fdde03146100f4578063095ea7b31461011257806318160ddd14610135575b5f5ffd5b6100fc610255565b6040516101099190610790565b60405180910390f35b6101256101203660046107e0565b6102e5565b6040519015158152602001610109565b6002545b604051908152602001610109565b610125610155366004610808565b6102fe565b60405160128152602001610109565b61017c6101773660046107e0565b610321565b005b61017c61018c366004610842565b610337565b61013961019f366004610859565b6001600160a01b03165f9081526020819052604090205490565b61017c610344565b61017c6101cf3660046107e0565b610357565b6005546040516001600160a01b039091168152602001610109565b6100fc61036c565b6101256102053660046107e0565b61037b565b610139610218366004610879565b6001600160a01b039182165f90815260016020908152604080832093909416825291909152205490565b61017c610250366004610859565b610388565b606060038054610264906108aa565b80601f0160208091040260200160405190810160405280929190818152602001828054610290906108aa565b80156102db5780601f106102b2576101008083540402835291602001916102db565b820191905f5260205f20905b8154815290600101906020018083116102be57829003601f168201915b5050505050905090565b5f336102f28185856103c7565b60019150505b92915050565b5f3361030b8582856103d9565b610316858585610455565b506001949350505050565b6103296104b2565b61033382826104df565b5050565b6103413382610513565b50565b61034c6104b2565b6103555f610547565b565b6103628233836103d9565b6103338282610513565b606060048054610264906108aa565b5f336102f2818585610455565b6103906104b2565b6001600160a01b0381166103be57604051631e4fbdf760e01b81525f60048201526024015b60405180910390fd5b61034181610547565b6103d48383836001610598565b505050565b6001600160a01b038381165f908152600160209081526040808320938616835292905220545f1981101561044f578181101561044157604051637dc7a0d960e11b81526001600160a01b038416600482015260248101829052604481018390526064016103b5565b61044f84848484035f610598565b50505050565b6001600160a01b03831661047e57604051634b637e8f60e11b81525f60048201526024016103b5565b6001600160a01b0382166104a75760405163ec442f0560e01b81525f60048201526024016103b5565b6103d483838361066a565b6005546001600160a01b031633146103555760405163118cdaa760e01b81523360048201526024016103b5565b6001600160a01b0382166105085760405163ec442f0560e01b81525f60048201526024016103b5565b6103335f838361066a565b6001600160a01b03821661053c57604051634b637e8f60e11b81525f60048201526024016103b5565b610333825f8361066a565b600580546001600160a01b038381166001600160a01b0319831681179093556040519116919082907f8be0079c531659141344cd1fd0a4f28419497f9722a3daafe3b4186f6b6457e0905f90a35050565b6001600160a01b0384166105c15760405163e602df0560e01b81525f60048201526024016103b5565b6001600160a01b0383166105ea57604051634a1406b160e11b81525f60048201526024016103b5565b6001600160a01b038085165f908152600160209081526040808320938716835292905220829055801561044f57826001600160a01b0316846001600160a01b03167f8c5be1e5ebec7d5bd14f71427d1e84f3dd0314c0f7b2291e5b200ac8c7c3b9258460405161065c91815260200190565b60405180910390a350505050565b6001600160a01b038316610694578060025f82825461068991906108e2565b909155506107049050565b6001600160a01b0383165f90815260208190526040902054818110156106e65760405163391434e360e21b81526001600160a01b038516600482015260248101829052604481018390526064016103b5565b6001600160a01b0384165f9081526020819052604090209082900390555b6001600160a01b0382166107205760028054829003905561073e565b6001600160a01b0382165f9081526020819052604090208054820190555b816001600160a01b0316836001600160a01b03167fddf252ad1be2c89b69c2b068fc378daa952ba7f163c4a11628f55a4df523b3ef8360405161078391815260200190565b60405180910390a3505050565b602081525f82518060208401528060208501604085015e5f604082850101526040601f19601f83011684010191505092915050565b80356001600160a01b03811681146107db575f5ffd5b919050565b5f5f604083850312156107f1575f5ffd5b6107fa836107c5565b946020939093013593505050565b5f5f5f6060848603121561081a575f5ffd5b610823846107c5565b9250610831602085016107c5565b929592945050506040919091013590565b5f60208284031215610852575f5ffd5b5035919050565b5f60208284031215610869575f5ffd5b610872826107c5565b9392505050565b5f5f6040838503121561088a575f5ffd5b610893836107c5565b91506108a1602084016107c5565b90509250929050565b600181811c908216806108be57607f821691505b6020821081036108dc57634e487b7160e01b5f52602260045260245ffd5b50919050565b808201808211156102f857634e487b7160e01b5f52601160045260245ffdfea2646970667358221220c05b3e780c274c8206be588aabb8a314af6bf4defba67e688862c9dc6fc677ab64736f6c634300081e0033000000000000000000000000000000000000000000000000000000000000006000000000000000000000000000000000000000000000000000000000000000a000000000000000000000000056fd3f2bee130e9867942d0f463a16fbe49b8d8100000000000000000000000000000000000000000000000000000000000000124d656e746f204d6f636b2061786c555344430000000000000000000000000000000000000000000000000000000000000000000000000000000000000000000761786c5553444300000000000000000000000000000000000000000000000000"
        }
      ],
      "isFixedGasLimit": false
    },
    {
      "hash": "0xa3dc60395f41662584412a63bc95e16d96dcb46e9e552d5dfd254e0796dbeb87",
      "transactionType": "CALL",
      "contractName": "MockERC20",
      "contractAddress": "0xab35bdafe3942d0b2393921e0944627dd08494d3",
      "function": "mint(address,uint256)",
      "arguments": [
        "0x56fD3F2bEE130e9867942D0F463a16fBE49B8d81",
        "1000000000000000000000000"
      ],
      "transaction": {
        "from": "0x56fd3f2bee130e9867942d0f463a16fbe49b8d81",
        "to": "0xab35bdafe3942d0b2393921e0944627dd08494d3",
        "gas": "0x193a9",
        "value": "0x0",
        "input": "0x40c10f1900000000000000000000000056fd3f2bee130e9867942d0f463a16fbe49b8d8100000000000000000000000000000000000000000000d3c21bcecceda1000000",
        "nonce": "0x56d",
        "chainId": "0xaa044c"
      },
      "additionalContracts": [],
      "isFixedGasLimit": false
    },
    {
      "hash": "0x7ccf9d28720033c181eec8410ad717af0e5bc9b3026c97c59e6b5f44368c0548",
      "transactionType": "CALL",
      "contractName": null,
      "contractAddress": "0xba5ed099633d3b313e4d5f7bdc1305d3c28ba5ed",
      "function": "deployCreate3(bytes32,bytes)",
      "arguments": [
        "0x56fd3f2bee130e9867942d0f463a16fbe49b8d810036392c994b74d92d78b3bc",
        "0x608060405234801561000f575f5ffd5b50604051610c81380380610c8183398101604081905261002e9161017a565b808383600361003d8382610283565b50600461004a8282610283565b5050506001600160a01b03811661007a57604051631e4fbdf760e01b81525f600482015260240160405180910390fd5b6100838161008c565b5050505061033d565b600580546001600160a01b038381166001600160a01b0319831681179093556040519116919082907f8be0079c531659141344cd1fd0a4f28419497f9722a3daafe3b4186f6b6457e0905f90a35050565b634e487b7160e01b5f52604160045260245ffd5b5f82601f830112610100575f5ffd5b81516001600160401b03811115610119576101196100dd565b604051601f8201601f19908116603f011681016001600160401b0381118282101715610147576101476100dd565b60405281815283820160200185101561015e575f5ffd5b8160208501602083015e5f918101602001919091529392505050565b5f5f5f6060848603121561018c575f5ffd5b83516001600160401b038111156101a1575f5ffd5b6101ad868287016100f1565b602086015190945090506001600160401b038111156101ca575f5ffd5b6101d6868287016100f1565b604086015190935090506001600160a01b03811681146101f4575f5ffd5b809150509250925092565b600181811c9082168061021357607f821691505b60208210810361023157634e487b7160e01b5f52602260045260245ffd5b50919050565b601f82111561027e57805f5260205f20601f840160051c8101602085101561025c5750805b601f840160051c820191505b8181101561027b575f8155600101610268565b50505b505050565b81516001600160401b0381111561029c5761029c6100dd565b6102b0816102aa84546101ff565b84610237565b6020601f8211600181146102e2575f83156102cb5750848201515b5f19600385901b1c1916600184901b17845561027b565b5f84815260208120601f198516915b8281101561031157878501518255602094850194600190920191016102f1565b508482101561032e57868401515f19600387901b60f8161c191681555b50505050600190811b01905550565b6109378061034a5f395ff3fe608060405234801561000f575f5ffd5b50600436106100f0575f3560e01c806370a082311161009357806395d89b411161006357806395d89b41146101ef578063a9059cbb146101f7578063dd62ed3e1461020a578063f2fde38b14610242575f5ffd5b806370a0823114610191578063715018a6146101b957806379cc6790146101c15780638da5cb5b146101d4575f5ffd5b806323b872dd116100ce57806323b872dd14610147578063313ce5671461015a57806340c10f191461016957806342966c681461017e575f5ffd5b806306fdde03146100f4578063095ea7b31461011257806318160ddd14610135575b5f5ffd5b6100fc610255565b6040516101099190610790565b60405180910390f35b6101256101203660046107e0565b6102e5565b6040519015158152602001610109565b6002545b604051908152602001610109565b610125610155366004610808565b6102fe565b60405160128152602001610109565b61017c6101773660046107e0565b610321565b005b61017c61018c366004610842565b610337565b61013961019f366004610859565b6001600160a01b03165f9081526020819052604090205490565b61017c610344565b61017c6101cf3660046107e0565b610357565b6005546040516001600160a01b039091168152602001610109565b6100fc61036c565b6101256102053660046107e0565b61037b565b610139610218366004610879565b6001600160a01b039182165f90815260016020908152604080832093909416825291909152205490565b61017c610250366004610859565b610388565b606060038054610264906108aa565b80601f0160208091040260200160405190810160405280929190818152602001828054610290906108aa565b80156102db5780601f106102b2576101008083540402835291602001916102db565b820191905f5260205f20905b8154815290600101906020018083116102be57829003601f168201915b5050505050905090565b5f336102f28185856103c7565b60019150505b92915050565b5f3361030b8582856103d9565b610316858585610455565b506001949350505050565b6103296104b2565b61033382826104df565b5050565b6103413382610513565b50565b61034c6104b2565b6103555f610547565b565b6103628233836103d9565b6103338282610513565b606060048054610264906108aa565b5f336102f2818585610455565b6103906104b2565b6001600160a01b0381166103be57604051631e4fbdf760e01b81525f60048201526024015b60405180910390fd5b61034181610547565b6103d48383836001610598565b505050565b6001600160a01b038381165f908152600160209081526040808320938616835292905220545f1981101561044f578181101561044157604051637dc7a0d960e11b81526001600160a01b038416600482015260248101829052604481018390526064016103b5565b61044f84848484035f610598565b50505050565b6001600160a01b03831661047e57604051634b637e8f60e11b81525f60048201526024016103b5565b6001600160a01b0382166104a75760405163ec442f0560e01b81525f60048201526024016103b5565b6103d483838361066a565b6005546001600160a01b031633146103555760405163118cdaa760e01b81523360048201526024016103b5565b6001600160a01b0382166105085760405163ec442f0560e01b81525f60048201526024016103b5565b6103335f838361066a565b6001600160a01b03821661053c57604051634b637e8f60e11b81525f60048201526024016103b5565b610333825f8361066a565b600580546001600160a01b038381166001600160a01b0319831681179093556040519116919082907f8be0079c531659141344cd1fd0a4f28419497f9722a3daafe3b4186f6b6457e0905f90a35050565b6001600160a01b0384166105c15760405163e602df0560e01b81525f60048201526024016103b5565b6001600160a01b0383166105ea57604051634a1406b160e11b81525f60048201526024016103b5565b6001600160a01b038085165f908152600160209081526040808320938716835292905220829055801561044f57826001600160a01b0316846001600160a01b03167f8c5be1e5ebec7d5bd14f71427d1e84f3dd0314c0f7b2291e5b200ac8c7c3b9258460405161065c91815260200190565b60405180910390a350505050565b6001600160a01b038316610694578060025f82825461068991906108e2565b909155506107049050565b6001600160a01b0383165f90815260208190526040902054818110156106e65760405163391434e360e21b81526001600160a01b038516600482015260248101829052604481018390526064016103b5565b6001600160a01b0384165f9081526020819052604090209082900390555b6001600160a01b0382166107205760028054829003905561073e565b6001600160a01b0382165f9081526020819052604090208054820190555b816001600160a01b0316836001600160a01b03167fddf252ad1be2c89b69c2b068fc378daa952ba7f163c4a11628f55a4df523b3ef8360405161078391815260200190565b60405180910390a3505050565b602081525f82518060208401528060208501604085015e5f604082850101526040601f19601f83011684010191505092915050565b80356001600160a01b03811681146107db575f5ffd5b919050565b5f5f604083850312156107f1575f5ffd5b6107fa836107c5565b946020939093013593505050565b5f5f5f6060848603121561081a575f5ffd5b610823846107c5565b9250610831602085016107c5565b929592945050506040919091013590565b5f60208284031215610852575f5ffd5b5035919050565b5f60208284031215610869575f5ffd5b610872826107c5565b9392505050565b5f5f6040838503121561088a575f5ffd5b610893836107c5565b91506108a1602084016107c5565b90509250929050565b600181811c908216806108be57607f821691505b6020821081036108dc57634e487b7160e01b5f52602260045260245ffd5b50919050565b808201808211156102f857634e487b7160e01b5f52601160045260245ffdfea2646970667358221220c05b3e780c274c8206be588aabb8a314af6bf4defba67e688862c9dc6fc677ab64736f6c634300081e0033000000000000000000000000000000000000000000000000000000000000006000000000000000000000000000000000000000000000000000000000000000a000000000000000000000000056fd3f2bee130e9867942d0f463a16fbe49b8d8100000000000000000000000000000000000000000000000000000000000000134d656e746f204d6f636b2061786c4555524f4300000000000000000000000000000000000000000000000000000000000000000000000000000000000000000861786c4555524f43000000000000000000000000000000000000000000000000"
      ],
      "transaction": {
        "from": "0x56fd3f2bee130e9867942d0f463a16fbe49b8d81",
        "to": "0xba5ed099633d3b313e4d5f7bdc1305d3c28ba5ed",
        "gas": "0xeaca7",
        "value": "0x0",
        "input": "0x9c36a28656fd3f2bee130e9867942d0f463a16fbe49b8d810036392c994b74d92d78b3bc00000000000000000000000000000000000000000000000000000000000000400000000000000000000000000000000000000000000000000000000000000d61608060405234801561000f575f5ffd5b50604051610c81380380610c8183398101604081905261002e9161017a565b808383600361003d8382610283565b50600461004a8282610283565b5050506001600160a01b03811661007a57604051631e4fbdf760e01b81525f600482015260240160405180910390fd5b6100838161008c565b5050505061033d565b600580546001600160a01b038381166001600160a01b0319831681179093556040519116919082907f8be0079c531659141344cd1fd0a4f28419497f9722a3daafe3b4186f6b6457e0905f90a35050565b634e487b7160e01b5f52604160045260245ffd5b5f82601f830112610100575f5ffd5b81516001600160401b03811115610119576101196100dd565b604051601f8201601f19908116603f011681016001600160401b0381118282101715610147576101476100dd565b60405281815283820160200185101561015e575f5ffd5b8160208501602083015e5f918101602001919091529392505050565b5f5f5f6060848603121561018c575f5ffd5b83516001600160401b038111156101a1575f5ffd5b6101ad868287016100f1565b602086015190945090506001600160401b038111156101ca575f5ffd5b6101d6868287016100f1565b604086015190935090506001600160a01b03811681146101f4575f5ffd5b809150509250925092565b600181811c9082168061021357607f821691505b60208210810361023157634e487b7160e01b5f52602260045260245ffd5b50919050565b601f82111561027e57805f5260205f20601f840160051c8101602085101561025c5750805b601f840160051c820191505b8181101561027b575f8155600101610268565b50505b505050565b81516001600160401b0381111561029c5761029c6100dd565b6102b0816102aa84546101ff565b84610237565b6020601f8211600181146102e2575f83156102cb5750848201515b5f19600385901b1c1916600184901b17845561027b565b5f84815260208120601f198516915b8281101561031157878501518255602094850194600190920191016102f1565b508482101561032e57868401515f19600387901b60f8161c191681555b50505050600190811b01905550565b6109378061034a5f395ff3fe608060405234801561000f575f5ffd5b50600436106100f0575f3560e01c806370a082311161009357806395d89b411161006357806395d89b41146101ef578063a9059cbb146101f7578063dd62ed3e1461020a578063f2fde38b14610242575f5ffd5b806370a0823114610191578063715018a6146101b957806379cc6790146101c15780638da5cb5b146101d4575f5ffd5b806323b872dd116100ce57806323b872dd14610147578063313ce5671461015a57806340c10f191461016957806342966c681461017e575f5ffd5b806306fdde03146100f4578063095ea7b31461011257806318160ddd14610135575b5f5ffd5b6100fc610255565b6040516101099190610790565b60405180910390f35b6101256101203660046107e0565b6102e5565b6040519015158152602001610109565b6002545b604051908152602001610109565b610125610155366004610808565b6102fe565b60405160128152602001610109565b61017c6101773660046107e0565b610321565b005b61017c61018c366004610842565b610337565b61013961019f366004610859565b6001600160a01b03165f9081526020819052604090205490565b61017c610344565b61017c6101cf3660046107e0565b610357565b6005546040516001600160a01b039091168152602001610109565b6100fc61036c565b6101256102053660046107e0565b61037b565b610139610218366004610879565b6001600160a01b039182165f90815260016020908152604080832093909416825291909152205490565b61017c610250366004610859565b610388565b606060038054610264906108aa565b80601f0160208091040260200160405190810160405280929190818152602001828054610290906108aa565b80156102db5780601f106102b2576101008083540402835291602001916102db565b820191905f5260205f20905b8154815290600101906020018083116102be57829003601f168201915b5050505050905090565b5f336102f28185856103c7565b60019150505b92915050565b5f3361030b8582856103d9565b610316858585610455565b506001949350505050565b6103296104b2565b61033382826104df565b5050565b6103413382610513565b50565b61034c6104b2565b6103555f610547565b565b6103628233836103d9565b6103338282610513565b606060048054610264906108aa565b5f336102f2818585610455565b6103906104b2565b6001600160a01b0381166103be57604051631e4fbdf760e01b81525f60048201526024015b60405180910390fd5b61034181610547565b6103d48383836001610598565b505050565b6001600160a01b038381165f908152600160209081526040808320938616835292905220545f1981101561044f578181101561044157604051637dc7a0d960e11b81526001600160a01b038416600482015260248101829052604481018390526064016103b5565b61044f84848484035f610598565b50505050565b6001600160a01b03831661047e57604051634b637e8f60e11b81525f60048201526024016103b5565b6001600160a01b0382166104a75760405163ec442f0560e01b81525f60048201526024016103b5565b6103d483838361066a565b6005546001600160a01b031633146103555760405163118cdaa760e01b81523360048201526024016103b5565b6001600160a01b0382166105085760405163ec442f0560e01b81525f60048201526024016103b5565b6103335f838361066a565b6001600160a01b03821661053c57604051634b637e8f60e11b81525f60048201526024016103b5565b610333825f8361066a565b600580546001600160a01b038381166001600160a01b0319831681179093556040519116919082907f8be0079c531659141344cd1fd0a4f28419497f9722a3daafe3b4186f6b6457e0905f90a35050565b6001600160a01b0384166105c15760405163e602df0560e01b81525f60048201526024016103b5565b6001600160a01b0383166105ea57604051634a1406b160e11b81525f60048201526024016103b5565b6001600160a01b038085165f908152600160209081526040808320938716835292905220829055801561044f57826001600160a01b0316846001600160a01b03167f8c5be1e5ebec7d5bd14f71427d1e84f3dd0314c0f7b2291e5b200ac8c7c3b9258460405161065c91815260200190565b60405180910390a350505050565b6001600160a01b038316610694578060025f82825461068991906108e2565b909155506107049050565b6001600160a01b0383165f90815260208190526040902054818110156106e65760405163391434e360e21b81526001600160a01b038516600482015260248101829052604481018390526064016103b5565b6001600160a01b0384165f9081526020819052604090209082900390555b6001600160a01b0382166107205760028054829003905561073e565b6001600160a01b0382165f9081526020819052604090208054820190555b816001600160a01b0316836001600160a01b03167fddf252ad1be2c89b69c2b068fc378daa952ba7f163c4a11628f55a4df523b3ef8360405161078391815260200190565b60405180910390a3505050565b602081525f82518060208401528060208501604085015e5f604082850101526040601f19601f83011684010191505092915050565b80356001600160a01b03811681146107db575f5ffd5b919050565b5f5f604083850312156107f1575f5ffd5b6107fa836107c5565b946020939093013593505050565b5f5f5f6060848603121561081a575f5ffd5b610823846107c5565b9250610831602085016107c5565b929592945050506040919091013590565b5f60208284031215610852575f5ffd5b5035919050565b5f60208284031215610869575f5ffd5b610872826107c5565b9392505050565b5f5f6040838503121561088a575f5ffd5b610893836107c5565b91506108a1602084016107c5565b90509250929050565b600181811c908216806108be57607f821691505b6020821081036108dc57634e487b7160e01b5f52602260045260245ffd5b50919050565b808201808211156102f857634e487b7160e01b5f52601160045260245ffdfea2646970667358221220c05b3e780c274c8206be588aabb8a314af6bf4defba67e688862c9dc6fc677ab64736f6c634300081e0033000000000000000000000000000000000000000000000000000000000000006000000000000000000000000000000000000000000000000000000000000000a000000000000000000000000056fd3f2bee130e9867942d0f463a16fbe49b8d8100000000000000000000000000000000000000000000000000000000000000134d656e746f204d6f636b2061786c4555524f4300000000000000000000000000000000000000000000000000000000000000000000000000000000000000000861786c4555524f4300000000000000000000000000000000000000000000000000000000000000000000000000000000000000000000000000000000000000",
        "nonce": "0x56e",
        "chainId": "0xaa044c"
      },
      "additionalContracts": [
        {
          "transactionType": "CREATE2",
          "address": "0x2460758b0129331f3c9d15023994d0ea52922c41",
          "initCode": "0x67363d3d37363d34f03d5260086018f3"
        },
        {
          "transactionType": "CREATE",
          "address": "0xd92b0434fbc6026d17bb683dd5570c6b3d1f45af",
          "initCode": "0x608060405234801561000f575f5ffd5b50604051610c81380380610c8183398101604081905261002e9161017a565b808383600361003d8382610283565b50600461004a8282610283565b5050506001600160a01b03811661007a57604051631e4fbdf760e01b81525f600482015260240160405180910390fd5b6100838161008c565b5050505061033d565b600580546001600160a01b038381166001600160a01b0319831681179093556040519116919082907f8be0079c531659141344cd1fd0a4f28419497f9722a3daafe3b4186f6b6457e0905f90a35050565b634e487b7160e01b5f52604160045260245ffd5b5f82601f830112610100575f5ffd5b81516001600160401b03811115610119576101196100dd565b604051601f8201601f19908116603f011681016001600160401b0381118282101715610147576101476100dd565b60405281815283820160200185101561015e575f5ffd5b8160208501602083015e5f918101602001919091529392505050565b5f5f5f6060848603121561018c575f5ffd5b83516001600160401b038111156101a1575f5ffd5b6101ad868287016100f1565b602086015190945090506001600160401b038111156101ca575f5ffd5b6101d6868287016100f1565b604086015190935090506001600160a01b03811681146101f4575f5ffd5b809150509250925092565b600181811c9082168061021357607f821691505b60208210810361023157634e487b7160e01b5f52602260045260245ffd5b50919050565b601f82111561027e57805f5260205f20601f840160051c8101602085101561025c5750805b601f840160051c820191505b8181101561027b575f8155600101610268565b50505b505050565b81516001600160401b0381111561029c5761029c6100dd565b6102b0816102aa84546101ff565b84610237565b6020601f8211600181146102e2575f83156102cb5750848201515b5f19600385901b1c1916600184901b17845561027b565b5f84815260208120601f198516915b8281101561031157878501518255602094850194600190920191016102f1565b508482101561032e57868401515f19600387901b60f8161c191681555b50505050600190811b01905550565b6109378061034a5f395ff3fe608060405234801561000f575f5ffd5b50600436106100f0575f3560e01c806370a082311161009357806395d89b411161006357806395d89b41146101ef578063a9059cbb146101f7578063dd62ed3e1461020a578063f2fde38b14610242575f5ffd5b806370a0823114610191578063715018a6146101b957806379cc6790146101c15780638da5cb5b146101d4575f5ffd5b806323b872dd116100ce57806323b872dd14610147578063313ce5671461015a57806340c10f191461016957806342966c681461017e575f5ffd5b806306fdde03146100f4578063095ea7b31461011257806318160ddd14610135575b5f5ffd5b6100fc610255565b6040516101099190610790565b60405180910390f35b6101256101203660046107e0565b6102e5565b6040519015158152602001610109565b6002545b604051908152602001610109565b610125610155366004610808565b6102fe565b60405160128152602001610109565b61017c6101773660046107e0565b610321565b005b61017c61018c366004610842565b610337565b61013961019f366004610859565b6001600160a01b03165f9081526020819052604090205490565b61017c610344565b61017c6101cf3660046107e0565b610357565b6005546040516001600160a01b039091168152602001610109565b6100fc61036c565b6101256102053660046107e0565b61037b565b610139610218366004610879565b6001600160a01b039182165f90815260016020908152604080832093909416825291909152205490565b61017c610250366004610859565b610388565b606060038054610264906108aa565b80601f0160208091040260200160405190810160405280929190818152602001828054610290906108aa565b80156102db5780601f106102b2576101008083540402835291602001916102db565b820191905f5260205f20905b8154815290600101906020018083116102be57829003601f168201915b5050505050905090565b5f336102f28185856103c7565b60019150505b92915050565b5f3361030b8582856103d9565b610316858585610455565b506001949350505050565b6103296104b2565b61033382826104df565b5050565b6103413382610513565b50565b61034c6104b2565b6103555f610547565b565b6103628233836103d9565b6103338282610513565b606060048054610264906108aa565b5f336102f2818585610455565b6103906104b2565b6001600160a01b0381166103be57604051631e4fbdf760e01b81525f60048201526024015b60405180910390fd5b61034181610547565b6103d48383836001610598565b505050565b6001600160a01b038381165f908152600160209081526040808320938616835292905220545f1981101561044f578181101561044157604051637dc7a0d960e11b81526001600160a01b038416600482015260248101829052604481018390526064016103b5565b61044f84848484035f610598565b50505050565b6001600160a01b03831661047e57604051634b637e8f60e11b81525f60048201526024016103b5565b6001600160a01b0382166104a75760405163ec442f0560e01b81525f60048201526024016103b5565b6103d483838361066a565b6005546001600160a01b031633146103555760405163118cdaa760e01b81523360048201526024016103b5565b6001600160a01b0382166105085760405163ec442f0560e01b81525f60048201526024016103b5565b6103335f838361066a565b6001600160a01b03821661053c57604051634b637e8f60e11b81525f60048201526024016103b5565b610333825f8361066a565b600580546001600160a01b038381166001600160a01b0319831681179093556040519116919082907f8be0079c531659141344cd1fd0a4f28419497f9722a3daafe3b4186f6b6457e0905f90a35050565b6001600160a01b0384166105c15760405163e602df0560e01b81525f60048201526024016103b5565b6001600160a01b0383166105ea57604051634a1406b160e11b81525f60048201526024016103b5565b6001600160a01b038085165f908152600160209081526040808320938716835292905220829055801561044f57826001600160a01b0316846001600160a01b03167f8c5be1e5ebec7d5bd14f71427d1e84f3dd0314c0f7b2291e5b200ac8c7c3b9258460405161065c91815260200190565b60405180910390a350505050565b6001600160a01b038316610694578060025f82825461068991906108e2565b909155506107049050565b6001600160a01b0383165f90815260208190526040902054818110156106e65760405163391434e360e21b81526001600160a01b038516600482015260248101829052604481018390526064016103b5565b6001600160a01b0384165f9081526020819052604090209082900390555b6001600160a01b0382166107205760028054829003905561073e565b6001600160a01b0382165f9081526020819052604090208054820190555b816001600160a01b0316836001600160a01b03167fddf252ad1be2c89b69c2b068fc378daa952ba7f163c4a11628f55a4df523b3ef8360405161078391815260200190565b60405180910390a3505050565b602081525f82518060208401528060208501604085015e5f604082850101526040601f19601f83011684010191505092915050565b80356001600160a01b03811681146107db575f5ffd5b919050565b5f5f604083850312156107f1575f5ffd5b6107fa836107c5565b946020939093013593505050565b5f5f5f6060848603121561081a575f5ffd5b610823846107c5565b9250610831602085016107c5565b929592945050506040919091013590565b5f60208284031215610852575f5ffd5b5035919050565b5f60208284031215610869575f5ffd5b610872826107c5565b9392505050565b5f5f6040838503121561088a575f5ffd5b610893836107c5565b91506108a1602084016107c5565b90509250929050565b600181811c908216806108be57607f821691505b6020821081036108dc57634e487b7160e01b5f52602260045260245ffd5b50919050565b808201808211156102f857634e487b7160e01b5f52601160045260245ffdfea2646970667358221220c05b3e780c274c8206be588aabb8a314af6bf4defba67e688862c9dc6fc677ab64736f6c634300081e0033000000000000000000000000000000000000000000000000000000000000006000000000000000000000000000000000000000000000000000000000000000a000000000000000000000000056fd3f2bee130e9867942d0f463a16fbe49b8d8100000000000000000000000000000000000000000000000000000000000000134d656e746f204d6f636b2061786c4555524f4300000000000000000000000000000000000000000000000000000000000000000000000000000000000000000861786c4555524f43000000000000000000000000000000000000000000000000"
        }
      ],
      "isFixedGasLimit": false
    },
    {
      "hash": "0xfd32ce4992121b4650301ee0ccbac4f0085873e0cfeac3f6f0bfb7e154fb592a",
      "transactionType": "CALL",
      "contractName": "MockERC20",
      "contractAddress": "0xd92b0434fbc6026d17bb683dd5570c6b3d1f45af",
      "function": "mint(address,uint256)",
      "arguments": [
        "0x56fD3F2bEE130e9867942D0F463a16fBE49B8d81",
        "1000000000000000000000000"
      ],
      "transaction": {
        "from": "0x56fd3f2bee130e9867942d0f463a16fbe49b8d81",
        "to": "0xd92b0434fbc6026d17bb683dd5570c6b3d1f45af",
        "gas": "0x193a9",
        "value": "0x0",
        "input": "0x40c10f1900000000000000000000000056fd3f2bee130e9867942d0f463a16fbe49b8d8100000000000000000000000000000000000000000000d3c21bcecceda1000000",
        "nonce": "0x56f",
        "chainId": "0xaa044c"
      },
      "additionalContracts": [],
      "isFixedGasLimit": false
    }
  ],
  "receipts": [
    {
      "status": "0x1",
      "cumulativeGasUsed": "0xb5358",
      "logs": [
        {
          "address": "0xba5ed099633d3b313e4d5f7bdc1305d3c28ba5ed",
          "topics": [
            "0x2feea65dd4e9f9cbd86b74b7734210c59a1b2981b5b137bd0ee3e208200c9067",
            "0x0000000000000000000000003df6c1dc280b1e328ec38703f80ce5e32606d131",
            "0x509d26275088120bdf532e75d0dc8ee866f7ff0a585f43e30f83214c863c8ab8"
          ],
          "data": "0x",
          "blockHash": "0xb567e0bcae23b7a5ea9816f77f5b092cd35fb73fae4bc8fcbb82b86e0c882798",
          "blockNumber": "0x41e992",
          "transactionHash": "0xee17f9910f9ef55e2538573d4600f99228df10782823df39cf5bee47aec9494e",
          "transactionIndex": "0x1",
          "logIndex": "0x0",
          "removed": false
        },
        {
          "address": "0x7d6bbd89b2f2a37b66fcf0f51b6dba1cf57cfefa",
          "topics": [
            "0x8be0079c531659141344cd1fd0a4f28419497f9722a3daafe3b4186f6b6457e0",
            "0x0000000000000000000000000000000000000000000000000000000000000000",
            "0x00000000000000000000000056fd3f2bee130e9867942d0f463a16fbe49b8d81"
          ],
          "data": "0x",
          "blockHash": "0xb567e0bcae23b7a5ea9816f77f5b092cd35fb73fae4bc8fcbb82b86e0c882798",
          "blockNumber": "0x41e992",
          "transactionHash": "0xee17f9910f9ef55e2538573d4600f99228df10782823df39cf5bee47aec9494e",
          "transactionIndex": "0x1",
          "logIndex": "0x1",
          "removed": false
        },
        {
          "address": "0xba5ed099633d3b313e4d5f7bdc1305d3c28ba5ed",
          "topics": [
            "0x4db17dd5e4732fb6da34a148104a592783ca119a1e7bb8829eba6cbadef0b511",
            "0x0000000000000000000000007d6bbd89b2f2a37b66fcf0f51b6dba1cf57cfefa"
          ],
          "data": "0x",
          "blockHash": "0xb567e0bcae23b7a5ea9816f77f5b092cd35fb73fae4bc8fcbb82b86e0c882798",
          "blockNumber": "0x41e992",
          "transactionHash": "0xee17f9910f9ef55e2538573d4600f99228df10782823df39cf5bee47aec9494e",
          "transactionIndex": "0x1",
          "logIndex": "0x2",
          "removed": false
        }
      ],
      "logsBloom": "0x0002000000000000000000000000100000000000000800002080000020000000000000000000000001000000000001000000000000000400000010000000000000020000000000000000000002000000000100000000000000000000000000000000000002000000000000000000180000400000002000000000000000020040000000000000000000000000000000080000000000000000000000c000000000000000000000000000000000040000000000000000000000000000000000000000000000000000000200000000000000000000002000000000000000000024000004000000000200000000000000000000000000000000000000000000000000",
      "type": "0x2",
      "transactionHash": "0xee17f9910f9ef55e2538573d4600f99228df10782823df39cf5bee47aec9494e",
      "transactionIndex": "0x1",
      "blockHash": "0xb567e0bcae23b7a5ea9816f77f5b092cd35fb73fae4bc8fcbb82b86e0c882798",
      "blockNumber": "0x41e992",
      "gasUsed": "0xa9f60",
      "effectiveGasPrice": "0x5d21dba01",
      "from": "0x56fd3f2bee130e9867942d0f463a16fbe49b8d81",
      "to": "0xba5ed099633d3b313e4d5f7bdc1305d3c28ba5ed",
      "contractAddress": null,
      "l1BaseFeeScalar": "0x0",
      "l1BlobBaseFee": "0x425f12",
      "l1BlobBaseFeeScalar": "0x0",
      "l1Fee": "0x0",
      "l1GasPrice": "0x221c",
      "l1GasUsed": "0x7f84"
    },
    {
      "status": "0x1",
      "cumulativeGasUsed": "0xc675a",
      "logs": [
        {
          "address": "0x7d6bbd89b2f2a37b66fcf0f51b6dba1cf57cfefa",
          "topics": [
            "0xddf252ad1be2c89b69c2b068fc378daa952ba7f163c4a11628f55a4df523b3ef",
            "0x0000000000000000000000000000000000000000000000000000000000000000",
            "0x00000000000000000000000056fd3f2bee130e9867942d0f463a16fbe49b8d81"
          ],
          "data": "0x00000000000000000000000000000000000000000000d3c21bcecceda1000000",
          "blockHash": "0xb567e0bcae23b7a5ea9816f77f5b092cd35fb73fae4bc8fcbb82b86e0c882798",
          "blockNumber": "0x41e992",
          "transactionHash": "0x0df5cc696290b34fc0b2ecf94d700560594b1ccc6141fbe0e2164b54db0957aa",
          "transactionIndex": "0x2",
          "logIndex": "0x3",
          "removed": false
        }
      ],
      "logsBloom": "0x00000000000000000000000000001000000000000000000020000000000000000000000000000000010000000000010000000000000000000000100000000000000000000000000000000008000000000000000000000000000000000000000000000000020000000000000000000800000000000000000000000010000000000000000000000000000000000000000000000000000000000000000000000000000000000000000000000000000000000000000000000000000000000000000000000002000000000000000000000000000000000000000000000000000020000004000000000000000000000000000000000000000000000000000000000000",
      "type": "0x2",
      "transactionHash": "0x0df5cc696290b34fc0b2ecf94d700560594b1ccc6141fbe0e2164b54db0957aa",
      "transactionIndex": "0x2",
      "blockHash": "0xb567e0bcae23b7a5ea9816f77f5b092cd35fb73fae4bc8fcbb82b86e0c882798",
      "blockNumber": "0x41e992",
      "gasUsed": "0x11402",
      "effectiveGasPrice": "0x5d21dba01",
      "from": "0x56fd3f2bee130e9867942d0f463a16fbe49b8d81",
      "to": "0x7d6bbd89b2f2a37b66fcf0f51b6dba1cf57cfefa",
      "contractAddress": null,
      "l1BaseFeeScalar": "0x0",
      "l1BlobBaseFee": "0x425f12",
      "l1BlobBaseFeeScalar": "0x0",
      "l1Fee": "0x0",
      "l1GasPrice": "0x221c",
      "l1GasUsed": "0x640"
    },
    {
      "status": "0x1",
      "cumulativeGasUsed": "0x1706ba",
      "logs": [
        {
          "address": "0xba5ed099633d3b313e4d5f7bdc1305d3c28ba5ed",
          "topics": [
            "0x2feea65dd4e9f9cbd86b74b7734210c59a1b2981b5b137bd0ee3e208200c9067",
            "0x00000000000000000000000062f07fb9f7fb057dd1d6933210ab438e87a24ff1",
            "0xed63771fa2050934765b1d341fcf7b6668d85da7b35e971c6bf6b2f30893dbde"
          ],
          "data": "0x",
          "blockHash": "0xb567e0bcae23b7a5ea9816f77f5b092cd35fb73fae4bc8fcbb82b86e0c882798",
          "blockNumber": "0x41e992",
          "transactionHash": "0x0e203e70f2fd405797b16c80d95c2fe6307b8f4ecccc05489cfff1b8575bce1f",
          "transactionIndex": "0x3",
          "logIndex": "0x4",
          "removed": false
        },
        {
          "address": "0x0de4cb6060ee8ec4a4c657a8789335e22e684091",
          "topics": [
            "0x8be0079c531659141344cd1fd0a4f28419497f9722a3daafe3b4186f6b6457e0",
            "0x0000000000000000000000000000000000000000000000000000000000000000",
            "0x00000000000000000000000056fd3f2bee130e9867942d0f463a16fbe49b8d81"
          ],
          "data": "0x",
          "blockHash": "0xb567e0bcae23b7a5ea9816f77f5b092cd35fb73fae4bc8fcbb82b86e0c882798",
          "blockNumber": "0x41e992",
          "transactionHash": "0x0e203e70f2fd405797b16c80d95c2fe6307b8f4ecccc05489cfff1b8575bce1f",
          "transactionIndex": "0x3",
          "logIndex": "0x5",
          "removed": false
        },
        {
          "address": "0xba5ed099633d3b313e4d5f7bdc1305d3c28ba5ed",
          "topics": [
            "0x4db17dd5e4732fb6da34a148104a592783ca119a1e7bb8829eba6cbadef0b511",
            "0x0000000000000000000000000de4cb6060ee8ec4a4c657a8789335e22e684091"
          ],
          "data": "0x",
          "blockHash": "0xb567e0bcae23b7a5ea9816f77f5b092cd35fb73fae4bc8fcbb82b86e0c882798",
          "blockNumber": "0x41e992",
          "transactionHash": "0x0e203e70f2fd405797b16c80d95c2fe6307b8f4ecccc05489cfff1b8575bce1f",
          "transactionIndex": "0x3",
          "logIndex": "0x6",
          "removed": false
        }
      ],
      "logsBloom": "0x00020000000000000000000008000000000000000000000020800000200800000000000000000000000000000000010000000000000004000000000000000000000000000000000000000000020000000001004000000000000000000000000080000000020000000000000000000800000000000020000000000100000000400000000000000000000000000000000100000000000000000000004000000000000000000040000000000000008000000000000000000000000000000000000000000000000000000200800000000000002000002000000000000100000020000004000000000202000000000000000000000000000000000000000000000000",
      "type": "0x2",
      "transactionHash": "0x0e203e70f2fd405797b16c80d95c2fe6307b8f4ecccc05489cfff1b8575bce1f",
      "transactionIndex": "0x3",
      "blockHash": "0xb567e0bcae23b7a5ea9816f77f5b092cd35fb73fae4bc8fcbb82b86e0c882798",
      "blockNumber": "0x41e992",
      "gasUsed": "0xa9f60",
      "effectiveGasPrice": "0x5d21dba01",
      "from": "0x56fd3f2bee130e9867942d0f463a16fbe49b8d81",
      "to": "0xba5ed099633d3b313e4d5f7bdc1305d3c28ba5ed",
      "contractAddress": null,
      "l1BaseFeeScalar": "0x0",
      "l1BlobBaseFee": "0x425f12",
      "l1BlobBaseFeeScalar": "0x0",
      "l1Fee": "0x0",
      "l1GasPrice": "0x221c",
      "l1GasUsed": "0x7f84"
    },
    {
      "status": "0x1",
      "cumulativeGasUsed": "0x181abc",
      "logs": [
        {
          "address": "0x0de4cb6060ee8ec4a4c657a8789335e22e684091",
          "topics": [
            "0xddf252ad1be2c89b69c2b068fc378daa952ba7f163c4a11628f55a4df523b3ef",
            "0x0000000000000000000000000000000000000000000000000000000000000000",
            "0x00000000000000000000000056fd3f2bee130e9867942d0f463a16fbe49b8d81"
          ],
          "data": "0x00000000000000000000000000000000000000000000d3c21bcecceda1000000",
          "blockHash": "0xb567e0bcae23b7a5ea9816f77f5b092cd35fb73fae4bc8fcbb82b86e0c882798",
          "blockNumber": "0x41e992",
          "transactionHash": "0x5ec38fc80d5521e5c0c72bdb793c233dde603c1cf880540ce162737fcf5c2fdb",
          "transactionIndex": "0x4",
          "logIndex": "0x7",
          "removed": false
        }
      ],
      "logsBloom": "0x00000000000000000000000000000000000000000000000020000000000800000000000000000000000000000000010000000000000000000000000000000000000000000000000000000008000000000000000000000000000000000000000080000000020000000000000000000800000000000000000000000010000000000000000000000000000000000000000000000000000000000000000000000000000000000000000000000000000000000000000000000000000000000000000000000002000000000000000000000000000000000000000000000000000020000004000000000002000000000000000000000000000000000000000000000000",
      "type": "0x2",
      "transactionHash": "0x5ec38fc80d5521e5c0c72bdb793c233dde603c1cf880540ce162737fcf5c2fdb",
      "transactionIndex": "0x4",
      "blockHash": "0xb567e0bcae23b7a5ea9816f77f5b092cd35fb73fae4bc8fcbb82b86e0c882798",
      "blockNumber": "0x41e992",
      "gasUsed": "0x11402",
      "effectiveGasPrice": "0x5d21dba01",
      "from": "0x56fd3f2bee130e9867942d0f463a16fbe49b8d81",
      "to": "0x0de4cb6060ee8ec4a4c657a8789335e22e684091",
      "contractAddress": null,
      "l1BaseFeeScalar": "0x0",
      "l1BlobBaseFee": "0x425f12",
      "l1BlobBaseFeeScalar": "0x0",
      "l1Fee": "0x0",
      "l1GasPrice": "0x221c",
      "l1GasUsed": "0x640"
    },
    {
      "status": "0x1",
      "cumulativeGasUsed": "0x22ba64",
      "logs": [
        {
          "address": "0xba5ed099633d3b313e4d5f7bdc1305d3c28ba5ed",
          "topics": [
            "0x2feea65dd4e9f9cbd86b74b7734210c59a1b2981b5b137bd0ee3e208200c9067",
            "0x0000000000000000000000007ae35c0b53e6fa9a1d900d76aa0e4e2a403bc3fc",
            "0x6dbce6838ae4d56543e260410d2c840bca110a505a3d346c01a19aa8b686cd6b"
          ],
          "data": "0x",
          "blockHash": "0xb567e0bcae23b7a5ea9816f77f5b092cd35fb73fae4bc8fcbb82b86e0c882798",
          "blockNumber": "0x41e992",
          "transactionHash": "0x9055fa0beafb293248ff86ecd632831499dbe48554080013dc1881a9125350bb",
          "transactionIndex": "0x5",
          "logIndex": "0x8",
          "removed": false
        },
        {
          "address": "0xab35bdafe3942d0b2393921e0944627dd08494d3",
          "topics": [
            "0x8be0079c531659141344cd1fd0a4f28419497f9722a3daafe3b4186f6b6457e0",
            "0x0000000000000000000000000000000000000000000000000000000000000000",
            "0x00000000000000000000000056fd3f2bee130e9867942d0f463a16fbe49b8d81"
          ],
          "data": "0x",
          "blockHash": "0xb567e0bcae23b7a5ea9816f77f5b092cd35fb73fae4bc8fcbb82b86e0c882798",
          "blockNumber": "0x41e992",
          "transactionHash": "0x9055fa0beafb293248ff86ecd632831499dbe48554080013dc1881a9125350bb",
          "transactionIndex": "0x5",
          "logIndex": "0x9",
          "removed": false
        },
        {
          "address": "0xba5ed099633d3b313e4d5f7bdc1305d3c28ba5ed",
          "topics": [
            "0x4db17dd5e4732fb6da34a148104a592783ca119a1e7bb8829eba6cbadef0b511",
            "0x000000000000000000000000ab35bdafe3942d0b2393921e0944627dd08494d3"
          ],
          "data": "0x",
          "blockHash": "0xb567e0bcae23b7a5ea9816f77f5b092cd35fb73fae4bc8fcbb82b86e0c882798",
          "blockNumber": "0x41e992",
          "transactionHash": "0x9055fa0beafb293248ff86ecd632831499dbe48554080013dc1881a9125350bb",
          "transactionIndex": "0x5",
          "logIndex": "0xa",
          "removed": false
        }
      ],
      "logsBloom": "0x00020000000000000000000000000000000000008400000020800000200000000000000000000000000000000000010000000000000004000000000000000000000000000000000000000000020000000001000000000000000000000000000000000000020000000000000000000821000000000020000020000000000000400000000000000000000000000400000000000000000000000000004000000000000000000000000000000000400000000000000000000000000000000000000004000000000200000200000000000000000000002002000000000000000020000004000000000200000000002000000000000000000000000000000000020000",
      "type": "0x2",
      "transactionHash": "0x9055fa0beafb293248ff86ecd632831499dbe48554080013dc1881a9125350bb",
      "transactionIndex": "0x5",
      "blockHash": "0xb567e0bcae23b7a5ea9816f77f5b092cd35fb73fae4bc8fcbb82b86e0c882798",
      "blockNumber": "0x41e992",
      "gasUsed": "0xa9fa8",
      "effectiveGasPrice": "0x5d21dba01",
      "from": "0x56fd3f2bee130e9867942d0f463a16fbe49b8d81",
      "to": "0xba5ed099633d3b313e4d5f7bdc1305d3c28ba5ed",
      "contractAddress": null,
      "l1BaseFeeScalar": "0x0",
      "l1BlobBaseFee": "0x425f12",
      "l1BlobBaseFeeScalar": "0x0",
      "l1Fee": "0x0",
      "l1GasPrice": "0x221c",
      "l1GasUsed": "0x7fac"
    },
    {
      "status": "0x1",
      "cumulativeGasUsed": "0x23ce66",
      "logs": [
        {
          "address": "0xab35bdafe3942d0b2393921e0944627dd08494d3",
          "topics": [
            "0xddf252ad1be2c89b69c2b068fc378daa952ba7f163c4a11628f55a4df523b3ef",
            "0x0000000000000000000000000000000000000000000000000000000000000000",
            "0x00000000000000000000000056fd3f2bee130e9867942d0f463a16fbe49b8d81"
          ],
          "data": "0x00000000000000000000000000000000000000000000d3c21bcecceda1000000",
          "blockHash": "0xb567e0bcae23b7a5ea9816f77f5b092cd35fb73fae4bc8fcbb82b86e0c882798",
          "blockNumber": "0x41e992",
          "transactionHash": "0xa3dc60395f41662584412a63bc95e16d96dcb46e9e552d5dfd254e0796dbeb87",
          "transactionIndex": "0x6",
          "logIndex": "0xb",
          "removed": false
        }
      ],
      "logsBloom": "0x00000000000000000000000000000000000000000000000020000000000000000000000000000000000000000000010000000000000000000000000000000000000000000000000000000008000000000000000000000000000000000000000000000000020000000000000000000800000000000000000020000010000000000000000000000000000000000000000000000000000000000000000000000000000000000000000000000000000000000000000000000000000000000000000000000002000200000000000000000000000000000000000000000000000020000004000000000000000000000000000000000000000000000000000000020000",
      "type": "0x2",
      "transactionHash": "0xa3dc60395f41662584412a63bc95e16d96dcb46e9e552d5dfd254e0796dbeb87",
      "transactionIndex": "0x6",
      "blockHash": "0xb567e0bcae23b7a5ea9816f77f5b092cd35fb73fae4bc8fcbb82b86e0c882798",
      "blockNumber": "0x41e992",
      "gasUsed": "0x11402",
      "effectiveGasPrice": "0x5d21dba01",
      "from": "0x56fd3f2bee130e9867942d0f463a16fbe49b8d81",
      "to": "0xab35bdafe3942d0b2393921e0944627dd08494d3",
      "contractAddress": null,
      "l1BaseFeeScalar": "0x0",
      "l1BlobBaseFee": "0x425f12",
      "l1BlobBaseFeeScalar": "0x0",
      "l1Fee": "0x0",
      "l1GasPrice": "0x221c",
      "l1GasUsed": "0x640"
    },
    {
      "status": "0x1",
      "cumulativeGasUsed": "0x2e6e26",
      "logs": [
        {
          "address": "0xba5ed099633d3b313e4d5f7bdc1305d3c28ba5ed",
          "topics": [
            "0x2feea65dd4e9f9cbd86b74b7734210c59a1b2981b5b137bd0ee3e208200c9067",
            "0x0000000000000000000000002460758b0129331f3c9d15023994d0ea52922c41",
            "0x888f6ac21c512e9b87f2b9f34fbfa206d2d9ac5958b13864fd0e7ab79f2ecefe"
          ],
          "data": "0x",
          "blockHash": "0xb567e0bcae23b7a5ea9816f77f5b092cd35fb73fae4bc8fcbb82b86e0c882798",
          "blockNumber": "0x41e992",
          "transactionHash": "0x7ccf9d28720033c181eec8410ad717af0e5bc9b3026c97c59e6b5f44368c0548",
          "transactionIndex": "0x7",
          "logIndex": "0xc",
          "removed": false
        },
        {
          "address": "0xd92b0434fbc6026d17bb683dd5570c6b3d1f45af",
          "topics": [
            "0x8be0079c531659141344cd1fd0a4f28419497f9722a3daafe3b4186f6b6457e0",
            "0x0000000000000000000000000000000000000000000000000000000000000000",
            "0x00000000000000000000000056fd3f2bee130e9867942d0f463a16fbe49b8d81"
          ],
          "data": "0x",
          "blockHash": "0xb567e0bcae23b7a5ea9816f77f5b092cd35fb73fae4bc8fcbb82b86e0c882798",
          "blockNumber": "0x41e992",
          "transactionHash": "0x7ccf9d28720033c181eec8410ad717af0e5bc9b3026c97c59e6b5f44368c0548",
          "transactionIndex": "0x7",
          "logIndex": "0xd",
          "removed": false
        },
        {
          "address": "0xba5ed099633d3b313e4d5f7bdc1305d3c28ba5ed",
          "topics": [
            "0x4db17dd5e4732fb6da34a148104a592783ca119a1e7bb8829eba6cbadef0b511",
            "0x000000000000000000000000d92b0434fbc6026d17bb683dd5570c6b3d1f45af"
          ],
          "data": "0x",
          "blockHash": "0xb567e0bcae23b7a5ea9816f77f5b092cd35fb73fae4bc8fcbb82b86e0c882798",
          "blockNumber": "0x41e992",
          "transactionHash": "0x7ccf9d28720033c181eec8410ad717af0e5bc9b3026c97c59e6b5f44368c0548",
          "transactionIndex": "0x7",
          "logIndex": "0xe",
          "removed": false
        }
      ],
      "logsBloom": "0x00020000000000000000000000000000020000000002000020800000200000000000040020000000000000000000011000000000008004000000000000000000000000000000000200000000020000000001000000000000000000000000000000000000020000000000000000000800000000000020000000000000000000400000000000000000000000400040080800000000000000000000004000000000000000000000000000000000000000000000000000000000000000000000000000000000000000000200000000000000000000002000000000000000000020000004000000000204000000000000000000000000000000000000000000000000",
      "type": "0x2",
      "transactionHash": "0x7ccf9d28720033c181eec8410ad717af0e5bc9b3026c97c59e6b5f44368c0548",
      "transactionIndex": "0x7",
      "blockHash": "0xb567e0bcae23b7a5ea9816f77f5b092cd35fb73fae4bc8fcbb82b86e0c882798",
      "blockNumber": "0x41e992",
      "gasUsed": "0xa9fc0",
      "effectiveGasPrice": "0x5d21dba01",
      "from": "0x56fd3f2bee130e9867942d0f463a16fbe49b8d81",
      "to": "0xba5ed099633d3b313e4d5f7bdc1305d3c28ba5ed",
      "contractAddress": null,
      "l1BaseFeeScalar": "0x0",
      "l1BlobBaseFee": "0x425f12",
      "l1BlobBaseFeeScalar": "0x0",
      "l1Fee": "0x0",
      "l1GasPrice": "0x221c",
      "l1GasUsed": "0x7fba"
    },
    {
      "status": "0x1",
      "cumulativeGasUsed": "0x2f8228",
      "logs": [
        {
          "address": "0xd92b0434fbc6026d17bb683dd5570c6b3d1f45af",
          "topics": [
            "0xddf252ad1be2c89b69c2b068fc378daa952ba7f163c4a11628f55a4df523b3ef",
            "0x0000000000000000000000000000000000000000000000000000000000000000",
            "0x00000000000000000000000056fd3f2bee130e9867942d0f463a16fbe49b8d81"
          ],
          "data": "0x00000000000000000000000000000000000000000000d3c21bcecceda1000000",
          "blockHash": "0xb567e0bcae23b7a5ea9816f77f5b092cd35fb73fae4bc8fcbb82b86e0c882798",
          "blockNumber": "0x41e992",
          "transactionHash": "0xfd32ce4992121b4650301ee0ccbac4f0085873e0cfeac3f6f0bfb7e154fb592a",
          "transactionIndex": "0x8",
          "logIndex": "0xf",
          "removed": false
        }
      ],
      "logsBloom": "0x00000000000000000000000000000000000000000002000020000000000000000000000000000000000000000000010000000000008000000000000000000000000000000000000000000008000000000000000000000000000000000000000000000000020000000000000000000800000000000000000000000010000000000000000000000000000000000040000000000000000000000000000000000000000000000000000000000000000000000000000000000000000000000000000000000002000000000000000000000000000000000000000000000000000020000004000000000000000000000000000000000000000000000000000000000000",
      "type": "0x2",
      "transactionHash": "0xfd32ce4992121b4650301ee0ccbac4f0085873e0cfeac3f6f0bfb7e154fb592a",
      "transactionIndex": "0x8",
      "blockHash": "0xb567e0bcae23b7a5ea9816f77f5b092cd35fb73fae4bc8fcbb82b86e0c882798",
      "blockNumber": "0x41e992",
      "gasUsed": "0x11402",
      "effectiveGasPrice": "0x5d21dba01",
      "from": "0x56fd3f2bee130e9867942d0f463a16fbe49b8d81",
      "to": "0xd92b0434fbc6026d17bb683dd5570c6b3d1f45af",
      "contractAddress": null,
      "l1BaseFeeScalar": "0x0",
      "l1BlobBaseFee": "0x425f12",
      "l1BlobBaseFeeScalar": "0x0",
      "l1Fee": "0x0",
      "l1GasPrice": "0x221c",
      "l1GasUsed": "0x640"
    }
  ],
  "libraries": [
    "node_modules/@celo/contracts/common/linkedlists/AddressSortedLinkedListWithMedian.sol:AddressSortedLinkedListWithMedian:0x9F3E80926a9A3aAB06d263EE2Ca1E41c848c3FE0"
  ],
  "pending": [],
  "returns": {},
  "timestamp": 1757603622945,
  "chain": 11142220,
  "commit": "90cc8d0"
}