{
  "transactions": [
    {
      "hash": "0x05eed455870aeed66091fe2b0e354425417ccae1c1026d749b39463db42927e3",
      "transactionType": "CALL",
      "contractName": null,
      "contractAddress": "0xba5ed099633d3b313e4d5f7bdc1305d3c28ba5ed",
      "function": "deployCreate3(bytes32,bytes)",
      "arguments": [
        "0x56fd3f2bee130e9867942d0f463a16fbe49b8d810019ed0d0105a581a90b5ba3",
        "0x608060405234801561000f575f5ffd5b50604051610c81380380610c8183398101604081905261002e9161017a565b808383600361003d8382610283565b50600461004a8282610283565b5050506001600160a01b03811661007a57604051631e4fbdf760e01b81525f600482015260240160405180910390fd5b6100838161008c565b5050505061033d565b600580546001600160a01b038381166001600160a01b0319831681179093556040519116919082907f8be0079c531659141344cd1fd0a4f28419497f9722a3daafe3b4186f6b6457e0905f90a35050565b634e487b7160e01b5f52604160045260245ffd5b5f82601f830112610100575f5ffd5b81516001600160401b03811115610119576101196100dd565b604051601f8201601f19908116603f011681016001600160401b0381118282101715610147576101476100dd565b60405281815283820160200185101561015e575f5ffd5b8160208501602083015e5f918101602001919091529392505050565b5f5f5f6060848603121561018c575f5ffd5b83516001600160401b038111156101a1575f5ffd5b6101ad868287016100f1565b602086015190945090506001600160401b038111156101ca575f5ffd5b6101d6868287016100f1565b604086015190935090506001600160a01b03811681146101f4575f5ffd5b809150509250925092565b600181811c9082168061021357607f821691505b60208210810361023157634e487b7160e01b5f52602260045260245ffd5b50919050565b601f82111561027e57805f5260205f20601f840160051c8101602085101561025c5750805b601f840160051c820191505b8181101561027b575f8155600101610268565b50505b505050565b81516001600160401b0381111561029c5761029c6100dd565b6102b0816102aa84546101ff565b84610237565b6020601f8211600181146102e2575f83156102cb5750848201515b5f19600385901b1c1916600184901b17845561027b565b5f84815260208120601f198516915b8281101561031157878501518255602094850194600190920191016102f1565b508482101561032e57868401515f19600387901b60f8161c191681555b50505050600190811b01905550565b6109378061034a5f395ff3fe608060405234801561000f575f5ffd5b50600436106100f0575f3560e01c806370a082311161009357806395d89b411161006357806395d89b41146101ef578063a9059cbb146101f7578063dd62ed3e1461020a578063f2fde38b14610242575f5ffd5b806370a0823114610191578063715018a6146101b957806379cc6790146101c15780638da5cb5b146101d4575f5ffd5b806323b872dd116100ce57806323b872dd14610147578063313ce5671461015a57806340c10f191461016957806342966c681461017e575f5ffd5b806306fdde03146100f4578063095ea7b31461011257806318160ddd14610135575b5f5ffd5b6100fc610255565b6040516101099190610790565b60405180910390f35b6101256101203660046107e0565b6102e5565b6040519015158152602001610109565b6002545b604051908152602001610109565b610125610155366004610808565b6102fe565b60405160128152602001610109565b61017c6101773660046107e0565b610321565b005b61017c61018c366004610842565b610337565b61013961019f366004610859565b6001600160a01b03165f9081526020819052604090205490565b61017c610344565b61017c6101cf3660046107e0565b610357565b6005546040516001600160a01b039091168152602001610109565b6100fc61036c565b6101256102053660046107e0565b61037b565b610139610218366004610879565b6001600160a01b039182165f90815260016020908152604080832093909416825291909152205490565b61017c610250366004610859565b610388565b606060038054610264906108aa565b80601f0160208091040260200160405190810160405280929190818152602001828054610290906108aa565b80156102db5780601f106102b2576101008083540402835291602001916102db565b820191905f5260205f20905b8154815290600101906020018083116102be57829003601f168201915b5050505050905090565b5f336102f28185856103c7565b60019150505b92915050565b5f3361030b8582856103d9565b610316858585610455565b506001949350505050565b6103296104b2565b61033382826104df565b5050565b6103413382610513565b50565b61034c6104b2565b6103555f610547565b565b6103628233836103d9565b6103338282610513565b606060048054610264906108aa565b5f336102f2818585610455565b6103906104b2565b6001600160a01b0381166103be57604051631e4fbdf760e01b81525f60048201526024015b60405180910390fd5b61034181610547565b6103d48383836001610598565b505050565b6001600160a01b038381165f908152600160209081526040808320938616835292905220545f1981101561044f578181101561044157604051637dc7a0d960e11b81526001600160a01b038416600482015260248101829052604481018390526064016103b5565b61044f84848484035f610598565b50505050565b6001600160a01b03831661047e57604051634b637e8f60e11b81525f60048201526024016103b5565b6001600160a01b0382166104a75760405163ec442f0560e01b81525f60048201526024016103b5565b6103d483838361066a565b6005546001600160a01b031633146103555760405163118cdaa760e01b81523360048201526024016103b5565b6001600160a01b0382166105085760405163ec442f0560e01b81525f60048201526024016103b5565b6103335f838361066a565b6001600160a01b03821661053c57604051634b637e8f60e11b81525f60048201526024016103b5565b610333825f8361066a565b600580546001600160a01b038381166001600160a01b0319831681179093556040519116919082907f8be0079c531659141344cd1fd0a4f28419497f9722a3daafe3b4186f6b6457e0905f90a35050565b6001600160a01b0384166105c15760405163e602df0560e01b81525f60048201526024016103b5565b6001600160a01b0383166105ea57604051634a1406b160e11b81525f60048201526024016103b5565b6001600160a01b038085165f908152600160209081526040808320938716835292905220829055801561044f57826001600160a01b0316846001600160a01b03167f8c5be1e5ebec7d5bd14f71427d1e84f3dd0314c0f7b2291e5b200ac8c7c3b9258460405161065c91815260200190565b60405180910390a350505050565b6001600160a01b038316610694578060025f82825461068991906108e2565b909155506107049050565b6001600160a01b0383165f90815260208190526040902054818110156106e65760405163391434e360e21b81526001600160a01b038516600482015260248101829052604481018390526064016103b5565b6001600160a01b0384165f9081526020819052604090209082900390555b6001600160a01b0382166107205760028054829003905561073e565b6001600160a01b0382165f9081526020819052604090208054820190555b816001600160a01b0316836001600160a01b03167fddf252ad1be2c89b69c2b068fc378daa952ba7f163c4a11628f55a4df523b3ef8360405161078391815260200190565b60405180910390a3505050565b602081525f82518060208401528060208501604085015e5f604082850101526040601f19601f83011684010191505092915050565b80356001600160a01b03811681146107db575f5ffd5b919050565b5f5f604083850312156107f1575f5ffd5b6107fa836107c5565b946020939093013593505050565b5f5f5f6060848603121561081a575f5ffd5b610823846107c5565b9250610831602085016107c5565b929592945050506040919091013590565b5f60208284031215610852575f5ffd5b5035919050565b5f60208284031215610869575f5ffd5b610872826107c5565b9392505050565b5f5f6040838503121561088a575f5ffd5b610893836107c5565b91506108a1602084016107c5565b90509250929050565b600181811c908216806108be57607f821691505b6020821081036108dc57634e487b7160e01b5f52602260045260245ffd5b50919050565b808201808211156102f857634e487b7160e01b5f52601160045260245ffdfea2646970667358221220c59559c261ced4b4756a29c23eed2ecc7c5c7e434af14d6cd511f8c85c9fdc4b64736f6c634300081e0033000000000000000000000000000000000000000000000000000000000000006000000000000000000000000000000000000000000000000000000000000000a000000000000000000000000056fd3f2bee130e9867942d0f463a16fbe49b8d81000000000000000000000000000000000000000000000000000000000000000f4d656e746f204d6f636b2055534443000000000000000000000000000000000000000000000000000000000000000000000000000000000000000000000000045553444300000000000000000000000000000000000000000000000000000000"
      ],
      "transaction": {
        "from": "0x56fd3f2bee130e9867942d0f463a16fbe49b8d81",
        "to": "0xba5ed099633d3b313e4d5f7bdc1305d3c28ba5ed",
        "gas": "0xeac23",
        "value": "0x0",
        "input": "0x9c36a28656fd3f2bee130e9867942d0f463a16fbe49b8d810019ed0d0105a581a90b5ba300000000000000000000000000000000000000000000000000000000000000400000000000000000000000000000000000000000000000000000000000000d61608060405234801561000f575f5ffd5b50604051610c81380380610c8183398101604081905261002e9161017a565b808383600361003d8382610283565b50600461004a8282610283565b5050506001600160a01b03811661007a57604051631e4fbdf760e01b81525f600482015260240160405180910390fd5b6100838161008c565b5050505061033d565b600580546001600160a01b038381166001600160a01b0319831681179093556040519116919082907f8be0079c531659141344cd1fd0a4f28419497f9722a3daafe3b4186f6b6457e0905f90a35050565b634e487b7160e01b5f52604160045260245ffd5b5f82601f830112610100575f5ffd5b81516001600160401b03811115610119576101196100dd565b604051601f8201601f19908116603f011681016001600160401b0381118282101715610147576101476100dd565b60405281815283820160200185101561015e575f5ffd5b8160208501602083015e5f918101602001919091529392505050565b5f5f5f6060848603121561018c575f5ffd5b83516001600160401b038111156101a1575f5ffd5b6101ad868287016100f1565b602086015190945090506001600160401b038111156101ca575f5ffd5b6101d6868287016100f1565b604086015190935090506001600160a01b03811681146101f4575f5ffd5b809150509250925092565b600181811c9082168061021357607f821691505b60208210810361023157634e487b7160e01b5f52602260045260245ffd5b50919050565b601f82111561027e57805f5260205f20601f840160051c8101602085101561025c5750805b601f840160051c820191505b8181101561027b575f8155600101610268565b50505b505050565b81516001600160401b0381111561029c5761029c6100dd565b6102b0816102aa84546101ff565b84610237565b6020601f8211600181146102e2575f83156102cb5750848201515b5f19600385901b1c1916600184901b17845561027b565b5f84815260208120601f198516915b8281101561031157878501518255602094850194600190920191016102f1565b508482101561032e57868401515f19600387901b60f8161c191681555b50505050600190811b01905550565b6109378061034a5f395ff3fe608060405234801561000f575f5ffd5b50600436106100f0575f3560e01c806370a082311161009357806395d89b411161006357806395d89b41146101ef578063a9059cbb146101f7578063dd62ed3e1461020a578063f2fde38b14610242575f5ffd5b806370a0823114610191578063715018a6146101b957806379cc6790146101c15780638da5cb5b146101d4575f5ffd5b806323b872dd116100ce57806323b872dd14610147578063313ce5671461015a57806340c10f191461016957806342966c681461017e575f5ffd5b806306fdde03146100f4578063095ea7b31461011257806318160ddd14610135575b5f5ffd5b6100fc610255565b6040516101099190610790565b60405180910390f35b6101256101203660046107e0565b6102e5565b6040519015158152602001610109565b6002545b604051908152602001610109565b610125610155366004610808565b6102fe565b60405160128152602001610109565b61017c6101773660046107e0565b610321565b005b61017c61018c366004610842565b610337565b61013961019f366004610859565b6001600160a01b03165f9081526020819052604090205490565b61017c610344565b61017c6101cf3660046107e0565b610357565b6005546040516001600160a01b039091168152602001610109565b6100fc61036c565b6101256102053660046107e0565b61037b565b610139610218366004610879565b6001600160a01b039182165f90815260016020908152604080832093909416825291909152205490565b61017c610250366004610859565b610388565b606060038054610264906108aa565b80601f0160208091040260200160405190810160405280929190818152602001828054610290906108aa565b80156102db5780601f106102b2576101008083540402835291602001916102db565b820191905f5260205f20905b8154815290600101906020018083116102be57829003601f168201915b5050505050905090565b5f336102f28185856103c7565b60019150505b92915050565b5f3361030b8582856103d9565b610316858585610455565b506001949350505050565b6103296104b2565b61033382826104df565b5050565b6103413382610513565b50565b61034c6104b2565b6103555f610547565b565b6103628233836103d9565b6103338282610513565b606060048054610264906108aa565b5f336102f2818585610455565b6103906104b2565b6001600160a01b0381166103be57604051631e4fbdf760e01b81525f60048201526024015b60405180910390fd5b61034181610547565b6103d48383836001610598565b505050565b6001600160a01b038381165f908152600160209081526040808320938616835292905220545f1981101561044f578181101561044157604051637dc7a0d960e11b81526001600160a01b038416600482015260248101829052604481018390526064016103b5565b61044f84848484035f610598565b50505050565b6001600160a01b03831661047e57604051634b637e8f60e11b81525f60048201526024016103b5565b6001600160a01b0382166104a75760405163ec442f0560e01b81525f60048201526024016103b5565b6103d483838361066a565b6005546001600160a01b031633146103555760405163118cdaa760e01b81523360048201526024016103b5565b6001600160a01b0382166105085760405163ec442f0560e01b81525f60048201526024016103b5565b6103335f838361066a565b6001600160a01b03821661053c57604051634b637e8f60e11b81525f60048201526024016103b5565b610333825f8361066a565b600580546001600160a01b038381166001600160a01b0319831681179093556040519116919082907f8be0079c531659141344cd1fd0a4f28419497f9722a3daafe3b4186f6b6457e0905f90a35050565b6001600160a01b0384166105c15760405163e602df0560e01b81525f60048201526024016103b5565b6001600160a01b0383166105ea57604051634a1406b160e11b81525f60048201526024016103b5565b6001600160a01b038085165f908152600160209081526040808320938716835292905220829055801561044f57826001600160a01b0316846001600160a01b03167f8c5be1e5ebec7d5bd14f71427d1e84f3dd0314c0f7b2291e5b200ac8c7c3b9258460405161065c91815260200190565b60405180910390a350505050565b6001600160a01b038316610694578060025f82825461068991906108e2565b909155506107049050565b6001600160a01b0383165f90815260208190526040902054818110156106e65760405163391434e360e21b81526001600160a01b038516600482015260248101829052604481018390526064016103b5565b6001600160a01b0384165f9081526020819052604090209082900390555b6001600160a01b0382166107205760028054829003905561073e565b6001600160a01b0382165f9081526020819052604090208054820190555b816001600160a01b0316836001600160a01b03167fddf252ad1be2c89b69c2b068fc378daa952ba7f163c4a11628f55a4df523b3ef8360405161078391815260200190565b60405180910390a3505050565b602081525f82518060208401528060208501604085015e5f604082850101526040601f19601f83011684010191505092915050565b80356001600160a01b03811681146107db575f5ffd5b919050565b5f5f604083850312156107f1575f5ffd5b6107fa836107c5565b946020939093013593505050565b5f5f5f6060848603121561081a575f5ffd5b610823846107c5565b9250610831602085016107c5565b929592945050506040919091013590565b5f60208284031215610852575f5ffd5b5035919050565b5f60208284031215610869575f5ffd5b610872826107c5565b9392505050565b5f5f6040838503121561088a575f5ffd5b610893836107c5565b91506108a1602084016107c5565b90509250929050565b600181811c908216806108be57607f821691505b6020821081036108dc57634e487b7160e01b5f52602260045260245ffd5b50919050565b808201808211156102f857634e487b7160e01b5f52601160045260245ffdfea2646970667358221220c59559c261ced4b4756a29c23eed2ecc7c5c7e434af14d6cd511f8c85c9fdc4b64736f6c634300081e0033000000000000000000000000000000000000000000000000000000000000006000000000000000000000000000000000000000000000000000000000000000a000000000000000000000000056fd3f2bee130e9867942d0f463a16fbe49b8d81000000000000000000000000000000000000000000000000000000000000000f4d656e746f204d6f636b205553444300000000000000000000000000000000000000000000000000000000000000000000000000000000000000000000000004555344430000000000000000000000000000000000000000000000000000000000000000000000000000000000000000000000000000000000000000000000",
        "nonce": "0x38",
        "chainId": "0xaa044c"
      },
      "additionalContracts": [
        {
          "transactionType": "CREATE2",
          "address": "0x11ccea60afac14aaaf115cf777deb5df22e20b1d",
          "initCode": "0x67363d3d37363d34f03d5260086018f3"
        },
        {
          "transactionType": "CREATE",
          "address": "0xea29e54e7bd633e94c67006277ff7ec70cc611b1",
          "initCode": "0x608060405234801561000f575f5ffd5b50604051610c81380380610c8183398101604081905261002e9161017a565b808383600361003d8382610283565b50600461004a8282610283565b5050506001600160a01b03811661007a57604051631e4fbdf760e01b81525f600482015260240160405180910390fd5b6100838161008c565b5050505061033d565b600580546001600160a01b038381166001600160a01b0319831681179093556040519116919082907f8be0079c531659141344cd1fd0a4f28419497f9722a3daafe3b4186f6b6457e0905f90a35050565b634e487b7160e01b5f52604160045260245ffd5b5f82601f830112610100575f5ffd5b81516001600160401b03811115610119576101196100dd565b604051601f8201601f19908116603f011681016001600160401b0381118282101715610147576101476100dd565b60405281815283820160200185101561015e575f5ffd5b8160208501602083015e5f918101602001919091529392505050565b5f5f5f6060848603121561018c575f5ffd5b83516001600160401b038111156101a1575f5ffd5b6101ad868287016100f1565b602086015190945090506001600160401b038111156101ca575f5ffd5b6101d6868287016100f1565b604086015190935090506001600160a01b03811681146101f4575f5ffd5b809150509250925092565b600181811c9082168061021357607f821691505b60208210810361023157634e487b7160e01b5f52602260045260245ffd5b50919050565b601f82111561027e57805f5260205f20601f840160051c8101602085101561025c5750805b601f840160051c820191505b8181101561027b575f8155600101610268565b50505b505050565b81516001600160401b0381111561029c5761029c6100dd565b6102b0816102aa84546101ff565b84610237565b6020601f8211600181146102e2575f83156102cb5750848201515b5f19600385901b1c1916600184901b17845561027b565b5f84815260208120601f198516915b8281101561031157878501518255602094850194600190920191016102f1565b508482101561032e57868401515f19600387901b60f8161c191681555b50505050600190811b01905550565b6109378061034a5f395ff3fe608060405234801561000f575f5ffd5b50600436106100f0575f3560e01c806370a082311161009357806395d89b411161006357806395d89b41146101ef578063a9059cbb146101f7578063dd62ed3e1461020a578063f2fde38b14610242575f5ffd5b806370a0823114610191578063715018a6146101b957806379cc6790146101c15780638da5cb5b146101d4575f5ffd5b806323b872dd116100ce57806323b872dd14610147578063313ce5671461015a57806340c10f191461016957806342966c681461017e575f5ffd5b806306fdde03146100f4578063095ea7b31461011257806318160ddd14610135575b5f5ffd5b6100fc610255565b6040516101099190610790565b60405180910390f35b6101256101203660046107e0565b6102e5565b6040519015158152602001610109565b6002545b604051908152602001610109565b610125610155366004610808565b6102fe565b60405160128152602001610109565b61017c6101773660046107e0565b610321565b005b61017c61018c366004610842565b610337565b61013961019f366004610859565b6001600160a01b03165f9081526020819052604090205490565b61017c610344565b61017c6101cf3660046107e0565b610357565b6005546040516001600160a01b039091168152602001610109565b6100fc61036c565b6101256102053660046107e0565b61037b565b610139610218366004610879565b6001600160a01b039182165f90815260016020908152604080832093909416825291909152205490565b61017c610250366004610859565b610388565b606060038054610264906108aa565b80601f0160208091040260200160405190810160405280929190818152602001828054610290906108aa565b80156102db5780601f106102b2576101008083540402835291602001916102db565b820191905f5260205f20905b8154815290600101906020018083116102be57829003601f168201915b5050505050905090565b5f336102f28185856103c7565b60019150505b92915050565b5f3361030b8582856103d9565b610316858585610455565b506001949350505050565b6103296104b2565b61033382826104df565b5050565b6103413382610513565b50565b61034c6104b2565b6103555f610547565b565b6103628233836103d9565b6103338282610513565b606060048054610264906108aa565b5f336102f2818585610455565b6103906104b2565b6001600160a01b0381166103be57604051631e4fbdf760e01b81525f60048201526024015b60405180910390fd5b61034181610547565b6103d48383836001610598565b505050565b6001600160a01b038381165f908152600160209081526040808320938616835292905220545f1981101561044f578181101561044157604051637dc7a0d960e11b81526001600160a01b038416600482015260248101829052604481018390526064016103b5565b61044f84848484035f610598565b50505050565b6001600160a01b03831661047e57604051634b637e8f60e11b81525f60048201526024016103b5565b6001600160a01b0382166104a75760405163ec442f0560e01b81525f60048201526024016103b5565b6103d483838361066a565b6005546001600160a01b031633146103555760405163118cdaa760e01b81523360048201526024016103b5565b6001600160a01b0382166105085760405163ec442f0560e01b81525f60048201526024016103b5565b6103335f838361066a565b6001600160a01b03821661053c57604051634b637e8f60e11b81525f60048201526024016103b5565b610333825f8361066a565b600580546001600160a01b038381166001600160a01b0319831681179093556040519116919082907f8be0079c531659141344cd1fd0a4f28419497f9722a3daafe3b4186f6b6457e0905f90a35050565b6001600160a01b0384166105c15760405163e602df0560e01b81525f60048201526024016103b5565b6001600160a01b0383166105ea57604051634a1406b160e11b81525f60048201526024016103b5565b6001600160a01b038085165f908152600160209081526040808320938716835292905220829055801561044f57826001600160a01b0316846001600160a01b03167f8c5be1e5ebec7d5bd14f71427d1e84f3dd0314c0f7b2291e5b200ac8c7c3b9258460405161065c91815260200190565b60405180910390a350505050565b6001600160a01b038316610694578060025f82825461068991906108e2565b909155506107049050565b6001600160a01b0383165f90815260208190526040902054818110156106e65760405163391434e360e21b81526001600160a01b038516600482015260248101829052604481018390526064016103b5565b6001600160a01b0384165f9081526020819052604090209082900390555b6001600160a01b0382166107205760028054829003905561073e565b6001600160a01b0382165f9081526020819052604090208054820190555b816001600160a01b0316836001600160a01b03167fddf252ad1be2c89b69c2b068fc378daa952ba7f163c4a11628f55a4df523b3ef8360405161078391815260200190565b60405180910390a3505050565b602081525f82518060208401528060208501604085015e5f604082850101526040601f19601f83011684010191505092915050565b80356001600160a01b03811681146107db575f5ffd5b919050565b5f5f604083850312156107f1575f5ffd5b6107fa836107c5565b946020939093013593505050565b5f5f5f6060848603121561081a575f5ffd5b610823846107c5565b9250610831602085016107c5565b929592945050506040919091013590565b5f60208284031215610852575f5ffd5b5035919050565b5f60208284031215610869575f5ffd5b610872826107c5565b9392505050565b5f5f6040838503121561088a575f5ffd5b610893836107c5565b91506108a1602084016107c5565b90509250929050565b600181811c908216806108be57607f821691505b6020821081036108dc57634e487b7160e01b5f52602260045260245ffd5b50919050565b808201808211156102f857634e487b7160e01b5f52601160045260245ffdfea2646970667358221220c59559c261ced4b4756a29c23eed2ecc7c5c7e434af14d6cd511f8c85c9fdc4b64736f6c634300081e0033000000000000000000000000000000000000000000000000000000000000006000000000000000000000000000000000000000000000000000000000000000a000000000000000000000000056fd3f2bee130e9867942d0f463a16fbe49b8d81000000000000000000000000000000000000000000000000000000000000000f4d656e746f204d6f636b2055534443000000000000000000000000000000000000000000000000000000000000000000000000000000000000000000000000045553444300000000000000000000000000000000000000000000000000000000"
        }
      ],
      "isFixedGasLimit": false
    },
    {
      "hash": "0x6a6c1acdd17e9474ea2899cfc01b756e57cbcd18e50decc3d12f57dc49ec7ad6",
      "transactionType": "CALL",
      "contractName": "MockERC20",
      "contractAddress": "0xea29e54e7bd633e94c67006277ff7ec70cc611b1",
      "function": "mint(address,uint256)",
      "arguments": [
        "0x56fD3F2bEE130e9867942D0F463a16fBE49B8d81",
        "1000000000000000000000000"
      ],
      "transaction": {
        "from": "0x56fd3f2bee130e9867942d0f463a16fbe49b8d81",
        "to": "0xea29e54e7bd633e94c67006277ff7ec70cc611b1",
        "gas": "0x193a9",
        "value": "0x0",
        "input": "0x40c10f1900000000000000000000000056fd3f2bee130e9867942d0f463a16fbe49b8d8100000000000000000000000000000000000000000000d3c21bcecceda1000000",
        "nonce": "0x39",
        "chainId": "0xaa044c"
      },
      "additionalContracts": [],
      "isFixedGasLimit": false
    },
    {
      "hash": "0x71d954e28177bf66899a3a89083bdb1b383093ccb0a5d370ed72b864c406ac6e",
      "transactionType": "CALL",
      "contractName": null,
      "contractAddress": "0xba5ed099633d3b313e4d5f7bdc1305d3c28ba5ed",
      "function": "deployCreate3(bytes32,bytes)",
      "arguments": [
        "0x56fd3f2bee130e9867942d0f463a16fbe49b8d810025664025264b0b5d546a43",
        "0x608060405234801561000f575f5ffd5b50604051610c81380380610c8183398101604081905261002e9161017a565b808383600361003d8382610283565b50600461004a8282610283565b5050506001600160a01b03811661007a57604051631e4fbdf760e01b81525f600482015260240160405180910390fd5b6100838161008c565b5050505061033d565b600580546001600160a01b038381166001600160a01b0319831681179093556040519116919082907f8be0079c531659141344cd1fd0a4f28419497f9722a3daafe3b4186f6b6457e0905f90a35050565b634e487b7160e01b5f52604160045260245ffd5b5f82601f830112610100575f5ffd5b81516001600160401b03811115610119576101196100dd565b604051601f8201601f19908116603f011681016001600160401b0381118282101715610147576101476100dd565b60405281815283820160200185101561015e575f5ffd5b8160208501602083015e5f918101602001919091529392505050565b5f5f5f6060848603121561018c575f5ffd5b83516001600160401b038111156101a1575f5ffd5b6101ad868287016100f1565b602086015190945090506001600160401b038111156101ca575f5ffd5b6101d6868287016100f1565b604086015190935090506001600160a01b03811681146101f4575f5ffd5b809150509250925092565b600181811c9082168061021357607f821691505b60208210810361023157634e487b7160e01b5f52602260045260245ffd5b50919050565b601f82111561027e57805f5260205f20601f840160051c8101602085101561025c5750805b601f840160051c820191505b8181101561027b575f8155600101610268565b50505b505050565b81516001600160401b0381111561029c5761029c6100dd565b6102b0816102aa84546101ff565b84610237565b6020601f8211600181146102e2575f83156102cb5750848201515b5f19600385901b1c1916600184901b17845561027b565b5f84815260208120601f198516915b8281101561031157878501518255602094850194600190920191016102f1565b508482101561032e57868401515f19600387901b60f8161c191681555b50505050600190811b01905550565b6109378061034a5f395ff3fe608060405234801561000f575f5ffd5b50600436106100f0575f3560e01c806370a082311161009357806395d89b411161006357806395d89b41146101ef578063a9059cbb146101f7578063dd62ed3e1461020a578063f2fde38b14610242575f5ffd5b806370a0823114610191578063715018a6146101b957806379cc6790146101c15780638da5cb5b146101d4575f5ffd5b806323b872dd116100ce57806323b872dd14610147578063313ce5671461015a57806340c10f191461016957806342966c681461017e575f5ffd5b806306fdde03146100f4578063095ea7b31461011257806318160ddd14610135575b5f5ffd5b6100fc610255565b6040516101099190610790565b60405180910390f35b6101256101203660046107e0565b6102e5565b6040519015158152602001610109565b6002545b604051908152602001610109565b610125610155366004610808565b6102fe565b60405160128152602001610109565b61017c6101773660046107e0565b610321565b005b61017c61018c366004610842565b610337565b61013961019f366004610859565b6001600160a01b03165f9081526020819052604090205490565b61017c610344565b61017c6101cf3660046107e0565b610357565b6005546040516001600160a01b039091168152602001610109565b6100fc61036c565b6101256102053660046107e0565b61037b565b610139610218366004610879565b6001600160a01b039182165f90815260016020908152604080832093909416825291909152205490565b61017c610250366004610859565b610388565b606060038054610264906108aa565b80601f0160208091040260200160405190810160405280929190818152602001828054610290906108aa565b80156102db5780601f106102b2576101008083540402835291602001916102db565b820191905f5260205f20905b8154815290600101906020018083116102be57829003601f168201915b5050505050905090565b5f336102f28185856103c7565b60019150505b92915050565b5f3361030b8582856103d9565b610316858585610455565b506001949350505050565b6103296104b2565b61033382826104df565b5050565b6103413382610513565b50565b61034c6104b2565b6103555f610547565b565b6103628233836103d9565b6103338282610513565b606060048054610264906108aa565b5f336102f2818585610455565b6103906104b2565b6001600160a01b0381166103be57604051631e4fbdf760e01b81525f60048201526024015b60405180910390fd5b61034181610547565b6103d48383836001610598565b505050565b6001600160a01b038381165f908152600160209081526040808320938616835292905220545f1981101561044f578181101561044157604051637dc7a0d960e11b81526001600160a01b038416600482015260248101829052604481018390526064016103b5565b61044f84848484035f610598565b50505050565b6001600160a01b03831661047e57604051634b637e8f60e11b81525f60048201526024016103b5565b6001600160a01b0382166104a75760405163ec442f0560e01b81525f60048201526024016103b5565b6103d483838361066a565b6005546001600160a01b031633146103555760405163118cdaa760e01b81523360048201526024016103b5565b6001600160a01b0382166105085760405163ec442f0560e01b81525f60048201526024016103b5565b6103335f838361066a565b6001600160a01b03821661053c57604051634b637e8f60e11b81525f60048201526024016103b5565b610333825f8361066a565b600580546001600160a01b038381166001600160a01b0319831681179093556040519116919082907f8be0079c531659141344cd1fd0a4f28419497f9722a3daafe3b4186f6b6457e0905f90a35050565b6001600160a01b0384166105c15760405163e602df0560e01b81525f60048201526024016103b5565b6001600160a01b0383166105ea57604051634a1406b160e11b81525f60048201526024016103b5565b6001600160a01b038085165f908152600160209081526040808320938716835292905220829055801561044f57826001600160a01b0316846001600160a01b03167f8c5be1e5ebec7d5bd14f71427d1e84f3dd0314c0f7b2291e5b200ac8c7c3b9258460405161065c91815260200190565b60405180910390a350505050565b6001600160a01b038316610694578060025f82825461068991906108e2565b909155506107049050565b6001600160a01b0383165f90815260208190526040902054818110156106e65760405163391434e360e21b81526001600160a01b038516600482015260248101829052604481018390526064016103b5565b6001600160a01b0384165f9081526020819052604090209082900390555b6001600160a01b0382166107205760028054829003905561073e565b6001600160a01b0382165f9081526020819052604090208054820190555b816001600160a01b0316836001600160a01b03167fddf252ad1be2c89b69c2b068fc378daa952ba7f163c4a11628f55a4df523b3ef8360405161078391815260200190565b60405180910390a3505050565b602081525f82518060208401528060208501604085015e5f604082850101526040601f19601f83011684010191505092915050565b80356001600160a01b03811681146107db575f5ffd5b919050565b5f5f604083850312156107f1575f5ffd5b6107fa836107c5565b946020939093013593505050565b5f5f5f6060848603121561081a575f5ffd5b610823846107c5565b9250610831602085016107c5565b929592945050506040919091013590565b5f60208284031215610852575f5ffd5b5035919050565b5f60208284031215610869575f5ffd5b610872826107c5565b9392505050565b5f5f6040838503121561088a575f5ffd5b610893836107c5565b91506108a1602084016107c5565b90509250929050565b600181811c908216806108be57607f821691505b6020821081036108dc57634e487b7160e01b5f52602260045260245ffd5b50919050565b808201808211156102f857634e487b7160e01b5f52601160045260245ffdfea2646970667358221220c59559c261ced4b4756a29c23eed2ecc7c5c7e434af14d6cd511f8c85c9fdc4b64736f6c634300081e0033000000000000000000000000000000000000000000000000000000000000006000000000000000000000000000000000000000000000000000000000000000a000000000000000000000000056fd3f2bee130e9867942d0f463a16fbe49b8d81000000000000000000000000000000000000000000000000000000000000000f4d656e746f204d6f636b2055534454000000000000000000000000000000000000000000000000000000000000000000000000000000000000000000000000045553445400000000000000000000000000000000000000000000000000000000"
      ],
      "transaction": {
        "from": "0x56fd3f2bee130e9867942d0f463a16fbe49b8d81",
        "to": "0xba5ed099633d3b313e4d5f7bdc1305d3c28ba5ed",
        "gas": "0xeac23",
        "value": "0x0",
        "input": "0x9c36a28656fd3f2bee130e9867942d0f463a16fbe49b8d810025664025264b0b5d546a4300000000000000000000000000000000000000000000000000000000000000400000000000000000000000000000000000000000000000000000000000000d61608060405234801561000f575f5ffd5b50604051610c81380380610c8183398101604081905261002e9161017a565b808383600361003d8382610283565b50600461004a8282610283565b5050506001600160a01b03811661007a57604051631e4fbdf760e01b81525f600482015260240160405180910390fd5b6100838161008c565b5050505061033d565b600580546001600160a01b038381166001600160a01b0319831681179093556040519116919082907f8be0079c531659141344cd1fd0a4f28419497f9722a3daafe3b4186f6b6457e0905f90a35050565b634e487b7160e01b5f52604160045260245ffd5b5f82601f830112610100575f5ffd5b81516001600160401b03811115610119576101196100dd565b604051601f8201601f19908116603f011681016001600160401b0381118282101715610147576101476100dd565b60405281815283820160200185101561015e575f5ffd5b8160208501602083015e5f918101602001919091529392505050565b5f5f5f6060848603121561018c575f5ffd5b83516001600160401b038111156101a1575f5ffd5b6101ad868287016100f1565b602086015190945090506001600160401b038111156101ca575f5ffd5b6101d6868287016100f1565b604086015190935090506001600160a01b03811681146101f4575f5ffd5b809150509250925092565b600181811c9082168061021357607f821691505b60208210810361023157634e487b7160e01b5f52602260045260245ffd5b50919050565b601f82111561027e57805f5260205f20601f840160051c8101602085101561025c5750805b601f840160051c820191505b8181101561027b575f8155600101610268565b50505b505050565b81516001600160401b0381111561029c5761029c6100dd565b6102b0816102aa84546101ff565b84610237565b6020601f8211600181146102e2575f83156102cb5750848201515b5f19600385901b1c1916600184901b17845561027b565b5f84815260208120601f198516915b8281101561031157878501518255602094850194600190920191016102f1565b508482101561032e57868401515f19600387901b60f8161c191681555b50505050600190811b01905550565b6109378061034a5f395ff3fe608060405234801561000f575f5ffd5b50600436106100f0575f3560e01c806370a082311161009357806395d89b411161006357806395d89b41146101ef578063a9059cbb146101f7578063dd62ed3e1461020a578063f2fde38b14610242575f5ffd5b806370a0823114610191578063715018a6146101b957806379cc6790146101c15780638da5cb5b146101d4575f5ffd5b806323b872dd116100ce57806323b872dd14610147578063313ce5671461015a57806340c10f191461016957806342966c681461017e575f5ffd5b806306fdde03146100f4578063095ea7b31461011257806318160ddd14610135575b5f5ffd5b6100fc610255565b6040516101099190610790565b60405180910390f35b6101256101203660046107e0565b6102e5565b6040519015158152602001610109565b6002545b604051908152602001610109565b610125610155366004610808565b6102fe565b60405160128152602001610109565b61017c6101773660046107e0565b610321565b005b61017c61018c366004610842565b610337565b61013961019f366004610859565b6001600160a01b03165f9081526020819052604090205490565b61017c610344565b61017c6101cf3660046107e0565b610357565b6005546040516001600160a01b039091168152602001610109565b6100fc61036c565b6101256102053660046107e0565b61037b565b610139610218366004610879565b6001600160a01b039182165f90815260016020908152604080832093909416825291909152205490565b61017c610250366004610859565b610388565b606060038054610264906108aa565b80601f0160208091040260200160405190810160405280929190818152602001828054610290906108aa565b80156102db5780601f106102b2576101008083540402835291602001916102db565b820191905f5260205f20905b8154815290600101906020018083116102be57829003601f168201915b5050505050905090565b5f336102f28185856103c7565b60019150505b92915050565b5f3361030b8582856103d9565b610316858585610455565b506001949350505050565b6103296104b2565b61033382826104df565b5050565b6103413382610513565b50565b61034c6104b2565b6103555f610547565b565b6103628233836103d9565b6103338282610513565b606060048054610264906108aa565b5f336102f2818585610455565b6103906104b2565b6001600160a01b0381166103be57604051631e4fbdf760e01b81525f60048201526024015b60405180910390fd5b61034181610547565b6103d48383836001610598565b505050565b6001600160a01b038381165f908152600160209081526040808320938616835292905220545f1981101561044f578181101561044157604051637dc7a0d960e11b81526001600160a01b038416600482015260248101829052604481018390526064016103b5565b61044f84848484035f610598565b50505050565b6001600160a01b03831661047e57604051634b637e8f60e11b81525f60048201526024016103b5565b6001600160a01b0382166104a75760405163ec442f0560e01b81525f60048201526024016103b5565b6103d483838361066a565b6005546001600160a01b031633146103555760405163118cdaa760e01b81523360048201526024016103b5565b6001600160a01b0382166105085760405163ec442f0560e01b81525f60048201526024016103b5565b6103335f838361066a565b6001600160a01b03821661053c57604051634b637e8f60e11b81525f60048201526024016103b5565b610333825f8361066a565b600580546001600160a01b038381166001600160a01b0319831681179093556040519116919082907f8be0079c531659141344cd1fd0a4f28419497f9722a3daafe3b4186f6b6457e0905f90a35050565b6001600160a01b0384166105c15760405163e602df0560e01b81525f60048201526024016103b5565b6001600160a01b0383166105ea57604051634a1406b160e11b81525f60048201526024016103b5565b6001600160a01b038085165f908152600160209081526040808320938716835292905220829055801561044f57826001600160a01b0316846001600160a01b03167f8c5be1e5ebec7d5bd14f71427d1e84f3dd0314c0f7b2291e5b200ac8c7c3b9258460405161065c91815260200190565b60405180910390a350505050565b6001600160a01b038316610694578060025f82825461068991906108e2565b909155506107049050565b6001600160a01b0383165f90815260208190526040902054818110156106e65760405163391434e360e21b81526001600160a01b038516600482015260248101829052604481018390526064016103b5565b6001600160a01b0384165f9081526020819052604090209082900390555b6001600160a01b0382166107205760028054829003905561073e565b6001600160a01b0382165f9081526020819052604090208054820190555b816001600160a01b0316836001600160a01b03167fddf252ad1be2c89b69c2b068fc378daa952ba7f163c4a11628f55a4df523b3ef8360405161078391815260200190565b60405180910390a3505050565b602081525f82518060208401528060208501604085015e5f604082850101526040601f19601f83011684010191505092915050565b80356001600160a01b03811681146107db575f5ffd5b919050565b5f5f604083850312156107f1575f5ffd5b6107fa836107c5565b946020939093013593505050565b5f5f5f6060848603121561081a575f5ffd5b610823846107c5565b9250610831602085016107c5565b929592945050506040919091013590565b5f60208284031215610852575f5ffd5b5035919050565b5f60208284031215610869575f5ffd5b610872826107c5565b9392505050565b5f5f6040838503121561088a575f5ffd5b610893836107c5565b91506108a1602084016107c5565b90509250929050565b600181811c908216806108be57607f821691505b6020821081036108dc57634e487b7160e01b5f52602260045260245ffd5b50919050565b808201808211156102f857634e487b7160e01b5f52601160045260245ffdfea2646970667358221220c59559c261ced4b4756a29c23eed2ecc7c5c7e434af14d6cd511f8c85c9fdc4b64736f6c634300081e0033000000000000000000000000000000000000000000000000000000000000006000000000000000000000000000000000000000000000000000000000000000a000000000000000000000000056fd3f2bee130e9867942d0f463a16fbe49b8d81000000000000000000000000000000000000000000000000000000000000000f4d656e746f204d6f636b205553445400000000000000000000000000000000000000000000000000000000000000000000000000000000000000000000000004555344540000000000000000000000000000000000000000000000000000000000000000000000000000000000000000000000000000000000000000000000",
        "nonce": "0x3a",
        "chainId": "0xaa044c"
      },
      "additionalContracts": [
        {
          "transactionType": "CREATE2",
          "address": "0x557881f8015404063a50f55e384fc987cf4f229e",
          "initCode": "0x67363d3d37363d34f03d5260086018f3"
        },
        {
          "transactionType": "CREATE",
          "address": "0xb914f314d7f6d9ad9b1fe5e185b7d0cc4590cb48",
          "initCode": "0x608060405234801561000f575f5ffd5b50604051610c81380380610c8183398101604081905261002e9161017a565b808383600361003d8382610283565b50600461004a8282610283565b5050506001600160a01b03811661007a57604051631e4fbdf760e01b81525f600482015260240160405180910390fd5b6100838161008c565b5050505061033d565b600580546001600160a01b038381166001600160a01b0319831681179093556040519116919082907f8be0079c531659141344cd1fd0a4f28419497f9722a3daafe3b4186f6b6457e0905f90a35050565b634e487b7160e01b5f52604160045260245ffd5b5f82601f830112610100575f5ffd5b81516001600160401b03811115610119576101196100dd565b604051601f8201601f19908116603f011681016001600160401b0381118282101715610147576101476100dd565b60405281815283820160200185101561015e575f5ffd5b8160208501602083015e5f918101602001919091529392505050565b5f5f5f6060848603121561018c575f5ffd5b83516001600160401b038111156101a1575f5ffd5b6101ad868287016100f1565b602086015190945090506001600160401b038111156101ca575f5ffd5b6101d6868287016100f1565b604086015190935090506001600160a01b03811681146101f4575f5ffd5b809150509250925092565b600181811c9082168061021357607f821691505b60208210810361023157634e487b7160e01b5f52602260045260245ffd5b50919050565b601f82111561027e57805f5260205f20601f840160051c8101602085101561025c5750805b601f840160051c820191505b8181101561027b575f8155600101610268565b50505b505050565b81516001600160401b0381111561029c5761029c6100dd565b6102b0816102aa84546101ff565b84610237565b6020601f8211600181146102e2575f83156102cb5750848201515b5f19600385901b1c1916600184901b17845561027b565b5f84815260208120601f198516915b8281101561031157878501518255602094850194600190920191016102f1565b508482101561032e57868401515f19600387901b60f8161c191681555b50505050600190811b01905550565b6109378061034a5f395ff3fe608060405234801561000f575f5ffd5b50600436106100f0575f3560e01c806370a082311161009357806395d89b411161006357806395d89b41146101ef578063a9059cbb146101f7578063dd62ed3e1461020a578063f2fde38b14610242575f5ffd5b806370a0823114610191578063715018a6146101b957806379cc6790146101c15780638da5cb5b146101d4575f5ffd5b806323b872dd116100ce57806323b872dd14610147578063313ce5671461015a57806340c10f191461016957806342966c681461017e575f5ffd5b806306fdde03146100f4578063095ea7b31461011257806318160ddd14610135575b5f5ffd5b6100fc610255565b6040516101099190610790565b60405180910390f35b6101256101203660046107e0565b6102e5565b6040519015158152602001610109565b6002545b604051908152602001610109565b610125610155366004610808565b6102fe565b60405160128152602001610109565b61017c6101773660046107e0565b610321565b005b61017c61018c366004610842565b610337565b61013961019f366004610859565b6001600160a01b03165f9081526020819052604090205490565b61017c610344565b61017c6101cf3660046107e0565b610357565b6005546040516001600160a01b039091168152602001610109565b6100fc61036c565b6101256102053660046107e0565b61037b565b610139610218366004610879565b6001600160a01b039182165f90815260016020908152604080832093909416825291909152205490565b61017c610250366004610859565b610388565b606060038054610264906108aa565b80601f0160208091040260200160405190810160405280929190818152602001828054610290906108aa565b80156102db5780601f106102b2576101008083540402835291602001916102db565b820191905f5260205f20905b8154815290600101906020018083116102be57829003601f168201915b5050505050905090565b5f336102f28185856103c7565b60019150505b92915050565b5f3361030b8582856103d9565b610316858585610455565b506001949350505050565b6103296104b2565b61033382826104df565b5050565b6103413382610513565b50565b61034c6104b2565b6103555f610547565b565b6103628233836103d9565b6103338282610513565b606060048054610264906108aa565b5f336102f2818585610455565b6103906104b2565b6001600160a01b0381166103be57604051631e4fbdf760e01b81525f60048201526024015b60405180910390fd5b61034181610547565b6103d48383836001610598565b505050565b6001600160a01b038381165f908152600160209081526040808320938616835292905220545f1981101561044f578181101561044157604051637dc7a0d960e11b81526001600160a01b038416600482015260248101829052604481018390526064016103b5565b61044f84848484035f610598565b50505050565b6001600160a01b03831661047e57604051634b637e8f60e11b81525f60048201526024016103b5565b6001600160a01b0382166104a75760405163ec442f0560e01b81525f60048201526024016103b5565b6103d483838361066a565b6005546001600160a01b031633146103555760405163118cdaa760e01b81523360048201526024016103b5565b6001600160a01b0382166105085760405163ec442f0560e01b81525f60048201526024016103b5565b6103335f838361066a565b6001600160a01b03821661053c57604051634b637e8f60e11b81525f60048201526024016103b5565b610333825f8361066a565b600580546001600160a01b038381166001600160a01b0319831681179093556040519116919082907f8be0079c531659141344cd1fd0a4f28419497f9722a3daafe3b4186f6b6457e0905f90a35050565b6001600160a01b0384166105c15760405163e602df0560e01b81525f60048201526024016103b5565b6001600160a01b0383166105ea57604051634a1406b160e11b81525f60048201526024016103b5565b6001600160a01b038085165f908152600160209081526040808320938716835292905220829055801561044f57826001600160a01b0316846001600160a01b03167f8c5be1e5ebec7d5bd14f71427d1e84f3dd0314c0f7b2291e5b200ac8c7c3b9258460405161065c91815260200190565b60405180910390a350505050565b6001600160a01b038316610694578060025f82825461068991906108e2565b909155506107049050565b6001600160a01b0383165f90815260208190526040902054818110156106e65760405163391434e360e21b81526001600160a01b038516600482015260248101829052604481018390526064016103b5565b6001600160a01b0384165f9081526020819052604090209082900390555b6001600160a01b0382166107205760028054829003905561073e565b6001600160a01b0382165f9081526020819052604090208054820190555b816001600160a01b0316836001600160a01b03167fddf252ad1be2c89b69c2b068fc378daa952ba7f163c4a11628f55a4df523b3ef8360405161078391815260200190565b60405180910390a3505050565b602081525f82518060208401528060208501604085015e5f604082850101526040601f19601f83011684010191505092915050565b80356001600160a01b03811681146107db575f5ffd5b919050565b5f5f604083850312156107f1575f5ffd5b6107fa836107c5565b946020939093013593505050565b5f5f5f6060848603121561081a575f5ffd5b610823846107c5565b9250610831602085016107c5565b929592945050506040919091013590565b5f60208284031215610852575f5ffd5b5035919050565b5f60208284031215610869575f5ffd5b610872826107c5565b9392505050565b5f5f6040838503121561088a575f5ffd5b610893836107c5565b91506108a1602084016107c5565b90509250929050565b600181811c908216806108be57607f821691505b6020821081036108dc57634e487b7160e01b5f52602260045260245ffd5b50919050565b808201808211156102f857634e487b7160e01b5f52601160045260245ffdfea2646970667358221220c59559c261ced4b4756a29c23eed2ecc7c5c7e434af14d6cd511f8c85c9fdc4b64736f6c634300081e0033000000000000000000000000000000000000000000000000000000000000006000000000000000000000000000000000000000000000000000000000000000a000000000000000000000000056fd3f2bee130e9867942d0f463a16fbe49b8d81000000000000000000000000000000000000000000000000000000000000000f4d656e746f204d6f636b2055534454000000000000000000000000000000000000000000000000000000000000000000000000000000000000000000000000045553445400000000000000000000000000000000000000000000000000000000"
        }
      ],
      "isFixedGasLimit": false
    },
    {
      "hash": "0x70a16b0161ec278c125d33b38cbae128e1e370c7772f1d72e3daec2cadde7691",
      "transactionType": "CALL",
      "contractName": "MockERC20",
      "contractAddress": "0xb914f314d7f6d9ad9b1fe5e185b7d0cc4590cb48",
      "function": "mint(address,uint256)",
      "arguments": [
        "0x56fD3F2bEE130e9867942D0F463a16fBE49B8d81",
        "1000000000000000000000000"
      ],
      "transaction": {
        "from": "0x56fd3f2bee130e9867942d0f463a16fbe49b8d81",
        "to": "0xb914f314d7f6d9ad9b1fe5e185b7d0cc4590cb48",
        "gas": "0x193a9",
        "value": "0x0",
        "input": "0x40c10f1900000000000000000000000056fd3f2bee130e9867942d0f463a16fbe49b8d8100000000000000000000000000000000000000000000d3c21bcecceda1000000",
        "nonce": "0x3b",
        "chainId": "0xaa044c"
      },
      "additionalContracts": [],
      "isFixedGasLimit": false
    },
    {
      "hash": "0x6f13e74033c1e15ec8f39d29767e1cfc6c3e91e88a09c88dba35eaa762919673",
      "transactionType": "CALL",
      "contractName": null,
      "contractAddress": "0xba5ed099633d3b313e4d5f7bdc1305d3c28ba5ed",
      "function": "deployCreate3(bytes32,bytes)",
      "arguments": [
        "0x56fd3f2bee130e9867942d0f463a16fbe49b8d81000a12e1e4a60b460c284ca1",
        "0x608060405234801561000f575f5ffd5b50604051610c81380380610c8183398101604081905261002e9161017a565b808383600361003d8382610283565b50600461004a8282610283565b5050506001600160a01b03811661007a57604051631e4fbdf760e01b81525f600482015260240160405180910390fd5b6100838161008c565b5050505061033d565b600580546001600160a01b038381166001600160a01b0319831681179093556040519116919082907f8be0079c531659141344cd1fd0a4f28419497f9722a3daafe3b4186f6b6457e0905f90a35050565b634e487b7160e01b5f52604160045260245ffd5b5f82601f830112610100575f5ffd5b81516001600160401b03811115610119576101196100dd565b604051601f8201601f19908116603f011681016001600160401b0381118282101715610147576101476100dd565b60405281815283820160200185101561015e575f5ffd5b8160208501602083015e5f918101602001919091529392505050565b5f5f5f6060848603121561018c575f5ffd5b83516001600160401b038111156101a1575f5ffd5b6101ad868287016100f1565b602086015190945090506001600160401b038111156101ca575f5ffd5b6101d6868287016100f1565b604086015190935090506001600160a01b03811681146101f4575f5ffd5b809150509250925092565b600181811c9082168061021357607f821691505b60208210810361023157634e487b7160e01b5f52602260045260245ffd5b50919050565b601f82111561027e57805f5260205f20601f840160051c8101602085101561025c5750805b601f840160051c820191505b8181101561027b575f8155600101610268565b50505b505050565b81516001600160401b0381111561029c5761029c6100dd565b6102b0816102aa84546101ff565b84610237565b6020601f8211600181146102e2575f83156102cb5750848201515b5f19600385901b1c1916600184901b17845561027b565b5f84815260208120601f198516915b8281101561031157878501518255602094850194600190920191016102f1565b508482101561032e57868401515f19600387901b60f8161c191681555b50505050600190811b01905550565b6109378061034a5f395ff3fe608060405234801561000f575f5ffd5b50600436106100f0575f3560e01c806370a082311161009357806395d89b411161006357806395d89b41146101ef578063a9059cbb146101f7578063dd62ed3e1461020a578063f2fde38b14610242575f5ffd5b806370a0823114610191578063715018a6146101b957806379cc6790146101c15780638da5cb5b146101d4575f5ffd5b806323b872dd116100ce57806323b872dd14610147578063313ce5671461015a57806340c10f191461016957806342966c681461017e575f5ffd5b806306fdde03146100f4578063095ea7b31461011257806318160ddd14610135575b5f5ffd5b6100fc610255565b6040516101099190610790565b60405180910390f35b6101256101203660046107e0565b6102e5565b6040519015158152602001610109565b6002545b604051908152602001610109565b610125610155366004610808565b6102fe565b60405160128152602001610109565b61017c6101773660046107e0565b610321565b005b61017c61018c366004610842565b610337565b61013961019f366004610859565b6001600160a01b03165f9081526020819052604090205490565b61017c610344565b61017c6101cf3660046107e0565b610357565b6005546040516001600160a01b039091168152602001610109565b6100fc61036c565b6101256102053660046107e0565b61037b565b610139610218366004610879565b6001600160a01b039182165f90815260016020908152604080832093909416825291909152205490565b61017c610250366004610859565b610388565b606060038054610264906108aa565b80601f0160208091040260200160405190810160405280929190818152602001828054610290906108aa565b80156102db5780601f106102b2576101008083540402835291602001916102db565b820191905f5260205f20905b8154815290600101906020018083116102be57829003601f168201915b5050505050905090565b5f336102f28185856103c7565b60019150505b92915050565b5f3361030b8582856103d9565b610316858585610455565b506001949350505050565b6103296104b2565b61033382826104df565b5050565b6103413382610513565b50565b61034c6104b2565b6103555f610547565b565b6103628233836103d9565b6103338282610513565b606060048054610264906108aa565b5f336102f2818585610455565b6103906104b2565b6001600160a01b0381166103be57604051631e4fbdf760e01b81525f60048201526024015b60405180910390fd5b61034181610547565b6103d48383836001610598565b505050565b6001600160a01b038381165f908152600160209081526040808320938616835292905220545f1981101561044f578181101561044157604051637dc7a0d960e11b81526001600160a01b038416600482015260248101829052604481018390526064016103b5565b61044f84848484035f610598565b50505050565b6001600160a01b03831661047e57604051634b637e8f60e11b81525f60048201526024016103b5565b6001600160a01b0382166104a75760405163ec442f0560e01b81525f60048201526024016103b5565b6103d483838361066a565b6005546001600160a01b031633146103555760405163118cdaa760e01b81523360048201526024016103b5565b6001600160a01b0382166105085760405163ec442f0560e01b81525f60048201526024016103b5565b6103335f838361066a565b6001600160a01b03821661053c57604051634b637e8f60e11b81525f60048201526024016103b5565b610333825f8361066a565b600580546001600160a01b038381166001600160a01b0319831681179093556040519116919082907f8be0079c531659141344cd1fd0a4f28419497f9722a3daafe3b4186f6b6457e0905f90a35050565b6001600160a01b0384166105c15760405163e602df0560e01b81525f60048201526024016103b5565b6001600160a01b0383166105ea57604051634a1406b160e11b81525f60048201526024016103b5565b6001600160a01b038085165f908152600160209081526040808320938716835292905220829055801561044f57826001600160a01b0316846001600160a01b03167f8c5be1e5ebec7d5bd14f71427d1e84f3dd0314c0f7b2291e5b200ac8c7c3b9258460405161065c91815260200190565b60405180910390a350505050565b6001600160a01b038316610694578060025f82825461068991906108e2565b909155506107049050565b6001600160a01b0383165f90815260208190526040902054818110156106e65760405163391434e360e21b81526001600160a01b038516600482015260248101829052604481018390526064016103b5565b6001600160a01b0384165f9081526020819052604090209082900390555b6001600160a01b0382166107205760028054829003905561073e565b6001600160a01b0382165f9081526020819052604090208054820190555b816001600160a01b0316836001600160a01b03167fddf252ad1be2c89b69c2b068fc378daa952ba7f163c4a11628f55a4df523b3ef8360405161078391815260200190565b60405180910390a3505050565b602081525f82518060208401528060208501604085015e5f604082850101526040601f19601f83011684010191505092915050565b80356001600160a01b03811681146107db575f5ffd5b919050565b5f5f604083850312156107f1575f5ffd5b6107fa836107c5565b946020939093013593505050565b5f5f5f6060848603121561081a575f5ffd5b610823846107c5565b9250610831602085016107c5565b929592945050506040919091013590565b5f60208284031215610852575f5ffd5b5035919050565b5f60208284031215610869575f5ffd5b610872826107c5565b9392505050565b5f5f6040838503121561088a575f5ffd5b610893836107c5565b91506108a1602084016107c5565b90509250929050565b600181811c908216806108be57607f821691505b6020821081036108dc57634e487b7160e01b5f52602260045260245ffd5b50919050565b808201808211156102f857634e487b7160e01b5f52601160045260245ffdfea2646970667358221220c59559c261ced4b4756a29c23eed2ecc7c5c7e434af14d6cd511f8c85c9fdc4b64736f6c634300081e0033000000000000000000000000000000000000000000000000000000000000006000000000000000000000000000000000000000000000000000000000000000a000000000000000000000000056fd3f2bee130e9867942d0f463a16fbe49b8d8100000000000000000000000000000000000000000000000000000000000000124d656e746f204d6f636b2061786c555344430000000000000000000000000000000000000000000000000000000000000000000000000000000000000000000761786c5553444300000000000000000000000000000000000000000000000000"
      ],
      "transaction": {
        "from": "0x56fd3f2bee130e9867942d0f463a16fbe49b8d81",
        "to": "0xba5ed099633d3b313e4d5f7bdc1305d3c28ba5ed",
        "gas": "0xeac85",
        "value": "0x0",
        "input": "0x9c36a28656fd3f2bee130e9867942d0f463a16fbe49b8d81000a12e1e4a60b460c284ca100000000000000000000000000000000000000000000000000000000000000400000000000000000000000000000000000000000000000000000000000000d61608060405234801561000f575f5ffd5b50604051610c81380380610c8183398101604081905261002e9161017a565b808383600361003d8382610283565b50600461004a8282610283565b5050506001600160a01b03811661007a57604051631e4fbdf760e01b81525f600482015260240160405180910390fd5b6100838161008c565b5050505061033d565b600580546001600160a01b038381166001600160a01b0319831681179093556040519116919082907f8be0079c531659141344cd1fd0a4f28419497f9722a3daafe3b4186f6b6457e0905f90a35050565b634e487b7160e01b5f52604160045260245ffd5b5f82601f830112610100575f5ffd5b81516001600160401b03811115610119576101196100dd565b604051601f8201601f19908116603f011681016001600160401b0381118282101715610147576101476100dd565b60405281815283820160200185101561015e575f5ffd5b8160208501602083015e5f918101602001919091529392505050565b5f5f5f6060848603121561018c575f5ffd5b83516001600160401b038111156101a1575f5ffd5b6101ad868287016100f1565b602086015190945090506001600160401b038111156101ca575f5ffd5b6101d6868287016100f1565b604086015190935090506001600160a01b03811681146101f4575f5ffd5b809150509250925092565b600181811c9082168061021357607f821691505b60208210810361023157634e487b7160e01b5f52602260045260245ffd5b50919050565b601f82111561027e57805f5260205f20601f840160051c8101602085101561025c5750805b601f840160051c820191505b8181101561027b575f8155600101610268565b50505b505050565b81516001600160401b0381111561029c5761029c6100dd565b6102b0816102aa84546101ff565b84610237565b6020601f8211600181146102e2575f83156102cb5750848201515b5f19600385901b1c1916600184901b17845561027b565b5f84815260208120601f198516915b8281101561031157878501518255602094850194600190920191016102f1565b508482101561032e57868401515f19600387901b60f8161c191681555b50505050600190811b01905550565b6109378061034a5f395ff3fe608060405234801561000f575f5ffd5b50600436106100f0575f3560e01c806370a082311161009357806395d89b411161006357806395d89b41146101ef578063a9059cbb146101f7578063dd62ed3e1461020a578063f2fde38b14610242575f5ffd5b806370a0823114610191578063715018a6146101b957806379cc6790146101c15780638da5cb5b146101d4575f5ffd5b806323b872dd116100ce57806323b872dd14610147578063313ce5671461015a57806340c10f191461016957806342966c681461017e575f5ffd5b806306fdde03146100f4578063095ea7b31461011257806318160ddd14610135575b5f5ffd5b6100fc610255565b6040516101099190610790565b60405180910390f35b6101256101203660046107e0565b6102e5565b6040519015158152602001610109565b6002545b604051908152602001610109565b610125610155366004610808565b6102fe565b60405160128152602001610109565b61017c6101773660046107e0565b610321565b005b61017c61018c366004610842565b610337565b61013961019f366004610859565b6001600160a01b03165f9081526020819052604090205490565b61017c610344565b61017c6101cf3660046107e0565b610357565b6005546040516001600160a01b039091168152602001610109565b6100fc61036c565b6101256102053660046107e0565b61037b565b610139610218366004610879565b6001600160a01b039182165f90815260016020908152604080832093909416825291909152205490565b61017c610250366004610859565b610388565b606060038054610264906108aa565b80601f0160208091040260200160405190810160405280929190818152602001828054610290906108aa565b80156102db5780601f106102b2576101008083540402835291602001916102db565b820191905f5260205f20905b8154815290600101906020018083116102be57829003601f168201915b5050505050905090565b5f336102f28185856103c7565b60019150505b92915050565b5f3361030b8582856103d9565b610316858585610455565b506001949350505050565b6103296104b2565b61033382826104df565b5050565b6103413382610513565b50565b61034c6104b2565b6103555f610547565b565b6103628233836103d9565b6103338282610513565b606060048054610264906108aa565b5f336102f2818585610455565b6103906104b2565b6001600160a01b0381166103be57604051631e4fbdf760e01b81525f60048201526024015b60405180910390fd5b61034181610547565b6103d48383836001610598565b505050565b6001600160a01b038381165f908152600160209081526040808320938616835292905220545f1981101561044f578181101561044157604051637dc7a0d960e11b81526001600160a01b038416600482015260248101829052604481018390526064016103b5565b61044f84848484035f610598565b50505050565b6001600160a01b03831661047e57604051634b637e8f60e11b81525f60048201526024016103b5565b6001600160a01b0382166104a75760405163ec442f0560e01b81525f60048201526024016103b5565b6103d483838361066a565b6005546001600160a01b031633146103555760405163118cdaa760e01b81523360048201526024016103b5565b6001600160a01b0382166105085760405163ec442f0560e01b81525f60048201526024016103b5565b6103335f838361066a565b6001600160a01b03821661053c57604051634b637e8f60e11b81525f60048201526024016103b5565b610333825f8361066a565b600580546001600160a01b038381166001600160a01b0319831681179093556040519116919082907f8be0079c531659141344cd1fd0a4f28419497f9722a3daafe3b4186f6b6457e0905f90a35050565b6001600160a01b0384166105c15760405163e602df0560e01b81525f60048201526024016103b5565b6001600160a01b0383166105ea57604051634a1406b160e11b81525f60048201526024016103b5565b6001600160a01b038085165f908152600160209081526040808320938716835292905220829055801561044f57826001600160a01b0316846001600160a01b03167f8c5be1e5ebec7d5bd14f71427d1e84f3dd0314c0f7b2291e5b200ac8c7c3b9258460405161065c91815260200190565b60405180910390a350505050565b6001600160a01b038316610694578060025f82825461068991906108e2565b909155506107049050565b6001600160a01b0383165f90815260208190526040902054818110156106e65760405163391434e360e21b81526001600160a01b038516600482015260248101829052604481018390526064016103b5565b6001600160a01b0384165f9081526020819052604090209082900390555b6001600160a01b0382166107205760028054829003905561073e565b6001600160a01b0382165f9081526020819052604090208054820190555b816001600160a01b0316836001600160a01b03167fddf252ad1be2c89b69c2b068fc378daa952ba7f163c4a11628f55a4df523b3ef8360405161078391815260200190565b60405180910390a3505050565b602081525f82518060208401528060208501604085015e5f604082850101526040601f19601f83011684010191505092915050565b80356001600160a01b03811681146107db575f5ffd5b919050565b5f5f604083850312156107f1575f5ffd5b6107fa836107c5565b946020939093013593505050565b5f5f5f6060848603121561081a575f5ffd5b610823846107c5565b9250610831602085016107c5565b929592945050506040919091013590565b5f60208284031215610852575f5ffd5b5035919050565b5f60208284031215610869575f5ffd5b610872826107c5565b9392505050565b5f5f6040838503121561088a575f5ffd5b610893836107c5565b91506108a1602084016107c5565b90509250929050565b600181811c908216806108be57607f821691505b6020821081036108dc57634e487b7160e01b5f52602260045260245ffd5b50919050565b808201808211156102f857634e487b7160e01b5f52601160045260245ffdfea2646970667358221220c59559c261ced4b4756a29c23eed2ecc7c5c7e434af14d6cd511f8c85c9fdc4b64736f6c634300081e0033000000000000000000000000000000000000000000000000000000000000006000000000000000000000000000000000000000000000000000000000000000a000000000000000000000000056fd3f2bee130e9867942d0f463a16fbe49b8d8100000000000000000000000000000000000000000000000000000000000000124d656e746f204d6f636b2061786c555344430000000000000000000000000000000000000000000000000000000000000000000000000000000000000000000761786c555344430000000000000000000000000000000000000000000000000000000000000000000000000000000000000000000000000000000000000000",
        "nonce": "0x3c",
        "chainId": "0xaa044c"
      },
      "additionalContracts": [
        {
          "transactionType": "CREATE2",
          "address": "0xf9fa51a7cf36e35a207e384dead93082e2cdf30f",
          "initCode": "0x67363d3d37363d34f03d5260086018f3"
        },
        {
          "transactionType": "CREATE",
          "address": "0xa35bedb2dd478065bb07337d584e36622c205f94",
          "initCode": "0x608060405234801561000f575f5ffd5b50604051610c81380380610c8183398101604081905261002e9161017a565b808383600361003d8382610283565b50600461004a8282610283565b5050506001600160a01b03811661007a57604051631e4fbdf760e01b81525f600482015260240160405180910390fd5b6100838161008c565b5050505061033d565b600580546001600160a01b038381166001600160a01b0319831681179093556040519116919082907f8be0079c531659141344cd1fd0a4f28419497f9722a3daafe3b4186f6b6457e0905f90a35050565b634e487b7160e01b5f52604160045260245ffd5b5f82601f830112610100575f5ffd5b81516001600160401b03811115610119576101196100dd565b604051601f8201601f19908116603f011681016001600160401b0381118282101715610147576101476100dd565b60405281815283820160200185101561015e575f5ffd5b8160208501602083015e5f918101602001919091529392505050565b5f5f5f6060848603121561018c575f5ffd5b83516001600160401b038111156101a1575f5ffd5b6101ad868287016100f1565b602086015190945090506001600160401b038111156101ca575f5ffd5b6101d6868287016100f1565b604086015190935090506001600160a01b03811681146101f4575f5ffd5b809150509250925092565b600181811c9082168061021357607f821691505b60208210810361023157634e487b7160e01b5f52602260045260245ffd5b50919050565b601f82111561027e57805f5260205f20601f840160051c8101602085101561025c5750805b601f840160051c820191505b8181101561027b575f8155600101610268565b50505b505050565b81516001600160401b0381111561029c5761029c6100dd565b6102b0816102aa84546101ff565b84610237565b6020601f8211600181146102e2575f83156102cb5750848201515b5f19600385901b1c1916600184901b17845561027b565b5f84815260208120601f198516915b8281101561031157878501518255602094850194600190920191016102f1565b508482101561032e57868401515f19600387901b60f8161c191681555b50505050600190811b01905550565b6109378061034a5f395ff3fe608060405234801561000f575f5ffd5b50600436106100f0575f3560e01c806370a082311161009357806395d89b411161006357806395d89b41146101ef578063a9059cbb146101f7578063dd62ed3e1461020a578063f2fde38b14610242575f5ffd5b806370a0823114610191578063715018a6146101b957806379cc6790146101c15780638da5cb5b146101d4575f5ffd5b806323b872dd116100ce57806323b872dd14610147578063313ce5671461015a57806340c10f191461016957806342966c681461017e575f5ffd5b806306fdde03146100f4578063095ea7b31461011257806318160ddd14610135575b5f5ffd5b6100fc610255565b6040516101099190610790565b60405180910390f35b6101256101203660046107e0565b6102e5565b6040519015158152602001610109565b6002545b604051908152602001610109565b610125610155366004610808565b6102fe565b60405160128152602001610109565b61017c6101773660046107e0565b610321565b005b61017c61018c366004610842565b610337565b61013961019f366004610859565b6001600160a01b03165f9081526020819052604090205490565b61017c610344565b61017c6101cf3660046107e0565b610357565b6005546040516001600160a01b039091168152602001610109565b6100fc61036c565b6101256102053660046107e0565b61037b565b610139610218366004610879565b6001600160a01b039182165f90815260016020908152604080832093909416825291909152205490565b61017c610250366004610859565b610388565b606060038054610264906108aa565b80601f0160208091040260200160405190810160405280929190818152602001828054610290906108aa565b80156102db5780601f106102b2576101008083540402835291602001916102db565b820191905f5260205f20905b8154815290600101906020018083116102be57829003601f168201915b5050505050905090565b5f336102f28185856103c7565b60019150505b92915050565b5f3361030b8582856103d9565b610316858585610455565b506001949350505050565b6103296104b2565b61033382826104df565b5050565b6103413382610513565b50565b61034c6104b2565b6103555f610547565b565b6103628233836103d9565b6103338282610513565b606060048054610264906108aa565b5f336102f2818585610455565b6103906104b2565b6001600160a01b0381166103be57604051631e4fbdf760e01b81525f60048201526024015b60405180910390fd5b61034181610547565b6103d48383836001610598565b505050565b6001600160a01b038381165f908152600160209081526040808320938616835292905220545f1981101561044f578181101561044157604051637dc7a0d960e11b81526001600160a01b038416600482015260248101829052604481018390526064016103b5565b61044f84848484035f610598565b50505050565b6001600160a01b03831661047e57604051634b637e8f60e11b81525f60048201526024016103b5565b6001600160a01b0382166104a75760405163ec442f0560e01b81525f60048201526024016103b5565b6103d483838361066a565b6005546001600160a01b031633146103555760405163118cdaa760e01b81523360048201526024016103b5565b6001600160a01b0382166105085760405163ec442f0560e01b81525f60048201526024016103b5565b6103335f838361066a565b6001600160a01b03821661053c57604051634b637e8f60e11b81525f60048201526024016103b5565b610333825f8361066a565b600580546001600160a01b038381166001600160a01b0319831681179093556040519116919082907f8be0079c531659141344cd1fd0a4f28419497f9722a3daafe3b4186f6b6457e0905f90a35050565b6001600160a01b0384166105c15760405163e602df0560e01b81525f60048201526024016103b5565b6001600160a01b0383166105ea57604051634a1406b160e11b81525f60048201526024016103b5565b6001600160a01b038085165f908152600160209081526040808320938716835292905220829055801561044f57826001600160a01b0316846001600160a01b03167f8c5be1e5ebec7d5bd14f71427d1e84f3dd0314c0f7b2291e5b200ac8c7c3b9258460405161065c91815260200190565b60405180910390a350505050565b6001600160a01b038316610694578060025f82825461068991906108e2565b909155506107049050565b6001600160a01b0383165f90815260208190526040902054818110156106e65760405163391434e360e21b81526001600160a01b038516600482015260248101829052604481018390526064016103b5565b6001600160a01b0384165f9081526020819052604090209082900390555b6001600160a01b0382166107205760028054829003905561073e565b6001600160a01b0382165f9081526020819052604090208054820190555b816001600160a01b0316836001600160a01b03167fddf252ad1be2c89b69c2b068fc378daa952ba7f163c4a11628f55a4df523b3ef8360405161078391815260200190565b60405180910390a3505050565b602081525f82518060208401528060208501604085015e5f604082850101526040601f19601f83011684010191505092915050565b80356001600160a01b03811681146107db575f5ffd5b919050565b5f5f604083850312156107f1575f5ffd5b6107fa836107c5565b946020939093013593505050565b5f5f5f6060848603121561081a575f5ffd5b610823846107c5565b9250610831602085016107c5565b929592945050506040919091013590565b5f60208284031215610852575f5ffd5b5035919050565b5f60208284031215610869575f5ffd5b610872826107c5565b9392505050565b5f5f6040838503121561088a575f5ffd5b610893836107c5565b91506108a1602084016107c5565b90509250929050565b600181811c908216806108be57607f821691505b6020821081036108dc57634e487b7160e01b5f52602260045260245ffd5b50919050565b808201808211156102f857634e487b7160e01b5f52601160045260245ffdfea2646970667358221220c59559c261ced4b4756a29c23eed2ecc7c5c7e434af14d6cd511f8c85c9fdc4b64736f6c634300081e0033000000000000000000000000000000000000000000000000000000000000006000000000000000000000000000000000000000000000000000000000000000a000000000000000000000000056fd3f2bee130e9867942d0f463a16fbe49b8d8100000000000000000000000000000000000000000000000000000000000000124d656e746f204d6f636b2061786c555344430000000000000000000000000000000000000000000000000000000000000000000000000000000000000000000761786c5553444300000000000000000000000000000000000000000000000000"
        }
      ],
      "isFixedGasLimit": false
    },
    {
      "hash": "0xed6d9ab4dc858f84d83d368e8501ab9f2631f85d3c5493169f2bfb6efe99757c",
      "transactionType": "CALL",
      "contractName": "MockERC20",
      "contractAddress": "0xa35bedb2dd478065bb07337d584e36622c205f94",
      "function": "mint(address,uint256)",
      "arguments": [
        "0x56fD3F2bEE130e9867942D0F463a16fBE49B8d81",
        "1000000000000000000000000"
      ],
      "transaction": {
        "from": "0x56fd3f2bee130e9867942d0f463a16fbe49b8d81",
        "to": "0xa35bedb2dd478065bb07337d584e36622c205f94",
        "gas": "0x193a9",
        "value": "0x0",
        "input": "0x40c10f1900000000000000000000000056fd3f2bee130e9867942d0f463a16fbe49b8d8100000000000000000000000000000000000000000000d3c21bcecceda1000000",
        "nonce": "0x3d",
        "chainId": "0xaa044c"
      },
      "additionalContracts": [],
      "isFixedGasLimit": false
    },
    {
      "hash": "0x406cf08b7e7123601592b05113875518f78faa58bdca8415a7a0c3684c5255de",
      "transactionType": "CALL",
      "contractName": null,
      "contractAddress": "0xba5ed099633d3b313e4d5f7bdc1305d3c28ba5ed",
      "function": "deployCreate3(bytes32,bytes)",
      "arguments": [
        "0x56fd3f2bee130e9867942d0f463a16fbe49b8d8100b809a36b7bc44ce38123df",
        "0x608060405234801561000f575f5ffd5b50604051610c81380380610c8183398101604081905261002e9161017a565b808383600361003d8382610283565b50600461004a8282610283565b5050506001600160a01b03811661007a57604051631e4fbdf760e01b81525f600482015260240160405180910390fd5b6100838161008c565b5050505061033d565b600580546001600160a01b038381166001600160a01b0319831681179093556040519116919082907f8be0079c531659141344cd1fd0a4f28419497f9722a3daafe3b4186f6b6457e0905f90a35050565b634e487b7160e01b5f52604160045260245ffd5b5f82601f830112610100575f5ffd5b81516001600160401b03811115610119576101196100dd565b604051601f8201601f19908116603f011681016001600160401b0381118282101715610147576101476100dd565b60405281815283820160200185101561015e575f5ffd5b8160208501602083015e5f918101602001919091529392505050565b5f5f5f6060848603121561018c575f5ffd5b83516001600160401b038111156101a1575f5ffd5b6101ad868287016100f1565b602086015190945090506001600160401b038111156101ca575f5ffd5b6101d6868287016100f1565b604086015190935090506001600160a01b03811681146101f4575f5ffd5b809150509250925092565b600181811c9082168061021357607f821691505b60208210810361023157634e487b7160e01b5f52602260045260245ffd5b50919050565b601f82111561027e57805f5260205f20601f840160051c8101602085101561025c5750805b601f840160051c820191505b8181101561027b575f8155600101610268565b50505b505050565b81516001600160401b0381111561029c5761029c6100dd565b6102b0816102aa84546101ff565b84610237565b6020601f8211600181146102e2575f83156102cb5750848201515b5f19600385901b1c1916600184901b17845561027b565b5f84815260208120601f198516915b8281101561031157878501518255602094850194600190920191016102f1565b508482101561032e57868401515f19600387901b60f8161c191681555b50505050600190811b01905550565b6109378061034a5f395ff3fe608060405234801561000f575f5ffd5b50600436106100f0575f3560e01c806370a082311161009357806395d89b411161006357806395d89b41146101ef578063a9059cbb146101f7578063dd62ed3e1461020a578063f2fde38b14610242575f5ffd5b806370a0823114610191578063715018a6146101b957806379cc6790146101c15780638da5cb5b146101d4575f5ffd5b806323b872dd116100ce57806323b872dd14610147578063313ce5671461015a57806340c10f191461016957806342966c681461017e575f5ffd5b806306fdde03146100f4578063095ea7b31461011257806318160ddd14610135575b5f5ffd5b6100fc610255565b6040516101099190610790565b60405180910390f35b6101256101203660046107e0565b6102e5565b6040519015158152602001610109565b6002545b604051908152602001610109565b610125610155366004610808565b6102fe565b60405160128152602001610109565b61017c6101773660046107e0565b610321565b005b61017c61018c366004610842565b610337565b61013961019f366004610859565b6001600160a01b03165f9081526020819052604090205490565b61017c610344565b61017c6101cf3660046107e0565b610357565b6005546040516001600160a01b039091168152602001610109565b6100fc61036c565b6101256102053660046107e0565b61037b565b610139610218366004610879565b6001600160a01b039182165f90815260016020908152604080832093909416825291909152205490565b61017c610250366004610859565b610388565b606060038054610264906108aa565b80601f0160208091040260200160405190810160405280929190818152602001828054610290906108aa565b80156102db5780601f106102b2576101008083540402835291602001916102db565b820191905f5260205f20905b8154815290600101906020018083116102be57829003601f168201915b5050505050905090565b5f336102f28185856103c7565b60019150505b92915050565b5f3361030b8582856103d9565b610316858585610455565b506001949350505050565b6103296104b2565b61033382826104df565b5050565b6103413382610513565b50565b61034c6104b2565b6103555f610547565b565b6103628233836103d9565b6103338282610513565b606060048054610264906108aa565b5f336102f2818585610455565b6103906104b2565b6001600160a01b0381166103be57604051631e4fbdf760e01b81525f60048201526024015b60405180910390fd5b61034181610547565b6103d48383836001610598565b505050565b6001600160a01b038381165f908152600160209081526040808320938616835292905220545f1981101561044f578181101561044157604051637dc7a0d960e11b81526001600160a01b038416600482015260248101829052604481018390526064016103b5565b61044f84848484035f610598565b50505050565b6001600160a01b03831661047e57604051634b637e8f60e11b81525f60048201526024016103b5565b6001600160a01b0382166104a75760405163ec442f0560e01b81525f60048201526024016103b5565b6103d483838361066a565b6005546001600160a01b031633146103555760405163118cdaa760e01b81523360048201526024016103b5565b6001600160a01b0382166105085760405163ec442f0560e01b81525f60048201526024016103b5565b6103335f838361066a565b6001600160a01b03821661053c57604051634b637e8f60e11b81525f60048201526024016103b5565b610333825f8361066a565b600580546001600160a01b038381166001600160a01b0319831681179093556040519116919082907f8be0079c531659141344cd1fd0a4f28419497f9722a3daafe3b4186f6b6457e0905f90a35050565b6001600160a01b0384166105c15760405163e602df0560e01b81525f60048201526024016103b5565b6001600160a01b0383166105ea57604051634a1406b160e11b81525f60048201526024016103b5565b6001600160a01b038085165f908152600160209081526040808320938716835292905220829055801561044f57826001600160a01b0316846001600160a01b03167f8c5be1e5ebec7d5bd14f71427d1e84f3dd0314c0f7b2291e5b200ac8c7c3b9258460405161065c91815260200190565b60405180910390a350505050565b6001600160a01b038316610694578060025f82825461068991906108e2565b909155506107049050565b6001600160a01b0383165f90815260208190526040902054818110156106e65760405163391434e360e21b81526001600160a01b038516600482015260248101829052604481018390526064016103b5565b6001600160a01b0384165f9081526020819052604090209082900390555b6001600160a01b0382166107205760028054829003905561073e565b6001600160a01b0382165f9081526020819052604090208054820190555b816001600160a01b0316836001600160a01b03167fddf252ad1be2c89b69c2b068fc378daa952ba7f163c4a11628f55a4df523b3ef8360405161078391815260200190565b60405180910390a3505050565b602081525f82518060208401528060208501604085015e5f604082850101526040601f19601f83011684010191505092915050565b80356001600160a01b03811681146107db575f5ffd5b919050565b5f5f604083850312156107f1575f5ffd5b6107fa836107c5565b946020939093013593505050565b5f5f5f6060848603121561081a575f5ffd5b610823846107c5565b9250610831602085016107c5565b929592945050506040919091013590565b5f60208284031215610852575f5ffd5b5035919050565b5f60208284031215610869575f5ffd5b610872826107c5565b9392505050565b5f5f6040838503121561088a575f5ffd5b610893836107c5565b91506108a1602084016107c5565b90509250929050565b600181811c908216806108be57607f821691505b6020821081036108dc57634e487b7160e01b5f52602260045260245ffd5b50919050565b808201808211156102f857634e487b7160e01b5f52601160045260245ffdfea2646970667358221220c59559c261ced4b4756a29c23eed2ecc7c5c7e434af14d6cd511f8c85c9fdc4b64736f6c634300081e0033000000000000000000000000000000000000000000000000000000000000006000000000000000000000000000000000000000000000000000000000000000a000000000000000000000000056fd3f2bee130e9867942d0f463a16fbe49b8d8100000000000000000000000000000000000000000000000000000000000000134d656e746f204d6f636b2061786c4555524f4300000000000000000000000000000000000000000000000000000000000000000000000000000000000000000861786c4555524f43000000000000000000000000000000000000000000000000"
      ],
      "transaction": {
        "from": "0x56fd3f2bee130e9867942d0f463a16fbe49b8d81",
        "to": "0xba5ed099633d3b313e4d5f7bdc1305d3c28ba5ed",
        "gas": "0xeaca7",
        "value": "0x0",
        "input": "0x9c36a28656fd3f2bee130e9867942d0f463a16fbe49b8d8100b809a36b7bc44ce38123df00000000000000000000000000000000000000000000000000000000000000400000000000000000000000000000000000000000000000000000000000000d61608060405234801561000f575f5ffd5b50604051610c81380380610c8183398101604081905261002e9161017a565b808383600361003d8382610283565b50600461004a8282610283565b5050506001600160a01b03811661007a57604051631e4fbdf760e01b81525f600482015260240160405180910390fd5b6100838161008c565b5050505061033d565b600580546001600160a01b038381166001600160a01b0319831681179093556040519116919082907f8be0079c531659141344cd1fd0a4f28419497f9722a3daafe3b4186f6b6457e0905f90a35050565b634e487b7160e01b5f52604160045260245ffd5b5f82601f830112610100575f5ffd5b81516001600160401b03811115610119576101196100dd565b604051601f8201601f19908116603f011681016001600160401b0381118282101715610147576101476100dd565b60405281815283820160200185101561015e575f5ffd5b8160208501602083015e5f918101602001919091529392505050565b5f5f5f6060848603121561018c575f5ffd5b83516001600160401b038111156101a1575f5ffd5b6101ad868287016100f1565b602086015190945090506001600160401b038111156101ca575f5ffd5b6101d6868287016100f1565b604086015190935090506001600160a01b03811681146101f4575f5ffd5b809150509250925092565b600181811c9082168061021357607f821691505b60208210810361023157634e487b7160e01b5f52602260045260245ffd5b50919050565b601f82111561027e57805f5260205f20601f840160051c8101602085101561025c5750805b601f840160051c820191505b8181101561027b575f8155600101610268565b50505b505050565b81516001600160401b0381111561029c5761029c6100dd565b6102b0816102aa84546101ff565b84610237565b6020601f8211600181146102e2575f83156102cb5750848201515b5f19600385901b1c1916600184901b17845561027b565b5f84815260208120601f198516915b8281101561031157878501518255602094850194600190920191016102f1565b508482101561032e57868401515f19600387901b60f8161c191681555b50505050600190811b01905550565b6109378061034a5f395ff3fe608060405234801561000f575f5ffd5b50600436106100f0575f3560e01c806370a082311161009357806395d89b411161006357806395d89b41146101ef578063a9059cbb146101f7578063dd62ed3e1461020a578063f2fde38b14610242575f5ffd5b806370a0823114610191578063715018a6146101b957806379cc6790146101c15780638da5cb5b146101d4575f5ffd5b806323b872dd116100ce57806323b872dd14610147578063313ce5671461015a57806340c10f191461016957806342966c681461017e575f5ffd5b806306fdde03146100f4578063095ea7b31461011257806318160ddd14610135575b5f5ffd5b6100fc610255565b6040516101099190610790565b60405180910390f35b6101256101203660046107e0565b6102e5565b6040519015158152602001610109565b6002545b604051908152602001610109565b610125610155366004610808565b6102fe565b60405160128152602001610109565b61017c6101773660046107e0565b610321565b005b61017c61018c366004610842565b610337565b61013961019f366004610859565b6001600160a01b03165f9081526020819052604090205490565b61017c610344565b61017c6101cf3660046107e0565b610357565b6005546040516001600160a01b039091168152602001610109565b6100fc61036c565b6101256102053660046107e0565b61037b565b610139610218366004610879565b6001600160a01b039182165f90815260016020908152604080832093909416825291909152205490565b61017c610250366004610859565b610388565b606060038054610264906108aa565b80601f0160208091040260200160405190810160405280929190818152602001828054610290906108aa565b80156102db5780601f106102b2576101008083540402835291602001916102db565b820191905f5260205f20905b8154815290600101906020018083116102be57829003601f168201915b5050505050905090565b5f336102f28185856103c7565b60019150505b92915050565b5f3361030b8582856103d9565b610316858585610455565b506001949350505050565b6103296104b2565b61033382826104df565b5050565b6103413382610513565b50565b61034c6104b2565b6103555f610547565b565b6103628233836103d9565b6103338282610513565b606060048054610264906108aa565b5f336102f2818585610455565b6103906104b2565b6001600160a01b0381166103be57604051631e4fbdf760e01b81525f60048201526024015b60405180910390fd5b61034181610547565b6103d48383836001610598565b505050565b6001600160a01b038381165f908152600160209081526040808320938616835292905220545f1981101561044f578181101561044157604051637dc7a0d960e11b81526001600160a01b038416600482015260248101829052604481018390526064016103b5565b61044f84848484035f610598565b50505050565b6001600160a01b03831661047e57604051634b637e8f60e11b81525f60048201526024016103b5565b6001600160a01b0382166104a75760405163ec442f0560e01b81525f60048201526024016103b5565b6103d483838361066a565b6005546001600160a01b031633146103555760405163118cdaa760e01b81523360048201526024016103b5565b6001600160a01b0382166105085760405163ec442f0560e01b81525f60048201526024016103b5565b6103335f838361066a565b6001600160a01b03821661053c57604051634b637e8f60e11b81525f60048201526024016103b5565b610333825f8361066a565b600580546001600160a01b038381166001600160a01b0319831681179093556040519116919082907f8be0079c531659141344cd1fd0a4f28419497f9722a3daafe3b4186f6b6457e0905f90a35050565b6001600160a01b0384166105c15760405163e602df0560e01b81525f60048201526024016103b5565b6001600160a01b0383166105ea57604051634a1406b160e11b81525f60048201526024016103b5565b6001600160a01b038085165f908152600160209081526040808320938716835292905220829055801561044f57826001600160a01b0316846001600160a01b03167f8c5be1e5ebec7d5bd14f71427d1e84f3dd0314c0f7b2291e5b200ac8c7c3b9258460405161065c91815260200190565b60405180910390a350505050565b6001600160a01b038316610694578060025f82825461068991906108e2565b909155506107049050565b6001600160a01b0383165f90815260208190526040902054818110156106e65760405163391434e360e21b81526001600160a01b038516600482015260248101829052604481018390526064016103b5565b6001600160a01b0384165f9081526020819052604090209082900390555b6001600160a01b0382166107205760028054829003905561073e565b6001600160a01b0382165f9081526020819052604090208054820190555b816001600160a01b0316836001600160a01b03167fddf252ad1be2c89b69c2b068fc378daa952ba7f163c4a11628f55a4df523b3ef8360405161078391815260200190565b60405180910390a3505050565b602081525f82518060208401528060208501604085015e5f604082850101526040601f19601f83011684010191505092915050565b80356001600160a01b03811681146107db575f5ffd5b919050565b5f5f604083850312156107f1575f5ffd5b6107fa836107c5565b946020939093013593505050565b5f5f5f6060848603121561081a575f5ffd5b610823846107c5565b9250610831602085016107c5565b929592945050506040919091013590565b5f60208284031215610852575f5ffd5b5035919050565b5f60208284031215610869575f5ffd5b610872826107c5565b9392505050565b5f5f6040838503121561088a575f5ffd5b610893836107c5565b91506108a1602084016107c5565b90509250929050565b600181811c908216806108be57607f821691505b6020821081036108dc57634e487b7160e01b5f52602260045260245ffd5b50919050565b808201808211156102f857634e487b7160e01b5f52601160045260245ffdfea2646970667358221220c59559c261ced4b4756a29c23eed2ecc7c5c7e434af14d6cd511f8c85c9fdc4b64736f6c634300081e0033000000000000000000000000000000000000000000000000000000000000006000000000000000000000000000000000000000000000000000000000000000a000000000000000000000000056fd3f2bee130e9867942d0f463a16fbe49b8d8100000000000000000000000000000000000000000000000000000000000000134d656e746f204d6f636b2061786c4555524f4300000000000000000000000000000000000000000000000000000000000000000000000000000000000000000861786c4555524f4300000000000000000000000000000000000000000000000000000000000000000000000000000000000000000000000000000000000000",
        "nonce": "0x3e",
        "chainId": "0xaa044c"
      },
      "additionalContracts": [
        {
          "transactionType": "CREATE2",
          "address": "0xdd03c1f17ed7b233cdc70f400d25f00006cb264d",
          "initCode": "0x67363d3d37363d34f03d5260086018f3"
        },
        {
          "transactionType": "CREATE",
          "address": "0x5d02f46839db9f9c6047aef9366072179df5efc7",
          "initCode": "0x608060405234801561000f575f5ffd5b50604051610c81380380610c8183398101604081905261002e9161017a565b808383600361003d8382610283565b50600461004a8282610283565b5050506001600160a01b03811661007a57604051631e4fbdf760e01b81525f600482015260240160405180910390fd5b6100838161008c565b5050505061033d565b600580546001600160a01b038381166001600160a01b0319831681179093556040519116919082907f8be0079c531659141344cd1fd0a4f28419497f9722a3daafe3b4186f6b6457e0905f90a35050565b634e487b7160e01b5f52604160045260245ffd5b5f82601f830112610100575f5ffd5b81516001600160401b03811115610119576101196100dd565b604051601f8201601f19908116603f011681016001600160401b0381118282101715610147576101476100dd565b60405281815283820160200185101561015e575f5ffd5b8160208501602083015e5f918101602001919091529392505050565b5f5f5f6060848603121561018c575f5ffd5b83516001600160401b038111156101a1575f5ffd5b6101ad868287016100f1565b602086015190945090506001600160401b038111156101ca575f5ffd5b6101d6868287016100f1565b604086015190935090506001600160a01b03811681146101f4575f5ffd5b809150509250925092565b600181811c9082168061021357607f821691505b60208210810361023157634e487b7160e01b5f52602260045260245ffd5b50919050565b601f82111561027e57805f5260205f20601f840160051c8101602085101561025c5750805b601f840160051c820191505b8181101561027b575f8155600101610268565b50505b505050565b81516001600160401b0381111561029c5761029c6100dd565b6102b0816102aa84546101ff565b84610237565b6020601f8211600181146102e2575f83156102cb5750848201515b5f19600385901b1c1916600184901b17845561027b565b5f84815260208120601f198516915b8281101561031157878501518255602094850194600190920191016102f1565b508482101561032e57868401515f19600387901b60f8161c191681555b50505050600190811b01905550565b6109378061034a5f395ff3fe608060405234801561000f575f5ffd5b50600436106100f0575f3560e01c806370a082311161009357806395d89b411161006357806395d89b41146101ef578063a9059cbb146101f7578063dd62ed3e1461020a578063f2fde38b14610242575f5ffd5b806370a0823114610191578063715018a6146101b957806379cc6790146101c15780638da5cb5b146101d4575f5ffd5b806323b872dd116100ce57806323b872dd14610147578063313ce5671461015a57806340c10f191461016957806342966c681461017e575f5ffd5b806306fdde03146100f4578063095ea7b31461011257806318160ddd14610135575b5f5ffd5b6100fc610255565b6040516101099190610790565b60405180910390f35b6101256101203660046107e0565b6102e5565b6040519015158152602001610109565b6002545b604051908152602001610109565b610125610155366004610808565b6102fe565b60405160128152602001610109565b61017c6101773660046107e0565b610321565b005b61017c61018c366004610842565b610337565b61013961019f366004610859565b6001600160a01b03165f9081526020819052604090205490565b61017c610344565b61017c6101cf3660046107e0565b610357565b6005546040516001600160a01b039091168152602001610109565b6100fc61036c565b6101256102053660046107e0565b61037b565b610139610218366004610879565b6001600160a01b039182165f90815260016020908152604080832093909416825291909152205490565b61017c610250366004610859565b610388565b606060038054610264906108aa565b80601f0160208091040260200160405190810160405280929190818152602001828054610290906108aa565b80156102db5780601f106102b2576101008083540402835291602001916102db565b820191905f5260205f20905b8154815290600101906020018083116102be57829003601f168201915b5050505050905090565b5f336102f28185856103c7565b60019150505b92915050565b5f3361030b8582856103d9565b610316858585610455565b506001949350505050565b6103296104b2565b61033382826104df565b5050565b6103413382610513565b50565b61034c6104b2565b6103555f610547565b565b6103628233836103d9565b6103338282610513565b606060048054610264906108aa565b5f336102f2818585610455565b6103906104b2565b6001600160a01b0381166103be57604051631e4fbdf760e01b81525f60048201526024015b60405180910390fd5b61034181610547565b6103d48383836001610598565b505050565b6001600160a01b038381165f908152600160209081526040808320938616835292905220545f1981101561044f578181101561044157604051637dc7a0d960e11b81526001600160a01b038416600482015260248101829052604481018390526064016103b5565b61044f84848484035f610598565b50505050565b6001600160a01b03831661047e57604051634b637e8f60e11b81525f60048201526024016103b5565b6001600160a01b0382166104a75760405163ec442f0560e01b81525f60048201526024016103b5565b6103d483838361066a565b6005546001600160a01b031633146103555760405163118cdaa760e01b81523360048201526024016103b5565b6001600160a01b0382166105085760405163ec442f0560e01b81525f60048201526024016103b5565b6103335f838361066a565b6001600160a01b03821661053c57604051634b637e8f60e11b81525f60048201526024016103b5565b610333825f8361066a565b600580546001600160a01b038381166001600160a01b0319831681179093556040519116919082907f8be0079c531659141344cd1fd0a4f28419497f9722a3daafe3b4186f6b6457e0905f90a35050565b6001600160a01b0384166105c15760405163e602df0560e01b81525f60048201526024016103b5565b6001600160a01b0383166105ea57604051634a1406b160e11b81525f60048201526024016103b5565b6001600160a01b038085165f908152600160209081526040808320938716835292905220829055801561044f57826001600160a01b0316846001600160a01b03167f8c5be1e5ebec7d5bd14f71427d1e84f3dd0314c0f7b2291e5b200ac8c7c3b9258460405161065c91815260200190565b60405180910390a350505050565b6001600160a01b038316610694578060025f82825461068991906108e2565b909155506107049050565b6001600160a01b0383165f90815260208190526040902054818110156106e65760405163391434e360e21b81526001600160a01b038516600482015260248101829052604481018390526064016103b5565b6001600160a01b0384165f9081526020819052604090209082900390555b6001600160a01b0382166107205760028054829003905561073e565b6001600160a01b0382165f9081526020819052604090208054820190555b816001600160a01b0316836001600160a01b03167fddf252ad1be2c89b69c2b068fc378daa952ba7f163c4a11628f55a4df523b3ef8360405161078391815260200190565b60405180910390a3505050565b602081525f82518060208401528060208501604085015e5f604082850101526040601f19601f83011684010191505092915050565b80356001600160a01b03811681146107db575f5ffd5b919050565b5f5f604083850312156107f1575f5ffd5b6107fa836107c5565b946020939093013593505050565b5f5f5f6060848603121561081a575f5ffd5b610823846107c5565b9250610831602085016107c5565b929592945050506040919091013590565b5f60208284031215610852575f5ffd5b5035919050565b5f60208284031215610869575f5ffd5b610872826107c5565b9392505050565b5f5f6040838503121561088a575f5ffd5b610893836107c5565b91506108a1602084016107c5565b90509250929050565b600181811c908216806108be57607f821691505b6020821081036108dc57634e487b7160e01b5f52602260045260245ffd5b50919050565b808201808211156102f857634e487b7160e01b5f52601160045260245ffdfea2646970667358221220c59559c261ced4b4756a29c23eed2ecc7c5c7e434af14d6cd511f8c85c9fdc4b64736f6c634300081e0033000000000000000000000000000000000000000000000000000000000000006000000000000000000000000000000000000000000000000000000000000000a000000000000000000000000056fd3f2bee130e9867942d0f463a16fbe49b8d8100000000000000000000000000000000000000000000000000000000000000134d656e746f204d6f636b2061786c4555524f4300000000000000000000000000000000000000000000000000000000000000000000000000000000000000000861786c4555524f43000000000000000000000000000000000000000000000000"
        }
      ],
      "isFixedGasLimit": false
    },
    {
      "hash": "0x42faf92de45a34f87ca7f5075d79427146c698e6ab0241f8581c38ec77c1b6d3",
      "transactionType": "CALL",
      "contractName": "MockERC20",
      "contractAddress": "0x5d02f46839db9f9c6047aef9366072179df5efc7",
      "function": "mint(address,uint256)",
      "arguments": [
        "0x56fD3F2bEE130e9867942D0F463a16fBE49B8d81",
        "1000000000000000000000000"
      ],
      "transaction": {
        "from": "0x56fd3f2bee130e9867942d0f463a16fbe49b8d81",
        "to": "0x5d02f46839db9f9c6047aef9366072179df5efc7",
        "gas": "0x193a9",
        "value": "0x0",
        "input": "0x40c10f1900000000000000000000000056fd3f2bee130e9867942d0f463a16fbe49b8d8100000000000000000000000000000000000000000000d3c21bcecceda1000000",
        "nonce": "0x3f",
        "chainId": "0xaa044c"
      },
      "additionalContracts": [],
      "isFixedGasLimit": false
    }
  ],
  "receipts": [
    {
      "status": "0x1",
      "cumulativeGasUsed": "0xb5364",
      "logs": [
        {
          "address": "0xba5ed099633d3b313e4d5f7bdc1305d3c28ba5ed",
          "topics": [
            "0x2feea65dd4e9f9cbd86b74b7734210c59a1b2981b5b137bd0ee3e208200c9067",
            "0x00000000000000000000000011ccea60afac14aaaf115cf777deb5df22e20b1d",
            "0x49fb09303bf54acf6a4b3a0888660e4311f4940db2a5cc05dd0b2d2c3fec8c77"
          ],
          "data": "0x",
          "blockHash": "0x6430834147480efceee23e28d5ec98bc42a8f3facf4d725f964f5a10df819842",
          "blockNumber": "0x370c1a",
          "transactionHash": "0x05eed455870aeed66091fe2b0e354425417ccae1c1026d749b39463db42927e3",
          "transactionIndex": "0x1",
          "logIndex": "0x0",
          "removed": false
        },
        {
          "address": "0xea29e54e7bd633e94c67006277ff7ec70cc611b1",
          "topics": [
            "0x8be0079c531659141344cd1fd0a4f28419497f9722a3daafe3b4186f6b6457e0",
            "0x0000000000000000000000000000000000000000000000000000000000000000",
            "0x00000000000000000000000056fd3f2bee130e9867942d0f463a16fbe49b8d81"
          ],
          "data": "0x",
          "blockHash": "0x6430834147480efceee23e28d5ec98bc42a8f3facf4d725f964f5a10df819842",
          "blockNumber": "0x370c1a",
          "transactionHash": "0x05eed455870aeed66091fe2b0e354425417ccae1c1026d749b39463db42927e3",
          "transactionIndex": "0x1",
          "logIndex": "0x1",
          "removed": false
        },
        {
          "address": "0xba5ed099633d3b313e4d5f7bdc1305d3c28ba5ed",
          "topics": [
            "0x4db17dd5e4732fb6da34a148104a592783ca119a1e7bb8829eba6cbadef0b511",
            "0x000000000000000000000000ea29e54e7bd633e94c67006277ff7ec70cc611b1"
          ],
          "data": "0x",
          "blockHash": "0x6430834147480efceee23e28d5ec98bc42a8f3facf4d725f964f5a10df819842",
          "blockNumber": "0x370c1a",
          "transactionHash": "0x05eed455870aeed66091fe2b0e354425417ccae1c1026d749b39463db42927e3",
          "transactionIndex": "0x1",
          "logIndex": "0x2",
          "removed": false
        }
      ],
      "logsBloom": "0x00020000000000000000000000000000000000000008000020800000200000000040000000000000000000000000010000000000000004000000000001000000000400000000000400000000020000000001000000000000000000000000000000000000020000000000000008000c00000000000020000000000000000000400000000000000000000000000000000000000000000000000000004000000000000000000000000000000000000000000000000000000000000000000000000000000400000000000200000000000000020000002000000000000000000020000024020000000200000000000000000000000000040000000000000000000000",
      "type": "0x2",
      "transactionHash": "0x05eed455870aeed66091fe2b0e354425417ccae1c1026d749b39463db42927e3",
      "transactionIndex": "0x1",
      "blockHash": "0x6430834147480efceee23e28d5ec98bc42a8f3facf4d725f964f5a10df819842",
      "blockNumber": "0x370c1a",
      "gasUsed": "0xa9f60",
      "effectiveGasPrice": "0x5d21dba01",
      "from": "0x56fd3f2bee130e9867942d0f463a16fbe49b8d81",
      "to": "0xba5ed099633d3b313e4d5f7bdc1305d3c28ba5ed",
      "contractAddress": null,
      "l1BaseFeeScalar": "0x0",
      "l1BlobBaseFee": "0x1",
      "l1BlobBaseFeeScalar": "0x0",
      "l1Fee": "0x0",
      "l1GasPrice": "0xf7af6c5",
      "l1GasUsed": "0x7f6a"
    },
    {
      "status": "0x1",
      "cumulativeGasUsed": "0xc6766",
      "logs": [
        {
          "address": "0xea29e54e7bd633e94c67006277ff7ec70cc611b1",
          "topics": [
            "0xddf252ad1be2c89b69c2b068fc378daa952ba7f163c4a11628f55a4df523b3ef",
            "0x0000000000000000000000000000000000000000000000000000000000000000",
            "0x00000000000000000000000056fd3f2bee130e9867942d0f463a16fbe49b8d81"
          ],
          "data": "0x00000000000000000000000000000000000000000000d3c21bcecceda1000000",
          "blockHash": "0x6430834147480efceee23e28d5ec98bc42a8f3facf4d725f964f5a10df819842",
          "blockNumber": "0x370c1a",
          "transactionHash": "0x6a6c1acdd17e9474ea2899cfc01b756e57cbcd18e50decc3d12f57dc49ec7ad6",
          "transactionIndex": "0x2",
          "logIndex": "0x3",
          "removed": false
        }
      ],
      "logsBloom": "0x00000000000000000000000000000000000000000000000020000000000000000040000000000000000000000000010000000000000000000000000000000000000000000000000000000008000000000000000000000000000000000000000000000000020000000000000000000800000000000000000000000010000000000000000000000000000000000000000000000000000000000000000000000000000000000000000000000000000000000000000000000000000000000000000000000402000000000000000000000000000000000000000000000000000020000004000000000000000000000000000000000000040000000000000000000000",
      "type": "0x2",
      "transactionHash": "0x6a6c1acdd17e9474ea2899cfc01b756e57cbcd18e50decc3d12f57dc49ec7ad6",
      "transactionIndex": "0x2",
      "blockHash": "0x6430834147480efceee23e28d5ec98bc42a8f3facf4d725f964f5a10df819842",
      "blockNumber": "0x370c1a",
      "gasUsed": "0x11402",
      "effectiveGasPrice": "0x5d21dba01",
      "from": "0x56fd3f2bee130e9867942d0f463a16fbe49b8d81",
      "to": "0xea29e54e7bd633e94c67006277ff7ec70cc611b1",
      "contractAddress": null,
      "l1BaseFeeScalar": "0x0",
      "l1BlobBaseFee": "0x1",
      "l1BlobBaseFeeScalar": "0x0",
      "l1Fee": "0x0",
      "l1GasPrice": "0xf7af6c5",
      "l1GasUsed": "0x640"
    },
    {
      "status": "0x1",
      "cumulativeGasUsed": "0xb5364",
      "logs": [
        {
          "address": "0xba5ed099633d3b313e4d5f7bdc1305d3c28ba5ed",
          "topics": [
            "0x2feea65dd4e9f9cbd86b74b7734210c59a1b2981b5b137bd0ee3e208200c9067",
            "0x000000000000000000000000557881f8015404063a50f55e384fc987cf4f229e",
            "0x4794ff9c03637ab5fabfe8aae45745e2c7edca5ce778ed902590d23a7608dfa4"
          ],
          "data": "0x",
          "blockHash": "0x006543071f59fd642a8a0845818d9a5595898d530b517649b01084c100e4cf5c",
          "blockNumber": "0x370c1b",
          "transactionHash": "0x71d954e28177bf66899a3a89083bdb1b383093ccb0a5d370ed72b864c406ac6e",
          "transactionIndex": "0x1",
          "logIndex": "0x0",
          "removed": false
        },
        {
          "address": "0xb914f314d7f6d9ad9b1fe5e185b7d0cc4590cb48",
          "topics": [
            "0x8be0079c531659141344cd1fd0a4f28419497f9722a3daafe3b4186f6b6457e0",
            "0x0000000000000000000000000000000000000000000000000000000000000000",
            "0x00000000000000000000000056fd3f2bee130e9867942d0f463a16fbe49b8d81"
          ],
          "data": "0x",
          "blockHash": "0x006543071f59fd642a8a0845818d9a5595898d530b517649b01084c100e4cf5c",
          "blockNumber": "0x370c1b",
          "transactionHash": "0x71d954e28177bf66899a3a89083bdb1b383093ccb0a5d370ed72b864c406ac6e",
          "transactionIndex": "0x1",
          "logIndex": "0x1",
          "removed": false
        },
        {
          "address": "0xba5ed099633d3b313e4d5f7bdc1305d3c28ba5ed",
          "topics": [
            "0x4db17dd5e4732fb6da34a148104a592783ca119a1e7bb8829eba6cbadef0b511",
            "0x000000000000000000000000b914f314d7f6d9ad9b1fe5e185b7d0cc4590cb48"
          ],
          "data": "0x",
          "blockHash": "0x006543071f59fd642a8a0845818d9a5595898d530b517649b01084c100e4cf5c",
          "blockNumber": "0x370c1b",
          "transactionHash": "0x71d954e28177bf66899a3a89083bdb1b383093ccb0a5d370ed72b864c406ac6e",
          "transactionIndex": "0x1",
          "logIndex": "0x2",
          "removed": false
        }
      ],
      "logsBloom": "0x00020000000000020000000000000000000000000000000020800000200000000000100100000002000000000000010000000000000004000000000000000000000000000000000000000000020000400001000000010000000008000000000000000000020000000000010000000800000000000020000000000000000000400000000000000000000000000000000000000000000000000000004000000000000000000000000000000000000000000000000000000000000000000000000000000000401000000200080000000000000000002000000000000000000020000004000000000200000000010000000000000000000000000000000000000000",
      "type": "0x2",
      "transactionHash": "0x71d954e28177bf66899a3a89083bdb1b383093ccb0a5d370ed72b864c406ac6e",
      "transactionIndex": "0x1",
      "blockHash": "0x006543071f59fd642a8a0845818d9a5595898d530b517649b01084c100e4cf5c",
      "blockNumber": "0x370c1b",
      "gasUsed": "0xa9f60",
      "effectiveGasPrice": "0x5d21dba01",
      "from": "0x56fd3f2bee130e9867942d0f463a16fbe49b8d81",
      "to": "0xba5ed099633d3b313e4d5f7bdc1305d3c28ba5ed",
      "contractAddress": null,
      "l1BaseFeeScalar": "0x0",
      "l1BlobBaseFee": "0x1",
      "l1BlobBaseFeeScalar": "0x0",
      "l1Fee": "0x0",
      "l1GasPrice": "0xf7af6c5",
      "l1GasUsed": "0x7f6a"
    },
    {
      "status": "0x1",
      "cumulativeGasUsed": "0xc6766",
      "logs": [
        {
          "address": "0xb914f314d7f6d9ad9b1fe5e185b7d0cc4590cb48",
          "topics": [
            "0xddf252ad1be2c89b69c2b068fc378daa952ba7f163c4a11628f55a4df523b3ef",
            "0x0000000000000000000000000000000000000000000000000000000000000000",
            "0x00000000000000000000000056fd3f2bee130e9867942d0f463a16fbe49b8d81"
          ],
          "data": "0x00000000000000000000000000000000000000000000d3c21bcecceda1000000",
          "blockHash": "0x006543071f59fd642a8a0845818d9a5595898d530b517649b01084c100e4cf5c",
          "blockNumber": "0x370c1b",
          "transactionHash": "0x70a16b0161ec278c125d33b38cbae128e1e370c7772f1d72e3daec2cadde7691",
          "transactionIndex": "0x2",
          "logIndex": "0x3",
          "removed": false
        }
      ],
      "logsBloom": "0x00000000000000020000000000000000000000000000000020000000000000000000000000000000000000000000010000000000000000000000000000000000000000000000000000000008000000000000000000010000000000000000000000000000020000000000010000000800000000000000000000000010000000000000000000000000000000000000000000000000000000000000000000000000000000000000000000000000000000000000000000000000000000000000000000000002000000000000000000000000000000000000000000000000000020000004000000000000000000000000000000000000000000000000000000000000",
      "type": "0x2",
      "transactionHash": "0x70a16b0161ec278c125d33b38cbae128e1e370c7772f1d72e3daec2cadde7691",
      "transactionIndex": "0x2",
      "blockHash": "0x006543071f59fd642a8a0845818d9a5595898d530b517649b01084c100e4cf5c",
      "blockNumber": "0x370c1b",
      "gasUsed": "0x11402",
      "effectiveGasPrice": "0x5d21dba01",
      "from": "0x56fd3f2bee130e9867942d0f463a16fbe49b8d81",
      "to": "0xb914f314d7f6d9ad9b1fe5e185b7d0cc4590cb48",
      "contractAddress": null,
      "l1BaseFeeScalar": "0x0",
      "l1BlobBaseFee": "0x1",
      "l1BlobBaseFeeScalar": "0x0",
      "l1Fee": "0x0",
      "l1GasPrice": "0xf7af6c5",
      "l1GasUsed": "0x640"
    },
    {
      "status": "0x1",
      "cumulativeGasUsed": "0x17070e",
      "logs": [
        {
          "address": "0xba5ed099633d3b313e4d5f7bdc1305d3c28ba5ed",
          "topics": [
            "0x2feea65dd4e9f9cbd86b74b7734210c59a1b2981b5b137bd0ee3e208200c9067",
            "0x000000000000000000000000f9fa51a7cf36e35a207e384dead93082e2cdf30f",
            "0x28d56a0e4a7404d1db1077f3b816d1e8fe84c84846f7ea18dc852312b7ab2dd3"
          ],
          "data": "0x",
          "blockHash": "0x006543071f59fd642a8a0845818d9a5595898d530b517649b01084c100e4cf5c",
          "blockNumber": "0x370c1b",
          "transactionHash": "0x6f13e74033c1e15ec8f39d29767e1cfc6c3e91e88a09c88dba35eaa762919673",
          "transactionIndex": "0x3",
          "logIndex": "0x4",
          "removed": false
        },
        {
          "address": "0xa35bedb2dd478065bb07337d584e36622c205f94",
          "topics": [
            "0x8be0079c531659141344cd1fd0a4f28419497f9722a3daafe3b4186f6b6457e0",
            "0x0000000000000000000000000000000000000000000000000000000000000000",
            "0x00000000000000000000000056fd3f2bee130e9867942d0f463a16fbe49b8d81"
          ],
          "data": "0x",
          "blockHash": "0x006543071f59fd642a8a0845818d9a5595898d530b517649b01084c100e4cf5c",
          "blockNumber": "0x370c1b",
          "transactionHash": "0x6f13e74033c1e15ec8f39d29767e1cfc6c3e91e88a09c88dba35eaa762919673",
          "transactionIndex": "0x3",
          "logIndex": "0x5",
          "removed": false
        },
        {
          "address": "0xba5ed099633d3b313e4d5f7bdc1305d3c28ba5ed",
          "topics": [
            "0x4db17dd5e4732fb6da34a148104a592783ca119a1e7bb8829eba6cbadef0b511",
            "0x000000000000000000000000a35bedb2dd478065bb07337d584e36622c205f94"
          ],
          "data": "0x",
          "blockHash": "0x006543071f59fd642a8a0845818d9a5595898d530b517649b01084c100e4cf5c",
          "blockNumber": "0x370c1b",
          "transactionHash": "0x6f13e74033c1e15ec8f39d29767e1cfc6c3e91e88a09c88dba35eaa762919673",
          "transactionIndex": "0x3",
          "logIndex": "0x6",
          "removed": false
        }
      ],
      "logsBloom": "0x00020000000000000000000000000000000000000000000020800000200000020000000000000000000000000000010000000108000404000000000800000000000000000000000000000000020000000001000000000000000000000000000000000000020000000000000000002800000000000020000000000000000000400000000000000200000000000000000000000000000000000000004000000000000000000010000000000040000000000000000000000000000000000000000000000000000000000200000000000000000000002000000000000000000020000004000000000200080000000000000000000004000000000000000000000400",
      "type": "0x2",
      "transactionHash": "0x6f13e74033c1e15ec8f39d29767e1cfc6c3e91e88a09c88dba35eaa762919673",
      "transactionIndex": "0x3",
      "blockHash": "0x006543071f59fd642a8a0845818d9a5595898d530b517649b01084c100e4cf5c",
      "blockNumber": "0x370c1b",
      "gasUsed": "0xa9fa8",
      "effectiveGasPrice": "0x5d21dba01",
      "from": "0x56fd3f2bee130e9867942d0f463a16fbe49b8d81",
      "to": "0xba5ed099633d3b313e4d5f7bdc1305d3c28ba5ed",
      "contractAddress": null,
      "l1BaseFeeScalar": "0x0",
      "l1BlobBaseFee": "0x1",
      "l1BlobBaseFeeScalar": "0x0",
      "l1Fee": "0x0",
      "l1GasPrice": "0xf7af6c5",
      "l1GasUsed": "0x7f92"
    },
    {
      "status": "0x1",
      "cumulativeGasUsed": "0x181b10",
      "logs": [
        {
          "address": "0xa35bedb2dd478065bb07337d584e36622c205f94",
          "topics": [
            "0xddf252ad1be2c89b69c2b068fc378daa952ba7f163c4a11628f55a4df523b3ef",
            "0x0000000000000000000000000000000000000000000000000000000000000000",
            "0x00000000000000000000000056fd3f2bee130e9867942d0f463a16fbe49b8d81"
          ],
          "data": "0x00000000000000000000000000000000000000000000d3c21bcecceda1000000",
          "blockHash": "0x006543071f59fd642a8a0845818d9a5595898d530b517649b01084c100e4cf5c",
          "blockNumber": "0x370c1b",
          "transactionHash": "0xed6d9ab4dc858f84d83d368e8501ab9f2631f85d3c5493169f2bfb6efe99757c",
          "transactionIndex": "0x4",
          "logIndex": "0x7",
          "removed": false
        }
      ],
      "logsBloom": "0x00000000000000000000000000000000000000000000000020000000000000000000000000000000000000000000010000000100000000000000000000000000000000000000000000000008000000000000000000000000000000000000000000000000020000000000000000000800000000000000000000000010000000000000000000000000000000000000000000000000000000000000000000000000000000000000000000000040000000000000000000000000000000000000000000000002000000000000000000000000000000000000000000000000000020000004000000000000080000000000000000000000000000000000000000000000",
      "type": "0x2",
      "transactionHash": "0xed6d9ab4dc858f84d83d368e8501ab9f2631f85d3c5493169f2bfb6efe99757c",
      "transactionIndex": "0x4",
      "blockHash": "0x006543071f59fd642a8a0845818d9a5595898d530b517649b01084c100e4cf5c",
      "blockNumber": "0x370c1b",
      "gasUsed": "0x11402",
      "effectiveGasPrice": "0x5d21dba01",
      "from": "0x56fd3f2bee130e9867942d0f463a16fbe49b8d81",
      "to": "0xa35bedb2dd478065bb07337d584e36622c205f94",
      "contractAddress": null,
      "l1BaseFeeScalar": "0x0",
      "l1BlobBaseFee": "0x1",
      "l1BlobBaseFeeScalar": "0x0",
      "l1Fee": "0x0",
      "l1GasPrice": "0xf7af6c5",
      "l1GasUsed": "0x640"
    },
    {
      "status": "0x1",
      "cumulativeGasUsed": "0x22bad0",
      "logs": [
        {
          "address": "0xba5ed099633d3b313e4d5f7bdc1305d3c28ba5ed",
          "topics": [
            "0x2feea65dd4e9f9cbd86b74b7734210c59a1b2981b5b137bd0ee3e208200c9067",
            "0x000000000000000000000000dd03c1f17ed7b233cdc70f400d25f00006cb264d",
            "0xd60f6553f09eb3b74d7fac0ecfc21433e96c800da6773a6b13b6f080c731c3f7"
          ],
          "data": "0x",
          "blockHash": "0x006543071f59fd642a8a0845818d9a5595898d530b517649b01084c100e4cf5c",
          "blockNumber": "0x370c1b",
          "transactionHash": "0x406cf08b7e7123601592b05113875518f78faa58bdca8415a7a0c3684c5255de",
          "transactionIndex": "0x5",
          "logIndex": "0x8",
          "removed": false
        },
        {
          "address": "0x5d02f46839db9f9c6047aef9366072179df5efc7",
          "topics": [
            "0x8be0079c531659141344cd1fd0a4f28419497f9722a3daafe3b4186f6b6457e0",
            "0x0000000000000000000000000000000000000000000000000000000000000000",
            "0x00000000000000000000000056fd3f2bee130e9867942d0f463a16fbe49b8d81"
          ],
          "data": "0x",
          "blockHash": "0x006543071f59fd642a8a0845818d9a5595898d530b517649b01084c100e4cf5c",
          "blockNumber": "0x370c1b",
          "transactionHash": "0x406cf08b7e7123601592b05113875518f78faa58bdca8415a7a0c3684c5255de",
          "transactionIndex": "0x5",
          "logIndex": "0x9",
          "removed": false
        },
        {
          "address": "0xba5ed099633d3b313e4d5f7bdc1305d3c28ba5ed",
          "topics": [
            "0x4db17dd5e4732fb6da34a148104a592783ca119a1e7bb8829eba6cbadef0b511",
            "0x0000000000000000000000005d02f46839db9f9c6047aef9366072179df5efc7"
          ],
          "data": "0x",
          "blockHash": "0x006543071f59fd642a8a0845818d9a5595898d530b517649b01084c100e4cf5c",
          "blockNumber": "0x370c1b",
          "transactionHash": "0x406cf08b7e7123601592b05113875518f78faa58bdca8415a7a0c3684c5255de",
          "transactionIndex": "0x5",
          "logIndex": "0xa",
          "removed": false
        }
      ],
      "logsBloom": "0x00024000000000000000000000000000000000000000000020800000200000000000000000000000000000000000010000008000000084000000000000000000000000000000000000000000020000000001000000000800000000101000000000000000020000000000000000000800000000000020000000000000000000400000000000000000000000000000000000000000000000000000024000000000000000002000000000000000000000010000000000000000000000000000000000000000000000000200000000000000000000002000000020000000000020002004000000001200000000000000000000000000000000000000000000000000",
      "type": "0x2",
      "transactionHash": "0x406cf08b7e7123601592b05113875518f78faa58bdca8415a7a0c3684c5255de",
      "transactionIndex": "0x5",
      "blockHash": "0x006543071f59fd642a8a0845818d9a5595898d530b517649b01084c100e4cf5c",
      "blockNumber": "0x370c1b",
      "gasUsed": "0xa9fc0",
      "effectiveGasPrice": "0x5d21dba01",
      "from": "0x56fd3f2bee130e9867942d0f463a16fbe49b8d81",
      "to": "0xba5ed099633d3b313e4d5f7bdc1305d3c28ba5ed",
      "contractAddress": null,
      "l1BaseFeeScalar": "0x0",
      "l1BlobBaseFee": "0x1",
      "l1BlobBaseFeeScalar": "0x0",
      "l1Fee": "0x0",
      "l1GasPrice": "0xf7af6c5",
      "l1GasUsed": "0x7f9f"
    },
    {
      "status": "0x1",
      "cumulativeGasUsed": "0x23ced2",
      "logs": [
        {
          "address": "0x5d02f46839db9f9c6047aef9366072179df5efc7",
          "topics": [
            "0xddf252ad1be2c89b69c2b068fc378daa952ba7f163c4a11628f55a4df523b3ef",
            "0x0000000000000000000000000000000000000000000000000000000000000000",
            "0x00000000000000000000000056fd3f2bee130e9867942d0f463a16fbe49b8d81"
          ],
          "data": "0x00000000000000000000000000000000000000000000d3c21bcecceda1000000",
          "blockHash": "0x006543071f59fd642a8a0845818d9a5595898d530b517649b01084c100e4cf5c",
          "blockNumber": "0x370c1b",
          "transactionHash": "0x42faf92de45a34f87ca7f5075d79427146c698e6ab0241f8581c38ec77c1b6d3",
          "transactionIndex": "0x6",
          "logIndex": "0xb",
          "removed": false
        }
      ],
      "logsBloom": "0x00004000000000000000000000000000000000000000000020000000000000000000000000000000000000000000010000000000000000000000000000000000000000000000000000000008000000000000000000000000000000000000000000000000020000000000000000000800000000000000000000000010000000000000000000000000000000000000000000000000000000000000000000000000000000002000000000000000000000000000000000000000000000000000000000000002000000000000000000000000000000000000000000000000000020000004000000001000000000000000000000000000000000000000000000000000",
      "type": "0x2",
      "transactionHash": "0x42faf92de45a34f87ca7f5075d79427146c698e6ab0241f8581c38ec77c1b6d3",
      "transactionIndex": "0x6",
      "blockHash": "0x006543071f59fd642a8a0845818d9a5595898d530b517649b01084c100e4cf5c",
      "blockNumber": "0x370c1b",
      "gasUsed": "0x11402",
      "effectiveGasPrice": "0x5d21dba01",
      "from": "0x56fd3f2bee130e9867942d0f463a16fbe49b8d81",
      "to": "0x5d02f46839db9f9c6047aef9366072179df5efc7",
      "contractAddress": null,
      "l1BaseFeeScalar": "0x0",
      "l1BlobBaseFee": "0x1",
      "l1BlobBaseFeeScalar": "0x0",
      "l1Fee": "0x0",
      "l1GasPrice": "0xf7af6c5",
      "l1GasUsed": "0x640"
    }
  ],
  "libraries": [
    "node_modules/@celo/contracts/common/linkedlists/AddressSortedLinkedListWithMedian.sol:AddressSortedLinkedListWithMedian:0x6CE08805311839d4eb716E3219591330E445e3Bf"
  ],
  "pending": [],
  "returns": {},
  "timestamp": 1756891569252,
  "chain": 11142220,
  "commit": "7dc8151"
}