{
  "transactions": [
    {
      "hash": "0xdf4ab3b57d1d4030e2058b00c4a60fa5f0ca393ca0acb0cb220b578ddce39d0a",
      "transactionType": "CALL",
      "contractName": null,
      "contractAddress": "0xfdff3fd0994fed8be208a7bee49970ea9707e687",
      "function": "execTransaction(address,uint256,bytes,uint8,uint256,uint256,uint256,address,address,bytes)",
      "arguments": [
        "0x9beACcE6eC3066f96345e6e15ab6263FB63E9150",
        "0",
        "0xf2fde38b00000000000000000000000058099b74f4acd642da77b4b7966b4138ec5ba458",
        "0",
        "0",
        "0",
        "0",
        "0x0000000000000000000000000000000000000000",
        "0x0000000000000000000000000000000000000000",
        "0x4de591a62f9d42ae7318c55c7ef86ba16ea2a5647672d408171e06e69bc3b18265343d7db392929e516cc880663df9435c50a458ef57d7d215404006128a6d841c"
      ],
      "transaction": {
        "from": "0x2738f38fde510743e0c589415e0598c4cee6eaa7",
        "to": "0xfdff3fd0994fed8be208a7bee49970ea9707e687",
        "gas": "0x275ac",
        "value": "0x0",
        "input": "0x6a7612020000000000000000000000009beacce6ec3066f96345e6e15ab6263fb63e91500000000000000000000000000000000000000000000000000000000000000000000000000000000000000000000000000000000000000000000000000000014000000000000000000000000000000000000000000000000000000000000000000000000000000000000000000000000000000000000000000000000000000000000000000000000000000000000000000000000000000000000000000000000000000000000000000000000000000000000000000000000000000000000000000000000000000000000000000000000000000000000000000000000000000000000000000000000000000000000000000000000000000000000000000000000000000000000000000000000000000000000000000000000000000000000001a00000000000000000000000000000000000000000000000000000000000000024f2fde38b00000000000000000000000058099b74f4acd642da77b4b7966b4138ec5ba4580000000000000000000000000000000000000000000000000000000000000000000000000000000000000000000000000000000000000000000000414de591a62f9d42ae7318c55c7ef86ba16ea2a5647672d408171e06e69bc3b18265343d7db392929e516cc880663df9435c50a458ef57d7d215404006128a6d841c00000000000000000000000000000000000000000000000000000000000000",
        "nonce": "0xd5",
        "chainId": "0x8f"
      },
      "additionalContracts": [],
      "isFixedGasLimit": false
    }
  ],
  "receipts": [
    {
      "type": "0x2",
      "status": "0x1",
      "cumulativeGasUsed": "0x105975",
      "logs": [
        {
          "address": "0xfdff3fd0994fed8be208a7bee49970ea9707e687",
          "topics": [
            "0x66753cd2356569ee081232e3be8909b950e0a76c1f8460c3a5e3c2be32b11bed"
          ],
          "data": "0x0000000000000000000000009beacce6ec3066f96345e6e15ab6263fb63e91500000000000000000000000000000000000000000000000000000000000000000000000000000000000000000000000000000000000000000000000000000016000000000000000000000000000000000000000000000000000000000000000000000000000000000000000000000000000000000000000000000000000000000000000000000000000000000000000000000000000000000000000000000000000000000000000000000000000000000000000000000000000000000000000000000000000000000000000000000000000000000000000000000000000000000000000000000000000000000000000000000000000000000000000000000000000000000000000000000000000000000000000000000000000000000000001c000000000000000000000000000000000000000000000000000000000000002400000000000000000000000000000000000000000000000000000000000000024f2fde38b00000000000000000000000058099b74f4acd642da77b4b7966b4138ec5ba4580000000000000000000000000000000000000000000000000000000000000000000000000000000000000000000000000000000000000000000000414de591a62f9d42ae7318c55c7ef86ba16ea2a5647672d408171e06e69bc3b18265343d7db392929e516cc880663df9435c50a458ef57d7d215404006128a6d841c00000000000000000000000000000000000000000000000000000000000000000000000000000000000000000000000000000000000000000000000000006000000000000000000000000000000000000000000000000000000000000000120000000000000000000000002738f38fde510743e0c589415e0598c4cee6eaa70000000000000000000000000000000000000000000000000000000000000001",
          "blockHash": "0xd6999e49b8098d494affaaf51e40801b98e3ba994494b38d1f91e56a1d91bba6",
          "blockNumber": "0x3a2a712",
          "blockTimestamp": "0x69b308f1",
          "transactionHash": "0xdf4ab3b57d1d4030e2058b00c4a60fa5f0ca393ca0acb0cb220b578ddce39d0a",
          "transactionIndex": "0x4",
          "logIndex": "0xa",
          "removed": false
        },
        {
          "address": "0x9beacce6ec3066f96345e6e15ab6263fb63e9150",
          "topics": [
            "0x8be0079c531659141344cd1fd0a4f28419497f9722a3daafe3b4186f6b6457e0",
            "0x000000000000000000000000fdff3fd0994fed8be208a7bee49970ea9707e687",
            "0x00000000000000000000000058099b74f4acd642da77b4b7966b4138ec5ba458"
          ],
          "data": "0x",
          "blockHash": "0xd6999e49b8098d494affaaf51e40801b98e3ba994494b38d1f91e56a1d91bba6",
          "blockNumber": "0x3a2a712",
          "blockTimestamp": "0x69b308f1",
          "transactionHash": "0xdf4ab3b57d1d4030e2058b00c4a60fa5f0ca393ca0acb0cb220b578ddce39d0a",
          "transactionIndex": "0x4",
          "logIndex": "0xb",
          "removed": false
        },
        {
          "address": "0xfdff3fd0994fed8be208a7bee49970ea9707e687",
          "topics": [
            "0x442e715f626346e8c54381002da614f62bee8d27386535b2521ec8540898556e",
            "0x7879b343f0638b4a5d46d7714c41915d3d0f08e9759dddfba541a2d930c7ac0c"
          ],
          "data": "0x0000000000000000000000000000000000000000000000000000000000000000",
          "blockHash": "0xd6999e49b8098d494affaaf51e40801b98e3ba994494b38d1f91e56a1d91bba6",
          "blockNumber": "0x3a2a712",
          "blockTimestamp": "0x69b308f1",
          "transactionHash": "0xdf4ab3b57d1d4030e2058b00c4a60fa5f0ca393ca0acb0cb220b578ddce39d0a",
          "transactionIndex": "0x4",
          "logIndex": "0xc",
          "removed": false
        }
      ],
      "logsBloom": "0x00000000400000000000000000800100000010000000000000800000040000000000000000000000000000000080000000000008000000000000000000000000008000000000000000000000000000000001040000000000000000000000000000000000001000000000010000000000000000000000000000000000000200400000000000000000000000000000000000000000000000000000000000000000004000000400000100000000000004000000000000000000000000000000000000000000000000000000000000020000000000000000000800000000000000000000000000000000000000000300000000000000000000000000000000040000",
      "transactionHash": "0xdf4ab3b57d1d4030e2058b00c4a60fa5f0ca393ca0acb0cb220b578ddce39d0a",
      "transactionIndex": "0x4",
      "blockHash": "0xd6999e49b8098d494affaaf51e40801b98e3ba994494b38d1f91e56a1d91bba6",
      "blockNumber": "0x3a2a712",
      "gasUsed": "0x275ac",
      "effectiveGasPrice": "0x17fb474600",
      "from": "0x2738f38fde510743e0c589415e0598c4cee6eaa7",
      "to": "0xfdff3fd0994fed8be208a7bee49970ea9707e687",
      "contractAddress": null
    }
  ],
  "libraries": [
    "lib/mento-core/node_modules/@celo/contracts/common/linkedlists/AddressSortedLinkedListWithMedian.sol:AddressSortedLinkedListWithMedian:0x65052c55815F491094FD8F1D887d4B5C670abE3c",
    "lib/mento-stabletoken-ntt/evm/src/libraries/TransceiverStructs.sol:TransceiverStructs:0x7C2420401eB6bEB50501Fd5bc8b60DBfC2b0dEF0"
  ],
  "pending": [],
  "returns": {},
  "timestamp": 1773340914837,
  "chain": 143,
  "commit": "48c783c"
}