{
  "transactions": [
    {
      "hash": "0x5bb311cbc67cd21b8066d840332d3b8f871c1eadfd5875d6d2ee3c483abfd64a",
      "transactionType": "CALL",
      "contractName": null,
      "contractAddress": "0xfdff3fd0994fed8be208a7bee49970ea9707e687",
      "function": "execTransaction(address,uint256,bytes,uint8,uint256,uint256,uint256,address,address,bytes)",
      "arguments": [
        "0xABbf9c253Bc39CE7BB010bC90de5283f2431a659",
        "0",
        "0xf2fde38b00000000000000000000000058099b74f4acd642da77b4b7966b4138ec5ba458",
        "0",
        "0",
        "0",
        "0",
        "0x0000000000000000000000000000000000000000",
        "0x0000000000000000000000000000000000000000",
        "0x9dc6fb2927e3a5db4e5922cf49e5b646bdecf1279a736b67607798cbb29e8c1d537c5125ece59418b212e462cc84a3f54c4dd4ee28e8167cac6f957ddb8005391c"
      ],
      "transaction": {
        "from": "0x2738f38fde510743e0c589415e0598c4cee6eaa7",
        "to": "0xfdff3fd0994fed8be208a7bee49970ea9707e687",
        "gas": "0x275ac",
        "value": "0x0",
        "input": "0x6a761202000000000000000000000000abbf9c253bc39ce7bb010bc90de5283f2431a6590000000000000000000000000000000000000000000000000000000000000000000000000000000000000000000000000000000000000000000000000000014000000000000000000000000000000000000000000000000000000000000000000000000000000000000000000000000000000000000000000000000000000000000000000000000000000000000000000000000000000000000000000000000000000000000000000000000000000000000000000000000000000000000000000000000000000000000000000000000000000000000000000000000000000000000000000000000000000000000000000000000000000000000000000000000000000000000000000000000000000000000000000000000000000000000001a00000000000000000000000000000000000000000000000000000000000000024f2fde38b00000000000000000000000058099b74f4acd642da77b4b7966b4138ec5ba4580000000000000000000000000000000000000000000000000000000000000000000000000000000000000000000000000000000000000000000000419dc6fb2927e3a5db4e5922cf49e5b646bdecf1279a736b67607798cbb29e8c1d537c5125ece59418b212e462cc84a3f54c4dd4ee28e8167cac6f957ddb8005391c00000000000000000000000000000000000000000000000000000000000000",
        "nonce": "0xd8",
        "chainId": "0x8f"
      },
      "additionalContracts": [],
      "isFixedGasLimit": false
    }
  ],
  "receipts": [
    {
      "type": "0x2",
      "status": "0x1",
      "cumulativeGasUsed": "0x2280cc",
      "logs": [
        {
          "address": "0xfdff3fd0994fed8be208a7bee49970ea9707e687",
          "topics": [
            "0x66753cd2356569ee081232e3be8909b950e0a76c1f8460c3a5e3c2be32b11bed"
          ],
          "data": "0x000000000000000000000000abbf9c253bc39ce7bb010bc90de5283f2431a6590000000000000000000000000000000000000000000000000000000000000000000000000000000000000000000000000000000000000000000000000000016000000000000000000000000000000000000000000000000000000000000000000000000000000000000000000000000000000000000000000000000000000000000000000000000000000000000000000000000000000000000000000000000000000000000000000000000000000000000000000000000000000000000000000000000000000000000000000000000000000000000000000000000000000000000000000000000000000000000000000000000000000000000000000000000000000000000000000000000000000000000000000000000000000000000001c000000000000000000000000000000000000000000000000000000000000002400000000000000000000000000000000000000000000000000000000000000024f2fde38b00000000000000000000000058099b74f4acd642da77b4b7966b4138ec5ba4580000000000000000000000000000000000000000000000000000000000000000000000000000000000000000000000000000000000000000000000419dc6fb2927e3a5db4e5922cf49e5b646bdecf1279a736b67607798cbb29e8c1d537c5125ece59418b212e462cc84a3f54c4dd4ee28e8167cac6f957ddb8005391c00000000000000000000000000000000000000000000000000000000000000000000000000000000000000000000000000000000000000000000000000006000000000000000000000000000000000000000000000000000000000000000150000000000000000000000002738f38fde510743e0c589415e0598c4cee6eaa70000000000000000000000000000000000000000000000000000000000000001",
          "blockHash": "0x4f44f55f26a92f6266b2cbe5bc75568c5d179e601abb4c8e6bb2c5ffb9c1b77d",
          "blockNumber": "0x3a2a749",
          "blockTimestamp": "0x69b30907",
          "transactionHash": "0x5bb311cbc67cd21b8066d840332d3b8f871c1eadfd5875d6d2ee3c483abfd64a",
          "transactionIndex": "0x2",
          "logIndex": "0x15",
          "removed": false
        },
        {
          "address": "0xabbf9c253bc39ce7bb010bc90de5283f2431a659",
          "topics": [
            "0x8be0079c531659141344cd1fd0a4f28419497f9722a3daafe3b4186f6b6457e0",
            "0x000000000000000000000000fdff3fd0994fed8be208a7bee49970ea9707e687",
            "0x00000000000000000000000058099b74f4acd642da77b4b7966b4138ec5ba458"
          ],
          "data": "0x",
          "blockHash": "0x4f44f55f26a92f6266b2cbe5bc75568c5d179e601abb4c8e6bb2c5ffb9c1b77d",
          "blockNumber": "0x3a2a749",
          "blockTimestamp": "0x69b30907",
          "transactionHash": "0x5bb311cbc67cd21b8066d840332d3b8f871c1eadfd5875d6d2ee3c483abfd64a",
          "transactionIndex": "0x2",
          "logIndex": "0x16",
          "removed": false
        },
        {
          "address": "0xfdff3fd0994fed8be208a7bee49970ea9707e687",
          "topics": [
            "0x442e715f626346e8c54381002da614f62bee8d27386535b2521ec8540898556e",
            "0x2a46018c3cb41eb37e49ab7e142dc142ecd31d21d30502931e3f8f35ad8462ab"
          ],
          "data": "0x0000000000000000000000000000000000000000000000000000000000000000",
          "blockHash": "0x4f44f55f26a92f6266b2cbe5bc75568c5d179e601abb4c8e6bb2c5ffb9c1b77d",
          "blockNumber": "0x3a2a749",
          "blockTimestamp": "0x69b30907",
          "transactionHash": "0x5bb311cbc67cd21b8066d840332d3b8f871c1eadfd5875d6d2ee3c483abfd64a",
          "transactionIndex": "0x2",
          "logIndex": "0x17",
          "removed": false
        }
      ],
      "logsBloom": "0x00000000400000000000000000800100000010000000000000800000040000008000000000000000000000000000000000000008000000000000000000000000000000000000000000000000000000000001040000000000000000000000000000000000000000000000010000000000000000000008000000000000000000400000000000010000000000000000000000000000000000000000000000000000004000000400000000000000000004001000000000000000000000000000000000000000000400000000000000020000000000000000000000000000000000000000000000000000000000000300000000000000000000000000000080040000",
      "transactionHash": "0x5bb311cbc67cd21b8066d840332d3b8f871c1eadfd5875d6d2ee3c483abfd64a",
      "transactionIndex": "0x2",
      "blockHash": "0x4f44f55f26a92f6266b2cbe5bc75568c5d179e601abb4c8e6bb2c5ffb9c1b77d",
      "blockNumber": "0x3a2a749",
      "gasUsed": "0x275ac",
      "effectiveGasPrice": "0x1c2c297a00",
      "from": "0x2738f38fde510743e0c589415e0598c4cee6eaa7",
      "to": "0xfdff3fd0994fed8be208a7bee49970ea9707e687",
      "contractAddress": null
    }
  ],
  "libraries": [
    "lib/mento-core/node_modules/@celo/contracts/common/linkedlists/AddressSortedLinkedListWithMedian.sol:AddressSortedLinkedListWithMedian:0x65052c55815F491094FD8F1D887d4B5C670abE3c",
    "lib/mento-stabletoken-ntt/evm/src/libraries/TransceiverStructs.sol:TransceiverStructs:0x7C2420401eB6bEB50501Fd5bc8b60DBfC2b0dEF0"
  ],
  "pending": [],
  "returns": {},
  "timestamp": 1773340937161,
  "chain": 143,
  "commit": "48c783c"
}