{
  "transactions": [
    {
      "hash": "0x19733ee83f5170ea8f2b1e4bd08a1a55e7eaee0754a27cd15e74637eb18bd1ba",
      "transactionType": "CALL",
      "contractName": null,
      "contractAddress": "0xfdff3fd0994fed8be208a7bee49970ea9707e687",
      "function": "execTransaction(address,uint256,bytes,uint8,uint256,uint256,uint256,address,address,bytes)",
      "arguments": [
        "0xaC683Ef047E3A8BFeefF3bb109a78106a5AB9985",
        "0",
        "0xf2fde38b00000000000000000000000058099b74f4acd642da77b4b7966b4138ec5ba458",
        "0",
        "0",
        "0",
        "0",
        "0x0000000000000000000000000000000000000000",
        "0x0000000000000000000000000000000000000000",
        "0x6b1fd01c4bc4592fc99b75e0770f48c079bd94964325ded98b2d14c0ed0efe832f7daedcb78fd0f1c5c101251a3e1f3f171d131304ac00f8c79f843ed16aec1f1c"
      ],
      "transaction": {
        "from": "0x2738f38fde510743e0c589415e0598c4cee6eaa7",
        "to": "0xfdff3fd0994fed8be208a7bee49970ea9707e687",
        "gas": "0x2759c",
        "value": "0x0",
        "input": "0x6a761202000000000000000000000000ac683ef047e3a8bfeeff3bb109a78106a5ab99850000000000000000000000000000000000000000000000000000000000000000000000000000000000000000000000000000000000000000000000000000014000000000000000000000000000000000000000000000000000000000000000000000000000000000000000000000000000000000000000000000000000000000000000000000000000000000000000000000000000000000000000000000000000000000000000000000000000000000000000000000000000000000000000000000000000000000000000000000000000000000000000000000000000000000000000000000000000000000000000000000000000000000000000000000000000000000000000000000000000000000000000000000000000000000000001a00000000000000000000000000000000000000000000000000000000000000024f2fde38b00000000000000000000000058099b74f4acd642da77b4b7966b4138ec5ba4580000000000000000000000000000000000000000000000000000000000000000000000000000000000000000000000000000000000000000000000416b1fd01c4bc4592fc99b75e0770f48c079bd94964325ded98b2d14c0ed0efe832f7daedcb78fd0f1c5c101251a3e1f3f171d131304ac00f8c79f843ed16aec1f1c00000000000000000000000000000000000000000000000000000000000000",
        "nonce": "0xd7",
        "chainId": "0x8f"
      },
      "additionalContracts": [],
      "isFixedGasLimit": false
    }
  ],
  "receipts": [
    {
      "type": "0x2",
      "status": "0x1",
      "cumulativeGasUsed": "0x1903ac",
      "logs": [
        {
          "address": "0xfdff3fd0994fed8be208a7bee49970ea9707e687",
          "topics": [
            "0x66753cd2356569ee081232e3be8909b950e0a76c1f8460c3a5e3c2be32b11bed"
          ],
          "data": "0x000000000000000000000000ac683ef047e3a8bfeeff3bb109a78106a5ab99850000000000000000000000000000000000000000000000000000000000000000000000000000000000000000000000000000000000000000000000000000016000000000000000000000000000000000000000000000000000000000000000000000000000000000000000000000000000000000000000000000000000000000000000000000000000000000000000000000000000000000000000000000000000000000000000000000000000000000000000000000000000000000000000000000000000000000000000000000000000000000000000000000000000000000000000000000000000000000000000000000000000000000000000000000000000000000000000000000000000000000000000000000000000000000000001c000000000000000000000000000000000000000000000000000000000000002400000000000000000000000000000000000000000000000000000000000000024f2fde38b00000000000000000000000058099b74f4acd642da77b4b7966b4138ec5ba4580000000000000000000000000000000000000000000000000000000000000000000000000000000000000000000000000000000000000000000000416b1fd01c4bc4592fc99b75e0770f48c079bd94964325ded98b2d14c0ed0efe832f7daedcb78fd0f1c5c101251a3e1f3f171d131304ac00f8c79f843ed16aec1f1c00000000000000000000000000000000000000000000000000000000000000000000000000000000000000000000000000000000000000000000000000006000000000000000000000000000000000000000000000000000000000000000140000000000000000000000002738f38fde510743e0c589415e0598c4cee6eaa70000000000000000000000000000000000000000000000000000000000000001",
          "blockHash": "0x71e1b3149ba58a0a1f72e714a3f148394c567eb0b3f7cc6c232fab7fbee815ba",
          "blockNumber": "0x3a2a737",
          "blockTimestamp": "0x69b30900",
          "transactionHash": "0x19733ee83f5170ea8f2b1e4bd08a1a55e7eaee0754a27cd15e74637eb18bd1ba",
          "transactionIndex": "0x4",
          "logIndex": "0x14",
          "removed": false
        },
        {
          "address": "0xac683ef047e3a8bfeeff3bb109a78106a5ab9985",
          "topics": [
            "0x8be0079c531659141344cd1fd0a4f28419497f9722a3daafe3b4186f6b6457e0",
            "0x000000000000000000000000fdff3fd0994fed8be208a7bee49970ea9707e687",
            "0x00000000000000000000000058099b74f4acd642da77b4b7966b4138ec5ba458"
          ],
          "data": "0x",
          "blockHash": "0x71e1b3149ba58a0a1f72e714a3f148394c567eb0b3f7cc6c232fab7fbee815ba",
          "blockNumber": "0x3a2a737",
          "blockTimestamp": "0x69b30900",
          "transactionHash": "0x19733ee83f5170ea8f2b1e4bd08a1a55e7eaee0754a27cd15e74637eb18bd1ba",
          "transactionIndex": "0x4",
          "logIndex": "0x15",
          "removed": false
        },
        {
          "address": "0xfdff3fd0994fed8be208a7bee49970ea9707e687",
          "topics": [
            "0x442e715f626346e8c54381002da614f62bee8d27386535b2521ec8540898556e",
            "0x08cf50aeac5697f2c419bb7ad97ffdf480b9d7ef94435d32a07b62a89306c673"
          ],
          "data": "0x0000000000000000000000000000000000000000000000000000000000000000",
          "blockHash": "0x71e1b3149ba58a0a1f72e714a3f148394c567eb0b3f7cc6c232fab7fbee815ba",
          "blockNumber": "0x3a2a737",
          "blockTimestamp": "0x69b30900",
          "transactionHash": "0x19733ee83f5170ea8f2b1e4bd08a1a55e7eaee0754a27cd15e74637eb18bd1ba",
          "transactionIndex": "0x4",
          "logIndex": "0x16",
          "removed": false
        }
      ],
      "logsBloom": "0x00000008400000000000000000800100000010000000000000800000040000000000000000000000000000000000000000000008000000000000000000004000000000000020000000000000000000000001040000000000000000000000000000000000000000000000010000000000000000000000000000000000000000400000000000000000000000000000000000000000000000400000000000000000004000000400000000000000000104000000000000000000000000000000000000000000000000000000000000020000000000000000000000000000000000000000000000000000000000000300000000400000000000000000000000040000",
      "transactionHash": "0x19733ee83f5170ea8f2b1e4bd08a1a55e7eaee0754a27cd15e74637eb18bd1ba",
      "transactionIndex": "0x4",
      "blockHash": "0x71e1b3149ba58a0a1f72e714a3f148394c567eb0b3f7cc6c232fab7fbee815ba",
      "blockNumber": "0x3a2a737",
      "gasUsed": "0x2759c",
      "effectiveGasPrice": "0x17dd79e100",
      "from": "0x2738f38fde510743e0c589415e0598c4cee6eaa7",
      "to": "0xfdff3fd0994fed8be208a7bee49970ea9707e687",
      "contractAddress": null
    }
  ],
  "libraries": [
    "lib/mento-core/node_modules/@celo/contracts/common/linkedlists/AddressSortedLinkedListWithMedian.sol:AddressSortedLinkedListWithMedian:0x65052c55815F491094FD8F1D887d4B5C670abE3c",
    "lib/mento-stabletoken-ntt/evm/src/libraries/TransceiverStructs.sol:TransceiverStructs:0x7C2420401eB6bEB50501Fd5bc8b60DBfC2b0dEF0"
  ],
  "pending": [],
  "returns": {},
  "timestamp": 1773340929666,
  "chain": 143,
  "commit": "48c783c"
}