{
  "transactions": [
    {
      "hash": "0x3c17711b71ee60adec95bbc48867b8d91e3e4dd0f0ef5ba4a97af72062fa2a24",
      "transactionType": "CALL",
      "contractName": null,
      "contractAddress": "0xfdff3fd0994fed8be208a7bee49970ea9707e687",
      "function": "execTransaction(address,uint256,bytes,uint8,uint256,uint256,uint256,address,address,bytes)",
      "arguments": [
        "0xfE19A6a35E0dCFC66642feA197d69F4578576888",
        "0",
        "0xf2fde38b00000000000000000000000058099b74f4acd642da77b4b7966b4138ec5ba458",
        "0",
        "0",
        "0",
        "0",
        "0x0000000000000000000000000000000000000000",
        "0x0000000000000000000000000000000000000000",
        "0x1a75909252a64c197544c5aa2799c23021db56f01cf2d37a16b836cf5a7e6b95148d32b16592343db41fe8ced97b5328c2a06c7216612b02023fe622af0145f61c"
      ],
      "transaction": {
        "from": "0x2738f38fde510743e0c589415e0598c4cee6eaa7",
        "to": "0xfdff3fd0994fed8be208a7bee49970ea9707e687",
        "gas": "0x275ac",
        "value": "0x0",
        "input": "0x6a761202000000000000000000000000fe19a6a35e0dcfc66642fea197d69f45785768880000000000000000000000000000000000000000000000000000000000000000000000000000000000000000000000000000000000000000000000000000014000000000000000000000000000000000000000000000000000000000000000000000000000000000000000000000000000000000000000000000000000000000000000000000000000000000000000000000000000000000000000000000000000000000000000000000000000000000000000000000000000000000000000000000000000000000000000000000000000000000000000000000000000000000000000000000000000000000000000000000000000000000000000000000000000000000000000000000000000000000000000000000000000000000000001a00000000000000000000000000000000000000000000000000000000000000024f2fde38b00000000000000000000000058099b74f4acd642da77b4b7966b4138ec5ba4580000000000000000000000000000000000000000000000000000000000000000000000000000000000000000000000000000000000000000000000411a75909252a64c197544c5aa2799c23021db56f01cf2d37a16b836cf5a7e6b95148d32b16592343db41fe8ced97b5328c2a06c7216612b02023fe622af0145f61c00000000000000000000000000000000000000000000000000000000000000",
        "nonce": "0xdb",
        "chainId": "0x8f"
      },
      "additionalContracts": [],
      "isFixedGasLimit": false
    }
  ],
  "receipts": [
    {
      "type": "0x2",
      "status": "0x1",
      "cumulativeGasUsed": "0x75b48",
      "logs": [
        {
          "address": "0xfdff3fd0994fed8be208a7bee49970ea9707e687",
          "topics": [
            "0x66753cd2356569ee081232e3be8909b950e0a76c1f8460c3a5e3c2be32b11bed"
          ],
          "data": "0x000000000000000000000000fe19a6a35e0dcfc66642fea197d69f45785768880000000000000000000000000000000000000000000000000000000000000000000000000000000000000000000000000000000000000000000000000000016000000000000000000000000000000000000000000000000000000000000000000000000000000000000000000000000000000000000000000000000000000000000000000000000000000000000000000000000000000000000000000000000000000000000000000000000000000000000000000000000000000000000000000000000000000000000000000000000000000000000000000000000000000000000000000000000000000000000000000000000000000000000000000000000000000000000000000000000000000000000000000000000000000000000001c000000000000000000000000000000000000000000000000000000000000002400000000000000000000000000000000000000000000000000000000000000024f2fde38b00000000000000000000000058099b74f4acd642da77b4b7966b4138ec5ba4580000000000000000000000000000000000000000000000000000000000000000000000000000000000000000000000000000000000000000000000411a75909252a64c197544c5aa2799c23021db56f01cf2d37a16b836cf5a7e6b95148d32b16592343db41fe8ced97b5328c2a06c7216612b02023fe622af0145f61c00000000000000000000000000000000000000000000000000000000000000000000000000000000000000000000000000000000000000000000000000006000000000000000000000000000000000000000000000000000000000000000180000000000000000000000002738f38fde510743e0c589415e0598c4cee6eaa70000000000000000000000000000000000000000000000000000000000000001",
          "blockHash": "0x07d2498cd1e50997abcf4f756115a8c403155048b235d26ee7933dc5bcf7a54d",
          "blockNumber": "0x3a2a77e",
          "blockTimestamp": "0x69b3091c",
          "transactionHash": "0x3c17711b71ee60adec95bbc48867b8d91e3e4dd0f0ef5ba4a97af72062fa2a24",
          "transactionIndex": "0x3",
          "logIndex": "0x5",
          "removed": false
        },
        {
          "address": "0xfe19a6a35e0dcfc66642fea197d69f4578576888",
          "topics": [
            "0x8be0079c531659141344cd1fd0a4f28419497f9722a3daafe3b4186f6b6457e0",
            "0x000000000000000000000000fdff3fd0994fed8be208a7bee49970ea9707e687",
            "0x00000000000000000000000058099b74f4acd642da77b4b7966b4138ec5ba458"
          ],
          "data": "0x",
          "blockHash": "0x07d2498cd1e50997abcf4f756115a8c403155048b235d26ee7933dc5bcf7a54d",
          "blockNumber": "0x3a2a77e",
          "blockTimestamp": "0x69b3091c",
          "transactionHash": "0x3c17711b71ee60adec95bbc48867b8d91e3e4dd0f0ef5ba4a97af72062fa2a24",
          "transactionIndex": "0x3",
          "logIndex": "0x6",
          "removed": false
        },
        {
          "address": "0xfdff3fd0994fed8be208a7bee49970ea9707e687",
          "topics": [
            "0x442e715f626346e8c54381002da614f62bee8d27386535b2521ec8540898556e",
            "0x8c6cdc605d7aa500d811043d014e703b2e7eda83a5084fbe1d7961768bd36905"
          ],
          "data": "0x0000000000000000000000000000000000000000000000000000000000000000",
          "blockHash": "0x07d2498cd1e50997abcf4f756115a8c403155048b235d26ee7933dc5bcf7a54d",
          "blockNumber": "0x3a2a77e",
          "blockTimestamp": "0x69b3091c",
          "transactionHash": "0x3c17711b71ee60adec95bbc48867b8d91e3e4dd0f0ef5ba4a97af72062fa2a24",
          "transactionIndex": "0x3",
          "logIndex": "0x7",
          "removed": false
        }
      ],
      "logsBloom": "0x00000000400000000000200000800100000010000000000000800000040000000002000000000000000000000000000004000008000000000000000000000000000000000000000000000000000000000001040000000000000000000000000000000000000000000000010000000000000000040000000000000000000000400000000000000000000000000000000000000000000000000000000000000000004000000400000000000000000004000000000000000000000000000000000000000000000000000000000100020000000000000000000000000000000000000000010000000000000000000300000000000000000000000000000000040000",
      "transactionHash": "0x3c17711b71ee60adec95bbc48867b8d91e3e4dd0f0ef5ba4a97af72062fa2a24",
      "transactionIndex": "0x3",
      "blockHash": "0x07d2498cd1e50997abcf4f756115a8c403155048b235d26ee7933dc5bcf7a54d",
      "blockNumber": "0x3a2a77e",
      "gasUsed": "0x275ac",
      "effectiveGasPrice": "0x17fb474600",
      "from": "0x2738f38fde510743e0c589415e0598c4cee6eaa7",
      "to": "0xfdff3fd0994fed8be208a7bee49970ea9707e687",
      "contractAddress": null
    }
  ],
  "libraries": [
    "lib/mento-core/node_modules/@celo/contracts/common/linkedlists/AddressSortedLinkedListWithMedian.sol:AddressSortedLinkedListWithMedian:0x65052c55815F491094FD8F1D887d4B5C670abE3c",
    "lib/mento-stabletoken-ntt/evm/src/libraries/TransceiverStructs.sol:TransceiverStructs:0x7C2420401eB6bEB50501Fd5bc8b60DBfC2b0dEF0"
  ],
  "pending": [],
  "returns": {},
  "timestamp": 1773340958204,
  "chain": 143,
  "commit": "48c783c"
}