{
  "transactions": [
    {
      "hash": "0x817938496b29c28802d53ce35c8be56e2448b41c9d90d8888d0c35aef0e5c0d2",
      "transactionType": "CALL",
      "contractName": null,
      "contractAddress": "0xfdff3fd0994fed8be208a7bee49970ea9707e687",
      "function": "execTransaction(address,uint256,bytes,uint8,uint256,uint256,uint256,address,address,bytes)",
      "arguments": [
        "0x5e86369C605d72Cc294Bf85f79d0D18Cc8856132",
        "0",
        "0xf2fde38b00000000000000000000000058099b74f4acd642da77b4b7966b4138ec5ba458",
        "0",
        "0",
        "0",
        "0",
        "0x0000000000000000000000000000000000000000",
        "0x0000000000000000000000000000000000000000",
        "0x7f7562f7b3c19e4287a557c1ee9037f4e084a96f8d5d9f87c264aa67a2a85f3208ba26d79fe04ad1821f71c87c227c208e6709c94eee12c5655b4cde588dc2da1c"
      ],
      "transaction": {
        "from": "0x2738f38fde510743e0c589415e0598c4cee6eaa7",
        "to": "0xfdff3fd0994fed8be208a7bee49970ea9707e687",
        "gas": "0x275ac",
        "value": "0x0",
        "input": "0x6a7612020000000000000000000000005e86369c605d72cc294bf85f79d0d18cc88561320000000000000000000000000000000000000000000000000000000000000000000000000000000000000000000000000000000000000000000000000000014000000000000000000000000000000000000000000000000000000000000000000000000000000000000000000000000000000000000000000000000000000000000000000000000000000000000000000000000000000000000000000000000000000000000000000000000000000000000000000000000000000000000000000000000000000000000000000000000000000000000000000000000000000000000000000000000000000000000000000000000000000000000000000000000000000000000000000000000000000000000000000000000000000000000001a00000000000000000000000000000000000000000000000000000000000000024f2fde38b00000000000000000000000058099b74f4acd642da77b4b7966b4138ec5ba4580000000000000000000000000000000000000000000000000000000000000000000000000000000000000000000000000000000000000000000000417f7562f7b3c19e4287a557c1ee9037f4e084a96f8d5d9f87c264aa67a2a85f3208ba26d79fe04ad1821f71c87c227c208e6709c94eee12c5655b4cde588dc2da1c00000000000000000000000000000000000000000000000000000000000000",
        "nonce": "0xd6",
        "chainId": "0x8f"
      },
      "additionalContracts": [],
      "isFixedGasLimit": false
    }
  ],
  "receipts": [
    {
      "type": "0x2",
      "status": "0x1",
      "cumulativeGasUsed": "0x306165",
      "logs": [
        {
          "address": "0xfdff3fd0994fed8be208a7bee49970ea9707e687",
          "topics": [
            "0x66753cd2356569ee081232e3be8909b950e0a76c1f8460c3a5e3c2be32b11bed"
          ],
          "data": "0x0000000000000000000000005e86369c605d72cc294bf85f79d0d18cc88561320000000000000000000000000000000000000000000000000000000000000000000000000000000000000000000000000000000000000000000000000000016000000000000000000000000000000000000000000000000000000000000000000000000000000000000000000000000000000000000000000000000000000000000000000000000000000000000000000000000000000000000000000000000000000000000000000000000000000000000000000000000000000000000000000000000000000000000000000000000000000000000000000000000000000000000000000000000000000000000000000000000000000000000000000000000000000000000000000000000000000000000000000000000000000000000001c000000000000000000000000000000000000000000000000000000000000002400000000000000000000000000000000000000000000000000000000000000024f2fde38b00000000000000000000000058099b74f4acd642da77b4b7966b4138ec5ba4580000000000000000000000000000000000000000000000000000000000000000000000000000000000000000000000000000000000000000000000417f7562f7b3c19e4287a557c1ee9037f4e084a96f8d5d9f87c264aa67a2a85f3208ba26d79fe04ad1821f71c87c227c208e6709c94eee12c5655b4cde588dc2da1c00000000000000000000000000000000000000000000000000000000000000000000000000000000000000000000000000000000000000000000000000006000000000000000000000000000000000000000000000000000000000000000130000000000000000000000002738f38fde510743e0c589415e0598c4cee6eaa70000000000000000000000000000000000000000000000000000000000000001",
          "blockHash": "0x794bdd2fff68c7639aebd867aa101f1093986759839f0b13a585bf4039f94099",
          "blockNumber": "0x3a2a723",
          "blockTimestamp": "0x69b308f8",
          "transactionHash": "0x817938496b29c28802d53ce35c8be56e2448b41c9d90d8888d0c35aef0e5c0d2",
          "transactionIndex": "0x5",
          "logIndex": "0x20",
          "removed": false
        },
        {
          "address": "0x5e86369c605d72cc294bf85f79d0d18cc8856132",
          "topics": [
            "0x8be0079c531659141344cd1fd0a4f28419497f9722a3daafe3b4186f6b6457e0",
            "0x000000000000000000000000fdff3fd0994fed8be208a7bee49970ea9707e687",
            "0x00000000000000000000000058099b74f4acd642da77b4b7966b4138ec5ba458"
          ],
          "data": "0x",
          "blockHash": "0x794bdd2fff68c7639aebd867aa101f1093986759839f0b13a585bf4039f94099",
          "blockNumber": "0x3a2a723",
          "blockTimestamp": "0x69b308f8",
          "transactionHash": "0x817938496b29c28802d53ce35c8be56e2448b41c9d90d8888d0c35aef0e5c0d2",
          "transactionIndex": "0x5",
          "logIndex": "0x21",
          "removed": false
        },
        {
          "address": "0xfdff3fd0994fed8be208a7bee49970ea9707e687",
          "topics": [
            "0x442e715f626346e8c54381002da614f62bee8d27386535b2521ec8540898556e",
            "0x4f8f6f3fd1c33173ca11b0c8443ba9e9f4e2964e27656728d32b3b92f5fdde41"
          ],
          "data": "0x0000000000000000000000000000000000000000000000000000000000000000",
          "blockHash": "0x794bdd2fff68c7639aebd867aa101f1093986759839f0b13a585bf4039f94099",
          "blockNumber": "0x3a2a723",
          "blockTimestamp": "0x69b308f8",
          "transactionHash": "0x817938496b29c28802d53ce35c8be56e2448b41c9d90d8888d0c35aef0e5c0d2",
          "transactionIndex": "0x5",
          "logIndex": "0x22",
          "removed": false
        }
      ],
      "logsBloom": "0x00000000400000000000000000800100000010000000000000800000040000000000000000000000000000000000000000400008000000000000000000000001000000000000000000000000000000000001040080000000000000000000000000000000000000000000010000000000000000000000000100000000000000400000000000000000000000000000100000000000000000000000000000000000004000000400000000000000000004000000000000000000000000000000000000000000000000000000000000020000000000000000000000000000000000000000002000000000000000000300000000000000000000000000000000040000",
      "transactionHash": "0x817938496b29c28802d53ce35c8be56e2448b41c9d90d8888d0c35aef0e5c0d2",
      "transactionIndex": "0x5",
      "blockHash": "0x794bdd2fff68c7639aebd867aa101f1093986759839f0b13a585bf4039f94099",
      "blockNumber": "0x3a2a723",
      "gasUsed": "0x275ac",
      "effectiveGasPrice": "0x17fb474600",
      "from": "0x2738f38fde510743e0c589415e0598c4cee6eaa7",
      "to": "0xfdff3fd0994fed8be208a7bee49970ea9707e687",
      "contractAddress": null
    }
  ],
  "libraries": [
    "lib/mento-core/node_modules/@celo/contracts/common/linkedlists/AddressSortedLinkedListWithMedian.sol:AddressSortedLinkedListWithMedian:0x65052c55815F491094FD8F1D887d4B5C670abE3c",
    "lib/mento-stabletoken-ntt/evm/src/libraries/TransceiverStructs.sol:TransceiverStructs:0x7C2420401eB6bEB50501Fd5bc8b60DBfC2b0dEF0"
  ],
  "pending": [],
  "returns": {},
  "timestamp": 1773340921852,
  "chain": 143,
  "commit": "48c783c"
}