{
  "transactions": [
    {
      "hash": "0xedf3012a0f60aa0799735136a2d96f10536642eb822d6538fd0622a3f4a097ae",
      "transactionType": "CALL",
      "contractName": null,
      "contractAddress": "0xfdff3fd0994fed8be208a7bee49970ea9707e687",
      "function": "execTransaction(address,uint256,bytes,uint8,uint256,uint256,uint256,address,address,bytes)",
      "arguments": [
        "0x30FCd4fd891f7dE98606bF97cB8654f7bA33C4e7",
        "0",
        "0xf2fde38b00000000000000000000000058099b74f4acd642da77b4b7966b4138ec5ba458",
        "0",
        "0",
        "0",
        "0",
        "0x0000000000000000000000000000000000000000",
        "0x0000000000000000000000000000000000000000",
        "0x4198739846025450dd5389d59da762bde9aa001d8f39d884030c1bbd1627a2ff3d306188e3a2abd143b9d85e6fab39d16a3df294c6ca49574f40e0e83a08a8da1c"
      ],
      "transaction": {
        "from": "0x2738f38fde510743e0c589415e0598c4cee6eaa7",
        "to": "0xfdff3fd0994fed8be208a7bee49970ea9707e687",
        "gas": "0x2759c",
        "value": "0x0",
        "input": "0x6a76120200000000000000000000000030fcd4fd891f7de98606bf97cb8654f7ba33c4e70000000000000000000000000000000000000000000000000000000000000000000000000000000000000000000000000000000000000000000000000000014000000000000000000000000000000000000000000000000000000000000000000000000000000000000000000000000000000000000000000000000000000000000000000000000000000000000000000000000000000000000000000000000000000000000000000000000000000000000000000000000000000000000000000000000000000000000000000000000000000000000000000000000000000000000000000000000000000000000000000000000000000000000000000000000000000000000000000000000000000000000000000000000000000000000001a00000000000000000000000000000000000000000000000000000000000000024f2fde38b00000000000000000000000058099b74f4acd642da77b4b7966b4138ec5ba4580000000000000000000000000000000000000000000000000000000000000000000000000000000000000000000000000000000000000000000000414198739846025450dd5389d59da762bde9aa001d8f39d884030c1bbd1627a2ff3d306188e3a2abd143b9d85e6fab39d16a3df294c6ca49574f40e0e83a08a8da1c00000000000000000000000000000000000000000000000000000000000000",
        "nonce": "0xd9",
        "chainId": "0x8f"
      },
      "additionalContracts": [],
      "isFixedGasLimit": false
    }
  ],
  "receipts": [
    {
      "type": "0x2",
      "status": "0x1",
      "cumulativeGasUsed": "0xaaf1a",
      "logs": [
        {
          "address": "0xfdff3fd0994fed8be208a7bee49970ea9707e687",
          "topics": [
            "0x66753cd2356569ee081232e3be8909b950e0a76c1f8460c3a5e3c2be32b11bed"
          ],
          "data": "0x00000000000000000000000030fcd4fd891f7de98606bf97cb8654f7ba33c4e70000000000000000000000000000000000000000000000000000000000000000000000000000000000000000000000000000000000000000000000000000016000000000000000000000000000000000000000000000000000000000000000000000000000000000000000000000000000000000000000000000000000000000000000000000000000000000000000000000000000000000000000000000000000000000000000000000000000000000000000000000000000000000000000000000000000000000000000000000000000000000000000000000000000000000000000000000000000000000000000000000000000000000000000000000000000000000000000000000000000000000000000000000000000000000000001c000000000000000000000000000000000000000000000000000000000000002400000000000000000000000000000000000000000000000000000000000000024f2fde38b00000000000000000000000058099b74f4acd642da77b4b7966b4138ec5ba4580000000000000000000000000000000000000000000000000000000000000000000000000000000000000000000000000000000000000000000000414198739846025450dd5389d59da762bde9aa001d8f39d884030c1bbd1627a2ff3d306188e3a2abd143b9d85e6fab39d16a3df294c6ca49574f40e0e83a08a8da1c00000000000000000000000000000000000000000000000000000000000000000000000000000000000000000000000000000000000000000000000000006000000000000000000000000000000000000000000000000000000000000000160000000000000000000000002738f38fde510743e0c589415e0598c4cee6eaa70000000000000000000000000000000000000000000000000000000000000001",
          "blockHash": "0x7e857aff6f81763037cbb6ea60bb44c598be5f51e183fda5fa918e1fb7e8fa8c",
          "blockNumber": "0x3a2a75a",
          "blockTimestamp": "0x69b3090e",
          "transactionHash": "0xedf3012a0f60aa0799735136a2d96f10536642eb822d6538fd0622a3f4a097ae",
          "transactionIndex": "0x3",
          "logIndex": "0x8",
          "removed": false
        },
        {
          "address": "0x30fcd4fd891f7de98606bf97cb8654f7ba33c4e7",
          "topics": [
            "0x8be0079c531659141344cd1fd0a4f28419497f9722a3daafe3b4186f6b6457e0",
            "0x000000000000000000000000fdff3fd0994fed8be208a7bee49970ea9707e687",
            "0x00000000000000000000000058099b74f4acd642da77b4b7966b4138ec5ba458"
          ],
          "data": "0x",
          "blockHash": "0x7e857aff6f81763037cbb6ea60bb44c598be5f51e183fda5fa918e1fb7e8fa8c",
          "blockNumber": "0x3a2a75a",
          "blockTimestamp": "0x69b3090e",
          "transactionHash": "0xedf3012a0f60aa0799735136a2d96f10536642eb822d6538fd0622a3f4a097ae",
          "transactionIndex": "0x3",
          "logIndex": "0x9",
          "removed": false
        },
        {
          "address": "0xfdff3fd0994fed8be208a7bee49970ea9707e687",
          "topics": [
            "0x442e715f626346e8c54381002da614f62bee8d27386535b2521ec8540898556e",
            "0xf4e78bb9e970e842f3a984b8a73f253cb1b720c24bae5153d35aafead1d5ee76"
          ],
          "data": "0x0000000000000000000000000000000000000000000000000000000000000000",
          "blockHash": "0x7e857aff6f81763037cbb6ea60bb44c598be5f51e183fda5fa918e1fb7e8fa8c",
          "blockNumber": "0x3a2a75a",
          "blockTimestamp": "0x69b3090e",
          "transactionHash": "0xedf3012a0f60aa0799735136a2d96f10536642eb822d6538fd0622a3f4a097ae",
          "transactionIndex": "0x3",
          "logIndex": "0xa",
          "removed": false
        }
      ],
      "logsBloom": "0x00000000400000000000000000800100000010000000000000800200040000000000000000000000000000000000000000000008000000000000000000080000000000000000000000000000000000000021040000000000000000000000000000000000000000000000010000000000000000000000000000020000000000400000000000000000000000000000000000000000000000000000000000000000004000000400000000000800000044000000000000000000000000000000000000000000000000000000000000020000000000000000000000000000000000000000000000000000000000000300000000000000000000000000000000040000",
      "transactionHash": "0xedf3012a0f60aa0799735136a2d96f10536642eb822d6538fd0622a3f4a097ae",
      "transactionIndex": "0x3",
      "blockHash": "0x7e857aff6f81763037cbb6ea60bb44c598be5f51e183fda5fa918e1fb7e8fa8c",
      "blockNumber": "0x3a2a75a",
      "gasUsed": "0x2759c",
      "effectiveGasPrice": "0x17fb474600",
      "from": "0x2738f38fde510743e0c589415e0598c4cee6eaa7",
      "to": "0xfdff3fd0994fed8be208a7bee49970ea9707e687",
      "contractAddress": null
    }
  ],
  "libraries": [
    "lib/mento-core/node_modules/@celo/contracts/common/linkedlists/AddressSortedLinkedListWithMedian.sol:AddressSortedLinkedListWithMedian:0x65052c55815F491094FD8F1D887d4B5C670abE3c",
    "lib/mento-stabletoken-ntt/evm/src/libraries/TransceiverStructs.sol:TransceiverStructs:0x7C2420401eB6bEB50501Fd5bc8b60DBfC2b0dEF0"
  ],
  "pending": [],
  "returns": {},
  "timestamp": 1773340943856,
  "chain": 143,
  "commit": "48c783c"
}