{
  "transactions": [
    {
      "hash": "0x1ad5933f0fc59faac70fae5ce09601f2d9e6fc83bdb7d1d7dc2c1093fd5147d7",
      "transactionType": "CALL",
      "contractName": null,
      "contractAddress": "0xfdff3fd0994fed8be208a7bee49970ea9707e687",
      "function": "execTransaction(address,uint256,bytes,uint8,uint256,uint256,uint256,address,address,bytes)",
      "arguments": [
        "0x363b8CEf44f88cE7B41B8576FC493A3c5946951F",
        "0",
        "0xf2fde38b00000000000000000000000058099b74f4acd642da77b4b7966b4138ec5ba458",
        "0",
        "0",
        "0",
        "0",
        "0x0000000000000000000000000000000000000000",
        "0x0000000000000000000000000000000000000000",
        "0xedf343c93a8db41ffea83cc2d6d2ddcd6da4d0708f88e54093582ed0bcdea94d5a40f701fc95dd0734da64f70371561874ad836d0dca285f425f302cc8aeec811c"
      ],
      "transaction": {
        "from": "0x2738f38fde510743e0c589415e0598c4cee6eaa7",
        "to": "0xfdff3fd0994fed8be208a7bee49970ea9707e687",
        "gas": "0x275ac",
        "value": "0x0",
        "input": "0x6a761202000000000000000000000000363b8cef44f88ce7b41b8576fc493a3c5946951f0000000000000000000000000000000000000000000000000000000000000000000000000000000000000000000000000000000000000000000000000000014000000000000000000000000000000000000000000000000000000000000000000000000000000000000000000000000000000000000000000000000000000000000000000000000000000000000000000000000000000000000000000000000000000000000000000000000000000000000000000000000000000000000000000000000000000000000000000000000000000000000000000000000000000000000000000000000000000000000000000000000000000000000000000000000000000000000000000000000000000000000000000000000000000000000001a00000000000000000000000000000000000000000000000000000000000000024f2fde38b00000000000000000000000058099b74f4acd642da77b4b7966b4138ec5ba458000000000000000000000000000000000000000000000000000000000000000000000000000000000000000000000000000000000000000000000041edf343c93a8db41ffea83cc2d6d2ddcd6da4d0708f88e54093582ed0bcdea94d5a40f701fc95dd0734da64f70371561874ad836d0dca285f425f302cc8aeec811c00000000000000000000000000000000000000000000000000000000000000",
        "nonce": "0xda",
        "chainId": "0x8f"
      },
      "additionalContracts": [],
      "isFixedGasLimit": false
    }
  ],
  "receipts": [
    {
      "type": "0x2",
      "status": "0x1",
      "cumulativeGasUsed": "0xb2f84",
      "logs": [
        {
          "address": "0xfdff3fd0994fed8be208a7bee49970ea9707e687",
          "topics": [
            "0x66753cd2356569ee081232e3be8909b950e0a76c1f8460c3a5e3c2be32b11bed"
          ],
          "data": "0x000000000000000000000000363b8cef44f88ce7b41b8576fc493a3c5946951f0000000000000000000000000000000000000000000000000000000000000000000000000000000000000000000000000000000000000000000000000000016000000000000000000000000000000000000000000000000000000000000000000000000000000000000000000000000000000000000000000000000000000000000000000000000000000000000000000000000000000000000000000000000000000000000000000000000000000000000000000000000000000000000000000000000000000000000000000000000000000000000000000000000000000000000000000000000000000000000000000000000000000000000000000000000000000000000000000000000000000000000000000000000000000000000001c000000000000000000000000000000000000000000000000000000000000002400000000000000000000000000000000000000000000000000000000000000024f2fde38b00000000000000000000000058099b74f4acd642da77b4b7966b4138ec5ba458000000000000000000000000000000000000000000000000000000000000000000000000000000000000000000000000000000000000000000000041edf343c93a8db41ffea83cc2d6d2ddcd6da4d0708f88e54093582ed0bcdea94d5a40f701fc95dd0734da64f70371561874ad836d0dca285f425f302cc8aeec811c00000000000000000000000000000000000000000000000000000000000000000000000000000000000000000000000000000000000000000000000000006000000000000000000000000000000000000000000000000000000000000000170000000000000000000000002738f38fde510743e0c589415e0598c4cee6eaa70000000000000000000000000000000000000000000000000000000000000001",
          "blockHash": "0x681e94fcf5d3bb31b6b0085ce84f93ebae0cb2e221d487e0cac07cc65db2be06",
          "blockNumber": "0x3a2a76d",
          "blockTimestamp": "0x69b30915",
          "transactionHash": "0x1ad5933f0fc59faac70fae5ce09601f2d9e6fc83bdb7d1d7dc2c1093fd5147d7",
          "transactionIndex": "0x3",
          "logIndex": "0x9",
          "removed": false
        },
        {
          "address": "0x363b8cef44f88ce7b41b8576fc493a3c5946951f",
          "topics": [
            "0x8be0079c531659141344cd1fd0a4f28419497f9722a3daafe3b4186f6b6457e0",
            "0x000000000000000000000000fdff3fd0994fed8be208a7bee49970ea9707e687",
            "0x00000000000000000000000058099b74f4acd642da77b4b7966b4138ec5ba458"
          ],
          "data": "0x",
          "blockHash": "0x681e94fcf5d3bb31b6b0085ce84f93ebae0cb2e221d487e0cac07cc65db2be06",
          "blockNumber": "0x3a2a76d",
          "blockTimestamp": "0x69b30915",
          "transactionHash": "0x1ad5933f0fc59faac70fae5ce09601f2d9e6fc83bdb7d1d7dc2c1093fd5147d7",
          "transactionIndex": "0x3",
          "logIndex": "0xa",
          "removed": false
        },
        {
          "address": "0xfdff3fd0994fed8be208a7bee49970ea9707e687",
          "topics": [
            "0x442e715f626346e8c54381002da614f62bee8d27386535b2521ec8540898556e",
            "0x71ec134dab5d89697d336a45d18594661cc88b301c1567ab87494eed770cfdc2"
          ],
          "data": "0x0000000000000000000000000000000000000000000000000000000000000000",
          "blockHash": "0x681e94fcf5d3bb31b6b0085ce84f93ebae0cb2e221d487e0cac07cc65db2be06",
          "blockNumber": "0x3a2a76d",
          "blockTimestamp": "0x69b30915",
          "transactionHash": "0x1ad5933f0fc59faac70fae5ce09601f2d9e6fc83bdb7d1d7dc2c1093fd5147d7",
          "transactionIndex": "0x3",
          "logIndex": "0xb",
          "removed": false
        }
      ],
      "logsBloom": "0x00000000400000000000000000800100000010000000000000800000040000000000000000000000000000000000000000000008000000000000000000000000000000040000000000000000000000000001040000000000000000000000000000000000000000000000010000000000000000000000040000000000000000400000000000000000000000000000000000000000000000000000000000020000005000000400000000000000000004000000000000000000000000000000000000000000000000000000000000020000020000000000000000000000000000000008000000000000000000000300000000000000000000000000000000040000",
      "transactionHash": "0x1ad5933f0fc59faac70fae5ce09601f2d9e6fc83bdb7d1d7dc2c1093fd5147d7",
      "transactionIndex": "0x3",
      "blockHash": "0x681e94fcf5d3bb31b6b0085ce84f93ebae0cb2e221d487e0cac07cc65db2be06",
      "blockNumber": "0x3a2a76d",
      "gasUsed": "0x275ac",
      "effectiveGasPrice": "0x17fb474600",
      "from": "0x2738f38fde510743e0c589415e0598c4cee6eaa7",
      "to": "0xfdff3fd0994fed8be208a7bee49970ea9707e687",
      "contractAddress": null
    }
  ],
  "libraries": [
    "lib/mento-core/node_modules/@celo/contracts/common/linkedlists/AddressSortedLinkedListWithMedian.sol:AddressSortedLinkedListWithMedian:0x65052c55815F491094FD8F1D887d4B5C670abE3c",
    "lib/mento-stabletoken-ntt/evm/src/libraries/TransceiverStructs.sol:TransceiverStructs:0x7C2420401eB6bEB50501Fd5bc8b60DBfC2b0dEF0"
  ],
  "pending": [],
  "returns": {},
  "timestamp": 1773340951244,
  "chain": 143,
  "commit": "48c783c"
}