{
  "transactions": [
    {
      "hash": "0x01d50125181526e84554088b2701914b24143864b7de3fe1fbd594bde787d8f1",
      "transactionType": "CALL",
      "contractName": null,
      "contractAddress": "0xfdff3fd0994fed8be208a7bee49970ea9707e687",
      "function": "execTransaction(address,uint256,bytes,uint8,uint256,uint256,uint256,address,address,bytes)",
      "arguments": [
        "0x04D23Eb7185bd1C45A2545a6311898D724910ce2",
        "0",
        "0xf2fde38b00000000000000000000000058099b74f4acd642da77b4b7966b4138ec5ba458",
        "0",
        "0",
        "0",
        "0",
        "0x0000000000000000000000000000000000000000",
        "0x0000000000000000000000000000000000000000",
        "0xe68f8cd1a5448d57b2964e1efadcd05f88971248e2fb2ea08ce5d31c62eb3c4e2bd67ca787a84e64d0b47d3f22138cc990d4f7e790906221179d045b74ff50971c"
      ],
      "transaction": {
        "from": "0x2738f38fde510743e0c589415e0598c4cee6eaa7",
        "to": "0xfdff3fd0994fed8be208a7bee49970ea9707e687",
        "gas": "0x275ac",
        "value": "0x0",
        "input": "0x6a76120200000000000000000000000004d23eb7185bd1c45a2545a6311898d724910ce20000000000000000000000000000000000000000000000000000000000000000000000000000000000000000000000000000000000000000000000000000014000000000000000000000000000000000000000000000000000000000000000000000000000000000000000000000000000000000000000000000000000000000000000000000000000000000000000000000000000000000000000000000000000000000000000000000000000000000000000000000000000000000000000000000000000000000000000000000000000000000000000000000000000000000000000000000000000000000000000000000000000000000000000000000000000000000000000000000000000000000000000000000000000000000000001a00000000000000000000000000000000000000000000000000000000000000024f2fde38b00000000000000000000000058099b74f4acd642da77b4b7966b4138ec5ba458000000000000000000000000000000000000000000000000000000000000000000000000000000000000000000000000000000000000000000000041e68f8cd1a5448d57b2964e1efadcd05f88971248e2fb2ea08ce5d31c62eb3c4e2bd67ca787a84e64d0b47d3f22138cc990d4f7e790906221179d045b74ff50971c00000000000000000000000000000000000000000000000000000000000000",
        "nonce": "0xd4",
        "chainId": "0x8f"
      },
      "additionalContracts": [],
      "isFixedGasLimit": false
    }
  ],
  "receipts": [
    {
      "type": "0x2",
      "status": "0x1",
      "cumulativeGasUsed": "0x275ac",
      "logs": [
        {
          "address": "0xfdff3fd0994fed8be208a7bee49970ea9707e687",
          "topics": [
            "0x66753cd2356569ee081232e3be8909b950e0a76c1f8460c3a5e3c2be32b11bed"
          ],
          "data": "0x00000000000000000000000004d23eb7185bd1c45a2545a6311898d724910ce20000000000000000000000000000000000000000000000000000000000000000000000000000000000000000000000000000000000000000000000000000016000000000000000000000000000000000000000000000000000000000000000000000000000000000000000000000000000000000000000000000000000000000000000000000000000000000000000000000000000000000000000000000000000000000000000000000000000000000000000000000000000000000000000000000000000000000000000000000000000000000000000000000000000000000000000000000000000000000000000000000000000000000000000000000000000000000000000000000000000000000000000000000000000000000000001c000000000000000000000000000000000000000000000000000000000000002400000000000000000000000000000000000000000000000000000000000000024f2fde38b00000000000000000000000058099b74f4acd642da77b4b7966b4138ec5ba458000000000000000000000000000000000000000000000000000000000000000000000000000000000000000000000000000000000000000000000041e68f8cd1a5448d57b2964e1efadcd05f88971248e2fb2ea08ce5d31c62eb3c4e2bd67ca787a84e64d0b47d3f22138cc990d4f7e790906221179d045b74ff50971c00000000000000000000000000000000000000000000000000000000000000000000000000000000000000000000000000000000000000000000000000006000000000000000000000000000000000000000000000000000000000000000110000000000000000000000002738f38fde510743e0c589415e0598c4cee6eaa70000000000000000000000000000000000000000000000000000000000000001",
          "blockHash": "0x894c4b3f669e6e9eefeb8b38bd50b3647f552042b0190eb641280c3d7fb0382a",
          "blockNumber": "0x3a2a700",
          "blockTimestamp": "0x69b308e9",
          "transactionHash": "0x01d50125181526e84554088b2701914b24143864b7de3fe1fbd594bde787d8f1",
          "transactionIndex": "0x1",
          "logIndex": "0x1",
          "removed": false
        },
        {
          "address": "0x04d23eb7185bd1c45a2545a6311898d724910ce2",
          "topics": [
            "0x8be0079c531659141344cd1fd0a4f28419497f9722a3daafe3b4186f6b6457e0",
            "0x000000000000000000000000fdff3fd0994fed8be208a7bee49970ea9707e687",
            "0x00000000000000000000000058099b74f4acd642da77b4b7966b4138ec5ba458"
          ],
          "data": "0x",
          "blockHash": "0x894c4b3f669e6e9eefeb8b38bd50b3647f552042b0190eb641280c3d7fb0382a",
          "blockNumber": "0x3a2a700",
          "blockTimestamp": "0x69b308e9",
          "transactionHash": "0x01d50125181526e84554088b2701914b24143864b7de3fe1fbd594bde787d8f1",
          "transactionIndex": "0x1",
          "logIndex": "0x2",
          "removed": false
        },
        {
          "address": "0xfdff3fd0994fed8be208a7bee49970ea9707e687",
          "topics": [
            "0x442e715f626346e8c54381002da614f62bee8d27386535b2521ec8540898556e",
            "0x594615fa75953a03c97742175580fa07da27f1bf00533806249c619440d0c21f"
          ],
          "data": "0x0000000000000000000000000000000000000000000000000000000000000000",
          "blockHash": "0x894c4b3f669e6e9eefeb8b38bd50b3647f552042b0190eb641280c3d7fb0382a",
          "blockNumber": "0x3a2a700",
          "blockTimestamp": "0x69b308e9",
          "transactionHash": "0x01d50125181526e84554088b2701914b24143864b7de3fe1fbd594bde787d8f1",
          "transactionIndex": "0x1",
          "logIndex": "0x3",
          "removed": false
        }
      ],
      "logsBloom": "0x00000000400000000000000000900100000010000000000000800000040000000000000000000000000000000000000000000008000000000000000000000000000000000000000000000000000000000001040000000000000000000000000000000000000000000000010000000000000000000000000000000000000000400000000000000000000000000000000000000000000000000000000000000000004000000400000000000000000004000000000000010000010000000000000000000000000000000000002000020004000000000000000000000000000000000000000000000000000000000300000000000000000000000000000002040000",
      "transactionHash": "0x01d50125181526e84554088b2701914b24143864b7de3fe1fbd594bde787d8f1",
      "transactionIndex": "0x1",
      "blockHash": "0x894c4b3f669e6e9eefeb8b38bd50b3647f552042b0190eb641280c3d7fb0382a",
      "blockNumber": "0x3a2a700",
      "gasUsed": "0x275ac",
      "effectiveGasPrice": "0x17fb474600",
      "from": "0x2738f38fde510743e0c589415e0598c4cee6eaa7",
      "to": "0xfdff3fd0994fed8be208a7bee49970ea9707e687",
      "contractAddress": null
    }
  ],
  "libraries": [
    "lib/mento-core/node_modules/@celo/contracts/common/linkedlists/AddressSortedLinkedListWithMedian.sol:AddressSortedLinkedListWithMedian:0x65052c55815F491094FD8F1D887d4B5C670abE3c",
    "lib/mento-stabletoken-ntt/evm/src/libraries/TransceiverStructs.sol:TransceiverStructs:0x7C2420401eB6bEB50501Fd5bc8b60DBfC2b0dEF0"
  ],
  "pending": [],
  "returns": {},
  "timestamp": 1773340907466,
  "chain": 143,
  "commit": "48c783c"
}