{
  "transactions": [
    {
      "hash": "0x511198e5a22e604d312ff34e1dd6889501d5bd5a4caed77ad4542ab331c2b9d0",
      "transactionType": "CALL",
      "contractName": null,
      "contractAddress": "0x938c5ad8c25259f581d09175eb8ab662ef2d86da",
      "function": "report(int256,uint256)",
      "arguments": [
        "99982000",
        "1756997335"
      ],
      "transaction": {
        "from": "0xabcde369cddd1665e4ebd9214b8e9a595271272c",
        "to": "0x938c5ad8c25259f581d09175eb8ab662ef2d86da",
        "gas": "0xc220",
        "value": "0x0",
        "input": "0x0f3d249d0000000000000000000000000000000000000000000000000000000005f59ab00000000000000000000000000000000000000000000000000000000068b9a6d7",
        "nonce": "0x48",
        "chainId": "0xaa044c"
      },
      "additionalContracts": [],
      "isFixedGasLimit": false
    },
    {
      "hash": "0x514aad755d90b46a68bda8458a35c75ea704decd43eb2eb6dec0df8c8af8cd41",
      "transactionType": "CALL",
      "contractName": null,
      "contractAddress": "0xc28486a83b7f57e556f710b6d1e603c02d42c202",
      "function": "report(int256,uint256)",
      "arguments": [
        "100012750",
        "1756997269"
      ],
      "transaction": {
        "from": "0xabcde369cddd1665e4ebd9214b8e9a595271272c",
        "to": "0xc28486a83b7f57e556f710b6d1e603c02d42c202",
        "gas": "0xc220",
        "value": "0x0",
        "input": "0x0f3d249d0000000000000000000000000000000000000000000000000000000005f612ce0000000000000000000000000000000000000000000000000000000068b9a695",
        "nonce": "0x49",
        "chainId": "0xaa044c"
      },
      "additionalContracts": [],
      "isFixedGasLimit": false
    },
    {
      "hash": "0xddd05d272fba4197d65565ad79deff63572d137ddd2e56d3c524aa7ed500c199",
      "transactionType": "CALL",
      "contractName": null,
      "contractAddress": "0xd06068261abda6014666ad24c4d0fbe5eeba610f",
      "function": "report(int256,uint256)",
      "arguments": [
        "116397954",
        "1756997369"
      ],
      "transaction": {
        "from": "0xabcde369cddd1665e4ebd9214b8e9a595271272c",
        "to": "0xd06068261abda6014666ad24c4d0fbe5eeba610f",
        "gas": "0xc220",
        "value": "0x0",
        "input": "0x0f3d249d0000000000000000000000000000000000000000000000000000000006f017820000000000000000000000000000000000000000000000000000000068b9a6f9",
        "nonce": "0x4a",
        "chainId": "0xaa044c"
      },
      "additionalContracts": [],
      "isFixedGasLimit": false
    },
    {
      "hash": "0x98a47f83a63932156c6e1f1b6646360cb04b645b196792a4f014bcb4adc94e73",
      "transactionType": "CALL",
      "contractName": null,
      "contractAddress": "0x53637ee07fa3c04eb12a2aaa632c06a657178ebc",
      "function": "report(int256,uint256)",
      "arguments": [
        "28972592",
        "1756997320"
      ],
      "transaction": {
        "from": "0xabcde369cddd1665e4ebd9214b8e9a595271272c",
        "to": "0x53637ee07fa3c04eb12a2aaa632c06a657178ebc",
        "gas": "0xc220",
        "value": "0x0",
        "input": "0x0f3d249d0000000000000000000000000000000000000000000000000000000001ba16300000000000000000000000000000000000000000000000000000000068b9a6c8",
        "nonce": "0x4b",
        "chainId": "0xaa044c"
      },
      "additionalContracts": [],
      "isFixedGasLimit": false
    },
    {
      "hash": "0x794c0b6ae25a571a5ca1b946dd8e085dc117d71c5e6901080a9823211b4f15c6",
      "transactionType": "CALL",
      "contractName": null,
      "contractAddress": "0xa3976ebf31f404d6ae5741727e28ef04c54705bc",
      "function": "report(int256,uint256)",
      "arguments": [
        "116397954",
        "1756997369"
      ],
      "transaction": {
        "from": "0xabcde369cddd1665e4ebd9214b8e9a595271272c",
        "to": "0xa3976ebf31f404d6ae5741727e28ef04c54705bc",
        "gas": "0xc220",
        "value": "0x0",
        "input": "0x0f3d249d0000000000000000000000000000000000000000000000000000000006f017820000000000000000000000000000000000000000000000000000000068b9a6f9",
        "nonce": "0x4c",
        "chainId": "0xaa044c"
      },
      "additionalContracts": [],
      "isFixedGasLimit": false
    },
    {
      "hash": "0x6941140cafc23cc24f33e33c4f58eb45f9d561d5430bb6db3c8e772eabbd8b20",
      "transactionType": "CALL",
      "contractName": null,
      "contractAddress": "0x970be29cd19a3fb5941f7bb63d4fd9c9f2bed570",
      "function": "report(int256,uint256)",
      "arguments": [
        "18308311",
        "1756997423"
      ],
      "transaction": {
        "from": "0xabcde369cddd1665e4ebd9214b8e9a595271272c",
        "to": "0x970be29cd19a3fb5941f7bb63d4fd9c9f2bed570",
        "gas": "0xc220",
        "value": "0x0",
        "input": "0x0f3d249d0000000000000000000000000000000000000000000000000000000001175cd70000000000000000000000000000000000000000000000000000000068b9a72f",
        "nonce": "0x4d",
        "chainId": "0xaa044c"
      },
      "additionalContracts": [],
      "isFixedGasLimit": false
    },
    {
      "hash": "0x1c922e4189ce4ab30df8afd2d15d4e263cdec83e774d9b0475829f64ae018108",
      "transactionType": "CALL",
      "contractName": null,
      "contractAddress": "0x412367045452edff6e6d382b711e8f7e678db3df",
      "function": "report(int256,uint256)",
      "arguments": [
        "1776154767021779",
        "1756997446"
      ],
      "transaction": {
        "from": "0xabcde369cddd1665e4ebd9214b8e9a595271272c",
        "to": "0x412367045452edff6e6d382b711e8f7e678db3df",
        "gas": "0xb337",
        "value": "0x0",
        "input": "0x0f3d249d00000000000000000000000000000000000000000000000000064f6741f456d30000000000000000000000000000000000000000000000000000000068b9a746",
        "nonce": "0x4e",
        "chainId": "0xaa044c"
      },
      "additionalContracts": [],
      "isFixedGasLimit": false
    },
    {
      "hash": "0x5aeae88e153de9a2cc87f803aff5b20c9d0e7711f676f3c77853562a7d706e32",
      "transactionType": "CALL",
      "contractName": null,
      "contractAddress": "0xe8148b4e27e4136980d39abfb64be7e434b025e6",
      "function": "report(int256,uint256)",
      "arguments": [
        "7743000000000000",
        "1756997435"
      ],
      "transaction": {
        "from": "0xabcde369cddd1665e4ebd9214b8e9a595271272c",
        "to": "0xe8148b4e27e4136980d39abfb64be7e434b025e6",
        "gas": "0xb326",
        "value": "0x0",
        "input": "0x0f3d249d000000000000000000000000000000000000000000000000001b8237ac7ef0000000000000000000000000000000000000000000000000000000000068b9a73b",
        "nonce": "0x4f",
        "chainId": "0xaa044c"
      },
      "additionalContracts": [],
      "isFixedGasLimit": false
    },
    {
      "hash": "0x8d73a27210a8a298ec85c96593fc7d819a115fb541190a7fd1e2698be6d71e81",
      "transactionType": "CALL",
      "contractName": null,
      "contractAddress": "0xeef88fed534b0b25000e8667cd30740e00fd3cd2",
      "function": "report(int256,uint256)",
      "arguments": [
        "1751466",
        "1756997434"
      ],
      "transaction": {
        "from": "0xabcde369cddd1665e4ebd9214b8e9a595271272c",
        "to": "0xeef88fed534b0b25000e8667cd30740e00fd3cd2",
        "gas": "0xc210",
        "value": "0x0",
        "input": "0x0f3d249d00000000000000000000000000000000000000000000000000000000001ab9aa0000000000000000000000000000000000000000000000000000000068b9a73a",
        "nonce": "0x50",
        "chainId": "0xaa044c"
      },
      "additionalContracts": [],
      "isFixedGasLimit": false
    },
    {
      "hash": "0x4f5224d67df08dc0fef3ab7c1699d3b9d38a62e7165952635082aa2ff1aa805f",
      "transactionType": "CALL",
      "contractName": null,
      "contractAddress": "0xb30d8d162f6a4d63f138b4288234fc014bcc4596",
      "function": "report(int256,uint256)",
      "arguments": [
        "25031",
        "1756997200"
      ],
      "transaction": {
        "from": "0xabcde369cddd1665e4ebd9214b8e9a595271272c",
        "to": "0xb30d8d162f6a4d63f138b4288234fc014bcc4596",
        "gas": "0xc1ff",
        "value": "0x0",
        "input": "0x0f3d249d00000000000000000000000000000000000000000000000000000000000061c70000000000000000000000000000000000000000000000000000000068b9a650",
        "nonce": "0x51",
        "chainId": "0xaa044c"
      },
      "additionalContracts": [],
      "isFixedGasLimit": false
    },
    {
      "hash": "0xf723829f80be862952bef324df97c3f082389127d93fa76de42e5064bdd2f937",
      "transactionType": "CALL",
      "contractName": null,
      "contractAddress": "0xf49ac847023ca5acc108cd1a89b51b844c7abbd8",
      "function": "report(int256,uint256)",
      "arguments": [
        "8295932",
        "1756997255"
      ],
      "transaction": {
        "from": "0xabcde369cddd1665e4ebd9214b8e9a595271272c",
        "to": "0xf49ac847023ca5acc108cd1a89b51b844c7abbd8",
        "gas": "0xb2f5",
        "value": "0x0",
        "input": "0x0f3d249d00000000000000000000000000000000000000000000000000000000007e95fc0000000000000000000000000000000000000000000000000000000068b9a687",
        "nonce": "0x52",
        "chainId": "0xaa044c"
      },
      "additionalContracts": [],
      "isFixedGasLimit": false
    },
    {
      "hash": "0xba1dd9f8092be12bb4aa68bbb18a2a58fc031306a3aa98185c45d036d7a5a4f1",
      "transactionType": "CALL",
      "contractName": null,
      "contractAddress": "0x274c387475e9567fdd4f127364e4a1c775341855",
      "function": "report(int256,uint256)",
      "arguments": [
        "134189500",
        "1756997458"
      ],
      "transaction": {
        "from": "0xabcde369cddd1665e4ebd9214b8e9a595271272c",
        "to": "0x274c387475e9567fdd4f127364e4a1c775341855",
        "gas": "0xc220",
        "value": "0x0",
        "input": "0x0f3d249d0000000000000000000000000000000000000000000000000000000007ff91bc0000000000000000000000000000000000000000000000000000000068b9a752",
        "nonce": "0x53",
        "chainId": "0xaa044c"
      },
      "additionalContracts": [],
      "isFixedGasLimit": false
    },
    {
      "hash": "0x6c8dcda1d062529d438e097ca43427a30f539aa21e40af138ee75180ac6e8c25",
      "transactionType": "CALL",
      "contractName": null,
      "contractAddress": "0x5497ddcfca202d2c570b18c855c1ba8a5c04254a",
      "function": "report(int256,uint256)",
      "arguments": [
        "5617625",
        "1756997382"
      ],
      "transaction": {
        "from": "0xabcde369cddd1665e4ebd9214b8e9a595271272c",
        "to": "0x5497ddcfca202d2c570b18c855c1ba8a5c04254a",
        "gas": "0xc210",
        "value": "0x0",
        "input": "0x0f3d249d000000000000000000000000000000000000000000000000000000000055b7d90000000000000000000000000000000000000000000000000000000068b9a706",
        "nonce": "0x54",
        "chainId": "0xaa044c"
      },
      "additionalContracts": [],
      "isFixedGasLimit": false
    },
    {
      "hash": "0x21871cf0728aeb98a1be92e9e2dc5911c640260ca75d2078932b34fb619d91e9",
      "transactionType": "CALL",
      "contractName": null,
      "contractAddress": "0xf9840e5058b6ff709c4fe20cfa0d4f05ea925f71",
      "function": "report(int256,uint256)",
      "arguments": [
        "72259556",
        "1756997271"
      ],
      "transaction": {
        "from": "0xabcde369cddd1665e4ebd9214b8e9a595271272c",
        "to": "0xf9840e5058b6ff709c4fe20cfa0d4f05ea925f71",
        "gas": "0xc220",
        "value": "0x0",
        "input": "0x0f3d249d00000000000000000000000000000000000000000000000000000000044e97e40000000000000000000000000000000000000000000000000000000068b9a697",
        "nonce": "0x55",
        "chainId": "0xaa044c"
      },
      "additionalContracts": [],
      "isFixedGasLimit": false
    },
    {
      "hash": "0x2330bbe3bb09de9cd432b22b4b0e63b21d43fc779c774e2f7a7038f56218c96d",
      "transactionType": "CALL",
      "contractName": null,
      "contractAddress": "0x82aae3609210b24902d24165db40a48db5b88f4c",
      "function": "report(int256,uint256)",
      "arguments": [
        "65032000",
        "1756997237"
      ],
      "transaction": {
        "from": "0xabcde369cddd1665e4ebd9214b8e9a595271272c",
        "to": "0x82aae3609210b24902d24165db40a48db5b88f4c",
        "gas": "0xc220",
        "value": "0x0",
        "input": "0x0f3d249d0000000000000000000000000000000000000000000000000000000003e04f400000000000000000000000000000000000000000000000000000000068b9a675",
        "nonce": "0x56",
        "chainId": "0xaa044c"
      },
      "additionalContracts": [],
      "isFixedGasLimit": false
    },
    {
      "hash": "0xf919473d141ad884d47f158e28d8e00a1115d14301781dc52662e5b15fd67029",
      "transactionType": "CALL",
      "contractName": null,
      "contractAddress": "0x433393112dd71f2457985bdce6966d6d4618101a",
      "function": "report(int256,uint256)",
      "arguments": [
        "123961819",
        "1756997407"
      ],
      "transaction": {
        "from": "0xabcde369cddd1665e4ebd9214b8e9a595271272c",
        "to": "0x433393112dd71f2457985bdce6966d6d4618101a",
        "gas": "0xc220",
        "value": "0x0",
        "input": "0x0f3d249d00000000000000000000000000000000000000000000000000000000076381db0000000000000000000000000000000000000000000000000000000068b9a71f",
        "nonce": "0x57",
        "chainId": "0xaa044c"
      },
      "additionalContracts": [],
      "isFixedGasLimit": false
    },
    {
      "hash": "0x6cf41523394ad0f711bcaf9eb3490344b9f3a68052ce0496d87c6e22c406b4d5",
      "transactionType": "CALL",
      "contractName": null,
      "contractAddress": "0xcf0413f1a412ebf8a55dbd1c9371d9d802e8a9d4",
      "function": "report(int256,uint256)",
      "arguments": [
        "672576",
        "1756997372"
      ],
      "transaction": {
        "from": "0xabcde369cddd1665e4ebd9214b8e9a595271272c",
        "to": "0xcf0413f1a412ebf8a55dbd1c9371d9d802e8a9d4",
        "gas": "0xc210",
        "value": "0x0",
        "input": "0x0f3d249d00000000000000000000000000000000000000000000000000000000000a43400000000000000000000000000000000000000000000000000000000068b9a6fc",
        "nonce": "0x58",
        "chainId": "0xaa044c"
      },
      "additionalContracts": [],
      "isFixedGasLimit": false
    },
    {
      "hash": "0xfbd44232d6bfb6e0c6e181344f98a810aedf210845abd52f096eafb2a0996638",
      "transactionType": "CALL",
      "contractName": null,
      "contractAddress": "0x6ea7d1c9ee6172820879c80c44b69b549dad7088",
      "function": "report(int256,uint256)",
      "arguments": [
        "656663492793118",
        "1756997259"
      ],
      "transaction": {
        "from": "0xabcde369cddd1665e4ebd9214b8e9a595271272c",
        "to": "0x6ea7d1c9ee6172820879c80c44b69b549dad7088",
        "gas": "0xc253",
        "value": "0x0",
        "input": "0x0f3d249d0000000000000000000000000000000000000000000000000002553b6239931e0000000000000000000000000000000000000000000000000000000068b9a68b",
        "nonce": "0x59",
        "chainId": "0xaa044c"
      },
      "additionalContracts": [],
      "isFixedGasLimit": false
    }
  ],
  "receipts": [
    {
      "status": "0x1",
      "cumulativeGasUsed": "0x15658",
      "logs": [],
      "logsBloom": "0x00000000000000000000000000000000000000000000000000000000000000000000000000000000000000000000000000000000000000000000000000000000000000000000000000000000000000000000000000000000000000000000000000000000000000000000000000000000000000000000000000000000000000000000000000000000000000000000000000000000000000000000000000000000000000000000000000000000000000000000000000000000000000000000000000000000000000000000000000000000000000000000000000000000000000000000000000000000000000000000000000000000000000000000000000000000",
      "type": "0x2",
      "transactionHash": "0x511198e5a22e604d312ff34e1dd6889501d5bd5a4caed77ad4542ab331c2b9d0",
      "transactionIndex": "0x1",
      "blockHash": "0x8d4d09a611baa8ba61b678e0f1e3456597f1ac6e414c822216965e8e96c5b469",
      "blockNumber": "0x38a9fc",
      "gasUsed": "0x8c8c",
      "effectiveGasPrice": "0x5d21dba01",
      "from": "0xabcde369cddd1665e4ebd9214b8e9a595271272c",
      "to": "0x938c5ad8c25259f581d09175eb8ab662ef2d86da",
      "contractAddress": null,
      "l1BaseFeeScalar": "0x0",
      "l1BlobBaseFee": "0x1",
      "l1BlobBaseFeeScalar": "0x0",
      "l1Fee": "0x0",
      "l1GasPrice": "0x20bcc0",
      "l1GasUsed": "0x640"
    },
    {
      "status": "0x1",
      "cumulativeGasUsed": "0x1e2e4",
      "logs": [],
      "logsBloom": "0x00000000000000000000000000000000000000000000000000000000000000000000000000000000000000000000000000000000000000000000000000000000000000000000000000000000000000000000000000000000000000000000000000000000000000000000000000000000000000000000000000000000000000000000000000000000000000000000000000000000000000000000000000000000000000000000000000000000000000000000000000000000000000000000000000000000000000000000000000000000000000000000000000000000000000000000000000000000000000000000000000000000000000000000000000000000",
      "type": "0x2",
      "transactionHash": "0x514aad755d90b46a68bda8458a35c75ea704decd43eb2eb6dec0df8c8af8cd41",
      "transactionIndex": "0x2",
      "blockHash": "0x8d4d09a611baa8ba61b678e0f1e3456597f1ac6e414c822216965e8e96c5b469",
      "blockNumber": "0x38a9fc",
      "gasUsed": "0x8c8c",
      "effectiveGasPrice": "0x5d21dba01",
      "from": "0xabcde369cddd1665e4ebd9214b8e9a595271272c",
      "to": "0xc28486a83b7f57e556f710b6d1e603c02d42c202",
      "contractAddress": null,
      "l1BaseFeeScalar": "0x0",
      "l1BlobBaseFee": "0x1",
      "l1BlobBaseFeeScalar": "0x0",
      "l1Fee": "0x0",
      "l1GasPrice": "0x20bcc0",
      "l1GasUsed": "0x640"
    },
    {
      "status": "0x1",
      "cumulativeGasUsed": "0x26f70",
      "logs": [],
      "logsBloom": "0x00000000000000000000000000000000000000000000000000000000000000000000000000000000000000000000000000000000000000000000000000000000000000000000000000000000000000000000000000000000000000000000000000000000000000000000000000000000000000000000000000000000000000000000000000000000000000000000000000000000000000000000000000000000000000000000000000000000000000000000000000000000000000000000000000000000000000000000000000000000000000000000000000000000000000000000000000000000000000000000000000000000000000000000000000000000",
      "type": "0x2",
      "transactionHash": "0xddd05d272fba4197d65565ad79deff63572d137ddd2e56d3c524aa7ed500c199",
      "transactionIndex": "0x3",
      "blockHash": "0x8d4d09a611baa8ba61b678e0f1e3456597f1ac6e414c822216965e8e96c5b469",
      "blockNumber": "0x38a9fc",
      "gasUsed": "0x8c8c",
      "effectiveGasPrice": "0x5d21dba01",
      "from": "0xabcde369cddd1665e4ebd9214b8e9a595271272c",
      "to": "0xd06068261abda6014666ad24c4d0fbe5eeba610f",
      "contractAddress": null,
      "l1BaseFeeScalar": "0x0",
      "l1BlobBaseFee": "0x1",
      "l1BlobBaseFeeScalar": "0x0",
      "l1Fee": "0x0",
      "l1GasPrice": "0x20bcc0",
      "l1GasUsed": "0x640"
    },
    {
      "status": "0x1",
      "cumulativeGasUsed": "0x2fbfc",
      "logs": [],
      "logsBloom": "0x00000000000000000000000000000000000000000000000000000000000000000000000000000000000000000000000000000000000000000000000000000000000000000000000000000000000000000000000000000000000000000000000000000000000000000000000000000000000000000000000000000000000000000000000000000000000000000000000000000000000000000000000000000000000000000000000000000000000000000000000000000000000000000000000000000000000000000000000000000000000000000000000000000000000000000000000000000000000000000000000000000000000000000000000000000000",
      "type": "0x2",
      "transactionHash": "0x98a47f83a63932156c6e1f1b6646360cb04b645b196792a4f014bcb4adc94e73",
      "transactionIndex": "0x4",
      "blockHash": "0x8d4d09a611baa8ba61b678e0f1e3456597f1ac6e414c822216965e8e96c5b469",
      "blockNumber": "0x38a9fc",
      "gasUsed": "0x8c8c",
      "effectiveGasPrice": "0x5d21dba01",
      "from": "0xabcde369cddd1665e4ebd9214b8e9a595271272c",
      "to": "0x53637ee07fa3c04eb12a2aaa632c06a657178ebc",
      "contractAddress": null,
      "l1BaseFeeScalar": "0x0",
      "l1BlobBaseFee": "0x1",
      "l1BlobBaseFeeScalar": "0x0",
      "l1Fee": "0x0",
      "l1GasPrice": "0x20bcc0",
      "l1GasUsed": "0x640"
    },
    {
      "status": "0x1",
      "cumulativeGasUsed": "0x38888",
      "logs": [],
      "logsBloom": "0x00000000000000000000000000000000000000000000000000000000000000000000000000000000000000000000000000000000000000000000000000000000000000000000000000000000000000000000000000000000000000000000000000000000000000000000000000000000000000000000000000000000000000000000000000000000000000000000000000000000000000000000000000000000000000000000000000000000000000000000000000000000000000000000000000000000000000000000000000000000000000000000000000000000000000000000000000000000000000000000000000000000000000000000000000000000",
      "type": "0x2",
      "transactionHash": "0x794c0b6ae25a571a5ca1b946dd8e085dc117d71c5e6901080a9823211b4f15c6",
      "transactionIndex": "0x5",
      "blockHash": "0x8d4d09a611baa8ba61b678e0f1e3456597f1ac6e414c822216965e8e96c5b469",
      "blockNumber": "0x38a9fc",
      "gasUsed": "0x8c8c",
      "effectiveGasPrice": "0x5d21dba01",
      "from": "0xabcde369cddd1665e4ebd9214b8e9a595271272c",
      "to": "0xa3976ebf31f404d6ae5741727e28ef04c54705bc",
      "contractAddress": null,
      "l1BaseFeeScalar": "0x0",
      "l1BlobBaseFee": "0x1",
      "l1BlobBaseFeeScalar": "0x0",
      "l1Fee": "0x0",
      "l1GasPrice": "0x20bcc0",
      "l1GasUsed": "0x640"
    },
    {
      "status": "0x1",
      "cumulativeGasUsed": "0x41514",
      "logs": [],
      "logsBloom": "0x00000000000000000000000000000000000000000000000000000000000000000000000000000000000000000000000000000000000000000000000000000000000000000000000000000000000000000000000000000000000000000000000000000000000000000000000000000000000000000000000000000000000000000000000000000000000000000000000000000000000000000000000000000000000000000000000000000000000000000000000000000000000000000000000000000000000000000000000000000000000000000000000000000000000000000000000000000000000000000000000000000000000000000000000000000000",
      "type": "0x2",
      "transactionHash": "0x6941140cafc23cc24f33e33c4f58eb45f9d561d5430bb6db3c8e772eabbd8b20",
      "transactionIndex": "0x6",
      "blockHash": "0x8d4d09a611baa8ba61b678e0f1e3456597f1ac6e414c822216965e8e96c5b469",
      "blockNumber": "0x38a9fc",
      "gasUsed": "0x8c8c",
      "effectiveGasPrice": "0x5d21dba01",
      "from": "0xabcde369cddd1665e4ebd9214b8e9a595271272c",
      "to": "0x970be29cd19a3fb5941f7bb63d4fd9c9f2bed570",
      "contractAddress": null,
      "l1BaseFeeScalar": "0x0",
      "l1BlobBaseFee": "0x1",
      "l1BlobBaseFeeScalar": "0x0",
      "l1Fee": "0x0",
      "l1GasPrice": "0x20bcc0",
      "l1GasUsed": "0x640"
    },
    {
      "status": "0x1",
      "cumulativeGasUsed": "0x496d4",
      "logs": [],
      "logsBloom": "0x00000000000000000000000000000000000000000000000000000000000000000000000000000000000000000000000000000000000000000000000000000000000000000000000000000000000000000000000000000000000000000000000000000000000000000000000000000000000000000000000000000000000000000000000000000000000000000000000000000000000000000000000000000000000000000000000000000000000000000000000000000000000000000000000000000000000000000000000000000000000000000000000000000000000000000000000000000000000000000000000000000000000000000000000000000000",
      "type": "0x2",
      "transactionHash": "0x1c922e4189ce4ab30df8afd2d15d4e263cdec83e774d9b0475829f64ae018108",
      "transactionIndex": "0x7",
      "blockHash": "0x8d4d09a611baa8ba61b678e0f1e3456597f1ac6e414c822216965e8e96c5b469",
      "blockNumber": "0x38a9fc",
      "gasUsed": "0x81c0",
      "effectiveGasPrice": "0x5d21dba01",
      "from": "0xabcde369cddd1665e4ebd9214b8e9a595271272c",
      "to": "0x412367045452edff6e6d382b711e8f7e678db3df",
      "contractAddress": null,
      "l1BaseFeeScalar": "0x0",
      "l1BlobBaseFee": "0x1",
      "l1BlobBaseFeeScalar": "0x0",
      "l1Fee": "0x0",
      "l1GasPrice": "0x20bcc0",
      "l1GasUsed": "0x640"
    },
    {
      "status": "0x1",
      "cumulativeGasUsed": "0x51888",
      "logs": [],
      "logsBloom": "0x00000000000000000000000000000000000000000000000000000000000000000000000000000000000000000000000000000000000000000000000000000000000000000000000000000000000000000000000000000000000000000000000000000000000000000000000000000000000000000000000000000000000000000000000000000000000000000000000000000000000000000000000000000000000000000000000000000000000000000000000000000000000000000000000000000000000000000000000000000000000000000000000000000000000000000000000000000000000000000000000000000000000000000000000000000000",
      "type": "0x2",
      "transactionHash": "0x5aeae88e153de9a2cc87f803aff5b20c9d0e7711f676f3c77853562a7d706e32",
      "transactionIndex": "0x8",
      "blockHash": "0x8d4d09a611baa8ba61b678e0f1e3456597f1ac6e414c822216965e8e96c5b469",
      "blockNumber": "0x38a9fc",
      "gasUsed": "0x81b4",
      "effectiveGasPrice": "0x5d21dba01",
      "from": "0xabcde369cddd1665e4ebd9214b8e9a595271272c",
      "to": "0xe8148b4e27e4136980d39abfb64be7e434b025e6",
      "contractAddress": null,
      "l1BaseFeeScalar": "0x0",
      "l1BlobBaseFee": "0x1",
      "l1BlobBaseFeeScalar": "0x0",
      "l1Fee": "0x0",
      "l1GasPrice": "0x20bcc0",
      "l1GasUsed": "0x640"
    },
    {
      "status": "0x1",
      "cumulativeGasUsed": "0x5a508",
      "logs": [],
      "logsBloom": "0x00000000000000000000000000000000000000000000000000000000000000000000000000000000000000000000000000000000000000000000000000000000000000000000000000000000000000000000000000000000000000000000000000000000000000000000000000000000000000000000000000000000000000000000000000000000000000000000000000000000000000000000000000000000000000000000000000000000000000000000000000000000000000000000000000000000000000000000000000000000000000000000000000000000000000000000000000000000000000000000000000000000000000000000000000000000",
      "type": "0x2",
      "transactionHash": "0x8d73a27210a8a298ec85c96593fc7d819a115fb541190a7fd1e2698be6d71e81",
      "transactionIndex": "0x9",
      "blockHash": "0x8d4d09a611baa8ba61b678e0f1e3456597f1ac6e414c822216965e8e96c5b469",
      "blockNumber": "0x38a9fc",
      "gasUsed": "0x8c80",
      "effectiveGasPrice": "0x5d21dba01",
      "from": "0xabcde369cddd1665e4ebd9214b8e9a595271272c",
      "to": "0xeef88fed534b0b25000e8667cd30740e00fd3cd2",
      "contractAddress": null,
      "l1BaseFeeScalar": "0x0",
      "l1BlobBaseFee": "0x1",
      "l1BlobBaseFeeScalar": "0x0",
      "l1Fee": "0x0",
      "l1GasPrice": "0x20bcc0",
      "l1GasUsed": "0x640"
    },
    {
      "status": "0x1",
      "cumulativeGasUsed": "0x6317c",
      "logs": [],
      "logsBloom": "0x00000000000000000000000000000000000000000000000000000000000000000000000000000000000000000000000000000000000000000000000000000000000000000000000000000000000000000000000000000000000000000000000000000000000000000000000000000000000000000000000000000000000000000000000000000000000000000000000000000000000000000000000000000000000000000000000000000000000000000000000000000000000000000000000000000000000000000000000000000000000000000000000000000000000000000000000000000000000000000000000000000000000000000000000000000000",
      "type": "0x2",
      "transactionHash": "0x4f5224d67df08dc0fef3ab7c1699d3b9d38a62e7165952635082aa2ff1aa805f",
      "transactionIndex": "0xa",
      "blockHash": "0x8d4d09a611baa8ba61b678e0f1e3456597f1ac6e414c822216965e8e96c5b469",
      "blockNumber": "0x38a9fc",
      "gasUsed": "0x8c74",
      "effectiveGasPrice": "0x5d21dba01",
      "from": "0xabcde369cddd1665e4ebd9214b8e9a595271272c",
      "to": "0xb30d8d162f6a4d63f138b4288234fc014bcc4596",
      "contractAddress": null,
      "l1BaseFeeScalar": "0x0",
      "l1BlobBaseFee": "0x1",
      "l1BlobBaseFeeScalar": "0x0",
      "l1Fee": "0x0",
      "l1GasPrice": "0x20bcc0",
      "l1GasUsed": "0x640"
    },
    {
      "status": "0x1",
      "cumulativeGasUsed": "0x6b30c",
      "logs": [],
      "logsBloom": "0x00000000000000000000000000000000000000000000000000000000000000000000000000000000000000000000000000000000000000000000000000000000000000000000000000000000000000000000000000000000000000000000000000000000000000000000000000000000000000000000000000000000000000000000000000000000000000000000000000000000000000000000000000000000000000000000000000000000000000000000000000000000000000000000000000000000000000000000000000000000000000000000000000000000000000000000000000000000000000000000000000000000000000000000000000000000",
      "type": "0x2",
      "transactionHash": "0xf723829f80be862952bef324df97c3f082389127d93fa76de42e5064bdd2f937",
      "transactionIndex": "0xb",
      "blockHash": "0x8d4d09a611baa8ba61b678e0f1e3456597f1ac6e414c822216965e8e96c5b469",
      "blockNumber": "0x38a9fc",
      "gasUsed": "0x8190",
      "effectiveGasPrice": "0x5d21dba01",
      "from": "0xabcde369cddd1665e4ebd9214b8e9a595271272c",
      "to": "0xf49ac847023ca5acc108cd1a89b51b844c7abbd8",
      "contractAddress": null,
      "l1BaseFeeScalar": "0x0",
      "l1BlobBaseFee": "0x1",
      "l1BlobBaseFeeScalar": "0x0",
      "l1Fee": "0x0",
      "l1GasPrice": "0x20bcc0",
      "l1GasUsed": "0x640"
    },
    {
      "status": "0x1",
      "cumulativeGasUsed": "0x73f98",
      "logs": [],
      "logsBloom": "0x00000000000000000000000000000000000000000000000000000000000000000000000000000000000000000000000000000000000000000000000000000000000000000000000000000000000000000000000000000000000000000000000000000000000000000000000000000000000000000000000000000000000000000000000000000000000000000000000000000000000000000000000000000000000000000000000000000000000000000000000000000000000000000000000000000000000000000000000000000000000000000000000000000000000000000000000000000000000000000000000000000000000000000000000000000000",
      "type": "0x2",
      "transactionHash": "0xba1dd9f8092be12bb4aa68bbb18a2a58fc031306a3aa98185c45d036d7a5a4f1",
      "transactionIndex": "0xc",
      "blockHash": "0x8d4d09a611baa8ba61b678e0f1e3456597f1ac6e414c822216965e8e96c5b469",
      "blockNumber": "0x38a9fc",
      "gasUsed": "0x8c8c",
      "effectiveGasPrice": "0x5d21dba01",
      "from": "0xabcde369cddd1665e4ebd9214b8e9a595271272c",
      "to": "0x274c387475e9567fdd4f127364e4a1c775341855",
      "contractAddress": null,
      "l1BaseFeeScalar": "0x0",
      "l1BlobBaseFee": "0x1",
      "l1BlobBaseFeeScalar": "0x0",
      "l1Fee": "0x0",
      "l1GasPrice": "0x20bcc0",
      "l1GasUsed": "0x640"
    },
    {
      "status": "0x1",
      "cumulativeGasUsed": "0x7cc18",
      "logs": [],
      "logsBloom": "0x00000000000000000000000000000000000000000000000000000000000000000000000000000000000000000000000000000000000000000000000000000000000000000000000000000000000000000000000000000000000000000000000000000000000000000000000000000000000000000000000000000000000000000000000000000000000000000000000000000000000000000000000000000000000000000000000000000000000000000000000000000000000000000000000000000000000000000000000000000000000000000000000000000000000000000000000000000000000000000000000000000000000000000000000000000000",
      "type": "0x2",
      "transactionHash": "0x6c8dcda1d062529d438e097ca43427a30f539aa21e40af138ee75180ac6e8c25",
      "transactionIndex": "0xd",
      "blockHash": "0x8d4d09a611baa8ba61b678e0f1e3456597f1ac6e414c822216965e8e96c5b469",
      "blockNumber": "0x38a9fc",
      "gasUsed": "0x8c80",
      "effectiveGasPrice": "0x5d21dba01",
      "from": "0xabcde369cddd1665e4ebd9214b8e9a595271272c",
      "to": "0x5497ddcfca202d2c570b18c855c1ba8a5c04254a",
      "contractAddress": null,
      "l1BaseFeeScalar": "0x0",
      "l1BlobBaseFee": "0x1",
      "l1BlobBaseFeeScalar": "0x0",
      "l1Fee": "0x0",
      "l1GasPrice": "0x20bcc0",
      "l1GasUsed": "0x640"
    },
    {
      "status": "0x1",
      "cumulativeGasUsed": "0x858a4",
      "logs": [],
      "logsBloom": "0x00000000000000000000000000000000000000000000000000000000000000000000000000000000000000000000000000000000000000000000000000000000000000000000000000000000000000000000000000000000000000000000000000000000000000000000000000000000000000000000000000000000000000000000000000000000000000000000000000000000000000000000000000000000000000000000000000000000000000000000000000000000000000000000000000000000000000000000000000000000000000000000000000000000000000000000000000000000000000000000000000000000000000000000000000000000",
      "type": "0x2",
      "transactionHash": "0x21871cf0728aeb98a1be92e9e2dc5911c640260ca75d2078932b34fb619d91e9",
      "transactionIndex": "0xe",
      "blockHash": "0x8d4d09a611baa8ba61b678e0f1e3456597f1ac6e414c822216965e8e96c5b469",
      "blockNumber": "0x38a9fc",
      "gasUsed": "0x8c8c",
      "effectiveGasPrice": "0x5d21dba01",
      "from": "0xabcde369cddd1665e4ebd9214b8e9a595271272c",
      "to": "0xf9840e5058b6ff709c4fe20cfa0d4f05ea925f71",
      "contractAddress": null,
      "l1BaseFeeScalar": "0x0",
      "l1BlobBaseFee": "0x1",
      "l1BlobBaseFeeScalar": "0x0",
      "l1Fee": "0x0",
      "l1GasPrice": "0x20bcc0",
      "l1GasUsed": "0x640"
    },
    {
      "status": "0x1",
      "cumulativeGasUsed": "0x8e530",
      "logs": [],
      "logsBloom": "0x00000000000000000000000000000000000000000000000000000000000000000000000000000000000000000000000000000000000000000000000000000000000000000000000000000000000000000000000000000000000000000000000000000000000000000000000000000000000000000000000000000000000000000000000000000000000000000000000000000000000000000000000000000000000000000000000000000000000000000000000000000000000000000000000000000000000000000000000000000000000000000000000000000000000000000000000000000000000000000000000000000000000000000000000000000000",
      "type": "0x2",
      "transactionHash": "0x2330bbe3bb09de9cd432b22b4b0e63b21d43fc779c774e2f7a7038f56218c96d",
      "transactionIndex": "0xf",
      "blockHash": "0x8d4d09a611baa8ba61b678e0f1e3456597f1ac6e414c822216965e8e96c5b469",
      "blockNumber": "0x38a9fc",
      "gasUsed": "0x8c8c",
      "effectiveGasPrice": "0x5d21dba01",
      "from": "0xabcde369cddd1665e4ebd9214b8e9a595271272c",
      "to": "0x82aae3609210b24902d24165db40a48db5b88f4c",
      "contractAddress": null,
      "l1BaseFeeScalar": "0x0",
      "l1BlobBaseFee": "0x1",
      "l1BlobBaseFeeScalar": "0x0",
      "l1Fee": "0x0",
      "l1GasPrice": "0x20bcc0",
      "l1GasUsed": "0x640"
    },
    {
      "status": "0x1",
      "cumulativeGasUsed": "0x971bc",
      "logs": [],
      "logsBloom": "0x00000000000000000000000000000000000000000000000000000000000000000000000000000000000000000000000000000000000000000000000000000000000000000000000000000000000000000000000000000000000000000000000000000000000000000000000000000000000000000000000000000000000000000000000000000000000000000000000000000000000000000000000000000000000000000000000000000000000000000000000000000000000000000000000000000000000000000000000000000000000000000000000000000000000000000000000000000000000000000000000000000000000000000000000000000000",
      "type": "0x2",
      "transactionHash": "0xf919473d141ad884d47f158e28d8e00a1115d14301781dc52662e5b15fd67029",
      "transactionIndex": "0x10",
      "blockHash": "0x8d4d09a611baa8ba61b678e0f1e3456597f1ac6e414c822216965e8e96c5b469",
      "blockNumber": "0x38a9fc",
      "gasUsed": "0x8c8c",
      "effectiveGasPrice": "0x5d21dba01",
      "from": "0xabcde369cddd1665e4ebd9214b8e9a595271272c",
      "to": "0x433393112dd71f2457985bdce6966d6d4618101a",
      "contractAddress": null,
      "l1BaseFeeScalar": "0x0",
      "l1BlobBaseFee": "0x1",
      "l1BlobBaseFeeScalar": "0x0",
      "l1Fee": "0x0",
      "l1GasPrice": "0x20bcc0",
      "l1GasUsed": "0x640"
    },
    {
      "status": "0x1",
      "cumulativeGasUsed": "0x9fe3c",
      "logs": [],
      "logsBloom": "0x00000000000000000000000000000000000000000000000000000000000000000000000000000000000000000000000000000000000000000000000000000000000000000000000000000000000000000000000000000000000000000000000000000000000000000000000000000000000000000000000000000000000000000000000000000000000000000000000000000000000000000000000000000000000000000000000000000000000000000000000000000000000000000000000000000000000000000000000000000000000000000000000000000000000000000000000000000000000000000000000000000000000000000000000000000000",
      "type": "0x2",
      "transactionHash": "0x6cf41523394ad0f711bcaf9eb3490344b9f3a68052ce0496d87c6e22c406b4d5",
      "transactionIndex": "0x11",
      "blockHash": "0x8d4d09a611baa8ba61b678e0f1e3456597f1ac6e414c822216965e8e96c5b469",
      "blockNumber": "0x38a9fc",
      "gasUsed": "0x8c80",
      "effectiveGasPrice": "0x5d21dba01",
      "from": "0xabcde369cddd1665e4ebd9214b8e9a595271272c",
      "to": "0xcf0413f1a412ebf8a55dbd1c9371d9d802e8a9d4",
      "contractAddress": null,
      "l1BaseFeeScalar": "0x0",
      "l1BlobBaseFee": "0x1",
      "l1BlobBaseFeeScalar": "0x0",
      "l1Fee": "0x0",
      "l1GasPrice": "0x20bcc0",
      "l1GasUsed": "0x640"
    },
    {
      "status": "0x1",
      "cumulativeGasUsed": "0xa8aec",
      "logs": [],
      "logsBloom": "0x00000000000000000000000000000000000000000000000000000000000000000000000000000000000000000000000000000000000000000000000000000000000000000000000000000000000000000000000000000000000000000000000000000000000000000000000000000000000000000000000000000000000000000000000000000000000000000000000000000000000000000000000000000000000000000000000000000000000000000000000000000000000000000000000000000000000000000000000000000000000000000000000000000000000000000000000000000000000000000000000000000000000000000000000000000000",
      "type": "0x2",
      "transactionHash": "0xfbd44232d6bfb6e0c6e181344f98a810aedf210845abd52f096eafb2a0996638",
      "transactionIndex": "0x12",
      "blockHash": "0x8d4d09a611baa8ba61b678e0f1e3456597f1ac6e414c822216965e8e96c5b469",
      "blockNumber": "0x38a9fc",
      "gasUsed": "0x8cb0",
      "effectiveGasPrice": "0x5d21dba01",
      "from": "0xabcde369cddd1665e4ebd9214b8e9a595271272c",
      "to": "0x6ea7d1c9ee6172820879c80c44b69b549dad7088",
      "contractAddress": null,
      "l1BaseFeeScalar": "0x0",
      "l1BlobBaseFee": "0x1",
      "l1BlobBaseFeeScalar": "0x0",
      "l1Fee": "0x0",
      "l1GasPrice": "0x20bcc0",
      "l1GasUsed": "0x640"
    }
  ],
  "libraries": [
    "node_modules/@celo/contracts/common/linkedlists/AddressSortedLinkedListWithMedian.sol:AddressSortedLinkedListWithMedian:0x7d980668cf20B58214E20a85ab9b67aA9a5e717E"
  ],
  "pending": [],
  "returns": {},
  "timestamp": 1756997521689,
  "chain": 11142220,
  "commit": "ae1293f"
}