{
  "transactions": [
    {
      "hash": "0x9a9ef7f2a1ea130f13678172bd381e2cee620734928fb51f9e0ff8a1e94e8491",
      "transactionType": "CALL",
      "contractName": null,
      "contractAddress": "0x502e67d3fe9302a5e4ec1cfcddbd6f34f9b9484b",
      "function": "mint(address,uint256)",
      "arguments": [
        "0x2738F38Fde510743e0c589415E0598C4ceE6eAa7",
        "1000000000000000000000000"
      ],
      "transaction": {
        "from": "0x2738f38fde510743e0c589415e0598c4cee6eaa7",
        "to": "0x502e67d3fe9302a5e4ec1cfcddbd6f34f9b9484b",
        "gas": "0x11889",
        "value": "0x0",
        "input": "0x40c10f190000000000000000000000002738f38fde510743e0c589415e0598c4cee6eaa700000000000000000000000000000000000000000000d3c21bcecceda1000000",
        "nonce": "0x138",
        "chainId": "0x279f"
      },
      "additionalContracts": [],
      "isFixedGasLimit": false
    },
    {
      "hash": "0x2ec58d98cd71442e7b40dd54e254ae75f3973dc045e65331cae5853f67661dd8",
      "transactionType": "CALL",
      "contractName": null,
      "contractAddress": "0x502e67d3fe9302a5e4ec1cfcddbd6f34f9b9484b",
      "function": "transferOwnership(address)",
      "arguments": [
        "0x2738F38Fde510743e0c589415E0598C4ceE6eAa7"
      ],
      "transaction": {
        "from": "0x2738f38fde510743e0c589415e0598c4cee6eaa7",
        "to": "0x502e67d3fe9302a5e4ec1cfcddbd6f34f9b9484b",
        "gas": "0xa550",
        "value": "0x0",
        "input": "0xf2fde38b0000000000000000000000002738f38fde510743e0c589415e0598c4cee6eaa7",
        "nonce": "0x139",
        "chainId": "0x279f"
      },
      "additionalContracts": [],
      "isFixedGasLimit": false
    },
    {
      "hash": "0xe88e67665ba372437efbdcbb11e66518d9dba6e212d3c4a705eba5c62c696274",
      "transactionType": "CALL",
      "contractName": null,
      "contractAddress": "0xba5ed099633d3b313e4d5f7bdc1305d3c28ba5ed",
      "function": "deployCreate3(bytes32,bytes)",
      "arguments": [
        "0x2738f38fde510743e0c589415e0598c4cee6eaa700062d53e4a03bb3de4917e5",
        "0x60a060405234801561000f575f5ffd5b50604051610cd9380380610cd983398101604081905261002e91610181565b808484600361003d83826102aa565b50600461004a82826102aa565b5050506001600160a01b03811661007a57604051631e4fbdf760e01b81525f600482015260240160405180910390fd5b61008381610093565b505060ff16608052506103689050565b600580546001600160a01b038381166001600160a01b0319831681179093556040519116919082907f8be0079c531659141344cd1fd0a4f28419497f9722a3daafe3b4186f6b6457e0905f90a35050565b634e487b7160e01b5f52604160045260245ffd5b5f82601f830112610107575f5ffd5b81516001600160401b03811115610120576101206100e4565b604051601f8201601f19908116603f011681016001600160401b038111828210171561014e5761014e6100e4565b604052818152838201602001851015610165575f5ffd5b8160208501602083015e5f918101602001919091529392505050565b5f5f5f5f60808587031215610194575f5ffd5b84516001600160401b038111156101a9575f5ffd5b6101b5878288016100f8565b602087015190955090506001600160401b038111156101d2575f5ffd5b6101de878288016100f8565b935050604085015160ff811681146101f4575f5ffd5b60608601519092506001600160a01b0381168114610210575f5ffd5b939692955090935050565b600181811c9082168061022f57607f821691505b60208210810361024d57634e487b7160e01b5f52602260045260245ffd5b50919050565b601f8211156102a557828211156102a557805f5260205f20601f840160051c602085101561027e57505f5b90810190601f840160051c035f5b818110156102a1575f8382015560010161028c565b5050505b505050565b81516001600160401b038111156102c3576102c36100e4565b6102d7816102d1845461021b565b84610253565b6020601f821160018114610309575f83156102f25750848201515b5f19600385901b1c1916600184901b178455610361565b5f84815260208120601f198516915b828110156103385787850151825560209485019460019092019101610318565b508482101561035557868401515f19600387901b60f8161c191681555b505060018360011b0184555b5050505050565b6080516109596103805f395f61016101526109595ff3fe608060405234801561000f575f5ffd5b50600436106100f0575f3560e01c806370a082311161009357806395d89b411161006357806395d89b4114610211578063a9059cbb14610219578063dd62ed3e1461022c578063f2fde38b14610264575f5ffd5b806370a08231146101b3578063715018a6146101db57806379cc6790146101e35780638da5cb5b146101f6575f5ffd5b806323b872dd116100ce57806323b872dd14610147578063313ce5671461015a57806340c10f191461018b57806342966c68146101a0575f5ffd5b806306fdde03146100f4578063095ea7b31461011257806318160ddd14610135575b5f5ffd5b6100fc610277565b60405161010991906107b2565b60405180910390f35b610125610120366004610802565b610307565b6040519015158152602001610109565b6002545b604051908152602001610109565b61012561015536600461082a565b610320565b60405160ff7f0000000000000000000000000000000000000000000000000000000000000000168152602001610109565b61019e610199366004610802565b610343565b005b61019e6101ae366004610864565b610359565b6101396101c136600461087b565b6001600160a01b03165f9081526020819052604090205490565b61019e610366565b61019e6101f1366004610802565b610379565b6005546040516001600160a01b039091168152602001610109565b6100fc61038e565b610125610227366004610802565b61039d565b61013961023a36600461089b565b6001600160a01b039182165f90815260016020908152604080832093909416825291909152205490565b61019e61027236600461087b565b6103aa565b606060038054610286906108cc565b80601f01602080910402602001604051908101604052809291908181526020018280546102b2906108cc565b80156102fd5780601f106102d4576101008083540402835291602001916102fd565b820191905f5260205f20905b8154815290600101906020018083116102e057829003601f168201915b5050505050905090565b5f336103148185856103e9565b60019150505b92915050565b5f3361032d8582856103fb565b610338858585610477565b506001949350505050565b61034b6104d4565b6103558282610501565b5050565b6103633382610535565b50565b61036e6104d4565b6103775f610569565b565b6103848233836103fb565b6103558282610535565b606060048054610286906108cc565b5f33610314818585610477565b6103b26104d4565b6001600160a01b0381166103e057604051631e4fbdf760e01b81525f60048201526024015b60405180910390fd5b61036381610569565b6103f683838360016105ba565b505050565b6001600160a01b038381165f908152600160209081526040808320938616835292905220545f19811015610471578181101561046357604051637dc7a0d960e11b81526001600160a01b038416600482015260248101829052604481018390526064016103d7565b61047184848484035f6105ba565b50505050565b6001600160a01b0383166104a057604051634b637e8f60e11b81525f60048201526024016103d7565b6001600160a01b0382166104c95760405163ec442f0560e01b81525f60048201526024016103d7565b6103f683838361068c565b6005546001600160a01b031633146103775760405163118cdaa760e01b81523360048201526024016103d7565b6001600160a01b03821661052a5760405163ec442f0560e01b81525f60048201526024016103d7565b6103555f838361068c565b6001600160a01b03821661055e57604051634b637e8f60e11b81525f60048201526024016103d7565b610355825f8361068c565b600580546001600160a01b038381166001600160a01b0319831681179093556040519116919082907f8be0079c531659141344cd1fd0a4f28419497f9722a3daafe3b4186f6b6457e0905f90a35050565b6001600160a01b0384166105e35760405163e602df0560e01b81525f60048201526024016103d7565b6001600160a01b03831661060c57604051634a1406b160e11b81525f60048201526024016103d7565b6001600160a01b038085165f908152600160209081526040808320938716835292905220829055801561047157826001600160a01b0316846001600160a01b03167f8c5be1e5ebec7d5bd14f71427d1e84f3dd0314c0f7b2291e5b200ac8c7c3b9258460405161067e91815260200190565b60405180910390a350505050565b6001600160a01b0383166106b6578060025f8282546106ab9190610904565b909155506107269050565b6001600160a01b0383165f90815260208190526040902054818110156107085760405163391434e360e21b81526001600160a01b038516600482015260248101829052604481018390526064016103d7565b6001600160a01b0384165f9081526020819052604090209082900390555b6001600160a01b03821661074257600280548290039055610760565b6001600160a01b0382165f9081526020819052604090208054820190555b816001600160a01b0316836001600160a01b03167fddf252ad1be2c89b69c2b068fc378daa952ba7f163c4a11628f55a4df523b3ef836040516107a591815260200190565b60405180910390a3505050565b602081525f82518060208401528060208501604085015e5f604082850101526040601f19601f83011684010191505092915050565b80356001600160a01b03811681146107fd575f5ffd5b919050565b5f5f60408385031215610813575f5ffd5b61081c836107e7565b946020939093013593505050565b5f5f5f6060848603121561083c575f5ffd5b610845846107e7565b9250610853602085016107e7565b929592945050506040919091013590565b5f60208284031215610874575f5ffd5b5035919050565b5f6020828403121561088b575f5ffd5b610894826107e7565b9392505050565b5f5f604083850312156108ac575f5ffd5b6108b5836107e7565b91506108c3602084016107e7565b90509250929050565b600181811c908216806108e057607f821691505b6020821081036108fe57634e487b7160e01b5f52602260045260245ffd5b50919050565b8082018082111561031a57634e487b7160e01b5f52601160045260245ffdfea2646970667358221220083b5f6879f4bb5f859e3b24a73111eeeeeecff4f717d79b5008b7faf28ea8c864736f6c63430008210033000000000000000000000000000000000000000000000000000000000000008000000000000000000000000000000000000000000000000000000000000000c000000000000000000000000000000000000000000000000000000000000000060000000000000000000000002738f38fde510743e0c589415e0598c4cee6eaa700000000000000000000000000000000000000000000000000000000000000104d656e746f204d6f636b2055534454300000000000000000000000000000000000000000000000000000000000000000000000000000000000000000000000055553445430000000000000000000000000000000000000000000000000000000"
      ],
      "transaction": {
        "from": "0x2738f38fde510743e0c589415e0598c4cee6eaa7",
        "to": "0xba5ed099633d3b313e4d5f7bdc1305d3c28ba5ed",
        "gas": "0xeb35b",
        "value": "0x0",
        "input": "0x9c36a2862738f38fde510743e0c589415e0598c4cee6eaa700062d53e4a03bb3de4917e500000000000000000000000000000000000000000000000000000000000000400000000000000000000000000000000000000000000000000000000000000dd960a060405234801561000f575f5ffd5b50604051610cd9380380610cd983398101604081905261002e91610181565b808484600361003d83826102aa565b50600461004a82826102aa565b5050506001600160a01b03811661007a57604051631e4fbdf760e01b81525f600482015260240160405180910390fd5b61008381610093565b505060ff16608052506103689050565b600580546001600160a01b038381166001600160a01b0319831681179093556040519116919082907f8be0079c531659141344cd1fd0a4f28419497f9722a3daafe3b4186f6b6457e0905f90a35050565b634e487b7160e01b5f52604160045260245ffd5b5f82601f830112610107575f5ffd5b81516001600160401b03811115610120576101206100e4565b604051601f8201601f19908116603f011681016001600160401b038111828210171561014e5761014e6100e4565b604052818152838201602001851015610165575f5ffd5b8160208501602083015e5f918101602001919091529392505050565b5f5f5f5f60808587031215610194575f5ffd5b84516001600160401b038111156101a9575f5ffd5b6101b5878288016100f8565b602087015190955090506001600160401b038111156101d2575f5ffd5b6101de878288016100f8565b935050604085015160ff811681146101f4575f5ffd5b60608601519092506001600160a01b0381168114610210575f5ffd5b939692955090935050565b600181811c9082168061022f57607f821691505b60208210810361024d57634e487b7160e01b5f52602260045260245ffd5b50919050565b601f8211156102a557828211156102a557805f5260205f20601f840160051c602085101561027e57505f5b90810190601f840160051c035f5b818110156102a1575f8382015560010161028c565b5050505b505050565b81516001600160401b038111156102c3576102c36100e4565b6102d7816102d1845461021b565b84610253565b6020601f821160018114610309575f83156102f25750848201515b5f19600385901b1c1916600184901b178455610361565b5f84815260208120601f198516915b828110156103385787850151825560209485019460019092019101610318565b508482101561035557868401515f19600387901b60f8161c191681555b505060018360011b0184555b5050505050565b6080516109596103805f395f61016101526109595ff3fe608060405234801561000f575f5ffd5b50600436106100f0575f3560e01c806370a082311161009357806395d89b411161006357806395d89b4114610211578063a9059cbb14610219578063dd62ed3e1461022c578063f2fde38b14610264575f5ffd5b806370a08231146101b3578063715018a6146101db57806379cc6790146101e35780638da5cb5b146101f6575f5ffd5b806323b872dd116100ce57806323b872dd14610147578063313ce5671461015a57806340c10f191461018b57806342966c68146101a0575f5ffd5b806306fdde03146100f4578063095ea7b31461011257806318160ddd14610135575b5f5ffd5b6100fc610277565b60405161010991906107b2565b60405180910390f35b610125610120366004610802565b610307565b6040519015158152602001610109565b6002545b604051908152602001610109565b61012561015536600461082a565b610320565b60405160ff7f0000000000000000000000000000000000000000000000000000000000000000168152602001610109565b61019e610199366004610802565b610343565b005b61019e6101ae366004610864565b610359565b6101396101c136600461087b565b6001600160a01b03165f9081526020819052604090205490565b61019e610366565b61019e6101f1366004610802565b610379565b6005546040516001600160a01b039091168152602001610109565b6100fc61038e565b610125610227366004610802565b61039d565b61013961023a36600461089b565b6001600160a01b039182165f90815260016020908152604080832093909416825291909152205490565b61019e61027236600461087b565b6103aa565b606060038054610286906108cc565b80601f01602080910402602001604051908101604052809291908181526020018280546102b2906108cc565b80156102fd5780601f106102d4576101008083540402835291602001916102fd565b820191905f5260205f20905b8154815290600101906020018083116102e057829003601f168201915b5050505050905090565b5f336103148185856103e9565b60019150505b92915050565b5f3361032d8582856103fb565b610338858585610477565b506001949350505050565b61034b6104d4565b6103558282610501565b5050565b6103633382610535565b50565b61036e6104d4565b6103775f610569565b565b6103848233836103fb565b6103558282610535565b606060048054610286906108cc565b5f33610314818585610477565b6103b26104d4565b6001600160a01b0381166103e057604051631e4fbdf760e01b81525f60048201526024015b60405180910390fd5b61036381610569565b6103f683838360016105ba565b505050565b6001600160a01b038381165f908152600160209081526040808320938616835292905220545f19811015610471578181101561046357604051637dc7a0d960e11b81526001600160a01b038416600482015260248101829052604481018390526064016103d7565b61047184848484035f6105ba565b50505050565b6001600160a01b0383166104a057604051634b637e8f60e11b81525f60048201526024016103d7565b6001600160a01b0382166104c95760405163ec442f0560e01b81525f60048201526024016103d7565b6103f683838361068c565b6005546001600160a01b031633146103775760405163118cdaa760e01b81523360048201526024016103d7565b6001600160a01b03821661052a5760405163ec442f0560e01b81525f60048201526024016103d7565b6103555f838361068c565b6001600160a01b03821661055e57604051634b637e8f60e11b81525f60048201526024016103d7565b610355825f8361068c565b600580546001600160a01b038381166001600160a01b0319831681179093556040519116919082907f8be0079c531659141344cd1fd0a4f28419497f9722a3daafe3b4186f6b6457e0905f90a35050565b6001600160a01b0384166105e35760405163e602df0560e01b81525f60048201526024016103d7565b6001600160a01b03831661060c57604051634a1406b160e11b81525f60048201526024016103d7565b6001600160a01b038085165f908152600160209081526040808320938716835292905220829055801561047157826001600160a01b0316846001600160a01b03167f8c5be1e5ebec7d5bd14f71427d1e84f3dd0314c0f7b2291e5b200ac8c7c3b9258460405161067e91815260200190565b60405180910390a350505050565b6001600160a01b0383166106b6578060025f8282546106ab9190610904565b909155506107269050565b6001600160a01b0383165f90815260208190526040902054818110156107085760405163391434e360e21b81526001600160a01b038516600482015260248101829052604481018390526064016103d7565b6001600160a01b0384165f9081526020819052604090209082900390555b6001600160a01b03821661074257600280548290039055610760565b6001600160a01b0382165f9081526020819052604090208054820190555b816001600160a01b0316836001600160a01b03167fddf252ad1be2c89b69c2b068fc378daa952ba7f163c4a11628f55a4df523b3ef836040516107a591815260200190565b60405180910390a3505050565b602081525f82518060208401528060208501604085015e5f604082850101526040601f19601f83011684010191505092915050565b80356001600160a01b03811681146107fd575f5ffd5b919050565b5f5f60408385031215610813575f5ffd5b61081c836107e7565b946020939093013593505050565b5f5f5f6060848603121561083c575f5ffd5b610845846107e7565b9250610853602085016107e7565b929592945050506040919091013590565b5f60208284031215610874575f5ffd5b5035919050565b5f6020828403121561088b575f5ffd5b610894826107e7565b9392505050565b5f5f604083850312156108ac575f5ffd5b6108b5836107e7565b91506108c3602084016107e7565b90509250929050565b600181811c908216806108e057607f821691505b6020821081036108fe57634e487b7160e01b5f52602260045260245ffd5b50919050565b8082018082111561031a57634e487b7160e01b5f52601160045260245ffdfea2646970667358221220083b5f6879f4bb5f859e3b24a73111eeeeeecff4f717d79b5008b7faf28ea8c864736f6c63430008210033000000000000000000000000000000000000000000000000000000000000008000000000000000000000000000000000000000000000000000000000000000c000000000000000000000000000000000000000000000000000000000000000060000000000000000000000002738f38fde510743e0c589415e0598c4cee6eaa700000000000000000000000000000000000000000000000000000000000000104d656e746f204d6f636b205553445430000000000000000000000000000000000000000000000000000000000000000000000000000000000000000000000005555344543000000000000000000000000000000000000000000000000000000000000000000000",
        "nonce": "0x13a",
        "chainId": "0x279f"
      },
      "additionalContracts": [
        {
          "transactionType": "CREATE2",
          "contractName": null,
          "address": "0x08d2271ff7decd680f0badd5b6000794e55a1aee",
          "initCode": "0x67363d3d37363d34f03d5260086018f3"
        },
        {
          "transactionType": "CREATE",
          "contractName": "MockERC20",
          "address": "0xc304ee1876c32d1a194558b1000be4842f960df9",
          "initCode": "0x60a060405234801561000f575f5ffd5b50604051610cd9380380610cd983398101604081905261002e91610181565b808484600361003d83826102aa565b50600461004a82826102aa565b5050506001600160a01b03811661007a57604051631e4fbdf760e01b81525f600482015260240160405180910390fd5b61008381610093565b505060ff16608052506103689050565b600580546001600160a01b038381166001600160a01b0319831681179093556040519116919082907f8be0079c531659141344cd1fd0a4f28419497f9722a3daafe3b4186f6b6457e0905f90a35050565b634e487b7160e01b5f52604160045260245ffd5b5f82601f830112610107575f5ffd5b81516001600160401b03811115610120576101206100e4565b604051601f8201601f19908116603f011681016001600160401b038111828210171561014e5761014e6100e4565b604052818152838201602001851015610165575f5ffd5b8160208501602083015e5f918101602001919091529392505050565b5f5f5f5f60808587031215610194575f5ffd5b84516001600160401b038111156101a9575f5ffd5b6101b5878288016100f8565b602087015190955090506001600160401b038111156101d2575f5ffd5b6101de878288016100f8565b935050604085015160ff811681146101f4575f5ffd5b60608601519092506001600160a01b0381168114610210575f5ffd5b939692955090935050565b600181811c9082168061022f57607f821691505b60208210810361024d57634e487b7160e01b5f52602260045260245ffd5b50919050565b601f8211156102a557828211156102a557805f5260205f20601f840160051c602085101561027e57505f5b90810190601f840160051c035f5b818110156102a1575f8382015560010161028c565b5050505b505050565b81516001600160401b038111156102c3576102c36100e4565b6102d7816102d1845461021b565b84610253565b6020601f821160018114610309575f83156102f25750848201515b5f19600385901b1c1916600184901b178455610361565b5f84815260208120601f198516915b828110156103385787850151825560209485019460019092019101610318565b508482101561035557868401515f19600387901b60f8161c191681555b505060018360011b0184555b5050505050565b6080516109596103805f395f61016101526109595ff3fe608060405234801561000f575f5ffd5b50600436106100f0575f3560e01c806370a082311161009357806395d89b411161006357806395d89b4114610211578063a9059cbb14610219578063dd62ed3e1461022c578063f2fde38b14610264575f5ffd5b806370a08231146101b3578063715018a6146101db57806379cc6790146101e35780638da5cb5b146101f6575f5ffd5b806323b872dd116100ce57806323b872dd14610147578063313ce5671461015a57806340c10f191461018b57806342966c68146101a0575f5ffd5b806306fdde03146100f4578063095ea7b31461011257806318160ddd14610135575b5f5ffd5b6100fc610277565b60405161010991906107b2565b60405180910390f35b610125610120366004610802565b610307565b6040519015158152602001610109565b6002545b604051908152602001610109565b61012561015536600461082a565b610320565b60405160ff7f0000000000000000000000000000000000000000000000000000000000000000168152602001610109565b61019e610199366004610802565b610343565b005b61019e6101ae366004610864565b610359565b6101396101c136600461087b565b6001600160a01b03165f9081526020819052604090205490565b61019e610366565b61019e6101f1366004610802565b610379565b6005546040516001600160a01b039091168152602001610109565b6100fc61038e565b610125610227366004610802565b61039d565b61013961023a36600461089b565b6001600160a01b039182165f90815260016020908152604080832093909416825291909152205490565b61019e61027236600461087b565b6103aa565b606060038054610286906108cc565b80601f01602080910402602001604051908101604052809291908181526020018280546102b2906108cc565b80156102fd5780601f106102d4576101008083540402835291602001916102fd565b820191905f5260205f20905b8154815290600101906020018083116102e057829003601f168201915b5050505050905090565b5f336103148185856103e9565b60019150505b92915050565b5f3361032d8582856103fb565b610338858585610477565b506001949350505050565b61034b6104d4565b6103558282610501565b5050565b6103633382610535565b50565b61036e6104d4565b6103775f610569565b565b6103848233836103fb565b6103558282610535565b606060048054610286906108cc565b5f33610314818585610477565b6103b26104d4565b6001600160a01b0381166103e057604051631e4fbdf760e01b81525f60048201526024015b60405180910390fd5b61036381610569565b6103f683838360016105ba565b505050565b6001600160a01b038381165f908152600160209081526040808320938616835292905220545f19811015610471578181101561046357604051637dc7a0d960e11b81526001600160a01b038416600482015260248101829052604481018390526064016103d7565b61047184848484035f6105ba565b50505050565b6001600160a01b0383166104a057604051634b637e8f60e11b81525f60048201526024016103d7565b6001600160a01b0382166104c95760405163ec442f0560e01b81525f60048201526024016103d7565b6103f683838361068c565b6005546001600160a01b031633146103775760405163118cdaa760e01b81523360048201526024016103d7565b6001600160a01b03821661052a5760405163ec442f0560e01b81525f60048201526024016103d7565b6103555f838361068c565b6001600160a01b03821661055e57604051634b637e8f60e11b81525f60048201526024016103d7565b610355825f8361068c565b600580546001600160a01b038381166001600160a01b0319831681179093556040519116919082907f8be0079c531659141344cd1fd0a4f28419497f9722a3daafe3b4186f6b6457e0905f90a35050565b6001600160a01b0384166105e35760405163e602df0560e01b81525f60048201526024016103d7565b6001600160a01b03831661060c57604051634a1406b160e11b81525f60048201526024016103d7565b6001600160a01b038085165f908152600160209081526040808320938716835292905220829055801561047157826001600160a01b0316846001600160a01b03167f8c5be1e5ebec7d5bd14f71427d1e84f3dd0314c0f7b2291e5b200ac8c7c3b9258460405161067e91815260200190565b60405180910390a350505050565b6001600160a01b0383166106b6578060025f8282546106ab9190610904565b909155506107269050565b6001600160a01b0383165f90815260208190526040902054818110156107085760405163391434e360e21b81526001600160a01b038516600482015260248101829052604481018390526064016103d7565b6001600160a01b0384165f9081526020819052604090209082900390555b6001600160a01b03821661074257600280548290039055610760565b6001600160a01b0382165f9081526020819052604090208054820190555b816001600160a01b0316836001600160a01b03167fddf252ad1be2c89b69c2b068fc378daa952ba7f163c4a11628f55a4df523b3ef836040516107a591815260200190565b60405180910390a3505050565b602081525f82518060208401528060208501604085015e5f604082850101526040601f19601f83011684010191505092915050565b80356001600160a01b03811681146107fd575f5ffd5b919050565b5f5f60408385031215610813575f5ffd5b61081c836107e7565b946020939093013593505050565b5f5f5f6060848603121561083c575f5ffd5b610845846107e7565b9250610853602085016107e7565b929592945050506040919091013590565b5f60208284031215610874575f5ffd5b5035919050565b5f6020828403121561088b575f5ffd5b610894826107e7565b9392505050565b5f5f604083850312156108ac575f5ffd5b6108b5836107e7565b91506108c3602084016107e7565b90509250929050565b600181811c908216806108e057607f821691505b6020821081036108fe57634e487b7160e01b5f52602260045260245ffd5b50919050565b8082018082111561031a57634e487b7160e01b5f52601160045260245ffdfea2646970667358221220083b5f6879f4bb5f859e3b24a73111eeeeeecff4f717d79b5008b7faf28ea8c864736f6c63430008210033000000000000000000000000000000000000000000000000000000000000008000000000000000000000000000000000000000000000000000000000000000c000000000000000000000000000000000000000000000000000000000000000060000000000000000000000002738f38fde510743e0c589415e0598c4cee6eaa700000000000000000000000000000000000000000000000000000000000000104d656e746f204d6f636b2055534454300000000000000000000000000000000000000000000000000000000000000000000000000000000000000000000000055553445430000000000000000000000000000000000000000000000000000000"
        }
      ],
      "isFixedGasLimit": false
    },
    {
      "hash": "0x9d1bdd34d8cb3bd9907027adda830be296bd33359d688125f9c768c007bcaae8",
      "transactionType": "CALL",
      "contractName": "MockERC20",
      "contractAddress": "0xc304ee1876c32d1a194558b1000be4842f960df9",
      "function": "mint(address,uint256)",
      "arguments": [
        "0x2738F38Fde510743e0c589415E0598C4ceE6eAa7",
        "1000000000000000000000000"
      ],
      "transaction": {
        "from": "0x2738f38fde510743e0c589415e0598c4cee6eaa7",
        "to": "0xc304ee1876c32d1a194558b1000be4842f960df9",
        "gas": "0x7302",
        "value": "0x0",
        "input": "0x40c10f190000000000000000000000002738f38fde510743e0c589415e0598c4cee6eaa700000000000000000000000000000000000000000000d3c21bcecceda1000000",
        "nonce": "0x13b",
        "chainId": "0x279f"
      },
      "additionalContracts": [],
      "isFixedGasLimit": false
    },
    {
      "hash": "0xe8c68098c36289e090e12af00a4d823405e939af878537a1e9e3ce37898252a7",
      "transactionType": "CALL",
      "contractName": "MockERC20",
      "contractAddress": "0xc304ee1876c32d1a194558b1000be4842f960df9",
      "function": "transferOwnership(address)",
      "arguments": [
        "0x2738F38Fde510743e0c589415E0598C4ceE6eAa7"
      ],
      "transaction": {
        "from": "0x2738f38fde510743e0c589415e0598c4cee6eaa7",
        "to": "0xc304ee1876c32d1a194558b1000be4842f960df9",
        "gas": "0x703a",
        "value": "0x0",
        "input": "0xf2fde38b0000000000000000000000002738f38fde510743e0c589415e0598c4cee6eaa7",
        "nonce": "0x13c",
        "chainId": "0x279f"
      },
      "additionalContracts": [],
      "isFixedGasLimit": false
    }
  ],
  "receipts": [
    {
      "type": "0x2",
      "status": "0x1",
      "cumulativeGasUsed": "0x4879a",
      "logs": [
        {
          "address": "0x502e67d3fe9302a5e4ec1cfcddbd6f34f9b9484b",
          "topics": [
            "0xddf252ad1be2c89b69c2b068fc378daa952ba7f163c4a11628f55a4df523b3ef",
            "0x0000000000000000000000000000000000000000000000000000000000000000",
            "0x0000000000000000000000002738f38fde510743e0c589415e0598c4cee6eaa7"
          ],
          "data": "0x00000000000000000000000000000000000000000000d3c21bcecceda1000000",
          "blockHash": "0xf915a70e721043ab3c9eb749bb1b34203a7eb43a23b65637e5fa5dd0f5f763cc",
          "blockNumber": "0x1421aac",
          "blockTimestamp": "0x69c3cff2",
          "transactionHash": "0x9a9ef7f2a1ea130f13678172bd381e2cee620734928fb51f9e0ff8a1e94e8491",
          "transactionIndex": "0x2",
          "logIndex": "0x5",
          "removed": false
        }
      ],
      "logsBloom": "0x00000000200000000000000000000000000000000000000000000000000000000000000040000000000000000000000000000000000000000000200000000000002000000000000000000008000000000000000000000000000000000000000000000000020000000000000000000800000000000000000000000010000000000000000000000000000000000000000000000000000000000000000000000010000000000000000000000000000000000000000000000000000000000000000000000802000000000000000000000000000000000000000000000000000020000000000000000000000000000000000000000000000000000000000000000000",
      "transactionHash": "0x9a9ef7f2a1ea130f13678172bd381e2cee620734928fb51f9e0ff8a1e94e8491",
      "transactionIndex": "0x2",
      "blockHash": "0xf915a70e721043ab3c9eb749bb1b34203a7eb43a23b65637e5fa5dd0f5f763cc",
      "blockNumber": "0x1421aac",
      "gasUsed": "0x11889",
      "effectiveGasPrice": "0x1c7f9bc7ff",
      "from": "0x2738f38fde510743e0c589415e0598c4cee6eaa7",
      "to": "0x502e67d3fe9302a5e4ec1cfcddbd6f34f9b9484b",
      "contractAddress": null
    },
    {
      "type": "0x2",
      "status": "0x1",
      "cumulativeGasUsed": "0x28b33e",
      "logs": [
        {
          "address": "0x502e67d3fe9302a5e4ec1cfcddbd6f34f9b9484b",
          "topics": [
            "0x8be0079c531659141344cd1fd0a4f28419497f9722a3daafe3b4186f6b6457e0",
            "0x0000000000000000000000002738f38fde510743e0c589415e0598c4cee6eaa7",
            "0x0000000000000000000000002738f38fde510743e0c589415e0598c4cee6eaa7"
          ],
          "data": "0x",
          "blockHash": "0x6c3baf606418afe352eea90cb00d605d5f8f54b22ab9a9ee71199c17fd263d51",
          "blockNumber": "0x1421ab1",
          "blockTimestamp": "0x69c3cff4",
          "transactionHash": "0x2ec58d98cd71442e7b40dd54e254ae75f3973dc045e65331cae5853f67661dd8",
          "transactionIndex": "0x4",
          "logIndex": "0x1b",
          "removed": false
        }
      ],
      "logsBloom": "0x00000000200000000000000000000000000000000000000000800000000000000000000040000000000000000000000000000000000000000000200000000000002000000000000000000000000000000001000000000000000000000000000000000000000000000000000000000000000000000000000000000000000000400000000000000000000000000000000000000000000000000000000000000010000000000000000000000000000000000000000000000000000000000000000000000800000000000000000000000000000000000000000000000000000000000000000000000000000000000000000000000000000000000000000000000000",
      "transactionHash": "0x2ec58d98cd71442e7b40dd54e254ae75f3973dc045e65331cae5853f67661dd8",
      "transactionIndex": "0x4",
      "blockHash": "0x6c3baf606418afe352eea90cb00d605d5f8f54b22ab9a9ee71199c17fd263d51",
      "blockNumber": "0x1421ab1",
      "gasUsed": "0xa550",
      "effectiveGasPrice": "0x1c7f9bc7ff",
      "from": "0x2738f38fde510743e0c589415e0598c4cee6eaa7",
      "to": "0x502e67d3fe9302a5e4ec1cfcddbd6f34f9b9484b",
      "contractAddress": null
    },
    {
      "type": "0x2",
      "status": "0x1",
      "cumulativeGasUsed": "0x33525b",
      "logs": [
        {
          "address": "0xba5ed099633d3b313e4d5f7bdc1305d3c28ba5ed",
          "topics": [
            "0x2feea65dd4e9f9cbd86b74b7734210c59a1b2981b5b137bd0ee3e208200c9067",
            "0x00000000000000000000000008d2271ff7decd680f0badd5b6000794e55a1aee",
            "0x385203a3c05cc151eb946ccc0abef4da73b50208eade5cb33eb056ceee8d9b6a"
          ],
          "data": "0x",
          "blockHash": "0x97ae7c4ae5e08044ca0962acc3436dd95c8b9c648dec078489450ec4422ed24e",
          "blockNumber": "0x1421ab6",
          "blockTimestamp": "0x69c3cff6",
          "transactionHash": "0xe88e67665ba372437efbdcbb11e66518d9dba6e212d3c4a705eba5c62c696274",
          "transactionIndex": "0x3",
          "logIndex": "0x17",
          "removed": false
        },
        {
          "address": "0xc304ee1876c32d1a194558b1000be4842f960df9",
          "topics": [
            "0x8be0079c531659141344cd1fd0a4f28419497f9722a3daafe3b4186f6b6457e0",
            "0x0000000000000000000000000000000000000000000000000000000000000000",
            "0x0000000000000000000000002738f38fde510743e0c589415e0598c4cee6eaa7"
          ],
          "data": "0x",
          "blockHash": "0x97ae7c4ae5e08044ca0962acc3436dd95c8b9c648dec078489450ec4422ed24e",
          "blockNumber": "0x1421ab6",
          "blockTimestamp": "0x69c3cff6",
          "transactionHash": "0xe88e67665ba372437efbdcbb11e66518d9dba6e212d3c4a705eba5c62c696274",
          "transactionIndex": "0x3",
          "logIndex": "0x18",
          "removed": false
        },
        {
          "address": "0xba5ed099633d3b313e4d5f7bdc1305d3c28ba5ed",
          "topics": [
            "0x4db17dd5e4732fb6da34a148104a592783ca119a1e7bb8829eba6cbadef0b511",
            "0x000000000000000000000000c304ee1876c32d1a194558b1000be4842f960df9"
          ],
          "data": "0x",
          "blockHash": "0x97ae7c4ae5e08044ca0962acc3436dd95c8b9c648dec078489450ec4422ed24e",
          "blockNumber": "0x1421ab6",
          "blockTimestamp": "0x69c3cff6",
          "transactionHash": "0xe88e67665ba372437efbdcbb11e66518d9dba6e212d3c4a705eba5c62c696274",
          "transactionIndex": "0x3",
          "logIndex": "0x19",
          "removed": false
        }
      ],
      "logsBloom": "0x00020000000000000000000000000000000000100000000000800000200000000000000000020000000000000000000000000200000004000000000000000000002008000000000000000000020000000001000000000000000000000000000000000000020000000000000000000800000000000020000000000000000000400000000000000000000000000000000000000000000000000000004000004010000000000010000200000000000000000000800000000000000040000000000000000800000000000200000000000000000000002000020000000000000020000000000000000200000000080000000000000000000400000000000000000000",
      "transactionHash": "0xe88e67665ba372437efbdcbb11e66518d9dba6e212d3c4a705eba5c62c696274",
      "transactionIndex": "0x3",
      "blockHash": "0x97ae7c4ae5e08044ca0962acc3436dd95c8b9c648dec078489450ec4422ed24e",
      "blockNumber": "0x1421ab6",
      "gasUsed": "0xeb35b",
      "effectiveGasPrice": "0x1c7f9bc7ff",
      "from": "0x2738f38fde510743e0c589415e0598c4cee6eaa7",
      "to": "0xba5ed099633d3b313e4d5f7bdc1305d3c28ba5ed",
      "contractAddress": null
    },
    {
      "type": "0x2",
      "status": "0x1",
      "cumulativeGasUsed": "0x29d4d2",
      "logs": [
        {
          "address": "0xc304ee1876c32d1a194558b1000be4842f960df9",
          "topics": [
            "0xddf252ad1be2c89b69c2b068fc378daa952ba7f163c4a11628f55a4df523b3ef",
            "0x0000000000000000000000000000000000000000000000000000000000000000",
            "0x0000000000000000000000002738f38fde510743e0c589415e0598c4cee6eaa7"
          ],
          "data": "0x00000000000000000000000000000000000000000000d3c21bcecceda1000000",
          "blockHash": "0xf4c1e648d85df6f8b299651c11ca1d192d66d08155bbfb412a23d741a56ff669",
          "blockNumber": "0x1421aba",
          "blockTimestamp": "0x69c3cff7",
          "transactionHash": "0x9d1bdd34d8cb3bd9907027adda830be296bd33359d688125f9c768c007bcaae8",
          "transactionIndex": "0x4",
          "logIndex": "0x1b",
          "removed": false
        }
      ],
      "logsBloom": "0x00000000000000000000000000000000000000100000000000000000000000000000000000000000000000000000000000000000000000000000000000000000002000000000000000000008000000000000000000000000000000000000000000000000020000000000000000000800000000000000000000000010000000000000000000000000000000000000000000000000000000000000000000000010000000000000000000000000000000000000000000000000000040000000000000000802000000000000000000000000000000000000000000000000000020000000000000000000000000000000000000000000000400000000000000000000",
      "transactionHash": "0x9d1bdd34d8cb3bd9907027adda830be296bd33359d688125f9c768c007bcaae8",
      "transactionIndex": "0x4",
      "blockHash": "0xf4c1e648d85df6f8b299651c11ca1d192d66d08155bbfb412a23d741a56ff669",
      "blockNumber": "0x1421aba",
      "gasUsed": "0x1c6e6",
      "effectiveGasPrice": "0x1c7f9bc7ff",
      "from": "0x2738f38fde510743e0c589415e0598c4cee6eaa7",
      "to": "0xc304ee1876c32d1a194558b1000be4842f960df9",
      "contractAddress": null
    },
    {
      "type": "0x2",
      "status": "0x1",
      "cumulativeGasUsed": "0x4139b",
      "logs": [
        {
          "address": "0xc304ee1876c32d1a194558b1000be4842f960df9",
          "topics": [
            "0x8be0079c531659141344cd1fd0a4f28419497f9722a3daafe3b4186f6b6457e0",
            "0x0000000000000000000000002738f38fde510743e0c589415e0598c4cee6eaa7",
            "0x0000000000000000000000002738f38fde510743e0c589415e0598c4cee6eaa7"
          ],
          "data": "0x",
          "blockHash": "0xd69c14fdef4ce48f4b8305af1776e1295669273194765a8719b98e46039c38d9",
          "blockNumber": "0x1421abf",
          "blockTimestamp": "0x69c3cff9",
          "transactionHash": "0xe8c68098c36289e090e12af00a4d823405e939af878537a1e9e3ce37898252a7",
          "transactionIndex": "0x2",
          "logIndex": "0x5",
          "removed": false
        }
      ],
      "logsBloom": "0x00000000000000000000000000000000000000100000000000800000000000000000000000000000000000000000000000000000000000000000000000000000002000000000000000000000000000000001000000000000000000000000000000000000000000000000000000000000000000000000000000000000000000400000000000000000000000000000000000000000000000000000000000000010000000000000000000000000000000000000000000000000000040000000000000000800000000000000000000000000000000000000000000000000000000000000000000000000000000000000000000000000000400000000000000000000",
      "transactionHash": "0xe8c68098c36289e090e12af00a4d823405e939af878537a1e9e3ce37898252a7",
      "transactionIndex": "0x2",
      "blockHash": "0xd69c14fdef4ce48f4b8305af1776e1295669273194765a8719b98e46039c38d9",
      "blockNumber": "0x1421abf",
      "gasUsed": "0xa550",
      "effectiveGasPrice": "0x1c7f9bc7ff",
      "from": "0x2738f38fde510743e0c589415e0598c4cee6eaa7",
      "to": "0xc304ee1876c32d1a194558b1000be4842f960df9",
      "contractAddress": null
    }
  ],
  "libraries": [
    "lib/mento-core/node_modules/@celo/contracts/common/linkedlists/AddressSortedLinkedListWithMedian.sol:AddressSortedLinkedListWithMedian:0x8E1B1312EC92C9f8073296c4Cf1E60D31d228269"
  ],
  "pending": [],
  "returns": {},
  "timestamp": 1774440443355,
  "chain": 10143,
  "commit": "7041277"
}