{
  "transactions": [
    {
      "hash": "0x2fa1cf2ce88ff7eeee102d692b3cbf0901fd7b40a2842e1c18569ac8f6a39ab2",
      "transactionType": "CALL",
      "contractName": null,
      "contractAddress": "0xecb3c656c131fcd9bb8d1d80898716bd684feb78",
      "function": "destroyExchange(bytes32,uint256)",
      "arguments": [
        "0xc9664df358594c5eaf2f410ab371e2deb8b532ca26162d2bc36d99b8d174567b",
        "18"
      ],
      "transaction": {
        "from": "0x56fd3f2bee130e9867942d0f463a16fbe49b8d81",
        "to": "0xecb3c656c131fcd9bb8d1d80898716bd684feb78",
        "gas": "0x1a753",
        "value": "0x0",
        "input": "0xe46eb5b6c9664df358594c5eaf2f410ab371e2deb8b532ca26162d2bc36d99b8d174567b0000000000000000000000000000000000000000000000000000000000000012",
        "nonce": "0x7bc",
        "chainId": "0xaa044c"
      },
      "additionalContracts": [],
      "isFixedGasLimit": false
    },
    {
      "hash": "0xa02c39ebfda5d156796a6c51e426966ca51568580ed3d9e4af35e6e2859f740a",
      "transactionType": "CALL",
      "contractName": null,
      "contractAddress": "0xecb3c656c131fcd9bb8d1d80898716bd684feb78",
      "function": "destroyExchange(bytes32,uint256)",
      "arguments": [
        "0x7952984d7278ca3417febf52815c321984ac3147ced2c02bb6a02b0bcab08413",
        "17"
      ],
      "transaction": {
        "from": "0x56fd3f2bee130e9867942d0f463a16fbe49b8d81",
        "to": "0xecb3c656c131fcd9bb8d1d80898716bd684feb78",
        "gas": "0x1a753",
        "value": "0x0",
        "input": "0xe46eb5b67952984d7278ca3417febf52815c321984ac3147ced2c02bb6a02b0bcab084130000000000000000000000000000000000000000000000000000000000000011",
        "nonce": "0x7bd",
        "chainId": "0xaa044c"
      },
      "additionalContracts": [],
      "isFixedGasLimit": false
    },
    {
      "hash": "0x6a66f845f447eef9ba48c983cd430378c34908b2edc521a1d292ff5cdeb4cb22",
      "transactionType": "CALL",
      "contractName": null,
      "contractAddress": "0xecb3c656c131fcd9bb8d1d80898716bd684feb78",
      "function": "destroyExchange(bytes32,uint256)",
      "arguments": [
        "0x89de88b8eb790de26f4649f543cb6893d93635c728ac857f0926e842fb0d298b",
        "16"
      ],
      "transaction": {
        "from": "0x56fd3f2bee130e9867942d0f463a16fbe49b8d81",
        "to": "0xecb3c656c131fcd9bb8d1d80898716bd684feb78",
        "gas": "0x1a753",
        "value": "0x0",
        "input": "0xe46eb5b689de88b8eb790de26f4649f543cb6893d93635c728ac857f0926e842fb0d298b0000000000000000000000000000000000000000000000000000000000000010",
        "nonce": "0x7be",
        "chainId": "0xaa044c"
      },
      "additionalContracts": [],
      "isFixedGasLimit": false
    },
    {
      "hash": "0xd826ac26ddde1680920dfac1e8050d94123b93e8bb9958271731f67d06d89e3b",
      "transactionType": "CALL",
      "contractName": null,
      "contractAddress": "0xecb3c656c131fcd9bb8d1d80898716bd684feb78",
      "function": "destroyExchange(bytes32,uint256)",
      "arguments": [
        "0x67a5122dab72931be57196e0abba81690461f327bc60fb98ca7eef0ac58906cc",
        "15"
      ],
      "transaction": {
        "from": "0x56fd3f2bee130e9867942d0f463a16fbe49b8d81",
        "to": "0xecb3c656c131fcd9bb8d1d80898716bd684feb78",
        "gas": "0x1a753",
        "value": "0x0",
        "input": "0xe46eb5b667a5122dab72931be57196e0abba81690461f327bc60fb98ca7eef0ac58906cc000000000000000000000000000000000000000000000000000000000000000f",
        "nonce": "0x7bf",
        "chainId": "0xaa044c"
      },
      "additionalContracts": [],
      "isFixedGasLimit": false
    },
    {
      "hash": "0xe77865958ef90335adb7b73ee296dd3a062b2ef244fb1e5833fdbd39831ec82f",
      "transactionType": "CALL",
      "contractName": null,
      "contractAddress": "0xecb3c656c131fcd9bb8d1d80898716bd684feb78",
      "function": "destroyExchange(bytes32,uint256)",
      "arguments": [
        "0x3562f9d29eba092b857480a82b03375839c752346b9ebe93a57ab82410328187",
        "14"
      ],
      "transaction": {
        "from": "0x56fd3f2bee130e9867942d0f463a16fbe49b8d81",
        "to": "0xecb3c656c131fcd9bb8d1d80898716bd684feb78",
        "gas": "0x1a753",
        "value": "0x0",
        "input": "0xe46eb5b63562f9d29eba092b857480a82b03375839c752346b9ebe93a57ab82410328187000000000000000000000000000000000000000000000000000000000000000e",
        "nonce": "0x7c0",
        "chainId": "0xaa044c"
      },
      "additionalContracts": [],
      "isFixedGasLimit": false
    },
    {
      "hash": "0xedb3acc13812a7f89cb53761392f36c78b32e02de2d5cf10812b0a9cd04bfb14",
      "transactionType": "CALL",
      "contractName": null,
      "contractAddress": "0xecb3c656c131fcd9bb8d1d80898716bd684feb78",
      "function": "destroyExchange(bytes32,uint256)",
      "arguments": [
        "0xd11d52b973ddbb983cc2087aabcafd915fc3140cf9996aacc61db9710d1bde05",
        "13"
      ],
      "transaction": {
        "from": "0x56fd3f2bee130e9867942d0f463a16fbe49b8d81",
        "to": "0xecb3c656c131fcd9bb8d1d80898716bd684feb78",
        "gas": "0x1a753",
        "value": "0x0",
        "input": "0xe46eb5b6d11d52b973ddbb983cc2087aabcafd915fc3140cf9996aacc61db9710d1bde05000000000000000000000000000000000000000000000000000000000000000d",
        "nonce": "0x7c1",
        "chainId": "0xaa044c"
      },
      "additionalContracts": [],
      "isFixedGasLimit": false
    },
    {
      "hash": "0x3f7608047336f194e3b44a3e6389961fb4ac0cac7a7772d8f096d0565b438536",
      "transactionType": "CALL",
      "contractName": null,
      "contractAddress": "0xecb3c656c131fcd9bb8d1d80898716bd684feb78",
      "function": "destroyExchange(bytes32,uint256)",
      "arguments": [
        "0x1c9378bd0973ff313a599d3effc654ba759f8ccca655ab6d6ce5bd39a212943b",
        "12"
      ],
      "transaction": {
        "from": "0x56fd3f2bee130e9867942d0f463a16fbe49b8d81",
        "to": "0xecb3c656c131fcd9bb8d1d80898716bd684feb78",
        "gas": "0x1a753",
        "value": "0x0",
        "input": "0xe46eb5b61c9378bd0973ff313a599d3effc654ba759f8ccca655ab6d6ce5bd39a212943b000000000000000000000000000000000000000000000000000000000000000c",
        "nonce": "0x7c2",
        "chainId": "0xaa044c"
      },
      "additionalContracts": [],
      "isFixedGasLimit": false
    },
    {
      "hash": "0xad18fde63f6e0844c7afd97a6860eaf6099524d957c6b705b818ae2e1c2d6e30",
      "transactionType": "CALL",
      "contractName": null,
      "contractAddress": "0xecb3c656c131fcd9bb8d1d80898716bd684feb78",
      "function": "destroyExchange(bytes32,uint256)",
      "arguments": [
        "0x7c3b41fbd140c6fb54ff9f8f7b7b0c954606682d44ed5e56b0080f40faaf652c",
        "11"
      ],
      "transaction": {
        "from": "0x56fd3f2bee130e9867942d0f463a16fbe49b8d81",
        "to": "0xecb3c656c131fcd9bb8d1d80898716bd684feb78",
        "gas": "0x1a753",
        "value": "0x0",
        "input": "0xe46eb5b67c3b41fbd140c6fb54ff9f8f7b7b0c954606682d44ed5e56b0080f40faaf652c000000000000000000000000000000000000000000000000000000000000000b",
        "nonce": "0x7c3",
        "chainId": "0xaa044c"
      },
      "additionalContracts": [],
      "isFixedGasLimit": false
    },
    {
      "hash": "0x1e3d166cb99bdcfae3a160a85733e76cef2866137e0f68e01929e95a099b5c84",
      "transactionType": "CALL",
      "contractName": null,
      "contractAddress": "0xecb3c656c131fcd9bb8d1d80898716bd684feb78",
      "function": "destroyExchange(bytes32,uint256)",
      "arguments": [
        "0x3ddbc61433314a4b7d3cbb56a001fc4cc0f1d52d64338336d5f2083a580ce4fc",
        "10"
      ],
      "transaction": {
        "from": "0x56fd3f2bee130e9867942d0f463a16fbe49b8d81",
        "to": "0xecb3c656c131fcd9bb8d1d80898716bd684feb78",
        "gas": "0x1a753",
        "value": "0x0",
        "input": "0xe46eb5b63ddbc61433314a4b7d3cbb56a001fc4cc0f1d52d64338336d5f2083a580ce4fc000000000000000000000000000000000000000000000000000000000000000a",
        "nonce": "0x7c4",
        "chainId": "0xaa044c"
      },
      "additionalContracts": [],
      "isFixedGasLimit": false
    },
    {
      "hash": "0x6f41f93c030263478a0882d4631157d6cc552e95b480ffaba5a33d2739390eaf",
      "transactionType": "CALL",
      "contractName": null,
      "contractAddress": "0xecb3c656c131fcd9bb8d1d80898716bd684feb78",
      "function": "destroyExchange(bytes32,uint256)",
      "arguments": [
        "0x4206e101b13bf29e40b2bfed4cf167271c41677720f2ee786ac1bf5efac101cb",
        "9"
      ],
      "transaction": {
        "from": "0x56fd3f2bee130e9867942d0f463a16fbe49b8d81",
        "to": "0xecb3c656c131fcd9bb8d1d80898716bd684feb78",
        "gas": "0x1a753",
        "value": "0x0",
        "input": "0xe46eb5b64206e101b13bf29e40b2bfed4cf167271c41677720f2ee786ac1bf5efac101cb0000000000000000000000000000000000000000000000000000000000000009",
        "nonce": "0x7c5",
        "chainId": "0xaa044c"
      },
      "additionalContracts": [],
      "isFixedGasLimit": false
    },
    {
      "hash": "0xcc63c5bdf562b40ecb1b2d6354f1f282a61415eb07ee628f39751e8a55f70ea6",
      "transactionType": "CALL",
      "contractName": null,
      "contractAddress": "0xecb3c656c131fcd9bb8d1d80898716bd684feb78",
      "function": "destroyExchange(bytes32,uint256)",
      "arguments": [
        "0x6c369bfb1598b2f7718671221bc524c84874ad1ed7ba02a61121e7a06722e2ce",
        "8"
      ],
      "transaction": {
        "from": "0x56fd3f2bee130e9867942d0f463a16fbe49b8d81",
        "to": "0xecb3c656c131fcd9bb8d1d80898716bd684feb78",
        "gas": "0x1a753",
        "value": "0x0",
        "input": "0xe46eb5b66c369bfb1598b2f7718671221bc524c84874ad1ed7ba02a61121e7a06722e2ce0000000000000000000000000000000000000000000000000000000000000008",
        "nonce": "0x7c6",
        "chainId": "0xaa044c"
      },
      "additionalContracts": [],
      "isFixedGasLimit": false
    },
    {
      "hash": "0xe8e9d18983d7c45dae16d68c48032b4ffcf60b6896649deade03408163c28790",
      "transactionType": "CALL",
      "contractName": null,
      "contractAddress": "0xecb3c656c131fcd9bb8d1d80898716bd684feb78",
      "function": "destroyExchange(bytes32,uint256)",
      "arguments": [
        "0x517ccc3bcab9f35e2e24143a0c1809068efc649f740846cfb6a1c5703735c1ee",
        "7"
      ],
      "transaction": {
        "from": "0x56fd3f2bee130e9867942d0f463a16fbe49b8d81",
        "to": "0xecb3c656c131fcd9bb8d1d80898716bd684feb78",
        "gas": "0x1a753",
        "value": "0x0",
        "input": "0xe46eb5b6517ccc3bcab9f35e2e24143a0c1809068efc649f740846cfb6a1c5703735c1ee0000000000000000000000000000000000000000000000000000000000000007",
        "nonce": "0x7c7",
        "chainId": "0xaa044c"
      },
      "additionalContracts": [],
      "isFixedGasLimit": false
    },
    {
      "hash": "0x213e155dc9e713dae605cd8a3ca99fa47105dd952297da3ee403dbe9cfa68d44",
      "transactionType": "CALL",
      "contractName": null,
      "contractAddress": "0xecb3c656c131fcd9bb8d1d80898716bd684feb78",
      "function": "destroyExchange(bytes32,uint256)",
      "arguments": [
        "0xd580d237231109e6a96d67d82450611c610a805a26660c90281bdc0cd04a95c7",
        "6"
      ],
      "transaction": {
        "from": "0x56fd3f2bee130e9867942d0f463a16fbe49b8d81",
        "to": "0xecb3c656c131fcd9bb8d1d80898716bd684feb78",
        "gas": "0x1a753",
        "value": "0x0",
        "input": "0xe46eb5b6d580d237231109e6a96d67d82450611c610a805a26660c90281bdc0cd04a95c70000000000000000000000000000000000000000000000000000000000000006",
        "nonce": "0x7c8",
        "chainId": "0xaa044c"
      },
      "additionalContracts": [],
      "isFixedGasLimit": false
    },
    {
      "hash": "0x2798a98ecf17a86e5496e3c72507db7d0d5fe0e509f41d7dd3878a2b3330bbd8",
      "transactionType": "CALL",
      "contractName": null,
      "contractAddress": "0xecb3c656c131fcd9bb8d1d80898716bd684feb78",
      "function": "destroyExchange(bytes32,uint256)",
      "arguments": [
        "0x746455363e8f55d04e0a2cc040d1b348a6c031b336ba6af6ae91515c194929c8",
        "5"
      ],
      "transaction": {
        "from": "0x56fd3f2bee130e9867942d0f463a16fbe49b8d81",
        "to": "0xecb3c656c131fcd9bb8d1d80898716bd684feb78",
        "gas": "0x1a753",
        "value": "0x0",
        "input": "0xe46eb5b6746455363e8f55d04e0a2cc040d1b348a6c031b336ba6af6ae91515c194929c80000000000000000000000000000000000000000000000000000000000000005",
        "nonce": "0x7c9",
        "chainId": "0xaa044c"
      },
      "additionalContracts": [],
      "isFixedGasLimit": false
    },
    {
      "hash": "0x3fdd86fcfaf6b08b849d8c2b9bb81ffa2008ea6ae22e1ef000be5d406a3b5ccc",
      "transactionType": "CALL",
      "contractName": null,
      "contractAddress": "0xecb3c656c131fcd9bb8d1d80898716bd684feb78",
      "function": "destroyExchange(bytes32,uint256)",
      "arguments": [
        "0xfca6d94b46122eb9a4b86cf9d3e1e856fea8a826d0fc26c5baf17c43fbaf0f48",
        "4"
      ],
      "transaction": {
        "from": "0x56fd3f2bee130e9867942d0f463a16fbe49b8d81",
        "to": "0xecb3c656c131fcd9bb8d1d80898716bd684feb78",
        "gas": "0x1a753",
        "value": "0x0",
        "input": "0xe46eb5b6fca6d94b46122eb9a4b86cf9d3e1e856fea8a826d0fc26c5baf17c43fbaf0f480000000000000000000000000000000000000000000000000000000000000004",
        "nonce": "0x7ca",
        "chainId": "0xaa044c"
      },
      "additionalContracts": [],
      "isFixedGasLimit": false
    },
    {
      "hash": "0x2e7521754dd2c45d25c0e067d40c5920c903bd98ca0922785263de298b557893",
      "transactionType": "CALL",
      "contractName": null,
      "contractAddress": "0xecb3c656c131fcd9bb8d1d80898716bd684feb78",
      "function": "destroyExchange(bytes32,uint256)",
      "arguments": [
        "0x3135b662c38265d0655177091f1b647b4fef511103d06c016efdf18b46930d2c",
        "3"
      ],
      "transaction": {
        "from": "0x56fd3f2bee130e9867942d0f463a16fbe49b8d81",
        "to": "0xecb3c656c131fcd9bb8d1d80898716bd684feb78",
        "gas": "0x1a753",
        "value": "0x0",
        "input": "0xe46eb5b63135b662c38265d0655177091f1b647b4fef511103d06c016efdf18b46930d2c0000000000000000000000000000000000000000000000000000000000000003",
        "nonce": "0x7cb",
        "chainId": "0xaa044c"
      },
      "additionalContracts": [],
      "isFixedGasLimit": false
    },
    {
      "hash": "0x4c4214872849d751b88414cede220b0c6382240284c7e4adcbace4b98ccb251e",
      "transactionType": "CALL",
      "contractName": null,
      "contractAddress": "0xecb3c656c131fcd9bb8d1d80898716bd684feb78",
      "function": "destroyExchange(bytes32,uint256)",
      "arguments": [
        "0x36e12d20b7a59b463a1a113caf338cbad9d64ee017548d00a791681f2fbf0763",
        "2"
      ],
      "transaction": {
        "from": "0x56fd3f2bee130e9867942d0f463a16fbe49b8d81",
        "to": "0xecb3c656c131fcd9bb8d1d80898716bd684feb78",
        "gas": "0x1b360",
        "value": "0x0",
        "input": "0xe46eb5b636e12d20b7a59b463a1a113caf338cbad9d64ee017548d00a791681f2fbf07630000000000000000000000000000000000000000000000000000000000000002",
        "nonce": "0x7cc",
        "chainId": "0xaa044c"
      },
      "additionalContracts": [],
      "isFixedGasLimit": false
    },
    {
      "hash": "0xc5f6312c6094b26fd7b747be6a8b1c2024eae1329d38629894b1f7f87594aa14",
      "transactionType": "CALL",
      "contractName": null,
      "contractAddress": "0xecb3c656c131fcd9bb8d1d80898716bd684feb78",
      "function": "destroyExchange(bytes32,uint256)",
      "arguments": [
        "0x0d739efbfc30f303e8d1976c213b4040850d1af40f174f4169b846f6fd3d2f20",
        "1"
      ],
      "transaction": {
        "from": "0x56fd3f2bee130e9867942d0f463a16fbe49b8d81",
        "to": "0xecb3c656c131fcd9bb8d1d80898716bd684feb78",
        "gas": "0x19b3d",
        "value": "0x0",
        "input": "0xe46eb5b60d739efbfc30f303e8d1976c213b4040850d1af40f174f4169b846f6fd3d2f200000000000000000000000000000000000000000000000000000000000000001",
        "nonce": "0x7cd",
        "chainId": "0xaa044c"
      },
      "additionalContracts": [],
      "isFixedGasLimit": false
    },
    {
      "hash": "0xd5c69eef4afcb782b374b7ccfeaf10b909e58a3c80cad7e03a57ac39fdebc8ae",
      "transactionType": "CALL",
      "contractName": null,
      "contractAddress": "0xecb3c656c131fcd9bb8d1d80898716bd684feb78",
      "function": "destroyExchange(bytes32,uint256)",
      "arguments": [
        "0xacc988382b66ee5456086643dcfd9a5ca43dd8f428f6ef22503d8b8013bcffd7",
        "0"
      ],
      "transaction": {
        "from": "0x56fd3f2bee130e9867942d0f463a16fbe49b8d81",
        "to": "0xecb3c656c131fcd9bb8d1d80898716bd684feb78",
        "gas": "0x1b360",
        "value": "0x0",
        "input": "0xe46eb5b6acc988382b66ee5456086643dcfd9a5ca43dd8f428f6ef22503d8b8013bcffd70000000000000000000000000000000000000000000000000000000000000000",
        "nonce": "0x7ce",
        "chainId": "0xaa044c"
      },
      "additionalContracts": [],
      "isFixedGasLimit": false
    }
  ],
  "receipts": [
    {
      "status": "0x1",
      "cumulativeGasUsed": "0x23894",
      "logs": [
        {
          "address": "0xecb3c656c131fcd9bb8d1d80898716bd684feb78",
          "topics": [
            "0xadbbec6c203cb0248e89fe6d15ad651061a9d5203a1ab0273256e2b7decffa89",
            "0xc9664df358594c5eaf2f410ab371e2deb8b532ca26162d2bc36d99b8d174567b",
            "0x000000000000000000000000de9e4c3ce781b4ba68120d6261cbad65ce0ab00b",
            "0x0000000000000000000000005505b70207ae3b826c1a7607f19f3bf73444a082"
          ],
          "data": "0x0000000000000000000000003b199d9ebebe509bb711bffb455c2d79102a9602",
          "blockHash": "0x1fa3058c343ca7d530c1548fa1ae5af5e2af34e3b7c7995c8f560011ac41931e",
          "blockNumber": "0x433c82",
          "transactionHash": "0x2fa1cf2ce88ff7eeee102d692b3cbf0901fd7b40a2842e1c18569ac8f6a39ab2",
          "transactionIndex": "0x2",
          "logIndex": "0x0",
          "removed": false
        }
      ],
      "logsBloom": "0x00000000000008000000000000004000008008000000000000800000000000000100010000000000000000000000000004000000000000000004000000000000000000000000000000000000000000002000000000000000000000000000000000000000000002000000000000000000000000000000000000000000000000000000040000000000000000000000000000000000000000000000000000000040000000000000000000000000000000000000000000000000000000000000000000000000000000000000000000080000000000000000100000000000000000000000000000000000000000000000000000000000000000000000000000000000",
      "type": "0x2",
      "transactionHash": "0x2fa1cf2ce88ff7eeee102d692b3cbf0901fd7b40a2842e1c18569ac8f6a39ab2",
      "transactionIndex": "0x2",
      "blockHash": "0x1fa3058c343ca7d530c1548fa1ae5af5e2af34e3b7c7995c8f560011ac41931e",
      "blockNumber": "0x433c82",
      "gasUsed": "0x1327c",
      "effectiveGasPrice": "0x5d21dba01",
      "from": "0x56fd3f2bee130e9867942d0f463a16fbe49b8d81",
      "to": "0xecb3c656c131fcd9bb8d1d80898716bd684feb78",
      "contractAddress": null,
      "l1BaseFeeScalar": "0x0",
      "l1BlobBaseFee": "0x4df24bce",
      "l1BlobBaseFeeScalar": "0x0",
      "l1Fee": "0x0",
      "l1GasPrice": "0x43bc",
      "l1GasUsed": "0x640"
    },
    {
      "status": "0x1",
      "cumulativeGasUsed": "0x36b10",
      "logs": [
        {
          "address": "0xecb3c656c131fcd9bb8d1d80898716bd684feb78",
          "topics": [
            "0xadbbec6c203cb0248e89fe6d15ad651061a9d5203a1ab0273256e2b7decffa89",
            "0x7952984d7278ca3417febf52815c321984ac3147ced2c02bb6a02b0bcab08413",
            "0x000000000000000000000000de9e4c3ce781b4ba68120d6261cbad65ce0ab00b",
            "0x0000000000000000000000000352976d940a2c3fba0c3623198947ee1d17869e"
          ],
          "data": "0x0000000000000000000000003b199d9ebebe509bb711bffb455c2d79102a9602",
          "blockHash": "0x1fa3058c343ca7d530c1548fa1ae5af5e2af34e3b7c7995c8f560011ac41931e",
          "blockNumber": "0x433c82",
          "transactionHash": "0xa02c39ebfda5d156796a6c51e426966ca51568580ed3d9e4af35e6e2859f740a",
          "transactionIndex": "0x3",
          "logIndex": "0x1",
          "removed": false
        }
      ],
      "logsBloom": "0x00000000000000000000000000004008008008000000000100003000000000000100010000000000000000000000000000000001000000000000000000000000000000000000000000000000000000002000000000000000000000000000000000000000000002000000000000000000000000000000000000000000000000000000040000000000000000000000000000000000000000000000000000000000000000000000000000000000000000000000000000000000000000000000000000000000000000000000000000000000000000000200100000000000000000000000000000000000000000000000000000000000000000000000000000000000",
      "type": "0x2",
      "transactionHash": "0xa02c39ebfda5d156796a6c51e426966ca51568580ed3d9e4af35e6e2859f740a",
      "transactionIndex": "0x3",
      "blockHash": "0x1fa3058c343ca7d530c1548fa1ae5af5e2af34e3b7c7995c8f560011ac41931e",
      "blockNumber": "0x433c82",
      "gasUsed": "0x1327c",
      "effectiveGasPrice": "0x5d21dba01",
      "from": "0x56fd3f2bee130e9867942d0f463a16fbe49b8d81",
      "to": "0xecb3c656c131fcd9bb8d1d80898716bd684feb78",
      "contractAddress": null,
      "l1BaseFeeScalar": "0x0",
      "l1BlobBaseFee": "0x4df24bce",
      "l1BlobBaseFeeScalar": "0x0",
      "l1Fee": "0x0",
      "l1GasPrice": "0x43bc",
      "l1GasUsed": "0x640"
    },
    {
      "status": "0x1",
      "cumulativeGasUsed": "0x49d8c",
      "logs": [
        {
          "address": "0xecb3c656c131fcd9bb8d1d80898716bd684feb78",
          "topics": [
            "0xadbbec6c203cb0248e89fe6d15ad651061a9d5203a1ab0273256e2b7decffa89",
            "0x89de88b8eb790de26f4649f543cb6893d93635c728ac857f0926e842fb0d298b",
            "0x000000000000000000000000de9e4c3ce781b4ba68120d6261cbad65ce0ab00b",
            "0x000000000000000000000000c7e4635651e3e3af82b61d3e23c159438dae3bbf"
          ],
          "data": "0x0000000000000000000000003b199d9ebebe509bb711bffb455c2d79102a9602",
          "blockHash": "0x1fa3058c343ca7d530c1548fa1ae5af5e2af34e3b7c7995c8f560011ac41931e",
          "blockNumber": "0x433c82",
          "transactionHash": "0x6a66f845f447eef9ba48c983cd430378c34908b2edc521a1d292ff5cdeb4cb22",
          "transactionIndex": "0x4",
          "logIndex": "0x2",
          "removed": false
        }
      ],
      "logsBloom": "0x00000000000000000000000000004000008008000000000000000000000000000100010000000000000000000000000000000000000000000000000000000000000000000000000000000000000000002000000000000000000000000000000000000000000002000000000000000000000000000000000000000000000000000000040000000000000000000000000000000000000000000000000000040000000000000000000000000000000000000000000000000000000000000200000000000000000000000000000000000000000000000004180000000000000000000000000000000000001000000000000000000000000000200000000000000000",
      "type": "0x2",
      "transactionHash": "0x6a66f845f447eef9ba48c983cd430378c34908b2edc521a1d292ff5cdeb4cb22",
      "transactionIndex": "0x4",
      "blockHash": "0x1fa3058c343ca7d530c1548fa1ae5af5e2af34e3b7c7995c8f560011ac41931e",
      "blockNumber": "0x433c82",
      "gasUsed": "0x1327c",
      "effectiveGasPrice": "0x5d21dba01",
      "from": "0x56fd3f2bee130e9867942d0f463a16fbe49b8d81",
      "to": "0xecb3c656c131fcd9bb8d1d80898716bd684feb78",
      "contractAddress": null,
      "l1BaseFeeScalar": "0x0",
      "l1BlobBaseFee": "0x4df24bce",
      "l1BlobBaseFeeScalar": "0x0",
      "l1Fee": "0x0",
      "l1GasPrice": "0x43bc",
      "l1GasUsed": "0x640"
    },
    {
      "status": "0x1",
      "cumulativeGasUsed": "0x5d008",
      "logs": [
        {
          "address": "0xecb3c656c131fcd9bb8d1d80898716bd684feb78",
          "topics": [
            "0xadbbec6c203cb0248e89fe6d15ad651061a9d5203a1ab0273256e2b7decffa89",
            "0x67a5122dab72931be57196e0abba81690461f327bc60fb98ca7eef0ac58906cc",
            "0x000000000000000000000000de9e4c3ce781b4ba68120d6261cbad65ce0ab00b",
            "0x0000000000000000000000003d5ae86f34e2a82771496d140dafaef3789df888"
          ],
          "data": "0x0000000000000000000000003b199d9ebebe509bb711bffb455c2d79102a9602",
          "blockHash": "0x1fa3058c343ca7d530c1548fa1ae5af5e2af34e3b7c7995c8f560011ac41931e",
          "blockNumber": "0x433c82",
          "transactionHash": "0xd826ac26ddde1680920dfac1e8050d94123b93e8bb9958271731f67d06d89e3b",
          "transactionIndex": "0x5",
          "logIndex": "0x3",
          "removed": false
        }
      ],
      "logsBloom": "0x00000000000000000000000000004000008008000000000000000000000000000100010000000000000000800000000000000000000000000000000000000000000000000000000000000000000000002000000000000000000000000000000000000000000002000000000000000000000000000000000000000000000000000000040000000000000000000000000000000000000000000000000000002000000000000000000000000000000000000080000000000000000000000000000000000000000000000000000000000000000000000000100000000000000000000000400000000000000000000000000080000000000000000000000000200000",
      "type": "0x2",
      "transactionHash": "0xd826ac26ddde1680920dfac1e8050d94123b93e8bb9958271731f67d06d89e3b",
      "transactionIndex": "0x5",
      "blockHash": "0x1fa3058c343ca7d530c1548fa1ae5af5e2af34e3b7c7995c8f560011ac41931e",
      "blockNumber": "0x433c82",
      "gasUsed": "0x1327c",
      "effectiveGasPrice": "0x5d21dba01",
      "from": "0x56fd3f2bee130e9867942d0f463a16fbe49b8d81",
      "to": "0xecb3c656c131fcd9bb8d1d80898716bd684feb78",
      "contractAddress": null,
      "l1BaseFeeScalar": "0x0",
      "l1BlobBaseFee": "0x4df24bce",
      "l1BlobBaseFeeScalar": "0x0",
      "l1Fee": "0x0",
      "l1GasPrice": "0x43bc",
      "l1GasUsed": "0x640"
    },
    {
      "status": "0x1",
      "cumulativeGasUsed": "0x70284",
      "logs": [
        {
          "address": "0xecb3c656c131fcd9bb8d1d80898716bd684feb78",
          "topics": [
            "0xadbbec6c203cb0248e89fe6d15ad651061a9d5203a1ab0273256e2b7decffa89",
            "0x3562f9d29eba092b857480a82b03375839c752346b9ebe93a57ab82410328187",
            "0x000000000000000000000000de9e4c3ce781b4ba68120d6261cbad65ce0ab00b",
            "0x0000000000000000000000005e94b8c872bd47bc4255e60ecbf44d5e66e7401c"
          ],
          "data": "0x0000000000000000000000003b199d9ebebe509bb711bffb455c2d79102a9602",
          "blockHash": "0x1fa3058c343ca7d530c1548fa1ae5af5e2af34e3b7c7995c8f560011ac41931e",
          "blockNumber": "0x433c82",
          "transactionHash": "0xe77865958ef90335adb7b73ee296dd3a062b2ef244fb1e5833fdbd39831ec82f",
          "transactionIndex": "0x6",
          "logIndex": "0x4",
          "removed": false
        }
      ],
      "logsBloom": "0x00000000000000000000000000004020008008000000000000000008000000000100010000001000000000000000000000000000000000000000000000000000000000000000000000000000000000002000000000000000000000000000000000000000000002000000000000000000000000000000000000000000000000000000040000000000000000000000000000000000000000000000000000000000000000000000000000000004000000000000000000000000000000000000000000000000000000000000000000000000000000000000100000000000000800000000000000000000000000000000000800000000000000000000000000000000",
      "type": "0x2",
      "transactionHash": "0xe77865958ef90335adb7b73ee296dd3a062b2ef244fb1e5833fdbd39831ec82f",
      "transactionIndex": "0x6",
      "blockHash": "0x1fa3058c343ca7d530c1548fa1ae5af5e2af34e3b7c7995c8f560011ac41931e",
      "blockNumber": "0x433c82",
      "gasUsed": "0x1327c",
      "effectiveGasPrice": "0x5d21dba01",
      "from": "0x56fd3f2bee130e9867942d0f463a16fbe49b8d81",
      "to": "0xecb3c656c131fcd9bb8d1d80898716bd684feb78",
      "contractAddress": null,
      "l1BaseFeeScalar": "0x0",
      "l1BlobBaseFee": "0x4df24bce",
      "l1BlobBaseFeeScalar": "0x0",
      "l1Fee": "0x0",
      "l1GasPrice": "0x43bc",
      "l1GasUsed": "0x640"
    },
    {
      "status": "0x1",
      "cumulativeGasUsed": "0x83500",
      "logs": [
        {
          "address": "0xecb3c656c131fcd9bb8d1d80898716bd684feb78",
          "topics": [
            "0xadbbec6c203cb0248e89fe6d15ad651061a9d5203a1ab0273256e2b7decffa89",
            "0xd11d52b973ddbb983cc2087aabcafd915fc3140cf9996aacc61db9710d1bde05",
            "0x000000000000000000000000de9e4c3ce781b4ba68120d6261cbad65ce0ab00b",
            "0x0000000000000000000000002294298942fdc79417de9e0d740a4957e0e7783a"
          ],
          "data": "0x0000000000000000000000003b199d9ebebe509bb711bffb455c2d79102a9602",
          "blockHash": "0x1fa3058c343ca7d530c1548fa1ae5af5e2af34e3b7c7995c8f560011ac41931e",
          "blockNumber": "0x433c82",
          "transactionHash": "0xedb3acc13812a7f89cb53761392f36c78b32e02de2d5cf10812b0a9cd04bfb14",
          "transactionIndex": "0x7",
          "logIndex": "0x5",
          "removed": false
        }
      ],
      "logsBloom": "0x00000000000000000000000000004000008008000000000000000000002000000100010040020000000000000000000000000000000000000000000000000000000000000000000000000000000000002000000000000000000000000000000000000000000002000000000000000000000000020000000000000000000000000000040000000000000000000000000000000000000000000000000000000000000000000000000000000000000000000000000000000000000000000000000000000000000000000000000000000000000000000000120001000000000000000000000000000000000000000000000000000000000000000000000000000000",
      "type": "0x2",
      "transactionHash": "0xedb3acc13812a7f89cb53761392f36c78b32e02de2d5cf10812b0a9cd04bfb14",
      "transactionIndex": "0x7",
      "blockHash": "0x1fa3058c343ca7d530c1548fa1ae5af5e2af34e3b7c7995c8f560011ac41931e",
      "blockNumber": "0x433c82",
      "gasUsed": "0x1327c",
      "effectiveGasPrice": "0x5d21dba01",
      "from": "0x56fd3f2bee130e9867942d0f463a16fbe49b8d81",
      "to": "0xecb3c656c131fcd9bb8d1d80898716bd684feb78",
      "contractAddress": null,
      "l1BaseFeeScalar": "0x0",
      "l1BlobBaseFee": "0x4df24bce",
      "l1BlobBaseFeeScalar": "0x0",
      "l1Fee": "0x0",
      "l1GasPrice": "0x43bc",
      "l1GasUsed": "0x640"
    },
    {
      "status": "0x1",
      "cumulativeGasUsed": "0x9677c",
      "logs": [
        {
          "address": "0xecb3c656c131fcd9bb8d1d80898716bd684feb78",
          "topics": [
            "0xadbbec6c203cb0248e89fe6d15ad651061a9d5203a1ab0273256e2b7decffa89",
            "0x1c9378bd0973ff313a599d3effc654ba759f8ccca655ab6d6ce5bd39a212943b",
            "0x000000000000000000000000de9e4c3ce781b4ba68120d6261cbad65ce0ab00b",
            "0x0000000000000000000000005f8d55c3627d2dc0a2b4afa798f877242f382f67"
          ],
          "data": "0x0000000000000000000000003b199d9ebebe509bb711bffb455c2d79102a9602",
          "blockHash": "0x1fa3058c343ca7d530c1548fa1ae5af5e2af34e3b7c7995c8f560011ac41931e",
          "blockNumber": "0x433c82",
          "transactionHash": "0x3f7608047336f194e3b44a3e6389961fb4ac0cac7a7772d8f096d0565b438536",
          "transactionIndex": "0x8",
          "logIndex": "0x6",
          "removed": false
        }
      ],
      "logsBloom": "0x00000000000000000000000000004000008008000000000000000000000000000100010000000000000000000000000000000000000000000000000000000000000000000000000000000000000000002100000000000000000000000008000000000000000002000000000000000000000000000000000000000000000040000000040000000000000000000000000000000000000000000000000000000000000000000200000000000000000000000000000000000010000000000000000000000000000000000000000000000000000000000000100000000000000001000000000000000000000000000000000000000000000000000000000000000000",
      "type": "0x2",
      "transactionHash": "0x3f7608047336f194e3b44a3e6389961fb4ac0cac7a7772d8f096d0565b438536",
      "transactionIndex": "0x8",
      "blockHash": "0x1fa3058c343ca7d530c1548fa1ae5af5e2af34e3b7c7995c8f560011ac41931e",
      "blockNumber": "0x433c82",
      "gasUsed": "0x1327c",
      "effectiveGasPrice": "0x5d21dba01",
      "from": "0x56fd3f2bee130e9867942d0f463a16fbe49b8d81",
      "to": "0xecb3c656c131fcd9bb8d1d80898716bd684feb78",
      "contractAddress": null,
      "l1BaseFeeScalar": "0x0",
      "l1BlobBaseFee": "0x4df24bce",
      "l1BlobBaseFeeScalar": "0x0",
      "l1Fee": "0x0",
      "l1GasPrice": "0x43bc",
      "l1GasUsed": "0x640"
    },
    {
      "status": "0x1",
      "cumulativeGasUsed": "0xa99f8",
      "logs": [
        {
          "address": "0xecb3c656c131fcd9bb8d1d80898716bd684feb78",
          "topics": [
            "0xadbbec6c203cb0248e89fe6d15ad651061a9d5203a1ab0273256e2b7decffa89",
            "0x7c3b41fbd140c6fb54ff9f8f7b7b0c954606682d44ed5e56b0080f40faaf652c",
            "0x000000000000000000000000de9e4c3ce781b4ba68120d6261cbad65ce0ab00b",
            "0x00000000000000000000000085bee67d435a39f7467a8a9de34a5b73d25df426"
          ],
          "data": "0x0000000000000000000000003b199d9ebebe509bb711bffb455c2d79102a9602",
          "blockHash": "0x1fa3058c343ca7d530c1548fa1ae5af5e2af34e3b7c7995c8f560011ac41931e",
          "blockNumber": "0x433c82",
          "transactionHash": "0xad18fde63f6e0844c7afd97a6860eaf6099524d957c6b705b818ae2e1c2d6e30",
          "transactionIndex": "0x9",
          "logIndex": "0x7",
          "removed": false
        }
      ],
      "logsBloom": "0x00000000000000000000000000004000008008000000000000000000000000000100010000000000000000000000000000000000000000000000000000000000000000000000000000000000000000002000000020000000000000000000000000000000000002000000001000000000000000000000000000000004000000000000040000000000000000000000000000000000000000000000000000000000000000000000000000000000004000000000000000000000000000000000000000000000000000000001000000000000000000000000100000000000000001000000000000000000000000000000000000000000000000000000000000000000",
      "type": "0x2",
      "transactionHash": "0xad18fde63f6e0844c7afd97a6860eaf6099524d957c6b705b818ae2e1c2d6e30",
      "transactionIndex": "0x9",
      "blockHash": "0x1fa3058c343ca7d530c1548fa1ae5af5e2af34e3b7c7995c8f560011ac41931e",
      "blockNumber": "0x433c82",
      "gasUsed": "0x1327c",
      "effectiveGasPrice": "0x5d21dba01",
      "from": "0x56fd3f2bee130e9867942d0f463a16fbe49b8d81",
      "to": "0xecb3c656c131fcd9bb8d1d80898716bd684feb78",
      "contractAddress": null,
      "l1BaseFeeScalar": "0x0",
      "l1BlobBaseFee": "0x4df24bce",
      "l1BlobBaseFeeScalar": "0x0",
      "l1Fee": "0x0",
      "l1GasPrice": "0x43bc",
      "l1GasUsed": "0x640"
    },
    {
      "status": "0x1",
      "cumulativeGasUsed": "0xbcc74",
      "logs": [
        {
          "address": "0xecb3c656c131fcd9bb8d1d80898716bd684feb78",
          "topics": [
            "0xadbbec6c203cb0248e89fe6d15ad651061a9d5203a1ab0273256e2b7decffa89",
            "0x3ddbc61433314a4b7d3cbb56a001fc4cc0f1d52d64338336d5f2083a580ce4fc",
            "0x000000000000000000000000de9e4c3ce781b4ba68120d6261cbad65ce0ab00b",
            "0x000000000000000000000000284e9b7b623eae866914b7fa0eb720c2bb3c2980"
          ],
          "data": "0x0000000000000000000000003b199d9ebebe509bb711bffb455c2d79102a9602",
          "blockHash": "0x1fa3058c343ca7d530c1548fa1ae5af5e2af34e3b7c7995c8f560011ac41931e",
          "blockNumber": "0x433c82",
          "transactionHash": "0x1e3d166cb99bdcfae3a160a85733e76cef2866137e0f68e01929e95a099b5c84",
          "transactionIndex": "0xa",
          "logIndex": "0x8",
          "removed": false
        }
      ],
      "logsBloom": "0x000000000000000000000000010040000080080000000000000000000000000001000100000000000000000000000000000000000000000000000000000000000000000000000000000000000000000020000000000000000000000000000000000000000000020000000000000000000000000000000000000002000040000000000c0000000000000000000000000000000000000000000000000000000000000000000000800000000000000000000000000000000000000000000000000000000000000000100000000000000000000000000000100000000000000000000000000000000000000000000000000000000000000000000000000000000000",
      "type": "0x2",
      "transactionHash": "0x1e3d166cb99bdcfae3a160a85733e76cef2866137e0f68e01929e95a099b5c84",
      "transactionIndex": "0xa",
      "blockHash": "0x1fa3058c343ca7d530c1548fa1ae5af5e2af34e3b7c7995c8f560011ac41931e",
      "blockNumber": "0x433c82",
      "gasUsed": "0x1327c",
      "effectiveGasPrice": "0x5d21dba01",
      "from": "0x56fd3f2bee130e9867942d0f463a16fbe49b8d81",
      "to": "0xecb3c656c131fcd9bb8d1d80898716bd684feb78",
      "contractAddress": null,
      "l1BaseFeeScalar": "0x0",
      "l1BlobBaseFee": "0x4df24bce",
      "l1BlobBaseFeeScalar": "0x0",
      "l1Fee": "0x0",
      "l1GasPrice": "0x43bc",
      "l1GasUsed": "0x640"
    },
    {
      "status": "0x1",
      "cumulativeGasUsed": "0xcfef0",
      "logs": [
        {
          "address": "0xecb3c656c131fcd9bb8d1d80898716bd684feb78",
          "topics": [
            "0xadbbec6c203cb0248e89fe6d15ad651061a9d5203a1ab0273256e2b7decffa89",
            "0x4206e101b13bf29e40b2bfed4cf167271c41677720f2ee786ac1bf5efac101cb",
            "0x000000000000000000000000de9e4c3ce781b4ba68120d6261cbad65ce0ab00b",
            "0x00000000000000000000000010ccfb235b0e1ed394bace4560c3ed016697687e"
          ],
          "data": "0x0000000000000000000000003b199d9ebebe509bb711bffb455c2d79102a9602",
          "blockHash": "0x1fa3058c343ca7d530c1548fa1ae5af5e2af34e3b7c7995c8f560011ac41931e",
          "blockNumber": "0x433c82",
          "transactionHash": "0x6f41f93c030263478a0882d4631157d6cc552e95b480ffaba5a33d2739390eaf",
          "transactionIndex": "0xb",
          "logIndex": "0x9",
          "removed": false
        }
      ],
      "logsBloom": "0x00000000000000000000000000004000008008000000000000000000000000000100010000000000000000000000000000000000000020000000000080000000000000000000000000000000000000002000000000000000000000000000000000000000000002000000000000000000000000000000000000000000000000000000042000000000000000000000000000000000000000000000000000000000000000000000000000000000002000000000000000000000000000000004000000000000000000000000000000000000000000000000100000000000000000000000000000000000000000000000000000000000000000000800000000000000",
      "type": "0x2",
      "transactionHash": "0x6f41f93c030263478a0882d4631157d6cc552e95b480ffaba5a33d2739390eaf",
      "transactionIndex": "0xb",
      "blockHash": "0x1fa3058c343ca7d530c1548fa1ae5af5e2af34e3b7c7995c8f560011ac41931e",
      "blockNumber": "0x433c82",
      "gasUsed": "0x1327c",
      "effectiveGasPrice": "0x5d21dba01",
      "from": "0x56fd3f2bee130e9867942d0f463a16fbe49b8d81",
      "to": "0xecb3c656c131fcd9bb8d1d80898716bd684feb78",
      "contractAddress": null,
      "l1BaseFeeScalar": "0x0",
      "l1BlobBaseFee": "0x4df24bce",
      "l1BlobBaseFeeScalar": "0x0",
      "l1Fee": "0x0",
      "l1GasPrice": "0x43bc",
      "l1GasUsed": "0x640"
    },
    {
      "status": "0x1",
      "cumulativeGasUsed": "0xe316c",
      "logs": [
        {
          "address": "0xecb3c656c131fcd9bb8d1d80898716bd684feb78",
          "topics": [
            "0xadbbec6c203cb0248e89fe6d15ad651061a9d5203a1ab0273256e2b7decffa89",
            "0x6c369bfb1598b2f7718671221bc524c84874ad1ed7ba02a61121e7a06722e2ce",
            "0x000000000000000000000000de9e4c3ce781b4ba68120d6261cbad65ce0ab00b",
            "0x00000000000000000000000085f5181abdbf0e1814fc4358582ae07b8eba3af3"
          ],
          "data": "0x0000000000000000000000003b199d9ebebe509bb711bffb455c2d79102a9602",
          "blockHash": "0x1fa3058c343ca7d530c1548fa1ae5af5e2af34e3b7c7995c8f560011ac41931e",
          "blockNumber": "0x433c82",
          "transactionHash": "0xcc63c5bdf562b40ecb1b2d6354f1f282a61415eb07ee628f39751e8a55f70ea6",
          "transactionIndex": "0xc",
          "logIndex": "0xa",
          "removed": false
        }
      ],
      "logsBloom": "0x00000000000000000000000000404000008008000000000000000000000000000100010000000000000000000000000000000200000000000000000000000000000002100000000000000000000000002000000000000000000000000000004000000000000002000000000000080000000000000000000000000000000000000000040000000000000000000000000000000000000000000000000000000000000000000000000000000000000000000000000000000000000000000000000000000000000000000000000000000000000000000000100000000000000000000000000000000000000000000000000000000000000000000000000000000000",
      "type": "0x2",
      "transactionHash": "0xcc63c5bdf562b40ecb1b2d6354f1f282a61415eb07ee628f39751e8a55f70ea6",
      "transactionIndex": "0xc",
      "blockHash": "0x1fa3058c343ca7d530c1548fa1ae5af5e2af34e3b7c7995c8f560011ac41931e",
      "blockNumber": "0x433c82",
      "gasUsed": "0x1327c",
      "effectiveGasPrice": "0x5d21dba01",
      "from": "0x56fd3f2bee130e9867942d0f463a16fbe49b8d81",
      "to": "0xecb3c656c131fcd9bb8d1d80898716bd684feb78",
      "contractAddress": null,
      "l1BaseFeeScalar": "0x0",
      "l1BlobBaseFee": "0x4df24bce",
      "l1BlobBaseFeeScalar": "0x0",
      "l1Fee": "0x0",
      "l1GasPrice": "0x43bc",
      "l1GasUsed": "0x640"
    },
    {
      "status": "0x1",
      "cumulativeGasUsed": "0x1e68c",
      "logs": [
        {
          "address": "0xecb3c656c131fcd9bb8d1d80898716bd684feb78",
          "topics": [
            "0xadbbec6c203cb0248e89fe6d15ad651061a9d5203a1ab0273256e2b7decffa89",
            "0x517ccc3bcab9f35e2e24143a0c1809068efc649f740846cfb6a1c5703735c1ee",
            "0x000000000000000000000000de9e4c3ce781b4ba68120d6261cbad65ce0ab00b",
            "0x000000000000000000000000f151c9a13b78c84f93f50b8b3bc689fedc134f60"
          ],
          "data": "0x0000000000000000000000003b199d9ebebe509bb711bffb455c2d79102a9602",
          "blockHash": "0x82e90d6ea98b30b1cb5753bd1409e6e1bd858f3854c1d40ec535e91392ae6b2c",
          "blockNumber": "0x433c83",
          "transactionHash": "0xe8e9d18983d7c45dae16d68c48032b4ffcf60b6896649deade03408163c28790",
          "transactionIndex": "0x1",
          "logIndex": "0x0",
          "removed": false
        }
      ],
      "logsBloom": "0x08000000000000000000000000004000008008000000000000000000001010000100010000000000000000000000000000000000000000000000000000000000000000000000000000000000000000002000000000000000000000000000000000000000000002000000000000000000000000000000000000000000000000000000040000000000000000080000000000000000000000000000000000000000000000000000000000000000000000000000000000000000000000000000000000000000000000000000000000000000000002000000100000000000000000000000000000000020000000000000000000000000000000000000000000000000",
      "type": "0x2",
      "transactionHash": "0xe8e9d18983d7c45dae16d68c48032b4ffcf60b6896649deade03408163c28790",
      "transactionIndex": "0x1",
      "blockHash": "0x82e90d6ea98b30b1cb5753bd1409e6e1bd858f3854c1d40ec535e91392ae6b2c",
      "blockNumber": "0x433c83",
      "gasUsed": "0x1327c",
      "effectiveGasPrice": "0x5d21dba01",
      "from": "0x56fd3f2bee130e9867942d0f463a16fbe49b8d81",
      "to": "0xecb3c656c131fcd9bb8d1d80898716bd684feb78",
      "contractAddress": null,
      "l1BaseFeeScalar": "0x0",
      "l1BlobBaseFee": "0x4df24bce",
      "l1BlobBaseFeeScalar": "0x0",
      "l1Fee": "0x0",
      "l1GasPrice": "0x43bc",
      "l1GasUsed": "0x640"
    },
    {
      "status": "0x1",
      "cumulativeGasUsed": "0x31908",
      "logs": [
        {
          "address": "0xecb3c656c131fcd9bb8d1d80898716bd684feb78",
          "topics": [
            "0xadbbec6c203cb0248e89fe6d15ad651061a9d5203a1ab0273256e2b7decffa89",
            "0xd580d237231109e6a96d67d82450611c610a805a26660c90281bdc0cd04a95c7",
            "0x000000000000000000000000de9e4c3ce781b4ba68120d6261cbad65ce0ab00b",
            "0x0000000000000000000000005873faeb42f3563dcd77f0fbbda818e6d6da3139"
          ],
          "data": "0x0000000000000000000000003b199d9ebebe509bb711bffb455c2d79102a9602",
          "blockHash": "0x82e90d6ea98b30b1cb5753bd1409e6e1bd858f3854c1d40ec535e91392ae6b2c",
          "blockNumber": "0x433c83",
          "transactionHash": "0x213e155dc9e713dae605cd8a3ca99fa47105dd952297da3ee403dbe9cfa68d44",
          "transactionIndex": "0x2",
          "logIndex": "0x1",
          "removed": false
        }
      ],
      "logsBloom": "0x00000000000080000000000000004000008008000000000000000000000000000100010000000000000000000000000000000000000000000000000000000000000000000000000000000000000000002000000000000000200000000000000000000000000002000000000000000000000000000000000000000000000000000000040000000000000000000000000000000000000000000000000000000000000000000000000000000000000000000000080000000000800000000000000000000020000000000000000008000000000000000000100000000000000000000000000000000000000000000000000000000000000000000000000000000000",
      "type": "0x2",
      "transactionHash": "0x213e155dc9e713dae605cd8a3ca99fa47105dd952297da3ee403dbe9cfa68d44",
      "transactionIndex": "0x2",
      "blockHash": "0x82e90d6ea98b30b1cb5753bd1409e6e1bd858f3854c1d40ec535e91392ae6b2c",
      "blockNumber": "0x433c83",
      "gasUsed": "0x1327c",
      "effectiveGasPrice": "0x5d21dba01",
      "from": "0x56fd3f2bee130e9867942d0f463a16fbe49b8d81",
      "to": "0xecb3c656c131fcd9bb8d1d80898716bd684feb78",
      "contractAddress": null,
      "l1BaseFeeScalar": "0x0",
      "l1BlobBaseFee": "0x4df24bce",
      "l1BlobBaseFeeScalar": "0x0",
      "l1Fee": "0x0",
      "l1GasPrice": "0x43bc",
      "l1GasUsed": "0x640"
    },
    {
      "status": "0x1",
      "cumulativeGasUsed": "0x44b84",
      "logs": [
        {
          "address": "0xecb3c656c131fcd9bb8d1d80898716bd684feb78",
          "topics": [
            "0xadbbec6c203cb0248e89fe6d15ad651061a9d5203a1ab0273256e2b7decffa89",
            "0x746455363e8f55d04e0a2cc040d1b348a6c031b336ba6af6ae91515c194929c8",
            "0x000000000000000000000000de9e4c3ce781b4ba68120d6261cbad65ce0ab00b",
            "0x000000000000000000000000a99dc247d6b7b2e3ab48a1fee101b83cd6acd82a"
          ],
          "data": "0x0000000000000000000000003b199d9ebebe509bb711bffb455c2d79102a9602",
          "blockHash": "0x82e90d6ea98b30b1cb5753bd1409e6e1bd858f3854c1d40ec535e91392ae6b2c",
          "blockNumber": "0x433c83",
          "transactionHash": "0x2798a98ecf17a86e5496e3c72507db7d0d5fe0e509f41d7dd3878a2b3330bbd8",
          "transactionIndex": "0x3",
          "logIndex": "0x2",
          "removed": false
        }
      ],
      "logsBloom": "0x00000000000000000000000000004000008008000000000000000000000000000100014000000000000000000020000000000000000000000000000000000000000000000000000000000000000000102000000000000000000000000000000000000000000002000000000000000000000000000000000020000000000000000000040000000000000000000000000000000020000000000000000000000000000000000000000000000000000000000000000000000000000000000000000000000000000000000000000000000000000000000000100000000000000000000000000000000000000000000000000000200000000000000000000000000000",
      "type": "0x2",
      "transactionHash": "0x2798a98ecf17a86e5496e3c72507db7d0d5fe0e509f41d7dd3878a2b3330bbd8",
      "transactionIndex": "0x3",
      "blockHash": "0x82e90d6ea98b30b1cb5753bd1409e6e1bd858f3854c1d40ec535e91392ae6b2c",
      "blockNumber": "0x433c83",
      "gasUsed": "0x1327c",
      "effectiveGasPrice": "0x5d21dba01",
      "from": "0x56fd3f2bee130e9867942d0f463a16fbe49b8d81",
      "to": "0xecb3c656c131fcd9bb8d1d80898716bd684feb78",
      "contractAddress": null,
      "l1BaseFeeScalar": "0x0",
      "l1BlobBaseFee": "0x4df24bce",
      "l1BlobBaseFeeScalar": "0x0",
      "l1Fee": "0x0",
      "l1GasPrice": "0x43bc",
      "l1GasUsed": "0x640"
    },
    {
      "status": "0x1",
      "cumulativeGasUsed": "0x57e00",
      "logs": [
        {
          "address": "0xecb3c656c131fcd9bb8d1d80898716bd684feb78",
          "topics": [
            "0xadbbec6c203cb0248e89fe6d15ad651061a9d5203a1ab0273256e2b7decffa89",
            "0xfca6d94b46122eb9a4b86cf9d3e1e856fea8a826d0fc26c5baf17c43fbaf0f48",
            "0x000000000000000000000000a99dc247d6b7b2e3ab48a1fee101b83cd6acd82a",
            "0x0000000000000000000000009883d788d40f1c7595a780ed881ea833c7743b4b"
          ],
          "data": "0x0000000000000000000000003b199d9ebebe509bb711bffb455c2d79102a9602",
          "blockHash": "0x82e90d6ea98b30b1cb5753bd1409e6e1bd858f3854c1d40ec535e91392ae6b2c",
          "blockNumber": "0x433c83",
          "transactionHash": "0x3fdd86fcfaf6b08b849d8c2b9bb81ffa2008ea6ae22e1ef000be5d406a3b5ccc",
          "transactionIndex": "0x4",
          "logIndex": "0x3",
          "removed": false
        }
      ],
      "logsBloom": "0x00000000020000010000000000004000008008000000000000000000000000000000000000000000000000000000000000000000000000000000000000000000000000000000000000000000000000102000000000100000000000000000000000000000000000000000000000000000000002000000000020000000000000000000040000000000000000000000000000000000000000000000000000000000000000000000000000000000000000000000000000000000000000000000000000000000020000000000000000000000000080000000100000000000000000000000000000000000000000000000000000200000000000000000000000000000",
      "type": "0x2",
      "transactionHash": "0x3fdd86fcfaf6b08b849d8c2b9bb81ffa2008ea6ae22e1ef000be5d406a3b5ccc",
      "transactionIndex": "0x4",
      "blockHash": "0x82e90d6ea98b30b1cb5753bd1409e6e1bd858f3854c1d40ec535e91392ae6b2c",
      "blockNumber": "0x433c83",
      "gasUsed": "0x1327c",
      "effectiveGasPrice": "0x5d21dba01",
      "from": "0x56fd3f2bee130e9867942d0f463a16fbe49b8d81",
      "to": "0xecb3c656c131fcd9bb8d1d80898716bd684feb78",
      "contractAddress": null,
      "l1BaseFeeScalar": "0x0",
      "l1BlobBaseFee": "0x4df24bce",
      "l1BlobBaseFeeScalar": "0x0",
      "l1Fee": "0x0",
      "l1GasPrice": "0x43bc",
      "l1GasUsed": "0x640"
    },
    {
      "status": "0x1",
      "cumulativeGasUsed": "0x6b07c",
      "logs": [
        {
          "address": "0xecb3c656c131fcd9bb8d1d80898716bd684feb78",
          "topics": [
            "0xadbbec6c203cb0248e89fe6d15ad651061a9d5203a1ab0273256e2b7decffa89",
            "0x3135b662c38265d0655177091f1b647b4fef511103d06c016efdf18b46930d2c",
            "0x000000000000000000000000de9e4c3ce781b4ba68120d6261cbad65ce0ab00b",
            "0x000000000000000000000000471ece3750da237f93b8e339c536989b8978a438"
          ],
          "data": "0x0000000000000000000000002584a5835e3ae7e901e6462e1de06920c2c68028",
          "blockHash": "0x82e90d6ea98b30b1cb5753bd1409e6e1bd858f3854c1d40ec535e91392ae6b2c",
          "blockNumber": "0x433c83",
          "transactionHash": "0x2e7521754dd2c45d25c0e067d40c5920c903bd98ca0922785263de298b557893",
          "transactionIndex": "0x5",
          "logIndex": "0x4",
          "removed": false
        }
      ],
      "logsBloom": "0x00000000000000000000000000004000008008000000000000000000000000000100010000000000400000000000000000000000000000000000000000000000000000000040000000000000000000002000000000000000000000000000000002000000000002000000000000000000000000000080000000000000000000000000040000000000000000000000000001000000000000000000000000000000000000000000000000000000000000000000000000000000000000000200000000000000000000000000000000000000000000000000100000000000000000000000000000000000000000000000000000000000000000000000000000000000",
      "type": "0x2",
      "transactionHash": "0x2e7521754dd2c45d25c0e067d40c5920c903bd98ca0922785263de298b557893",
      "transactionIndex": "0x5",
      "blockHash": "0x82e90d6ea98b30b1cb5753bd1409e6e1bd858f3854c1d40ec535e91392ae6b2c",
      "blockNumber": "0x433c83",
      "gasUsed": "0x1327c",
      "effectiveGasPrice": "0x5d21dba01",
      "from": "0x56fd3f2bee130e9867942d0f463a16fbe49b8d81",
      "to": "0xecb3c656c131fcd9bb8d1d80898716bd684feb78",
      "contractAddress": null,
      "l1BaseFeeScalar": "0x0",
      "l1BlobBaseFee": "0x4df24bce",
      "l1BlobBaseFeeScalar": "0x0",
      "l1Fee": "0x0",
      "l1GasPrice": "0x43bc",
      "l1GasUsed": "0x640"
    },
    {
      "status": "0x1",
      "cumulativeGasUsed": "0x7da2e",
      "logs": [
        {
          "address": "0xecb3c656c131fcd9bb8d1d80898716bd684feb78",
          "topics": [
            "0xadbbec6c203cb0248e89fe6d15ad651061a9d5203a1ab0273256e2b7decffa89",
            "0x36e12d20b7a59b463a1a113caf338cbad9d64ee017548d00a791681f2fbf0763",
            "0x000000000000000000000000de9e4c3ce781b4ba68120d6261cbad65ce0ab00b",
            "0x000000000000000000000000ca53d9b72646b254d29ebeeb4c5cde7bb4bb59e0"
          ],
          "data": "0x0000000000000000000000003b199d9ebebe509bb711bffb455c2d79102a9602",
          "blockHash": "0x82e90d6ea98b30b1cb5753bd1409e6e1bd858f3854c1d40ec535e91392ae6b2c",
          "blockNumber": "0x433c83",
          "transactionHash": "0x4c4214872849d751b88414cede220b0c6382240284c7e4adcbace4b98ccb251e",
          "transactionIndex": "0x6",
          "logIndex": "0x5",
          "removed": false
        }
      ],
      "logsBloom": "0x00000000000000000000000020004000008008000000000000000000000000000100010000000000000000000000000000000000000000000000000000000800000000000000000000000000000000002000000000000000000000000000000000000000000002000000000000000000000000000000000000000000000000010000040000000000000000000000000000000100000000000000000000000000000000000000080000000000000000000000000000000000000000000000000002000000000000000000000000000000000000000000100000000000000000000000000000000000000000000000000000000000000000000000000000000000",
      "type": "0x2",
      "transactionHash": "0x4c4214872849d751b88414cede220b0c6382240284c7e4adcbace4b98ccb251e",
      "transactionIndex": "0x6",
      "blockHash": "0x82e90d6ea98b30b1cb5753bd1409e6e1bd858f3854c1d40ec535e91392ae6b2c",
      "blockNumber": "0x433c83",
      "gasUsed": "0x129b2",
      "effectiveGasPrice": "0x5d21dba01",
      "from": "0x56fd3f2bee130e9867942d0f463a16fbe49b8d81",
      "to": "0xecb3c656c131fcd9bb8d1d80898716bd684feb78",
      "contractAddress": null,
      "l1BaseFeeScalar": "0x0",
      "l1BlobBaseFee": "0x4df24bce",
      "l1BlobBaseFeeScalar": "0x0",
      "l1Fee": "0x0",
      "l1GasPrice": "0x43bc",
      "l1GasUsed": "0x640"
    },
    {
      "status": "0x1",
      "cumulativeGasUsed": "0x903ea",
      "logs": [
        {
          "address": "0xecb3c656c131fcd9bb8d1d80898716bd684feb78",
          "topics": [
            "0xadbbec6c203cb0248e89fe6d15ad651061a9d5203a1ab0273256e2b7decffa89",
            "0x0d739efbfc30f303e8d1976c213b4040850d1af40f174f4169b846f6fd3d2f20",
            "0x000000000000000000000000de9e4c3ce781b4ba68120d6261cbad65ce0ab00b",
            "0x0000000000000000000000006285de9da7c1d329c0451628638908915002d9d1"
          ],
          "data": "0x0000000000000000000000003b199d9ebebe509bb711bffb455c2d79102a9602",
          "blockHash": "0x82e90d6ea98b30b1cb5753bd1409e6e1bd858f3854c1d40ec535e91392ae6b2c",
          "blockNumber": "0x433c83",
          "transactionHash": "0xc5f6312c6094b26fd7b747be6a8b1c2024eae1329d38629894b1f7f87594aa14",
          "transactionIndex": "0x7",
          "logIndex": "0x6",
          "removed": false
        }
      ],
      "logsBloom": "0x40000000000000000000000000004000008008000000000000000000000000000100030000000000000000000000000000000000000000000000000000000000000000000000000000000000000000002000000000000000000000000000000000000000000002000000000000000000000000000000000000000000000000000000040000000000000000000000000000000000000000000000000000400000000000000200000000000000000000000000000000000000000000200000000000000100000000000000000000000000000000000000100000000000000000000000000000000000000000000000000000000000000000000000000000000000",
      "type": "0x2",
      "transactionHash": "0xc5f6312c6094b26fd7b747be6a8b1c2024eae1329d38629894b1f7f87594aa14",
      "transactionIndex": "0x7",
      "blockHash": "0x82e90d6ea98b30b1cb5753bd1409e6e1bd858f3854c1d40ec535e91392ae6b2c",
      "blockNumber": "0x433c83",
      "gasUsed": "0x129bc",
      "effectiveGasPrice": "0x5d21dba01",
      "from": "0x56fd3f2bee130e9867942d0f463a16fbe49b8d81",
      "to": "0xecb3c656c131fcd9bb8d1d80898716bd684feb78",
      "contractAddress": null,
      "l1BaseFeeScalar": "0x0",
      "l1BlobBaseFee": "0x4df24bce",
      "l1BlobBaseFeeScalar": "0x0",
      "l1Fee": "0x0",
      "l1GasPrice": "0x43bc",
      "l1GasUsed": "0x640"
    },
    {
      "status": "0x1",
      "cumulativeGasUsed": "0xa2d9c",
      "logs": [
        {
          "address": "0xecb3c656c131fcd9bb8d1d80898716bd684feb78",
          "topics": [
            "0xadbbec6c203cb0248e89fe6d15ad651061a9d5203a1ab0273256e2b7decffa89",
            "0xacc988382b66ee5456086643dcfd9a5ca43dd8f428f6ef22503d8b8013bcffd7",
            "0x000000000000000000000000de9e4c3ce781b4ba68120d6261cbad65ce0ab00b",
            "0x000000000000000000000000bd63e46be8ef8d89dfde3054e7b9ecaeb8ad83e9"
          ],
          "data": "0x0000000000000000000000003b199d9ebebe509bb711bffb455c2d79102a9602",
          "blockHash": "0x82e90d6ea98b30b1cb5753bd1409e6e1bd858f3854c1d40ec535e91392ae6b2c",
          "blockNumber": "0x433c83",
          "transactionHash": "0xd5c69eef4afcb782b374b7ccfeaf10b909e58a3c80cad7e03a57ac39fdebc8ae",
          "transactionIndex": "0x8",
          "logIndex": "0x7",
          "removed": false
        }
      ],
      "logsBloom": "0x00000000000000000000000000004000008008000000000000000000000000000100010000000000000000000000000000000000000000000000000000000000000000000000000000000000000000002000000000000000000000000000000000000000000002000000000000000000000000000000001000000000000000000000040000000000000000000000000000000000000000000800000000000000000000000000000000000000000000000000000000000800000000000000000000000000000000002000000000000000002000000000100000000000000000000000000000000000000040000000000000000000000000000000000000000000",
      "type": "0x2",
      "transactionHash": "0xd5c69eef4afcb782b374b7ccfeaf10b909e58a3c80cad7e03a57ac39fdebc8ae",
      "transactionIndex": "0x8",
      "blockHash": "0x82e90d6ea98b30b1cb5753bd1409e6e1bd858f3854c1d40ec535e91392ae6b2c",
      "blockNumber": "0x433c83",
      "gasUsed": "0x129b2",
      "effectiveGasPrice": "0x5d21dba01",
      "from": "0x56fd3f2bee130e9867942d0f463a16fbe49b8d81",
      "to": "0xecb3c656c131fcd9bb8d1d80898716bd684feb78",
      "contractAddress": null,
      "l1BaseFeeScalar": "0x0",
      "l1BlobBaseFee": "0x4df24bce",
      "l1BlobBaseFeeScalar": "0x0",
      "l1Fee": "0x0",
      "l1GasPrice": "0x43bc",
      "l1GasUsed": "0x640"
    }
  ],
  "libraries": [
    "node_modules/@celo/contracts/common/linkedlists/AddressSortedLinkedListWithMedian.sol:AddressSortedLinkedListWithMedian:0xf90B816Ea07eC3c6384656cd5B3249DA8fc3df6F"
  ],
  "pending": [],
  "returns": {},
  "timestamp": 1757690391898,
  "chain": 11142220,
  "commit": "48ea54d"
}