{
  "transactions": [
    {
      "hash": "0xcfc53f34b1e309bc25031a535a7126a4095d0cdb6c4481536d3f3b39ca6936e4",
      "transactionType": "CALL",
      "contractName": null,
      "contractAddress": "0xecb3c656c131fcd9bb8d1d80898716bd684feb78",
      "function": "destroyExchange(bytes32,uint256)",
      "arguments": [
        "0x7952984d7278ca3417febf52815c321984ac3147ced2c02bb6a02b0bcab08413",
        "17"
      ],
      "transaction": {
        "from": "0x56fd3f2bee130e9867942d0f463a16fbe49b8d81",
        "to": "0xecb3c656c131fcd9bb8d1d80898716bd684feb78",
        "gas": "0x1bc0b",
        "value": "0x0",
        "input": "0xe46eb5b67952984d7278ca3417febf52815c321984ac3147ced2c02bb6a02b0bcab084130000000000000000000000000000000000000000000000000000000000000011",
        "nonce": "0x850",
        "chainId": "0xaa044c"
      },
      "additionalContracts": [],
      "isFixedGasLimit": false
    }
  ],
  "receipts": [
    {
      "status": "0x1",
      "cumulativeGasUsed": "0x24794",
      "logs": [
        {
          "address": "0xecb3c656c131fcd9bb8d1d80898716bd684feb78",
          "topics": [
            "0xadbbec6c203cb0248e89fe6d15ad651061a9d5203a1ab0273256e2b7decffa89",
            "0x7952984d7278ca3417febf52815c321984ac3147ced2c02bb6a02b0bcab08413",
            "0x000000000000000000000000de9e4c3ce781b4ba68120d6261cbad65ce0ab00b",
            "0x0000000000000000000000000352976d940a2c3fba0c3623198947ee1d17869e"
          ],
          "data": "0x0000000000000000000000003b199d9ebebe509bb711bffb455c2d79102a9602",
          "blockHash": "0x3b168645474f43eb9d9d9dbdafb5723ae301c369fb2bca3aa4c8a2a94a866d87",
          "blockNumber": "0x4342a9",
          "transactionHash": "0xcfc53f34b1e309bc25031a535a7126a4095d0cdb6c4481536d3f3b39ca6936e4",
          "transactionIndex": "0x2",
          "logIndex": "0x0",
          "removed": false
        }
      ],
      "logsBloom": "0x00000000000000000000000000004008008008000000000100003000000000000100010000000000000000000000000000000001000000000000000000000000000000000000000000000000000000002000000000000000000000000000000000000000000002000000000000000000000000000000000000000000000000000000040000000000000000000000000000000000000000000000000000000000000000000000000000000000000000000000000000000000000000000000000000000000000000000000000000000000000000000200100000000000000000000000000000000000000000000000000000000000000000000000000000000000",
      "type": "0x2",
      "transactionHash": "0xcfc53f34b1e309bc25031a535a7126a4095d0cdb6c4481536d3f3b39ca6936e4",
      "transactionIndex": "0x2",
      "blockHash": "0x3b168645474f43eb9d9d9dbdafb5723ae301c369fb2bca3aa4c8a2a94a866d87",
      "blockNumber": "0x4342a9",
      "gasUsed": "0x1417c",
      "effectiveGasPrice": "0x5d21dba01",
      "from": "0x56fd3f2bee130e9867942d0f463a16fbe49b8d81",
      "to": "0xecb3c656c131fcd9bb8d1d80898716bd684feb78",
      "contractAddress": null,
      "l1BaseFeeScalar": "0x0",
      "l1BlobBaseFee": "0x31f3bb8d",
      "l1BlobBaseFeeScalar": "0x0",
      "l1Fee": "0x0",
      "l1GasPrice": "0x3051",
      "l1GasUsed": "0x640"
    }
  ],
  "libraries": [
    "node_modules/@celo/contracts/common/linkedlists/AddressSortedLinkedListWithMedian.sol:AddressSortedLinkedListWithMedian:0xf90B816Ea07eC3c6384656cd5B3249DA8fc3df6F"
  ],
  "pending": [],
  "returns": {},
  "timestamp": 1757691967108,
  "chain": 11142220,
  "commit": "48ea54d"
}