{
  "transactions": [
    {
      "hash": "0x3607ce9db586ff1b9b9eb3be682938d2e112ae30ea95ebdfa514c185bd5fec5c",
      "transactionType": "CALL",
      "contractName": null,
      "contractAddress": "0xecb3c656c131fcd9bb8d1d80898716bd684feb78",
      "function": "destroyExchange(bytes32,uint256)",
      "arguments": [
        "0xc9664df358594c5eaf2f410ab371e2deb8b532ca26162d2bc36d99b8d174567b",
        "18"
      ],
      "transaction": {
        "from": "0x56fd3f2bee130e9867942d0f463a16fbe49b8d81",
        "to": "0xecb3c656c131fcd9bb8d1d80898716bd684feb78",
        "gas": "0x1a753",
        "value": "0x0",
        "input": "0xe46eb5b6c9664df358594c5eaf2f410ab371e2deb8b532ca26162d2bc36d99b8d174567b0000000000000000000000000000000000000000000000000000000000000012",
        "nonce": "0x804",
        "chainId": "0xaa044c"
      },
      "additionalContracts": [],
      "isFixedGasLimit": false
    },
    {
      "hash": "0xa97ccfee7d208b9487a1be62cb0aa2b32cb184b6880c41f18641aad1307f6e6e",
      "transactionType": "CALL",
      "contractName": null,
      "contractAddress": "0xecb3c656c131fcd9bb8d1d80898716bd684feb78",
      "function": "destroyExchange(bytes32,uint256)",
      "arguments": [
        "0x7952984d7278ca3417febf52815c321984ac3147ced2c02bb6a02b0bcab08413",
        "17"
      ],
      "transaction": {
        "from": "0x56fd3f2bee130e9867942d0f463a16fbe49b8d81",
        "to": "0xecb3c656c131fcd9bb8d1d80898716bd684feb78",
        "gas": "0x1a753",
        "value": "0x0",
        "input": "0xe46eb5b67952984d7278ca3417febf52815c321984ac3147ced2c02bb6a02b0bcab084130000000000000000000000000000000000000000000000000000000000000011",
        "nonce": "0x805",
        "chainId": "0xaa044c"
      },
      "additionalContracts": [],
      "isFixedGasLimit": false
    },
    {
      "hash": "0xf324da969c7c9818d6c0b84f99403f81a50d68ab0fe96e6e2007b28e354029f2",
      "transactionType": "CALL",
      "contractName": null,
      "contractAddress": "0xecb3c656c131fcd9bb8d1d80898716bd684feb78",
      "function": "destroyExchange(bytes32,uint256)",
      "arguments": [
        "0x89de88b8eb790de26f4649f543cb6893d93635c728ac857f0926e842fb0d298b",
        "16"
      ],
      "transaction": {
        "from": "0x56fd3f2bee130e9867942d0f463a16fbe49b8d81",
        "to": "0xecb3c656c131fcd9bb8d1d80898716bd684feb78",
        "gas": "0x1a753",
        "value": "0x0",
        "input": "0xe46eb5b689de88b8eb790de26f4649f543cb6893d93635c728ac857f0926e842fb0d298b0000000000000000000000000000000000000000000000000000000000000010",
        "nonce": "0x806",
        "chainId": "0xaa044c"
      },
      "additionalContracts": [],
      "isFixedGasLimit": false
    },
    {
      "hash": "0xf957531d549de8bd5e0cd8334166ffdb343885df829731de6b8865f3353ce525",
      "transactionType": "CALL",
      "contractName": null,
      "contractAddress": "0xecb3c656c131fcd9bb8d1d80898716bd684feb78",
      "function": "destroyExchange(bytes32,uint256)",
      "arguments": [
        "0x67a5122dab72931be57196e0abba81690461f327bc60fb98ca7eef0ac58906cc",
        "15"
      ],
      "transaction": {
        "from": "0x56fd3f2bee130e9867942d0f463a16fbe49b8d81",
        "to": "0xecb3c656c131fcd9bb8d1d80898716bd684feb78",
        "gas": "0x1a753",
        "value": "0x0",
        "input": "0xe46eb5b667a5122dab72931be57196e0abba81690461f327bc60fb98ca7eef0ac58906cc000000000000000000000000000000000000000000000000000000000000000f",
        "nonce": "0x807",
        "chainId": "0xaa044c"
      },
      "additionalContracts": [],
      "isFixedGasLimit": false
    },
    {
      "hash": "0x8098a5a1fb11f194c9fc4fb5647201dc1c8066d5ab1a23d8a0f18c2b532cb1fa",
      "transactionType": "CALL",
      "contractName": null,
      "contractAddress": "0xecb3c656c131fcd9bb8d1d80898716bd684feb78",
      "function": "destroyExchange(bytes32,uint256)",
      "arguments": [
        "0x3562f9d29eba092b857480a82b03375839c752346b9ebe93a57ab82410328187",
        "14"
      ],
      "transaction": {
        "from": "0x56fd3f2bee130e9867942d0f463a16fbe49b8d81",
        "to": "0xecb3c656c131fcd9bb8d1d80898716bd684feb78",
        "gas": "0x1a753",
        "value": "0x0",
        "input": "0xe46eb5b63562f9d29eba092b857480a82b03375839c752346b9ebe93a57ab82410328187000000000000000000000000000000000000000000000000000000000000000e",
        "nonce": "0x808",
        "chainId": "0xaa044c"
      },
      "additionalContracts": [],
      "isFixedGasLimit": false
    },
    {
      "hash": "0xa8077ce517fd023917d8cca838c061af18339a5d57f00a239efda411852cc007",
      "transactionType": "CALL",
      "contractName": null,
      "contractAddress": "0xecb3c656c131fcd9bb8d1d80898716bd684feb78",
      "function": "destroyExchange(bytes32,uint256)",
      "arguments": [
        "0xd11d52b973ddbb983cc2087aabcafd915fc3140cf9996aacc61db9710d1bde05",
        "13"
      ],
      "transaction": {
        "from": "0x56fd3f2bee130e9867942d0f463a16fbe49b8d81",
        "to": "0xecb3c656c131fcd9bb8d1d80898716bd684feb78",
        "gas": "0x1a753",
        "value": "0x0",
        "input": "0xe46eb5b6d11d52b973ddbb983cc2087aabcafd915fc3140cf9996aacc61db9710d1bde05000000000000000000000000000000000000000000000000000000000000000d",
        "nonce": "0x809",
        "chainId": "0xaa044c"
      },
      "additionalContracts": [],
      "isFixedGasLimit": false
    },
    {
      "hash": "0xb0db9de48deec5aac34bac94ec55243ebed76cdd4eb404d102fe057c79c06b07",
      "transactionType": "CALL",
      "contractName": null,
      "contractAddress": "0xecb3c656c131fcd9bb8d1d80898716bd684feb78",
      "function": "destroyExchange(bytes32,uint256)",
      "arguments": [
        "0x1c9378bd0973ff313a599d3effc654ba759f8ccca655ab6d6ce5bd39a212943b",
        "12"
      ],
      "transaction": {
        "from": "0x56fd3f2bee130e9867942d0f463a16fbe49b8d81",
        "to": "0xecb3c656c131fcd9bb8d1d80898716bd684feb78",
        "gas": "0x1a753",
        "value": "0x0",
        "input": "0xe46eb5b61c9378bd0973ff313a599d3effc654ba759f8ccca655ab6d6ce5bd39a212943b000000000000000000000000000000000000000000000000000000000000000c",
        "nonce": "0x80a",
        "chainId": "0xaa044c"
      },
      "additionalContracts": [],
      "isFixedGasLimit": false
    },
    {
      "hash": "0x3b4ff0df69da394bb8db3d0803e2dd145a517dbff728a16a2742da9fe31928ce",
      "transactionType": "CALL",
      "contractName": null,
      "contractAddress": "0xecb3c656c131fcd9bb8d1d80898716bd684feb78",
      "function": "destroyExchange(bytes32,uint256)",
      "arguments": [
        "0x7c3b41fbd140c6fb54ff9f8f7b7b0c954606682d44ed5e56b0080f40faaf652c",
        "11"
      ],
      "transaction": {
        "from": "0x56fd3f2bee130e9867942d0f463a16fbe49b8d81",
        "to": "0xecb3c656c131fcd9bb8d1d80898716bd684feb78",
        "gas": "0x1a753",
        "value": "0x0",
        "input": "0xe46eb5b67c3b41fbd140c6fb54ff9f8f7b7b0c954606682d44ed5e56b0080f40faaf652c000000000000000000000000000000000000000000000000000000000000000b",
        "nonce": "0x80b",
        "chainId": "0xaa044c"
      },
      "additionalContracts": [],
      "isFixedGasLimit": false
    },
    {
      "hash": "0xff0105d0a1d844daebd3d4c0c8faadc7ba6ba0ce2dc14d2203d77eb09911be17",
      "transactionType": "CALL",
      "contractName": null,
      "contractAddress": "0xecb3c656c131fcd9bb8d1d80898716bd684feb78",
      "function": "destroyExchange(bytes32,uint256)",
      "arguments": [
        "0x3ddbc61433314a4b7d3cbb56a001fc4cc0f1d52d64338336d5f2083a580ce4fc",
        "10"
      ],
      "transaction": {
        "from": "0x56fd3f2bee130e9867942d0f463a16fbe49b8d81",
        "to": "0xecb3c656c131fcd9bb8d1d80898716bd684feb78",
        "gas": "0x1a753",
        "value": "0x0",
        "input": "0xe46eb5b63ddbc61433314a4b7d3cbb56a001fc4cc0f1d52d64338336d5f2083a580ce4fc000000000000000000000000000000000000000000000000000000000000000a",
        "nonce": "0x80c",
        "chainId": "0xaa044c"
      },
      "additionalContracts": [],
      "isFixedGasLimit": false
    },
    {
      "hash": "0xd907f525ac524a21c99494863626dcd6705f829d5e4f4df3629bc0c4fdb42ef3",
      "transactionType": "CALL",
      "contractName": null,
      "contractAddress": "0xecb3c656c131fcd9bb8d1d80898716bd684feb78",
      "function": "destroyExchange(bytes32,uint256)",
      "arguments": [
        "0x4206e101b13bf29e40b2bfed4cf167271c41677720f2ee786ac1bf5efac101cb",
        "9"
      ],
      "transaction": {
        "from": "0x56fd3f2bee130e9867942d0f463a16fbe49b8d81",
        "to": "0xecb3c656c131fcd9bb8d1d80898716bd684feb78",
        "gas": "0x1a753",
        "value": "0x0",
        "input": "0xe46eb5b64206e101b13bf29e40b2bfed4cf167271c41677720f2ee786ac1bf5efac101cb0000000000000000000000000000000000000000000000000000000000000009",
        "nonce": "0x80d",
        "chainId": "0xaa044c"
      },
      "additionalContracts": [],
      "isFixedGasLimit": false
    },
    {
      "hash": "0xd9226a1749e55073338a95f692e36ac071caa61ccff412d64e19b328fd985a94",
      "transactionType": "CALL",
      "contractName": null,
      "contractAddress": "0xecb3c656c131fcd9bb8d1d80898716bd684feb78",
      "function": "destroyExchange(bytes32,uint256)",
      "arguments": [
        "0x6c369bfb1598b2f7718671221bc524c84874ad1ed7ba02a61121e7a06722e2ce",
        "8"
      ],
      "transaction": {
        "from": "0x56fd3f2bee130e9867942d0f463a16fbe49b8d81",
        "to": "0xecb3c656c131fcd9bb8d1d80898716bd684feb78",
        "gas": "0x1a753",
        "value": "0x0",
        "input": "0xe46eb5b66c369bfb1598b2f7718671221bc524c84874ad1ed7ba02a61121e7a06722e2ce0000000000000000000000000000000000000000000000000000000000000008",
        "nonce": "0x80e",
        "chainId": "0xaa044c"
      },
      "additionalContracts": [],
      "isFixedGasLimit": false
    },
    {
      "hash": "0xfbe8616f6467228840742be742b5f5d5c0fcbe509ad08c2c4af1fab61d921534",
      "transactionType": "CALL",
      "contractName": null,
      "contractAddress": "0xecb3c656c131fcd9bb8d1d80898716bd684feb78",
      "function": "destroyExchange(bytes32,uint256)",
      "arguments": [
        "0x517ccc3bcab9f35e2e24143a0c1809068efc649f740846cfb6a1c5703735c1ee",
        "7"
      ],
      "transaction": {
        "from": "0x56fd3f2bee130e9867942d0f463a16fbe49b8d81",
        "to": "0xecb3c656c131fcd9bb8d1d80898716bd684feb78",
        "gas": "0x1a753",
        "value": "0x0",
        "input": "0xe46eb5b6517ccc3bcab9f35e2e24143a0c1809068efc649f740846cfb6a1c5703735c1ee0000000000000000000000000000000000000000000000000000000000000007",
        "nonce": "0x80f",
        "chainId": "0xaa044c"
      },
      "additionalContracts": [],
      "isFixedGasLimit": false
    },
    {
      "hash": "0x268677a0fb2064c3099d1b6fa7d6f098d8d86a9401546413d39d5a9be4151cbb",
      "transactionType": "CALL",
      "contractName": null,
      "contractAddress": "0xecb3c656c131fcd9bb8d1d80898716bd684feb78",
      "function": "destroyExchange(bytes32,uint256)",
      "arguments": [
        "0xd580d237231109e6a96d67d82450611c610a805a26660c90281bdc0cd04a95c7",
        "6"
      ],
      "transaction": {
        "from": "0x56fd3f2bee130e9867942d0f463a16fbe49b8d81",
        "to": "0xecb3c656c131fcd9bb8d1d80898716bd684feb78",
        "gas": "0x1a753",
        "value": "0x0",
        "input": "0xe46eb5b6d580d237231109e6a96d67d82450611c610a805a26660c90281bdc0cd04a95c70000000000000000000000000000000000000000000000000000000000000006",
        "nonce": "0x810",
        "chainId": "0xaa044c"
      },
      "additionalContracts": [],
      "isFixedGasLimit": false
    },
    {
      "hash": "0x41eebaa5d18c1f9715cc670eb8f5e3a5acee732fb9d828be0a71d9cd52f5da17",
      "transactionType": "CALL",
      "contractName": null,
      "contractAddress": "0xecb3c656c131fcd9bb8d1d80898716bd684feb78",
      "function": "destroyExchange(bytes32,uint256)",
      "arguments": [
        "0x746455363e8f55d04e0a2cc040d1b348a6c031b336ba6af6ae91515c194929c8",
        "5"
      ],
      "transaction": {
        "from": "0x56fd3f2bee130e9867942d0f463a16fbe49b8d81",
        "to": "0xecb3c656c131fcd9bb8d1d80898716bd684feb78",
        "gas": "0x1a753",
        "value": "0x0",
        "input": "0xe46eb5b6746455363e8f55d04e0a2cc040d1b348a6c031b336ba6af6ae91515c194929c80000000000000000000000000000000000000000000000000000000000000005",
        "nonce": "0x811",
        "chainId": "0xaa044c"
      },
      "additionalContracts": [],
      "isFixedGasLimit": false
    },
    {
      "hash": "0x7c116f7562c6146198f9faa29761befe35b125c1c9b536ce987a47de65d83f04",
      "transactionType": "CALL",
      "contractName": null,
      "contractAddress": "0xecb3c656c131fcd9bb8d1d80898716bd684feb78",
      "function": "destroyExchange(bytes32,uint256)",
      "arguments": [
        "0xfca6d94b46122eb9a4b86cf9d3e1e856fea8a826d0fc26c5baf17c43fbaf0f48",
        "4"
      ],
      "transaction": {
        "from": "0x56fd3f2bee130e9867942d0f463a16fbe49b8d81",
        "to": "0xecb3c656c131fcd9bb8d1d80898716bd684feb78",
        "gas": "0x1a753",
        "value": "0x0",
        "input": "0xe46eb5b6fca6d94b46122eb9a4b86cf9d3e1e856fea8a826d0fc26c5baf17c43fbaf0f480000000000000000000000000000000000000000000000000000000000000004",
        "nonce": "0x812",
        "chainId": "0xaa044c"
      },
      "additionalContracts": [],
      "isFixedGasLimit": false
    },
    {
      "hash": "0xbf44f15cecebe27e01c9820721822cdb70c435519770e8f1cd5c3321101e224b",
      "transactionType": "CALL",
      "contractName": null,
      "contractAddress": "0xecb3c656c131fcd9bb8d1d80898716bd684feb78",
      "function": "destroyExchange(bytes32,uint256)",
      "arguments": [
        "0x3135b662c38265d0655177091f1b647b4fef511103d06c016efdf18b46930d2c",
        "3"
      ],
      "transaction": {
        "from": "0x56fd3f2bee130e9867942d0f463a16fbe49b8d81",
        "to": "0xecb3c656c131fcd9bb8d1d80898716bd684feb78",
        "gas": "0x1a753",
        "value": "0x0",
        "input": "0xe46eb5b63135b662c38265d0655177091f1b647b4fef511103d06c016efdf18b46930d2c0000000000000000000000000000000000000000000000000000000000000003",
        "nonce": "0x813",
        "chainId": "0xaa044c"
      },
      "additionalContracts": [],
      "isFixedGasLimit": false
    },
    {
      "hash": "0x6a691e1d6121dbb1943a34a3e773f66842461bf4e080500c090e90444b62c736",
      "transactionType": "CALL",
      "contractName": null,
      "contractAddress": "0xecb3c656c131fcd9bb8d1d80898716bd684feb78",
      "function": "destroyExchange(bytes32,uint256)",
      "arguments": [
        "0x36e12d20b7a59b463a1a113caf338cbad9d64ee017548d00a791681f2fbf0763",
        "2"
      ],
      "transaction": {
        "from": "0x56fd3f2bee130e9867942d0f463a16fbe49b8d81",
        "to": "0xecb3c656c131fcd9bb8d1d80898716bd684feb78",
        "gas": "0x1b360",
        "value": "0x0",
        "input": "0xe46eb5b636e12d20b7a59b463a1a113caf338cbad9d64ee017548d00a791681f2fbf07630000000000000000000000000000000000000000000000000000000000000002",
        "nonce": "0x814",
        "chainId": "0xaa044c"
      },
      "additionalContracts": [],
      "isFixedGasLimit": false
    },
    {
      "hash": "0xd56e02fc80554eba1865bdebc87ff346ff7ef2764dbf4c2b75b05d416c5ad061",
      "transactionType": "CALL",
      "contractName": null,
      "contractAddress": "0xecb3c656c131fcd9bb8d1d80898716bd684feb78",
      "function": "destroyExchange(bytes32,uint256)",
      "arguments": [
        "0x0d739efbfc30f303e8d1976c213b4040850d1af40f174f4169b846f6fd3d2f20",
        "1"
      ],
      "transaction": {
        "from": "0x56fd3f2bee130e9867942d0f463a16fbe49b8d81",
        "to": "0xecb3c656c131fcd9bb8d1d80898716bd684feb78",
        "gas": "0x19b3d",
        "value": "0x0",
        "input": "0xe46eb5b60d739efbfc30f303e8d1976c213b4040850d1af40f174f4169b846f6fd3d2f200000000000000000000000000000000000000000000000000000000000000001",
        "nonce": "0x815",
        "chainId": "0xaa044c"
      },
      "additionalContracts": [],
      "isFixedGasLimit": false
    },
    {
      "hash": "0x7b1959357be3d3be6124a068e25b35acf72624214800a772b0122046303f1826",
      "transactionType": "CALL",
      "contractName": null,
      "contractAddress": "0xecb3c656c131fcd9bb8d1d80898716bd684feb78",
      "function": "destroyExchange(bytes32,uint256)",
      "arguments": [
        "0xacc988382b66ee5456086643dcfd9a5ca43dd8f428f6ef22503d8b8013bcffd7",
        "0"
      ],
      "transaction": {
        "from": "0x56fd3f2bee130e9867942d0f463a16fbe49b8d81",
        "to": "0xecb3c656c131fcd9bb8d1d80898716bd684feb78",
        "gas": "0x1b360",
        "value": "0x0",
        "input": "0xe46eb5b6acc988382b66ee5456086643dcfd9a5ca43dd8f428f6ef22503d8b8013bcffd70000000000000000000000000000000000000000000000000000000000000000",
        "nonce": "0x816",
        "chainId": "0xaa044c"
      },
      "additionalContracts": [],
      "isFixedGasLimit": false
    }
  ],
  "receipts": [
    {
      "status": "0x1",
      "cumulativeGasUsed": "0x238a0",
      "logs": [
        {
          "address": "0xecb3c656c131fcd9bb8d1d80898716bd684feb78",
          "topics": [
            "0xadbbec6c203cb0248e89fe6d15ad651061a9d5203a1ab0273256e2b7decffa89",
            "0xc9664df358594c5eaf2f410ab371e2deb8b532ca26162d2bc36d99b8d174567b",
            "0x000000000000000000000000de9e4c3ce781b4ba68120d6261cbad65ce0ab00b",
            "0x0000000000000000000000005505b70207ae3b826c1a7607f19f3bf73444a082"
          ],
          "data": "0x0000000000000000000000003b199d9ebebe509bb711bffb455c2d79102a9602",
          "blockHash": "0x08b324ed723f6deec42d2066fc514786a07f00d11c634c11109da72c25cfe69f",
          "blockNumber": "0x433ee0",
          "transactionHash": "0x3607ce9db586ff1b9b9eb3be682938d2e112ae30ea95ebdfa514c185bd5fec5c",
          "transactionIndex": "0x2",
          "logIndex": "0x0",
          "removed": false
        }
      ],
      "logsBloom": "0x00000000000008000000000000004000008008000000000000800000000000000100010000000000000000000000000004000000000000000004000000000000000000000000000000000000000000002000000000000000000000000000000000000000000002000000000000000000000000000000000000000000000000000000040000000000000000000000000000000000000000000000000000000040000000000000000000000000000000000000000000000000000000000000000000000000000000000000000000080000000000000000100000000000000000000000000000000000000000000000000000000000000000000000000000000000",
      "type": "0x2",
      "transactionHash": "0x3607ce9db586ff1b9b9eb3be682938d2e112ae30ea95ebdfa514c185bd5fec5c",
      "transactionIndex": "0x2",
      "blockHash": "0x08b324ed723f6deec42d2066fc514786a07f00d11c634c11109da72c25cfe69f",
      "blockNumber": "0x433ee0",
      "gasUsed": "0x1327c",
      "effectiveGasPrice": "0x5d21dba01",
      "from": "0x56fd3f2bee130e9867942d0f463a16fbe49b8d81",
      "to": "0xecb3c656c131fcd9bb8d1d80898716bd684feb78",
      "contractAddress": null,
      "l1BaseFeeScalar": "0x0",
      "l1BlobBaseFee": "0x54504e67",
      "l1BlobBaseFeeScalar": "0x0",
      "l1Fee": "0x0",
      "l1GasPrice": "0x4443",
      "l1GasUsed": "0x640"
    },
    {
      "status": "0x1",
      "cumulativeGasUsed": "0x36b1c",
      "logs": [
        {
          "address": "0xecb3c656c131fcd9bb8d1d80898716bd684feb78",
          "topics": [
            "0xadbbec6c203cb0248e89fe6d15ad651061a9d5203a1ab0273256e2b7decffa89",
            "0x7952984d7278ca3417febf52815c321984ac3147ced2c02bb6a02b0bcab08413",
            "0x000000000000000000000000de9e4c3ce781b4ba68120d6261cbad65ce0ab00b",
            "0x0000000000000000000000000352976d940a2c3fba0c3623198947ee1d17869e"
          ],
          "data": "0x0000000000000000000000003b199d9ebebe509bb711bffb455c2d79102a9602",
          "blockHash": "0x08b324ed723f6deec42d2066fc514786a07f00d11c634c11109da72c25cfe69f",
          "blockNumber": "0x433ee0",
          "transactionHash": "0xa97ccfee7d208b9487a1be62cb0aa2b32cb184b6880c41f18641aad1307f6e6e",
          "transactionIndex": "0x3",
          "logIndex": "0x1",
          "removed": false
        }
      ],
      "logsBloom": "0x00000000000000000000000000004008008008000000000100003000000000000100010000000000000000000000000000000001000000000000000000000000000000000000000000000000000000002000000000000000000000000000000000000000000002000000000000000000000000000000000000000000000000000000040000000000000000000000000000000000000000000000000000000000000000000000000000000000000000000000000000000000000000000000000000000000000000000000000000000000000000000200100000000000000000000000000000000000000000000000000000000000000000000000000000000000",
      "type": "0x2",
      "transactionHash": "0xa97ccfee7d208b9487a1be62cb0aa2b32cb184b6880c41f18641aad1307f6e6e",
      "transactionIndex": "0x3",
      "blockHash": "0x08b324ed723f6deec42d2066fc514786a07f00d11c634c11109da72c25cfe69f",
      "blockNumber": "0x433ee0",
      "gasUsed": "0x1327c",
      "effectiveGasPrice": "0x5d21dba01",
      "from": "0x56fd3f2bee130e9867942d0f463a16fbe49b8d81",
      "to": "0xecb3c656c131fcd9bb8d1d80898716bd684feb78",
      "contractAddress": null,
      "l1BaseFeeScalar": "0x0",
      "l1BlobBaseFee": "0x54504e67",
      "l1BlobBaseFeeScalar": "0x0",
      "l1Fee": "0x0",
      "l1GasPrice": "0x4443",
      "l1GasUsed": "0x640"
    },
    {
      "status": "0x1",
      "cumulativeGasUsed": "0x49d98",
      "logs": [
        {
          "address": "0xecb3c656c131fcd9bb8d1d80898716bd684feb78",
          "topics": [
            "0xadbbec6c203cb0248e89fe6d15ad651061a9d5203a1ab0273256e2b7decffa89",
            "0x89de88b8eb790de26f4649f543cb6893d93635c728ac857f0926e842fb0d298b",
            "0x000000000000000000000000de9e4c3ce781b4ba68120d6261cbad65ce0ab00b",
            "0x000000000000000000000000c7e4635651e3e3af82b61d3e23c159438dae3bbf"
          ],
          "data": "0x0000000000000000000000003b199d9ebebe509bb711bffb455c2d79102a9602",
          "blockHash": "0x08b324ed723f6deec42d2066fc514786a07f00d11c634c11109da72c25cfe69f",
          "blockNumber": "0x433ee0",
          "transactionHash": "0xf324da969c7c9818d6c0b84f99403f81a50d68ab0fe96e6e2007b28e354029f2",
          "transactionIndex": "0x4",
          "logIndex": "0x2",
          "removed": false
        }
      ],
      "logsBloom": "0x00000000000000000000000000004000008008000000000000000000000000000100010000000000000000000000000000000000000000000000000000000000000000000000000000000000000000002000000000000000000000000000000000000000000002000000000000000000000000000000000000000000000000000000040000000000000000000000000000000000000000000000000000040000000000000000000000000000000000000000000000000000000000000200000000000000000000000000000000000000000000000004180000000000000000000000000000000000001000000000000000000000000000200000000000000000",
      "type": "0x2",
      "transactionHash": "0xf324da969c7c9818d6c0b84f99403f81a50d68ab0fe96e6e2007b28e354029f2",
      "transactionIndex": "0x4",
      "blockHash": "0x08b324ed723f6deec42d2066fc514786a07f00d11c634c11109da72c25cfe69f",
      "blockNumber": "0x433ee0",
      "gasUsed": "0x1327c",
      "effectiveGasPrice": "0x5d21dba01",
      "from": "0x56fd3f2bee130e9867942d0f463a16fbe49b8d81",
      "to": "0xecb3c656c131fcd9bb8d1d80898716bd684feb78",
      "contractAddress": null,
      "l1BaseFeeScalar": "0x0",
      "l1BlobBaseFee": "0x54504e67",
      "l1BlobBaseFeeScalar": "0x0",
      "l1Fee": "0x0",
      "l1GasPrice": "0x4443",
      "l1GasUsed": "0x640"
    },
    {
      "status": "0x1",
      "cumulativeGasUsed": "0x5d014",
      "logs": [
        {
          "address": "0xecb3c656c131fcd9bb8d1d80898716bd684feb78",
          "topics": [
            "0xadbbec6c203cb0248e89fe6d15ad651061a9d5203a1ab0273256e2b7decffa89",
            "0x67a5122dab72931be57196e0abba81690461f327bc60fb98ca7eef0ac58906cc",
            "0x000000000000000000000000de9e4c3ce781b4ba68120d6261cbad65ce0ab00b",
            "0x0000000000000000000000003d5ae86f34e2a82771496d140dafaef3789df888"
          ],
          "data": "0x0000000000000000000000003b199d9ebebe509bb711bffb455c2d79102a9602",
          "blockHash": "0x08b324ed723f6deec42d2066fc514786a07f00d11c634c11109da72c25cfe69f",
          "blockNumber": "0x433ee0",
          "transactionHash": "0xf957531d549de8bd5e0cd8334166ffdb343885df829731de6b8865f3353ce525",
          "transactionIndex": "0x5",
          "logIndex": "0x3",
          "removed": false
        }
      ],
      "logsBloom": "0x00000000000000000000000000004000008008000000000000000000000000000100010000000000000000800000000000000000000000000000000000000000000000000000000000000000000000002000000000000000000000000000000000000000000002000000000000000000000000000000000000000000000000000000040000000000000000000000000000000000000000000000000000002000000000000000000000000000000000000080000000000000000000000000000000000000000000000000000000000000000000000000100000000000000000000000400000000000000000000000000080000000000000000000000000200000",
      "type": "0x2",
      "transactionHash": "0xf957531d549de8bd5e0cd8334166ffdb343885df829731de6b8865f3353ce525",
      "transactionIndex": "0x5",
      "blockHash": "0x08b324ed723f6deec42d2066fc514786a07f00d11c634c11109da72c25cfe69f",
      "blockNumber": "0x433ee0",
      "gasUsed": "0x1327c",
      "effectiveGasPrice": "0x5d21dba01",
      "from": "0x56fd3f2bee130e9867942d0f463a16fbe49b8d81",
      "to": "0xecb3c656c131fcd9bb8d1d80898716bd684feb78",
      "contractAddress": null,
      "l1BaseFeeScalar": "0x0",
      "l1BlobBaseFee": "0x54504e67",
      "l1BlobBaseFeeScalar": "0x0",
      "l1Fee": "0x0",
      "l1GasPrice": "0x4443",
      "l1GasUsed": "0x640"
    },
    {
      "status": "0x1",
      "cumulativeGasUsed": "0x70290",
      "logs": [
        {
          "address": "0xecb3c656c131fcd9bb8d1d80898716bd684feb78",
          "topics": [
            "0xadbbec6c203cb0248e89fe6d15ad651061a9d5203a1ab0273256e2b7decffa89",
            "0x3562f9d29eba092b857480a82b03375839c752346b9ebe93a57ab82410328187",
            "0x000000000000000000000000de9e4c3ce781b4ba68120d6261cbad65ce0ab00b",
            "0x0000000000000000000000005e94b8c872bd47bc4255e60ecbf44d5e66e7401c"
          ],
          "data": "0x0000000000000000000000003b199d9ebebe509bb711bffb455c2d79102a9602",
          "blockHash": "0x08b324ed723f6deec42d2066fc514786a07f00d11c634c11109da72c25cfe69f",
          "blockNumber": "0x433ee0",
          "transactionHash": "0x8098a5a1fb11f194c9fc4fb5647201dc1c8066d5ab1a23d8a0f18c2b532cb1fa",
          "transactionIndex": "0x6",
          "logIndex": "0x4",
          "removed": false
        }
      ],
      "logsBloom": "0x00000000000000000000000000004020008008000000000000000008000000000100010000001000000000000000000000000000000000000000000000000000000000000000000000000000000000002000000000000000000000000000000000000000000002000000000000000000000000000000000000000000000000000000040000000000000000000000000000000000000000000000000000000000000000000000000000000004000000000000000000000000000000000000000000000000000000000000000000000000000000000000100000000000000800000000000000000000000000000000000800000000000000000000000000000000",
      "type": "0x2",
      "transactionHash": "0x8098a5a1fb11f194c9fc4fb5647201dc1c8066d5ab1a23d8a0f18c2b532cb1fa",
      "transactionIndex": "0x6",
      "blockHash": "0x08b324ed723f6deec42d2066fc514786a07f00d11c634c11109da72c25cfe69f",
      "blockNumber": "0x433ee0",
      "gasUsed": "0x1327c",
      "effectiveGasPrice": "0x5d21dba01",
      "from": "0x56fd3f2bee130e9867942d0f463a16fbe49b8d81",
      "to": "0xecb3c656c131fcd9bb8d1d80898716bd684feb78",
      "contractAddress": null,
      "l1BaseFeeScalar": "0x0",
      "l1BlobBaseFee": "0x54504e67",
      "l1BlobBaseFeeScalar": "0x0",
      "l1Fee": "0x0",
      "l1GasPrice": "0x4443",
      "l1GasUsed": "0x640"
    },
    {
      "status": "0x1",
      "cumulativeGasUsed": "0x8350c",
      "logs": [
        {
          "address": "0xecb3c656c131fcd9bb8d1d80898716bd684feb78",
          "topics": [
            "0xadbbec6c203cb0248e89fe6d15ad651061a9d5203a1ab0273256e2b7decffa89",
            "0xd11d52b973ddbb983cc2087aabcafd915fc3140cf9996aacc61db9710d1bde05",
            "0x000000000000000000000000de9e4c3ce781b4ba68120d6261cbad65ce0ab00b",
            "0x0000000000000000000000002294298942fdc79417de9e0d740a4957e0e7783a"
          ],
          "data": "0x0000000000000000000000003b199d9ebebe509bb711bffb455c2d79102a9602",
          "blockHash": "0x08b324ed723f6deec42d2066fc514786a07f00d11c634c11109da72c25cfe69f",
          "blockNumber": "0x433ee0",
          "transactionHash": "0xa8077ce517fd023917d8cca838c061af18339a5d57f00a239efda411852cc007",
          "transactionIndex": "0x7",
          "logIndex": "0x5",
          "removed": false
        }
      ],
      "logsBloom": "0x00000000000000000000000000004000008008000000000000000000002000000100010040020000000000000000000000000000000000000000000000000000000000000000000000000000000000002000000000000000000000000000000000000000000002000000000000000000000000020000000000000000000000000000040000000000000000000000000000000000000000000000000000000000000000000000000000000000000000000000000000000000000000000000000000000000000000000000000000000000000000000000120001000000000000000000000000000000000000000000000000000000000000000000000000000000",
      "type": "0x2",
      "transactionHash": "0xa8077ce517fd023917d8cca838c061af18339a5d57f00a239efda411852cc007",
      "transactionIndex": "0x7",
      "blockHash": "0x08b324ed723f6deec42d2066fc514786a07f00d11c634c11109da72c25cfe69f",
      "blockNumber": "0x433ee0",
      "gasUsed": "0x1327c",
      "effectiveGasPrice": "0x5d21dba01",
      "from": "0x56fd3f2bee130e9867942d0f463a16fbe49b8d81",
      "to": "0xecb3c656c131fcd9bb8d1d80898716bd684feb78",
      "contractAddress": null,
      "l1BaseFeeScalar": "0x0",
      "l1BlobBaseFee": "0x54504e67",
      "l1BlobBaseFeeScalar": "0x0",
      "l1Fee": "0x0",
      "l1GasPrice": "0x4443",
      "l1GasUsed": "0x640"
    },
    {
      "status": "0x1",
      "cumulativeGasUsed": "0x96788",
      "logs": [
        {
          "address": "0xecb3c656c131fcd9bb8d1d80898716bd684feb78",
          "topics": [
            "0xadbbec6c203cb0248e89fe6d15ad651061a9d5203a1ab0273256e2b7decffa89",
            "0x1c9378bd0973ff313a599d3effc654ba759f8ccca655ab6d6ce5bd39a212943b",
            "0x000000000000000000000000de9e4c3ce781b4ba68120d6261cbad65ce0ab00b",
            "0x0000000000000000000000005f8d55c3627d2dc0a2b4afa798f877242f382f67"
          ],
          "data": "0x0000000000000000000000003b199d9ebebe509bb711bffb455c2d79102a9602",
          "blockHash": "0x08b324ed723f6deec42d2066fc514786a07f00d11c634c11109da72c25cfe69f",
          "blockNumber": "0x433ee0",
          "transactionHash": "0xb0db9de48deec5aac34bac94ec55243ebed76cdd4eb404d102fe057c79c06b07",
          "transactionIndex": "0x8",
          "logIndex": "0x6",
          "removed": false
        }
      ],
      "logsBloom": "0x00000000000000000000000000004000008008000000000000000000000000000100010000000000000000000000000000000000000000000000000000000000000000000000000000000000000000002100000000000000000000000008000000000000000002000000000000000000000000000000000000000000000040000000040000000000000000000000000000000000000000000000000000000000000000000200000000000000000000000000000000000010000000000000000000000000000000000000000000000000000000000000100000000000000001000000000000000000000000000000000000000000000000000000000000000000",
      "type": "0x2",
      "transactionHash": "0xb0db9de48deec5aac34bac94ec55243ebed76cdd4eb404d102fe057c79c06b07",
      "transactionIndex": "0x8",
      "blockHash": "0x08b324ed723f6deec42d2066fc514786a07f00d11c634c11109da72c25cfe69f",
      "blockNumber": "0x433ee0",
      "gasUsed": "0x1327c",
      "effectiveGasPrice": "0x5d21dba01",
      "from": "0x56fd3f2bee130e9867942d0f463a16fbe49b8d81",
      "to": "0xecb3c656c131fcd9bb8d1d80898716bd684feb78",
      "contractAddress": null,
      "l1BaseFeeScalar": "0x0",
      "l1BlobBaseFee": "0x54504e67",
      "l1BlobBaseFeeScalar": "0x0",
      "l1Fee": "0x0",
      "l1GasPrice": "0x4443",
      "l1GasUsed": "0x640"
    },
    {
      "status": "0x1",
      "cumulativeGasUsed": "0xa9a04",
      "logs": [
        {
          "address": "0xecb3c656c131fcd9bb8d1d80898716bd684feb78",
          "topics": [
            "0xadbbec6c203cb0248e89fe6d15ad651061a9d5203a1ab0273256e2b7decffa89",
            "0x7c3b41fbd140c6fb54ff9f8f7b7b0c954606682d44ed5e56b0080f40faaf652c",
            "0x000000000000000000000000de9e4c3ce781b4ba68120d6261cbad65ce0ab00b",
            "0x00000000000000000000000085bee67d435a39f7467a8a9de34a5b73d25df426"
          ],
          "data": "0x0000000000000000000000003b199d9ebebe509bb711bffb455c2d79102a9602",
          "blockHash": "0x08b324ed723f6deec42d2066fc514786a07f00d11c634c11109da72c25cfe69f",
          "blockNumber": "0x433ee0",
          "transactionHash": "0x3b4ff0df69da394bb8db3d0803e2dd145a517dbff728a16a2742da9fe31928ce",
          "transactionIndex": "0x9",
          "logIndex": "0x7",
          "removed": false
        }
      ],
      "logsBloom": "0x00000000000000000000000000004000008008000000000000000000000000000100010000000000000000000000000000000000000000000000000000000000000000000000000000000000000000002000000020000000000000000000000000000000000002000000001000000000000000000000000000000004000000000000040000000000000000000000000000000000000000000000000000000000000000000000000000000000004000000000000000000000000000000000000000000000000000000001000000000000000000000000100000000000000001000000000000000000000000000000000000000000000000000000000000000000",
      "type": "0x2",
      "transactionHash": "0x3b4ff0df69da394bb8db3d0803e2dd145a517dbff728a16a2742da9fe31928ce",
      "transactionIndex": "0x9",
      "blockHash": "0x08b324ed723f6deec42d2066fc514786a07f00d11c634c11109da72c25cfe69f",
      "blockNumber": "0x433ee0",
      "gasUsed": "0x1327c",
      "effectiveGasPrice": "0x5d21dba01",
      "from": "0x56fd3f2bee130e9867942d0f463a16fbe49b8d81",
      "to": "0xecb3c656c131fcd9bb8d1d80898716bd684feb78",
      "contractAddress": null,
      "l1BaseFeeScalar": "0x0",
      "l1BlobBaseFee": "0x54504e67",
      "l1BlobBaseFeeScalar": "0x0",
      "l1Fee": "0x0",
      "l1GasPrice": "0x4443",
      "l1GasUsed": "0x640"
    },
    {
      "status": "0x1",
      "cumulativeGasUsed": "0xbcc80",
      "logs": [
        {
          "address": "0xecb3c656c131fcd9bb8d1d80898716bd684feb78",
          "topics": [
            "0xadbbec6c203cb0248e89fe6d15ad651061a9d5203a1ab0273256e2b7decffa89",
            "0x3ddbc61433314a4b7d3cbb56a001fc4cc0f1d52d64338336d5f2083a580ce4fc",
            "0x000000000000000000000000de9e4c3ce781b4ba68120d6261cbad65ce0ab00b",
            "0x000000000000000000000000284e9b7b623eae866914b7fa0eb720c2bb3c2980"
          ],
          "data": "0x0000000000000000000000003b199d9ebebe509bb711bffb455c2d79102a9602",
          "blockHash": "0x08b324ed723f6deec42d2066fc514786a07f00d11c634c11109da72c25cfe69f",
          "blockNumber": "0x433ee0",
          "transactionHash": "0xff0105d0a1d844daebd3d4c0c8faadc7ba6ba0ce2dc14d2203d77eb09911be17",
          "transactionIndex": "0xa",
          "logIndex": "0x8",
          "removed": false
        }
      ],
      "logsBloom": "0x000000000000000000000000010040000080080000000000000000000000000001000100000000000000000000000000000000000000000000000000000000000000000000000000000000000000000020000000000000000000000000000000000000000000020000000000000000000000000000000000000002000040000000000c0000000000000000000000000000000000000000000000000000000000000000000000800000000000000000000000000000000000000000000000000000000000000000100000000000000000000000000000100000000000000000000000000000000000000000000000000000000000000000000000000000000000",
      "type": "0x2",
      "transactionHash": "0xff0105d0a1d844daebd3d4c0c8faadc7ba6ba0ce2dc14d2203d77eb09911be17",
      "transactionIndex": "0xa",
      "blockHash": "0x08b324ed723f6deec42d2066fc514786a07f00d11c634c11109da72c25cfe69f",
      "blockNumber": "0x433ee0",
      "gasUsed": "0x1327c",
      "effectiveGasPrice": "0x5d21dba01",
      "from": "0x56fd3f2bee130e9867942d0f463a16fbe49b8d81",
      "to": "0xecb3c656c131fcd9bb8d1d80898716bd684feb78",
      "contractAddress": null,
      "l1BaseFeeScalar": "0x0",
      "l1BlobBaseFee": "0x54504e67",
      "l1BlobBaseFeeScalar": "0x0",
      "l1Fee": "0x0",
      "l1GasPrice": "0x4443",
      "l1GasUsed": "0x640"
    },
    {
      "status": "0x1",
      "cumulativeGasUsed": "0xcfefc",
      "logs": [
        {
          "address": "0xecb3c656c131fcd9bb8d1d80898716bd684feb78",
          "topics": [
            "0xadbbec6c203cb0248e89fe6d15ad651061a9d5203a1ab0273256e2b7decffa89",
            "0x4206e101b13bf29e40b2bfed4cf167271c41677720f2ee786ac1bf5efac101cb",
            "0x000000000000000000000000de9e4c3ce781b4ba68120d6261cbad65ce0ab00b",
            "0x00000000000000000000000010ccfb235b0e1ed394bace4560c3ed016697687e"
          ],
          "data": "0x0000000000000000000000003b199d9ebebe509bb711bffb455c2d79102a9602",
          "blockHash": "0x08b324ed723f6deec42d2066fc514786a07f00d11c634c11109da72c25cfe69f",
          "blockNumber": "0x433ee0",
          "transactionHash": "0xd907f525ac524a21c99494863626dcd6705f829d5e4f4df3629bc0c4fdb42ef3",
          "transactionIndex": "0xb",
          "logIndex": "0x9",
          "removed": false
        }
      ],
      "logsBloom": "0x00000000000000000000000000004000008008000000000000000000000000000100010000000000000000000000000000000000000020000000000080000000000000000000000000000000000000002000000000000000000000000000000000000000000002000000000000000000000000000000000000000000000000000000042000000000000000000000000000000000000000000000000000000000000000000000000000000000002000000000000000000000000000000004000000000000000000000000000000000000000000000000100000000000000000000000000000000000000000000000000000000000000000000800000000000000",
      "type": "0x2",
      "transactionHash": "0xd907f525ac524a21c99494863626dcd6705f829d5e4f4df3629bc0c4fdb42ef3",
      "transactionIndex": "0xb",
      "blockHash": "0x08b324ed723f6deec42d2066fc514786a07f00d11c634c11109da72c25cfe69f",
      "blockNumber": "0x433ee0",
      "gasUsed": "0x1327c",
      "effectiveGasPrice": "0x5d21dba01",
      "from": "0x56fd3f2bee130e9867942d0f463a16fbe49b8d81",
      "to": "0xecb3c656c131fcd9bb8d1d80898716bd684feb78",
      "contractAddress": null,
      "l1BaseFeeScalar": "0x0",
      "l1BlobBaseFee": "0x54504e67",
      "l1BlobBaseFeeScalar": "0x0",
      "l1Fee": "0x0",
      "l1GasPrice": "0x4443",
      "l1GasUsed": "0x640"
    },
    {
      "status": "0x1",
      "cumulativeGasUsed": "0xe3178",
      "logs": [
        {
          "address": "0xecb3c656c131fcd9bb8d1d80898716bd684feb78",
          "topics": [
            "0xadbbec6c203cb0248e89fe6d15ad651061a9d5203a1ab0273256e2b7decffa89",
            "0x6c369bfb1598b2f7718671221bc524c84874ad1ed7ba02a61121e7a06722e2ce",
            "0x000000000000000000000000de9e4c3ce781b4ba68120d6261cbad65ce0ab00b",
            "0x00000000000000000000000085f5181abdbf0e1814fc4358582ae07b8eba3af3"
          ],
          "data": "0x0000000000000000000000003b199d9ebebe509bb711bffb455c2d79102a9602",
          "blockHash": "0x08b324ed723f6deec42d2066fc514786a07f00d11c634c11109da72c25cfe69f",
          "blockNumber": "0x433ee0",
          "transactionHash": "0xd9226a1749e55073338a95f692e36ac071caa61ccff412d64e19b328fd985a94",
          "transactionIndex": "0xc",
          "logIndex": "0xa",
          "removed": false
        }
      ],
      "logsBloom": "0x00000000000000000000000000404000008008000000000000000000000000000100010000000000000000000000000000000200000000000000000000000000000002100000000000000000000000002000000000000000000000000000004000000000000002000000000000080000000000000000000000000000000000000000040000000000000000000000000000000000000000000000000000000000000000000000000000000000000000000000000000000000000000000000000000000000000000000000000000000000000000000000100000000000000000000000000000000000000000000000000000000000000000000000000000000000",
      "type": "0x2",
      "transactionHash": "0xd9226a1749e55073338a95f692e36ac071caa61ccff412d64e19b328fd985a94",
      "transactionIndex": "0xc",
      "blockHash": "0x08b324ed723f6deec42d2066fc514786a07f00d11c634c11109da72c25cfe69f",
      "blockNumber": "0x433ee0",
      "gasUsed": "0x1327c",
      "effectiveGasPrice": "0x5d21dba01",
      "from": "0x56fd3f2bee130e9867942d0f463a16fbe49b8d81",
      "to": "0xecb3c656c131fcd9bb8d1d80898716bd684feb78",
      "contractAddress": null,
      "l1BaseFeeScalar": "0x0",
      "l1BlobBaseFee": "0x54504e67",
      "l1BlobBaseFeeScalar": "0x0",
      "l1Fee": "0x0",
      "l1GasPrice": "0x4443",
      "l1GasUsed": "0x640"
    },
    {
      "status": "0x1",
      "cumulativeGasUsed": "0xf63f4",
      "logs": [
        {
          "address": "0xecb3c656c131fcd9bb8d1d80898716bd684feb78",
          "topics": [
            "0xadbbec6c203cb0248e89fe6d15ad651061a9d5203a1ab0273256e2b7decffa89",
            "0x517ccc3bcab9f35e2e24143a0c1809068efc649f740846cfb6a1c5703735c1ee",
            "0x000000000000000000000000de9e4c3ce781b4ba68120d6261cbad65ce0ab00b",
            "0x000000000000000000000000f151c9a13b78c84f93f50b8b3bc689fedc134f60"
          ],
          "data": "0x0000000000000000000000003b199d9ebebe509bb711bffb455c2d79102a9602",
          "blockHash": "0x08b324ed723f6deec42d2066fc514786a07f00d11c634c11109da72c25cfe69f",
          "blockNumber": "0x433ee0",
          "transactionHash": "0xfbe8616f6467228840742be742b5f5d5c0fcbe509ad08c2c4af1fab61d921534",
          "transactionIndex": "0xd",
          "logIndex": "0xb",
          "removed": false
        }
      ],
      "logsBloom": "0x08000000000000000000000000004000008008000000000000000000001010000100010000000000000000000000000000000000000000000000000000000000000000000000000000000000000000002000000000000000000000000000000000000000000002000000000000000000000000000000000000000000000000000000040000000000000000080000000000000000000000000000000000000000000000000000000000000000000000000000000000000000000000000000000000000000000000000000000000000000000002000000100000000000000000000000000000000020000000000000000000000000000000000000000000000000",
      "type": "0x2",
      "transactionHash": "0xfbe8616f6467228840742be742b5f5d5c0fcbe509ad08c2c4af1fab61d921534",
      "transactionIndex": "0xd",
      "blockHash": "0x08b324ed723f6deec42d2066fc514786a07f00d11c634c11109da72c25cfe69f",
      "blockNumber": "0x433ee0",
      "gasUsed": "0x1327c",
      "effectiveGasPrice": "0x5d21dba01",
      "from": "0x56fd3f2bee130e9867942d0f463a16fbe49b8d81",
      "to": "0xecb3c656c131fcd9bb8d1d80898716bd684feb78",
      "contractAddress": null,
      "l1BaseFeeScalar": "0x0",
      "l1BlobBaseFee": "0x54504e67",
      "l1BlobBaseFeeScalar": "0x0",
      "l1Fee": "0x0",
      "l1GasPrice": "0x4443",
      "l1GasUsed": "0x640"
    },
    {
      "status": "0x1",
      "cumulativeGasUsed": "0x109670",
      "logs": [
        {
          "address": "0xecb3c656c131fcd9bb8d1d80898716bd684feb78",
          "topics": [
            "0xadbbec6c203cb0248e89fe6d15ad651061a9d5203a1ab0273256e2b7decffa89",
            "0xd580d237231109e6a96d67d82450611c610a805a26660c90281bdc0cd04a95c7",
            "0x000000000000000000000000de9e4c3ce781b4ba68120d6261cbad65ce0ab00b",
            "0x0000000000000000000000005873faeb42f3563dcd77f0fbbda818e6d6da3139"
          ],
          "data": "0x0000000000000000000000003b199d9ebebe509bb711bffb455c2d79102a9602",
          "blockHash": "0x08b324ed723f6deec42d2066fc514786a07f00d11c634c11109da72c25cfe69f",
          "blockNumber": "0x433ee0",
          "transactionHash": "0x268677a0fb2064c3099d1b6fa7d6f098d8d86a9401546413d39d5a9be4151cbb",
          "transactionIndex": "0xe",
          "logIndex": "0xc",
          "removed": false
        }
      ],
      "logsBloom": "0x00000000000080000000000000004000008008000000000000000000000000000100010000000000000000000000000000000000000000000000000000000000000000000000000000000000000000002000000000000000200000000000000000000000000002000000000000000000000000000000000000000000000000000000040000000000000000000000000000000000000000000000000000000000000000000000000000000000000000000000080000000000800000000000000000000020000000000000000008000000000000000000100000000000000000000000000000000000000000000000000000000000000000000000000000000000",
      "type": "0x2",
      "transactionHash": "0x268677a0fb2064c3099d1b6fa7d6f098d8d86a9401546413d39d5a9be4151cbb",
      "transactionIndex": "0xe",
      "blockHash": "0x08b324ed723f6deec42d2066fc514786a07f00d11c634c11109da72c25cfe69f",
      "blockNumber": "0x433ee0",
      "gasUsed": "0x1327c",
      "effectiveGasPrice": "0x5d21dba01",
      "from": "0x56fd3f2bee130e9867942d0f463a16fbe49b8d81",
      "to": "0xecb3c656c131fcd9bb8d1d80898716bd684feb78",
      "contractAddress": null,
      "l1BaseFeeScalar": "0x0",
      "l1BlobBaseFee": "0x54504e67",
      "l1BlobBaseFeeScalar": "0x0",
      "l1Fee": "0x0",
      "l1GasPrice": "0x4443",
      "l1GasUsed": "0x640"
    },
    {
      "status": "0x1",
      "cumulativeGasUsed": "0x11c8ec",
      "logs": [
        {
          "address": "0xecb3c656c131fcd9bb8d1d80898716bd684feb78",
          "topics": [
            "0xadbbec6c203cb0248e89fe6d15ad651061a9d5203a1ab0273256e2b7decffa89",
            "0x746455363e8f55d04e0a2cc040d1b348a6c031b336ba6af6ae91515c194929c8",
            "0x000000000000000000000000de9e4c3ce781b4ba68120d6261cbad65ce0ab00b",
            "0x000000000000000000000000a99dc247d6b7b2e3ab48a1fee101b83cd6acd82a"
          ],
          "data": "0x0000000000000000000000003b199d9ebebe509bb711bffb455c2d79102a9602",
          "blockHash": "0x08b324ed723f6deec42d2066fc514786a07f00d11c634c11109da72c25cfe69f",
          "blockNumber": "0x433ee0",
          "transactionHash": "0x41eebaa5d18c1f9715cc670eb8f5e3a5acee732fb9d828be0a71d9cd52f5da17",
          "transactionIndex": "0xf",
          "logIndex": "0xd",
          "removed": false
        }
      ],
      "logsBloom": "0x00000000000000000000000000004000008008000000000000000000000000000100014000000000000000000020000000000000000000000000000000000000000000000000000000000000000000102000000000000000000000000000000000000000000002000000000000000000000000000000000020000000000000000000040000000000000000000000000000000020000000000000000000000000000000000000000000000000000000000000000000000000000000000000000000000000000000000000000000000000000000000000100000000000000000000000000000000000000000000000000000200000000000000000000000000000",
      "type": "0x2",
      "transactionHash": "0x41eebaa5d18c1f9715cc670eb8f5e3a5acee732fb9d828be0a71d9cd52f5da17",
      "transactionIndex": "0xf",
      "blockHash": "0x08b324ed723f6deec42d2066fc514786a07f00d11c634c11109da72c25cfe69f",
      "blockNumber": "0x433ee0",
      "gasUsed": "0x1327c",
      "effectiveGasPrice": "0x5d21dba01",
      "from": "0x56fd3f2bee130e9867942d0f463a16fbe49b8d81",
      "to": "0xecb3c656c131fcd9bb8d1d80898716bd684feb78",
      "contractAddress": null,
      "l1BaseFeeScalar": "0x0",
      "l1BlobBaseFee": "0x54504e67",
      "l1BlobBaseFeeScalar": "0x0",
      "l1Fee": "0x0",
      "l1GasPrice": "0x4443",
      "l1GasUsed": "0x640"
    },
    {
      "status": "0x1",
      "cumulativeGasUsed": "0x12fb68",
      "logs": [
        {
          "address": "0xecb3c656c131fcd9bb8d1d80898716bd684feb78",
          "topics": [
            "0xadbbec6c203cb0248e89fe6d15ad651061a9d5203a1ab0273256e2b7decffa89",
            "0xfca6d94b46122eb9a4b86cf9d3e1e856fea8a826d0fc26c5baf17c43fbaf0f48",
            "0x000000000000000000000000a99dc247d6b7b2e3ab48a1fee101b83cd6acd82a",
            "0x0000000000000000000000009883d788d40f1c7595a780ed881ea833c7743b4b"
          ],
          "data": "0x0000000000000000000000003b199d9ebebe509bb711bffb455c2d79102a9602",
          "blockHash": "0x08b324ed723f6deec42d2066fc514786a07f00d11c634c11109da72c25cfe69f",
          "blockNumber": "0x433ee0",
          "transactionHash": "0x7c116f7562c6146198f9faa29761befe35b125c1c9b536ce987a47de65d83f04",
          "transactionIndex": "0x10",
          "logIndex": "0xe",
          "removed": false
        }
      ],
      "logsBloom": "0x00000000020000010000000000004000008008000000000000000000000000000000000000000000000000000000000000000000000000000000000000000000000000000000000000000000000000102000000000100000000000000000000000000000000000000000000000000000000002000000000020000000000000000000040000000000000000000000000000000000000000000000000000000000000000000000000000000000000000000000000000000000000000000000000000000000020000000000000000000000000080000000100000000000000000000000000000000000000000000000000000200000000000000000000000000000",
      "type": "0x2",
      "transactionHash": "0x7c116f7562c6146198f9faa29761befe35b125c1c9b536ce987a47de65d83f04",
      "transactionIndex": "0x10",
      "blockHash": "0x08b324ed723f6deec42d2066fc514786a07f00d11c634c11109da72c25cfe69f",
      "blockNumber": "0x433ee0",
      "gasUsed": "0x1327c",
      "effectiveGasPrice": "0x5d21dba01",
      "from": "0x56fd3f2bee130e9867942d0f463a16fbe49b8d81",
      "to": "0xecb3c656c131fcd9bb8d1d80898716bd684feb78",
      "contractAddress": null,
      "l1BaseFeeScalar": "0x0",
      "l1BlobBaseFee": "0x54504e67",
      "l1BlobBaseFeeScalar": "0x0",
      "l1Fee": "0x0",
      "l1GasPrice": "0x4443",
      "l1GasUsed": "0x640"
    },
    {
      "status": "0x1",
      "cumulativeGasUsed": "0x238a0",
      "logs": [
        {
          "address": "0xecb3c656c131fcd9bb8d1d80898716bd684feb78",
          "topics": [
            "0xadbbec6c203cb0248e89fe6d15ad651061a9d5203a1ab0273256e2b7decffa89",
            "0x3135b662c38265d0655177091f1b647b4fef511103d06c016efdf18b46930d2c",
            "0x000000000000000000000000de9e4c3ce781b4ba68120d6261cbad65ce0ab00b",
            "0x000000000000000000000000471ece3750da237f93b8e339c536989b8978a438"
          ],
          "data": "0x0000000000000000000000002584a5835e3ae7e901e6462e1de06920c2c68028",
          "blockHash": "0xc660ab9096e34d327342499160eb904ada9627ee47b86aaf3f6f6b615b39b44c",
          "blockNumber": "0x433ee1",
          "transactionHash": "0xbf44f15cecebe27e01c9820721822cdb70c435519770e8f1cd5c3321101e224b",
          "transactionIndex": "0x2",
          "logIndex": "0x0",
          "removed": false
        }
      ],
      "logsBloom": "0x00000000000000000000000000004000008008000000000000000000000000000100010000000000400000000000000000000000000000000000000000000000000000000040000000000000000000002000000000000000000000000000000002000000000002000000000000000000000000000080000000000000000000000000040000000000000000000000000001000000000000000000000000000000000000000000000000000000000000000000000000000000000000000200000000000000000000000000000000000000000000000000100000000000000000000000000000000000000000000000000000000000000000000000000000000000",
      "type": "0x2",
      "transactionHash": "0xbf44f15cecebe27e01c9820721822cdb70c435519770e8f1cd5c3321101e224b",
      "transactionIndex": "0x2",
      "blockHash": "0xc660ab9096e34d327342499160eb904ada9627ee47b86aaf3f6f6b615b39b44c",
      "blockNumber": "0x433ee1",
      "gasUsed": "0x1327c",
      "effectiveGasPrice": "0x5d21dba01",
      "from": "0x56fd3f2bee130e9867942d0f463a16fbe49b8d81",
      "to": "0xecb3c656c131fcd9bb8d1d80898716bd684feb78",
      "contractAddress": null,
      "l1BaseFeeScalar": "0x0",
      "l1BlobBaseFee": "0x54504e67",
      "l1BlobBaseFeeScalar": "0x0",
      "l1Fee": "0x0",
      "l1GasPrice": "0x4443",
      "l1GasUsed": "0x640"
    },
    {
      "status": "0x1",
      "cumulativeGasUsed": "0x36252",
      "logs": [
        {
          "address": "0xecb3c656c131fcd9bb8d1d80898716bd684feb78",
          "topics": [
            "0xadbbec6c203cb0248e89fe6d15ad651061a9d5203a1ab0273256e2b7decffa89",
            "0x36e12d20b7a59b463a1a113caf338cbad9d64ee017548d00a791681f2fbf0763",
            "0x000000000000000000000000de9e4c3ce781b4ba68120d6261cbad65ce0ab00b",
            "0x000000000000000000000000ca53d9b72646b254d29ebeeb4c5cde7bb4bb59e0"
          ],
          "data": "0x0000000000000000000000003b199d9ebebe509bb711bffb455c2d79102a9602",
          "blockHash": "0xc660ab9096e34d327342499160eb904ada9627ee47b86aaf3f6f6b615b39b44c",
          "blockNumber": "0x433ee1",
          "transactionHash": "0x6a691e1d6121dbb1943a34a3e773f66842461bf4e080500c090e90444b62c736",
          "transactionIndex": "0x3",
          "logIndex": "0x1",
          "removed": false
        }
      ],
      "logsBloom": "0x00000000000000000000000020004000008008000000000000000000000000000100010000000000000000000000000000000000000000000000000000000800000000000000000000000000000000002000000000000000000000000000000000000000000002000000000000000000000000000000000000000000000000010000040000000000000000000000000000000100000000000000000000000000000000000000080000000000000000000000000000000000000000000000000002000000000000000000000000000000000000000000100000000000000000000000000000000000000000000000000000000000000000000000000000000000",
      "type": "0x2",
      "transactionHash": "0x6a691e1d6121dbb1943a34a3e773f66842461bf4e080500c090e90444b62c736",
      "transactionIndex": "0x3",
      "blockHash": "0xc660ab9096e34d327342499160eb904ada9627ee47b86aaf3f6f6b615b39b44c",
      "blockNumber": "0x433ee1",
      "gasUsed": "0x129b2",
      "effectiveGasPrice": "0x5d21dba01",
      "from": "0x56fd3f2bee130e9867942d0f463a16fbe49b8d81",
      "to": "0xecb3c656c131fcd9bb8d1d80898716bd684feb78",
      "contractAddress": null,
      "l1BaseFeeScalar": "0x0",
      "l1BlobBaseFee": "0x54504e67",
      "l1BlobBaseFeeScalar": "0x0",
      "l1Fee": "0x0",
      "l1GasPrice": "0x4443",
      "l1GasUsed": "0x640"
    },
    {
      "status": "0x1",
      "cumulativeGasUsed": "0x48c0e",
      "logs": [
        {
          "address": "0xecb3c656c131fcd9bb8d1d80898716bd684feb78",
          "topics": [
            "0xadbbec6c203cb0248e89fe6d15ad651061a9d5203a1ab0273256e2b7decffa89",
            "0x0d739efbfc30f303e8d1976c213b4040850d1af40f174f4169b846f6fd3d2f20",
            "0x000000000000000000000000de9e4c3ce781b4ba68120d6261cbad65ce0ab00b",
            "0x0000000000000000000000006285de9da7c1d329c0451628638908915002d9d1"
          ],
          "data": "0x0000000000000000000000003b199d9ebebe509bb711bffb455c2d79102a9602",
          "blockHash": "0xc660ab9096e34d327342499160eb904ada9627ee47b86aaf3f6f6b615b39b44c",
          "blockNumber": "0x433ee1",
          "transactionHash": "0xd56e02fc80554eba1865bdebc87ff346ff7ef2764dbf4c2b75b05d416c5ad061",
          "transactionIndex": "0x4",
          "logIndex": "0x2",
          "removed": false
        }
      ],
      "logsBloom": "0x40000000000000000000000000004000008008000000000000000000000000000100030000000000000000000000000000000000000000000000000000000000000000000000000000000000000000002000000000000000000000000000000000000000000002000000000000000000000000000000000000000000000000000000040000000000000000000000000000000000000000000000000000400000000000000200000000000000000000000000000000000000000000200000000000000100000000000000000000000000000000000000100000000000000000000000000000000000000000000000000000000000000000000000000000000000",
      "type": "0x2",
      "transactionHash": "0xd56e02fc80554eba1865bdebc87ff346ff7ef2764dbf4c2b75b05d416c5ad061",
      "transactionIndex": "0x4",
      "blockHash": "0xc660ab9096e34d327342499160eb904ada9627ee47b86aaf3f6f6b615b39b44c",
      "blockNumber": "0x433ee1",
      "gasUsed": "0x129bc",
      "effectiveGasPrice": "0x5d21dba01",
      "from": "0x56fd3f2bee130e9867942d0f463a16fbe49b8d81",
      "to": "0xecb3c656c131fcd9bb8d1d80898716bd684feb78",
      "contractAddress": null,
      "l1BaseFeeScalar": "0x0",
      "l1BlobBaseFee": "0x54504e67",
      "l1BlobBaseFeeScalar": "0x0",
      "l1Fee": "0x0",
      "l1GasPrice": "0x4443",
      "l1GasUsed": "0x640"
    },
    {
      "status": "0x1",
      "cumulativeGasUsed": "0x5b5c0",
      "logs": [
        {
          "address": "0xecb3c656c131fcd9bb8d1d80898716bd684feb78",
          "topics": [
            "0xadbbec6c203cb0248e89fe6d15ad651061a9d5203a1ab0273256e2b7decffa89",
            "0xacc988382b66ee5456086643dcfd9a5ca43dd8f428f6ef22503d8b8013bcffd7",
            "0x000000000000000000000000de9e4c3ce781b4ba68120d6261cbad65ce0ab00b",
            "0x000000000000000000000000bd63e46be8ef8d89dfde3054e7b9ecaeb8ad83e9"
          ],
          "data": "0x0000000000000000000000003b199d9ebebe509bb711bffb455c2d79102a9602",
          "blockHash": "0xc660ab9096e34d327342499160eb904ada9627ee47b86aaf3f6f6b615b39b44c",
          "blockNumber": "0x433ee1",
          "transactionHash": "0x7b1959357be3d3be6124a068e25b35acf72624214800a772b0122046303f1826",
          "transactionIndex": "0x5",
          "logIndex": "0x3",
          "removed": false
        }
      ],
      "logsBloom": "0x00000000000000000000000000004000008008000000000000000000000000000100010000000000000000000000000000000000000000000000000000000000000000000000000000000000000000002000000000000000000000000000000000000000000002000000000000000000000000000000001000000000000000000000040000000000000000000000000000000000000000000800000000000000000000000000000000000000000000000000000000000800000000000000000000000000000000002000000000000000002000000000100000000000000000000000000000000000000040000000000000000000000000000000000000000000",
      "type": "0x2",
      "transactionHash": "0x7b1959357be3d3be6124a068e25b35acf72624214800a772b0122046303f1826",
      "transactionIndex": "0x5",
      "blockHash": "0xc660ab9096e34d327342499160eb904ada9627ee47b86aaf3f6f6b615b39b44c",
      "blockNumber": "0x433ee1",
      "gasUsed": "0x129b2",
      "effectiveGasPrice": "0x5d21dba01",
      "from": "0x56fd3f2bee130e9867942d0f463a16fbe49b8d81",
      "to": "0xecb3c656c131fcd9bb8d1d80898716bd684feb78",
      "contractAddress": null,
      "l1BaseFeeScalar": "0x0",
      "l1BlobBaseFee": "0x54504e67",
      "l1BlobBaseFeeScalar": "0x0",
      "l1Fee": "0x0",
      "l1GasPrice": "0x4443",
      "l1GasUsed": "0x640"
    }
  ],
  "libraries": [
    "node_modules/@celo/contracts/common/linkedlists/AddressSortedLinkedListWithMedian.sol:AddressSortedLinkedListWithMedian:0xf90B816Ea07eC3c6384656cd5B3249DA8fc3df6F"
  ],
  "pending": [],
  "returns": {},
  "timestamp": 1757690997844,
  "chain": 11142220,
  "commit": "48ea54d"
}