{
  "transactions": [
    {
      "hash": "0xe09aea217439e4dbea7b56af3458537207b44bc90bf51f349cb7bf9409aee6ae",
      "transactionType": "CALL",
      "contractName": null,
      "contractAddress": "0xb1d1d3382d0f26493063cb7188eb479d45a44cdf",
      "function": "setExternalProvider(address)",
      "arguments": [
        "0xabcdE369CDdD1665E4EbD9214b8e9a595271272C"
      ],
      "transaction": {
        "from": "0x2738f38fde510743e0c589415e0598c4cee6eaa7",
        "to": "0xb1d1d3382d0f26493063cb7188eb479d45a44cdf",
        "gas": "0xcd02",
        "value": "0x0",
        "input": "0xe3ac8226000000000000000000000000abcde369cddd1665e4ebd9214b8e9a595271272c",
        "nonce": "0xf6",
        "chainId": "0x279f"
      },
      "additionalContracts": [],
      "isFixedGasLimit": false
    },
    {
      "hash": "0xd528e6539d7676266d43d782f2992832098f6fb0cdae263d6c457988d5b22c5f",
      "transactionType": "CALL",
      "contractName": null,
      "contractAddress": "0xb1d1d3382d0f26493063cb7188eb479d45a44cdf",
      "function": "report(int256,uint256)",
      "arguments": [
        "99993656",
        "1774008952"
      ],
      "transaction": {
        "from": "0x2738f38fde510743e0c589415e0598c4cee6eaa7",
        "to": "0xb1d1d3382d0f26493063cb7188eb479d45a44cdf",
        "gas": "0x10945",
        "value": "0x0",
        "input": "0x0f3d249d0000000000000000000000000000000000000000000000000000000005f5c8380000000000000000000000000000000000000000000000000000000069bd3a78",
        "nonce": "0xf7",
        "chainId": "0x279f"
      },
      "additionalContracts": [],
      "isFixedGasLimit": false
    },
    {
      "hash": "0x73a9fd06ebe176bcc2ba89731b1705b5951ff165b9b367ce150fc6dde164d84a",
      "transactionType": "CALL",
      "contractName": null,
      "contractAddress": "0xba5ed099633d3b313e4d5f7bdc1305d3c28ba5ed",
      "function": "deployCreate3(bytes32,bytes)",
      "arguments": [
        "0x2738f38fde510743e0c589415e0598c4cee6eaa7002adc6a835846a066e0fe24",
        "0x608060405234801561000f575f5ffd5b506040516109bf3803806109bf83398101604081905261002e9161011c565b806001600160a01b03811661005c57604051631e4fbdf760e01b81525f600482015260240160405180910390fd5b6100658161008e565b506001610072848261027b565b50506002805460ff191660ff9290921691909117905550610339565b5f80546001600160a01b038381166001600160a01b0319831681178455604051919092169283917f8be0079c531659141344cd1fd0a4f28419497f9722a3daafe3b4186f6b6457e09190a35050565b634e487b7160e01b5f52604160045260245ffd5b805160ff81168114610101575f5ffd5b919050565b80516001600160a01b0381168114610101575f5ffd5b5f5f5f6060848603121561012e575f5ffd5b83516001600160401b03811115610143575f5ffd5b8401601f81018613610153575f5ffd5b80516001600160401b0381111561016c5761016c6100dd565b604051601f8201601f19908116603f011681016001600160401b038111828210171561019a5761019a6100dd565b6040528181528282016020018810156101b1575f5ffd5b8160208401602083015e5f602083830101528095505050506101d5602085016100f1565b91506101e360408501610106565b90509250925092565b600181811c9082168061020057607f821691505b60208210810361021e57634e487b7160e01b5f52602260045260245ffd5b50919050565b601f821115610276578282111561027657805f5260205f20601f840160051c602085101561024f57505f5b90810190601f840160051c035f5b81811015610272575f8382015560010161025d565b5050505b505050565b81516001600160401b03811115610294576102946100dd565b6102a8816102a284546101ec565b84610224565b6020601f8211600181146102da575f83156102c35750848201515b5f19600385901b1c1916600184901b178455610332565b5f84815260208120601f198516915b8281101561030957878501518255602094850194600190920191016102e9565b508482101561032657868401515f19600387901b60f8161c191681555b505060018360011b0184555b5050505050565b610679806103465f395ff3fe608060405234801561000f575f5ffd5b50600436106100e5575f3560e01c80638da5cb5b11610088578063e1e244d811610063578063e1e244d8146101ca578063e3ac8226146101d3578063f2fde38b146101e6578063feaf968c146101f9575f5ffd5b80638da5cb5b1461019057806399213cd8146101a0578063d0b06f5d146101b3575f5ffd5b8063705b9154116100c3578063705b915414610135578063715018a6146101605780637284e416146101685780637a1395aa1461017d575f5ffd5b80630f3d249d146100e9578063313ce567146100fe578063368f186214610122575b5f5ffd5b6100fc6100f73660046104d7565b610238565b005b60025461010b9060ff1681565b60405160ff90911681526020015b60405180910390f35b6100fc6101303660046104f7565b61028a565b600554610148906001600160a01b031681565b6040516001600160a01b039091168152602001610119565b6100fc6102cd565b6101706102e0565b604051610119919061050e565b6100fc61018b366004610543565b61036c565b5f546001600160a01b0316610148565b6100fc6101ae3660046104f7565b61038a565b6101bc60045481565b604051908152602001610119565b6101bc60035481565b6100fc6101e136600461056a565b6103cd565b6100fc6101f436600461056a565b6103f7565b610201610434565b6040805169ffffffffffffffffffff968716815260208101959095528401929092526060830152909116608082015260a001610119565b5f546001600160a01b031633148061025a57506005546001600160a01b031633145b61027f5760405162461bcd60e51b815260040161027690610590565b60405180910390fd5b600391909155600455565b5f546001600160a01b03163314806102ac57506005546001600160a01b031633145b6102c85760405162461bcd60e51b815260040161027690610590565b600455565b6102d561045c565b6102de5f610488565b565b600180546102ed906105e6565b80601f0160208091040260200160405190810160405280929190818152602001828054610319906105e6565b80156103645780601f1061033b57610100808354040283529160200191610364565b820191905f5260205f20905b81548152906001019060200180831161034757829003601f168201915b505050505081565b61037461045c565b6002805460ff191660ff92909216919091179055565b5f546001600160a01b03163314806103ac57506005546001600160a01b031633145b6103c85760405162461bcd60e51b815260040161027690610590565b600355565b6103d561045c565b600580546001600160a01b0319166001600160a01b0392909216919091179055565b6103ff61045c565b6001600160a01b03811661042857604051631e4fbdf760e01b81525f6004820152602401610276565b61043181610488565b50565b5f5f5f5f5f5f6003545f60054261044b919061061e565b929891975095509093505f92509050565b5f546001600160a01b031633146102de5760405163118cdaa760e01b8152336004820152602401610276565b5f80546001600160a01b038381166001600160a01b0319831681178455604051919092169283917f8be0079c531659141344cd1fd0a4f28419497f9722a3daafe3b4186f6b6457e09190a35050565b5f5f604083850312156104e8575f5ffd5b50508035926020909101359150565b5f60208284031215610507575f5ffd5b5035919050565b602081525f82518060208401528060208501604085015e5f604082850101526040601f19601f83011684010191505092915050565b5f60208284031215610553575f5ffd5b813560ff81168114610563575f5ffd5b9392505050565b5f6020828403121561057a575f5ffd5b81356001600160a01b0381168114610563575f5ffd5b60208082526036908201527f4f6e6c79206f776e6572206f722065787465726e616c2070726f76696465722060408201527531b0b71031b0b636103a3434b990333ab731ba34b7b760511b606082015260800190565b600181811c908216806105fa57607f821691505b60208210810361061857634e487b7160e01b5f52602260045260245ffd5b50919050565b8181038181111561063d57634e487b7160e01b5f52601160045260245ffd5b9291505056fea2646970667358221220c370c3213a4c1a565713990169d5e4f7191fbc872583434c95fe560bcfe8842d64736f6c63430008210033000000000000000000000000000000000000000000000000000000000000006000000000000000000000000000000000000000000000000000000000000000080000000000000000000000002738f38fde510743e0c589415e0598c4cee6eaa70000000000000000000000000000000000000000000000000000000000000008555344542f555344000000000000000000000000000000000000000000000000"
      ],
      "transaction": {
        "from": "0x2738f38fde510743e0c589415e0598c4cee6eaa7",
        "to": "0xba5ed099633d3b313e4d5f7bdc1305d3c28ba5ed",
        "gas": "0xb698e",
        "value": "0x0",
        "input": "0x9c36a2862738f38fde510743e0c589415e0598c4cee6eaa7002adc6a835846a066e0fe2400000000000000000000000000000000000000000000000000000000000000400000000000000000000000000000000000000000000000000000000000000a5f608060405234801561000f575f5ffd5b506040516109bf3803806109bf83398101604081905261002e9161011c565b806001600160a01b03811661005c57604051631e4fbdf760e01b81525f600482015260240160405180910390fd5b6100658161008e565b506001610072848261027b565b50506002805460ff191660ff9290921691909117905550610339565b5f80546001600160a01b038381166001600160a01b0319831681178455604051919092169283917f8be0079c531659141344cd1fd0a4f28419497f9722a3daafe3b4186f6b6457e09190a35050565b634e487b7160e01b5f52604160045260245ffd5b805160ff81168114610101575f5ffd5b919050565b80516001600160a01b0381168114610101575f5ffd5b5f5f5f6060848603121561012e575f5ffd5b83516001600160401b03811115610143575f5ffd5b8401601f81018613610153575f5ffd5b80516001600160401b0381111561016c5761016c6100dd565b604051601f8201601f19908116603f011681016001600160401b038111828210171561019a5761019a6100dd565b6040528181528282016020018810156101b1575f5ffd5b8160208401602083015e5f602083830101528095505050506101d5602085016100f1565b91506101e360408501610106565b90509250925092565b600181811c9082168061020057607f821691505b60208210810361021e57634e487b7160e01b5f52602260045260245ffd5b50919050565b601f821115610276578282111561027657805f5260205f20601f840160051c602085101561024f57505f5b90810190601f840160051c035f5b81811015610272575f8382015560010161025d565b5050505b505050565b81516001600160401b03811115610294576102946100dd565b6102a8816102a284546101ec565b84610224565b6020601f8211600181146102da575f83156102c35750848201515b5f19600385901b1c1916600184901b178455610332565b5f84815260208120601f198516915b8281101561030957878501518255602094850194600190920191016102e9565b508482101561032657868401515f19600387901b60f8161c191681555b505060018360011b0184555b5050505050565b610679806103465f395ff3fe608060405234801561000f575f5ffd5b50600436106100e5575f3560e01c80638da5cb5b11610088578063e1e244d811610063578063e1e244d8146101ca578063e3ac8226146101d3578063f2fde38b146101e6578063feaf968c146101f9575f5ffd5b80638da5cb5b1461019057806399213cd8146101a0578063d0b06f5d146101b3575f5ffd5b8063705b9154116100c3578063705b915414610135578063715018a6146101605780637284e416146101685780637a1395aa1461017d575f5ffd5b80630f3d249d146100e9578063313ce567146100fe578063368f186214610122575b5f5ffd5b6100fc6100f73660046104d7565b610238565b005b60025461010b9060ff1681565b60405160ff90911681526020015b60405180910390f35b6100fc6101303660046104f7565b61028a565b600554610148906001600160a01b031681565b6040516001600160a01b039091168152602001610119565b6100fc6102cd565b6101706102e0565b604051610119919061050e565b6100fc61018b366004610543565b61036c565b5f546001600160a01b0316610148565b6100fc6101ae3660046104f7565b61038a565b6101bc60045481565b604051908152602001610119565b6101bc60035481565b6100fc6101e136600461056a565b6103cd565b6100fc6101f436600461056a565b6103f7565b610201610434565b6040805169ffffffffffffffffffff968716815260208101959095528401929092526060830152909116608082015260a001610119565b5f546001600160a01b031633148061025a57506005546001600160a01b031633145b61027f5760405162461bcd60e51b815260040161027690610590565b60405180910390fd5b600391909155600455565b5f546001600160a01b03163314806102ac57506005546001600160a01b031633145b6102c85760405162461bcd60e51b815260040161027690610590565b600455565b6102d561045c565b6102de5f610488565b565b600180546102ed906105e6565b80601f0160208091040260200160405190810160405280929190818152602001828054610319906105e6565b80156103645780601f1061033b57610100808354040283529160200191610364565b820191905f5260205f20905b81548152906001019060200180831161034757829003601f168201915b505050505081565b61037461045c565b6002805460ff191660ff92909216919091179055565b5f546001600160a01b03163314806103ac57506005546001600160a01b031633145b6103c85760405162461bcd60e51b815260040161027690610590565b600355565b6103d561045c565b600580546001600160a01b0319166001600160a01b0392909216919091179055565b6103ff61045c565b6001600160a01b03811661042857604051631e4fbdf760e01b81525f6004820152602401610276565b61043181610488565b50565b5f5f5f5f5f5f6003545f60054261044b919061061e565b929891975095509093505f92509050565b5f546001600160a01b031633146102de5760405163118cdaa760e01b8152336004820152602401610276565b5f80546001600160a01b038381166001600160a01b0319831681178455604051919092169283917f8be0079c531659141344cd1fd0a4f28419497f9722a3daafe3b4186f6b6457e09190a35050565b5f5f604083850312156104e8575f5ffd5b50508035926020909101359150565b5f60208284031215610507575f5ffd5b5035919050565b602081525f82518060208401528060208501604085015e5f604082850101526040601f19601f83011684010191505092915050565b5f60208284031215610553575f5ffd5b813560ff81168114610563575f5ffd5b9392505050565b5f6020828403121561057a575f5ffd5b81356001600160a01b0381168114610563575f5ffd5b60208082526036908201527f4f6e6c79206f776e6572206f722065787465726e616c2070726f76696465722060408201527531b0b71031b0b636103a3434b990333ab731ba34b7b760511b606082015260800190565b600181811c908216806105fa57607f821691505b60208210810361061857634e487b7160e01b5f52602260045260245ffd5b50919050565b8181038181111561063d57634e487b7160e01b5f52601160045260245ffd5b9291505056fea2646970667358221220c370c3213a4c1a565713990169d5e4f7191fbc872583434c95fe560bcfe8842d64736f6c63430008210033000000000000000000000000000000000000000000000000000000000000006000000000000000000000000000000000000000000000000000000000000000080000000000000000000000002738f38fde510743e0c589415e0598c4cee6eaa70000000000000000000000000000000000000000000000000000000000000008555344542f55534400000000000000000000000000000000000000000000000000",
        "nonce": "0xf8",
        "chainId": "0x279f"
      },
      "additionalContracts": [
        {
          "transactionType": "CREATE2",
          "contractName": null,
          "address": "0xa3b1b4f47783fb9348104d66cfa35247a5ab5658",
          "initCode": "0x67363d3d37363d34f03d5260086018f3"
        },
        {
          "transactionType": "CREATE",
          "contractName": "MockChainlinkAggregator",
          "address": "0x601566fd7d319d14daee362e15c2e8c3e5d3ef92",
          "initCode": "0x608060405234801561000f575f5ffd5b506040516109bf3803806109bf83398101604081905261002e9161011c565b806001600160a01b03811661005c57604051631e4fbdf760e01b81525f600482015260240160405180910390fd5b6100658161008e565b506001610072848261027b565b50506002805460ff191660ff9290921691909117905550610339565b5f80546001600160a01b038381166001600160a01b0319831681178455604051919092169283917f8be0079c531659141344cd1fd0a4f28419497f9722a3daafe3b4186f6b6457e09190a35050565b634e487b7160e01b5f52604160045260245ffd5b805160ff81168114610101575f5ffd5b919050565b80516001600160a01b0381168114610101575f5ffd5b5f5f5f6060848603121561012e575f5ffd5b83516001600160401b03811115610143575f5ffd5b8401601f81018613610153575f5ffd5b80516001600160401b0381111561016c5761016c6100dd565b604051601f8201601f19908116603f011681016001600160401b038111828210171561019a5761019a6100dd565b6040528181528282016020018810156101b1575f5ffd5b8160208401602083015e5f602083830101528095505050506101d5602085016100f1565b91506101e360408501610106565b90509250925092565b600181811c9082168061020057607f821691505b60208210810361021e57634e487b7160e01b5f52602260045260245ffd5b50919050565b601f821115610276578282111561027657805f5260205f20601f840160051c602085101561024f57505f5b90810190601f840160051c035f5b81811015610272575f8382015560010161025d565b5050505b505050565b81516001600160401b03811115610294576102946100dd565b6102a8816102a284546101ec565b84610224565b6020601f8211600181146102da575f83156102c35750848201515b5f19600385901b1c1916600184901b178455610332565b5f84815260208120601f198516915b8281101561030957878501518255602094850194600190920191016102e9565b508482101561032657868401515f19600387901b60f8161c191681555b505060018360011b0184555b5050505050565b610679806103465f395ff3fe608060405234801561000f575f5ffd5b50600436106100e5575f3560e01c80638da5cb5b11610088578063e1e244d811610063578063e1e244d8146101ca578063e3ac8226146101d3578063f2fde38b146101e6578063feaf968c146101f9575f5ffd5b80638da5cb5b1461019057806399213cd8146101a0578063d0b06f5d146101b3575f5ffd5b8063705b9154116100c3578063705b915414610135578063715018a6146101605780637284e416146101685780637a1395aa1461017d575f5ffd5b80630f3d249d146100e9578063313ce567146100fe578063368f186214610122575b5f5ffd5b6100fc6100f73660046104d7565b610238565b005b60025461010b9060ff1681565b60405160ff90911681526020015b60405180910390f35b6100fc6101303660046104f7565b61028a565b600554610148906001600160a01b031681565b6040516001600160a01b039091168152602001610119565b6100fc6102cd565b6101706102e0565b604051610119919061050e565b6100fc61018b366004610543565b61036c565b5f546001600160a01b0316610148565b6100fc6101ae3660046104f7565b61038a565b6101bc60045481565b604051908152602001610119565b6101bc60035481565b6100fc6101e136600461056a565b6103cd565b6100fc6101f436600461056a565b6103f7565b610201610434565b6040805169ffffffffffffffffffff968716815260208101959095528401929092526060830152909116608082015260a001610119565b5f546001600160a01b031633148061025a57506005546001600160a01b031633145b61027f5760405162461bcd60e51b815260040161027690610590565b60405180910390fd5b600391909155600455565b5f546001600160a01b03163314806102ac57506005546001600160a01b031633145b6102c85760405162461bcd60e51b815260040161027690610590565b600455565b6102d561045c565b6102de5f610488565b565b600180546102ed906105e6565b80601f0160208091040260200160405190810160405280929190818152602001828054610319906105e6565b80156103645780601f1061033b57610100808354040283529160200191610364565b820191905f5260205f20905b81548152906001019060200180831161034757829003601f168201915b505050505081565b61037461045c565b6002805460ff191660ff92909216919091179055565b5f546001600160a01b03163314806103ac57506005546001600160a01b031633145b6103c85760405162461bcd60e51b815260040161027690610590565b600355565b6103d561045c565b600580546001600160a01b0319166001600160a01b0392909216919091179055565b6103ff61045c565b6001600160a01b03811661042857604051631e4fbdf760e01b81525f6004820152602401610276565b61043181610488565b50565b5f5f5f5f5f5f6003545f60054261044b919061061e565b929891975095509093505f92509050565b5f546001600160a01b031633146102de5760405163118cdaa760e01b8152336004820152602401610276565b5f80546001600160a01b038381166001600160a01b0319831681178455604051919092169283917f8be0079c531659141344cd1fd0a4f28419497f9722a3daafe3b4186f6b6457e09190a35050565b5f5f604083850312156104e8575f5ffd5b50508035926020909101359150565b5f60208284031215610507575f5ffd5b5035919050565b602081525f82518060208401528060208501604085015e5f604082850101526040601f19601f83011684010191505092915050565b5f60208284031215610553575f5ffd5b813560ff81168114610563575f5ffd5b9392505050565b5f6020828403121561057a575f5ffd5b81356001600160a01b0381168114610563575f5ffd5b60208082526036908201527f4f6e6c79206f776e6572206f722065787465726e616c2070726f76696465722060408201527531b0b71031b0b636103a3434b990333ab731ba34b7b760511b606082015260800190565b600181811c908216806105fa57607f821691505b60208210810361061857634e487b7160e01b5f52602260045260245ffd5b50919050565b8181038181111561063d57634e487b7160e01b5f52601160045260245ffd5b9291505056fea2646970667358221220c370c3213a4c1a565713990169d5e4f7191fbc872583434c95fe560bcfe8842d64736f6c63430008210033000000000000000000000000000000000000000000000000000000000000006000000000000000000000000000000000000000000000000000000000000000080000000000000000000000002738f38fde510743e0c589415e0598c4cee6eaa70000000000000000000000000000000000000000000000000000000000000008555344542f555344000000000000000000000000000000000000000000000000"
        }
      ],
      "isFixedGasLimit": false
    },
    {
      "hash": "0x8c35213436d61ab1e6ae4c4c26ed56eda28c22005badb7ce7f7f1bd2280f96ab",
      "transactionType": "CALL",
      "contractName": "MockChainlinkAggregator",
      "contractAddress": "0x601566fd7d319d14daee362e15c2e8c3e5d3ef92",
      "function": "setExternalProvider(address)",
      "arguments": [
        "0xabcdE369CDdD1665E4EbD9214b8e9a595271272C"
      ],
      "transaction": {
        "from": "0x2738f38fde510743e0c589415e0598c4cee6eaa7",
        "to": "0x601566fd7d319d14daee362e15c2e8c3e5d3ef92",
        "gas": "0x703a",
        "value": "0x0",
        "input": "0xe3ac8226000000000000000000000000abcde369cddd1665e4ebd9214b8e9a595271272c",
        "nonce": "0xf9",
        "chainId": "0x279f"
      },
      "additionalContracts": [],
      "isFixedGasLimit": false
    },
    {
      "hash": "0x280dfbbe0402cb0e04abba3764bd190581131a1554460f033b20b4e7493dfeb3",
      "transactionType": "CALL",
      "contractName": "MockChainlinkAggregator",
      "contractAddress": "0x601566fd7d319d14daee362e15c2e8c3e5d3ef92",
      "function": "report(int256,uint256)",
      "arguments": [
        "99996285",
        "1774008952"
      ],
      "transaction": {
        "from": "0x2738f38fde510743e0c589415e0598c4cee6eaa7",
        "to": "0x601566fd7d319d14daee362e15c2e8c3e5d3ef92",
        "gas": "0x7025",
        "value": "0x0",
        "input": "0x0f3d249d0000000000000000000000000000000000000000000000000000000005f5d27d0000000000000000000000000000000000000000000000000000000069bd3a78",
        "nonce": "0xfa",
        "chainId": "0x279f"
      },
      "additionalContracts": [],
      "isFixedGasLimit": false
    },
    {
      "hash": "0xbd1a5e0d0138a21f70e63efc597c2ab05ccac04f041fc7b4e137693a93d96f46",
      "transactionType": "CALL",
      "contractName": null,
      "contractAddress": "0xcd0776d746d589d91b629d28b785443722cea4e1",
      "function": "setExternalProvider(address)",
      "arguments": [
        "0xabcdE369CDdD1665E4EbD9214b8e9a595271272C"
      ],
      "transaction": {
        "from": "0x2738f38fde510743e0c589415e0598c4cee6eaa7",
        "to": "0xcd0776d746d589d91b629d28b785443722cea4e1",
        "gas": "0xcd02",
        "value": "0x0",
        "input": "0xe3ac8226000000000000000000000000abcde369cddd1665e4ebd9214b8e9a595271272c",
        "nonce": "0xfb",
        "chainId": "0x279f"
      },
      "additionalContracts": [],
      "isFixedGasLimit": false
    },
    {
      "hash": "0x56dce157c1102a0486694eb385d497672f7a30c438adf92934f654b49b584244",
      "transactionType": "CALL",
      "contractName": null,
      "contractAddress": "0xcd0776d746d589d91b629d28b785443722cea4e1",
      "function": "report(int256,uint256)",
      "arguments": [
        "99991400",
        "1774008952"
      ],
      "transaction": {
        "from": "0x2738f38fde510743e0c589415e0598c4cee6eaa7",
        "to": "0xcd0776d746d589d91b629d28b785443722cea4e1",
        "gas": "0x10945",
        "value": "0x0",
        "input": "0x0f3d249d0000000000000000000000000000000000000000000000000000000005f5bf680000000000000000000000000000000000000000000000000000000069bd3a78",
        "nonce": "0xfc",
        "chainId": "0x279f"
      },
      "additionalContracts": [],
      "isFixedGasLimit": false
    },
    {
      "hash": "0x0d17680a8a761f9c5c1bb97e035c149f2cd16351b5db896b68af35608205566d",
      "transactionType": "CALL",
      "contractName": null,
      "contractAddress": "0xba5ed099633d3b313e4d5f7bdc1305d3c28ba5ed",
      "function": "deployCreate3(bytes32,bytes)",
      "arguments": [
        "0x2738f38fde510743e0c589415e0598c4cee6eaa700fbd5bf1d71afdf92033e56",
        "0x608060405234801561000f575f5ffd5b506040516109bf3803806109bf83398101604081905261002e9161011c565b806001600160a01b03811661005c57604051631e4fbdf760e01b81525f600482015260240160405180910390fd5b6100658161008e565b506001610072848261027b565b50506002805460ff191660ff9290921691909117905550610339565b5f80546001600160a01b038381166001600160a01b0319831681178455604051919092169283917f8be0079c531659141344cd1fd0a4f28419497f9722a3daafe3b4186f6b6457e09190a35050565b634e487b7160e01b5f52604160045260245ffd5b805160ff81168114610101575f5ffd5b919050565b80516001600160a01b0381168114610101575f5ffd5b5f5f5f6060848603121561012e575f5ffd5b83516001600160401b03811115610143575f5ffd5b8401601f81018613610153575f5ffd5b80516001600160401b0381111561016c5761016c6100dd565b604051601f8201601f19908116603f011681016001600160401b038111828210171561019a5761019a6100dd565b6040528181528282016020018810156101b1575f5ffd5b8160208401602083015e5f602083830101528095505050506101d5602085016100f1565b91506101e360408501610106565b90509250925092565b600181811c9082168061020057607f821691505b60208210810361021e57634e487b7160e01b5f52602260045260245ffd5b50919050565b601f821115610276578282111561027657805f5260205f20601f840160051c602085101561024f57505f5b90810190601f840160051c035f5b81811015610272575f8382015560010161025d565b5050505b505050565b81516001600160401b03811115610294576102946100dd565b6102a8816102a284546101ec565b84610224565b6020601f8211600181146102da575f83156102c35750848201515b5f19600385901b1c1916600184901b178455610332565b5f84815260208120601f198516915b8281101561030957878501518255602094850194600190920191016102e9565b508482101561032657868401515f19600387901b60f8161c191681555b505060018360011b0184555b5050505050565b610679806103465f395ff3fe608060405234801561000f575f5ffd5b50600436106100e5575f3560e01c80638da5cb5b11610088578063e1e244d811610063578063e1e244d8146101ca578063e3ac8226146101d3578063f2fde38b146101e6578063feaf968c146101f9575f5ffd5b80638da5cb5b1461019057806399213cd8146101a0578063d0b06f5d146101b3575f5ffd5b8063705b9154116100c3578063705b915414610135578063715018a6146101605780637284e416146101685780637a1395aa1461017d575f5ffd5b80630f3d249d146100e9578063313ce567146100fe578063368f186214610122575b5f5ffd5b6100fc6100f73660046104d7565b610238565b005b60025461010b9060ff1681565b60405160ff90911681526020015b60405180910390f35b6100fc6101303660046104f7565b61028a565b600554610148906001600160a01b031681565b6040516001600160a01b039091168152602001610119565b6100fc6102cd565b6101706102e0565b604051610119919061050e565b6100fc61018b366004610543565b61036c565b5f546001600160a01b0316610148565b6100fc6101ae3660046104f7565b61038a565b6101bc60045481565b604051908152602001610119565b6101bc60035481565b6100fc6101e136600461056a565b6103cd565b6100fc6101f436600461056a565b6103f7565b610201610434565b6040805169ffffffffffffffffffff968716815260208101959095528401929092526060830152909116608082015260a001610119565b5f546001600160a01b031633148061025a57506005546001600160a01b031633145b61027f5760405162461bcd60e51b815260040161027690610590565b60405180910390fd5b600391909155600455565b5f546001600160a01b03163314806102ac57506005546001600160a01b031633145b6102c85760405162461bcd60e51b815260040161027690610590565b600455565b6102d561045c565b6102de5f610488565b565b600180546102ed906105e6565b80601f0160208091040260200160405190810160405280929190818152602001828054610319906105e6565b80156103645780601f1061033b57610100808354040283529160200191610364565b820191905f5260205f20905b81548152906001019060200180831161034757829003601f168201915b505050505081565b61037461045c565b6002805460ff191660ff92909216919091179055565b5f546001600160a01b03163314806103ac57506005546001600160a01b031633145b6103c85760405162461bcd60e51b815260040161027690610590565b600355565b6103d561045c565b600580546001600160a01b0319166001600160a01b0392909216919091179055565b6103ff61045c565b6001600160a01b03811661042857604051631e4fbdf760e01b81525f6004820152602401610276565b61043181610488565b50565b5f5f5f5f5f5f6003545f60054261044b919061061e565b929891975095509093505f92509050565b5f546001600160a01b031633146102de5760405163118cdaa760e01b8152336004820152602401610276565b5f80546001600160a01b038381166001600160a01b0319831681178455604051919092169283917f8be0079c531659141344cd1fd0a4f28419497f9722a3daafe3b4186f6b6457e09190a35050565b5f5f604083850312156104e8575f5ffd5b50508035926020909101359150565b5f60208284031215610507575f5ffd5b5035919050565b602081525f82518060208401528060208501604085015e5f604082850101526040601f19601f83011684010191505092915050565b5f60208284031215610553575f5ffd5b813560ff81168114610563575f5ffd5b9392505050565b5f6020828403121561057a575f5ffd5b81356001600160a01b0381168114610563575f5ffd5b60208082526036908201527f4f6e6c79206f776e6572206f722065787465726e616c2070726f76696465722060408201527531b0b71031b0b636103a3434b990333ab731ba34b7b760511b606082015260800190565b600181811c908216806105fa57607f821691505b60208210810361061857634e487b7160e01b5f52602260045260245ffd5b50919050565b8181038181111561063d57634e487b7160e01b5f52601160045260245ffd5b9291505056fea2646970667358221220c370c3213a4c1a565713990169d5e4f7191fbc872583434c95fe560bcfe8842d64736f6c63430008210033000000000000000000000000000000000000000000000000000000000000006000000000000000000000000000000000000000000000000000000000000000120000000000000000000000002738f38fde510743e0c589415e0598c4cee6eaa700000000000000000000000000000000000000000000000000000000000000074555522f55534400000000000000000000000000000000000000000000000000"
      ],
      "transaction": {
        "from": "0x2738f38fde510743e0c589415e0598c4cee6eaa7",
        "to": "0xba5ed099633d3b313e4d5f7bdc1305d3c28ba5ed",
        "gas": "0xb697f",
        "value": "0x0",
        "input": "0x9c36a2862738f38fde510743e0c589415e0598c4cee6eaa700fbd5bf1d71afdf92033e5600000000000000000000000000000000000000000000000000000000000000400000000000000000000000000000000000000000000000000000000000000a5f608060405234801561000f575f5ffd5b506040516109bf3803806109bf83398101604081905261002e9161011c565b806001600160a01b03811661005c57604051631e4fbdf760e01b81525f600482015260240160405180910390fd5b6100658161008e565b506001610072848261027b565b50506002805460ff191660ff9290921691909117905550610339565b5f80546001600160a01b038381166001600160a01b0319831681178455604051919092169283917f8be0079c531659141344cd1fd0a4f28419497f9722a3daafe3b4186f6b6457e09190a35050565b634e487b7160e01b5f52604160045260245ffd5b805160ff81168114610101575f5ffd5b919050565b80516001600160a01b0381168114610101575f5ffd5b5f5f5f6060848603121561012e575f5ffd5b83516001600160401b03811115610143575f5ffd5b8401601f81018613610153575f5ffd5b80516001600160401b0381111561016c5761016c6100dd565b604051601f8201601f19908116603f011681016001600160401b038111828210171561019a5761019a6100dd565b6040528181528282016020018810156101b1575f5ffd5b8160208401602083015e5f602083830101528095505050506101d5602085016100f1565b91506101e360408501610106565b90509250925092565b600181811c9082168061020057607f821691505b60208210810361021e57634e487b7160e01b5f52602260045260245ffd5b50919050565b601f821115610276578282111561027657805f5260205f20601f840160051c602085101561024f57505f5b90810190601f840160051c035f5b81811015610272575f8382015560010161025d565b5050505b505050565b81516001600160401b03811115610294576102946100dd565b6102a8816102a284546101ec565b84610224565b6020601f8211600181146102da575f83156102c35750848201515b5f19600385901b1c1916600184901b178455610332565b5f84815260208120601f198516915b8281101561030957878501518255602094850194600190920191016102e9565b508482101561032657868401515f19600387901b60f8161c191681555b505060018360011b0184555b5050505050565b610679806103465f395ff3fe608060405234801561000f575f5ffd5b50600436106100e5575f3560e01c80638da5cb5b11610088578063e1e244d811610063578063e1e244d8146101ca578063e3ac8226146101d3578063f2fde38b146101e6578063feaf968c146101f9575f5ffd5b80638da5cb5b1461019057806399213cd8146101a0578063d0b06f5d146101b3575f5ffd5b8063705b9154116100c3578063705b915414610135578063715018a6146101605780637284e416146101685780637a1395aa1461017d575f5ffd5b80630f3d249d146100e9578063313ce567146100fe578063368f186214610122575b5f5ffd5b6100fc6100f73660046104d7565b610238565b005b60025461010b9060ff1681565b60405160ff90911681526020015b60405180910390f35b6100fc6101303660046104f7565b61028a565b600554610148906001600160a01b031681565b6040516001600160a01b039091168152602001610119565b6100fc6102cd565b6101706102e0565b604051610119919061050e565b6100fc61018b366004610543565b61036c565b5f546001600160a01b0316610148565b6100fc6101ae3660046104f7565b61038a565b6101bc60045481565b604051908152602001610119565b6101bc60035481565b6100fc6101e136600461056a565b6103cd565b6100fc6101f436600461056a565b6103f7565b610201610434565b6040805169ffffffffffffffffffff968716815260208101959095528401929092526060830152909116608082015260a001610119565b5f546001600160a01b031633148061025a57506005546001600160a01b031633145b61027f5760405162461bcd60e51b815260040161027690610590565b60405180910390fd5b600391909155600455565b5f546001600160a01b03163314806102ac57506005546001600160a01b031633145b6102c85760405162461bcd60e51b815260040161027690610590565b600455565b6102d561045c565b6102de5f610488565b565b600180546102ed906105e6565b80601f0160208091040260200160405190810160405280929190818152602001828054610319906105e6565b80156103645780601f1061033b57610100808354040283529160200191610364565b820191905f5260205f20905b81548152906001019060200180831161034757829003601f168201915b505050505081565b61037461045c565b6002805460ff191660ff92909216919091179055565b5f546001600160a01b03163314806103ac57506005546001600160a01b031633145b6103c85760405162461bcd60e51b815260040161027690610590565b600355565b6103d561045c565b600580546001600160a01b0319166001600160a01b0392909216919091179055565b6103ff61045c565b6001600160a01b03811661042857604051631e4fbdf760e01b81525f6004820152602401610276565b61043181610488565b50565b5f5f5f5f5f5f6003545f60054261044b919061061e565b929891975095509093505f92509050565b5f546001600160a01b031633146102de5760405163118cdaa760e01b8152336004820152602401610276565b5f80546001600160a01b038381166001600160a01b0319831681178455604051919092169283917f8be0079c531659141344cd1fd0a4f28419497f9722a3daafe3b4186f6b6457e09190a35050565b5f5f604083850312156104e8575f5ffd5b50508035926020909101359150565b5f60208284031215610507575f5ffd5b5035919050565b602081525f82518060208401528060208501604085015e5f604082850101526040601f19601f83011684010191505092915050565b5f60208284031215610553575f5ffd5b813560ff81168114610563575f5ffd5b9392505050565b5f6020828403121561057a575f5ffd5b81356001600160a01b0381168114610563575f5ffd5b60208082526036908201527f4f6e6c79206f776e6572206f722065787465726e616c2070726f76696465722060408201527531b0b71031b0b636103a3434b990333ab731ba34b7b760511b606082015260800190565b600181811c908216806105fa57607f821691505b60208210810361061857634e487b7160e01b5f52602260045260245ffd5b50919050565b8181038181111561063d57634e487b7160e01b5f52601160045260245ffd5b9291505056fea2646970667358221220c370c3213a4c1a565713990169d5e4f7191fbc872583434c95fe560bcfe8842d64736f6c63430008210033000000000000000000000000000000000000000000000000000000000000006000000000000000000000000000000000000000000000000000000000000000120000000000000000000000002738f38fde510743e0c589415e0598c4cee6eaa700000000000000000000000000000000000000000000000000000000000000074555522f5553440000000000000000000000000000000000000000000000000000",
        "nonce": "0xfd",
        "chainId": "0x279f"
      },
      "additionalContracts": [
        {
          "transactionType": "CREATE2",
          "contractName": null,
          "address": "0x94fd96db00f74c51712f6163c5b84e721e41968b",
          "initCode": "0x67363d3d37363d34f03d5260086018f3"
        },
        {
          "transactionType": "CREATE",
          "contractName": "MockChainlinkAggregator",
          "address": "0x904bc5586697ef66b8b3c3189a8f059a4bd4f071",
          "initCode": "0x608060405234801561000f575f5ffd5b506040516109bf3803806109bf83398101604081905261002e9161011c565b806001600160a01b03811661005c57604051631e4fbdf760e01b81525f600482015260240160405180910390fd5b6100658161008e565b506001610072848261027b565b50506002805460ff191660ff9290921691909117905550610339565b5f80546001600160a01b038381166001600160a01b0319831681178455604051919092169283917f8be0079c531659141344cd1fd0a4f28419497f9722a3daafe3b4186f6b6457e09190a35050565b634e487b7160e01b5f52604160045260245ffd5b805160ff81168114610101575f5ffd5b919050565b80516001600160a01b0381168114610101575f5ffd5b5f5f5f6060848603121561012e575f5ffd5b83516001600160401b03811115610143575f5ffd5b8401601f81018613610153575f5ffd5b80516001600160401b0381111561016c5761016c6100dd565b604051601f8201601f19908116603f011681016001600160401b038111828210171561019a5761019a6100dd565b6040528181528282016020018810156101b1575f5ffd5b8160208401602083015e5f602083830101528095505050506101d5602085016100f1565b91506101e360408501610106565b90509250925092565b600181811c9082168061020057607f821691505b60208210810361021e57634e487b7160e01b5f52602260045260245ffd5b50919050565b601f821115610276578282111561027657805f5260205f20601f840160051c602085101561024f57505f5b90810190601f840160051c035f5b81811015610272575f8382015560010161025d565b5050505b505050565b81516001600160401b03811115610294576102946100dd565b6102a8816102a284546101ec565b84610224565b6020601f8211600181146102da575f83156102c35750848201515b5f19600385901b1c1916600184901b178455610332565b5f84815260208120601f198516915b8281101561030957878501518255602094850194600190920191016102e9565b508482101561032657868401515f19600387901b60f8161c191681555b505060018360011b0184555b5050505050565b610679806103465f395ff3fe608060405234801561000f575f5ffd5b50600436106100e5575f3560e01c80638da5cb5b11610088578063e1e244d811610063578063e1e244d8146101ca578063e3ac8226146101d3578063f2fde38b146101e6578063feaf968c146101f9575f5ffd5b80638da5cb5b1461019057806399213cd8146101a0578063d0b06f5d146101b3575f5ffd5b8063705b9154116100c3578063705b915414610135578063715018a6146101605780637284e416146101685780637a1395aa1461017d575f5ffd5b80630f3d249d146100e9578063313ce567146100fe578063368f186214610122575b5f5ffd5b6100fc6100f73660046104d7565b610238565b005b60025461010b9060ff1681565b60405160ff90911681526020015b60405180910390f35b6100fc6101303660046104f7565b61028a565b600554610148906001600160a01b031681565b6040516001600160a01b039091168152602001610119565b6100fc6102cd565b6101706102e0565b604051610119919061050e565b6100fc61018b366004610543565b61036c565b5f546001600160a01b0316610148565b6100fc6101ae3660046104f7565b61038a565b6101bc60045481565b604051908152602001610119565b6101bc60035481565b6100fc6101e136600461056a565b6103cd565b6100fc6101f436600461056a565b6103f7565b610201610434565b6040805169ffffffffffffffffffff968716815260208101959095528401929092526060830152909116608082015260a001610119565b5f546001600160a01b031633148061025a57506005546001600160a01b031633145b61027f5760405162461bcd60e51b815260040161027690610590565b60405180910390fd5b600391909155600455565b5f546001600160a01b03163314806102ac57506005546001600160a01b031633145b6102c85760405162461bcd60e51b815260040161027690610590565b600455565b6102d561045c565b6102de5f610488565b565b600180546102ed906105e6565b80601f0160208091040260200160405190810160405280929190818152602001828054610319906105e6565b80156103645780601f1061033b57610100808354040283529160200191610364565b820191905f5260205f20905b81548152906001019060200180831161034757829003601f168201915b505050505081565b61037461045c565b6002805460ff191660ff92909216919091179055565b5f546001600160a01b03163314806103ac57506005546001600160a01b031633145b6103c85760405162461bcd60e51b815260040161027690610590565b600355565b6103d561045c565b600580546001600160a01b0319166001600160a01b0392909216919091179055565b6103ff61045c565b6001600160a01b03811661042857604051631e4fbdf760e01b81525f6004820152602401610276565b61043181610488565b50565b5f5f5f5f5f5f6003545f60054261044b919061061e565b929891975095509093505f92509050565b5f546001600160a01b031633146102de5760405163118cdaa760e01b8152336004820152602401610276565b5f80546001600160a01b038381166001600160a01b0319831681178455604051919092169283917f8be0079c531659141344cd1fd0a4f28419497f9722a3daafe3b4186f6b6457e09190a35050565b5f5f604083850312156104e8575f5ffd5b50508035926020909101359150565b5f60208284031215610507575f5ffd5b5035919050565b602081525f82518060208401528060208501604085015e5f604082850101526040601f19601f83011684010191505092915050565b5f60208284031215610553575f5ffd5b813560ff81168114610563575f5ffd5b9392505050565b5f6020828403121561057a575f5ffd5b81356001600160a01b0381168114610563575f5ffd5b60208082526036908201527f4f6e6c79206f776e6572206f722065787465726e616c2070726f76696465722060408201527531b0b71031b0b636103a3434b990333ab731ba34b7b760511b606082015260800190565b600181811c908216806105fa57607f821691505b60208210810361061857634e487b7160e01b5f52602260045260245ffd5b50919050565b8181038181111561063d57634e487b7160e01b5f52601160045260245ffd5b9291505056fea2646970667358221220c370c3213a4c1a565713990169d5e4f7191fbc872583434c95fe560bcfe8842d64736f6c63430008210033000000000000000000000000000000000000000000000000000000000000006000000000000000000000000000000000000000000000000000000000000000120000000000000000000000002738f38fde510743e0c589415e0598c4cee6eaa700000000000000000000000000000000000000000000000000000000000000074555522f55534400000000000000000000000000000000000000000000000000"
        }
      ],
      "isFixedGasLimit": false
    },
    {
      "hash": "0x005193f89c7b641693820cde8fb8ff8fdb33d1bc604bf0c22613de70acdd0b74",
      "transactionType": "CALL",
      "contractName": "MockChainlinkAggregator",
      "contractAddress": "0x904bc5586697ef66b8b3c3189a8f059a4bd4f071",
      "function": "setExternalProvider(address)",
      "arguments": [
        "0xabcdE369CDdD1665E4EbD9214b8e9a595271272C"
      ],
      "transaction": {
        "from": "0x2738f38fde510743e0c589415e0598c4cee6eaa7",
        "to": "0x904bc5586697ef66b8b3c3189a8f059a4bd4f071",
        "gas": "0x703a",
        "value": "0x0",
        "input": "0xe3ac8226000000000000000000000000abcde369cddd1665e4ebd9214b8e9a595271272c",
        "nonce": "0xfe",
        "chainId": "0x279f"
      },
      "additionalContracts": [],
      "isFixedGasLimit": false
    },
    {
      "hash": "0x38bcd977659f424c5ed7a810d44fa81cc34e3f1f321da3c86f4df0117861ab63",
      "transactionType": "CALL",
      "contractName": "MockChainlinkAggregator",
      "contractAddress": "0x904bc5586697ef66b8b3c3189a8f059a4bd4f071",
      "function": "report(int256,uint256)",
      "arguments": [
        "1157710000000000000",
        "1774008952"
      ],
      "transaction": {
        "from": "0x2738f38fde510743e0c589415e0598c4cee6eaa7",
        "to": "0x904bc5586697ef66b8b3c3189a8f059a4bd4f071",
        "gas": "0x7207",
        "value": "0x0",
        "input": "0x0f3d249d0000000000000000000000000000000000000000000000001011031c76eae0000000000000000000000000000000000000000000000000000000000069bd3a78",
        "nonce": "0xff",
        "chainId": "0x279f"
      },
      "additionalContracts": [],
      "isFixedGasLimit": false
    },
    {
      "hash": "0x1e6a228533738feab39ed3f6e4c2a34a903004b9817ef4213f5a672773dae799",
      "transactionType": "CALL",
      "contractName": null,
      "contractAddress": "0xf66908600d412898a40db9be6d58125979b57326",
      "function": "setExternalProvider(address)",
      "arguments": [
        "0xabcdE369CDdD1665E4EbD9214b8e9a595271272C"
      ],
      "transaction": {
        "from": "0x2738f38fde510743e0c589415e0598c4cee6eaa7",
        "to": "0xf66908600d412898a40db9be6d58125979b57326",
        "gas": "0xcd02",
        "value": "0x0",
        "input": "0xe3ac8226000000000000000000000000abcde369cddd1665e4ebd9214b8e9a595271272c",
        "nonce": "0x100",
        "chainId": "0x279f"
      },
      "additionalContracts": [],
      "isFixedGasLimit": false
    },
    {
      "hash": "0x213ad3f1146d3016a3d05e6d5410b3a5a34dc55451359f57f5640ef56d887e0a",
      "transactionType": "CALL",
      "contractName": null,
      "contractAddress": "0xf66908600d412898a40db9be6d58125979b57326",
      "function": "report(int256,uint256)",
      "arguments": [
        "1340650000000000000",
        "1774008952"
      ],
      "transaction": {
        "from": "0x2738f38fde510743e0c589415e0598c4cee6eaa7",
        "to": "0xf66908600d412898a40db9be6d58125979b57326",
        "gas": "0x10b75",
        "value": "0x0",
        "input": "0x0f3d249d000000000000000000000000000000000000000000000000129af2126a20a0000000000000000000000000000000000000000000000000000000000069bd3a78",
        "nonce": "0x101",
        "chainId": "0x279f"
      },
      "additionalContracts": [],
      "isFixedGasLimit": false
    }
  ],
  "receipts": [
    {
      "type": "0x2",
      "status": "0x1",
      "cumulativeGasUsed": "0x43cca",
      "logs": [],
      "logsBloom": "0x00000000000000000000000000000000000000000000000000000000000000000000000000000000000000000000000000000000000000000000000000000000000000000000000000000000000000000000000000000000000000000000000000000000000000000000000000000000000000000000000000000000000000000000000000000000000000000000000000000000000000000000000000000000000000000000000000000000000000000000000000000000000000000000000000000000000000000000000000000000000000000000000000000000000000000000000000000000000000000000000000000000000000000000000000000000",
      "transactionHash": "0xe09aea217439e4dbea7b56af3458537207b44bc90bf51f349cb7bf9409aee6ae",
      "transactionIndex": "0x2",
      "blockHash": "0x20e20a802014708aad1cc2a49653c7bc63f0de429169a90035c30c340add52b8",
      "blockNumber": "0x131c919",
      "gasUsed": "0xcd02",
      "effectiveGasPrice": "0x181b9985aa",
      "from": "0x2738f38fde510743e0c589415e0598c4cee6eaa7",
      "to": "0xb1d1d3382d0f26493063cb7188eb479d45a44cdf",
      "contractAddress": null
    },
    {
      "type": "0x2",
      "status": "0x1",
      "cumulativeGasUsed": "0x47925",
      "logs": [],
      "logsBloom": "0x00000000000000000000000000000000000000000000000000000000000000000000000000000000000000000000000000000000000000000000000000000000000000000000000000000000000000000000000000000000000000000000000000000000000000000000000000000000000000000000000000000000000000000000000000000000000000000000000000000000000000000000000000000000000000000000000000000000000000000000000000000000000000000000000000000000000000000000000000000000000000000000000000000000000000000000000000000000000000000000000000000000000000000000000000000000",
      "transactionHash": "0xd528e6539d7676266d43d782f2992832098f6fb0cdae263d6c457988d5b22c5f",
      "transactionIndex": "0x2",
      "blockHash": "0x34bd144ed726080d82dc1e2a8c4e34dd860c568c15925d671aa32a870cb011b4",
      "blockNumber": "0x131c91e",
      "gasUsed": "0x10945",
      "effectiveGasPrice": "0x181b9985aa",
      "from": "0x2738f38fde510743e0c589415e0598c4cee6eaa7",
      "to": "0xb1d1d3382d0f26493063cb7188eb479d45a44cdf",
      "contractAddress": null
    },
    {
      "type": "0x2",
      "status": "0x1",
      "cumulativeGasUsed": "0xb698e",
      "logs": [
        {
          "address": "0xba5ed099633d3b313e4d5f7bdc1305d3c28ba5ed",
          "topics": [
            "0x2feea65dd4e9f9cbd86b74b7734210c59a1b2981b5b137bd0ee3e208200c9067",
            "0x000000000000000000000000a3b1b4f47783fb9348104d66cfa35247a5ab5658",
            "0xc8d94a00b07e5104c8f482623007b0e3f30efe1cccac4a8fd829ef80275815dc"
          ],
          "data": "0x",
          "blockHash": "0x83880013a12165e3e1aad3bc66758359176c01e56d3c5df92e4af356a07444cd",
          "blockNumber": "0x131c91f",
          "blockTimestamp": "0x69bd3a82",
          "transactionHash": "0x73a9fd06ebe176bcc2ba89731b1705b5951ff165b9b367ce150fc6dde164d84a",
          "transactionIndex": "0x1",
          "logIndex": "0x1",
          "removed": false
        },
        {
          "address": "0x601566fd7d319d14daee362e15c2e8c3e5d3ef92",
          "topics": [
            "0x8be0079c531659141344cd1fd0a4f28419497f9722a3daafe3b4186f6b6457e0",
            "0x0000000000000000000000000000000000000000000000000000000000000000",
            "0x0000000000000000000000002738f38fde510743e0c589415e0598c4cee6eaa7"
          ],
          "data": "0x",
          "blockHash": "0x83880013a12165e3e1aad3bc66758359176c01e56d3c5df92e4af356a07444cd",
          "blockNumber": "0x131c91f",
          "blockTimestamp": "0x69bd3a82",
          "transactionHash": "0x73a9fd06ebe176bcc2ba89731b1705b5951ff165b9b367ce150fc6dde164d84a",
          "transactionIndex": "0x1",
          "logIndex": "0x2",
          "removed": false
        },
        {
          "address": "0xba5ed099633d3b313e4d5f7bdc1305d3c28ba5ed",
          "topics": [
            "0x4db17dd5e4732fb6da34a148104a592783ca119a1e7bb8829eba6cbadef0b511",
            "0x000000000000000000000000601566fd7d319d14daee362e15c2e8c3e5d3ef92"
          ],
          "data": "0x",
          "blockHash": "0x83880013a12165e3e1aad3bc66758359176c01e56d3c5df92e4af356a07444cd",
          "blockNumber": "0x131c91f",
          "blockTimestamp": "0x69bd3a82",
          "transactionHash": "0x73a9fd06ebe176bcc2ba89731b1705b5951ff165b9b367ce150fc6dde164d84a",
          "transactionIndex": "0x1",
          "logIndex": "0x3",
          "removed": false
        }
      ],
      "logsBloom": "0x00020020000000000000000000000000008000000000000000800000200000000000000000000000000000000000000000000000000004000000000000000001002000000200002000000000020080000001000000000000000000000000000040000000020000000000000000000800000000000020000000000000000000400000002000000008000000000000000000000000000000000000004000000010000000000000000000004040000000000000000000000000000000000000000000000800020000000200000000000000000000002000000000000000000020000000000000000200000000000000000000000000000000000000000000000000",
      "transactionHash": "0x73a9fd06ebe176bcc2ba89731b1705b5951ff165b9b367ce150fc6dde164d84a",
      "transactionIndex": "0x1",
      "blockHash": "0x83880013a12165e3e1aad3bc66758359176c01e56d3c5df92e4af356a07444cd",
      "blockNumber": "0x131c91f",
      "gasUsed": "0xb698e",
      "effectiveGasPrice": "0x181b9985aa",
      "from": "0x2738f38fde510743e0c589415e0598c4cee6eaa7",
      "to": "0xba5ed099633d3b313e4d5f7bdc1305d3c28ba5ed",
      "contractAddress": null
    },
    {
      "type": "0x2",
      "status": "0x1",
      "cumulativeGasUsed": "0x12afd",
      "logs": [],
      "logsBloom": "0x00000000000000000000000000000000000000000000000000000000000000000000000000000000000000000000000000000000000000000000000000000000000000000000000000000000000000000000000000000000000000000000000000000000000000000000000000000000000000000000000000000000000000000000000000000000000000000000000000000000000000000000000000000000000000000000000000000000000000000000000000000000000000000000000000000000000000000000000000000000000000000000000000000000000000000000000000000000000000000000000000000000000000000000000000000000",
      "transactionHash": "0x8c35213436d61ab1e6ae4c4c26ed56eda28c22005badb7ce7f7f1bd2280f96ab",
      "transactionIndex": "0x1",
      "blockHash": "0xe8b258313d71def42dc75f476134d60180bad4ae35d2223af4f8749253ed2066",
      "blockNumber": "0x131c924",
      "gasUsed": "0x12afd",
      "effectiveGasPrice": "0x181b9985aa",
      "from": "0x2738f38fde510743e0c589415e0598c4cee6eaa7",
      "to": "0x601566fd7d319d14daee362e15c2e8c3e5d3ef92",
      "contractAddress": null
    },
    {
      "type": "0x2",
      "status": "0x1",
      "cumulativeGasUsed": "0x52994",
      "logs": [],
      "logsBloom": "0x00000000000000000000000000000000000000000000000000000000000000000000000000000000000000000000000000000000000000000000000000000000000000000000000000000000000000000000000000000000000000000000000000000000000000000000000000000000000000000000000000000000000000000000000000000000000000000000000000000000000000000000000000000000000000000000000000000000000000000000000000000000000000000000000000000000000000000000000000000000000000000000000000000000000000000000000000000000000000000000000000000000000000000000000000000000",
      "transactionHash": "0x280dfbbe0402cb0e04abba3764bd190581131a1554460f033b20b4e7493dfeb3",
      "transactionIndex": "0x2",
      "blockHash": "0xd3418d2d0418eb8ce669c65bfe982e22ba7dd1b7b3260dd9ef69b94300c09180",
      "blockNumber": "0x131c928",
      "gasUsed": "0x1b9a2",
      "effectiveGasPrice": "0x181b9985aa",
      "from": "0x2738f38fde510743e0c589415e0598c4cee6eaa7",
      "to": "0x601566fd7d319d14daee362e15c2e8c3e5d3ef92",
      "contractAddress": null
    },
    {
      "type": "0x2",
      "status": "0x1",
      "cumulativeGasUsed": "0x7abc0",
      "logs": [],
      "logsBloom": "0x00000000000000000000000000000000000000000000000000000000000000000000000000000000000000000000000000000000000000000000000000000000000000000000000000000000000000000000000000000000000000000000000000000000000000000000000000000000000000000000000000000000000000000000000000000000000000000000000000000000000000000000000000000000000000000000000000000000000000000000000000000000000000000000000000000000000000000000000000000000000000000000000000000000000000000000000000000000000000000000000000000000000000000000000000000000",
      "transactionHash": "0xbd1a5e0d0138a21f70e63efc597c2ab05ccac04f041fc7b4e137693a93d96f46",
      "transactionIndex": "0x3",
      "blockHash": "0x5ffe92246501e5dc34b527fd1de5b2571ab3b15731fa8f90c8c864a535b9f369",
      "blockNumber": "0x131c92c",
      "gasUsed": "0xcd02",
      "effectiveGasPrice": "0x181b9985aa",
      "from": "0x2738f38fde510743e0c589415e0598c4cee6eaa7",
      "to": "0xcd0776d746d589d91b629d28b785443722cea4e1",
      "contractAddress": null
    },
    {
      "type": "0x2",
      "status": "0x1",
      "cumulativeGasUsed": "0x4789d",
      "logs": [],
      "logsBloom": "0x00000000000000000000000000000000000000000000000000000000000000000000000000000000000000000000000000000000000000000000000000000000000000000000000000000000000000000000000000000000000000000000000000000000000000000000000000000000000000000000000000000000000000000000000000000000000000000000000000000000000000000000000000000000000000000000000000000000000000000000000000000000000000000000000000000000000000000000000000000000000000000000000000000000000000000000000000000000000000000000000000000000000000000000000000000000",
      "transactionHash": "0x56dce157c1102a0486694eb385d497672f7a30c438adf92934f654b49b584244",
      "transactionIndex": "0x2",
      "blockHash": "0xd46f30b90db06325d7579f92dbdd00fbf9f568e0d6d43c78721abb449abcd6a7",
      "blockNumber": "0x131c92d",
      "gasUsed": "0x10945",
      "effectiveGasPrice": "0x181b9985aa",
      "from": "0x2738f38fde510743e0c589415e0598c4cee6eaa7",
      "to": "0xcd0776d746d589d91b629d28b785443722cea4e1",
      "contractAddress": null
    },
    {
      "type": "0x2",
      "status": "0x1",
      "cumulativeGasUsed": "0xb697f",
      "logs": [
        {
          "address": "0xba5ed099633d3b313e4d5f7bdc1305d3c28ba5ed",
          "topics": [
            "0x2feea65dd4e9f9cbd86b74b7734210c59a1b2981b5b137bd0ee3e208200c9067",
            "0x00000000000000000000000094fd96db00f74c51712f6163c5b84e721e41968b",
            "0x44bb9d87e3aa8dae1242aec883ad41e708103e53a6240a010aa64a6c0a0d86b7"
          ],
          "data": "0x",
          "blockHash": "0x54bc74a8969e8ce1e93b3d378f8320637581cb6a3fca85189f8d20bf32550008",
          "blockNumber": "0x131c931",
          "blockTimestamp": "0x69bd3a89",
          "transactionHash": "0x0d17680a8a761f9c5c1bb97e035c149f2cd16351b5db896b68af35608205566d",
          "transactionIndex": "0x1",
          "logIndex": "0x1",
          "removed": false
        },
        {
          "address": "0x904bc5586697ef66b8b3c3189a8f059a4bd4f071",
          "topics": [
            "0x8be0079c531659141344cd1fd0a4f28419497f9722a3daafe3b4186f6b6457e0",
            "0x0000000000000000000000000000000000000000000000000000000000000000",
            "0x0000000000000000000000002738f38fde510743e0c589415e0598c4cee6eaa7"
          ],
          "data": "0x",
          "blockHash": "0x54bc74a8969e8ce1e93b3d378f8320637581cb6a3fca85189f8d20bf32550008",
          "blockNumber": "0x131c931",
          "blockTimestamp": "0x69bd3a89",
          "transactionHash": "0x0d17680a8a761f9c5c1bb97e035c149f2cd16351b5db896b68af35608205566d",
          "transactionIndex": "0x1",
          "logIndex": "0x2",
          "removed": false
        },
        {
          "address": "0xba5ed099633d3b313e4d5f7bdc1305d3c28ba5ed",
          "topics": [
            "0x4db17dd5e4732fb6da34a148104a592783ca119a1e7bb8829eba6cbadef0b511",
            "0x000000000000000000000000904bc5586697ef66b8b3c3189a8f059a4bd4f071"
          ],
          "data": "0x",
          "blockHash": "0x54bc74a8969e8ce1e93b3d378f8320637581cb6a3fca85189f8d20bf32550008",
          "blockNumber": "0x131c931",
          "blockTimestamp": "0x69bd3a89",
          "transactionHash": "0x0d17680a8a761f9c5c1bb97e035c149f2cd16351b5db896b68af35608205566d",
          "transactionIndex": "0x1",
          "logIndex": "0x3",
          "removed": false
        }
      ],
      "logsBloom": "0x00020000000000000000000000000000000000000000000000800000200000000000000000000000000000000000000000000004000004000000000000000000002000000000000000000000020000000001000000800000000000000000000000000000020000000000000000000800000000000020000000000000000000440000000000000000000000000000000000000000000002000000004000000014000000000000000000000000000000800000000000000000000000000000000000000802804000000200000000000000000000002000000000000000000020200000200100000200000000000000000000000000000000000000000000000000",
      "transactionHash": "0x0d17680a8a761f9c5c1bb97e035c149f2cd16351b5db896b68af35608205566d",
      "transactionIndex": "0x1",
      "blockHash": "0x54bc74a8969e8ce1e93b3d378f8320637581cb6a3fca85189f8d20bf32550008",
      "blockNumber": "0x131c931",
      "gasUsed": "0xb697f",
      "effectiveGasPrice": "0x181b9985aa",
      "from": "0x2738f38fde510743e0c589415e0598c4cee6eaa7",
      "to": "0xba5ed099633d3b313e4d5f7bdc1305d3c28ba5ed",
      "contractAddress": null
    },
    {
      "type": "0x2",
      "status": "0x1",
      "cumulativeGasUsed": "0x49ad5",
      "logs": [],
      "logsBloom": "0x00000000000000000000000000000000000000000000000000000000000000000000000000000000000000000000000000000000000000000000000000000000000000000000000000000000000000000000000000000000000000000000000000000000000000000000000000000000000000000000000000000000000000000000000000000000000000000000000000000000000000000000000000000000000000000000000000000000000000000000000000000000000000000000000000000000000000000000000000000000000000000000000000000000000000000000000000000000000000000000000000000000000000000000000000000000",
      "transactionHash": "0x005193f89c7b641693820cde8fb8ff8fdb33d1bc604bf0c22613de70acdd0b74",
      "transactionIndex": "0x2",
      "blockHash": "0x986d0beb5ba85bd0a51999c8f8a3dabfb13dcdb0b9026dff5f183e7c131bf4c4",
      "blockNumber": "0x131c936",
      "gasUsed": "0x12afd",
      "effectiveGasPrice": "0x181b9985aa",
      "from": "0x2738f38fde510743e0c589415e0598c4cee6eaa7",
      "to": "0x904bc5586697ef66b8b3c3189a8f059a4bd4f071",
      "contractAddress": null
    },
    {
      "type": "0x2",
      "status": "0x1",
      "cumulativeGasUsed": "0x52930",
      "logs": [],
      "logsBloom": "0x00000000000000000000000000000000000000000000000000000000000000000000000000000000000000000000000000000000000000000000000000000000000000000000000000000000000000000000000000000000000000000000000000000000000000000000000000000000000000000000000000000000000000000000000000000000000000000000000000000000000000000000000000000000000000000000000000000000000000000000000000000000000000000000000000000000000000000000000000000000000000000000000000000000000000000000000000000000000000000000000000000000000000000000000000000000",
      "transactionHash": "0x38bcd977659f424c5ed7a810d44fa81cc34e3f1f321da3c86f4df0117861ab63",
      "transactionIndex": "0x2",
      "blockHash": "0xce8f018c7813d63816cbf7c34eab4183d08ab0d38b230d5788643781c62e1f4b",
      "blockNumber": "0x131c93a",
      "gasUsed": "0x1b9d1",
      "effectiveGasPrice": "0x181b9985aa",
      "from": "0x2738f38fde510743e0c589415e0598c4cee6eaa7",
      "to": "0x904bc5586697ef66b8b3c3189a8f059a4bd4f071",
      "contractAddress": null
    },
    {
      "type": "0x2",
      "status": "0x1",
      "cumulativeGasUsed": "0x43ce8",
      "logs": [],
      "logsBloom": "0x00000000000000000000000000000000000000000000000000000000000000000000000000000000000000000000000000000000000000000000000000000000000000000000000000000000000000000000000000000000000000000000000000000000000000000000000000000000000000000000000000000000000000000000000000000000000000000000000000000000000000000000000000000000000000000000000000000000000000000000000000000000000000000000000000000000000000000000000000000000000000000000000000000000000000000000000000000000000000000000000000000000000000000000000000000000",
      "transactionHash": "0x1e6a228533738feab39ed3f6e4c2a34a903004b9817ef4213f5a672773dae799",
      "transactionIndex": "0x2",
      "blockHash": "0x30652281546516797bb0b6a638ee93c48a960ddbf914a6223414901f6abaae27",
      "blockNumber": "0x131c93f",
      "gasUsed": "0xcd02",
      "effectiveGasPrice": "0x181b9985aa",
      "from": "0x2738f38fde510743e0c589415e0598c4cee6eaa7",
      "to": "0xf66908600d412898a40db9be6d58125979b57326",
      "contractAddress": null
    },
    {
      "type": "0x2",
      "status": "0x1",
      "cumulativeGasUsed": "0x47ace",
      "logs": [],
      "logsBloom": "0x00000000000000000000000000000000000000000000000000000000000000000000000000000000000000000000000000000000000000000000000000000000000000000000000000000000000000000000000000000000000000000000000000000000000000000000000000000000000000000000000000000000000000000000000000000000000000000000000000000000000000000000000000000000000000000000000000000000000000000000000000000000000000000000000000000000000000000000000000000000000000000000000000000000000000000000000000000000000000000000000000000000000000000000000000000000",
      "transactionHash": "0x213ad3f1146d3016a3d05e6d5410b3a5a34dc55451359f57f5640ef56d887e0a",
      "transactionIndex": "0x2",
      "blockHash": "0x35e7e460ba7b786a2d501ff5eee2c4995b065c02501021ac607fea5883b2cc5c",
      "blockNumber": "0x131c943",
      "gasUsed": "0x10b75",
      "effectiveGasPrice": "0x181b9985aa",
      "from": "0x2738f38fde510743e0c589415e0598c4cee6eaa7",
      "to": "0xf66908600d412898a40db9be6d58125979b57326",
      "contractAddress": null
    }
  ],
  "libraries": [
    "lib/mento-core/node_modules/@celo/contracts/common/linkedlists/AddressSortedLinkedListWithMedian.sol:AddressSortedLinkedListWithMedian:0x8E1B1312EC92C9f8073296c4Cf1E60D31d228269"
  ],
  "pending": [],
  "returns": {},
  "timestamp": 1774008978032,
  "chain": 10143,
  "commit": "059fb4a"
}