{
  "transactions": [
    {
      "hash": "0x9ef7bfefa9c54248981146d63e1756a0a4610050e4a16c671b9d55bdecdb73cb",
      "transactionType": "CALL",
      "contractName": null,
      "contractAddress": "0xb1d1d3382d0f26493063cb7188eb479d45a44cdf",
      "function": "setExternalProvider(address)",
      "arguments": [
        "0xbF111982C39b661D1Cbc1621EB1450694Fae1D3f"
      ],
      "transaction": {
        "from": "0x2738f38fde510743e0c589415e0598c4cee6eaa7",
        "to": "0xb1d1d3382d0f26493063cb7188eb479d45a44cdf",
        "gas": "0xcd02",
        "value": "0x0",
        "input": "0xe3ac8226000000000000000000000000bf111982c39b661d1cbc1621eb1450694fae1d3f",
        "nonce": "0x172",
        "chainId": "0x279f"
      },
      "additionalContracts": [],
      "isFixedGasLimit": false
    },
    {
      "hash": "0xdecc37bd0fd53530bef3420588ec7721833ed0e222ddeb6c64bd4cd359296266",
      "transactionType": "CALL",
      "contractName": null,
      "contractAddress": "0xb1d1d3382d0f26493063cb7188eb479d45a44cdf",
      "function": "report(int256,uint256)",
      "arguments": [
        "99987045",
        "1777301708"
      ],
      "transaction": {
        "from": "0x2738f38fde510743e0c589415e0598c4cee6eaa7",
        "to": "0xb1d1d3382d0f26493063cb7188eb479d45a44cdf",
        "gas": "0xfb05",
        "value": "0x0",
        "input": "0x0f3d249d0000000000000000000000000000000000000000000000000000000005f5ae650000000000000000000000000000000000000000000000000000000069ef78cc",
        "nonce": "0x173",
        "chainId": "0x279f"
      },
      "additionalContracts": [],
      "isFixedGasLimit": false
    },
    {
      "hash": "0x7f8348a9877b3aa894dbbe570767811f6b94aab2cea9773ec1cd88fa468b31ad",
      "transactionType": "CALL",
      "contractName": null,
      "contractAddress": "0x601566fd7d319d14daee362e15c2e8c3e5d3ef92",
      "function": "setExternalProvider(address)",
      "arguments": [
        "0xbF111982C39b661D1Cbc1621EB1450694Fae1D3f"
      ],
      "transaction": {
        "from": "0x2738f38fde510743e0c589415e0598c4cee6eaa7",
        "to": "0x601566fd7d319d14daee362e15c2e8c3e5d3ef92",
        "gas": "0xcd02",
        "value": "0x0",
        "input": "0xe3ac8226000000000000000000000000bf111982c39b661d1cbc1621eb1450694fae1d3f",
        "nonce": "0x174",
        "chainId": "0x279f"
      },
      "additionalContracts": [],
      "isFixedGasLimit": false
    },
    {
      "hash": "0x2ecd6a93cb38f2e4243fe957d5b94f32ddef039839df1bb6ea807dff368215fd",
      "transactionType": "CALL",
      "contractName": null,
      "contractAddress": "0x601566fd7d319d14daee362e15c2e8c3e5d3ef92",
      "function": "report(int256,uint256)",
      "arguments": [
        "99998874",
        "1777301708"
      ],
      "transaction": {
        "from": "0x2738f38fde510743e0c589415e0598c4cee6eaa7",
        "to": "0x601566fd7d319d14daee362e15c2e8c3e5d3ef92",
        "gas": "0xfb05",
        "value": "0x0",
        "input": "0x0f3d249d0000000000000000000000000000000000000000000000000000000005f5dc9a0000000000000000000000000000000000000000000000000000000069ef78cc",
        "nonce": "0x175",
        "chainId": "0x279f"
      },
      "additionalContracts": [],
      "isFixedGasLimit": false
    },
    {
      "hash": "0xdd2998df4e73ab80637b6e84a482956c1f61fc082b8a563b0c34b047763b09d7",
      "transactionType": "CALL",
      "contractName": null,
      "contractAddress": "0xcd0776d746d589d91b629d28b785443722cea4e1",
      "function": "setExternalProvider(address)",
      "arguments": [
        "0xbF111982C39b661D1Cbc1621EB1450694Fae1D3f"
      ],
      "transaction": {
        "from": "0x2738f38fde510743e0c589415e0598c4cee6eaa7",
        "to": "0xcd0776d746d589d91b629d28b785443722cea4e1",
        "gas": "0xcd02",
        "value": "0x0",
        "input": "0xe3ac8226000000000000000000000000bf111982c39b661d1cbc1621eb1450694fae1d3f",
        "nonce": "0x176",
        "chainId": "0x279f"
      },
      "additionalContracts": [],
      "isFixedGasLimit": false
    },
    {
      "hash": "0x2897df69b9efc2ab53efde5d32a0fa5aa6cc2066b4e8d8839ded7f476354d9e7",
      "transactionType": "CALL",
      "contractName": null,
      "contractAddress": "0xcd0776d746d589d91b629d28b785443722cea4e1",
      "function": "report(int256,uint256)",
      "arguments": [
        "99997400",
        "1777301708"
      ],
      "transaction": {
        "from": "0x2738f38fde510743e0c589415e0598c4cee6eaa7",
        "to": "0xcd0776d746d589d91b629d28b785443722cea4e1",
        "gas": "0xfb05",
        "value": "0x0",
        "input": "0x0f3d249d0000000000000000000000000000000000000000000000000000000005f5d6d80000000000000000000000000000000000000000000000000000000069ef78cc",
        "nonce": "0x177",
        "chainId": "0x279f"
      },
      "additionalContracts": [],
      "isFixedGasLimit": false
    },
    {
      "hash": "0xa35f09bfe228cf7b83786566447d46da96fab541f9329b8eef98586e95fc8e44",
      "transactionType": "CALL",
      "contractName": null,
      "contractAddress": "0x904bc5586697ef66b8b3c3189a8f059a4bd4f071",
      "function": "setExternalProvider(address)",
      "arguments": [
        "0xbF111982C39b661D1Cbc1621EB1450694Fae1D3f"
      ],
      "transaction": {
        "from": "0x2738f38fde510743e0c589415e0598c4cee6eaa7",
        "to": "0x904bc5586697ef66b8b3c3189a8f059a4bd4f071",
        "gas": "0xcd02",
        "value": "0x0",
        "input": "0xe3ac8226000000000000000000000000bf111982c39b661d1cbc1621eb1450694fae1d3f",
        "nonce": "0x178",
        "chainId": "0x279f"
      },
      "additionalContracts": [],
      "isFixedGasLimit": false
    },
    {
      "hash": "0xa9e83ace5e70d7802f169fe79fb156fc3e9b880cdf6c89365879586f8b4bfe07",
      "transactionType": "CALL",
      "contractName": null,
      "contractAddress": "0x904bc5586697ef66b8b3c3189a8f059a4bd4f071",
      "function": "report(int256,uint256)",
      "arguments": [
        "1174440000000000000",
        "1777301708"
      ],
      "transaction": {
        "from": "0x2738f38fde510743e0c589415e0598c4cee6eaa7",
        "to": "0x904bc5586697ef66b8b3c3189a8f059a4bd4f071",
        "gas": "0x10b75",
        "value": "0x0",
        "input": "0x0f3d249d000000000000000000000000000000000000000000000000104c72f5220280000000000000000000000000000000000000000000000000000000000069ef78cc",
        "nonce": "0x179",
        "chainId": "0x279f"
      },
      "additionalContracts": [],
      "isFixedGasLimit": false
    },
    {
      "hash": "0xa58676683cfb716ef537e49a4b525ca47a0e2aa9cfed00d4e4be9f5324577bf8",
      "transactionType": "CALL",
      "contractName": null,
      "contractAddress": "0xf66908600d412898a40db9be6d58125979b57326",
      "function": "setExternalProvider(address)",
      "arguments": [
        "0xbF111982C39b661D1Cbc1621EB1450694Fae1D3f"
      ],
      "transaction": {
        "from": "0x2738f38fde510743e0c589415e0598c4cee6eaa7",
        "to": "0xf66908600d412898a40db9be6d58125979b57326",
        "gas": "0xcd02",
        "value": "0x0",
        "input": "0xe3ac8226000000000000000000000000bf111982c39b661d1cbc1621eb1450694fae1d3f",
        "nonce": "0x17a",
        "chainId": "0x279f"
      },
      "additionalContracts": [],
      "isFixedGasLimit": false
    },
    {
      "hash": "0x5ed2ae05487c8e72f277cdf1b5b1bc1efcaa8ad29893016d3e99c8ba1983b373",
      "transactionType": "CALL",
      "contractName": null,
      "contractAddress": "0xf66908600d412898a40db9be6d58125979b57326",
      "function": "report(int256,uint256)",
      "arguments": [
        "1355620000000000000",
        "1777301708"
      ],
      "transaction": {
        "from": "0x2738f38fde510743e0c589415e0598c4cee6eaa7",
        "to": "0xf66908600d412898a40db9be6d58125979b57326",
        "gas": "0x10b75",
        "value": "0x0",
        "input": "0x0f3d249d00000000000000000000000000000000000000000000000012d02135266a40000000000000000000000000000000000000000000000000000000000069ef78cc",
        "nonce": "0x17b",
        "chainId": "0x279f"
      },
      "additionalContracts": [],
      "isFixedGasLimit": false
    },
    {
      "hash": "0x57809ab9d8cee4d10b4b7b6cbe2c1fc82cf4f894df600f1119c6725b43c09812",
      "transactionType": "CALL",
      "contractName": null,
      "contractAddress": "0xba5ed099633d3b313e4d5f7bdc1305d3c28ba5ed",
      "function": "deployCreate3(bytes32,bytes)",
      "arguments": [
        "0x2738f38fde510743e0c589415e0598c4cee6eaa70062b422d772813c6a0c6503",
        "0x608060405234801561000f575f5ffd5b506040516109bf3803806109bf83398101604081905261002e9161011c565b806001600160a01b03811661005c57604051631e4fbdf760e01b81525f600482015260240160405180910390fd5b6100658161008e565b506001610072848261027b565b50506002805460ff191660ff9290921691909117905550610339565b5f80546001600160a01b038381166001600160a01b0319831681178455604051919092169283917f8be0079c531659141344cd1fd0a4f28419497f9722a3daafe3b4186f6b6457e09190a35050565b634e487b7160e01b5f52604160045260245ffd5b805160ff81168114610101575f5ffd5b919050565b80516001600160a01b0381168114610101575f5ffd5b5f5f5f6060848603121561012e575f5ffd5b83516001600160401b03811115610143575f5ffd5b8401601f81018613610153575f5ffd5b80516001600160401b0381111561016c5761016c6100dd565b604051601f8201601f19908116603f011681016001600160401b038111828210171561019a5761019a6100dd565b6040528181528282016020018810156101b1575f5ffd5b8160208401602083015e5f602083830101528095505050506101d5602085016100f1565b91506101e360408501610106565b90509250925092565b600181811c9082168061020057607f821691505b60208210810361021e57634e487b7160e01b5f52602260045260245ffd5b50919050565b601f821115610276578282111561027657805f5260205f20601f840160051c602085101561024f57505f5b90810190601f840160051c035f5b81811015610272575f8382015560010161025d565b5050505b505050565b81516001600160401b03811115610294576102946100dd565b6102a8816102a284546101ec565b84610224565b6020601f8211600181146102da575f83156102c35750848201515b5f19600385901b1c1916600184901b178455610332565b5f84815260208120601f198516915b8281101561030957878501518255602094850194600190920191016102e9565b508482101561032657868401515f19600387901b60f8161c191681555b505060018360011b0184555b5050505050565b610679806103465f395ff3fe608060405234801561000f575f5ffd5b50600436106100e5575f3560e01c80638da5cb5b11610088578063e1e244d811610063578063e1e244d8146101ca578063e3ac8226146101d3578063f2fde38b146101e6578063feaf968c146101f9575f5ffd5b80638da5cb5b1461019057806399213cd8146101a0578063d0b06f5d146101b3575f5ffd5b8063705b9154116100c3578063705b915414610135578063715018a6146101605780637284e416146101685780637a1395aa1461017d575f5ffd5b80630f3d249d146100e9578063313ce567146100fe578063368f186214610122575b5f5ffd5b6100fc6100f73660046104d7565b610238565b005b60025461010b9060ff1681565b60405160ff90911681526020015b60405180910390f35b6100fc6101303660046104f7565b61028a565b600554610148906001600160a01b031681565b6040516001600160a01b039091168152602001610119565b6100fc6102cd565b6101706102e0565b604051610119919061050e565b6100fc61018b366004610543565b61036c565b5f546001600160a01b0316610148565b6100fc6101ae3660046104f7565b61038a565b6101bc60045481565b604051908152602001610119565b6101bc60035481565b6100fc6101e136600461056a565b6103cd565b6100fc6101f436600461056a565b6103f7565b610201610434565b6040805169ffffffffffffffffffff968716815260208101959095528401929092526060830152909116608082015260a001610119565b5f546001600160a01b031633148061025a57506005546001600160a01b031633145b61027f5760405162461bcd60e51b815260040161027690610590565b60405180910390fd5b600391909155600455565b5f546001600160a01b03163314806102ac57506005546001600160a01b031633145b6102c85760405162461bcd60e51b815260040161027690610590565b600455565b6102d561045c565b6102de5f610488565b565b600180546102ed906105e6565b80601f0160208091040260200160405190810160405280929190818152602001828054610319906105e6565b80156103645780601f1061033b57610100808354040283529160200191610364565b820191905f5260205f20905b81548152906001019060200180831161034757829003601f168201915b505050505081565b61037461045c565b6002805460ff191660ff92909216919091179055565b5f546001600160a01b03163314806103ac57506005546001600160a01b031633145b6103c85760405162461bcd60e51b815260040161027690610590565b600355565b6103d561045c565b600580546001600160a01b0319166001600160a01b0392909216919091179055565b6103ff61045c565b6001600160a01b03811661042857604051631e4fbdf760e01b81525f6004820152602401610276565b61043181610488565b50565b5f5f5f5f5f5f6003545f60054261044b919061061e565b929891975095509093505f92509050565b5f546001600160a01b031633146102de5760405163118cdaa760e01b8152336004820152602401610276565b5f80546001600160a01b038381166001600160a01b0319831681178455604051919092169283917f8be0079c531659141344cd1fd0a4f28419497f9722a3daafe3b4186f6b6457e09190a35050565b5f5f604083850312156104e8575f5ffd5b50508035926020909101359150565b5f60208284031215610507575f5ffd5b5035919050565b602081525f82518060208401528060208501604085015e5f604082850101526040601f19601f83011684010191505092915050565b5f60208284031215610553575f5ffd5b813560ff81168114610563575f5ffd5b9392505050565b5f6020828403121561057a575f5ffd5b81356001600160a01b0381168114610563575f5ffd5b60208082526036908201527f4f6e6c79206f776e6572206f722065787465726e616c2070726f76696465722060408201527531b0b71031b0b636103a3434b990333ab731ba34b7b760511b606082015260800190565b600181811c908216806105fa57607f821691505b60208210810361061857634e487b7160e01b5f52602260045260245ffd5b50919050565b8181038181111561063d57634e487b7160e01b5f52601160045260245ffd5b9291505056fea2646970667358221220c370c3213a4c1a565713990169d5e4f7191fbc872583434c95fe560bcfe8842d64736f6c63430008210033000000000000000000000000000000000000000000000000000000000000006000000000000000000000000000000000000000000000000000000000000000120000000000000000000000002738f38fde510743e0c589415e0598c4cee6eaa700000000000000000000000000000000000000000000000000000000000000074348462f55534400000000000000000000000000000000000000000000000000"
      ],
      "transaction": {
        "from": "0x2738f38fde510743e0c589415e0598c4cee6eaa7",
        "to": "0xba5ed099633d3b313e4d5f7bdc1305d3c28ba5ed",
        "gas": "0xb697f",
        "value": "0x0",
        "input": "0x9c36a2862738f38fde510743e0c589415e0598c4cee6eaa70062b422d772813c6a0c650300000000000000000000000000000000000000000000000000000000000000400000000000000000000000000000000000000000000000000000000000000a5f608060405234801561000f575f5ffd5b506040516109bf3803806109bf83398101604081905261002e9161011c565b806001600160a01b03811661005c57604051631e4fbdf760e01b81525f600482015260240160405180910390fd5b6100658161008e565b506001610072848261027b565b50506002805460ff191660ff9290921691909117905550610339565b5f80546001600160a01b038381166001600160a01b0319831681178455604051919092169283917f8be0079c531659141344cd1fd0a4f28419497f9722a3daafe3b4186f6b6457e09190a35050565b634e487b7160e01b5f52604160045260245ffd5b805160ff81168114610101575f5ffd5b919050565b80516001600160a01b0381168114610101575f5ffd5b5f5f5f6060848603121561012e575f5ffd5b83516001600160401b03811115610143575f5ffd5b8401601f81018613610153575f5ffd5b80516001600160401b0381111561016c5761016c6100dd565b604051601f8201601f19908116603f011681016001600160401b038111828210171561019a5761019a6100dd565b6040528181528282016020018810156101b1575f5ffd5b8160208401602083015e5f602083830101528095505050506101d5602085016100f1565b91506101e360408501610106565b90509250925092565b600181811c9082168061020057607f821691505b60208210810361021e57634e487b7160e01b5f52602260045260245ffd5b50919050565b601f821115610276578282111561027657805f5260205f20601f840160051c602085101561024f57505f5b90810190601f840160051c035f5b81811015610272575f8382015560010161025d565b5050505b505050565b81516001600160401b03811115610294576102946100dd565b6102a8816102a284546101ec565b84610224565b6020601f8211600181146102da575f83156102c35750848201515b5f19600385901b1c1916600184901b178455610332565b5f84815260208120601f198516915b8281101561030957878501518255602094850194600190920191016102e9565b508482101561032657868401515f19600387901b60f8161c191681555b505060018360011b0184555b5050505050565b610679806103465f395ff3fe608060405234801561000f575f5ffd5b50600436106100e5575f3560e01c80638da5cb5b11610088578063e1e244d811610063578063e1e244d8146101ca578063e3ac8226146101d3578063f2fde38b146101e6578063feaf968c146101f9575f5ffd5b80638da5cb5b1461019057806399213cd8146101a0578063d0b06f5d146101b3575f5ffd5b8063705b9154116100c3578063705b915414610135578063715018a6146101605780637284e416146101685780637a1395aa1461017d575f5ffd5b80630f3d249d146100e9578063313ce567146100fe578063368f186214610122575b5f5ffd5b6100fc6100f73660046104d7565b610238565b005b60025461010b9060ff1681565b60405160ff90911681526020015b60405180910390f35b6100fc6101303660046104f7565b61028a565b600554610148906001600160a01b031681565b6040516001600160a01b039091168152602001610119565b6100fc6102cd565b6101706102e0565b604051610119919061050e565b6100fc61018b366004610543565b61036c565b5f546001600160a01b0316610148565b6100fc6101ae3660046104f7565b61038a565b6101bc60045481565b604051908152602001610119565b6101bc60035481565b6100fc6101e136600461056a565b6103cd565b6100fc6101f436600461056a565b6103f7565b610201610434565b6040805169ffffffffffffffffffff968716815260208101959095528401929092526060830152909116608082015260a001610119565b5f546001600160a01b031633148061025a57506005546001600160a01b031633145b61027f5760405162461bcd60e51b815260040161027690610590565b60405180910390fd5b600391909155600455565b5f546001600160a01b03163314806102ac57506005546001600160a01b031633145b6102c85760405162461bcd60e51b815260040161027690610590565b600455565b6102d561045c565b6102de5f610488565b565b600180546102ed906105e6565b80601f0160208091040260200160405190810160405280929190818152602001828054610319906105e6565b80156103645780601f1061033b57610100808354040283529160200191610364565b820191905f5260205f20905b81548152906001019060200180831161034757829003601f168201915b505050505081565b61037461045c565b6002805460ff191660ff92909216919091179055565b5f546001600160a01b03163314806103ac57506005546001600160a01b031633145b6103c85760405162461bcd60e51b815260040161027690610590565b600355565b6103d561045c565b600580546001600160a01b0319166001600160a01b0392909216919091179055565b6103ff61045c565b6001600160a01b03811661042857604051631e4fbdf760e01b81525f6004820152602401610276565b61043181610488565b50565b5f5f5f5f5f5f6003545f60054261044b919061061e565b929891975095509093505f92509050565b5f546001600160a01b031633146102de5760405163118cdaa760e01b8152336004820152602401610276565b5f80546001600160a01b038381166001600160a01b0319831681178455604051919092169283917f8be0079c531659141344cd1fd0a4f28419497f9722a3daafe3b4186f6b6457e09190a35050565b5f5f604083850312156104e8575f5ffd5b50508035926020909101359150565b5f60208284031215610507575f5ffd5b5035919050565b602081525f82518060208401528060208501604085015e5f604082850101526040601f19601f83011684010191505092915050565b5f60208284031215610553575f5ffd5b813560ff81168114610563575f5ffd5b9392505050565b5f6020828403121561057a575f5ffd5b81356001600160a01b0381168114610563575f5ffd5b60208082526036908201527f4f6e6c79206f776e6572206f722065787465726e616c2070726f76696465722060408201527531b0b71031b0b636103a3434b990333ab731ba34b7b760511b606082015260800190565b600181811c908216806105fa57607f821691505b60208210810361061857634e487b7160e01b5f52602260045260245ffd5b50919050565b8181038181111561063d57634e487b7160e01b5f52601160045260245ffd5b9291505056fea2646970667358221220c370c3213a4c1a565713990169d5e4f7191fbc872583434c95fe560bcfe8842d64736f6c63430008210033000000000000000000000000000000000000000000000000000000000000006000000000000000000000000000000000000000000000000000000000000000120000000000000000000000002738f38fde510743e0c589415e0598c4cee6eaa700000000000000000000000000000000000000000000000000000000000000074348462f5553440000000000000000000000000000000000000000000000000000",
        "nonce": "0x17c",
        "chainId": "0x279f"
      },
      "additionalContracts": [
        {
          "transactionType": "CREATE2",
          "contractName": null,
          "address": "0x96737642a8f926c55ad9999cd0e1b097a646e60e",
          "initCode": "0x67363d3d37363d34f03d5260086018f3"
        },
        {
          "transactionType": "CREATE",
          "contractName": "MockChainlinkAggregator",
          "address": "0x820f0060292590ebfb63468aae6fecfc5cc19762",
          "initCode": "0x608060405234801561000f575f5ffd5b506040516109bf3803806109bf83398101604081905261002e9161011c565b806001600160a01b03811661005c57604051631e4fbdf760e01b81525f600482015260240160405180910390fd5b6100658161008e565b506001610072848261027b565b50506002805460ff191660ff9290921691909117905550610339565b5f80546001600160a01b038381166001600160a01b0319831681178455604051919092169283917f8be0079c531659141344cd1fd0a4f28419497f9722a3daafe3b4186f6b6457e09190a35050565b634e487b7160e01b5f52604160045260245ffd5b805160ff81168114610101575f5ffd5b919050565b80516001600160a01b0381168114610101575f5ffd5b5f5f5f6060848603121561012e575f5ffd5b83516001600160401b03811115610143575f5ffd5b8401601f81018613610153575f5ffd5b80516001600160401b0381111561016c5761016c6100dd565b604051601f8201601f19908116603f011681016001600160401b038111828210171561019a5761019a6100dd565b6040528181528282016020018810156101b1575f5ffd5b8160208401602083015e5f602083830101528095505050506101d5602085016100f1565b91506101e360408501610106565b90509250925092565b600181811c9082168061020057607f821691505b60208210810361021e57634e487b7160e01b5f52602260045260245ffd5b50919050565b601f821115610276578282111561027657805f5260205f20601f840160051c602085101561024f57505f5b90810190601f840160051c035f5b81811015610272575f8382015560010161025d565b5050505b505050565b81516001600160401b03811115610294576102946100dd565b6102a8816102a284546101ec565b84610224565b6020601f8211600181146102da575f83156102c35750848201515b5f19600385901b1c1916600184901b178455610332565b5f84815260208120601f198516915b8281101561030957878501518255602094850194600190920191016102e9565b508482101561032657868401515f19600387901b60f8161c191681555b505060018360011b0184555b5050505050565b610679806103465f395ff3fe608060405234801561000f575f5ffd5b50600436106100e5575f3560e01c80638da5cb5b11610088578063e1e244d811610063578063e1e244d8146101ca578063e3ac8226146101d3578063f2fde38b146101e6578063feaf968c146101f9575f5ffd5b80638da5cb5b1461019057806399213cd8146101a0578063d0b06f5d146101b3575f5ffd5b8063705b9154116100c3578063705b915414610135578063715018a6146101605780637284e416146101685780637a1395aa1461017d575f5ffd5b80630f3d249d146100e9578063313ce567146100fe578063368f186214610122575b5f5ffd5b6100fc6100f73660046104d7565b610238565b005b60025461010b9060ff1681565b60405160ff90911681526020015b60405180910390f35b6100fc6101303660046104f7565b61028a565b600554610148906001600160a01b031681565b6040516001600160a01b039091168152602001610119565b6100fc6102cd565b6101706102e0565b604051610119919061050e565b6100fc61018b366004610543565b61036c565b5f546001600160a01b0316610148565b6100fc6101ae3660046104f7565b61038a565b6101bc60045481565b604051908152602001610119565b6101bc60035481565b6100fc6101e136600461056a565b6103cd565b6100fc6101f436600461056a565b6103f7565b610201610434565b6040805169ffffffffffffffffffff968716815260208101959095528401929092526060830152909116608082015260a001610119565b5f546001600160a01b031633148061025a57506005546001600160a01b031633145b61027f5760405162461bcd60e51b815260040161027690610590565b60405180910390fd5b600391909155600455565b5f546001600160a01b03163314806102ac57506005546001600160a01b031633145b6102c85760405162461bcd60e51b815260040161027690610590565b600455565b6102d561045c565b6102de5f610488565b565b600180546102ed906105e6565b80601f0160208091040260200160405190810160405280929190818152602001828054610319906105e6565b80156103645780601f1061033b57610100808354040283529160200191610364565b820191905f5260205f20905b81548152906001019060200180831161034757829003601f168201915b505050505081565b61037461045c565b6002805460ff191660ff92909216919091179055565b5f546001600160a01b03163314806103ac57506005546001600160a01b031633145b6103c85760405162461bcd60e51b815260040161027690610590565b600355565b6103d561045c565b600580546001600160a01b0319166001600160a01b0392909216919091179055565b6103ff61045c565b6001600160a01b03811661042857604051631e4fbdf760e01b81525f6004820152602401610276565b61043181610488565b50565b5f5f5f5f5f5f6003545f60054261044b919061061e565b929891975095509093505f92509050565b5f546001600160a01b031633146102de5760405163118cdaa760e01b8152336004820152602401610276565b5f80546001600160a01b038381166001600160a01b0319831681178455604051919092169283917f8be0079c531659141344cd1fd0a4f28419497f9722a3daafe3b4186f6b6457e09190a35050565b5f5f604083850312156104e8575f5ffd5b50508035926020909101359150565b5f60208284031215610507575f5ffd5b5035919050565b602081525f82518060208401528060208501604085015e5f604082850101526040601f19601f83011684010191505092915050565b5f60208284031215610553575f5ffd5b813560ff81168114610563575f5ffd5b9392505050565b5f6020828403121561057a575f5ffd5b81356001600160a01b0381168114610563575f5ffd5b60208082526036908201527f4f6e6c79206f776e6572206f722065787465726e616c2070726f76696465722060408201527531b0b71031b0b636103a3434b990333ab731ba34b7b760511b606082015260800190565b600181811c908216806105fa57607f821691505b60208210810361061857634e487b7160e01b5f52602260045260245ffd5b50919050565b8181038181111561063d57634e487b7160e01b5f52601160045260245ffd5b9291505056fea2646970667358221220c370c3213a4c1a565713990169d5e4f7191fbc872583434c95fe560bcfe8842d64736f6c63430008210033000000000000000000000000000000000000000000000000000000000000006000000000000000000000000000000000000000000000000000000000000000120000000000000000000000002738f38fde510743e0c589415e0598c4cee6eaa700000000000000000000000000000000000000000000000000000000000000074348462f55534400000000000000000000000000000000000000000000000000"
        }
      ],
      "isFixedGasLimit": false
    },
    {
      "hash": "0xaf601f6984d36e13dbcb9f279501e377136abe335e0c28ddcb2596c5a6e82fb8",
      "transactionType": "CALL",
      "contractName": "MockChainlinkAggregator",
      "contractAddress": "0x820f0060292590ebfb63468aae6fecfc5cc19762",
      "function": "setExternalProvider(address)",
      "arguments": [
        "0xbF111982C39b661D1Cbc1621EB1450694Fae1D3f"
      ],
      "transaction": {
        "from": "0x2738f38fde510743e0c589415e0598c4cee6eaa7",
        "to": "0x820f0060292590ebfb63468aae6fecfc5cc19762",
        "gas": "0x703a",
        "value": "0x0",
        "input": "0xe3ac8226000000000000000000000000bf111982c39b661d1cbc1621eb1450694fae1d3f",
        "nonce": "0x17d",
        "chainId": "0x279f"
      },
      "additionalContracts": [],
      "isFixedGasLimit": false
    },
    {
      "hash": "0x839d9b5d7c3b02136bdcc90f12a301eae592752c20769f3835372c59faa5b4a4",
      "transactionType": "CALL",
      "contractName": "MockChainlinkAggregator",
      "contractAddress": "0x820f0060292590ebfb63468aae6fecfc5cc19762",
      "function": "report(int256,uint256)",
      "arguments": [
        "1276535991932292500",
        "1777301708"
      ],
      "transaction": {
        "from": "0x2738f38fde510743e0c589415e0598c4cee6eaa7",
        "to": "0x820f0060292590ebfb63468aae6fecfc5cc19762",
        "gas": "0x7217",
        "value": "0x0",
        "input": "0x0f3d249d00000000000000000000000000000000000000000000000011b72ab8a6200d940000000000000000000000000000000000000000000000000000000069ef78cc",
        "nonce": "0x17e",
        "chainId": "0x279f"
      },
      "additionalContracts": [],
      "isFixedGasLimit": false
    },
    {
      "hash": "0xb3d6f93f4f714167d78d20bfd5c473a17376608314fb0fa2614819f602273f0d",
      "transactionType": "CALL",
      "contractName": null,
      "contractAddress": "0xba5ed099633d3b313e4d5f7bdc1305d3c28ba5ed",
      "function": "deployCreate3(bytes32,bytes)",
      "arguments": [
        "0x2738f38fde510743e0c589415e0598c4cee6eaa7007a3b881af69d09dccac02e",
        "0x608060405234801561000f575f5ffd5b506040516109bf3803806109bf83398101604081905261002e9161011c565b806001600160a01b03811661005c57604051631e4fbdf760e01b81525f600482015260240160405180910390fd5b6100658161008e565b506001610072848261027b565b50506002805460ff191660ff9290921691909117905550610339565b5f80546001600160a01b038381166001600160a01b0319831681178455604051919092169283917f8be0079c531659141344cd1fd0a4f28419497f9722a3daafe3b4186f6b6457e09190a35050565b634e487b7160e01b5f52604160045260245ffd5b805160ff81168114610101575f5ffd5b919050565b80516001600160a01b0381168114610101575f5ffd5b5f5f5f6060848603121561012e575f5ffd5b83516001600160401b03811115610143575f5ffd5b8401601f81018613610153575f5ffd5b80516001600160401b0381111561016c5761016c6100dd565b604051601f8201601f19908116603f011681016001600160401b038111828210171561019a5761019a6100dd565b6040528181528282016020018810156101b1575f5ffd5b8160208401602083015e5f602083830101528095505050506101d5602085016100f1565b91506101e360408501610106565b90509250925092565b600181811c9082168061020057607f821691505b60208210810361021e57634e487b7160e01b5f52602260045260245ffd5b50919050565b601f821115610276578282111561027657805f5260205f20601f840160051c602085101561024f57505f5b90810190601f840160051c035f5b81811015610272575f8382015560010161025d565b5050505b505050565b81516001600160401b03811115610294576102946100dd565b6102a8816102a284546101ec565b84610224565b6020601f8211600181146102da575f83156102c35750848201515b5f19600385901b1c1916600184901b178455610332565b5f84815260208120601f198516915b8281101561030957878501518255602094850194600190920191016102e9565b508482101561032657868401515f19600387901b60f8161c191681555b505060018360011b0184555b5050505050565b610679806103465f395ff3fe608060405234801561000f575f5ffd5b50600436106100e5575f3560e01c80638da5cb5b11610088578063e1e244d811610063578063e1e244d8146101ca578063e3ac8226146101d3578063f2fde38b146101e6578063feaf968c146101f9575f5ffd5b80638da5cb5b1461019057806399213cd8146101a0578063d0b06f5d146101b3575f5ffd5b8063705b9154116100c3578063705b915414610135578063715018a6146101605780637284e416146101685780637a1395aa1461017d575f5ffd5b80630f3d249d146100e9578063313ce567146100fe578063368f186214610122575b5f5ffd5b6100fc6100f73660046104d7565b610238565b005b60025461010b9060ff1681565b60405160ff90911681526020015b60405180910390f35b6100fc6101303660046104f7565b61028a565b600554610148906001600160a01b031681565b6040516001600160a01b039091168152602001610119565b6100fc6102cd565b6101706102e0565b604051610119919061050e565b6100fc61018b366004610543565b61036c565b5f546001600160a01b0316610148565b6100fc6101ae3660046104f7565b61038a565b6101bc60045481565b604051908152602001610119565b6101bc60035481565b6100fc6101e136600461056a565b6103cd565b6100fc6101f436600461056a565b6103f7565b610201610434565b6040805169ffffffffffffffffffff968716815260208101959095528401929092526060830152909116608082015260a001610119565b5f546001600160a01b031633148061025a57506005546001600160a01b031633145b61027f5760405162461bcd60e51b815260040161027690610590565b60405180910390fd5b600391909155600455565b5f546001600160a01b03163314806102ac57506005546001600160a01b031633145b6102c85760405162461bcd60e51b815260040161027690610590565b600455565b6102d561045c565b6102de5f610488565b565b600180546102ed906105e6565b80601f0160208091040260200160405190810160405280929190818152602001828054610319906105e6565b80156103645780601f1061033b57610100808354040283529160200191610364565b820191905f5260205f20905b81548152906001019060200180831161034757829003601f168201915b505050505081565b61037461045c565b6002805460ff191660ff92909216919091179055565b5f546001600160a01b03163314806103ac57506005546001600160a01b031633145b6103c85760405162461bcd60e51b815260040161027690610590565b600355565b6103d561045c565b600580546001600160a01b0319166001600160a01b0392909216919091179055565b6103ff61045c565b6001600160a01b03811661042857604051631e4fbdf760e01b81525f6004820152602401610276565b61043181610488565b50565b5f5f5f5f5f5f6003545f60054261044b919061061e565b929891975095509093505f92509050565b5f546001600160a01b031633146102de5760405163118cdaa760e01b8152336004820152602401610276565b5f80546001600160a01b038381166001600160a01b0319831681178455604051919092169283917f8be0079c531659141344cd1fd0a4f28419497f9722a3daafe3b4186f6b6457e09190a35050565b5f5f604083850312156104e8575f5ffd5b50508035926020909101359150565b5f60208284031215610507575f5ffd5b5035919050565b602081525f82518060208401528060208501604085015e5f604082850101526040601f19601f83011684010191505092915050565b5f60208284031215610553575f5ffd5b813560ff81168114610563575f5ffd5b9392505050565b5f6020828403121561057a575f5ffd5b81356001600160a01b0381168114610563575f5ffd5b60208082526036908201527f4f6e6c79206f776e6572206f722065787465726e616c2070726f76696465722060408201527531b0b71031b0b636103a3434b990333ab731ba34b7b760511b606082015260800190565b600181811c908216806105fa57607f821691505b60208210810361061857634e487b7160e01b5f52602260045260245ffd5b50919050565b8181038181111561063d57634e487b7160e01b5f52601160045260245ffd5b9291505056fea2646970667358221220c370c3213a4c1a565713990169d5e4f7191fbc872583434c95fe560bcfe8842d64736f6c63430008210033000000000000000000000000000000000000000000000000000000000000006000000000000000000000000000000000000000000000000000000000000000120000000000000000000000002738f38fde510743e0c589415e0598c4cee6eaa700000000000000000000000000000000000000000000000000000000000000074a50592f55534400000000000000000000000000000000000000000000000000"
      ],
      "transaction": {
        "from": "0x2738f38fde510743e0c589415e0598c4cee6eaa7",
        "to": "0xba5ed099633d3b313e4d5f7bdc1305d3c28ba5ed",
        "gas": "0xb697f",
        "value": "0x0",
        "input": "0x9c36a2862738f38fde510743e0c589415e0598c4cee6eaa7007a3b881af69d09dccac02e00000000000000000000000000000000000000000000000000000000000000400000000000000000000000000000000000000000000000000000000000000a5f608060405234801561000f575f5ffd5b506040516109bf3803806109bf83398101604081905261002e9161011c565b806001600160a01b03811661005c57604051631e4fbdf760e01b81525f600482015260240160405180910390fd5b6100658161008e565b506001610072848261027b565b50506002805460ff191660ff9290921691909117905550610339565b5f80546001600160a01b038381166001600160a01b0319831681178455604051919092169283917f8be0079c531659141344cd1fd0a4f28419497f9722a3daafe3b4186f6b6457e09190a35050565b634e487b7160e01b5f52604160045260245ffd5b805160ff81168114610101575f5ffd5b919050565b80516001600160a01b0381168114610101575f5ffd5b5f5f5f6060848603121561012e575f5ffd5b83516001600160401b03811115610143575f5ffd5b8401601f81018613610153575f5ffd5b80516001600160401b0381111561016c5761016c6100dd565b604051601f8201601f19908116603f011681016001600160401b038111828210171561019a5761019a6100dd565b6040528181528282016020018810156101b1575f5ffd5b8160208401602083015e5f602083830101528095505050506101d5602085016100f1565b91506101e360408501610106565b90509250925092565b600181811c9082168061020057607f821691505b60208210810361021e57634e487b7160e01b5f52602260045260245ffd5b50919050565b601f821115610276578282111561027657805f5260205f20601f840160051c602085101561024f57505f5b90810190601f840160051c035f5b81811015610272575f8382015560010161025d565b5050505b505050565b81516001600160401b03811115610294576102946100dd565b6102a8816102a284546101ec565b84610224565b6020601f8211600181146102da575f83156102c35750848201515b5f19600385901b1c1916600184901b178455610332565b5f84815260208120601f198516915b8281101561030957878501518255602094850194600190920191016102e9565b508482101561032657868401515f19600387901b60f8161c191681555b505060018360011b0184555b5050505050565b610679806103465f395ff3fe608060405234801561000f575f5ffd5b50600436106100e5575f3560e01c80638da5cb5b11610088578063e1e244d811610063578063e1e244d8146101ca578063e3ac8226146101d3578063f2fde38b146101e6578063feaf968c146101f9575f5ffd5b80638da5cb5b1461019057806399213cd8146101a0578063d0b06f5d146101b3575f5ffd5b8063705b9154116100c3578063705b915414610135578063715018a6146101605780637284e416146101685780637a1395aa1461017d575f5ffd5b80630f3d249d146100e9578063313ce567146100fe578063368f186214610122575b5f5ffd5b6100fc6100f73660046104d7565b610238565b005b60025461010b9060ff1681565b60405160ff90911681526020015b60405180910390f35b6100fc6101303660046104f7565b61028a565b600554610148906001600160a01b031681565b6040516001600160a01b039091168152602001610119565b6100fc6102cd565b6101706102e0565b604051610119919061050e565b6100fc61018b366004610543565b61036c565b5f546001600160a01b0316610148565b6100fc6101ae3660046104f7565b61038a565b6101bc60045481565b604051908152602001610119565b6101bc60035481565b6100fc6101e136600461056a565b6103cd565b6100fc6101f436600461056a565b6103f7565b610201610434565b6040805169ffffffffffffffffffff968716815260208101959095528401929092526060830152909116608082015260a001610119565b5f546001600160a01b031633148061025a57506005546001600160a01b031633145b61027f5760405162461bcd60e51b815260040161027690610590565b60405180910390fd5b600391909155600455565b5f546001600160a01b03163314806102ac57506005546001600160a01b031633145b6102c85760405162461bcd60e51b815260040161027690610590565b600455565b6102d561045c565b6102de5f610488565b565b600180546102ed906105e6565b80601f0160208091040260200160405190810160405280929190818152602001828054610319906105e6565b80156103645780601f1061033b57610100808354040283529160200191610364565b820191905f5260205f20905b81548152906001019060200180831161034757829003601f168201915b505050505081565b61037461045c565b6002805460ff191660ff92909216919091179055565b5f546001600160a01b03163314806103ac57506005546001600160a01b031633145b6103c85760405162461bcd60e51b815260040161027690610590565b600355565b6103d561045c565b600580546001600160a01b0319166001600160a01b0392909216919091179055565b6103ff61045c565b6001600160a01b03811661042857604051631e4fbdf760e01b81525f6004820152602401610276565b61043181610488565b50565b5f5f5f5f5f5f6003545f60054261044b919061061e565b929891975095509093505f92509050565b5f546001600160a01b031633146102de5760405163118cdaa760e01b8152336004820152602401610276565b5f80546001600160a01b038381166001600160a01b0319831681178455604051919092169283917f8be0079c531659141344cd1fd0a4f28419497f9722a3daafe3b4186f6b6457e09190a35050565b5f5f604083850312156104e8575f5ffd5b50508035926020909101359150565b5f60208284031215610507575f5ffd5b5035919050565b602081525f82518060208401528060208501604085015e5f604082850101526040601f19601f83011684010191505092915050565b5f60208284031215610553575f5ffd5b813560ff81168114610563575f5ffd5b9392505050565b5f6020828403121561057a575f5ffd5b81356001600160a01b0381168114610563575f5ffd5b60208082526036908201527f4f6e6c79206f776e6572206f722065787465726e616c2070726f76696465722060408201527531b0b71031b0b636103a3434b990333ab731ba34b7b760511b606082015260800190565b600181811c908216806105fa57607f821691505b60208210810361061857634e487b7160e01b5f52602260045260245ffd5b50919050565b8181038181111561063d57634e487b7160e01b5f52601160045260245ffd5b9291505056fea2646970667358221220c370c3213a4c1a565713990169d5e4f7191fbc872583434c95fe560bcfe8842d64736f6c63430008210033000000000000000000000000000000000000000000000000000000000000006000000000000000000000000000000000000000000000000000000000000000120000000000000000000000002738f38fde510743e0c589415e0598c4cee6eaa700000000000000000000000000000000000000000000000000000000000000074a50592f5553440000000000000000000000000000000000000000000000000000",
        "nonce": "0x17f",
        "chainId": "0x279f"
      },
      "additionalContracts": [
        {
          "transactionType": "CREATE2",
          "contractName": null,
          "address": "0xbf60d62ae4aa64e65a4ee4a9316fd4f51e3f3acc",
          "initCode": "0x67363d3d37363d34f03d5260086018f3"
        },
        {
          "transactionType": "CREATE",
          "contractName": "MockChainlinkAggregator",
          "address": "0x6da50e1edd6ee28fdb1cbf2fd4d1102f93644da4",
          "initCode": "0x608060405234801561000f575f5ffd5b506040516109bf3803806109bf83398101604081905261002e9161011c565b806001600160a01b03811661005c57604051631e4fbdf760e01b81525f600482015260240160405180910390fd5b6100658161008e565b506001610072848261027b565b50506002805460ff191660ff9290921691909117905550610339565b5f80546001600160a01b038381166001600160a01b0319831681178455604051919092169283917f8be0079c531659141344cd1fd0a4f28419497f9722a3daafe3b4186f6b6457e09190a35050565b634e487b7160e01b5f52604160045260245ffd5b805160ff81168114610101575f5ffd5b919050565b80516001600160a01b0381168114610101575f5ffd5b5f5f5f6060848603121561012e575f5ffd5b83516001600160401b03811115610143575f5ffd5b8401601f81018613610153575f5ffd5b80516001600160401b0381111561016c5761016c6100dd565b604051601f8201601f19908116603f011681016001600160401b038111828210171561019a5761019a6100dd565b6040528181528282016020018810156101b1575f5ffd5b8160208401602083015e5f602083830101528095505050506101d5602085016100f1565b91506101e360408501610106565b90509250925092565b600181811c9082168061020057607f821691505b60208210810361021e57634e487b7160e01b5f52602260045260245ffd5b50919050565b601f821115610276578282111561027657805f5260205f20601f840160051c602085101561024f57505f5b90810190601f840160051c035f5b81811015610272575f8382015560010161025d565b5050505b505050565b81516001600160401b03811115610294576102946100dd565b6102a8816102a284546101ec565b84610224565b6020601f8211600181146102da575f83156102c35750848201515b5f19600385901b1c1916600184901b178455610332565b5f84815260208120601f198516915b8281101561030957878501518255602094850194600190920191016102e9565b508482101561032657868401515f19600387901b60f8161c191681555b505060018360011b0184555b5050505050565b610679806103465f395ff3fe608060405234801561000f575f5ffd5b50600436106100e5575f3560e01c80638da5cb5b11610088578063e1e244d811610063578063e1e244d8146101ca578063e3ac8226146101d3578063f2fde38b146101e6578063feaf968c146101f9575f5ffd5b80638da5cb5b1461019057806399213cd8146101a0578063d0b06f5d146101b3575f5ffd5b8063705b9154116100c3578063705b915414610135578063715018a6146101605780637284e416146101685780637a1395aa1461017d575f5ffd5b80630f3d249d146100e9578063313ce567146100fe578063368f186214610122575b5f5ffd5b6100fc6100f73660046104d7565b610238565b005b60025461010b9060ff1681565b60405160ff90911681526020015b60405180910390f35b6100fc6101303660046104f7565b61028a565b600554610148906001600160a01b031681565b6040516001600160a01b039091168152602001610119565b6100fc6102cd565b6101706102e0565b604051610119919061050e565b6100fc61018b366004610543565b61036c565b5f546001600160a01b0316610148565b6100fc6101ae3660046104f7565b61038a565b6101bc60045481565b604051908152602001610119565b6101bc60035481565b6100fc6101e136600461056a565b6103cd565b6100fc6101f436600461056a565b6103f7565b610201610434565b6040805169ffffffffffffffffffff968716815260208101959095528401929092526060830152909116608082015260a001610119565b5f546001600160a01b031633148061025a57506005546001600160a01b031633145b61027f5760405162461bcd60e51b815260040161027690610590565b60405180910390fd5b600391909155600455565b5f546001600160a01b03163314806102ac57506005546001600160a01b031633145b6102c85760405162461bcd60e51b815260040161027690610590565b600455565b6102d561045c565b6102de5f610488565b565b600180546102ed906105e6565b80601f0160208091040260200160405190810160405280929190818152602001828054610319906105e6565b80156103645780601f1061033b57610100808354040283529160200191610364565b820191905f5260205f20905b81548152906001019060200180831161034757829003601f168201915b505050505081565b61037461045c565b6002805460ff191660ff92909216919091179055565b5f546001600160a01b03163314806103ac57506005546001600160a01b031633145b6103c85760405162461bcd60e51b815260040161027690610590565b600355565b6103d561045c565b600580546001600160a01b0319166001600160a01b0392909216919091179055565b6103ff61045c565b6001600160a01b03811661042857604051631e4fbdf760e01b81525f6004820152602401610276565b61043181610488565b50565b5f5f5f5f5f5f6003545f60054261044b919061061e565b929891975095509093505f92509050565b5f546001600160a01b031633146102de5760405163118cdaa760e01b8152336004820152602401610276565b5f80546001600160a01b038381166001600160a01b0319831681178455604051919092169283917f8be0079c531659141344cd1fd0a4f28419497f9722a3daafe3b4186f6b6457e09190a35050565b5f5f604083850312156104e8575f5ffd5b50508035926020909101359150565b5f60208284031215610507575f5ffd5b5035919050565b602081525f82518060208401528060208501604085015e5f604082850101526040601f19601f83011684010191505092915050565b5f60208284031215610553575f5ffd5b813560ff81168114610563575f5ffd5b9392505050565b5f6020828403121561057a575f5ffd5b81356001600160a01b0381168114610563575f5ffd5b60208082526036908201527f4f6e6c79206f776e6572206f722065787465726e616c2070726f76696465722060408201527531b0b71031b0b636103a3434b990333ab731ba34b7b760511b606082015260800190565b600181811c908216806105fa57607f821691505b60208210810361061857634e487b7160e01b5f52602260045260245ffd5b50919050565b8181038181111561063d57634e487b7160e01b5f52601160045260245ffd5b9291505056fea2646970667358221220c370c3213a4c1a565713990169d5e4f7191fbc872583434c95fe560bcfe8842d64736f6c63430008210033000000000000000000000000000000000000000000000000000000000000006000000000000000000000000000000000000000000000000000000000000000120000000000000000000000002738f38fde510743e0c589415e0598c4cee6eaa700000000000000000000000000000000000000000000000000000000000000074a50592f55534400000000000000000000000000000000000000000000000000"
        }
      ],
      "isFixedGasLimit": false
    },
    {
      "hash": "0xf94f56b1e3a7a60c9efb920b4ad104bd454b39ed4f361b30c2192c89b63376a1",
      "transactionType": "CALL",
      "contractName": "MockChainlinkAggregator",
      "contractAddress": "0x6da50e1edd6ee28fdb1cbf2fd4d1102f93644da4",
      "function": "setExternalProvider(address)",
      "arguments": [
        "0xbF111982C39b661D1Cbc1621EB1450694Fae1D3f"
      ],
      "transaction": {
        "from": "0x2738f38fde510743e0c589415e0598c4cee6eaa7",
        "to": "0x6da50e1edd6ee28fdb1cbf2fd4d1102f93644da4",
        "gas": "0x703a",
        "value": "0x0",
        "input": "0xe3ac8226000000000000000000000000bf111982c39b661d1cbc1621eb1450694fae1d3f",
        "nonce": "0x180",
        "chainId": "0x279f"
      },
      "additionalContracts": [],
      "isFixedGasLimit": false
    },
    {
      "hash": "0xa696a35da8e4d59d5380e06c6afd8ea75494eeda3ba94b3b7bdee3935dec554d",
      "transactionType": "CALL",
      "contractName": "MockChainlinkAggregator",
      "contractAddress": "0x6da50e1edd6ee28fdb1cbf2fd4d1102f93644da4",
      "function": "report(int256,uint256)",
      "arguments": [
        "6284446623052608",
        "1777301708"
      ],
      "transaction": {
        "from": "0x2738f38fde510743e0c589415e0598c4cee6eaa7",
        "to": "0x6da50e1edd6ee28fdb1cbf2fd4d1102f93644da4",
        "gas": "0x7207",
        "value": "0x0",
        "input": "0x0f3d249d000000000000000000000000000000000000000000000000001653abc093b3400000000000000000000000000000000000000000000000000000000069ef78cc",
        "nonce": "0x181",
        "chainId": "0x279f"
      },
      "additionalContracts": [],
      "isFixedGasLimit": false
    }
  ],
  "receipts": [
    {
      "type": "0x2",
      "status": "0x1",
      "cumulativeGasUsed": "0x43bf7",
      "logs": [],
      "logsBloom": "0x00000000000000000000000000000000000000000000000000000000000000000000000000000000000000000000000000000000000000000000000000000000000000000000000000000000000000000000000000000000000000000000000000000000000000000000000000000000000000000000000000000000000000000000000000000000000000000000000000000000000000000000000000000000000000000000000000000000000000000000000000000000000000000000000000000000000000000000000000000000000000000000000000000000000000000000000000000000000000000000000000000000000000000000000000000000",
      "transactionHash": "0x9ef7bfefa9c54248981146d63e1756a0a4610050e4a16c671b9d55bdecdb73cb",
      "transactionIndex": "0x2",
      "blockHash": "0x211dde0442f43c6fb23df2665346062d894131cc4067e2194814c75009b36e1e",
      "blockNumber": "0x1adcf15",
      "gasUsed": "0xcd02",
      "effectiveGasPrice": "0x1c7f9bc7ff",
      "from": "0x2738f38fde510743e0c589415e0598c4cee6eaa7",
      "to": "0xb1d1d3382d0f26493063cb7188eb479d45a44cdf",
      "contractAddress": null
    },
    {
      "type": "0x2",
      "status": "0x1",
      "cumulativeGasUsed": "0x46ac7",
      "logs": [],
      "logsBloom": "0x00000000000000000000000000000000000000000000000000000000000000000000000000000000000000000000000000000000000000000000000000000000000000000000000000000000000000000000000000000000000000000000000000000000000000000000000000000000000000000000000000000000000000000000000000000000000000000000000000000000000000000000000000000000000000000000000000000000000000000000000000000000000000000000000000000000000000000000000000000000000000000000000000000000000000000000000000000000000000000000000000000000000000000000000000000000",
      "transactionHash": "0xdecc37bd0fd53530bef3420588ec7721833ed0e222ddeb6c64bd4cd359296266",
      "transactionIndex": "0x2",
      "blockHash": "0x966a82923ab5d86a9669e58da81e7fb1278a0f15684f9416ed5999c16e851486",
      "blockNumber": "0x1adcf1a",
      "gasUsed": "0xfb05",
      "effectiveGasPrice": "0x1c7f9bc7ff",
      "from": "0x2738f38fde510743e0c589415e0598c4cee6eaa7",
      "to": "0xb1d1d3382d0f26493063cb7188eb479d45a44cdf",
      "contractAddress": null
    },
    {
      "type": "0x2",
      "status": "0x1",
      "cumulativeGasUsed": "0x1070e3",
      "logs": [],
      "logsBloom": "0x00000000000000000000000000000000000000000000000000000000000000000000000000000000000000000000000000000000000000000000000000000000000000000000000000000000000000000000000000000000000000000000000000000000000000000000000000000000000000000000000000000000000000000000000000000000000000000000000000000000000000000000000000000000000000000000000000000000000000000000000000000000000000000000000000000000000000000000000000000000000000000000000000000000000000000000000000000000000000000000000000000000000000000000000000000000",
      "transactionHash": "0x7f8348a9877b3aa894dbbe570767811f6b94aab2cea9773ec1cd88fa468b31ad",
      "transactionIndex": "0x3",
      "blockHash": "0x33d19e9242e98ceb7bee7553a7945dd4d59d350c07e9d36b9728043468d24789",
      "blockNumber": "0x1adcf1f",
      "gasUsed": "0xcd02",
      "effectiveGasPrice": "0x1c7f9bc7ff",
      "from": "0x2738f38fde510743e0c589415e0598c4cee6eaa7",
      "to": "0x601566fd7d319d14daee362e15c2e8c3e5d3ef92",
      "contractAddress": null
    },
    {
      "type": "0x2",
      "status": "0x1",
      "cumulativeGasUsed": "0x46a8a",
      "logs": [],
      "logsBloom": "0x00000000000000000000000000000000000000000000000000000000000000000000000000000000000000000000000000000000000000000000000000000000000000000000000000000000000000000000000000000000000000000000000000000000000000000000000000000000000000000000000000000000000000000000000000000000000000000000000000000000000000000000000000000000000000000000000000000000000000000000000000000000000000000000000000000000000000000000000000000000000000000000000000000000000000000000000000000000000000000000000000000000000000000000000000000000",
      "transactionHash": "0x2ecd6a93cb38f2e4243fe957d5b94f32ddef039839df1bb6ea807dff368215fd",
      "transactionIndex": "0x2",
      "blockHash": "0xa1fb1fea526089fc37fb6d825ce4bdce938de0b93534eccf3e1093f17d8d8f25",
      "blockNumber": "0x1adcf24",
      "gasUsed": "0xfb05",
      "effectiveGasPrice": "0x1c7f9bc7ff",
      "from": "0x2738f38fde510743e0c589415e0598c4cee6eaa7",
      "to": "0x601566fd7d319d14daee362e15c2e8c3e5d3ef92",
      "contractAddress": null
    },
    {
      "type": "0x2",
      "status": "0x1",
      "cumulativeGasUsed": "0x43b65",
      "logs": [],
      "logsBloom": "0x00000000000000000000000000000000000000000000000000000000000000000000000000000000000000000000000000000000000000000000000000000000000000000000000000000000000000000000000000000000000000000000000000000000000000000000000000000000000000000000000000000000000000000000000000000000000000000000000000000000000000000000000000000000000000000000000000000000000000000000000000000000000000000000000000000000000000000000000000000000000000000000000000000000000000000000000000000000000000000000000000000000000000000000000000000000",
      "transactionHash": "0xdd2998df4e73ab80637b6e84a482956c1f61fc082b8a563b0c34b047763b09d7",
      "transactionIndex": "0x2",
      "blockHash": "0x2b9f68c9a9e2dda47ef22b3644471860e211c050ec600aef30896fd4f31bf097",
      "blockNumber": "0x1adcf28",
      "gasUsed": "0xcd02",
      "effectiveGasPrice": "0x1c7f9bc7ff",
      "from": "0x2738f38fde510743e0c589415e0598c4cee6eaa7",
      "to": "0xcd0776d746d589d91b629d28b785443722cea4e1",
      "contractAddress": null
    },
    {
      "type": "0x2",
      "status": "0x1",
      "cumulativeGasUsed": "0x46a89",
      "logs": [],
      "logsBloom": "0x00000000000000000000000000000000000000000000000000000000000000000000000000000000000000000000000000000000000000000000000000000000000000000000000000000000000000000000000000000000000000000000000000000000000000000000000000000000000000000000000000000000000000000000000000000000000000000000000000000000000000000000000000000000000000000000000000000000000000000000000000000000000000000000000000000000000000000000000000000000000000000000000000000000000000000000000000000000000000000000000000000000000000000000000000000000",
      "transactionHash": "0x2897df69b9efc2ab53efde5d32a0fa5aa6cc2066b4e8d8839ded7f476354d9e7",
      "transactionIndex": "0x2",
      "blockHash": "0xa9b5867e6ba6bd84b04fdcb2fb0ad4423775132bc72f3f55aeabb75a4654dbd3",
      "blockNumber": "0x1adcf2d",
      "gasUsed": "0xfb05",
      "effectiveGasPrice": "0x1c7f9bc7ff",
      "from": "0x2738f38fde510743e0c589415e0598c4cee6eaa7",
      "to": "0xcd0776d746d589d91b629d28b785443722cea4e1",
      "contractAddress": null
    },
    {
      "type": "0x2",
      "status": "0x1",
      "cumulativeGasUsed": "0x3cff2f",
      "logs": [],
      "logsBloom": "0x00000000000000000000000000000000000000000000000000000000000000000000000000000000000000000000000000000000000000000000000000000000000000000000000000000000000000000000000000000000000000000000000000000000000000000000000000000000000000000000000000000000000000000000000000000000000000000000000000000000000000000000000000000000000000000000000000000000000000000000000000000000000000000000000000000000000000000000000000000000000000000000000000000000000000000000000000000000000000000000000000000000000000000000000000000000",
      "transactionHash": "0xa35f09bfe228cf7b83786566447d46da96fab541f9329b8eef98586e95fc8e44",
      "transactionIndex": "0x6",
      "blockHash": "0x21478c405797aadea374741c30cda0dfa8cbf4f5c3b72c5fefbd5a9d9c6f8682",
      "blockNumber": "0x1adcf31",
      "gasUsed": "0xcd02",
      "effectiveGasPrice": "0x1c7f9bc7ff",
      "from": "0x2738f38fde510743e0c589415e0598c4cee6eaa7",
      "to": "0x904bc5586697ef66b8b3c3189a8f059a4bd4f071",
      "contractAddress": null
    },
    {
      "type": "0x2",
      "status": "0x1",
      "cumulativeGasUsed": "0x47ae2",
      "logs": [],
      "logsBloom": "0x00000000000000000000000000000000000000000000000000000000000000000000000000000000000000000000000000000000000000000000000000000000000000000000000000000000000000000000000000000000000000000000000000000000000000000000000000000000000000000000000000000000000000000000000000000000000000000000000000000000000000000000000000000000000000000000000000000000000000000000000000000000000000000000000000000000000000000000000000000000000000000000000000000000000000000000000000000000000000000000000000000000000000000000000000000000",
      "transactionHash": "0xa9e83ace5e70d7802f169fe79fb156fc3e9b880cdf6c89365879586f8b4bfe07",
      "transactionIndex": "0x2",
      "blockHash": "0xf6bc346a2caaa39c74684cfc33d161d08c7cf1739b6ee96e88efec67786bf327",
      "blockNumber": "0x1adcf34",
      "gasUsed": "0x10b75",
      "effectiveGasPrice": "0x1c7f9bc7ff",
      "from": "0x2738f38fde510743e0c589415e0598c4cee6eaa7",
      "to": "0x904bc5586697ef66b8b3c3189a8f059a4bd4f071",
      "contractAddress": null
    },
    {
      "type": "0x2",
      "status": "0x1",
      "cumulativeGasUsed": "0x107100",
      "logs": [],
      "logsBloom": "0x00000000000000000000000000000000000000000000000000000000000000000000000000000000000000000000000000000000000000000000000000000000000000000000000000000000000000000000000000000000000000000000000000000000000000000000000000000000000000000000000000000000000000000000000000000000000000000000000000000000000000000000000000000000000000000000000000000000000000000000000000000000000000000000000000000000000000000000000000000000000000000000000000000000000000000000000000000000000000000000000000000000000000000000000000000000",
      "transactionHash": "0xa58676683cfb716ef537e49a4b525ca47a0e2aa9cfed00d4e4be9f5324577bf8",
      "transactionIndex": "0x3",
      "blockHash": "0x0915dfcb93e7accbc2f0081238166a600ba2a6d9e95c10beefb6d19d93192840",
      "blockNumber": "0x1adcf35",
      "gasUsed": "0xcd02",
      "effectiveGasPrice": "0x1c7f9bc7ff",
      "from": "0x2738f38fde510743e0c589415e0598c4cee6eaa7",
      "to": "0xf66908600d412898a40db9be6d58125979b57326",
      "contractAddress": null
    },
    {
      "type": "0x2",
      "status": "0x1",
      "cumulativeGasUsed": "0x4c691",
      "logs": [],
      "logsBloom": "0x00000000000000000000000000000000000000000000000000000000000000000000000000000000000000000000000000000000000000000000000000000000000000000000000000000000000000000000000000000000000000000000000000000000000000000000000000000000000000000000000000000000000000000000000000000000000000000000000000000000000000000000000000000000000000000000000000000000000000000000000000000000000000000000000000000000000000000000000000000000000000000000000000000000000000000000000000000000000000000000000000000000000000000000000000000000",
      "transactionHash": "0x5ed2ae05487c8e72f277cdf1b5b1bc1efcaa8ad29893016d3e99c8ba1983b373",
      "transactionIndex": "0x2",
      "blockHash": "0xcf9c9739ca7f9861dec70fd9fbc6249e8964b91e36b94ff276e2a6dd1d667c7b",
      "blockNumber": "0x1adcf39",
      "gasUsed": "0x10b75",
      "effectiveGasPrice": "0x1c7f9bc7ff",
      "from": "0x2738f38fde510743e0c589415e0598c4cee6eaa7",
      "to": "0xf66908600d412898a40db9be6d58125979b57326",
      "contractAddress": null
    },
    {
      "type": "0x2",
      "status": "0x1",
      "cumulativeGasUsed": "0xb697f",
      "logs": [
        {
          "address": "0xba5ed099633d3b313e4d5f7bdc1305d3c28ba5ed",
          "topics": [
            "0x2feea65dd4e9f9cbd86b74b7734210c59a1b2981b5b137bd0ee3e208200c9067",
            "0x00000000000000000000000096737642a8f926c55ad9999cd0e1b097a646e60e",
            "0x8d6cff44259edb5edd1c2328f6f95863098c0d803658836e91f807a8c9cb10c9"
          ],
          "data": "0x",
          "blockHash": "0x124a5324a9d14869ceb646a5dcc52b85c18f930f1768bc78d594987d376c414f",
          "blockNumber": "0x1adcf3e",
          "blockTimestamp": "0x69ef78e9",
          "transactionHash": "0x57809ab9d8cee4d10b4b7b6cbe2c1fc82cf4f894df600f1119c6725b43c09812",
          "transactionIndex": "0x1",
          "logIndex": "0x1",
          "removed": false
        },
        {
          "address": "0x820f0060292590ebfb63468aae6fecfc5cc19762",
          "topics": [
            "0x8be0079c531659141344cd1fd0a4f28419497f9722a3daafe3b4186f6b6457e0",
            "0x0000000000000000000000000000000000000000000000000000000000000000",
            "0x0000000000000000000000002738f38fde510743e0c589415e0598c4cee6eaa7"
          ],
          "data": "0x",
          "blockHash": "0x124a5324a9d14869ceb646a5dcc52b85c18f930f1768bc78d594987d376c414f",
          "blockNumber": "0x1adcf3e",
          "blockTimestamp": "0x69ef78e9",
          "transactionHash": "0x57809ab9d8cee4d10b4b7b6cbe2c1fc82cf4f894df600f1119c6725b43c09812",
          "transactionIndex": "0x1",
          "logIndex": "0x2",
          "removed": false
        },
        {
          "address": "0xba5ed099633d3b313e4d5f7bdc1305d3c28ba5ed",
          "topics": [
            "0x4db17dd5e4732fb6da34a148104a592783ca119a1e7bb8829eba6cbadef0b511",
            "0x000000000000000000000000820f0060292590ebfb63468aae6fecfc5cc19762"
          ],
          "data": "0x",
          "blockHash": "0x124a5324a9d14869ceb646a5dcc52b85c18f930f1768bc78d594987d376c414f",
          "blockNumber": "0x1adcf3e",
          "blockTimestamp": "0x69ef78e9",
          "transactionHash": "0x57809ab9d8cee4d10b4b7b6cbe2c1fc82cf4f894df600f1119c6725b43c09812",
          "transactionIndex": "0x1",
          "logIndex": "0x3",
          "removed": false
        }
      ],
      "logsBloom": "0x00020000000000000000000000000000000000000000000000800200200000000000000000000000000000000000000000000000000004000000000000000080002002000000000100000000020000000003000000000000000000000080000000000000020000800000000000000808000000000020000000000000000000400000000000000000000000000800008000000000000000000002004000000010000000000000000000000000000000000000000000000000000000000000000000000800000000000200000000000000000000002000000000000000000020000000000000000200000000000000000000000000000000000000040000000000",
      "transactionHash": "0x57809ab9d8cee4d10b4b7b6cbe2c1fc82cf4f894df600f1119c6725b43c09812",
      "transactionIndex": "0x1",
      "blockHash": "0x124a5324a9d14869ceb646a5dcc52b85c18f930f1768bc78d594987d376c414f",
      "blockNumber": "0x1adcf3e",
      "gasUsed": "0xb697f",
      "effectiveGasPrice": "0x1c7f9bc7ff",
      "from": "0x2738f38fde510743e0c589415e0598c4cee6eaa7",
      "to": "0xba5ed099633d3b313e4d5f7bdc1305d3c28ba5ed",
      "contractAddress": null
    },
    {
      "type": "0x2",
      "status": "0x1",
      "cumulativeGasUsed": "0x173586",
      "logs": [],
      "logsBloom": "0x00000000000000000000000000000000000000000000000000000000000000000000000000000000000000000000000000000000000000000000000000000000000000000000000000000000000000000000000000000000000000000000000000000000000000000000000000000000000000000000000000000000000000000000000000000000000000000000000000000000000000000000000000000000000000000000000000000000000000000000000000000000000000000000000000000000000000000000000000000000000000000000000000000000000000000000000000000000000000000000000000000000000000000000000000000000",
      "transactionHash": "0xaf601f6984d36e13dbcb9f279501e377136abe335e0c28ddcb2596c5a6e82fb8",
      "transactionIndex": "0x3",
      "blockHash": "0xc42ea741e170f721651b36694d5e41915ff450d59a724cdc9b13d1b085470967",
      "blockNumber": "0x1adcf42",
      "gasUsed": "0x12afd",
      "effectiveGasPrice": "0x1c7f9bc7ff",
      "from": "0x2738f38fde510743e0c589415e0598c4cee6eaa7",
      "to": "0x820f0060292590ebfb63468aae6fecfc5cc19762",
      "contractAddress": null
    },
    {
      "type": "0x2",
      "status": "0x1",
      "cumulativeGasUsed": "0x528ab",
      "logs": [],
      "logsBloom": "0x00000000000000000000000000000000000000000000000000000000000000000000000000000000000000000000000000000000000000000000000000000000000000000000000000000000000000000000000000000000000000000000000000000000000000000000000000000000000000000000000000000000000000000000000000000000000000000000000000000000000000000000000000000000000000000000000000000000000000000000000000000000000000000000000000000000000000000000000000000000000000000000000000000000000000000000000000000000000000000000000000000000000000000000000000000000",
      "transactionHash": "0x839d9b5d7c3b02136bdcc90f12a301eae592752c20769f3835372c59faa5b4a4",
      "transactionIndex": "0x2",
      "blockHash": "0x23f8d21ecc33ce62b879a752c4d3f5f24338e24293a0271901e9e3b1718ee13d",
      "blockNumber": "0x1adcf47",
      "gasUsed": "0x1b9e2",
      "effectiveGasPrice": "0x1c7f9bc7ff",
      "from": "0x2738f38fde510743e0c589415e0598c4cee6eaa7",
      "to": "0x820f0060292590ebfb63468aae6fecfc5cc19762",
      "contractAddress": null
    },
    {
      "type": "0x2",
      "status": "0x1",
      "cumulativeGasUsed": "0x1db8ff",
      "logs": [
        {
          "address": "0xba5ed099633d3b313e4d5f7bdc1305d3c28ba5ed",
          "topics": [
            "0x2feea65dd4e9f9cbd86b74b7734210c59a1b2981b5b137bd0ee3e208200c9067",
            "0x000000000000000000000000bf60d62ae4aa64e65a4ee4a9316fd4f51e3f3acc",
            "0x9c3389e7cd7943e01e7b6d3e800ead96592e56826460558f01c4b24c17090e63"
          ],
          "data": "0x",
          "blockHash": "0x6a9120c06f1eb2dd702139d3c865342949d76529658cca88dacf8a05398e9445",
          "blockNumber": "0x1adcf4b",
          "blockTimestamp": "0x69ef78ef",
          "transactionHash": "0xb3d6f93f4f714167d78d20bfd5c473a17376608314fb0fa2614819f602273f0d",
          "transactionIndex": "0x2",
          "logIndex": "0xc",
          "removed": false
        },
        {
          "address": "0x6da50e1edd6ee28fdb1cbf2fd4d1102f93644da4",
          "topics": [
            "0x8be0079c531659141344cd1fd0a4f28419497f9722a3daafe3b4186f6b6457e0",
            "0x0000000000000000000000000000000000000000000000000000000000000000",
            "0x0000000000000000000000002738f38fde510743e0c589415e0598c4cee6eaa7"
          ],
          "data": "0x",
          "blockHash": "0x6a9120c06f1eb2dd702139d3c865342949d76529658cca88dacf8a05398e9445",
          "blockNumber": "0x1adcf4b",
          "blockTimestamp": "0x69ef78ef",
          "transactionHash": "0xb3d6f93f4f714167d78d20bfd5c473a17376608314fb0fa2614819f602273f0d",
          "transactionIndex": "0x2",
          "logIndex": "0xd",
          "removed": false
        },
        {
          "address": "0xba5ed099633d3b313e4d5f7bdc1305d3c28ba5ed",
          "topics": [
            "0x4db17dd5e4732fb6da34a148104a592783ca119a1e7bb8829eba6cbadef0b511",
            "0x0000000000000000000000006da50e1edd6ee28fdb1cbf2fd4d1102f93644da4"
          ],
          "data": "0x",
          "blockHash": "0x6a9120c06f1eb2dd702139d3c865342949d76529658cca88dacf8a05398e9445",
          "blockNumber": "0x1adcf4b",
          "blockTimestamp": "0x69ef78ef",
          "transactionHash": "0xb3d6f93f4f714167d78d20bfd5c473a17376608314fb0fa2614819f602273f0d",
          "transactionIndex": "0x2",
          "logIndex": "0xe",
          "removed": false
        }
      ],
      "logsBloom": "0x00020000000000004000000000000000000000000000000000800000200000000000000000000200000000000000000000000000000004000000000000000000002000000000000000000000020000000001000000000000000000000004000000020000021000000000000000000800000000000020000000000000000000400000400000000000000000000000000800000000000000000000004000000010000000000000008000000000000000004000000000000000000000000000000000000800000000000608000000400000000000002000000000000000000020000000000000000200000000000000000000000000000000000000000000000000",
      "transactionHash": "0xb3d6f93f4f714167d78d20bfd5c473a17376608314fb0fa2614819f602273f0d",
      "transactionIndex": "0x2",
      "blockHash": "0x6a9120c06f1eb2dd702139d3c865342949d76529658cca88dacf8a05398e9445",
      "blockNumber": "0x1adcf4b",
      "gasUsed": "0xb697f",
      "effectiveGasPrice": "0x1c7f9bc7ff",
      "from": "0x2738f38fde510743e0c589415e0598c4cee6eaa7",
      "to": "0xba5ed099633d3b313e4d5f7bdc1305d3c28ba5ed",
      "contractAddress": null
    },
    {
      "type": "0x2",
      "status": "0x1",
      "cumulativeGasUsed": "0x3be23",
      "logs": [],
      "logsBloom": "0x00000000000000000000000000000000000000000000000000000000000000000000000000000000000000000000000000000000000000000000000000000000000000000000000000000000000000000000000000000000000000000000000000000000000000000000000000000000000000000000000000000000000000000000000000000000000000000000000000000000000000000000000000000000000000000000000000000000000000000000000000000000000000000000000000000000000000000000000000000000000000000000000000000000000000000000000000000000000000000000000000000000000000000000000000000000",
      "transactionHash": "0xf94f56b1e3a7a60c9efb920b4ad104bd454b39ed4f361b30c2192c89b63376a1",
      "transactionIndex": "0x2",
      "blockHash": "0x55593d77f56dbdecbfa551d6d2220fc164ff4932882ca80dcde0e93cf3fcdfeb",
      "blockNumber": "0x1adcf50",
      "gasUsed": "0x12afd",
      "effectiveGasPrice": "0x1c7f9bc7ff",
      "from": "0x2738f38fde510743e0c589415e0598c4cee6eaa7",
      "to": "0x6da50e1edd6ee28fdb1cbf2fd4d1102f93644da4",
      "contractAddress": null
    },
    {
      "type": "0x2",
      "status": "0x1",
      "cumulativeGasUsed": "0x177815",
      "logs": [],
      "logsBloom": "0x00000000000000000000000000000000000000000000000000000000000000000000000000000000000000000000000000000000000000000000000000000000000000000000000000000000000000000000000000000000000000000000000000000000000000000000000000000000000000000000000000000000000000000000000000000000000000000000000000000000000000000000000000000000000000000000000000000000000000000000000000000000000000000000000000000000000000000000000000000000000000000000000000000000000000000000000000000000000000000000000000000000000000000000000000000000",
      "transactionHash": "0xa696a35da8e4d59d5380e06c6afd8ea75494eeda3ba94b3b7bdee3935dec554d",
      "transactionIndex": "0x3",
      "blockHash": "0xad9ef383a4c560fe93867ed202bed5d468e74d89d3a9bed9ba085f28d952f560",
      "blockNumber": "0x1adcf54",
      "gasUsed": "0x1b9d1",
      "effectiveGasPrice": "0x1c7f9bc7ff",
      "from": "0x2738f38fde510743e0c589415e0598c4cee6eaa7",
      "to": "0x6da50e1edd6ee28fdb1cbf2fd4d1102f93644da4",
      "contractAddress": null
    }
  ],
  "libraries": [
    "lib/mento-core/node_modules/@celo/contracts/common/linkedlists/AddressSortedLinkedListWithMedian.sol:AddressSortedLinkedListWithMedian:0x8E1B1312EC92C9f8073296c4Cf1E60D31d228269"
  ],
  "pending": [],
  "returns": {},
  "timestamp": 1777301748256,
  "chain": 10143,
  "commit": "41cebbe"
}