{
  "transactions": [
    {
      "hash": "0xf69daac71ae28efe0b8d954ebf819544ef499537f10f81560cb00514d74b96d5",
      "transactionType": "CALL",
      "contractName": null,
      "contractAddress": "0xba5ed099633d3b313e4d5f7bdc1305d3c28ba5ed",
      "function": "deployCreate3(bytes32,bytes)",
      "arguments": [
        "0x2738f38fde510743e0c589415e0598c4cee6eaa700610308a933a4f6eaf7f9e5",
        "0x608060405234801561000f575f5ffd5b506040516109b03803806109b083398101604081905261002e9161011c565b806001600160a01b03811661005c57604051631e4fbdf760e01b81525f600482015260240160405180910390fd5b6100658161008e565b5060016100728482610270565b50506002805460ff191660ff929092169190911790555061032a565b5f80546001600160a01b038381166001600160a01b0319831681178455604051919092169283917f8be0079c531659141344cd1fd0a4f28419497f9722a3daafe3b4186f6b6457e09190a35050565b634e487b7160e01b5f52604160045260245ffd5b805160ff81168114610101575f5ffd5b919050565b80516001600160a01b0381168114610101575f5ffd5b5f5f5f6060848603121561012e575f5ffd5b83516001600160401b03811115610143575f5ffd5b8401601f81018613610153575f5ffd5b80516001600160401b0381111561016c5761016c6100dd565b604051601f8201601f19908116603f011681016001600160401b038111828210171561019a5761019a6100dd565b6040528181528282016020018810156101b1575f5ffd5b8160208401602083015e5f602083830101528095505050506101d5602085016100f1565b91506101e360408501610106565b90509250925092565b600181811c9082168061020057607f821691505b60208210810361021e57634e487b7160e01b5f52602260045260245ffd5b50919050565b601f82111561026b57805f5260205f20601f840160051c810160208510156102495750805b601f840160051c820191505b81811015610268575f8155600101610255565b50505b505050565b81516001600160401b03811115610289576102896100dd565b61029d8161029784546101ec565b84610224565b6020601f8211600181146102cf575f83156102b85750848201515b5f19600385901b1c1916600184901b178455610268565b5f84815260208120601f198516915b828110156102fe57878501518255602094850194600190920191016102de565b508482101561031b57868401515f19600387901b60f8161c191681555b50505050600190811b01905550565b610679806103375f395ff3fe608060405234801561000f575f5ffd5b50600436106100e5575f3560e01c80638da5cb5b11610088578063e1e244d811610063578063e1e244d8146101ca578063e3ac8226146101d3578063f2fde38b146101e6578063feaf968c146101f9575f5ffd5b80638da5cb5b1461019057806399213cd8146101a0578063d0b06f5d146101b3575f5ffd5b8063705b9154116100c3578063705b915414610135578063715018a6146101605780637284e416146101685780637a1395aa1461017d575f5ffd5b80630f3d249d146100e9578063313ce567146100fe578063368f186214610122575b5f5ffd5b6100fc6100f73660046104d7565b610238565b005b60025461010b9060ff1681565b60405160ff90911681526020015b60405180910390f35b6100fc6101303660046104f7565b61028a565b600554610148906001600160a01b031681565b6040516001600160a01b039091168152602001610119565b6100fc6102cd565b6101706102e0565b604051610119919061050e565b6100fc61018b366004610543565b61036c565b5f546001600160a01b0316610148565b6100fc6101ae3660046104f7565b61038a565b6101bc60045481565b604051908152602001610119565b6101bc60035481565b6100fc6101e136600461056a565b6103cd565b6100fc6101f436600461056a565b6103f7565b610201610434565b6040805169ffffffffffffffffffff968716815260208101959095528401929092526060830152909116608082015260a001610119565b5f546001600160a01b031633148061025a57506005546001600160a01b031633145b61027f5760405162461bcd60e51b815260040161027690610590565b60405180910390fd5b600391909155600455565b5f546001600160a01b03163314806102ac57506005546001600160a01b031633145b6102c85760405162461bcd60e51b815260040161027690610590565b600455565b6102d561045c565b6102de5f610488565b565b600180546102ed906105e6565b80601f0160208091040260200160405190810160405280929190818152602001828054610319906105e6565b80156103645780601f1061033b57610100808354040283529160200191610364565b820191905f5260205f20905b81548152906001019060200180831161034757829003601f168201915b505050505081565b61037461045c565b6002805460ff191660ff92909216919091179055565b5f546001600160a01b03163314806103ac57506005546001600160a01b031633145b6103c85760405162461bcd60e51b815260040161027690610590565b600355565b6103d561045c565b600580546001600160a01b0319166001600160a01b0392909216919091179055565b6103ff61045c565b6001600160a01b03811661042857604051631e4fbdf760e01b81525f6004820152602401610276565b61043181610488565b50565b5f5f5f5f5f5f6003545f60054261044b919061061e565b929891975095509093505f92509050565b5f546001600160a01b031633146102de5760405163118cdaa760e01b8152336004820152602401610276565b5f80546001600160a01b038381166001600160a01b0319831681178455604051919092169283917f8be0079c531659141344cd1fd0a4f28419497f9722a3daafe3b4186f6b6457e09190a35050565b5f5f604083850312156104e8575f5ffd5b50508035926020909101359150565b5f60208284031215610507575f5ffd5b5035919050565b602081525f82518060208401528060208501604085015e5f604082850101526040601f19601f83011684010191505092915050565b5f60208284031215610553575f5ffd5b813560ff81168114610563575f5ffd5b9392505050565b5f6020828403121561057a575f5ffd5b81356001600160a01b0381168114610563575f5ffd5b60208082526036908201527f4f6e6c79206f776e6572206f722065787465726e616c2070726f76696465722060408201527531b0b71031b0b636103a3434b990333ab731ba34b7b760511b606082015260800190565b600181811c908216806105fa57607f821691505b60208210810361061857634e487b7160e01b5f52602260045260245ffd5b50919050565b8181038181111561063d57634e487b7160e01b5f52601160045260245ffd5b9291505056fea26469706673582212201c091cce1bbec48825a604472e7a9fa0ea4b0ea30ef7c0e7b1cc7b915a5db5b864736f6c634300081e0033000000000000000000000000000000000000000000000000000000000000006000000000000000000000000000000000000000000000000000000000000000080000000000000000000000002738f38fde510743e0c589415e0598c4cee6eaa70000000000000000000000000000000000000000000000000000000000000008555344432f555344000000000000000000000000000000000000000000000000"
      ],
      "transaction": {
        "from": "0x2738f38fde510743e0c589415e0598c4cee6eaa7",
        "to": "0xba5ed099633d3b313e4d5f7bdc1305d3c28ba5ed",
        "gas": "0xaf5f2",
        "value": "0x0",
        "input": "0x9c36a2862738f38fde510743e0c589415e0598c4cee6eaa700610308a933a4f6eaf7f9e500000000000000000000000000000000000000000000000000000000000000400000000000000000000000000000000000000000000000000000000000000a50608060405234801561000f575f5ffd5b506040516109b03803806109b083398101604081905261002e9161011c565b806001600160a01b03811661005c57604051631e4fbdf760e01b81525f600482015260240160405180910390fd5b6100658161008e565b5060016100728482610270565b50506002805460ff191660ff929092169190911790555061032a565b5f80546001600160a01b038381166001600160a01b0319831681178455604051919092169283917f8be0079c531659141344cd1fd0a4f28419497f9722a3daafe3b4186f6b6457e09190a35050565b634e487b7160e01b5f52604160045260245ffd5b805160ff81168114610101575f5ffd5b919050565b80516001600160a01b0381168114610101575f5ffd5b5f5f5f6060848603121561012e575f5ffd5b83516001600160401b03811115610143575f5ffd5b8401601f81018613610153575f5ffd5b80516001600160401b0381111561016c5761016c6100dd565b604051601f8201601f19908116603f011681016001600160401b038111828210171561019a5761019a6100dd565b6040528181528282016020018810156101b1575f5ffd5b8160208401602083015e5f602083830101528095505050506101d5602085016100f1565b91506101e360408501610106565b90509250925092565b600181811c9082168061020057607f821691505b60208210810361021e57634e487b7160e01b5f52602260045260245ffd5b50919050565b601f82111561026b57805f5260205f20601f840160051c810160208510156102495750805b601f840160051c820191505b81811015610268575f8155600101610255565b50505b505050565b81516001600160401b03811115610289576102896100dd565b61029d8161029784546101ec565b84610224565b6020601f8211600181146102cf575f83156102b85750848201515b5f19600385901b1c1916600184901b178455610268565b5f84815260208120601f198516915b828110156102fe57878501518255602094850194600190920191016102de565b508482101561031b57868401515f19600387901b60f8161c191681555b50505050600190811b01905550565b610679806103375f395ff3fe608060405234801561000f575f5ffd5b50600436106100e5575f3560e01c80638da5cb5b11610088578063e1e244d811610063578063e1e244d8146101ca578063e3ac8226146101d3578063f2fde38b146101e6578063feaf968c146101f9575f5ffd5b80638da5cb5b1461019057806399213cd8146101a0578063d0b06f5d146101b3575f5ffd5b8063705b9154116100c3578063705b915414610135578063715018a6146101605780637284e416146101685780637a1395aa1461017d575f5ffd5b80630f3d249d146100e9578063313ce567146100fe578063368f186214610122575b5f5ffd5b6100fc6100f73660046104d7565b610238565b005b60025461010b9060ff1681565b60405160ff90911681526020015b60405180910390f35b6100fc6101303660046104f7565b61028a565b600554610148906001600160a01b031681565b6040516001600160a01b039091168152602001610119565b6100fc6102cd565b6101706102e0565b604051610119919061050e565b6100fc61018b366004610543565b61036c565b5f546001600160a01b0316610148565b6100fc6101ae3660046104f7565b61038a565b6101bc60045481565b604051908152602001610119565b6101bc60035481565b6100fc6101e136600461056a565b6103cd565b6100fc6101f436600461056a565b6103f7565b610201610434565b6040805169ffffffffffffffffffff968716815260208101959095528401929092526060830152909116608082015260a001610119565b5f546001600160a01b031633148061025a57506005546001600160a01b031633145b61027f5760405162461bcd60e51b815260040161027690610590565b60405180910390fd5b600391909155600455565b5f546001600160a01b03163314806102ac57506005546001600160a01b031633145b6102c85760405162461bcd60e51b815260040161027690610590565b600455565b6102d561045c565b6102de5f610488565b565b600180546102ed906105e6565b80601f0160208091040260200160405190810160405280929190818152602001828054610319906105e6565b80156103645780601f1061033b57610100808354040283529160200191610364565b820191905f5260205f20905b81548152906001019060200180831161034757829003601f168201915b505050505081565b61037461045c565b6002805460ff191660ff92909216919091179055565b5f546001600160a01b03163314806103ac57506005546001600160a01b031633145b6103c85760405162461bcd60e51b815260040161027690610590565b600355565b6103d561045c565b600580546001600160a01b0319166001600160a01b0392909216919091179055565b6103ff61045c565b6001600160a01b03811661042857604051631e4fbdf760e01b81525f6004820152602401610276565b61043181610488565b50565b5f5f5f5f5f5f6003545f60054261044b919061061e565b929891975095509093505f92509050565b5f546001600160a01b031633146102de5760405163118cdaa760e01b8152336004820152602401610276565b5f80546001600160a01b038381166001600160a01b0319831681178455604051919092169283917f8be0079c531659141344cd1fd0a4f28419497f9722a3daafe3b4186f6b6457e09190a35050565b5f5f604083850312156104e8575f5ffd5b50508035926020909101359150565b5f60208284031215610507575f5ffd5b5035919050565b602081525f82518060208401528060208501604085015e5f604082850101526040601f19601f83011684010191505092915050565b5f60208284031215610553575f5ffd5b813560ff81168114610563575f5ffd5b9392505050565b5f6020828403121561057a575f5ffd5b81356001600160a01b0381168114610563575f5ffd5b60208082526036908201527f4f6e6c79206f776e6572206f722065787465726e616c2070726f76696465722060408201527531b0b71031b0b636103a3434b990333ab731ba34b7b760511b606082015260800190565b600181811c908216806105fa57607f821691505b60208210810361061857634e487b7160e01b5f52602260045260245ffd5b50919050565b8181038181111561063d57634e487b7160e01b5f52601160045260245ffd5b9291505056fea26469706673582212201c091cce1bbec48825a604472e7a9fa0ea4b0ea30ef7c0e7b1cc7b915a5db5b864736f6c634300081e0033000000000000000000000000000000000000000000000000000000000000006000000000000000000000000000000000000000000000000000000000000000080000000000000000000000002738f38fde510743e0c589415e0598c4cee6eaa70000000000000000000000000000000000000000000000000000000000000008555344432f55534400000000000000000000000000000000000000000000000000000000000000000000000000000000",
        "nonce": "0x15",
        "chainId": "0x279f"
      },
      "additionalContracts": [
        {
          "transactionType": "CREATE2",
          "contractName": null,
          "address": "0xe9b0a7191a7d6799fd4e15840d557d7a48541d03",
          "initCode": "0x67363d3d37363d34f03d5260086018f3"
        },
        {
          "transactionType": "CREATE",
          "contractName": "MockChainlinkAggregator",
          "address": "0xb1d1d3382d0f26493063cb7188eb479d45a44cdf",
          "initCode": "0x608060405234801561000f575f5ffd5b506040516109b03803806109b083398101604081905261002e9161011c565b806001600160a01b03811661005c57604051631e4fbdf760e01b81525f600482015260240160405180910390fd5b6100658161008e565b5060016100728482610270565b50506002805460ff191660ff929092169190911790555061032a565b5f80546001600160a01b038381166001600160a01b0319831681178455604051919092169283917f8be0079c531659141344cd1fd0a4f28419497f9722a3daafe3b4186f6b6457e09190a35050565b634e487b7160e01b5f52604160045260245ffd5b805160ff81168114610101575f5ffd5b919050565b80516001600160a01b0381168114610101575f5ffd5b5f5f5f6060848603121561012e575f5ffd5b83516001600160401b03811115610143575f5ffd5b8401601f81018613610153575f5ffd5b80516001600160401b0381111561016c5761016c6100dd565b604051601f8201601f19908116603f011681016001600160401b038111828210171561019a5761019a6100dd565b6040528181528282016020018810156101b1575f5ffd5b8160208401602083015e5f602083830101528095505050506101d5602085016100f1565b91506101e360408501610106565b90509250925092565b600181811c9082168061020057607f821691505b60208210810361021e57634e487b7160e01b5f52602260045260245ffd5b50919050565b601f82111561026b57805f5260205f20601f840160051c810160208510156102495750805b601f840160051c820191505b81811015610268575f8155600101610255565b50505b505050565b81516001600160401b03811115610289576102896100dd565b61029d8161029784546101ec565b84610224565b6020601f8211600181146102cf575f83156102b85750848201515b5f19600385901b1c1916600184901b178455610268565b5f84815260208120601f198516915b828110156102fe57878501518255602094850194600190920191016102de565b508482101561031b57868401515f19600387901b60f8161c191681555b50505050600190811b01905550565b610679806103375f395ff3fe608060405234801561000f575f5ffd5b50600436106100e5575f3560e01c80638da5cb5b11610088578063e1e244d811610063578063e1e244d8146101ca578063e3ac8226146101d3578063f2fde38b146101e6578063feaf968c146101f9575f5ffd5b80638da5cb5b1461019057806399213cd8146101a0578063d0b06f5d146101b3575f5ffd5b8063705b9154116100c3578063705b915414610135578063715018a6146101605780637284e416146101685780637a1395aa1461017d575f5ffd5b80630f3d249d146100e9578063313ce567146100fe578063368f186214610122575b5f5ffd5b6100fc6100f73660046104d7565b610238565b005b60025461010b9060ff1681565b60405160ff90911681526020015b60405180910390f35b6100fc6101303660046104f7565b61028a565b600554610148906001600160a01b031681565b6040516001600160a01b039091168152602001610119565b6100fc6102cd565b6101706102e0565b604051610119919061050e565b6100fc61018b366004610543565b61036c565b5f546001600160a01b0316610148565b6100fc6101ae3660046104f7565b61038a565b6101bc60045481565b604051908152602001610119565b6101bc60035481565b6100fc6101e136600461056a565b6103cd565b6100fc6101f436600461056a565b6103f7565b610201610434565b6040805169ffffffffffffffffffff968716815260208101959095528401929092526060830152909116608082015260a001610119565b5f546001600160a01b031633148061025a57506005546001600160a01b031633145b61027f5760405162461bcd60e51b815260040161027690610590565b60405180910390fd5b600391909155600455565b5f546001600160a01b03163314806102ac57506005546001600160a01b031633145b6102c85760405162461bcd60e51b815260040161027690610590565b600455565b6102d561045c565b6102de5f610488565b565b600180546102ed906105e6565b80601f0160208091040260200160405190810160405280929190818152602001828054610319906105e6565b80156103645780601f1061033b57610100808354040283529160200191610364565b820191905f5260205f20905b81548152906001019060200180831161034757829003601f168201915b505050505081565b61037461045c565b6002805460ff191660ff92909216919091179055565b5f546001600160a01b03163314806103ac57506005546001600160a01b031633145b6103c85760405162461bcd60e51b815260040161027690610590565b600355565b6103d561045c565b600580546001600160a01b0319166001600160a01b0392909216919091179055565b6103ff61045c565b6001600160a01b03811661042857604051631e4fbdf760e01b81525f6004820152602401610276565b61043181610488565b50565b5f5f5f5f5f5f6003545f60054261044b919061061e565b929891975095509093505f92509050565b5f546001600160a01b031633146102de5760405163118cdaa760e01b8152336004820152602401610276565b5f80546001600160a01b038381166001600160a01b0319831681178455604051919092169283917f8be0079c531659141344cd1fd0a4f28419497f9722a3daafe3b4186f6b6457e09190a35050565b5f5f604083850312156104e8575f5ffd5b50508035926020909101359150565b5f60208284031215610507575f5ffd5b5035919050565b602081525f82518060208401528060208501604085015e5f604082850101526040601f19601f83011684010191505092915050565b5f60208284031215610553575f5ffd5b813560ff81168114610563575f5ffd5b9392505050565b5f6020828403121561057a575f5ffd5b81356001600160a01b0381168114610563575f5ffd5b60208082526036908201527f4f6e6c79206f776e6572206f722065787465726e616c2070726f76696465722060408201527531b0b71031b0b636103a3434b990333ab731ba34b7b760511b606082015260800190565b600181811c908216806105fa57607f821691505b60208210810361061857634e487b7160e01b5f52602260045260245ffd5b50919050565b8181038181111561063d57634e487b7160e01b5f52601160045260245ffd5b9291505056fea26469706673582212201c091cce1bbec48825a604472e7a9fa0ea4b0ea30ef7c0e7b1cc7b915a5db5b864736f6c634300081e0033000000000000000000000000000000000000000000000000000000000000006000000000000000000000000000000000000000000000000000000000000000080000000000000000000000002738f38fde510743e0c589415e0598c4cee6eaa70000000000000000000000000000000000000000000000000000000000000008555344432f555344000000000000000000000000000000000000000000000000"
        }
      ],
      "isFixedGasLimit": false
    },
    {
      "hash": "0x8cb3b8cc005beacf6374e862c2a6000ab9d87e4aafe4096494178dcb40304da7",
      "transactionType": "CALL",
      "contractName": "MockChainlinkAggregator",
      "contractAddress": "0xb1d1d3382d0f26493063cb7188eb479d45a44cdf",
      "function": "setExternalProvider(address)",
      "arguments": [
        "0xabcdE369CDdD1665E4EbD9214b8e9a595271272C"
      ],
      "transaction": {
        "from": "0x2738f38fde510743e0c589415e0598c4cee6eaa7",
        "to": "0xb1d1d3382d0f26493063cb7188eb479d45a44cdf",
        "gas": "0x7020",
        "value": "0x0",
        "input": "0xe3ac8226000000000000000000000000abcde369cddd1665e4ebd9214b8e9a595271272c",
        "nonce": "0x16",
        "chainId": "0x279f"
      },
      "additionalContracts": [],
      "isFixedGasLimit": false
    },
    {
      "hash": "0x021bf094d6556405bebe2634c374d00f7a2c3199d7d3b634265dd2fab16dc66e",
      "transactionType": "CALL",
      "contractName": "MockChainlinkAggregator",
      "contractAddress": "0xb1d1d3382d0f26493063cb7188eb479d45a44cdf",
      "function": "report(int256,uint256)",
      "arguments": [
        "100000000",
        "1772474811"
      ],
      "transaction": {
        "from": "0x2738f38fde510743e0c589415e0598c4cee6eaa7",
        "to": "0xb1d1d3382d0f26493063cb7188eb479d45a44cdf",
        "gas": "0x6fc5",
        "value": "0x0",
        "input": "0x0f3d249d0000000000000000000000000000000000000000000000000000000005f5e1000000000000000000000000000000000000000000000000000000000069a5d1bb",
        "nonce": "0x17",
        "chainId": "0x279f"
      },
      "additionalContracts": [],
      "isFixedGasLimit": false
    },
    {
      "hash": "0xd0606b52cbd5f2165f088b1f75ed92a9dd7d74ffd25f55c76476cfbffcc11ba2",
      "transactionType": "CALL",
      "contractName": null,
      "contractAddress": "0xba5ed099633d3b313e4d5f7bdc1305d3c28ba5ed",
      "function": "deployCreate3(bytes32,bytes)",
      "arguments": [
        "0x2738f38fde510743e0c589415e0598c4cee6eaa7009783e668f5d054ce3ee318",
        "0x608060405234801561000f575f5ffd5b506040516109b03803806109b083398101604081905261002e9161011c565b806001600160a01b03811661005c57604051631e4fbdf760e01b81525f600482015260240160405180910390fd5b6100658161008e565b5060016100728482610270565b50506002805460ff191660ff929092169190911790555061032a565b5f80546001600160a01b038381166001600160a01b0319831681178455604051919092169283917f8be0079c531659141344cd1fd0a4f28419497f9722a3daafe3b4186f6b6457e09190a35050565b634e487b7160e01b5f52604160045260245ffd5b805160ff81168114610101575f5ffd5b919050565b80516001600160a01b0381168114610101575f5ffd5b5f5f5f6060848603121561012e575f5ffd5b83516001600160401b03811115610143575f5ffd5b8401601f81018613610153575f5ffd5b80516001600160401b0381111561016c5761016c6100dd565b604051601f8201601f19908116603f011681016001600160401b038111828210171561019a5761019a6100dd565b6040528181528282016020018810156101b1575f5ffd5b8160208401602083015e5f602083830101528095505050506101d5602085016100f1565b91506101e360408501610106565b90509250925092565b600181811c9082168061020057607f821691505b60208210810361021e57634e487b7160e01b5f52602260045260245ffd5b50919050565b601f82111561026b57805f5260205f20601f840160051c810160208510156102495750805b601f840160051c820191505b81811015610268575f8155600101610255565b50505b505050565b81516001600160401b03811115610289576102896100dd565b61029d8161029784546101ec565b84610224565b6020601f8211600181146102cf575f83156102b85750848201515b5f19600385901b1c1916600184901b178455610268565b5f84815260208120601f198516915b828110156102fe57878501518255602094850194600190920191016102de565b508482101561031b57868401515f19600387901b60f8161c191681555b50505050600190811b01905550565b610679806103375f395ff3fe608060405234801561000f575f5ffd5b50600436106100e5575f3560e01c80638da5cb5b11610088578063e1e244d811610063578063e1e244d8146101ca578063e3ac8226146101d3578063f2fde38b146101e6578063feaf968c146101f9575f5ffd5b80638da5cb5b1461019057806399213cd8146101a0578063d0b06f5d146101b3575f5ffd5b8063705b9154116100c3578063705b915414610135578063715018a6146101605780637284e416146101685780637a1395aa1461017d575f5ffd5b80630f3d249d146100e9578063313ce567146100fe578063368f186214610122575b5f5ffd5b6100fc6100f73660046104d7565b610238565b005b60025461010b9060ff1681565b60405160ff90911681526020015b60405180910390f35b6100fc6101303660046104f7565b61028a565b600554610148906001600160a01b031681565b6040516001600160a01b039091168152602001610119565b6100fc6102cd565b6101706102e0565b604051610119919061050e565b6100fc61018b366004610543565b61036c565b5f546001600160a01b0316610148565b6100fc6101ae3660046104f7565b61038a565b6101bc60045481565b604051908152602001610119565b6101bc60035481565b6100fc6101e136600461056a565b6103cd565b6100fc6101f436600461056a565b6103f7565b610201610434565b6040805169ffffffffffffffffffff968716815260208101959095528401929092526060830152909116608082015260a001610119565b5f546001600160a01b031633148061025a57506005546001600160a01b031633145b61027f5760405162461bcd60e51b815260040161027690610590565b60405180910390fd5b600391909155600455565b5f546001600160a01b03163314806102ac57506005546001600160a01b031633145b6102c85760405162461bcd60e51b815260040161027690610590565b600455565b6102d561045c565b6102de5f610488565b565b600180546102ed906105e6565b80601f0160208091040260200160405190810160405280929190818152602001828054610319906105e6565b80156103645780601f1061033b57610100808354040283529160200191610364565b820191905f5260205f20905b81548152906001019060200180831161034757829003601f168201915b505050505081565b61037461045c565b6002805460ff191660ff92909216919091179055565b5f546001600160a01b03163314806103ac57506005546001600160a01b031633145b6103c85760405162461bcd60e51b815260040161027690610590565b600355565b6103d561045c565b600580546001600160a01b0319166001600160a01b0392909216919091179055565b6103ff61045c565b6001600160a01b03811661042857604051631e4fbdf760e01b81525f6004820152602401610276565b61043181610488565b50565b5f5f5f5f5f5f6003545f60054261044b919061061e565b929891975095509093505f92509050565b5f546001600160a01b031633146102de5760405163118cdaa760e01b8152336004820152602401610276565b5f80546001600160a01b038381166001600160a01b0319831681178455604051919092169283917f8be0079c531659141344cd1fd0a4f28419497f9722a3daafe3b4186f6b6457e09190a35050565b5f5f604083850312156104e8575f5ffd5b50508035926020909101359150565b5f60208284031215610507575f5ffd5b5035919050565b602081525f82518060208401528060208501604085015e5f604082850101526040601f19601f83011684010191505092915050565b5f60208284031215610553575f5ffd5b813560ff81168114610563575f5ffd5b9392505050565b5f6020828403121561057a575f5ffd5b81356001600160a01b0381168114610563575f5ffd5b60208082526036908201527f4f6e6c79206f776e6572206f722065787465726e616c2070726f76696465722060408201527531b0b71031b0b636103a3434b990333ab731ba34b7b760511b606082015260800190565b600181811c908216806105fa57607f821691505b60208210810361061857634e487b7160e01b5f52602260045260245ffd5b50919050565b8181038181111561063d57634e487b7160e01b5f52601160045260245ffd5b9291505056fea26469706673582212201c091cce1bbec48825a604472e7a9fa0ea4b0ea30ef7c0e7b1cc7b915a5db5b864736f6c634300081e0033000000000000000000000000000000000000000000000000000000000000006000000000000000000000000000000000000000000000000000000000000000080000000000000000000000002738f38fde510743e0c589415e0598c4cee6eaa700000000000000000000000000000000000000000000000000000000000000074742502f55534400000000000000000000000000000000000000000000000000"
      ],
      "transaction": {
        "from": "0x2738f38fde510743e0c589415e0598c4cee6eaa7",
        "to": "0xba5ed099633d3b313e4d5f7bdc1305d3c28ba5ed",
        "gas": "0xaf5e3",
        "value": "0x0",
        "input": "0x9c36a2862738f38fde510743e0c589415e0598c4cee6eaa7009783e668f5d054ce3ee31800000000000000000000000000000000000000000000000000000000000000400000000000000000000000000000000000000000000000000000000000000a50608060405234801561000f575f5ffd5b506040516109b03803806109b083398101604081905261002e9161011c565b806001600160a01b03811661005c57604051631e4fbdf760e01b81525f600482015260240160405180910390fd5b6100658161008e565b5060016100728482610270565b50506002805460ff191660ff929092169190911790555061032a565b5f80546001600160a01b038381166001600160a01b0319831681178455604051919092169283917f8be0079c531659141344cd1fd0a4f28419497f9722a3daafe3b4186f6b6457e09190a35050565b634e487b7160e01b5f52604160045260245ffd5b805160ff81168114610101575f5ffd5b919050565b80516001600160a01b0381168114610101575f5ffd5b5f5f5f6060848603121561012e575f5ffd5b83516001600160401b03811115610143575f5ffd5b8401601f81018613610153575f5ffd5b80516001600160401b0381111561016c5761016c6100dd565b604051601f8201601f19908116603f011681016001600160401b038111828210171561019a5761019a6100dd565b6040528181528282016020018810156101b1575f5ffd5b8160208401602083015e5f602083830101528095505050506101d5602085016100f1565b91506101e360408501610106565b90509250925092565b600181811c9082168061020057607f821691505b60208210810361021e57634e487b7160e01b5f52602260045260245ffd5b50919050565b601f82111561026b57805f5260205f20601f840160051c810160208510156102495750805b601f840160051c820191505b81811015610268575f8155600101610255565b50505b505050565b81516001600160401b03811115610289576102896100dd565b61029d8161029784546101ec565b84610224565b6020601f8211600181146102cf575f83156102b85750848201515b5f19600385901b1c1916600184901b178455610268565b5f84815260208120601f198516915b828110156102fe57878501518255602094850194600190920191016102de565b508482101561031b57868401515f19600387901b60f8161c191681555b50505050600190811b01905550565b610679806103375f395ff3fe608060405234801561000f575f5ffd5b50600436106100e5575f3560e01c80638da5cb5b11610088578063e1e244d811610063578063e1e244d8146101ca578063e3ac8226146101d3578063f2fde38b146101e6578063feaf968c146101f9575f5ffd5b80638da5cb5b1461019057806399213cd8146101a0578063d0b06f5d146101b3575f5ffd5b8063705b9154116100c3578063705b915414610135578063715018a6146101605780637284e416146101685780637a1395aa1461017d575f5ffd5b80630f3d249d146100e9578063313ce567146100fe578063368f186214610122575b5f5ffd5b6100fc6100f73660046104d7565b610238565b005b60025461010b9060ff1681565b60405160ff90911681526020015b60405180910390f35b6100fc6101303660046104f7565b61028a565b600554610148906001600160a01b031681565b6040516001600160a01b039091168152602001610119565b6100fc6102cd565b6101706102e0565b604051610119919061050e565b6100fc61018b366004610543565b61036c565b5f546001600160a01b0316610148565b6100fc6101ae3660046104f7565b61038a565b6101bc60045481565b604051908152602001610119565b6101bc60035481565b6100fc6101e136600461056a565b6103cd565b6100fc6101f436600461056a565b6103f7565b610201610434565b6040805169ffffffffffffffffffff968716815260208101959095528401929092526060830152909116608082015260a001610119565b5f546001600160a01b031633148061025a57506005546001600160a01b031633145b61027f5760405162461bcd60e51b815260040161027690610590565b60405180910390fd5b600391909155600455565b5f546001600160a01b03163314806102ac57506005546001600160a01b031633145b6102c85760405162461bcd60e51b815260040161027690610590565b600455565b6102d561045c565b6102de5f610488565b565b600180546102ed906105e6565b80601f0160208091040260200160405190810160405280929190818152602001828054610319906105e6565b80156103645780601f1061033b57610100808354040283529160200191610364565b820191905f5260205f20905b81548152906001019060200180831161034757829003601f168201915b505050505081565b61037461045c565b6002805460ff191660ff92909216919091179055565b5f546001600160a01b03163314806103ac57506005546001600160a01b031633145b6103c85760405162461bcd60e51b815260040161027690610590565b600355565b6103d561045c565b600580546001600160a01b0319166001600160a01b0392909216919091179055565b6103ff61045c565b6001600160a01b03811661042857604051631e4fbdf760e01b81525f6004820152602401610276565b61043181610488565b50565b5f5f5f5f5f5f6003545f60054261044b919061061e565b929891975095509093505f92509050565b5f546001600160a01b031633146102de5760405163118cdaa760e01b8152336004820152602401610276565b5f80546001600160a01b038381166001600160a01b0319831681178455604051919092169283917f8be0079c531659141344cd1fd0a4f28419497f9722a3daafe3b4186f6b6457e09190a35050565b5f5f604083850312156104e8575f5ffd5b50508035926020909101359150565b5f60208284031215610507575f5ffd5b5035919050565b602081525f82518060208401528060208501604085015e5f604082850101526040601f19601f83011684010191505092915050565b5f60208284031215610553575f5ffd5b813560ff81168114610563575f5ffd5b9392505050565b5f6020828403121561057a575f5ffd5b81356001600160a01b0381168114610563575f5ffd5b60208082526036908201527f4f6e6c79206f776e6572206f722065787465726e616c2070726f76696465722060408201527531b0b71031b0b636103a3434b990333ab731ba34b7b760511b606082015260800190565b600181811c908216806105fa57607f821691505b60208210810361061857634e487b7160e01b5f52602260045260245ffd5b50919050565b8181038181111561063d57634e487b7160e01b5f52601160045260245ffd5b9291505056fea26469706673582212201c091cce1bbec48825a604472e7a9fa0ea4b0ea30ef7c0e7b1cc7b915a5db5b864736f6c634300081e0033000000000000000000000000000000000000000000000000000000000000006000000000000000000000000000000000000000000000000000000000000000080000000000000000000000002738f38fde510743e0c589415e0598c4cee6eaa700000000000000000000000000000000000000000000000000000000000000074742502f5553440000000000000000000000000000000000000000000000000000000000000000000000000000000000",
        "nonce": "0x18",
        "chainId": "0x279f"
      },
      "additionalContracts": [
        {
          "transactionType": "CREATE2",
          "contractName": null,
          "address": "0xf71c40e994f83bf9de895f50a5f0593fb6dbf4af",
          "initCode": "0x67363d3d37363d34f03d5260086018f3"
        },
        {
          "transactionType": "CREATE",
          "contractName": "MockChainlinkAggregator",
          "address": "0xf66908600d412898a40db9be6d58125979b57326",
          "initCode": "0x608060405234801561000f575f5ffd5b506040516109b03803806109b083398101604081905261002e9161011c565b806001600160a01b03811661005c57604051631e4fbdf760e01b81525f600482015260240160405180910390fd5b6100658161008e565b5060016100728482610270565b50506002805460ff191660ff929092169190911790555061032a565b5f80546001600160a01b038381166001600160a01b0319831681178455604051919092169283917f8be0079c531659141344cd1fd0a4f28419497f9722a3daafe3b4186f6b6457e09190a35050565b634e487b7160e01b5f52604160045260245ffd5b805160ff81168114610101575f5ffd5b919050565b80516001600160a01b0381168114610101575f5ffd5b5f5f5f6060848603121561012e575f5ffd5b83516001600160401b03811115610143575f5ffd5b8401601f81018613610153575f5ffd5b80516001600160401b0381111561016c5761016c6100dd565b604051601f8201601f19908116603f011681016001600160401b038111828210171561019a5761019a6100dd565b6040528181528282016020018810156101b1575f5ffd5b8160208401602083015e5f602083830101528095505050506101d5602085016100f1565b91506101e360408501610106565b90509250925092565b600181811c9082168061020057607f821691505b60208210810361021e57634e487b7160e01b5f52602260045260245ffd5b50919050565b601f82111561026b57805f5260205f20601f840160051c810160208510156102495750805b601f840160051c820191505b81811015610268575f8155600101610255565b50505b505050565b81516001600160401b03811115610289576102896100dd565b61029d8161029784546101ec565b84610224565b6020601f8211600181146102cf575f83156102b85750848201515b5f19600385901b1c1916600184901b178455610268565b5f84815260208120601f198516915b828110156102fe57878501518255602094850194600190920191016102de565b508482101561031b57868401515f19600387901b60f8161c191681555b50505050600190811b01905550565b610679806103375f395ff3fe608060405234801561000f575f5ffd5b50600436106100e5575f3560e01c80638da5cb5b11610088578063e1e244d811610063578063e1e244d8146101ca578063e3ac8226146101d3578063f2fde38b146101e6578063feaf968c146101f9575f5ffd5b80638da5cb5b1461019057806399213cd8146101a0578063d0b06f5d146101b3575f5ffd5b8063705b9154116100c3578063705b915414610135578063715018a6146101605780637284e416146101685780637a1395aa1461017d575f5ffd5b80630f3d249d146100e9578063313ce567146100fe578063368f186214610122575b5f5ffd5b6100fc6100f73660046104d7565b610238565b005b60025461010b9060ff1681565b60405160ff90911681526020015b60405180910390f35b6100fc6101303660046104f7565b61028a565b600554610148906001600160a01b031681565b6040516001600160a01b039091168152602001610119565b6100fc6102cd565b6101706102e0565b604051610119919061050e565b6100fc61018b366004610543565b61036c565b5f546001600160a01b0316610148565b6100fc6101ae3660046104f7565b61038a565b6101bc60045481565b604051908152602001610119565b6101bc60035481565b6100fc6101e136600461056a565b6103cd565b6100fc6101f436600461056a565b6103f7565b610201610434565b6040805169ffffffffffffffffffff968716815260208101959095528401929092526060830152909116608082015260a001610119565b5f546001600160a01b031633148061025a57506005546001600160a01b031633145b61027f5760405162461bcd60e51b815260040161027690610590565b60405180910390fd5b600391909155600455565b5f546001600160a01b03163314806102ac57506005546001600160a01b031633145b6102c85760405162461bcd60e51b815260040161027690610590565b600455565b6102d561045c565b6102de5f610488565b565b600180546102ed906105e6565b80601f0160208091040260200160405190810160405280929190818152602001828054610319906105e6565b80156103645780601f1061033b57610100808354040283529160200191610364565b820191905f5260205f20905b81548152906001019060200180831161034757829003601f168201915b505050505081565b61037461045c565b6002805460ff191660ff92909216919091179055565b5f546001600160a01b03163314806103ac57506005546001600160a01b031633145b6103c85760405162461bcd60e51b815260040161027690610590565b600355565b6103d561045c565b600580546001600160a01b0319166001600160a01b0392909216919091179055565b6103ff61045c565b6001600160a01b03811661042857604051631e4fbdf760e01b81525f6004820152602401610276565b61043181610488565b50565b5f5f5f5f5f5f6003545f60054261044b919061061e565b929891975095509093505f92509050565b5f546001600160a01b031633146102de5760405163118cdaa760e01b8152336004820152602401610276565b5f80546001600160a01b038381166001600160a01b0319831681178455604051919092169283917f8be0079c531659141344cd1fd0a4f28419497f9722a3daafe3b4186f6b6457e09190a35050565b5f5f604083850312156104e8575f5ffd5b50508035926020909101359150565b5f60208284031215610507575f5ffd5b5035919050565b602081525f82518060208401528060208501604085015e5f604082850101526040601f19601f83011684010191505092915050565b5f60208284031215610553575f5ffd5b813560ff81168114610563575f5ffd5b9392505050565b5f6020828403121561057a575f5ffd5b81356001600160a01b0381168114610563575f5ffd5b60208082526036908201527f4f6e6c79206f776e6572206f722065787465726e616c2070726f76696465722060408201527531b0b71031b0b636103a3434b990333ab731ba34b7b760511b606082015260800190565b600181811c908216806105fa57607f821691505b60208210810361061857634e487b7160e01b5f52602260045260245ffd5b50919050565b8181038181111561063d57634e487b7160e01b5f52601160045260245ffd5b9291505056fea26469706673582212201c091cce1bbec48825a604472e7a9fa0ea4b0ea30ef7c0e7b1cc7b915a5db5b864736f6c634300081e0033000000000000000000000000000000000000000000000000000000000000006000000000000000000000000000000000000000000000000000000000000000080000000000000000000000002738f38fde510743e0c589415e0598c4cee6eaa700000000000000000000000000000000000000000000000000000000000000074742502f55534400000000000000000000000000000000000000000000000000"
        }
      ],
      "isFixedGasLimit": false
    },
    {
      "hash": "0x9febd99213e4cd779970495869dd5615fa94a3cbf57a9fa6bf81398de45a7171",
      "transactionType": "CALL",
      "contractName": "MockChainlinkAggregator",
      "contractAddress": "0xf66908600d412898a40db9be6d58125979b57326",
      "function": "setExternalProvider(address)",
      "arguments": [
        "0xabcdE369CDdD1665E4EbD9214b8e9a595271272C"
      ],
      "transaction": {
        "from": "0x2738f38fde510743e0c589415e0598c4cee6eaa7",
        "to": "0xf66908600d412898a40db9be6d58125979b57326",
        "gas": "0x7020",
        "value": "0x0",
        "input": "0xe3ac8226000000000000000000000000abcde369cddd1665e4ebd9214b8e9a595271272c",
        "nonce": "0x19",
        "chainId": "0x279f"
      },
      "additionalContracts": [],
      "isFixedGasLimit": false
    },
    {
      "hash": "0xda9c7c73c0f743729103ff8136377f77fc3e4ed93b0c8d3b9b7b5688db4f29a0",
      "transactionType": "CALL",
      "contractName": "MockChainlinkAggregator",
      "contractAddress": "0xf66908600d412898a40db9be6d58125979b57326",
      "function": "report(int256,uint256)",
      "arguments": [
        "134057000",
        "1772474811"
      ],
      "transaction": {
        "from": "0x2738f38fde510743e0c589415e0598c4cee6eaa7",
        "to": "0xf66908600d412898a40db9be6d58125979b57326",
        "gas": "0x6fec",
        "value": "0x0",
        "input": "0x0f3d249d0000000000000000000000000000000000000000000000000000000007fd8c280000000000000000000000000000000000000000000000000000000069a5d1bb",
        "nonce": "0x1a",
        "chainId": "0x279f"
      },
      "additionalContracts": [],
      "isFixedGasLimit": false
    }
  ],
  "receipts": [
    {
      "status": "0x1",
      "cumulativeGasUsed": "0x8402c",
      "logs": [
        {
          "address": "0xba5ed099633d3b313e4d5f7bdc1305d3c28ba5ed",
          "topics": [
            "0x2feea65dd4e9f9cbd86b74b7734210c59a1b2981b5b137bd0ee3e208200c9067",
            "0x000000000000000000000000e9b0a7191a7d6799fd4e15840d557d7a48541d03",
            "0x9db957511a9c866409ee5a784b90af39befc815c0e585cd696fb901f13f4d001"
          ],
          "data": "0x",
          "blockHash": "0xe4c8b374bea87f1a9cb48d1c1ebd0a0599524b1604c7d026841d577d25dc412d",
          "blockNumber": "0xf7a956",
          "blockTimestamp": "0x69a5d1c5",
          "transactionHash": "0xf69daac71ae28efe0b8d954ebf819544ef499537f10f81560cb00514d74b96d5",
          "transactionIndex": "0x0",
          "logIndex": "0x0",
          "removed": false
        },
        {
          "address": "0xb1d1d3382d0f26493063cb7188eb479d45a44cdf",
          "topics": [
            "0x8be0079c531659141344cd1fd0a4f28419497f9722a3daafe3b4186f6b6457e0",
            "0x0000000000000000000000000000000000000000000000000000000000000000",
            "0x0000000000000000000000002738f38fde510743e0c589415e0598c4cee6eaa7"
          ],
          "data": "0x",
          "blockHash": "0xe4c8b374bea87f1a9cb48d1c1ebd0a0599524b1604c7d026841d577d25dc412d",
          "blockNumber": "0xf7a956",
          "blockTimestamp": "0x69a5d1c5",
          "transactionHash": "0xf69daac71ae28efe0b8d954ebf819544ef499537f10f81560cb00514d74b96d5",
          "transactionIndex": "0x0",
          "logIndex": "0x1",
          "removed": false
        },
        {
          "address": "0xba5ed099633d3b313e4d5f7bdc1305d3c28ba5ed",
          "topics": [
            "0x4db17dd5e4732fb6da34a148104a592783ca119a1e7bb8829eba6cbadef0b511",
            "0x000000000000000000000000b1d1d3382d0f26493063cb7188eb479d45a44cdf"
          ],
          "data": "0x",
          "blockHash": "0xe4c8b374bea87f1a9cb48d1c1ebd0a0599524b1604c7d026841d577d25dc412d",
          "blockNumber": "0xf7a956",
          "blockTimestamp": "0x69a5d1c5",
          "transactionHash": "0xf69daac71ae28efe0b8d954ebf819544ef499537f10f81560cb00514d74b96d5",
          "transactionIndex": "0x0",
          "logIndex": "0x2",
          "removed": false
        }
      ],
      "logsBloom": "0x00020100000000000000000100000000000000000000000800800000200000000000080000000000000000000000000000000002000004000000000000000000002000000000000000000000020000000001000000000000000000000000000000000000020000800000000000000800000000000020000000000100000000400000000002000000000000000000000000000000000000000000004000000010000000000008000000000000000000000000000000000000000000000000000000040800000000000200010000000000000000002000000000000000000020000000000000000200000000000020000000000000000000000000000000000000",
      "type": "0x2",
      "transactionHash": "0xf69daac71ae28efe0b8d954ebf819544ef499537f10f81560cb00514d74b96d5",
      "transactionIndex": "0x0",
      "blockHash": "0xe4c8b374bea87f1a9cb48d1c1ebd0a0599524b1604c7d026841d577d25dc412d",
      "blockNumber": "0xf7a956",
      "gasUsed": "0x8402c",
      "effectiveGasPrice": "0x45800b560",
      "blobGasPrice": "0x1",
      "from": "0x2738f38fde510743e0c589415e0598c4cee6eaa7",
      "to": "0xba5ed099633d3b313e4d5f7bdc1305d3c28ba5ed",
      "contractAddress": null
    },
    {
      "status": "0x1",
      "cumulativeGasUsed": "0xb3f9",
      "logs": [],
      "logsBloom": "0x00000000000000000000000000000000000000000000000000000000000000000000000000000000000000000000000000000000000000000000000000000000000000000000000000000000000000000000000000000000000000000000000000000000000000000000000000000000000000000000000000000000000000000000000000000000000000000000000000000000000000000000000000000000000000000000000000000000000000000000000000000000000000000000000000000000000000000000000000000000000000000000000000000000000000000000000000000000000000000000000000000000000000000000000000000000",
      "type": "0x2",
      "transactionHash": "0x8cb3b8cc005beacf6374e862c2a6000ab9d87e4aafe4096494178dcb40304da7",
      "transactionIndex": "0x0",
      "blockHash": "0x9d992b6451abf291dc5e7f78ce51adeccd236e8f290954883d6c5012f3b06cb6",
      "blockNumber": "0xf7a957",
      "gasUsed": "0xb3f9",
      "effectiveGasPrice": "0x3e3fc227b",
      "blobGasPrice": "0x1",
      "from": "0x2738f38fde510743e0c589415e0598c4cee6eaa7",
      "to": "0xb1d1d3382d0f26493063cb7188eb479d45a44cdf",
      "contractAddress": null
    },
    {
      "status": "0x1",
      "cumulativeGasUsed": "0x109c8",
      "logs": [],
      "logsBloom": "0x00000000000000000000000000000000000000000000000000000000000000000000000000000000000000000000000000000000000000000000000000000000000000000000000000000000000000000000000000000000000000000000000000000000000000000000000000000000000000000000000000000000000000000000000000000000000000000000000000000000000000000000000000000000000000000000000000000000000000000000000000000000000000000000000000000000000000000000000000000000000000000000000000000000000000000000000000000000000000000000000000000000000000000000000000000000",
      "type": "0x2",
      "transactionHash": "0x021bf094d6556405bebe2634c374d00f7a2c3199d7d3b634265dd2fab16dc66e",
      "transactionIndex": "0x0",
      "blockHash": "0xa7c695060ae2c5c5cdccbb8f100d3825c544a468b1a7d14af378446712059873",
      "blockNumber": "0xf7a958",
      "gasUsed": "0x109c8",
      "effectiveGasPrice": "0x37de2b62c",
      "blobGasPrice": "0x1",
      "from": "0x2738f38fde510743e0c589415e0598c4cee6eaa7",
      "to": "0xb1d1d3382d0f26493063cb7188eb479d45a44cdf",
      "contractAddress": null
    },
    {
      "status": "0x1",
      "cumulativeGasUsed": "0x84020",
      "logs": [
        {
          "address": "0xba5ed099633d3b313e4d5f7bdc1305d3c28ba5ed",
          "topics": [
            "0x2feea65dd4e9f9cbd86b74b7734210c59a1b2981b5b137bd0ee3e208200c9067",
            "0x000000000000000000000000f71c40e994f83bf9de895f50a5f0593fb6dbf4af",
            "0x18484cc297d5bc9223dee1320da9bc4f2b63577508d977e69ffd1e4602691f58"
          ],
          "data": "0x",
          "blockHash": "0x3baecbd3cc34bef3dcb64079df094a404bcef5d76138d186a204ad8245a76f3c",
          "blockNumber": "0xf7a959",
          "blockTimestamp": "0x69a5d1c5",
          "transactionHash": "0xd0606b52cbd5f2165f088b1f75ed92a9dd7d74ffd25f55c76476cfbffcc11ba2",
          "transactionIndex": "0x0",
          "logIndex": "0x0",
          "removed": false
        },
        {
          "address": "0xf66908600d412898a40db9be6d58125979b57326",
          "topics": [
            "0x8be0079c531659141344cd1fd0a4f28419497f9722a3daafe3b4186f6b6457e0",
            "0x0000000000000000000000000000000000000000000000000000000000000000",
            "0x0000000000000000000000002738f38fde510743e0c589415e0598c4cee6eaa7"
          ],
          "data": "0x",
          "blockHash": "0x3baecbd3cc34bef3dcb64079df094a404bcef5d76138d186a204ad8245a76f3c",
          "blockNumber": "0xf7a959",
          "blockTimestamp": "0x69a5d1c5",
          "transactionHash": "0xd0606b52cbd5f2165f088b1f75ed92a9dd7d74ffd25f55c76476cfbffcc11ba2",
          "transactionIndex": "0x0",
          "logIndex": "0x1",
          "removed": false
        },
        {
          "address": "0xba5ed099633d3b313e4d5f7bdc1305d3c28ba5ed",
          "topics": [
            "0x4db17dd5e4732fb6da34a148104a592783ca119a1e7bb8829eba6cbadef0b511",
            "0x000000000000000000000000f66908600d412898a40db9be6d58125979b57326"
          ],
          "data": "0x",
          "blockHash": "0x3baecbd3cc34bef3dcb64079df094a404bcef5d76138d186a204ad8245a76f3c",
          "blockNumber": "0xf7a959",
          "blockTimestamp": "0x69a5d1c5",
          "transactionHash": "0xd0606b52cbd5f2165f088b1f75ed92a9dd7d74ffd25f55c76476cfbffcc11ba2",
          "transactionIndex": "0x0",
          "logIndex": "0x2",
          "removed": false
        }
      ],
      "logsBloom": "0x00020000000000000000000000000000000000000000000000800000602000000000000000000000000000100000000000000000000004000000000000000000002000000000000000000000020000000001010000000000000000000000100000000000020000000000000000000800000000000020000000000000000000400000000000000004000000000000000400000000000000000000004000000010000008000000000000000000000000000800000000000000000000000000000000020800000000000200000000000000000000082000000000000000000020000000000000800200000000000000000000000000000000000000000000000000",
      "type": "0x2",
      "transactionHash": "0xd0606b52cbd5f2165f088b1f75ed92a9dd7d74ffd25f55c76476cfbffcc11ba2",
      "transactionIndex": "0x0",
      "blockHash": "0x3baecbd3cc34bef3dcb64079df094a404bcef5d76138d186a204ad8245a76f3c",
      "blockNumber": "0xf7a959",
      "gasUsed": "0x84020",
      "effectiveGasPrice": "0x3248ffcd8",
      "blobGasPrice": "0x1",
      "from": "0x2738f38fde510743e0c589415e0598c4cee6eaa7",
      "to": "0xba5ed099633d3b313e4d5f7bdc1305d3c28ba5ed",
      "contractAddress": null
    },
    {
      "status": "0x1",
      "cumulativeGasUsed": "0xb3f9",
      "logs": [],
      "logsBloom": "0x00000000000000000000000000000000000000000000000000000000000000000000000000000000000000000000000000000000000000000000000000000000000000000000000000000000000000000000000000000000000000000000000000000000000000000000000000000000000000000000000000000000000000000000000000000000000000000000000000000000000000000000000000000000000000000000000000000000000000000000000000000000000000000000000000000000000000000000000000000000000000000000000000000000000000000000000000000000000000000000000000000000000000000000000000000000",
      "type": "0x2",
      "transactionHash": "0x9febd99213e4cd779970495869dd5615fa94a3cbf57a9fa6bf81398de45a7171",
      "transactionIndex": "0x0",
      "blockHash": "0xf4e7184df8204be9ee15600e0b7568296ceb078abfcf8e10c3d2c6c463e510e7",
      "blockNumber": "0xf7a95a",
      "gasUsed": "0xb3f9",
      "effectiveGasPrice": "0x2d6c44e31",
      "blobGasPrice": "0x1",
      "from": "0x2738f38fde510743e0c589415e0598c4cee6eaa7",
      "to": "0xf66908600d412898a40db9be6d58125979b57326",
      "contractAddress": null
    },
    {
      "status": "0x1",
      "cumulativeGasUsed": "0x109d4",
      "logs": [],
      "logsBloom": "0x00000000000000000000000000000000000000000000000000000000000000000000000000000000000000000000000000000000000000000000000000000000000000000000000000000000000000000000000000000000000000000000000000000000000000000000000000000000000000000000000000000000000000000000000000000000000000000000000000000000000000000000000000000000000000000000000000000000000000000000000000000000000000000000000000000000000000000000000000000000000000000000000000000000000000000000000000000000000000000000000000000000000000000000000000000000",
      "type": "0x2",
      "transactionHash": "0xda9c7c73c0f743729103ff8136377f77fc3e4ed93b0c8d3b9b7b5688db4f29a0",
      "transactionIndex": "0x0",
      "blockHash": "0xe67e00c0e61857103dcc26ab56f69941ffe741583401018e9190c2307f35453b",
      "blockNumber": "0xf7a95b",
      "gasUsed": "0x109d4",
      "effectiveGasPrice": "0x2924de44f",
      "blobGasPrice": "0x1",
      "from": "0x2738f38fde510743e0c589415e0598c4cee6eaa7",
      "to": "0xf66908600d412898a40db9be6d58125979b57326",
      "contractAddress": null
    }
  ],
  "libraries": [
    "lib/mento-core/node_modules/@celo/contracts/common/linkedlists/AddressSortedLinkedListWithMedian.sol:AddressSortedLinkedListWithMedian:0x8E1B1312EC92C9f8073296c4Cf1E60D31d228269"
  ],
  "pending": [],
  "returns": {},
  "timestamp": 1772474996156,
  "chain": 10143,
  "commit": "e7a3b8a"
}