{
  "transactions": [
    {
      "hash": "0x43308d1c8785b6e2387267ac566aa0586d24d1983c8426cce8b0afd6b688c604",
      "transactionType": "CALL",
      "contractName": null,
      "contractAddress": "0xba5ed099633d3b313e4d5f7bdc1305d3c28ba5ed",
      "function": "deployCreate3(bytes32,bytes)",
      "arguments": [
        "0x2738f38fde510743e0c589415e0598c4cee6eaa700610308a933a4f6eaf7f9e5",
        "0x608060405234801561000f575f5ffd5b506040516109bf3803806109bf83398101604081905261002e9161011c565b806001600160a01b03811661005c57604051631e4fbdf760e01b81525f600482015260240160405180910390fd5b6100658161008e565b506001610072848261027b565b50506002805460ff191660ff9290921691909117905550610339565b5f80546001600160a01b038381166001600160a01b0319831681178455604051919092169283917f8be0079c531659141344cd1fd0a4f28419497f9722a3daafe3b4186f6b6457e09190a35050565b634e487b7160e01b5f52604160045260245ffd5b805160ff81168114610101575f5ffd5b919050565b80516001600160a01b0381168114610101575f5ffd5b5f5f5f6060848603121561012e575f5ffd5b83516001600160401b03811115610143575f5ffd5b8401601f81018613610153575f5ffd5b80516001600160401b0381111561016c5761016c6100dd565b604051601f8201601f19908116603f011681016001600160401b038111828210171561019a5761019a6100dd565b6040528181528282016020018810156101b1575f5ffd5b8160208401602083015e5f602083830101528095505050506101d5602085016100f1565b91506101e360408501610106565b90509250925092565b600181811c9082168061020057607f821691505b60208210810361021e57634e487b7160e01b5f52602260045260245ffd5b50919050565b601f821115610276578282111561027657805f5260205f20601f840160051c602085101561024f57505f5b90810190601f840160051c035f5b81811015610272575f8382015560010161025d565b5050505b505050565b81516001600160401b03811115610294576102946100dd565b6102a8816102a284546101ec565b84610224565b6020601f8211600181146102da575f83156102c35750848201515b5f19600385901b1c1916600184901b178455610332565b5f84815260208120601f198516915b8281101561030957878501518255602094850194600190920191016102e9565b508482101561032657868401515f19600387901b60f8161c191681555b505060018360011b0184555b5050505050565b610679806103465f395ff3fe608060405234801561000f575f5ffd5b50600436106100e5575f3560e01c80638da5cb5b11610088578063e1e244d811610063578063e1e244d8146101ca578063e3ac8226146101d3578063f2fde38b146101e6578063feaf968c146101f9575f5ffd5b80638da5cb5b1461019057806399213cd8146101a0578063d0b06f5d146101b3575f5ffd5b8063705b9154116100c3578063705b915414610135578063715018a6146101605780637284e416146101685780637a1395aa1461017d575f5ffd5b80630f3d249d146100e9578063313ce567146100fe578063368f186214610122575b5f5ffd5b6100fc6100f73660046104d7565b610238565b005b60025461010b9060ff1681565b60405160ff90911681526020015b60405180910390f35b6100fc6101303660046104f7565b61028a565b600554610148906001600160a01b031681565b6040516001600160a01b039091168152602001610119565b6100fc6102cd565b6101706102e0565b604051610119919061050e565b6100fc61018b366004610543565b61036c565b5f546001600160a01b0316610148565b6100fc6101ae3660046104f7565b61038a565b6101bc60045481565b604051908152602001610119565b6101bc60035481565b6100fc6101e136600461056a565b6103cd565b6100fc6101f436600461056a565b6103f7565b610201610434565b6040805169ffffffffffffffffffff968716815260208101959095528401929092526060830152909116608082015260a001610119565b5f546001600160a01b031633148061025a57506005546001600160a01b031633145b61027f5760405162461bcd60e51b815260040161027690610590565b60405180910390fd5b600391909155600455565b5f546001600160a01b03163314806102ac57506005546001600160a01b031633145b6102c85760405162461bcd60e51b815260040161027690610590565b600455565b6102d561045c565b6102de5f610488565b565b600180546102ed906105e6565b80601f0160208091040260200160405190810160405280929190818152602001828054610319906105e6565b80156103645780601f1061033b57610100808354040283529160200191610364565b820191905f5260205f20905b81548152906001019060200180831161034757829003601f168201915b505050505081565b61037461045c565b6002805460ff191660ff92909216919091179055565b5f546001600160a01b03163314806103ac57506005546001600160a01b031633145b6103c85760405162461bcd60e51b815260040161027690610590565b600355565b6103d561045c565b600580546001600160a01b0319166001600160a01b0392909216919091179055565b6103ff61045c565b6001600160a01b03811661042857604051631e4fbdf760e01b81525f6004820152602401610276565b61043181610488565b50565b5f5f5f5f5f5f6003545f60054261044b919061061e565b929891975095509093505f92509050565b5f546001600160a01b031633146102de5760405163118cdaa760e01b8152336004820152602401610276565b5f80546001600160a01b038381166001600160a01b0319831681178455604051919092169283917f8be0079c531659141344cd1fd0a4f28419497f9722a3daafe3b4186f6b6457e09190a35050565b5f5f604083850312156104e8575f5ffd5b50508035926020909101359150565b5f60208284031215610507575f5ffd5b5035919050565b602081525f82518060208401528060208501604085015e5f604082850101526040601f19601f83011684010191505092915050565b5f60208284031215610553575f5ffd5b813560ff81168114610563575f5ffd5b9392505050565b5f6020828403121561057a575f5ffd5b81356001600160a01b0381168114610563575f5ffd5b60208082526036908201527f4f6e6c79206f776e6572206f722065787465726e616c2070726f76696465722060408201527531b0b71031b0b636103a3434b990333ab731ba34b7b760511b606082015260800190565b600181811c908216806105fa57607f821691505b60208210810361061857634e487b7160e01b5f52602260045260245ffd5b50919050565b8181038181111561063d57634e487b7160e01b5f52601160045260245ffd5b9291505056fea26469706673582212205dc566ef232231dc7df2b86bdbee1f12bade47ad1dcfab73413fbdd3bc4810b364736f6c63430008210033000000000000000000000000000000000000000000000000000000000000006000000000000000000000000000000000000000000000000000000000000000080000000000000000000000002738f38fde510743e0c589415e0598c4cee6eaa70000000000000000000000000000000000000000000000000000000000000008555344432f555344000000000000000000000000000000000000000000000000"
      ],
      "transaction": {
        "from": "0x2738f38fde510743e0c589415e0598c4cee6eaa7",
        "to": "0xba5ed099633d3b313e4d5f7bdc1305d3c28ba5ed",
        "gas": "0xb698e",
        "value": "0x0",
        "input": "0x9c36a2862738f38fde510743e0c589415e0598c4cee6eaa700610308a933a4f6eaf7f9e500000000000000000000000000000000000000000000000000000000000000400000000000000000000000000000000000000000000000000000000000000a5f608060405234801561000f575f5ffd5b506040516109bf3803806109bf83398101604081905261002e9161011c565b806001600160a01b03811661005c57604051631e4fbdf760e01b81525f600482015260240160405180910390fd5b6100658161008e565b506001610072848261027b565b50506002805460ff191660ff9290921691909117905550610339565b5f80546001600160a01b038381166001600160a01b0319831681178455604051919092169283917f8be0079c531659141344cd1fd0a4f28419497f9722a3daafe3b4186f6b6457e09190a35050565b634e487b7160e01b5f52604160045260245ffd5b805160ff81168114610101575f5ffd5b919050565b80516001600160a01b0381168114610101575f5ffd5b5f5f5f6060848603121561012e575f5ffd5b83516001600160401b03811115610143575f5ffd5b8401601f81018613610153575f5ffd5b80516001600160401b0381111561016c5761016c6100dd565b604051601f8201601f19908116603f011681016001600160401b038111828210171561019a5761019a6100dd565b6040528181528282016020018810156101b1575f5ffd5b8160208401602083015e5f602083830101528095505050506101d5602085016100f1565b91506101e360408501610106565b90509250925092565b600181811c9082168061020057607f821691505b60208210810361021e57634e487b7160e01b5f52602260045260245ffd5b50919050565b601f821115610276578282111561027657805f5260205f20601f840160051c602085101561024f57505f5b90810190601f840160051c035f5b81811015610272575f8382015560010161025d565b5050505b505050565b81516001600160401b03811115610294576102946100dd565b6102a8816102a284546101ec565b84610224565b6020601f8211600181146102da575f83156102c35750848201515b5f19600385901b1c1916600184901b178455610332565b5f84815260208120601f198516915b8281101561030957878501518255602094850194600190920191016102e9565b508482101561032657868401515f19600387901b60f8161c191681555b505060018360011b0184555b5050505050565b610679806103465f395ff3fe608060405234801561000f575f5ffd5b50600436106100e5575f3560e01c80638da5cb5b11610088578063e1e244d811610063578063e1e244d8146101ca578063e3ac8226146101d3578063f2fde38b146101e6578063feaf968c146101f9575f5ffd5b80638da5cb5b1461019057806399213cd8146101a0578063d0b06f5d146101b3575f5ffd5b8063705b9154116100c3578063705b915414610135578063715018a6146101605780637284e416146101685780637a1395aa1461017d575f5ffd5b80630f3d249d146100e9578063313ce567146100fe578063368f186214610122575b5f5ffd5b6100fc6100f73660046104d7565b610238565b005b60025461010b9060ff1681565b60405160ff90911681526020015b60405180910390f35b6100fc6101303660046104f7565b61028a565b600554610148906001600160a01b031681565b6040516001600160a01b039091168152602001610119565b6100fc6102cd565b6101706102e0565b604051610119919061050e565b6100fc61018b366004610543565b61036c565b5f546001600160a01b0316610148565b6100fc6101ae3660046104f7565b61038a565b6101bc60045481565b604051908152602001610119565b6101bc60035481565b6100fc6101e136600461056a565b6103cd565b6100fc6101f436600461056a565b6103f7565b610201610434565b6040805169ffffffffffffffffffff968716815260208101959095528401929092526060830152909116608082015260a001610119565b5f546001600160a01b031633148061025a57506005546001600160a01b031633145b61027f5760405162461bcd60e51b815260040161027690610590565b60405180910390fd5b600391909155600455565b5f546001600160a01b03163314806102ac57506005546001600160a01b031633145b6102c85760405162461bcd60e51b815260040161027690610590565b600455565b6102d561045c565b6102de5f610488565b565b600180546102ed906105e6565b80601f0160208091040260200160405190810160405280929190818152602001828054610319906105e6565b80156103645780601f1061033b57610100808354040283529160200191610364565b820191905f5260205f20905b81548152906001019060200180831161034757829003601f168201915b505050505081565b61037461045c565b6002805460ff191660ff92909216919091179055565b5f546001600160a01b03163314806103ac57506005546001600160a01b031633145b6103c85760405162461bcd60e51b815260040161027690610590565b600355565b6103d561045c565b600580546001600160a01b0319166001600160a01b0392909216919091179055565b6103ff61045c565b6001600160a01b03811661042857604051631e4fbdf760e01b81525f6004820152602401610276565b61043181610488565b50565b5f5f5f5f5f5f6003545f60054261044b919061061e565b929891975095509093505f92509050565b5f546001600160a01b031633146102de5760405163118cdaa760e01b8152336004820152602401610276565b5f80546001600160a01b038381166001600160a01b0319831681178455604051919092169283917f8be0079c531659141344cd1fd0a4f28419497f9722a3daafe3b4186f6b6457e09190a35050565b5f5f604083850312156104e8575f5ffd5b50508035926020909101359150565b5f60208284031215610507575f5ffd5b5035919050565b602081525f82518060208401528060208501604085015e5f604082850101526040601f19601f83011684010191505092915050565b5f60208284031215610553575f5ffd5b813560ff81168114610563575f5ffd5b9392505050565b5f6020828403121561057a575f5ffd5b81356001600160a01b0381168114610563575f5ffd5b60208082526036908201527f4f6e6c79206f776e6572206f722065787465726e616c2070726f76696465722060408201527531b0b71031b0b636103a3434b990333ab731ba34b7b760511b606082015260800190565b600181811c908216806105fa57607f821691505b60208210810361061857634e487b7160e01b5f52602260045260245ffd5b50919050565b8181038181111561063d57634e487b7160e01b5f52601160045260245ffd5b9291505056fea26469706673582212205dc566ef232231dc7df2b86bdbee1f12bade47ad1dcfab73413fbdd3bc4810b364736f6c63430008210033000000000000000000000000000000000000000000000000000000000000006000000000000000000000000000000000000000000000000000000000000000080000000000000000000000002738f38fde510743e0c589415e0598c4cee6eaa70000000000000000000000000000000000000000000000000000000000000008555344432f55534400000000000000000000000000000000000000000000000000",
        "nonce": "0x36",
        "chainId": "0x279f"
      },
      "additionalContracts": [
        {
          "transactionType": "CREATE2",
          "contractName": null,
          "address": "0xe9b0a7191a7d6799fd4e15840d557d7a48541d03",
          "initCode": "0x67363d3d37363d34f03d5260086018f3"
        },
        {
          "transactionType": "CREATE",
          "contractName": "MockChainlinkAggregator",
          "address": "0xb1d1d3382d0f26493063cb7188eb479d45a44cdf",
          "initCode": "0x608060405234801561000f575f5ffd5b506040516109bf3803806109bf83398101604081905261002e9161011c565b806001600160a01b03811661005c57604051631e4fbdf760e01b81525f600482015260240160405180910390fd5b6100658161008e565b506001610072848261027b565b50506002805460ff191660ff9290921691909117905550610339565b5f80546001600160a01b038381166001600160a01b0319831681178455604051919092169283917f8be0079c531659141344cd1fd0a4f28419497f9722a3daafe3b4186f6b6457e09190a35050565b634e487b7160e01b5f52604160045260245ffd5b805160ff81168114610101575f5ffd5b919050565b80516001600160a01b0381168114610101575f5ffd5b5f5f5f6060848603121561012e575f5ffd5b83516001600160401b03811115610143575f5ffd5b8401601f81018613610153575f5ffd5b80516001600160401b0381111561016c5761016c6100dd565b604051601f8201601f19908116603f011681016001600160401b038111828210171561019a5761019a6100dd565b6040528181528282016020018810156101b1575f5ffd5b8160208401602083015e5f602083830101528095505050506101d5602085016100f1565b91506101e360408501610106565b90509250925092565b600181811c9082168061020057607f821691505b60208210810361021e57634e487b7160e01b5f52602260045260245ffd5b50919050565b601f821115610276578282111561027657805f5260205f20601f840160051c602085101561024f57505f5b90810190601f840160051c035f5b81811015610272575f8382015560010161025d565b5050505b505050565b81516001600160401b03811115610294576102946100dd565b6102a8816102a284546101ec565b84610224565b6020601f8211600181146102da575f83156102c35750848201515b5f19600385901b1c1916600184901b178455610332565b5f84815260208120601f198516915b8281101561030957878501518255602094850194600190920191016102e9565b508482101561032657868401515f19600387901b60f8161c191681555b505060018360011b0184555b5050505050565b610679806103465f395ff3fe608060405234801561000f575f5ffd5b50600436106100e5575f3560e01c80638da5cb5b11610088578063e1e244d811610063578063e1e244d8146101ca578063e3ac8226146101d3578063f2fde38b146101e6578063feaf968c146101f9575f5ffd5b80638da5cb5b1461019057806399213cd8146101a0578063d0b06f5d146101b3575f5ffd5b8063705b9154116100c3578063705b915414610135578063715018a6146101605780637284e416146101685780637a1395aa1461017d575f5ffd5b80630f3d249d146100e9578063313ce567146100fe578063368f186214610122575b5f5ffd5b6100fc6100f73660046104d7565b610238565b005b60025461010b9060ff1681565b60405160ff90911681526020015b60405180910390f35b6100fc6101303660046104f7565b61028a565b600554610148906001600160a01b031681565b6040516001600160a01b039091168152602001610119565b6100fc6102cd565b6101706102e0565b604051610119919061050e565b6100fc61018b366004610543565b61036c565b5f546001600160a01b0316610148565b6100fc6101ae3660046104f7565b61038a565b6101bc60045481565b604051908152602001610119565b6101bc60035481565b6100fc6101e136600461056a565b6103cd565b6100fc6101f436600461056a565b6103f7565b610201610434565b6040805169ffffffffffffffffffff968716815260208101959095528401929092526060830152909116608082015260a001610119565b5f546001600160a01b031633148061025a57506005546001600160a01b031633145b61027f5760405162461bcd60e51b815260040161027690610590565b60405180910390fd5b600391909155600455565b5f546001600160a01b03163314806102ac57506005546001600160a01b031633145b6102c85760405162461bcd60e51b815260040161027690610590565b600455565b6102d561045c565b6102de5f610488565b565b600180546102ed906105e6565b80601f0160208091040260200160405190810160405280929190818152602001828054610319906105e6565b80156103645780601f1061033b57610100808354040283529160200191610364565b820191905f5260205f20905b81548152906001019060200180831161034757829003601f168201915b505050505081565b61037461045c565b6002805460ff191660ff92909216919091179055565b5f546001600160a01b03163314806103ac57506005546001600160a01b031633145b6103c85760405162461bcd60e51b815260040161027690610590565b600355565b6103d561045c565b600580546001600160a01b0319166001600160a01b0392909216919091179055565b6103ff61045c565b6001600160a01b03811661042857604051631e4fbdf760e01b81525f6004820152602401610276565b61043181610488565b50565b5f5f5f5f5f5f6003545f60054261044b919061061e565b929891975095509093505f92509050565b5f546001600160a01b031633146102de5760405163118cdaa760e01b8152336004820152602401610276565b5f80546001600160a01b038381166001600160a01b0319831681178455604051919092169283917f8be0079c531659141344cd1fd0a4f28419497f9722a3daafe3b4186f6b6457e09190a35050565b5f5f604083850312156104e8575f5ffd5b50508035926020909101359150565b5f60208284031215610507575f5ffd5b5035919050565b602081525f82518060208401528060208501604085015e5f604082850101526040601f19601f83011684010191505092915050565b5f60208284031215610553575f5ffd5b813560ff81168114610563575f5ffd5b9392505050565b5f6020828403121561057a575f5ffd5b81356001600160a01b0381168114610563575f5ffd5b60208082526036908201527f4f6e6c79206f776e6572206f722065787465726e616c2070726f76696465722060408201527531b0b71031b0b636103a3434b990333ab731ba34b7b760511b606082015260800190565b600181811c908216806105fa57607f821691505b60208210810361061857634e487b7160e01b5f52602260045260245ffd5b50919050565b8181038181111561063d57634e487b7160e01b5f52601160045260245ffd5b9291505056fea26469706673582212205dc566ef232231dc7df2b86bdbee1f12bade47ad1dcfab73413fbdd3bc4810b364736f6c63430008210033000000000000000000000000000000000000000000000000000000000000006000000000000000000000000000000000000000000000000000000000000000080000000000000000000000002738f38fde510743e0c589415e0598c4cee6eaa70000000000000000000000000000000000000000000000000000000000000008555344432f555344000000000000000000000000000000000000000000000000"
        }
      ],
      "isFixedGasLimit": false
    },
    {
      "hash": "0x167c1cb77d7ea0d337ab798d1d71ad309c591a2b2454eb679787c096fa759696",
      "transactionType": "CALL",
      "contractName": "MockChainlinkAggregator",
      "contractAddress": "0xb1d1d3382d0f26493063cb7188eb479d45a44cdf",
      "function": "setExternalProvider(address)",
      "arguments": [
        "0xabcdE369CDdD1665E4EbD9214b8e9a595271272C"
      ],
      "transaction": {
        "from": "0x2738f38fde510743e0c589415e0598c4cee6eaa7",
        "to": "0xb1d1d3382d0f26493063cb7188eb479d45a44cdf",
        "gas": "0x703a",
        "value": "0x0",
        "input": "0xe3ac8226000000000000000000000000abcde369cddd1665e4ebd9214b8e9a595271272c",
        "nonce": "0x37",
        "chainId": "0x279f"
      },
      "additionalContracts": [],
      "isFixedGasLimit": false
    },
    {
      "hash": "0x0626ec77f934694478ade9ec828ae12906a14d43bdf6b00f78775859496b7f05",
      "transactionType": "CALL",
      "contractName": "MockChainlinkAggregator",
      "contractAddress": "0xb1d1d3382d0f26493063cb7188eb479d45a44cdf",
      "function": "report(int256,uint256)",
      "arguments": [
        "99999999",
        "1773160292"
      ],
      "transaction": {
        "from": "0x2738f38fde510743e0c589415e0598c4cee6eaa7",
        "to": "0xb1d1d3382d0f26493063cb7188eb479d45a44cdf",
        "gas": "0x7025",
        "value": "0x0",
        "input": "0x0f3d249d0000000000000000000000000000000000000000000000000000000005f5e0ff0000000000000000000000000000000000000000000000000000000069b04764",
        "nonce": "0x38",
        "chainId": "0x279f"
      },
      "additionalContracts": [],
      "isFixedGasLimit": false
    },
    {
      "hash": "0x82414f0f5c7094699c3fb36206f25c67d805ce0ce1f1f3923bfe2af0d42c6d39",
      "transactionType": "CALL",
      "contractName": null,
      "contractAddress": "0xba5ed099633d3b313e4d5f7bdc1305d3c28ba5ed",
      "function": "deployCreate3(bytes32,bytes)",
      "arguments": [
        "0x2738f38fde510743e0c589415e0598c4cee6eaa70065fb74f2118485f26b7a91",
        "0x608060405234801561000f575f5ffd5b506040516109bf3803806109bf83398101604081905261002e9161011c565b806001600160a01b03811661005c57604051631e4fbdf760e01b81525f600482015260240160405180910390fd5b6100658161008e565b506001610072848261027b565b50506002805460ff191660ff9290921691909117905550610339565b5f80546001600160a01b038381166001600160a01b0319831681178455604051919092169283917f8be0079c531659141344cd1fd0a4f28419497f9722a3daafe3b4186f6b6457e09190a35050565b634e487b7160e01b5f52604160045260245ffd5b805160ff81168114610101575f5ffd5b919050565b80516001600160a01b0381168114610101575f5ffd5b5f5f5f6060848603121561012e575f5ffd5b83516001600160401b03811115610143575f5ffd5b8401601f81018613610153575f5ffd5b80516001600160401b0381111561016c5761016c6100dd565b604051601f8201601f19908116603f011681016001600160401b038111828210171561019a5761019a6100dd565b6040528181528282016020018810156101b1575f5ffd5b8160208401602083015e5f602083830101528095505050506101d5602085016100f1565b91506101e360408501610106565b90509250925092565b600181811c9082168061020057607f821691505b60208210810361021e57634e487b7160e01b5f52602260045260245ffd5b50919050565b601f821115610276578282111561027657805f5260205f20601f840160051c602085101561024f57505f5b90810190601f840160051c035f5b81811015610272575f8382015560010161025d565b5050505b505050565b81516001600160401b03811115610294576102946100dd565b6102a8816102a284546101ec565b84610224565b6020601f8211600181146102da575f83156102c35750848201515b5f19600385901b1c1916600184901b178455610332565b5f84815260208120601f198516915b8281101561030957878501518255602094850194600190920191016102e9565b508482101561032657868401515f19600387901b60f8161c191681555b505060018360011b0184555b5050505050565b610679806103465f395ff3fe608060405234801561000f575f5ffd5b50600436106100e5575f3560e01c80638da5cb5b11610088578063e1e244d811610063578063e1e244d8146101ca578063e3ac8226146101d3578063f2fde38b146101e6578063feaf968c146101f9575f5ffd5b80638da5cb5b1461019057806399213cd8146101a0578063d0b06f5d146101b3575f5ffd5b8063705b9154116100c3578063705b915414610135578063715018a6146101605780637284e416146101685780637a1395aa1461017d575f5ffd5b80630f3d249d146100e9578063313ce567146100fe578063368f186214610122575b5f5ffd5b6100fc6100f73660046104d7565b610238565b005b60025461010b9060ff1681565b60405160ff90911681526020015b60405180910390f35b6100fc6101303660046104f7565b61028a565b600554610148906001600160a01b031681565b6040516001600160a01b039091168152602001610119565b6100fc6102cd565b6101706102e0565b604051610119919061050e565b6100fc61018b366004610543565b61036c565b5f546001600160a01b0316610148565b6100fc6101ae3660046104f7565b61038a565b6101bc60045481565b604051908152602001610119565b6101bc60035481565b6100fc6101e136600461056a565b6103cd565b6100fc6101f436600461056a565b6103f7565b610201610434565b6040805169ffffffffffffffffffff968716815260208101959095528401929092526060830152909116608082015260a001610119565b5f546001600160a01b031633148061025a57506005546001600160a01b031633145b61027f5760405162461bcd60e51b815260040161027690610590565b60405180910390fd5b600391909155600455565b5f546001600160a01b03163314806102ac57506005546001600160a01b031633145b6102c85760405162461bcd60e51b815260040161027690610590565b600455565b6102d561045c565b6102de5f610488565b565b600180546102ed906105e6565b80601f0160208091040260200160405190810160405280929190818152602001828054610319906105e6565b80156103645780601f1061033b57610100808354040283529160200191610364565b820191905f5260205f20905b81548152906001019060200180831161034757829003601f168201915b505050505081565b61037461045c565b6002805460ff191660ff92909216919091179055565b5f546001600160a01b03163314806103ac57506005546001600160a01b031633145b6103c85760405162461bcd60e51b815260040161027690610590565b600355565b6103d561045c565b600580546001600160a01b0319166001600160a01b0392909216919091179055565b6103ff61045c565b6001600160a01b03811661042857604051631e4fbdf760e01b81525f6004820152602401610276565b61043181610488565b50565b5f5f5f5f5f5f6003545f60054261044b919061061e565b929891975095509093505f92509050565b5f546001600160a01b031633146102de5760405163118cdaa760e01b8152336004820152602401610276565b5f80546001600160a01b038381166001600160a01b0319831681178455604051919092169283917f8be0079c531659141344cd1fd0a4f28419497f9722a3daafe3b4186f6b6457e09190a35050565b5f5f604083850312156104e8575f5ffd5b50508035926020909101359150565b5f60208284031215610507575f5ffd5b5035919050565b602081525f82518060208401528060208501604085015e5f604082850101526040601f19601f83011684010191505092915050565b5f60208284031215610553575f5ffd5b813560ff81168114610563575f5ffd5b9392505050565b5f6020828403121561057a575f5ffd5b81356001600160a01b0381168114610563575f5ffd5b60208082526036908201527f4f6e6c79206f776e6572206f722065787465726e616c2070726f76696465722060408201527531b0b71031b0b636103a3434b990333ab731ba34b7b760511b606082015260800190565b600181811c908216806105fa57607f821691505b60208210810361061857634e487b7160e01b5f52602260045260245ffd5b50919050565b8181038181111561063d57634e487b7160e01b5f52601160045260245ffd5b9291505056fea26469706673582212205dc566ef232231dc7df2b86bdbee1f12bade47ad1dcfab73413fbdd3bc4810b364736f6c63430008210033000000000000000000000000000000000000000000000000000000000000006000000000000000000000000000000000000000000000000000000000000000080000000000000000000000002738f38fde510743e0c589415e0598c4cee6eaa70000000000000000000000000000000000000000000000000000000000000008415553442f555344000000000000000000000000000000000000000000000000"
      ],
      "transaction": {
        "from": "0x2738f38fde510743e0c589415e0598c4cee6eaa7",
        "to": "0xba5ed099633d3b313e4d5f7bdc1305d3c28ba5ed",
        "gas": "0xb698e",
        "value": "0x0",
        "input": "0x9c36a2862738f38fde510743e0c589415e0598c4cee6eaa70065fb74f2118485f26b7a9100000000000000000000000000000000000000000000000000000000000000400000000000000000000000000000000000000000000000000000000000000a5f608060405234801561000f575f5ffd5b506040516109bf3803806109bf83398101604081905261002e9161011c565b806001600160a01b03811661005c57604051631e4fbdf760e01b81525f600482015260240160405180910390fd5b6100658161008e565b506001610072848261027b565b50506002805460ff191660ff9290921691909117905550610339565b5f80546001600160a01b038381166001600160a01b0319831681178455604051919092169283917f8be0079c531659141344cd1fd0a4f28419497f9722a3daafe3b4186f6b6457e09190a35050565b634e487b7160e01b5f52604160045260245ffd5b805160ff81168114610101575f5ffd5b919050565b80516001600160a01b0381168114610101575f5ffd5b5f5f5f6060848603121561012e575f5ffd5b83516001600160401b03811115610143575f5ffd5b8401601f81018613610153575f5ffd5b80516001600160401b0381111561016c5761016c6100dd565b604051601f8201601f19908116603f011681016001600160401b038111828210171561019a5761019a6100dd565b6040528181528282016020018810156101b1575f5ffd5b8160208401602083015e5f602083830101528095505050506101d5602085016100f1565b91506101e360408501610106565b90509250925092565b600181811c9082168061020057607f821691505b60208210810361021e57634e487b7160e01b5f52602260045260245ffd5b50919050565b601f821115610276578282111561027657805f5260205f20601f840160051c602085101561024f57505f5b90810190601f840160051c035f5b81811015610272575f8382015560010161025d565b5050505b505050565b81516001600160401b03811115610294576102946100dd565b6102a8816102a284546101ec565b84610224565b6020601f8211600181146102da575f83156102c35750848201515b5f19600385901b1c1916600184901b178455610332565b5f84815260208120601f198516915b8281101561030957878501518255602094850194600190920191016102e9565b508482101561032657868401515f19600387901b60f8161c191681555b505060018360011b0184555b5050505050565b610679806103465f395ff3fe608060405234801561000f575f5ffd5b50600436106100e5575f3560e01c80638da5cb5b11610088578063e1e244d811610063578063e1e244d8146101ca578063e3ac8226146101d3578063f2fde38b146101e6578063feaf968c146101f9575f5ffd5b80638da5cb5b1461019057806399213cd8146101a0578063d0b06f5d146101b3575f5ffd5b8063705b9154116100c3578063705b915414610135578063715018a6146101605780637284e416146101685780637a1395aa1461017d575f5ffd5b80630f3d249d146100e9578063313ce567146100fe578063368f186214610122575b5f5ffd5b6100fc6100f73660046104d7565b610238565b005b60025461010b9060ff1681565b60405160ff90911681526020015b60405180910390f35b6100fc6101303660046104f7565b61028a565b600554610148906001600160a01b031681565b6040516001600160a01b039091168152602001610119565b6100fc6102cd565b6101706102e0565b604051610119919061050e565b6100fc61018b366004610543565b61036c565b5f546001600160a01b0316610148565b6100fc6101ae3660046104f7565b61038a565b6101bc60045481565b604051908152602001610119565b6101bc60035481565b6100fc6101e136600461056a565b6103cd565b6100fc6101f436600461056a565b6103f7565b610201610434565b6040805169ffffffffffffffffffff968716815260208101959095528401929092526060830152909116608082015260a001610119565b5f546001600160a01b031633148061025a57506005546001600160a01b031633145b61027f5760405162461bcd60e51b815260040161027690610590565b60405180910390fd5b600391909155600455565b5f546001600160a01b03163314806102ac57506005546001600160a01b031633145b6102c85760405162461bcd60e51b815260040161027690610590565b600455565b6102d561045c565b6102de5f610488565b565b600180546102ed906105e6565b80601f0160208091040260200160405190810160405280929190818152602001828054610319906105e6565b80156103645780601f1061033b57610100808354040283529160200191610364565b820191905f5260205f20905b81548152906001019060200180831161034757829003601f168201915b505050505081565b61037461045c565b6002805460ff191660ff92909216919091179055565b5f546001600160a01b03163314806103ac57506005546001600160a01b031633145b6103c85760405162461bcd60e51b815260040161027690610590565b600355565b6103d561045c565b600580546001600160a01b0319166001600160a01b0392909216919091179055565b6103ff61045c565b6001600160a01b03811661042857604051631e4fbdf760e01b81525f6004820152602401610276565b61043181610488565b50565b5f5f5f5f5f5f6003545f60054261044b919061061e565b929891975095509093505f92509050565b5f546001600160a01b031633146102de5760405163118cdaa760e01b8152336004820152602401610276565b5f80546001600160a01b038381166001600160a01b0319831681178455604051919092169283917f8be0079c531659141344cd1fd0a4f28419497f9722a3daafe3b4186f6b6457e09190a35050565b5f5f604083850312156104e8575f5ffd5b50508035926020909101359150565b5f60208284031215610507575f5ffd5b5035919050565b602081525f82518060208401528060208501604085015e5f604082850101526040601f19601f83011684010191505092915050565b5f60208284031215610553575f5ffd5b813560ff81168114610563575f5ffd5b9392505050565b5f6020828403121561057a575f5ffd5b81356001600160a01b0381168114610563575f5ffd5b60208082526036908201527f4f6e6c79206f776e6572206f722065787465726e616c2070726f76696465722060408201527531b0b71031b0b636103a3434b990333ab731ba34b7b760511b606082015260800190565b600181811c908216806105fa57607f821691505b60208210810361061857634e487b7160e01b5f52602260045260245ffd5b50919050565b8181038181111561063d57634e487b7160e01b5f52601160045260245ffd5b9291505056fea26469706673582212205dc566ef232231dc7df2b86bdbee1f12bade47ad1dcfab73413fbdd3bc4810b364736f6c63430008210033000000000000000000000000000000000000000000000000000000000000006000000000000000000000000000000000000000000000000000000000000000080000000000000000000000002738f38fde510743e0c589415e0598c4cee6eaa70000000000000000000000000000000000000000000000000000000000000008415553442f55534400000000000000000000000000000000000000000000000000",
        "nonce": "0x39",
        "chainId": "0x279f"
      },
      "additionalContracts": [
        {
          "transactionType": "CREATE2",
          "contractName": null,
          "address": "0x0673b903a8450be75000fef00247c28c19f808b2",
          "initCode": "0x67363d3d37363d34f03d5260086018f3"
        },
        {
          "transactionType": "CREATE",
          "contractName": "MockChainlinkAggregator",
          "address": "0xcd0776d746d589d91b629d28b785443722cea4e1",
          "initCode": "0x608060405234801561000f575f5ffd5b506040516109bf3803806109bf83398101604081905261002e9161011c565b806001600160a01b03811661005c57604051631e4fbdf760e01b81525f600482015260240160405180910390fd5b6100658161008e565b506001610072848261027b565b50506002805460ff191660ff9290921691909117905550610339565b5f80546001600160a01b038381166001600160a01b0319831681178455604051919092169283917f8be0079c531659141344cd1fd0a4f28419497f9722a3daafe3b4186f6b6457e09190a35050565b634e487b7160e01b5f52604160045260245ffd5b805160ff81168114610101575f5ffd5b919050565b80516001600160a01b0381168114610101575f5ffd5b5f5f5f6060848603121561012e575f5ffd5b83516001600160401b03811115610143575f5ffd5b8401601f81018613610153575f5ffd5b80516001600160401b0381111561016c5761016c6100dd565b604051601f8201601f19908116603f011681016001600160401b038111828210171561019a5761019a6100dd565b6040528181528282016020018810156101b1575f5ffd5b8160208401602083015e5f602083830101528095505050506101d5602085016100f1565b91506101e360408501610106565b90509250925092565b600181811c9082168061020057607f821691505b60208210810361021e57634e487b7160e01b5f52602260045260245ffd5b50919050565b601f821115610276578282111561027657805f5260205f20601f840160051c602085101561024f57505f5b90810190601f840160051c035f5b81811015610272575f8382015560010161025d565b5050505b505050565b81516001600160401b03811115610294576102946100dd565b6102a8816102a284546101ec565b84610224565b6020601f8211600181146102da575f83156102c35750848201515b5f19600385901b1c1916600184901b178455610332565b5f84815260208120601f198516915b8281101561030957878501518255602094850194600190920191016102e9565b508482101561032657868401515f19600387901b60f8161c191681555b505060018360011b0184555b5050505050565b610679806103465f395ff3fe608060405234801561000f575f5ffd5b50600436106100e5575f3560e01c80638da5cb5b11610088578063e1e244d811610063578063e1e244d8146101ca578063e3ac8226146101d3578063f2fde38b146101e6578063feaf968c146101f9575f5ffd5b80638da5cb5b1461019057806399213cd8146101a0578063d0b06f5d146101b3575f5ffd5b8063705b9154116100c3578063705b915414610135578063715018a6146101605780637284e416146101685780637a1395aa1461017d575f5ffd5b80630f3d249d146100e9578063313ce567146100fe578063368f186214610122575b5f5ffd5b6100fc6100f73660046104d7565b610238565b005b60025461010b9060ff1681565b60405160ff90911681526020015b60405180910390f35b6100fc6101303660046104f7565b61028a565b600554610148906001600160a01b031681565b6040516001600160a01b039091168152602001610119565b6100fc6102cd565b6101706102e0565b604051610119919061050e565b6100fc61018b366004610543565b61036c565b5f546001600160a01b0316610148565b6100fc6101ae3660046104f7565b61038a565b6101bc60045481565b604051908152602001610119565b6101bc60035481565b6100fc6101e136600461056a565b6103cd565b6100fc6101f436600461056a565b6103f7565b610201610434565b6040805169ffffffffffffffffffff968716815260208101959095528401929092526060830152909116608082015260a001610119565b5f546001600160a01b031633148061025a57506005546001600160a01b031633145b61027f5760405162461bcd60e51b815260040161027690610590565b60405180910390fd5b600391909155600455565b5f546001600160a01b03163314806102ac57506005546001600160a01b031633145b6102c85760405162461bcd60e51b815260040161027690610590565b600455565b6102d561045c565b6102de5f610488565b565b600180546102ed906105e6565b80601f0160208091040260200160405190810160405280929190818152602001828054610319906105e6565b80156103645780601f1061033b57610100808354040283529160200191610364565b820191905f5260205f20905b81548152906001019060200180831161034757829003601f168201915b505050505081565b61037461045c565b6002805460ff191660ff92909216919091179055565b5f546001600160a01b03163314806103ac57506005546001600160a01b031633145b6103c85760405162461bcd60e51b815260040161027690610590565b600355565b6103d561045c565b600580546001600160a01b0319166001600160a01b0392909216919091179055565b6103ff61045c565b6001600160a01b03811661042857604051631e4fbdf760e01b81525f6004820152602401610276565b61043181610488565b50565b5f5f5f5f5f5f6003545f60054261044b919061061e565b929891975095509093505f92509050565b5f546001600160a01b031633146102de5760405163118cdaa760e01b8152336004820152602401610276565b5f80546001600160a01b038381166001600160a01b0319831681178455604051919092169283917f8be0079c531659141344cd1fd0a4f28419497f9722a3daafe3b4186f6b6457e09190a35050565b5f5f604083850312156104e8575f5ffd5b50508035926020909101359150565b5f60208284031215610507575f5ffd5b5035919050565b602081525f82518060208401528060208501604085015e5f604082850101526040601f19601f83011684010191505092915050565b5f60208284031215610553575f5ffd5b813560ff81168114610563575f5ffd5b9392505050565b5f6020828403121561057a575f5ffd5b81356001600160a01b0381168114610563575f5ffd5b60208082526036908201527f4f6e6c79206f776e6572206f722065787465726e616c2070726f76696465722060408201527531b0b71031b0b636103a3434b990333ab731ba34b7b760511b606082015260800190565b600181811c908216806105fa57607f821691505b60208210810361061857634e487b7160e01b5f52602260045260245ffd5b50919050565b8181038181111561063d57634e487b7160e01b5f52601160045260245ffd5b9291505056fea26469706673582212205dc566ef232231dc7df2b86bdbee1f12bade47ad1dcfab73413fbdd3bc4810b364736f6c63430008210033000000000000000000000000000000000000000000000000000000000000006000000000000000000000000000000000000000000000000000000000000000080000000000000000000000002738f38fde510743e0c589415e0598c4cee6eaa70000000000000000000000000000000000000000000000000000000000000008415553442f555344000000000000000000000000000000000000000000000000"
        }
      ],
      "isFixedGasLimit": false
    },
    {
      "hash": "0xf4fe66f9536da62fe15fc82fba36754487781bd04aa52089c52a3dfc34ff12d1",
      "transactionType": "CALL",
      "contractName": "MockChainlinkAggregator",
      "contractAddress": "0xcd0776d746d589d91b629d28b785443722cea4e1",
      "function": "setExternalProvider(address)",
      "arguments": [
        "0xabcdE369CDdD1665E4EbD9214b8e9a595271272C"
      ],
      "transaction": {
        "from": "0x2738f38fde510743e0c589415e0598c4cee6eaa7",
        "to": "0xcd0776d746d589d91b629d28b785443722cea4e1",
        "gas": "0x703a",
        "value": "0x0",
        "input": "0xe3ac8226000000000000000000000000abcde369cddd1665e4ebd9214b8e9a595271272c",
        "nonce": "0x3a",
        "chainId": "0x279f"
      },
      "additionalContracts": [],
      "isFixedGasLimit": false
    },
    {
      "hash": "0x74b9d638da37f934ccfa4f139bc966213e0fa4779b58ae0dace3f29cd19a2dae",
      "transactionType": "CALL",
      "contractName": "MockChainlinkAggregator",
      "contractAddress": "0xcd0776d746d589d91b629d28b785443722cea4e1",
      "function": "report(int256,uint256)",
      "arguments": [
        "100004830",
        "1773160292"
      ],
      "transaction": {
        "from": "0x2738f38fde510743e0c589415e0598c4cee6eaa7",
        "to": "0xcd0776d746d589d91b629d28b785443722cea4e1",
        "gas": "0x7025",
        "value": "0x0",
        "input": "0x0f3d249d0000000000000000000000000000000000000000000000000000000005f5f3de0000000000000000000000000000000000000000000000000000000069b04764",
        "nonce": "0x3b",
        "chainId": "0x279f"
      },
      "additionalContracts": [],
      "isFixedGasLimit": false
    },
    {
      "hash": "0x39cf8aac767f22dfbf18e87417b6ff5e1a0c63774e63572c022e51ba3af4f778",
      "transactionType": "CALL",
      "contractName": null,
      "contractAddress": "0xba5ed099633d3b313e4d5f7bdc1305d3c28ba5ed",
      "function": "deployCreate3(bytes32,bytes)",
      "arguments": [
        "0x2738f38fde510743e0c589415e0598c4cee6eaa7009783e668f5d054ce3ee318",
        "0x608060405234801561000f575f5ffd5b506040516109bf3803806109bf83398101604081905261002e9161011c565b806001600160a01b03811661005c57604051631e4fbdf760e01b81525f600482015260240160405180910390fd5b6100658161008e565b506001610072848261027b565b50506002805460ff191660ff9290921691909117905550610339565b5f80546001600160a01b038381166001600160a01b0319831681178455604051919092169283917f8be0079c531659141344cd1fd0a4f28419497f9722a3daafe3b4186f6b6457e09190a35050565b634e487b7160e01b5f52604160045260245ffd5b805160ff81168114610101575f5ffd5b919050565b80516001600160a01b0381168114610101575f5ffd5b5f5f5f6060848603121561012e575f5ffd5b83516001600160401b03811115610143575f5ffd5b8401601f81018613610153575f5ffd5b80516001600160401b0381111561016c5761016c6100dd565b604051601f8201601f19908116603f011681016001600160401b038111828210171561019a5761019a6100dd565b6040528181528282016020018810156101b1575f5ffd5b8160208401602083015e5f602083830101528095505050506101d5602085016100f1565b91506101e360408501610106565b90509250925092565b600181811c9082168061020057607f821691505b60208210810361021e57634e487b7160e01b5f52602260045260245ffd5b50919050565b601f821115610276578282111561027657805f5260205f20601f840160051c602085101561024f57505f5b90810190601f840160051c035f5b81811015610272575f8382015560010161025d565b5050505b505050565b81516001600160401b03811115610294576102946100dd565b6102a8816102a284546101ec565b84610224565b6020601f8211600181146102da575f83156102c35750848201515b5f19600385901b1c1916600184901b178455610332565b5f84815260208120601f198516915b8281101561030957878501518255602094850194600190920191016102e9565b508482101561032657868401515f19600387901b60f8161c191681555b505060018360011b0184555b5050505050565b610679806103465f395ff3fe608060405234801561000f575f5ffd5b50600436106100e5575f3560e01c80638da5cb5b11610088578063e1e244d811610063578063e1e244d8146101ca578063e3ac8226146101d3578063f2fde38b146101e6578063feaf968c146101f9575f5ffd5b80638da5cb5b1461019057806399213cd8146101a0578063d0b06f5d146101b3575f5ffd5b8063705b9154116100c3578063705b915414610135578063715018a6146101605780637284e416146101685780637a1395aa1461017d575f5ffd5b80630f3d249d146100e9578063313ce567146100fe578063368f186214610122575b5f5ffd5b6100fc6100f73660046104d7565b610238565b005b60025461010b9060ff1681565b60405160ff90911681526020015b60405180910390f35b6100fc6101303660046104f7565b61028a565b600554610148906001600160a01b031681565b6040516001600160a01b039091168152602001610119565b6100fc6102cd565b6101706102e0565b604051610119919061050e565b6100fc61018b366004610543565b61036c565b5f546001600160a01b0316610148565b6100fc6101ae3660046104f7565b61038a565b6101bc60045481565b604051908152602001610119565b6101bc60035481565b6100fc6101e136600461056a565b6103cd565b6100fc6101f436600461056a565b6103f7565b610201610434565b6040805169ffffffffffffffffffff968716815260208101959095528401929092526060830152909116608082015260a001610119565b5f546001600160a01b031633148061025a57506005546001600160a01b031633145b61027f5760405162461bcd60e51b815260040161027690610590565b60405180910390fd5b600391909155600455565b5f546001600160a01b03163314806102ac57506005546001600160a01b031633145b6102c85760405162461bcd60e51b815260040161027690610590565b600455565b6102d561045c565b6102de5f610488565b565b600180546102ed906105e6565b80601f0160208091040260200160405190810160405280929190818152602001828054610319906105e6565b80156103645780601f1061033b57610100808354040283529160200191610364565b820191905f5260205f20905b81548152906001019060200180831161034757829003601f168201915b505050505081565b61037461045c565b6002805460ff191660ff92909216919091179055565b5f546001600160a01b03163314806103ac57506005546001600160a01b031633145b6103c85760405162461bcd60e51b815260040161027690610590565b600355565b6103d561045c565b600580546001600160a01b0319166001600160a01b0392909216919091179055565b6103ff61045c565b6001600160a01b03811661042857604051631e4fbdf760e01b81525f6004820152602401610276565b61043181610488565b50565b5f5f5f5f5f5f6003545f60054261044b919061061e565b929891975095509093505f92509050565b5f546001600160a01b031633146102de5760405163118cdaa760e01b8152336004820152602401610276565b5f80546001600160a01b038381166001600160a01b0319831681178455604051919092169283917f8be0079c531659141344cd1fd0a4f28419497f9722a3daafe3b4186f6b6457e09190a35050565b5f5f604083850312156104e8575f5ffd5b50508035926020909101359150565b5f60208284031215610507575f5ffd5b5035919050565b602081525f82518060208401528060208501604085015e5f604082850101526040601f19601f83011684010191505092915050565b5f60208284031215610553575f5ffd5b813560ff81168114610563575f5ffd5b9392505050565b5f6020828403121561057a575f5ffd5b81356001600160a01b0381168114610563575f5ffd5b60208082526036908201527f4f6e6c79206f776e6572206f722065787465726e616c2070726f76696465722060408201527531b0b71031b0b636103a3434b990333ab731ba34b7b760511b606082015260800190565b600181811c908216806105fa57607f821691505b60208210810361061857634e487b7160e01b5f52602260045260245ffd5b50919050565b8181038181111561063d57634e487b7160e01b5f52601160045260245ffd5b9291505056fea26469706673582212205dc566ef232231dc7df2b86bdbee1f12bade47ad1dcfab73413fbdd3bc4810b364736f6c63430008210033000000000000000000000000000000000000000000000000000000000000006000000000000000000000000000000000000000000000000000000000000000120000000000000000000000002738f38fde510743e0c589415e0598c4cee6eaa700000000000000000000000000000000000000000000000000000000000000074742502f55534400000000000000000000000000000000000000000000000000"
      ],
      "transaction": {
        "from": "0x2738f38fde510743e0c589415e0598c4cee6eaa7",
        "to": "0xba5ed099633d3b313e4d5f7bdc1305d3c28ba5ed",
        "gas": "0xb697f",
        "value": "0x0",
        "input": "0x9c36a2862738f38fde510743e0c589415e0598c4cee6eaa7009783e668f5d054ce3ee31800000000000000000000000000000000000000000000000000000000000000400000000000000000000000000000000000000000000000000000000000000a5f608060405234801561000f575f5ffd5b506040516109bf3803806109bf83398101604081905261002e9161011c565b806001600160a01b03811661005c57604051631e4fbdf760e01b81525f600482015260240160405180910390fd5b6100658161008e565b506001610072848261027b565b50506002805460ff191660ff9290921691909117905550610339565b5f80546001600160a01b038381166001600160a01b0319831681178455604051919092169283917f8be0079c531659141344cd1fd0a4f28419497f9722a3daafe3b4186f6b6457e09190a35050565b634e487b7160e01b5f52604160045260245ffd5b805160ff81168114610101575f5ffd5b919050565b80516001600160a01b0381168114610101575f5ffd5b5f5f5f6060848603121561012e575f5ffd5b83516001600160401b03811115610143575f5ffd5b8401601f81018613610153575f5ffd5b80516001600160401b0381111561016c5761016c6100dd565b604051601f8201601f19908116603f011681016001600160401b038111828210171561019a5761019a6100dd565b6040528181528282016020018810156101b1575f5ffd5b8160208401602083015e5f602083830101528095505050506101d5602085016100f1565b91506101e360408501610106565b90509250925092565b600181811c9082168061020057607f821691505b60208210810361021e57634e487b7160e01b5f52602260045260245ffd5b50919050565b601f821115610276578282111561027657805f5260205f20601f840160051c602085101561024f57505f5b90810190601f840160051c035f5b81811015610272575f8382015560010161025d565b5050505b505050565b81516001600160401b03811115610294576102946100dd565b6102a8816102a284546101ec565b84610224565b6020601f8211600181146102da575f83156102c35750848201515b5f19600385901b1c1916600184901b178455610332565b5f84815260208120601f198516915b8281101561030957878501518255602094850194600190920191016102e9565b508482101561032657868401515f19600387901b60f8161c191681555b505060018360011b0184555b5050505050565b610679806103465f395ff3fe608060405234801561000f575f5ffd5b50600436106100e5575f3560e01c80638da5cb5b11610088578063e1e244d811610063578063e1e244d8146101ca578063e3ac8226146101d3578063f2fde38b146101e6578063feaf968c146101f9575f5ffd5b80638da5cb5b1461019057806399213cd8146101a0578063d0b06f5d146101b3575f5ffd5b8063705b9154116100c3578063705b915414610135578063715018a6146101605780637284e416146101685780637a1395aa1461017d575f5ffd5b80630f3d249d146100e9578063313ce567146100fe578063368f186214610122575b5f5ffd5b6100fc6100f73660046104d7565b610238565b005b60025461010b9060ff1681565b60405160ff90911681526020015b60405180910390f35b6100fc6101303660046104f7565b61028a565b600554610148906001600160a01b031681565b6040516001600160a01b039091168152602001610119565b6100fc6102cd565b6101706102e0565b604051610119919061050e565b6100fc61018b366004610543565b61036c565b5f546001600160a01b0316610148565b6100fc6101ae3660046104f7565b61038a565b6101bc60045481565b604051908152602001610119565b6101bc60035481565b6100fc6101e136600461056a565b6103cd565b6100fc6101f436600461056a565b6103f7565b610201610434565b6040805169ffffffffffffffffffff968716815260208101959095528401929092526060830152909116608082015260a001610119565b5f546001600160a01b031633148061025a57506005546001600160a01b031633145b61027f5760405162461bcd60e51b815260040161027690610590565b60405180910390fd5b600391909155600455565b5f546001600160a01b03163314806102ac57506005546001600160a01b031633145b6102c85760405162461bcd60e51b815260040161027690610590565b600455565b6102d561045c565b6102de5f610488565b565b600180546102ed906105e6565b80601f0160208091040260200160405190810160405280929190818152602001828054610319906105e6565b80156103645780601f1061033b57610100808354040283529160200191610364565b820191905f5260205f20905b81548152906001019060200180831161034757829003601f168201915b505050505081565b61037461045c565b6002805460ff191660ff92909216919091179055565b5f546001600160a01b03163314806103ac57506005546001600160a01b031633145b6103c85760405162461bcd60e51b815260040161027690610590565b600355565b6103d561045c565b600580546001600160a01b0319166001600160a01b0392909216919091179055565b6103ff61045c565b6001600160a01b03811661042857604051631e4fbdf760e01b81525f6004820152602401610276565b61043181610488565b50565b5f5f5f5f5f5f6003545f60054261044b919061061e565b929891975095509093505f92509050565b5f546001600160a01b031633146102de5760405163118cdaa760e01b8152336004820152602401610276565b5f80546001600160a01b038381166001600160a01b0319831681178455604051919092169283917f8be0079c531659141344cd1fd0a4f28419497f9722a3daafe3b4186f6b6457e09190a35050565b5f5f604083850312156104e8575f5ffd5b50508035926020909101359150565b5f60208284031215610507575f5ffd5b5035919050565b602081525f82518060208401528060208501604085015e5f604082850101526040601f19601f83011684010191505092915050565b5f60208284031215610553575f5ffd5b813560ff81168114610563575f5ffd5b9392505050565b5f6020828403121561057a575f5ffd5b81356001600160a01b0381168114610563575f5ffd5b60208082526036908201527f4f6e6c79206f776e6572206f722065787465726e616c2070726f76696465722060408201527531b0b71031b0b636103a3434b990333ab731ba34b7b760511b606082015260800190565b600181811c908216806105fa57607f821691505b60208210810361061857634e487b7160e01b5f52602260045260245ffd5b50919050565b8181038181111561063d57634e487b7160e01b5f52601160045260245ffd5b9291505056fea26469706673582212205dc566ef232231dc7df2b86bdbee1f12bade47ad1dcfab73413fbdd3bc4810b364736f6c63430008210033000000000000000000000000000000000000000000000000000000000000006000000000000000000000000000000000000000000000000000000000000000120000000000000000000000002738f38fde510743e0c589415e0598c4cee6eaa700000000000000000000000000000000000000000000000000000000000000074742502f5553440000000000000000000000000000000000000000000000000000",
        "nonce": "0x3c",
        "chainId": "0x279f"
      },
      "additionalContracts": [
        {
          "transactionType": "CREATE2",
          "contractName": null,
          "address": "0xf71c40e994f83bf9de895f50a5f0593fb6dbf4af",
          "initCode": "0x67363d3d37363d34f03d5260086018f3"
        },
        {
          "transactionType": "CREATE",
          "contractName": "MockChainlinkAggregator",
          "address": "0xf66908600d412898a40db9be6d58125979b57326",
          "initCode": "0x608060405234801561000f575f5ffd5b506040516109bf3803806109bf83398101604081905261002e9161011c565b806001600160a01b03811661005c57604051631e4fbdf760e01b81525f600482015260240160405180910390fd5b6100658161008e565b506001610072848261027b565b50506002805460ff191660ff9290921691909117905550610339565b5f80546001600160a01b038381166001600160a01b0319831681178455604051919092169283917f8be0079c531659141344cd1fd0a4f28419497f9722a3daafe3b4186f6b6457e09190a35050565b634e487b7160e01b5f52604160045260245ffd5b805160ff81168114610101575f5ffd5b919050565b80516001600160a01b0381168114610101575f5ffd5b5f5f5f6060848603121561012e575f5ffd5b83516001600160401b03811115610143575f5ffd5b8401601f81018613610153575f5ffd5b80516001600160401b0381111561016c5761016c6100dd565b604051601f8201601f19908116603f011681016001600160401b038111828210171561019a5761019a6100dd565b6040528181528282016020018810156101b1575f5ffd5b8160208401602083015e5f602083830101528095505050506101d5602085016100f1565b91506101e360408501610106565b90509250925092565b600181811c9082168061020057607f821691505b60208210810361021e57634e487b7160e01b5f52602260045260245ffd5b50919050565b601f821115610276578282111561027657805f5260205f20601f840160051c602085101561024f57505f5b90810190601f840160051c035f5b81811015610272575f8382015560010161025d565b5050505b505050565b81516001600160401b03811115610294576102946100dd565b6102a8816102a284546101ec565b84610224565b6020601f8211600181146102da575f83156102c35750848201515b5f19600385901b1c1916600184901b178455610332565b5f84815260208120601f198516915b8281101561030957878501518255602094850194600190920191016102e9565b508482101561032657868401515f19600387901b60f8161c191681555b505060018360011b0184555b5050505050565b610679806103465f395ff3fe608060405234801561000f575f5ffd5b50600436106100e5575f3560e01c80638da5cb5b11610088578063e1e244d811610063578063e1e244d8146101ca578063e3ac8226146101d3578063f2fde38b146101e6578063feaf968c146101f9575f5ffd5b80638da5cb5b1461019057806399213cd8146101a0578063d0b06f5d146101b3575f5ffd5b8063705b9154116100c3578063705b915414610135578063715018a6146101605780637284e416146101685780637a1395aa1461017d575f5ffd5b80630f3d249d146100e9578063313ce567146100fe578063368f186214610122575b5f5ffd5b6100fc6100f73660046104d7565b610238565b005b60025461010b9060ff1681565b60405160ff90911681526020015b60405180910390f35b6100fc6101303660046104f7565b61028a565b600554610148906001600160a01b031681565b6040516001600160a01b039091168152602001610119565b6100fc6102cd565b6101706102e0565b604051610119919061050e565b6100fc61018b366004610543565b61036c565b5f546001600160a01b0316610148565b6100fc6101ae3660046104f7565b61038a565b6101bc60045481565b604051908152602001610119565b6101bc60035481565b6100fc6101e136600461056a565b6103cd565b6100fc6101f436600461056a565b6103f7565b610201610434565b6040805169ffffffffffffffffffff968716815260208101959095528401929092526060830152909116608082015260a001610119565b5f546001600160a01b031633148061025a57506005546001600160a01b031633145b61027f5760405162461bcd60e51b815260040161027690610590565b60405180910390fd5b600391909155600455565b5f546001600160a01b03163314806102ac57506005546001600160a01b031633145b6102c85760405162461bcd60e51b815260040161027690610590565b600455565b6102d561045c565b6102de5f610488565b565b600180546102ed906105e6565b80601f0160208091040260200160405190810160405280929190818152602001828054610319906105e6565b80156103645780601f1061033b57610100808354040283529160200191610364565b820191905f5260205f20905b81548152906001019060200180831161034757829003601f168201915b505050505081565b61037461045c565b6002805460ff191660ff92909216919091179055565b5f546001600160a01b03163314806103ac57506005546001600160a01b031633145b6103c85760405162461bcd60e51b815260040161027690610590565b600355565b6103d561045c565b600580546001600160a01b0319166001600160a01b0392909216919091179055565b6103ff61045c565b6001600160a01b03811661042857604051631e4fbdf760e01b81525f6004820152602401610276565b61043181610488565b50565b5f5f5f5f5f5f6003545f60054261044b919061061e565b929891975095509093505f92509050565b5f546001600160a01b031633146102de5760405163118cdaa760e01b8152336004820152602401610276565b5f80546001600160a01b038381166001600160a01b0319831681178455604051919092169283917f8be0079c531659141344cd1fd0a4f28419497f9722a3daafe3b4186f6b6457e09190a35050565b5f5f604083850312156104e8575f5ffd5b50508035926020909101359150565b5f60208284031215610507575f5ffd5b5035919050565b602081525f82518060208401528060208501604085015e5f604082850101526040601f19601f83011684010191505092915050565b5f60208284031215610553575f5ffd5b813560ff81168114610563575f5ffd5b9392505050565b5f6020828403121561057a575f5ffd5b81356001600160a01b0381168114610563575f5ffd5b60208082526036908201527f4f6e6c79206f776e6572206f722065787465726e616c2070726f76696465722060408201527531b0b71031b0b636103a3434b990333ab731ba34b7b760511b606082015260800190565b600181811c908216806105fa57607f821691505b60208210810361061857634e487b7160e01b5f52602260045260245ffd5b50919050565b8181038181111561063d57634e487b7160e01b5f52601160045260245ffd5b9291505056fea26469706673582212205dc566ef232231dc7df2b86bdbee1f12bade47ad1dcfab73413fbdd3bc4810b364736f6c63430008210033000000000000000000000000000000000000000000000000000000000000006000000000000000000000000000000000000000000000000000000000000000120000000000000000000000002738f38fde510743e0c589415e0598c4cee6eaa700000000000000000000000000000000000000000000000000000000000000074742502f55534400000000000000000000000000000000000000000000000000"
        }
      ],
      "isFixedGasLimit": false
    },
    {
      "hash": "0x973a0ec4bf773b05a3b82e961a1826ba40b75b002fcac3d8bd7d6990e2649c3a",
      "transactionType": "CALL",
      "contractName": "MockChainlinkAggregator",
      "contractAddress": "0xf66908600d412898a40db9be6d58125979b57326",
      "function": "setExternalProvider(address)",
      "arguments": [
        "0xabcdE369CDdD1665E4EbD9214b8e9a595271272C"
      ],
      "transaction": {
        "from": "0x2738f38fde510743e0c589415e0598c4cee6eaa7",
        "to": "0xf66908600d412898a40db9be6d58125979b57326",
        "gas": "0x703a",
        "value": "0x0",
        "input": "0xe3ac8226000000000000000000000000abcde369cddd1665e4ebd9214b8e9a595271272c",
        "nonce": "0x3d",
        "chainId": "0x279f"
      },
      "additionalContracts": [],
      "isFixedGasLimit": false
    },
    {
      "hash": "0xde766c44cc6bc73b08a0188ada93983176d4ea1fcbddfbb9dae24ff2b6d34fc0",
      "transactionType": "CALL",
      "contractName": "MockChainlinkAggregator",
      "contractAddress": "0xf66908600d412898a40db9be6d58125979b57326",
      "function": "report(int256,uint256)",
      "arguments": [
        "1345750000000000000",
        "1773160292"
      ],
      "transaction": {
        "from": "0x2738f38fde510743e0c589415e0598c4cee6eaa7",
        "to": "0xf66908600d412898a40db9be6d58125979b57326",
        "gas": "0x7207",
        "value": "0x0",
        "input": "0x0f3d249d00000000000000000000000000000000000000000000000012ad107eb27b60000000000000000000000000000000000000000000000000000000000069b04764",
        "nonce": "0x3e",
        "chainId": "0x279f"
      },
      "additionalContracts": [],
      "isFixedGasLimit": false
    }
  ],
  "receipts": [
    {
      "status": "0x1",
      "cumulativeGasUsed": "0x138898",
      "logs": [
        {
          "address": "0xba5ed099633d3b313e4d5f7bdc1305d3c28ba5ed",
          "topics": [
            "0x2feea65dd4e9f9cbd86b74b7734210c59a1b2981b5b137bd0ee3e208200c9067",
            "0x000000000000000000000000e9b0a7191a7d6799fd4e15840d557d7a48541d03",
            "0x9db957511a9c866409ee5a784b90af39befc815c0e585cd696fb901f13f4d001"
          ],
          "data": "0x",
          "blockHash": "0xc55b850ac1562f4c2730232a4fbcd9f6b84dfc7cac272b53cf85806fb647fbe5",
          "blockNumber": "0x111a00f",
          "blockTimestamp": "0x69b04766",
          "transactionHash": "0x43308d1c8785b6e2387267ac566aa0586d24d1983c8426cce8b0afd6b688c604",
          "transactionIndex": "0x5",
          "logIndex": "0x9",
          "removed": false
        },
        {
          "address": "0xb1d1d3382d0f26493063cb7188eb479d45a44cdf",
          "topics": [
            "0x8be0079c531659141344cd1fd0a4f28419497f9722a3daafe3b4186f6b6457e0",
            "0x0000000000000000000000000000000000000000000000000000000000000000",
            "0x0000000000000000000000002738f38fde510743e0c589415e0598c4cee6eaa7"
          ],
          "data": "0x",
          "blockHash": "0xc55b850ac1562f4c2730232a4fbcd9f6b84dfc7cac272b53cf85806fb647fbe5",
          "blockNumber": "0x111a00f",
          "blockTimestamp": "0x69b04766",
          "transactionHash": "0x43308d1c8785b6e2387267ac566aa0586d24d1983c8426cce8b0afd6b688c604",
          "transactionIndex": "0x5",
          "logIndex": "0xa",
          "removed": false
        },
        {
          "address": "0xba5ed099633d3b313e4d5f7bdc1305d3c28ba5ed",
          "topics": [
            "0x4db17dd5e4732fb6da34a148104a592783ca119a1e7bb8829eba6cbadef0b511",
            "0x000000000000000000000000b1d1d3382d0f26493063cb7188eb479d45a44cdf"
          ],
          "data": "0x",
          "blockHash": "0xc55b850ac1562f4c2730232a4fbcd9f6b84dfc7cac272b53cf85806fb647fbe5",
          "blockNumber": "0x111a00f",
          "blockTimestamp": "0x69b04766",
          "transactionHash": "0x43308d1c8785b6e2387267ac566aa0586d24d1983c8426cce8b0afd6b688c604",
          "transactionIndex": "0x5",
          "logIndex": "0xb",
          "removed": false
        }
      ],
      "logsBloom": "0x00020100000000000000000100000000000000000000000800800000200000000000080000000000000000000000000000000002000004000000000000000000002000000000000000000000020000000001000000000000000000000000000000000000020000800000000000000800000000000020000000000100000000400000000002000000000000000000000000000000000000000000004000000010000000000008000000000000000000000000000000000000000000000000000000040800000000000200010000000000000000002000000000000000000020000000000000000200000000000020000000000000000000000000000000000000",
      "type": "0x2",
      "transactionHash": "0x43308d1c8785b6e2387267ac566aa0586d24d1983c8426cce8b0afd6b688c604",
      "transactionIndex": "0x5",
      "blockHash": "0xc55b850ac1562f4c2730232a4fbcd9f6b84dfc7cac272b53cf85806fb647fbe5",
      "blockNumber": "0x111a00f",
      "gasUsed": "0xb6375",
      "effectiveGasPrice": "0x1836e21000",
      "from": "0x2738f38fde510743e0c589415e0598c4cee6eaa7",
      "to": "0xba5ed099633d3b313e4d5f7bdc1305d3c28ba5ed",
      "contractAddress": null
    },
    {
      "status": "0x1",
      "cumulativeGasUsed": "0x1eb47d",
      "logs": [],
      "logsBloom": "0x00000000000000000000000000000000000000000000000000000000000000000000000000000000000000000000000000000000000000000000000000000000000000000000000000000000000000000000000000000000000000000000000000000000000000000000000000000000000000000000000000000000000000000000000000000000000000000000000000000000000000000000000000000000000000000000000000000000000000000000000000000000000000000000000000000000000000000000000000000000000000000000000000000000000000000000000000000000000000000000000000000000000000000000000000000000",
      "type": "0x2",
      "transactionHash": "0x167c1cb77d7ea0d337ab798d1d71ad309c591a2b2454eb679787c096fa759696",
      "transactionIndex": "0x4",
      "blockHash": "0x4bbef9b9f1effadcda102390d7c36a7eb052b686bf9ac55ee60c56bcb027b874",
      "blockNumber": "0x111a013",
      "gasUsed": "0x12afd",
      "effectiveGasPrice": "0x1836e21000",
      "from": "0x2738f38fde510743e0c589415e0598c4cee6eaa7",
      "to": "0xb1d1d3382d0f26493063cb7188eb479d45a44cdf",
      "contractAddress": null
    },
    {
      "status": "0x1",
      "cumulativeGasUsed": "0x5b1a0",
      "logs": [],
      "logsBloom": "0x00000000000000000000000000000000000000000000000000000000000000000000000000000000000000000000000000000000000000000000000000000000000000000000000000000000000000000000000000000000000000000000000000000000000000000000000000000000000000000000000000000000000000000000000000000000000000000000000000000000000000000000000000000000000000000000000000000000000000000000000000000000000000000000000000000000000000000000000000000000000000000000000000000000000000000000000000000000000000000000000000000000000000000000000000000000",
      "type": "0x2",
      "transactionHash": "0x0626ec77f934694478ade9ec828ae12906a14d43bdf6b00f78775859496b7f05",
      "transactionIndex": "0x3",
      "blockHash": "0x78b397d27f18ae9d84763aa6ce902232a1ed0799323616ae19659f775d505d61",
      "blockNumber": "0x111a018",
      "gasUsed": "0x1b9a2",
      "effectiveGasPrice": "0x1836e21000",
      "from": "0x2738f38fde510743e0c589415e0598c4cee6eaa7",
      "to": "0xb1d1d3382d0f26493063cb7188eb479d45a44cdf",
      "contractAddress": null
    },
    {
      "status": "0x1",
      "cumulativeGasUsed": "0xf5b77",
      "logs": [
        {
          "address": "0xba5ed099633d3b313e4d5f7bdc1305d3c28ba5ed",
          "topics": [
            "0x2feea65dd4e9f9cbd86b74b7734210c59a1b2981b5b137bd0ee3e208200c9067",
            "0x0000000000000000000000000673b903a8450be75000fef00247c28c19f808b2",
            "0x48b9ac3789a496ca0ecce0909454474bf02c934e702de84552b6fa32f993ee5b"
          ],
          "data": "0x",
          "blockHash": "0x8406d11b20c10f2ef17b6fc63de6425d6cba9a8b9a129cfc871b9d4b7aef5c3e",
          "blockNumber": "0x111a01c",
          "blockTimestamp": "0x69b0476b",
          "transactionHash": "0x82414f0f5c7094699c3fb36206f25c67d805ce0ce1f1f3923bfe2af0d42c6d39",
          "transactionIndex": "0x3",
          "logIndex": "0x6",
          "removed": false
        },
        {
          "address": "0xcd0776d746d589d91b629d28b785443722cea4e1",
          "topics": [
            "0x8be0079c531659141344cd1fd0a4f28419497f9722a3daafe3b4186f6b6457e0",
            "0x0000000000000000000000000000000000000000000000000000000000000000",
            "0x0000000000000000000000002738f38fde510743e0c589415e0598c4cee6eaa7"
          ],
          "data": "0x",
          "blockHash": "0x8406d11b20c10f2ef17b6fc63de6425d6cba9a8b9a129cfc871b9d4b7aef5c3e",
          "blockNumber": "0x111a01c",
          "blockTimestamp": "0x69b0476b",
          "transactionHash": "0x82414f0f5c7094699c3fb36206f25c67d805ce0ce1f1f3923bfe2af0d42c6d39",
          "transactionIndex": "0x3",
          "logIndex": "0x7",
          "removed": false
        },
        {
          "address": "0xba5ed099633d3b313e4d5f7bdc1305d3c28ba5ed",
          "topics": [
            "0x4db17dd5e4732fb6da34a148104a592783ca119a1e7bb8829eba6cbadef0b511",
            "0x000000000000000000000000cd0776d746d589d91b629d28b785443722cea4e1"
          ],
          "data": "0x",
          "blockHash": "0x8406d11b20c10f2ef17b6fc63de6425d6cba9a8b9a129cfc871b9d4b7aef5c3e",
          "blockNumber": "0x111a01c",
          "blockTimestamp": "0x69b0476b",
          "transactionHash": "0x82414f0f5c7094699c3fb36206f25c67d805ce0ce1f1f3923bfe2af0d42c6d39",
          "transactionIndex": "0x3",
          "logIndex": "0x8",
          "removed": false
        }
      ],
      "logsBloom": "0x0002000000000000000000000000000000000000000000000080000020000000000000000000000000004000000000000000000000200c000000000000000000002000000000000000000000020000000001000000000000000000000000000000000000020000000000000000020800000000000020000000000000000001400200000000000000000000000000000000000010000000000000004000000010000000000000000100000000000000000000000000000000000002000000000000000800000080000200000000000000000000002000000000000000000020000000000000020200000000000000000000000000000000000000000000001000",
      "type": "0x2",
      "transactionHash": "0x82414f0f5c7094699c3fb36206f25c67d805ce0ce1f1f3923bfe2af0d42c6d39",
      "transactionIndex": "0x3",
      "blockHash": "0x8406d11b20c10f2ef17b6fc63de6425d6cba9a8b9a129cfc871b9d4b7aef5c3e",
      "blockNumber": "0x111a01c",
      "gasUsed": "0xb634f",
      "effectiveGasPrice": "0x1836e21000",
      "from": "0x2738f38fde510743e0c589415e0598c4cee6eaa7",
      "to": "0xba5ed099633d3b313e4d5f7bdc1305d3c28ba5ed",
      "contractAddress": null
    },
    {
      "status": "0x1",
      "cumulativeGasUsed": "0x52356",
      "logs": [],
      "logsBloom": "0x00000000000000000000000000000000000000000000000000000000000000000000000000000000000000000000000000000000000000000000000000000000000000000000000000000000000000000000000000000000000000000000000000000000000000000000000000000000000000000000000000000000000000000000000000000000000000000000000000000000000000000000000000000000000000000000000000000000000000000000000000000000000000000000000000000000000000000000000000000000000000000000000000000000000000000000000000000000000000000000000000000000000000000000000000000000",
      "type": "0x2",
      "transactionHash": "0xf4fe66f9536da62fe15fc82fba36754487781bd04aa52089c52a3dfc34ff12d1",
      "transactionIndex": "0x3",
      "blockHash": "0xf270f1bc1bb5bee8a29989d41e7e8edc237095bfb74871236a8fb245ee567a16",
      "blockNumber": "0x111a01d",
      "gasUsed": "0x12afd",
      "effectiveGasPrice": "0x1836e21000",
      "from": "0x2738f38fde510743e0c589415e0598c4cee6eaa7",
      "to": "0xcd0776d746d589d91b629d28b785443722cea4e1",
      "contractAddress": null
    },
    {
      "status": "0x1",
      "cumulativeGasUsed": "0x7e655",
      "logs": [],
      "logsBloom": "0x00000000000000000000000000000000000000000000000000000000000000000000000000000000000000000000000000000000000000000000000000000000000000000000000000000000000000000000000000000000000000000000000000000000000000000000000000000000000000000000000000000000000000000000000000000000000000000000000000000000000000000000000000000000000000000000000000000000000000000000000000000000000000000000000000000000000000000000000000000000000000000000000000000000000000000000000000000000000000000000000000000000000000000000000000000000",
      "type": "0x2",
      "transactionHash": "0x74b9d638da37f934ccfa4f139bc966213e0fa4779b58ae0dace3f29cd19a2dae",
      "transactionIndex": "0x4",
      "blockHash": "0x1ee4c14a6c5c5df72146d94dbaf97d0d5acf741bacd7a3b66e31f4c7277a673a",
      "blockNumber": "0x111a021",
      "gasUsed": "0x1b9a2",
      "effectiveGasPrice": "0x1836e21000",
      "from": "0x2738f38fde510743e0c589415e0598c4cee6eaa7",
      "to": "0xcd0776d746d589d91b629d28b785443722cea4e1",
      "contractAddress": null
    },
    {
      "status": "0x1",
      "cumulativeGasUsed": "0xf5b49",
      "logs": [
        {
          "address": "0xba5ed099633d3b313e4d5f7bdc1305d3c28ba5ed",
          "topics": [
            "0x2feea65dd4e9f9cbd86b74b7734210c59a1b2981b5b137bd0ee3e208200c9067",
            "0x000000000000000000000000f71c40e994f83bf9de895f50a5f0593fb6dbf4af",
            "0x18484cc297d5bc9223dee1320da9bc4f2b63577508d977e69ffd1e4602691f58"
          ],
          "data": "0x",
          "blockHash": "0xaa5e29d896a6a47191e6b02843effc24b52a4e562396ee974143c3645aa23a9f",
          "blockNumber": "0x111a025",
          "blockTimestamp": "0x69b0476f",
          "transactionHash": "0x39cf8aac767f22dfbf18e87417b6ff5e1a0c63774e63572c022e51ba3af4f778",
          "transactionIndex": "0x3",
          "logIndex": "0x6",
          "removed": false
        },
        {
          "address": "0xf66908600d412898a40db9be6d58125979b57326",
          "topics": [
            "0x8be0079c531659141344cd1fd0a4f28419497f9722a3daafe3b4186f6b6457e0",
            "0x0000000000000000000000000000000000000000000000000000000000000000",
            "0x0000000000000000000000002738f38fde510743e0c589415e0598c4cee6eaa7"
          ],
          "data": "0x",
          "blockHash": "0xaa5e29d896a6a47191e6b02843effc24b52a4e562396ee974143c3645aa23a9f",
          "blockNumber": "0x111a025",
          "blockTimestamp": "0x69b0476f",
          "transactionHash": "0x39cf8aac767f22dfbf18e87417b6ff5e1a0c63774e63572c022e51ba3af4f778",
          "transactionIndex": "0x3",
          "logIndex": "0x7",
          "removed": false
        },
        {
          "address": "0xba5ed099633d3b313e4d5f7bdc1305d3c28ba5ed",
          "topics": [
            "0x4db17dd5e4732fb6da34a148104a592783ca119a1e7bb8829eba6cbadef0b511",
            "0x000000000000000000000000f66908600d412898a40db9be6d58125979b57326"
          ],
          "data": "0x",
          "blockHash": "0xaa5e29d896a6a47191e6b02843effc24b52a4e562396ee974143c3645aa23a9f",
          "blockNumber": "0x111a025",
          "blockTimestamp": "0x69b0476f",
          "transactionHash": "0x39cf8aac767f22dfbf18e87417b6ff5e1a0c63774e63572c022e51ba3af4f778",
          "transactionIndex": "0x3",
          "logIndex": "0x8",
          "removed": false
        }
      ],
      "logsBloom": "0x00020000000000000000000000000000000000000000000000800000602000000000000000000000000000100000000000000000000004000000000000000000002000000000000000000000020000000001010000000000000000000000100000000000020000000000000000000800000000000020000000000000000000400000000000000004000000000000000400000000000000000000004000000010000008000000000000000000000000000800000000000000000000000000000000020800000000000200000000000000000000082000000000000000000020000000000000800200000000000000000000000000000000000000000000000000",
      "type": "0x2",
      "transactionHash": "0x39cf8aac767f22dfbf18e87417b6ff5e1a0c63774e63572c022e51ba3af4f778",
      "transactionIndex": "0x3",
      "blockHash": "0xaa5e29d896a6a47191e6b02843effc24b52a4e562396ee974143c3645aa23a9f",
      "blockNumber": "0x111a025",
      "gasUsed": "0xb631a",
      "effectiveGasPrice": "0x1836e21000",
      "from": "0x2738f38fde510743e0c589415e0598c4cee6eaa7",
      "to": "0xba5ed099633d3b313e4d5f7bdc1305d3c28ba5ed",
      "contractAddress": null
    },
    {
      "status": "0x1",
      "cumulativeGasUsed": "0x522fb",
      "logs": [],
      "logsBloom": "0x00000000000000000000000000000000000000000000000000000000000000000000000000000000000000000000000000000000000000000000000000000000000000000000000000000000000000000000000000000000000000000000000000000000000000000000000000000000000000000000000000000000000000000000000000000000000000000000000000000000000000000000000000000000000000000000000000000000000000000000000000000000000000000000000000000000000000000000000000000000000000000000000000000000000000000000000000000000000000000000000000000000000000000000000000000000",
      "type": "0x2",
      "transactionHash": "0x973a0ec4bf773b05a3b82e961a1826ba40b75b002fcac3d8bd7d6990e2649c3a",
      "transactionIndex": "0x3",
      "blockHash": "0x39fc2048afc587e94f5a716040d1eb18b93e478e8208c45373cacea8a4c43e13",
      "blockNumber": "0x111a02a",
      "gasUsed": "0x12afd",
      "effectiveGasPrice": "0x1836e21000",
      "from": "0x2738f38fde510743e0c589415e0598c4cee6eaa7",
      "to": "0xf66908600d412898a40db9be6d58125979b57326",
      "contractAddress": null
    },
    {
      "status": "0x1",
      "cumulativeGasUsed": "0x5b1dd",
      "logs": [],
      "logsBloom": "0x00000000000000000000000000000000000000000000000000000000000000000000000000000000000000000000000000000000000000000000000000000000000000000000000000000000000000000000000000000000000000000000000000000000000000000000000000000000000000000000000000000000000000000000000000000000000000000000000000000000000000000000000000000000000000000000000000000000000000000000000000000000000000000000000000000000000000000000000000000000000000000000000000000000000000000000000000000000000000000000000000000000000000000000000000000000",
      "type": "0x2",
      "transactionHash": "0xde766c44cc6bc73b08a0188ada93983176d4ea1fcbddfbb9dae24ff2b6d34fc0",
      "transactionIndex": "0x3",
      "blockHash": "0x31c08103742e26fce61bb6696ae9955520432991ff825c2642574ba5e32e4e6d",
      "blockNumber": "0x111a02e",
      "gasUsed": "0x1b9d1",
      "effectiveGasPrice": "0x1836e21000",
      "from": "0x2738f38fde510743e0c589415e0598c4cee6eaa7",
      "to": "0xf66908600d412898a40db9be6d58125979b57326",
      "contractAddress": null
    }
  ],
  "libraries": [
    "lib/mento-core/node_modules/@celo/contracts/common/linkedlists/AddressSortedLinkedListWithMedian.sol:AddressSortedLinkedListWithMedian:0x8E1B1312EC92C9f8073296c4Cf1E60D31d228269"
  ],
  "pending": [],
  "returns": {},
  "timestamp": 1773160308671,
  "chain": 10143,
  "commit": "ed817e1"
}