{
  "transactions": [
    {
      "hash": "0xd24b90998a5cd0dce6a027237b30e559dd582425ebfd629ae578b2d40cbefad7",
      "transactionType": "CALL",
      "contractName": null,
      "contractAddress": "0x32cb58b145d3f7e28c45ce4b2cc31fa94248b23f",
      "function": "execTransaction(address,uint256,bytes,uint8,uint256,uint256,uint256,address,address,bytes)",
      "arguments": [
        "0x40A2aCCbd92BCA938b02010E17A5b8929b49130D",
        "0",
        "0x8d80ff0a000000000000000000000000000000000000000000000000000000000000002000000000000000000000000000000000000000000000000000000000000001b200c59d19ff6ff11d7a4725d5125af8ea11f73ad5e100000000000000000000000000000000000000000000000000000000000000000000000000000000000000000000000000000000000000000000000000000044095ea7b30000000000000000000000004740ad3e0052d3e792b3db3368317402bab90f870000000000000000000000000000000000000000000000008ac7230489e80000004740ad3e0052d3e792b3db3368317402bab90f87000000000000000000000000000000000000000000000000000000000000000000000000000000000000000000000000000000000000000000000000000000c4ddbbe85000000000000000000000000011625bea35264a0df5c89e89a849cc47f83059b33de090ec85aede9f99732eacb5852d5b6915e4436177cfc2777958c3301f6f3d000000000000000000000000c59d19ff6ff11d7a4725d5125af8ea11f73ad5e10000000000000000000000006089e544bbd880529947c7a39865548815cf41f00000000000000000000000000000000000000000000000008ac7230489e8000000000000000000000000000000000000000000000000000000000000000000000000000000000000000000000000",
        "1",
        "0",
        "0",
        "0",
        "0x0000000000000000000000000000000000000000",
        "0x0000000000000000000000000000000000000000",
        "0x35ce88958295a208ba87761aa1bdb38592bc1a74780f957e7c66808975b9ade945b09a9da9848719321a35fdb7b39a62ff7fe376e13cfecfa7c2a452abbeded51c"
      ],
      "transaction": {
        "from": "0x56fd3f2bee130e9867942d0f463a16fbe49b8d81",
        "to": "0x32cb58b145d3f7e28c45ce4b2cc31fa94248b23f",
        "gas": "0x1d79e44",
        "value": "0x0",
        "input": "0x6a76120200000000000000000000000040a2accbd92bca938b02010e17a5b8929b49130d00000000000000000000000000000000000000000000000000000000000000000000000000000000000000000000000000000000000000000000000000000140000000000000000000000000000000000000000000000000000000000000000100000000000000000000000000000000000000000000000000000000000000000000000000000000000000000000000000000000000000000000000000000000000000000000000000000000000000000000000000000000000000000000000000000000000000000000000000000000000000000000000000000000000000000000000000000000000000000000000000000000000000000000000000000000000000000000000000000000000000000000000000000000000000000000038000000000000000000000000000000000000000000000000000000000000002048d80ff0a000000000000000000000000000000000000000000000000000000000000002000000000000000000000000000000000000000000000000000000000000001b200c59d19ff6ff11d7a4725d5125af8ea11f73ad5e100000000000000000000000000000000000000000000000000000000000000000000000000000000000000000000000000000000000000000000000000000044095ea7b30000000000000000000000004740ad3e0052d3e792b3db3368317402bab90f870000000000000000000000000000000000000000000000008ac7230489e80000004740ad3e0052d3e792b3db3368317402bab90f87000000000000000000000000000000000000000000000000000000000000000000000000000000000000000000000000000000000000000000000000000000c4ddbbe85000000000000000000000000011625bea35264a0df5c89e89a849cc47f83059b33de090ec85aede9f99732eacb5852d5b6915e4436177cfc2777958c3301f6f3d000000000000000000000000c59d19ff6ff11d7a4725d5125af8ea11f73ad5e10000000000000000000000006089e544bbd880529947c7a39865548815cf41f00000000000000000000000000000000000000000000000008ac7230489e800000000000000000000000000000000000000000000000000000000000000000000000000000000000000000000000000000000000000000000000000000000000000000000000000000000000000000000000000000000000000000000000000000000000000000000004135ce88958295a208ba87761aa1bdb38592bc1a74780f957e7c66808975b9ade945b09a9da9848719321a35fdb7b39a62ff7fe376e13cfecfa7c2a452abbeded51c00000000000000000000000000000000000000000000000000000000000000",
        "nonce": "0x11",
        "chainId": "0x2105"
      },
      "additionalContracts": [],
      "isFixedGasLimit": true
    }
  ],
  "receipts": [
    {
      "status": "0x1",
      "cumulativeGasUsed": "0x47c3f",
      "logs": [
        {
          "address": "0x32cb58b145d3f7e28c45ce4b2cc31fa94248b23f",
          "topics": [
            "0x66753cd2356569ee081232e3be8909b950e0a76c1f8460c3a5e3c2be32b11bed"
          ],
          "data": "0x00000000000000000000000040a2accbd92bca938b02010e17a5b8929b49130d0000000000000000000000000000000000000000000000000000000000000000000000000000000000000000000000000000000000000000000000000000016000000000000000000000000000000000000000000000000000000000000000010000000000000000000000000000000000000000000000000000000000000000000000000000000000000000000000000000000000000000000000000000000000000000000000000000000000000000000000000000000000000000000000000000000000000000000000000000000000000000000000000000000000000000000000000000000000000000000000000000000000000000000000000000000000000000000000000000000000000000000000000000000000000000000003a0000000000000000000000000000000000000000000000000000000000000042000000000000000000000000000000000000000000000000000000000000002048d80ff0a000000000000000000000000000000000000000000000000000000000000002000000000000000000000000000000000000000000000000000000000000001b200c59d19ff6ff11d7a4725d5125af8ea11f73ad5e100000000000000000000000000000000000000000000000000000000000000000000000000000000000000000000000000000000000000000000000000000044095ea7b30000000000000000000000004740ad3e0052d3e792b3db3368317402bab90f870000000000000000000000000000000000000000000000008ac7230489e80000004740ad3e0052d3e792b3db3368317402bab90f87000000000000000000000000000000000000000000000000000000000000000000000000000000000000000000000000000000000000000000000000000000c4ddbbe85000000000000000000000000011625bea35264a0df5c89e89a849cc47f83059b33de090ec85aede9f99732eacb5852d5b6915e4436177cfc2777958c3301f6f3d000000000000000000000000c59d19ff6ff11d7a4725d5125af8ea11f73ad5e10000000000000000000000006089e544bbd880529947c7a39865548815cf41f00000000000000000000000000000000000000000000000008ac7230489e800000000000000000000000000000000000000000000000000000000000000000000000000000000000000000000000000000000000000000000000000000000000000000000000000000000000000000000000000000000000000000000000000000000000000000000004135ce88958295a208ba87761aa1bdb38592bc1a74780f957e7c66808975b9ade945b09a9da9848719321a35fdb7b39a62ff7fe376e13cfecfa7c2a452abbeded51c000000000000000000000000000000000000000000000000000000000000000000000000000000000000000000000000000000000000000000000000000060000000000000000000000000000000000000000000000000000000000000001000000000000000000000000056fd3f2bee130e9867942d0f463a16fbe49b8d810000000000000000000000000000000000000000000000000000000000000001",
          "blockHash": "0x736cb3f46c26813e3da519bb0c8773a9d755f1a629658bd8755b67d3a10af32c",
          "blockNumber": "0x2137d3e",
          "transactionHash": "0xd24b90998a5cd0dce6a027237b30e559dd582425ebfd629ae578b2d40cbefad7",
          "transactionIndex": "0x0",
          "logIndex": "0x0",
          "removed": false
        },
        {
          "address": "0xc59d19ff6ff11d7a4725d5125af8ea11f73ad5e1",
          "topics": [
            "0x8c5be1e5ebec7d5bd14f71427d1e84f3dd0314c0f7b2291e5b200ac8c7c3b925",
            "0x00000000000000000000000032cb58b145d3f7e28c45ce4b2cc31fa94248b23f",
            "0x0000000000000000000000004740ad3e0052d3e792b3db3368317402bab90f87"
          ],
          "data": "0x0000000000000000000000000000000000000000000000008ac7230489e80000",
          "blockHash": "0x736cb3f46c26813e3da519bb0c8773a9d755f1a629658bd8755b67d3a10af32c",
          "blockNumber": "0x2137d3e",
          "transactionHash": "0xd24b90998a5cd0dce6a027237b30e559dd582425ebfd629ae578b2d40cbefad7",
          "transactionIndex": "0x0",
          "logIndex": "0x1",
          "removed": false
        },
        {
          "address": "0xc59d19ff6ff11d7a4725d5125af8ea11f73ad5e1",
          "topics": [
            "0x8c5be1e5ebec7d5bd14f71427d1e84f3dd0314c0f7b2291e5b200ac8c7c3b925",
            "0x00000000000000000000000032cb58b145d3f7e28c45ce4b2cc31fa94248b23f",
            "0x0000000000000000000000004740ad3e0052d3e792b3db3368317402bab90f87"
          ],
          "data": "0x0000000000000000000000000000000000000000000000000000000000000000",
          "blockHash": "0x736cb3f46c26813e3da519bb0c8773a9d755f1a629658bd8755b67d3a10af32c",
          "blockNumber": "0x2137d3e",
          "transactionHash": "0xd24b90998a5cd0dce6a027237b30e559dd582425ebfd629ae578b2d40cbefad7",
          "transactionIndex": "0x0",
          "logIndex": "0x2",
          "removed": false
        },
        {
          "address": "0xc59d19ff6ff11d7a4725d5125af8ea11f73ad5e1",
          "topics": [
            "0xddf252ad1be2c89b69c2b068fc378daa952ba7f163c4a11628f55a4df523b3ef",
            "0x00000000000000000000000032cb58b145d3f7e28c45ce4b2cc31fa94248b23f",
            "0x0000000000000000000000004740ad3e0052d3e792b3db3368317402bab90f87"
          ],
          "data": "0x0000000000000000000000000000000000000000000000008ac7230489e80000",
          "blockHash": "0x736cb3f46c26813e3da519bb0c8773a9d755f1a629658bd8755b67d3a10af32c",
          "blockNumber": "0x2137d3e",
          "transactionHash": "0xd24b90998a5cd0dce6a027237b30e559dd582425ebfd629ae578b2d40cbefad7",
          "transactionIndex": "0x0",
          "logIndex": "0x3",
          "removed": false
        },
        {
          "address": "0xc59d19ff6ff11d7a4725d5125af8ea11f73ad5e1",
          "topics": [
            "0xddf252ad1be2c89b69c2b068fc378daa952ba7f163c4a11628f55a4df523b3ef",
            "0x0000000000000000000000004740ad3e0052d3e792b3db3368317402bab90f87",
            "0x0000000000000000000000000000000000000000000000000000000000000000"
          ],
          "data": "0x0000000000000000000000000000000000000000000000008ac7230489e80000",
          "blockHash": "0x736cb3f46c26813e3da519bb0c8773a9d755f1a629658bd8755b67d3a10af32c",
          "blockNumber": "0x2137d3e",
          "transactionHash": "0xd24b90998a5cd0dce6a027237b30e559dd582425ebfd629ae578b2d40cbefad7",
          "transactionIndex": "0x0",
          "logIndex": "0x4",
          "removed": false
        },
        {
          "address": "0x6089e544bbd880529947c7a39865548815cf41f0",
          "topics": [
            "0xddf252ad1be2c89b69c2b068fc378daa952ba7f163c4a11628f55a4df523b3ef",
            "0x00000000000000000000000075889508756d100423180d50bbee058c433584aa",
            "0x00000000000000000000000032cb58b145d3f7e28c45ce4b2cc31fa94248b23f"
          ],
          "data": "0x0000000000000000000000000000000000000000000000008ab55f8b52078000",
          "blockHash": "0x736cb3f46c26813e3da519bb0c8773a9d755f1a629658bd8755b67d3a10af32c",
          "blockNumber": "0x2137d3e",
          "transactionHash": "0xd24b90998a5cd0dce6a027237b30e559dd582425ebfd629ae578b2d40cbefad7",
          "transactionIndex": "0x0",
          "logIndex": "0x5",
          "removed": false
        },
        {
          "address": "0x75889508756d100423180d50bbee058c433584aa",
          "topics": [
            "0xc171b15fb47a5beb3e11b1951d4518544f699edd6acd893d8695c91703922b60",
            "0x0000000000000000000000004740ad3e0052d3e792b3db3368317402bab90f87",
            "0x00000000000000000000000032cb58b145d3f7e28c45ce4b2cc31fa94248b23f"
          ],
          "data": "0x0000000000000000000000000000000000000000000000008ab55f8b520780000000000000000000000000006089e544bbd880529947c7a39865548815cf41f0",
          "blockHash": "0x736cb3f46c26813e3da519bb0c8773a9d755f1a629658bd8755b67d3a10af32c",
          "blockNumber": "0x2137d3e",
          "transactionHash": "0xd24b90998a5cd0dce6a027237b30e559dd582425ebfd629ae578b2d40cbefad7",
          "transactionIndex": "0x0",
          "logIndex": "0x6",
          "removed": false
        },
        {
          "address": "0x4740ad3e0052d3e792b3db3368317402bab90f87",
          "topics": [
            "0xe7b046415cac9de47940c3087e06db13a0e058ccf53ac5f0edd49ebb4c2c3a6f",
            "0x3de090ec85aede9f99732eacb5852d5b6915e4436177cfc2777958c3301f6f3d",
            "0x00000000000000000000000032cb58b145d3f7e28c45ce4b2cc31fa94248b23f",
            "0x000000000000000000000000c59d19ff6ff11d7a4725d5125af8ea11f73ad5e1"
          ],
          "data": "0x00000000000000000000000011625bea35264a0df5c89e89a849cc47f83059b30000000000000000000000006089e544bbd880529947c7a39865548815cf41f00000000000000000000000000000000000000000000000008ac7230489e800000000000000000000000000000000000000000000000000008ab55f8b52078000",
          "blockHash": "0x736cb3f46c26813e3da519bb0c8773a9d755f1a629658bd8755b67d3a10af32c",
          "blockNumber": "0x2137d3e",
          "transactionHash": "0xd24b90998a5cd0dce6a027237b30e559dd582425ebfd629ae578b2d40cbefad7",
          "transactionIndex": "0x0",
          "logIndex": "0x7",
          "removed": false
        },
        {
          "address": "0x32cb58b145d3f7e28c45ce4b2cc31fa94248b23f",
          "topics": [
            "0x442e715f626346e8c54381002da614f62bee8d27386535b2521ec8540898556e",
            "0x6ce901be0d0e577248aad547a205a91bce3c42237a0d2d1cfb9057142eaa42dc"
          ],
          "data": "0x0000000000000000000000000000000000000000000000000000000000000000",
          "blockHash": "0x736cb3f46c26813e3da519bb0c8773a9d755f1a629658bd8755b67d3a10af32c",
          "blockNumber": "0x2137d3e",
          "transactionHash": "0xd24b90998a5cd0dce6a027237b30e559dd582425ebfd629ae578b2d40cbefad7",
          "transactionIndex": "0x0",
          "logIndex": "0x8",
          "removed": false
        }
      ],
      "logsBloom": "0x00000000400000000080000000000004004000000000000000000000040000000000008000000018000000080000000000000000000000000000000000200000000000000000000000000848100000000000840000000000000002000000000211000080020000000000000000000a90000000000000000000000010000000200000000000000000000000001000000000000000000000000000002000000000024000000400000000000000001004000088000408000000000040000000000000000002004000000000000010020000000000000000000008000002000020000010000000000000010401000000040000042000000000000000000000000000",
      "type": "0x2",
      "transactionHash": "0xd24b90998a5cd0dce6a027237b30e559dd582425ebfd629ae578b2d40cbefad7",
      "transactionIndex": "0x0",
      "blockHash": "0x736cb3f46c26813e3da519bb0c8773a9d755f1a629658bd8755b67d3a10af32c",
      "blockNumber": "0x2137d3e",
      "gasUsed": "0x47c3f",
      "effectiveGasPrice": "0xedd8b",
      "blobGasUsed": "0x0",
      "from": "0x56fd3f2bee130e9867942d0f463a16fbe49b8d81",
      "to": "0x32cb58b145d3f7e28c45ce4b2cc31fa94248b23f",
      "contractAddress": null
    }
  ],
  "libraries": [
    "node_modules/@celo/contracts/common/linkedlists/AddressSortedLinkedListWithMedian.sol:AddressSortedLinkedListWithMedian:0x498FB531985aD936f1A98813F92625084a67d02F"
  ],
  "pending": [],
  "returns": {},
  "timestamp": 1756461317474,
  "chain": 8453,
  "commit": "eb7c3cd"
}