{
  "transactions": [
    {
      "hash": "0xd291baa33d67bfd84c7be336dc452d2e39423aa289dc4cf5ba63aa546c1fc61e",
      "transactionType": "CALL",
      "contractName": null,
      "contractAddress": "0x32cb58b145d3f7e28c45ce4b2cc31fa94248b23f",
      "function": "execTransaction(address,uint256,bytes,uint8,uint256,uint256,uint256,address,address,bytes)",
      "arguments": [
        "0x40A2aCCbd92BCA938b02010E17A5b8929b49130D",
        "0",
        "0x8d80ff0a000000000000000000000000000000000000000000000000000000000000002000000000000000000000000000000000000000000000000000000000000001b2006089e544bbd880529947c7a39865548815cf41f000000000000000000000000000000000000000000000000000000000000000000000000000000000000000000000000000000000000000000000000000000044095ea7b30000000000000000000000004740ad3e0052d3e792b3db3368317402bab90f870000000000000000000000000000000000000000000000056bc75e2d63100000004740ad3e0052d3e792b3db3368317402bab90f87000000000000000000000000000000000000000000000000000000000000000000000000000000000000000000000000000000000000000000000000000000c4ddbbe85000000000000000000000000011625bea35264a0df5c89e89a849cc47f83059b33de090ec85aede9f99732eacb5852d5b6915e4436177cfc2777958c3301f6f3d0000000000000000000000006089e544bbd880529947c7a39865548815cf41f0000000000000000000000000c59d19ff6ff11d7a4725d5125af8ea11f73ad5e10000000000000000000000000000000000000000000000056bc75e2d6310000000000000000000000000000000000000000000000000000000000000000000000000000000000000000000000000",
        "1",
        "0",
        "0",
        "0",
        "0x0000000000000000000000000000000000000000",
        "0x0000000000000000000000000000000000000000",
        "0xa3243cca5989ff49b7d3256d27cee26413205170b36236ae8b479addf90a5bb8596efb8792d5626f07e7eb555a93d867a742b8d4720db68a296e182be110d80a1c"
      ],
      "transaction": {
        "from": "0x56fd3f2bee130e9867942d0f463a16fbe49b8d81",
        "to": "0x32cb58b145d3f7e28c45ce4b2cc31fa94248b23f",
        "gas": "0x1d66fa6",
        "value": "0x0",
        "input": "0x6a76120200000000000000000000000040a2accbd92bca938b02010e17a5b8929b49130d00000000000000000000000000000000000000000000000000000000000000000000000000000000000000000000000000000000000000000000000000000140000000000000000000000000000000000000000000000000000000000000000100000000000000000000000000000000000000000000000000000000000000000000000000000000000000000000000000000000000000000000000000000000000000000000000000000000000000000000000000000000000000000000000000000000000000000000000000000000000000000000000000000000000000000000000000000000000000000000000000000000000000000000000000000000000000000000000000000000000000000000000000000000000000000000038000000000000000000000000000000000000000000000000000000000000002048d80ff0a000000000000000000000000000000000000000000000000000000000000002000000000000000000000000000000000000000000000000000000000000001b2006089e544bbd880529947c7a39865548815cf41f000000000000000000000000000000000000000000000000000000000000000000000000000000000000000000000000000000000000000000000000000000044095ea7b30000000000000000000000004740ad3e0052d3e792b3db3368317402bab90f870000000000000000000000000000000000000000000000056bc75e2d63100000004740ad3e0052d3e792b3db3368317402bab90f87000000000000000000000000000000000000000000000000000000000000000000000000000000000000000000000000000000000000000000000000000000c4ddbbe85000000000000000000000000011625bea35264a0df5c89e89a849cc47f83059b33de090ec85aede9f99732eacb5852d5b6915e4436177cfc2777958c3301f6f3d0000000000000000000000006089e544bbd880529947c7a39865548815cf41f0000000000000000000000000c59d19ff6ff11d7a4725d5125af8ea11f73ad5e10000000000000000000000000000000000000000000000056bc75e2d6310000000000000000000000000000000000000000000000000000000000000000000000000000000000000000000000000000000000000000000000000000000000000000000000000000000000000000000000000000000000000000000000000000000000000000000000041a3243cca5989ff49b7d3256d27cee26413205170b36236ae8b479addf90a5bb8596efb8792d5626f07e7eb555a93d867a742b8d4720db68a296e182be110d80a1c00000000000000000000000000000000000000000000000000000000000000",
        "nonce": "0x10",
        "chainId": "0x2105"
      },
      "additionalContracts": [],
      "isFixedGasLimit": true
    }
  ],
  "receipts": [
    {
      "status": "0x1",
      "cumulativeGasUsed": "0x60be2",
      "logs": [
        {
          "address": "0x32cb58b145d3f7e28c45ce4b2cc31fa94248b23f",
          "topics": [
            "0x66753cd2356569ee081232e3be8909b950e0a76c1f8460c3a5e3c2be32b11bed"
          ],
          "data": "0x00000000000000000000000040a2accbd92bca938b02010e17a5b8929b49130d0000000000000000000000000000000000000000000000000000000000000000000000000000000000000000000000000000000000000000000000000000016000000000000000000000000000000000000000000000000000000000000000010000000000000000000000000000000000000000000000000000000000000000000000000000000000000000000000000000000000000000000000000000000000000000000000000000000000000000000000000000000000000000000000000000000000000000000000000000000000000000000000000000000000000000000000000000000000000000000000000000000000000000000000000000000000000000000000000000000000000000000000000000000000000000000003a0000000000000000000000000000000000000000000000000000000000000042000000000000000000000000000000000000000000000000000000000000002048d80ff0a000000000000000000000000000000000000000000000000000000000000002000000000000000000000000000000000000000000000000000000000000001b2006089e544bbd880529947c7a39865548815cf41f000000000000000000000000000000000000000000000000000000000000000000000000000000000000000000000000000000000000000000000000000000044095ea7b30000000000000000000000004740ad3e0052d3e792b3db3368317402bab90f870000000000000000000000000000000000000000000000056bc75e2d63100000004740ad3e0052d3e792b3db3368317402bab90f87000000000000000000000000000000000000000000000000000000000000000000000000000000000000000000000000000000000000000000000000000000c4ddbbe85000000000000000000000000011625bea35264a0df5c89e89a849cc47f83059b33de090ec85aede9f99732eacb5852d5b6915e4436177cfc2777958c3301f6f3d0000000000000000000000006089e544bbd880529947c7a39865548815cf41f0000000000000000000000000c59d19ff6ff11d7a4725d5125af8ea11f73ad5e10000000000000000000000000000000000000000000000056bc75e2d6310000000000000000000000000000000000000000000000000000000000000000000000000000000000000000000000000000000000000000000000000000000000000000000000000000000000000000000000000000000000000000000000000000000000000000000000041a3243cca5989ff49b7d3256d27cee26413205170b36236ae8b479addf90a5bb8596efb8792d5626f07e7eb555a93d867a742b8d4720db68a296e182be110d80a1c000000000000000000000000000000000000000000000000000000000000000000000000000000000000000000000000000000000000000000000000000060000000000000000000000000000000000000000000000000000000000000000f00000000000000000000000056fd3f2bee130e9867942d0f463a16fbe49b8d810000000000000000000000000000000000000000000000000000000000000001",
          "blockHash": "0xc772a8604b6d8594188405e355f1a2038fad6898bacfab9a39bee06da36c378c",
          "blockNumber": "0x2137d3d",
          "transactionHash": "0xd291baa33d67bfd84c7be336dc452d2e39423aa289dc4cf5ba63aa546c1fc61e",
          "transactionIndex": "0x0",
          "logIndex": "0x0",
          "removed": false
        },
        {
          "address": "0x6089e544bbd880529947c7a39865548815cf41f0",
          "topics": [
            "0x8c5be1e5ebec7d5bd14f71427d1e84f3dd0314c0f7b2291e5b200ac8c7c3b925",
            "0x00000000000000000000000032cb58b145d3f7e28c45ce4b2cc31fa94248b23f",
            "0x0000000000000000000000004740ad3e0052d3e792b3db3368317402bab90f87"
          ],
          "data": "0x0000000000000000000000000000000000000000000000056bc75e2d63100000",
          "blockHash": "0xc772a8604b6d8594188405e355f1a2038fad6898bacfab9a39bee06da36c378c",
          "blockNumber": "0x2137d3d",
          "transactionHash": "0xd291baa33d67bfd84c7be336dc452d2e39423aa289dc4cf5ba63aa546c1fc61e",
          "transactionIndex": "0x0",
          "logIndex": "0x1",
          "removed": false
        },
        {
          "address": "0x11625bea35264a0df5c89e89a849cc47f83059b3",
          "topics": [
            "0x949f5db193cbfa01f2d443b1c656bfede15497de0d86838cea089bd60c438342",
            "0x3de090ec85aede9f99732eacb5852d5b6915e4436177cfc2777958c3301f6f3d"
          ],
          "data": "0x00000000000000000000000000000000000000000000d3c21bcecceda100000000000000000000000000000000000000000000000000d3c21bcecceda1000000",
          "blockHash": "0xc772a8604b6d8594188405e355f1a2038fad6898bacfab9a39bee06da36c378c",
          "blockNumber": "0x2137d3d",
          "transactionHash": "0xd291baa33d67bfd84c7be336dc452d2e39423aa289dc4cf5ba63aa546c1fc61e",
          "transactionIndex": "0x0",
          "logIndex": "0x2",
          "removed": false
        },
        {
          "address": "0x6089e544bbd880529947c7a39865548815cf41f0",
          "topics": [
            "0xddf252ad1be2c89b69c2b068fc378daa952ba7f163c4a11628f55a4df523b3ef",
            "0x00000000000000000000000032cb58b145d3f7e28c45ce4b2cc31fa94248b23f",
            "0x00000000000000000000000075889508756d100423180d50bbee058c433584aa"
          ],
          "data": "0x0000000000000000000000000000000000000000000000056bc75e2d63100000",
          "blockHash": "0xc772a8604b6d8594188405e355f1a2038fad6898bacfab9a39bee06da36c378c",
          "blockNumber": "0x2137d3d",
          "transactionHash": "0xd291baa33d67bfd84c7be336dc452d2e39423aa289dc4cf5ba63aa546c1fc61e",
          "transactionIndex": "0x0",
          "logIndex": "0x3",
          "removed": false
        },
        {
          "address": "0xc59d19ff6ff11d7a4725d5125af8ea11f73ad5e1",
          "topics": [
            "0xddf252ad1be2c89b69c2b068fc378daa952ba7f163c4a11628f55a4df523b3ef",
            "0x0000000000000000000000000000000000000000000000000000000000000000",
            "0x00000000000000000000000032cb58b145d3f7e28c45ce4b2cc31fa94248b23f"
          ],
          "data": "0x0000000000000000000000000000000000000000000000056b15bb71344b0000",
          "blockHash": "0xc772a8604b6d8594188405e355f1a2038fad6898bacfab9a39bee06da36c378c",
          "blockNumber": "0x2137d3d",
          "transactionHash": "0xd291baa33d67bfd84c7be336dc452d2e39423aa289dc4cf5ba63aa546c1fc61e",
          "transactionIndex": "0x0",
          "logIndex": "0x4",
          "removed": false
        },
        {
          "address": "0x4740ad3e0052d3e792b3db3368317402bab90f87",
          "topics": [
            "0xe7b046415cac9de47940c3087e06db13a0e058ccf53ac5f0edd49ebb4c2c3a6f",
            "0x3de090ec85aede9f99732eacb5852d5b6915e4436177cfc2777958c3301f6f3d",
            "0x00000000000000000000000032cb58b145d3f7e28c45ce4b2cc31fa94248b23f",
            "0x0000000000000000000000006089e544bbd880529947c7a39865548815cf41f0"
          ],
          "data": "0x00000000000000000000000011625bea35264a0df5c89e89a849cc47f83059b3000000000000000000000000c59d19ff6ff11d7a4725d5125af8ea11f73ad5e10000000000000000000000000000000000000000000000056bc75e2d631000000000000000000000000000000000000000000000000000056b15bb71344b0000",
          "blockHash": "0xc772a8604b6d8594188405e355f1a2038fad6898bacfab9a39bee06da36c378c",
          "blockNumber": "0x2137d3d",
          "transactionHash": "0xd291baa33d67bfd84c7be336dc452d2e39423aa289dc4cf5ba63aa546c1fc61e",
          "transactionIndex": "0x0",
          "logIndex": "0x5",
          "removed": false
        },
        {
          "address": "0x32cb58b145d3f7e28c45ce4b2cc31fa94248b23f",
          "topics": [
            "0x442e715f626346e8c54381002da614f62bee8d27386535b2521ec8540898556e",
            "0xfacd8a3847d3afdd2f42b525f6abc16a2ea6d1e1800106c0e3198d3819c7f864"
          ],
          "data": "0x0000000000000000000000000000000000000000000000000000000000000000",
          "blockHash": "0xc772a8604b6d8594188405e355f1a2038fad6898bacfab9a39bee06da36c378c",
          "blockNumber": "0x2137d3d",
          "transactionHash": "0xd291baa33d67bfd84c7be336dc452d2e39423aa289dc4cf5ba63aa546c1fc61e",
          "transactionIndex": "0x0",
          "logIndex": "0x6",
          "removed": false
        }
      ],
      "logsBloom": "0x00080000400000000000000000000004004000000000000000000000040000000000008000000008000000000000000000800000000000000000000000200000000000000000001000000008100000000002040000000000000002000000000210000000020000000000000000000880000000000000000000000010000000200001000000000000400000001000000000000000000000000000002000000000024000000400000000000000001004000008000408000000000040000000000002000002004000000000000010020000000000040000000008000002000020000010000000000000014400000000840000042008000000000080000000000000",
      "type": "0x2",
      "transactionHash": "0xd291baa33d67bfd84c7be336dc452d2e39423aa289dc4cf5ba63aa546c1fc61e",
      "transactionIndex": "0x0",
      "blockHash": "0xc772a8604b6d8594188405e355f1a2038fad6898bacfab9a39bee06da36c378c",
      "blockNumber": "0x2137d3d",
      "gasUsed": "0x60be2",
      "effectiveGasPrice": "0xedd8b",
      "blobGasUsed": "0x0",
      "from": "0x56fd3f2bee130e9867942d0f463a16fbe49b8d81",
      "to": "0x32cb58b145d3f7e28c45ce4b2cc31fa94248b23f",
      "contractAddress": null
    }
  ],
  "libraries": [
    "node_modules/@celo/contracts/common/linkedlists/AddressSortedLinkedListWithMedian.sol:AddressSortedLinkedListWithMedian:0x498FB531985aD936f1A98813F92625084a67d02F"
  ],
  "pending": [],
  "returns": {},
  "timestamp": 1756461253611,
  "chain": 8453,
  "commit": "eb7c3cd"
}