{
  "transactions": [
    {
      "hash": "0xc39696f37b1244a6fe14079a98bfd226847ffcddd65e10b2df7c3438b1b5fc8d",
      "transactionType": "CALL",
      "contractName": null,
      "contractAddress": "0x98c6d2a3a39ff5a2803240f597eb4c8ce76d36ab",
      "function": "destroyExchange(bytes32,uint256)",
      "arguments": [
        "0xb947832f187a2fc262902bc762d0288b5dc4abb9df1d6c79129ba0a8dc5ed26d",
        "15"
      ],
      "transaction": {
        "from": "0x56fd3f2bee130e9867942d0f463a16fbe49b8d81",
        "to": "0x98c6d2a3a39ff5a2803240f597eb4c8ce76d36ab",
        "gas": "0x1a753",
        "value": "0x0",
        "input": "0xe46eb5b6b947832f187a2fc262902bc762d0288b5dc4abb9df1d6c79129ba0a8dc5ed26d000000000000000000000000000000000000000000000000000000000000000f",
        "nonce": "0x10f",
        "chainId": "0x279f"
      },
      "additionalContracts": [],
      "isFixedGasLimit": false
    },
    {
      "hash": "0x5518f97552d6fa4fdeaa461b03881bd7a5ce37c3a102ce6b8ba318df36e7884a",
      "transactionType": "CALL",
      "contractName": null,
      "contractAddress": "0x98c6d2a3a39ff5a2803240f597eb4c8ce76d36ab",
      "function": "destroyExchange(bytes32,uint256)",
      "arguments": [
        "0x4033fa45bb2569f1011bb158dc7b3ecc5958f0773d5a600923f1e8afc86d8413",
        "14"
      ],
      "transaction": {
        "from": "0x56fd3f2bee130e9867942d0f463a16fbe49b8d81",
        "to": "0x98c6d2a3a39ff5a2803240f597eb4c8ce76d36ab",
        "gas": "0x1a753",
        "value": "0x0",
        "input": "0xe46eb5b64033fa45bb2569f1011bb158dc7b3ecc5958f0773d5a600923f1e8afc86d8413000000000000000000000000000000000000000000000000000000000000000e",
        "nonce": "0x110",
        "chainId": "0x279f"
      },
      "additionalContracts": [],
      "isFixedGasLimit": false
    },
    {
      "hash": "0x8948c27ac8af4ab36c3ab65e5bf4af8e1fc82ed08ef1af4ed256b85720f260ef",
      "transactionType": "CALL",
      "contractName": null,
      "contractAddress": "0x98c6d2a3a39ff5a2803240f597eb4c8ce76d36ab",
      "function": "destroyExchange(bytes32,uint256)",
      "arguments": [
        "0x99903a787878c236d4fe73d0ea0c98064b57bc87f4bdc428a62e4592d30c19e0",
        "13"
      ],
      "transaction": {
        "from": "0x56fd3f2bee130e9867942d0f463a16fbe49b8d81",
        "to": "0x98c6d2a3a39ff5a2803240f597eb4c8ce76d36ab",
        "gas": "0x1a753",
        "value": "0x0",
        "input": "0xe46eb5b699903a787878c236d4fe73d0ea0c98064b57bc87f4bdc428a62e4592d30c19e0000000000000000000000000000000000000000000000000000000000000000d",
        "nonce": "0x111",
        "chainId": "0x279f"
      },
      "additionalContracts": [],
      "isFixedGasLimit": false
    },
    {
      "hash": "0x0252402712cf9c014c27d1048c47b46898474f9e24c1af51ba3475a08bb96c6d",
      "transactionType": "CALL",
      "contractName": null,
      "contractAddress": "0x98c6d2a3a39ff5a2803240f597eb4c8ce76d36ab",
      "function": "destroyExchange(bytes32,uint256)",
      "arguments": [
        "0x28b69af87fd76c2764c7e022f37b6ee3ad6e448ef4d51747e08cd60260d61fa3",
        "12"
      ],
      "transaction": {
        "from": "0x56fd3f2bee130e9867942d0f463a16fbe49b8d81",
        "to": "0x98c6d2a3a39ff5a2803240f597eb4c8ce76d36ab",
        "gas": "0x1a753",
        "value": "0x0",
        "input": "0xe46eb5b628b69af87fd76c2764c7e022f37b6ee3ad6e448ef4d51747e08cd60260d61fa3000000000000000000000000000000000000000000000000000000000000000c",
        "nonce": "0x112",
        "chainId": "0x279f"
      },
      "additionalContracts": [],
      "isFixedGasLimit": false
    },
    {
      "hash": "0x5ae7b2b6daee6a36cc777a7c052e53623bd2a16bb4d0b0090464d7c7a1ee2e13",
      "transactionType": "CALL",
      "contractName": null,
      "contractAddress": "0x98c6d2a3a39ff5a2803240f597eb4c8ce76d36ab",
      "function": "destroyExchange(bytes32,uint256)",
      "arguments": [
        "0x5117b12cd22b5f67b1898f500c9622236edbd651a4d1f16e1a64eb1c39da6280",
        "11"
      ],
      "transaction": {
        "from": "0x56fd3f2bee130e9867942d0f463a16fbe49b8d81",
        "to": "0x98c6d2a3a39ff5a2803240f597eb4c8ce76d36ab",
        "gas": "0x1a753",
        "value": "0x0",
        "input": "0xe46eb5b65117b12cd22b5f67b1898f500c9622236edbd651a4d1f16e1a64eb1c39da6280000000000000000000000000000000000000000000000000000000000000000b",
        "nonce": "0x113",
        "chainId": "0x279f"
      },
      "additionalContracts": [],
      "isFixedGasLimit": false
    },
    {
      "hash": "0x389249ca4d219da1f17a12f7decd05cfaf04d07528e5b611906d049d090b8a13",
      "transactionType": "CALL",
      "contractName": null,
      "contractAddress": "0x98c6d2a3a39ff5a2803240f597eb4c8ce76d36ab",
      "function": "destroyExchange(bytes32,uint256)",
      "arguments": [
        "0xdb873c9488872f50c4047ab9ce46e8f75a341d9684b88d9c3a9a6b26027aca20",
        "10"
      ],
      "transaction": {
        "from": "0x56fd3f2bee130e9867942d0f463a16fbe49b8d81",
        "to": "0x98c6d2a3a39ff5a2803240f597eb4c8ce76d36ab",
        "gas": "0x1a753",
        "value": "0x0",
        "input": "0xe46eb5b6db873c9488872f50c4047ab9ce46e8f75a341d9684b88d9c3a9a6b26027aca20000000000000000000000000000000000000000000000000000000000000000a",
        "nonce": "0x114",
        "chainId": "0x279f"
      },
      "additionalContracts": [],
      "isFixedGasLimit": false
    },
    {
      "hash": "0x59b68c59349d9aa23a267698800bf509eaa182eecf2d9aafcf024b4cdaa18de3",
      "transactionType": "CALL",
      "contractName": null,
      "contractAddress": "0x98c6d2a3a39ff5a2803240f597eb4c8ce76d36ab",
      "function": "destroyExchange(bytes32,uint256)",
      "arguments": [
        "0x34737a6b35a25ba8679874e532109434ce6dd0ac8c567a2095b9d0feff06d7b2",
        "9"
      ],
      "transaction": {
        "from": "0x56fd3f2bee130e9867942d0f463a16fbe49b8d81",
        "to": "0x98c6d2a3a39ff5a2803240f597eb4c8ce76d36ab",
        "gas": "0x1a753",
        "value": "0x0",
        "input": "0xe46eb5b634737a6b35a25ba8679874e532109434ce6dd0ac8c567a2095b9d0feff06d7b20000000000000000000000000000000000000000000000000000000000000009",
        "nonce": "0x115",
        "chainId": "0x279f"
      },
      "additionalContracts": [],
      "isFixedGasLimit": false
    },
    {
      "hash": "0xcef4494621fce33e2a3987461a621f71fb1c3fc37ebc8f3352b655f247249d9a",
      "transactionType": "CALL",
      "contractName": null,
      "contractAddress": "0x98c6d2a3a39ff5a2803240f597eb4c8ce76d36ab",
      "function": "destroyExchange(bytes32,uint256)",
      "arguments": [
        "0xe18089b08b31c64439612de898b855e9564a163c23b9f2af8047d8b137eb148a",
        "8"
      ],
      "transaction": {
        "from": "0x56fd3f2bee130e9867942d0f463a16fbe49b8d81",
        "to": "0x98c6d2a3a39ff5a2803240f597eb4c8ce76d36ab",
        "gas": "0x1a753",
        "value": "0x0",
        "input": "0xe46eb5b6e18089b08b31c64439612de898b855e9564a163c23b9f2af8047d8b137eb148a0000000000000000000000000000000000000000000000000000000000000008",
        "nonce": "0x116",
        "chainId": "0x279f"
      },
      "additionalContracts": [],
      "isFixedGasLimit": false
    },
    {
      "hash": "0x06e777e12d05c1877a9b67a4a7facb4bba674216f200e266e033cb97298dded2",
      "transactionType": "CALL",
      "contractName": null,
      "contractAddress": "0x98c6d2a3a39ff5a2803240f597eb4c8ce76d36ab",
      "function": "destroyExchange(bytes32,uint256)",
      "arguments": [
        "0xf57e4020771fd78df1d99034f5f503d8c4886e428030f6b187fe1745122a0b02",
        "7"
      ],
      "transaction": {
        "from": "0x56fd3f2bee130e9867942d0f463a16fbe49b8d81",
        "to": "0x98c6d2a3a39ff5a2803240f597eb4c8ce76d36ab",
        "gas": "0x1a753",
        "value": "0x0",
        "input": "0xe46eb5b6f57e4020771fd78df1d99034f5f503d8c4886e428030f6b187fe1745122a0b020000000000000000000000000000000000000000000000000000000000000007",
        "nonce": "0x117",
        "chainId": "0x279f"
      },
      "additionalContracts": [],
      "isFixedGasLimit": false
    },
    {
      "hash": "0x85213ba895fa26e0c77ac4dc11ccc8957e871d7044fba4c828b353ca00d060a3",
      "transactionType": "CALL",
      "contractName": null,
      "contractAddress": "0x98c6d2a3a39ff5a2803240f597eb4c8ce76d36ab",
      "function": "destroyExchange(bytes32,uint256)",
      "arguments": [
        "0xe8aecadc079c71e499fb1988f24806ea48e03b472829a165527bd80d856c3f7f",
        "6"
      ],
      "transaction": {
        "from": "0x56fd3f2bee130e9867942d0f463a16fbe49b8d81",
        "to": "0x98c6d2a3a39ff5a2803240f597eb4c8ce76d36ab",
        "gas": "0x1a753",
        "value": "0x0",
        "input": "0xe46eb5b6e8aecadc079c71e499fb1988f24806ea48e03b472829a165527bd80d856c3f7f0000000000000000000000000000000000000000000000000000000000000006",
        "nonce": "0x118",
        "chainId": "0x279f"
      },
      "additionalContracts": [],
      "isFixedGasLimit": false
    },
    {
      "hash": "0x92a6dd37e26f27ac41ac28d93b5959513ff5f67afed51cbb3c97e4538e82a3f3",
      "transactionType": "CALL",
      "contractName": null,
      "contractAddress": "0x98c6d2a3a39ff5a2803240f597eb4c8ce76d36ab",
      "function": "destroyExchange(bytes32,uint256)",
      "arguments": [
        "0x1e202f0a25ad85db6599f21e871274250e3f946c4b13ead6793c4d36d54b7680",
        "5"
      ],
      "transaction": {
        "from": "0x56fd3f2bee130e9867942d0f463a16fbe49b8d81",
        "to": "0x98c6d2a3a39ff5a2803240f597eb4c8ce76d36ab",
        "gas": "0x1a753",
        "value": "0x0",
        "input": "0xe46eb5b61e202f0a25ad85db6599f21e871274250e3f946c4b13ead6793c4d36d54b76800000000000000000000000000000000000000000000000000000000000000005",
        "nonce": "0x119",
        "chainId": "0x279f"
      },
      "additionalContracts": [],
      "isFixedGasLimit": false
    },
    {
      "hash": "0x937cb06b058784411b131642d8bb5afaa878f41958028e521bee0eed7fb000f7",
      "transactionType": "CALL",
      "contractName": null,
      "contractAddress": "0x98c6d2a3a39ff5a2803240f597eb4c8ce76d36ab",
      "function": "destroyExchange(bytes32,uint256)",
      "arguments": [
        "0x3a741bff3e73215535b95af758343e59e523a59773b5420528f5e1b3a12de496",
        "4"
      ],
      "transaction": {
        "from": "0x56fd3f2bee130e9867942d0f463a16fbe49b8d81",
        "to": "0x98c6d2a3a39ff5a2803240f597eb4c8ce76d36ab",
        "gas": "0x1a753",
        "value": "0x0",
        "input": "0xe46eb5b63a741bff3e73215535b95af758343e59e523a59773b5420528f5e1b3a12de4960000000000000000000000000000000000000000000000000000000000000004",
        "nonce": "0x11a",
        "chainId": "0x279f"
      },
      "additionalContracts": [],
      "isFixedGasLimit": false
    },
    {
      "hash": "0xa8354547f69e58f3b1d8a1071131d9b28ccc2851d9ec57efbe18e82afd729923",
      "transactionType": "CALL",
      "contractName": null,
      "contractAddress": "0x98c6d2a3a39ff5a2803240f597eb4c8ce76d36ab",
      "function": "destroyExchange(bytes32,uint256)",
      "arguments": [
        "0x7e31ac1ba139a9da37c7e0503e48eb7d3b9a74f348eddf98157d11cf13306a34",
        "3"
      ],
      "transaction": {
        "from": "0x56fd3f2bee130e9867942d0f463a16fbe49b8d81",
        "to": "0x98c6d2a3a39ff5a2803240f597eb4c8ce76d36ab",
        "gas": "0x1a753",
        "value": "0x0",
        "input": "0xe46eb5b67e31ac1ba139a9da37c7e0503e48eb7d3b9a74f348eddf98157d11cf13306a340000000000000000000000000000000000000000000000000000000000000003",
        "nonce": "0x11b",
        "chainId": "0x279f"
      },
      "additionalContracts": [],
      "isFixedGasLimit": false
    },
    {
      "hash": "0xce59677fa14688fc17edc7a0d0ac1500bcb20d0356043830330af2860c3a3dc9",
      "transactionType": "CALL",
      "contractName": null,
      "contractAddress": "0x98c6d2a3a39ff5a2803240f597eb4c8ce76d36ab",
      "function": "destroyExchange(bytes32,uint256)",
      "arguments": [
        "0x74347ad8b811b2ca1cfbc092ee1f48203e0add8c0c4c4760d66868b46a42af81",
        "2"
      ],
      "transaction": {
        "from": "0x56fd3f2bee130e9867942d0f463a16fbe49b8d81",
        "to": "0x98c6d2a3a39ff5a2803240f597eb4c8ce76d36ab",
        "gas": "0x1a753",
        "value": "0x0",
        "input": "0xe46eb5b674347ad8b811b2ca1cfbc092ee1f48203e0add8c0c4c4760d66868b46a42af810000000000000000000000000000000000000000000000000000000000000002",
        "nonce": "0x11c",
        "chainId": "0x279f"
      },
      "additionalContracts": [],
      "isFixedGasLimit": false
    },
    {
      "hash": "0xd0452821c7c0b7ddd104122625c0e4e61c657076ac4edc95038cc4837d5a60c5",
      "transactionType": "CALL",
      "contractName": null,
      "contractAddress": "0x98c6d2a3a39ff5a2803240f597eb4c8ce76d36ab",
      "function": "destroyExchange(bytes32,uint256)",
      "arguments": [
        "0x09c52cc74e3ab4c6a0fbdecf0b859ecc63ba2dbec3861bfc87495fdf80d71cd9",
        "1"
      ],
      "transaction": {
        "from": "0x56fd3f2bee130e9867942d0f463a16fbe49b8d81",
        "to": "0x98c6d2a3a39ff5a2803240f597eb4c8ce76d36ab",
        "gas": "0x19b3d",
        "value": "0x0",
        "input": "0xe46eb5b609c52cc74e3ab4c6a0fbdecf0b859ecc63ba2dbec3861bfc87495fdf80d71cd90000000000000000000000000000000000000000000000000000000000000001",
        "nonce": "0x11d",
        "chainId": "0x279f"
      },
      "additionalContracts": [],
      "isFixedGasLimit": false
    },
    {
      "hash": "0xfee49ce823436b2ccc2e5e354ce00b9249af42b2f3050b7d9270e437cc4399fb",
      "transactionType": "CALL",
      "contractName": null,
      "contractAddress": "0x98c6d2a3a39ff5a2803240f597eb4c8ce76d36ab",
      "function": "destroyExchange(bytes32,uint256)",
      "arguments": [
        "0x1dd1d4a1c823d13a0b425f67f38f882c3369d05b67e9b3ba1d561d1d9443651e",
        "0"
      ],
      "transaction": {
        "from": "0x56fd3f2bee130e9867942d0f463a16fbe49b8d81",
        "to": "0x98c6d2a3a39ff5a2803240f597eb4c8ce76d36ab",
        "gas": "0x1b360",
        "value": "0x0",
        "input": "0xe46eb5b61dd1d4a1c823d13a0b425f67f38f882c3369d05b67e9b3ba1d561d1d9443651e0000000000000000000000000000000000000000000000000000000000000000",
        "nonce": "0x11e",
        "chainId": "0x279f"
      },
      "additionalContracts": [],
      "isFixedGasLimit": false
    }
  ],
  "receipts": [
    {
      "status": "0x1",
      "cumulativeGasUsed": "0x694058",
      "logs": [
        {
          "address": "0x98c6d2a3a39ff5a2803240f597eb4c8ce76d36ab",
          "topics": [
            "0xadbbec6c203cb0248e89fe6d15ad651061a9d5203a1ab0273256e2b7decffa89",
            "0xb947832f187a2fc262902bc762d0288b5dc4abb9df1d6c79129ba0a8dc5ed26d",
            "0x0000000000000000000000009e174bc09cedadc7a5e39ba1142b6d95365182cb",
            "0x000000000000000000000000ecdb02e9ce57d3b7a523bb7bf539e9e5ffac3329"
          ],
          "data": "0x00000000000000000000000049503ffd8da325bfe52b8982a7f9c2e26643c276",
          "blockHash": "0x12d32bf347bfea31cee76c6bab174e28dda89eb6f9b0ee4250f9b4b8c9b0902e",
          "blockNumber": "0x22354c5",
          "blockTimestamp": "0x68becc74",
          "transactionHash": "0xc39696f37b1244a6fe14079a98bfd226847ffcddd65e10b2df7c3438b1b5fc8d",
          "transactionIndex": "0x1e",
          "logIndex": "0x5f",
          "removed": false
        }
      ],
      "logsBloom": "0x00800000000000000000000000004000008000000000002000000000000000000000000000000000000000000000000000000000000000000000000000000000000000000000000000000000000000000000000000000000000000000100000000000000400000400000000000000000000000000000000400000000000000000000040000000000001000000000000000000000000800000000000000000000000000000000000000000000200000000000000000000000000000000000000000000000000000000000000000000000000000000000000000000000000000000000000000000000000000400000000000000080000000000000000000000080",
      "type": "0x2",
      "transactionHash": "0xc39696f37b1244a6fe14079a98bfd226847ffcddd65e10b2df7c3438b1b5fc8d",
      "transactionIndex": "0x1e",
      "blockHash": "0x12d32bf347bfea31cee76c6bab174e28dda89eb6f9b0ee4250f9b4b8c9b0902e",
      "blockNumber": "0x22354c5",
      "gasUsed": "0x1a753",
      "effectiveGasPrice": "0xba43b7401",
      "from": "0x56fd3f2bee130e9867942d0f463a16fbe49b8d81",
      "to": "0x98c6d2a3a39ff5a2803240f597eb4c8ce76d36ab",
      "contractAddress": null
    },
    {
      "status": "0x1",
      "cumulativeGasUsed": "0x6ae7ab",
      "logs": [
        {
          "address": "0x98c6d2a3a39ff5a2803240f597eb4c8ce76d36ab",
          "topics": [
            "0xadbbec6c203cb0248e89fe6d15ad651061a9d5203a1ab0273256e2b7decffa89",
            "0x4033fa45bb2569f1011bb158dc7b3ecc5958f0773d5a600923f1e8afc86d8413",
            "0x0000000000000000000000009e174bc09cedadc7a5e39ba1142b6d95365182cb",
            "0x000000000000000000000000cddb469d22f0a15be11d0acda962e2caacd52706"
          ],
          "data": "0x00000000000000000000000049503ffd8da325bfe52b8982a7f9c2e26643c276",
          "blockHash": "0x12d32bf347bfea31cee76c6bab174e28dda89eb6f9b0ee4250f9b4b8c9b0902e",
          "blockNumber": "0x22354c5",
          "blockTimestamp": "0x68becc74",
          "transactionHash": "0x5518f97552d6fa4fdeaa461b03881bd7a5ce37c3a102ce6b8ba318df36e7884a",
          "transactionIndex": "0x1f",
          "logIndex": "0x60",
          "removed": false
        }
      ],
      "logsBloom": "0x00000000000000000000040000004000008000000000000000000100000000000000000000000000000000000000000000000000000000000000000000000000000000000000000000000010000000000000000000000000000000000008000000000000400000400000000000000000000000000000000400000000000000000000040000000000000000000000000000000000000800000000000000000000000000000000000000000000200000000010000000000000000000000000000000000000000000000000000000000000000000000000000000000000000000000000000000000000000000400000000000000000000000000000000000000008",
      "type": "0x2",
      "transactionHash": "0x5518f97552d6fa4fdeaa461b03881bd7a5ce37c3a102ce6b8ba318df36e7884a",
      "transactionIndex": "0x1f",
      "blockHash": "0x12d32bf347bfea31cee76c6bab174e28dda89eb6f9b0ee4250f9b4b8c9b0902e",
      "blockNumber": "0x22354c5",
      "gasUsed": "0x1a753",
      "effectiveGasPrice": "0xba43b7401",
      "from": "0x56fd3f2bee130e9867942d0f463a16fbe49b8d81",
      "to": "0x98c6d2a3a39ff5a2803240f597eb4c8ce76d36ab",
      "contractAddress": null
    },
    {
      "status": "0x1",
      "cumulativeGasUsed": "0x6c8efe",
      "logs": [
        {
          "address": "0x98c6d2a3a39ff5a2803240f597eb4c8ce76d36ab",
          "topics": [
            "0xadbbec6c203cb0248e89fe6d15ad651061a9d5203a1ab0273256e2b7decffa89",
            "0x99903a787878c236d4fe73d0ea0c98064b57bc87f4bdc428a62e4592d30c19e0",
            "0x0000000000000000000000009e174bc09cedadc7a5e39ba1142b6d95365182cb",
            "0x00000000000000000000000066bff13aff22c31df7cd53707e645c9736a6637a"
          ],
          "data": "0x00000000000000000000000049503ffd8da325bfe52b8982a7f9c2e26643c276",
          "blockHash": "0x12d32bf347bfea31cee76c6bab174e28dda89eb6f9b0ee4250f9b4b8c9b0902e",
          "blockNumber": "0x22354c5",
          "blockTimestamp": "0x68becc74",
          "transactionHash": "0x8948c27ac8af4ab36c3ab65e5bf4af8e1fc82ed08ef1af4ed256b85720f260ef",
          "transactionIndex": "0x20",
          "logIndex": "0x61",
          "removed": false
        }
      ],
      "logsBloom": "0x00000000000000000000000000004000008000000000080008000000000000000000000000000000000000000010000000000000000000000000000001000000000000000000000004000000000000000000000000000000000000000000000000000000400000400000000000000000000000000000000400000000000000000000040000000000000000000000000000000000000800000000100000000000000000000000000000000000200000000000000000000000000000000000000000000000000000000000000000000000000000000000000000000000000000000000000000000000000000400000000000000000000000000000000000000000",
      "type": "0x2",
      "transactionHash": "0x8948c27ac8af4ab36c3ab65e5bf4af8e1fc82ed08ef1af4ed256b85720f260ef",
      "transactionIndex": "0x20",
      "blockHash": "0x12d32bf347bfea31cee76c6bab174e28dda89eb6f9b0ee4250f9b4b8c9b0902e",
      "blockNumber": "0x22354c5",
      "gasUsed": "0x1a753",
      "effectiveGasPrice": "0xba43b7401",
      "from": "0x56fd3f2bee130e9867942d0f463a16fbe49b8d81",
      "to": "0x98c6d2a3a39ff5a2803240f597eb4c8ce76d36ab",
      "contractAddress": null
    },
    {
      "status": "0x1",
      "cumulativeGasUsed": "0x6e3651",
      "logs": [
        {
          "address": "0x98c6d2a3a39ff5a2803240f597eb4c8ce76d36ab",
          "topics": [
            "0xadbbec6c203cb0248e89fe6d15ad651061a9d5203a1ab0273256e2b7decffa89",
            "0x28b69af87fd76c2764c7e022f37b6ee3ad6e448ef4d51747e08cd60260d61fa3",
            "0x0000000000000000000000009e174bc09cedadc7a5e39ba1142b6d95365182cb",
            "0x000000000000000000000000823756e447e4db92fd3a52bc5e210c4701e6ceba"
          ],
          "data": "0x00000000000000000000000049503ffd8da325bfe52b8982a7f9c2e26643c276",
          "blockHash": "0x12d32bf347bfea31cee76c6bab174e28dda89eb6f9b0ee4250f9b4b8c9b0902e",
          "blockNumber": "0x22354c5",
          "blockTimestamp": "0x68becc74",
          "transactionHash": "0x0252402712cf9c014c27d1048c47b46898474f9e24c1af51ba3475a08bb96c6d",
          "transactionIndex": "0x21",
          "logIndex": "0x62",
          "removed": false
        }
      ],
      "logsBloom": "0x00000000000000000000000000004000008000040000000000000000000000000000000000000000000000000000000000000000000000000000000000000000000000100000000000000000000000000000000000040000000000000000000000000000400000400000000000000000000000000000000400000000000000000000040000000000100000000000000000000000000800100000000000000000000000000000000000000000200000000000000000000000000000000000000000000000000000000000000000000000000000000000000000000000000000000000000000000000000000400000000000000080000000000000000000000000",
      "type": "0x2",
      "transactionHash": "0x0252402712cf9c014c27d1048c47b46898474f9e24c1af51ba3475a08bb96c6d",
      "transactionIndex": "0x21",
      "blockHash": "0x12d32bf347bfea31cee76c6bab174e28dda89eb6f9b0ee4250f9b4b8c9b0902e",
      "blockNumber": "0x22354c5",
      "gasUsed": "0x1a753",
      "effectiveGasPrice": "0xba43b7401",
      "from": "0x56fd3f2bee130e9867942d0f463a16fbe49b8d81",
      "to": "0x98c6d2a3a39ff5a2803240f597eb4c8ce76d36ab",
      "contractAddress": null
    },
    {
      "status": "0x1",
      "cumulativeGasUsed": "0x6fdda4",
      "logs": [
        {
          "address": "0x98c6d2a3a39ff5a2803240f597eb4c8ce76d36ab",
          "topics": [
            "0xadbbec6c203cb0248e89fe6d15ad651061a9d5203a1ab0273256e2b7decffa89",
            "0x5117b12cd22b5f67b1898f500c9622236edbd651a4d1f16e1a64eb1c39da6280",
            "0x0000000000000000000000009e174bc09cedadc7a5e39ba1142b6d95365182cb",
            "0x000000000000000000000000e3bdea6cd6ed7aafd5acb1e43d8777714ba31aca"
          ],
          "data": "0x00000000000000000000000049503ffd8da325bfe52b8982a7f9c2e26643c276",
          "blockHash": "0x12d32bf347bfea31cee76c6bab174e28dda89eb6f9b0ee4250f9b4b8c9b0902e",
          "blockNumber": "0x22354c5",
          "blockTimestamp": "0x68becc74",
          "transactionHash": "0x5ae7b2b6daee6a36cc777a7c052e53623bd2a16bb4d0b0090464d7c7a1ee2e13",
          "transactionIndex": "0x22",
          "logIndex": "0x63",
          "removed": false
        }
      ],
      "logsBloom": "0x00000000000000000000000000024000008000000000000000000000000000000000000000000000000000000000000000000000000000000000000000000000000400000000000000000000000000000000004000000000000000000000000000000200400000400000000000000000000000000000000400000000000000000000040000000000000000000000000000004000000800000000000000000000000000000000000000000000200000000000000000000000000000000000000000000000000000000000000000000000000000000000000000000000000000000000000000000000000000400000000000000000000000000400000000000000",
      "type": "0x2",
      "transactionHash": "0x5ae7b2b6daee6a36cc777a7c052e53623bd2a16bb4d0b0090464d7c7a1ee2e13",
      "transactionIndex": "0x22",
      "blockHash": "0x12d32bf347bfea31cee76c6bab174e28dda89eb6f9b0ee4250f9b4b8c9b0902e",
      "blockNumber": "0x22354c5",
      "gasUsed": "0x1a753",
      "effectiveGasPrice": "0xba43b7401",
      "from": "0x56fd3f2bee130e9867942d0f463a16fbe49b8d81",
      "to": "0x98c6d2a3a39ff5a2803240f597eb4c8ce76d36ab",
      "contractAddress": null
    },
    {
      "status": "0x1",
      "cumulativeGasUsed": "0x7184f7",
      "logs": [
        {
          "address": "0x98c6d2a3a39ff5a2803240f597eb4c8ce76d36ab",
          "topics": [
            "0xadbbec6c203cb0248e89fe6d15ad651061a9d5203a1ab0273256e2b7decffa89",
            "0xdb873c9488872f50c4047ab9ce46e8f75a341d9684b88d9c3a9a6b26027aca20",
            "0x0000000000000000000000009e174bc09cedadc7a5e39ba1142b6d95365182cb",
            "0x000000000000000000000000ce0da71375dbb11bd275307e735768acf78d2843"
          ],
          "data": "0x00000000000000000000000049503ffd8da325bfe52b8982a7f9c2e26643c276",
          "blockHash": "0x12d32bf347bfea31cee76c6bab174e28dda89eb6f9b0ee4250f9b4b8c9b0902e",
          "blockNumber": "0x22354c5",
          "blockTimestamp": "0x68becc74",
          "transactionHash": "0x389249ca4d219da1f17a12f7decd05cfaf04d07528e5b611906d049d090b8a13",
          "transactionIndex": "0x23",
          "logIndex": "0x64",
          "removed": false
        }
      ],
      "logsBloom": "0x00000000000000000020000000004000008000000000000000000000000000000000000000000000000004000000000000000000000000000000000000000000000000000000000000000000000000000000000000000000000000002000000000000000400000400000000000000000000000000000000400000000000000000000040000000000000000000000004000000000000800900000000000000000000000000000000000000000200000000000000000000000000000000000000000000000000000000000000000000000000000000000000000000000000000000000000000000000000000400000000000000000000000000000000000000000",
      "type": "0x2",
      "transactionHash": "0x389249ca4d219da1f17a12f7decd05cfaf04d07528e5b611906d049d090b8a13",
      "transactionIndex": "0x23",
      "blockHash": "0x12d32bf347bfea31cee76c6bab174e28dda89eb6f9b0ee4250f9b4b8c9b0902e",
      "blockNumber": "0x22354c5",
      "gasUsed": "0x1a753",
      "effectiveGasPrice": "0xba43b7401",
      "from": "0x56fd3f2bee130e9867942d0f463a16fbe49b8d81",
      "to": "0x98c6d2a3a39ff5a2803240f597eb4c8ce76d36ab",
      "contractAddress": null
    },
    {
      "status": "0x1",
      "cumulativeGasUsed": "0x732c4a",
      "logs": [
        {
          "address": "0x98c6d2a3a39ff5a2803240f597eb4c8ce76d36ab",
          "topics": [
            "0xadbbec6c203cb0248e89fe6d15ad651061a9d5203a1ab0273256e2b7decffa89",
            "0x34737a6b35a25ba8679874e532109434ce6dd0ac8c567a2095b9d0feff06d7b2",
            "0x0000000000000000000000009e174bc09cedadc7a5e39ba1142b6d95365182cb",
            "0x000000000000000000000000fbd6322586ae7c8f0776918e70b8eb169737ba57"
          ],
          "data": "0x00000000000000000000000049503ffd8da325bfe52b8982a7f9c2e26643c276",
          "blockHash": "0x12d32bf347bfea31cee76c6bab174e28dda89eb6f9b0ee4250f9b4b8c9b0902e",
          "blockNumber": "0x22354c5",
          "blockTimestamp": "0x68becc74",
          "transactionHash": "0x59b68c59349d9aa23a267698800bf509eaa182eecf2d9aafcf024b4cdaa18de3",
          "transactionIndex": "0x24",
          "logIndex": "0x65",
          "removed": false
        }
      ],
      "logsBloom": "0x00000000000000000000000000004000008000000000000000000000000001000000000000000000000000000000000000000000000000000000000000000000000000000000000000000000000000000000000000000000000000000000000000000000400000400000000000000000000000000000000400000000000000000000040000000000000000000000000000000000000810000000000000000000000000000000000000000000200000000000000000000000000000000000000000000000000000000000000000400000000000000000000000000000200000000000000000000000000000400000080000000000010000000000000000000000",
      "type": "0x2",
      "transactionHash": "0x59b68c59349d9aa23a267698800bf509eaa182eecf2d9aafcf024b4cdaa18de3",
      "transactionIndex": "0x24",
      "blockHash": "0x12d32bf347bfea31cee76c6bab174e28dda89eb6f9b0ee4250f9b4b8c9b0902e",
      "blockNumber": "0x22354c5",
      "gasUsed": "0x1a753",
      "effectiveGasPrice": "0xba43b7401",
      "from": "0x56fd3f2bee130e9867942d0f463a16fbe49b8d81",
      "to": "0x98c6d2a3a39ff5a2803240f597eb4c8ce76d36ab",
      "contractAddress": null
    },
    {
      "status": "0x1",
      "cumulativeGasUsed": "0x429606",
      "logs": [
        {
          "address": "0x98c6d2a3a39ff5a2803240f597eb4c8ce76d36ab",
          "topics": [
            "0xadbbec6c203cb0248e89fe6d15ad651061a9d5203a1ab0273256e2b7decffa89",
            "0xe18089b08b31c64439612de898b855e9564a163c23b9f2af8047d8b137eb148a",
            "0x0000000000000000000000009e174bc09cedadc7a5e39ba1142b6d95365182cb",
            "0x000000000000000000000000ddcaf78d5bb0afe82ec022b7e58758ecc1c6f641"
          ],
          "data": "0x00000000000000000000000049503ffd8da325bfe52b8982a7f9c2e26643c276",
          "blockHash": "0xebee917a795bdac00598e7bf089c291fc58ef6bd7da1a4a10320701b2b7105dc",
          "blockNumber": "0x22354c6",
          "blockTimestamp": "0x68becc74",
          "transactionHash": "0xcef4494621fce33e2a3987461a621f71fb1c3fc37ebc8f3352b655f247249d9a",
          "transactionIndex": "0x1e",
          "logIndex": "0x46",
          "removed": false
        }
      ],
      "logsBloom": "0x00000000000000000000000000004000008000000000000000000000000000000000000000000000000000000000000000000000000000000000000000002000000000000800000000000000000000000000000000000000000000000000000000000000400000400000000000000000000000000000000400000000000000000000040000000000000000000000000000000000000800000000000000000000000000000000000000001000200000000000000000000001000000000000000000000000000000000000000000000200000000000000080000000000000000000000000000000000000000400000000000000000000000000000000000000000",
      "type": "0x2",
      "transactionHash": "0xcef4494621fce33e2a3987461a621f71fb1c3fc37ebc8f3352b655f247249d9a",
      "transactionIndex": "0x1e",
      "blockHash": "0xebee917a795bdac00598e7bf089c291fc58ef6bd7da1a4a10320701b2b7105dc",
      "blockNumber": "0x22354c6",
      "gasUsed": "0x1a753",
      "effectiveGasPrice": "0xba43b7401",
      "from": "0x56fd3f2bee130e9867942d0f463a16fbe49b8d81",
      "to": "0x98c6d2a3a39ff5a2803240f597eb4c8ce76d36ab",
      "contractAddress": null
    },
    {
      "status": "0x1",
      "cumulativeGasUsed": "0x443d59",
      "logs": [
        {
          "address": "0x98c6d2a3a39ff5a2803240f597eb4c8ce76d36ab",
          "topics": [
            "0xadbbec6c203cb0248e89fe6d15ad651061a9d5203a1ab0273256e2b7decffa89",
            "0xf57e4020771fd78df1d99034f5f503d8c4886e428030f6b187fe1745122a0b02",
            "0x0000000000000000000000009e174bc09cedadc7a5e39ba1142b6d95365182cb",
            "0x000000000000000000000000afd756571b850b833ec0a1a66a69db30af95ee94"
          ],
          "data": "0x00000000000000000000000049503ffd8da325bfe52b8982a7f9c2e26643c276",
          "blockHash": "0xebee917a795bdac00598e7bf089c291fc58ef6bd7da1a4a10320701b2b7105dc",
          "blockNumber": "0x22354c6",
          "blockTimestamp": "0x68becc74",
          "transactionHash": "0x06e777e12d05c1877a9b67a4a7facb4bba674216f200e266e033cb97298dded2",
          "transactionIndex": "0x1f",
          "logIndex": "0x47",
          "removed": false
        }
      ],
      "logsBloom": "0x00000000000000000000000000006000008000000000000000000000000000000000000000000010000000000010000000000000000000000000000000000000000000000000000000000080000000000000000000000000000000000000000000000000400000400000000000000000000000000000000400000000000000000000040000000000000000000000000000000000000800000000000000000000000000000000000004000000200000000000000000000000000000000000000000000000000000000000000000000000000000000000000000000000000000000000000000000000000000400000000000000000000000000000000000000000",
      "type": "0x2",
      "transactionHash": "0x06e777e12d05c1877a9b67a4a7facb4bba674216f200e266e033cb97298dded2",
      "transactionIndex": "0x1f",
      "blockHash": "0xebee917a795bdac00598e7bf089c291fc58ef6bd7da1a4a10320701b2b7105dc",
      "blockNumber": "0x22354c6",
      "gasUsed": "0x1a753",
      "effectiveGasPrice": "0xba43b7401",
      "from": "0x56fd3f2bee130e9867942d0f463a16fbe49b8d81",
      "to": "0x98c6d2a3a39ff5a2803240f597eb4c8ce76d36ab",
      "contractAddress": null
    },
    {
      "status": "0x1",
      "cumulativeGasUsed": "0x45e4ac",
      "logs": [
        {
          "address": "0x98c6d2a3a39ff5a2803240f597eb4c8ce76d36ab",
          "topics": [
            "0xadbbec6c203cb0248e89fe6d15ad651061a9d5203a1ab0273256e2b7decffa89",
            "0xe8aecadc079c71e499fb1988f24806ea48e03b472829a165527bd80d856c3f7f",
            "0x0000000000000000000000009e174bc09cedadc7a5e39ba1142b6d95365182cb",
            "0x000000000000000000000000ce1b285691b40f54762d69c40b24ec4c95add3fc"
          ],
          "data": "0x00000000000000000000000049503ffd8da325bfe52b8982a7f9c2e26643c276",
          "blockHash": "0xebee917a795bdac00598e7bf089c291fc58ef6bd7da1a4a10320701b2b7105dc",
          "blockNumber": "0x22354c6",
          "blockTimestamp": "0x68becc74",
          "transactionHash": "0x85213ba895fa26e0c77ac4dc11ccc8957e871d7044fba4c828b353ca00d060a3",
          "transactionIndex": "0x20",
          "logIndex": "0x48",
          "removed": false
        }
      ],
      "logsBloom": "0x00000000000000000000000000004000008000000000000000000000000000000000000000000000000000000000000000000000000000400000000000000800000000000000000000000000000000000000000000000000000000000000000000000000400000400000000000000000000000000000000400000000000000000000040000000000000000000000000000000000000800000000000000000000002000000000002000000000200000000000000000000000000000000000000000000000000000000000000000000000000000000000000000000000000000000000000000000000000000400000000000800000000000000000008000000000",
      "type": "0x2",
      "transactionHash": "0x85213ba895fa26e0c77ac4dc11ccc8957e871d7044fba4c828b353ca00d060a3",
      "transactionIndex": "0x20",
      "blockHash": "0xebee917a795bdac00598e7bf089c291fc58ef6bd7da1a4a10320701b2b7105dc",
      "blockNumber": "0x22354c6",
      "gasUsed": "0x1a753",
      "effectiveGasPrice": "0xba43b7401",
      "from": "0x56fd3f2bee130e9867942d0f463a16fbe49b8d81",
      "to": "0x98c6d2a3a39ff5a2803240f597eb4c8ce76d36ab",
      "contractAddress": null
    },
    {
      "status": "0x1",
      "cumulativeGasUsed": "0x478bff",
      "logs": [
        {
          "address": "0x98c6d2a3a39ff5a2803240f597eb4c8ce76d36ab",
          "topics": [
            "0xadbbec6c203cb0248e89fe6d15ad651061a9d5203a1ab0273256e2b7decffa89",
            "0x1e202f0a25ad85db6599f21e871274250e3f946c4b13ead6793c4d36d54b7680",
            "0x0000000000000000000000009e174bc09cedadc7a5e39ba1142b6d95365182cb",
            "0x000000000000000000000000af95a360ebae29ba1f9dc8b833b8a985df168a83"
          ],
          "data": "0x00000000000000000000000049503ffd8da325bfe52b8982a7f9c2e26643c276",
          "blockHash": "0xebee917a795bdac00598e7bf089c291fc58ef6bd7da1a4a10320701b2b7105dc",
          "blockNumber": "0x22354c6",
          "blockTimestamp": "0x68becc74",
          "transactionHash": "0x92a6dd37e26f27ac41ac28d93b5959513ff5f67afed51cbb3c97e4538e82a3f3",
          "transactionIndex": "0x21",
          "logIndex": "0x49",
          "removed": false
        }
      ],
      "logsBloom": "0x00000000000000000000000000004000008000000000000000000000000000000000000000000000000000000000000000000000000000000000000000000000000000000000000000000000000000000000000000000000000000000080000000000000400000400000000000000000000000000000000400000000000000000000040000000000000000000000000000000000000800000000004000000000000000000000000000000000200000080000000000000000000000000000000000000000004000080000002000000000000000000000000000000000000000000000000000000000000000400000000000000000000000000000000000000000",
      "type": "0x2",
      "transactionHash": "0x92a6dd37e26f27ac41ac28d93b5959513ff5f67afed51cbb3c97e4538e82a3f3",
      "transactionIndex": "0x21",
      "blockHash": "0xebee917a795bdac00598e7bf089c291fc58ef6bd7da1a4a10320701b2b7105dc",
      "blockNumber": "0x22354c6",
      "gasUsed": "0x1a753",
      "effectiveGasPrice": "0xba43b7401",
      "from": "0x56fd3f2bee130e9867942d0f463a16fbe49b8d81",
      "to": "0x98c6d2a3a39ff5a2803240f597eb4c8ce76d36ab",
      "contractAddress": null
    },
    {
      "status": "0x1",
      "cumulativeGasUsed": "0x493352",
      "logs": [
        {
          "address": "0x98c6d2a3a39ff5a2803240f597eb4c8ce76d36ab",
          "topics": [
            "0xadbbec6c203cb0248e89fe6d15ad651061a9d5203a1ab0273256e2b7decffa89",
            "0x3a741bff3e73215535b95af758343e59e523a59773b5420528f5e1b3a12de496",
            "0x0000000000000000000000009e174bc09cedadc7a5e39ba1142b6d95365182cb",
            "0x000000000000000000000000fdb9576d43148e523f5351de41e43a307a7d2956"
          ],
          "data": "0x00000000000000000000000049503ffd8da325bfe52b8982a7f9c2e26643c276",
          "blockHash": "0xebee917a795bdac00598e7bf089c291fc58ef6bd7da1a4a10320701b2b7105dc",
          "blockNumber": "0x22354c6",
          "blockTimestamp": "0x68becc74",
          "transactionHash": "0x937cb06b058784411b131642d8bb5afaa878f41958028e521bee0eed7fb000f7",
          "transactionIndex": "0x22",
          "logIndex": "0x4a",
          "removed": false
        }
      ],
      "logsBloom": "0x00000010000000000000000000004000008000000000000000000000000000000000000000000000000000000000001000000000000000000000000000000000000000000000000000000000000000000000000000000000000000000000000000000000400000400000000000000000000000000000000400000000000000000000040000000000000000000000000000000040000800000000000000000000000000000000000000000000200000000000000000000000000000000000000000000000000000002000000000000000000000000000000000000000000000000000000000000000000200400000000000000000000000000000000000000040",
      "type": "0x2",
      "transactionHash": "0x937cb06b058784411b131642d8bb5afaa878f41958028e521bee0eed7fb000f7",
      "transactionIndex": "0x22",
      "blockHash": "0xebee917a795bdac00598e7bf089c291fc58ef6bd7da1a4a10320701b2b7105dc",
      "blockNumber": "0x22354c6",
      "gasUsed": "0x1a753",
      "effectiveGasPrice": "0xba43b7401",
      "from": "0x56fd3f2bee130e9867942d0f463a16fbe49b8d81",
      "to": "0x98c6d2a3a39ff5a2803240f597eb4c8ce76d36ab",
      "contractAddress": null
    },
    {
      "status": "0x1",
      "cumulativeGasUsed": "0x4adaa5",
      "logs": [
        {
          "address": "0x98c6d2a3a39ff5a2803240f597eb4c8ce76d36ab",
          "topics": [
            "0xadbbec6c203cb0248e89fe6d15ad651061a9d5203a1ab0273256e2b7decffa89",
            "0x7e31ac1ba139a9da37c7e0503e48eb7d3b9a74f348eddf98157d11cf13306a34",
            "0x0000000000000000000000009e174bc09cedadc7a5e39ba1142b6d95365182cb",
            "0x000000000000000000000000109902563daa6d404f9d30981d03d7070b96e1c8"
          ],
          "data": "0x00000000000000000000000049503ffd8da325bfe52b8982a7f9c2e26643c276",
          "blockHash": "0xebee917a795bdac00598e7bf089c291fc58ef6bd7da1a4a10320701b2b7105dc",
          "blockNumber": "0x22354c6",
          "blockTimestamp": "0x68becc74",
          "transactionHash": "0xa8354547f69e58f3b1d8a1071131d9b28ccc2851d9ec57efbe18e82afd729923",
          "transactionIndex": "0x23",
          "logIndex": "0x4b",
          "removed": false
        }
      ],
      "logsBloom": "0x00000000000000000000000000004000008000000000000000000000000100000000000000000000000000000000000000000000000000000000000000000000000000000000000000080000000000000000000000000000000000000000000000000000400800400000000800000000000000000000000400000000000000000000040000000000000000000000000000000000000800000000000000000000000000000000000000000000300000000000000000000000000000000000000000000000000000000000000000000000000000000000000008000000000000000000000000000000000000400000000000000000000000000000000000000000",
      "type": "0x2",
      "transactionHash": "0xa8354547f69e58f3b1d8a1071131d9b28ccc2851d9ec57efbe18e82afd729923",
      "transactionIndex": "0x23",
      "blockHash": "0xebee917a795bdac00598e7bf089c291fc58ef6bd7da1a4a10320701b2b7105dc",
      "blockNumber": "0x22354c6",
      "gasUsed": "0x1a753",
      "effectiveGasPrice": "0xba43b7401",
      "from": "0x56fd3f2bee130e9867942d0f463a16fbe49b8d81",
      "to": "0x98c6d2a3a39ff5a2803240f597eb4c8ce76d36ab",
      "contractAddress": null
    },
    {
      "status": "0x1",
      "cumulativeGasUsed": "0x4c81f8",
      "logs": [
        {
          "address": "0x98c6d2a3a39ff5a2803240f597eb4c8ce76d36ab",
          "topics": [
            "0xadbbec6c203cb0248e89fe6d15ad651061a9d5203a1ab0273256e2b7decffa89",
            "0x74347ad8b811b2ca1cfbc092ee1f48203e0add8c0c4c4760d66868b46a42af81",
            "0x0000000000000000000000009e174bc09cedadc7a5e39ba1142b6d95365182cb",
            "0x000000000000000000000000b5a31a69b58b3b3a61c8704b489f53d6b79016c4"
          ],
          "data": "0x00000000000000000000000049503ffd8da325bfe52b8982a7f9c2e26643c276",
          "blockHash": "0xebee917a795bdac00598e7bf089c291fc58ef6bd7da1a4a10320701b2b7105dc",
          "blockNumber": "0x22354c6",
          "blockTimestamp": "0x68becc74",
          "transactionHash": "0xce59677fa14688fc17edc7a0d0ac1500bcb20d0356043830330af2860c3a3dc9",
          "transactionIndex": "0x24",
          "logIndex": "0x4c",
          "removed": false
        }
      ],
      "logsBloom": "0x00000000000000000000000000024000008000000000000000000000000000000000000000000000000000000000000000000000000000000020000000000000000000000000000001000000000400000000000000000000000000000000000000000000400000400000000000000000000000000000000400000000000000000000040000000000000000000000000000000000000800000000000000000000000000010000000000000000200000000000000000000000000000000000000000000000000000000000000000000000000000000000000000000000000000000000000000000000000000400000000000000000000000000000000400000000",
      "type": "0x2",
      "transactionHash": "0xce59677fa14688fc17edc7a0d0ac1500bcb20d0356043830330af2860c3a3dc9",
      "transactionIndex": "0x24",
      "blockHash": "0xebee917a795bdac00598e7bf089c291fc58ef6bd7da1a4a10320701b2b7105dc",
      "blockNumber": "0x22354c6",
      "gasUsed": "0x1a753",
      "effectiveGasPrice": "0xba43b7401",
      "from": "0x56fd3f2bee130e9867942d0f463a16fbe49b8d81",
      "to": "0x98c6d2a3a39ff5a2803240f597eb4c8ce76d36ab",
      "contractAddress": null
    },
    {
      "status": "0x1",
      "cumulativeGasUsed": "0x4e1d35",
      "logs": [
        {
          "address": "0x98c6d2a3a39ff5a2803240f597eb4c8ce76d36ab",
          "topics": [
            "0xadbbec6c203cb0248e89fe6d15ad651061a9d5203a1ab0273256e2b7decffa89",
            "0x09c52cc74e3ab4c6a0fbdecf0b859ecc63ba2dbec3861bfc87495fdf80d71cd9",
            "0x0000000000000000000000009e174bc09cedadc7a5e39ba1142b6d95365182cb",
            "0x000000000000000000000000272e9a32492f3c9b7c31e374f2f7c3627d746de3"
          ],
          "data": "0x00000000000000000000000049503ffd8da325bfe52b8982a7f9c2e26643c276",
          "blockHash": "0xebee917a795bdac00598e7bf089c291fc58ef6bd7da1a4a10320701b2b7105dc",
          "blockNumber": "0x22354c6",
          "blockTimestamp": "0x68becc74",
          "transactionHash": "0xd0452821c7c0b7ddd104122625c0e4e61c657076ac4edc95038cc4837d5a60c5",
          "transactionIndex": "0x25",
          "logIndex": "0x4d",
          "removed": false
        }
      ],
      "logsBloom": "0x00000000000000000000000000004000008000000000000000000000000000000000000000000000000000000000000000000000000000000000000000000000000000000000000000000000000000000000200000000000000000000001000000000000400000400000000000000000000000000000000400000000040000000000040000000000000000000000000000000000000800000000000000000000000000000008004000000000201000000000000000000000000000000000000000000000000000000000000000000000000000000000000000000000000000000000000000000000000000400000000000000000000000000000000000000000",
      "type": "0x2",
      "transactionHash": "0xd0452821c7c0b7ddd104122625c0e4e61c657076ac4edc95038cc4837d5a60c5",
      "transactionIndex": "0x25",
      "blockHash": "0xebee917a795bdac00598e7bf089c291fc58ef6bd7da1a4a10320701b2b7105dc",
      "blockNumber": "0x22354c6",
      "gasUsed": "0x19b3d",
      "effectiveGasPrice": "0xba43b7401",
      "from": "0x56fd3f2bee130e9867942d0f463a16fbe49b8d81",
      "to": "0x98c6d2a3a39ff5a2803240f597eb4c8ce76d36ab",
      "contractAddress": null
    },
    {
      "status": "0x1",
      "cumulativeGasUsed": "0x4fd095",
      "logs": [
        {
          "address": "0x98c6d2a3a39ff5a2803240f597eb4c8ce76d36ab",
          "topics": [
            "0xadbbec6c203cb0248e89fe6d15ad651061a9d5203a1ab0273256e2b7decffa89",
            "0x1dd1d4a1c823d13a0b425f67f38f882c3369d05b67e9b3ba1d561d1d9443651e",
            "0x0000000000000000000000009e174bc09cedadc7a5e39ba1142b6d95365182cb",
            "0x000000000000000000000000a9b7e81a312097b0920a0b11543626c9a57155b2"
          ],
          "data": "0x00000000000000000000000049503ffd8da325bfe52b8982a7f9c2e26643c276",
          "blockHash": "0xebee917a795bdac00598e7bf089c291fc58ef6bd7da1a4a10320701b2b7105dc",
          "blockNumber": "0x22354c6",
          "blockTimestamp": "0x68becc74",
          "transactionHash": "0xfee49ce823436b2ccc2e5e354ce00b9249af42b2f3050b7d9270e437cc4399fb",
          "transactionIndex": "0x26",
          "logIndex": "0x4e",
          "removed": false
        }
      ],
      "logsBloom": "0x00000000000000000000000000004000008000000000000000000000000000000000000000000000000000000000000000000000000000000000000000000000000000000000000000000000000000000000004002000000000000000000000000000000400000400000000000000000000000000000000400000000000000000000040000000000000080000000000000000000200800000000000000000000010000000000000000000000200010000000000000000000000000000000000000000000000000000000000000000000000000000000000000000000000000000000000000000000000000400000000000000000000000000000000000000000",
      "type": "0x2",
      "transactionHash": "0xfee49ce823436b2ccc2e5e354ce00b9249af42b2f3050b7d9270e437cc4399fb",
      "transactionIndex": "0x26",
      "blockHash": "0xebee917a795bdac00598e7bf089c291fc58ef6bd7da1a4a10320701b2b7105dc",
      "blockNumber": "0x22354c6",
      "gasUsed": "0x1b360",
      "effectiveGasPrice": "0xba43b7401",
      "from": "0x56fd3f2bee130e9867942d0f463a16fbe49b8d81",
      "to": "0x98c6d2a3a39ff5a2803240f597eb4c8ce76d36ab",
      "contractAddress": null
    }
  ],
  "libraries": [
    "node_modules/@celo/contracts/common/linkedlists/AddressSortedLinkedListWithMedian.sol:AddressSortedLinkedListWithMedian:0xcB985Be7a200D0075155AC2697D6D5F00267a11b"
  ],
  "pending": [],
  "returns": {},
  "timestamp": 1757334646862,
  "chain": 10143,
  "commit": "cf21763"
}