{
  "transactions": [
    {
      "hash": "0x44a1aaa51eb075decac0acfddd87db2d010bd33e3a5fe394cb6572b3f232719c",
      "transactionType": "CALL",
      "contractName": null,
      "contractAddress": "0xecb3c656c131fcd9bb8d1d80898716bd684feb78",
      "function": "destroyExchange(bytes32,uint256)",
      "arguments": [
        "0x7952984d7278ca3417febf52815c321984ac3147ced2c02bb6a02b0bcab08413",
        "18"
      ],
      "transaction": {
        "from": "0x56fd3f2bee130e9867942d0f463a16fbe49b8d81",
        "to": "0xecb3c656c131fcd9bb8d1d80898716bd684feb78",
        "gas": "0x1a753",
        "value": "0x0",
        "input": "0xe46eb5b67952984d7278ca3417febf52815c321984ac3147ced2c02bb6a02b0bcab084130000000000000000000000000000000000000000000000000000000000000012",
        "nonce": "0x860",
        "chainId": "0xaa044c"
      },
      "additionalContracts": [],
      "isFixedGasLimit": false
    },
    {
      "hash": "0xdcf2227bc007af15039942236cc7af080fb4f8bfd69d2f2d6b4abc74199eaaef",
      "transactionType": "CALL",
      "contractName": null,
      "contractAddress": "0xecb3c656c131fcd9bb8d1d80898716bd684feb78",
      "function": "createExchange((address,address,address,uint256,uint256,uint256,((uint256),address,uint256,uint256,uint256)))",
      "arguments": [
        "(0xdE9e4C3ce781b4bA68120d6261cbad65ce0aB00b, 0x0352976d940a2C3FBa0C3623198947Ee1d17869E, 0x3b199d9EbEbe509bb711BfFb455c2d79102A9602, 0, 0, 0, ((3000000000000000000000), 0x341E2A8b5b52B54F1794DDbdD54e433746C65d60, 360, 1, 10000000000000000000000000))"
      ],
      "transaction": {
        "from": "0x56fd3f2bee130e9867942d0f463a16fbe49b8d81",
        "to": "0xecb3c656c131fcd9bb8d1d80898716bd684feb78",
        "gas": "0x7d30d",
        "value": "0x0",
        "input": "0xb0898691000000000000000000000000de9e4c3ce781b4ba68120d6261cbad65ce0ab00b0000000000000000000000000352976d940a2c3fba0c3623198947ee1d17869e0000000000000000000000003b199d9ebebe509bb711bffb455c2d79102a96020000000000000000000000000000000000000000000000000000000000000000000000000000000000000000000000000000000000000000000000000000000000000000000000000000000000000000000000000000000000000000000000000000000000000000000000000000000000000000000000a2a15d09519be00000000000000000000000000000341e2a8b5b52b54f1794ddbdd54e433746c65d6000000000000000000000000000000000000000000000000000000000000001680000000000000000000000000000000000000000000000000000000000000001000000000000000000000000000000000000000000084595161401484a000000",
        "nonce": "0x861",
        "chainId": "0xaa044c"
      },
      "additionalContracts": [],
      "isFixedGasLimit": false
    },
    {
      "hash": "0xf28dfc94f0bfd64e43dc1c298d617a2af04f73d7e85a80c62648f48d60f88a10",
      "transactionType": "CALL",
      "contractName": null,
      "contractAddress": "0xb9ae2065142eb79b6c5eb1e8778f883fad6b07ba",
      "function": "configureTradingLimit(bytes32,address,(uint32,uint32,int48,int48,int48,uint8))",
      "arguments": [
        "0x7952984d7278ca3417febf52815c321984ac3147ced2c02bb6a02b0bcab08413",
        "0xdE9e4C3ce781b4bA68120d6261cbad65ce0aB00b",
        "(300, 86400, 50000, 250000, 1250000, 7)"
      ],
      "transaction": {
        "from": "0x56fd3f2bee130e9867942d0f463a16fbe49b8d81",
        "to": "0xb9ae2065142eb79b6c5eb1e8778f883fad6b07ba",
        "gas": "0xfaa5",
        "value": "0x0",
        "input": "0xa9b5aab37952984d7278ca3417febf52815c321984ac3147ced2c02bb6a02b0bcab08413000000000000000000000000de9e4c3ce781b4ba68120d6261cbad65ce0ab00b000000000000000000000000000000000000000000000000000000000000012c0000000000000000000000000000000000000000000000000000000000015180000000000000000000000000000000000000000000000000000000000000c350000000000000000000000000000000000000000000000000000000000003d09000000000000000000000000000000000000000000000000000000000001312d00000000000000000000000000000000000000000000000000000000000000007",
        "nonce": "0x862",
        "chainId": "0xaa044c"
      },
      "additionalContracts": [],
      "isFixedGasLimit": false
    },
    {
      "hash": "0xde28d31c35e7c0b72e41e286963d60dfc04d2d375d6f0a7a45df4d35b0260dc8",
      "transactionType": "CALL",
      "contractName": null,
      "contractAddress": "0xb9ae2065142eb79b6c5eb1e8778f883fad6b07ba",
      "function": "configureTradingLimit(bytes32,address,(uint32,uint32,int48,int48,int48,uint8))",
      "arguments": [
        "0x7952984d7278ca3417febf52815c321984ac3147ced2c02bb6a02b0bcab08413",
        "0x0352976d940a2C3FBa0C3623198947Ee1d17869E",
        "(300, 86400, 2870000, 14350000, 71750000, 7)"
      ],
      "transaction": {
        "from": "0x56fd3f2bee130e9867942d0f463a16fbe49b8d81",
        "to": "0xb9ae2065142eb79b6c5eb1e8778f883fad6b07ba",
        "gas": "0xfac5",
        "value": "0x0",
        "input": "0xa9b5aab37952984d7278ca3417febf52815c321984ac3147ced2c02bb6a02b0bcab084130000000000000000000000000352976d940a2c3fba0c3623198947ee1d17869e000000000000000000000000000000000000000000000000000000000000012c000000000000000000000000000000000000000000000000000000000001518000000000000000000000000000000000000000000000000000000000002bcaf00000000000000000000000000000000000000000000000000000000000daf6b0000000000000000000000000000000000000000000000000000000000446d1700000000000000000000000000000000000000000000000000000000000000007",
        "nonce": "0x863",
        "chainId": "0xaa044c"
      },
      "additionalContracts": [],
      "isFixedGasLimit": false
    }
  ],
  "receipts": [
    {
      "status": "0x1",
      "cumulativeGasUsed": "0x1e68c",
      "logs": [
        {
          "address": "0xecb3c656c131fcd9bb8d1d80898716bd684feb78",
          "topics": [
            "0xadbbec6c203cb0248e89fe6d15ad651061a9d5203a1ab0273256e2b7decffa89",
            "0x7952984d7278ca3417febf52815c321984ac3147ced2c02bb6a02b0bcab08413",
            "0x000000000000000000000000de9e4c3ce781b4ba68120d6261cbad65ce0ab00b",
            "0x0000000000000000000000000352976d940a2c3fba0c3623198947ee1d17869e"
          ],
          "data": "0x0000000000000000000000003b199d9ebebe509bb711bffb455c2d79102a9602",
          "blockHash": "0x42844205c9baaa9418e63488e5d19aa13fd2ba331b794269663456d5a9dc90fd",
          "blockNumber": "0x441255",
          "transactionHash": "0x44a1aaa51eb075decac0acfddd87db2d010bd33e3a5fe394cb6572b3f232719c",
          "transactionIndex": "0x1",
          "logIndex": "0x0",
          "removed": false
        }
      ],
      "logsBloom": "0x00000000000000000000000000004008008008000000000100003000000000000100010000000000000000000000000000000001000000000000000000000000000000000000000000000000000000002000000000000000000000000000000000000000000002000000000000000000000000000000000000000000000000000000040000000000000000000000000000000000000000000000000000000000000000000000000000000000000000000000000000000000000000000000000000000000000000000000000000000000000000000200100000000000000000000000000000000000000000000000000000000000000000000000000000000000",
      "type": "0x2",
      "transactionHash": "0x44a1aaa51eb075decac0acfddd87db2d010bd33e3a5fe394cb6572b3f232719c",
      "transactionIndex": "0x1",
      "blockHash": "0x42844205c9baaa9418e63488e5d19aa13fd2ba331b794269663456d5a9dc90fd",
      "blockNumber": "0x441255",
      "gasUsed": "0x1327c",
      "effectiveGasPrice": "0x5d21dba01",
      "from": "0x56fd3f2bee130e9867942d0f463a16fbe49b8d81",
      "to": "0xecb3c656c131fcd9bb8d1d80898716bd684feb78",
      "contractAddress": null,
      "l1BaseFeeScalar": "0x0",
      "l1BlobBaseFee": "0x563a9c",
      "l1BlobBaseFeeScalar": "0x0",
      "l1Fee": "0x0",
      "l1GasPrice": "0x27c8",
      "l1GasUsed": "0x640"
    },
    {
      "status": "0x1",
      "cumulativeGasUsed": "0x790b9",
      "logs": [
        {
          "address": "0xecb3c656c131fcd9bb8d1d80898716bd684feb78",
          "topics": [
            "0xb374789237d43aed0f75b4c50a45793fd70e354bb96eecd573f35f5d509d78a1",
            "0x7952984d7278ca3417febf52815c321984ac3147ced2c02bb6a02b0bcab08413",
            "0x000000000000000000000000de9e4c3ce781b4ba68120d6261cbad65ce0ab00b",
            "0x0000000000000000000000000352976d940a2c3fba0c3623198947ee1d17869e"
          ],
          "data": "0x0000000000000000000000003b199d9ebebe509bb711bffb455c2d79102a9602",
          "blockHash": "0x42844205c9baaa9418e63488e5d19aa13fd2ba331b794269663456d5a9dc90fd",
          "blockNumber": "0x441255",
          "transactionHash": "0xdcf2227bc007af15039942236cc7af080fb4f8bfd69d2f2d6b4abc74199eaaef",
          "transactionIndex": "0x2",
          "logIndex": "0x1",
          "removed": false
        }
      ],
      "logsBloom": "0x00000000000000000000000000000008000008000000004100003000000040000100010000000000000000000000000000000001000000000000000000000000000000000000000000000000000000002000000000000000000000000000000000000000000002000000000000000000000000000000000000000000000000000000000000000000000000000000000000000000000000000000000000000000000000000000000000000000000000000000000000000000000000000000000000000000000000000000000000000000000000000200100000000000000000000000000000000000000000000000000000000000000000008000000000000000",
      "type": "0x2",
      "transactionHash": "0xdcf2227bc007af15039942236cc7af080fb4f8bfd69d2f2d6b4abc74199eaaef",
      "transactionIndex": "0x2",
      "blockHash": "0x42844205c9baaa9418e63488e5d19aa13fd2ba331b794269663456d5a9dc90fd",
      "blockNumber": "0x441255",
      "gasUsed": "0x5aa2d",
      "effectiveGasPrice": "0x5d21dba01",
      "from": "0x56fd3f2bee130e9867942d0f463a16fbe49b8d81",
      "to": "0xecb3c656c131fcd9bb8d1d80898716bd684feb78",
      "contractAddress": null,
      "l1BaseFeeScalar": "0x0",
      "l1BlobBaseFee": "0x563a9c",
      "l1BlobBaseFeeScalar": "0x0",
      "l1Fee": "0x0",
      "l1GasPrice": "0x27c8",
      "l1GasUsed": "0xb81"
    },
    {
      "status": "0x1",
      "cumulativeGasUsed": "0x84630",
      "logs": [
        {
          "address": "0xb9ae2065142eb79b6c5eb1e8778f883fad6b07ba",
          "topics": [
            "0x1a082a1efaf1549c18917ddcb1f759680c29371609e24f4b946e93acf4ce5ad2"
          ],
          "data": "0x7952984d7278ca3417febf52815c321984ac3147ced2c02bb6a02b0bcab08413000000000000000000000000de9e4c3ce781b4ba68120d6261cbad65ce0ab00b000000000000000000000000000000000000000000000000000000000000012c0000000000000000000000000000000000000000000000000000000000015180000000000000000000000000000000000000000000000000000000000000c350000000000000000000000000000000000000000000000000000000000003d09000000000000000000000000000000000000000000000000000000000001312d00000000000000000000000000000000000000000000000000000000000000007",
          "blockHash": "0x42844205c9baaa9418e63488e5d19aa13fd2ba331b794269663456d5a9dc90fd",
          "blockNumber": "0x441255",
          "transactionHash": "0xf28dfc94f0bfd64e43dc1c298d617a2af04f73d7e85a80c62648f48d60f88a10",
          "transactionIndex": "0x3",
          "logIndex": "0x2",
          "removed": false
        }
      ],
      "logsBloom": "0x00080000000000000000000000000000000400000000000000000000000000000000000000000000000000000000000000000000000000000000020000000000000000000000000000000000000000000000000000000000000000000000000000000000000000000000000000000000000000000000000000000000000000000000000000000000000000000000000000000000000000000000000000000000000000000000000000000000000000000000000000000000000000000000000000000000000000000000000010000000000000000000000000000000000000000000000000000000000000000000000000000000000010000010000000000000",
      "type": "0x2",
      "transactionHash": "0xf28dfc94f0bfd64e43dc1c298d617a2af04f73d7e85a80c62648f48d60f88a10",
      "transactionIndex": "0x3",
      "blockHash": "0x42844205c9baaa9418e63488e5d19aa13fd2ba331b794269663456d5a9dc90fd",
      "blockNumber": "0x441255",
      "gasUsed": "0xb577",
      "effectiveGasPrice": "0x5d21dba01",
      "from": "0x56fd3f2bee130e9867942d0f463a16fbe49b8d81",
      "to": "0xb9ae2065142eb79b6c5eb1e8778f883fad6b07ba",
      "contractAddress": null,
      "l1BaseFeeScalar": "0x0",
      "l1BlobBaseFee": "0x563a9c",
      "l1BlobBaseFeeScalar": "0x0",
      "l1Fee": "0x0",
      "l1GasPrice": "0x27c8",
      "l1GasUsed": "0x9ad"
    },
    {
      "status": "0x1",
      "cumulativeGasUsed": "0x8fbbf",
      "logs": [
        {
          "address": "0xb9ae2065142eb79b6c5eb1e8778f883fad6b07ba",
          "topics": [
            "0x1a082a1efaf1549c18917ddcb1f759680c29371609e24f4b946e93acf4ce5ad2"
          ],
          "data": "0x7952984d7278ca3417febf52815c321984ac3147ced2c02bb6a02b0bcab084130000000000000000000000000352976d940a2c3fba0c3623198947ee1d17869e000000000000000000000000000000000000000000000000000000000000012c000000000000000000000000000000000000000000000000000000000001518000000000000000000000000000000000000000000000000000000000002bcaf00000000000000000000000000000000000000000000000000000000000daf6b0000000000000000000000000000000000000000000000000000000000446d1700000000000000000000000000000000000000000000000000000000000000007",
          "blockHash": "0x42844205c9baaa9418e63488e5d19aa13fd2ba331b794269663456d5a9dc90fd",
          "blockNumber": "0x441255",
          "transactionHash": "0xde28d31c35e7c0b72e41e286963d60dfc04d2d375d6f0a7a45df4d35b0260dc8",
          "transactionIndex": "0x4",
          "logIndex": "0x3",
          "removed": false
        }
      ],
      "logsBloom": "0x00080000000000000000000000000000000400000000000000000000000000000000000000000000000000000000000000000000000000000000020000000000000000000000000000000000000000000000000000000000000000000000000000000000000000000000000000000000000000000000000000000000000000000000000000000000000000000000000000000000000000000000000000000000000000000000000000000000000000000000000000000000000000000000000000000000000000000000000010000000000000000000000000000000000000000000000000000000000000000000000000000000000010000010000000000000",
      "type": "0x2",
      "transactionHash": "0xde28d31c35e7c0b72e41e286963d60dfc04d2d375d6f0a7a45df4d35b0260dc8",
      "transactionIndex": "0x4",
      "blockHash": "0x42844205c9baaa9418e63488e5d19aa13fd2ba331b794269663456d5a9dc90fd",
      "blockNumber": "0x441255",
      "gasUsed": "0xb58f",
      "effectiveGasPrice": "0x5d21dba01",
      "from": "0x56fd3f2bee130e9867942d0f463a16fbe49b8d81",
      "to": "0xb9ae2065142eb79b6c5eb1e8778f883fad6b07ba",
      "contractAddress": null,
      "l1BaseFeeScalar": "0x0",
      "l1BlobBaseFee": "0x563a9c",
      "l1BlobBaseFeeScalar": "0x0",
      "l1Fee": "0x0",
      "l1GasPrice": "0x27c8",
      "l1GasUsed": "0x9c8"
    }
  ],
  "libraries": [
    "node_modules/@celo/contracts/common/linkedlists/AddressSortedLinkedListWithMedian.sol:AddressSortedLinkedListWithMedian:0xf90B816Ea07eC3c6384656cd5B3249DA8fc3df6F"
  ],
  "pending": [],
  "returns": {},
  "timestamp": 1757745131161,
  "chain": 11142220,
  "commit": "48ea54d"
}