{
  "transactions": [
    {
      "hash": "0xf4cbff576ec25e0b75dc687355da9c69b55f5b2cea2532854b015b269fcd3a0a",
      "transactionType": "CALL",
      "contractName": null,
      "contractAddress": "0xecb3c656c131fcd9bb8d1d80898716bd684feb78",
      "function": "destroyExchange(bytes32,uint256)",
      "arguments": [
        "0x7952984d7278ca3417febf52815c321984ac3147ced2c02bb6a02b0bcab08413",
        "18"
      ],
      "transaction": {
        "from": "0x56fd3f2bee130e9867942d0f463a16fbe49b8d81",
        "to": "0xecb3c656c131fcd9bb8d1d80898716bd684feb78",
        "gas": "0x1a753",
        "value": "0x0",
        "input": "0xe46eb5b67952984d7278ca3417febf52815c321984ac3147ced2c02bb6a02b0bcab084130000000000000000000000000000000000000000000000000000000000000012",
        "nonce": "0x858",
        "chainId": "0xaa044c"
      },
      "additionalContracts": [],
      "isFixedGasLimit": false
    },
    {
      "hash": "0x15e7f8d0691291aa5a5f026f50d5583e919ac37411f9e64da4936fc34dc9e51b",
      "transactionType": "CALL",
      "contractName": null,
      "contractAddress": "0xecb3c656c131fcd9bb8d1d80898716bd684feb78",
      "function": "createExchange((address,address,address,uint256,uint256,uint256,((uint256),address,uint256,uint256,uint256)))",
      "arguments": [
        "(0xdE9e4C3ce781b4bA68120d6261cbad65ce0aB00b, 0x0352976d940a2C3FBa0C3623198947Ee1d17869E, 0x3b199d9EbEbe509bb711BfFb455c2d79102A9602, 0, 0, 0, ((3000000000000000000000), 0x341E2A8b5b52B54F1794DDbdD54e433746C65d60, 360, 1, 10000000000000000000000000))"
      ],
      "transaction": {
        "from": "0x56fd3f2bee130e9867942d0f463a16fbe49b8d81",
        "to": "0xecb3c656c131fcd9bb8d1d80898716bd684feb78",
        "gas": "0x7d30d",
        "value": "0x0",
        "input": "0xb0898691000000000000000000000000de9e4c3ce781b4ba68120d6261cbad65ce0ab00b0000000000000000000000000352976d940a2c3fba0c3623198947ee1d17869e0000000000000000000000003b199d9ebebe509bb711bffb455c2d79102a96020000000000000000000000000000000000000000000000000000000000000000000000000000000000000000000000000000000000000000000000000000000000000000000000000000000000000000000000000000000000000000000000000000000000000000000000000000000000000000000000a2a15d09519be00000000000000000000000000000341e2a8b5b52b54f1794ddbdd54e433746c65d6000000000000000000000000000000000000000000000000000000000000001680000000000000000000000000000000000000000000000000000000000000001000000000000000000000000000000000000000000084595161401484a000000",
        "nonce": "0x859",
        "chainId": "0xaa044c"
      },
      "additionalContracts": [],
      "isFixedGasLimit": false
    },
    {
      "hash": "0x192c83ac03795276c8a6189f2a02d1650986f62e3aaa922892a4d9a2e4bc0fcc",
      "transactionType": "CALL",
      "contractName": null,
      "contractAddress": "0xb9ae2065142eb79b6c5eb1e8778f883fad6b07ba",
      "function": "configureTradingLimit(bytes32,address,(uint32,uint32,int48,int48,int48,uint8))",
      "arguments": [
        "0x7952984d7278ca3417febf52815c321984ac3147ced2c02bb6a02b0bcab08413",
        "0xdE9e4C3ce781b4bA68120d6261cbad65ce0aB00b",
        "(300, 86400, 100000, 500000, 2500000, 7)"
      ],
      "transaction": {
        "from": "0x56fd3f2bee130e9867942d0f463a16fbe49b8d81",
        "to": "0xb9ae2065142eb79b6c5eb1e8778f883fad6b07ba",
        "gas": "0xf976",
        "value": "0x0",
        "input": "0xa9b5aab37952984d7278ca3417febf52815c321984ac3147ced2c02bb6a02b0bcab08413000000000000000000000000de9e4c3ce781b4ba68120d6261cbad65ce0ab00b000000000000000000000000000000000000000000000000000000000000012c000000000000000000000000000000000000000000000000000000000001518000000000000000000000000000000000000000000000000000000000000186a0000000000000000000000000000000000000000000000000000000000007a12000000000000000000000000000000000000000000000000000000000002625a00000000000000000000000000000000000000000000000000000000000000007",
        "nonce": "0x85a",
        "chainId": "0xaa044c"
      },
      "additionalContracts": [],
      "isFixedGasLimit": false
    },
    {
      "hash": "0x68e9416b25de7d0498884c0c4883ca963233d40a2f797ff69af8438b1e2cada3",
      "transactionType": "CALL",
      "contractName": null,
      "contractAddress": "0xb9ae2065142eb79b6c5eb1e8778f883fad6b07ba",
      "function": "configureTradingLimit(bytes32,address,(uint32,uint32,int48,int48,int48,uint8))",
      "arguments": [
        "0x7952984d7278ca3417febf52815c321984ac3147ced2c02bb6a02b0bcab08413",
        "0x0352976d940a2C3FBa0C3623198947Ee1d17869E",
        "(300, 86400, 5740000, 28700000, 143500000, 7)"
      ],
      "transaction": {
        "from": "0x56fd3f2bee130e9867942d0f463a16fbe49b8d81",
        "to": "0xb9ae2065142eb79b6c5eb1e8778f883fad6b07ba",
        "gas": "0xf999",
        "value": "0x0",
        "input": "0xa9b5aab37952984d7278ca3417febf52815c321984ac3147ced2c02bb6a02b0bcab084130000000000000000000000000352976d940a2c3fba0c3623198947ee1d17869e000000000000000000000000000000000000000000000000000000000000012c000000000000000000000000000000000000000000000000000000000001518000000000000000000000000000000000000000000000000000000000005795e00000000000000000000000000000000000000000000000000000000001b5ed6000000000000000000000000000000000000000000000000000000000088da2e00000000000000000000000000000000000000000000000000000000000000007",
        "nonce": "0x85b",
        "chainId": "0xaa044c"
      },
      "additionalContracts": [],
      "isFixedGasLimit": false
    }
  ],
  "receipts": [
    {
      "status": "0x1",
      "cumulativeGasUsed": "0x23894",
      "logs": [
        {
          "address": "0xecb3c656c131fcd9bb8d1d80898716bd684feb78",
          "topics": [
            "0xadbbec6c203cb0248e89fe6d15ad651061a9d5203a1ab0273256e2b7decffa89",
            "0x7952984d7278ca3417febf52815c321984ac3147ced2c02bb6a02b0bcab08413",
            "0x000000000000000000000000de9e4c3ce781b4ba68120d6261cbad65ce0ab00b",
            "0x0000000000000000000000000352976d940a2c3fba0c3623198947ee1d17869e"
          ],
          "data": "0x0000000000000000000000003b199d9ebebe509bb711bffb455c2d79102a9602",
          "blockHash": "0xd3eff2661b65ea68364cc3b1f2b951654578a53a91b2820f14a7b16c282b8cc2",
          "blockNumber": "0x4346cd",
          "transactionHash": "0xf4cbff576ec25e0b75dc687355da9c69b55f5b2cea2532854b015b269fcd3a0a",
          "transactionIndex": "0x2",
          "logIndex": "0x0",
          "removed": false
        }
      ],
      "logsBloom": "0x00000000000000000000000000004008008008000000000100003000000000000100010000000000000000000000000000000001000000000000000000000000000000000000000000000000000000002000000000000000000000000000000000000000000002000000000000000000000000000000000000000000000000000000040000000000000000000000000000000000000000000000000000000000000000000000000000000000000000000000000000000000000000000000000000000000000000000000000000000000000000000200100000000000000000000000000000000000000000000000000000000000000000000000000000000000",
      "type": "0x2",
      "transactionHash": "0xf4cbff576ec25e0b75dc687355da9c69b55f5b2cea2532854b015b269fcd3a0a",
      "transactionIndex": "0x2",
      "blockHash": "0xd3eff2661b65ea68364cc3b1f2b951654578a53a91b2820f14a7b16c282b8cc2",
      "blockNumber": "0x4346cd",
      "gasUsed": "0x1327c",
      "effectiveGasPrice": "0x5d21dba01",
      "from": "0x56fd3f2bee130e9867942d0f463a16fbe49b8d81",
      "to": "0xecb3c656c131fcd9bb8d1d80898716bd684feb78",
      "contractAddress": null,
      "l1BaseFeeScalar": "0x0",
      "l1BlobBaseFee": "0x22a0762d",
      "l1BlobBaseFeeScalar": "0x0",
      "l1Fee": "0x0",
      "l1GasPrice": "0x21cb",
      "l1GasUsed": "0x640"
    },
    {
      "status": "0x1",
      "cumulativeGasUsed": "0x7e2c1",
      "logs": [
        {
          "address": "0xecb3c656c131fcd9bb8d1d80898716bd684feb78",
          "topics": [
            "0xb374789237d43aed0f75b4c50a45793fd70e354bb96eecd573f35f5d509d78a1",
            "0x7952984d7278ca3417febf52815c321984ac3147ced2c02bb6a02b0bcab08413",
            "0x000000000000000000000000de9e4c3ce781b4ba68120d6261cbad65ce0ab00b",
            "0x0000000000000000000000000352976d940a2c3fba0c3623198947ee1d17869e"
          ],
          "data": "0x0000000000000000000000003b199d9ebebe509bb711bffb455c2d79102a9602",
          "blockHash": "0xd3eff2661b65ea68364cc3b1f2b951654578a53a91b2820f14a7b16c282b8cc2",
          "blockNumber": "0x4346cd",
          "transactionHash": "0x15e7f8d0691291aa5a5f026f50d5583e919ac37411f9e64da4936fc34dc9e51b",
          "transactionIndex": "0x3",
          "logIndex": "0x1",
          "removed": false
        }
      ],
      "logsBloom": "0x00000000000000000000000000000008000008000000004100003000000040000100010000000000000000000000000000000001000000000000000000000000000000000000000000000000000000002000000000000000000000000000000000000000000002000000000000000000000000000000000000000000000000000000000000000000000000000000000000000000000000000000000000000000000000000000000000000000000000000000000000000000000000000000000000000000000000000000000000000000000000000200100000000000000000000000000000000000000000000000000000000000000000008000000000000000",
      "type": "0x2",
      "transactionHash": "0x15e7f8d0691291aa5a5f026f50d5583e919ac37411f9e64da4936fc34dc9e51b",
      "transactionIndex": "0x3",
      "blockHash": "0xd3eff2661b65ea68364cc3b1f2b951654578a53a91b2820f14a7b16c282b8cc2",
      "blockNumber": "0x4346cd",
      "gasUsed": "0x5aa2d",
      "effectiveGasPrice": "0x5d21dba01",
      "from": "0x56fd3f2bee130e9867942d0f463a16fbe49b8d81",
      "to": "0xecb3c656c131fcd9bb8d1d80898716bd684feb78",
      "contractAddress": null,
      "l1BaseFeeScalar": "0x0",
      "l1BlobBaseFee": "0x22a0762d",
      "l1BlobBaseFeeScalar": "0x0",
      "l1Fee": "0x0",
      "l1GasPrice": "0x21cb",
      "l1GasUsed": "0xb81"
    },
    {
      "status": "0x1",
      "cumulativeGasUsed": "0x88d54",
      "logs": [
        {
          "address": "0xb9ae2065142eb79b6c5eb1e8778f883fad6b07ba",
          "topics": [
            "0x1a082a1efaf1549c18917ddcb1f759680c29371609e24f4b946e93acf4ce5ad2"
          ],
          "data": "0x7952984d7278ca3417febf52815c321984ac3147ced2c02bb6a02b0bcab08413000000000000000000000000de9e4c3ce781b4ba68120d6261cbad65ce0ab00b000000000000000000000000000000000000000000000000000000000000012c000000000000000000000000000000000000000000000000000000000001518000000000000000000000000000000000000000000000000000000000000186a0000000000000000000000000000000000000000000000000000000000007a12000000000000000000000000000000000000000000000000000000000002625a00000000000000000000000000000000000000000000000000000000000000007",
          "blockHash": "0xd3eff2661b65ea68364cc3b1f2b951654578a53a91b2820f14a7b16c282b8cc2",
          "blockNumber": "0x4346cd",
          "transactionHash": "0x192c83ac03795276c8a6189f2a02d1650986f62e3aaa922892a4d9a2e4bc0fcc",
          "transactionIndex": "0x4",
          "logIndex": "0x2",
          "removed": false
        }
      ],
      "logsBloom": "0x00080000000000000000000000000000000400000000000000000000000000000000000000000000000000000000000000000000000000000000020000000000000000000000000000000000000000000000000000000000000000000000000000000000000000000000000000000000000000000000000000000000000000000000000000000000000000000000000000000000000000000000000000000000000000000000000000000000000000000000000000000000000000000000000000000000000000000000000010000000000000000000000000000000000000000000000000000000000000000000000000000000000010000010000000000000",
      "type": "0x2",
      "transactionHash": "0x192c83ac03795276c8a6189f2a02d1650986f62e3aaa922892a4d9a2e4bc0fcc",
      "transactionIndex": "0x4",
      "blockHash": "0xd3eff2661b65ea68364cc3b1f2b951654578a53a91b2820f14a7b16c282b8cc2",
      "blockNumber": "0x4346cd",
      "gasUsed": "0xaa93",
      "effectiveGasPrice": "0x5d21dba01",
      "from": "0x56fd3f2bee130e9867942d0f463a16fbe49b8d81",
      "to": "0xb9ae2065142eb79b6c5eb1e8778f883fad6b07ba",
      "contractAddress": null,
      "l1BaseFeeScalar": "0x0",
      "l1BlobBaseFee": "0x22a0762d",
      "l1BlobBaseFeeScalar": "0x0",
      "l1Fee": "0x0",
      "l1GasPrice": "0x21cb",
      "l1GasUsed": "0x992"
    },
    {
      "status": "0x1",
      "cumulativeGasUsed": "0x937ff",
      "logs": [
        {
          "address": "0xb9ae2065142eb79b6c5eb1e8778f883fad6b07ba",
          "topics": [
            "0x1a082a1efaf1549c18917ddcb1f759680c29371609e24f4b946e93acf4ce5ad2"
          ],
          "data": "0x7952984d7278ca3417febf52815c321984ac3147ced2c02bb6a02b0bcab084130000000000000000000000000352976d940a2c3fba0c3623198947ee1d17869e000000000000000000000000000000000000000000000000000000000000012c000000000000000000000000000000000000000000000000000000000001518000000000000000000000000000000000000000000000000000000000005795e00000000000000000000000000000000000000000000000000000000001b5ed6000000000000000000000000000000000000000000000000000000000088da2e00000000000000000000000000000000000000000000000000000000000000007",
          "blockHash": "0xd3eff2661b65ea68364cc3b1f2b951654578a53a91b2820f14a7b16c282b8cc2",
          "blockNumber": "0x4346cd",
          "transactionHash": "0x68e9416b25de7d0498884c0c4883ca963233d40a2f797ff69af8438b1e2cada3",
          "transactionIndex": "0x5",
          "logIndex": "0x3",
          "removed": false
        }
      ],
      "logsBloom": "0x00080000000000000000000000000000000400000000000000000000000000000000000000000000000000000000000000000000000000000000020000000000000000000000000000000000000000000000000000000000000000000000000000000000000000000000000000000000000000000000000000000000000000000000000000000000000000000000000000000000000000000000000000000000000000000000000000000000000000000000000000000000000000000000000000000000000000000000000010000000000000000000000000000000000000000000000000000000000000000000000000000000000010000010000000000000",
      "type": "0x2",
      "transactionHash": "0x68e9416b25de7d0498884c0c4883ca963233d40a2f797ff69af8438b1e2cada3",
      "transactionIndex": "0x5",
      "blockHash": "0xd3eff2661b65ea68364cc3b1f2b951654578a53a91b2820f14a7b16c282b8cc2",
      "blockNumber": "0x4346cd",
      "gasUsed": "0xaaab",
      "effectiveGasPrice": "0x5d21dba01",
      "from": "0x56fd3f2bee130e9867942d0f463a16fbe49b8d81",
      "to": "0xb9ae2065142eb79b6c5eb1e8778f883fad6b07ba",
      "contractAddress": null,
      "l1BaseFeeScalar": "0x0",
      "l1BlobBaseFee": "0x22a0762d",
      "l1BlobBaseFeeScalar": "0x0",
      "l1Fee": "0x0",
      "l1GasPrice": "0x21cb",
      "l1GasUsed": "0x9ba"
    }
  ],
  "libraries": [
    "node_modules/@celo/contracts/common/linkedlists/AddressSortedLinkedListWithMedian.sol:AddressSortedLinkedListWithMedian:0xf90B816Ea07eC3c6384656cd5B3249DA8fc3df6F"
  ],
  "pending": [],
  "returns": {},
  "timestamp": 1757693026450,
  "chain": 11142220,
  "commit": "48ea54d"
}