{
  "transactions": [
    {
      "hash": "0x930ec10a3a9f087b4e88d4fe8d706856dbe4a8044f66c67d768f6bd850cb8e66",
      "transactionType": "CALL",
      "contractName": null,
      "contractAddress": "0x32cb58b145d3f7e28c45ce4b2cc31fa94248b23f",
      "function": "execTransaction(address,uint256,bytes,uint8,uint256,uint256,uint256,address,address,bytes)",
      "arguments": [
        "0x40A2aCCbd92BCA938b02010E17A5b8929b49130D",
        "0",
        "0x8d80ff0a0000000000000000000000000000000000000000000000000000000000000020000000000000000000000000000000000000000000000000000000000000011200abfd35ffa94faa4b4d84505daafdfea08f61251b00000000000000000000000000000000000000000000000000000000000000000000000000000000000000000000000000000000000000000000000000000024e3ac8226000000000000000000000000000000000000000000000000000000000000000000abfd35ffa94faa4b4d84505daafdfea08f61251b000000000000000000000000000000000000000000000000000000000000000000000000000000000000000000000000000000000000000000000000000000440f3d249d0000000000000000000000000000000000000000000000000de0b6b3a76400000000000000000000000000000000000000000000000000000000000068b01c090000000000000000000000000000",
        "1",
        "0",
        "0",
        "0",
        "0x0000000000000000000000000000000000000000",
        "0x0000000000000000000000000000000000000000",
        "0x0416317684d44336ff66daa81a7b19dd8a465f9bd08a26c95a962adfcb912fe1352b5acf6521139edf2cace294de979234c6545092675c6b96135f9682cc00ef1b"
      ],
      "transaction": {
        "from": "0x56fd3f2bee130e9867942d0f463a16fbe49b8d81",
        "to": "0x32cb58b145d3f7e28c45ce4b2cc31fa94248b23f",
        "gas": "0x1d17f",
        "value": "0x0",
        "input": "0x6a76120200000000000000000000000040a2accbd92bca938b02010e17a5b8929b49130d0000000000000000000000000000000000000000000000000000000000000000000000000000000000000000000000000000000000000000000000000000014000000000000000000000000000000000000000000000000000000000000000010000000000000000000000000000000000000000000000000000000000000000000000000000000000000000000000000000000000000000000000000000000000000000000000000000000000000000000000000000000000000000000000000000000000000000000000000000000000000000000000000000000000000000000000000000000000000000000000000000000000000000000000000000000000000000000000000000000000000000000000000000000000000000000002e000000000000000000000000000000000000000000000000000000000000001648d80ff0a0000000000000000000000000000000000000000000000000000000000000020000000000000000000000000000000000000000000000000000000000000011200abfd35ffa94faa4b4d84505daafdfea08f61251b00000000000000000000000000000000000000000000000000000000000000000000000000000000000000000000000000000000000000000000000000000024e3ac8226000000000000000000000000000000000000000000000000000000000000000000abfd35ffa94faa4b4d84505daafdfea08f61251b000000000000000000000000000000000000000000000000000000000000000000000000000000000000000000000000000000000000000000000000000000440f3d249d0000000000000000000000000000000000000000000000000de0b6b3a76400000000000000000000000000000000000000000000000000000000000068b01c0900000000000000000000000000000000000000000000000000000000000000000000000000000000000000000000000000000000000000000000000000000000000000000000000000410416317684d44336ff66daa81a7b19dd8a465f9bd08a26c95a962adfcb912fe1352b5acf6521139edf2cace294de979234c6545092675c6b96135f9682cc00ef1b00000000000000000000000000000000000000000000000000000000000000",
        "nonce": "0x11",
        "chainId": "0x2105"
      },
      "additionalContracts": [],
      "isFixedGasLimit": false
    }
  ],
  "receipts": [
    {
      "status": "0x1",
      "cumulativeGasUsed": "0x13e4a",
      "logs": [
        {
          "address": "0x32cb58b145d3f7e28c45ce4b2cc31fa94248b23f",
          "topics": [
            "0x66753cd2356569ee081232e3be8909b950e0a76c1f8460c3a5e3c2be32b11bed"
          ],
          "data": "0x00000000000000000000000040a2accbd92bca938b02010e17a5b8929b49130d000000000000000000000000000000000000000000000000000000000000000000000000000000000000000000000000000000000000000000000000000001600000000000000000000000000000000000000000000000000000000000000001000000000000000000000000000000000000000000000000000000000000000000000000000000000000000000000000000000000000000000000000000000000000000000000000000000000000000000000000000000000000000000000000000000000000000000000000000000000000000000000000000000000000000000000000000000000000000000000000000000000000000000000000000000000000000000000000000000000000000000000000000000000000000000000300000000000000000000000000000000000000000000000000000000000000038000000000000000000000000000000000000000000000000000000000000001648d80ff0a0000000000000000000000000000000000000000000000000000000000000020000000000000000000000000000000000000000000000000000000000000011200abfd35ffa94faa4b4d84505daafdfea08f61251b00000000000000000000000000000000000000000000000000000000000000000000000000000000000000000000000000000000000000000000000000000024e3ac8226000000000000000000000000000000000000000000000000000000000000000000abfd35ffa94faa4b4d84505daafdfea08f61251b000000000000000000000000000000000000000000000000000000000000000000000000000000000000000000000000000000000000000000000000000000440f3d249d0000000000000000000000000000000000000000000000000de0b6b3a76400000000000000000000000000000000000000000000000000000000000068b01c0900000000000000000000000000000000000000000000000000000000000000000000000000000000000000000000000000000000000000000000000000000000000000000000000000410416317684d44336ff66daa81a7b19dd8a465f9bd08a26c95a962adfcb912fe1352b5acf6521139edf2cace294de979234c6545092675c6b96135f9682cc00ef1b000000000000000000000000000000000000000000000000000000000000000000000000000000000000000000000000000000000000000000000000000060000000000000000000000000000000000000000000000000000000000000001000000000000000000000000056fd3f2bee130e9867942d0f463a16fbe49b8d810000000000000000000000000000000000000000000000000000000000000001",
          "blockHash": "0x79f109990a20045d72204f22f7380739780c5a01cfe62de35eae246a4c17f10c",
          "blockNumber": "0x2123e25",
          "transactionHash": "0x930ec10a3a9f087b4e88d4fe8d706856dbe4a8044f66c67d768f6bd850cb8e66",
          "transactionIndex": "0x0",
          "logIndex": "0x0",
          "removed": false
        },
        {
          "address": "0x32cb58b145d3f7e28c45ce4b2cc31fa94248b23f",
          "topics": [
            "0x442e715f626346e8c54381002da614f62bee8d27386535b2521ec8540898556e",
            "0x15b3812fbe1d7f68b1cf50f42b294a2ad089ab99a05d6e92ebc35718563328f6"
          ],
          "data": "0x0000000000000000000000000000000000000000000000000000000000000000",
          "blockHash": "0x79f109990a20045d72204f22f7380739780c5a01cfe62de35eae246a4c17f10c",
          "blockNumber": "0x2123e25",
          "transactionHash": "0x930ec10a3a9f087b4e88d4fe8d706856dbe4a8044f66c67d768f6bd850cb8e66",
          "transactionIndex": "0x0",
          "logIndex": "0x1",
          "removed": false
        }
      ],
      "logsBloom": "0x00000000400000000000000000000000000000000000000000000000040000000000000000000000000000000000000000000000000000000000000000000000400000000000000000000000100000010000040000000000000000800000000200000000000000000000000000000000000000000000000000000000000000000000000000000000000000000000000000000000000000000000000000000000000000000400000000000000000004000008000000000000000000000000000000000000000000000000000000020000000000000000000000000000000000000000000000000000000000000000000000000000000000000000000000000000",
      "type": "0x2",
      "transactionHash": "0x930ec10a3a9f087b4e88d4fe8d706856dbe4a8044f66c67d768f6bd850cb8e66",
      "transactionIndex": "0x0",
      "blockHash": "0x79f109990a20045d72204f22f7380739780c5a01cfe62de35eae246a4c17f10c",
      "blockNumber": "0x2123e25",
      "gasUsed": "0x13e4a",
      "effectiveGasPrice": "0xf3f5e",
      "blobGasUsed": "0x0",
      "from": "0x56fd3f2bee130e9867942d0f463a16fbe49b8d81",
      "to": "0x32cb58b145d3f7e28c45ce4b2cc31fa94248b23f",
      "contractAddress": null
    }
  ],
  "libraries": [
    "node_modules/@celo/contracts/common/linkedlists/AddressSortedLinkedListWithMedian.sol:AddressSortedLinkedListWithMedian:0xa72FDa0b4ff3AB36d4FfB0C2f557988798370EeD"
  ],
  "pending": [],
  "returns": {},
  "timestamp": 1756372014935,
  "chain": 8453,
  "commit": "eb7c3cd"
}