{
  "transactions": [
    {
      "hash": "0x5101f834cb0ec273a0bc5d8fa189b82ced5777c74f2069646bdfe0a779f5f5b3",
      "transactionType": "CALL",
      "contractName": null,
      "contractAddress": "0x32cb58b145d3f7e28c45ce4b2cc31fa94248b23f",
      "function": "execTransaction(address,uint256,bytes,uint8,uint256,uint256,uint256,address,address,bytes)",
      "arguments": [
        "0x40A2aCCbd92BCA938b02010E17A5b8929b49130D",
        "0",
        "0x8d80ff0a00000000000000000000000000000000000000000000000000000000000000200000000000000000000000000000000000000000000000000000000000000bcb00ba5ed099633d3b313e4d5f7bdc1305d3c28ba5ed00000000000000000000000000000000000000000000000000000000000000000000000000000000000000000000000000000000000000000000000000000a649c36a28632cb58b145d3f7e28c45ce4b2cc31fa94248b23f0020b4c97320d15e9e14c462000000000000000000000000000000000000000000000000000000000000004000000000000000000000000000000000000000000000000000000000000009f8608060405234801561000f575f5ffd5b5060405161095838038061095883398101604081905261002e9161011c565b806001600160a01b03811661005c57604051631e4fbdf760e01b81525f600482015260240160405180910390fd5b6100658161008e565b5060016100728482610270565b50506002805460ff191660ff929092169190911790555061032a565b5f80546001600160a01b038381166001600160a01b0319831681178455604051919092169283917f8be0079c531659141344cd1fd0a4f28419497f9722a3daafe3b4186f6b6457e09190a35050565b634e487b7160e01b5f52604160045260245ffd5b805160ff81168114610101575f5ffd5b919050565b80516001600160a01b0381168114610101575f5ffd5b5f5f5f6060848603121561012e575f5ffd5b83516001600160401b03811115610143575f5ffd5b8401601f81018613610153575f5ffd5b80516001600160401b0381111561016c5761016c6100dd565b604051601f8201601f19908116603f011681016001600160401b038111828210171561019a5761019a6100dd565b6040528181528282016020018810156101b1575f5ffd5b8160208401602083015e5f602083830101528095505050506101d5602085016100f1565b91506101e360408501610106565b90509250925092565b600181811c9082168061020057607f821691505b60208210810361021e57634e487b7160e01b5f52602260045260245ffd5b50919050565b601f82111561026b57805f5260205f20601f840160051c810160208510156102495750805b601f840160051c820191505b81811015610268575f8155600101610255565b50505b505050565b81516001600160401b03811115610289576102896100dd565b61029d8161029784546101ec565b84610224565b6020601f8211600181146102cf575f83156102b85750848201515b5f19600385901b1c1916600184901b178455610268565b5f84815260208120601f198516915b828110156102fe57878501518255602094850194600190920191016102de565b508482101561031b57868401515f19600387901b60f8161c191681555b50505050600190811b01905550565b610621806103375f395ff3fe608060405234801561000f575f5ffd5b50600436106100e5575f3560e01c80638da5cb5b11610088578063e1e244d811610063578063e1e244d8146101ca578063e3ac8226146101d3578063f2fde38b146101e6578063feaf968c146101f9575f5ffd5b80638da5cb5b1461019057806399213cd8146101a0578063d0b06f5d146101b3575f5ffd5b8063705b9154116100c3578063705b915414610135578063715018a6146101605780637284e416146101685780637a1395aa1461017d575f5ffd5b80630f3d249d146100e9578063313ce567146100fe578063368f186214610122575b5f5ffd5b6100fc6100f73660046104a4565b61022d565b005b60025461010b9060ff1681565b60405160ff90911681526020015b60405180910390f35b6100fc6101303660046104c4565b61027f565b600554610148906001600160a01b031681565b6040516001600160a01b039091168152602001610119565b6100fc6102c2565b6101706102d5565b60405161011991906104db565b6100fc61018b366004610510565b610361565b5f546001600160a01b0316610148565b6100fc6101ae3660046104c4565b61037f565b6101bc60045481565b604051908152602001610119565b6101bc60035481565b6100fc6101e1366004610537565b6103c2565b6100fc6101f4366004610537565b6103ec565b600354600454604080515f80825260208201949094529081018390526060810191909152608081019190915260a001610119565b5f546001600160a01b031633148061024f57506005546001600160a01b031633145b6102745760405162461bcd60e51b815260040161026b9061055d565b60405180910390fd5b600391909155600455565b5f546001600160a01b03163314806102a157506005546001600160a01b031633145b6102bd5760405162461bcd60e51b815260040161026b9061055d565b600455565b6102ca610429565b6102d35f610455565b565b600180546102e2906105b3565b80601f016020809104026020016040519081016040528092919081815260200182805461030e906105b3565b80156103595780601f1061033057610100808354040283529160200191610359565b820191905f5260205f20905b81548152906001019060200180831161033c57829003601f168201915b505050505081565b610369610429565b6002805460ff191660ff92909216919091179055565b5f546001600160a01b03163314806103a157506005546001600160a01b031633145b6103bd5760405162461bcd60e51b815260040161026b9061055d565b600355565b6103ca610429565b600580546001600160a01b0319166001600160a01b0392909216919091179055565b6103f4610429565b6001600160a01b03811661041d57604051631e4fbdf760e01b81525f600482015260240161026b565b61042681610455565b50565b5f546001600160a01b031633146102d35760405163118cdaa760e01b815233600482015260240161026b565b5f80546001600160a01b038381166001600160a01b0319831681178455604051919092169283917f8be0079c531659141344cd1fd0a4f28419497f9722a3daafe3b4186f6b6457e09190a35050565b5f5f604083850312156104b5575f5ffd5b50508035926020909101359150565b5f602082840312156104d4575f5ffd5b5035919050565b602081525f82518060208401528060208501604085015e5f604082850101526040601f19601f83011684010191505092915050565b5f60208284031215610520575f5ffd5b813560ff81168114610530575f5ffd5b9392505050565b5f60208284031215610547575f5ffd5b81356001600160a01b0381168114610530575f5ffd5b60208082526036908201527f4f6e6c79206f776e6572206f722065787465726e616c2070726f76696465722060408201527531b0b71031b0b636103a3434b990333ab731ba34b7b760511b606082015260800190565b600181811c908216806105c757607f821691505b6020821081036105e557634e487b7160e01b5f52602260045260245ffd5b5091905056fea2646970667358221220bfe659c8ef4be70263f0ec6bff35dc636c7212c30e769811585d17a9ebd1282a64736f6c634300081e00330000000000000000000000000000000000000000000000000000000000000060000000000000000000000000000000000000000000000000000000000000001200000000000000000000000032cb58b145d3f7e28c45ce4b2cc31fa94248b23f0000000000000000000000000000000000000000000000000000000000000008555344432f555344000000000000000000000000000000000000000000000000000000000000000000abfd35ffa94faa4b4d84505daafdfea08f61251b00000000000000000000000000000000000000000000000000000000000000000000000000000000000000000000000000000000000000000000000000000024e3ac8226000000000000000000000000000000000000000000000000000000000000000000abfd35ffa94faa4b4d84505daafdfea08f61251b000000000000000000000000000000000000000000000000000000000000000000000000000000000000000000000000000000000000000000000000000000440f3d249d0000000000000000000000000000000000000000000000000de0b6b3a76400000000000000000000000000000000000000000000000000000000000068b15868000000000000000000000000000000000000000000",
        "1",
        "0",
        "0",
        "0",
        "0x0000000000000000000000000000000000000000",
        "0x0000000000000000000000000000000000000000",
        "0x9ac4af6f93cfb47176bdccb9fc37122d76e4e34067be699e11a0bb00a37a3637232a122aff9072a80703fb2c9ff9ebcb5c4a8d8c6bcead50ee6c84cd35be6f701b"
      ],
      "transaction": {
        "from": "0x56fd3f2bee130e9867942d0f463a16fbe49b8d81",
        "to": "0x32cb58b145d3f7e28c45ce4b2cc31fa94248b23f",
        "gas": "0xe56c9",
        "value": "0x0",
        "input": "0x6a76120200000000000000000000000040a2accbd92bca938b02010e17a5b8929b49130d000000000000000000000000000000000000000000000000000000000000000000000000000000000000000000000000000000000000000000000000000001400000000000000000000000000000000000000000000000000000000000000001000000000000000000000000000000000000000000000000000000000000000000000000000000000000000000000000000000000000000000000000000000000000000000000000000000000000000000000000000000000000000000000000000000000000000000000000000000000000000000000000000000000000000000000000000000000000000000000000000000000000000000000000000000000000000000000000000000000000000000000000000000000000000000000da00000000000000000000000000000000000000000000000000000000000000c248d80ff0a00000000000000000000000000000000000000000000000000000000000000200000000000000000000000000000000000000000000000000000000000000bcb00ba5ed099633d3b313e4d5f7bdc1305d3c28ba5ed00000000000000000000000000000000000000000000000000000000000000000000000000000000000000000000000000000000000000000000000000000a649c36a28632cb58b145d3f7e28c45ce4b2cc31fa94248b23f0020b4c97320d15e9e14c462000000000000000000000000000000000000000000000000000000000000004000000000000000000000000000000000000000000000000000000000000009f8608060405234801561000f575f5ffd5b5060405161095838038061095883398101604081905261002e9161011c565b806001600160a01b03811661005c57604051631e4fbdf760e01b81525f600482015260240160405180910390fd5b6100658161008e565b5060016100728482610270565b50506002805460ff191660ff929092169190911790555061032a565b5f80546001600160a01b038381166001600160a01b0319831681178455604051919092169283917f8be0079c531659141344cd1fd0a4f28419497f9722a3daafe3b4186f6b6457e09190a35050565b634e487b7160e01b5f52604160045260245ffd5b805160ff81168114610101575f5ffd5b919050565b80516001600160a01b0381168114610101575f5ffd5b5f5f5f6060848603121561012e575f5ffd5b83516001600160401b03811115610143575f5ffd5b8401601f81018613610153575f5ffd5b80516001600160401b0381111561016c5761016c6100dd565b604051601f8201601f19908116603f011681016001600160401b038111828210171561019a5761019a6100dd565b6040528181528282016020018810156101b1575f5ffd5b8160208401602083015e5f602083830101528095505050506101d5602085016100f1565b91506101e360408501610106565b90509250925092565b600181811c9082168061020057607f821691505b60208210810361021e57634e487b7160e01b5f52602260045260245ffd5b50919050565b601f82111561026b57805f5260205f20601f840160051c810160208510156102495750805b601f840160051c820191505b81811015610268575f8155600101610255565b50505b505050565b81516001600160401b03811115610289576102896100dd565b61029d8161029784546101ec565b84610224565b6020601f8211600181146102cf575f83156102b85750848201515b5f19600385901b1c1916600184901b178455610268565b5f84815260208120601f198516915b828110156102fe57878501518255602094850194600190920191016102de565b508482101561031b57868401515f19600387901b60f8161c191681555b50505050600190811b01905550565b610621806103375f395ff3fe608060405234801561000f575f5ffd5b50600436106100e5575f3560e01c80638da5cb5b11610088578063e1e244d811610063578063e1e244d8146101ca578063e3ac8226146101d3578063f2fde38b146101e6578063feaf968c146101f9575f5ffd5b80638da5cb5b1461019057806399213cd8146101a0578063d0b06f5d146101b3575f5ffd5b8063705b9154116100c3578063705b915414610135578063715018a6146101605780637284e416146101685780637a1395aa1461017d575f5ffd5b80630f3d249d146100e9578063313ce567146100fe578063368f186214610122575b5f5ffd5b6100fc6100f73660046104a4565b61022d565b005b60025461010b9060ff1681565b60405160ff90911681526020015b60405180910390f35b6100fc6101303660046104c4565b61027f565b600554610148906001600160a01b031681565b6040516001600160a01b039091168152602001610119565b6100fc6102c2565b6101706102d5565b60405161011991906104db565b6100fc61018b366004610510565b610361565b5f546001600160a01b0316610148565b6100fc6101ae3660046104c4565b61037f565b6101bc60045481565b604051908152602001610119565b6101bc60035481565b6100fc6101e1366004610537565b6103c2565b6100fc6101f4366004610537565b6103ec565b600354600454604080515f80825260208201949094529081018390526060810191909152608081019190915260a001610119565b5f546001600160a01b031633148061024f57506005546001600160a01b031633145b6102745760405162461bcd60e51b815260040161026b9061055d565b60405180910390fd5b600391909155600455565b5f546001600160a01b03163314806102a157506005546001600160a01b031633145b6102bd5760405162461bcd60e51b815260040161026b9061055d565b600455565b6102ca610429565b6102d35f610455565b565b600180546102e2906105b3565b80601f016020809104026020016040519081016040528092919081815260200182805461030e906105b3565b80156103595780601f1061033057610100808354040283529160200191610359565b820191905f5260205f20905b81548152906001019060200180831161033c57829003601f168201915b505050505081565b610369610429565b6002805460ff191660ff92909216919091179055565b5f546001600160a01b03163314806103a157506005546001600160a01b031633145b6103bd5760405162461bcd60e51b815260040161026b9061055d565b600355565b6103ca610429565b600580546001600160a01b0319166001600160a01b0392909216919091179055565b6103f4610429565b6001600160a01b03811661041d57604051631e4fbdf760e01b81525f600482015260240161026b565b61042681610455565b50565b5f546001600160a01b031633146102d35760405163118cdaa760e01b815233600482015260240161026b565b5f80546001600160a01b038381166001600160a01b0319831681178455604051919092169283917f8be0079c531659141344cd1fd0a4f28419497f9722a3daafe3b4186f6b6457e09190a35050565b5f5f604083850312156104b5575f5ffd5b50508035926020909101359150565b5f602082840312156104d4575f5ffd5b5035919050565b602081525f82518060208401528060208501604085015e5f604082850101526040601f19601f83011684010191505092915050565b5f60208284031215610520575f5ffd5b813560ff81168114610530575f5ffd5b9392505050565b5f60208284031215610547575f5ffd5b81356001600160a01b0381168114610530575f5ffd5b60208082526036908201527f4f6e6c79206f776e6572206f722065787465726e616c2070726f76696465722060408201527531b0b71031b0b636103a3434b990333ab731ba34b7b760511b606082015260800190565b600181811c908216806105c757607f821691505b6020821081036105e557634e487b7160e01b5f52602260045260245ffd5b5091905056fea2646970667358221220bfe659c8ef4be70263f0ec6bff35dc636c7212c30e769811585d17a9ebd1282a64736f6c634300081e00330000000000000000000000000000000000000000000000000000000000000060000000000000000000000000000000000000000000000000000000000000001200000000000000000000000032cb58b145d3f7e28c45ce4b2cc31fa94248b23f0000000000000000000000000000000000000000000000000000000000000008555344432f555344000000000000000000000000000000000000000000000000000000000000000000abfd35ffa94faa4b4d84505daafdfea08f61251b00000000000000000000000000000000000000000000000000000000000000000000000000000000000000000000000000000000000000000000000000000024e3ac8226000000000000000000000000000000000000000000000000000000000000000000abfd35ffa94faa4b4d84505daafdfea08f61251b000000000000000000000000000000000000000000000000000000000000000000000000000000000000000000000000000000000000000000000000000000440f3d249d0000000000000000000000000000000000000000000000000de0b6b3a76400000000000000000000000000000000000000000000000000000000000068b158680000000000000000000000000000000000000000000000000000000000000000000000000000000000000000000000000000000000000000000000000000000000000000000000000000000000000000419ac4af6f93cfb47176bdccb9fc37122d76e4e34067be699e11a0bb00a37a3637232a122aff9072a80703fb2c9ff9ebcb5c4a8d8c6bcead50ee6c84cd35be6f701b00000000000000000000000000000000000000000000000000000000000000",
        "nonce": "0x2",
        "chainId": "0x2105"
      },
      "additionalContracts": [
        {
          "transactionType": "CREATE2",
          "address": "0xc1285d35921f0ecf6987a7106c16c9a407c7d4d7",
          "initCode": "0x67363d3d37363d34f03d5260086018f3"
        },
        {
          "transactionType": "CREATE",
          "address": "0xabfd35ffa94faa4b4d84505daafdfea08f61251b",
          "initCode": "0x608060405234801561000f575f5ffd5b5060405161095838038061095883398101604081905261002e9161011c565b806001600160a01b03811661005c57604051631e4fbdf760e01b81525f600482015260240160405180910390fd5b6100658161008e565b5060016100728482610270565b50506002805460ff191660ff929092169190911790555061032a565b5f80546001600160a01b038381166001600160a01b0319831681178455604051919092169283917f8be0079c531659141344cd1fd0a4f28419497f9722a3daafe3b4186f6b6457e09190a35050565b634e487b7160e01b5f52604160045260245ffd5b805160ff81168114610101575f5ffd5b919050565b80516001600160a01b0381168114610101575f5ffd5b5f5f5f6060848603121561012e575f5ffd5b83516001600160401b03811115610143575f5ffd5b8401601f81018613610153575f5ffd5b80516001600160401b0381111561016c5761016c6100dd565b604051601f8201601f19908116603f011681016001600160401b038111828210171561019a5761019a6100dd565b6040528181528282016020018810156101b1575f5ffd5b8160208401602083015e5f602083830101528095505050506101d5602085016100f1565b91506101e360408501610106565b90509250925092565b600181811c9082168061020057607f821691505b60208210810361021e57634e487b7160e01b5f52602260045260245ffd5b50919050565b601f82111561026b57805f5260205f20601f840160051c810160208510156102495750805b601f840160051c820191505b81811015610268575f8155600101610255565b50505b505050565b81516001600160401b03811115610289576102896100dd565b61029d8161029784546101ec565b84610224565b6020601f8211600181146102cf575f83156102b85750848201515b5f19600385901b1c1916600184901b178455610268565b5f84815260208120601f198516915b828110156102fe57878501518255602094850194600190920191016102de565b508482101561031b57868401515f19600387901b60f8161c191681555b50505050600190811b01905550565b610621806103375f395ff3fe608060405234801561000f575f5ffd5b50600436106100e5575f3560e01c80638da5cb5b11610088578063e1e244d811610063578063e1e244d8146101ca578063e3ac8226146101d3578063f2fde38b146101e6578063feaf968c146101f9575f5ffd5b80638da5cb5b1461019057806399213cd8146101a0578063d0b06f5d146101b3575f5ffd5b8063705b9154116100c3578063705b915414610135578063715018a6146101605780637284e416146101685780637a1395aa1461017d575f5ffd5b80630f3d249d146100e9578063313ce567146100fe578063368f186214610122575b5f5ffd5b6100fc6100f73660046104a4565b61022d565b005b60025461010b9060ff1681565b60405160ff90911681526020015b60405180910390f35b6100fc6101303660046104c4565b61027f565b600554610148906001600160a01b031681565b6040516001600160a01b039091168152602001610119565b6100fc6102c2565b6101706102d5565b60405161011991906104db565b6100fc61018b366004610510565b610361565b5f546001600160a01b0316610148565b6100fc6101ae3660046104c4565b61037f565b6101bc60045481565b604051908152602001610119565b6101bc60035481565b6100fc6101e1366004610537565b6103c2565b6100fc6101f4366004610537565b6103ec565b600354600454604080515f80825260208201949094529081018390526060810191909152608081019190915260a001610119565b5f546001600160a01b031633148061024f57506005546001600160a01b031633145b6102745760405162461bcd60e51b815260040161026b9061055d565b60405180910390fd5b600391909155600455565b5f546001600160a01b03163314806102a157506005546001600160a01b031633145b6102bd5760405162461bcd60e51b815260040161026b9061055d565b600455565b6102ca610429565b6102d35f610455565b565b600180546102e2906105b3565b80601f016020809104026020016040519081016040528092919081815260200182805461030e906105b3565b80156103595780601f1061033057610100808354040283529160200191610359565b820191905f5260205f20905b81548152906001019060200180831161033c57829003601f168201915b505050505081565b610369610429565b6002805460ff191660ff92909216919091179055565b5f546001600160a01b03163314806103a157506005546001600160a01b031633145b6103bd5760405162461bcd60e51b815260040161026b9061055d565b600355565b6103ca610429565b600580546001600160a01b0319166001600160a01b0392909216919091179055565b6103f4610429565b6001600160a01b03811661041d57604051631e4fbdf760e01b81525f600482015260240161026b565b61042681610455565b50565b5f546001600160a01b031633146102d35760405163118cdaa760e01b815233600482015260240161026b565b5f80546001600160a01b038381166001600160a01b0319831681178455604051919092169283917f8be0079c531659141344cd1fd0a4f28419497f9722a3daafe3b4186f6b6457e09190a35050565b5f5f604083850312156104b5575f5ffd5b50508035926020909101359150565b5f602082840312156104d4575f5ffd5b5035919050565b602081525f82518060208401528060208501604085015e5f604082850101526040601f19601f83011684010191505092915050565b5f60208284031215610520575f5ffd5b813560ff81168114610530575f5ffd5b9392505050565b5f60208284031215610547575f5ffd5b81356001600160a01b0381168114610530575f5ffd5b60208082526036908201527f4f6e6c79206f776e6572206f722065787465726e616c2070726f76696465722060408201527531b0b71031b0b636103a3434b990333ab731ba34b7b760511b606082015260800190565b600181811c908216806105c757607f821691505b6020821081036105e557634e487b7160e01b5f52602260045260245ffd5b5091905056fea2646970667358221220bfe659c8ef4be70263f0ec6bff35dc636c7212c30e769811585d17a9ebd1282a64736f6c634300081e00330000000000000000000000000000000000000000000000000000000000000060000000000000000000000000000000000000000000000000000000000000001200000000000000000000000032cb58b145d3f7e28c45ce4b2cc31fa94248b23f0000000000000000000000000000000000000000000000000000000000000008555344432f555344000000000000000000000000000000000000000000000000"
        }
      ],
      "isFixedGasLimit": false
    }
  ],
  "receipts": [
    {
      "status": "0x1",
      "cumulativeGasUsed": "0x9cdf1",
      "logs": [
        {
          "address": "0x32cb58b145d3f7e28c45ce4b2cc31fa94248b23f",
          "topics": [
            "0x66753cd2356569ee081232e3be8909b950e0a76c1f8460c3a5e3c2be32b11bed"
          ],
          "data": "0x00000000000000000000000040a2accbd92bca938b02010e17a5b8929b49130d000000000000000000000000000000000000000000000000000000000000000000000000000000000000000000000000000000000000000000000000000001600000000000000000000000000000000000000000000000000000000000000001000000000000000000000000000000000000000000000000000000000000000000000000000000000000000000000000000000000000000000000000000000000000000000000000000000000000000000000000000000000000000000000000000000000000000000000000000000000000000000000000000000000000000000000000000000000000000000000000000000000000000000000000000000000000000000000000000000000000000000000000000000000000000000000dc00000000000000000000000000000000000000000000000000000000000000e400000000000000000000000000000000000000000000000000000000000000c248d80ff0a00000000000000000000000000000000000000000000000000000000000000200000000000000000000000000000000000000000000000000000000000000bcb00ba5ed099633d3b313e4d5f7bdc1305d3c28ba5ed00000000000000000000000000000000000000000000000000000000000000000000000000000000000000000000000000000000000000000000000000000a649c36a28632cb58b145d3f7e28c45ce4b2cc31fa94248b23f0020b4c97320d15e9e14c462000000000000000000000000000000000000000000000000000000000000004000000000000000000000000000000000000000000000000000000000000009f8608060405234801561000f575f5ffd5b5060405161095838038061095883398101604081905261002e9161011c565b806001600160a01b03811661005c57604051631e4fbdf760e01b81525f600482015260240160405180910390fd5b6100658161008e565b5060016100728482610270565b50506002805460ff191660ff929092169190911790555061032a565b5f80546001600160a01b038381166001600160a01b0319831681178455604051919092169283917f8be0079c531659141344cd1fd0a4f28419497f9722a3daafe3b4186f6b6457e09190a35050565b634e487b7160e01b5f52604160045260245ffd5b805160ff81168114610101575f5ffd5b919050565b80516001600160a01b0381168114610101575f5ffd5b5f5f5f6060848603121561012e575f5ffd5b83516001600160401b03811115610143575f5ffd5b8401601f81018613610153575f5ffd5b80516001600160401b0381111561016c5761016c6100dd565b604051601f8201601f19908116603f011681016001600160401b038111828210171561019a5761019a6100dd565b6040528181528282016020018810156101b1575f5ffd5b8160208401602083015e5f602083830101528095505050506101d5602085016100f1565b91506101e360408501610106565b90509250925092565b600181811c9082168061020057607f821691505b60208210810361021e57634e487b7160e01b5f52602260045260245ffd5b50919050565b601f82111561026b57805f5260205f20601f840160051c810160208510156102495750805b601f840160051c820191505b81811015610268575f8155600101610255565b50505b505050565b81516001600160401b03811115610289576102896100dd565b61029d8161029784546101ec565b84610224565b6020601f8211600181146102cf575f83156102b85750848201515b5f19600385901b1c1916600184901b178455610268565b5f84815260208120601f198516915b828110156102fe57878501518255602094850194600190920191016102de565b508482101561031b57868401515f19600387901b60f8161c191681555b50505050600190811b01905550565b610621806103375f395ff3fe608060405234801561000f575f5ffd5b50600436106100e5575f3560e01c80638da5cb5b11610088578063e1e244d811610063578063e1e244d8146101ca578063e3ac8226146101d3578063f2fde38b146101e6578063feaf968c146101f9575f5ffd5b80638da5cb5b1461019057806399213cd8146101a0578063d0b06f5d146101b3575f5ffd5b8063705b9154116100c3578063705b915414610135578063715018a6146101605780637284e416146101685780637a1395aa1461017d575f5ffd5b80630f3d249d146100e9578063313ce567146100fe578063368f186214610122575b5f5ffd5b6100fc6100f73660046104a4565b61022d565b005b60025461010b9060ff1681565b60405160ff90911681526020015b60405180910390f35b6100fc6101303660046104c4565b61027f565b600554610148906001600160a01b031681565b6040516001600160a01b039091168152602001610119565b6100fc6102c2565b6101706102d5565b60405161011991906104db565b6100fc61018b366004610510565b610361565b5f546001600160a01b0316610148565b6100fc6101ae3660046104c4565b61037f565b6101bc60045481565b604051908152602001610119565b6101bc60035481565b6100fc6101e1366004610537565b6103c2565b6100fc6101f4366004610537565b6103ec565b600354600454604080515f80825260208201949094529081018390526060810191909152608081019190915260a001610119565b5f546001600160a01b031633148061024f57506005546001600160a01b031633145b6102745760405162461bcd60e51b815260040161026b9061055d565b60405180910390fd5b600391909155600455565b5f546001600160a01b03163314806102a157506005546001600160a01b031633145b6102bd5760405162461bcd60e51b815260040161026b9061055d565b600455565b6102ca610429565b6102d35f610455565b565b600180546102e2906105b3565b80601f016020809104026020016040519081016040528092919081815260200182805461030e906105b3565b80156103595780601f1061033057610100808354040283529160200191610359565b820191905f5260205f20905b81548152906001019060200180831161033c57829003601f168201915b505050505081565b610369610429565b6002805460ff191660ff92909216919091179055565b5f546001600160a01b03163314806103a157506005546001600160a01b031633145b6103bd5760405162461bcd60e51b815260040161026b9061055d565b600355565b6103ca610429565b600580546001600160a01b0319166001600160a01b0392909216919091179055565b6103f4610429565b6001600160a01b03811661041d57604051631e4fbdf760e01b81525f600482015260240161026b565b61042681610455565b50565b5f546001600160a01b031633146102d35760405163118cdaa760e01b815233600482015260240161026b565b5f80546001600160a01b038381166001600160a01b0319831681178455604051919092169283917f8be0079c531659141344cd1fd0a4f28419497f9722a3daafe3b4186f6b6457e09190a35050565b5f5f604083850312156104b5575f5ffd5b50508035926020909101359150565b5f602082840312156104d4575f5ffd5b5035919050565b602081525f82518060208401528060208501604085015e5f604082850101526040601f19601f83011684010191505092915050565b5f60208284031215610520575f5ffd5b813560ff81168114610530575f5ffd5b9392505050565b5f60208284031215610547575f5ffd5b81356001600160a01b0381168114610530575f5ffd5b60208082526036908201527f4f6e6c79206f776e6572206f722065787465726e616c2070726f76696465722060408201527531b0b71031b0b636103a3434b990333ab731ba34b7b760511b606082015260800190565b600181811c908216806105c757607f821691505b6020821081036105e557634e487b7160e01b5f52602260045260245ffd5b5091905056fea2646970667358221220bfe659c8ef4be70263f0ec6bff35dc636c7212c30e769811585d17a9ebd1282a64736f6c634300081e00330000000000000000000000000000000000000000000000000000000000000060000000000000000000000000000000000000000000000000000000000000001200000000000000000000000032cb58b145d3f7e28c45ce4b2cc31fa94248b23f0000000000000000000000000000000000000000000000000000000000000008555344432f555344000000000000000000000000000000000000000000000000000000000000000000abfd35ffa94faa4b4d84505daafdfea08f61251b00000000000000000000000000000000000000000000000000000000000000000000000000000000000000000000000000000000000000000000000000000024e3ac8226000000000000000000000000000000000000000000000000000000000000000000abfd35ffa94faa4b4d84505daafdfea08f61251b000000000000000000000000000000000000000000000000000000000000000000000000000000000000000000000000000000000000000000000000000000440f3d249d0000000000000000000000000000000000000000000000000de0b6b3a76400000000000000000000000000000000000000000000000000000000000068b158680000000000000000000000000000000000000000000000000000000000000000000000000000000000000000000000000000000000000000000000000000000000000000000000000000000000000000419ac4af6f93cfb47176bdccb9fc37122d76e4e34067be699e11a0bb00a37a3637232a122aff9072a80703fb2c9ff9ebcb5c4a8d8c6bcead50ee6c84cd35be6f701b000000000000000000000000000000000000000000000000000000000000000000000000000000000000000000000000000000000000000000000000000060000000000000000000000000000000000000000000000000000000000000000100000000000000000000000056fd3f2bee130e9867942d0f463a16fbe49b8d810000000000000000000000000000000000000000000000000000000000000001",
          "blockHash": "0x0c1ab37a1890996aa381a6fc216243bb46c142572e9d2345af979234231ea65f",
          "blockNumber": "0x2137d2f",
          "transactionHash": "0x5101f834cb0ec273a0bc5d8fa189b82ced5777c74f2069646bdfe0a779f5f5b3",
          "transactionIndex": "0x0",
          "logIndex": "0x0",
          "removed": false
        },
        {
          "address": "0xba5ed099633d3b313e4d5f7bdc1305d3c28ba5ed",
          "topics": [
            "0x2feea65dd4e9f9cbd86b74b7734210c59a1b2981b5b137bd0ee3e208200c9067",
            "0x000000000000000000000000c1285d35921f0ecf6987a7106c16c9a407c7d4d7",
            "0x0a749d22991d6f52d8f11f34296c07a0fc6c2f88d49c348497026ceda59ad311"
          ],
          "data": "0x",
          "blockHash": "0x0c1ab37a1890996aa381a6fc216243bb46c142572e9d2345af979234231ea65f",
          "blockNumber": "0x2137d2f",
          "transactionHash": "0x5101f834cb0ec273a0bc5d8fa189b82ced5777c74f2069646bdfe0a779f5f5b3",
          "transactionIndex": "0x0",
          "logIndex": "0x1",
          "removed": false
        },
        {
          "address": "0xabfd35ffa94faa4b4d84505daafdfea08f61251b",
          "topics": [
            "0x8be0079c531659141344cd1fd0a4f28419497f9722a3daafe3b4186f6b6457e0",
            "0x0000000000000000000000000000000000000000000000000000000000000000",
            "0x00000000000000000000000032cb58b145d3f7e28c45ce4b2cc31fa94248b23f"
          ],
          "data": "0x",
          "blockHash": "0x0c1ab37a1890996aa381a6fc216243bb46c142572e9d2345af979234231ea65f",
          "blockNumber": "0x2137d2f",
          "transactionHash": "0x5101f834cb0ec273a0bc5d8fa189b82ced5777c74f2069646bdfe0a779f5f5b3",
          "transactionIndex": "0x0",
          "logIndex": "0x2",
          "removed": false
        },
        {
          "address": "0xba5ed099633d3b313e4d5f7bdc1305d3c28ba5ed",
          "topics": [
            "0x4db17dd5e4732fb6da34a148104a592783ca119a1e7bb8829eba6cbadef0b511",
            "0x000000000000000000000000abfd35ffa94faa4b4d84505daafdfea08f61251b"
          ],
          "data": "0x",
          "blockHash": "0x0c1ab37a1890996aa381a6fc216243bb46c142572e9d2345af979234231ea65f",
          "blockNumber": "0x2137d2f",
          "transactionHash": "0x5101f834cb0ec273a0bc5d8fa189b82ced5777c74f2069646bdfe0a779f5f5b3",
          "transactionIndex": "0x0",
          "logIndex": "0x3",
          "removed": false
        },
        {
          "address": "0x32cb58b145d3f7e28c45ce4b2cc31fa94248b23f",
          "topics": [
            "0x442e715f626346e8c54381002da614f62bee8d27386535b2521ec8540898556e",
            "0x55ad43532514cdb61a7ea8db123b01cf0f31f7f2a6a8ee2d0d43a79fa8e140d4"
          ],
          "data": "0x0000000000000000000000000000000000000000000000000000000000000000",
          "blockHash": "0x0c1ab37a1890996aa381a6fc216243bb46c142572e9d2345af979234231ea65f",
          "blockNumber": "0x2137d2f",
          "transactionHash": "0x5101f834cb0ec273a0bc5d8fa189b82ced5777c74f2069646bdfe0a779f5f5b3",
          "transactionIndex": "0x0",
          "logIndex": "0x4",
          "removed": false
        }
      ],
      "logsBloom": "0x00020000420000000000000000000000000000000000000000800000240000000000000000400000400000004000200000000000000004000000000000000000000000000000000000000000124000000001040000000000000000000000000200000000020000000000000000000800000000000020000000000000000000400080000008088000000000000000000004000000000000000000004000000000000000000400000000000000400004000008000008000000000000000000000000000000004000000200000000020000000000002000000008000000000020000000000000000200000000000000000000040000000000000000000000002008",
      "type": "0x2",
      "transactionHash": "0x5101f834cb0ec273a0bc5d8fa189b82ced5777c74f2069646bdfe0a779f5f5b3",
      "transactionIndex": "0x0",
      "blockHash": "0x0c1ab37a1890996aa381a6fc216243bb46c142572e9d2345af979234231ea65f",
      "blockNumber": "0x2137d2f",
      "gasUsed": "0x9cdf1",
      "effectiveGasPrice": "0xef903",
      "blobGasUsed": "0x0",
      "from": "0x56fd3f2bee130e9867942d0f463a16fbe49b8d81",
      "to": "0x32cb58b145d3f7e28c45ce4b2cc31fa94248b23f",
      "contractAddress": null
    }
  ],
  "libraries": [
    "node_modules/@celo/contracts/common/linkedlists/AddressSortedLinkedListWithMedian.sol:AddressSortedLinkedListWithMedian:0x498FB531985aD936f1A98813F92625084a67d02F"
  ],
  "pending": [],
  "returns": {},
  "timestamp": 1756452978807,
  "chain": 8453,
  "commit": "eb7c3cd"
}