{
  "transactions": [
    {
      "hash": "0x77ac9e6b3130af72049347f124c18101cd54f971016824583ea46655de420052",
      "transactionType": "CALL",
      "contractName": null,
      "contractAddress": "0x32cb58b145d3f7e28c45ce4b2cc31fa94248b23f",
      "function": "execTransaction(address,uint256,bytes,uint8,uint256,uint256,uint256,address,address,bytes)",
      "arguments": [
        "0x40A2aCCbd92BCA938b02010E17A5b8929b49130D",
        "0",
        "0x8d80ff0a0000000000000000000000000000000000000000000000000000000000000020000000000000000000000000000000000000000000000000000000000000011200abfd35ffa94faa4b4d84505daafdfea08f61251b00000000000000000000000000000000000000000000000000000000000000000000000000000000000000000000000000000000000000000000000000000024e3ac8226000000000000000000000000000000000000000000000000000000000000000000abfd35ffa94faa4b4d84505daafdfea08f61251b000000000000000000000000000000000000000000000000000000000000000000000000000000000000000000000000000000000000000000000000000000440f3d249d0000000000000000000000000000000000000000000000000de0b6b3a76400000000000000000000000000000000000000000000000000000000000068afee060000000000000000000000000000",
        "1",
        "0",
        "0",
        "0",
        "0x0000000000000000000000000000000000000000",
        "0x0000000000000000000000000000000000000000",
        "0xd43504bc9b9160e45425f13776f6da5925b22ae68948ee4ae30a6bece325808e4d1b830e1a711e8f7c837d89e046798beb7cdfe83ee5dbfe01891a30521a8fb31b"
      ],
      "transaction": {
        "from": "0x56fd3f2bee130e9867942d0f463a16fbe49b8d81",
        "to": "0x32cb58b145d3f7e28c45ce4b2cc31fa94248b23f",
        "gas": "0x1b7b3",
        "value": "0x0",
        "input": "0x6a76120200000000000000000000000040a2accbd92bca938b02010e17a5b8929b49130d0000000000000000000000000000000000000000000000000000000000000000000000000000000000000000000000000000000000000000000000000000014000000000000000000000000000000000000000000000000000000000000000010000000000000000000000000000000000000000000000000000000000000000000000000000000000000000000000000000000000000000000000000000000000000000000000000000000000000000000000000000000000000000000000000000000000000000000000000000000000000000000000000000000000000000000000000000000000000000000000000000000000000000000000000000000000000000000000000000000000000000000000000000000000000000000002e000000000000000000000000000000000000000000000000000000000000001648d80ff0a0000000000000000000000000000000000000000000000000000000000000020000000000000000000000000000000000000000000000000000000000000011200abfd35ffa94faa4b4d84505daafdfea08f61251b00000000000000000000000000000000000000000000000000000000000000000000000000000000000000000000000000000000000000000000000000000024e3ac8226000000000000000000000000000000000000000000000000000000000000000000abfd35ffa94faa4b4d84505daafdfea08f61251b000000000000000000000000000000000000000000000000000000000000000000000000000000000000000000000000000000000000000000000000000000440f3d249d0000000000000000000000000000000000000000000000000de0b6b3a76400000000000000000000000000000000000000000000000000000000000068afee060000000000000000000000000000000000000000000000000000000000000000000000000000000000000000000000000000000000000000000000000000000000000000000000000041d43504bc9b9160e45425f13776f6da5925b22ae68948ee4ae30a6bece325808e4d1b830e1a711e8f7c837d89e046798beb7cdfe83ee5dbfe01891a30521a8fb31b00000000000000000000000000000000000000000000000000000000000000",
        "nonce": "0x5",
        "chainId": "0x2105"
      },
      "additionalContracts": [],
      "isFixedGasLimit": false
    }
  ],
  "receipts": [
    {
      "status": "0x1",
      "cumulativeGasUsed": "0x13e56",
      "logs": [
        {
          "address": "0x32cb58b145d3f7e28c45ce4b2cc31fa94248b23f",
          "topics": [
            "0x66753cd2356569ee081232e3be8909b950e0a76c1f8460c3a5e3c2be32b11bed"
          ],
          "data": "0x00000000000000000000000040a2accbd92bca938b02010e17a5b8929b49130d000000000000000000000000000000000000000000000000000000000000000000000000000000000000000000000000000000000000000000000000000001600000000000000000000000000000000000000000000000000000000000000001000000000000000000000000000000000000000000000000000000000000000000000000000000000000000000000000000000000000000000000000000000000000000000000000000000000000000000000000000000000000000000000000000000000000000000000000000000000000000000000000000000000000000000000000000000000000000000000000000000000000000000000000000000000000000000000000000000000000000000000000000000000000000000000300000000000000000000000000000000000000000000000000000000000000038000000000000000000000000000000000000000000000000000000000000001648d80ff0a0000000000000000000000000000000000000000000000000000000000000020000000000000000000000000000000000000000000000000000000000000011200abfd35ffa94faa4b4d84505daafdfea08f61251b00000000000000000000000000000000000000000000000000000000000000000000000000000000000000000000000000000000000000000000000000000024e3ac8226000000000000000000000000000000000000000000000000000000000000000000abfd35ffa94faa4b4d84505daafdfea08f61251b000000000000000000000000000000000000000000000000000000000000000000000000000000000000000000000000000000000000000000000000000000440f3d249d0000000000000000000000000000000000000000000000000de0b6b3a76400000000000000000000000000000000000000000000000000000000000068afee060000000000000000000000000000000000000000000000000000000000000000000000000000000000000000000000000000000000000000000000000000000000000000000000000041d43504bc9b9160e45425f13776f6da5925b22ae68948ee4ae30a6bece325808e4d1b830e1a711e8f7c837d89e046798beb7cdfe83ee5dbfe01891a30521a8fb31b000000000000000000000000000000000000000000000000000000000000000000000000000000000000000000000000000000000000000000000000000060000000000000000000000000000000000000000000000000000000000000000400000000000000000000000056fd3f2bee130e9867942d0f463a16fbe49b8d810000000000000000000000000000000000000000000000000000000000000001",
          "blockHash": "0x125e4623fd3de80e28a76fec7e7800d17389cd5fdca739538f163e8acaad1f29",
          "blockNumber": "0x2123e19",
          "transactionHash": "0x77ac9e6b3130af72049347f124c18101cd54f971016824583ea46655de420052",
          "transactionIndex": "0x0",
          "logIndex": "0x0",
          "removed": false
        },
        {
          "address": "0x32cb58b145d3f7e28c45ce4b2cc31fa94248b23f",
          "topics": [
            "0x442e715f626346e8c54381002da614f62bee8d27386535b2521ec8540898556e",
            "0xe5acb0c9553db3e9677bd0bd1dc02a15c475ccfd2e5aa6a3f544a12326d8a198"
          ],
          "data": "0x0000000000000000000000000000000000000000000000000000000000000000",
          "blockHash": "0x125e4623fd3de80e28a76fec7e7800d17389cd5fdca739538f163e8acaad1f29",
          "blockNumber": "0x2123e19",
          "transactionHash": "0x77ac9e6b3130af72049347f124c18101cd54f971016824583ea46655de420052",
          "transactionIndex": "0x0",
          "logIndex": "0x1",
          "removed": false
        }
      ],
      "logsBloom": "0x00000000400000000000000000000000000000000000000000000000040000000000000000000000000004000000000000000000000000000000000000000000000000000000000000000000100000000000040000000000000000000000000200000000000000000000000000000000000000000000000000000000000000000000000010000000000000000000000000000000000000000000000000000000000000000400000000000000000004000008000000000000000000000000000000000000000000000000000000020000000000000000000000000000000000000000000000000000000000000000000000000000000000000000400000000000",
      "type": "0x2",
      "transactionHash": "0x77ac9e6b3130af72049347f124c18101cd54f971016824583ea46655de420052",
      "transactionIndex": "0x0",
      "blockHash": "0x125e4623fd3de80e28a76fec7e7800d17389cd5fdca739538f163e8acaad1f29",
      "blockNumber": "0x2123e19",
      "gasUsed": "0x13e56",
      "effectiveGasPrice": "0xf3f5e",
      "blobGasUsed": "0x0",
      "from": "0x56fd3f2bee130e9867942d0f463a16fbe49b8d81",
      "to": "0x32cb58b145d3f7e28c45ce4b2cc31fa94248b23f",
      "contractAddress": null
    }
  ],
  "libraries": [
    "node_modules/@celo/contracts/common/linkedlists/AddressSortedLinkedListWithMedian.sol:AddressSortedLinkedListWithMedian:0x837d8484b65fF4aF35567e325BD63399B8A0d91E"
  ],
  "pending": [],
  "returns": {},
  "timestamp": 1756360238262,
  "chain": 8453,
  "commit": "eb7c3cd"
}