{
  "transactions": [
    {
      "hash": "0xa2314f870155b290b4601533cb9c1615822589422a23eb3733b88dfc6e11662d",
      "transactionType": "CALL",
      "contractName": null,
      "contractAddress": "0x32cb58b145d3f7e28c45ce4b2cc31fa94248b23f",
      "function": "execTransaction(address,uint256,bytes,uint8,uint256,uint256,uint256,address,address,bytes)",
      "arguments": [
        "0x40A2aCCbd92BCA938b02010E17A5b8929b49130D",
        "0",
        "0x8d80ff0a0000000000000000000000000000000000000000000000000000000000000020000000000000000000000000000000000000000000000000000000000000011200abfd35ffa94faa4b4d84505daafdfea08f61251b00000000000000000000000000000000000000000000000000000000000000000000000000000000000000000000000000000000000000000000000000000024e3ac8226000000000000000000000000000000000000000000000000000000000000000000abfd35ffa94faa4b4d84505daafdfea08f61251b000000000000000000000000000000000000000000000000000000000000000000000000000000000000000000000000000000000000000000000000000000440f3d249d0000000000000000000000000000000000000000000000000de0b6b3a76400000000000000000000000000000000000000000000000000000000000068aff0a10000000000000000000000000000",
        "1",
        "0",
        "0",
        "0",
        "0x0000000000000000000000000000000000000000",
        "0x0000000000000000000000000000000000000000",
        "0x6e30083004964e20b1c0b26c05a3f7b730d7eb088835fa55c077fc0b689085436d178a2e60546c2b37b4700816279182373e74ff4ffc48129bede8e1df975b841c"
      ],
      "transaction": {
        "from": "0x56fd3f2bee130e9867942d0f463a16fbe49b8d81",
        "to": "0x32cb58b145d3f7e28c45ce4b2cc31fa94248b23f",
        "gas": "0x1b7b3",
        "value": "0x0",
        "input": "0x6a76120200000000000000000000000040a2accbd92bca938b02010e17a5b8929b49130d0000000000000000000000000000000000000000000000000000000000000000000000000000000000000000000000000000000000000000000000000000014000000000000000000000000000000000000000000000000000000000000000010000000000000000000000000000000000000000000000000000000000000000000000000000000000000000000000000000000000000000000000000000000000000000000000000000000000000000000000000000000000000000000000000000000000000000000000000000000000000000000000000000000000000000000000000000000000000000000000000000000000000000000000000000000000000000000000000000000000000000000000000000000000000000000002e000000000000000000000000000000000000000000000000000000000000001648d80ff0a0000000000000000000000000000000000000000000000000000000000000020000000000000000000000000000000000000000000000000000000000000011200abfd35ffa94faa4b4d84505daafdfea08f61251b00000000000000000000000000000000000000000000000000000000000000000000000000000000000000000000000000000000000000000000000000000024e3ac8226000000000000000000000000000000000000000000000000000000000000000000abfd35ffa94faa4b4d84505daafdfea08f61251b000000000000000000000000000000000000000000000000000000000000000000000000000000000000000000000000000000000000000000000000000000440f3d249d0000000000000000000000000000000000000000000000000de0b6b3a76400000000000000000000000000000000000000000000000000000000000068aff0a100000000000000000000000000000000000000000000000000000000000000000000000000000000000000000000000000000000000000000000000000000000000000000000000000416e30083004964e20b1c0b26c05a3f7b730d7eb088835fa55c077fc0b689085436d178a2e60546c2b37b4700816279182373e74ff4ffc48129bede8e1df975b841c00000000000000000000000000000000000000000000000000000000000000",
        "nonce": "0xd",
        "chainId": "0x2105"
      },
      "additionalContracts": [],
      "isFixedGasLimit": false
    }
  ],
  "receipts": [
    {
      "status": "0x1",
      "cumulativeGasUsed": "0x13e56",
      "logs": [
        {
          "address": "0x32cb58b145d3f7e28c45ce4b2cc31fa94248b23f",
          "topics": [
            "0x66753cd2356569ee081232e3be8909b950e0a76c1f8460c3a5e3c2be32b11bed"
          ],
          "data": "0x00000000000000000000000040a2accbd92bca938b02010e17a5b8929b49130d000000000000000000000000000000000000000000000000000000000000000000000000000000000000000000000000000000000000000000000000000001600000000000000000000000000000000000000000000000000000000000000001000000000000000000000000000000000000000000000000000000000000000000000000000000000000000000000000000000000000000000000000000000000000000000000000000000000000000000000000000000000000000000000000000000000000000000000000000000000000000000000000000000000000000000000000000000000000000000000000000000000000000000000000000000000000000000000000000000000000000000000000000000000000000000000300000000000000000000000000000000000000000000000000000000000000038000000000000000000000000000000000000000000000000000000000000001648d80ff0a0000000000000000000000000000000000000000000000000000000000000020000000000000000000000000000000000000000000000000000000000000011200abfd35ffa94faa4b4d84505daafdfea08f61251b00000000000000000000000000000000000000000000000000000000000000000000000000000000000000000000000000000000000000000000000000000024e3ac8226000000000000000000000000000000000000000000000000000000000000000000abfd35ffa94faa4b4d84505daafdfea08f61251b000000000000000000000000000000000000000000000000000000000000000000000000000000000000000000000000000000000000000000000000000000440f3d249d0000000000000000000000000000000000000000000000000de0b6b3a76400000000000000000000000000000000000000000000000000000000000068aff0a100000000000000000000000000000000000000000000000000000000000000000000000000000000000000000000000000000000000000000000000000000000000000000000000000416e30083004964e20b1c0b26c05a3f7b730d7eb088835fa55c077fc0b689085436d178a2e60546c2b37b4700816279182373e74ff4ffc48129bede8e1df975b841c000000000000000000000000000000000000000000000000000000000000000000000000000000000000000000000000000000000000000000000000000060000000000000000000000000000000000000000000000000000000000000000c00000000000000000000000056fd3f2bee130e9867942d0f463a16fbe49b8d810000000000000000000000000000000000000000000000000000000000000001",
          "blockHash": "0x1a10140d5dfaca06ae2b438eb5a016d2e6a6c1b2344f4139da52eaea14417fd5",
          "blockNumber": "0x2123e21",
          "transactionHash": "0xa2314f870155b290b4601533cb9c1615822589422a23eb3733b88dfc6e11662d",
          "transactionIndex": "0x0",
          "logIndex": "0x0",
          "removed": false
        },
        {
          "address": "0x32cb58b145d3f7e28c45ce4b2cc31fa94248b23f",
          "topics": [
            "0x442e715f626346e8c54381002da614f62bee8d27386535b2521ec8540898556e",
            "0x4511108c06cf9e489a337d05ba7fe8a10eeaf0d48a9801f5094b4298acc709f3"
          ],
          "data": "0x0000000000000000000000000000000000000000000000000000000000000000",
          "blockHash": "0x1a10140d5dfaca06ae2b438eb5a016d2e6a6c1b2344f4139da52eaea14417fd5",
          "blockNumber": "0x2123e21",
          "transactionHash": "0xa2314f870155b290b4601533cb9c1615822589422a23eb3733b88dfc6e11662d",
          "transactionIndex": "0x0",
          "logIndex": "0x1",
          "removed": false
        }
      ],
      "logsBloom": "0x00000000400000000000000000000000000000000200000000000000040000000000000000000000000000000000000000000000000000000000000000000000000000000000000000000000100000020000040000000000000000000000000200000000000000000000000000000000000000000000000000000000000000000000000000000000000000010000000000000000000000000000000000000000000000000400000000000000000004000008000000000000000000000000000000000000000000000000000000020000000000000000000000000000000000000000000000000000000000000000000000000000000000000000000000000000",
      "type": "0x2",
      "transactionHash": "0xa2314f870155b290b4601533cb9c1615822589422a23eb3733b88dfc6e11662d",
      "transactionIndex": "0x0",
      "blockHash": "0x1a10140d5dfaca06ae2b438eb5a016d2e6a6c1b2344f4139da52eaea14417fd5",
      "blockNumber": "0x2123e21",
      "gasUsed": "0x13e56",
      "effectiveGasPrice": "0xf3f5e",
      "blobGasUsed": "0x0",
      "from": "0x56fd3f2bee130e9867942d0f463a16fbe49b8d81",
      "to": "0x32cb58b145d3f7e28c45ce4b2cc31fa94248b23f",
      "contractAddress": null
    }
  ],
  "libraries": [
    "node_modules/@celo/contracts/common/linkedlists/AddressSortedLinkedListWithMedian.sol:AddressSortedLinkedListWithMedian:0x5B85BD8e873d11e8272421964381e22a2512DE7C"
  ],
  "pending": [],
  "returns": {},
  "timestamp": 1756360904990,
  "chain": 8453,
  "commit": "eb7c3cd"
}