{
  "transactions": [
    {
      "hash": "0xb691ed7c6256820e531dab95370f276ea6f442112e71ff28fb8115bab3d28778",
      "transactionType": "CALL",
      "contractName": null,
      "contractAddress": "0xba5ed099633d3b313e4d5f7bdc1305d3c28ba5ed",
      "function": "deployCreate3(bytes32,bytes)",
      "arguments": [
        "0x2738f38fde510743e0c589415e0598c4cee6eaa700897d52204d41cb68c16f7d",
        "0x608060405234801561000f575f80fd5b5060405161083e38038061083e83398101604081905261002e916100bb565b806001600160a01b03811661005c57604051631e4fbdf760e01b81525f600482015260240160405180910390fd5b6100658161006c565b50506100e8565b5f80546001600160a01b038381166001600160a01b0319831681178455604051919092169283917f8be0079c531659141344cd1fd0a4f28419497f9722a3daafe3b4186f6b6457e09190a35050565b5f602082840312156100cb575f80fd5b81516001600160a01b03811681146100e1575f80fd5b9392505050565b610749806100f55f395ff3fe608060405234801561000f575f80fd5b506004361061007a575f3560e01c8063bae55d5811610058578063bae55d58146100ca578063d9c220b3146100dd578063f2fde38b146100f0578063fd165f5314610103575f80fd5b8063291ea09a1461007e578063715018a6146100a65780638da5cb5b146100b0575b5f80fd5b5f5461009190600160a01b900460ff1681565b60405190151581526020015b60405180910390f35b6100ae610116565b005b5f546040516001600160a01b03909116815260200161009d565b6100ae6100d83660046105ae565b610129565b6100916100eb3660046105cd565b610188565b6100ae6100fe3660046105e4565b6101c3565b6100916101113660046105e4565b610205565b61011e610272565b6101275f61029e565b565b610131610272565b5f8054821515600160a01b0260ff60a01b199091161790556040517fc7bcc39881bda4cef7d63896f105f5810744ba7f3abbd60a36e009cc54b3bb2c9061017d90831515815260200190565b60405180910390a150565b5f8054600160a01b900460ff166101a157506001919050565b6101aa826102ed565b1580156101bd57506101bb8261034d565b155b92915050565b6101cb610272565b6001600160a01b0381166101f957604051631e4fbdf760e01b81525f60048201526024015b60405180910390fd5b6102028161029e565b50565b5f61020f42610188565b61026b5760405162461bcd60e51b815260206004820152602760248201527f4d61726b6574486f757273427265616b65723a204658206d61726b65742069736044820152660818db1bdcd95960ca1b60648201526084016101f0565b505f919050565b5f546001600160a01b031633146101275760405163118cdaa760e01b81523360048201526024016101f0565b5f80546001600160a01b038381166001600160a01b0319831681178455604051919092169283917f8be0079c531659141344cd1fd0a4f28419497f9722a3daafe3b4186f6b6457e09190a35050565b5f806102f8836103b9565b90505f610304846103f3565b90505f826005148015610318575060158210155b9050600683145f60078514801561032f5750601784105b9050828061033a5750815b806103425750805b979650505050505050565b5f8061035883610410565b90505f6103648461042e565b905081600c036103a157806018148061037d575080601f145b1561039757601661038d856103f3565b1015949350505050565b6019149392505050565b8160011480156103b15750806001145b949350505050565b5f806103c86201518084610632565b905060076103d7826003610645565b6103e19190610658565b6103ec906001610645565b9392505050565b5f806104026201518084610658565b90506103ec610e1082610632565b5f6104266104216201518084610632565b61043f565b509392505050565b5f6103b16104216201518084610632565b5f8080838162253d8c6104558362010bd961066b565b61045f919061066b565b90505f62023ab1610471836004610692565b61047b91906106c1565b9050600461048c8262023ab1610692565b61049790600361066b565b6104a191906106c1565b6104ab90836106ed565b91505f62164b096104bd84600161066b565b6104c990610fa0610692565b6104d391906106c1565b905060046104e3826105b5610692565b6104ed91906106c1565b6104f790846106ed565b61050290601f61066b565b92505f61098f610513856050610692565b61051d91906106c1565b90505f605061052e8361098f610692565b61053891906106c1565b61054290866106ed565b905061054f600b836106c1565b945061055c85600c610692565b61056783600261066b565b61057191906106ed565b915084836105806031876106ed565b61058b906064610692565b610595919061066b565b61059f919061066b565b9a919950975095505050505050565b5f602082840312156105be575f80fd5b813580151581146103ec575f80fd5b5f602082840312156105dd575f80fd5b5035919050565b5f602082840312156105f4575f80fd5b81356001600160a01b03811681146103ec575f80fd5b634e487b7160e01b5f52601260045260245ffd5b634e487b7160e01b5f52601160045260245ffd5b5f826106405761064061060a565b500490565b808201808211156101bd576101bd61061e565b5f826106665761066661060a565b500690565b8082018281125f83128015821682158216171561068a5761068a61061e565b505092915050565b8082025f8212600160ff1b841416156106ad576106ad61061e565b81810583148215176101bd576101bd61061e565b5f826106cf576106cf61060a565b600160ff1b82145f19841416156106e8576106e861061e565b500590565b8181035f83128015838313168383128216171561070c5761070c61061e565b509291505056fea2646970667358221220e8d28088a0584c16ba65c77bfd188db35643445a2fa4f12b8dd2f0e76e9f101764736f6c634300081800330000000000000000000000002738f38fde510743e0c589415e0598c4cee6eaa7"
      ],
      "transaction": {
        "from": "0x2738f38fde510743e0c589415e0598c4cee6eaa7",
        "to": "0xba5ed099633d3b313e4d5f7bdc1305d3c28ba5ed",
        "gas": "0xbcf6a",
        "value": "0x0",
        "input": "0x9c36a2862738f38fde510743e0c589415e0598c4cee6eaa700897d52204d41cb68c16f7d0000000000000000000000000000000000000000000000000000000000000040000000000000000000000000000000000000000000000000000000000000085e608060405234801561000f575f80fd5b5060405161083e38038061083e83398101604081905261002e916100bb565b806001600160a01b03811661005c57604051631e4fbdf760e01b81525f600482015260240160405180910390fd5b6100658161006c565b50506100e8565b5f80546001600160a01b038381166001600160a01b0319831681178455604051919092169283917f8be0079c531659141344cd1fd0a4f28419497f9722a3daafe3b4186f6b6457e09190a35050565b5f602082840312156100cb575f80fd5b81516001600160a01b03811681146100e1575f80fd5b9392505050565b610749806100f55f395ff3fe608060405234801561000f575f80fd5b506004361061007a575f3560e01c8063bae55d5811610058578063bae55d58146100ca578063d9c220b3146100dd578063f2fde38b146100f0578063fd165f5314610103575f80fd5b8063291ea09a1461007e578063715018a6146100a65780638da5cb5b146100b0575b5f80fd5b5f5461009190600160a01b900460ff1681565b60405190151581526020015b60405180910390f35b6100ae610116565b005b5f546040516001600160a01b03909116815260200161009d565b6100ae6100d83660046105ae565b610129565b6100916100eb3660046105cd565b610188565b6100ae6100fe3660046105e4565b6101c3565b6100916101113660046105e4565b610205565b61011e610272565b6101275f61029e565b565b610131610272565b5f8054821515600160a01b0260ff60a01b199091161790556040517fc7bcc39881bda4cef7d63896f105f5810744ba7f3abbd60a36e009cc54b3bb2c9061017d90831515815260200190565b60405180910390a150565b5f8054600160a01b900460ff166101a157506001919050565b6101aa826102ed565b1580156101bd57506101bb8261034d565b155b92915050565b6101cb610272565b6001600160a01b0381166101f957604051631e4fbdf760e01b81525f60048201526024015b60405180910390fd5b6102028161029e565b50565b5f61020f42610188565b61026b5760405162461bcd60e51b815260206004820152602760248201527f4d61726b6574486f757273427265616b65723a204658206d61726b65742069736044820152660818db1bdcd95960ca1b60648201526084016101f0565b505f919050565b5f546001600160a01b031633146101275760405163118cdaa760e01b81523360048201526024016101f0565b5f80546001600160a01b038381166001600160a01b0319831681178455604051919092169283917f8be0079c531659141344cd1fd0a4f28419497f9722a3daafe3b4186f6b6457e09190a35050565b5f806102f8836103b9565b90505f610304846103f3565b90505f826005148015610318575060158210155b9050600683145f60078514801561032f5750601784105b9050828061033a5750815b806103425750805b979650505050505050565b5f8061035883610410565b90505f6103648461042e565b905081600c036103a157806018148061037d575080601f145b1561039757601661038d856103f3565b1015949350505050565b6019149392505050565b8160011480156103b15750806001145b949350505050565b5f806103c86201518084610632565b905060076103d7826003610645565b6103e19190610658565b6103ec906001610645565b9392505050565b5f806104026201518084610658565b90506103ec610e1082610632565b5f6104266104216201518084610632565b61043f565b509392505050565b5f6103b16104216201518084610632565b5f8080838162253d8c6104558362010bd961066b565b61045f919061066b565b90505f62023ab1610471836004610692565b61047b91906106c1565b9050600461048c8262023ab1610692565b61049790600361066b565b6104a191906106c1565b6104ab90836106ed565b91505f62164b096104bd84600161066b565b6104c990610fa0610692565b6104d391906106c1565b905060046104e3826105b5610692565b6104ed91906106c1565b6104f790846106ed565b61050290601f61066b565b92505f61098f610513856050610692565b61051d91906106c1565b90505f605061052e8361098f610692565b61053891906106c1565b61054290866106ed565b905061054f600b836106c1565b945061055c85600c610692565b61056783600261066b565b61057191906106ed565b915084836105806031876106ed565b61058b906064610692565b610595919061066b565b61059f919061066b565b9a919950975095505050505050565b5f602082840312156105be575f80fd5b813580151581146103ec575f80fd5b5f602082840312156105dd575f80fd5b5035919050565b5f602082840312156105f4575f80fd5b81356001600160a01b03811681146103ec575f80fd5b634e487b7160e01b5f52601260045260245ffd5b634e487b7160e01b5f52601160045260245ffd5b5f826106405761064061060a565b500490565b808201808211156101bd576101bd61061e565b5f826106665761066661060a565b500690565b8082018281125f83128015821682158216171561068a5761068a61061e565b505092915050565b8082025f8212600160ff1b841416156106ad576106ad61061e565b81810583148215176101bd576101bd61061e565b5f826106cf576106cf61060a565b600160ff1b82145f19841416156106e8576106e861061e565b500590565b8181035f83128015838313168383128216171561070c5761070c61061e565b509291505056fea2646970667358221220e8d28088a0584c16ba65c77bfd188db35643445a2fa4f12b8dd2f0e76e9f101764736f6c634300081800330000000000000000000000002738f38fde510743e0c589415e0598c4cee6eaa70000",
        "nonce": "0x67",
        "chainId": "0xaa044c"
      },
      "additionalContracts": [
        {
          "transactionType": "CREATE2",
          "contractName": null,
          "address": "0x98cdac39812d2e1bf5a287bed35b1fd2387f7e41",
          "initCode": "0x67363d3d37363d34f03d5260086018f3"
        },
        {
          "transactionType": "CREATE",
          "contractName": "MarketHoursBreakerToggleable",
          "address": "0x4c67f682195d1627ed76ed69311930c7fb069684",
          "initCode": "0x608060405234801561000f575f80fd5b5060405161083e38038061083e83398101604081905261002e916100bb565b806001600160a01b03811661005c57604051631e4fbdf760e01b81525f600482015260240160405180910390fd5b6100658161006c565b50506100e8565b5f80546001600160a01b038381166001600160a01b0319831681178455604051919092169283917f8be0079c531659141344cd1fd0a4f28419497f9722a3daafe3b4186f6b6457e09190a35050565b5f602082840312156100cb575f80fd5b81516001600160a01b03811681146100e1575f80fd5b9392505050565b610749806100f55f395ff3fe608060405234801561000f575f80fd5b506004361061007a575f3560e01c8063bae55d5811610058578063bae55d58146100ca578063d9c220b3146100dd578063f2fde38b146100f0578063fd165f5314610103575f80fd5b8063291ea09a1461007e578063715018a6146100a65780638da5cb5b146100b0575b5f80fd5b5f5461009190600160a01b900460ff1681565b60405190151581526020015b60405180910390f35b6100ae610116565b005b5f546040516001600160a01b03909116815260200161009d565b6100ae6100d83660046105ae565b610129565b6100916100eb3660046105cd565b610188565b6100ae6100fe3660046105e4565b6101c3565b6100916101113660046105e4565b610205565b61011e610272565b6101275f61029e565b565b610131610272565b5f8054821515600160a01b0260ff60a01b199091161790556040517fc7bcc39881bda4cef7d63896f105f5810744ba7f3abbd60a36e009cc54b3bb2c9061017d90831515815260200190565b60405180910390a150565b5f8054600160a01b900460ff166101a157506001919050565b6101aa826102ed565b1580156101bd57506101bb8261034d565b155b92915050565b6101cb610272565b6001600160a01b0381166101f957604051631e4fbdf760e01b81525f60048201526024015b60405180910390fd5b6102028161029e565b50565b5f61020f42610188565b61026b5760405162461bcd60e51b815260206004820152602760248201527f4d61726b6574486f757273427265616b65723a204658206d61726b65742069736044820152660818db1bdcd95960ca1b60648201526084016101f0565b505f919050565b5f546001600160a01b031633146101275760405163118cdaa760e01b81523360048201526024016101f0565b5f80546001600160a01b038381166001600160a01b0319831681178455604051919092169283917f8be0079c531659141344cd1fd0a4f28419497f9722a3daafe3b4186f6b6457e09190a35050565b5f806102f8836103b9565b90505f610304846103f3565b90505f826005148015610318575060158210155b9050600683145f60078514801561032f5750601784105b9050828061033a5750815b806103425750805b979650505050505050565b5f8061035883610410565b90505f6103648461042e565b905081600c036103a157806018148061037d575080601f145b1561039757601661038d856103f3565b1015949350505050565b6019149392505050565b8160011480156103b15750806001145b949350505050565b5f806103c86201518084610632565b905060076103d7826003610645565b6103e19190610658565b6103ec906001610645565b9392505050565b5f806104026201518084610658565b90506103ec610e1082610632565b5f6104266104216201518084610632565b61043f565b509392505050565b5f6103b16104216201518084610632565b5f8080838162253d8c6104558362010bd961066b565b61045f919061066b565b90505f62023ab1610471836004610692565b61047b91906106c1565b9050600461048c8262023ab1610692565b61049790600361066b565b6104a191906106c1565b6104ab90836106ed565b91505f62164b096104bd84600161066b565b6104c990610fa0610692565b6104d391906106c1565b905060046104e3826105b5610692565b6104ed91906106c1565b6104f790846106ed565b61050290601f61066b565b92505f61098f610513856050610692565b61051d91906106c1565b90505f605061052e8361098f610692565b61053891906106c1565b61054290866106ed565b905061054f600b836106c1565b945061055c85600c610692565b61056783600261066b565b61057191906106ed565b915084836105806031876106ed565b61058b906064610692565b610595919061066b565b61059f919061066b565b9a919950975095505050505050565b5f602082840312156105be575f80fd5b813580151581146103ec575f80fd5b5f602082840312156105dd575f80fd5b5035919050565b5f602082840312156105f4575f80fd5b81356001600160a01b03811681146103ec575f80fd5b634e487b7160e01b5f52601260045260245ffd5b634e487b7160e01b5f52601160045260245ffd5b5f826106405761064061060a565b500490565b808201808211156101bd576101bd61061e565b5f826106665761066661060a565b500690565b8082018281125f83128015821682158216171561068a5761068a61061e565b505092915050565b8082025f8212600160ff1b841416156106ad576106ad61061e565b81810583148215176101bd576101bd61061e565b5f826106cf576106cf61060a565b600160ff1b82145f19841416156106e8576106e861061e565b500590565b8181035f83128015838313168383128216171561070c5761070c61061e565b509291505056fea2646970667358221220e8d28088a0584c16ba65c77bfd188db35643445a2fa4f12b8dd2f0e76e9f101764736f6c634300081800330000000000000000000000002738f38fde510743e0c589415e0598c4cee6eaa7"
        }
      ],
      "isFixedGasLimit": false
    },
    {
      "hash": "0xc60133e7857f1405e872dd5a081987256ad344c0f8897218c8c7d0648a872ab2",
      "transactionType": "CALL",
      "contractName": "BreakerBox",
      "contractAddress": "0x578bd46003b9d3fd4c3c3f47c98b329562a6a1de",
      "function": "toggleBreaker(address,address,bool)",
      "arguments": [
        "0x99C968Bf5972C11442654b989B7eAD0237cA654B",
        "0x5D5a22116233BDb2a9C2977279cC348B8b8Ce917",
        "false"
      ],
      "transaction": {
        "from": "0x2738f38fde510743e0c589415e0598c4cee6eaa7",
        "to": "0x578bd46003b9d3fd4c3c3f47c98b329562a6a1de",
        "gas": "0x11d54",
        "value": "0x0",
        "input": "0x0c60714600000000000000000000000099c968bf5972c11442654b989b7ead0237ca654b0000000000000000000000005d5a22116233bdb2a9c2977279cc348b8b8ce9170000000000000000000000000000000000000000000000000000000000000000",
        "nonce": "0x68",
        "chainId": "0xaa044c"
      },
      "additionalContracts": [],
      "isFixedGasLimit": false
    },
    {
      "hash": "0x76405501d3ab60667ead56e4511464059ff05bda78b29e15c850b670f8f925a9",
      "transactionType": "CALL",
      "contractName": "BreakerBox",
      "contractAddress": "0x578bd46003b9d3fd4c3c3f47c98b329562a6a1de",
      "function": "toggleBreaker(address,address,bool)",
      "arguments": [
        "0x99C968Bf5972C11442654b989B7eAD0237cA654B",
        "0xCE1213507c81576759181A2b795f3c9aE5ede6bd",
        "false"
      ],
      "transaction": {
        "from": "0x2738f38fde510743e0c589415e0598c4cee6eaa7",
        "to": "0x578bd46003b9d3fd4c3c3f47c98b329562a6a1de",
        "gas": "0x11d54",
        "value": "0x0",
        "input": "0x0c60714600000000000000000000000099c968bf5972c11442654b989b7ead0237ca654b000000000000000000000000ce1213507c81576759181a2b795f3c9ae5ede6bd0000000000000000000000000000000000000000000000000000000000000000",
        "nonce": "0x69",
        "chainId": "0xaa044c"
      },
      "additionalContracts": [],
      "isFixedGasLimit": false
    },
    {
      "hash": "0x13cf33bd4be0a4fa696e43bd1be36752b4af00d2b8e833f9e04b5e9d24f3bf97",
      "transactionType": "CALL",
      "contractName": "BreakerBox",
      "contractAddress": "0x578bd46003b9d3fd4c3c3f47c98b329562a6a1de",
      "function": "toggleBreaker(address,address,bool)",
      "arguments": [
        "0x99C968Bf5972C11442654b989B7eAD0237cA654B",
        "0xBBc9c6E41E2A402b12992875eDaa0162Ed990212",
        "false"
      ],
      "transaction": {
        "from": "0x2738f38fde510743e0c589415e0598c4cee6eaa7",
        "to": "0x578bd46003b9d3fd4c3c3f47c98b329562a6a1de",
        "gas": "0x11d54",
        "value": "0x0",
        "input": "0x0c60714600000000000000000000000099c968bf5972c11442654b989b7ead0237ca654b000000000000000000000000bbc9c6e41e2a402b12992875edaa0162ed9902120000000000000000000000000000000000000000000000000000000000000000",
        "nonce": "0x6a",
        "chainId": "0xaa044c"
      },
      "additionalContracts": [],
      "isFixedGasLimit": false
    },
    {
      "hash": "0xa972992ebc7e9cbf85913501a313113e5384869440784353406973d066770fbe",
      "transactionType": "CALL",
      "contractName": "BreakerBox",
      "contractAddress": "0x578bd46003b9d3fd4c3c3f47c98b329562a6a1de",
      "function": "toggleBreaker(address,address,bool)",
      "arguments": [
        "0x99C968Bf5972C11442654b989B7eAD0237cA654B",
        "0xbAcEE37d31b9f022Ef5d232B9fD53F05a531c169",
        "false"
      ],
      "transaction": {
        "from": "0x2738f38fde510743e0c589415e0598c4cee6eaa7",
        "to": "0x578bd46003b9d3fd4c3c3f47c98b329562a6a1de",
        "gas": "0x11d54",
        "value": "0x0",
        "input": "0x0c60714600000000000000000000000099c968bf5972c11442654b989b7ead0237ca654b000000000000000000000000bacee37d31b9f022ef5d232b9fd53f05a531c1690000000000000000000000000000000000000000000000000000000000000000",
        "nonce": "0x6b",
        "chainId": "0xaa044c"
      },
      "additionalContracts": [],
      "isFixedGasLimit": false
    },
    {
      "hash": "0xdd52a1de97af30e6dc51b8ca4212d2376dd431f33716d24911b43523e1ffb154",
      "transactionType": "CALL",
      "contractName": "BreakerBox",
      "contractAddress": "0x578bd46003b9d3fd4c3c3f47c98b329562a6a1de",
      "function": "toggleBreaker(address,address,bool)",
      "arguments": [
        "0x99C968Bf5972C11442654b989B7eAD0237cA654B",
        "0x341E2A8b5b52B54F1794DDbdD54e433746C65d60",
        "false"
      ],
      "transaction": {
        "from": "0x2738f38fde510743e0c589415e0598c4cee6eaa7",
        "to": "0x578bd46003b9d3fd4c3c3f47c98b329562a6a1de",
        "gas": "0x11d54",
        "value": "0x0",
        "input": "0x0c60714600000000000000000000000099c968bf5972c11442654b989b7ead0237ca654b000000000000000000000000341e2a8b5b52b54f1794ddbdd54e433746c65d600000000000000000000000000000000000000000000000000000000000000000",
        "nonce": "0x6c",
        "chainId": "0xaa044c"
      },
      "additionalContracts": [],
      "isFixedGasLimit": false
    },
    {
      "hash": "0xcd217f1c4f9b2ac3129b4b0340077d20c6b5f4fe2bfb32e9af4a25ccedf1ceb0",
      "transactionType": "CALL",
      "contractName": "BreakerBox",
      "contractAddress": "0x578bd46003b9d3fd4c3c3f47c98b329562a6a1de",
      "function": "toggleBreaker(address,address,bool)",
      "arguments": [
        "0x99C968Bf5972C11442654b989B7eAD0237cA654B",
        "0x7149632514c5BAA315520Ab9d12556D9C67F15E0",
        "false"
      ],
      "transaction": {
        "from": "0x2738f38fde510743e0c589415e0598c4cee6eaa7",
        "to": "0x578bd46003b9d3fd4c3c3f47c98b329562a6a1de",
        "gas": "0x11d54",
        "value": "0x0",
        "input": "0x0c60714600000000000000000000000099c968bf5972c11442654b989b7ead0237ca654b0000000000000000000000007149632514c5baa315520ab9d12556d9c67f15e00000000000000000000000000000000000000000000000000000000000000000",
        "nonce": "0x6d",
        "chainId": "0xaa044c"
      },
      "additionalContracts": [],
      "isFixedGasLimit": false
    },
    {
      "hash": "0x7f122b965fae840d62bb3e068f29a6338b3156f0f6a6f93992f2ecde4b7c4aed",
      "transactionType": "CALL",
      "contractName": "BreakerBox",
      "contractAddress": "0x578bd46003b9d3fd4c3c3f47c98b329562a6a1de",
      "function": "toggleBreaker(address,address,bool)",
      "arguments": [
        "0x99C968Bf5972C11442654b989B7eAD0237cA654B",
        "0xbB776CD80Bab1E658A6a8685580751166145121F",
        "false"
      ],
      "transaction": {
        "from": "0x2738f38fde510743e0c589415e0598c4cee6eaa7",
        "to": "0x578bd46003b9d3fd4c3c3f47c98b329562a6a1de",
        "gas": "0x11d54",
        "value": "0x0",
        "input": "0x0c60714600000000000000000000000099c968bf5972c11442654b989b7ead0237ca654b000000000000000000000000bb776cd80bab1e658a6a8685580751166145121f0000000000000000000000000000000000000000000000000000000000000000",
        "nonce": "0x6e",
        "chainId": "0xaa044c"
      },
      "additionalContracts": [],
      "isFixedGasLimit": false
    },
    {
      "hash": "0xecdf4681fadbc89a7fd4324737eca1a2cc8992f87bafa2bb8b8fac271ef60509",
      "transactionType": "CALL",
      "contractName": "BreakerBox",
      "contractAddress": "0x578bd46003b9d3fd4c3c3f47c98b329562a6a1de",
      "function": "toggleBreaker(address,address,bool)",
      "arguments": [
        "0x99C968Bf5972C11442654b989B7eAD0237cA654B",
        "0xAe5eEe6815b8529847955d19522858806Bca8217",
        "false"
      ],
      "transaction": {
        "from": "0x2738f38fde510743e0c589415e0598c4cee6eaa7",
        "to": "0x578bd46003b9d3fd4c3c3f47c98b329562a6a1de",
        "gas": "0x11d54",
        "value": "0x0",
        "input": "0x0c60714600000000000000000000000099c968bf5972c11442654b989b7ead0237ca654b000000000000000000000000ae5eee6815b8529847955d19522858806bca82170000000000000000000000000000000000000000000000000000000000000000",
        "nonce": "0x6f",
        "chainId": "0xaa044c"
      },
      "additionalContracts": [],
      "isFixedGasLimit": false
    },
    {
      "hash": "0x18096fb199c2ecf2c07504bdb7263e999f959a40b4f80eb83ff7b41a91dee9f3",
      "transactionType": "CALL",
      "contractName": "BreakerBox",
      "contractAddress": "0x578bd46003b9d3fd4c3c3f47c98b329562a6a1de",
      "function": "toggleBreaker(address,address,bool)",
      "arguments": [
        "0x99C968Bf5972C11442654b989B7eAD0237cA654B",
        "0x53F7dC47aB9273C2d83c2Df557F3FcF1e6A9Ee10",
        "false"
      ],
      "transaction": {
        "from": "0x2738f38fde510743e0c589415e0598c4cee6eaa7",
        "to": "0x578bd46003b9d3fd4c3c3f47c98b329562a6a1de",
        "gas": "0x11d54",
        "value": "0x0",
        "input": "0x0c60714600000000000000000000000099c968bf5972c11442654b989b7ead0237ca654b00000000000000000000000053f7dc47ab9273c2d83c2df557f3fcf1e6a9ee100000000000000000000000000000000000000000000000000000000000000000",
        "nonce": "0x70",
        "chainId": "0xaa044c"
      },
      "additionalContracts": [],
      "isFixedGasLimit": false
    },
    {
      "hash": "0xa9f34e42aaa3d4cf4797246b0355cc398e408fafa783e02a509d9b65213a7d98",
      "transactionType": "CALL",
      "contractName": "BreakerBox",
      "contractAddress": "0x578bd46003b9d3fd4c3c3f47c98b329562a6a1de",
      "function": "toggleBreaker(address,address,bool)",
      "arguments": [
        "0x99C968Bf5972C11442654b989B7eAD0237cA654B",
        "0xc9dbD89FCe5710C91c35Ed9af1dc93fA090A28B0",
        "false"
      ],
      "transaction": {
        "from": "0x2738f38fde510743e0c589415e0598c4cee6eaa7",
        "to": "0x578bd46003b9d3fd4c3c3f47c98b329562a6a1de",
        "gas": "0x11d54",
        "value": "0x0",
        "input": "0x0c60714600000000000000000000000099c968bf5972c11442654b989b7ead0237ca654b000000000000000000000000c9dbd89fce5710c91c35ed9af1dc93fa090a28b00000000000000000000000000000000000000000000000000000000000000000",
        "nonce": "0x71",
        "chainId": "0xaa044c"
      },
      "additionalContracts": [],
      "isFixedGasLimit": false
    },
    {
      "hash": "0x1f68828e03bf20bcca3e0b2cae3adf4882697b009b49cc94578bcf6813ab48ad",
      "transactionType": "CALL",
      "contractName": "BreakerBox",
      "contractAddress": "0x578bd46003b9d3fd4c3c3f47c98b329562a6a1de",
      "function": "toggleBreaker(address,address,bool)",
      "arguments": [
        "0x99C968Bf5972C11442654b989B7eAD0237cA654B",
        "0x864Ea534d6992F3721000cdB6585b11E7046D5ec",
        "false"
      ],
      "transaction": {
        "from": "0x2738f38fde510743e0c589415e0598c4cee6eaa7",
        "to": "0x578bd46003b9d3fd4c3c3f47c98b329562a6a1de",
        "gas": "0x10d68",
        "value": "0x0",
        "input": "0x0c60714600000000000000000000000099c968bf5972c11442654b989b7ead0237ca654b000000000000000000000000864ea534d6992f3721000cdb6585b11e7046d5ec0000000000000000000000000000000000000000000000000000000000000000",
        "nonce": "0x72",
        "chainId": "0xaa044c"
      },
      "additionalContracts": [],
      "isFixedGasLimit": false
    },
    {
      "hash": "0x5c85b14d6f49b750d9c22efe3678b5b80c8c559460455e8d5f5190fd43a1b502",
      "transactionType": "CALL",
      "contractName": "BreakerBox",
      "contractAddress": "0x578bd46003b9d3fd4c3c3f47c98b329562a6a1de",
      "function": "toggleBreaker(address,address,bool)",
      "arguments": [
        "0x99C968Bf5972C11442654b989B7eAD0237cA654B",
        "0x4F2746E21A13Ea9A8A832D929CDBf32ffC113A2C",
        "false"
      ],
      "transaction": {
        "from": "0x2738f38fde510743e0c589415e0598c4cee6eaa7",
        "to": "0x578bd46003b9d3fd4c3c3f47c98b329562a6a1de",
        "gas": "0x11d54",
        "value": "0x0",
        "input": "0x0c60714600000000000000000000000099c968bf5972c11442654b989b7ead0237ca654b0000000000000000000000004f2746e21a13ea9a8a832d929cdbf32ffc113a2c0000000000000000000000000000000000000000000000000000000000000000",
        "nonce": "0x73",
        "chainId": "0xaa044c"
      },
      "additionalContracts": [],
      "isFixedGasLimit": false
    },
    {
      "hash": "0xa11fc54ba5c377c389a70e79e7823d334ea9ed3e1fe44d0bad0d2dcf81d1dd89",
      "transactionType": "CALL",
      "contractName": "BreakerBox",
      "contractAddress": "0x578bd46003b9d3fd4c3c3f47c98b329562a6a1de",
      "function": "toggleBreaker(address,address,bool)",
      "arguments": [
        "0x99C968Bf5972C11442654b989B7eAD0237cA654B",
        "0x403EA4186ce479fF162636c37fDf4086bD286F8c",
        "false"
      ],
      "transaction": {
        "from": "0x2738f38fde510743e0c589415e0598c4cee6eaa7",
        "to": "0x578bd46003b9d3fd4c3c3f47c98b329562a6a1de",
        "gas": "0x11d54",
        "value": "0x0",
        "input": "0x0c60714600000000000000000000000099c968bf5972c11442654b989b7ead0237ca654b000000000000000000000000403ea4186ce479ff162636c37fdf4086bd286f8c0000000000000000000000000000000000000000000000000000000000000000",
        "nonce": "0x74",
        "chainId": "0xaa044c"
      },
      "additionalContracts": [],
      "isFixedGasLimit": false
    },
    {
      "hash": "0x5746a03b1c8028bb11a069f29de307181ea495119a9780ff04630422219a9d32",
      "transactionType": "CALL",
      "contractName": "BreakerBox",
      "contractAddress": "0x578bd46003b9d3fd4c3c3f47c98b329562a6a1de",
      "function": "toggleBreaker(address,address,bool)",
      "arguments": [
        "0x99C968Bf5972C11442654b989B7eAD0237cA654B",
        "0xe7cDDEDC3dCA1674b70c347c814c8A9fCf8F68C9",
        "false"
      ],
      "transaction": {
        "from": "0x2738f38fde510743e0c589415e0598c4cee6eaa7",
        "to": "0x578bd46003b9d3fd4c3c3f47c98b329562a6a1de",
        "gas": "0x11d54",
        "value": "0x0",
        "input": "0x0c60714600000000000000000000000099c968bf5972c11442654b989b7ead0237ca654b000000000000000000000000e7cddedc3dca1674b70c347c814c8a9fcf8f68c90000000000000000000000000000000000000000000000000000000000000000",
        "nonce": "0x75",
        "chainId": "0xaa044c"
      },
      "additionalContracts": [],
      "isFixedGasLimit": false
    },
    {
      "hash": "0x378c649b81b62939320150b3126907347ca96185f03e43a1df89f97da67b5c48",
      "transactionType": "CALL",
      "contractName": "BreakerBox",
      "contractAddress": "0x578bd46003b9d3fd4c3c3f47c98b329562a6a1de",
      "function": "removeBreaker(address)",
      "arguments": [
        "0x99C968Bf5972C11442654b989B7eAD0237cA654B"
      ],
      "transaction": {
        "from": "0x2738f38fde510743e0c589415e0598c4cee6eaa7",
        "to": "0x578bd46003b9d3fd4c3c3f47c98b329562a6a1de",
        "gas": "0x47ccd",
        "value": "0x0",
        "input": "0xc4bb759b00000000000000000000000099c968bf5972c11442654b989b7ead0237ca654b",
        "nonce": "0x76",
        "chainId": "0xaa044c"
      },
      "additionalContracts": [],
      "isFixedGasLimit": false
    },
    {
      "hash": "0xa12509c388862003a4ca767f88bfe4932deab0efe5fb843b857c446066af4dfc",
      "transactionType": "CALL",
      "contractName": "BreakerBox",
      "contractAddress": "0x578bd46003b9d3fd4c3c3f47c98b329562a6a1de",
      "function": "addBreaker(address,uint8)",
      "arguments": [
        "0x4c67f682195d1627Ed76eD69311930c7fB069684",
        "3"
      ],
      "transaction": {
        "from": "0x2738f38fde510743e0c589415e0598c4cee6eaa7",
        "to": "0x578bd46003b9d3fd4c3c3f47c98b329562a6a1de",
        "gas": "0x1c82d",
        "value": "0x0",
        "input": "0x2eeae9960000000000000000000000004c67f682195d1627ed76ed69311930c7fb0696840000000000000000000000000000000000000000000000000000000000000003",
        "nonce": "0x77",
        "chainId": "0xaa044c"
      },
      "additionalContracts": [],
      "isFixedGasLimit": false
    },
    {
      "hash": "0x2615bf7e83f122fdb812d075bbcdd51663adf57f9ef088b1d8604e67dd1af585",
      "transactionType": "CALL",
      "contractName": "BreakerBox",
      "contractAddress": "0x578bd46003b9d3fd4c3c3f47c98b329562a6a1de",
      "function": "toggleBreaker(address,address,bool)",
      "arguments": [
        "0x4c67f682195d1627Ed76eD69311930c7fB069684",
        "0x5D5a22116233BDb2a9C2977279cC348B8b8Ce917",
        "true"
      ],
      "transaction": {
        "from": "0x2738f38fde510743e0c589415e0598c4cee6eaa7",
        "to": "0x578bd46003b9d3fd4c3c3f47c98b329562a6a1de",
        "gas": "0x2c732",
        "value": "0x0",
        "input": "0x0c6071460000000000000000000000004c67f682195d1627ed76ed69311930c7fb0696840000000000000000000000005d5a22116233bdb2a9c2977279cc348b8b8ce9170000000000000000000000000000000000000000000000000000000000000001",
        "nonce": "0x78",
        "chainId": "0xaa044c"
      },
      "additionalContracts": [],
      "isFixedGasLimit": false
    },
    {
      "hash": "0xff7b5de911d2b4ab1b412077524578c1b7f583670063911650a9f9d95444671d",
      "transactionType": "CALL",
      "contractName": "BreakerBox",
      "contractAddress": "0x578bd46003b9d3fd4c3c3f47c98b329562a6a1de",
      "function": "toggleBreaker(address,address,bool)",
      "arguments": [
        "0x4c67f682195d1627Ed76eD69311930c7fB069684",
        "0xCE1213507c81576759181A2b795f3c9aE5ede6bd",
        "true"
      ],
      "transaction": {
        "from": "0x2738f38fde510743e0c589415e0598c4cee6eaa7",
        "to": "0x578bd46003b9d3fd4c3c3f47c98b329562a6a1de",
        "gas": "0x2bc50",
        "value": "0x0",
        "input": "0x0c6071460000000000000000000000004c67f682195d1627ed76ed69311930c7fb069684000000000000000000000000ce1213507c81576759181a2b795f3c9ae5ede6bd0000000000000000000000000000000000000000000000000000000000000001",
        "nonce": "0x79",
        "chainId": "0xaa044c"
      },
      "additionalContracts": [],
      "isFixedGasLimit": false
    },
    {
      "hash": "0x270f9e744799576d74ed58b019c25c9ed6e5f9ea0b3f8b92dde1b996ad82e207",
      "transactionType": "CALL",
      "contractName": "BreakerBox",
      "contractAddress": "0x578bd46003b9d3fd4c3c3f47c98b329562a6a1de",
      "function": "toggleBreaker(address,address,bool)",
      "arguments": [
        "0x4c67f682195d1627Ed76eD69311930c7fB069684",
        "0xBBc9c6E41E2A402b12992875eDaa0162Ed990212",
        "true"
      ],
      "transaction": {
        "from": "0x2738f38fde510743e0c589415e0598c4cee6eaa7",
        "to": "0x578bd46003b9d3fd4c3c3f47c98b329562a6a1de",
        "gas": "0x29eab",
        "value": "0x0",
        "input": "0x0c6071460000000000000000000000004c67f682195d1627ed76ed69311930c7fb069684000000000000000000000000bbc9c6e41e2a402b12992875edaa0162ed9902120000000000000000000000000000000000000000000000000000000000000001",
        "nonce": "0x7a",
        "chainId": "0xaa044c"
      },
      "additionalContracts": [],
      "isFixedGasLimit": false
    },
    {
      "hash": "0x527969273a2b90b7dc1d2c9e1e878bfc1f5c4b72c5068955d8de5f7a2e265d51",
      "transactionType": "CALL",
      "contractName": "BreakerBox",
      "contractAddress": "0x578bd46003b9d3fd4c3c3f47c98b329562a6a1de",
      "function": "toggleBreaker(address,address,bool)",
      "arguments": [
        "0x4c67f682195d1627Ed76eD69311930c7fB069684",
        "0xbAcEE37d31b9f022Ef5d232B9fD53F05a531c169",
        "true"
      ],
      "transaction": {
        "from": "0x2738f38fde510743e0c589415e0598c4cee6eaa7",
        "to": "0x578bd46003b9d3fd4c3c3f47c98b329562a6a1de",
        "gas": "0x29eab",
        "value": "0x0",
        "input": "0x0c6071460000000000000000000000004c67f682195d1627ed76ed69311930c7fb069684000000000000000000000000bacee37d31b9f022ef5d232b9fd53f05a531c1690000000000000000000000000000000000000000000000000000000000000001",
        "nonce": "0x7b",
        "chainId": "0xaa044c"
      },
      "additionalContracts": [],
      "isFixedGasLimit": false
    },
    {
      "hash": "0xc9fc51fefe2d274ef1ecd2b79f9f46d6a620e05bfcc4e48103756ab7fd5c83a0",
      "transactionType": "CALL",
      "contractName": "BreakerBox",
      "contractAddress": "0x578bd46003b9d3fd4c3c3f47c98b329562a6a1de",
      "function": "toggleBreaker(address,address,bool)",
      "arguments": [
        "0x4c67f682195d1627Ed76eD69311930c7fB069684",
        "0x341E2A8b5b52B54F1794DDbdD54e433746C65d60",
        "true"
      ],
      "transaction": {
        "from": "0x2738f38fde510743e0c589415e0598c4cee6eaa7",
        "to": "0x578bd46003b9d3fd4c3c3f47c98b329562a6a1de",
        "gas": "0x29eab",
        "value": "0x0",
        "input": "0x0c6071460000000000000000000000004c67f682195d1627ed76ed69311930c7fb069684000000000000000000000000341e2a8b5b52b54f1794ddbdd54e433746c65d600000000000000000000000000000000000000000000000000000000000000001",
        "nonce": "0x7c",
        "chainId": "0xaa044c"
      },
      "additionalContracts": [],
      "isFixedGasLimit": false
    },
    {
      "hash": "0x6e4466721735ad6f040dd341178d86bb70214790144bfb78e5c33843a3dfade7",
      "transactionType": "CALL",
      "contractName": "BreakerBox",
      "contractAddress": "0x578bd46003b9d3fd4c3c3f47c98b329562a6a1de",
      "function": "toggleBreaker(address,address,bool)",
      "arguments": [
        "0x4c67f682195d1627Ed76eD69311930c7fB069684",
        "0x7149632514c5BAA315520Ab9d12556D9C67F15E0",
        "true"
      ],
      "transaction": {
        "from": "0x2738f38fde510743e0c589415e0598c4cee6eaa7",
        "to": "0x578bd46003b9d3fd4c3c3f47c98b329562a6a1de",
        "gas": "0x29eab",
        "value": "0x0",
        "input": "0x0c6071460000000000000000000000004c67f682195d1627ed76ed69311930c7fb0696840000000000000000000000007149632514c5baa315520ab9d12556d9c67f15e00000000000000000000000000000000000000000000000000000000000000001",
        "nonce": "0x7d",
        "chainId": "0xaa044c"
      },
      "additionalContracts": [],
      "isFixedGasLimit": false
    },
    {
      "hash": "0x1f2d3a5edbb65d02ac3ced1af72973bfee85b22ebed8dfc924181825ec044cd1",
      "transactionType": "CALL",
      "contractName": "BreakerBox",
      "contractAddress": "0x578bd46003b9d3fd4c3c3f47c98b329562a6a1de",
      "function": "toggleBreaker(address,address,bool)",
      "arguments": [
        "0x4c67f682195d1627Ed76eD69311930c7fB069684",
        "0xbB776CD80Bab1E658A6a8685580751166145121F",
        "true"
      ],
      "transaction": {
        "from": "0x2738f38fde510743e0c589415e0598c4cee6eaa7",
        "to": "0x578bd46003b9d3fd4c3c3f47c98b329562a6a1de",
        "gas": "0x2bc50",
        "value": "0x0",
        "input": "0x0c6071460000000000000000000000004c67f682195d1627ed76ed69311930c7fb069684000000000000000000000000bb776cd80bab1e658a6a8685580751166145121f0000000000000000000000000000000000000000000000000000000000000001",
        "nonce": "0x7e",
        "chainId": "0xaa044c"
      },
      "additionalContracts": [],
      "isFixedGasLimit": false
    },
    {
      "hash": "0xdde3d80d2383830fb1018c085c3b42a9417e591a05a2e8e2c5122e95c7d70624",
      "transactionType": "CALL",
      "contractName": "BreakerBox",
      "contractAddress": "0x578bd46003b9d3fd4c3c3f47c98b329562a6a1de",
      "function": "toggleBreaker(address,address,bool)",
      "arguments": [
        "0x4c67f682195d1627Ed76eD69311930c7fB069684",
        "0xAe5eEe6815b8529847955d19522858806Bca8217",
        "true"
      ],
      "transaction": {
        "from": "0x2738f38fde510743e0c589415e0598c4cee6eaa7",
        "to": "0x578bd46003b9d3fd4c3c3f47c98b329562a6a1de",
        "gas": "0x2c732",
        "value": "0x0",
        "input": "0x0c6071460000000000000000000000004c67f682195d1627ed76ed69311930c7fb069684000000000000000000000000ae5eee6815b8529847955d19522858806bca82170000000000000000000000000000000000000000000000000000000000000001",
        "nonce": "0x7f",
        "chainId": "0xaa044c"
      },
      "additionalContracts": [],
      "isFixedGasLimit": false
    },
    {
      "hash": "0xde3270b07f38a03363c04a2ef446460c013631af3650234fd193f2cda90c1dec",
      "transactionType": "CALL",
      "contractName": "BreakerBox",
      "contractAddress": "0x578bd46003b9d3fd4c3c3f47c98b329562a6a1de",
      "function": "toggleBreaker(address,address,bool)",
      "arguments": [
        "0x4c67f682195d1627Ed76eD69311930c7fB069684",
        "0x53F7dC47aB9273C2d83c2Df557F3FcF1e6A9Ee10",
        "true"
      ],
      "transaction": {
        "from": "0x2738f38fde510743e0c589415e0598c4cee6eaa7",
        "to": "0x578bd46003b9d3fd4c3c3f47c98b329562a6a1de",
        "gas": "0x2bc50",
        "value": "0x0",
        "input": "0x0c6071460000000000000000000000004c67f682195d1627ed76ed69311930c7fb06968400000000000000000000000053f7dc47ab9273c2d83c2df557f3fcf1e6a9ee100000000000000000000000000000000000000000000000000000000000000001",
        "nonce": "0x80",
        "chainId": "0xaa044c"
      },
      "additionalContracts": [],
      "isFixedGasLimit": false
    },
    {
      "hash": "0xc70bae0268e1a620053d12dc0d6d92fb0c1d5dc35e26bf51ae23fc9ba5f60667",
      "transactionType": "CALL",
      "contractName": "BreakerBox",
      "contractAddress": "0x578bd46003b9d3fd4c3c3f47c98b329562a6a1de",
      "function": "toggleBreaker(address,address,bool)",
      "arguments": [
        "0x4c67f682195d1627Ed76eD69311930c7fB069684",
        "0xc9dbD89FCe5710C91c35Ed9af1dc93fA090A28B0",
        "true"
      ],
      "transaction": {
        "from": "0x2738f38fde510743e0c589415e0598c4cee6eaa7",
        "to": "0x578bd46003b9d3fd4c3c3f47c98b329562a6a1de",
        "gas": "0x29eab",
        "value": "0x0",
        "input": "0x0c6071460000000000000000000000004c67f682195d1627ed76ed69311930c7fb069684000000000000000000000000c9dbd89fce5710c91c35ed9af1dc93fa090a28b00000000000000000000000000000000000000000000000000000000000000001",
        "nonce": "0x81",
        "chainId": "0xaa044c"
      },
      "additionalContracts": [],
      "isFixedGasLimit": false
    },
    {
      "hash": "0xcaa4c91a8004192bd7b48a5036db9eef70871cdf34753d3f9160cfa5b22ea36c",
      "transactionType": "CALL",
      "contractName": "BreakerBox",
      "contractAddress": "0x578bd46003b9d3fd4c3c3f47c98b329562a6a1de",
      "function": "toggleBreaker(address,address,bool)",
      "arguments": [
        "0x4c67f682195d1627Ed76eD69311930c7fB069684",
        "0x864Ea534d6992F3721000cdB6585b11E7046D5ec",
        "true"
      ],
      "transaction": {
        "from": "0x2738f38fde510743e0c589415e0598c4cee6eaa7",
        "to": "0x578bd46003b9d3fd4c3c3f47c98b329562a6a1de",
        "gas": "0x2bc3f",
        "value": "0x0",
        "input": "0x0c6071460000000000000000000000004c67f682195d1627ed76ed69311930c7fb069684000000000000000000000000864ea534d6992f3721000cdb6585b11e7046d5ec0000000000000000000000000000000000000000000000000000000000000001",
        "nonce": "0x82",
        "chainId": "0xaa044c"
      },
      "additionalContracts": [],
      "isFixedGasLimit": false
    },
    {
      "hash": "0x53e79e8772ed7474d197c86dd3261bac7830cb06b17b8b1fc0c73fa732852a47",
      "transactionType": "CALL",
      "contractName": "BreakerBox",
      "contractAddress": "0x578bd46003b9d3fd4c3c3f47c98b329562a6a1de",
      "function": "toggleBreaker(address,address,bool)",
      "arguments": [
        "0x4c67f682195d1627Ed76eD69311930c7fB069684",
        "0x4F2746E21A13Ea9A8A832D929CDBf32ffC113A2C",
        "true"
      ],
      "transaction": {
        "from": "0x2738f38fde510743e0c589415e0598c4cee6eaa7",
        "to": "0x578bd46003b9d3fd4c3c3f47c98b329562a6a1de",
        "gas": "0x2c732",
        "value": "0x0",
        "input": "0x0c6071460000000000000000000000004c67f682195d1627ed76ed69311930c7fb0696840000000000000000000000004f2746e21a13ea9a8a832d929cdbf32ffc113a2c0000000000000000000000000000000000000000000000000000000000000001",
        "nonce": "0x83",
        "chainId": "0xaa044c"
      },
      "additionalContracts": [],
      "isFixedGasLimit": false
    },
    {
      "hash": "0x738cf8a5804b900b4eafe0050624af68c128b40722a3d44f13473c2d23f0a044",
      "transactionType": "CALL",
      "contractName": "BreakerBox",
      "contractAddress": "0x578bd46003b9d3fd4c3c3f47c98b329562a6a1de",
      "function": "toggleBreaker(address,address,bool)",
      "arguments": [
        "0x4c67f682195d1627Ed76eD69311930c7fB069684",
        "0x403EA4186ce479fF162636c37fDf4086bD286F8c",
        "true"
      ],
      "transaction": {
        "from": "0x2738f38fde510743e0c589415e0598c4cee6eaa7",
        "to": "0x578bd46003b9d3fd4c3c3f47c98b329562a6a1de",
        "gas": "0x2e572",
        "value": "0x0",
        "input": "0x0c6071460000000000000000000000004c67f682195d1627ed76ed69311930c7fb069684000000000000000000000000403ea4186ce479ff162636c37fdf4086bd286f8c0000000000000000000000000000000000000000000000000000000000000001",
        "nonce": "0x84",
        "chainId": "0xaa044c"
      },
      "additionalContracts": [],
      "isFixedGasLimit": false
    },
    {
      "hash": "0x0ccde8d4962b50aec3b8201a03cf7f8917a6ec3e5ee06b974e3d0758274b8f70",
      "transactionType": "CALL",
      "contractName": "BreakerBox",
      "contractAddress": "0x578bd46003b9d3fd4c3c3f47c98b329562a6a1de",
      "function": "toggleBreaker(address,address,bool)",
      "arguments": [
        "0x4c67f682195d1627Ed76eD69311930c7fB069684",
        "0xe7cDDEDC3dCA1674b70c347c814c8A9fCf8F68C9",
        "true"
      ],
      "transaction": {
        "from": "0x2738f38fde510743e0c589415e0598c4cee6eaa7",
        "to": "0x578bd46003b9d3fd4c3c3f47c98b329562a6a1de",
        "gas": "0x2bc50",
        "value": "0x0",
        "input": "0x0c6071460000000000000000000000004c67f682195d1627ed76ed69311930c7fb069684000000000000000000000000e7cddedc3dca1674b70c347c814c8a9fcf8f68c90000000000000000000000000000000000000000000000000000000000000001",
        "nonce": "0x85",
        "chainId": "0xaa044c"
      },
      "additionalContracts": [],
      "isFixedGasLimit": false
    },
    {
      "hash": "0x69fb96ecb4e4a2b2ab8eb3cc14baa74a6097c8b610916e681d5cc12a66fb2501",
      "transactionType": "CALL",
      "contractName": null,
      "contractAddress": "0x26eff54e2f0e8825996b83119b7df5ef2c882dd7",
      "function": "setMarketHoursBreaker(address)",
      "arguments": [
        "0x4c67f682195d1627Ed76eD69311930c7fB069684"
      ],
      "transaction": {
        "from": "0x2738f38fde510743e0c589415e0598c4cee6eaa7",
        "to": "0x26eff54e2f0e8825996b83119b7df5ef2c882dd7",
        "gas": "0xbfe1",
        "value": "0x0",
        "input": "0x099b6c390000000000000000000000004c67f682195d1627ed76ed69311930c7fb069684",
        "nonce": "0x86",
        "chainId": "0xaa044c"
      },
      "additionalContracts": [],
      "isFixedGasLimit": false
    }
  ],
  "receipts": [
    {
      "status": "0x1",
      "cumulativeGasUsed": "0x8c737",
      "logs": [
        {
          "address": "0xba5ed099633d3b313e4d5f7bdc1305d3c28ba5ed",
          "topics": [
            "0x2feea65dd4e9f9cbd86b74b7734210c59a1b2981b5b137bd0ee3e208200c9067",
            "0x00000000000000000000000098cdac39812d2e1bf5a287bed35b1fd2387f7e41",
            "0xe2be39b2c28f876fe27ed1c6c785bd2ad3dc3edbcb18e1100a0d80da2eb552c8"
          ],
          "data": "0x",
          "blockHash": "0x9c2993e11088d7d34bd18dae1365e74bae39985254f4499dea9aece868c006aa",
          "blockNumber": "0x1211a0a",
          "transactionHash": "0x2615bf7e83f122fdb812d075bbcdd51663adf57f9ef088b1d8604e67dd1af585",
          "transactionIndex": "0x1",
          "logIndex": "0x0",
          "removed": false
        },
        {
          "address": "0x4c67f682195d1627ed76ed69311930c7fb069684",
          "topics": [
            "0x8be0079c531659141344cd1fd0a4f28419497f9722a3daafe3b4186f6b6457e0",
            "0x0000000000000000000000000000000000000000000000000000000000000000",
            "0x0000000000000000000000002738f38fde510743e0c589415e0598c4cee6eaa7"
          ],
          "data": "0x",
          "blockHash": "0x9c2993e11088d7d34bd18dae1365e74bae39985254f4499dea9aece868c006aa",
          "blockNumber": "0x1211a0a",
          "transactionHash": "0x2615bf7e83f122fdb812d075bbcdd51663adf57f9ef088b1d8604e67dd1af585",
          "transactionIndex": "0x1",
          "logIndex": "0x1",
          "removed": false
        },
        {
          "address": "0xba5ed099633d3b313e4d5f7bdc1305d3c28ba5ed",
          "topics": [
            "0x4db17dd5e4732fb6da34a148104a592783ca119a1e7bb8829eba6cbadef0b511",
            "0x0000000000000000000000004c67f682195d1627ed76ed69311930c7fb069684"
          ],
          "data": "0x",
          "blockHash": "0x9c2993e11088d7d34bd18dae1365e74bae39985254f4499dea9aece868c006aa",
          "blockNumber": "0x1211a0a",
          "transactionHash": "0x2615bf7e83f122fdb812d075bbcdd51663adf57f9ef088b1d8604e67dd1af585",
          "transactionIndex": "0x1",
          "logIndex": "0x2",
          "removed": false
        }
      ],
      "logsBloom": "0x00020000000000000001000000000000000000200000000000800000200000000000000000000000000400000000000000000000000004000000000018000001002000000000000000000000020004000001000000000000040000000000000000000000020000000000000000000800000000000020000000000000000000400000000000000020000000000000000000000000000000000000004000000010000000000000000000000000000000000000000000000000002000010000000002000800000000000200000000000000000000002000000000000000000020000000000000000200000000000000000000000000000000000000000000000000",
      "type": "0x2",
      "transactionHash": "0x2615bf7e83f122fdb812d075bbcdd51663adf57f9ef088b1d8604e67dd1af585",
      "transactionIndex": "0x1",
      "blockHash": "0x9c2993e11088d7d34bd18dae1365e74bae39985254f4499dea9aece868c006aa",
      "blockNumber": "0x1211a0a",
      "gasUsed": "0x8134b",
      "effectiveGasPrice": "0x5d21dba01",
      "from": "0x2738f38fde510743e0c589415e0598c4cee6eaa7",
      "to": "0xba5ed099633d3b313e4d5f7bdc1305d3c28ba5ed",
      "contractAddress": null,
      "l1BaseFeeScalar": "0x0",
      "l1BlobBaseFee": "0x3",
      "l1BlobBaseFeeScalar": "0x0",
      "l1Fee": "0x0",
      "l1GasPrice": "0x1d",
      "l1GasUsed": "0x5b57"
    },
    {
      "status": "0x1",
      "cumulativeGasUsed": "0x98a50",
      "logs": [
        {
          "address": "0x578bd46003b9d3fd4c3c3f47c98b329562a6a1de",
          "topics": [
            "0xb64ea6f0b71eb82019a4e1cb18612c962bf400a2333377020f4a9ab71eeeeb52",
            "0x0000000000000000000000005d5a22116233bdb2a9c2977279cc348b8b8ce917"
          ],
          "data": "0x0000000000000000000000000000000000000000000000000000000000000000",
          "blockHash": "0x9c2993e11088d7d34bd18dae1365e74bae39985254f4499dea9aece868c006aa",
          "blockNumber": "0x1211a0a",
          "transactionHash": "0x1f68828e03bf20bcca3e0b2cae3adf4882697b009b49cc94578bcf6813ab48ad",
          "transactionIndex": "0x2",
          "logIndex": "0x3",
          "removed": false
        },
        {
          "address": "0x578bd46003b9d3fd4c3c3f47c98b329562a6a1de",
          "topics": [
            "0x292d7648986a4abc017bc2a39852a675c1e325e24afd18fad659810792d5e405"
          ],
          "data": "0x00000000000000000000000099c968bf5972c11442654b989b7ead0237ca654b0000000000000000000000005d5a22116233bdb2a9c2977279cc348b8b8ce9170000000000000000000000000000000000000000000000000000000000000000",
          "blockHash": "0x9c2993e11088d7d34bd18dae1365e74bae39985254f4499dea9aece868c006aa",
          "blockNumber": "0x1211a0a",
          "transactionHash": "0x1f68828e03bf20bcca3e0b2cae3adf4882697b009b49cc94578bcf6813ab48ad",
          "transactionIndex": "0x2",
          "logIndex": "0x4",
          "removed": false
        }
      ],
      "logsBloom": "0x00000000000000000000010000000000000000000000000000000000000000000000000000000000000000000000000000000008000000000000000000000000000000000000000001000000000008000000000000000000000000004000000000000000000000000000000000008000000200000000000000000000000000000000000000000000000000000000000000000000000000000000000000000000020000000000000000000000000000000000000000000004000000000000000000000000000000000040000000000000001000000000000000000000000000000000000000000000000000000000000000000000000000000000000010000000",
      "type": "0x2",
      "transactionHash": "0x1f68828e03bf20bcca3e0b2cae3adf4882697b009b49cc94578bcf6813ab48ad",
      "transactionIndex": "0x2",
      "blockHash": "0x9c2993e11088d7d34bd18dae1365e74bae39985254f4499dea9aece868c006aa",
      "blockNumber": "0x1211a0a",
      "gasUsed": "0xc319",
      "effectiveGasPrice": "0x5d21dba01",
      "from": "0x2738f38fde510743e0c589415e0598c4cee6eaa7",
      "to": "0x578bd46003b9d3fd4c3c3f47c98b329562a6a1de",
      "contractAddress": null,
      "l1BaseFeeScalar": "0x0",
      "l1BlobBaseFee": "0x3",
      "l1BlobBaseFeeScalar": "0x0",
      "l1Fee": "0x0",
      "l1GasPrice": "0x1d",
      "l1GasUsed": "0x67c"
    },
    {
      "status": "0x1",
      "cumulativeGasUsed": "0xa4d69",
      "logs": [
        {
          "address": "0x578bd46003b9d3fd4c3c3f47c98b329562a6a1de",
          "topics": [
            "0xb64ea6f0b71eb82019a4e1cb18612c962bf400a2333377020f4a9ab71eeeeb52",
            "0x000000000000000000000000ce1213507c81576759181a2b795f3c9ae5ede6bd"
          ],
          "data": "0x0000000000000000000000000000000000000000000000000000000000000001",
          "blockHash": "0x9c2993e11088d7d34bd18dae1365e74bae39985254f4499dea9aece868c006aa",
          "blockNumber": "0x1211a0a",
          "transactionHash": "0x13cf33bd4be0a4fa696e43bd1be36752b4af00d2b8e833f9e04b5e9d24f3bf97",
          "transactionIndex": "0x3",
          "logIndex": "0x5",
          "removed": false
        },
        {
          "address": "0x578bd46003b9d3fd4c3c3f47c98b329562a6a1de",
          "topics": [
            "0x292d7648986a4abc017bc2a39852a675c1e325e24afd18fad659810792d5e405"
          ],
          "data": "0x00000000000000000000000099c968bf5972c11442654b989b7ead0237ca654b000000000000000000000000ce1213507c81576759181a2b795f3c9ae5ede6bd0000000000000000000000000000000000000000000000000000000000000000",
          "blockHash": "0x9c2993e11088d7d34bd18dae1365e74bae39985254f4499dea9aece868c006aa",
          "blockNumber": "0x1211a0a",
          "transactionHash": "0x13cf33bd4be0a4fa696e43bd1be36752b4af00d2b8e833f9e04b5e9d24f3bf97",
          "transactionIndex": "0x3",
          "logIndex": "0x6",
          "removed": false
        }
      ],
      "logsBloom": "0x00000000000000000000010000000000000000000000000000000000000000000000000000000000000000000000000000000008000000000000000000000000000000000000000000000000000008000000000000000000000000000000000000000000000000000000000000008000000200000000000000000000000000000000000000000000000000000000000000000000000000000000000000000000020000000000000000000000040000000000000000000000000000000000000000000000000010000040000000000000001000000000000000000000008000000000000000000000000000000000000000000000000000000000000010000000",
      "type": "0x2",
      "transactionHash": "0x13cf33bd4be0a4fa696e43bd1be36752b4af00d2b8e833f9e04b5e9d24f3bf97",
      "transactionIndex": "0x3",
      "blockHash": "0x9c2993e11088d7d34bd18dae1365e74bae39985254f4499dea9aece868c006aa",
      "blockNumber": "0x1211a0a",
      "gasUsed": "0xc319",
      "effectiveGasPrice": "0x5d21dba01",
      "from": "0x2738f38fde510743e0c589415e0598c4cee6eaa7",
      "to": "0x578bd46003b9d3fd4c3c3f47c98b329562a6a1de",
      "contractAddress": null,
      "l1BaseFeeScalar": "0x0",
      "l1BlobBaseFee": "0x3",
      "l1BlobBaseFeeScalar": "0x0",
      "l1Fee": "0x0",
      "l1GasPrice": "0x1d",
      "l1GasUsed": "0x67c"
    },
    {
      "status": "0x1",
      "cumulativeGasUsed": "0xb1082",
      "logs": [
        {
          "address": "0x578bd46003b9d3fd4c3c3f47c98b329562a6a1de",
          "topics": [
            "0xb64ea6f0b71eb82019a4e1cb18612c962bf400a2333377020f4a9ab71eeeeb52",
            "0x000000000000000000000000bbc9c6e41e2a402b12992875edaa0162ed990212"
          ],
          "data": "0x0000000000000000000000000000000000000000000000000000000000000000",
          "blockHash": "0x9c2993e11088d7d34bd18dae1365e74bae39985254f4499dea9aece868c006aa",
          "blockNumber": "0x1211a0a",
          "transactionHash": "0xa972992ebc7e9cbf85913501a313113e5384869440784353406973d066770fbe",
          "transactionIndex": "0x4",
          "logIndex": "0x7",
          "removed": false
        },
        {
          "address": "0x578bd46003b9d3fd4c3c3f47c98b329562a6a1de",
          "topics": [
            "0x292d7648986a4abc017bc2a39852a675c1e325e24afd18fad659810792d5e405"
          ],
          "data": "0x00000000000000000000000099c968bf5972c11442654b989b7ead0237ca654b000000000000000000000000bbc9c6e41e2a402b12992875edaa0162ed9902120000000000000000000000000000000000000000000000000000000000000000",
          "blockHash": "0x9c2993e11088d7d34bd18dae1365e74bae39985254f4499dea9aece868c006aa",
          "blockNumber": "0x1211a0a",
          "transactionHash": "0xa972992ebc7e9cbf85913501a313113e5384869440784353406973d066770fbe",
          "transactionIndex": "0x4",
          "logIndex": "0x8",
          "removed": false
        }
      ],
      "logsBloom": "0x00000000000000000000010000000000000000000000000000000000000100000000000000000000000000000000000000000008000000000000000000000000000000000000000000000000000008000000000000000000000000000000000000000000000000000000000000008000000200000000000000000000000000000000000000000000000000000000000000000000200000000000000000000000020000000000000000000000000000000000000000000000000000000000000000000000000000000040000000000000001000000000000000000000000000000000000000000000000000000000000000000000000000000000000010400000",
      "type": "0x2",
      "transactionHash": "0xa972992ebc7e9cbf85913501a313113e5384869440784353406973d066770fbe",
      "transactionIndex": "0x4",
      "blockHash": "0x9c2993e11088d7d34bd18dae1365e74bae39985254f4499dea9aece868c006aa",
      "blockNumber": "0x1211a0a",
      "gasUsed": "0xc319",
      "effectiveGasPrice": "0x5d21dba01",
      "from": "0x2738f38fde510743e0c589415e0598c4cee6eaa7",
      "to": "0x578bd46003b9d3fd4c3c3f47c98b329562a6a1de",
      "contractAddress": null,
      "l1BaseFeeScalar": "0x0",
      "l1BlobBaseFee": "0x3",
      "l1BlobBaseFeeScalar": "0x0",
      "l1Fee": "0x0",
      "l1GasPrice": "0x1d",
      "l1GasUsed": "0x67c"
    },
    {
      "status": "0x1",
      "cumulativeGasUsed": "0xbd39b",
      "logs": [
        {
          "address": "0x578bd46003b9d3fd4c3c3f47c98b329562a6a1de",
          "topics": [
            "0xb64ea6f0b71eb82019a4e1cb18612c962bf400a2333377020f4a9ab71eeeeb52",
            "0x000000000000000000000000bacee37d31b9f022ef5d232b9fd53f05a531c169"
          ],
          "data": "0x0000000000000000000000000000000000000000000000000000000000000000",
          "blockHash": "0x9c2993e11088d7d34bd18dae1365e74bae39985254f4499dea9aece868c006aa",
          "blockNumber": "0x1211a0a",
          "transactionHash": "0xb691ed7c6256820e531dab95370f276ea6f442112e71ff28fb8115bab3d28778",
          "transactionIndex": "0x5",
          "logIndex": "0x9",
          "removed": false
        },
        {
          "address": "0x578bd46003b9d3fd4c3c3f47c98b329562a6a1de",
          "topics": [
            "0x292d7648986a4abc017bc2a39852a675c1e325e24afd18fad659810792d5e405"
          ],
          "data": "0x00000000000000000000000099c968bf5972c11442654b989b7ead0237ca654b000000000000000000000000bacee37d31b9f022ef5d232b9fd53f05a531c1690000000000000000000000000000000000000000000000000000000000000000",
          "blockHash": "0x9c2993e11088d7d34bd18dae1365e74bae39985254f4499dea9aece868c006aa",
          "blockNumber": "0x1211a0a",
          "transactionHash": "0xb691ed7c6256820e531dab95370f276ea6f442112e71ff28fb8115bab3d28778",
          "transactionIndex": "0x5",
          "logIndex": "0xa",
          "removed": false
        }
      ],
      "logsBloom": "0x00000000000000000000010000000000000000000000000000000000000000000000000000000000000000000000000000000008000000000000000000000000000000000000000000000000000008000000000000000000000000000000000000000000000000000000000000008000000200000000000000000000000020000000000000000000000000000000000000000000000000000000000000000000020000000000000000000000000000000000000000000000000000000000000000000000000000000040000000000000001000000000000000000000000000000001000000000000800000000000000000000000000000000000000010000000",
      "type": "0x2",
      "transactionHash": "0xb691ed7c6256820e531dab95370f276ea6f442112e71ff28fb8115bab3d28778",
      "transactionIndex": "0x5",
      "blockHash": "0x9c2993e11088d7d34bd18dae1365e74bae39985254f4499dea9aece868c006aa",
      "blockNumber": "0x1211a0a",
      "gasUsed": "0xc319",
      "effectiveGasPrice": "0x5d21dba01",
      "from": "0x2738f38fde510743e0c589415e0598c4cee6eaa7",
      "to": "0x578bd46003b9d3fd4c3c3f47c98b329562a6a1de",
      "contractAddress": null,
      "l1BaseFeeScalar": "0x0",
      "l1BlobBaseFee": "0x3",
      "l1BlobBaseFeeScalar": "0x0",
      "l1Fee": "0x0",
      "l1GasPrice": "0x1d",
      "l1GasUsed": "0x67c"
    },
    {
      "status": "0x1",
      "cumulativeGasUsed": "0xc96b4",
      "logs": [
        {
          "address": "0x578bd46003b9d3fd4c3c3f47c98b329562a6a1de",
          "topics": [
            "0xb64ea6f0b71eb82019a4e1cb18612c962bf400a2333377020f4a9ab71eeeeb52",
            "0x000000000000000000000000341e2a8b5b52b54f1794ddbdd54e433746c65d60"
          ],
          "data": "0x0000000000000000000000000000000000000000000000000000000000000000",
          "blockHash": "0x9c2993e11088d7d34bd18dae1365e74bae39985254f4499dea9aece868c006aa",
          "blockNumber": "0x1211a0a",
          "transactionHash": "0xdd52a1de97af30e6dc51b8ca4212d2376dd431f33716d24911b43523e1ffb154",
          "transactionIndex": "0x6",
          "logIndex": "0xb",
          "removed": false
        },
        {
          "address": "0x578bd46003b9d3fd4c3c3f47c98b329562a6a1de",
          "topics": [
            "0x292d7648986a4abc017bc2a39852a675c1e325e24afd18fad659810792d5e405"
          ],
          "data": "0x00000000000000000000000099c968bf5972c11442654b989b7ead0237ca654b000000000000000000000000341e2a8b5b52b54f1794ddbdd54e433746c65d600000000000000000000000000000000000000000000000000000000000000000",
          "blockHash": "0x9c2993e11088d7d34bd18dae1365e74bae39985254f4499dea9aece868c006aa",
          "blockNumber": "0x1211a0a",
          "transactionHash": "0xdd52a1de97af30e6dc51b8ca4212d2376dd431f33716d24911b43523e1ffb154",
          "transactionIndex": "0x6",
          "logIndex": "0xc",
          "removed": false
        }
      ],
      "logsBloom": "0x00000000000000000000010000000000000000000000000000000000000000400000000000000000000000000000000000000008000000000000000000000000000000000000000000000000000008000000000000000000000000000000000000000000000000000000000000008000000200000000000001000000000000000000000000000000000000000000000000000000000000000000000000000000020000000000000000000000000000000000000000000000000000000000000000800000000000000040000000000000001000000000000000000000000000000000000000000000000000000000000000000000000000000000000010000000",
      "type": "0x2",
      "transactionHash": "0xdd52a1de97af30e6dc51b8ca4212d2376dd431f33716d24911b43523e1ffb154",
      "transactionIndex": "0x6",
      "blockHash": "0x9c2993e11088d7d34bd18dae1365e74bae39985254f4499dea9aece868c006aa",
      "blockNumber": "0x1211a0a",
      "gasUsed": "0xc319",
      "effectiveGasPrice": "0x5d21dba01",
      "from": "0x2738f38fde510743e0c589415e0598c4cee6eaa7",
      "to": "0x578bd46003b9d3fd4c3c3f47c98b329562a6a1de",
      "contractAddress": null,
      "l1BaseFeeScalar": "0x0",
      "l1BlobBaseFee": "0x3",
      "l1BlobBaseFeeScalar": "0x0",
      "l1Fee": "0x0",
      "l1GasPrice": "0x1d",
      "l1GasUsed": "0x67c"
    },
    {
      "status": "0x1",
      "cumulativeGasUsed": "0xd59cd",
      "logs": [
        {
          "address": "0x578bd46003b9d3fd4c3c3f47c98b329562a6a1de",
          "topics": [
            "0xb64ea6f0b71eb82019a4e1cb18612c962bf400a2333377020f4a9ab71eeeeb52",
            "0x0000000000000000000000007149632514c5baa315520ab9d12556d9c67f15e0"
          ],
          "data": "0x0000000000000000000000000000000000000000000000000000000000000000",
          "blockHash": "0x9c2993e11088d7d34bd18dae1365e74bae39985254f4499dea9aece868c006aa",
          "blockNumber": "0x1211a0a",
          "transactionHash": "0xa12509c388862003a4ca767f88bfe4932deab0efe5fb843b857c446066af4dfc",
          "transactionIndex": "0x7",
          "logIndex": "0xd",
          "removed": false
        },
        {
          "address": "0x578bd46003b9d3fd4c3c3f47c98b329562a6a1de",
          "topics": [
            "0x292d7648986a4abc017bc2a39852a675c1e325e24afd18fad659810792d5e405"
          ],
          "data": "0x00000000000000000000000099c968bf5972c11442654b989b7ead0237ca654b0000000000000000000000007149632514c5baa315520ab9d12556d9c67f15e00000000000000000000000000000000000000000000000000000000000000000",
          "blockHash": "0x9c2993e11088d7d34bd18dae1365e74bae39985254f4499dea9aece868c006aa",
          "blockNumber": "0x1211a0a",
          "transactionHash": "0xa12509c388862003a4ca767f88bfe4932deab0efe5fb843b857c446066af4dfc",
          "transactionIndex": "0x7",
          "logIndex": "0xe",
          "removed": false
        }
      ],
      "logsBloom": "0x00000000000000000000010000000000000000000000000000000020000000000000000000000000000000000000000000000008000000000000000000000000000000000000000000000000000008000000000000000000000000000000000000000000000000000000000000008000000200000000000000000000000000000000000000000000000000000000000000000000000000000000000000000000020000000002000000000000000000000000000000000000000000000000000000000000000000000140000000000000001000000000000000000000000000000000000000000000000000000000000000000000000000000000000010000000",
      "type": "0x2",
      "transactionHash": "0xa12509c388862003a4ca767f88bfe4932deab0efe5fb843b857c446066af4dfc",
      "transactionIndex": "0x7",
      "blockHash": "0x9c2993e11088d7d34bd18dae1365e74bae39985254f4499dea9aece868c006aa",
      "blockNumber": "0x1211a0a",
      "gasUsed": "0xc319",
      "effectiveGasPrice": "0x5d21dba01",
      "from": "0x2738f38fde510743e0c589415e0598c4cee6eaa7",
      "to": "0x578bd46003b9d3fd4c3c3f47c98b329562a6a1de",
      "contractAddress": null,
      "l1BaseFeeScalar": "0x0",
      "l1BlobBaseFee": "0x3",
      "l1BlobBaseFeeScalar": "0x0",
      "l1Fee": "0x0",
      "l1GasPrice": "0x1d",
      "l1GasUsed": "0x67c"
    },
    {
      "status": "0x1",
      "cumulativeGasUsed": "0xe1ce6",
      "logs": [
        {
          "address": "0x578bd46003b9d3fd4c3c3f47c98b329562a6a1de",
          "topics": [
            "0xb64ea6f0b71eb82019a4e1cb18612c962bf400a2333377020f4a9ab71eeeeb52",
            "0x000000000000000000000000bb776cd80bab1e658a6a8685580751166145121f"
          ],
          "data": "0x0000000000000000000000000000000000000000000000000000000000000001",
          "blockHash": "0x9c2993e11088d7d34bd18dae1365e74bae39985254f4499dea9aece868c006aa",
          "blockNumber": "0x1211a0a",
          "transactionHash": "0x7f122b965fae840d62bb3e068f29a6338b3156f0f6a6f93992f2ecde4b7c4aed",
          "transactionIndex": "0x8",
          "logIndex": "0xf",
          "removed": false
        },
        {
          "address": "0x578bd46003b9d3fd4c3c3f47c98b329562a6a1de",
          "topics": [
            "0x292d7648986a4abc017bc2a39852a675c1e325e24afd18fad659810792d5e405"
          ],
          "data": "0x00000000000000000000000099c968bf5972c11442654b989b7ead0237ca654b000000000000000000000000bb776cd80bab1e658a6a8685580751166145121f0000000000000000000000000000000000000000000000000000000000000000",
          "blockHash": "0x9c2993e11088d7d34bd18dae1365e74bae39985254f4499dea9aece868c006aa",
          "blockNumber": "0x1211a0a",
          "transactionHash": "0x7f122b965fae840d62bb3e068f29a6338b3156f0f6a6f93992f2ecde4b7c4aed",
          "transactionIndex": "0x8",
          "logIndex": "0x10",
          "removed": false
        }
      ],
      "logsBloom": "0x00000000000000000000010000000000000000000000000000040000000020000000000000000000000000000000000000000008000000000000000000000000000000000000000000000000000008000000000000000000000000000000000000000000000000000000000000008000000200000000000000000000000000000000000000000000000000000000000000000000000000000000000000000000020800000000000000000000000000000000000000000000000000000000000000000000000000000040000000000000001000000000000000000000000000000000000000000000000000000000000000000000000000000000000010000000",
      "type": "0x2",
      "transactionHash": "0x7f122b965fae840d62bb3e068f29a6338b3156f0f6a6f93992f2ecde4b7c4aed",
      "transactionIndex": "0x8",
      "blockHash": "0x9c2993e11088d7d34bd18dae1365e74bae39985254f4499dea9aece868c006aa",
      "blockNumber": "0x1211a0a",
      "gasUsed": "0xc319",
      "effectiveGasPrice": "0x5d21dba01",
      "from": "0x2738f38fde510743e0c589415e0598c4cee6eaa7",
      "to": "0x578bd46003b9d3fd4c3c3f47c98b329562a6a1de",
      "contractAddress": null,
      "l1BaseFeeScalar": "0x0",
      "l1BlobBaseFee": "0x3",
      "l1BlobBaseFeeScalar": "0x0",
      "l1Fee": "0x0",
      "l1GasPrice": "0x1d",
      "l1GasUsed": "0x67c"
    },
    {
      "status": "0x1",
      "cumulativeGasUsed": "0xedfff",
      "logs": [
        {
          "address": "0x578bd46003b9d3fd4c3c3f47c98b329562a6a1de",
          "topics": [
            "0xb64ea6f0b71eb82019a4e1cb18612c962bf400a2333377020f4a9ab71eeeeb52",
            "0x000000000000000000000000ae5eee6815b8529847955d19522858806bca8217"
          ],
          "data": "0x0000000000000000000000000000000000000000000000000000000000000000",
          "blockHash": "0x9c2993e11088d7d34bd18dae1365e74bae39985254f4499dea9aece868c006aa",
          "blockNumber": "0x1211a0a",
          "transactionHash": "0xff7b5de911d2b4ab1b412077524578c1b7f583670063911650a9f9d95444671d",
          "transactionIndex": "0x9",
          "logIndex": "0x11",
          "removed": false
        },
        {
          "address": "0x578bd46003b9d3fd4c3c3f47c98b329562a6a1de",
          "topics": [
            "0x292d7648986a4abc017bc2a39852a675c1e325e24afd18fad659810792d5e405"
          ],
          "data": "0x00000000000000000000000099c968bf5972c11442654b989b7ead0237ca654b000000000000000000000000ae5eee6815b8529847955d19522858806bca82170000000000000000000000000000000000000000000000000000000000000000",
          "blockHash": "0x9c2993e11088d7d34bd18dae1365e74bae39985254f4499dea9aece868c006aa",
          "blockNumber": "0x1211a0a",
          "transactionHash": "0xff7b5de911d2b4ab1b412077524578c1b7f583670063911650a9f9d95444671d",
          "transactionIndex": "0x9",
          "logIndex": "0x12",
          "removed": false
        }
      ],
      "logsBloom": "0x00000000000000000000010000000000000000000000000000000000000000000000000000000000000000000000000000000008000000000000000000000000000000000000000000000000000008000400000000000000000000000000000000000000000000000000000020008000000200000000000000000000000000000000000000000000000000000000000000000000000000000000000000000000020000000000000000000000000000000000000000000000000000000800000000000000000000000040000000000000001000000000000000000000000000000000000000000000000000000000000000000000000000000000000010000000",
      "type": "0x2",
      "transactionHash": "0xff7b5de911d2b4ab1b412077524578c1b7f583670063911650a9f9d95444671d",
      "transactionIndex": "0x9",
      "blockHash": "0x9c2993e11088d7d34bd18dae1365e74bae39985254f4499dea9aece868c006aa",
      "blockNumber": "0x1211a0a",
      "gasUsed": "0xc319",
      "effectiveGasPrice": "0x5d21dba01",
      "from": "0x2738f38fde510743e0c589415e0598c4cee6eaa7",
      "to": "0x578bd46003b9d3fd4c3c3f47c98b329562a6a1de",
      "contractAddress": null,
      "l1BaseFeeScalar": "0x0",
      "l1BlobBaseFee": "0x3",
      "l1BlobBaseFeeScalar": "0x0",
      "l1Fee": "0x0",
      "l1GasPrice": "0x1d",
      "l1GasUsed": "0x67c"
    },
    {
      "status": "0x1",
      "cumulativeGasUsed": "0xfa318",
      "logs": [
        {
          "address": "0x578bd46003b9d3fd4c3c3f47c98b329562a6a1de",
          "topics": [
            "0xb64ea6f0b71eb82019a4e1cb18612c962bf400a2333377020f4a9ab71eeeeb52",
            "0x00000000000000000000000053f7dc47ab9273c2d83c2df557f3fcf1e6a9ee10"
          ],
          "data": "0x0000000000000000000000000000000000000000000000000000000000000001",
          "blockHash": "0x9c2993e11088d7d34bd18dae1365e74bae39985254f4499dea9aece868c006aa",
          "blockNumber": "0x1211a0a",
          "transactionHash": "0xc60133e7857f1405e872dd5a081987256ad344c0f8897218c8c7d0648a872ab2",
          "transactionIndex": "0xa",
          "logIndex": "0x13",
          "removed": false
        },
        {
          "address": "0x578bd46003b9d3fd4c3c3f47c98b329562a6a1de",
          "topics": [
            "0x292d7648986a4abc017bc2a39852a675c1e325e24afd18fad659810792d5e405"
          ],
          "data": "0x00000000000000000000000099c968bf5972c11442654b989b7ead0237ca654b00000000000000000000000053f7dc47ab9273c2d83c2df557f3fcf1e6a9ee100000000000000000000000000000000000000000000000000000000000000000",
          "blockHash": "0x9c2993e11088d7d34bd18dae1365e74bae39985254f4499dea9aece868c006aa",
          "blockNumber": "0x1211a0a",
          "transactionHash": "0xc60133e7857f1405e872dd5a081987256ad344c0f8897218c8c7d0648a872ab2",
          "transactionIndex": "0xa",
          "logIndex": "0x14",
          "removed": false
        }
      ],
      "logsBloom": "0x00000000000000000000010000000000000000000000000000000000000000000000000000000000000000000000000000000008000000000000000000000000000000000000000000000000000008000000000000000000000000000000000000000000000000000000000000008000000200000000000000002000000000000000000000000000000000000000000000000000000000000000000000000000020000000000000000000000000000000000000000000000000000000000000000000000000008000040000008000000001000000000000000000000000000000000000000000000000000000000000000000000000000000000000010000000",
      "type": "0x2",
      "transactionHash": "0xc60133e7857f1405e872dd5a081987256ad344c0f8897218c8c7d0648a872ab2",
      "transactionIndex": "0xa",
      "blockHash": "0x9c2993e11088d7d34bd18dae1365e74bae39985254f4499dea9aece868c006aa",
      "blockNumber": "0x1211a0a",
      "gasUsed": "0xc319",
      "effectiveGasPrice": "0x5d21dba01",
      "from": "0x2738f38fde510743e0c589415e0598c4cee6eaa7",
      "to": "0x578bd46003b9d3fd4c3c3f47c98b329562a6a1de",
      "contractAddress": null,
      "l1BaseFeeScalar": "0x0",
      "l1BlobBaseFee": "0x3",
      "l1BlobBaseFeeScalar": "0x0",
      "l1Fee": "0x0",
      "l1GasPrice": "0x1d",
      "l1GasUsed": "0x67c"
    },
    {
      "status": "0x1",
      "cumulativeGasUsed": "0x106631",
      "logs": [
        {
          "address": "0x578bd46003b9d3fd4c3c3f47c98b329562a6a1de",
          "topics": [
            "0xb64ea6f0b71eb82019a4e1cb18612c962bf400a2333377020f4a9ab71eeeeb52",
            "0x000000000000000000000000c9dbd89fce5710c91c35ed9af1dc93fa090a28b0"
          ],
          "data": "0x0000000000000000000000000000000000000000000000000000000000000000",
          "blockHash": "0x9c2993e11088d7d34bd18dae1365e74bae39985254f4499dea9aece868c006aa",
          "blockNumber": "0x1211a0a",
          "transactionHash": "0x5c85b14d6f49b750d9c22efe3678b5b80c8c559460455e8d5f5190fd43a1b502",
          "transactionIndex": "0xb",
          "logIndex": "0x15",
          "removed": false
        },
        {
          "address": "0x578bd46003b9d3fd4c3c3f47c98b329562a6a1de",
          "topics": [
            "0x292d7648986a4abc017bc2a39852a675c1e325e24afd18fad659810792d5e405"
          ],
          "data": "0x00000000000000000000000099c968bf5972c11442654b989b7ead0237ca654b000000000000000000000000c9dbd89fce5710c91c35ed9af1dc93fa090a28b00000000000000000000000000000000000000000000000000000000000000000",
          "blockHash": "0x9c2993e11088d7d34bd18dae1365e74bae39985254f4499dea9aece868c006aa",
          "blockNumber": "0x1211a0a",
          "transactionHash": "0x5c85b14d6f49b750d9c22efe3678b5b80c8c559460455e8d5f5190fd43a1b502",
          "transactionIndex": "0xb",
          "logIndex": "0x16",
          "removed": false
        }
      ],
      "logsBloom": "0x00000000000000000000010000000000000000000000000000000000000000000000000000000000000000000000000000000008000000000000000000000000000000000000000000000000000008000000000000000000000000000000000080000000000000000000000000008000000200000000000000000000000000000000000000000000000000000000000000000000000000000000000000000000020000000000000000000000400000000000000000000000000000000000000000000000000000000040000000000000001000000000000000000000000000000000000000000000000000000000000000000000000000400000000010000000",
      "type": "0x2",
      "transactionHash": "0x5c85b14d6f49b750d9c22efe3678b5b80c8c559460455e8d5f5190fd43a1b502",
      "transactionIndex": "0xb",
      "blockHash": "0x9c2993e11088d7d34bd18dae1365e74bae39985254f4499dea9aece868c006aa",
      "blockNumber": "0x1211a0a",
      "gasUsed": "0xc319",
      "effectiveGasPrice": "0x5d21dba01",
      "from": "0x2738f38fde510743e0c589415e0598c4cee6eaa7",
      "to": "0x578bd46003b9d3fd4c3c3f47c98b329562a6a1de",
      "contractAddress": null,
      "l1BaseFeeScalar": "0x0",
      "l1BlobBaseFee": "0x3",
      "l1BlobBaseFeeScalar": "0x0",
      "l1Fee": "0x0",
      "l1GasPrice": "0x1d",
      "l1GasUsed": "0x67c"
    },
    {
      "status": "0x1",
      "cumulativeGasUsed": "0x11293e",
      "logs": [
        {
          "address": "0x578bd46003b9d3fd4c3c3f47c98b329562a6a1de",
          "topics": [
            "0xb64ea6f0b71eb82019a4e1cb18612c962bf400a2333377020f4a9ab71eeeeb52",
            "0x000000000000000000000000864ea534d6992f3721000cdb6585b11e7046d5ec"
          ],
          "data": "0x0000000000000000000000000000000000000000000000000000000000000001",
          "blockHash": "0x9c2993e11088d7d34bd18dae1365e74bae39985254f4499dea9aece868c006aa",
          "blockNumber": "0x1211a0a",
          "transactionHash": "0x18096fb199c2ecf2c07504bdb7263e999f959a40b4f80eb83ff7b41a91dee9f3",
          "transactionIndex": "0xc",
          "logIndex": "0x17",
          "removed": false
        },
        {
          "address": "0x578bd46003b9d3fd4c3c3f47c98b329562a6a1de",
          "topics": [
            "0x292d7648986a4abc017bc2a39852a675c1e325e24afd18fad659810792d5e405"
          ],
          "data": "0x00000000000000000000000099c968bf5972c11442654b989b7ead0237ca654b000000000000000000000000864ea534d6992f3721000cdb6585b11e7046d5ec0000000000000000000000000000000000000000000000000000000000000000",
          "blockHash": "0x9c2993e11088d7d34bd18dae1365e74bae39985254f4499dea9aece868c006aa",
          "blockNumber": "0x1211a0a",
          "transactionHash": "0x18096fb199c2ecf2c07504bdb7263e999f959a40b4f80eb83ff7b41a91dee9f3",
          "transactionIndex": "0xc",
          "logIndex": "0x18",
          "removed": false
        }
      ],
      "logsBloom": "0x00000000000000000000010000000000000000000000000000000000000000000000000000000000000000000000000000000008000000000000000000000000000000000100000000000000000008000000000000000000004000000000000000000000000000000000000000008000000200000000000000000000000000000000000000000000000000000000000000000000000000000000000000000000020000001000000000000000000000000000000000000000000000000000000000000000000000000040000000000000001000000000000000000000000000000000000000000000000000000000000000000000000000000000000010000000",
      "type": "0x2",
      "transactionHash": "0x18096fb199c2ecf2c07504bdb7263e999f959a40b4f80eb83ff7b41a91dee9f3",
      "transactionIndex": "0xc",
      "blockHash": "0x9c2993e11088d7d34bd18dae1365e74bae39985254f4499dea9aece868c006aa",
      "blockNumber": "0x1211a0a",
      "gasUsed": "0xc30d",
      "effectiveGasPrice": "0x5d21dba01",
      "from": "0x2738f38fde510743e0c589415e0598c4cee6eaa7",
      "to": "0x578bd46003b9d3fd4c3c3f47c98b329562a6a1de",
      "contractAddress": null,
      "l1BaseFeeScalar": "0x0",
      "l1BlobBaseFee": "0x3",
      "l1BlobBaseFeeScalar": "0x0",
      "l1Fee": "0x0",
      "l1GasPrice": "0x1d",
      "l1GasUsed": "0x67c"
    },
    {
      "status": "0x1",
      "cumulativeGasUsed": "0x11ec57",
      "logs": [
        {
          "address": "0x578bd46003b9d3fd4c3c3f47c98b329562a6a1de",
          "topics": [
            "0xb64ea6f0b71eb82019a4e1cb18612c962bf400a2333377020f4a9ab71eeeeb52",
            "0x0000000000000000000000004f2746e21a13ea9a8a832d929cdbf32ffc113a2c"
          ],
          "data": "0x0000000000000000000000000000000000000000000000000000000000000000",
          "blockHash": "0x9c2993e11088d7d34bd18dae1365e74bae39985254f4499dea9aece868c006aa",
          "blockNumber": "0x1211a0a",
          "transactionHash": "0x378c649b81b62939320150b3126907347ca96185f03e43a1df89f97da67b5c48",
          "transactionIndex": "0xd",
          "logIndex": "0x19",
          "removed": false
        },
        {
          "address": "0x578bd46003b9d3fd4c3c3f47c98b329562a6a1de",
          "topics": [
            "0x292d7648986a4abc017bc2a39852a675c1e325e24afd18fad659810792d5e405"
          ],
          "data": "0x00000000000000000000000099c968bf5972c11442654b989b7ead0237ca654b0000000000000000000000004f2746e21a13ea9a8a832d929cdbf32ffc113a2c0000000000000000000000000000000000000000000000000000000000000000",
          "blockHash": "0x9c2993e11088d7d34bd18dae1365e74bae39985254f4499dea9aece868c006aa",
          "blockNumber": "0x1211a0a",
          "transactionHash": "0x378c649b81b62939320150b3126907347ca96185f03e43a1df89f97da67b5c48",
          "transactionIndex": "0xd",
          "logIndex": "0x1a",
          "removed": false
        }
      ],
      "logsBloom": "0x00000000000000000000010000000000000000000000000000000000000000000000000000000000000000000000000000000008000000000000000000000000000000000000000000000000000008000000000000000000000000000400000000000000000000000000000000008000000200000000000000000000000000000000000000000000000000000000000000000000000000000000000000000000020000000000000000000000000000000000000000000000000000000000000000000000000000000040000000000000001000000000100000000000000000000000000000000000000000000000000000000000000000080000000010000000",
      "type": "0x2",
      "transactionHash": "0x378c649b81b62939320150b3126907347ca96185f03e43a1df89f97da67b5c48",
      "transactionIndex": "0xd",
      "blockHash": "0x9c2993e11088d7d34bd18dae1365e74bae39985254f4499dea9aece868c006aa",
      "blockNumber": "0x1211a0a",
      "gasUsed": "0xc319",
      "effectiveGasPrice": "0x5d21dba01",
      "from": "0x2738f38fde510743e0c589415e0598c4cee6eaa7",
      "to": "0x578bd46003b9d3fd4c3c3f47c98b329562a6a1de",
      "contractAddress": null,
      "l1BaseFeeScalar": "0x0",
      "l1BlobBaseFee": "0x3",
      "l1BlobBaseFeeScalar": "0x0",
      "l1Fee": "0x0",
      "l1GasPrice": "0x1d",
      "l1GasUsed": "0x67c"
    },
    {
      "status": "0x1",
      "cumulativeGasUsed": "0x12af70",
      "logs": [
        {
          "address": "0x578bd46003b9d3fd4c3c3f47c98b329562a6a1de",
          "topics": [
            "0xb64ea6f0b71eb82019a4e1cb18612c962bf400a2333377020f4a9ab71eeeeb52",
            "0x000000000000000000000000403ea4186ce479ff162636c37fdf4086bd286f8c"
          ],
          "data": "0x0000000000000000000000000000000000000000000000000000000000000001",
          "blockHash": "0x9c2993e11088d7d34bd18dae1365e74bae39985254f4499dea9aece868c006aa",
          "blockNumber": "0x1211a0a",
          "transactionHash": "0xcd217f1c4f9b2ac3129b4b0340077d20c6b5f4fe2bfb32e9af4a25ccedf1ceb0",
          "transactionIndex": "0xe",
          "logIndex": "0x1b",
          "removed": false
        },
        {
          "address": "0x578bd46003b9d3fd4c3c3f47c98b329562a6a1de",
          "topics": [
            "0x292d7648986a4abc017bc2a39852a675c1e325e24afd18fad659810792d5e405"
          ],
          "data": "0x00000000000000000000000099c968bf5972c11442654b989b7ead0237ca654b000000000000000000000000403ea4186ce479ff162636c37fdf4086bd286f8c0000000000000000000000000000000000000000000000000000000000000000",
          "blockHash": "0x9c2993e11088d7d34bd18dae1365e74bae39985254f4499dea9aece868c006aa",
          "blockNumber": "0x1211a0a",
          "transactionHash": "0xcd217f1c4f9b2ac3129b4b0340077d20c6b5f4fe2bfb32e9af4a25ccedf1ceb0",
          "transactionIndex": "0xe",
          "logIndex": "0x1c",
          "removed": false
        }
      ],
      "logsBloom": "0x00000000000000000000010000000000000000000000000000000000000000000000000000000000000000000000000000000008000000000000000000000000000000000000000000000000000008000000000000000000000000000000000000000000000000000000000000008000000200000000000000000000000000000000000000000000000000000000000000000000000000000000000000000000020000000000000000000000000000000080000000000200000000000000000000000000000000000040000000000000001000000000000000000000000000000000002000000000000000000000000000000000000000000000000010000000",
      "type": "0x2",
      "transactionHash": "0xcd217f1c4f9b2ac3129b4b0340077d20c6b5f4fe2bfb32e9af4a25ccedf1ceb0",
      "transactionIndex": "0xe",
      "blockHash": "0x9c2993e11088d7d34bd18dae1365e74bae39985254f4499dea9aece868c006aa",
      "blockNumber": "0x1211a0a",
      "gasUsed": "0xc319",
      "effectiveGasPrice": "0x5d21dba01",
      "from": "0x2738f38fde510743e0c589415e0598c4cee6eaa7",
      "to": "0x578bd46003b9d3fd4c3c3f47c98b329562a6a1de",
      "contractAddress": null,
      "l1BaseFeeScalar": "0x0",
      "l1BlobBaseFee": "0x3",
      "l1BlobBaseFeeScalar": "0x0",
      "l1Fee": "0x0",
      "l1GasPrice": "0x1d",
      "l1GasUsed": "0x67c"
    },
    {
      "status": "0x1",
      "cumulativeGasUsed": "0x137289",
      "logs": [
        {
          "address": "0x578bd46003b9d3fd4c3c3f47c98b329562a6a1de",
          "topics": [
            "0xb64ea6f0b71eb82019a4e1cb18612c962bf400a2333377020f4a9ab71eeeeb52",
            "0x000000000000000000000000e7cddedc3dca1674b70c347c814c8a9fcf8f68c9"
          ],
          "data": "0x0000000000000000000000000000000000000000000000000000000000000001",
          "blockHash": "0x9c2993e11088d7d34bd18dae1365e74bae39985254f4499dea9aece868c006aa",
          "blockNumber": "0x1211a0a",
          "transactionHash": "0x76405501d3ab60667ead56e4511464059ff05bda78b29e15c850b670f8f925a9",
          "transactionIndex": "0xf",
          "logIndex": "0x1d",
          "removed": false
        },
        {
          "address": "0x578bd46003b9d3fd4c3c3f47c98b329562a6a1de",
          "topics": [
            "0x292d7648986a4abc017bc2a39852a675c1e325e24afd18fad659810792d5e405"
          ],
          "data": "0x00000000000000000000000099c968bf5972c11442654b989b7ead0237ca654b000000000000000000000000e7cddedc3dca1674b70c347c814c8a9fcf8f68c90000000000000000000000000000000000000000000000000000000000000000",
          "blockHash": "0x9c2993e11088d7d34bd18dae1365e74bae39985254f4499dea9aece868c006aa",
          "blockNumber": "0x1211a0a",
          "transactionHash": "0x76405501d3ab60667ead56e4511464059ff05bda78b29e15c850b670f8f925a9",
          "transactionIndex": "0xf",
          "logIndex": "0x1e",
          "removed": false
        }
      ],
      "logsBloom": "0x00000000000000000000010002000000000000000000000000000000000000000000000000000000000000000000000000000008000000000000000000000000000000000000000000000000000008000000000000000000000000000000000000000000000000000000000000008000000200000000000000000000000000000000000000000000000000000000000000000000000000001000000000000000020000000000000000000000000000000000000000000000000000000000000000000000000000000040000000000000001000000000000000000000000000004000000000000000000000000000000000000000000000000000000010000000",
      "type": "0x2",
      "transactionHash": "0x76405501d3ab60667ead56e4511464059ff05bda78b29e15c850b670f8f925a9",
      "transactionIndex": "0xf",
      "blockHash": "0x9c2993e11088d7d34bd18dae1365e74bae39985254f4499dea9aece868c006aa",
      "blockNumber": "0x1211a0a",
      "gasUsed": "0xc319",
      "effectiveGasPrice": "0x5d21dba01",
      "from": "0x2738f38fde510743e0c589415e0598c4cee6eaa7",
      "to": "0x578bd46003b9d3fd4c3c3f47c98b329562a6a1de",
      "contractAddress": null,
      "l1BaseFeeScalar": "0x0",
      "l1BlobBaseFee": "0x3",
      "l1BlobBaseFeeScalar": "0x0",
      "l1Fee": "0x0",
      "l1GasPrice": "0x1d",
      "l1GasUsed": "0x67c"
    },
    {
      "status": "0x1",
      "cumulativeGasUsed": "0x16840b",
      "logs": [
        {
          "address": "0x578bd46003b9d3fd4c3c3f47c98b329562a6a1de",
          "topics": [
            "0x25d0fcab10ffc3ea7a197ec99e51df0362a1485e3a020caa618dbf72f92bb9f3",
            "0x00000000000000000000000099c968bf5972c11442654b989b7ead0237ca654b"
          ],
          "data": "0x",
          "blockHash": "0x9c2993e11088d7d34bd18dae1365e74bae39985254f4499dea9aece868c006aa",
          "blockNumber": "0x1211a0a",
          "transactionHash": "0xecdf4681fadbc89a7fd4324737eca1a2cc8992f87bafa2bb8b8fac271ef60509",
          "transactionIndex": "0x10",
          "logIndex": "0x1f",
          "removed": false
        }
      ],
      "logsBloom": "0x00000000000000000000010000004000000000000000000000000000000000000000000000000000000000000000000000000000000008000000000000000000000000000000000000000000000000000000000000000000000000080000000000000000000000000000000000000000000600000000000000000000000000000000000000000000000000000000000000000000000000000000000000000000002000000000000000000000000000000000000000000000000100000000000000000000000000000000000000000000000000000000000000000000000000000000000000000000000000000000000000000000000000000000000010000000",
      "type": "0x2",
      "transactionHash": "0xecdf4681fadbc89a7fd4324737eca1a2cc8992f87bafa2bb8b8fac271ef60509",
      "transactionIndex": "0x10",
      "blockHash": "0x9c2993e11088d7d34bd18dae1365e74bae39985254f4499dea9aece868c006aa",
      "blockNumber": "0x1211a0a",
      "gasUsed": "0x31182",
      "effectiveGasPrice": "0x5d21dba01",
      "from": "0x2738f38fde510743e0c589415e0598c4cee6eaa7",
      "to": "0x578bd46003b9d3fd4c3c3f47c98b329562a6a1de",
      "contractAddress": null,
      "l1BaseFeeScalar": "0x0",
      "l1BlobBaseFee": "0x3",
      "l1BlobBaseFeeScalar": "0x0",
      "l1Fee": "0x0",
      "l1GasPrice": "0x1d",
      "l1GasUsed": "0x640"
    },
    {
      "status": "0x1",
      "cumulativeGasUsed": "0x17bbf6",
      "logs": [
        {
          "address": "0x578bd46003b9d3fd4c3c3f47c98b329562a6a1de",
          "topics": [
            "0xb41d9a8e03d4798a0a905017e377ecae53ebc5ca694c8fccaeabb5a08c0d333f",
            "0x0000000000000000000000004c67f682195d1627ed76ed69311930c7fb069684"
          ],
          "data": "0x",
          "blockHash": "0x9c2993e11088d7d34bd18dae1365e74bae39985254f4499dea9aece868c006aa",
          "blockNumber": "0x1211a0a",
          "transactionHash": "0xa9f34e42aaa3d4cf4797246b0355cc398e408fafa783e02a509d9b65213a7d98",
          "transactionIndex": "0x11",
          "logIndex": "0x20",
          "removed": false
        }
      ],
      "logsBloom": "0x00000000000000000000010000000000000000000000000000000000000000000000000000000000000400000000000000000000000000000000000008000000000000000000000000000000000000000000000000000000000000000000000000000000000000000000000000000000000200000000000000000080000000000000000000000000000000000000000000000000000100000000000000000000000000000000000000000000000000000000000000000000000000010000000000000000000080000000000000000000000000000000000000000000000000000000000000000000000000000000000000000000000000000000000010000000",
      "type": "0x2",
      "transactionHash": "0xa9f34e42aaa3d4cf4797246b0355cc398e408fafa783e02a509d9b65213a7d98",
      "transactionIndex": "0x11",
      "blockHash": "0x9c2993e11088d7d34bd18dae1365e74bae39985254f4499dea9aece868c006aa",
      "blockNumber": "0x1211a0a",
      "gasUsed": "0x137eb",
      "effectiveGasPrice": "0x5d21dba01",
      "from": "0x2738f38fde510743e0c589415e0598c4cee6eaa7",
      "to": "0x578bd46003b9d3fd4c3c3f47c98b329562a6a1de",
      "contractAddress": null,
      "l1BaseFeeScalar": "0x0",
      "l1BlobBaseFee": "0x3",
      "l1BlobBaseFeeScalar": "0x0",
      "l1Fee": "0x0",
      "l1GasPrice": "0x1d",
      "l1GasUsed": "0x640"
    },
    {
      "status": "0x1",
      "cumulativeGasUsed": "0x19a240",
      "logs": [
        {
          "address": "0x578bd46003b9d3fd4c3c3f47c98b329562a6a1de",
          "topics": [
            "0x292d7648986a4abc017bc2a39852a675c1e325e24afd18fad659810792d5e405"
          ],
          "data": "0x0000000000000000000000004c67f682195d1627ed76ed69311930c7fb0696840000000000000000000000005d5a22116233bdb2a9c2977279cc348b8b8ce9170000000000000000000000000000000000000000000000000000000000000001",
          "blockHash": "0x9c2993e11088d7d34bd18dae1365e74bae39985254f4499dea9aece868c006aa",
          "blockNumber": "0x1211a0a",
          "transactionHash": "0xa11fc54ba5c377c389a70e79e7823d334ea9ed3e1fe44d0bad0d2dcf81d1dd89",
          "transactionIndex": "0x12",
          "logIndex": "0x21",
          "removed": false
        }
      ],
      "logsBloom": "0x00000000000000000000010000000000000000000000000000000000000000000000000000000000000000000000000000000008000000000000000000000000000000000000000000000000000000000000000000000000000000000000000000000000000000000000000000008000000200000000000000000000000000000000000000000000000000000000000000000000000000000000000000000000000000000000000000000000000000000000000000000000000000000000000000000000000000000000000000000000001000000000000000000000000000000000000000000000000000000000000000000000000000000000000010000000",
      "type": "0x2",
      "transactionHash": "0xa11fc54ba5c377c389a70e79e7823d334ea9ed3e1fe44d0bad0d2dcf81d1dd89",
      "transactionIndex": "0x12",
      "blockHash": "0x9c2993e11088d7d34bd18dae1365e74bae39985254f4499dea9aece868c006aa",
      "blockNumber": "0x1211a0a",
      "gasUsed": "0x1e64a",
      "effectiveGasPrice": "0x5d21dba01",
      "from": "0x2738f38fde510743e0c589415e0598c4cee6eaa7",
      "to": "0x578bd46003b9d3fd4c3c3f47c98b329562a6a1de",
      "contractAddress": null,
      "l1BaseFeeScalar": "0x0",
      "l1BlobBaseFee": "0x3",
      "l1BlobBaseFeeScalar": "0x0",
      "l1Fee": "0x0",
      "l1GasPrice": "0x1d",
      "l1GasUsed": "0x68a"
    },
    {
      "status": "0x1",
      "cumulativeGasUsed": "0x1b9d44",
      "logs": [
        {
          "address": "0x578bd46003b9d3fd4c3c3f47c98b329562a6a1de",
          "topics": [
            "0x90ca142474a3987fe4ec5cb24a254e13086fb998251070b5c9fc8ab70d78b8af",
            "0x000000000000000000000000ce1213507c81576759181a2b795f3c9ae5ede6bd",
            "0x000000000000000000000000d29b4e743f7b84d63fbf9149b6d983df2ef5c952"
          ],
          "data": "0x",
          "blockHash": "0x9c2993e11088d7d34bd18dae1365e74bae39985254f4499dea9aece868c006aa",
          "blockNumber": "0x1211a0a",
          "transactionHash": "0x527969273a2b90b7dc1d2c9e1e878bfc1f5c4b72c5068955d8de5f7a2e265d51",
          "transactionIndex": "0x13",
          "logIndex": "0x22",
          "removed": false
        },
        {
          "address": "0x578bd46003b9d3fd4c3c3f47c98b329562a6a1de",
          "topics": [
            "0x292d7648986a4abc017bc2a39852a675c1e325e24afd18fad659810792d5e405"
          ],
          "data": "0x0000000000000000000000004c67f682195d1627ed76ed69311930c7fb069684000000000000000000000000ce1213507c81576759181a2b795f3c9ae5ede6bd0000000000000000000000000000000000000000000000000000000000000001",
          "blockHash": "0x9c2993e11088d7d34bd18dae1365e74bae39985254f4499dea9aece868c006aa",
          "blockNumber": "0x1211a0a",
          "transactionHash": "0x527969273a2b90b7dc1d2c9e1e878bfc1f5c4b72c5068955d8de5f7a2e265d51",
          "transactionIndex": "0x13",
          "logIndex": "0x23",
          "removed": false
        }
      ],
      "logsBloom": "0x00000000000000000000010000000000000000000010000000000000000000000000000000000000000000000000000000000008000000000000100000000000000000000000000000000000000000000000000000000000000000004000000000000000000000000000000000008000000200000000000000000000400000000000000000000000000000000000000000000000000000000000000000000000000000000000000000000000040000000080000000000000000000000000000000000000000010000000000000000010001000000000000000000000008000000000000000000000000000000000000000000000000000000000000010000000",
      "type": "0x2",
      "transactionHash": "0x527969273a2b90b7dc1d2c9e1e878bfc1f5c4b72c5068955d8de5f7a2e265d51",
      "transactionIndex": "0x13",
      "blockHash": "0x9c2993e11088d7d34bd18dae1365e74bae39985254f4499dea9aece868c006aa",
      "blockNumber": "0x1211a0a",
      "gasUsed": "0x1fb04",
      "effectiveGasPrice": "0x5d21dba01",
      "from": "0x2738f38fde510743e0c589415e0598c4cee6eaa7",
      "to": "0x578bd46003b9d3fd4c3c3f47c98b329562a6a1de",
      "contractAddress": null,
      "l1BaseFeeScalar": "0x0",
      "l1BlobBaseFee": "0x3",
      "l1BlobBaseFeeScalar": "0x0",
      "l1Fee": "0x0",
      "l1GasPrice": "0x1d",
      "l1GasUsed": "0x68a"
    },
    {
      "status": "0x1",
      "cumulativeGasUsed": "0x1d82d2",
      "logs": [
        {
          "address": "0x578bd46003b9d3fd4c3c3f47c98b329562a6a1de",
          "topics": [
            "0x292d7648986a4abc017bc2a39852a675c1e325e24afd18fad659810792d5e405"
          ],
          "data": "0x0000000000000000000000004c67f682195d1627ed76ed69311930c7fb069684000000000000000000000000bbc9c6e41e2a402b12992875edaa0162ed9902120000000000000000000000000000000000000000000000000000000000000001",
          "blockHash": "0x9c2993e11088d7d34bd18dae1365e74bae39985254f4499dea9aece868c006aa",
          "blockNumber": "0x1211a0a",
          "transactionHash": "0xde3270b07f38a03363c04a2ef446460c013631af3650234fd193f2cda90c1dec",
          "transactionIndex": "0x14",
          "logIndex": "0x24",
          "removed": false
        }
      ],
      "logsBloom": "0x00000000000000000000010000000000000000000000000000000000000000000000000000000000000000000000000000000008000000000000000000000000000000000000000000000000000000000000000000000000000000000000000000000000000000000000000000008000000200000000000000000000000000000000000000000000000000000000000000000000000000000000000000000000000000000000000000000000000000000000000000000000000000000000000000000000000000000000000000000000001000000000000000000000000000000000000000000000000000000000000000000000000000000000000010000000",
      "type": "0x2",
      "transactionHash": "0xde3270b07f38a03363c04a2ef446460c013631af3650234fd193f2cda90c1dec",
      "transactionIndex": "0x14",
      "blockHash": "0x9c2993e11088d7d34bd18dae1365e74bae39985254f4499dea9aece868c006aa",
      "blockNumber": "0x1211a0a",
      "gasUsed": "0x1e58e",
      "effectiveGasPrice": "0x5d21dba01",
      "from": "0x2738f38fde510743e0c589415e0598c4cee6eaa7",
      "to": "0x578bd46003b9d3fd4c3c3f47c98b329562a6a1de",
      "contractAddress": null,
      "l1BaseFeeScalar": "0x0",
      "l1BlobBaseFee": "0x3",
      "l1BlobBaseFeeScalar": "0x0",
      "l1Fee": "0x0",
      "l1GasPrice": "0x1d",
      "l1GasUsed": "0x68a"
    },
    {
      "status": "0x1",
      "cumulativeGasUsed": "0x1f6860",
      "logs": [
        {
          "address": "0x578bd46003b9d3fd4c3c3f47c98b329562a6a1de",
          "topics": [
            "0x292d7648986a4abc017bc2a39852a675c1e325e24afd18fad659810792d5e405"
          ],
          "data": "0x0000000000000000000000004c67f682195d1627ed76ed69311930c7fb069684000000000000000000000000bacee37d31b9f022ef5d232b9fd53f05a531c1690000000000000000000000000000000000000000000000000000000000000001",
          "blockHash": "0x9c2993e11088d7d34bd18dae1365e74bae39985254f4499dea9aece868c006aa",
          "blockNumber": "0x1211a0a",
          "transactionHash": "0xdde3d80d2383830fb1018c085c3b42a9417e591a05a2e8e2c5122e95c7d70624",
          "transactionIndex": "0x15",
          "logIndex": "0x25",
          "removed": false
        }
      ],
      "logsBloom": "0x00000000000000000000010000000000000000000000000000000000000000000000000000000000000000000000000000000008000000000000000000000000000000000000000000000000000000000000000000000000000000000000000000000000000000000000000000008000000200000000000000000000000000000000000000000000000000000000000000000000000000000000000000000000000000000000000000000000000000000000000000000000000000000000000000000000000000000000000000000000001000000000000000000000000000000000000000000000000000000000000000000000000000000000000010000000",
      "type": "0x2",
      "transactionHash": "0xdde3d80d2383830fb1018c085c3b42a9417e591a05a2e8e2c5122e95c7d70624",
      "transactionIndex": "0x15",
      "blockHash": "0x9c2993e11088d7d34bd18dae1365e74bae39985254f4499dea9aece868c006aa",
      "blockNumber": "0x1211a0a",
      "gasUsed": "0x1e58e",
      "effectiveGasPrice": "0x5d21dba01",
      "from": "0x2738f38fde510743e0c589415e0598c4cee6eaa7",
      "to": "0x578bd46003b9d3fd4c3c3f47c98b329562a6a1de",
      "contractAddress": null,
      "l1BaseFeeScalar": "0x0",
      "l1BlobBaseFee": "0x3",
      "l1BlobBaseFeeScalar": "0x0",
      "l1Fee": "0x0",
      "l1GasPrice": "0x1d",
      "l1GasUsed": "0x68a"
    },
    {
      "status": "0x1",
      "cumulativeGasUsed": "0x214dee",
      "logs": [
        {
          "address": "0x578bd46003b9d3fd4c3c3f47c98b329562a6a1de",
          "topics": [
            "0x292d7648986a4abc017bc2a39852a675c1e325e24afd18fad659810792d5e405"
          ],
          "data": "0x0000000000000000000000004c67f682195d1627ed76ed69311930c7fb069684000000000000000000000000341e2a8b5b52b54f1794ddbdd54e433746c65d600000000000000000000000000000000000000000000000000000000000000001",
          "blockHash": "0x9c2993e11088d7d34bd18dae1365e74bae39985254f4499dea9aece868c006aa",
          "blockNumber": "0x1211a0a",
          "transactionHash": "0xc70bae0268e1a620053d12dc0d6d92fb0c1d5dc35e26bf51ae23fc9ba5f60667",
          "transactionIndex": "0x16",
          "logIndex": "0x26",
          "removed": false
        }
      ],
      "logsBloom": "0x00000000000000000000010000000000000000000000000000000000000000000000000000000000000000000000000000000008000000000000000000000000000000000000000000000000000000000000000000000000000000000000000000000000000000000000000000008000000200000000000000000000000000000000000000000000000000000000000000000000000000000000000000000000000000000000000000000000000000000000000000000000000000000000000000000000000000000000000000000000001000000000000000000000000000000000000000000000000000000000000000000000000000000000000010000000",
      "type": "0x2",
      "transactionHash": "0xc70bae0268e1a620053d12dc0d6d92fb0c1d5dc35e26bf51ae23fc9ba5f60667",
      "transactionIndex": "0x16",
      "blockHash": "0x9c2993e11088d7d34bd18dae1365e74bae39985254f4499dea9aece868c006aa",
      "blockNumber": "0x1211a0a",
      "gasUsed": "0x1e58e",
      "effectiveGasPrice": "0x5d21dba01",
      "from": "0x2738f38fde510743e0c589415e0598c4cee6eaa7",
      "to": "0x578bd46003b9d3fd4c3c3f47c98b329562a6a1de",
      "contractAddress": null,
      "l1BaseFeeScalar": "0x0",
      "l1BlobBaseFee": "0x3",
      "l1BlobBaseFeeScalar": "0x0",
      "l1Fee": "0x0",
      "l1GasPrice": "0x1d",
      "l1GasUsed": "0x68a"
    },
    {
      "status": "0x1",
      "cumulativeGasUsed": "0x23337c",
      "logs": [
        {
          "address": "0x578bd46003b9d3fd4c3c3f47c98b329562a6a1de",
          "topics": [
            "0x292d7648986a4abc017bc2a39852a675c1e325e24afd18fad659810792d5e405"
          ],
          "data": "0x0000000000000000000000004c67f682195d1627ed76ed69311930c7fb0696840000000000000000000000007149632514c5baa315520ab9d12556d9c67f15e00000000000000000000000000000000000000000000000000000000000000001",
          "blockHash": "0x9c2993e11088d7d34bd18dae1365e74bae39985254f4499dea9aece868c006aa",
          "blockNumber": "0x1211a0a",
          "transactionHash": "0xc9fc51fefe2d274ef1ecd2b79f9f46d6a620e05bfcc4e48103756ab7fd5c83a0",
          "transactionIndex": "0x17",
          "logIndex": "0x27",
          "removed": false
        }
      ],
      "logsBloom": "0x00000000000000000000010000000000000000000000000000000000000000000000000000000000000000000000000000000008000000000000000000000000000000000000000000000000000000000000000000000000000000000000000000000000000000000000000000008000000200000000000000000000000000000000000000000000000000000000000000000000000000000000000000000000000000000000000000000000000000000000000000000000000000000000000000000000000000000000000000000000001000000000000000000000000000000000000000000000000000000000000000000000000000000000000010000000",
      "type": "0x2",
      "transactionHash": "0xc9fc51fefe2d274ef1ecd2b79f9f46d6a620e05bfcc4e48103756ab7fd5c83a0",
      "transactionIndex": "0x17",
      "blockHash": "0x9c2993e11088d7d34bd18dae1365e74bae39985254f4499dea9aece868c006aa",
      "blockNumber": "0x1211a0a",
      "gasUsed": "0x1e58e",
      "effectiveGasPrice": "0x5d21dba01",
      "from": "0x2738f38fde510743e0c589415e0598c4cee6eaa7",
      "to": "0x578bd46003b9d3fd4c3c3f47c98b329562a6a1de",
      "contractAddress": null,
      "l1BaseFeeScalar": "0x0",
      "l1BlobBaseFee": "0x3",
      "l1BlobBaseFeeScalar": "0x0",
      "l1Fee": "0x0",
      "l1GasPrice": "0x1d",
      "l1GasUsed": "0x68a"
    },
    {
      "status": "0x1",
      "cumulativeGasUsed": "0x252e80",
      "logs": [
        {
          "address": "0x578bd46003b9d3fd4c3c3f47c98b329562a6a1de",
          "topics": [
            "0x90ca142474a3987fe4ec5cb24a254e13086fb998251070b5c9fc8ab70d78b8af",
            "0x000000000000000000000000bb776cd80bab1e658a6a8685580751166145121f",
            "0x000000000000000000000000d29b4e743f7b84d63fbf9149b6d983df2ef5c952"
          ],
          "data": "0x",
          "blockHash": "0x9c2993e11088d7d34bd18dae1365e74bae39985254f4499dea9aece868c006aa",
          "blockNumber": "0x1211a0a",
          "transactionHash": "0x0ccde8d4962b50aec3b8201a03cf7f8917a6ec3e5ee06b974e3d0758274b8f70",
          "transactionIndex": "0x18",
          "logIndex": "0x28",
          "removed": false
        },
        {
          "address": "0x578bd46003b9d3fd4c3c3f47c98b329562a6a1de",
          "topics": [
            "0x292d7648986a4abc017bc2a39852a675c1e325e24afd18fad659810792d5e405"
          ],
          "data": "0x0000000000000000000000004c67f682195d1627ed76ed69311930c7fb069684000000000000000000000000bb776cd80bab1e658a6a8685580751166145121f0000000000000000000000000000000000000000000000000000000000000001",
          "blockHash": "0x9c2993e11088d7d34bd18dae1365e74bae39985254f4499dea9aece868c006aa",
          "blockNumber": "0x1211a0a",
          "transactionHash": "0x0ccde8d4962b50aec3b8201a03cf7f8917a6ec3e5ee06b974e3d0758274b8f70",
          "transactionIndex": "0x18",
          "logIndex": "0x29",
          "removed": false
        }
      ],
      "logsBloom": "0x00000000000000000000010000000000000000000010000000040000000020000000000000000000000000000000000000000008000000000000100000000000000000000000000000000000000000000000000000000000000000004000000000000000000000000000000000008000000200000000000000000000400000000000000000000000000000000000000000000000000000000000000000000000000800000000000000000000000000000080000000000000000000000000000000000000000000000000000000000010001000000000000000000000000000000000000000000000000000000000000000000000000000000000000010000000",
      "type": "0x2",
      "transactionHash": "0x0ccde8d4962b50aec3b8201a03cf7f8917a6ec3e5ee06b974e3d0758274b8f70",
      "transactionIndex": "0x18",
      "blockHash": "0x9c2993e11088d7d34bd18dae1365e74bae39985254f4499dea9aece868c006aa",
      "blockNumber": "0x1211a0a",
      "gasUsed": "0x1fb04",
      "effectiveGasPrice": "0x5d21dba01",
      "from": "0x2738f38fde510743e0c589415e0598c4cee6eaa7",
      "to": "0x578bd46003b9d3fd4c3c3f47c98b329562a6a1de",
      "contractAddress": null,
      "l1BaseFeeScalar": "0x0",
      "l1BlobBaseFee": "0x3",
      "l1BlobBaseFeeScalar": "0x0",
      "l1Fee": "0x0",
      "l1GasPrice": "0x1d",
      "l1GasUsed": "0x68a"
    },
    {
      "status": "0x1",
      "cumulativeGasUsed": "0x2714ca",
      "logs": [
        {
          "address": "0x578bd46003b9d3fd4c3c3f47c98b329562a6a1de",
          "topics": [
            "0x292d7648986a4abc017bc2a39852a675c1e325e24afd18fad659810792d5e405"
          ],
          "data": "0x0000000000000000000000004c67f682195d1627ed76ed69311930c7fb069684000000000000000000000000ae5eee6815b8529847955d19522858806bca82170000000000000000000000000000000000000000000000000000000000000001",
          "blockHash": "0x9c2993e11088d7d34bd18dae1365e74bae39985254f4499dea9aece868c006aa",
          "blockNumber": "0x1211a0a",
          "transactionHash": "0x53e79e8772ed7474d197c86dd3261bac7830cb06b17b8b1fc0c73fa732852a47",
          "transactionIndex": "0x19",
          "logIndex": "0x2a",
          "removed": false
        }
      ],
      "logsBloom": "0x00000000000000000000010000000000000000000000000000000000000000000000000000000000000000000000000000000008000000000000000000000000000000000000000000000000000000000000000000000000000000000000000000000000000000000000000000008000000200000000000000000000000000000000000000000000000000000000000000000000000000000000000000000000000000000000000000000000000000000000000000000000000000000000000000000000000000000000000000000000001000000000000000000000000000000000000000000000000000000000000000000000000000000000000010000000",
      "type": "0x2",
      "transactionHash": "0x53e79e8772ed7474d197c86dd3261bac7830cb06b17b8b1fc0c73fa732852a47",
      "transactionIndex": "0x19",
      "blockHash": "0x9c2993e11088d7d34bd18dae1365e74bae39985254f4499dea9aece868c006aa",
      "blockNumber": "0x1211a0a",
      "gasUsed": "0x1e64a",
      "effectiveGasPrice": "0x5d21dba01",
      "from": "0x2738f38fde510743e0c589415e0598c4cee6eaa7",
      "to": "0x578bd46003b9d3fd4c3c3f47c98b329562a6a1de",
      "contractAddress": null,
      "l1BaseFeeScalar": "0x0",
      "l1BlobBaseFee": "0x3",
      "l1BlobBaseFeeScalar": "0x0",
      "l1Fee": "0x0",
      "l1GasPrice": "0x1d",
      "l1GasUsed": "0x68a"
    },
    {
      "status": "0x1",
      "cumulativeGasUsed": "0x290fce",
      "logs": [
        {
          "address": "0x578bd46003b9d3fd4c3c3f47c98b329562a6a1de",
          "topics": [
            "0x90ca142474a3987fe4ec5cb24a254e13086fb998251070b5c9fc8ab70d78b8af",
            "0x00000000000000000000000053f7dc47ab9273c2d83c2df557f3fcf1e6a9ee10",
            "0x000000000000000000000000d29b4e743f7b84d63fbf9149b6d983df2ef5c952"
          ],
          "data": "0x",
          "blockHash": "0x9c2993e11088d7d34bd18dae1365e74bae39985254f4499dea9aece868c006aa",
          "blockNumber": "0x1211a0a",
          "transactionHash": "0x5746a03b1c8028bb11a069f29de307181ea495119a9780ff04630422219a9d32",
          "transactionIndex": "0x1a",
          "logIndex": "0x2b",
          "removed": false
        },
        {
          "address": "0x578bd46003b9d3fd4c3c3f47c98b329562a6a1de",
          "topics": [
            "0x292d7648986a4abc017bc2a39852a675c1e325e24afd18fad659810792d5e405"
          ],
          "data": "0x0000000000000000000000004c67f682195d1627ed76ed69311930c7fb06968400000000000000000000000053f7dc47ab9273c2d83c2df557f3fcf1e6a9ee100000000000000000000000000000000000000000000000000000000000000001",
          "blockHash": "0x9c2993e11088d7d34bd18dae1365e74bae39985254f4499dea9aece868c006aa",
          "blockNumber": "0x1211a0a",
          "transactionHash": "0x5746a03b1c8028bb11a069f29de307181ea495119a9780ff04630422219a9d32",
          "transactionIndex": "0x1a",
          "logIndex": "0x2c",
          "removed": false
        }
      ],
      "logsBloom": "0x00000000000000000000010000000000000000000010000000000000000000000000000000000000000000000000000000000008000000000000100000000000000000000000000000000000000000000000000000000000000000004000000000000000000000000000000000008000000200000000000000002000400000000000000000000000000000000000000000000000000000000000000000000000000000000000000000000000000000000080000000000000000000000000000000000000000008000000000008000010001000000000000000000000000000000000000000000000000000000000000000000000000000000000000010000000",
      "type": "0x2",
      "transactionHash": "0x5746a03b1c8028bb11a069f29de307181ea495119a9780ff04630422219a9d32",
      "transactionIndex": "0x1a",
      "blockHash": "0x9c2993e11088d7d34bd18dae1365e74bae39985254f4499dea9aece868c006aa",
      "blockNumber": "0x1211a0a",
      "gasUsed": "0x1fb04",
      "effectiveGasPrice": "0x5d21dba01",
      "from": "0x2738f38fde510743e0c589415e0598c4cee6eaa7",
      "to": "0x578bd46003b9d3fd4c3c3f47c98b329562a6a1de",
      "contractAddress": null,
      "l1BaseFeeScalar": "0x0",
      "l1BlobBaseFee": "0x3",
      "l1BlobBaseFeeScalar": "0x0",
      "l1Fee": "0x0",
      "l1GasPrice": "0x1d",
      "l1GasUsed": "0x697"
    },
    {
      "status": "0x1",
      "cumulativeGasUsed": "0x2af55c",
      "logs": [
        {
          "address": "0x578bd46003b9d3fd4c3c3f47c98b329562a6a1de",
          "topics": [
            "0x292d7648986a4abc017bc2a39852a675c1e325e24afd18fad659810792d5e405"
          ],
          "data": "0x0000000000000000000000004c67f682195d1627ed76ed69311930c7fb069684000000000000000000000000c9dbd89fce5710c91c35ed9af1dc93fa090a28b00000000000000000000000000000000000000000000000000000000000000001",
          "blockHash": "0x9c2993e11088d7d34bd18dae1365e74bae39985254f4499dea9aece868c006aa",
          "blockNumber": "0x1211a0a",
          "transactionHash": "0x1f2d3a5edbb65d02ac3ced1af72973bfee85b22ebed8dfc924181825ec044cd1",
          "transactionIndex": "0x1b",
          "logIndex": "0x2d",
          "removed": false
        }
      ],
      "logsBloom": "0x00000000000000000000010000000000000000000000000000000000000000000000000000000000000000000000000000000008000000000000000000000000000000000000000000000000000000000000000000000000000000000000000000000000000000000000000000008000000200000000000000000000000000000000000000000000000000000000000000000000000000000000000000000000000000000000000000000000000000000000000000000000000000000000000000000000000000000000000000000000001000000000000000000000000000000000000000000000000000000000000000000000000000000000000010000000",
      "type": "0x2",
      "transactionHash": "0x1f2d3a5edbb65d02ac3ced1af72973bfee85b22ebed8dfc924181825ec044cd1",
      "transactionIndex": "0x1b",
      "blockHash": "0x9c2993e11088d7d34bd18dae1365e74bae39985254f4499dea9aece868c006aa",
      "blockNumber": "0x1211a0a",
      "gasUsed": "0x1e58e",
      "effectiveGasPrice": "0x5d21dba01",
      "from": "0x2738f38fde510743e0c589415e0598c4cee6eaa7",
      "to": "0x578bd46003b9d3fd4c3c3f47c98b329562a6a1de",
      "contractAddress": null,
      "l1BaseFeeScalar": "0x0",
      "l1BlobBaseFee": "0x3",
      "l1BlobBaseFeeScalar": "0x0",
      "l1Fee": "0x0",
      "l1GasPrice": "0x1d",
      "l1GasUsed": "0x697"
    },
    {
      "status": "0x1",
      "cumulativeGasUsed": "0x2cf054",
      "logs": [
        {
          "address": "0x578bd46003b9d3fd4c3c3f47c98b329562a6a1de",
          "topics": [
            "0x90ca142474a3987fe4ec5cb24a254e13086fb998251070b5c9fc8ab70d78b8af",
            "0x000000000000000000000000864ea534d6992f3721000cdb6585b11e7046d5ec",
            "0x000000000000000000000000d29b4e743f7b84d63fbf9149b6d983df2ef5c952"
          ],
          "data": "0x",
          "blockHash": "0x9c2993e11088d7d34bd18dae1365e74bae39985254f4499dea9aece868c006aa",
          "blockNumber": "0x1211a0a",
          "transactionHash": "0xcaa4c91a8004192bd7b48a5036db9eef70871cdf34753d3f9160cfa5b22ea36c",
          "transactionIndex": "0x1c",
          "logIndex": "0x2e",
          "removed": false
        },
        {
          "address": "0x578bd46003b9d3fd4c3c3f47c98b329562a6a1de",
          "topics": [
            "0x292d7648986a4abc017bc2a39852a675c1e325e24afd18fad659810792d5e405"
          ],
          "data": "0x0000000000000000000000004c67f682195d1627ed76ed69311930c7fb069684000000000000000000000000864ea534d6992f3721000cdb6585b11e7046d5ec0000000000000000000000000000000000000000000000000000000000000001",
          "blockHash": "0x9c2993e11088d7d34bd18dae1365e74bae39985254f4499dea9aece868c006aa",
          "blockNumber": "0x1211a0a",
          "transactionHash": "0xcaa4c91a8004192bd7b48a5036db9eef70871cdf34753d3f9160cfa5b22ea36c",
          "transactionIndex": "0x1c",
          "logIndex": "0x2f",
          "removed": false
        }
      ],
      "logsBloom": "0x00000000000000000000010000000000000000000010000000000000000000000000000000000000000000000000000000000008000000000000100000000000000000000100000000000000000000000000000000000000004000004000000000000000000000000000000000008000000200000000000000000000400000000000000000000000000000000000000000000000000000000000000000000000000000001000000000000000000000000080000000000000000000000000000000000000000000000000000000000010001000000000000000000000000000000000000000000000000000000000000000000000000000000000000010000000",
      "type": "0x2",
      "transactionHash": "0xcaa4c91a8004192bd7b48a5036db9eef70871cdf34753d3f9160cfa5b22ea36c",
      "transactionIndex": "0x1c",
      "blockHash": "0x9c2993e11088d7d34bd18dae1365e74bae39985254f4499dea9aece868c006aa",
      "blockNumber": "0x1211a0a",
      "gasUsed": "0x1faf8",
      "effectiveGasPrice": "0x5d21dba01",
      "from": "0x2738f38fde510743e0c589415e0598c4cee6eaa7",
      "to": "0x578bd46003b9d3fd4c3c3f47c98b329562a6a1de",
      "contractAddress": null,
      "l1BaseFeeScalar": "0x0",
      "l1BlobBaseFee": "0x3",
      "l1BlobBaseFeeScalar": "0x0",
      "l1Fee": "0x0",
      "l1GasPrice": "0x1d",
      "l1GasUsed": "0x697"
    },
    {
      "status": "0x1",
      "cumulativeGasUsed": "0x2ed69e",
      "logs": [
        {
          "address": "0x578bd46003b9d3fd4c3c3f47c98b329562a6a1de",
          "topics": [
            "0x292d7648986a4abc017bc2a39852a675c1e325e24afd18fad659810792d5e405"
          ],
          "data": "0x0000000000000000000000004c67f682195d1627ed76ed69311930c7fb0696840000000000000000000000004f2746e21a13ea9a8a832d929cdbf32ffc113a2c0000000000000000000000000000000000000000000000000000000000000001",
          "blockHash": "0x9c2993e11088d7d34bd18dae1365e74bae39985254f4499dea9aece868c006aa",
          "blockNumber": "0x1211a0a",
          "transactionHash": "0x738cf8a5804b900b4eafe0050624af68c128b40722a3d44f13473c2d23f0a044",
          "transactionIndex": "0x1d",
          "logIndex": "0x30",
          "removed": false
        }
      ],
      "logsBloom": "0x00000000000000000000010000000000000000000000000000000000000000000000000000000000000000000000000000000008000000000000000000000000000000000000000000000000000000000000000000000000000000000000000000000000000000000000000000008000000200000000000000000000000000000000000000000000000000000000000000000000000000000000000000000000000000000000000000000000000000000000000000000000000000000000000000000000000000000000000000000000001000000000000000000000000000000000000000000000000000000000000000000000000000000000000010000000",
      "type": "0x2",
      "transactionHash": "0x738cf8a5804b900b4eafe0050624af68c128b40722a3d44f13473c2d23f0a044",
      "transactionIndex": "0x1d",
      "blockHash": "0x9c2993e11088d7d34bd18dae1365e74bae39985254f4499dea9aece868c006aa",
      "blockNumber": "0x1211a0a",
      "gasUsed": "0x1e64a",
      "effectiveGasPrice": "0x5d21dba01",
      "from": "0x2738f38fde510743e0c589415e0598c4cee6eaa7",
      "to": "0x578bd46003b9d3fd4c3c3f47c98b329562a6a1de",
      "contractAddress": null,
      "l1BaseFeeScalar": "0x0",
      "l1BlobBaseFee": "0x3",
      "l1BlobBaseFeeScalar": "0x0",
      "l1Fee": "0x0",
      "l1GasPrice": "0x1d",
      "l1GasUsed": "0x697"
    },
    {
      "status": "0x1",
      "cumulativeGasUsed": "0x30d197",
      "logs": [
        {
          "address": "0x578bd46003b9d3fd4c3c3f47c98b329562a6a1de",
          "topics": [
            "0x90ca142474a3987fe4ec5cb24a254e13086fb998251070b5c9fc8ab70d78b8af",
            "0x000000000000000000000000403ea4186ce479ff162636c37fdf4086bd286f8c",
            "0x000000000000000000000000d29b4e743f7b84d63fbf9149b6d983df2ef5c952"
          ],
          "data": "0x",
          "blockHash": "0x9c2993e11088d7d34bd18dae1365e74bae39985254f4499dea9aece868c006aa",
          "blockNumber": "0x1211a0a",
          "transactionHash": "0x69fb96ecb4e4a2b2ab8eb3cc14baa74a6097c8b610916e681d5cc12a66fb2501",
          "transactionIndex": "0x1e",
          "logIndex": "0x31",
          "removed": false
        },
        {
          "address": "0x578bd46003b9d3fd4c3c3f47c98b329562a6a1de",
          "topics": [
            "0x292d7648986a4abc017bc2a39852a675c1e325e24afd18fad659810792d5e405"
          ],
          "data": "0x0000000000000000000000004c67f682195d1627ed76ed69311930c7fb069684000000000000000000000000403ea4186ce479ff162636c37fdf4086bd286f8c0000000000000000000000000000000000000000000000000000000000000001",
          "blockHash": "0x9c2993e11088d7d34bd18dae1365e74bae39985254f4499dea9aece868c006aa",
          "blockNumber": "0x1211a0a",
          "transactionHash": "0x69fb96ecb4e4a2b2ab8eb3cc14baa74a6097c8b610916e681d5cc12a66fb2501",
          "transactionIndex": "0x1e",
          "logIndex": "0x32",
          "removed": false
        }
      ],
      "logsBloom": "0x00000000000000000000010000000000000000000010000000000000000000000000000000000000000000000000000000000008000000000000100000000000000000000000000000000000000000000000000000000000000000004000000000000000000000000000000000008000000200000000000000000000400000000000000000000000000000000000000000000000000000000000000000000000000000000000000000000000000000000080000000000200000000000000000000000000000000000000000000000010001000000000000000000000000000000000002000000000000000000000000000000000000000000000000010000000",
      "type": "0x2",
      "transactionHash": "0x69fb96ecb4e4a2b2ab8eb3cc14baa74a6097c8b610916e681d5cc12a66fb2501",
      "transactionIndex": "0x1e",
      "blockHash": "0x9c2993e11088d7d34bd18dae1365e74bae39985254f4499dea9aece868c006aa",
      "blockNumber": "0x1211a0a",
      "gasUsed": "0x1faf9",
      "effectiveGasPrice": "0x5d21dba01",
      "from": "0x2738f38fde510743e0c589415e0598c4cee6eaa7",
      "to": "0x578bd46003b9d3fd4c3c3f47c98b329562a6a1de",
      "contractAddress": null,
      "l1BaseFeeScalar": "0x0",
      "l1BlobBaseFee": "0x3",
      "l1BlobBaseFeeScalar": "0x0",
      "l1Fee": "0x0",
      "l1GasPrice": "0x1d",
      "l1GasUsed": "0x697"
    },
    {
      "status": "0x1",
      "cumulativeGasUsed": "0x32cc9b",
      "logs": [
        {
          "address": "0x578bd46003b9d3fd4c3c3f47c98b329562a6a1de",
          "topics": [
            "0x90ca142474a3987fe4ec5cb24a254e13086fb998251070b5c9fc8ab70d78b8af",
            "0x000000000000000000000000e7cddedc3dca1674b70c347c814c8a9fcf8f68c9",
            "0x000000000000000000000000d29b4e743f7b84d63fbf9149b6d983df2ef5c952"
          ],
          "data": "0x",
          "blockHash": "0x9c2993e11088d7d34bd18dae1365e74bae39985254f4499dea9aece868c006aa",
          "blockNumber": "0x1211a0a",
          "transactionHash": "0x6e4466721735ad6f040dd341178d86bb70214790144bfb78e5c33843a3dfade7",
          "transactionIndex": "0x1f",
          "logIndex": "0x33",
          "removed": false
        },
        {
          "address": "0x578bd46003b9d3fd4c3c3f47c98b329562a6a1de",
          "topics": [
            "0x292d7648986a4abc017bc2a39852a675c1e325e24afd18fad659810792d5e405"
          ],
          "data": "0x0000000000000000000000004c67f682195d1627ed76ed69311930c7fb069684000000000000000000000000e7cddedc3dca1674b70c347c814c8a9fcf8f68c90000000000000000000000000000000000000000000000000000000000000001",
          "blockHash": "0x9c2993e11088d7d34bd18dae1365e74bae39985254f4499dea9aece868c006aa",
          "blockNumber": "0x1211a0a",
          "transactionHash": "0x6e4466721735ad6f040dd341178d86bb70214790144bfb78e5c33843a3dfade7",
          "transactionIndex": "0x1f",
          "logIndex": "0x34",
          "removed": false
        }
      ],
      "logsBloom": "0x00000000000000000000010002000000000000000010000000000000000000000000000000000000000000000000000000000008000000000000100000000000000000000000000000000000000000000000000000000000000000004000000000000000000000000000000000008000000200000000000000000000400000000000000000000000000000000000000000000000000000001000000000000000000000000000000000000000000000000080000000000000000000000000000000000000000000000000000000000010001000000000000000000000000000004000000000000000000000000000000000000000000000000000000010000000",
      "type": "0x2",
      "transactionHash": "0x6e4466721735ad6f040dd341178d86bb70214790144bfb78e5c33843a3dfade7",
      "transactionIndex": "0x1f",
      "blockHash": "0x9c2993e11088d7d34bd18dae1365e74bae39985254f4499dea9aece868c006aa",
      "blockNumber": "0x1211a0a",
      "gasUsed": "0x1fb04",
      "effectiveGasPrice": "0x5d21dba01",
      "from": "0x2738f38fde510743e0c589415e0598c4cee6eaa7",
      "to": "0x578bd46003b9d3fd4c3c3f47c98b329562a6a1de",
      "contractAddress": null,
      "l1BaseFeeScalar": "0x0",
      "l1BlobBaseFee": "0x3",
      "l1BlobBaseFeeScalar": "0x0",
      "l1Fee": "0x0",
      "l1GasPrice": "0x1d",
      "l1GasUsed": "0x697"
    },
    {
      "status": "0x1",
      "cumulativeGasUsed": "0x335787",
      "logs": [
        {
          "address": "0x26eff54e2f0e8825996b83119b7df5ef2c882dd7",
          "topics": [
            "0x829e18c1478628aa3f35da681ccd84c97c877b93325a843d824b77db2b803079",
            "0x00000000000000000000000099c968bf5972c11442654b989b7ead0237ca654b",
            "0x0000000000000000000000004c67f682195d1627ed76ed69311930c7fb069684"
          ],
          "data": "0x",
          "blockHash": "0x9c2993e11088d7d34bd18dae1365e74bae39985254f4499dea9aece868c006aa",
          "blockNumber": "0x1211a0a",
          "transactionHash": "0x270f9e744799576d74ed58b019c25c9ed6e5f9ea0b3f8b92dde1b996ad82e207",
          "transactionIndex": "0x20",
          "logIndex": "0x35",
          "removed": false
        }
      ],
      "logsBloom": "0x00008000000000000000000000004000000000000000000000000000000000000000000000000000000400000000000000000000000000000000010008000000000000000000000000000000000000000000000000000000000000080000000000000000000000000000000000000000000000000000000000000000000000000000002000000000000000000000000000000000000000000000000000000000002000000000000000000000000000000000800000000000000000010000000000000800000000000000000000000000000000000000000000000000000000000000000000000000000000000000000000000000000000000000000000000020",
      "type": "0x2",
      "transactionHash": "0x270f9e744799576d74ed58b019c25c9ed6e5f9ea0b3f8b92dde1b996ad82e207",
      "transactionIndex": "0x20",
      "blockHash": "0x9c2993e11088d7d34bd18dae1365e74bae39985254f4499dea9aece868c006aa",
      "blockNumber": "0x1211a0a",
      "gasUsed": "0x8aec",
      "effectiveGasPrice": "0x5d21dba01",
      "from": "0x2738f38fde510743e0c589415e0598c4cee6eaa7",
      "to": "0x26eff54e2f0e8825996b83119b7df5ef2c882dd7",
      "contractAddress": null,
      "l1BaseFeeScalar": "0x0",
      "l1BlobBaseFee": "0x3",
      "l1BlobBaseFeeScalar": "0x0",
      "l1Fee": "0x0",
      "l1GasPrice": "0x1d",
      "l1GasUsed": "0x640"
    }
  ],
  "libraries": [
    "node_modules/@celo/contracts/common/linkedlists/AddressSortedLinkedListWithMedian.sol:AddressSortedLinkedListWithMedian:0xf90B816Ea07eC3c6384656cd5B3249DA8fc3df6F"
  ],
  "pending": [],
  "returns": {},
  "timestamp": 1772230560123,
  "chain": 11142220,
  "commit": "306aa0e"
}